{
	"data": {
		"bytecode": {
			"linkReferences": {},
			"object": "608060405234801561000f575f5ffd5b50604051613af3380380613af383398101604081905261002e916104c5565b6040518060400160405280601581526020017f4459534e4f4d4941205265616374696f6e734c696200000000000000000000008152506040518060400160405280600c81526020016b2932b0b1ba34b7b739a634b160a11b815250826001600160a01b0316636fb7329c6040518163ffffffff1660e01b8152600401602060405180830381865afa1580156100c5573d5f5f3e3d5ffd5b505050506040513d601f19601f820116820180604052508101906100e991906104c5565b338061011b57604051633603021960e21b81523260048201525f60248201523060448201526064015b60405180910390fd5b6101268160016102c8565b506004610133848261057f565b506005610140838261057f565b50600680546001600160a01b0319166001600160a01b0383169081179091556040805163604a6fa960e01b815290516201b207929163604a6fa991600480830192602092919082900301815f875af115801561019e573d5f5f3e3d5ffd5b505050506040513d601f19601f820116820180604052508101906101c29190610639565b6101cc919061065f565b6001600160401b03166007556102227324f0154c1dce548adf15da2098fdd8b8a3b8151d6101fc6012600a610792565b6102079060016107a0565b6001600160a01b039091165f90815260086020526040902055565b5050600980546001600160a01b0319166001600160a01b038416908117909155604080516339dd2ce960e21b81526004810191909152600d60448201526c636f72657265616374696f6e7360981b606482015230602482015290915063e774b3a4906084015f604051808303815f87803b15801561029e575f5ffd5b505af11580156102b0573d5f5f3e3d5ffd5b505050506102c261031b60201b60201c565b506107ca565b6001600160a01b0382165f81815260208190526040808220805460ff191685151590811790915590519092917f6bfa7e860c3e9bf67b810cb88276b19b27c972812bac04793d369b59a1183a8391a35050565b6103276012600a610792565b60075461033491906107a0565b600354101561035d5761035d3061034d6012600a610792565b6103589060016107a0565b61035f565b565b61036a5f838361036e565b5050565b6001600160a01b038316610398578060035f82825461038d91906107b7565b909155506104229050565b6001600160a01b0383165f908152600160205260409020548181101561040457604051630f7d0bbd60e21b81523260048201523360248201526001600160a01b0380861660448301528416606482015230608482015260a4810182905260c4810183905260e401610112565b6001600160a01b0384165f9081526001602052604090209082900390555b6001600160a01b03821661043e5760038054829003905561045c565b6001600160a01b0382165f9081526001602052604090208054820190555b816001600160a01b0316836001600160a01b03167fddf252ad1be2c89b69c2b068fc378daa952ba7f163c4a11628f55a4df523b3ef836040516104a191815260200190565b60405180910390a3505050565b6001600160a01b03811681146104c2575f5ffd5b50565b5f602082840312156104d5575f5ffd5b81516104e0816104ae565b9392505050565b634e487b7160e01b5f52604160045260245ffd5b600181811c9082168061050f57607f821691505b60208210810361052d57634e487b7160e01b5f52602260045260245ffd5b50919050565b601f82111561057a57805f5260205f20601f840160051c810160208510156105585750805b601f840160051c820191505b81811015610577575f8155600101610564565b50505b505050565b81516001600160401b03811115610598576105986104e7565b6105ac816105a684546104fb565b84610533565b6020601f8211600181146105de575f83156105c75750848201515b5f19600385901b1c1916600184901b178455610577565b5f84815260208120601f198516915b8281101561060d57878501518255602094850194600190920191016105ed565b508482101561062a57868401515f19600387901b60f8161c191681555b50505050600190811b01905550565b5f60208284031215610649575f5ffd5b81516001600160401b03811681146104e0575f5ffd5b5f6001600160401b0383168061068357634e487b7160e01b5f52601260045260245ffd5b6001600160401b03929092169190910692915050565b634e487b7160e01b5f52601160045260245ffd5b6001815b60018411156106e8578085048111156106cc576106cc610699565b60018416156106da57908102905b60019390931c9280026106b1565b935093915050565b5f826106fe5750600161078c565b8161070a57505f61078c565b8160018114610720576002811461072a57610746565b600191505061078c565b60ff84111561073b5761073b610699565b50506001821b61078c565b5060208310610133831016604e8410600b8410161715610769575081810a61078c565b6107755f1984846106ad565b805f190482111561078857610788610699565b0290505b92915050565b5f6104e060ff8416836106f0565b808202811582820484141761078c5761078c610699565b8082018082111561078c5761078c610699565b61331c806107d75f395ff3fe608060405234801561000f575f5ffd5b5060043610610225575f3560e01c80637065cb4811610135578063d3dc2a0f116100b4578063f086425311610079578063f08642531461050f578063f4e6c93f14610522578063f4f6c22c1461052a578063fc7cd61e1461053d578063ff76204414610550575f5ffd5b8063d3dc2a0f146104a7578063d5abeb01146104cd578063dd62ed3e146104d6578063e5b976d1146104e9578063ecd689ea146104fc575f5ffd5b80639dcbf7ea116100fa5780639dcbf7ea14610448578063a7d21f681461045b578063a9059cbb1461046e578063b956aa8714610481578063c4686fc914610494575f5ffd5b80637065cb48146103ec57806370a08231146103ff57806385425f9a146104275780638da5cb5b1461043a57806395d89b4114610440575f5ffd5b80633161929a116101c1578063666e1b3911610186578063666e1b3914610380578063676a8ccc14610393578063679b9538146103a65780636872fc3c146103b95780636fb7329c146103d9575f5ffd5b80633161929a14610321578063379aa3cf1461033457806338bf3cfa14610347578063459efe9c1461035a5780635b7853331461036d575f5ffd5b806306fdde0314610229578063095ea7b31461024757806318160ddd1461026a5780631d736e6c1461027c578063222838db146102af57806323b872dd146102c45780632499a533146102d75780632b83b1fc146102ea578063313ce56714610312575b5f5ffd5b61023161057b565b60405161023e91906126c6565b60405180910390f35b61025a61025536600461270f565b61060b565b604051901515815260200161023e565b6003545b60405190815260200161023e565b61028f61028a3660046128e1565b610624565b604080516001600160401b0393841681529290911660208301520161023e565b6102c26102bd36600461270f565b6107cd565b005b61025a6102d236600461295c565b6109cf565b6102c26102e536600461270f565b6109f2565b61026e6102f836600461299a565b6001600160a01b03165f9081526008602052604090205490565b6040516012815260200161023e565b61028f61032f3660046129bc565b610ba5565b6102c261034236600461299a565b610c9c565b6102c261035536600461299a565b610cc6565b61028f6103683660046129f4565b610cdb565b61028f61037b366004612a0f565b610fc2565b61025a61038e36600461299a565b611114565b61028f6103a1366004612a0f565b611131565b61028f6103b4366004612a2a565b611273565b600a546103cc906001600160a01b031681565b60405161023e9190612a56565b6006546103cc906001600160a01b031681565b6102c26103fa36600461299a565b61141e565b61026e61040d36600461299a565b6001600160a01b03165f9081526001602052604090205490565b61028f610435366004612a0f565b61145e565b306103cc565b6102316115a7565b6102c2610456366004612ae2565b6115b6565b61028f610469366004612b45565b6115dc565b61025a61047c36600461270f565b61163a565b61028f61048f366004612b45565b611647565b61028f6104a2366004612b45565b6118de565b6104b56603632c8eb5af3b81565b6040516001600160401b03909116815260200161023e565b61026e60075481565b61026e6104e4366004612b8f565b611b69565b61028f6104f7366004612b45565b611b93565b61028f61050a366004612bbb565b611e1a565b6104b561051d3660046129f4565b6120cf565b6102c2612311565b6009546103cc906001600160a01b031681565b61028f61054b366004612a2a565b612323565b6102316040518060400160405280600c81526020016b2932b0b1ba34b7b739a634b160a11b81525081565b60606004805461058a90612c64565b80601f01602080910402602001604051908101604052809291908181526020018280546105b690612c64565b80156106015780601f106105d857610100808354040283529160200191610601565b820191905f5260205f20905b8154815290600101906020018083116105e457829003601f168201915b5050505050905090565b5f336106188185856123d8565b60019150505b92915050565b5f8061064b84846002602002015160c08701511885600160200201518760e00151186115dc565b6001600160401b0390811660e08701521660c0850152608084015160095460408051639ff4300160e01b815290516107a993926001600160a01b031691639ff4300191600480830192602092919082900301815f875af11580156106b1573d5f5f3e3d5ffd5b505050506040513d601f19601f820116820180604052508101906106d59190612c9c565b6001600160a01b03166376fade906040518163ffffffff1660e01b81526004016020604051808303815f875af1158015610711573d5f5f3e3d5ffd5b505050506040513d601f19601f820116820180604052508101906107359190612c9c565b6001600160a01b031663a45669506040518163ffffffff1660e01b8152600401610300604051808303815f875af1158015610772573d5f5f3e3d5ffd5b505050506040513d601f19601f820116820180604052508101906107969190612d67565b6040015160e001518660e0015118611273565b6001600160401b0390811660e08701819052911660c0909501859052939492505050565b6001600160a01b0382165f90815260086020526040812054900361080f57816040516390b2344160e01b81526004016108069190612a56565b60405180910390fd5b815f61081d6012600a612eaa565b6001600160a01b0385165f9081526008602052604090205461083f9085612eb8565b6108499190612ecf565b6040516323b872dd60e01b81529091505f9030906323b872dd9061087590339084908990600401612eee565b6020604051808303815f875af1158015610891573d5f5f3e3d5ffd5b505050506040513d601f19601f820116820180604052508101906108b59190612f12565b905080306001600160a01b03166306fdde036040518163ffffffff1660e01b81526004015f60405180830381865afa1580156108f3573d5f5f3e3d5ffd5b505050506040513d5f823e601f3d908101601f1916820160405261091a9190810190612f31565b60405160200161092a9190612fa5565b604051602081830303815290604052906109575760405162461bcd60e51b815260040161080691906126c6565b5060405163a9059cbb60e01b8152336004820152602481018390526001600160a01b0384169063a9059cbb906044015b6020604051808303815f875af11580156109a3573d5f5f3e3d5ffd5b505050506040513d601f19601f820116820180604052508101906109c79190612f12565b505050505050565b5f336109dc8582856123e5565b6109e785858561243c565b506001949350505050565b6001600160a01b0382165f908152600860205260408120549003610a2b57816040516390b2344160e01b81526004016108069190612a56565b815f610a396012600a612eaa565b6001600160a01b0385165f90815260086020526040902054610a5b9085612eb8565b610a659190612ecf565b90505f826001600160a01b03166323b872dd3330856040518463ffffffff1660e01b8152600401610a9893929190612eee565b6020604051808303815f875af1158015610ab4573d5f5f3e3d5ffd5b505050506040513d601f19601f82011682018060405250810190610ad89190612f12565b905080836001600160a01b03166306fdde036040518163ffffffff1660e01b81526004015f60405180830381865afa158015610b16573d5f5f3e3d5ffd5b505050506040513d5f823e601f3d908101601f19168201604052610b3d9190810190612f31565b604051602001610b4d9190612fa5565b60405160208183030381529060405290610b7a5760405162461bcd60e51b815260040161080691906126c6565b5060405163a9059cbb60e01b815233600482015260248101859052309063a9059cbb90604401610987565b5f5f610c918460095f9054906101000a90046001600160a01b03166001600160a01b0316639ff430016040518163ffffffff1660e01b81526004016020604051808303815f875af1158015610bfc573d5f5f3e3d5ffd5b505050506040513d601f19601f82011682018060405250810190610c209190612c9c565b6001600160a01b03166327bacc406040518163ffffffff1660e01b8152600401602060405180830381865afa158015610c5b573d5f5f3e3d5ffd5b505050506040513d601f19601f82011682018060405250810190610c7f9190612fd5565b8660c0015118858760e00151186115dc565b915091509250929050565b610ca4612447565b600a80546001600160a01b0319166001600160a01b0392909216919091179055565b610cce612447565b610cd8815f612487565b50565b5f5f610e25836080015160095f9054906101000a90046001600160a01b03166001600160a01b0316639ff430016040518163ffffffff1660e01b81526004016020604051808303815f875af1158015610d36573d5f5f3e3d5ffd5b505050506040513d601f19601f82011682018060405250810190610d5a9190612c9c565b6001600160a01b03166376fade906040518163ffffffff1660e01b81526004016020604051808303815f875af1158015610d96573d5f5f3e3d5ffd5b505050506040513d601f19601f82011682018060405250810190610dba9190612c9c565b6001600160a01b031663a45669506040518163ffffffff1660e01b8152600401610300604051808303815f875af1158015610df7573d5f5f3e3d5ffd5b505050506040513d601f19601f82011682018060405250810190610e1b9190612d67565b5160c00151611273565b6001600160401b0390811660e08601819052911660c0850152610e4790610fc2565b6001600160401b0390811660e08601521660c0840152608083015160095460408051639ff4300160e01b81529051610f9f93926001600160a01b031691639ff4300191600480830192602092919082900301815f875af1158015610ead573d5f5f3e3d5ffd5b505050506040513d601f19601f82011682018060405250810190610ed19190612c9c565b6001600160a01b03166376fade906040518163ffffffff1660e01b81526004016020604051808303815f875af1158015610f0d573d5f5f3e3d5ffd5b505050506040513d601f19601f82011682018060405250810190610f319190612c9c565b6001600160a01b031663a45669506040518163ffffffff1660e01b8152600401610300604051808303815f875af1158015610f6e573d5f5f3e3d5ffd5b505050506040513d601f19601f82011682018060405250810190610f929190612d67565b6040015160c00151611273565b6001600160401b0390811660e08601819052911660c09094018490529293915050565b5f5f61110b60095f9054906101000a90046001600160a01b03166001600160a01b0316639ff430016040518163ffffffff1660e01b81526004016020604051808303815f875af1158015611018573d5f5f3e3d5ffd5b505050506040513d601f19601f8201168201806040525081019061103c9190612c9c565b6001600160a01b03166376fade906040518163ffffffff1660e01b81526004016020604051808303815f875af1158015611078573d5f5f3e3d5ffd5b505050506040513d601f19601f8201168201806040525081019061109c9190612c9c565b6001600160a01b031663a45669506040518163ffffffff1660e01b8152600401610300604051808303815f875af11580156110d9573d5f5f3e3d5ffd5b505050506040513d601f19601f820116820180604052508101906110fd9190612d67565b602001516080015184611273565b91509150915091565b6001600160a01b03165f9081526020819052604090205460ff1690565b5f5f61110b60095f9054906101000a90046001600160a01b03166001600160a01b0316639ff430016040518163ffffffff1660e01b81526004016020604051808303815f875af1158015611187573d5f5f3e3d5ffd5b505050506040513d601f19601f820116820180604052508101906111ab9190612c9c565b6001600160a01b03166376fade906040518163ffffffff1660e01b81526004016020604051808303815f875af11580156111e7573d5f5f3e3d5ffd5b505050506040513d601f19601f8201168201806040525081019061120b9190612c9c565b6001600160a01b031663a45669506040518163ffffffff1660e01b8152600401610300604051808303815f875af1158015611248573d5f5f3e3d5ffd5b505050506040513d601f19601f8201168201806040525081019061126c9190612d67565b5160800151845b5f5f61127d6124da565b836001600160a01b03166325a28a8f6040518163ffffffff1660e01b8152600401602060405180830381865afa1580156112b9573d5f5f3e3d5ffd5b505050506040513d601f19601f820116820180604052508101906112dd9190612c9c565b6001600160a01b031663f302d97f84866001600160a01b0316634970204f6040518163ffffffff1660e01b8152600401602060405180830381865afa158015611328573d5f5f3e3d5ffd5b505050506040513d601f19601f8201168201806040525081019061134c9190612c9c565b6001600160a01b0316631686f2656040518163ffffffff1660e01b81526004016101a0604051808303815f875af1158015611389573d5f5f3e3d5ffd5b505050506040513d601f19601f820116820180604052508101906113ad9190612ff0565b606001516040516001600160e01b031960e085901b1681526001600160401b0392831660048201529116602482015260440160408051808303815f875af11580156113fa573d5f5f3e3d5ffd5b505050506040513d601f19601f82011682018060405250810190610c9191906130f3565b611426612447565b6001600160a01b03811661145357325f30604051633603021960e21b815260040161080693929190613120565b610cd8816001612487565b5f5f61110b60095f9054906101000a90046001600160a01b03166001600160a01b0316639ff430016040518163ffffffff1660e01b81526004016020604051808303815f875af11580156114b4573d5f5f3e3d5ffd5b505050506040513d601f19601f820116820180604052508101906114d89190612c9c565b6001600160a01b03166376fade906040518163ffffffff1660e01b81526004016020604051808303815f875af1158015611514573d5f5f3e3d5ffd5b505050506040513d601f19601f820116820180604052508101906115389190612c9c565b6001600160a01b031663a45669506040518163ffffffff1660e01b8152600401610300604051808303815f875af1158015611575573d5f5f3e3d5ffd5b505050506040513d601f19601f820116820180604052508101906115999190612d67565b604001516080015184612323565b60606005805461058a90612c64565b6115be612447565b60046115ca838261318e565b5060056115d7828261318e565b505050565b5f5f6115ec856080015185611273565b6001600160401b0390811660c08801521660e086015260808501516116119084611273565b6001600160401b0390811660c08801819052911660e0870181905290925090505b935093915050565b5f3361061881858561243c565b5f5f6118d28560095f9054906101000a90046001600160a01b03166001600160a01b0316639ff430016040518163ffffffff1660e01b81526004016020604051808303815f875af115801561169e573d5f5f3e3d5ffd5b505050506040513d601f19601f820116820180604052508101906116c29190612c9c565b6001600160a01b03166376fade906040518163ffffffff1660e01b81526004016020604051808303815f875af11580156116fe573d5f5f3e3d5ffd5b505050506040513d601f19601f820116820180604052508101906117229190612c9c565b6001600160a01b031663a45669506040518163ffffffff1660e01b8152600401610300604051808303815f875af115801561175f573d5f5f3e3d5ffd5b505050506040513d601f19601f820116820180604052508101906117839190612d67565b6020015160c00151861860095f9054906101000a90046001600160a01b03166001600160a01b0316639ff430016040518163ffffffff1660e01b81526004016020604051808303815f875af11580156117de573d5f5f3e3d5ffd5b505050506040513d601f19601f820116820180604052508101906118029190612c9c565b6001600160a01b03166376fade906040518163ffffffff1660e01b81526004016020604051808303815f875af115801561183e573d5f5f3e3d5ffd5b505050506040513d601f19601f820116820180604052508101906118629190612c9c565b6001600160a01b031663a45669506040518163ffffffff1660e01b8152600401610300604051808303815f875af115801561189f573d5f5f3e3d5ffd5b505050506040513d601f19601f820116820180604052508101906118c39190612d67565b6020015160e0015186186115dc565b91509150935093915050565b5f5f6118d28560095f9054906101000a90046001600160a01b03166001600160a01b0316639ff430016040518163ffffffff1660e01b81526004016020604051808303815f875af1158015611935573d5f5f3e3d5ffd5b505050506040513d601f19601f820116820180604052508101906119599190612c9c565b6001600160a01b03166376fade906040518163ffffffff1660e01b81526004016020604051808303815f875af1158015611995573d5f5f3e3d5ffd5b505050506040513d601f19601f820116820180604052508101906119b99190612c9c565b6001600160a01b031663a45669506040518163ffffffff1660e01b8152600401610300604051808303815f875af11580156119f6573d5f5f3e3d5ffd5b505050506040513d601f19601f82011682018060405250810190611a1a9190612d67565b6040015160c00151861860095f9054906101000a90046001600160a01b03166001600160a01b0316639ff430016040518163ffffffff1660e01b81526004016020604051808303815f875af1158015611a75573d5f5f3e3d5ffd5b505050506040513d601f19601f82011682018060405250810190611a999190612c9c565b6001600160a01b03166376fade906040518163ffffffff1660e01b81526004016020604051808303815f875af1158015611ad5573d5f5f3e3d5ffd5b505050506040513d601f19601f82011682018060405250810190611af99190612c9c565b6001600160a01b031663a45669506040518163ffffffff1660e01b8152600401610300604051808303815f875af1158015611b36573d5f5f3e3d5ffd5b505050506040513d601f19601f82011682018060405250810190611b5a9190612d67565b6040015160e0015186186115dc565b6001600160a01b039182165f90815260026020908152604080832093909416825291909152205490565b5f5f6118d28560095f9054906101000a90046001600160a01b03166001600160a01b0316639ff430016040518163ffffffff1660e01b81526004016020604051808303815f875af1158015611bea573d5f5f3e3d5ffd5b505050506040513d601f19601f82011682018060405250810190611c0e9190612c9c565b6001600160a01b03166376fade906040518163ffffffff1660e01b81526004016020604051808303815f875af1158015611c4a573d5f5f3e3d5ffd5b505050506040513d601f19601f82011682018060405250810190611c6e9190612c9c565b6001600160a01b031663a45669506040518163ffffffff1660e01b8152600401610300604051808303815f875af1158015611cab573d5f5f3e3d5ffd5b505050506040513d601f19601f82011682018060405250810190611ccf9190612d67565b5f015160c00151861860095f9054906101000a90046001600160a01b03166001600160a01b0316639ff430016040518163ffffffff1660e01b81526004016020604051808303815f875af1158015611d29573d5f5f3e3d5ffd5b505050506040513d601f19601f82011682018060405250810190611d4d9190612c9c565b6001600160a01b03166376fade906040518163ffffffff1660e01b81526004016020604051808303815f875af1158015611d89573d5f5f3e3d5ffd5b505050506040513d601f19601f82011682018060405250810190611dad9190612c9c565b6001600160a01b031663a45669506040518163ffffffff1660e01b8152600401610300604051808303815f875af1158015611dea573d5f5f3e3d5ffd5b505050506040513d601f19601f82011682018060405250810190611e0e9190612d67565b5160e0015186186115dc565b5f5f611e246124da565b600a54835160095460408051639ff4300160e01b815290516001600160a01b039485169463eedf25f094931691639ff4300191600480830192602092919082900301815f875af1158015611e7a573d5f5f3e3d5ffd5b505050506040513d601f19601f82011682018060405250810190611e9e9190612c9c565b6001600160a01b03166376fade906040518163ffffffff1660e01b81526004016020604051808303815f875af1158015611eda573d5f5f3e3d5ffd5b505050506040513d601f19601f82011682018060405250810190611efe9190612c9c565b6001600160a01b031663a45669506040518163ffffffff1660e01b8152600401610300604051808303815f875af1158015611f3b573d5f5f3e3d5ffd5b505050506040513d601f19601f82011682018060405250810190611f5f9190612d67565b6020015160c001516040516001600160e01b031960e085901b1681526001600160401b0392831660048201529116602482015260440160408051808303815f875af1158015611fb0573d5f5f3e3d5ffd5b505050506040513d601f19601f82011682018060405250810190611fd491906130f3565b60208501516001600160401b0391821660e0820152911660c0909101528251611ffc90610fc2565b6020850180516001600160401b0392831660e08083019190915293831660c090910152600a548651915190930151604051630eedf25f60e41b8152918316600483015290911660248201526001600160a01b039091169063eedf25f09060440160408051808303815f875af1158015612077573d5f5f3e3d5ffd5b505050506040513d601f19601f8201168201806040525081019061209b91906130f3565b602090940180516001600160401b0395861660e0808301919091529290951660c09586015251938401519301519293915050565b5f6120d86124da565b60065f9054906101000a90046001600160a01b03166001600160a01b03166353df6e3583608001516001600160a01b031663a45669506040518163ffffffff1660e01b8152600401606060405180830381865afa15801561213b573d5f5f3e3d5ffd5b505050506040513d601f19601f8201168201806040525081019061215f9190613248565b602001516001600160a01b0316631686f2656040518163ffffffff1660e01b81526004016101a0604051808303815f875af11580156121a0573d5f5f3e3d5ffd5b505050506040513d601f19601f820116820180604052508101906121c49190612ff0565b610160015184608001516001600160a01b031663a45669506040518163ffffffff1660e01b8152600401606060405180830381865afa158015612209573d5f5f3e3d5ffd5b505050506040513d601f19601f8201168201806040525081019061222d9190613248565b5f01516001600160a01b0316631686f2656040518163ffffffff1660e01b81526004016101a0604051808303815f875af115801561226d573d5f5f3e3d5ffd5b505050506040513d601f19601f820116820180604052508101906122919190612ff0565b61016001516040516001600160e01b031960e085901b1681526001600160401b039283166004820152911660248201526603632c8eb5af3b60448201526064016020604051808303815f875af11580156122ed573d5f5f3e3d5ffd5b505050506040513d601f19601f8201168201806040525081019061061e9190612fd5565b612319612447565b6123216124da565b565b5f5f61232d6124da565b836001600160a01b0316634970204f6040518163ffffffff1660e01b8152600401602060405180830381865afa158015612369573d5f5f3e3d5ffd5b505050506040513d601f19601f8201168201806040525081019061238d9190612c9c565b6001600160a01b031663f302d97f84866001600160a01b03166325a28a8f6040518163ffffffff1660e01b8152600401602060405180830381865afa158015611328573d5f5f3e3d5ffd5b6115d7838383600161251c565b5f6123f08484611b69565b90505f1981146124365781811015612428573233858530858760405162b83d1960e21b81526004016108069796959493929190613290565b61243684848484035f61251c565b50505050565b6115d783838361259c565b61245033611114565b158015612463575061246132611114565b155b1561232157323330604051630be6bab560e01b815260040161080693929190613120565b6001600160a01b0382165f81815260208190526040808220805460ff191685151590811790915590519092917f6bfa7e860c3e9bf67b810cb88276b19b27c972812bac04793d369b59a1183a8391a35050565b6124e66012600a612eaa565b6007546124f39190612eb8565b6003541015612321576123213061250c6012600a612eaa565b612517906001612eb8565b6126b7565b6001600160a01b038085165f908152600260209081526040808320938716835292905220829055801561243657826001600160a01b0316846001600160a01b03167f8c5be1e5ebec7d5bd14f71427d1e84f3dd0314c0f7b2291e5b200ac8c7c3b9258460405161258e91815260200190565b60405180910390a350505050565b6001600160a01b0383166125c6578060035f8282546125bb91906132d3565b9091555061262b9050565b6001600160a01b0383165f908152600160205260409020548181101561260d5732338585308587604051630f7d0bbd60e21b81526004016108069796959493929190613290565b6001600160a01b0384165f9081526001602052604090209082900390555b6001600160a01b03821661264757600380548290039055612665565b6001600160a01b0382165f9081526001602052604090208054820190555b816001600160a01b0316836001600160a01b03167fddf252ad1be2c89b69c2b068fc378daa952ba7f163c4a11628f55a4df523b3ef836040516126aa91815260200190565b60405180910390a3505050565b6126c25f838361259c565b5050565b602081525f82518060208401528060208501604085015e5f604082850101526040601f19601f83011684010191505092915050565b6001600160a01b0381168114610cd8575f5ffd5b5f5f60408385031215612720575f5ffd5b823561272b816126fb565b946020939093013593505050565b634e487b7160e01b5f52604160045260245ffd5b60405161010081016001600160401b038111828210171561277057612770612739565b60405290565b604051606081016001600160401b038111828210171561277057612770612739565b604051608081016001600160401b038111828210171561277057612770612739565b6040516101a081016001600160401b038111828210171561277057612770612739565b604051601f8201601f191681016001600160401b038111828210171561280557612805612739565b604052919050565b8035612818816126fb565b919050565b6001600160401b0381168114610cd8575f5ffd5b80356128188161281d565b5f610100828403121561284d575f5ffd5b61285561274d565b90508135612862816126fb565b81526128706020830161280d565b602082015261288160408301612831565b604082015261289260608301612831565b60608201526128a36080830161280d565b60808201526128b460a08301612831565b60a08201526128c560c08301612831565b60c08201526128d660e08301612831565b60e082015292915050565b5f5f61016083850312156128f3575f5ffd5b6128fd848461283c565b91508361011f84011261290e575f5ffd5b612916612776565b80610160850186811115612928575f5ffd5b61010086015b8181101561294f5780356129418161281d565b84526020938401930161292e565b5093969095509350505050565b5f5f5f6060848603121561296e575f5ffd5b8335612979816126fb565b92506020840135612989816126fb565b929592945050506040919091013590565b5f602082840312156129aa575f5ffd5b81356129b5816126fb565b9392505050565b5f5f61012083850312156129ce575f5ffd5b6129d8848461283c565b91506101008301356129e98161281d565b809150509250929050565b5f6101008284031215612a05575f5ffd5b6129b5838361283c565b5f60208284031215612a1f575f5ffd5b81356129b58161281d565b5f5f60408385031215612a3b575f5ffd5b8235612a46816126fb565b915060208301356129e98161281d565b6001600160a01b0391909116815260200190565b5f6001600160401b03821115612a8257612a82612739565b50601f01601f191660200190565b5f82601f830112612a9f575f5ffd5b8135612ab2612aad82612a6a565b6127dd565b818152846020838601011115612ac6575f5ffd5b816020850160208301375f918101602001919091529392505050565b5f5f60408385031215612af3575f5ffd5b82356001600160401b03811115612b08575f5ffd5b612b1485828601612a90565b92505060208301356001600160401b03811115612b2f575f5ffd5b612b3b85828601612a90565b9150509250929050565b5f5f5f6101408486031215612b58575f5ffd5b612b62858561283c565b9250610100840135612b738161281d565b9150610120840135612b848161281d565b809150509250925092565b5f5f60408385031215612ba0575f5ffd5b8235612bab816126fb565b915060208301356129e9816126fb565b5f60208284031215612bcb575f5ffd5b81356001600160401b03811115612be0575f5ffd5b82016101608185031215612bf2575f5ffd5b612bfa612798565b8135612c058161281d565b8152612c14856020840161283c565b60208201526101208201356001600160401b03811115612c32575f5ffd5b612c3e86828501612a90565b6040830152506101408201359150612c558261281d565b60608101919091529392505050565b600181811c90821680612c7857607f821691505b602082108103612c9657634e487b7160e01b5f52602260045260245ffd5b50919050565b5f60208284031215612cac575f5ffd5b81516129b5816126fb565b8051612818816126fb565b80516128188161281d565b5f6101008284031215612cde575f5ffd5b612ce661274d565b90508151612cf3816126fb565b8152612d0160208301612cb7565b6020820152612d1260408301612cc2565b6040820152612d2360608301612cc2565b6060820152612d3460808301612cb7565b6080820152612d4560a08301612cc2565b60a0820152612d5660c08301612cc2565b60c08201526128d660e08301612cc2565b5f610300828403128015612d79575f5ffd5b50612d82612776565b612d8c8484612ccd565b8152612d9c846101008501612ccd565b6020820152612daf846102008501612ccd565b60408201529392505050565b634e487b7160e01b5f52601160045260245ffd5b6001815b600184111561163257808504811115612dee57612dee612dbb565b6001841615612dfc57908102905b60019390931c928002612dd3565b5f82612e185750600161061e565b81612e2457505f61061e565b8160018114612e3a5760028114612e4457612e60565b600191505061061e565b60ff841115612e5557612e55612dbb565b50506001821b61061e565b5060208310610133831016604e8410600b8410161715612e83575081810a61061e565b612e8f5f198484612dcf565b805f1904821115612ea257612ea2612dbb565b029392505050565b5f6129b560ff841683612e0a565b808202811582820484141761061e5761061e612dbb565b5f82612ee957634e487b7160e01b5f52601260045260245ffd5b500490565b6001600160a01b039384168152919092166020820152604081019190915260600190565b5f60208284031215612f22575f5ffd5b815180151581146129b5575f5ffd5b5f60208284031215612f41575f5ffd5b81516001600160401b03811115612f56575f5ffd5b8201601f81018413612f66575f5ffd5b8051612f74612aad82612a6a565b818152856020838501011115612f88575f5ffd5b8160208401602083015e5f91810160200191909152949350505050565b6d02732b2b21020b8383937bb32b2160951b81525f82518060208501600e85015e5f9201600e0191825250919050565b5f60208284031215612fe5575f5ffd5b81516129b58161281d565b5f6101a0828403128015613002575f5ffd5b5061300b6127ba565b61301483612cc2565b815261302260208401612cc2565b602082015261303360408401612cc2565b604082015261304460608401612cc2565b606082015261305560808401612cc2565b608082015261306660a08401612cc2565b60a082015261307760c08401612cc2565b60c082015261308860e08401612cc2565b60e082015261309a6101008401612cc2565b6101008201526130ad6101208401612cc2565b6101208201526130c06101408401612cc2565b6101408201526130d36101608401612cc2565b6101608201526130e66101808401612cc2565b6101808201529392505050565b5f5f60408385031215613104575f5ffd5b825161310f8161281d565b60208401519092506129e98161281d565b6001600160a01b0393841681529183166020830152909116604082015260600190565b601f8211156115d757805f5260205f20601f840160051c810160208510156131685750805b601f840160051c820191505b81811015613187575f8155600101613174565b5050505050565b81516001600160401b038111156131a7576131a7612739565b6131bb816131b58454612c64565b84613143565b6020601f8211600181146131ed575f83156131d65750848201515b5f19600385901b1c1916600184901b178455613187565b5f84815260208120601f198516915b8281101561321c57878501518255602094850194600190920191016131fc565b508482101561323957868401515f19600387901b60f8161c191681555b50505050600190811b01905550565b5f6060828403128015613259575f5ffd5b50613262612776565b825161326d816126fb565b8152602083015161327d816126fb565b60208201526040830151612daf8161281d565b6001600160a01b039788168152958716602087015293861660408601529185166060850152909316608083015260a082019290925260c081019190915260e00190565b8082018082111561061e5761061e612dbb56fea2646970667358221220a4968086408123ce948a6ed6b2a89faa2a9de7d00c569985b6303c3c3e6a7aa364736f6c634300081b0033",
			"opcodes": "PUSH1 0x80 PUSH1 0x40 MSTORE CALLVALUE DUP1 ISZERO PUSH2 0xF JUMPI PUSH0 PUSH0 REVERT JUMPDEST POP PUSH1 0x40 MLOAD PUSH2 0x3AF3 CODESIZE SUB DUP1 PUSH2 0x3AF3 DUP4 CODECOPY DUP2 ADD PUSH1 0x40 DUP2 SWAP1 MSTORE PUSH2 0x2E SWAP2 PUSH2 0x4C5 JUMP JUMPDEST PUSH1 0x40 MLOAD DUP1 PUSH1 0x40 ADD PUSH1 0x40 MSTORE DUP1 PUSH1 0x15 DUP2 MSTORE PUSH1 0x20 ADD PUSH32 0x4459534E4F4D4941205265616374696F6E734C69620000000000000000000000 DUP2 MSTORE POP PUSH1 0x40 MLOAD DUP1 PUSH1 0x40 ADD PUSH1 0x40 MSTORE DUP1 PUSH1 0xC DUP2 MSTORE PUSH1 0x20 ADD PUSH12 0x2932B0B1BA34B7B739A634B1 PUSH1 0xA1 SHL DUP2 MSTORE POP DUP3 PUSH1 0x1 PUSH1 0x1 PUSH1 0xA0 SHL SUB AND PUSH4 0x6FB7329C PUSH1 0x40 MLOAD DUP2 PUSH4 0xFFFFFFFF AND PUSH1 0xE0 SHL DUP2 MSTORE PUSH1 0x4 ADD PUSH1 0x20 PUSH1 0x40 MLOAD DUP1 DUP4 SUB DUP2 DUP7 GAS STATICCALL ISZERO DUP1 ISZERO PUSH2 0xC5 JUMPI RETURNDATASIZE PUSH0 PUSH0 RETURNDATACOPY RETURNDATASIZE PUSH0 REVERT JUMPDEST POP POP POP POP PUSH1 0x40 MLOAD RETURNDATASIZE PUSH1 0x1F NOT PUSH1 0x1F DUP3 ADD AND DUP3 ADD DUP1 PUSH1 0x40 MSTORE POP DUP2 ADD SWAP1 PUSH2 0xE9 SWAP2 SWAP1 PUSH2 0x4C5 JUMP JUMPDEST CALLER DUP1 PUSH2 0x11B JUMPI PUSH1 0x40 MLOAD PUSH4 0x36030219 PUSH1 0xE2 SHL DUP2 MSTORE ORIGIN PUSH1 0x4 DUP3 ADD MSTORE PUSH0 PUSH1 0x24 DUP3 ADD MSTORE ADDRESS PUSH1 0x44 DUP3 ADD MSTORE PUSH1 0x64 ADD JUMPDEST PUSH1 0x40 MLOAD DUP1 SWAP2 SUB SWAP1 REVERT JUMPDEST PUSH2 0x126 DUP2 PUSH1 0x1 PUSH2 0x2C8 JUMP JUMPDEST POP PUSH1 0x4 PUSH2 0x133 DUP5 DUP3 PUSH2 0x57F JUMP JUMPDEST POP PUSH1 0x5 PUSH2 0x140 DUP4 DUP3 PUSH2 0x57F JUMP JUMPDEST POP PUSH1 0x6 DUP1 SLOAD PUSH1 0x1 PUSH1 0x1 PUSH1 0xA0 SHL SUB NOT AND PUSH1 0x1 PUSH1 0x1 PUSH1 0xA0 SHL SUB DUP4 AND SWAP1 DUP2 OR SWAP1 SWAP2 SSTORE PUSH1 0x40 DUP1 MLOAD PUSH4 0x604A6FA9 PUSH1 0xE0 SHL DUP2 MSTORE SWAP1 MLOAD PUSH3 0x1B207 SWAP3 SWAP2 PUSH4 0x604A6FA9 SWAP2 PUSH1 0x4 DUP1 DUP4 ADD SWAP3 PUSH1 0x20 SWAP3 SWAP2 SWAP1 DUP3 SWAP1 SUB ADD DUP2 PUSH0 DUP8 GAS CALL ISZERO DUP1 ISZERO PUSH2 0x19E JUMPI RETURNDATASIZE PUSH0 PUSH0 RETURNDATACOPY RETURNDATASIZE PUSH0 REVERT JUMPDEST POP POP POP POP PUSH1 0x40 MLOAD RETURNDATASIZE PUSH1 0x1F NOT PUSH1 0x1F DUP3 ADD AND DUP3 ADD DUP1 PUSH1 0x40 MSTORE POP DUP2 ADD SWAP1 PUSH2 0x1C2 SWAP2 SWAP1 PUSH2 0x639 JUMP JUMPDEST PUSH2 0x1CC SWAP2 SWAP1 PUSH2 0x65F JUMP JUMPDEST PUSH1 0x1 PUSH1 0x1 PUSH1 0x40 SHL SUB AND PUSH1 0x7 SSTORE PUSH2 0x222 PUSH20 0x24F0154C1DCE548ADF15DA2098FDD8B8A3B8151D PUSH2 0x1FC PUSH1 0x12 PUSH1 0xA PUSH2 0x792 JUMP JUMPDEST PUSH2 0x207 SWAP1 PUSH1 0x1 PUSH2 0x7A0 JUMP JUMPDEST PUSH1 0x1 PUSH1 0x1 PUSH1 0xA0 SHL SUB SWAP1 SWAP2 AND PUSH0 SWAP1 DUP2 MSTORE PUSH1 0x8 PUSH1 0x20 MSTORE PUSH1 0x40 SWAP1 KECCAK256 SSTORE JUMP JUMPDEST POP POP PUSH1 0x9 DUP1 SLOAD PUSH1 0x1 PUSH1 0x1 PUSH1 0xA0 SHL SUB NOT AND PUSH1 0x1 PUSH1 0x1 PUSH1 0xA0 SHL SUB DUP5 AND SWAP1 DUP2 OR SWAP1 SWAP2 SSTORE PUSH1 0x40 DUP1 MLOAD PUSH4 0x39DD2CE9 PUSH1 0xE2 SHL DUP2 MSTORE PUSH1 0x4 DUP2 ADD SWAP2 SWAP1 SWAP2 MSTORE PUSH1 0xD PUSH1 0x44 DUP3 ADD MSTORE PUSH13 0x636F72657265616374696F6E73 PUSH1 0x98 SHL PUSH1 0x64 DUP3 ADD MSTORE ADDRESS PUSH1 0x24 DUP3 ADD MSTORE SWAP1 SWAP2 POP PUSH4 0xE774B3A4 SWAP1 PUSH1 0x84 ADD PUSH0 PUSH1 0x40 MLOAD DUP1 DUP4 SUB DUP2 PUSH0 DUP8 DUP1 EXTCODESIZE ISZERO DUP1 ISZERO PUSH2 0x29E JUMPI PUSH0 PUSH0 REVERT JUMPDEST POP GAS CALL ISZERO DUP1 ISZERO PUSH2 0x2B0 JUMPI RETURNDATASIZE PUSH0 PUSH0 RETURNDATACOPY RETURNDATASIZE PUSH0 REVERT JUMPDEST POP POP POP POP PUSH2 0x2C2 PUSH2 0x31B PUSH1 0x20 SHL PUSH1 0x20 SHR JUMP JUMPDEST POP PUSH2 0x7CA JUMP JUMPDEST PUSH1 0x1 PUSH1 0x1 PUSH1 0xA0 SHL SUB DUP3 AND PUSH0 DUP2 DUP2 MSTORE PUSH1 0x20 DUP2 SWAP1 MSTORE PUSH1 0x40 DUP1 DUP3 KECCAK256 DUP1 SLOAD PUSH1 0xFF NOT AND DUP6 ISZERO ISZERO SWAP1 DUP2 OR SWAP1 SWAP2 SSTORE SWAP1 MLOAD SWAP1 SWAP3 SWAP2 PUSH32 0x6BFA7E860C3E9BF67B810CB88276B19B27C972812BAC04793D369B59A1183A83 SWAP2 LOG3 POP POP JUMP JUMPDEST PUSH2 0x327 PUSH1 0x12 PUSH1 0xA PUSH2 0x792 JUMP JUMPDEST PUSH1 0x7 SLOAD PUSH2 0x334 SWAP2 SWAP1 PUSH2 0x7A0 JUMP JUMPDEST PUSH1 0x3 SLOAD LT ISZERO PUSH2 0x35D JUMPI PUSH2 0x35D ADDRESS PUSH2 0x34D PUSH1 0x12 PUSH1 0xA PUSH2 0x792 JUMP JUMPDEST PUSH2 0x358 SWAP1 PUSH1 0x1 PUSH2 0x7A0 JUMP JUMPDEST PUSH2 0x35F JUMP JUMPDEST JUMP JUMPDEST PUSH2 0x36A PUSH0 DUP4 DUP4 PUSH2 0x36E JUMP JUMPDEST POP POP JUMP JUMPDEST PUSH1 0x1 PUSH1 0x1 PUSH1 0xA0 SHL SUB DUP4 AND PUSH2 0x398 JUMPI DUP1 PUSH1 0x3 PUSH0 DUP3 DUP3 SLOAD PUSH2 0x38D SWAP2 SWAP1 PUSH2 0x7B7 JUMP JUMPDEST SWAP1 SWAP2 SSTORE POP PUSH2 0x422 SWAP1 POP JUMP JUMPDEST PUSH1 0x1 PUSH1 0x1 PUSH1 0xA0 SHL SUB DUP4 AND PUSH0 SWAP1 DUP2 MSTORE PUSH1 0x1 PUSH1 0x20 MSTORE PUSH1 0x40 SWAP1 KECCAK256 SLOAD DUP2 DUP2 LT ISZERO PUSH2 0x404 JUMPI PUSH1 0x40 MLOAD PUSH4 0xF7D0BBD PUSH1 0xE2 SHL DUP2 MSTORE ORIGIN PUSH1 0x4 DUP3 ADD MSTORE CALLER PUSH1 0x24 DUP3 ADD MSTORE PUSH1 0x1 PUSH1 0x1 PUSH1 0xA0 SHL SUB DUP1 DUP7 AND PUSH1 0x44 DUP4 ADD MSTORE DUP5 AND PUSH1 0x64 DUP3 ADD MSTORE ADDRESS PUSH1 0x84 DUP3 ADD MSTORE PUSH1 0xA4 DUP2 ADD DUP3 SWAP1 MSTORE PUSH1 0xC4 DUP2 ADD DUP4 SWAP1 MSTORE PUSH1 0xE4 ADD PUSH2 0x112 JUMP JUMPDEST PUSH1 0x1 PUSH1 0x1 PUSH1 0xA0 SHL SUB DUP5 AND PUSH0 SWAP1 DUP2 MSTORE PUSH1 0x1 PUSH1 0x20 MSTORE PUSH1 0x40 SWAP1 KECCAK256 SWAP1 DUP3 SWAP1 SUB SWAP1 SSTORE JUMPDEST PUSH1 0x1 PUSH1 0x1 PUSH1 0xA0 SHL SUB DUP3 AND PUSH2 0x43E JUMPI PUSH1 0x3 DUP1 SLOAD DUP3 SWAP1 SUB SWAP1 SSTORE PUSH2 0x45C JUMP JUMPDEST PUSH1 0x1 PUSH1 0x1 PUSH1 0xA0 SHL SUB DUP3 AND PUSH0 SWAP1 DUP2 MSTORE PUSH1 0x1 PUSH1 0x20 MSTORE PUSH1 0x40 SWAP1 KECCAK256 DUP1 SLOAD DUP3 ADD SWAP1 SSTORE JUMPDEST DUP2 PUSH1 0x1 PUSH1 0x1 PUSH1 0xA0 SHL SUB AND DUP4 PUSH1 0x1 PUSH1 0x1 PUSH1 0xA0 SHL SUB AND PUSH32 0xDDF252AD1BE2C89B69C2B068FC378DAA952BA7F163C4A11628F55A4DF523B3EF DUP4 PUSH1 0x40 MLOAD PUSH2 0x4A1 SWAP2 DUP2 MSTORE PUSH1 0x20 ADD SWAP1 JUMP JUMPDEST PUSH1 0x40 MLOAD DUP1 SWAP2 SUB SWAP1 LOG3 POP POP POP JUMP JUMPDEST PUSH1 0x1 PUSH1 0x1 PUSH1 0xA0 SHL SUB DUP2 AND DUP2 EQ PUSH2 0x4C2 JUMPI PUSH0 PUSH0 REVERT JUMPDEST POP JUMP JUMPDEST PUSH0 PUSH1 0x20 DUP3 DUP5 SUB SLT ISZERO PUSH2 0x4D5 JUMPI PUSH0 PUSH0 REVERT JUMPDEST DUP2 MLOAD PUSH2 0x4E0 DUP2 PUSH2 0x4AE JUMP JUMPDEST SWAP4 SWAP3 POP POP POP JUMP JUMPDEST PUSH4 0x4E487B71 PUSH1 0xE0 SHL PUSH0 MSTORE PUSH1 0x41 PUSH1 0x4 MSTORE PUSH1 0x24 PUSH0 REVERT JUMPDEST PUSH1 0x1 DUP2 DUP2 SHR SWAP1 DUP3 AND DUP1 PUSH2 0x50F JUMPI PUSH1 0x7F DUP3 AND SWAP2 POP JUMPDEST PUSH1 0x20 DUP3 LT DUP2 SUB PUSH2 0x52D JUMPI PUSH4 0x4E487B71 PUSH1 0xE0 SHL PUSH0 MSTORE PUSH1 0x22 PUSH1 0x4 MSTORE PUSH1 0x24 PUSH0 REVERT JUMPDEST POP SWAP2 SWAP1 POP JUMP JUMPDEST PUSH1 0x1F DUP3 GT ISZERO PUSH2 0x57A JUMPI DUP1 PUSH0 MSTORE PUSH1 0x20 PUSH0 KECCAK256 PUSH1 0x1F DUP5 ADD PUSH1 0x5 SHR DUP2 ADD PUSH1 0x20 DUP6 LT ISZERO PUSH2 0x558 JUMPI POP DUP1 JUMPDEST PUSH1 0x1F DUP5 ADD PUSH1 0x5 SHR DUP3 ADD SWAP2 POP JUMPDEST DUP2 DUP2 LT ISZERO PUSH2 0x577 JUMPI PUSH0 DUP2 SSTORE PUSH1 0x1 ADD PUSH2 0x564 JUMP JUMPDEST POP POP JUMPDEST POP POP POP JUMP JUMPDEST DUP2 MLOAD PUSH1 0x1 PUSH1 0x1 PUSH1 0x40 SHL SUB DUP2 GT ISZERO PUSH2 0x598 JUMPI PUSH2 0x598 PUSH2 0x4E7 JUMP JUMPDEST PUSH2 0x5AC DUP2 PUSH2 0x5A6 DUP5 SLOAD PUSH2 0x4FB JUMP JUMPDEST DUP5 PUSH2 0x533 JUMP JUMPDEST PUSH1 0x20 PUSH1 0x1F DUP3 GT PUSH1 0x1 DUP2 EQ PUSH2 0x5DE JUMPI PUSH0 DUP4 ISZERO PUSH2 0x5C7 JUMPI POP DUP5 DUP3 ADD MLOAD JUMPDEST PUSH0 NOT PUSH1 0x3 DUP6 SWAP1 SHL SHR NOT AND PUSH1 0x1 DUP5 SWAP1 SHL OR DUP5 SSTORE PUSH2 0x577 JUMP JUMPDEST PUSH0 DUP5 DUP2 MSTORE PUSH1 0x20 DUP2 KECCAK256 PUSH1 0x1F NOT DUP6 AND SWAP2 JUMPDEST DUP3 DUP2 LT ISZERO PUSH2 0x60D JUMPI DUP8 DUP6 ADD MLOAD DUP3 SSTORE PUSH1 0x20 SWAP5 DUP6 ADD SWAP5 PUSH1 0x1 SWAP1 SWAP3 ADD SWAP2 ADD PUSH2 0x5ED JUMP JUMPDEST POP DUP5 DUP3 LT ISZERO PUSH2 0x62A JUMPI DUP7 DUP5 ADD MLOAD PUSH0 NOT PUSH1 0x3 DUP8 SWAP1 SHL PUSH1 0xF8 AND SHR NOT AND DUP2 SSTORE JUMPDEST POP POP POP POP PUSH1 0x1 SWAP1 DUP2 SHL ADD SWAP1 SSTORE POP JUMP JUMPDEST PUSH0 PUSH1 0x20 DUP3 DUP5 SUB SLT ISZERO PUSH2 0x649 JUMPI PUSH0 PUSH0 REVERT JUMPDEST DUP2 MLOAD PUSH1 0x1 PUSH1 0x1 PUSH1 0x40 SHL SUB DUP2 AND DUP2 EQ PUSH2 0x4E0 JUMPI PUSH0 PUSH0 REVERT JUMPDEST PUSH0 PUSH1 0x1 PUSH1 0x1 PUSH1 0x40 SHL SUB DUP4 AND DUP1 PUSH2 0x683 JUMPI PUSH4 0x4E487B71 PUSH1 0xE0 SHL PUSH0 MSTORE PUSH1 0x12 PUSH1 0x4 MSTORE PUSH1 0x24 PUSH0 REVERT JUMPDEST PUSH1 0x1 PUSH1 0x1 PUSH1 0x40 SHL SUB SWAP3 SWAP1 SWAP3 AND SWAP2 SWAP1 SWAP2 MOD SWAP3 SWAP2 POP POP JUMP JUMPDEST PUSH4 0x4E487B71 PUSH1 0xE0 SHL PUSH0 MSTORE PUSH1 0x11 PUSH1 0x4 MSTORE PUSH1 0x24 PUSH0 REVERT JUMPDEST PUSH1 0x1 DUP2 JUMPDEST PUSH1 0x1 DUP5 GT ISZERO PUSH2 0x6E8 JUMPI DUP1 DUP6 DIV DUP2 GT ISZERO PUSH2 0x6CC JUMPI PUSH2 0x6CC PUSH2 0x699 JUMP JUMPDEST PUSH1 0x1 DUP5 AND ISZERO PUSH2 0x6DA JUMPI SWAP1 DUP2 MUL SWAP1 JUMPDEST PUSH1 0x1 SWAP4 SWAP1 SWAP4 SHR SWAP3 DUP1 MUL PUSH2 0x6B1 JUMP JUMPDEST SWAP4 POP SWAP4 SWAP2 POP POP JUMP JUMPDEST PUSH0 DUP3 PUSH2 0x6FE JUMPI POP PUSH1 0x1 PUSH2 0x78C JUMP JUMPDEST DUP2 PUSH2 0x70A JUMPI POP PUSH0 PUSH2 0x78C JUMP JUMPDEST DUP2 PUSH1 0x1 DUP2 EQ PUSH2 0x720 JUMPI PUSH1 0x2 DUP2 EQ PUSH2 0x72A JUMPI PUSH2 0x746 JUMP JUMPDEST PUSH1 0x1 SWAP2 POP POP PUSH2 0x78C JUMP JUMPDEST PUSH1 0xFF DUP5 GT ISZERO PUSH2 0x73B JUMPI PUSH2 0x73B PUSH2 0x699 JUMP JUMPDEST POP POP PUSH1 0x1 DUP3 SHL PUSH2 0x78C JUMP JUMPDEST POP PUSH1 0x20 DUP4 LT PUSH2 0x133 DUP4 LT AND PUSH1 0x4E DUP5 LT PUSH1 0xB DUP5 LT AND OR ISZERO PUSH2 0x769 JUMPI POP DUP2 DUP2 EXP PUSH2 0x78C JUMP JUMPDEST PUSH2 0x775 PUSH0 NOT DUP5 DUP5 PUSH2 0x6AD JUMP JUMPDEST DUP1 PUSH0 NOT DIV DUP3 GT ISZERO PUSH2 0x788 JUMPI PUSH2 0x788 PUSH2 0x699 JUMP JUMPDEST MUL SWAP1 POP JUMPDEST SWAP3 SWAP2 POP POP JUMP JUMPDEST PUSH0 PUSH2 0x4E0 PUSH1 0xFF DUP5 AND DUP4 PUSH2 0x6F0 JUMP JUMPDEST DUP1 DUP3 MUL DUP2 ISZERO DUP3 DUP3 DIV DUP5 EQ OR PUSH2 0x78C JUMPI PUSH2 0x78C PUSH2 0x699 JUMP JUMPDEST DUP1 DUP3 ADD DUP1 DUP3 GT ISZERO PUSH2 0x78C JUMPI PUSH2 0x78C PUSH2 0x699 JUMP JUMPDEST PUSH2 0x331C DUP1 PUSH2 0x7D7 PUSH0 CODECOPY PUSH0 RETURN INVALID PUSH1 0x80 PUSH1 0x40 MSTORE CALLVALUE DUP1 ISZERO PUSH2 0xF JUMPI PUSH0 PUSH0 REVERT JUMPDEST POP PUSH1 0x4 CALLDATASIZE LT PUSH2 0x225 JUMPI PUSH0 CALLDATALOAD PUSH1 0xE0 SHR DUP1 PUSH4 0x7065CB48 GT PUSH2 0x135 JUMPI DUP1 PUSH4 0xD3DC2A0F GT PUSH2 0xB4 JUMPI DUP1 PUSH4 0xF0864253 GT PUSH2 0x79 JUMPI DUP1 PUSH4 0xF0864253 EQ PUSH2 0x50F JUMPI DUP1 PUSH4 0xF4E6C93F EQ PUSH2 0x522 JUMPI DUP1 PUSH4 0xF4F6C22C EQ PUSH2 0x52A JUMPI DUP1 PUSH4 0xFC7CD61E EQ PUSH2 0x53D JUMPI DUP1 PUSH4 0xFF762044 EQ PUSH2 0x550 JUMPI PUSH0 PUSH0 REVERT JUMPDEST DUP1 PUSH4 0xD3DC2A0F EQ PUSH2 0x4A7 JUMPI DUP1 PUSH4 0xD5ABEB01 EQ PUSH2 0x4CD JUMPI DUP1 PUSH4 0xDD62ED3E EQ PUSH2 0x4D6 JUMPI DUP1 PUSH4 0xE5B976D1 EQ PUSH2 0x4E9 JUMPI DUP1 PUSH4 0xECD689EA EQ PUSH2 0x4FC JUMPI PUSH0 PUSH0 REVERT JUMPDEST DUP1 PUSH4 0x9DCBF7EA GT PUSH2 0xFA JUMPI DUP1 PUSH4 0x9DCBF7EA EQ PUSH2 0x448 JUMPI DUP1 PUSH4 0xA7D21F68 EQ PUSH2 0x45B JUMPI DUP1 PUSH4 0xA9059CBB EQ PUSH2 0x46E JUMPI DUP1 PUSH4 0xB956AA87 EQ PUSH2 0x481 JUMPI DUP1 PUSH4 0xC4686FC9 EQ PUSH2 0x494 JUMPI PUSH0 PUSH0 REVERT JUMPDEST DUP1 PUSH4 0x7065CB48 EQ PUSH2 0x3EC JUMPI DUP1 PUSH4 0x70A08231 EQ PUSH2 0x3FF JUMPI DUP1 PUSH4 0x85425F9A EQ PUSH2 0x427 JUMPI DUP1 PUSH4 0x8DA5CB5B EQ PUSH2 0x43A JUMPI DUP1 PUSH4 0x95D89B41 EQ PUSH2 0x440 JUMPI PUSH0 PUSH0 REVERT JUMPDEST DUP1 PUSH4 0x3161929A GT PUSH2 0x1C1 JUMPI DUP1 PUSH4 0x666E1B39 GT PUSH2 0x186 JUMPI DUP1 PUSH4 0x666E1B39 EQ PUSH2 0x380 JUMPI DUP1 PUSH4 0x676A8CCC EQ PUSH2 0x393 JUMPI DUP1 PUSH4 0x679B9538 EQ PUSH2 0x3A6 JUMPI DUP1 PUSH4 0x6872FC3C EQ PUSH2 0x3B9 JUMPI DUP1 PUSH4 0x6FB7329C EQ PUSH2 0x3D9 JUMPI PUSH0 PUSH0 REVERT JUMPDEST DUP1 PUSH4 0x3161929A EQ PUSH2 0x321 JUMPI DUP1 PUSH4 0x379AA3CF EQ PUSH2 0x334 JUMPI DUP1 PUSH4 0x38BF3CFA EQ PUSH2 0x347 JUMPI DUP1 PUSH4 0x459EFE9C EQ PUSH2 0x35A JUMPI DUP1 PUSH4 0x5B785333 EQ PUSH2 0x36D JUMPI PUSH0 PUSH0 REVERT JUMPDEST DUP1 PUSH4 0x6FDDE03 EQ PUSH2 0x229 JUMPI DUP1 PUSH4 0x95EA7B3 EQ PUSH2 0x247 JUMPI DUP1 PUSH4 0x18160DDD EQ PUSH2 0x26A JUMPI DUP1 PUSH4 0x1D736E6C EQ PUSH2 0x27C JUMPI DUP1 PUSH4 0x222838DB EQ PUSH2 0x2AF JUMPI DUP1 PUSH4 0x23B872DD EQ PUSH2 0x2C4 JUMPI DUP1 PUSH4 0x2499A533 EQ PUSH2 0x2D7 JUMPI DUP1 PUSH4 0x2B83B1FC EQ PUSH2 0x2EA JUMPI DUP1 PUSH4 0x313CE567 EQ PUSH2 0x312 JUMPI JUMPDEST PUSH0 PUSH0 REVERT JUMPDEST PUSH2 0x231 PUSH2 0x57B JUMP JUMPDEST PUSH1 0x40 MLOAD PUSH2 0x23E SWAP2 SWAP1 PUSH2 0x26C6 JUMP JUMPDEST PUSH1 0x40 MLOAD DUP1 SWAP2 SUB SWAP1 RETURN JUMPDEST PUSH2 0x25A PUSH2 0x255 CALLDATASIZE PUSH1 0x4 PUSH2 0x270F JUMP JUMPDEST PUSH2 0x60B JUMP JUMPDEST PUSH1 0x40 MLOAD SWAP1 ISZERO ISZERO DUP2 MSTORE PUSH1 0x20 ADD PUSH2 0x23E JUMP JUMPDEST PUSH1 0x3 SLOAD JUMPDEST PUSH1 0x40 MLOAD SWAP1 DUP2 MSTORE PUSH1 0x20 ADD PUSH2 0x23E JUMP JUMPDEST PUSH2 0x28F PUSH2 0x28A CALLDATASIZE PUSH1 0x4 PUSH2 0x28E1 JUMP JUMPDEST PUSH2 0x624 JUMP JUMPDEST PUSH1 0x40 DUP1 MLOAD PUSH1 0x1 PUSH1 0x1 PUSH1 0x40 SHL SUB SWAP4 DUP5 AND DUP2 MSTORE SWAP3 SWAP1 SWAP2 AND PUSH1 0x20 DUP4 ADD MSTORE ADD PUSH2 0x23E JUMP JUMPDEST PUSH2 0x2C2 PUSH2 0x2BD CALLDATASIZE PUSH1 0x4 PUSH2 0x270F JUMP JUMPDEST PUSH2 0x7CD JUMP JUMPDEST STOP JUMPDEST PUSH2 0x25A PUSH2 0x2D2 CALLDATASIZE PUSH1 0x4 PUSH2 0x295C JUMP JUMPDEST PUSH2 0x9CF JUMP JUMPDEST PUSH2 0x2C2 PUSH2 0x2E5 CALLDATASIZE PUSH1 0x4 PUSH2 0x270F JUMP JUMPDEST PUSH2 0x9F2 JUMP JUMPDEST PUSH2 0x26E PUSH2 0x2F8 CALLDATASIZE PUSH1 0x4 PUSH2 0x299A JUMP JUMPDEST PUSH1 0x1 PUSH1 0x1 PUSH1 0xA0 SHL SUB AND PUSH0 SWAP1 DUP2 MSTORE PUSH1 0x8 PUSH1 0x20 MSTORE PUSH1 0x40 SWAP1 KECCAK256 SLOAD SWAP1 JUMP JUMPDEST PUSH1 0x40 MLOAD PUSH1 0x12 DUP2 MSTORE PUSH1 0x20 ADD PUSH2 0x23E JUMP JUMPDEST PUSH2 0x28F PUSH2 0x32F CALLDATASIZE PUSH1 0x4 PUSH2 0x29BC JUMP JUMPDEST PUSH2 0xBA5 JUMP JUMPDEST PUSH2 0x2C2 PUSH2 0x342 CALLDATASIZE PUSH1 0x4 PUSH2 0x299A JUMP JUMPDEST PUSH2 0xC9C JUMP JUMPDEST PUSH2 0x2C2 PUSH2 0x355 CALLDATASIZE PUSH1 0x4 PUSH2 0x299A JUMP JUMPDEST PUSH2 0xCC6 JUMP JUMPDEST PUSH2 0x28F PUSH2 0x368 CALLDATASIZE PUSH1 0x4 PUSH2 0x29F4 JUMP JUMPDEST PUSH2 0xCDB JUMP JUMPDEST PUSH2 0x28F PUSH2 0x37B CALLDATASIZE PUSH1 0x4 PUSH2 0x2A0F JUMP JUMPDEST PUSH2 0xFC2 JUMP JUMPDEST PUSH2 0x25A PUSH2 0x38E CALLDATASIZE PUSH1 0x4 PUSH2 0x299A JUMP JUMPDEST PUSH2 0x1114 JUMP JUMPDEST PUSH2 0x28F PUSH2 0x3A1 CALLDATASIZE PUSH1 0x4 PUSH2 0x2A0F JUMP JUMPDEST PUSH2 0x1131 JUMP JUMPDEST PUSH2 0x28F PUSH2 0x3B4 CALLDATASIZE PUSH1 0x4 PUSH2 0x2A2A JUMP JUMPDEST PUSH2 0x1273 JUMP JUMPDEST PUSH1 0xA SLOAD PUSH2 0x3CC SWAP1 PUSH1 0x1 PUSH1 0x1 PUSH1 0xA0 SHL SUB AND DUP2 JUMP JUMPDEST PUSH1 0x40 MLOAD PUSH2 0x23E SWAP2 SWAP1 PUSH2 0x2A56 JUMP JUMPDEST PUSH1 0x6 SLOAD PUSH2 0x3CC SWAP1 PUSH1 0x1 PUSH1 0x1 PUSH1 0xA0 SHL SUB AND DUP2 JUMP JUMPDEST PUSH2 0x2C2 PUSH2 0x3FA CALLDATASIZE PUSH1 0x4 PUSH2 0x299A JUMP JUMPDEST PUSH2 0x141E JUMP JUMPDEST PUSH2 0x26E PUSH2 0x40D CALLDATASIZE PUSH1 0x4 PUSH2 0x299A JUMP JUMPDEST PUSH1 0x1 PUSH1 0x1 PUSH1 0xA0 SHL SUB AND PUSH0 SWAP1 DUP2 MSTORE PUSH1 0x1 PUSH1 0x20 MSTORE PUSH1 0x40 SWAP1 KECCAK256 SLOAD SWAP1 JUMP JUMPDEST PUSH2 0x28F PUSH2 0x435 CALLDATASIZE PUSH1 0x4 PUSH2 0x2A0F JUMP JUMPDEST PUSH2 0x145E JUMP JUMPDEST ADDRESS PUSH2 0x3CC JUMP JUMPDEST PUSH2 0x231 PUSH2 0x15A7 JUMP JUMPDEST PUSH2 0x2C2 PUSH2 0x456 CALLDATASIZE PUSH1 0x4 PUSH2 0x2AE2 JUMP JUMPDEST PUSH2 0x15B6 JUMP JUMPDEST PUSH2 0x28F PUSH2 0x469 CALLDATASIZE PUSH1 0x4 PUSH2 0x2B45 JUMP JUMPDEST PUSH2 0x15DC JUMP JUMPDEST PUSH2 0x25A PUSH2 0x47C CALLDATASIZE PUSH1 0x4 PUSH2 0x270F JUMP JUMPDEST PUSH2 0x163A JUMP JUMPDEST PUSH2 0x28F PUSH2 0x48F CALLDATASIZE PUSH1 0x4 PUSH2 0x2B45 JUMP JUMPDEST PUSH2 0x1647 JUMP JUMPDEST PUSH2 0x28F PUSH2 0x4A2 CALLDATASIZE PUSH1 0x4 PUSH2 0x2B45 JUMP JUMPDEST PUSH2 0x18DE JUMP JUMPDEST PUSH2 0x4B5 PUSH7 0x3632C8EB5AF3B DUP2 JUMP JUMPDEST PUSH1 0x40 MLOAD PUSH1 0x1 PUSH1 0x1 PUSH1 0x40 SHL SUB SWAP1 SWAP2 AND DUP2 MSTORE PUSH1 0x20 ADD PUSH2 0x23E JUMP JUMPDEST PUSH2 0x26E PUSH1 0x7 SLOAD DUP2 JUMP JUMPDEST PUSH2 0x26E PUSH2 0x4E4 CALLDATASIZE PUSH1 0x4 PUSH2 0x2B8F JUMP JUMPDEST PUSH2 0x1B69 JUMP JUMPDEST PUSH2 0x28F PUSH2 0x4F7 CALLDATASIZE PUSH1 0x4 PUSH2 0x2B45 JUMP JUMPDEST PUSH2 0x1B93 JUMP JUMPDEST PUSH2 0x28F PUSH2 0x50A CALLDATASIZE PUSH1 0x4 PUSH2 0x2BBB JUMP JUMPDEST PUSH2 0x1E1A JUMP JUMPDEST PUSH2 0x4B5 PUSH2 0x51D CALLDATASIZE PUSH1 0x4 PUSH2 0x29F4 JUMP JUMPDEST PUSH2 0x20CF JUMP JUMPDEST PUSH2 0x2C2 PUSH2 0x2311 JUMP JUMPDEST PUSH1 0x9 SLOAD PUSH2 0x3CC SWAP1 PUSH1 0x1 PUSH1 0x1 PUSH1 0xA0 SHL SUB AND DUP2 JUMP JUMPDEST PUSH2 0x28F PUSH2 0x54B CALLDATASIZE PUSH1 0x4 PUSH2 0x2A2A JUMP JUMPDEST PUSH2 0x2323 JUMP JUMPDEST PUSH2 0x231 PUSH1 0x40 MLOAD DUP1 PUSH1 0x40 ADD PUSH1 0x40 MSTORE DUP1 PUSH1 0xC DUP2 MSTORE PUSH1 0x20 ADD PUSH12 0x2932B0B1BA34B7B739A634B1 PUSH1 0xA1 SHL DUP2 MSTORE POP DUP2 JUMP JUMPDEST PUSH1 0x60 PUSH1 0x4 DUP1 SLOAD PUSH2 0x58A SWAP1 PUSH2 0x2C64 JUMP JUMPDEST DUP1 PUSH1 0x1F ADD PUSH1 0x20 DUP1 SWAP2 DIV MUL PUSH1 0x20 ADD PUSH1 0x40 MLOAD SWAP1 DUP2 ADD PUSH1 0x40 MSTORE DUP1 SWAP3 SWAP2 SWAP1 DUP2 DUP2 MSTORE PUSH1 0x20 ADD DUP3 DUP1 SLOAD PUSH2 0x5B6 SWAP1 PUSH2 0x2C64 JUMP JUMPDEST DUP1 ISZERO PUSH2 0x601 JUMPI DUP1 PUSH1 0x1F LT PUSH2 0x5D8 JUMPI PUSH2 0x100 DUP1 DUP4 SLOAD DIV MUL DUP4 MSTORE SWAP2 PUSH1 0x20 ADD SWAP2 PUSH2 0x601 JUMP JUMPDEST DUP3 ADD SWAP2 SWAP1 PUSH0 MSTORE PUSH1 0x20 PUSH0 KECCAK256 SWAP1 JUMPDEST DUP2 SLOAD DUP2 MSTORE SWAP1 PUSH1 0x1 ADD SWAP1 PUSH1 0x20 ADD DUP1 DUP4 GT PUSH2 0x5E4 JUMPI DUP3 SWAP1 SUB PUSH1 0x1F AND DUP3 ADD SWAP2 JUMPDEST POP POP POP POP POP SWAP1 POP SWAP1 JUMP JUMPDEST PUSH0 CALLER PUSH2 0x618 DUP2 DUP6 DUP6 PUSH2 0x23D8 JUMP JUMPDEST PUSH1 0x1 SWAP2 POP POP JUMPDEST SWAP3 SWAP2 POP POP JUMP JUMPDEST PUSH0 DUP1 PUSH2 0x64B DUP5 DUP5 PUSH1 0x2 PUSH1 0x20 MUL ADD MLOAD PUSH1 0xC0 DUP8 ADD MLOAD XOR DUP6 PUSH1 0x1 PUSH1 0x20 MUL ADD MLOAD DUP8 PUSH1 0xE0 ADD MLOAD XOR PUSH2 0x15DC JUMP JUMPDEST PUSH1 0x1 PUSH1 0x1 PUSH1 0x40 SHL SUB SWAP1 DUP2 AND PUSH1 0xE0 DUP8 ADD MSTORE AND PUSH1 0xC0 DUP6 ADD MSTORE PUSH1 0x80 DUP5 ADD MLOAD PUSH1 0x9 SLOAD PUSH1 0x40 DUP1 MLOAD PUSH4 0x9FF43001 PUSH1 0xE0 SHL DUP2 MSTORE SWAP1 MLOAD PUSH2 0x7A9 SWAP4 SWAP3 PUSH1 0x1 PUSH1 0x1 PUSH1 0xA0 SHL SUB AND SWAP2 PUSH4 0x9FF43001 SWAP2 PUSH1 0x4 DUP1 DUP4 ADD SWAP3 PUSH1 0x20 SWAP3 SWAP2 SWAP1 DUP3 SWAP1 SUB ADD DUP2 PUSH0 DUP8 GAS CALL ISZERO DUP1 ISZERO PUSH2 0x6B1 JUMPI RETURNDATASIZE PUSH0 PUSH0 RETURNDATACOPY RETURNDATASIZE PUSH0 REVERT JUMPDEST POP POP POP POP PUSH1 0x40 MLOAD RETURNDATASIZE PUSH1 0x1F NOT PUSH1 0x1F DUP3 ADD AND DUP3 ADD DUP1 PUSH1 0x40 MSTORE POP DUP2 ADD SWAP1 PUSH2 0x6D5 SWAP2 SWAP1 PUSH2 0x2C9C JUMP JUMPDEST PUSH1 0x1 PUSH1 0x1 PUSH1 0xA0 SHL SUB AND PUSH4 0x76FADE90 PUSH1 0x40 MLOAD DUP2 PUSH4 0xFFFFFFFF AND PUSH1 0xE0 SHL DUP2 MSTORE PUSH1 0x4 ADD PUSH1 0x20 PUSH1 0x40 MLOAD DUP1 DUP4 SUB DUP2 PUSH0 DUP8 GAS CALL ISZERO DUP1 ISZERO PUSH2 0x711 JUMPI RETURNDATASIZE PUSH0 PUSH0 RETURNDATACOPY RETURNDATASIZE PUSH0 REVERT JUMPDEST POP POP POP POP PUSH1 0x40 MLOAD RETURNDATASIZE PUSH1 0x1F NOT PUSH1 0x1F DUP3 ADD AND DUP3 ADD DUP1 PUSH1 0x40 MSTORE POP DUP2 ADD SWAP1 PUSH2 0x735 SWAP2 SWAP1 PUSH2 0x2C9C JUMP JUMPDEST PUSH1 0x1 PUSH1 0x1 PUSH1 0xA0 SHL SUB AND PUSH4 0xA4566950 PUSH1 0x40 MLOAD DUP2 PUSH4 0xFFFFFFFF AND PUSH1 0xE0 SHL DUP2 MSTORE PUSH1 0x4 ADD PUSH2 0x300 PUSH1 0x40 MLOAD DUP1 DUP4 SUB DUP2 PUSH0 DUP8 GAS CALL ISZERO DUP1 ISZERO PUSH2 0x772 JUMPI RETURNDATASIZE PUSH0 PUSH0 RETURNDATACOPY RETURNDATASIZE PUSH0 REVERT JUMPDEST POP POP POP POP PUSH1 0x40 MLOAD RETURNDATASIZE PUSH1 0x1F NOT PUSH1 0x1F DUP3 ADD AND DUP3 ADD DUP1 PUSH1 0x40 MSTORE POP DUP2 ADD SWAP1 PUSH2 0x796 SWAP2 SWAP1 PUSH2 0x2D67 JUMP JUMPDEST PUSH1 0x40 ADD MLOAD PUSH1 0xE0 ADD MLOAD DUP7 PUSH1 0xE0 ADD MLOAD XOR PUSH2 0x1273 JUMP JUMPDEST PUSH1 0x1 PUSH1 0x1 PUSH1 0x40 SHL SUB SWAP1 DUP2 AND PUSH1 0xE0 DUP8 ADD DUP2 SWAP1 MSTORE SWAP2 AND PUSH1 0xC0 SWAP1 SWAP6 ADD DUP6 SWAP1 MSTORE SWAP4 SWAP5 SWAP3 POP POP POP JUMP JUMPDEST PUSH1 0x1 PUSH1 0x1 PUSH1 0xA0 SHL SUB DUP3 AND PUSH0 SWAP1 DUP2 MSTORE PUSH1 0x8 PUSH1 0x20 MSTORE PUSH1 0x40 DUP2 KECCAK256 SLOAD SWAP1 SUB PUSH2 0x80F JUMPI DUP2 PUSH1 0x40 MLOAD PUSH4 0x90B23441 PUSH1 0xE0 SHL DUP2 MSTORE PUSH1 0x4 ADD PUSH2 0x806 SWAP2 SWAP1 PUSH2 0x2A56 JUMP JUMPDEST PUSH1 0x40 MLOAD DUP1 SWAP2 SUB SWAP1 REVERT JUMPDEST DUP2 PUSH0 PUSH2 0x81D PUSH1 0x12 PUSH1 0xA PUSH2 0x2EAA JUMP JUMPDEST PUSH1 0x1 PUSH1 0x1 PUSH1 0xA0 SHL SUB DUP6 AND PUSH0 SWAP1 DUP2 MSTORE PUSH1 0x8 PUSH1 0x20 MSTORE PUSH1 0x40 SWAP1 KECCAK256 SLOAD PUSH2 0x83F SWAP1 DUP6 PUSH2 0x2EB8 JUMP JUMPDEST PUSH2 0x849 SWAP2 SWAP1 PUSH2 0x2ECF JUMP JUMPDEST PUSH1 0x40 MLOAD PUSH4 0x23B872DD PUSH1 0xE0 SHL DUP2 MSTORE SWAP1 SWAP2 POP PUSH0 SWAP1 ADDRESS SWAP1 PUSH4 0x23B872DD SWAP1 PUSH2 0x875 SWAP1 CALLER SWAP1 DUP5 SWAP1 DUP10 SWAP1 PUSH1 0x4 ADD PUSH2 0x2EEE JUMP JUMPDEST PUSH1 0x20 PUSH1 0x40 MLOAD DUP1 DUP4 SUB DUP2 PUSH0 DUP8 GAS CALL ISZERO DUP1 ISZERO PUSH2 0x891 JUMPI RETURNDATASIZE PUSH0 PUSH0 RETURNDATACOPY RETURNDATASIZE PUSH0 REVERT JUMPDEST POP POP POP POP PUSH1 0x40 MLOAD RETURNDATASIZE PUSH1 0x1F NOT PUSH1 0x1F DUP3 ADD AND DUP3 ADD DUP1 PUSH1 0x40 MSTORE POP DUP2 ADD SWAP1 PUSH2 0x8B5 SWAP2 SWAP1 PUSH2 0x2F12 JUMP JUMPDEST SWAP1 POP DUP1 ADDRESS PUSH1 0x1 PUSH1 0x1 PUSH1 0xA0 SHL SUB AND PUSH4 0x6FDDE03 PUSH1 0x40 MLOAD DUP2 PUSH4 0xFFFFFFFF AND PUSH1 0xE0 SHL DUP2 MSTORE PUSH1 0x4 ADD PUSH0 PUSH1 0x40 MLOAD DUP1 DUP4 SUB DUP2 DUP7 GAS STATICCALL ISZERO DUP1 ISZERO PUSH2 0x8F3 JUMPI RETURNDATASIZE PUSH0 PUSH0 RETURNDATACOPY RETURNDATASIZE PUSH0 REVERT JUMPDEST POP POP POP POP PUSH1 0x40 MLOAD RETURNDATASIZE PUSH0 DUP3 RETURNDATACOPY PUSH1 0x1F RETURNDATASIZE SWAP1 DUP2 ADD PUSH1 0x1F NOT AND DUP3 ADD PUSH1 0x40 MSTORE PUSH2 0x91A SWAP2 SWAP1 DUP2 ADD SWAP1 PUSH2 0x2F31 JUMP JUMPDEST PUSH1 0x40 MLOAD PUSH1 0x20 ADD PUSH2 0x92A SWAP2 SWAP1 PUSH2 0x2FA5 JUMP JUMPDEST PUSH1 0x40 MLOAD PUSH1 0x20 DUP2 DUP4 SUB SUB DUP2 MSTORE SWAP1 PUSH1 0x40 MSTORE SWAP1 PUSH2 0x957 JUMPI PUSH1 0x40 MLOAD PUSH3 0x461BCD PUSH1 0xE5 SHL DUP2 MSTORE PUSH1 0x4 ADD PUSH2 0x806 SWAP2 SWAP1 PUSH2 0x26C6 JUMP JUMPDEST POP PUSH1 0x40 MLOAD PUSH4 0xA9059CBB PUSH1 0xE0 SHL DUP2 MSTORE CALLER PUSH1 0x4 DUP3 ADD MSTORE PUSH1 0x24 DUP2 ADD DUP4 SWAP1 MSTORE PUSH1 0x1 PUSH1 0x1 PUSH1 0xA0 SHL SUB DUP5 AND SWAP1 PUSH4 0xA9059CBB SWAP1 PUSH1 0x44 ADD JUMPDEST PUSH1 0x20 PUSH1 0x40 MLOAD DUP1 DUP4 SUB DUP2 PUSH0 DUP8 GAS CALL ISZERO DUP1 ISZERO PUSH2 0x9A3 JUMPI RETURNDATASIZE PUSH0 PUSH0 RETURNDATACOPY RETURNDATASIZE PUSH0 REVERT JUMPDEST POP POP POP POP PUSH1 0x40 MLOAD RETURNDATASIZE PUSH1 0x1F NOT PUSH1 0x1F DUP3 ADD AND DUP3 ADD DUP1 PUSH1 0x40 MSTORE POP DUP2 ADD SWAP1 PUSH2 0x9C7 SWAP2 SWAP1 PUSH2 0x2F12 JUMP JUMPDEST POP POP POP POP POP POP JUMP JUMPDEST PUSH0 CALLER PUSH2 0x9DC DUP6 DUP3 DUP6 PUSH2 0x23E5 JUMP JUMPDEST PUSH2 0x9E7 DUP6 DUP6 DUP6 PUSH2 0x243C JUMP JUMPDEST POP PUSH1 0x1 SWAP5 SWAP4 POP POP POP POP JUMP JUMPDEST PUSH1 0x1 PUSH1 0x1 PUSH1 0xA0 SHL SUB DUP3 AND PUSH0 SWAP1 DUP2 MSTORE PUSH1 0x8 PUSH1 0x20 MSTORE PUSH1 0x40 DUP2 KECCAK256 SLOAD SWAP1 SUB PUSH2 0xA2B JUMPI DUP2 PUSH1 0x40 MLOAD PUSH4 0x90B23441 PUSH1 0xE0 SHL DUP2 MSTORE PUSH1 0x4 ADD PUSH2 0x806 SWAP2 SWAP1 PUSH2 0x2A56 JUMP JUMPDEST DUP2 PUSH0 PUSH2 0xA39 PUSH1 0x12 PUSH1 0xA PUSH2 0x2EAA JUMP JUMPDEST PUSH1 0x1 PUSH1 0x1 PUSH1 0xA0 SHL SUB DUP6 AND PUSH0 SWAP1 DUP2 MSTORE PUSH1 0x8 PUSH1 0x20 MSTORE PUSH1 0x40 SWAP1 KECCAK256 SLOAD PUSH2 0xA5B SWAP1 DUP6 PUSH2 0x2EB8 JUMP JUMPDEST PUSH2 0xA65 SWAP2 SWAP1 PUSH2 0x2ECF JUMP JUMPDEST SWAP1 POP PUSH0 DUP3 PUSH1 0x1 PUSH1 0x1 PUSH1 0xA0 SHL SUB AND PUSH4 0x23B872DD CALLER ADDRESS DUP6 PUSH1 0x40 MLOAD DUP5 PUSH4 0xFFFFFFFF AND PUSH1 0xE0 SHL DUP2 MSTORE PUSH1 0x4 ADD PUSH2 0xA98 SWAP4 SWAP3 SWAP2 SWAP1 PUSH2 0x2EEE JUMP JUMPDEST PUSH1 0x20 PUSH1 0x40 MLOAD DUP1 DUP4 SUB DUP2 PUSH0 DUP8 GAS CALL ISZERO DUP1 ISZERO PUSH2 0xAB4 JUMPI RETURNDATASIZE PUSH0 PUSH0 RETURNDATACOPY RETURNDATASIZE PUSH0 REVERT JUMPDEST POP POP POP POP PUSH1 0x40 MLOAD RETURNDATASIZE PUSH1 0x1F NOT PUSH1 0x1F DUP3 ADD AND DUP3 ADD DUP1 PUSH1 0x40 MSTORE POP DUP2 ADD SWAP1 PUSH2 0xAD8 SWAP2 SWAP1 PUSH2 0x2F12 JUMP JUMPDEST SWAP1 POP DUP1 DUP4 PUSH1 0x1 PUSH1 0x1 PUSH1 0xA0 SHL SUB AND PUSH4 0x6FDDE03 PUSH1 0x40 MLOAD DUP2 PUSH4 0xFFFFFFFF AND PUSH1 0xE0 SHL DUP2 MSTORE PUSH1 0x4 ADD PUSH0 PUSH1 0x40 MLOAD DUP1 DUP4 SUB DUP2 DUP7 GAS STATICCALL ISZERO DUP1 ISZERO PUSH2 0xB16 JUMPI RETURNDATASIZE PUSH0 PUSH0 RETURNDATACOPY RETURNDATASIZE PUSH0 REVERT JUMPDEST POP POP POP POP PUSH1 0x40 MLOAD RETURNDATASIZE PUSH0 DUP3 RETURNDATACOPY PUSH1 0x1F RETURNDATASIZE SWAP1 DUP2 ADD PUSH1 0x1F NOT AND DUP3 ADD PUSH1 0x40 MSTORE PUSH2 0xB3D SWAP2 SWAP1 DUP2 ADD SWAP1 PUSH2 0x2F31 JUMP JUMPDEST PUSH1 0x40 MLOAD PUSH1 0x20 ADD PUSH2 0xB4D SWAP2 SWAP1 PUSH2 0x2FA5 JUMP JUMPDEST PUSH1 0x40 MLOAD PUSH1 0x20 DUP2 DUP4 SUB SUB DUP2 MSTORE SWAP1 PUSH1 0x40 MSTORE SWAP1 PUSH2 0xB7A JUMPI PUSH1 0x40 MLOAD PUSH3 0x461BCD PUSH1 0xE5 SHL DUP2 MSTORE PUSH1 0x4 ADD PUSH2 0x806 SWAP2 SWAP1 PUSH2 0x26C6 JUMP JUMPDEST POP PUSH1 0x40 MLOAD PUSH4 0xA9059CBB PUSH1 0xE0 SHL DUP2 MSTORE CALLER PUSH1 0x4 DUP3 ADD MSTORE PUSH1 0x24 DUP2 ADD DUP6 SWAP1 MSTORE ADDRESS SWAP1 PUSH4 0xA9059CBB SWAP1 PUSH1 0x44 ADD PUSH2 0x987 JUMP JUMPDEST PUSH0 PUSH0 PUSH2 0xC91 DUP5 PUSH1 0x9 PUSH0 SWAP1 SLOAD SWAP1 PUSH2 0x100 EXP SWAP1 DIV PUSH1 0x1 PUSH1 0x1 PUSH1 0xA0 SHL SUB AND PUSH1 0x1 PUSH1 0x1 PUSH1 0xA0 SHL SUB AND PUSH4 0x9FF43001 PUSH1 0x40 MLOAD DUP2 PUSH4 0xFFFFFFFF AND PUSH1 0xE0 SHL DUP2 MSTORE PUSH1 0x4 ADD PUSH1 0x20 PUSH1 0x40 MLOAD DUP1 DUP4 SUB DUP2 PUSH0 DUP8 GAS CALL ISZERO DUP1 ISZERO PUSH2 0xBFC JUMPI RETURNDATASIZE PUSH0 PUSH0 RETURNDATACOPY RETURNDATASIZE PUSH0 REVERT JUMPDEST POP POP POP POP PUSH1 0x40 MLOAD RETURNDATASIZE PUSH1 0x1F NOT PUSH1 0x1F DUP3 ADD AND DUP3 ADD DUP1 PUSH1 0x40 MSTORE POP DUP2 ADD SWAP1 PUSH2 0xC20 SWAP2 SWAP1 PUSH2 0x2C9C JUMP JUMPDEST PUSH1 0x1 PUSH1 0x1 PUSH1 0xA0 SHL SUB AND PUSH4 0x27BACC40 PUSH1 0x40 MLOAD DUP2 PUSH4 0xFFFFFFFF AND PUSH1 0xE0 SHL DUP2 MSTORE PUSH1 0x4 ADD PUSH1 0x20 PUSH1 0x40 MLOAD DUP1 DUP4 SUB DUP2 DUP7 GAS STATICCALL ISZERO DUP1 ISZERO PUSH2 0xC5B JUMPI RETURNDATASIZE PUSH0 PUSH0 RETURNDATACOPY RETURNDATASIZE PUSH0 REVERT JUMPDEST POP POP POP POP PUSH1 0x40 MLOAD RETURNDATASIZE PUSH1 0x1F NOT PUSH1 0x1F DUP3 ADD AND DUP3 ADD DUP1 PUSH1 0x40 MSTORE POP DUP2 ADD SWAP1 PUSH2 0xC7F SWAP2 SWAP1 PUSH2 0x2FD5 JUMP JUMPDEST DUP7 PUSH1 0xC0 ADD MLOAD XOR DUP6 DUP8 PUSH1 0xE0 ADD MLOAD XOR PUSH2 0x15DC JUMP JUMPDEST SWAP2 POP SWAP2 POP SWAP3 POP SWAP3 SWAP1 POP JUMP JUMPDEST PUSH2 0xCA4 PUSH2 0x2447 JUMP JUMPDEST PUSH1 0xA DUP1 SLOAD PUSH1 0x1 PUSH1 0x1 PUSH1 0xA0 SHL SUB NOT AND PUSH1 0x1 PUSH1 0x1 PUSH1 0xA0 SHL SUB SWAP3 SWAP1 SWAP3 AND SWAP2 SWAP1 SWAP2 OR SWAP1 SSTORE JUMP JUMPDEST PUSH2 0xCCE PUSH2 0x2447 JUMP JUMPDEST PUSH2 0xCD8 DUP2 PUSH0 PUSH2 0x2487 JUMP JUMPDEST POP JUMP JUMPDEST PUSH0 PUSH0 PUSH2 0xE25 DUP4 PUSH1 0x80 ADD MLOAD PUSH1 0x9 PUSH0 SWAP1 SLOAD SWAP1 PUSH2 0x100 EXP SWAP1 DIV PUSH1 0x1 PUSH1 0x1 PUSH1 0xA0 SHL SUB AND PUSH1 0x1 PUSH1 0x1 PUSH1 0xA0 SHL SUB AND PUSH4 0x9FF43001 PUSH1 0x40 MLOAD DUP2 PUSH4 0xFFFFFFFF AND PUSH1 0xE0 SHL DUP2 MSTORE PUSH1 0x4 ADD PUSH1 0x20 PUSH1 0x40 MLOAD DUP1 DUP4 SUB DUP2 PUSH0 DUP8 GAS CALL ISZERO DUP1 ISZERO PUSH2 0xD36 JUMPI RETURNDATASIZE PUSH0 PUSH0 RETURNDATACOPY RETURNDATASIZE PUSH0 REVERT JUMPDEST POP POP POP POP PUSH1 0x40 MLOAD RETURNDATASIZE PUSH1 0x1F NOT PUSH1 0x1F DUP3 ADD AND DUP3 ADD DUP1 PUSH1 0x40 MSTORE POP DUP2 ADD SWAP1 PUSH2 0xD5A SWAP2 SWAP1 PUSH2 0x2C9C JUMP JUMPDEST PUSH1 0x1 PUSH1 0x1 PUSH1 0xA0 SHL SUB AND PUSH4 0x76FADE90 PUSH1 0x40 MLOAD DUP2 PUSH4 0xFFFFFFFF AND PUSH1 0xE0 SHL DUP2 MSTORE PUSH1 0x4 ADD PUSH1 0x20 PUSH1 0x40 MLOAD DUP1 DUP4 SUB DUP2 PUSH0 DUP8 GAS CALL ISZERO DUP1 ISZERO PUSH2 0xD96 JUMPI RETURNDATASIZE PUSH0 PUSH0 RETURNDATACOPY RETURNDATASIZE PUSH0 REVERT JUMPDEST POP POP POP POP PUSH1 0x40 MLOAD RETURNDATASIZE PUSH1 0x1F NOT PUSH1 0x1F DUP3 ADD AND DUP3 ADD DUP1 PUSH1 0x40 MSTORE POP DUP2 ADD SWAP1 PUSH2 0xDBA SWAP2 SWAP1 PUSH2 0x2C9C JUMP JUMPDEST PUSH1 0x1 PUSH1 0x1 PUSH1 0xA0 SHL SUB AND PUSH4 0xA4566950 PUSH1 0x40 MLOAD DUP2 PUSH4 0xFFFFFFFF AND PUSH1 0xE0 SHL DUP2 MSTORE PUSH1 0x4 ADD PUSH2 0x300 PUSH1 0x40 MLOAD DUP1 DUP4 SUB DUP2 PUSH0 DUP8 GAS CALL ISZERO DUP1 ISZERO PUSH2 0xDF7 JUMPI RETURNDATASIZE PUSH0 PUSH0 RETURNDATACOPY RETURNDATASIZE PUSH0 REVERT JUMPDEST POP POP POP POP PUSH1 0x40 MLOAD RETURNDATASIZE PUSH1 0x1F NOT PUSH1 0x1F DUP3 ADD AND DUP3 ADD DUP1 PUSH1 0x40 MSTORE POP DUP2 ADD SWAP1 PUSH2 0xE1B SWAP2 SWAP1 PUSH2 0x2D67 JUMP JUMPDEST MLOAD PUSH1 0xC0 ADD MLOAD PUSH2 0x1273 JUMP JUMPDEST PUSH1 0x1 PUSH1 0x1 PUSH1 0x40 SHL SUB SWAP1 DUP2 AND PUSH1 0xE0 DUP7 ADD DUP2 SWAP1 MSTORE SWAP2 AND PUSH1 0xC0 DUP6 ADD MSTORE PUSH2 0xE47 SWAP1 PUSH2 0xFC2 JUMP JUMPDEST PUSH1 0x1 PUSH1 0x1 PUSH1 0x40 SHL SUB SWAP1 DUP2 AND PUSH1 0xE0 DUP7 ADD MSTORE AND PUSH1 0xC0 DUP5 ADD MSTORE PUSH1 0x80 DUP4 ADD MLOAD PUSH1 0x9 SLOAD PUSH1 0x40 DUP1 MLOAD PUSH4 0x9FF43001 PUSH1 0xE0 SHL DUP2 MSTORE SWAP1 MLOAD PUSH2 0xF9F SWAP4 SWAP3 PUSH1 0x1 PUSH1 0x1 PUSH1 0xA0 SHL SUB AND SWAP2 PUSH4 0x9FF43001 SWAP2 PUSH1 0x4 DUP1 DUP4 ADD SWAP3 PUSH1 0x20 SWAP3 SWAP2 SWAP1 DUP3 SWAP1 SUB ADD DUP2 PUSH0 DUP8 GAS CALL ISZERO DUP1 ISZERO PUSH2 0xEAD JUMPI RETURNDATASIZE PUSH0 PUSH0 RETURNDATACOPY RETURNDATASIZE PUSH0 REVERT JUMPDEST POP POP POP POP PUSH1 0x40 MLOAD RETURNDATASIZE PUSH1 0x1F NOT PUSH1 0x1F DUP3 ADD AND DUP3 ADD DUP1 PUSH1 0x40 MSTORE POP DUP2 ADD SWAP1 PUSH2 0xED1 SWAP2 SWAP1 PUSH2 0x2C9C JUMP JUMPDEST PUSH1 0x1 PUSH1 0x1 PUSH1 0xA0 SHL SUB AND PUSH4 0x76FADE90 PUSH1 0x40 MLOAD DUP2 PUSH4 0xFFFFFFFF AND PUSH1 0xE0 SHL DUP2 MSTORE PUSH1 0x4 ADD PUSH1 0x20 PUSH1 0x40 MLOAD DUP1 DUP4 SUB DUP2 PUSH0 DUP8 GAS CALL ISZERO DUP1 ISZERO PUSH2 0xF0D JUMPI RETURNDATASIZE PUSH0 PUSH0 RETURNDATACOPY RETURNDATASIZE PUSH0 REVERT JUMPDEST POP POP POP POP PUSH1 0x40 MLOAD RETURNDATASIZE PUSH1 0x1F NOT PUSH1 0x1F DUP3 ADD AND DUP3 ADD DUP1 PUSH1 0x40 MSTORE POP DUP2 ADD SWAP1 PUSH2 0xF31 SWAP2 SWAP1 PUSH2 0x2C9C JUMP JUMPDEST PUSH1 0x1 PUSH1 0x1 PUSH1 0xA0 SHL SUB AND PUSH4 0xA4566950 PUSH1 0x40 MLOAD DUP2 PUSH4 0xFFFFFFFF AND PUSH1 0xE0 SHL DUP2 MSTORE PUSH1 0x4 ADD PUSH2 0x300 PUSH1 0x40 MLOAD DUP1 DUP4 SUB DUP2 PUSH0 DUP8 GAS CALL ISZERO DUP1 ISZERO PUSH2 0xF6E JUMPI RETURNDATASIZE PUSH0 PUSH0 RETURNDATACOPY RETURNDATASIZE PUSH0 REVERT JUMPDEST POP POP POP POP PUSH1 0x40 MLOAD RETURNDATASIZE PUSH1 0x1F NOT PUSH1 0x1F DUP3 ADD AND DUP3 ADD DUP1 PUSH1 0x40 MSTORE POP DUP2 ADD SWAP1 PUSH2 0xF92 SWAP2 SWAP1 PUSH2 0x2D67 JUMP JUMPDEST PUSH1 0x40 ADD MLOAD PUSH1 0xC0 ADD MLOAD PUSH2 0x1273 JUMP JUMPDEST PUSH1 0x1 PUSH1 0x1 PUSH1 0x40 SHL SUB SWAP1 DUP2 AND PUSH1 0xE0 DUP7 ADD DUP2 SWAP1 MSTORE SWAP2 AND PUSH1 0xC0 SWAP1 SWAP5 ADD DUP5 SWAP1 MSTORE SWAP3 SWAP4 SWAP2 POP POP JUMP JUMPDEST PUSH0 PUSH0 PUSH2 0x110B PUSH1 0x9 PUSH0 SWAP1 SLOAD SWAP1 PUSH2 0x100 EXP SWAP1 DIV PUSH1 0x1 PUSH1 0x1 PUSH1 0xA0 SHL SUB AND PUSH1 0x1 PUSH1 0x1 PUSH1 0xA0 SHL SUB AND PUSH4 0x9FF43001 PUSH1 0x40 MLOAD DUP2 PUSH4 0xFFFFFFFF AND PUSH1 0xE0 SHL DUP2 MSTORE PUSH1 0x4 ADD PUSH1 0x20 PUSH1 0x40 MLOAD DUP1 DUP4 SUB DUP2 PUSH0 DUP8 GAS CALL ISZERO DUP1 ISZERO PUSH2 0x1018 JUMPI RETURNDATASIZE PUSH0 PUSH0 RETURNDATACOPY RETURNDATASIZE PUSH0 REVERT JUMPDEST POP POP POP POP PUSH1 0x40 MLOAD RETURNDATASIZE PUSH1 0x1F NOT PUSH1 0x1F DUP3 ADD AND DUP3 ADD DUP1 PUSH1 0x40 MSTORE POP DUP2 ADD SWAP1 PUSH2 0x103C SWAP2 SWAP1 PUSH2 0x2C9C JUMP JUMPDEST PUSH1 0x1 PUSH1 0x1 PUSH1 0xA0 SHL SUB AND PUSH4 0x76FADE90 PUSH1 0x40 MLOAD DUP2 PUSH4 0xFFFFFFFF AND PUSH1 0xE0 SHL DUP2 MSTORE PUSH1 0x4 ADD PUSH1 0x20 PUSH1 0x40 MLOAD DUP1 DUP4 SUB DUP2 PUSH0 DUP8 GAS CALL ISZERO DUP1 ISZERO PUSH2 0x1078 JUMPI RETURNDATASIZE PUSH0 PUSH0 RETURNDATACOPY RETURNDATASIZE PUSH0 REVERT JUMPDEST POP POP POP POP PUSH1 0x40 MLOAD RETURNDATASIZE PUSH1 0x1F NOT PUSH1 0x1F DUP3 ADD AND DUP3 ADD DUP1 PUSH1 0x40 MSTORE POP DUP2 ADD SWAP1 PUSH2 0x109C SWAP2 SWAP1 PUSH2 0x2C9C JUMP JUMPDEST PUSH1 0x1 PUSH1 0x1 PUSH1 0xA0 SHL SUB AND PUSH4 0xA4566950 PUSH1 0x40 MLOAD DUP2 PUSH4 0xFFFFFFFF AND PUSH1 0xE0 SHL DUP2 MSTORE PUSH1 0x4 ADD PUSH2 0x300 PUSH1 0x40 MLOAD DUP1 DUP4 SUB DUP2 PUSH0 DUP8 GAS CALL ISZERO DUP1 ISZERO PUSH2 0x10D9 JUMPI RETURNDATASIZE PUSH0 PUSH0 RETURNDATACOPY RETURNDATASIZE PUSH0 REVERT JUMPDEST POP POP POP POP PUSH1 0x40 MLOAD RETURNDATASIZE PUSH1 0x1F NOT PUSH1 0x1F DUP3 ADD AND DUP3 ADD DUP1 PUSH1 0x40 MSTORE POP DUP2 ADD SWAP1 PUSH2 0x10FD SWAP2 SWAP1 PUSH2 0x2D67 JUMP JUMPDEST PUSH1 0x20 ADD MLOAD PUSH1 0x80 ADD MLOAD DUP5 PUSH2 0x1273 JUMP JUMPDEST SWAP2 POP SWAP2 POP SWAP2 POP SWAP2 JUMP JUMPDEST PUSH1 0x1 PUSH1 0x1 PUSH1 0xA0 SHL SUB AND PUSH0 SWAP1 DUP2 MSTORE PUSH1 0x20 DUP2 SWAP1 MSTORE PUSH1 0x40 SWAP1 KECCAK256 SLOAD PUSH1 0xFF AND SWAP1 JUMP JUMPDEST PUSH0 PUSH0 PUSH2 0x110B PUSH1 0x9 PUSH0 SWAP1 SLOAD SWAP1 PUSH2 0x100 EXP SWAP1 DIV PUSH1 0x1 PUSH1 0x1 PUSH1 0xA0 SHL SUB AND PUSH1 0x1 PUSH1 0x1 PUSH1 0xA0 SHL SUB AND PUSH4 0x9FF43001 PUSH1 0x40 MLOAD DUP2 PUSH4 0xFFFFFFFF AND PUSH1 0xE0 SHL DUP2 MSTORE PUSH1 0x4 ADD PUSH1 0x20 PUSH1 0x40 MLOAD DUP1 DUP4 SUB DUP2 PUSH0 DUP8 GAS CALL ISZERO DUP1 ISZERO PUSH2 0x1187 JUMPI RETURNDATASIZE PUSH0 PUSH0 RETURNDATACOPY RETURNDATASIZE PUSH0 REVERT JUMPDEST POP POP POP POP PUSH1 0x40 MLOAD RETURNDATASIZE PUSH1 0x1F NOT PUSH1 0x1F DUP3 ADD AND DUP3 ADD DUP1 PUSH1 0x40 MSTORE POP DUP2 ADD SWAP1 PUSH2 0x11AB SWAP2 SWAP1 PUSH2 0x2C9C JUMP JUMPDEST PUSH1 0x1 PUSH1 0x1 PUSH1 0xA0 SHL SUB AND PUSH4 0x76FADE90 PUSH1 0x40 MLOAD DUP2 PUSH4 0xFFFFFFFF AND PUSH1 0xE0 SHL DUP2 MSTORE PUSH1 0x4 ADD PUSH1 0x20 PUSH1 0x40 MLOAD DUP1 DUP4 SUB DUP2 PUSH0 DUP8 GAS CALL ISZERO DUP1 ISZERO PUSH2 0x11E7 JUMPI RETURNDATASIZE PUSH0 PUSH0 RETURNDATACOPY RETURNDATASIZE PUSH0 REVERT JUMPDEST POP POP POP POP PUSH1 0x40 MLOAD RETURNDATASIZE PUSH1 0x1F NOT PUSH1 0x1F DUP3 ADD AND DUP3 ADD DUP1 PUSH1 0x40 MSTORE POP DUP2 ADD SWAP1 PUSH2 0x120B SWAP2 SWAP1 PUSH2 0x2C9C JUMP JUMPDEST PUSH1 0x1 PUSH1 0x1 PUSH1 0xA0 SHL SUB AND PUSH4 0xA4566950 PUSH1 0x40 MLOAD DUP2 PUSH4 0xFFFFFFFF AND PUSH1 0xE0 SHL DUP2 MSTORE PUSH1 0x4 ADD PUSH2 0x300 PUSH1 0x40 MLOAD DUP1 DUP4 SUB DUP2 PUSH0 DUP8 GAS CALL ISZERO DUP1 ISZERO PUSH2 0x1248 JUMPI RETURNDATASIZE PUSH0 PUSH0 RETURNDATACOPY RETURNDATASIZE PUSH0 REVERT JUMPDEST POP POP POP POP PUSH1 0x40 MLOAD RETURNDATASIZE PUSH1 0x1F NOT PUSH1 0x1F DUP3 ADD AND DUP3 ADD DUP1 PUSH1 0x40 MSTORE POP DUP2 ADD SWAP1 PUSH2 0x126C SWAP2 SWAP1 PUSH2 0x2D67 JUMP JUMPDEST MLOAD PUSH1 0x80 ADD MLOAD DUP5 JUMPDEST PUSH0 PUSH0 PUSH2 0x127D PUSH2 0x24DA JUMP JUMPDEST DUP4 PUSH1 0x1 PUSH1 0x1 PUSH1 0xA0 SHL SUB AND PUSH4 0x25A28A8F PUSH1 0x40 MLOAD DUP2 PUSH4 0xFFFFFFFF AND PUSH1 0xE0 SHL DUP2 MSTORE PUSH1 0x4 ADD PUSH1 0x20 PUSH1 0x40 MLOAD DUP1 DUP4 SUB DUP2 DUP7 GAS STATICCALL ISZERO DUP1 ISZERO PUSH2 0x12B9 JUMPI RETURNDATASIZE PUSH0 PUSH0 RETURNDATACOPY RETURNDATASIZE PUSH0 REVERT JUMPDEST POP POP POP POP PUSH1 0x40 MLOAD RETURNDATASIZE PUSH1 0x1F NOT PUSH1 0x1F DUP3 ADD AND DUP3 ADD DUP1 PUSH1 0x40 MSTORE POP DUP2 ADD SWAP1 PUSH2 0x12DD SWAP2 SWAP1 PUSH2 0x2C9C JUMP JUMPDEST PUSH1 0x1 PUSH1 0x1 PUSH1 0xA0 SHL SUB AND PUSH4 0xF302D97F DUP5 DUP7 PUSH1 0x1 PUSH1 0x1 PUSH1 0xA0 SHL SUB AND PUSH4 0x4970204F PUSH1 0x40 MLOAD DUP2 PUSH4 0xFFFFFFFF AND PUSH1 0xE0 SHL DUP2 MSTORE PUSH1 0x4 ADD PUSH1 0x20 PUSH1 0x40 MLOAD DUP1 DUP4 SUB DUP2 DUP7 GAS STATICCALL ISZERO DUP1 ISZERO PUSH2 0x1328 JUMPI RETURNDATASIZE PUSH0 PUSH0 RETURNDATACOPY RETURNDATASIZE PUSH0 REVERT JUMPDEST POP POP POP POP PUSH1 0x40 MLOAD RETURNDATASIZE PUSH1 0x1F NOT PUSH1 0x1F DUP3 ADD AND DUP3 ADD DUP1 PUSH1 0x40 MSTORE POP DUP2 ADD SWAP1 PUSH2 0x134C SWAP2 SWAP1 PUSH2 0x2C9C JUMP JUMPDEST PUSH1 0x1 PUSH1 0x1 PUSH1 0xA0 SHL SUB AND PUSH4 0x1686F265 PUSH1 0x40 MLOAD DUP2 PUSH4 0xFFFFFFFF AND PUSH1 0xE0 SHL DUP2 MSTORE PUSH1 0x4 ADD PUSH2 0x1A0 PUSH1 0x40 MLOAD DUP1 DUP4 SUB DUP2 PUSH0 DUP8 GAS CALL ISZERO DUP1 ISZERO PUSH2 0x1389 JUMPI RETURNDATASIZE PUSH0 PUSH0 RETURNDATACOPY RETURNDATASIZE PUSH0 REVERT JUMPDEST POP POP POP POP PUSH1 0x40 MLOAD RETURNDATASIZE PUSH1 0x1F NOT PUSH1 0x1F DUP3 ADD AND DUP3 ADD DUP1 PUSH1 0x40 MSTORE POP DUP2 ADD SWAP1 PUSH2 0x13AD SWAP2 SWAP1 PUSH2 0x2FF0 JUMP JUMPDEST PUSH1 0x60 ADD MLOAD PUSH1 0x40 MLOAD PUSH1 0x1 PUSH1 0x1 PUSH1 0xE0 SHL SUB NOT PUSH1 0xE0 DUP6 SWAP1 SHL AND DUP2 MSTORE PUSH1 0x1 PUSH1 0x1 PUSH1 0x40 SHL SUB SWAP3 DUP4 AND PUSH1 0x4 DUP3 ADD MSTORE SWAP2 AND PUSH1 0x24 DUP3 ADD MSTORE PUSH1 0x44 ADD PUSH1 0x40 DUP1 MLOAD DUP1 DUP4 SUB DUP2 PUSH0 DUP8 GAS CALL ISZERO DUP1 ISZERO PUSH2 0x13FA JUMPI RETURNDATASIZE PUSH0 PUSH0 RETURNDATACOPY RETURNDATASIZE PUSH0 REVERT JUMPDEST POP POP POP POP PUSH1 0x40 MLOAD RETURNDATASIZE PUSH1 0x1F NOT PUSH1 0x1F DUP3 ADD AND DUP3 ADD DUP1 PUSH1 0x40 MSTORE POP DUP2 ADD SWAP1 PUSH2 0xC91 SWAP2 SWAP1 PUSH2 0x30F3 JUMP JUMPDEST PUSH2 0x1426 PUSH2 0x2447 JUMP JUMPDEST PUSH1 0x1 PUSH1 0x1 PUSH1 0xA0 SHL SUB DUP2 AND PUSH2 0x1453 JUMPI ORIGIN PUSH0 ADDRESS PUSH1 0x40 MLOAD PUSH4 0x36030219 PUSH1 0xE2 SHL DUP2 MSTORE PUSH1 0x4 ADD PUSH2 0x806 SWAP4 SWAP3 SWAP2 SWAP1 PUSH2 0x3120 JUMP JUMPDEST PUSH2 0xCD8 DUP2 PUSH1 0x1 PUSH2 0x2487 JUMP JUMPDEST PUSH0 PUSH0 PUSH2 0x110B PUSH1 0x9 PUSH0 SWAP1 SLOAD SWAP1 PUSH2 0x100 EXP SWAP1 DIV PUSH1 0x1 PUSH1 0x1 PUSH1 0xA0 SHL SUB AND PUSH1 0x1 PUSH1 0x1 PUSH1 0xA0 SHL SUB AND PUSH4 0x9FF43001 PUSH1 0x40 MLOAD DUP2 PUSH4 0xFFFFFFFF AND PUSH1 0xE0 SHL DUP2 MSTORE PUSH1 0x4 ADD PUSH1 0x20 PUSH1 0x40 MLOAD DUP1 DUP4 SUB DUP2 PUSH0 DUP8 GAS CALL ISZERO DUP1 ISZERO PUSH2 0x14B4 JUMPI RETURNDATASIZE PUSH0 PUSH0 RETURNDATACOPY RETURNDATASIZE PUSH0 REVERT JUMPDEST POP POP POP POP PUSH1 0x40 MLOAD RETURNDATASIZE PUSH1 0x1F NOT PUSH1 0x1F DUP3 ADD AND DUP3 ADD DUP1 PUSH1 0x40 MSTORE POP DUP2 ADD SWAP1 PUSH2 0x14D8 SWAP2 SWAP1 PUSH2 0x2C9C JUMP JUMPDEST PUSH1 0x1 PUSH1 0x1 PUSH1 0xA0 SHL SUB AND PUSH4 0x76FADE90 PUSH1 0x40 MLOAD DUP2 PUSH4 0xFFFFFFFF AND PUSH1 0xE0 SHL DUP2 MSTORE PUSH1 0x4 ADD PUSH1 0x20 PUSH1 0x40 MLOAD DUP1 DUP4 SUB DUP2 PUSH0 DUP8 GAS CALL ISZERO DUP1 ISZERO PUSH2 0x1514 JUMPI RETURNDATASIZE PUSH0 PUSH0 RETURNDATACOPY RETURNDATASIZE PUSH0 REVERT JUMPDEST POP POP POP POP PUSH1 0x40 MLOAD RETURNDATASIZE PUSH1 0x1F NOT PUSH1 0x1F DUP3 ADD AND DUP3 ADD DUP1 PUSH1 0x40 MSTORE POP DUP2 ADD SWAP1 PUSH2 0x1538 SWAP2 SWAP1 PUSH2 0x2C9C JUMP JUMPDEST PUSH1 0x1 PUSH1 0x1 PUSH1 0xA0 SHL SUB AND PUSH4 0xA4566950 PUSH1 0x40 MLOAD DUP2 PUSH4 0xFFFFFFFF AND PUSH1 0xE0 SHL DUP2 MSTORE PUSH1 0x4 ADD PUSH2 0x300 PUSH1 0x40 MLOAD DUP1 DUP4 SUB DUP2 PUSH0 DUP8 GAS CALL ISZERO DUP1 ISZERO PUSH2 0x1575 JUMPI RETURNDATASIZE PUSH0 PUSH0 RETURNDATACOPY RETURNDATASIZE PUSH0 REVERT JUMPDEST POP POP POP POP PUSH1 0x40 MLOAD RETURNDATASIZE PUSH1 0x1F NOT PUSH1 0x1F DUP3 ADD AND DUP3 ADD DUP1 PUSH1 0x40 MSTORE POP DUP2 ADD SWAP1 PUSH2 0x1599 SWAP2 SWAP1 PUSH2 0x2D67 JUMP JUMPDEST PUSH1 0x40 ADD MLOAD PUSH1 0x80 ADD MLOAD DUP5 PUSH2 0x2323 JUMP JUMPDEST PUSH1 0x60 PUSH1 0x5 DUP1 SLOAD PUSH2 0x58A SWAP1 PUSH2 0x2C64 JUMP JUMPDEST PUSH2 0x15BE PUSH2 0x2447 JUMP JUMPDEST PUSH1 0x4 PUSH2 0x15CA DUP4 DUP3 PUSH2 0x318E JUMP JUMPDEST POP PUSH1 0x5 PUSH2 0x15D7 DUP3 DUP3 PUSH2 0x318E JUMP JUMPDEST POP POP POP JUMP JUMPDEST PUSH0 PUSH0 PUSH2 0x15EC DUP6 PUSH1 0x80 ADD MLOAD DUP6 PUSH2 0x1273 JUMP JUMPDEST PUSH1 0x1 PUSH1 0x1 PUSH1 0x40 SHL SUB SWAP1 DUP2 AND PUSH1 0xC0 DUP9 ADD MSTORE AND PUSH1 0xE0 DUP7 ADD MSTORE PUSH1 0x80 DUP6 ADD MLOAD PUSH2 0x1611 SWAP1 DUP5 PUSH2 0x1273 JUMP JUMPDEST PUSH1 0x1 PUSH1 0x1 PUSH1 0x40 SHL SUB SWAP1 DUP2 AND PUSH1 0xC0 DUP9 ADD DUP2 SWAP1 MSTORE SWAP2 AND PUSH1 0xE0 DUP8 ADD DUP2 SWAP1 MSTORE SWAP1 SWAP3 POP SWAP1 POP JUMPDEST SWAP4 POP SWAP4 SWAP2 POP POP JUMP JUMPDEST PUSH0 CALLER PUSH2 0x618 DUP2 DUP6 DUP6 PUSH2 0x243C JUMP JUMPDEST PUSH0 PUSH0 PUSH2 0x18D2 DUP6 PUSH1 0x9 PUSH0 SWAP1 SLOAD SWAP1 PUSH2 0x100 EXP SWAP1 DIV PUSH1 0x1 PUSH1 0x1 PUSH1 0xA0 SHL SUB AND PUSH1 0x1 PUSH1 0x1 PUSH1 0xA0 SHL SUB AND PUSH4 0x9FF43001 PUSH1 0x40 MLOAD DUP2 PUSH4 0xFFFFFFFF AND PUSH1 0xE0 SHL DUP2 MSTORE PUSH1 0x4 ADD PUSH1 0x20 PUSH1 0x40 MLOAD DUP1 DUP4 SUB DUP2 PUSH0 DUP8 GAS CALL ISZERO DUP1 ISZERO PUSH2 0x169E JUMPI RETURNDATASIZE PUSH0 PUSH0 RETURNDATACOPY RETURNDATASIZE PUSH0 REVERT JUMPDEST POP POP POP POP PUSH1 0x40 MLOAD RETURNDATASIZE PUSH1 0x1F NOT PUSH1 0x1F DUP3 ADD AND DUP3 ADD DUP1 PUSH1 0x40 MSTORE POP DUP2 ADD SWAP1 PUSH2 0x16C2 SWAP2 SWAP1 PUSH2 0x2C9C JUMP JUMPDEST PUSH1 0x1 PUSH1 0x1 PUSH1 0xA0 SHL SUB AND PUSH4 0x76FADE90 PUSH1 0x40 MLOAD DUP2 PUSH4 0xFFFFFFFF AND PUSH1 0xE0 SHL DUP2 MSTORE PUSH1 0x4 ADD PUSH1 0x20 PUSH1 0x40 MLOAD DUP1 DUP4 SUB DUP2 PUSH0 DUP8 GAS CALL ISZERO DUP1 ISZERO PUSH2 0x16FE JUMPI RETURNDATASIZE PUSH0 PUSH0 RETURNDATACOPY RETURNDATASIZE PUSH0 REVERT JUMPDEST POP POP POP POP PUSH1 0x40 MLOAD RETURNDATASIZE PUSH1 0x1F NOT PUSH1 0x1F DUP3 ADD AND DUP3 ADD DUP1 PUSH1 0x40 MSTORE POP DUP2 ADD SWAP1 PUSH2 0x1722 SWAP2 SWAP1 PUSH2 0x2C9C JUMP JUMPDEST PUSH1 0x1 PUSH1 0x1 PUSH1 0xA0 SHL SUB AND PUSH4 0xA4566950 PUSH1 0x40 MLOAD DUP2 PUSH4 0xFFFFFFFF AND PUSH1 0xE0 SHL DUP2 MSTORE PUSH1 0x4 ADD PUSH2 0x300 PUSH1 0x40 MLOAD DUP1 DUP4 SUB DUP2 PUSH0 DUP8 GAS CALL ISZERO DUP1 ISZERO PUSH2 0x175F JUMPI RETURNDATASIZE PUSH0 PUSH0 RETURNDATACOPY RETURNDATASIZE PUSH0 REVERT JUMPDEST POP POP POP POP PUSH1 0x40 MLOAD RETURNDATASIZE PUSH1 0x1F NOT PUSH1 0x1F DUP3 ADD AND DUP3 ADD DUP1 PUSH1 0x40 MSTORE POP DUP2 ADD SWAP1 PUSH2 0x1783 SWAP2 SWAP1 PUSH2 0x2D67 JUMP JUMPDEST PUSH1 0x20 ADD MLOAD PUSH1 0xC0 ADD MLOAD DUP7 XOR PUSH1 0x9 PUSH0 SWAP1 SLOAD SWAP1 PUSH2 0x100 EXP SWAP1 DIV PUSH1 0x1 PUSH1 0x1 PUSH1 0xA0 SHL SUB AND PUSH1 0x1 PUSH1 0x1 PUSH1 0xA0 SHL SUB AND PUSH4 0x9FF43001 PUSH1 0x40 MLOAD DUP2 PUSH4 0xFFFFFFFF AND PUSH1 0xE0 SHL DUP2 MSTORE PUSH1 0x4 ADD PUSH1 0x20 PUSH1 0x40 MLOAD DUP1 DUP4 SUB DUP2 PUSH0 DUP8 GAS CALL ISZERO DUP1 ISZERO PUSH2 0x17DE JUMPI RETURNDATASIZE PUSH0 PUSH0 RETURNDATACOPY RETURNDATASIZE PUSH0 REVERT JUMPDEST POP POP POP POP PUSH1 0x40 MLOAD RETURNDATASIZE PUSH1 0x1F NOT PUSH1 0x1F DUP3 ADD AND DUP3 ADD DUP1 PUSH1 0x40 MSTORE POP DUP2 ADD SWAP1 PUSH2 0x1802 SWAP2 SWAP1 PUSH2 0x2C9C JUMP JUMPDEST PUSH1 0x1 PUSH1 0x1 PUSH1 0xA0 SHL SUB AND PUSH4 0x76FADE90 PUSH1 0x40 MLOAD DUP2 PUSH4 0xFFFFFFFF AND PUSH1 0xE0 SHL DUP2 MSTORE PUSH1 0x4 ADD PUSH1 0x20 PUSH1 0x40 MLOAD DUP1 DUP4 SUB DUP2 PUSH0 DUP8 GAS CALL ISZERO DUP1 ISZERO PUSH2 0x183E JUMPI RETURNDATASIZE PUSH0 PUSH0 RETURNDATACOPY RETURNDATASIZE PUSH0 REVERT JUMPDEST POP POP POP POP PUSH1 0x40 MLOAD RETURNDATASIZE PUSH1 0x1F NOT PUSH1 0x1F DUP3 ADD AND DUP3 ADD DUP1 PUSH1 0x40 MSTORE POP DUP2 ADD SWAP1 PUSH2 0x1862 SWAP2 SWAP1 PUSH2 0x2C9C JUMP JUMPDEST PUSH1 0x1 PUSH1 0x1 PUSH1 0xA0 SHL SUB AND PUSH4 0xA4566950 PUSH1 0x40 MLOAD DUP2 PUSH4 0xFFFFFFFF AND PUSH1 0xE0 SHL DUP2 MSTORE PUSH1 0x4 ADD PUSH2 0x300 PUSH1 0x40 MLOAD DUP1 DUP4 SUB DUP2 PUSH0 DUP8 GAS CALL ISZERO DUP1 ISZERO PUSH2 0x189F JUMPI RETURNDATASIZE PUSH0 PUSH0 RETURNDATACOPY RETURNDATASIZE PUSH0 REVERT JUMPDEST POP POP POP POP PUSH1 0x40 MLOAD RETURNDATASIZE PUSH1 0x1F NOT PUSH1 0x1F DUP3 ADD AND DUP3 ADD DUP1 PUSH1 0x40 MSTORE POP DUP2 ADD SWAP1 PUSH2 0x18C3 SWAP2 SWAP1 PUSH2 0x2D67 JUMP JUMPDEST PUSH1 0x20 ADD MLOAD PUSH1 0xE0 ADD MLOAD DUP7 XOR PUSH2 0x15DC JUMP JUMPDEST SWAP2 POP SWAP2 POP SWAP4 POP SWAP4 SWAP2 POP POP JUMP JUMPDEST PUSH0 PUSH0 PUSH2 0x18D2 DUP6 PUSH1 0x9 PUSH0 SWAP1 SLOAD SWAP1 PUSH2 0x100 EXP SWAP1 DIV PUSH1 0x1 PUSH1 0x1 PUSH1 0xA0 SHL SUB AND PUSH1 0x1 PUSH1 0x1 PUSH1 0xA0 SHL SUB AND PUSH4 0x9FF43001 PUSH1 0x40 MLOAD DUP2 PUSH4 0xFFFFFFFF AND PUSH1 0xE0 SHL DUP2 MSTORE PUSH1 0x4 ADD PUSH1 0x20 PUSH1 0x40 MLOAD DUP1 DUP4 SUB DUP2 PUSH0 DUP8 GAS CALL ISZERO DUP1 ISZERO PUSH2 0x1935 JUMPI RETURNDATASIZE PUSH0 PUSH0 RETURNDATACOPY RETURNDATASIZE PUSH0 REVERT JUMPDEST POP POP POP POP PUSH1 0x40 MLOAD RETURNDATASIZE PUSH1 0x1F NOT PUSH1 0x1F DUP3 ADD AND DUP3 ADD DUP1 PUSH1 0x40 MSTORE POP DUP2 ADD SWAP1 PUSH2 0x1959 SWAP2 SWAP1 PUSH2 0x2C9C JUMP JUMPDEST PUSH1 0x1 PUSH1 0x1 PUSH1 0xA0 SHL SUB AND PUSH4 0x76FADE90 PUSH1 0x40 MLOAD DUP2 PUSH4 0xFFFFFFFF AND PUSH1 0xE0 SHL DUP2 MSTORE PUSH1 0x4 ADD PUSH1 0x20 PUSH1 0x40 MLOAD DUP1 DUP4 SUB DUP2 PUSH0 DUP8 GAS CALL ISZERO DUP1 ISZERO PUSH2 0x1995 JUMPI RETURNDATASIZE PUSH0 PUSH0 RETURNDATACOPY RETURNDATASIZE PUSH0 REVERT JUMPDEST POP POP POP POP PUSH1 0x40 MLOAD RETURNDATASIZE PUSH1 0x1F NOT PUSH1 0x1F DUP3 ADD AND DUP3 ADD DUP1 PUSH1 0x40 MSTORE POP DUP2 ADD SWAP1 PUSH2 0x19B9 SWAP2 SWAP1 PUSH2 0x2C9C JUMP JUMPDEST PUSH1 0x1 PUSH1 0x1 PUSH1 0xA0 SHL SUB AND PUSH4 0xA4566950 PUSH1 0x40 MLOAD DUP2 PUSH4 0xFFFFFFFF AND PUSH1 0xE0 SHL DUP2 MSTORE PUSH1 0x4 ADD PUSH2 0x300 PUSH1 0x40 MLOAD DUP1 DUP4 SUB DUP2 PUSH0 DUP8 GAS CALL ISZERO DUP1 ISZERO PUSH2 0x19F6 JUMPI RETURNDATASIZE PUSH0 PUSH0 RETURNDATACOPY RETURNDATASIZE PUSH0 REVERT JUMPDEST POP POP POP POP PUSH1 0x40 MLOAD RETURNDATASIZE PUSH1 0x1F NOT PUSH1 0x1F DUP3 ADD AND DUP3 ADD DUP1 PUSH1 0x40 MSTORE POP DUP2 ADD SWAP1 PUSH2 0x1A1A SWAP2 SWAP1 PUSH2 0x2D67 JUMP JUMPDEST PUSH1 0x40 ADD MLOAD PUSH1 0xC0 ADD MLOAD DUP7 XOR PUSH1 0x9 PUSH0 SWAP1 SLOAD SWAP1 PUSH2 0x100 EXP SWAP1 DIV PUSH1 0x1 PUSH1 0x1 PUSH1 0xA0 SHL SUB AND PUSH1 0x1 PUSH1 0x1 PUSH1 0xA0 SHL SUB AND PUSH4 0x9FF43001 PUSH1 0x40 MLOAD DUP2 PUSH4 0xFFFFFFFF AND PUSH1 0xE0 SHL DUP2 MSTORE PUSH1 0x4 ADD PUSH1 0x20 PUSH1 0x40 MLOAD DUP1 DUP4 SUB DUP2 PUSH0 DUP8 GAS CALL ISZERO DUP1 ISZERO PUSH2 0x1A75 JUMPI RETURNDATASIZE PUSH0 PUSH0 RETURNDATACOPY RETURNDATASIZE PUSH0 REVERT JUMPDEST POP POP POP POP PUSH1 0x40 MLOAD RETURNDATASIZE PUSH1 0x1F NOT PUSH1 0x1F DUP3 ADD AND DUP3 ADD DUP1 PUSH1 0x40 MSTORE POP DUP2 ADD SWAP1 PUSH2 0x1A99 SWAP2 SWAP1 PUSH2 0x2C9C JUMP JUMPDEST PUSH1 0x1 PUSH1 0x1 PUSH1 0xA0 SHL SUB AND PUSH4 0x76FADE90 PUSH1 0x40 MLOAD DUP2 PUSH4 0xFFFFFFFF AND PUSH1 0xE0 SHL DUP2 MSTORE PUSH1 0x4 ADD PUSH1 0x20 PUSH1 0x40 MLOAD DUP1 DUP4 SUB DUP2 PUSH0 DUP8 GAS CALL ISZERO DUP1 ISZERO PUSH2 0x1AD5 JUMPI RETURNDATASIZE PUSH0 PUSH0 RETURNDATACOPY RETURNDATASIZE PUSH0 REVERT JUMPDEST POP POP POP POP PUSH1 0x40 MLOAD RETURNDATASIZE PUSH1 0x1F NOT PUSH1 0x1F DUP3 ADD AND DUP3 ADD DUP1 PUSH1 0x40 MSTORE POP DUP2 ADD SWAP1 PUSH2 0x1AF9 SWAP2 SWAP1 PUSH2 0x2C9C JUMP JUMPDEST PUSH1 0x1 PUSH1 0x1 PUSH1 0xA0 SHL SUB AND PUSH4 0xA4566950 PUSH1 0x40 MLOAD DUP2 PUSH4 0xFFFFFFFF AND PUSH1 0xE0 SHL DUP2 MSTORE PUSH1 0x4 ADD PUSH2 0x300 PUSH1 0x40 MLOAD DUP1 DUP4 SUB DUP2 PUSH0 DUP8 GAS CALL ISZERO DUP1 ISZERO PUSH2 0x1B36 JUMPI RETURNDATASIZE PUSH0 PUSH0 RETURNDATACOPY RETURNDATASIZE PUSH0 REVERT JUMPDEST POP POP POP POP PUSH1 0x40 MLOAD RETURNDATASIZE PUSH1 0x1F NOT PUSH1 0x1F DUP3 ADD AND DUP3 ADD DUP1 PUSH1 0x40 MSTORE POP DUP2 ADD SWAP1 PUSH2 0x1B5A SWAP2 SWAP1 PUSH2 0x2D67 JUMP JUMPDEST PUSH1 0x40 ADD MLOAD PUSH1 0xE0 ADD MLOAD DUP7 XOR PUSH2 0x15DC JUMP JUMPDEST PUSH1 0x1 PUSH1 0x1 PUSH1 0xA0 SHL SUB SWAP2 DUP3 AND PUSH0 SWAP1 DUP2 MSTORE PUSH1 0x2 PUSH1 0x20 SWAP1 DUP2 MSTORE PUSH1 0x40 DUP1 DUP4 KECCAK256 SWAP4 SWAP1 SWAP5 AND DUP3 MSTORE SWAP2 SWAP1 SWAP2 MSTORE KECCAK256 SLOAD SWAP1 JUMP JUMPDEST PUSH0 PUSH0 PUSH2 0x18D2 DUP6 PUSH1 0x9 PUSH0 SWAP1 SLOAD SWAP1 PUSH2 0x100 EXP SWAP1 DIV PUSH1 0x1 PUSH1 0x1 PUSH1 0xA0 SHL SUB AND PUSH1 0x1 PUSH1 0x1 PUSH1 0xA0 SHL SUB AND PUSH4 0x9FF43001 PUSH1 0x40 MLOAD DUP2 PUSH4 0xFFFFFFFF AND PUSH1 0xE0 SHL DUP2 MSTORE PUSH1 0x4 ADD PUSH1 0x20 PUSH1 0x40 MLOAD DUP1 DUP4 SUB DUP2 PUSH0 DUP8 GAS CALL ISZERO DUP1 ISZERO PUSH2 0x1BEA JUMPI RETURNDATASIZE PUSH0 PUSH0 RETURNDATACOPY RETURNDATASIZE PUSH0 REVERT JUMPDEST POP POP POP POP PUSH1 0x40 MLOAD RETURNDATASIZE PUSH1 0x1F NOT PUSH1 0x1F DUP3 ADD AND DUP3 ADD DUP1 PUSH1 0x40 MSTORE POP DUP2 ADD SWAP1 PUSH2 0x1C0E SWAP2 SWAP1 PUSH2 0x2C9C JUMP JUMPDEST PUSH1 0x1 PUSH1 0x1 PUSH1 0xA0 SHL SUB AND PUSH4 0x76FADE90 PUSH1 0x40 MLOAD DUP2 PUSH4 0xFFFFFFFF AND PUSH1 0xE0 SHL DUP2 MSTORE PUSH1 0x4 ADD PUSH1 0x20 PUSH1 0x40 MLOAD DUP1 DUP4 SUB DUP2 PUSH0 DUP8 GAS CALL ISZERO DUP1 ISZERO PUSH2 0x1C4A JUMPI RETURNDATASIZE PUSH0 PUSH0 RETURNDATACOPY RETURNDATASIZE PUSH0 REVERT JUMPDEST POP POP POP POP PUSH1 0x40 MLOAD RETURNDATASIZE PUSH1 0x1F NOT PUSH1 0x1F DUP3 ADD AND DUP3 ADD DUP1 PUSH1 0x40 MSTORE POP DUP2 ADD SWAP1 PUSH2 0x1C6E SWAP2 SWAP1 PUSH2 0x2C9C JUMP JUMPDEST PUSH1 0x1 PUSH1 0x1 PUSH1 0xA0 SHL SUB AND PUSH4 0xA4566950 PUSH1 0x40 MLOAD DUP2 PUSH4 0xFFFFFFFF AND PUSH1 0xE0 SHL DUP2 MSTORE PUSH1 0x4 ADD PUSH2 0x300 PUSH1 0x40 MLOAD DUP1 DUP4 SUB DUP2 PUSH0 DUP8 GAS CALL ISZERO DUP1 ISZERO PUSH2 0x1CAB JUMPI RETURNDATASIZE PUSH0 PUSH0 RETURNDATACOPY RETURNDATASIZE PUSH0 REVERT JUMPDEST POP POP POP POP PUSH1 0x40 MLOAD RETURNDATASIZE PUSH1 0x1F NOT PUSH1 0x1F DUP3 ADD AND DUP3 ADD DUP1 PUSH1 0x40 MSTORE POP DUP2 ADD SWAP1 PUSH2 0x1CCF SWAP2 SWAP1 PUSH2 0x2D67 JUMP JUMPDEST PUSH0 ADD MLOAD PUSH1 0xC0 ADD MLOAD DUP7 XOR PUSH1 0x9 PUSH0 SWAP1 SLOAD SWAP1 PUSH2 0x100 EXP SWAP1 DIV PUSH1 0x1 PUSH1 0x1 PUSH1 0xA0 SHL SUB AND PUSH1 0x1 PUSH1 0x1 PUSH1 0xA0 SHL SUB AND PUSH4 0x9FF43001 PUSH1 0x40 MLOAD DUP2 PUSH4 0xFFFFFFFF AND PUSH1 0xE0 SHL DUP2 MSTORE PUSH1 0x4 ADD PUSH1 0x20 PUSH1 0x40 MLOAD DUP1 DUP4 SUB DUP2 PUSH0 DUP8 GAS CALL ISZERO DUP1 ISZERO PUSH2 0x1D29 JUMPI RETURNDATASIZE PUSH0 PUSH0 RETURNDATACOPY RETURNDATASIZE PUSH0 REVERT JUMPDEST POP POP POP POP PUSH1 0x40 MLOAD RETURNDATASIZE PUSH1 0x1F NOT PUSH1 0x1F DUP3 ADD AND DUP3 ADD DUP1 PUSH1 0x40 MSTORE POP DUP2 ADD SWAP1 PUSH2 0x1D4D SWAP2 SWAP1 PUSH2 0x2C9C JUMP JUMPDEST PUSH1 0x1 PUSH1 0x1 PUSH1 0xA0 SHL SUB AND PUSH4 0x76FADE90 PUSH1 0x40 MLOAD DUP2 PUSH4 0xFFFFFFFF AND PUSH1 0xE0 SHL DUP2 MSTORE PUSH1 0x4 ADD PUSH1 0x20 PUSH1 0x40 MLOAD DUP1 DUP4 SUB DUP2 PUSH0 DUP8 GAS CALL ISZERO DUP1 ISZERO PUSH2 0x1D89 JUMPI RETURNDATASIZE PUSH0 PUSH0 RETURNDATACOPY RETURNDATASIZE PUSH0 REVERT JUMPDEST POP POP POP POP PUSH1 0x40 MLOAD RETURNDATASIZE PUSH1 0x1F NOT PUSH1 0x1F DUP3 ADD AND DUP3 ADD DUP1 PUSH1 0x40 MSTORE POP DUP2 ADD SWAP1 PUSH2 0x1DAD SWAP2 SWAP1 PUSH2 0x2C9C JUMP JUMPDEST PUSH1 0x1 PUSH1 0x1 PUSH1 0xA0 SHL SUB AND PUSH4 0xA4566950 PUSH1 0x40 MLOAD DUP2 PUSH4 0xFFFFFFFF AND PUSH1 0xE0 SHL DUP2 MSTORE PUSH1 0x4 ADD PUSH2 0x300 PUSH1 0x40 MLOAD DUP1 DUP4 SUB DUP2 PUSH0 DUP8 GAS CALL ISZERO DUP1 ISZERO PUSH2 0x1DEA JUMPI RETURNDATASIZE PUSH0 PUSH0 RETURNDATACOPY RETURNDATASIZE PUSH0 REVERT JUMPDEST POP POP POP POP PUSH1 0x40 MLOAD RETURNDATASIZE PUSH1 0x1F NOT PUSH1 0x1F DUP3 ADD AND DUP3 ADD DUP1 PUSH1 0x40 MSTORE POP DUP2 ADD SWAP1 PUSH2 0x1E0E SWAP2 SWAP1 PUSH2 0x2D67 JUMP JUMPDEST MLOAD PUSH1 0xE0 ADD MLOAD DUP7 XOR PUSH2 0x15DC JUMP JUMPDEST PUSH0 PUSH0 PUSH2 0x1E24 PUSH2 0x24DA JUMP JUMPDEST PUSH1 0xA SLOAD DUP4 MLOAD PUSH1 0x9 SLOAD PUSH1 0x40 DUP1 MLOAD PUSH4 0x9FF43001 PUSH1 0xE0 SHL DUP2 MSTORE SWAP1 MLOAD PUSH1 0x1 PUSH1 0x1 PUSH1 0xA0 SHL SUB SWAP5 DUP6 AND SWAP5 PUSH4 0xEEDF25F0 SWAP5 SWAP4 AND SWAP2 PUSH4 0x9FF43001 SWAP2 PUSH1 0x4 DUP1 DUP4 ADD SWAP3 PUSH1 0x20 SWAP3 SWAP2 SWAP1 DUP3 SWAP1 SUB ADD DUP2 PUSH0 DUP8 GAS CALL ISZERO DUP1 ISZERO PUSH2 0x1E7A JUMPI RETURNDATASIZE PUSH0 PUSH0 RETURNDATACOPY RETURNDATASIZE PUSH0 REVERT JUMPDEST POP POP POP POP PUSH1 0x40 MLOAD RETURNDATASIZE PUSH1 0x1F NOT PUSH1 0x1F DUP3 ADD AND DUP3 ADD DUP1 PUSH1 0x40 MSTORE POP DUP2 ADD SWAP1 PUSH2 0x1E9E SWAP2 SWAP1 PUSH2 0x2C9C JUMP JUMPDEST PUSH1 0x1 PUSH1 0x1 PUSH1 0xA0 SHL SUB AND PUSH4 0x76FADE90 PUSH1 0x40 MLOAD DUP2 PUSH4 0xFFFFFFFF AND PUSH1 0xE0 SHL DUP2 MSTORE PUSH1 0x4 ADD PUSH1 0x20 PUSH1 0x40 MLOAD DUP1 DUP4 SUB DUP2 PUSH0 DUP8 GAS CALL ISZERO DUP1 ISZERO PUSH2 0x1EDA JUMPI RETURNDATASIZE PUSH0 PUSH0 RETURNDATACOPY RETURNDATASIZE PUSH0 REVERT JUMPDEST POP POP POP POP PUSH1 0x40 MLOAD RETURNDATASIZE PUSH1 0x1F NOT PUSH1 0x1F DUP3 ADD AND DUP3 ADD DUP1 PUSH1 0x40 MSTORE POP DUP2 ADD SWAP1 PUSH2 0x1EFE SWAP2 SWAP1 PUSH2 0x2C9C JUMP JUMPDEST PUSH1 0x1 PUSH1 0x1 PUSH1 0xA0 SHL SUB AND PUSH4 0xA4566950 PUSH1 0x40 MLOAD DUP2 PUSH4 0xFFFFFFFF AND PUSH1 0xE0 SHL DUP2 MSTORE PUSH1 0x4 ADD PUSH2 0x300 PUSH1 0x40 MLOAD DUP1 DUP4 SUB DUP2 PUSH0 DUP8 GAS CALL ISZERO DUP1 ISZERO PUSH2 0x1F3B JUMPI RETURNDATASIZE PUSH0 PUSH0 RETURNDATACOPY RETURNDATASIZE PUSH0 REVERT JUMPDEST POP POP POP POP PUSH1 0x40 MLOAD RETURNDATASIZE PUSH1 0x1F NOT PUSH1 0x1F DUP3 ADD AND DUP3 ADD DUP1 PUSH1 0x40 MSTORE POP DUP2 ADD SWAP1 PUSH2 0x1F5F SWAP2 SWAP1 PUSH2 0x2D67 JUMP JUMPDEST PUSH1 0x20 ADD MLOAD PUSH1 0xC0 ADD MLOAD PUSH1 0x40 MLOAD PUSH1 0x1 PUSH1 0x1 PUSH1 0xE0 SHL SUB NOT PUSH1 0xE0 DUP6 SWAP1 SHL AND DUP2 MSTORE PUSH1 0x1 PUSH1 0x1 PUSH1 0x40 SHL SUB SWAP3 DUP4 AND PUSH1 0x4 DUP3 ADD MSTORE SWAP2 AND PUSH1 0x24 DUP3 ADD MSTORE PUSH1 0x44 ADD PUSH1 0x40 DUP1 MLOAD DUP1 DUP4 SUB DUP2 PUSH0 DUP8 GAS CALL ISZERO DUP1 ISZERO PUSH2 0x1FB0 JUMPI RETURNDATASIZE PUSH0 PUSH0 RETURNDATACOPY RETURNDATASIZE PUSH0 REVERT JUMPDEST POP POP POP POP PUSH1 0x40 MLOAD RETURNDATASIZE PUSH1 0x1F NOT PUSH1 0x1F DUP3 ADD AND DUP3 ADD DUP1 PUSH1 0x40 MSTORE POP DUP2 ADD SWAP1 PUSH2 0x1FD4 SWAP2 SWAP1 PUSH2 0x30F3 JUMP JUMPDEST PUSH1 0x20 DUP6 ADD MLOAD PUSH1 0x1 PUSH1 0x1 PUSH1 0x40 SHL SUB SWAP2 DUP3 AND PUSH1 0xE0 DUP3 ADD MSTORE SWAP2 AND PUSH1 0xC0 SWAP1 SWAP2 ADD MSTORE DUP3 MLOAD PUSH2 0x1FFC SWAP1 PUSH2 0xFC2 JUMP JUMPDEST PUSH1 0x20 DUP6 ADD DUP1 MLOAD PUSH1 0x1 PUSH1 0x1 PUSH1 0x40 SHL SUB SWAP3 DUP4 AND PUSH1 0xE0 DUP1 DUP4 ADD SWAP2 SWAP1 SWAP2 MSTORE SWAP4 DUP4 AND PUSH1 0xC0 SWAP1 SWAP2 ADD MSTORE PUSH1 0xA SLOAD DUP7 MLOAD SWAP2 MLOAD SWAP1 SWAP4 ADD MLOAD PUSH1 0x40 MLOAD PUSH4 0xEEDF25F PUSH1 0xE4 SHL DUP2 MSTORE SWAP2 DUP4 AND PUSH1 0x4 DUP4 ADD MSTORE SWAP1 SWAP2 AND PUSH1 0x24 DUP3 ADD MSTORE PUSH1 0x1 PUSH1 0x1 PUSH1 0xA0 SHL SUB SWAP1 SWAP2 AND SWAP1 PUSH4 0xEEDF25F0 SWAP1 PUSH1 0x44 ADD PUSH1 0x40 DUP1 MLOAD DUP1 DUP4 SUB DUP2 PUSH0 DUP8 GAS CALL ISZERO DUP1 ISZERO PUSH2 0x2077 JUMPI RETURNDATASIZE PUSH0 PUSH0 RETURNDATACOPY RETURNDATASIZE PUSH0 REVERT JUMPDEST POP POP POP POP PUSH1 0x40 MLOAD RETURNDATASIZE PUSH1 0x1F NOT PUSH1 0x1F DUP3 ADD AND DUP3 ADD DUP1 PUSH1 0x40 MSTORE POP DUP2 ADD SWAP1 PUSH2 0x209B SWAP2 SWAP1 PUSH2 0x30F3 JUMP JUMPDEST PUSH1 0x20 SWAP1 SWAP5 ADD DUP1 MLOAD PUSH1 0x1 PUSH1 0x1 PUSH1 0x40 SHL SUB SWAP6 DUP7 AND PUSH1 0xE0 DUP1 DUP4 ADD SWAP2 SWAP1 SWAP2 MSTORE SWAP3 SWAP1 SWAP6 AND PUSH1 0xC0 SWAP6 DUP7 ADD MSTORE MLOAD SWAP4 DUP5 ADD MLOAD SWAP4 ADD MLOAD SWAP3 SWAP4 SWAP2 POP POP JUMP JUMPDEST PUSH0 PUSH2 0x20D8 PUSH2 0x24DA JUMP JUMPDEST PUSH1 0x6 PUSH0 SWAP1 SLOAD SWAP1 PUSH2 0x100 EXP SWAP1 DIV PUSH1 0x1 PUSH1 0x1 PUSH1 0xA0 SHL SUB AND PUSH1 0x1 PUSH1 0x1 PUSH1 0xA0 SHL SUB AND PUSH4 0x53DF6E35 DUP4 PUSH1 0x80 ADD MLOAD PUSH1 0x1 PUSH1 0x1 PUSH1 0xA0 SHL SUB AND PUSH4 0xA4566950 PUSH1 0x40 MLOAD DUP2 PUSH4 0xFFFFFFFF AND PUSH1 0xE0 SHL DUP2 MSTORE PUSH1 0x4 ADD PUSH1 0x60 PUSH1 0x40 MLOAD DUP1 DUP4 SUB DUP2 DUP7 GAS STATICCALL ISZERO DUP1 ISZERO PUSH2 0x213B JUMPI RETURNDATASIZE PUSH0 PUSH0 RETURNDATACOPY RETURNDATASIZE PUSH0 REVERT JUMPDEST POP POP POP POP PUSH1 0x40 MLOAD RETURNDATASIZE PUSH1 0x1F NOT PUSH1 0x1F DUP3 ADD AND DUP3 ADD DUP1 PUSH1 0x40 MSTORE POP DUP2 ADD SWAP1 PUSH2 0x215F SWAP2 SWAP1 PUSH2 0x3248 JUMP JUMPDEST PUSH1 0x20 ADD MLOAD PUSH1 0x1 PUSH1 0x1 PUSH1 0xA0 SHL SUB AND PUSH4 0x1686F265 PUSH1 0x40 MLOAD DUP2 PUSH4 0xFFFFFFFF AND PUSH1 0xE0 SHL DUP2 MSTORE PUSH1 0x4 ADD PUSH2 0x1A0 PUSH1 0x40 MLOAD DUP1 DUP4 SUB DUP2 PUSH0 DUP8 GAS CALL ISZERO DUP1 ISZERO PUSH2 0x21A0 JUMPI RETURNDATASIZE PUSH0 PUSH0 RETURNDATACOPY RETURNDATASIZE PUSH0 REVERT JUMPDEST POP POP POP POP PUSH1 0x40 MLOAD RETURNDATASIZE PUSH1 0x1F NOT PUSH1 0x1F DUP3 ADD AND DUP3 ADD DUP1 PUSH1 0x40 MSTORE POP DUP2 ADD SWAP1 PUSH2 0x21C4 SWAP2 SWAP1 PUSH2 0x2FF0 JUMP JUMPDEST PUSH2 0x160 ADD MLOAD DUP5 PUSH1 0x80 ADD MLOAD PUSH1 0x1 PUSH1 0x1 PUSH1 0xA0 SHL SUB AND PUSH4 0xA4566950 PUSH1 0x40 MLOAD DUP2 PUSH4 0xFFFFFFFF AND PUSH1 0xE0 SHL DUP2 MSTORE PUSH1 0x4 ADD PUSH1 0x60 PUSH1 0x40 MLOAD DUP1 DUP4 SUB DUP2 DUP7 GAS STATICCALL ISZERO DUP1 ISZERO PUSH2 0x2209 JUMPI RETURNDATASIZE PUSH0 PUSH0 RETURNDATACOPY RETURNDATASIZE PUSH0 REVERT JUMPDEST POP POP POP POP PUSH1 0x40 MLOAD RETURNDATASIZE PUSH1 0x1F NOT PUSH1 0x1F DUP3 ADD AND DUP3 ADD DUP1 PUSH1 0x40 MSTORE POP DUP2 ADD SWAP1 PUSH2 0x222D SWAP2 SWAP1 PUSH2 0x3248 JUMP JUMPDEST PUSH0 ADD MLOAD PUSH1 0x1 PUSH1 0x1 PUSH1 0xA0 SHL SUB AND PUSH4 0x1686F265 PUSH1 0x40 MLOAD DUP2 PUSH4 0xFFFFFFFF AND PUSH1 0xE0 SHL DUP2 MSTORE PUSH1 0x4 ADD PUSH2 0x1A0 PUSH1 0x40 MLOAD DUP1 DUP4 SUB DUP2 PUSH0 DUP8 GAS CALL ISZERO DUP1 ISZERO PUSH2 0x226D JUMPI RETURNDATASIZE PUSH0 PUSH0 RETURNDATACOPY RETURNDATASIZE PUSH0 REVERT JUMPDEST POP POP POP POP PUSH1 0x40 MLOAD RETURNDATASIZE PUSH1 0x1F NOT PUSH1 0x1F DUP3 ADD AND DUP3 ADD DUP1 PUSH1 0x40 MSTORE POP DUP2 ADD SWAP1 PUSH2 0x2291 SWAP2 SWAP1 PUSH2 0x2FF0 JUMP JUMPDEST PUSH2 0x160 ADD MLOAD PUSH1 0x40 MLOAD PUSH1 0x1 PUSH1 0x1 PUSH1 0xE0 SHL SUB NOT PUSH1 0xE0 DUP6 SWAP1 SHL AND DUP2 MSTORE PUSH1 0x1 PUSH1 0x1 PUSH1 0x40 SHL SUB SWAP3 DUP4 AND PUSH1 0x4 DUP3 ADD MSTORE SWAP2 AND PUSH1 0x24 DUP3 ADD MSTORE PUSH7 0x3632C8EB5AF3B PUSH1 0x44 DUP3 ADD MSTORE PUSH1 0x64 ADD PUSH1 0x20 PUSH1 0x40 MLOAD DUP1 DUP4 SUB DUP2 PUSH0 DUP8 GAS CALL ISZERO DUP1 ISZERO PUSH2 0x22ED JUMPI RETURNDATASIZE PUSH0 PUSH0 RETURNDATACOPY RETURNDATASIZE PUSH0 REVERT JUMPDEST POP POP POP POP PUSH1 0x40 MLOAD RETURNDATASIZE PUSH1 0x1F NOT PUSH1 0x1F DUP3 ADD AND DUP3 ADD DUP1 PUSH1 0x40 MSTORE POP DUP2 ADD SWAP1 PUSH2 0x61E SWAP2 SWAP1 PUSH2 0x2FD5 JUMP JUMPDEST PUSH2 0x2319 PUSH2 0x2447 JUMP JUMPDEST PUSH2 0x2321 PUSH2 0x24DA JUMP JUMPDEST JUMP JUMPDEST PUSH0 PUSH0 PUSH2 0x232D PUSH2 0x24DA JUMP JUMPDEST DUP4 PUSH1 0x1 PUSH1 0x1 PUSH1 0xA0 SHL SUB AND PUSH4 0x4970204F PUSH1 0x40 MLOAD DUP2 PUSH4 0xFFFFFFFF AND PUSH1 0xE0 SHL DUP2 MSTORE PUSH1 0x4 ADD PUSH1 0x20 PUSH1 0x40 MLOAD DUP1 DUP4 SUB DUP2 DUP7 GAS STATICCALL ISZERO DUP1 ISZERO PUSH2 0x2369 JUMPI RETURNDATASIZE PUSH0 PUSH0 RETURNDATACOPY RETURNDATASIZE PUSH0 REVERT JUMPDEST POP POP POP POP PUSH1 0x40 MLOAD RETURNDATASIZE PUSH1 0x1F NOT PUSH1 0x1F DUP3 ADD AND DUP3 ADD DUP1 PUSH1 0x40 MSTORE POP DUP2 ADD SWAP1 PUSH2 0x238D SWAP2 SWAP1 PUSH2 0x2C9C JUMP JUMPDEST PUSH1 0x1 PUSH1 0x1 PUSH1 0xA0 SHL SUB AND PUSH4 0xF302D97F DUP5 DUP7 PUSH1 0x1 PUSH1 0x1 PUSH1 0xA0 SHL SUB AND PUSH4 0x25A28A8F PUSH1 0x40 MLOAD DUP2 PUSH4 0xFFFFFFFF AND PUSH1 0xE0 SHL DUP2 MSTORE PUSH1 0x4 ADD PUSH1 0x20 PUSH1 0x40 MLOAD DUP1 DUP4 SUB DUP2 DUP7 GAS STATICCALL ISZERO DUP1 ISZERO PUSH2 0x1328 JUMPI RETURNDATASIZE PUSH0 PUSH0 RETURNDATACOPY RETURNDATASIZE PUSH0 REVERT JUMPDEST PUSH2 0x15D7 DUP4 DUP4 DUP4 PUSH1 0x1 PUSH2 0x251C JUMP JUMPDEST PUSH0 PUSH2 0x23F0 DUP5 DUP5 PUSH2 0x1B69 JUMP JUMPDEST SWAP1 POP PUSH0 NOT DUP2 EQ PUSH2 0x2436 JUMPI DUP2 DUP2 LT ISZERO PUSH2 0x2428 JUMPI ORIGIN CALLER DUP6 DUP6 ADDRESS DUP6 DUP8 PUSH1 0x40 MLOAD PUSH3 0xB83D19 PUSH1 0xE2 SHL DUP2 MSTORE PUSH1 0x4 ADD PUSH2 0x806 SWAP8 SWAP7 SWAP6 SWAP5 SWAP4 SWAP3 SWAP2 SWAP1 PUSH2 0x3290 JUMP JUMPDEST PUSH2 0x2436 DUP5 DUP5 DUP5 DUP5 SUB PUSH0 PUSH2 0x251C JUMP JUMPDEST POP POP POP POP JUMP JUMPDEST PUSH2 0x15D7 DUP4 DUP4 DUP4 PUSH2 0x259C JUMP JUMPDEST PUSH2 0x2450 CALLER PUSH2 0x1114 JUMP JUMPDEST ISZERO DUP1 ISZERO PUSH2 0x2463 JUMPI POP PUSH2 0x2461 ORIGIN PUSH2 0x1114 JUMP JUMPDEST ISZERO JUMPDEST ISZERO PUSH2 0x2321 JUMPI ORIGIN CALLER ADDRESS PUSH1 0x40 MLOAD PUSH4 0xBE6BAB5 PUSH1 0xE0 SHL DUP2 MSTORE PUSH1 0x4 ADD PUSH2 0x806 SWAP4 SWAP3 SWAP2 SWAP1 PUSH2 0x3120 JUMP JUMPDEST PUSH1 0x1 PUSH1 0x1 PUSH1 0xA0 SHL SUB DUP3 AND PUSH0 DUP2 DUP2 MSTORE PUSH1 0x20 DUP2 SWAP1 MSTORE PUSH1 0x40 DUP1 DUP3 KECCAK256 DUP1 SLOAD PUSH1 0xFF NOT AND DUP6 ISZERO ISZERO SWAP1 DUP2 OR SWAP1 SWAP2 SSTORE SWAP1 MLOAD SWAP1 SWAP3 SWAP2 PUSH32 0x6BFA7E860C3E9BF67B810CB88276B19B27C972812BAC04793D369B59A1183A83 SWAP2 LOG3 POP POP JUMP JUMPDEST PUSH2 0x24E6 PUSH1 0x12 PUSH1 0xA PUSH2 0x2EAA JUMP JUMPDEST PUSH1 0x7 SLOAD PUSH2 0x24F3 SWAP2 SWAP1 PUSH2 0x2EB8 JUMP JUMPDEST PUSH1 0x3 SLOAD LT ISZERO PUSH2 0x2321 JUMPI PUSH2 0x2321 ADDRESS PUSH2 0x250C PUSH1 0x12 PUSH1 0xA PUSH2 0x2EAA JUMP JUMPDEST PUSH2 0x2517 SWAP1 PUSH1 0x1 PUSH2 0x2EB8 JUMP JUMPDEST PUSH2 0x26B7 JUMP JUMPDEST PUSH1 0x1 PUSH1 0x1 PUSH1 0xA0 SHL SUB DUP1 DUP6 AND PUSH0 SWAP1 DUP2 MSTORE PUSH1 0x2 PUSH1 0x20 SWAP1 DUP2 MSTORE PUSH1 0x40 DUP1 DUP4 KECCAK256 SWAP4 DUP8 AND DUP4 MSTORE SWAP3 SWAP1 MSTORE KECCAK256 DUP3 SWAP1 SSTORE DUP1 ISZERO PUSH2 0x2436 JUMPI DUP3 PUSH1 0x1 PUSH1 0x1 PUSH1 0xA0 SHL SUB AND DUP5 PUSH1 0x1 PUSH1 0x1 PUSH1 0xA0 SHL SUB AND PUSH32 0x8C5BE1E5EBEC7D5BD14F71427D1E84F3DD0314C0F7B2291E5B200AC8C7C3B925 DUP5 PUSH1 0x40 MLOAD PUSH2 0x258E SWAP2 DUP2 MSTORE PUSH1 0x20 ADD SWAP1 JUMP JUMPDEST PUSH1 0x40 MLOAD DUP1 SWAP2 SUB SWAP1 LOG3 POP POP POP POP JUMP JUMPDEST PUSH1 0x1 PUSH1 0x1 PUSH1 0xA0 SHL SUB DUP4 AND PUSH2 0x25C6 JUMPI DUP1 PUSH1 0x3 PUSH0 DUP3 DUP3 SLOAD PUSH2 0x25BB SWAP2 SWAP1 PUSH2 0x32D3 JUMP JUMPDEST SWAP1 SWAP2 SSTORE POP PUSH2 0x262B SWAP1 POP JUMP JUMPDEST PUSH1 0x1 PUSH1 0x1 PUSH1 0xA0 SHL SUB DUP4 AND PUSH0 SWAP1 DUP2 MSTORE PUSH1 0x1 PUSH1 0x20 MSTORE PUSH1 0x40 SWAP1 KECCAK256 SLOAD DUP2 DUP2 LT ISZERO PUSH2 0x260D JUMPI ORIGIN CALLER DUP6 DUP6 ADDRESS DUP6 DUP8 PUSH1 0x40 MLOAD PUSH4 0xF7D0BBD PUSH1 0xE2 SHL DUP2 MSTORE PUSH1 0x4 ADD PUSH2 0x806 SWAP8 SWAP7 SWAP6 SWAP5 SWAP4 SWAP3 SWAP2 SWAP1 PUSH2 0x3290 JUMP JUMPDEST PUSH1 0x1 PUSH1 0x1 PUSH1 0xA0 SHL SUB DUP5 AND PUSH0 SWAP1 DUP2 MSTORE PUSH1 0x1 PUSH1 0x20 MSTORE PUSH1 0x40 SWAP1 KECCAK256 SWAP1 DUP3 SWAP1 SUB SWAP1 SSTORE JUMPDEST PUSH1 0x1 PUSH1 0x1 PUSH1 0xA0 SHL SUB DUP3 AND PUSH2 0x2647 JUMPI PUSH1 0x3 DUP1 SLOAD DUP3 SWAP1 SUB SWAP1 SSTORE PUSH2 0x2665 JUMP JUMPDEST PUSH1 0x1 PUSH1 0x1 PUSH1 0xA0 SHL SUB DUP3 AND PUSH0 SWAP1 DUP2 MSTORE PUSH1 0x1 PUSH1 0x20 MSTORE PUSH1 0x40 SWAP1 KECCAK256 DUP1 SLOAD DUP3 ADD SWAP1 SSTORE JUMPDEST DUP2 PUSH1 0x1 PUSH1 0x1 PUSH1 0xA0 SHL SUB AND DUP4 PUSH1 0x1 PUSH1 0x1 PUSH1 0xA0 SHL SUB AND PUSH32 0xDDF252AD1BE2C89B69C2B068FC378DAA952BA7F163C4A11628F55A4DF523B3EF DUP4 PUSH1 0x40 MLOAD PUSH2 0x26AA SWAP2 DUP2 MSTORE PUSH1 0x20 ADD SWAP1 JUMP JUMPDEST PUSH1 0x40 MLOAD DUP1 SWAP2 SUB SWAP1 LOG3 POP POP POP JUMP JUMPDEST PUSH2 0x26C2 PUSH0 DUP4 DUP4 PUSH2 0x259C JUMP JUMPDEST POP POP JUMP JUMPDEST PUSH1 0x20 DUP2 MSTORE PUSH0 DUP3 MLOAD DUP1 PUSH1 0x20 DUP5 ADD MSTORE DUP1 PUSH1 0x20 DUP6 ADD PUSH1 0x40 DUP6 ADD MCOPY PUSH0 PUSH1 0x40 DUP3 DUP6 ADD ADD MSTORE PUSH1 0x40 PUSH1 0x1F NOT PUSH1 0x1F DUP4 ADD AND DUP5 ADD ADD SWAP2 POP POP SWAP3 SWAP2 POP POP JUMP JUMPDEST PUSH1 0x1 PUSH1 0x1 PUSH1 0xA0 SHL SUB DUP2 AND DUP2 EQ PUSH2 0xCD8 JUMPI PUSH0 PUSH0 REVERT JUMPDEST PUSH0 PUSH0 PUSH1 0x40 DUP4 DUP6 SUB SLT ISZERO PUSH2 0x2720 JUMPI PUSH0 PUSH0 REVERT JUMPDEST DUP3 CALLDATALOAD PUSH2 0x272B DUP2 PUSH2 0x26FB JUMP JUMPDEST SWAP5 PUSH1 0x20 SWAP4 SWAP1 SWAP4 ADD CALLDATALOAD SWAP4 POP POP POP JUMP JUMPDEST PUSH4 0x4E487B71 PUSH1 0xE0 SHL PUSH0 MSTORE PUSH1 0x41 PUSH1 0x4 MSTORE PUSH1 0x24 PUSH0 REVERT JUMPDEST PUSH1 0x40 MLOAD PUSH2 0x100 DUP2 ADD PUSH1 0x1 PUSH1 0x1 PUSH1 0x40 SHL SUB DUP2 GT DUP3 DUP3 LT OR ISZERO PUSH2 0x2770 JUMPI PUSH2 0x2770 PUSH2 0x2739 JUMP JUMPDEST PUSH1 0x40 MSTORE SWAP1 JUMP JUMPDEST PUSH1 0x40 MLOAD PUSH1 0x60 DUP2 ADD PUSH1 0x1 PUSH1 0x1 PUSH1 0x40 SHL SUB DUP2 GT DUP3 DUP3 LT OR ISZERO PUSH2 0x2770 JUMPI PUSH2 0x2770 PUSH2 0x2739 JUMP JUMPDEST PUSH1 0x40 MLOAD PUSH1 0x80 DUP2 ADD PUSH1 0x1 PUSH1 0x1 PUSH1 0x40 SHL SUB DUP2 GT DUP3 DUP3 LT OR ISZERO PUSH2 0x2770 JUMPI PUSH2 0x2770 PUSH2 0x2739 JUMP JUMPDEST PUSH1 0x40 MLOAD PUSH2 0x1A0 DUP2 ADD PUSH1 0x1 PUSH1 0x1 PUSH1 0x40 SHL SUB DUP2 GT DUP3 DUP3 LT OR ISZERO PUSH2 0x2770 JUMPI PUSH2 0x2770 PUSH2 0x2739 JUMP JUMPDEST PUSH1 0x40 MLOAD PUSH1 0x1F DUP3 ADD PUSH1 0x1F NOT AND DUP2 ADD PUSH1 0x1 PUSH1 0x1 PUSH1 0x40 SHL SUB DUP2 GT DUP3 DUP3 LT OR ISZERO PUSH2 0x2805 JUMPI PUSH2 0x2805 PUSH2 0x2739 JUMP JUMPDEST PUSH1 0x40 MSTORE SWAP2 SWAP1 POP JUMP JUMPDEST DUP1 CALLDATALOAD PUSH2 0x2818 DUP2 PUSH2 0x26FB JUMP JUMPDEST SWAP2 SWAP1 POP JUMP JUMPDEST PUSH1 0x1 PUSH1 0x1 PUSH1 0x40 SHL SUB DUP2 AND DUP2 EQ PUSH2 0xCD8 JUMPI PUSH0 PUSH0 REVERT JUMPDEST DUP1 CALLDATALOAD PUSH2 0x2818 DUP2 PUSH2 0x281D JUMP JUMPDEST PUSH0 PUSH2 0x100 DUP3 DUP5 SUB SLT ISZERO PUSH2 0x284D JUMPI PUSH0 PUSH0 REVERT JUMPDEST PUSH2 0x2855 PUSH2 0x274D JUMP JUMPDEST SWAP1 POP DUP2 CALLDATALOAD PUSH2 0x2862 DUP2 PUSH2 0x26FB JUMP JUMPDEST DUP2 MSTORE PUSH2 0x2870 PUSH1 0x20 DUP4 ADD PUSH2 0x280D JUMP JUMPDEST PUSH1 0x20 DUP3 ADD MSTORE PUSH2 0x2881 PUSH1 0x40 DUP4 ADD PUSH2 0x2831 JUMP JUMPDEST PUSH1 0x40 DUP3 ADD MSTORE PUSH2 0x2892 PUSH1 0x60 DUP4 ADD PUSH2 0x2831 JUMP JUMPDEST PUSH1 0x60 DUP3 ADD MSTORE PUSH2 0x28A3 PUSH1 0x80 DUP4 ADD PUSH2 0x280D JUMP JUMPDEST PUSH1 0x80 DUP3 ADD MSTORE PUSH2 0x28B4 PUSH1 0xA0 DUP4 ADD PUSH2 0x2831 JUMP JUMPDEST PUSH1 0xA0 DUP3 ADD MSTORE PUSH2 0x28C5 PUSH1 0xC0 DUP4 ADD PUSH2 0x2831 JUMP JUMPDEST PUSH1 0xC0 DUP3 ADD MSTORE PUSH2 0x28D6 PUSH1 0xE0 DUP4 ADD PUSH2 0x2831 JUMP JUMPDEST PUSH1 0xE0 DUP3 ADD MSTORE SWAP3 SWAP2 POP POP JUMP JUMPDEST PUSH0 PUSH0 PUSH2 0x160 DUP4 DUP6 SUB SLT ISZERO PUSH2 0x28F3 JUMPI PUSH0 PUSH0 REVERT JUMPDEST PUSH2 0x28FD DUP5 DUP5 PUSH2 0x283C JUMP JUMPDEST SWAP2 POP DUP4 PUSH2 0x11F DUP5 ADD SLT PUSH2 0x290E JUMPI PUSH0 PUSH0 REVERT JUMPDEST PUSH2 0x2916 PUSH2 0x2776 JUMP JUMPDEST DUP1 PUSH2 0x160 DUP6 ADD DUP7 DUP2 GT ISZERO PUSH2 0x2928 JUMPI PUSH0 PUSH0 REVERT JUMPDEST PUSH2 0x100 DUP7 ADD JUMPDEST DUP2 DUP2 LT ISZERO PUSH2 0x294F JUMPI DUP1 CALLDATALOAD PUSH2 0x2941 DUP2 PUSH2 0x281D JUMP JUMPDEST DUP5 MSTORE PUSH1 0x20 SWAP4 DUP5 ADD SWAP4 ADD PUSH2 0x292E JUMP JUMPDEST POP SWAP4 SWAP7 SWAP1 SWAP6 POP SWAP4 POP POP POP POP JUMP JUMPDEST PUSH0 PUSH0 PUSH0 PUSH1 0x60 DUP5 DUP7 SUB SLT ISZERO PUSH2 0x296E JUMPI PUSH0 PUSH0 REVERT JUMPDEST DUP4 CALLDATALOAD PUSH2 0x2979 DUP2 PUSH2 0x26FB JUMP JUMPDEST SWAP3 POP PUSH1 0x20 DUP5 ADD CALLDATALOAD PUSH2 0x2989 DUP2 PUSH2 0x26FB JUMP JUMPDEST SWAP3 SWAP6 SWAP3 SWAP5 POP POP POP PUSH1 0x40 SWAP2 SWAP1 SWAP2 ADD CALLDATALOAD SWAP1 JUMP JUMPDEST PUSH0 PUSH1 0x20 DUP3 DUP5 SUB SLT ISZERO PUSH2 0x29AA JUMPI PUSH0 PUSH0 REVERT JUMPDEST DUP2 CALLDATALOAD PUSH2 0x29B5 DUP2 PUSH2 0x26FB JUMP JUMPDEST SWAP4 SWAP3 POP POP POP JUMP JUMPDEST PUSH0 PUSH0 PUSH2 0x120 DUP4 DUP6 SUB SLT ISZERO PUSH2 0x29CE JUMPI PUSH0 PUSH0 REVERT JUMPDEST PUSH2 0x29D8 DUP5 DUP5 PUSH2 0x283C JUMP JUMPDEST SWAP2 POP PUSH2 0x100 DUP4 ADD CALLDATALOAD PUSH2 0x29E9 DUP2 PUSH2 0x281D JUMP JUMPDEST DUP1 SWAP2 POP POP SWAP3 POP SWAP3 SWAP1 POP JUMP JUMPDEST PUSH0 PUSH2 0x100 DUP3 DUP5 SUB SLT ISZERO PUSH2 0x2A05 JUMPI PUSH0 PUSH0 REVERT JUMPDEST PUSH2 0x29B5 DUP4 DUP4 PUSH2 0x283C JUMP JUMPDEST PUSH0 PUSH1 0x20 DUP3 DUP5 SUB SLT ISZERO PUSH2 0x2A1F JUMPI PUSH0 PUSH0 REVERT JUMPDEST DUP2 CALLDATALOAD PUSH2 0x29B5 DUP2 PUSH2 0x281D JUMP JUMPDEST PUSH0 PUSH0 PUSH1 0x40 DUP4 DUP6 SUB SLT ISZERO PUSH2 0x2A3B JUMPI PUSH0 PUSH0 REVERT JUMPDEST DUP3 CALLDATALOAD PUSH2 0x2A46 DUP2 PUSH2 0x26FB JUMP JUMPDEST SWAP2 POP PUSH1 0x20 DUP4 ADD CALLDATALOAD PUSH2 0x29E9 DUP2 PUSH2 0x281D JUMP JUMPDEST PUSH1 0x1 PUSH1 0x1 PUSH1 0xA0 SHL SUB SWAP2 SWAP1 SWAP2 AND DUP2 MSTORE PUSH1 0x20 ADD SWAP1 JUMP JUMPDEST PUSH0 PUSH1 0x1 PUSH1 0x1 PUSH1 0x40 SHL SUB DUP3 GT ISZERO PUSH2 0x2A82 JUMPI PUSH2 0x2A82 PUSH2 0x2739 JUMP JUMPDEST POP PUSH1 0x1F ADD PUSH1 0x1F NOT AND PUSH1 0x20 ADD SWAP1 JUMP JUMPDEST PUSH0 DUP3 PUSH1 0x1F DUP4 ADD SLT PUSH2 0x2A9F JUMPI PUSH0 PUSH0 REVERT JUMPDEST DUP2 CALLDATALOAD PUSH2 0x2AB2 PUSH2 0x2AAD DUP3 PUSH2 0x2A6A JUMP JUMPDEST PUSH2 0x27DD JUMP JUMPDEST DUP2 DUP2 MSTORE DUP5 PUSH1 0x20 DUP4 DUP7 ADD ADD GT ISZERO PUSH2 0x2AC6 JUMPI PUSH0 PUSH0 REVERT JUMPDEST DUP2 PUSH1 0x20 DUP6 ADD PUSH1 0x20 DUP4 ADD CALLDATACOPY PUSH0 SWAP2 DUP2 ADD PUSH1 0x20 ADD SWAP2 SWAP1 SWAP2 MSTORE SWAP4 SWAP3 POP POP POP JUMP JUMPDEST PUSH0 PUSH0 PUSH1 0x40 DUP4 DUP6 SUB SLT ISZERO PUSH2 0x2AF3 JUMPI PUSH0 PUSH0 REVERT JUMPDEST DUP3 CALLDATALOAD PUSH1 0x1 PUSH1 0x1 PUSH1 0x40 SHL SUB DUP2 GT ISZERO PUSH2 0x2B08 JUMPI PUSH0 PUSH0 REVERT JUMPDEST PUSH2 0x2B14 DUP6 DUP3 DUP7 ADD PUSH2 0x2A90 JUMP JUMPDEST SWAP3 POP POP PUSH1 0x20 DUP4 ADD CALLDATALOAD PUSH1 0x1 PUSH1 0x1 PUSH1 0x40 SHL SUB DUP2 GT ISZERO PUSH2 0x2B2F JUMPI PUSH0 PUSH0 REVERT JUMPDEST PUSH2 0x2B3B DUP6 DUP3 DUP7 ADD PUSH2 0x2A90 JUMP JUMPDEST SWAP2 POP POP SWAP3 POP SWAP3 SWAP1 POP JUMP JUMPDEST PUSH0 PUSH0 PUSH0 PUSH2 0x140 DUP5 DUP7 SUB SLT ISZERO PUSH2 0x2B58 JUMPI PUSH0 PUSH0 REVERT JUMPDEST PUSH2 0x2B62 DUP6 DUP6 PUSH2 0x283C JUMP JUMPDEST SWAP3 POP PUSH2 0x100 DUP5 ADD CALLDATALOAD PUSH2 0x2B73 DUP2 PUSH2 0x281D JUMP JUMPDEST SWAP2 POP PUSH2 0x120 DUP5 ADD CALLDATALOAD PUSH2 0x2B84 DUP2 PUSH2 0x281D JUMP JUMPDEST DUP1 SWAP2 POP POP SWAP3 POP SWAP3 POP SWAP3 JUMP JUMPDEST PUSH0 PUSH0 PUSH1 0x40 DUP4 DUP6 SUB SLT ISZERO PUSH2 0x2BA0 JUMPI PUSH0 PUSH0 REVERT JUMPDEST DUP3 CALLDATALOAD PUSH2 0x2BAB DUP2 PUSH2 0x26FB JUMP JUMPDEST SWAP2 POP PUSH1 0x20 DUP4 ADD CALLDATALOAD PUSH2 0x29E9 DUP2 PUSH2 0x26FB JUMP JUMPDEST PUSH0 PUSH1 0x20 DUP3 DUP5 SUB SLT ISZERO PUSH2 0x2BCB JUMPI PUSH0 PUSH0 REVERT JUMPDEST DUP2 CALLDATALOAD PUSH1 0x1 PUSH1 0x1 PUSH1 0x40 SHL SUB DUP2 GT ISZERO PUSH2 0x2BE0 JUMPI PUSH0 PUSH0 REVERT JUMPDEST DUP3 ADD PUSH2 0x160 DUP2 DUP6 SUB SLT ISZERO PUSH2 0x2BF2 JUMPI PUSH0 PUSH0 REVERT JUMPDEST PUSH2 0x2BFA PUSH2 0x2798 JUMP JUMPDEST DUP2 CALLDATALOAD PUSH2 0x2C05 DUP2 PUSH2 0x281D JUMP JUMPDEST DUP2 MSTORE PUSH2 0x2C14 DUP6 PUSH1 0x20 DUP5 ADD PUSH2 0x283C JUMP JUMPDEST PUSH1 0x20 DUP3 ADD MSTORE PUSH2 0x120 DUP3 ADD CALLDATALOAD PUSH1 0x1 PUSH1 0x1 PUSH1 0x40 SHL SUB DUP2 GT ISZERO PUSH2 0x2C32 JUMPI PUSH0 PUSH0 REVERT JUMPDEST PUSH2 0x2C3E DUP7 DUP3 DUP6 ADD PUSH2 0x2A90 JUMP JUMPDEST PUSH1 0x40 DUP4 ADD MSTORE POP PUSH2 0x140 DUP3 ADD CALLDATALOAD SWAP2 POP PUSH2 0x2C55 DUP3 PUSH2 0x281D JUMP JUMPDEST PUSH1 0x60 DUP2 ADD SWAP2 SWAP1 SWAP2 MSTORE SWAP4 SWAP3 POP POP POP JUMP JUMPDEST PUSH1 0x1 DUP2 DUP2 SHR SWAP1 DUP3 AND DUP1 PUSH2 0x2C78 JUMPI PUSH1 0x7F DUP3 AND SWAP2 POP JUMPDEST PUSH1 0x20 DUP3 LT DUP2 SUB PUSH2 0x2C96 JUMPI PUSH4 0x4E487B71 PUSH1 0xE0 SHL PUSH0 MSTORE PUSH1 0x22 PUSH1 0x4 MSTORE PUSH1 0x24 PUSH0 REVERT JUMPDEST POP SWAP2 SWAP1 POP JUMP JUMPDEST PUSH0 PUSH1 0x20 DUP3 DUP5 SUB SLT ISZERO PUSH2 0x2CAC JUMPI PUSH0 PUSH0 REVERT JUMPDEST DUP2 MLOAD PUSH2 0x29B5 DUP2 PUSH2 0x26FB JUMP JUMPDEST DUP1 MLOAD PUSH2 0x2818 DUP2 PUSH2 0x26FB JUMP JUMPDEST DUP1 MLOAD PUSH2 0x2818 DUP2 PUSH2 0x281D JUMP JUMPDEST PUSH0 PUSH2 0x100 DUP3 DUP5 SUB SLT ISZERO PUSH2 0x2CDE JUMPI PUSH0 PUSH0 REVERT JUMPDEST PUSH2 0x2CE6 PUSH2 0x274D JUMP JUMPDEST SWAP1 POP DUP2 MLOAD PUSH2 0x2CF3 DUP2 PUSH2 0x26FB JUMP JUMPDEST DUP2 MSTORE PUSH2 0x2D01 PUSH1 0x20 DUP4 ADD PUSH2 0x2CB7 JUMP JUMPDEST PUSH1 0x20 DUP3 ADD MSTORE PUSH2 0x2D12 PUSH1 0x40 DUP4 ADD PUSH2 0x2CC2 JUMP JUMPDEST PUSH1 0x40 DUP3 ADD MSTORE PUSH2 0x2D23 PUSH1 0x60 DUP4 ADD PUSH2 0x2CC2 JUMP JUMPDEST PUSH1 0x60 DUP3 ADD MSTORE PUSH2 0x2D34 PUSH1 0x80 DUP4 ADD PUSH2 0x2CB7 JUMP JUMPDEST PUSH1 0x80 DUP3 ADD MSTORE PUSH2 0x2D45 PUSH1 0xA0 DUP4 ADD PUSH2 0x2CC2 JUMP JUMPDEST PUSH1 0xA0 DUP3 ADD MSTORE PUSH2 0x2D56 PUSH1 0xC0 DUP4 ADD PUSH2 0x2CC2 JUMP JUMPDEST PUSH1 0xC0 DUP3 ADD MSTORE PUSH2 0x28D6 PUSH1 0xE0 DUP4 ADD PUSH2 0x2CC2 JUMP JUMPDEST PUSH0 PUSH2 0x300 DUP3 DUP5 SUB SLT DUP1 ISZERO PUSH2 0x2D79 JUMPI PUSH0 PUSH0 REVERT JUMPDEST POP PUSH2 0x2D82 PUSH2 0x2776 JUMP JUMPDEST PUSH2 0x2D8C DUP5 DUP5 PUSH2 0x2CCD JUMP JUMPDEST DUP2 MSTORE PUSH2 0x2D9C DUP5 PUSH2 0x100 DUP6 ADD PUSH2 0x2CCD JUMP JUMPDEST PUSH1 0x20 DUP3 ADD MSTORE PUSH2 0x2DAF DUP5 PUSH2 0x200 DUP6 ADD PUSH2 0x2CCD JUMP JUMPDEST PUSH1 0x40 DUP3 ADD MSTORE SWAP4 SWAP3 POP POP POP JUMP JUMPDEST PUSH4 0x4E487B71 PUSH1 0xE0 SHL PUSH0 MSTORE PUSH1 0x11 PUSH1 0x4 MSTORE PUSH1 0x24 PUSH0 REVERT JUMPDEST PUSH1 0x1 DUP2 JUMPDEST PUSH1 0x1 DUP5 GT ISZERO PUSH2 0x1632 JUMPI DUP1 DUP6 DIV DUP2 GT ISZERO PUSH2 0x2DEE JUMPI PUSH2 0x2DEE PUSH2 0x2DBB JUMP JUMPDEST PUSH1 0x1 DUP5 AND ISZERO PUSH2 0x2DFC JUMPI SWAP1 DUP2 MUL SWAP1 JUMPDEST PUSH1 0x1 SWAP4 SWAP1 SWAP4 SHR SWAP3 DUP1 MUL PUSH2 0x2DD3 JUMP JUMPDEST PUSH0 DUP3 PUSH2 0x2E18 JUMPI POP PUSH1 0x1 PUSH2 0x61E JUMP JUMPDEST DUP2 PUSH2 0x2E24 JUMPI POP PUSH0 PUSH2 0x61E JUMP JUMPDEST DUP2 PUSH1 0x1 DUP2 EQ PUSH2 0x2E3A JUMPI PUSH1 0x2 DUP2 EQ PUSH2 0x2E44 JUMPI PUSH2 0x2E60 JUMP JUMPDEST PUSH1 0x1 SWAP2 POP POP PUSH2 0x61E JUMP JUMPDEST PUSH1 0xFF DUP5 GT ISZERO PUSH2 0x2E55 JUMPI PUSH2 0x2E55 PUSH2 0x2DBB JUMP JUMPDEST POP POP PUSH1 0x1 DUP3 SHL PUSH2 0x61E JUMP JUMPDEST POP PUSH1 0x20 DUP4 LT PUSH2 0x133 DUP4 LT AND PUSH1 0x4E DUP5 LT PUSH1 0xB DUP5 LT AND OR ISZERO PUSH2 0x2E83 JUMPI POP DUP2 DUP2 EXP PUSH2 0x61E JUMP JUMPDEST PUSH2 0x2E8F PUSH0 NOT DUP5 DUP5 PUSH2 0x2DCF JUMP JUMPDEST DUP1 PUSH0 NOT DIV DUP3 GT ISZERO PUSH2 0x2EA2 JUMPI PUSH2 0x2EA2 PUSH2 0x2DBB JUMP JUMPDEST MUL SWAP4 SWAP3 POP POP POP JUMP JUMPDEST PUSH0 PUSH2 0x29B5 PUSH1 0xFF DUP5 AND DUP4 PUSH2 0x2E0A JUMP JUMPDEST DUP1 DUP3 MUL DUP2 ISZERO DUP3 DUP3 DIV DUP5 EQ OR PUSH2 0x61E JUMPI PUSH2 0x61E PUSH2 0x2DBB JUMP JUMPDEST PUSH0 DUP3 PUSH2 0x2EE9 JUMPI PUSH4 0x4E487B71 PUSH1 0xE0 SHL PUSH0 MSTORE PUSH1 0x12 PUSH1 0x4 MSTORE PUSH1 0x24 PUSH0 REVERT JUMPDEST POP DIV SWAP1 JUMP JUMPDEST PUSH1 0x1 PUSH1 0x1 PUSH1 0xA0 SHL SUB SWAP4 DUP5 AND DUP2 MSTORE SWAP2 SWAP1 SWAP3 AND PUSH1 0x20 DUP3 ADD MSTORE PUSH1 0x40 DUP2 ADD SWAP2 SWAP1 SWAP2 MSTORE PUSH1 0x60 ADD SWAP1 JUMP JUMPDEST PUSH0 PUSH1 0x20 DUP3 DUP5 SUB SLT ISZERO PUSH2 0x2F22 JUMPI PUSH0 PUSH0 REVERT JUMPDEST DUP2 MLOAD DUP1 ISZERO ISZERO DUP2 EQ PUSH2 0x29B5 JUMPI PUSH0 PUSH0 REVERT JUMPDEST PUSH0 PUSH1 0x20 DUP3 DUP5 SUB SLT ISZERO PUSH2 0x2F41 JUMPI PUSH0 PUSH0 REVERT JUMPDEST DUP2 MLOAD PUSH1 0x1 PUSH1 0x1 PUSH1 0x40 SHL SUB DUP2 GT ISZERO PUSH2 0x2F56 JUMPI PUSH0 PUSH0 REVERT JUMPDEST DUP3 ADD PUSH1 0x1F DUP2 ADD DUP5 SGT PUSH2 0x2F66 JUMPI PUSH0 PUSH0 REVERT JUMPDEST DUP1 MLOAD PUSH2 0x2F74 PUSH2 0x2AAD DUP3 PUSH2 0x2A6A JUMP JUMPDEST DUP2 DUP2 MSTORE DUP6 PUSH1 0x20 DUP4 DUP6 ADD ADD GT ISZERO PUSH2 0x2F88 JUMPI PUSH0 PUSH0 REVERT JUMPDEST DUP2 PUSH1 0x20 DUP5 ADD PUSH1 0x20 DUP4 ADD MCOPY PUSH0 SWAP2 DUP2 ADD PUSH1 0x20 ADD SWAP2 SWAP1 SWAP2 MSTORE SWAP5 SWAP4 POP POP POP POP JUMP JUMPDEST PUSH14 0x2732B2B21020B8383937BB32B21 PUSH1 0x95 SHL DUP2 MSTORE PUSH0 DUP3 MLOAD DUP1 PUSH1 0x20 DUP6 ADD PUSH1 0xE DUP6 ADD MCOPY PUSH0 SWAP3 ADD PUSH1 0xE ADD SWAP2 DUP3 MSTORE POP SWAP2 SWAP1 POP JUMP JUMPDEST PUSH0 PUSH1 0x20 DUP3 DUP5 SUB SLT ISZERO PUSH2 0x2FE5 JUMPI PUSH0 PUSH0 REVERT JUMPDEST DUP2 MLOAD PUSH2 0x29B5 DUP2 PUSH2 0x281D JUMP JUMPDEST PUSH0 PUSH2 0x1A0 DUP3 DUP5 SUB SLT DUP1 ISZERO PUSH2 0x3002 JUMPI PUSH0 PUSH0 REVERT JUMPDEST POP PUSH2 0x300B PUSH2 0x27BA JUMP JUMPDEST PUSH2 0x3014 DUP4 PUSH2 0x2CC2 JUMP JUMPDEST DUP2 MSTORE PUSH2 0x3022 PUSH1 0x20 DUP5 ADD PUSH2 0x2CC2 JUMP JUMPDEST PUSH1 0x20 DUP3 ADD MSTORE PUSH2 0x3033 PUSH1 0x40 DUP5 ADD PUSH2 0x2CC2 JUMP JUMPDEST PUSH1 0x40 DUP3 ADD MSTORE PUSH2 0x3044 PUSH1 0x60 DUP5 ADD PUSH2 0x2CC2 JUMP JUMPDEST PUSH1 0x60 DUP3 ADD MSTORE PUSH2 0x3055 PUSH1 0x80 DUP5 ADD PUSH2 0x2CC2 JUMP JUMPDEST PUSH1 0x80 DUP3 ADD MSTORE PUSH2 0x3066 PUSH1 0xA0 DUP5 ADD PUSH2 0x2CC2 JUMP JUMPDEST PUSH1 0xA0 DUP3 ADD MSTORE PUSH2 0x3077 PUSH1 0xC0 DUP5 ADD PUSH2 0x2CC2 JUMP JUMPDEST PUSH1 0xC0 DUP3 ADD MSTORE PUSH2 0x3088 PUSH1 0xE0 DUP5 ADD PUSH2 0x2CC2 JUMP JUMPDEST PUSH1 0xE0 DUP3 ADD MSTORE PUSH2 0x309A PUSH2 0x100 DUP5 ADD PUSH2 0x2CC2 JUMP JUMPDEST PUSH2 0x100 DUP3 ADD MSTORE PUSH2 0x30AD PUSH2 0x120 DUP5 ADD PUSH2 0x2CC2 JUMP JUMPDEST PUSH2 0x120 DUP3 ADD MSTORE PUSH2 0x30C0 PUSH2 0x140 DUP5 ADD PUSH2 0x2CC2 JUMP JUMPDEST PUSH2 0x140 DUP3 ADD MSTORE PUSH2 0x30D3 PUSH2 0x160 DUP5 ADD PUSH2 0x2CC2 JUMP JUMPDEST PUSH2 0x160 DUP3 ADD MSTORE PUSH2 0x30E6 PUSH2 0x180 DUP5 ADD PUSH2 0x2CC2 JUMP JUMPDEST PUSH2 0x180 DUP3 ADD MSTORE SWAP4 SWAP3 POP POP POP JUMP JUMPDEST PUSH0 PUSH0 PUSH1 0x40 DUP4 DUP6 SUB SLT ISZERO PUSH2 0x3104 JUMPI PUSH0 PUSH0 REVERT JUMPDEST DUP3 MLOAD PUSH2 0x310F DUP2 PUSH2 0x281D JUMP JUMPDEST PUSH1 0x20 DUP5 ADD MLOAD SWAP1 SWAP3 POP PUSH2 0x29E9 DUP2 PUSH2 0x281D JUMP JUMPDEST PUSH1 0x1 PUSH1 0x1 PUSH1 0xA0 SHL SUB SWAP4 DUP5 AND DUP2 MSTORE SWAP2 DUP4 AND PUSH1 0x20 DUP4 ADD MSTORE SWAP1 SWAP2 AND PUSH1 0x40 DUP3 ADD MSTORE PUSH1 0x60 ADD SWAP1 JUMP JUMPDEST PUSH1 0x1F DUP3 GT ISZERO PUSH2 0x15D7 JUMPI DUP1 PUSH0 MSTORE PUSH1 0x20 PUSH0 KECCAK256 PUSH1 0x1F DUP5 ADD PUSH1 0x5 SHR DUP2 ADD PUSH1 0x20 DUP6 LT ISZERO PUSH2 0x3168 JUMPI POP DUP1 JUMPDEST PUSH1 0x1F DUP5 ADD PUSH1 0x5 SHR DUP3 ADD SWAP2 POP JUMPDEST DUP2 DUP2 LT ISZERO PUSH2 0x3187 JUMPI PUSH0 DUP2 SSTORE PUSH1 0x1 ADD PUSH2 0x3174 JUMP JUMPDEST POP POP POP POP POP JUMP JUMPDEST DUP2 MLOAD PUSH1 0x1 PUSH1 0x1 PUSH1 0x40 SHL SUB DUP2 GT ISZERO PUSH2 0x31A7 JUMPI PUSH2 0x31A7 PUSH2 0x2739 JUMP JUMPDEST PUSH2 0x31BB DUP2 PUSH2 0x31B5 DUP5 SLOAD PUSH2 0x2C64 JUMP JUMPDEST DUP5 PUSH2 0x3143 JUMP JUMPDEST PUSH1 0x20 PUSH1 0x1F DUP3 GT PUSH1 0x1 DUP2 EQ PUSH2 0x31ED JUMPI PUSH0 DUP4 ISZERO PUSH2 0x31D6 JUMPI POP DUP5 DUP3 ADD MLOAD JUMPDEST PUSH0 NOT PUSH1 0x3 DUP6 SWAP1 SHL SHR NOT AND PUSH1 0x1 DUP5 SWAP1 SHL OR DUP5 SSTORE PUSH2 0x3187 JUMP JUMPDEST PUSH0 DUP5 DUP2 MSTORE PUSH1 0x20 DUP2 KECCAK256 PUSH1 0x1F NOT DUP6 AND SWAP2 JUMPDEST DUP3 DUP2 LT ISZERO PUSH2 0x321C JUMPI DUP8 DUP6 ADD MLOAD DUP3 SSTORE PUSH1 0x20 SWAP5 DUP6 ADD SWAP5 PUSH1 0x1 SWAP1 SWAP3 ADD SWAP2 ADD PUSH2 0x31FC JUMP JUMPDEST POP DUP5 DUP3 LT ISZERO PUSH2 0x3239 JUMPI DUP7 DUP5 ADD MLOAD PUSH0 NOT PUSH1 0x3 DUP8 SWAP1 SHL PUSH1 0xF8 AND SHR NOT AND DUP2 SSTORE JUMPDEST POP POP POP POP PUSH1 0x1 SWAP1 DUP2 SHL ADD SWAP1 SSTORE POP JUMP JUMPDEST PUSH0 PUSH1 0x60 DUP3 DUP5 SUB SLT DUP1 ISZERO PUSH2 0x3259 JUMPI PUSH0 PUSH0 REVERT JUMPDEST POP PUSH2 0x3262 PUSH2 0x2776 JUMP JUMPDEST DUP3 MLOAD PUSH2 0x326D DUP2 PUSH2 0x26FB JUMP JUMPDEST DUP2 MSTORE PUSH1 0x20 DUP4 ADD MLOAD PUSH2 0x327D DUP2 PUSH2 0x26FB JUMP JUMPDEST PUSH1 0x20 DUP3 ADD MSTORE PUSH1 0x40 DUP4 ADD MLOAD PUSH2 0x2DAF DUP2 PUSH2 0x281D JUMP JUMPDEST PUSH1 0x1 PUSH1 0x1 PUSH1 0xA0 SHL SUB SWAP8 DUP9 AND DUP2 MSTORE SWAP6 DUP8 AND PUSH1 0x20 DUP8 ADD MSTORE SWAP4 DUP7 AND PUSH1 0x40 DUP7 ADD MSTORE SWAP2 DUP6 AND PUSH1 0x60 DUP6 ADD MSTORE SWAP1 SWAP4 AND PUSH1 0x80 DUP4 ADD MSTORE PUSH1 0xA0 DUP3 ADD SWAP3 SWAP1 SWAP3 MSTORE PUSH1 0xC0 DUP2 ADD SWAP2 SWAP1 SWAP2 MSTORE PUSH1 0xE0 ADD SWAP1 JUMP JUMPDEST DUP1 DUP3 ADD DUP1 DUP3 GT ISZERO PUSH2 0x61E JUMPI PUSH2 0x61E PUSH2 0x2DBB JUMP INVALID LOG2 PUSH5 0x6970667358 0x22 SLT KECCAK256 LOG4 SWAP7 DUP1 DUP7 BLOCKHASH DUP2 0x23 0xCE SWAP5 DUP11 PUSH15 0xD6B2A89FAA2A9DE7D00C569985B630 EXTCODECOPY EXTCODECOPY RETURNDATACOPY PUSH11 0x7AA364736F6C634300081B STOP CALLER "
		},
		"gasEstimates": {
			"creation": {
				"codeDepositCost": "2616800",
				"executionCost": "infinite",
				"totalCost": "infinite"
			},
			"external": {
				"Cho()": "2471",
				"Entropy((address,address,uint64,uint64,address,uint64,uint64,uint64))": "infinite",
				"GetMarketRate(address)": "2706",
				"Initialize((address,address,uint64,uint64,address,uint64,uint64,uint64))": "infinite",
				"MotzkinPrime()": "260",
				"OperatorReact((address,address,uint64,uint64,address,uint64,uint64,uint64),uint64)": "infinite",
				"Purchase(address,uint256)": "infinite",
				"React((address,address,uint64,uint64,address,uint64,uint64,uint64),uint64,uint64)": "infinite",
				"ReactBang(uint64)": "infinite",
				"ReactLai(uint64)": "infinite",
				"ReactLe(uint64)": "infinite",
				"ReactShioCone(address,uint64)": "infinite",
				"ReactShioRod(address,uint64)": "infinite",
				"ReactToBang((address,address,uint64,uint64,address,uint64,uint64,uint64),uint64,uint64)": "infinite",
				"ReactToLai((address,address,uint64,uint64,address,uint64,uint64,uint64),uint64,uint64)": "infinite",
				"ReactToLe((address,address,uint64,uint64,address,uint64,uint64,uint64),uint64,uint64)": "infinite",
				"ReactToNew((address,address,uint64,uint64,address,uint64,uint64,uint64),uint64[3])": "infinite",
				"ReactToTalk((uint64,(address,address,uint64,uint64,address,uint64,uint64,uint64),string,uint64))": "infinite",
				"Redeem(address,uint256)": "infinite",
				"RegisterChoForTalk(address)": "infinite",
				"Rename(string,string)": "infinite",
				"Type()": "infinite",
				"Void()": "2448",
				"Xiao()": "2493",
				"addOwner(address)": "infinite",
				"allowance(address,address)": "infinite",
				"approve(address,uint256)": "24681",
				"balanceOf(address)": "2596",
				"decimals()": "376",
				"maxSupply()": "2361",
				"mintToCap()": "infinite",
				"name()": "infinite",
				"owner()": "347",
				"owner(address)": "2600",
				"renounceOwnership(address)": "infinite",
				"symbol()": "infinite",
				"totalSupply()": "2348",
				"transfer(address,uint256)": "51219",
				"transferFrom(address,address,uint256)": "infinite"
			}
		},
		"methodIdentifiers": {
			"Cho()": "6872fc3c",
			"Entropy((address,address,uint64,uint64,address,uint64,uint64,uint64))": "f0864253",
			"GetMarketRate(address)": "2b83b1fc",
			"Initialize((address,address,uint64,uint64,address,uint64,uint64,uint64))": "459efe9c",
			"MotzkinPrime()": "d3dc2a0f",
			"OperatorReact((address,address,uint64,uint64,address,uint64,uint64,uint64),uint64)": "3161929a",
			"Purchase(address,uint256)": "2499a533",
			"React((address,address,uint64,uint64,address,uint64,uint64,uint64),uint64,uint64)": "a7d21f68",
			"ReactBang(uint64)": "676a8ccc",
			"ReactLai(uint64)": "5b785333",
			"ReactLe(uint64)": "85425f9a",
			"ReactShioCone(address,uint64)": "fc7cd61e",
			"ReactShioRod(address,uint64)": "679b9538",
			"ReactToBang((address,address,uint64,uint64,address,uint64,uint64,uint64),uint64,uint64)": "e5b976d1",
			"ReactToLai((address,address,uint64,uint64,address,uint64,uint64,uint64),uint64,uint64)": "b956aa87",
			"ReactToLe((address,address,uint64,uint64,address,uint64,uint64,uint64),uint64,uint64)": "c4686fc9",
			"ReactToNew((address,address,uint64,uint64,address,uint64,uint64,uint64),uint64[3])": "1d736e6c",
			"ReactToTalk((uint64,(address,address,uint64,uint64,address,uint64,uint64,uint64),string,uint64))": "ecd689ea",
			"Redeem(address,uint256)": "222838db",
			"RegisterChoForTalk(address)": "379aa3cf",
			"Rename(string,string)": "9dcbf7ea",
			"Type()": "ff762044",
			"Void()": "f4f6c22c",
			"Xiao()": "6fb7329c",
			"addOwner(address)": "7065cb48",
			"allowance(address,address)": "dd62ed3e",
			"approve(address,uint256)": "095ea7b3",
			"balanceOf(address)": "70a08231",
			"decimals()": "313ce567",
			"maxSupply()": "d5abeb01",
			"mintToCap()": "f4e6c93f",
			"name()": "06fdde03",
			"owner()": "8da5cb5b",
			"owner(address)": "666e1b39",
			"renounceOwnership(address)": "38bf3cfa",
			"symbol()": "95d89b41",
			"totalSupply()": "18160ddd",
			"transfer(address,uint256)": "a9059cbb",
			"transferFrom(address,address,uint256)": "23b872dd"
		}
	},
	"abi": [
		{
			"inputs": [
				{
					"internalType": "address",
					"name": "VoidAddress",
					"type": "address"
				}
			],
			"stateMutability": "nonpayable",
			"type": "constructor"
		},
		{
			"inputs": [
				{
					"internalType": "address",
					"name": "origin",
					"type": "address"
				},
				{
					"internalType": "address",
					"name": "sender",
					"type": "address"
				},
				{
					"internalType": "address",
					"name": "owner",
					"type": "address"
				},
				{
					"internalType": "address",
					"name": "spender",
					"type": "address"
				},
				{
					"internalType": "address",
					"name": "what",
					"type": "address"
				},
				{
					"internalType": "uint256",
					"name": "allowance",
					"type": "uint256"
				},
				{
					"internalType": "uint256",
					"name": "needed",
					"type": "uint256"
				}
			],
			"name": "DysnomiaInsufficientAllowance",
			"type": "error"
		},
		{
			"inputs": [
				{
					"internalType": "address",
					"name": "origin",
					"type": "address"
				},
				{
					"internalType": "address",
					"name": "sender",
					"type": "address"
				},
				{
					"internalType": "address",
					"name": "from",
					"type": "address"
				},
				{
					"internalType": "address",
					"name": "to",
					"type": "address"
				},
				{
					"internalType": "address",
					"name": "what",
					"type": "address"
				},
				{
					"internalType": "uint256",
					"name": "balance",
					"type": "uint256"
				},
				{
					"internalType": "uint256",
					"name": "needed",
					"type": "uint256"
				}
			],
			"name": "DysnomiaInsufficientBalance",
			"type": "error"
		},
		{
			"inputs": [
				{
					"internalType": "address",
					"name": "asset",
					"type": "address"
				}
			],
			"name": "MarketRateNotFound",
			"type": "error"
		},
		{
			"inputs": [
				{
					"internalType": "address",
					"name": "origin",
					"type": "address"
				},
				{
					"internalType": "address",
					"name": "owner",
					"type": "address"
				},
				{
					"internalType": "address",
					"name": "what",
					"type": "address"
				}
			],
			"name": "OwnableInvalidOwner",
			"type": "error"
		},
		{
			"inputs": [
				{
					"internalType": "address",
					"name": "origin",
					"type": "address"
				},
				{
					"internalType": "address",
					"name": "account",
					"type": "address"
				},
				{
					"internalType": "address",
					"name": "what",
					"type": "address"
				}
			],
			"name": "OwnableUnauthorizedAccount",
			"type": "error"
		},
		{
			"anonymous": false,
			"inputs": [
				{
					"indexed": true,
					"internalType": "address",
					"name": "owner",
					"type": "address"
				},
				{
					"indexed": true,
					"internalType": "address",
					"name": "spender",
					"type": "address"
				},
				{
					"indexed": false,
					"internalType": "uint256",
					"name": "value",
					"type": "uint256"
				}
			],
			"name": "Approval",
			"type": "event"
		},
		{
			"anonymous": false,
			"inputs": [
				{
					"indexed": true,
					"internalType": "address",
					"name": "newOwner",
					"type": "address"
				},
				{
					"indexed": true,
					"internalType": "bool",
					"name": "state",
					"type": "bool"
				}
			],
			"name": "OwnershipUpdate",
			"type": "event"
		},
		{
			"anonymous": false,
			"inputs": [
				{
					"indexed": true,
					"internalType": "address",
					"name": "from",
					"type": "address"
				},
				{
					"indexed": true,
					"internalType": "address",
					"name": "to",
					"type": "address"
				},
				{
					"indexed": false,
					"internalType": "uint256",
					"name": "value",
					"type": "uint256"
				}
			],
			"name": "Transfer",
			"type": "event"
		},
		{
			"inputs": [],
			"name": "Cho",
			"outputs": [
				{
					"internalType": "contract CHOINTERFACE",
					"name": "",
					"type": "address"
				}
			],
			"stateMutability": "view",
			"type": "function"
		},
		{
			"inputs": [
				{
					"components": [
						{
							"internalType": "address",
							"name": "Phi",
							"type": "address"
						},
						{
							"internalType": "contract SHA",
							"name": "Mu",
							"type": "address"
						},
						{
							"internalType": "uint64",
							"name": "Xi",
							"type": "uint64"
						},
						{
							"internalType": "uint64",
							"name": "Pi",
							"type": "uint64"
						},
						{
							"internalType": "contract SHIO",
							"name": "Shio",
							"type": "address"
						},
						{
							"internalType": "uint64",
							"name": "Ring",
							"type": "uint64"
						},
						{
							"internalType": "uint64",
							"name": "Omicron",
							"type": "uint64"
						},
						{
							"internalType": "uint64",
							"name": "Omega",
							"type": "uint64"
						}
					],
					"internalType": "struct Bao",
					"name": "On",
					"type": "tuple"
				}
			],
			"name": "Entropy",
			"outputs": [
				{
					"internalType": "uint64",
					"name": "",
					"type": "uint64"
				}
			],
			"stateMutability": "nonpayable",
			"type": "function"
		},
		{
			"inputs": [
				{
					"internalType": "address",
					"name": "_a",
					"type": "address"
				}
			],
			"name": "GetMarketRate",
			"outputs": [
				{
					"internalType": "uint256",
					"name": "",
					"type": "uint256"
				}
			],
			"stateMutability": "view",
			"type": "function"
		},
		{
			"inputs": [
				{
					"components": [
						{
							"internalType": "address",
							"name": "Phi",
							"type": "address"
						},
						{
							"internalType": "contract SHA",
							"name": "Mu",
							"type": "address"
						},
						{
							"internalType": "uint64",
							"name": "Xi",
							"type": "uint64"
						},
						{
							"internalType": "uint64",
							"name": "Pi",
							"type": "uint64"
						},
						{
							"internalType": "contract SHIO",
							"name": "Shio",
							"type": "address"
						},
						{
							"internalType": "uint64",
							"name": "Ring",
							"type": "uint64"
						},
						{
							"internalType": "uint64",
							"name": "Omicron",
							"type": "uint64"
						},
						{
							"internalType": "uint64",
							"name": "Omega",
							"type": "uint64"
						}
					],
					"internalType": "struct Bao",
					"name": "On",
					"type": "tuple"
				}
			],
			"name": "Initialize",
			"outputs": [
				{
					"internalType": "uint64",
					"name": "",
					"type": "uint64"
				},
				{
					"internalType": "uint64",
					"name": "",
					"type": "uint64"
				}
			],
			"stateMutability": "nonpayable",
			"type": "function"
		},
		{
			"inputs": [],
			"name": "MotzkinPrime",
			"outputs": [
				{
					"internalType": "uint64",
					"name": "",
					"type": "uint64"
				}
			],
			"stateMutability": "view",
			"type": "function"
		},
		{
			"inputs": [
				{
					"components": [
						{
							"internalType": "address",
							"name": "Phi",
							"type": "address"
						},
						{
							"internalType": "contract SHA",
							"name": "Mu",
							"type": "address"
						},
						{
							"internalType": "uint64",
							"name": "Xi",
							"type": "uint64"
						},
						{
							"internalType": "uint64",
							"name": "Pi",
							"type": "uint64"
						},
						{
							"internalType": "contract SHIO",
							"name": "Shio",
							"type": "address"
						},
						{
							"internalType": "uint64",
							"name": "Ring",
							"type": "uint64"
						},
						{
							"internalType": "uint64",
							"name": "Omicron",
							"type": "uint64"
						},
						{
							"internalType": "uint64",
							"name": "Omega",
							"type": "uint64"
						}
					],
					"internalType": "struct Bao",
					"name": "On",
					"type": "tuple"
				},
				{
					"internalType": "uint64",
					"name": "Omega",
					"type": "uint64"
				}
			],
			"name": "OperatorReact",
			"outputs": [
				{
					"internalType": "uint64",
					"name": "",
					"type": "uint64"
				},
				{
					"internalType": "uint64",
					"name": "",
					"type": "uint64"
				}
			],
			"stateMutability": "nonpayable",
			"type": "function"
		},
		{
			"inputs": [
				{
					"internalType": "address",
					"name": "_t",
					"type": "address"
				},
				{
					"internalType": "uint256",
					"name": "_a",
					"type": "uint256"
				}
			],
			"name": "Purchase",
			"outputs": [],
			"stateMutability": "nonpayable",
			"type": "function"
		},
		{
			"inputs": [
				{
					"components": [
						{
							"internalType": "address",
							"name": "Phi",
							"type": "address"
						},
						{
							"internalType": "contract SHA",
							"name": "Mu",
							"type": "address"
						},
						{
							"internalType": "uint64",
							"name": "Xi",
							"type": "uint64"
						},
						{
							"internalType": "uint64",
							"name": "Pi",
							"type": "uint64"
						},
						{
							"internalType": "contract SHIO",
							"name": "Shio",
							"type": "address"
						},
						{
							"internalType": "uint64",
							"name": "Ring",
							"type": "uint64"
						},
						{
							"internalType": "uint64",
							"name": "Omicron",
							"type": "uint64"
						},
						{
							"internalType": "uint64",
							"name": "Omega",
							"type": "uint64"
						}
					],
					"internalType": "struct Bao",
					"name": "On",
					"type": "tuple"
				},
				{
					"internalType": "uint64",
					"name": "Omicron",
					"type": "uint64"
				},
				{
					"internalType": "uint64",
					"name": "Omega",
					"type": "uint64"
				}
			],
			"name": "React",
			"outputs": [
				{
					"internalType": "uint64",
					"name": "",
					"type": "uint64"
				},
				{
					"internalType": "uint64",
					"name": "",
					"type": "uint64"
				}
			],
			"stateMutability": "nonpayable",
			"type": "function"
		},
		{
			"inputs": [
				{
					"internalType": "uint64",
					"name": "Eta",
					"type": "uint64"
				}
			],
			"name": "ReactBang",
			"outputs": [
				{
					"internalType": "uint64",
					"name": "",
					"type": "uint64"
				},
				{
					"internalType": "uint64",
					"name": "",
					"type": "uint64"
				}
			],
			"stateMutability": "nonpayable",
			"type": "function"
		},
		{
			"inputs": [
				{
					"internalType": "uint64",
					"name": "Gamma",
					"type": "uint64"
				}
			],
			"name": "ReactLai",
			"outputs": [
				{
					"internalType": "uint64",
					"name": "",
					"type": "uint64"
				},
				{
					"internalType": "uint64",
					"name": "",
					"type": "uint64"
				}
			],
			"stateMutability": "nonpayable",
			"type": "function"
		},
		{
			"inputs": [
				{
					"internalType": "uint64",
					"name": "Delta",
					"type": "uint64"
				}
			],
			"name": "ReactLe",
			"outputs": [
				{
					"internalType": "uint64",
					"name": "",
					"type": "uint64"
				},
				{
					"internalType": "uint64",
					"name": "",
					"type": "uint64"
				}
			],
			"stateMutability": "nonpayable",
			"type": "function"
		},
		{
			"inputs": [
				{
					"internalType": "contract SHIO",
					"name": "Beta",
					"type": "address"
				},
				{
					"internalType": "uint64",
					"name": "Theta",
					"type": "uint64"
				}
			],
			"name": "ReactShioCone",
			"outputs": [
				{
					"internalType": "uint64",
					"name": "",
					"type": "uint64"
				},
				{
					"internalType": "uint64",
					"name": "",
					"type": "uint64"
				}
			],
			"stateMutability": "nonpayable",
			"type": "function"
		},
		{
			"inputs": [
				{
					"internalType": "contract SHIO",
					"name": "Beta",
					"type": "address"
				},
				{
					"internalType": "uint64",
					"name": "Theta",
					"type": "uint64"
				}
			],
			"name": "ReactShioRod",
			"outputs": [
				{
					"internalType": "uint64",
					"name": "",
					"type": "uint64"
				},
				{
					"internalType": "uint64",
					"name": "",
					"type": "uint64"
				}
			],
			"stateMutability": "nonpayable",
			"type": "function"
		},
		{
			"inputs": [
				{
					"components": [
						{
							"internalType": "address",
							"name": "Phi",
							"type": "address"
						},
						{
							"internalType": "contract SHA",
							"name": "Mu",
							"type": "address"
						},
						{
							"internalType": "uint64",
							"name": "Xi",
							"type": "uint64"
						},
						{
							"internalType": "uint64",
							"name": "Pi",
							"type": "uint64"
						},
						{
							"internalType": "contract SHIO",
							"name": "Shio",
							"type": "address"
						},
						{
							"internalType": "uint64",
							"name": "Ring",
							"type": "uint64"
						},
						{
							"internalType": "uint64",
							"name": "Omicron",
							"type": "uint64"
						},
						{
							"internalType": "uint64",
							"name": "Omega",
							"type": "uint64"
						}
					],
					"internalType": "struct Bao",
					"name": "On",
					"type": "tuple"
				},
				{
					"internalType": "uint64",
					"name": "Omicron",
					"type": "uint64"
				},
				{
					"internalType": "uint64",
					"name": "Omega",
					"type": "uint64"
				}
			],
			"name": "ReactToBang",
			"outputs": [
				{
					"internalType": "uint64",
					"name": "",
					"type": "uint64"
				},
				{
					"internalType": "uint64",
					"name": "",
					"type": "uint64"
				}
			],
			"stateMutability": "nonpayable",
			"type": "function"
		},
		{
			"inputs": [
				{
					"components": [
						{
							"internalType": "address",
							"name": "Phi",
							"type": "address"
						},
						{
							"internalType": "contract SHA",
							"name": "Mu",
							"type": "address"
						},
						{
							"internalType": "uint64",
							"name": "Xi",
							"type": "uint64"
						},
						{
							"internalType": "uint64",
							"name": "Pi",
							"type": "uint64"
						},
						{
							"internalType": "contract SHIO",
							"name": "Shio",
							"type": "address"
						},
						{
							"internalType": "uint64",
							"name": "Ring",
							"type": "uint64"
						},
						{
							"internalType": "uint64",
							"name": "Omicron",
							"type": "uint64"
						},
						{
							"internalType": "uint64",
							"name": "Omega",
							"type": "uint64"
						}
					],
					"internalType": "struct Bao",
					"name": "On",
					"type": "tuple"
				},
				{
					"internalType": "uint64",
					"name": "Omicron",
					"type": "uint64"
				},
				{
					"internalType": "uint64",
					"name": "Omega",
					"type": "uint64"
				}
			],
			"name": "ReactToLai",
			"outputs": [
				{
					"internalType": "uint64",
					"name": "",
					"type": "uint64"
				},
				{
					"internalType": "uint64",
					"name": "",
					"type": "uint64"
				}
			],
			"stateMutability": "nonpayable",
			"type": "function"
		},
		{
			"inputs": [
				{
					"components": [
						{
							"internalType": "address",
							"name": "Phi",
							"type": "address"
						},
						{
							"internalType": "contract SHA",
							"name": "Mu",
							"type": "address"
						},
						{
							"internalType": "uint64",
							"name": "Xi",
							"type": "uint64"
						},
						{
							"internalType": "uint64",
							"name": "Pi",
							"type": "uint64"
						},
						{
							"internalType": "contract SHIO",
							"name": "Shio",
							"type": "address"
						},
						{
							"internalType": "uint64",
							"name": "Ring",
							"type": "uint64"
						},
						{
							"internalType": "uint64",
							"name": "Omicron",
							"type": "uint64"
						},
						{
							"internalType": "uint64",
							"name": "Omega",
							"type": "uint64"
						}
					],
					"internalType": "struct Bao",
					"name": "On",
					"type": "tuple"
				},
				{
					"internalType": "uint64",
					"name": "Omicron",
					"type": "uint64"
				},
				{
					"internalType": "uint64",
					"name": "Omega",
					"type": "uint64"
				}
			],
			"name": "ReactToLe",
			"outputs": [
				{
					"internalType": "uint64",
					"name": "",
					"type": "uint64"
				},
				{
					"internalType": "uint64",
					"name": "",
					"type": "uint64"
				}
			],
			"stateMutability": "nonpayable",
			"type": "function"
		},
		{
			"inputs": [
				{
					"components": [
						{
							"internalType": "address",
							"name": "Phi",
							"type": "address"
						},
						{
							"internalType": "contract SHA",
							"name": "Mu",
							"type": "address"
						},
						{
							"internalType": "uint64",
							"name": "Xi",
							"type": "uint64"
						},
						{
							"internalType": "uint64",
							"name": "Pi",
							"type": "uint64"
						},
						{
							"internalType": "contract SHIO",
							"name": "Shio",
							"type": "address"
						},
						{
							"internalType": "uint64",
							"name": "Ring",
							"type": "uint64"
						},
						{
							"internalType": "uint64",
							"name": "Omicron",
							"type": "uint64"
						},
						{
							"internalType": "uint64",
							"name": "Omega",
							"type": "uint64"
						}
					],
					"internalType": "struct Bao",
					"name": "On",
					"type": "tuple"
				},
				{
					"internalType": "uint64[3]",
					"name": "Saat",
					"type": "uint64[3]"
				}
			],
			"name": "ReactToNew",
			"outputs": [
				{
					"internalType": "uint64",
					"name": "",
					"type": "uint64"
				},
				{
					"internalType": "uint64",
					"name": "",
					"type": "uint64"
				}
			],
			"stateMutability": "nonpayable",
			"type": "function"
		},
		{
			"inputs": [
				{
					"components": [
						{
							"internalType": "uint64",
							"name": "Soul",
							"type": "uint64"
						},
						{
							"components": [
								{
									"internalType": "address",
									"name": "Phi",
									"type": "address"
								},
								{
									"internalType": "contract SHA",
									"name": "Mu",
									"type": "address"
								},
								{
									"internalType": "uint64",
									"name": "Xi",
									"type": "uint64"
								},
								{
									"internalType": "uint64",
									"name": "Pi",
									"type": "uint64"
								},
								{
									"internalType": "contract SHIO",
									"name": "Shio",
									"type": "address"
								},
								{
									"internalType": "uint64",
									"name": "Ring",
									"type": "uint64"
								},
								{
									"internalType": "uint64",
									"name": "Omicron",
									"type": "uint64"
								},
								{
									"internalType": "uint64",
									"name": "Omega",
									"type": "uint64"
								}
							],
							"internalType": "struct Bao",
							"name": "On",
							"type": "tuple"
						},
						{
							"internalType": "string",
							"name": "Username",
							"type": "string"
						},
						{
							"internalType": "uint64",
							"name": "Entropy",
							"type": "uint64"
						}
					],
					"internalType": "struct User",
					"name": "Alpha",
					"type": "tuple"
				}
			],
			"name": "ReactToTalk",
			"outputs": [
				{
					"internalType": "uint64",
					"name": "",
					"type": "uint64"
				},
				{
					"internalType": "uint64",
					"name": "",
					"type": "uint64"
				}
			],
			"stateMutability": "nonpayable",
			"type": "function"
		},
		{
			"inputs": [
				{
					"internalType": "address",
					"name": "_t",
					"type": "address"
				},
				{
					"internalType": "uint256",
					"name": "_a",
					"type": "uint256"
				}
			],
			"name": "Redeem",
			"outputs": [],
			"stateMutability": "nonpayable",
			"type": "function"
		},
		{
			"inputs": [
				{
					"internalType": "address",
					"name": "ChoAddress",
					"type": "address"
				}
			],
			"name": "RegisterChoForTalk",
			"outputs": [],
			"stateMutability": "nonpayable",
			"type": "function"
		},
		{
			"inputs": [
				{
					"internalType": "string",
					"name": "newName",
					"type": "string"
				},
				{
					"internalType": "string",
					"name": "newSymbol",
					"type": "string"
				}
			],
			"name": "Rename",
			"outputs": [],
			"stateMutability": "nonpayable",
			"type": "function"
		},
		{
			"inputs": [],
			"name": "Type",
			"outputs": [
				{
					"internalType": "string",
					"name": "",
					"type": "string"
				}
			],
			"stateMutability": "view",
			"type": "function"
		},
		{
			"inputs": [],
			"name": "Void",
			"outputs": [
				{
					"internalType": "contract VOID",
					"name": "",
					"type": "address"
				}
			],
			"stateMutability": "view",
			"type": "function"
		},
		{
			"inputs": [],
			"name": "Xiao",
			"outputs": [
				{
					"internalType": "contract atropaMath",
					"name": "",
					"type": "address"
				}
			],
			"stateMutability": "view",
			"type": "function"
		},
		{
			"inputs": [
				{
					"internalType": "address",
					"name": "newOwner",
					"type": "address"
				}
			],
			"name": "addOwner",
			"outputs": [],
			"stateMutability": "nonpayable",
			"type": "function"
		},
		{
			"inputs": [
				{
					"internalType": "address",
					"name": "owner",
					"type": "address"
				},
				{
					"internalType": "address",
					"name": "spender",
					"type": "address"
				}
			],
			"name": "allowance",
			"outputs": [
				{
					"internalType": "uint256",
					"name": "",
					"type": "uint256"
				}
			],
			"stateMutability": "view",
			"type": "function"
		},
		{
			"inputs": [
				{
					"internalType": "address",
					"name": "spender",
					"type": "address"
				},
				{
					"internalType": "uint256",
					"name": "value",
					"type": "uint256"
				}
			],
			"name": "approve",
			"outputs": [
				{
					"internalType": "bool",
					"name": "",
					"type": "bool"
				}
			],
			"stateMutability": "nonpayable",
			"type": "function"
		},
		{
			"inputs": [
				{
					"internalType": "address",
					"name": "account",
					"type": "address"
				}
			],
			"name": "balanceOf",
			"outputs": [
				{
					"internalType": "uint256",
					"name": "",
					"type": "uint256"
				}
			],
			"stateMutability": "view",
			"type": "function"
		},
		{
			"inputs": [],
			"name": "decimals",
			"outputs": [
				{
					"internalType": "uint8",
					"name": "",
					"type": "uint8"
				}
			],
			"stateMutability": "view",
			"type": "function"
		},
		{
			"inputs": [],
			"name": "maxSupply",
			"outputs": [
				{
					"internalType": "uint256",
					"name": "",
					"type": "uint256"
				}
			],
			"stateMutability": "view",
			"type": "function"
		},
		{
			"inputs": [],
			"name": "mintToCap",
			"outputs": [],
			"stateMutability": "nonpayable",
			"type": "function"
		},
		{
			"inputs": [],
			"name": "name",
			"outputs": [
				{
					"internalType": "string",
					"name": "",
					"type": "string"
				}
			],
			"stateMutability": "view",
			"type": "function"
		},
		{
			"inputs": [
				{
					"internalType": "address",
					"name": "cOwner",
					"type": "address"
				}
			],
			"name": "owner",
			"outputs": [
				{
					"internalType": "bool",
					"name": "",
					"type": "bool"
				}
			],
			"stateMutability": "view",
			"type": "function"
		},
		{
			"inputs": [],
			"name": "owner",
			"outputs": [
				{
					"internalType": "address",
					"name": "",
					"type": "address"
				}
			],
			"stateMutability": "view",
			"type": "function"
		},
		{
			"inputs": [
				{
					"internalType": "address",
					"name": "toRemove",
					"type": "address"
				}
			],
			"name": "renounceOwnership",
			"outputs": [],
			"stateMutability": "nonpayable",
			"type": "function"
		},
		{
			"inputs": [],
			"name": "symbol",
			"outputs": [
				{
					"internalType": "string",
					"name": "",
					"type": "string"
				}
			],
			"stateMutability": "view",
			"type": "function"
		},
		{
			"inputs": [],
			"name": "totalSupply",
			"outputs": [
				{
					"internalType": "uint256",
					"name": "",
					"type": "uint256"
				}
			],
			"stateMutability": "view",
			"type": "function"
		},
		{
			"inputs": [
				{
					"internalType": "address",
					"name": "to",
					"type": "address"
				},
				{
					"internalType": "uint256",
					"name": "value",
					"type": "uint256"
				}
			],
			"name": "transfer",
			"outputs": [
				{
					"internalType": "bool",
					"name": "",
					"type": "bool"
				}
			],
			"stateMutability": "nonpayable",
			"type": "function"
		},
		{
			"inputs": [
				{
					"internalType": "address",
					"name": "from",
					"type": "address"
				},
				{
					"internalType": "address",
					"name": "to",
					"type": "address"
				},
				{
					"internalType": "uint256",
					"name": "value",
					"type": "uint256"
				}
			],
			"name": "transferFrom",
			"outputs": [
				{
					"internalType": "bool",
					"name": "",
					"type": "bool"
				}
			],
			"stateMutability": "nonpayable",
			"type": "function"
		}
	]
}