{
	"data": {
		"bytecode": {
			"linkReferences": {},
			"object": "608060405234801561000f575f5ffd5b5060405161368c38038061368c83398101604081905261002e91610824565b6040518060400160405280601081526020016f10d210551313d1c8131a5890dc9e5c1d60821b81525060405180604001604052806008815260200167131a5890dc9e5c1d60c21b815250826001600160a01b0316636fb7329c6040518163ffffffff1660e01b8152600401602060405180830381865afa1580156100b4573d5f5f3e3d5ffd5b505050506040513d601f19601f820116820180604052508101906100d89190610824565b338061010a57604051633603021960e21b81523260048201525f60248201523060448201526064015b60405180910390fd5b61011581600161058a565b50600461012284826108de565b50600561012f83826108de565b50600680546001600160a01b0319166001600160a01b0383169081179091556040805163604a6fa960e01b815290516201b207929163604a6fa991600480830192602092919082900301815f875af115801561018d573d5f5f3e3d5ffd5b505050506040513d601f19601f820116820180604052508101906101b19190610998565b6101bb91906109d2565b6001600160401b03166007819055505f600a60075460065f9054906101000a90046001600160a01b03166001600160a01b031663604a6fa96040518163ffffffff1660e01b81526004016020604051808303815f875af1158015610221573d5f5f3e3d5ffd5b505050506040513d601f19601f820116820180604052508101906102459190610998565b6001600160401b03166102589190610a00565b6102629190610a27565b9050610283326102746012600a610b1f565b61027e9084610b2d565b6105dd565b6102cd7324f0154c1dce548adf15da2098fdd8b8a3b8151d6102a76012600a610b1f565b6102b2906001610b2d565b6001600160a01b039091165f90815260086020526040902055565b5050600a80546001600160a01b0319166001600160a01b038516179055506102f69050816105ec565b600a5f9054906101000a90046001600160a01b03166001600160a01b0316639ff430016040518163ffffffff1660e01b81526004016020604051808303815f875af1158015610347573d5f5f3e3d5ffd5b505050506040513d601f19601f8201168201806040525081019061036b9190610824565b6001600160a01b03166376fade906040518163ffffffff1660e01b81526004016020604051808303815f875af11580156103a7573d5f5f3e3d5ffd5b505050506040513d601f19601f820116820180604052508101906103cb9190610824565b6001600160a01b031663b50951686040518163ffffffff1660e01b81526004016020604051808303815f875af1158015610407573d5f5f3e3d5ffd5b505050506040513d601f19601f8201168201806040525081019061042b9190610824565b6001600160a01b0316634cde872d6040518163ffffffff1660e01b81526004016020604051808303815f875af1158015610467573d5f5f3e3d5ffd5b505050506040513d601f19601f8201168201806040525081019061048b9190610824565b6001600160a01b031663140c2fb56040518163ffffffff1660e01b81526004016020604051808303815f875af11580156104c7573d5f5f3e3d5ffd5b505050506040513d601f19601f820116820180604052508101906104eb9190610824565b600980546001600160a01b0319166001600160a01b03928316179055600a54604080516339dd2ce960e21b815260048101919091526007604482015266195b98dc9e5c1d60ca1b606482015230602482015291169063e774b3a4906084015f604051808303815f87803b158015610560575f5ffd5b505af1158015610572573d5f5f3e3d5ffd5b5050505061058461063760201b60201c565b50610b57565b6001600160a01b0382165f81815260208190526040808220805460ff191685151590811790915590519092917f6bfa7e860c3e9bf67b810cb88276b19b27c972812bac04793d369b59a1183a8391a35050565b6105e85f8383610676565b5050565b6105f46107b6565b6001600160a01b03811661062957604051633603021960e21b81523260048201525f6024820152306044820152606401610101565b61063481600161058a565b50565b6106436012600a610b1f565b6007546106509190610b2d565b600354101561067457610674306106696012600a610b1f565b61027e906001610b2d565b565b6001600160a01b0383166106a0578060035f8282546106959190610b44565b9091555061072a9050565b6001600160a01b0383165f908152600160205260409020548181101561070c57604051630f7d0bbd60e21b81523260048201523360248201526001600160a01b0380861660448301528416606482015230608482015260a4810182905260c4810183905260e401610101565b6001600160a01b0384165f9081526001602052604090209082900390555b6001600160a01b03821661074657600380548290039055610764565b6001600160a01b0382165f9081526001602052604090208054820190555b816001600160a01b0316836001600160a01b03167fddf252ad1be2c89b69c2b068fc378daa952ba7f163c4a11628f55a4df523b3ef836040516107a991815260200190565b60405180910390a3505050565b335f9081526020819052604090205460ff161580156107e45750325f9081526020819052604090205460ff16155b1561067457604051630be6bab560e01b8152326004820152336024820152306044820152606401610101565b6001600160a01b0381168114610634575f5ffd5b5f60208284031215610834575f5ffd5b815161083f81610810565b9392505050565b634e487b7160e01b5f52604160045260245ffd5b600181811c9082168061086e57607f821691505b60208210810361088c57634e487b7160e01b5f52602260045260245ffd5b50919050565b601f8211156108d957805f5260205f20601f840160051c810160208510156108b75750805b601f840160051c820191505b818110156108d6575f81556001016108c3565b50505b505050565b81516001600160401b038111156108f7576108f7610846565b61090b81610905845461085a565b84610892565b6020601f82116001811461093d575f83156109265750848201515b5f19600385901b1c1916600184901b1784556108d6565b5f84815260208120601f198516915b8281101561096c578785015182556020948501946001909201910161094c565b508482101561098957868401515f19600387901b60f8161c191681555b50505050600190811b01905550565b5f602082840312156109a8575f5ffd5b81516001600160401b038116811461083f575f5ffd5b634e487b7160e01b5f52601260045260245ffd5b5f6001600160401b038316806109ea576109ea6109be565b6001600160401b03929092169190910692915050565b5f82610a0e57610a0e6109be565b500690565b634e487b7160e01b5f52601160045260245ffd5b5f82610a3557610a356109be565b500490565b6001815b6001841115610a7557808504811115610a5957610a59610a13565b6001841615610a6757908102905b60019390931c928002610a3e565b935093915050565b5f82610a8b57506001610b19565b81610a9757505f610b19565b8160018114610aad5760028114610ab757610ad3565b6001915050610b19565b60ff841115610ac857610ac8610a13565b50506001821b610b19565b5060208310610133831016604e8410600b8410161715610af6575081810a610b19565b610b025f198484610a3a565b805f1904821115610b1557610b15610a13565b0290505b92915050565b5f61083f60ff841683610a7d565b8082028115828204841417610b1957610b19610a13565b80820180821115610b1957610b19610a13565b612b2880610b645f395ff3fe608060405234801561000f575f5ffd5b50600436106101ab575f3560e01c806370a08231116100eb578063d3dc2a0f1161008f578063d3dc2a0f146103e1578063d5abeb01146103ef578063d8be150f146103f8578063dd62ed3e14610400578063f4e6c93f14610413578063f4f6c22c1461041b578063f9a76e481461042e578063ff76204414610441575f5ffd5b806370a082311461033f5780638cfbf772146103675780638da5cb5b1461037a5780638ef323b31461038057806395d89b411461039357806398c7299f1461039b5780639dcbf7ea146103bb578063a9059cbb146103ce575f5ffd5b80632b83b1fc116101525780632b83b1fc1461027b578063313ce567146102a357806338bf3cfa146102b25780634317c04a146102c557806344a4a69c146102d8578063666e1b39146102f95780636fb7329c1461030c5780637065cb481461032c575f5ffd5b806306fdde03146101af578063095ea7b3146101cd5780631227290d146101f057806318160ddd1461021b57806318afcee81461022d578063222838db1461024057806323b872dd146102555780632499a53314610268575b5f5ffd5b6101b761046a565b6040516101c49190611f13565b60405180910390f35b6101e06101db366004611f40565b6104fa565b60405190151581526020016101c4565b6102036101fe366004612098565b610513565b6040516001600160401b0390911681526020016101c4565b6003545b6040519081526020016101c4565b61020361023b366004612098565b610531565b61025361024e366004611f40565b61078a565b005b6101e061026336600461211f565b610983565b610253610276366004611f40565b6109a6565b61021f61028936600461215d565b6001600160a01b03165f9081526008602052604090205490565b604051601281526020016101c4565b6102536102c036600461215d565b610b59565b6101b76102d3366004612178565b610b6e565b6102eb6102e63660046121db565b610e08565b6040516101c49291906122d4565b6101e061030736600461215d565b610fec565b60065461031f906001600160a01b031681565b6040516101c491906122fd565b61025361033a36600461215d565b611009565b61021f61034d36600461215d565b6001600160a01b03165f9081526001602052604090205490565b6101b7610375366004612178565b611049565b3061031f565b61020361038e366004612311565b61105f565b6101b76110f7565b6103ae6103a9366004612311565b611106565b6040516101c49190612342565b6102536103c936600461237b565b611248565b6101e06103dc366004611f40565b61126e565b6102036603632c8eb5af3b81565b61021f60075481565b61025361127b565b61021f61040e3660046123de565b6113f0565b61025361141a565b600a5461031f906001600160a01b031681565b60095461031f906001600160a01b031681565b6101b76040518060400160405280600a815260200169131a58915b98dc9e5c1d60b21b81525081565b60606004805461047990612415565b80601f01602080910402602001604051908101604052809291908181526020018280546104a590612415565b80156104f05780601f106104c7576101008083540402835291602001916104f0565b820191905f5260205f20905b8154815290600101906020018083116104d357829003601f168201915b5050505050905090565b5f3361050781858561142a565b60019150505b92915050565b5f61051c611437565b61052885858585610531565b95945050505050565b6009546040516302213c7d60e11b81526001600160401b03861660048201525f9182916001600160a01b039091169063044278fa90602401610100604051808303815f875af1158015610586573d5f5f3e3d5ffd5b505050506040513d601f19601f820116820180604052508101906105aa9190612463565b6009546040516302213c7d60e11b81526001600160401b03881660048201529192505f916001600160a01b039091169063044278fa90602401610100604051808303815f875af1158015610600573d5f5f3e3d5ffd5b505050506040513d601f19601f820116820180604052508101906106249190612463565b9050606082608001516001600160a01b031663666e1b39336040518263ffffffff1660e01b815260040161065891906122fd565b602060405180830381865afa158015610673573d5f5f3e3d5ffd5b505050506040513d601f19601f820116820180604052508101906106979190612509565b6106cb57826080015182608001513360405163017f9d1f60e71b81526004016106c293929190612528565b60405180910390fd5b6106d783838888611479565b6001600160401b0382165f908152600b6020526040902091955091506106fd8282612596565b5061070b42620d2f00612664565b6001600160401b038581165f818152600b60205260408120600190810194909455600c8054948501815590527fdf6966c971051c3d54ec59162606531493a51404a002842f56009d7e5cf4a8c76004840401805460039094166008026101000a92830219909316910217905561077f611437565b505050949350505050565b6001600160a01b0382165f9081526008602052604081205490036107c357816040516390b2344160e01b81526004016106c291906122fd565b815f6107d16012600a61275a565b6001600160a01b0385165f908152600860205260409020546107f39085612768565b6107fd9190612793565b6040516323b872dd60e01b81529091505f9030906323b872dd90610829903390849089906004016127a6565b6020604051808303815f875af1158015610845573d5f5f3e3d5ffd5b505050506040513d601f19601f820116820180604052508101906108699190612509565b905080306001600160a01b03166306fdde036040518163ffffffff1660e01b81526004015f60405180830381865afa1580156108a7573d5f5f3e3d5ffd5b505050506040513d5f823e601f3d908101601f191682016040526108ce91908101906127ca565b6040516020016108de919061283e565b6040516020818303038152906040529061090b5760405162461bcd60e51b81526004016106c29190611f13565b5060405163a9059cbb60e01b8152336004820152602481018390526001600160a01b0384169063a9059cbb906044015b6020604051808303815f875af1158015610957573d5f5f3e3d5ffd5b505050506040513d601f19601f8201168201806040525081019061097b9190612509565b505050505050565b5f33610990858285611bd9565b61099b858585611c30565b506001949350505050565b6001600160a01b0382165f9081526008602052604081205490036109df57816040516390b2344160e01b81526004016106c291906122fd565b815f6109ed6012600a61275a565b6001600160a01b0385165f90815260086020526040902054610a0f9085612768565b610a199190612793565b90505f826001600160a01b03166323b872dd3330856040518463ffffffff1660e01b8152600401610a4c939291906127a6565b6020604051808303815f875af1158015610a68573d5f5f3e3d5ffd5b505050506040513d601f19601f82011682018060405250810190610a8c9190612509565b905080836001600160a01b03166306fdde036040518163ffffffff1660e01b81526004015f60405180830381865afa158015610aca573d5f5f3e3d5ffd5b505050506040513d5f823e601f3d908101601f19168201604052610af191908101906127ca565b604051602001610b01919061283e565b60405160208183030381529060405290610b2e5760405162461bcd60e51b81526004016106c29190611f13565b5060405163a9059cbb60e01b815233600482015260248101859052309063a9059cbb9060440161093b565b610b61611c3b565b610b6b815f611c7b565b50565b6009546040516302213c7d60e11b81526001600160401b03861660048201526060915f916001600160a01b039091169063044278fa90602401610100604051808303815f875af1158015610bc4573d5f5f3e3d5ffd5b505050506040513d601f19601f82011682018060405250810190610be89190612463565b6009546040516302213c7d60e11b81526001600160401b03881660048201529192505f916001600160a01b039091169063044278fa90602401610100604051808303815f875af1158015610c3e573d5f5f3e3d5ffd5b505050506040513d601f19601f82011682018060405250810190610c629190612463565b90505f81608001516001600160a01b031663666e1b39336040518263ffffffff1660e01b8152600401610c9591906122fd565b602060405180830381865afa158015610cb0573d5f5f3e3d5ffd5b505050506040513d601f19601f82011682018060405250810190610cd49190612509565b610cff57826080015182608001513360405163017f9d1f60e71b81526004016106c293929190612528565b6001600160401b0386165f908152600b602052604090208054610dac91859185918991610d2b90612415565b80601f0160208091040260200160405190810160405280929190818152602001828054610d5790612415565b8015610da25780601f10610d7957610100808354040283529160200191610da2565b820191905f5260205f20905b815481529060010190602001808311610d8557829003601f168201915b5050505050611479565b6001600160401b0388165f908152600b6020526040902060010154909550909150421115610e00576001600160401b0386165f908152600b6020526040812090610df68282611e78565b600182015f905550505b61077f611437565b6040805160088082528183019092525f916060918391602082018180368337019050506040805160188082528183019092529192506020820181803683370190505091505f5b6008811015610ea457610e62816008612768565b886001600160401b0316901c60ff1660f81b828281518110610e8657610e8661286e565b60200101906001600160f81b03191690815f1a905350600101610e4e565b505f5b6008811015610efd57610ebb816008612768565b876001600160401b0316901c60ff1660f81b838281518110610edf57610edf61286e565b60200101906001600160f81b03191690815f1a905350600101610ea7565b5060085b6010811015610f6257610f15600882612882565b610f20906008612768565b866001600160401b0316901c60ff1660f81b838281518110610f4457610f4461286e565b60200101906001600160f81b03191690815f1a905350600101610f01565b5060105b6018811015610fc757610f7a601082612882565b610f85906008612768565b856001600160401b0316901c60ff1660f81b838281518110610fa957610fa961286e565b60200101906001600160f81b03191690815f1a905350600101610f66565b50610fd488898385611479565b9093509150610fe1611437565b509550959350505050565b6001600160a01b03165f9081526020819052604090205460ff1690565b611011611c3b565b6001600160a01b03811661103e57325f30604051633603021960e21b81526004016106c293929190612528565b610b6b816001611c7b565b6060611053611437565b61052885858585610b6e565b5f611068611437565b60065f9054906101000a90046001600160a01b03166001600160a01b031663d3dc2a0f6040518163ffffffff1660e01b81526004016020604051808303815f875af11580156110b9573d5f5f3e3d5ffd5b505050506040513d601f19601f820116820180604052508101906110dd9190612895565b8251602084012061050d916001600160401b0316906128b0565b60606005805461047990612415565b61110e611eaf565b60128251101561113e5781516040516317f3e42360e11b81526012600482015260248101919091526044016106c2565b5f5f9050825f815181106111545761115461286e565b016020015160f81c82826003811061116e5761116e61286e565b602002015161117d91906128c3565b82826003811061118f5761118f61286e565b6001600160401b03909216602092909202015260015b8351811015611241578381815181106111c0576111c061286e565b016020015160f81c8383600381106111da576111da61286e565b60200201516111e991906128c3565b8383600381106111fb576111fb61286e565b6001600160401b0390921660209290920201526112196008826128b0565b1580156112265750600282105b156112395781611235816128e2565b9250505b6001016111a5565b5050919050565b611250611c3b565b600461125c8382612596565b5060056112698282612596565b505050565b5f33610507818585611c30565b5f5b600c546001600160401b0390811690821610156113e5576001600160401b0381165f908152600b602052604090206001015415806112d457506001600160401b0381165f908152600b602052604090206001015442115b156113dd576001600160401b0381165f908152600b60205260408120906112fb8282611e78565b505f600191820155600c8054909161131291612882565b815481106113225761132261286e565b905f5260205f2090600491828204019190066008029054906101000a90046001600160401b0316600c826001600160401b0316815481106113655761136561286e565b905f5260205f2090600491828204019190066008026101000a8154816001600160401b0302191690836001600160401b03160217905550600c8054806113ad576113ad6128fa565b5f8281526020902060045f199092019182040180546001600160401b03600860038516026101000a021916905590555b60010161127d565b506113ee611437565b565b6001600160a01b039182165f90815260026020908152604080832093909416825291909152205490565b611422611c3b565b6113ee611437565b6112698383836001611cce565b6114436012600a61275a565b6007546114509190612768565b60035410156113ee576113ee306114696012600a61275a565b611474906001612768565b611d4e565b5f606060065f9054906101000a90046001600160a01b03166001600160a01b031663d3dc2a0f6040518163ffffffff1660e01b81526004016020604051808303815f875af11580156114cd573d5f5f3e3d5ffd5b505050506040513d601f19601f820116820180604052508101906114f19190612895565b6001600160401b0316600c80549050106115a75760065f9054906101000a90046001600160a01b03166001600160a01b031663d3dc2a0f6040518163ffffffff1660e01b81526004016020604051808303815f875af1158015611556573d5f5f3e3d5ffd5b505050506040513d601f19601f8201168201806040525081019061157a9190612895565b600c546040516334f1e2b560e01b81526001600160401b03909216600483015260248201526044016106c2565b5f5f5f88608001516001600160a01b031663a45669506040518163ffffffff1660e01b8152600401606060405180830381865afa1580156115ea573d5f5f3e3d5ffd5b505050506040513d601f19601f8201168201806040525081019061160e919061290e565b516001600160a01b031663f302d97f6116268961105f565b8b608001516001600160a01b031663a45669506040518163ffffffff1660e01b8152600401606060405180830381865afa158015611666573d5f5f3e3d5ffd5b505050506040513d601f19601f8201168201806040525081019061168a919061290e565b602001516001600160a01b0316631686f2656040518163ffffffff1660e01b81526004016101a0604051808303815f875af11580156116cb573d5f5f3e3d5ffd5b505050506040513d601f19601f820116820180604052508101906116ef919061297f565b606001516040516001600160e01b031960e085901b1681526001600160401b0392831660048201529116602482015260440160408051808303815f875af115801561173c573d5f5f3e3d5ffd5b505050506040513d601f19601f820116820180604052508101906117609190612a82565b875191935091506001600160401b0381111561177e5761177e611f8e565b6040519080825280601f01601f1916602001820160405280156117a8576020820181803683370190505b5093505f5b8651811015611bc15788608001516001600160a01b031663a45669506040518163ffffffff1660e01b8152600401606060405180830381865afa1580156117f6573d5f5f3e3d5ffd5b505050506040513d601f19601f8201168201806040525081019061181a919061290e565b602001516001600160a01b031663f302d97f848b608001516001600160a01b031663a45669506040518163ffffffff1660e01b8152600401606060405180830381865afa15801561186d573d5f5f3e3d5ffd5b505050506040513d601f19601f82011682018060405250810190611891919061290e565b5f01516001600160a01b0316631686f2656040518163ffffffff1660e01b81526004016101a0604051808303815f875af11580156118d1573d5f5f3e3d5ffd5b505050506040513d601f19601f820116820180604052508101906118f5919061297f565b606001516040516001600160e01b031960e085901b1681526001600160401b0392831660048201529116602482015260440160408051808303815f875af1158015611942573d5f5f3e3d5ffd5b505050506040513d601f19601f820116820180604052508101906119669190612a82565b90945091505f5b60088110801561197d5750875182105b15611a06578782815181106119945761199461286e565b01602001516001600160f81b03191660c084901b82600881106119b9576119b961286e565b1a60f81b188683815181106119d0576119d061286e565b60200101906001600160f81b03191690815f1a905350816119f0816128e2565b92505080806119fe906128e2565b91505061196d565b5089608001516001600160a01b031663a45669506040518163ffffffff1660e01b8152600401606060405180830381865afa158015611a47573d5f5f3e3d5ffd5b505050506040513d601f19601f82011682018060405250810190611a6b919061290e565b5f01516001600160a01b031663f302d97f858c608001516001600160a01b031663a45669506040518163ffffffff1660e01b8152600401606060405180830381865afa158015611abd573d5f5f3e3d5ffd5b505050506040513d601f19601f82011682018060405250810190611ae1919061290e565b602001516001600160a01b0316631686f2656040518163ffffffff1660e01b81526004016101a0604051808303815f875af1158015611b22573d5f5f3e3d5ffd5b505050506040513d601f19601f82011682018060405250810190611b46919061297f565b606001516040516001600160e01b031960e085901b1681526001600160401b0392831660048201529116602482015260440160408051808303815f875af1158015611b93573d5f5f3e3d5ffd5b505050506040513d601f19601f82011682018060405250810190611bb79190612a82565b90935091506117ad565b50819450611bcd611437565b50505094509492505050565b5f611be484846113f0565b90505f198114611c2a5781811015611c1c573233858530858760405162b83d1960e21b81526004016106c29796959493929190612aaf565b611c2a84848484035f611cce565b50505050565b611269838383611d5d565b611c4433610fec565b158015611c575750611c5532610fec565b155b156113ee57323330604051630be6bab560e01b81526004016106c293929190612528565b6001600160a01b0382165f81815260208190526040808220805460ff191685151590811790915590519092917f6bfa7e860c3e9bf67b810cb88276b19b27c972812bac04793d369b59a1183a8391a35050565b6001600160a01b038085165f9081526002602090815260408083209387168352929052208290558015611c2a57826001600160a01b0316846001600160a01b03167f8c5be1e5ebec7d5bd14f71427d1e84f3dd0314c0f7b2291e5b200ac8c7c3b92584604051611d4091815260200190565b60405180910390a350505050565b611d595f8383611d5d565b5050565b6001600160a01b038316611d87578060035f828254611d7c9190612664565b90915550611dec9050565b6001600160a01b0383165f9081526001602052604090205481811015611dce5732338585308587604051630f7d0bbd60e21b81526004016106c29796959493929190612aaf565b6001600160a01b0384165f9081526001602052604090209082900390555b6001600160a01b038216611e0857600380548290039055611e26565b6001600160a01b0382165f9081526001602052604090208054820190555b816001600160a01b0316836001600160a01b03167fddf252ad1be2c89b69c2b068fc378daa952ba7f163c4a11628f55a4df523b3ef83604051611e6b91815260200190565b60405180910390a3505050565b508054611e8490612415565b5f825580601f10611e93575050565b601f0160209004905f5260205f2090810190610b6b9190611ecd565b60405180606001604052806003906020820280368337509192915050565b5b80821115611ee1575f8155600101611ece565b5090565b5f81518084528060208401602086015e5f602082860101526020601f19601f83011685010191505092915050565b602081525f611f256020830184611ee5565b9392505050565b6001600160a01b0381168114610b6b575f5ffd5b5f5f60408385031215611f51575f5ffd5b8235611f5c81611f2c565b946020939093013593505050565b6001600160401b0381168114610b6b575f5ffd5b8035611f8981611f6a565b919050565b634e487b7160e01b5f52604160045260245ffd5b60405161010081016001600160401b0381118282101715611fc557611fc5611f8e565b60405290565b6040516101a081016001600160401b0381118282101715611fc557611fc5611f8e565b604051601f8201601f191681016001600160401b038111828210171561201657612016611f8e565b604052919050565b5f6001600160401b0382111561203657612036611f8e565b50601f01601f191660200190565b5f82601f830112612053575f5ffd5b8135602083015f61206b6120668461201e565b611fee565b905082815285838301111561207e575f5ffd5b828260208301375f92810160200192909252509392505050565b5f5f5f5f608085870312156120ab575f5ffd5b84356120b681611f6a565b935060208501356120c681611f6a565b925060408501356001600160401b038111156120e0575f5ffd5b6120ec87828801612044565b92505060608501356001600160401b03811115612107575f5ffd5b61211387828801612044565b91505092959194509250565b5f5f5f60608486031215612131575f5ffd5b833561213c81611f2c565b9250602084013561214c81611f2c565b929592945050506040919091013590565b5f6020828403121561216d575f5ffd5b8135611f2581611f2c565b5f5f5f5f6080858703121561218b575f5ffd5b843561219681611f6a565b935060208501356121a681611f6a565b925060408501356121b681611f6a565b915060608501356001600160401b03811115612107575f5ffd5b8035611f8981611f2c565b5f5f5f5f5f8587036101808112156121f1575f5ffd5b6101008112156121ff575f5ffd5b50612208611fa2565b863561221381611f2c565b8152612221602088016121d0565b602082015261223260408801611f7e565b604082015261224360608801611f7e565b6060820152612254608088016121d0565b608082015261226560a08801611f7e565b60a082015261227660c08801611f7e565b60c082015261228760e08801611f7e565b60e0820152945061229b6101008701611f7e565b93506122aa6101208701611f7e565b92506122b96101408701611f7e565b91506122c86101608701611f7e565b90509295509295909350565b6001600160401b0383168152604060208201525f6122f56040830184611ee5565b949350505050565b6001600160a01b0391909116815260200190565b5f60208284031215612321575f5ffd5b81356001600160401b03811115612336575f5ffd5b6122f584828501612044565b6060810181835f5b60038110156123725781516001600160401b031683526020928301929091019060010161234a565b50505092915050565b5f5f6040838503121561238c575f5ffd5b82356001600160401b038111156123a1575f5ffd5b6123ad85828601612044565b92505060208301356001600160401b038111156123c8575f5ffd5b6123d485828601612044565b9150509250929050565b5f5f604083850312156123ef575f5ffd5b82356123fa81611f2c565b9150602083013561240a81611f2c565b809150509250929050565b600181811c9082168061242957607f821691505b60208210810361244757634e487b7160e01b5f52602260045260245ffd5b50919050565b8051611f8981611f2c565b8051611f8981611f6a565b5f610100828403128015612475575f5ffd5b5061247e611fa2565b825161248981611f2c565b81526124976020840161244d565b60208201526124a860408401612458565b60408201526124b960608401612458565b60608201526124ca6080840161244d565b60808201526124db60a08401612458565b60a08201526124ec60c08401612458565b60c08201526124fd60e08401612458565b60e08201529392505050565b5f60208284031215612519575f5ffd5b81518015158114611f25575f5ffd5b6001600160a01b0393841681529183166020830152909116604082015260600190565b601f82111561126957805f5260205f20601f840160051c810160208510156125705750805b601f840160051c820191505b8181101561258f575f815560010161257c565b5050505050565b81516001600160401b038111156125af576125af611f8e565b6125c3816125bd8454612415565b8461254b565b6020601f8211600181146125f5575f83156125de5750848201515b5f19600385901b1c1916600184901b17845561258f565b5f84815260208120601f198516915b828110156126245787850151825560209485019460019092019101612604565b508482101561264157868401515f19600387901b60f8161c191681555b50505050600190811b01905550565b634e487b7160e01b5f52601160045260245ffd5b8082018082111561050d5761050d612650565b6001815b60018411156126b25780850481111561269657612696612650565b60018416156126a457908102905b60019390931c92800261267b565b935093915050565b5f826126c85750600161050d565b816126d457505f61050d565b81600181146126ea57600281146126f457612710565b600191505061050d565b60ff84111561270557612705612650565b50506001821b61050d565b5060208310610133831016604e8410600b8410161715612733575081810a61050d565b61273f5f198484612677565b805f190482111561275257612752612650565b029392505050565b5f611f2560ff8416836126ba565b808202811582820484141761050d5761050d612650565b634e487b7160e01b5f52601260045260245ffd5b5f826127a1576127a161277f565b500490565b6001600160a01b039384168152919092166020820152604081019190915260600190565b5f602082840312156127da575f5ffd5b81516001600160401b038111156127ef575f5ffd5b8201601f810184136127ff575f5ffd5b805161280d6120668261201e565b818152856020838501011115612821575f5ffd5b8160208401602083015e5f91810160200191909152949350505050565b6d02732b2b21020b8383937bb32b2160951b81525f82518060208501600e85015e5f9201600e0191825250919050565b634e487b7160e01b5f52603260045260245ffd5b8181038181111561050d5761050d612650565b5f602082840312156128a5575f5ffd5b8151611f2581611f6a565b5f826128be576128be61277f565b500690565b6001600160401b03818116838216019081111561050d5761050d612650565b5f600182016128f3576128f3612650565b5060010190565b634e487b7160e01b5f52603160045260245ffd5b5f606082840312801561291f575f5ffd5b50604051606081016001600160401b038111828210171561294257612942611f8e565b604052825161295081611f2c565b8152602083015161296081611f2c565b6020820152604083015161297381611f6a565b60408201529392505050565b5f6101a0828403128015612991575f5ffd5b5061299a611fcb565b6129a383612458565b81526129b160208401612458565b60208201526129c260408401612458565b60408201526129d360608401612458565b60608201526129e460808401612458565b60808201526129f560a08401612458565b60a0820152612a0660c08401612458565b60c0820152612a1760e08401612458565b60e0820152612a296101008401612458565b610100820152612a3c6101208401612458565b610120820152612a4f6101408401612458565b610140820152612a626101608401612458565b610160820152612a756101808401612458565b6101808201529392505050565b5f5f60408385031215612a93575f5ffd5b8251612a9e81611f6a565b602084015190925061240a81611f6a565b6001600160a01b039788168152958716602087015293861660408601529185166060850152909316608083015260a082019290925260c081019190915260e0019056fea26469706673582212204b84549a1db198e5f24260f4daac0f7f0505e81a4c4b07daf9707ed1b21cbeec64736f6c634300081b0033",
			"opcodes": "PUSH1 0x80 PUSH1 0x40 MSTORE CALLVALUE DUP1 ISZERO PUSH2 0xF JUMPI PUSH0 PUSH0 REVERT JUMPDEST POP PUSH1 0x40 MLOAD PUSH2 0x368C CODESIZE SUB DUP1 PUSH2 0x368C DUP4 CODECOPY DUP2 ADD PUSH1 0x40 DUP2 SWAP1 MSTORE PUSH2 0x2E SWAP2 PUSH2 0x824 JUMP JUMPDEST PUSH1 0x40 MLOAD DUP1 PUSH1 0x40 ADD PUSH1 0x40 MSTORE DUP1 PUSH1 0x10 DUP2 MSTORE PUSH1 0x20 ADD PUSH16 0x10D210551313D1C8131A5890DC9E5C1D PUSH1 0x82 SHL DUP2 MSTORE POP PUSH1 0x40 MLOAD DUP1 PUSH1 0x40 ADD PUSH1 0x40 MSTORE DUP1 PUSH1 0x8 DUP2 MSTORE PUSH1 0x20 ADD PUSH8 0x131A5890DC9E5C1D PUSH1 0xC2 SHL DUP2 MSTORE POP DUP3 PUSH1 0x1 PUSH1 0x1 PUSH1 0xA0 SHL SUB AND PUSH4 0x6FB7329C PUSH1 0x40 MLOAD DUP2 PUSH4 0xFFFFFFFF AND PUSH1 0xE0 SHL DUP2 MSTORE PUSH1 0x4 ADD PUSH1 0x20 PUSH1 0x40 MLOAD DUP1 DUP4 SUB DUP2 DUP7 GAS STATICCALL ISZERO DUP1 ISZERO PUSH2 0xB4 JUMPI RETURNDATASIZE PUSH0 PUSH0 RETURNDATACOPY RETURNDATASIZE PUSH0 REVERT JUMPDEST POP POP POP POP PUSH1 0x40 MLOAD RETURNDATASIZE PUSH1 0x1F NOT PUSH1 0x1F DUP3 ADD AND DUP3 ADD DUP1 PUSH1 0x40 MSTORE POP DUP2 ADD SWAP1 PUSH2 0xD8 SWAP2 SWAP1 PUSH2 0x824 JUMP JUMPDEST CALLER DUP1 PUSH2 0x10A JUMPI PUSH1 0x40 MLOAD PUSH4 0x36030219 PUSH1 0xE2 SHL DUP2 MSTORE ORIGIN PUSH1 0x4 DUP3 ADD MSTORE PUSH0 PUSH1 0x24 DUP3 ADD MSTORE ADDRESS PUSH1 0x44 DUP3 ADD MSTORE PUSH1 0x64 ADD JUMPDEST PUSH1 0x40 MLOAD DUP1 SWAP2 SUB SWAP1 REVERT JUMPDEST PUSH2 0x115 DUP2 PUSH1 0x1 PUSH2 0x58A JUMP JUMPDEST POP PUSH1 0x4 PUSH2 0x122 DUP5 DUP3 PUSH2 0x8DE JUMP JUMPDEST POP PUSH1 0x5 PUSH2 0x12F DUP4 DUP3 PUSH2 0x8DE JUMP JUMPDEST POP PUSH1 0x6 DUP1 SLOAD PUSH1 0x1 PUSH1 0x1 PUSH1 0xA0 SHL SUB NOT AND PUSH1 0x1 PUSH1 0x1 PUSH1 0xA0 SHL SUB DUP4 AND SWAP1 DUP2 OR SWAP1 SWAP2 SSTORE PUSH1 0x40 DUP1 MLOAD PUSH4 0x604A6FA9 PUSH1 0xE0 SHL DUP2 MSTORE SWAP1 MLOAD PUSH3 0x1B207 SWAP3 SWAP2 PUSH4 0x604A6FA9 SWAP2 PUSH1 0x4 DUP1 DUP4 ADD SWAP3 PUSH1 0x20 SWAP3 SWAP2 SWAP1 DUP3 SWAP1 SUB ADD DUP2 PUSH0 DUP8 GAS CALL ISZERO DUP1 ISZERO PUSH2 0x18D JUMPI RETURNDATASIZE PUSH0 PUSH0 RETURNDATACOPY RETURNDATASIZE PUSH0 REVERT JUMPDEST POP POP POP POP PUSH1 0x40 MLOAD RETURNDATASIZE PUSH1 0x1F NOT PUSH1 0x1F DUP3 ADD AND DUP3 ADD DUP1 PUSH1 0x40 MSTORE POP DUP2 ADD SWAP1 PUSH2 0x1B1 SWAP2 SWAP1 PUSH2 0x998 JUMP JUMPDEST PUSH2 0x1BB SWAP2 SWAP1 PUSH2 0x9D2 JUMP JUMPDEST PUSH1 0x1 PUSH1 0x1 PUSH1 0x40 SHL SUB AND PUSH1 0x7 DUP2 SWAP1 SSTORE POP PUSH0 PUSH1 0xA PUSH1 0x7 SLOAD PUSH1 0x6 PUSH0 SWAP1 SLOAD SWAP1 PUSH2 0x100 EXP SWAP1 DIV PUSH1 0x1 PUSH1 0x1 PUSH1 0xA0 SHL SUB AND PUSH1 0x1 PUSH1 0x1 PUSH1 0xA0 SHL SUB AND PUSH4 0x604A6FA9 PUSH1 0x40 MLOAD DUP2 PUSH4 0xFFFFFFFF AND PUSH1 0xE0 SHL DUP2 MSTORE PUSH1 0x4 ADD PUSH1 0x20 PUSH1 0x40 MLOAD DUP1 DUP4 SUB DUP2 PUSH0 DUP8 GAS CALL ISZERO DUP1 ISZERO PUSH2 0x221 JUMPI RETURNDATASIZE PUSH0 PUSH0 RETURNDATACOPY RETURNDATASIZE PUSH0 REVERT JUMPDEST POP POP POP POP PUSH1 0x40 MLOAD RETURNDATASIZE PUSH1 0x1F NOT PUSH1 0x1F DUP3 ADD AND DUP3 ADD DUP1 PUSH1 0x40 MSTORE POP DUP2 ADD SWAP1 PUSH2 0x245 SWAP2 SWAP1 PUSH2 0x998 JUMP JUMPDEST PUSH1 0x1 PUSH1 0x1 PUSH1 0x40 SHL SUB AND PUSH2 0x258 SWAP2 SWAP1 PUSH2 0xA00 JUMP JUMPDEST PUSH2 0x262 SWAP2 SWAP1 PUSH2 0xA27 JUMP JUMPDEST SWAP1 POP PUSH2 0x283 ORIGIN PUSH2 0x274 PUSH1 0x12 PUSH1 0xA PUSH2 0xB1F JUMP JUMPDEST PUSH2 0x27E SWAP1 DUP5 PUSH2 0xB2D JUMP JUMPDEST PUSH2 0x5DD JUMP JUMPDEST PUSH2 0x2CD PUSH20 0x24F0154C1DCE548ADF15DA2098FDD8B8A3B8151D PUSH2 0x2A7 PUSH1 0x12 PUSH1 0xA PUSH2 0xB1F JUMP JUMPDEST PUSH2 0x2B2 SWAP1 PUSH1 0x1 PUSH2 0xB2D JUMP JUMPDEST PUSH1 0x1 PUSH1 0x1 PUSH1 0xA0 SHL SUB SWAP1 SWAP2 AND PUSH0 SWAP1 DUP2 MSTORE PUSH1 0x8 PUSH1 0x20 MSTORE PUSH1 0x40 SWAP1 KECCAK256 SSTORE JUMP JUMPDEST POP POP PUSH1 0xA DUP1 SLOAD PUSH1 0x1 PUSH1 0x1 PUSH1 0xA0 SHL SUB NOT AND PUSH1 0x1 PUSH1 0x1 PUSH1 0xA0 SHL SUB DUP6 AND OR SWAP1 SSTORE POP PUSH2 0x2F6 SWAP1 POP DUP2 PUSH2 0x5EC JUMP JUMPDEST PUSH1 0xA PUSH0 SWAP1 SLOAD SWAP1 PUSH2 0x100 EXP SWAP1 DIV PUSH1 0x1 PUSH1 0x1 PUSH1 0xA0 SHL SUB AND PUSH1 0x1 PUSH1 0x1 PUSH1 0xA0 SHL SUB AND PUSH4 0x9FF43001 PUSH1 0x40 MLOAD DUP2 PUSH4 0xFFFFFFFF AND PUSH1 0xE0 SHL DUP2 MSTORE PUSH1 0x4 ADD PUSH1 0x20 PUSH1 0x40 MLOAD DUP1 DUP4 SUB DUP2 PUSH0 DUP8 GAS CALL ISZERO DUP1 ISZERO PUSH2 0x347 JUMPI RETURNDATASIZE PUSH0 PUSH0 RETURNDATACOPY RETURNDATASIZE PUSH0 REVERT JUMPDEST POP POP POP POP PUSH1 0x40 MLOAD RETURNDATASIZE PUSH1 0x1F NOT PUSH1 0x1F DUP3 ADD AND DUP3 ADD DUP1 PUSH1 0x40 MSTORE POP DUP2 ADD SWAP1 PUSH2 0x36B SWAP2 SWAP1 PUSH2 0x824 JUMP JUMPDEST PUSH1 0x1 PUSH1 0x1 PUSH1 0xA0 SHL SUB AND PUSH4 0x76FADE90 PUSH1 0x40 MLOAD DUP2 PUSH4 0xFFFFFFFF AND PUSH1 0xE0 SHL DUP2 MSTORE PUSH1 0x4 ADD PUSH1 0x20 PUSH1 0x40 MLOAD DUP1 DUP4 SUB DUP2 PUSH0 DUP8 GAS CALL ISZERO DUP1 ISZERO PUSH2 0x3A7 JUMPI RETURNDATASIZE PUSH0 PUSH0 RETURNDATACOPY RETURNDATASIZE PUSH0 REVERT JUMPDEST POP POP POP POP PUSH1 0x40 MLOAD RETURNDATASIZE PUSH1 0x1F NOT PUSH1 0x1F DUP3 ADD AND DUP3 ADD DUP1 PUSH1 0x40 MSTORE POP DUP2 ADD SWAP1 PUSH2 0x3CB SWAP2 SWAP1 PUSH2 0x824 JUMP JUMPDEST PUSH1 0x1 PUSH1 0x1 PUSH1 0xA0 SHL SUB AND PUSH4 0xB5095168 PUSH1 0x40 MLOAD DUP2 PUSH4 0xFFFFFFFF AND PUSH1 0xE0 SHL DUP2 MSTORE PUSH1 0x4 ADD PUSH1 0x20 PUSH1 0x40 MLOAD DUP1 DUP4 SUB DUP2 PUSH0 DUP8 GAS CALL ISZERO DUP1 ISZERO PUSH2 0x407 JUMPI RETURNDATASIZE PUSH0 PUSH0 RETURNDATACOPY RETURNDATASIZE PUSH0 REVERT JUMPDEST POP POP POP POP PUSH1 0x40 MLOAD RETURNDATASIZE PUSH1 0x1F NOT PUSH1 0x1F DUP3 ADD AND DUP3 ADD DUP1 PUSH1 0x40 MSTORE POP DUP2 ADD SWAP1 PUSH2 0x42B SWAP2 SWAP1 PUSH2 0x824 JUMP JUMPDEST PUSH1 0x1 PUSH1 0x1 PUSH1 0xA0 SHL SUB AND PUSH4 0x4CDE872D PUSH1 0x40 MLOAD DUP2 PUSH4 0xFFFFFFFF AND PUSH1 0xE0 SHL DUP2 MSTORE PUSH1 0x4 ADD PUSH1 0x20 PUSH1 0x40 MLOAD DUP1 DUP4 SUB DUP2 PUSH0 DUP8 GAS CALL ISZERO DUP1 ISZERO PUSH2 0x467 JUMPI RETURNDATASIZE PUSH0 PUSH0 RETURNDATACOPY RETURNDATASIZE PUSH0 REVERT JUMPDEST POP POP POP POP PUSH1 0x40 MLOAD RETURNDATASIZE PUSH1 0x1F NOT PUSH1 0x1F DUP3 ADD AND DUP3 ADD DUP1 PUSH1 0x40 MSTORE POP DUP2 ADD SWAP1 PUSH2 0x48B SWAP2 SWAP1 PUSH2 0x824 JUMP JUMPDEST PUSH1 0x1 PUSH1 0x1 PUSH1 0xA0 SHL SUB AND PUSH4 0x140C2FB5 PUSH1 0x40 MLOAD DUP2 PUSH4 0xFFFFFFFF AND PUSH1 0xE0 SHL DUP2 MSTORE PUSH1 0x4 ADD PUSH1 0x20 PUSH1 0x40 MLOAD DUP1 DUP4 SUB DUP2 PUSH0 DUP8 GAS CALL ISZERO DUP1 ISZERO PUSH2 0x4C7 JUMPI RETURNDATASIZE PUSH0 PUSH0 RETURNDATACOPY RETURNDATASIZE PUSH0 REVERT JUMPDEST POP POP POP POP PUSH1 0x40 MLOAD RETURNDATASIZE PUSH1 0x1F NOT PUSH1 0x1F DUP3 ADD AND DUP3 ADD DUP1 PUSH1 0x40 MSTORE POP DUP2 ADD SWAP1 PUSH2 0x4EB SWAP2 SWAP1 PUSH2 0x824 JUMP JUMPDEST PUSH1 0x9 DUP1 SLOAD PUSH1 0x1 PUSH1 0x1 PUSH1 0xA0 SHL SUB NOT AND PUSH1 0x1 PUSH1 0x1 PUSH1 0xA0 SHL SUB SWAP3 DUP4 AND OR SWAP1 SSTORE PUSH1 0xA SLOAD PUSH1 0x40 DUP1 MLOAD PUSH4 0x39DD2CE9 PUSH1 0xE2 SHL DUP2 MSTORE PUSH1 0x4 DUP2 ADD SWAP2 SWAP1 SWAP2 MSTORE PUSH1 0x7 PUSH1 0x44 DUP3 ADD MSTORE PUSH7 0x195B98DC9E5C1D PUSH1 0xCA SHL PUSH1 0x64 DUP3 ADD MSTORE ADDRESS PUSH1 0x24 DUP3 ADD MSTORE SWAP2 AND SWAP1 PUSH4 0xE774B3A4 SWAP1 PUSH1 0x84 ADD PUSH0 PUSH1 0x40 MLOAD DUP1 DUP4 SUB DUP2 PUSH0 DUP8 DUP1 EXTCODESIZE ISZERO DUP1 ISZERO PUSH2 0x560 JUMPI PUSH0 PUSH0 REVERT JUMPDEST POP GAS CALL ISZERO DUP1 ISZERO PUSH2 0x572 JUMPI RETURNDATASIZE PUSH0 PUSH0 RETURNDATACOPY RETURNDATASIZE PUSH0 REVERT JUMPDEST POP POP POP POP PUSH2 0x584 PUSH2 0x637 PUSH1 0x20 SHL PUSH1 0x20 SHR JUMP JUMPDEST POP PUSH2 0xB57 JUMP JUMPDEST PUSH1 0x1 PUSH1 0x1 PUSH1 0xA0 SHL SUB DUP3 AND PUSH0 DUP2 DUP2 MSTORE PUSH1 0x20 DUP2 SWAP1 MSTORE PUSH1 0x40 DUP1 DUP3 KECCAK256 DUP1 SLOAD PUSH1 0xFF NOT AND DUP6 ISZERO ISZERO SWAP1 DUP2 OR SWAP1 SWAP2 SSTORE SWAP1 MLOAD SWAP1 SWAP3 SWAP2 PUSH32 0x6BFA7E860C3E9BF67B810CB88276B19B27C972812BAC04793D369B59A1183A83 SWAP2 LOG3 POP POP JUMP JUMPDEST PUSH2 0x5E8 PUSH0 DUP4 DUP4 PUSH2 0x676 JUMP JUMPDEST POP POP JUMP JUMPDEST PUSH2 0x5F4 PUSH2 0x7B6 JUMP JUMPDEST PUSH1 0x1 PUSH1 0x1 PUSH1 0xA0 SHL SUB DUP2 AND PUSH2 0x629 JUMPI PUSH1 0x40 MLOAD PUSH4 0x36030219 PUSH1 0xE2 SHL DUP2 MSTORE ORIGIN PUSH1 0x4 DUP3 ADD MSTORE PUSH0 PUSH1 0x24 DUP3 ADD MSTORE ADDRESS PUSH1 0x44 DUP3 ADD MSTORE PUSH1 0x64 ADD PUSH2 0x101 JUMP JUMPDEST PUSH2 0x634 DUP2 PUSH1 0x1 PUSH2 0x58A JUMP JUMPDEST POP JUMP JUMPDEST PUSH2 0x643 PUSH1 0x12 PUSH1 0xA PUSH2 0xB1F JUMP JUMPDEST PUSH1 0x7 SLOAD PUSH2 0x650 SWAP2 SWAP1 PUSH2 0xB2D JUMP JUMPDEST PUSH1 0x3 SLOAD LT ISZERO PUSH2 0x674 JUMPI PUSH2 0x674 ADDRESS PUSH2 0x669 PUSH1 0x12 PUSH1 0xA PUSH2 0xB1F JUMP JUMPDEST PUSH2 0x27E SWAP1 PUSH1 0x1 PUSH2 0xB2D JUMP JUMPDEST JUMP JUMPDEST PUSH1 0x1 PUSH1 0x1 PUSH1 0xA0 SHL SUB DUP4 AND PUSH2 0x6A0 JUMPI DUP1 PUSH1 0x3 PUSH0 DUP3 DUP3 SLOAD PUSH2 0x695 SWAP2 SWAP1 PUSH2 0xB44 JUMP JUMPDEST SWAP1 SWAP2 SSTORE POP PUSH2 0x72A SWAP1 POP JUMP JUMPDEST PUSH1 0x1 PUSH1 0x1 PUSH1 0xA0 SHL SUB DUP4 AND PUSH0 SWAP1 DUP2 MSTORE PUSH1 0x1 PUSH1 0x20 MSTORE PUSH1 0x40 SWAP1 KECCAK256 SLOAD DUP2 DUP2 LT ISZERO PUSH2 0x70C JUMPI PUSH1 0x40 MLOAD PUSH4 0xF7D0BBD PUSH1 0xE2 SHL DUP2 MSTORE ORIGIN PUSH1 0x4 DUP3 ADD MSTORE CALLER PUSH1 0x24 DUP3 ADD MSTORE PUSH1 0x1 PUSH1 0x1 PUSH1 0xA0 SHL SUB DUP1 DUP7 AND PUSH1 0x44 DUP4 ADD MSTORE DUP5 AND PUSH1 0x64 DUP3 ADD MSTORE ADDRESS PUSH1 0x84 DUP3 ADD MSTORE PUSH1 0xA4 DUP2 ADD DUP3 SWAP1 MSTORE PUSH1 0xC4 DUP2 ADD DUP4 SWAP1 MSTORE PUSH1 0xE4 ADD PUSH2 0x101 JUMP JUMPDEST PUSH1 0x1 PUSH1 0x1 PUSH1 0xA0 SHL SUB DUP5 AND PUSH0 SWAP1 DUP2 MSTORE PUSH1 0x1 PUSH1 0x20 MSTORE PUSH1 0x40 SWAP1 KECCAK256 SWAP1 DUP3 SWAP1 SUB SWAP1 SSTORE JUMPDEST PUSH1 0x1 PUSH1 0x1 PUSH1 0xA0 SHL SUB DUP3 AND PUSH2 0x746 JUMPI PUSH1 0x3 DUP1 SLOAD DUP3 SWAP1 SUB SWAP1 SSTORE PUSH2 0x764 JUMP JUMPDEST PUSH1 0x1 PUSH1 0x1 PUSH1 0xA0 SHL SUB DUP3 AND PUSH0 SWAP1 DUP2 MSTORE PUSH1 0x1 PUSH1 0x20 MSTORE PUSH1 0x40 SWAP1 KECCAK256 DUP1 SLOAD DUP3 ADD SWAP1 SSTORE JUMPDEST DUP2 PUSH1 0x1 PUSH1 0x1 PUSH1 0xA0 SHL SUB AND DUP4 PUSH1 0x1 PUSH1 0x1 PUSH1 0xA0 SHL SUB AND PUSH32 0xDDF252AD1BE2C89B69C2B068FC378DAA952BA7F163C4A11628F55A4DF523B3EF DUP4 PUSH1 0x40 MLOAD PUSH2 0x7A9 SWAP2 DUP2 MSTORE PUSH1 0x20 ADD SWAP1 JUMP JUMPDEST PUSH1 0x40 MLOAD DUP1 SWAP2 SUB SWAP1 LOG3 POP POP POP JUMP JUMPDEST CALLER PUSH0 SWAP1 DUP2 MSTORE PUSH1 0x20 DUP2 SWAP1 MSTORE PUSH1 0x40 SWAP1 KECCAK256 SLOAD PUSH1 0xFF AND ISZERO DUP1 ISZERO PUSH2 0x7E4 JUMPI POP ORIGIN PUSH0 SWAP1 DUP2 MSTORE PUSH1 0x20 DUP2 SWAP1 MSTORE PUSH1 0x40 SWAP1 KECCAK256 SLOAD PUSH1 0xFF AND ISZERO JUMPDEST ISZERO PUSH2 0x674 JUMPI PUSH1 0x40 MLOAD PUSH4 0xBE6BAB5 PUSH1 0xE0 SHL DUP2 MSTORE ORIGIN PUSH1 0x4 DUP3 ADD MSTORE CALLER PUSH1 0x24 DUP3 ADD MSTORE ADDRESS PUSH1 0x44 DUP3 ADD MSTORE PUSH1 0x64 ADD PUSH2 0x101 JUMP JUMPDEST PUSH1 0x1 PUSH1 0x1 PUSH1 0xA0 SHL SUB DUP2 AND DUP2 EQ PUSH2 0x634 JUMPI PUSH0 PUSH0 REVERT JUMPDEST PUSH0 PUSH1 0x20 DUP3 DUP5 SUB SLT ISZERO PUSH2 0x834 JUMPI PUSH0 PUSH0 REVERT JUMPDEST DUP2 MLOAD PUSH2 0x83F DUP2 PUSH2 0x810 JUMP JUMPDEST SWAP4 SWAP3 POP POP POP JUMP JUMPDEST PUSH4 0x4E487B71 PUSH1 0xE0 SHL PUSH0 MSTORE PUSH1 0x41 PUSH1 0x4 MSTORE PUSH1 0x24 PUSH0 REVERT JUMPDEST PUSH1 0x1 DUP2 DUP2 SHR SWAP1 DUP3 AND DUP1 PUSH2 0x86E JUMPI PUSH1 0x7F DUP3 AND SWAP2 POP JUMPDEST PUSH1 0x20 DUP3 LT DUP2 SUB PUSH2 0x88C JUMPI PUSH4 0x4E487B71 PUSH1 0xE0 SHL PUSH0 MSTORE PUSH1 0x22 PUSH1 0x4 MSTORE PUSH1 0x24 PUSH0 REVERT JUMPDEST POP SWAP2 SWAP1 POP JUMP JUMPDEST PUSH1 0x1F DUP3 GT ISZERO PUSH2 0x8D9 JUMPI DUP1 PUSH0 MSTORE PUSH1 0x20 PUSH0 KECCAK256 PUSH1 0x1F DUP5 ADD PUSH1 0x5 SHR DUP2 ADD PUSH1 0x20 DUP6 LT ISZERO PUSH2 0x8B7 JUMPI POP DUP1 JUMPDEST PUSH1 0x1F DUP5 ADD PUSH1 0x5 SHR DUP3 ADD SWAP2 POP JUMPDEST DUP2 DUP2 LT ISZERO PUSH2 0x8D6 JUMPI PUSH0 DUP2 SSTORE PUSH1 0x1 ADD PUSH2 0x8C3 JUMP JUMPDEST POP POP JUMPDEST POP POP POP JUMP JUMPDEST DUP2 MLOAD PUSH1 0x1 PUSH1 0x1 PUSH1 0x40 SHL SUB DUP2 GT ISZERO PUSH2 0x8F7 JUMPI PUSH2 0x8F7 PUSH2 0x846 JUMP JUMPDEST PUSH2 0x90B DUP2 PUSH2 0x905 DUP5 SLOAD PUSH2 0x85A JUMP JUMPDEST DUP5 PUSH2 0x892 JUMP JUMPDEST PUSH1 0x20 PUSH1 0x1F DUP3 GT PUSH1 0x1 DUP2 EQ PUSH2 0x93D JUMPI PUSH0 DUP4 ISZERO PUSH2 0x926 JUMPI POP DUP5 DUP3 ADD MLOAD JUMPDEST PUSH0 NOT PUSH1 0x3 DUP6 SWAP1 SHL SHR NOT AND PUSH1 0x1 DUP5 SWAP1 SHL OR DUP5 SSTORE PUSH2 0x8D6 JUMP JUMPDEST PUSH0 DUP5 DUP2 MSTORE PUSH1 0x20 DUP2 KECCAK256 PUSH1 0x1F NOT DUP6 AND SWAP2 JUMPDEST DUP3 DUP2 LT ISZERO PUSH2 0x96C JUMPI DUP8 DUP6 ADD MLOAD DUP3 SSTORE PUSH1 0x20 SWAP5 DUP6 ADD SWAP5 PUSH1 0x1 SWAP1 SWAP3 ADD SWAP2 ADD PUSH2 0x94C JUMP JUMPDEST POP DUP5 DUP3 LT ISZERO PUSH2 0x989 JUMPI DUP7 DUP5 ADD MLOAD PUSH0 NOT PUSH1 0x3 DUP8 SWAP1 SHL PUSH1 0xF8 AND SHR NOT AND DUP2 SSTORE JUMPDEST POP POP POP POP PUSH1 0x1 SWAP1 DUP2 SHL ADD SWAP1 SSTORE POP JUMP JUMPDEST PUSH0 PUSH1 0x20 DUP3 DUP5 SUB SLT ISZERO PUSH2 0x9A8 JUMPI PUSH0 PUSH0 REVERT JUMPDEST DUP2 MLOAD PUSH1 0x1 PUSH1 0x1 PUSH1 0x40 SHL SUB DUP2 AND DUP2 EQ PUSH2 0x83F JUMPI PUSH0 PUSH0 REVERT JUMPDEST PUSH4 0x4E487B71 PUSH1 0xE0 SHL PUSH0 MSTORE PUSH1 0x12 PUSH1 0x4 MSTORE PUSH1 0x24 PUSH0 REVERT JUMPDEST PUSH0 PUSH1 0x1 PUSH1 0x1 PUSH1 0x40 SHL SUB DUP4 AND DUP1 PUSH2 0x9EA JUMPI PUSH2 0x9EA PUSH2 0x9BE JUMP JUMPDEST PUSH1 0x1 PUSH1 0x1 PUSH1 0x40 SHL SUB SWAP3 SWAP1 SWAP3 AND SWAP2 SWAP1 SWAP2 MOD SWAP3 SWAP2 POP POP JUMP JUMPDEST PUSH0 DUP3 PUSH2 0xA0E JUMPI PUSH2 0xA0E PUSH2 0x9BE JUMP JUMPDEST POP MOD SWAP1 JUMP JUMPDEST PUSH4 0x4E487B71 PUSH1 0xE0 SHL PUSH0 MSTORE PUSH1 0x11 PUSH1 0x4 MSTORE PUSH1 0x24 PUSH0 REVERT JUMPDEST PUSH0 DUP3 PUSH2 0xA35 JUMPI PUSH2 0xA35 PUSH2 0x9BE JUMP JUMPDEST POP DIV SWAP1 JUMP JUMPDEST PUSH1 0x1 DUP2 JUMPDEST PUSH1 0x1 DUP5 GT ISZERO PUSH2 0xA75 JUMPI DUP1 DUP6 DIV DUP2 GT ISZERO PUSH2 0xA59 JUMPI PUSH2 0xA59 PUSH2 0xA13 JUMP JUMPDEST PUSH1 0x1 DUP5 AND ISZERO PUSH2 0xA67 JUMPI SWAP1 DUP2 MUL SWAP1 JUMPDEST PUSH1 0x1 SWAP4 SWAP1 SWAP4 SHR SWAP3 DUP1 MUL PUSH2 0xA3E JUMP JUMPDEST SWAP4 POP SWAP4 SWAP2 POP POP JUMP JUMPDEST PUSH0 DUP3 PUSH2 0xA8B JUMPI POP PUSH1 0x1 PUSH2 0xB19 JUMP JUMPDEST DUP2 PUSH2 0xA97 JUMPI POP PUSH0 PUSH2 0xB19 JUMP JUMPDEST DUP2 PUSH1 0x1 DUP2 EQ PUSH2 0xAAD JUMPI PUSH1 0x2 DUP2 EQ PUSH2 0xAB7 JUMPI PUSH2 0xAD3 JUMP JUMPDEST PUSH1 0x1 SWAP2 POP POP PUSH2 0xB19 JUMP JUMPDEST PUSH1 0xFF DUP5 GT ISZERO PUSH2 0xAC8 JUMPI PUSH2 0xAC8 PUSH2 0xA13 JUMP JUMPDEST POP POP PUSH1 0x1 DUP3 SHL PUSH2 0xB19 JUMP JUMPDEST POP PUSH1 0x20 DUP4 LT PUSH2 0x133 DUP4 LT AND PUSH1 0x4E DUP5 LT PUSH1 0xB DUP5 LT AND OR ISZERO PUSH2 0xAF6 JUMPI POP DUP2 DUP2 EXP PUSH2 0xB19 JUMP JUMPDEST PUSH2 0xB02 PUSH0 NOT DUP5 DUP5 PUSH2 0xA3A JUMP JUMPDEST DUP1 PUSH0 NOT DIV DUP3 GT ISZERO PUSH2 0xB15 JUMPI PUSH2 0xB15 PUSH2 0xA13 JUMP JUMPDEST MUL SWAP1 POP JUMPDEST SWAP3 SWAP2 POP POP JUMP JUMPDEST PUSH0 PUSH2 0x83F PUSH1 0xFF DUP5 AND DUP4 PUSH2 0xA7D JUMP JUMPDEST DUP1 DUP3 MUL DUP2 ISZERO DUP3 DUP3 DIV DUP5 EQ OR PUSH2 0xB19 JUMPI PUSH2 0xB19 PUSH2 0xA13 JUMP JUMPDEST DUP1 DUP3 ADD DUP1 DUP3 GT ISZERO PUSH2 0xB19 JUMPI PUSH2 0xB19 PUSH2 0xA13 JUMP JUMPDEST PUSH2 0x2B28 DUP1 PUSH2 0xB64 PUSH0 CODECOPY PUSH0 RETURN INVALID PUSH1 0x80 PUSH1 0x40 MSTORE CALLVALUE DUP1 ISZERO PUSH2 0xF JUMPI PUSH0 PUSH0 REVERT JUMPDEST POP PUSH1 0x4 CALLDATASIZE LT PUSH2 0x1AB JUMPI PUSH0 CALLDATALOAD PUSH1 0xE0 SHR DUP1 PUSH4 0x70A08231 GT PUSH2 0xEB JUMPI DUP1 PUSH4 0xD3DC2A0F GT PUSH2 0x8F JUMPI DUP1 PUSH4 0xD3DC2A0F EQ PUSH2 0x3E1 JUMPI DUP1 PUSH4 0xD5ABEB01 EQ PUSH2 0x3EF JUMPI DUP1 PUSH4 0xD8BE150F EQ PUSH2 0x3F8 JUMPI DUP1 PUSH4 0xDD62ED3E EQ PUSH2 0x400 JUMPI DUP1 PUSH4 0xF4E6C93F EQ PUSH2 0x413 JUMPI DUP1 PUSH4 0xF4F6C22C EQ PUSH2 0x41B JUMPI DUP1 PUSH4 0xF9A76E48 EQ PUSH2 0x42E JUMPI DUP1 PUSH4 0xFF762044 EQ PUSH2 0x441 JUMPI PUSH0 PUSH0 REVERT JUMPDEST DUP1 PUSH4 0x70A08231 EQ PUSH2 0x33F JUMPI DUP1 PUSH4 0x8CFBF772 EQ PUSH2 0x367 JUMPI DUP1 PUSH4 0x8DA5CB5B EQ PUSH2 0x37A JUMPI DUP1 PUSH4 0x8EF323B3 EQ PUSH2 0x380 JUMPI DUP1 PUSH4 0x95D89B41 EQ PUSH2 0x393 JUMPI DUP1 PUSH4 0x98C7299F EQ PUSH2 0x39B JUMPI DUP1 PUSH4 0x9DCBF7EA EQ PUSH2 0x3BB JUMPI DUP1 PUSH4 0xA9059CBB EQ PUSH2 0x3CE JUMPI PUSH0 PUSH0 REVERT JUMPDEST DUP1 PUSH4 0x2B83B1FC GT PUSH2 0x152 JUMPI DUP1 PUSH4 0x2B83B1FC EQ PUSH2 0x27B JUMPI DUP1 PUSH4 0x313CE567 EQ PUSH2 0x2A3 JUMPI DUP1 PUSH4 0x38BF3CFA EQ PUSH2 0x2B2 JUMPI DUP1 PUSH4 0x4317C04A EQ PUSH2 0x2C5 JUMPI DUP1 PUSH4 0x44A4A69C EQ PUSH2 0x2D8 JUMPI DUP1 PUSH4 0x666E1B39 EQ PUSH2 0x2F9 JUMPI DUP1 PUSH4 0x6FB7329C EQ PUSH2 0x30C JUMPI DUP1 PUSH4 0x7065CB48 EQ PUSH2 0x32C JUMPI PUSH0 PUSH0 REVERT JUMPDEST DUP1 PUSH4 0x6FDDE03 EQ PUSH2 0x1AF JUMPI DUP1 PUSH4 0x95EA7B3 EQ PUSH2 0x1CD JUMPI DUP1 PUSH4 0x1227290D EQ PUSH2 0x1F0 JUMPI DUP1 PUSH4 0x18160DDD EQ PUSH2 0x21B JUMPI DUP1 PUSH4 0x18AFCEE8 EQ PUSH2 0x22D JUMPI DUP1 PUSH4 0x222838DB EQ PUSH2 0x240 JUMPI DUP1 PUSH4 0x23B872DD EQ PUSH2 0x255 JUMPI DUP1 PUSH4 0x2499A533 EQ PUSH2 0x268 JUMPI JUMPDEST PUSH0 PUSH0 REVERT JUMPDEST PUSH2 0x1B7 PUSH2 0x46A JUMP JUMPDEST PUSH1 0x40 MLOAD PUSH2 0x1C4 SWAP2 SWAP1 PUSH2 0x1F13 JUMP JUMPDEST PUSH1 0x40 MLOAD DUP1 SWAP2 SUB SWAP1 RETURN JUMPDEST PUSH2 0x1E0 PUSH2 0x1DB CALLDATASIZE PUSH1 0x4 PUSH2 0x1F40 JUMP JUMPDEST PUSH2 0x4FA JUMP JUMPDEST PUSH1 0x40 MLOAD SWAP1 ISZERO ISZERO DUP2 MSTORE PUSH1 0x20 ADD PUSH2 0x1C4 JUMP JUMPDEST PUSH2 0x203 PUSH2 0x1FE CALLDATASIZE PUSH1 0x4 PUSH2 0x2098 JUMP JUMPDEST PUSH2 0x513 JUMP JUMPDEST PUSH1 0x40 MLOAD PUSH1 0x1 PUSH1 0x1 PUSH1 0x40 SHL SUB SWAP1 SWAP2 AND DUP2 MSTORE PUSH1 0x20 ADD PUSH2 0x1C4 JUMP JUMPDEST PUSH1 0x3 SLOAD JUMPDEST PUSH1 0x40 MLOAD SWAP1 DUP2 MSTORE PUSH1 0x20 ADD PUSH2 0x1C4 JUMP JUMPDEST PUSH2 0x203 PUSH2 0x23B CALLDATASIZE PUSH1 0x4 PUSH2 0x2098 JUMP JUMPDEST PUSH2 0x531 JUMP JUMPDEST PUSH2 0x253 PUSH2 0x24E CALLDATASIZE PUSH1 0x4 PUSH2 0x1F40 JUMP JUMPDEST PUSH2 0x78A JUMP JUMPDEST STOP JUMPDEST PUSH2 0x1E0 PUSH2 0x263 CALLDATASIZE PUSH1 0x4 PUSH2 0x211F JUMP JUMPDEST PUSH2 0x983 JUMP JUMPDEST PUSH2 0x253 PUSH2 0x276 CALLDATASIZE PUSH1 0x4 PUSH2 0x1F40 JUMP JUMPDEST PUSH2 0x9A6 JUMP JUMPDEST PUSH2 0x21F PUSH2 0x289 CALLDATASIZE PUSH1 0x4 PUSH2 0x215D JUMP JUMPDEST PUSH1 0x1 PUSH1 0x1 PUSH1 0xA0 SHL SUB AND PUSH0 SWAP1 DUP2 MSTORE PUSH1 0x8 PUSH1 0x20 MSTORE PUSH1 0x40 SWAP1 KECCAK256 SLOAD SWAP1 JUMP JUMPDEST PUSH1 0x40 MLOAD PUSH1 0x12 DUP2 MSTORE PUSH1 0x20 ADD PUSH2 0x1C4 JUMP JUMPDEST PUSH2 0x253 PUSH2 0x2C0 CALLDATASIZE PUSH1 0x4 PUSH2 0x215D JUMP JUMPDEST PUSH2 0xB59 JUMP JUMPDEST PUSH2 0x1B7 PUSH2 0x2D3 CALLDATASIZE PUSH1 0x4 PUSH2 0x2178 JUMP JUMPDEST PUSH2 0xB6E JUMP JUMPDEST PUSH2 0x2EB PUSH2 0x2E6 CALLDATASIZE PUSH1 0x4 PUSH2 0x21DB JUMP JUMPDEST PUSH2 0xE08 JUMP JUMPDEST PUSH1 0x40 MLOAD PUSH2 0x1C4 SWAP3 SWAP2 SWAP1 PUSH2 0x22D4 JUMP JUMPDEST PUSH2 0x1E0 PUSH2 0x307 CALLDATASIZE PUSH1 0x4 PUSH2 0x215D JUMP JUMPDEST PUSH2 0xFEC JUMP JUMPDEST PUSH1 0x6 SLOAD PUSH2 0x31F SWAP1 PUSH1 0x1 PUSH1 0x1 PUSH1 0xA0 SHL SUB AND DUP2 JUMP JUMPDEST PUSH1 0x40 MLOAD PUSH2 0x1C4 SWAP2 SWAP1 PUSH2 0x22FD JUMP JUMPDEST PUSH2 0x253 PUSH2 0x33A CALLDATASIZE PUSH1 0x4 PUSH2 0x215D JUMP JUMPDEST PUSH2 0x1009 JUMP JUMPDEST PUSH2 0x21F PUSH2 0x34D CALLDATASIZE PUSH1 0x4 PUSH2 0x215D JUMP JUMPDEST PUSH1 0x1 PUSH1 0x1 PUSH1 0xA0 SHL SUB AND PUSH0 SWAP1 DUP2 MSTORE PUSH1 0x1 PUSH1 0x20 MSTORE PUSH1 0x40 SWAP1 KECCAK256 SLOAD SWAP1 JUMP JUMPDEST PUSH2 0x1B7 PUSH2 0x375 CALLDATASIZE PUSH1 0x4 PUSH2 0x2178 JUMP JUMPDEST PUSH2 0x1049 JUMP JUMPDEST ADDRESS PUSH2 0x31F JUMP JUMPDEST PUSH2 0x203 PUSH2 0x38E CALLDATASIZE PUSH1 0x4 PUSH2 0x2311 JUMP JUMPDEST PUSH2 0x105F JUMP JUMPDEST PUSH2 0x1B7 PUSH2 0x10F7 JUMP JUMPDEST PUSH2 0x3AE PUSH2 0x3A9 CALLDATASIZE PUSH1 0x4 PUSH2 0x2311 JUMP JUMPDEST PUSH2 0x1106 JUMP JUMPDEST PUSH1 0x40 MLOAD PUSH2 0x1C4 SWAP2 SWAP1 PUSH2 0x2342 JUMP JUMPDEST PUSH2 0x253 PUSH2 0x3C9 CALLDATASIZE PUSH1 0x4 PUSH2 0x237B JUMP JUMPDEST PUSH2 0x1248 JUMP JUMPDEST PUSH2 0x1E0 PUSH2 0x3DC CALLDATASIZE PUSH1 0x4 PUSH2 0x1F40 JUMP JUMPDEST PUSH2 0x126E JUMP JUMPDEST PUSH2 0x203 PUSH7 0x3632C8EB5AF3B DUP2 JUMP JUMPDEST PUSH2 0x21F PUSH1 0x7 SLOAD DUP2 JUMP JUMPDEST PUSH2 0x253 PUSH2 0x127B JUMP JUMPDEST PUSH2 0x21F PUSH2 0x40E CALLDATASIZE PUSH1 0x4 PUSH2 0x23DE JUMP JUMPDEST PUSH2 0x13F0 JUMP JUMPDEST PUSH2 0x253 PUSH2 0x141A JUMP JUMPDEST PUSH1 0xA SLOAD PUSH2 0x31F SWAP1 PUSH1 0x1 PUSH1 0x1 PUSH1 0xA0 SHL SUB AND DUP2 JUMP JUMPDEST PUSH1 0x9 SLOAD PUSH2 0x31F SWAP1 PUSH1 0x1 PUSH1 0x1 PUSH1 0xA0 SHL SUB AND DUP2 JUMP JUMPDEST PUSH2 0x1B7 PUSH1 0x40 MLOAD DUP1 PUSH1 0x40 ADD PUSH1 0x40 MSTORE DUP1 PUSH1 0xA DUP2 MSTORE PUSH1 0x20 ADD PUSH10 0x131A58915B98DC9E5C1D PUSH1 0xB2 SHL DUP2 MSTORE POP DUP2 JUMP JUMPDEST PUSH1 0x60 PUSH1 0x4 DUP1 SLOAD PUSH2 0x479 SWAP1 PUSH2 0x2415 JUMP JUMPDEST DUP1 PUSH1 0x1F ADD PUSH1 0x20 DUP1 SWAP2 DIV MUL PUSH1 0x20 ADD PUSH1 0x40 MLOAD SWAP1 DUP2 ADD PUSH1 0x40 MSTORE DUP1 SWAP3 SWAP2 SWAP1 DUP2 DUP2 MSTORE PUSH1 0x20 ADD DUP3 DUP1 SLOAD PUSH2 0x4A5 SWAP1 PUSH2 0x2415 JUMP JUMPDEST DUP1 ISZERO PUSH2 0x4F0 JUMPI DUP1 PUSH1 0x1F LT PUSH2 0x4C7 JUMPI PUSH2 0x100 DUP1 DUP4 SLOAD DIV MUL DUP4 MSTORE SWAP2 PUSH1 0x20 ADD SWAP2 PUSH2 0x4F0 JUMP JUMPDEST DUP3 ADD SWAP2 SWAP1 PUSH0 MSTORE PUSH1 0x20 PUSH0 KECCAK256 SWAP1 JUMPDEST DUP2 SLOAD DUP2 MSTORE SWAP1 PUSH1 0x1 ADD SWAP1 PUSH1 0x20 ADD DUP1 DUP4 GT PUSH2 0x4D3 JUMPI DUP3 SWAP1 SUB PUSH1 0x1F AND DUP3 ADD SWAP2 JUMPDEST POP POP POP POP POP SWAP1 POP SWAP1 JUMP JUMPDEST PUSH0 CALLER PUSH2 0x507 DUP2 DUP6 DUP6 PUSH2 0x142A JUMP JUMPDEST PUSH1 0x1 SWAP2 POP POP JUMPDEST SWAP3 SWAP2 POP POP JUMP JUMPDEST PUSH0 PUSH2 0x51C PUSH2 0x1437 JUMP JUMPDEST PUSH2 0x528 DUP6 DUP6 DUP6 DUP6 PUSH2 0x531 JUMP JUMPDEST SWAP6 SWAP5 POP POP POP POP POP JUMP JUMPDEST PUSH1 0x9 SLOAD PUSH1 0x40 MLOAD PUSH4 0x2213C7D PUSH1 0xE1 SHL DUP2 MSTORE PUSH1 0x1 PUSH1 0x1 PUSH1 0x40 SHL SUB DUP7 AND PUSH1 0x4 DUP3 ADD MSTORE PUSH0 SWAP2 DUP3 SWAP2 PUSH1 0x1 PUSH1 0x1 PUSH1 0xA0 SHL SUB SWAP1 SWAP2 AND SWAP1 PUSH4 0x44278FA SWAP1 PUSH1 0x24 ADD PUSH2 0x100 PUSH1 0x40 MLOAD DUP1 DUP4 SUB DUP2 PUSH0 DUP8 GAS CALL ISZERO DUP1 ISZERO PUSH2 0x586 JUMPI RETURNDATASIZE PUSH0 PUSH0 RETURNDATACOPY RETURNDATASIZE PUSH0 REVERT JUMPDEST POP POP POP POP PUSH1 0x40 MLOAD RETURNDATASIZE PUSH1 0x1F NOT PUSH1 0x1F DUP3 ADD AND DUP3 ADD DUP1 PUSH1 0x40 MSTORE POP DUP2 ADD SWAP1 PUSH2 0x5AA SWAP2 SWAP1 PUSH2 0x2463 JUMP JUMPDEST PUSH1 0x9 SLOAD PUSH1 0x40 MLOAD PUSH4 0x2213C7D PUSH1 0xE1 SHL DUP2 MSTORE PUSH1 0x1 PUSH1 0x1 PUSH1 0x40 SHL SUB DUP9 AND PUSH1 0x4 DUP3 ADD MSTORE SWAP2 SWAP3 POP PUSH0 SWAP2 PUSH1 0x1 PUSH1 0x1 PUSH1 0xA0 SHL SUB SWAP1 SWAP2 AND SWAP1 PUSH4 0x44278FA SWAP1 PUSH1 0x24 ADD PUSH2 0x100 PUSH1 0x40 MLOAD DUP1 DUP4 SUB DUP2 PUSH0 DUP8 GAS CALL ISZERO DUP1 ISZERO PUSH2 0x600 JUMPI RETURNDATASIZE PUSH0 PUSH0 RETURNDATACOPY RETURNDATASIZE PUSH0 REVERT JUMPDEST POP POP POP POP PUSH1 0x40 MLOAD RETURNDATASIZE PUSH1 0x1F NOT PUSH1 0x1F DUP3 ADD AND DUP3 ADD DUP1 PUSH1 0x40 MSTORE POP DUP2 ADD SWAP1 PUSH2 0x624 SWAP2 SWAP1 PUSH2 0x2463 JUMP JUMPDEST SWAP1 POP PUSH1 0x60 DUP3 PUSH1 0x80 ADD MLOAD PUSH1 0x1 PUSH1 0x1 PUSH1 0xA0 SHL SUB AND PUSH4 0x666E1B39 CALLER PUSH1 0x40 MLOAD DUP3 PUSH4 0xFFFFFFFF AND PUSH1 0xE0 SHL DUP2 MSTORE PUSH1 0x4 ADD PUSH2 0x658 SWAP2 SWAP1 PUSH2 0x22FD JUMP JUMPDEST PUSH1 0x20 PUSH1 0x40 MLOAD DUP1 DUP4 SUB DUP2 DUP7 GAS STATICCALL ISZERO DUP1 ISZERO PUSH2 0x673 JUMPI RETURNDATASIZE PUSH0 PUSH0 RETURNDATACOPY RETURNDATASIZE PUSH0 REVERT JUMPDEST POP POP POP POP PUSH1 0x40 MLOAD RETURNDATASIZE PUSH1 0x1F NOT PUSH1 0x1F DUP3 ADD AND DUP3 ADD DUP1 PUSH1 0x40 MSTORE POP DUP2 ADD SWAP1 PUSH2 0x697 SWAP2 SWAP1 PUSH2 0x2509 JUMP JUMPDEST PUSH2 0x6CB JUMPI DUP3 PUSH1 0x80 ADD MLOAD DUP3 PUSH1 0x80 ADD MLOAD CALLER PUSH1 0x40 MLOAD PUSH4 0x17F9D1F PUSH1 0xE7 SHL DUP2 MSTORE PUSH1 0x4 ADD PUSH2 0x6C2 SWAP4 SWAP3 SWAP2 SWAP1 PUSH2 0x2528 JUMP JUMPDEST PUSH1 0x40 MLOAD DUP1 SWAP2 SUB SWAP1 REVERT JUMPDEST PUSH2 0x6D7 DUP4 DUP4 DUP9 DUP9 PUSH2 0x1479 JUMP JUMPDEST PUSH1 0x1 PUSH1 0x1 PUSH1 0x40 SHL SUB DUP3 AND PUSH0 SWAP1 DUP2 MSTORE PUSH1 0xB PUSH1 0x20 MSTORE PUSH1 0x40 SWAP1 KECCAK256 SWAP2 SWAP6 POP SWAP2 POP PUSH2 0x6FD DUP3 DUP3 PUSH2 0x2596 JUMP JUMPDEST POP PUSH2 0x70B TIMESTAMP PUSH3 0xD2F00 PUSH2 0x2664 JUMP JUMPDEST PUSH1 0x1 PUSH1 0x1 PUSH1 0x40 SHL SUB DUP6 DUP2 AND PUSH0 DUP2 DUP2 MSTORE PUSH1 0xB PUSH1 0x20 MSTORE PUSH1 0x40 DUP2 KECCAK256 PUSH1 0x1 SWAP1 DUP2 ADD SWAP5 SWAP1 SWAP5 SSTORE PUSH1 0xC DUP1 SLOAD SWAP5 DUP6 ADD DUP2 SSTORE SWAP1 MSTORE PUSH32 0xDF6966C971051C3D54EC59162606531493A51404A002842F56009D7E5CF4A8C7 PUSH1 0x4 DUP5 DIV ADD DUP1 SLOAD PUSH1 0x3 SWAP1 SWAP5 AND PUSH1 0x8 MUL PUSH2 0x100 EXP SWAP3 DUP4 MUL NOT SWAP1 SWAP4 AND SWAP2 MUL OR SWAP1 SSTORE PUSH2 0x77F PUSH2 0x1437 JUMP JUMPDEST POP POP POP SWAP5 SWAP4 POP POP POP POP JUMP JUMPDEST PUSH1 0x1 PUSH1 0x1 PUSH1 0xA0 SHL SUB DUP3 AND PUSH0 SWAP1 DUP2 MSTORE PUSH1 0x8 PUSH1 0x20 MSTORE PUSH1 0x40 DUP2 KECCAK256 SLOAD SWAP1 SUB PUSH2 0x7C3 JUMPI DUP2 PUSH1 0x40 MLOAD PUSH4 0x90B23441 PUSH1 0xE0 SHL DUP2 MSTORE PUSH1 0x4 ADD PUSH2 0x6C2 SWAP2 SWAP1 PUSH2 0x22FD JUMP JUMPDEST DUP2 PUSH0 PUSH2 0x7D1 PUSH1 0x12 PUSH1 0xA PUSH2 0x275A JUMP JUMPDEST PUSH1 0x1 PUSH1 0x1 PUSH1 0xA0 SHL SUB DUP6 AND PUSH0 SWAP1 DUP2 MSTORE PUSH1 0x8 PUSH1 0x20 MSTORE PUSH1 0x40 SWAP1 KECCAK256 SLOAD PUSH2 0x7F3 SWAP1 DUP6 PUSH2 0x2768 JUMP JUMPDEST PUSH2 0x7FD SWAP2 SWAP1 PUSH2 0x2793 JUMP JUMPDEST PUSH1 0x40 MLOAD PUSH4 0x23B872DD PUSH1 0xE0 SHL DUP2 MSTORE SWAP1 SWAP2 POP PUSH0 SWAP1 ADDRESS SWAP1 PUSH4 0x23B872DD SWAP1 PUSH2 0x829 SWAP1 CALLER SWAP1 DUP5 SWAP1 DUP10 SWAP1 PUSH1 0x4 ADD PUSH2 0x27A6 JUMP JUMPDEST PUSH1 0x20 PUSH1 0x40 MLOAD DUP1 DUP4 SUB DUP2 PUSH0 DUP8 GAS CALL ISZERO DUP1 ISZERO PUSH2 0x845 JUMPI RETURNDATASIZE PUSH0 PUSH0 RETURNDATACOPY RETURNDATASIZE PUSH0 REVERT JUMPDEST POP POP POP POP PUSH1 0x40 MLOAD RETURNDATASIZE PUSH1 0x1F NOT PUSH1 0x1F DUP3 ADD AND DUP3 ADD DUP1 PUSH1 0x40 MSTORE POP DUP2 ADD SWAP1 PUSH2 0x869 SWAP2 SWAP1 PUSH2 0x2509 JUMP JUMPDEST SWAP1 POP DUP1 ADDRESS PUSH1 0x1 PUSH1 0x1 PUSH1 0xA0 SHL SUB AND PUSH4 0x6FDDE03 PUSH1 0x40 MLOAD DUP2 PUSH4 0xFFFFFFFF AND PUSH1 0xE0 SHL DUP2 MSTORE PUSH1 0x4 ADD PUSH0 PUSH1 0x40 MLOAD DUP1 DUP4 SUB DUP2 DUP7 GAS STATICCALL ISZERO DUP1 ISZERO PUSH2 0x8A7 JUMPI RETURNDATASIZE PUSH0 PUSH0 RETURNDATACOPY RETURNDATASIZE PUSH0 REVERT JUMPDEST POP POP POP POP PUSH1 0x40 MLOAD RETURNDATASIZE PUSH0 DUP3 RETURNDATACOPY PUSH1 0x1F RETURNDATASIZE SWAP1 DUP2 ADD PUSH1 0x1F NOT AND DUP3 ADD PUSH1 0x40 MSTORE PUSH2 0x8CE SWAP2 SWAP1 DUP2 ADD SWAP1 PUSH2 0x27CA JUMP JUMPDEST PUSH1 0x40 MLOAD PUSH1 0x20 ADD PUSH2 0x8DE SWAP2 SWAP1 PUSH2 0x283E JUMP JUMPDEST PUSH1 0x40 MLOAD PUSH1 0x20 DUP2 DUP4 SUB SUB DUP2 MSTORE SWAP1 PUSH1 0x40 MSTORE SWAP1 PUSH2 0x90B JUMPI PUSH1 0x40 MLOAD PUSH3 0x461BCD PUSH1 0xE5 SHL DUP2 MSTORE PUSH1 0x4 ADD PUSH2 0x6C2 SWAP2 SWAP1 PUSH2 0x1F13 JUMP JUMPDEST POP PUSH1 0x40 MLOAD PUSH4 0xA9059CBB PUSH1 0xE0 SHL DUP2 MSTORE CALLER PUSH1 0x4 DUP3 ADD MSTORE PUSH1 0x24 DUP2 ADD DUP4 SWAP1 MSTORE PUSH1 0x1 PUSH1 0x1 PUSH1 0xA0 SHL SUB DUP5 AND SWAP1 PUSH4 0xA9059CBB SWAP1 PUSH1 0x44 ADD JUMPDEST PUSH1 0x20 PUSH1 0x40 MLOAD DUP1 DUP4 SUB DUP2 PUSH0 DUP8 GAS CALL ISZERO DUP1 ISZERO PUSH2 0x957 JUMPI RETURNDATASIZE PUSH0 PUSH0 RETURNDATACOPY RETURNDATASIZE PUSH0 REVERT JUMPDEST POP POP POP POP PUSH1 0x40 MLOAD RETURNDATASIZE PUSH1 0x1F NOT PUSH1 0x1F DUP3 ADD AND DUP3 ADD DUP1 PUSH1 0x40 MSTORE POP DUP2 ADD SWAP1 PUSH2 0x97B SWAP2 SWAP1 PUSH2 0x2509 JUMP JUMPDEST POP POP POP POP POP POP JUMP JUMPDEST PUSH0 CALLER PUSH2 0x990 DUP6 DUP3 DUP6 PUSH2 0x1BD9 JUMP JUMPDEST PUSH2 0x99B DUP6 DUP6 DUP6 PUSH2 0x1C30 JUMP JUMPDEST POP PUSH1 0x1 SWAP5 SWAP4 POP POP POP POP JUMP JUMPDEST PUSH1 0x1 PUSH1 0x1 PUSH1 0xA0 SHL SUB DUP3 AND PUSH0 SWAP1 DUP2 MSTORE PUSH1 0x8 PUSH1 0x20 MSTORE PUSH1 0x40 DUP2 KECCAK256 SLOAD SWAP1 SUB PUSH2 0x9DF JUMPI DUP2 PUSH1 0x40 MLOAD PUSH4 0x90B23441 PUSH1 0xE0 SHL DUP2 MSTORE PUSH1 0x4 ADD PUSH2 0x6C2 SWAP2 SWAP1 PUSH2 0x22FD JUMP JUMPDEST DUP2 PUSH0 PUSH2 0x9ED PUSH1 0x12 PUSH1 0xA PUSH2 0x275A JUMP JUMPDEST PUSH1 0x1 PUSH1 0x1 PUSH1 0xA0 SHL SUB DUP6 AND PUSH0 SWAP1 DUP2 MSTORE PUSH1 0x8 PUSH1 0x20 MSTORE PUSH1 0x40 SWAP1 KECCAK256 SLOAD PUSH2 0xA0F SWAP1 DUP6 PUSH2 0x2768 JUMP JUMPDEST PUSH2 0xA19 SWAP2 SWAP1 PUSH2 0x2793 JUMP JUMPDEST SWAP1 POP PUSH0 DUP3 PUSH1 0x1 PUSH1 0x1 PUSH1 0xA0 SHL SUB AND PUSH4 0x23B872DD CALLER ADDRESS DUP6 PUSH1 0x40 MLOAD DUP5 PUSH4 0xFFFFFFFF AND PUSH1 0xE0 SHL DUP2 MSTORE PUSH1 0x4 ADD PUSH2 0xA4C SWAP4 SWAP3 SWAP2 SWAP1 PUSH2 0x27A6 JUMP JUMPDEST PUSH1 0x20 PUSH1 0x40 MLOAD DUP1 DUP4 SUB DUP2 PUSH0 DUP8 GAS CALL ISZERO DUP1 ISZERO PUSH2 0xA68 JUMPI RETURNDATASIZE PUSH0 PUSH0 RETURNDATACOPY RETURNDATASIZE PUSH0 REVERT JUMPDEST POP POP POP POP PUSH1 0x40 MLOAD RETURNDATASIZE PUSH1 0x1F NOT PUSH1 0x1F DUP3 ADD AND DUP3 ADD DUP1 PUSH1 0x40 MSTORE POP DUP2 ADD SWAP1 PUSH2 0xA8C SWAP2 SWAP1 PUSH2 0x2509 JUMP JUMPDEST SWAP1 POP DUP1 DUP4 PUSH1 0x1 PUSH1 0x1 PUSH1 0xA0 SHL SUB AND PUSH4 0x6FDDE03 PUSH1 0x40 MLOAD DUP2 PUSH4 0xFFFFFFFF AND PUSH1 0xE0 SHL DUP2 MSTORE PUSH1 0x4 ADD PUSH0 PUSH1 0x40 MLOAD DUP1 DUP4 SUB DUP2 DUP7 GAS STATICCALL ISZERO DUP1 ISZERO PUSH2 0xACA JUMPI RETURNDATASIZE PUSH0 PUSH0 RETURNDATACOPY RETURNDATASIZE PUSH0 REVERT JUMPDEST POP POP POP POP PUSH1 0x40 MLOAD RETURNDATASIZE PUSH0 DUP3 RETURNDATACOPY PUSH1 0x1F RETURNDATASIZE SWAP1 DUP2 ADD PUSH1 0x1F NOT AND DUP3 ADD PUSH1 0x40 MSTORE PUSH2 0xAF1 SWAP2 SWAP1 DUP2 ADD SWAP1 PUSH2 0x27CA JUMP JUMPDEST PUSH1 0x40 MLOAD PUSH1 0x20 ADD PUSH2 0xB01 SWAP2 SWAP1 PUSH2 0x283E JUMP JUMPDEST PUSH1 0x40 MLOAD PUSH1 0x20 DUP2 DUP4 SUB SUB DUP2 MSTORE SWAP1 PUSH1 0x40 MSTORE SWAP1 PUSH2 0xB2E JUMPI PUSH1 0x40 MLOAD PUSH3 0x461BCD PUSH1 0xE5 SHL DUP2 MSTORE PUSH1 0x4 ADD PUSH2 0x6C2 SWAP2 SWAP1 PUSH2 0x1F13 JUMP JUMPDEST POP PUSH1 0x40 MLOAD PUSH4 0xA9059CBB PUSH1 0xE0 SHL DUP2 MSTORE CALLER PUSH1 0x4 DUP3 ADD MSTORE PUSH1 0x24 DUP2 ADD DUP6 SWAP1 MSTORE ADDRESS SWAP1 PUSH4 0xA9059CBB SWAP1 PUSH1 0x44 ADD PUSH2 0x93B JUMP JUMPDEST PUSH2 0xB61 PUSH2 0x1C3B JUMP JUMPDEST PUSH2 0xB6B DUP2 PUSH0 PUSH2 0x1C7B JUMP JUMPDEST POP JUMP JUMPDEST PUSH1 0x9 SLOAD PUSH1 0x40 MLOAD PUSH4 0x2213C7D PUSH1 0xE1 SHL DUP2 MSTORE PUSH1 0x1 PUSH1 0x1 PUSH1 0x40 SHL SUB DUP7 AND PUSH1 0x4 DUP3 ADD MSTORE PUSH1 0x60 SWAP2 PUSH0 SWAP2 PUSH1 0x1 PUSH1 0x1 PUSH1 0xA0 SHL SUB SWAP1 SWAP2 AND SWAP1 PUSH4 0x44278FA SWAP1 PUSH1 0x24 ADD PUSH2 0x100 PUSH1 0x40 MLOAD DUP1 DUP4 SUB DUP2 PUSH0 DUP8 GAS CALL ISZERO DUP1 ISZERO PUSH2 0xBC4 JUMPI RETURNDATASIZE PUSH0 PUSH0 RETURNDATACOPY RETURNDATASIZE PUSH0 REVERT JUMPDEST POP POP POP POP PUSH1 0x40 MLOAD RETURNDATASIZE PUSH1 0x1F NOT PUSH1 0x1F DUP3 ADD AND DUP3 ADD DUP1 PUSH1 0x40 MSTORE POP DUP2 ADD SWAP1 PUSH2 0xBE8 SWAP2 SWAP1 PUSH2 0x2463 JUMP JUMPDEST PUSH1 0x9 SLOAD PUSH1 0x40 MLOAD PUSH4 0x2213C7D PUSH1 0xE1 SHL DUP2 MSTORE PUSH1 0x1 PUSH1 0x1 PUSH1 0x40 SHL SUB DUP9 AND PUSH1 0x4 DUP3 ADD MSTORE SWAP2 SWAP3 POP PUSH0 SWAP2 PUSH1 0x1 PUSH1 0x1 PUSH1 0xA0 SHL SUB SWAP1 SWAP2 AND SWAP1 PUSH4 0x44278FA SWAP1 PUSH1 0x24 ADD PUSH2 0x100 PUSH1 0x40 MLOAD DUP1 DUP4 SUB DUP2 PUSH0 DUP8 GAS CALL ISZERO DUP1 ISZERO PUSH2 0xC3E JUMPI RETURNDATASIZE PUSH0 PUSH0 RETURNDATACOPY RETURNDATASIZE PUSH0 REVERT JUMPDEST POP POP POP POP PUSH1 0x40 MLOAD RETURNDATASIZE PUSH1 0x1F NOT PUSH1 0x1F DUP3 ADD AND DUP3 ADD DUP1 PUSH1 0x40 MSTORE POP DUP2 ADD SWAP1 PUSH2 0xC62 SWAP2 SWAP1 PUSH2 0x2463 JUMP JUMPDEST SWAP1 POP PUSH0 DUP2 PUSH1 0x80 ADD MLOAD PUSH1 0x1 PUSH1 0x1 PUSH1 0xA0 SHL SUB AND PUSH4 0x666E1B39 CALLER PUSH1 0x40 MLOAD DUP3 PUSH4 0xFFFFFFFF AND PUSH1 0xE0 SHL DUP2 MSTORE PUSH1 0x4 ADD PUSH2 0xC95 SWAP2 SWAP1 PUSH2 0x22FD JUMP JUMPDEST PUSH1 0x20 PUSH1 0x40 MLOAD DUP1 DUP4 SUB DUP2 DUP7 GAS STATICCALL ISZERO DUP1 ISZERO PUSH2 0xCB0 JUMPI RETURNDATASIZE PUSH0 PUSH0 RETURNDATACOPY RETURNDATASIZE PUSH0 REVERT JUMPDEST POP POP POP POP PUSH1 0x40 MLOAD RETURNDATASIZE PUSH1 0x1F NOT PUSH1 0x1F DUP3 ADD AND DUP3 ADD DUP1 PUSH1 0x40 MSTORE POP DUP2 ADD SWAP1 PUSH2 0xCD4 SWAP2 SWAP1 PUSH2 0x2509 JUMP JUMPDEST PUSH2 0xCFF JUMPI DUP3 PUSH1 0x80 ADD MLOAD DUP3 PUSH1 0x80 ADD MLOAD CALLER PUSH1 0x40 MLOAD PUSH4 0x17F9D1F PUSH1 0xE7 SHL DUP2 MSTORE PUSH1 0x4 ADD PUSH2 0x6C2 SWAP4 SWAP3 SWAP2 SWAP1 PUSH2 0x2528 JUMP JUMPDEST PUSH1 0x1 PUSH1 0x1 PUSH1 0x40 SHL SUB DUP7 AND PUSH0 SWAP1 DUP2 MSTORE PUSH1 0xB PUSH1 0x20 MSTORE PUSH1 0x40 SWAP1 KECCAK256 DUP1 SLOAD PUSH2 0xDAC SWAP2 DUP6 SWAP2 DUP6 SWAP2 DUP10 SWAP2 PUSH2 0xD2B SWAP1 PUSH2 0x2415 JUMP JUMPDEST DUP1 PUSH1 0x1F ADD PUSH1 0x20 DUP1 SWAP2 DIV MUL PUSH1 0x20 ADD PUSH1 0x40 MLOAD SWAP1 DUP2 ADD PUSH1 0x40 MSTORE DUP1 SWAP3 SWAP2 SWAP1 DUP2 DUP2 MSTORE PUSH1 0x20 ADD DUP3 DUP1 SLOAD PUSH2 0xD57 SWAP1 PUSH2 0x2415 JUMP JUMPDEST DUP1 ISZERO PUSH2 0xDA2 JUMPI DUP1 PUSH1 0x1F LT PUSH2 0xD79 JUMPI PUSH2 0x100 DUP1 DUP4 SLOAD DIV MUL DUP4 MSTORE SWAP2 PUSH1 0x20 ADD SWAP2 PUSH2 0xDA2 JUMP JUMPDEST DUP3 ADD SWAP2 SWAP1 PUSH0 MSTORE PUSH1 0x20 PUSH0 KECCAK256 SWAP1 JUMPDEST DUP2 SLOAD DUP2 MSTORE SWAP1 PUSH1 0x1 ADD SWAP1 PUSH1 0x20 ADD DUP1 DUP4 GT PUSH2 0xD85 JUMPI DUP3 SWAP1 SUB PUSH1 0x1F AND DUP3 ADD SWAP2 JUMPDEST POP POP POP POP POP PUSH2 0x1479 JUMP JUMPDEST PUSH1 0x1 PUSH1 0x1 PUSH1 0x40 SHL SUB DUP9 AND PUSH0 SWAP1 DUP2 MSTORE PUSH1 0xB PUSH1 0x20 MSTORE PUSH1 0x40 SWAP1 KECCAK256 PUSH1 0x1 ADD SLOAD SWAP1 SWAP6 POP SWAP1 SWAP2 POP TIMESTAMP GT ISZERO PUSH2 0xE00 JUMPI PUSH1 0x1 PUSH1 0x1 PUSH1 0x40 SHL SUB DUP7 AND PUSH0 SWAP1 DUP2 MSTORE PUSH1 0xB PUSH1 0x20 MSTORE PUSH1 0x40 DUP2 KECCAK256 SWAP1 PUSH2 0xDF6 DUP3 DUP3 PUSH2 0x1E78 JUMP JUMPDEST PUSH1 0x1 DUP3 ADD PUSH0 SWAP1 SSTORE POP POP JUMPDEST PUSH2 0x77F PUSH2 0x1437 JUMP JUMPDEST PUSH1 0x40 DUP1 MLOAD PUSH1 0x8 DUP1 DUP3 MSTORE DUP2 DUP4 ADD SWAP1 SWAP3 MSTORE PUSH0 SWAP2 PUSH1 0x60 SWAP2 DUP4 SWAP2 PUSH1 0x20 DUP3 ADD DUP2 DUP1 CALLDATASIZE DUP4 CALLDATACOPY ADD SWAP1 POP POP PUSH1 0x40 DUP1 MLOAD PUSH1 0x18 DUP1 DUP3 MSTORE DUP2 DUP4 ADD SWAP1 SWAP3 MSTORE SWAP2 SWAP3 POP PUSH1 0x20 DUP3 ADD DUP2 DUP1 CALLDATASIZE DUP4 CALLDATACOPY ADD SWAP1 POP POP SWAP2 POP PUSH0 JUMPDEST PUSH1 0x8 DUP2 LT ISZERO PUSH2 0xEA4 JUMPI PUSH2 0xE62 DUP2 PUSH1 0x8 PUSH2 0x2768 JUMP JUMPDEST DUP9 PUSH1 0x1 PUSH1 0x1 PUSH1 0x40 SHL SUB AND SWAP1 SHR PUSH1 0xFF AND PUSH1 0xF8 SHL DUP3 DUP3 DUP2 MLOAD DUP2 LT PUSH2 0xE86 JUMPI PUSH2 0xE86 PUSH2 0x286E JUMP JUMPDEST PUSH1 0x20 ADD ADD SWAP1 PUSH1 0x1 PUSH1 0x1 PUSH1 0xF8 SHL SUB NOT AND SWAP1 DUP2 PUSH0 BYTE SWAP1 MSTORE8 POP PUSH1 0x1 ADD PUSH2 0xE4E JUMP JUMPDEST POP PUSH0 JUMPDEST PUSH1 0x8 DUP2 LT ISZERO PUSH2 0xEFD JUMPI PUSH2 0xEBB DUP2 PUSH1 0x8 PUSH2 0x2768 JUMP JUMPDEST DUP8 PUSH1 0x1 PUSH1 0x1 PUSH1 0x40 SHL SUB AND SWAP1 SHR PUSH1 0xFF AND PUSH1 0xF8 SHL DUP4 DUP3 DUP2 MLOAD DUP2 LT PUSH2 0xEDF JUMPI PUSH2 0xEDF PUSH2 0x286E JUMP JUMPDEST PUSH1 0x20 ADD ADD SWAP1 PUSH1 0x1 PUSH1 0x1 PUSH1 0xF8 SHL SUB NOT AND SWAP1 DUP2 PUSH0 BYTE SWAP1 MSTORE8 POP PUSH1 0x1 ADD PUSH2 0xEA7 JUMP JUMPDEST POP PUSH1 0x8 JUMPDEST PUSH1 0x10 DUP2 LT ISZERO PUSH2 0xF62 JUMPI PUSH2 0xF15 PUSH1 0x8 DUP3 PUSH2 0x2882 JUMP JUMPDEST PUSH2 0xF20 SWAP1 PUSH1 0x8 PUSH2 0x2768 JUMP JUMPDEST DUP7 PUSH1 0x1 PUSH1 0x1 PUSH1 0x40 SHL SUB AND SWAP1 SHR PUSH1 0xFF AND PUSH1 0xF8 SHL DUP4 DUP3 DUP2 MLOAD DUP2 LT PUSH2 0xF44 JUMPI PUSH2 0xF44 PUSH2 0x286E JUMP JUMPDEST PUSH1 0x20 ADD ADD SWAP1 PUSH1 0x1 PUSH1 0x1 PUSH1 0xF8 SHL SUB NOT AND SWAP1 DUP2 PUSH0 BYTE SWAP1 MSTORE8 POP PUSH1 0x1 ADD PUSH2 0xF01 JUMP JUMPDEST POP PUSH1 0x10 JUMPDEST PUSH1 0x18 DUP2 LT ISZERO PUSH2 0xFC7 JUMPI PUSH2 0xF7A PUSH1 0x10 DUP3 PUSH2 0x2882 JUMP JUMPDEST PUSH2 0xF85 SWAP1 PUSH1 0x8 PUSH2 0x2768 JUMP JUMPDEST DUP6 PUSH1 0x1 PUSH1 0x1 PUSH1 0x40 SHL SUB AND SWAP1 SHR PUSH1 0xFF AND PUSH1 0xF8 SHL DUP4 DUP3 DUP2 MLOAD DUP2 LT PUSH2 0xFA9 JUMPI PUSH2 0xFA9 PUSH2 0x286E JUMP JUMPDEST PUSH1 0x20 ADD ADD SWAP1 PUSH1 0x1 PUSH1 0x1 PUSH1 0xF8 SHL SUB NOT AND SWAP1 DUP2 PUSH0 BYTE SWAP1 MSTORE8 POP PUSH1 0x1 ADD PUSH2 0xF66 JUMP JUMPDEST POP PUSH2 0xFD4 DUP9 DUP10 DUP4 DUP6 PUSH2 0x1479 JUMP JUMPDEST SWAP1 SWAP4 POP SWAP2 POP PUSH2 0xFE1 PUSH2 0x1437 JUMP JUMPDEST POP SWAP6 POP SWAP6 SWAP4 POP POP POP POP JUMP JUMPDEST PUSH1 0x1 PUSH1 0x1 PUSH1 0xA0 SHL SUB AND PUSH0 SWAP1 DUP2 MSTORE PUSH1 0x20 DUP2 SWAP1 MSTORE PUSH1 0x40 SWAP1 KECCAK256 SLOAD PUSH1 0xFF AND SWAP1 JUMP JUMPDEST PUSH2 0x1011 PUSH2 0x1C3B JUMP JUMPDEST PUSH1 0x1 PUSH1 0x1 PUSH1 0xA0 SHL SUB DUP2 AND PUSH2 0x103E JUMPI ORIGIN PUSH0 ADDRESS PUSH1 0x40 MLOAD PUSH4 0x36030219 PUSH1 0xE2 SHL DUP2 MSTORE PUSH1 0x4 ADD PUSH2 0x6C2 SWAP4 SWAP3 SWAP2 SWAP1 PUSH2 0x2528 JUMP JUMPDEST PUSH2 0xB6B DUP2 PUSH1 0x1 PUSH2 0x1C7B JUMP JUMPDEST PUSH1 0x60 PUSH2 0x1053 PUSH2 0x1437 JUMP JUMPDEST PUSH2 0x528 DUP6 DUP6 DUP6 DUP6 PUSH2 0xB6E JUMP JUMPDEST PUSH0 PUSH2 0x1068 PUSH2 0x1437 JUMP JUMPDEST PUSH1 0x6 PUSH0 SWAP1 SLOAD SWAP1 PUSH2 0x100 EXP SWAP1 DIV PUSH1 0x1 PUSH1 0x1 PUSH1 0xA0 SHL SUB AND PUSH1 0x1 PUSH1 0x1 PUSH1 0xA0 SHL SUB AND PUSH4 0xD3DC2A0F PUSH1 0x40 MLOAD DUP2 PUSH4 0xFFFFFFFF AND PUSH1 0xE0 SHL DUP2 MSTORE PUSH1 0x4 ADD PUSH1 0x20 PUSH1 0x40 MLOAD DUP1 DUP4 SUB DUP2 PUSH0 DUP8 GAS CALL ISZERO DUP1 ISZERO PUSH2 0x10B9 JUMPI RETURNDATASIZE PUSH0 PUSH0 RETURNDATACOPY RETURNDATASIZE PUSH0 REVERT JUMPDEST POP POP POP POP PUSH1 0x40 MLOAD RETURNDATASIZE PUSH1 0x1F NOT PUSH1 0x1F DUP3 ADD AND DUP3 ADD DUP1 PUSH1 0x40 MSTORE POP DUP2 ADD SWAP1 PUSH2 0x10DD SWAP2 SWAP1 PUSH2 0x2895 JUMP JUMPDEST DUP3 MLOAD PUSH1 0x20 DUP5 ADD KECCAK256 PUSH2 0x50D SWAP2 PUSH1 0x1 PUSH1 0x1 PUSH1 0x40 SHL SUB AND SWAP1 PUSH2 0x28B0 JUMP JUMPDEST PUSH1 0x60 PUSH1 0x5 DUP1 SLOAD PUSH2 0x479 SWAP1 PUSH2 0x2415 JUMP JUMPDEST PUSH2 0x110E PUSH2 0x1EAF JUMP JUMPDEST PUSH1 0x12 DUP3 MLOAD LT ISZERO PUSH2 0x113E JUMPI DUP2 MLOAD PUSH1 0x40 MLOAD PUSH4 0x17F3E423 PUSH1 0xE1 SHL DUP2 MSTORE PUSH1 0x12 PUSH1 0x4 DUP3 ADD MSTORE PUSH1 0x24 DUP2 ADD SWAP2 SWAP1 SWAP2 MSTORE PUSH1 0x44 ADD PUSH2 0x6C2 JUMP JUMPDEST PUSH0 PUSH0 SWAP1 POP DUP3 PUSH0 DUP2 MLOAD DUP2 LT PUSH2 0x1154 JUMPI PUSH2 0x1154 PUSH2 0x286E JUMP JUMPDEST ADD PUSH1 0x20 ADD MLOAD PUSH1 0xF8 SHR DUP3 DUP3 PUSH1 0x3 DUP2 LT PUSH2 0x116E JUMPI PUSH2 0x116E PUSH2 0x286E JUMP JUMPDEST PUSH1 0x20 MUL ADD MLOAD PUSH2 0x117D SWAP2 SWAP1 PUSH2 0x28C3 JUMP JUMPDEST DUP3 DUP3 PUSH1 0x3 DUP2 LT PUSH2 0x118F JUMPI PUSH2 0x118F PUSH2 0x286E JUMP JUMPDEST PUSH1 0x1 PUSH1 0x1 PUSH1 0x40 SHL SUB SWAP1 SWAP3 AND PUSH1 0x20 SWAP3 SWAP1 SWAP3 MUL ADD MSTORE PUSH1 0x1 JUMPDEST DUP4 MLOAD DUP2 LT ISZERO PUSH2 0x1241 JUMPI DUP4 DUP2 DUP2 MLOAD DUP2 LT PUSH2 0x11C0 JUMPI PUSH2 0x11C0 PUSH2 0x286E JUMP JUMPDEST ADD PUSH1 0x20 ADD MLOAD PUSH1 0xF8 SHR DUP4 DUP4 PUSH1 0x3 DUP2 LT PUSH2 0x11DA JUMPI PUSH2 0x11DA PUSH2 0x286E JUMP JUMPDEST PUSH1 0x20 MUL ADD MLOAD PUSH2 0x11E9 SWAP2 SWAP1 PUSH2 0x28C3 JUMP JUMPDEST DUP4 DUP4 PUSH1 0x3 DUP2 LT PUSH2 0x11FB JUMPI PUSH2 0x11FB PUSH2 0x286E JUMP JUMPDEST PUSH1 0x1 PUSH1 0x1 PUSH1 0x40 SHL SUB SWAP1 SWAP3 AND PUSH1 0x20 SWAP3 SWAP1 SWAP3 MUL ADD MSTORE PUSH2 0x1219 PUSH1 0x8 DUP3 PUSH2 0x28B0 JUMP JUMPDEST ISZERO DUP1 ISZERO PUSH2 0x1226 JUMPI POP PUSH1 0x2 DUP3 LT JUMPDEST ISZERO PUSH2 0x1239 JUMPI DUP2 PUSH2 0x1235 DUP2 PUSH2 0x28E2 JUMP JUMPDEST SWAP3 POP POP JUMPDEST PUSH1 0x1 ADD PUSH2 0x11A5 JUMP JUMPDEST POP POP SWAP2 SWAP1 POP JUMP JUMPDEST PUSH2 0x1250 PUSH2 0x1C3B JUMP JUMPDEST PUSH1 0x4 PUSH2 0x125C DUP4 DUP3 PUSH2 0x2596 JUMP JUMPDEST POP PUSH1 0x5 PUSH2 0x1269 DUP3 DUP3 PUSH2 0x2596 JUMP JUMPDEST POP POP POP JUMP JUMPDEST PUSH0 CALLER PUSH2 0x507 DUP2 DUP6 DUP6 PUSH2 0x1C30 JUMP JUMPDEST PUSH0 JUMPDEST PUSH1 0xC SLOAD PUSH1 0x1 PUSH1 0x1 PUSH1 0x40 SHL SUB SWAP1 DUP2 AND SWAP1 DUP3 AND LT ISZERO PUSH2 0x13E5 JUMPI PUSH1 0x1 PUSH1 0x1 PUSH1 0x40 SHL SUB DUP2 AND PUSH0 SWAP1 DUP2 MSTORE PUSH1 0xB PUSH1 0x20 MSTORE PUSH1 0x40 SWAP1 KECCAK256 PUSH1 0x1 ADD SLOAD ISZERO DUP1 PUSH2 0x12D4 JUMPI POP PUSH1 0x1 PUSH1 0x1 PUSH1 0x40 SHL SUB DUP2 AND PUSH0 SWAP1 DUP2 MSTORE PUSH1 0xB PUSH1 0x20 MSTORE PUSH1 0x40 SWAP1 KECCAK256 PUSH1 0x1 ADD SLOAD TIMESTAMP GT JUMPDEST ISZERO PUSH2 0x13DD JUMPI PUSH1 0x1 PUSH1 0x1 PUSH1 0x40 SHL SUB DUP2 AND PUSH0 SWAP1 DUP2 MSTORE PUSH1 0xB PUSH1 0x20 MSTORE PUSH1 0x40 DUP2 KECCAK256 SWAP1 PUSH2 0x12FB DUP3 DUP3 PUSH2 0x1E78 JUMP JUMPDEST POP PUSH0 PUSH1 0x1 SWAP2 DUP3 ADD SSTORE PUSH1 0xC DUP1 SLOAD SWAP1 SWAP2 PUSH2 0x1312 SWAP2 PUSH2 0x2882 JUMP JUMPDEST DUP2 SLOAD DUP2 LT PUSH2 0x1322 JUMPI PUSH2 0x1322 PUSH2 0x286E JUMP JUMPDEST SWAP1 PUSH0 MSTORE PUSH1 0x20 PUSH0 KECCAK256 SWAP1 PUSH1 0x4 SWAP2 DUP3 DUP3 DIV ADD SWAP2 SWAP1 MOD PUSH1 0x8 MUL SWAP1 SLOAD SWAP1 PUSH2 0x100 EXP SWAP1 DIV PUSH1 0x1 PUSH1 0x1 PUSH1 0x40 SHL SUB AND PUSH1 0xC DUP3 PUSH1 0x1 PUSH1 0x1 PUSH1 0x40 SHL SUB AND DUP2 SLOAD DUP2 LT PUSH2 0x1365 JUMPI PUSH2 0x1365 PUSH2 0x286E JUMP JUMPDEST SWAP1 PUSH0 MSTORE PUSH1 0x20 PUSH0 KECCAK256 SWAP1 PUSH1 0x4 SWAP2 DUP3 DUP3 DIV ADD SWAP2 SWAP1 MOD PUSH1 0x8 MUL PUSH2 0x100 EXP DUP2 SLOAD DUP2 PUSH1 0x1 PUSH1 0x1 PUSH1 0x40 SHL SUB MUL NOT AND SWAP1 DUP4 PUSH1 0x1 PUSH1 0x1 PUSH1 0x40 SHL SUB AND MUL OR SWAP1 SSTORE POP PUSH1 0xC DUP1 SLOAD DUP1 PUSH2 0x13AD JUMPI PUSH2 0x13AD PUSH2 0x28FA JUMP JUMPDEST PUSH0 DUP3 DUP2 MSTORE PUSH1 0x20 SWAP1 KECCAK256 PUSH1 0x4 PUSH0 NOT SWAP1 SWAP3 ADD SWAP2 DUP3 DIV ADD DUP1 SLOAD PUSH1 0x1 PUSH1 0x1 PUSH1 0x40 SHL SUB PUSH1 0x8 PUSH1 0x3 DUP6 AND MUL PUSH2 0x100 EXP MUL NOT AND SWAP1 SSTORE SWAP1 SSTORE JUMPDEST PUSH1 0x1 ADD PUSH2 0x127D JUMP JUMPDEST POP PUSH2 0x13EE PUSH2 0x1437 JUMP JUMPDEST JUMP JUMPDEST PUSH1 0x1 PUSH1 0x1 PUSH1 0xA0 SHL SUB SWAP2 DUP3 AND PUSH0 SWAP1 DUP2 MSTORE PUSH1 0x2 PUSH1 0x20 SWAP1 DUP2 MSTORE PUSH1 0x40 DUP1 DUP4 KECCAK256 SWAP4 SWAP1 SWAP5 AND DUP3 MSTORE SWAP2 SWAP1 SWAP2 MSTORE KECCAK256 SLOAD SWAP1 JUMP JUMPDEST PUSH2 0x1422 PUSH2 0x1C3B JUMP JUMPDEST PUSH2 0x13EE PUSH2 0x1437 JUMP JUMPDEST PUSH2 0x1269 DUP4 DUP4 DUP4 PUSH1 0x1 PUSH2 0x1CCE JUMP JUMPDEST PUSH2 0x1443 PUSH1 0x12 PUSH1 0xA PUSH2 0x275A JUMP JUMPDEST PUSH1 0x7 SLOAD PUSH2 0x1450 SWAP2 SWAP1 PUSH2 0x2768 JUMP JUMPDEST PUSH1 0x3 SLOAD LT ISZERO PUSH2 0x13EE JUMPI PUSH2 0x13EE ADDRESS PUSH2 0x1469 PUSH1 0x12 PUSH1 0xA PUSH2 0x275A JUMP JUMPDEST PUSH2 0x1474 SWAP1 PUSH1 0x1 PUSH2 0x2768 JUMP JUMPDEST PUSH2 0x1D4E JUMP JUMPDEST PUSH0 PUSH1 0x60 PUSH1 0x6 PUSH0 SWAP1 SLOAD SWAP1 PUSH2 0x100 EXP SWAP1 DIV PUSH1 0x1 PUSH1 0x1 PUSH1 0xA0 SHL SUB AND PUSH1 0x1 PUSH1 0x1 PUSH1 0xA0 SHL SUB AND PUSH4 0xD3DC2A0F PUSH1 0x40 MLOAD DUP2 PUSH4 0xFFFFFFFF AND PUSH1 0xE0 SHL DUP2 MSTORE PUSH1 0x4 ADD PUSH1 0x20 PUSH1 0x40 MLOAD DUP1 DUP4 SUB DUP2 PUSH0 DUP8 GAS CALL ISZERO DUP1 ISZERO PUSH2 0x14CD JUMPI RETURNDATASIZE PUSH0 PUSH0 RETURNDATACOPY RETURNDATASIZE PUSH0 REVERT JUMPDEST POP POP POP POP PUSH1 0x40 MLOAD RETURNDATASIZE PUSH1 0x1F NOT PUSH1 0x1F DUP3 ADD AND DUP3 ADD DUP1 PUSH1 0x40 MSTORE POP DUP2 ADD SWAP1 PUSH2 0x14F1 SWAP2 SWAP1 PUSH2 0x2895 JUMP JUMPDEST PUSH1 0x1 PUSH1 0x1 PUSH1 0x40 SHL SUB AND PUSH1 0xC DUP1 SLOAD SWAP1 POP LT PUSH2 0x15A7 JUMPI PUSH1 0x6 PUSH0 SWAP1 SLOAD SWAP1 PUSH2 0x100 EXP SWAP1 DIV PUSH1 0x1 PUSH1 0x1 PUSH1 0xA0 SHL SUB AND PUSH1 0x1 PUSH1 0x1 PUSH1 0xA0 SHL SUB AND PUSH4 0xD3DC2A0F PUSH1 0x40 MLOAD DUP2 PUSH4 0xFFFFFFFF AND PUSH1 0xE0 SHL DUP2 MSTORE PUSH1 0x4 ADD PUSH1 0x20 PUSH1 0x40 MLOAD DUP1 DUP4 SUB DUP2 PUSH0 DUP8 GAS CALL ISZERO DUP1 ISZERO PUSH2 0x1556 JUMPI RETURNDATASIZE PUSH0 PUSH0 RETURNDATACOPY RETURNDATASIZE PUSH0 REVERT JUMPDEST POP POP POP POP PUSH1 0x40 MLOAD RETURNDATASIZE PUSH1 0x1F NOT PUSH1 0x1F DUP3 ADD AND DUP3 ADD DUP1 PUSH1 0x40 MSTORE POP DUP2 ADD SWAP1 PUSH2 0x157A SWAP2 SWAP1 PUSH2 0x2895 JUMP JUMPDEST PUSH1 0xC SLOAD PUSH1 0x40 MLOAD PUSH4 0x34F1E2B5 PUSH1 0xE0 SHL DUP2 MSTORE PUSH1 0x1 PUSH1 0x1 PUSH1 0x40 SHL SUB SWAP1 SWAP3 AND PUSH1 0x4 DUP4 ADD MSTORE PUSH1 0x24 DUP3 ADD MSTORE PUSH1 0x44 ADD PUSH2 0x6C2 JUMP JUMPDEST PUSH0 PUSH0 PUSH0 DUP9 PUSH1 0x80 ADD MLOAD PUSH1 0x1 PUSH1 0x1 PUSH1 0xA0 SHL SUB AND PUSH4 0xA4566950 PUSH1 0x40 MLOAD DUP2 PUSH4 0xFFFFFFFF AND PUSH1 0xE0 SHL DUP2 MSTORE PUSH1 0x4 ADD PUSH1 0x60 PUSH1 0x40 MLOAD DUP1 DUP4 SUB DUP2 DUP7 GAS STATICCALL ISZERO DUP1 ISZERO PUSH2 0x15EA JUMPI RETURNDATASIZE PUSH0 PUSH0 RETURNDATACOPY RETURNDATASIZE PUSH0 REVERT JUMPDEST POP POP POP POP PUSH1 0x40 MLOAD RETURNDATASIZE PUSH1 0x1F NOT PUSH1 0x1F DUP3 ADD AND DUP3 ADD DUP1 PUSH1 0x40 MSTORE POP DUP2 ADD SWAP1 PUSH2 0x160E SWAP2 SWAP1 PUSH2 0x290E JUMP JUMPDEST MLOAD PUSH1 0x1 PUSH1 0x1 PUSH1 0xA0 SHL SUB AND PUSH4 0xF302D97F PUSH2 0x1626 DUP10 PUSH2 0x105F JUMP JUMPDEST DUP12 PUSH1 0x80 ADD MLOAD PUSH1 0x1 PUSH1 0x1 PUSH1 0xA0 SHL SUB AND PUSH4 0xA4566950 PUSH1 0x40 MLOAD DUP2 PUSH4 0xFFFFFFFF AND PUSH1 0xE0 SHL DUP2 MSTORE PUSH1 0x4 ADD PUSH1 0x60 PUSH1 0x40 MLOAD DUP1 DUP4 SUB DUP2 DUP7 GAS STATICCALL ISZERO DUP1 ISZERO PUSH2 0x1666 JUMPI RETURNDATASIZE PUSH0 PUSH0 RETURNDATACOPY RETURNDATASIZE PUSH0 REVERT JUMPDEST POP POP POP POP PUSH1 0x40 MLOAD RETURNDATASIZE PUSH1 0x1F NOT PUSH1 0x1F DUP3 ADD AND DUP3 ADD DUP1 PUSH1 0x40 MSTORE POP DUP2 ADD SWAP1 PUSH2 0x168A SWAP2 SWAP1 PUSH2 0x290E JUMP JUMPDEST PUSH1 0x20 ADD MLOAD PUSH1 0x1 PUSH1 0x1 PUSH1 0xA0 SHL SUB AND PUSH4 0x1686F265 PUSH1 0x40 MLOAD DUP2 PUSH4 0xFFFFFFFF AND PUSH1 0xE0 SHL DUP2 MSTORE PUSH1 0x4 ADD PUSH2 0x1A0 PUSH1 0x40 MLOAD DUP1 DUP4 SUB DUP2 PUSH0 DUP8 GAS CALL ISZERO DUP1 ISZERO PUSH2 0x16CB JUMPI RETURNDATASIZE PUSH0 PUSH0 RETURNDATACOPY RETURNDATASIZE PUSH0 REVERT JUMPDEST POP POP POP POP PUSH1 0x40 MLOAD RETURNDATASIZE PUSH1 0x1F NOT PUSH1 0x1F DUP3 ADD AND DUP3 ADD DUP1 PUSH1 0x40 MSTORE POP DUP2 ADD SWAP1 PUSH2 0x16EF SWAP2 SWAP1 PUSH2 0x297F JUMP JUMPDEST PUSH1 0x60 ADD MLOAD PUSH1 0x40 MLOAD PUSH1 0x1 PUSH1 0x1 PUSH1 0xE0 SHL SUB NOT PUSH1 0xE0 DUP6 SWAP1 SHL AND DUP2 MSTORE PUSH1 0x1 PUSH1 0x1 PUSH1 0x40 SHL SUB SWAP3 DUP4 AND PUSH1 0x4 DUP3 ADD MSTORE SWAP2 AND PUSH1 0x24 DUP3 ADD MSTORE PUSH1 0x44 ADD PUSH1 0x40 DUP1 MLOAD DUP1 DUP4 SUB DUP2 PUSH0 DUP8 GAS CALL ISZERO DUP1 ISZERO PUSH2 0x173C JUMPI RETURNDATASIZE PUSH0 PUSH0 RETURNDATACOPY RETURNDATASIZE PUSH0 REVERT JUMPDEST POP POP POP POP PUSH1 0x40 MLOAD RETURNDATASIZE PUSH1 0x1F NOT PUSH1 0x1F DUP3 ADD AND DUP3 ADD DUP1 PUSH1 0x40 MSTORE POP DUP2 ADD SWAP1 PUSH2 0x1760 SWAP2 SWAP1 PUSH2 0x2A82 JUMP JUMPDEST DUP8 MLOAD SWAP2 SWAP4 POP SWAP2 POP PUSH1 0x1 PUSH1 0x1 PUSH1 0x40 SHL SUB DUP2 GT ISZERO PUSH2 0x177E JUMPI PUSH2 0x177E PUSH2 0x1F8E JUMP JUMPDEST PUSH1 0x40 MLOAD SWAP1 DUP1 DUP3 MSTORE DUP1 PUSH1 0x1F ADD PUSH1 0x1F NOT AND PUSH1 0x20 ADD DUP3 ADD PUSH1 0x40 MSTORE DUP1 ISZERO PUSH2 0x17A8 JUMPI PUSH1 0x20 DUP3 ADD DUP2 DUP1 CALLDATASIZE DUP4 CALLDATACOPY ADD SWAP1 POP JUMPDEST POP SWAP4 POP PUSH0 JUMPDEST DUP7 MLOAD DUP2 LT ISZERO PUSH2 0x1BC1 JUMPI DUP9 PUSH1 0x80 ADD MLOAD PUSH1 0x1 PUSH1 0x1 PUSH1 0xA0 SHL SUB AND PUSH4 0xA4566950 PUSH1 0x40 MLOAD DUP2 PUSH4 0xFFFFFFFF AND PUSH1 0xE0 SHL DUP2 MSTORE PUSH1 0x4 ADD PUSH1 0x60 PUSH1 0x40 MLOAD DUP1 DUP4 SUB DUP2 DUP7 GAS STATICCALL ISZERO DUP1 ISZERO PUSH2 0x17F6 JUMPI RETURNDATASIZE PUSH0 PUSH0 RETURNDATACOPY RETURNDATASIZE PUSH0 REVERT JUMPDEST POP POP POP POP PUSH1 0x40 MLOAD RETURNDATASIZE PUSH1 0x1F NOT PUSH1 0x1F DUP3 ADD AND DUP3 ADD DUP1 PUSH1 0x40 MSTORE POP DUP2 ADD SWAP1 PUSH2 0x181A SWAP2 SWAP1 PUSH2 0x290E JUMP JUMPDEST PUSH1 0x20 ADD MLOAD PUSH1 0x1 PUSH1 0x1 PUSH1 0xA0 SHL SUB AND PUSH4 0xF302D97F DUP5 DUP12 PUSH1 0x80 ADD MLOAD PUSH1 0x1 PUSH1 0x1 PUSH1 0xA0 SHL SUB AND PUSH4 0xA4566950 PUSH1 0x40 MLOAD DUP2 PUSH4 0xFFFFFFFF AND PUSH1 0xE0 SHL DUP2 MSTORE PUSH1 0x4 ADD PUSH1 0x60 PUSH1 0x40 MLOAD DUP1 DUP4 SUB DUP2 DUP7 GAS STATICCALL ISZERO DUP1 ISZERO PUSH2 0x186D JUMPI RETURNDATASIZE PUSH0 PUSH0 RETURNDATACOPY RETURNDATASIZE PUSH0 REVERT JUMPDEST POP POP POP POP PUSH1 0x40 MLOAD RETURNDATASIZE PUSH1 0x1F NOT PUSH1 0x1F DUP3 ADD AND DUP3 ADD DUP1 PUSH1 0x40 MSTORE POP DUP2 ADD SWAP1 PUSH2 0x1891 SWAP2 SWAP1 PUSH2 0x290E JUMP JUMPDEST PUSH0 ADD MLOAD PUSH1 0x1 PUSH1 0x1 PUSH1 0xA0 SHL SUB AND PUSH4 0x1686F265 PUSH1 0x40 MLOAD DUP2 PUSH4 0xFFFFFFFF AND PUSH1 0xE0 SHL DUP2 MSTORE PUSH1 0x4 ADD PUSH2 0x1A0 PUSH1 0x40 MLOAD DUP1 DUP4 SUB DUP2 PUSH0 DUP8 GAS CALL ISZERO DUP1 ISZERO PUSH2 0x18D1 JUMPI RETURNDATASIZE PUSH0 PUSH0 RETURNDATACOPY RETURNDATASIZE PUSH0 REVERT JUMPDEST POP POP POP POP PUSH1 0x40 MLOAD RETURNDATASIZE PUSH1 0x1F NOT PUSH1 0x1F DUP3 ADD AND DUP3 ADD DUP1 PUSH1 0x40 MSTORE POP DUP2 ADD SWAP1 PUSH2 0x18F5 SWAP2 SWAP1 PUSH2 0x297F JUMP JUMPDEST PUSH1 0x60 ADD MLOAD PUSH1 0x40 MLOAD PUSH1 0x1 PUSH1 0x1 PUSH1 0xE0 SHL SUB NOT PUSH1 0xE0 DUP6 SWAP1 SHL AND DUP2 MSTORE PUSH1 0x1 PUSH1 0x1 PUSH1 0x40 SHL SUB SWAP3 DUP4 AND PUSH1 0x4 DUP3 ADD MSTORE SWAP2 AND PUSH1 0x24 DUP3 ADD MSTORE PUSH1 0x44 ADD PUSH1 0x40 DUP1 MLOAD DUP1 DUP4 SUB DUP2 PUSH0 DUP8 GAS CALL ISZERO DUP1 ISZERO PUSH2 0x1942 JUMPI RETURNDATASIZE PUSH0 PUSH0 RETURNDATACOPY RETURNDATASIZE PUSH0 REVERT JUMPDEST POP POP POP POP PUSH1 0x40 MLOAD RETURNDATASIZE PUSH1 0x1F NOT PUSH1 0x1F DUP3 ADD AND DUP3 ADD DUP1 PUSH1 0x40 MSTORE POP DUP2 ADD SWAP1 PUSH2 0x1966 SWAP2 SWAP1 PUSH2 0x2A82 JUMP JUMPDEST SWAP1 SWAP5 POP SWAP2 POP PUSH0 JUMPDEST PUSH1 0x8 DUP2 LT DUP1 ISZERO PUSH2 0x197D JUMPI POP DUP8 MLOAD DUP3 LT JUMPDEST ISZERO PUSH2 0x1A06 JUMPI DUP8 DUP3 DUP2 MLOAD DUP2 LT PUSH2 0x1994 JUMPI PUSH2 0x1994 PUSH2 0x286E JUMP JUMPDEST ADD PUSH1 0x20 ADD MLOAD PUSH1 0x1 PUSH1 0x1 PUSH1 0xF8 SHL SUB NOT AND PUSH1 0xC0 DUP5 SWAP1 SHL DUP3 PUSH1 0x8 DUP2 LT PUSH2 0x19B9 JUMPI PUSH2 0x19B9 PUSH2 0x286E JUMP JUMPDEST BYTE PUSH1 0xF8 SHL XOR DUP7 DUP4 DUP2 MLOAD DUP2 LT PUSH2 0x19D0 JUMPI PUSH2 0x19D0 PUSH2 0x286E JUMP JUMPDEST PUSH1 0x20 ADD ADD SWAP1 PUSH1 0x1 PUSH1 0x1 PUSH1 0xF8 SHL SUB NOT AND SWAP1 DUP2 PUSH0 BYTE SWAP1 MSTORE8 POP DUP2 PUSH2 0x19F0 DUP2 PUSH2 0x28E2 JUMP JUMPDEST SWAP3 POP POP DUP1 DUP1 PUSH2 0x19FE SWAP1 PUSH2 0x28E2 JUMP JUMPDEST SWAP2 POP POP PUSH2 0x196D JUMP JUMPDEST POP DUP10 PUSH1 0x80 ADD MLOAD PUSH1 0x1 PUSH1 0x1 PUSH1 0xA0 SHL SUB AND PUSH4 0xA4566950 PUSH1 0x40 MLOAD DUP2 PUSH4 0xFFFFFFFF AND PUSH1 0xE0 SHL DUP2 MSTORE PUSH1 0x4 ADD PUSH1 0x60 PUSH1 0x40 MLOAD DUP1 DUP4 SUB DUP2 DUP7 GAS STATICCALL ISZERO DUP1 ISZERO PUSH2 0x1A47 JUMPI RETURNDATASIZE PUSH0 PUSH0 RETURNDATACOPY RETURNDATASIZE PUSH0 REVERT JUMPDEST POP POP POP POP PUSH1 0x40 MLOAD RETURNDATASIZE PUSH1 0x1F NOT PUSH1 0x1F DUP3 ADD AND DUP3 ADD DUP1 PUSH1 0x40 MSTORE POP DUP2 ADD SWAP1 PUSH2 0x1A6B SWAP2 SWAP1 PUSH2 0x290E JUMP JUMPDEST PUSH0 ADD MLOAD PUSH1 0x1 PUSH1 0x1 PUSH1 0xA0 SHL SUB AND PUSH4 0xF302D97F DUP6 DUP13 PUSH1 0x80 ADD MLOAD PUSH1 0x1 PUSH1 0x1 PUSH1 0xA0 SHL SUB AND PUSH4 0xA4566950 PUSH1 0x40 MLOAD DUP2 PUSH4 0xFFFFFFFF AND PUSH1 0xE0 SHL DUP2 MSTORE PUSH1 0x4 ADD PUSH1 0x60 PUSH1 0x40 MLOAD DUP1 DUP4 SUB DUP2 DUP7 GAS STATICCALL ISZERO DUP1 ISZERO PUSH2 0x1ABD JUMPI RETURNDATASIZE PUSH0 PUSH0 RETURNDATACOPY RETURNDATASIZE PUSH0 REVERT JUMPDEST POP POP POP POP PUSH1 0x40 MLOAD RETURNDATASIZE PUSH1 0x1F NOT PUSH1 0x1F DUP3 ADD AND DUP3 ADD DUP1 PUSH1 0x40 MSTORE POP DUP2 ADD SWAP1 PUSH2 0x1AE1 SWAP2 SWAP1 PUSH2 0x290E JUMP JUMPDEST PUSH1 0x20 ADD MLOAD PUSH1 0x1 PUSH1 0x1 PUSH1 0xA0 SHL SUB AND PUSH4 0x1686F265 PUSH1 0x40 MLOAD DUP2 PUSH4 0xFFFFFFFF AND PUSH1 0xE0 SHL DUP2 MSTORE PUSH1 0x4 ADD PUSH2 0x1A0 PUSH1 0x40 MLOAD DUP1 DUP4 SUB DUP2 PUSH0 DUP8 GAS CALL ISZERO DUP1 ISZERO PUSH2 0x1B22 JUMPI RETURNDATASIZE PUSH0 PUSH0 RETURNDATACOPY RETURNDATASIZE PUSH0 REVERT JUMPDEST POP POP POP POP PUSH1 0x40 MLOAD RETURNDATASIZE PUSH1 0x1F NOT PUSH1 0x1F DUP3 ADD AND DUP3 ADD DUP1 PUSH1 0x40 MSTORE POP DUP2 ADD SWAP1 PUSH2 0x1B46 SWAP2 SWAP1 PUSH2 0x297F JUMP JUMPDEST PUSH1 0x60 ADD MLOAD PUSH1 0x40 MLOAD PUSH1 0x1 PUSH1 0x1 PUSH1 0xE0 SHL SUB NOT PUSH1 0xE0 DUP6 SWAP1 SHL AND DUP2 MSTORE PUSH1 0x1 PUSH1 0x1 PUSH1 0x40 SHL SUB SWAP3 DUP4 AND PUSH1 0x4 DUP3 ADD MSTORE SWAP2 AND PUSH1 0x24 DUP3 ADD MSTORE PUSH1 0x44 ADD PUSH1 0x40 DUP1 MLOAD DUP1 DUP4 SUB DUP2 PUSH0 DUP8 GAS CALL ISZERO DUP1 ISZERO PUSH2 0x1B93 JUMPI RETURNDATASIZE PUSH0 PUSH0 RETURNDATACOPY RETURNDATASIZE PUSH0 REVERT JUMPDEST POP POP POP POP PUSH1 0x40 MLOAD RETURNDATASIZE PUSH1 0x1F NOT PUSH1 0x1F DUP3 ADD AND DUP3 ADD DUP1 PUSH1 0x40 MSTORE POP DUP2 ADD SWAP1 PUSH2 0x1BB7 SWAP2 SWAP1 PUSH2 0x2A82 JUMP JUMPDEST SWAP1 SWAP4 POP SWAP2 POP PUSH2 0x17AD JUMP JUMPDEST POP DUP2 SWAP5 POP PUSH2 0x1BCD PUSH2 0x1437 JUMP JUMPDEST POP POP POP SWAP5 POP SWAP5 SWAP3 POP POP POP JUMP JUMPDEST PUSH0 PUSH2 0x1BE4 DUP5 DUP5 PUSH2 0x13F0 JUMP JUMPDEST SWAP1 POP PUSH0 NOT DUP2 EQ PUSH2 0x1C2A JUMPI DUP2 DUP2 LT ISZERO PUSH2 0x1C1C JUMPI ORIGIN CALLER DUP6 DUP6 ADDRESS DUP6 DUP8 PUSH1 0x40 MLOAD PUSH3 0xB83D19 PUSH1 0xE2 SHL DUP2 MSTORE PUSH1 0x4 ADD PUSH2 0x6C2 SWAP8 SWAP7 SWAP6 SWAP5 SWAP4 SWAP3 SWAP2 SWAP1 PUSH2 0x2AAF JUMP JUMPDEST PUSH2 0x1C2A DUP5 DUP5 DUP5 DUP5 SUB PUSH0 PUSH2 0x1CCE JUMP JUMPDEST POP POP POP POP JUMP JUMPDEST PUSH2 0x1269 DUP4 DUP4 DUP4 PUSH2 0x1D5D JUMP JUMPDEST PUSH2 0x1C44 CALLER PUSH2 0xFEC JUMP JUMPDEST ISZERO DUP1 ISZERO PUSH2 0x1C57 JUMPI POP PUSH2 0x1C55 ORIGIN PUSH2 0xFEC JUMP JUMPDEST ISZERO JUMPDEST ISZERO PUSH2 0x13EE JUMPI ORIGIN CALLER ADDRESS PUSH1 0x40 MLOAD PUSH4 0xBE6BAB5 PUSH1 0xE0 SHL DUP2 MSTORE PUSH1 0x4 ADD PUSH2 0x6C2 SWAP4 SWAP3 SWAP2 SWAP1 PUSH2 0x2528 JUMP JUMPDEST PUSH1 0x1 PUSH1 0x1 PUSH1 0xA0 SHL SUB DUP3 AND PUSH0 DUP2 DUP2 MSTORE PUSH1 0x20 DUP2 SWAP1 MSTORE PUSH1 0x40 DUP1 DUP3 KECCAK256 DUP1 SLOAD PUSH1 0xFF NOT AND DUP6 ISZERO ISZERO SWAP1 DUP2 OR SWAP1 SWAP2 SSTORE SWAP1 MLOAD SWAP1 SWAP3 SWAP2 PUSH32 0x6BFA7E860C3E9BF67B810CB88276B19B27C972812BAC04793D369B59A1183A83 SWAP2 LOG3 POP POP JUMP JUMPDEST PUSH1 0x1 PUSH1 0x1 PUSH1 0xA0 SHL SUB DUP1 DUP6 AND PUSH0 SWAP1 DUP2 MSTORE PUSH1 0x2 PUSH1 0x20 SWAP1 DUP2 MSTORE PUSH1 0x40 DUP1 DUP4 KECCAK256 SWAP4 DUP8 AND DUP4 MSTORE SWAP3 SWAP1 MSTORE KECCAK256 DUP3 SWAP1 SSTORE DUP1 ISZERO PUSH2 0x1C2A JUMPI DUP3 PUSH1 0x1 PUSH1 0x1 PUSH1 0xA0 SHL SUB AND DUP5 PUSH1 0x1 PUSH1 0x1 PUSH1 0xA0 SHL SUB AND PUSH32 0x8C5BE1E5EBEC7D5BD14F71427D1E84F3DD0314C0F7B2291E5B200AC8C7C3B925 DUP5 PUSH1 0x40 MLOAD PUSH2 0x1D40 SWAP2 DUP2 MSTORE PUSH1 0x20 ADD SWAP1 JUMP JUMPDEST PUSH1 0x40 MLOAD DUP1 SWAP2 SUB SWAP1 LOG3 POP POP POP POP JUMP JUMPDEST PUSH2 0x1D59 PUSH0 DUP4 DUP4 PUSH2 0x1D5D JUMP JUMPDEST POP POP JUMP JUMPDEST PUSH1 0x1 PUSH1 0x1 PUSH1 0xA0 SHL SUB DUP4 AND PUSH2 0x1D87 JUMPI DUP1 PUSH1 0x3 PUSH0 DUP3 DUP3 SLOAD PUSH2 0x1D7C SWAP2 SWAP1 PUSH2 0x2664 JUMP JUMPDEST SWAP1 SWAP2 SSTORE POP PUSH2 0x1DEC SWAP1 POP JUMP JUMPDEST PUSH1 0x1 PUSH1 0x1 PUSH1 0xA0 SHL SUB DUP4 AND PUSH0 SWAP1 DUP2 MSTORE PUSH1 0x1 PUSH1 0x20 MSTORE PUSH1 0x40 SWAP1 KECCAK256 SLOAD DUP2 DUP2 LT ISZERO PUSH2 0x1DCE JUMPI ORIGIN CALLER DUP6 DUP6 ADDRESS DUP6 DUP8 PUSH1 0x40 MLOAD PUSH4 0xF7D0BBD PUSH1 0xE2 SHL DUP2 MSTORE PUSH1 0x4 ADD PUSH2 0x6C2 SWAP8 SWAP7 SWAP6 SWAP5 SWAP4 SWAP3 SWAP2 SWAP1 PUSH2 0x2AAF JUMP JUMPDEST PUSH1 0x1 PUSH1 0x1 PUSH1 0xA0 SHL SUB DUP5 AND PUSH0 SWAP1 DUP2 MSTORE PUSH1 0x1 PUSH1 0x20 MSTORE PUSH1 0x40 SWAP1 KECCAK256 SWAP1 DUP3 SWAP1 SUB SWAP1 SSTORE JUMPDEST PUSH1 0x1 PUSH1 0x1 PUSH1 0xA0 SHL SUB DUP3 AND PUSH2 0x1E08 JUMPI PUSH1 0x3 DUP1 SLOAD DUP3 SWAP1 SUB SWAP1 SSTORE PUSH2 0x1E26 JUMP JUMPDEST PUSH1 0x1 PUSH1 0x1 PUSH1 0xA0 SHL SUB DUP3 AND PUSH0 SWAP1 DUP2 MSTORE PUSH1 0x1 PUSH1 0x20 MSTORE PUSH1 0x40 SWAP1 KECCAK256 DUP1 SLOAD DUP3 ADD SWAP1 SSTORE JUMPDEST DUP2 PUSH1 0x1 PUSH1 0x1 PUSH1 0xA0 SHL SUB AND DUP4 PUSH1 0x1 PUSH1 0x1 PUSH1 0xA0 SHL SUB AND PUSH32 0xDDF252AD1BE2C89B69C2B068FC378DAA952BA7F163C4A11628F55A4DF523B3EF DUP4 PUSH1 0x40 MLOAD PUSH2 0x1E6B SWAP2 DUP2 MSTORE PUSH1 0x20 ADD SWAP1 JUMP JUMPDEST PUSH1 0x40 MLOAD DUP1 SWAP2 SUB SWAP1 LOG3 POP POP POP JUMP JUMPDEST POP DUP1 SLOAD PUSH2 0x1E84 SWAP1 PUSH2 0x2415 JUMP JUMPDEST PUSH0 DUP3 SSTORE DUP1 PUSH1 0x1F LT PUSH2 0x1E93 JUMPI POP POP JUMP JUMPDEST PUSH1 0x1F ADD PUSH1 0x20 SWAP1 DIV SWAP1 PUSH0 MSTORE PUSH1 0x20 PUSH0 KECCAK256 SWAP1 DUP2 ADD SWAP1 PUSH2 0xB6B SWAP2 SWAP1 PUSH2 0x1ECD JUMP JUMPDEST PUSH1 0x40 MLOAD DUP1 PUSH1 0x60 ADD PUSH1 0x40 MSTORE DUP1 PUSH1 0x3 SWAP1 PUSH1 0x20 DUP3 MUL DUP1 CALLDATASIZE DUP4 CALLDATACOPY POP SWAP2 SWAP3 SWAP2 POP POP JUMP JUMPDEST JUMPDEST DUP1 DUP3 GT ISZERO PUSH2 0x1EE1 JUMPI PUSH0 DUP2 SSTORE PUSH1 0x1 ADD PUSH2 0x1ECE JUMP JUMPDEST POP SWAP1 JUMP JUMPDEST PUSH0 DUP2 MLOAD DUP1 DUP5 MSTORE DUP1 PUSH1 0x20 DUP5 ADD PUSH1 0x20 DUP7 ADD MCOPY PUSH0 PUSH1 0x20 DUP3 DUP7 ADD ADD MSTORE PUSH1 0x20 PUSH1 0x1F NOT PUSH1 0x1F DUP4 ADD AND DUP6 ADD ADD SWAP2 POP POP SWAP3 SWAP2 POP POP JUMP JUMPDEST PUSH1 0x20 DUP2 MSTORE PUSH0 PUSH2 0x1F25 PUSH1 0x20 DUP4 ADD DUP5 PUSH2 0x1EE5 JUMP JUMPDEST SWAP4 SWAP3 POP POP POP JUMP JUMPDEST PUSH1 0x1 PUSH1 0x1 PUSH1 0xA0 SHL SUB DUP2 AND DUP2 EQ PUSH2 0xB6B JUMPI PUSH0 PUSH0 REVERT JUMPDEST PUSH0 PUSH0 PUSH1 0x40 DUP4 DUP6 SUB SLT ISZERO PUSH2 0x1F51 JUMPI PUSH0 PUSH0 REVERT JUMPDEST DUP3 CALLDATALOAD PUSH2 0x1F5C DUP2 PUSH2 0x1F2C JUMP JUMPDEST SWAP5 PUSH1 0x20 SWAP4 SWAP1 SWAP4 ADD CALLDATALOAD SWAP4 POP POP POP JUMP JUMPDEST PUSH1 0x1 PUSH1 0x1 PUSH1 0x40 SHL SUB DUP2 AND DUP2 EQ PUSH2 0xB6B JUMPI PUSH0 PUSH0 REVERT JUMPDEST DUP1 CALLDATALOAD PUSH2 0x1F89 DUP2 PUSH2 0x1F6A JUMP JUMPDEST SWAP2 SWAP1 POP JUMP JUMPDEST PUSH4 0x4E487B71 PUSH1 0xE0 SHL PUSH0 MSTORE PUSH1 0x41 PUSH1 0x4 MSTORE PUSH1 0x24 PUSH0 REVERT JUMPDEST PUSH1 0x40 MLOAD PUSH2 0x100 DUP2 ADD PUSH1 0x1 PUSH1 0x1 PUSH1 0x40 SHL SUB DUP2 GT DUP3 DUP3 LT OR ISZERO PUSH2 0x1FC5 JUMPI PUSH2 0x1FC5 PUSH2 0x1F8E JUMP JUMPDEST PUSH1 0x40 MSTORE SWAP1 JUMP JUMPDEST PUSH1 0x40 MLOAD PUSH2 0x1A0 DUP2 ADD PUSH1 0x1 PUSH1 0x1 PUSH1 0x40 SHL SUB DUP2 GT DUP3 DUP3 LT OR ISZERO PUSH2 0x1FC5 JUMPI PUSH2 0x1FC5 PUSH2 0x1F8E JUMP JUMPDEST PUSH1 0x40 MLOAD PUSH1 0x1F DUP3 ADD PUSH1 0x1F NOT AND DUP2 ADD PUSH1 0x1 PUSH1 0x1 PUSH1 0x40 SHL SUB DUP2 GT DUP3 DUP3 LT OR ISZERO PUSH2 0x2016 JUMPI PUSH2 0x2016 PUSH2 0x1F8E JUMP JUMPDEST PUSH1 0x40 MSTORE SWAP2 SWAP1 POP JUMP JUMPDEST PUSH0 PUSH1 0x1 PUSH1 0x1 PUSH1 0x40 SHL SUB DUP3 GT ISZERO PUSH2 0x2036 JUMPI PUSH2 0x2036 PUSH2 0x1F8E JUMP JUMPDEST POP PUSH1 0x1F ADD PUSH1 0x1F NOT AND PUSH1 0x20 ADD SWAP1 JUMP JUMPDEST PUSH0 DUP3 PUSH1 0x1F DUP4 ADD SLT PUSH2 0x2053 JUMPI PUSH0 PUSH0 REVERT JUMPDEST DUP2 CALLDATALOAD PUSH1 0x20 DUP4 ADD PUSH0 PUSH2 0x206B PUSH2 0x2066 DUP5 PUSH2 0x201E JUMP JUMPDEST PUSH2 0x1FEE JUMP JUMPDEST SWAP1 POP DUP3 DUP2 MSTORE DUP6 DUP4 DUP4 ADD GT ISZERO PUSH2 0x207E JUMPI PUSH0 PUSH0 REVERT JUMPDEST DUP3 DUP3 PUSH1 0x20 DUP4 ADD CALLDATACOPY PUSH0 SWAP3 DUP2 ADD PUSH1 0x20 ADD SWAP3 SWAP1 SWAP3 MSTORE POP SWAP4 SWAP3 POP POP POP JUMP JUMPDEST PUSH0 PUSH0 PUSH0 PUSH0 PUSH1 0x80 DUP6 DUP8 SUB SLT ISZERO PUSH2 0x20AB JUMPI PUSH0 PUSH0 REVERT JUMPDEST DUP5 CALLDATALOAD PUSH2 0x20B6 DUP2 PUSH2 0x1F6A JUMP JUMPDEST SWAP4 POP PUSH1 0x20 DUP6 ADD CALLDATALOAD PUSH2 0x20C6 DUP2 PUSH2 0x1F6A JUMP JUMPDEST SWAP3 POP PUSH1 0x40 DUP6 ADD CALLDATALOAD PUSH1 0x1 PUSH1 0x1 PUSH1 0x40 SHL SUB DUP2 GT ISZERO PUSH2 0x20E0 JUMPI PUSH0 PUSH0 REVERT JUMPDEST PUSH2 0x20EC DUP8 DUP3 DUP9 ADD PUSH2 0x2044 JUMP JUMPDEST SWAP3 POP POP PUSH1 0x60 DUP6 ADD CALLDATALOAD PUSH1 0x1 PUSH1 0x1 PUSH1 0x40 SHL SUB DUP2 GT ISZERO PUSH2 0x2107 JUMPI PUSH0 PUSH0 REVERT JUMPDEST PUSH2 0x2113 DUP8 DUP3 DUP9 ADD PUSH2 0x2044 JUMP JUMPDEST SWAP2 POP POP SWAP3 SWAP6 SWAP2 SWAP5 POP SWAP3 POP JUMP JUMPDEST PUSH0 PUSH0 PUSH0 PUSH1 0x60 DUP5 DUP7 SUB SLT ISZERO PUSH2 0x2131 JUMPI PUSH0 PUSH0 REVERT JUMPDEST DUP4 CALLDATALOAD PUSH2 0x213C DUP2 PUSH2 0x1F2C JUMP JUMPDEST SWAP3 POP PUSH1 0x20 DUP5 ADD CALLDATALOAD PUSH2 0x214C DUP2 PUSH2 0x1F2C JUMP JUMPDEST SWAP3 SWAP6 SWAP3 SWAP5 POP POP POP PUSH1 0x40 SWAP2 SWAP1 SWAP2 ADD CALLDATALOAD SWAP1 JUMP JUMPDEST PUSH0 PUSH1 0x20 DUP3 DUP5 SUB SLT ISZERO PUSH2 0x216D JUMPI PUSH0 PUSH0 REVERT JUMPDEST DUP2 CALLDATALOAD PUSH2 0x1F25 DUP2 PUSH2 0x1F2C JUMP JUMPDEST PUSH0 PUSH0 PUSH0 PUSH0 PUSH1 0x80 DUP6 DUP8 SUB SLT ISZERO PUSH2 0x218B JUMPI PUSH0 PUSH0 REVERT JUMPDEST DUP5 CALLDATALOAD PUSH2 0x2196 DUP2 PUSH2 0x1F6A JUMP JUMPDEST SWAP4 POP PUSH1 0x20 DUP6 ADD CALLDATALOAD PUSH2 0x21A6 DUP2 PUSH2 0x1F6A JUMP JUMPDEST SWAP3 POP PUSH1 0x40 DUP6 ADD CALLDATALOAD PUSH2 0x21B6 DUP2 PUSH2 0x1F6A JUMP JUMPDEST SWAP2 POP PUSH1 0x60 DUP6 ADD CALLDATALOAD PUSH1 0x1 PUSH1 0x1 PUSH1 0x40 SHL SUB DUP2 GT ISZERO PUSH2 0x2107 JUMPI PUSH0 PUSH0 REVERT JUMPDEST DUP1 CALLDATALOAD PUSH2 0x1F89 DUP2 PUSH2 0x1F2C JUMP JUMPDEST PUSH0 PUSH0 PUSH0 PUSH0 PUSH0 DUP6 DUP8 SUB PUSH2 0x180 DUP2 SLT ISZERO PUSH2 0x21F1 JUMPI PUSH0 PUSH0 REVERT JUMPDEST PUSH2 0x100 DUP2 SLT ISZERO PUSH2 0x21FF JUMPI PUSH0 PUSH0 REVERT JUMPDEST POP PUSH2 0x2208 PUSH2 0x1FA2 JUMP JUMPDEST DUP7 CALLDATALOAD PUSH2 0x2213 DUP2 PUSH2 0x1F2C JUMP JUMPDEST DUP2 MSTORE PUSH2 0x2221 PUSH1 0x20 DUP9 ADD PUSH2 0x21D0 JUMP JUMPDEST PUSH1 0x20 DUP3 ADD MSTORE PUSH2 0x2232 PUSH1 0x40 DUP9 ADD PUSH2 0x1F7E JUMP JUMPDEST PUSH1 0x40 DUP3 ADD MSTORE PUSH2 0x2243 PUSH1 0x60 DUP9 ADD PUSH2 0x1F7E JUMP JUMPDEST PUSH1 0x60 DUP3 ADD MSTORE PUSH2 0x2254 PUSH1 0x80 DUP9 ADD PUSH2 0x21D0 JUMP JUMPDEST PUSH1 0x80 DUP3 ADD MSTORE PUSH2 0x2265 PUSH1 0xA0 DUP9 ADD PUSH2 0x1F7E JUMP JUMPDEST PUSH1 0xA0 DUP3 ADD MSTORE PUSH2 0x2276 PUSH1 0xC0 DUP9 ADD PUSH2 0x1F7E JUMP JUMPDEST PUSH1 0xC0 DUP3 ADD MSTORE PUSH2 0x2287 PUSH1 0xE0 DUP9 ADD PUSH2 0x1F7E JUMP JUMPDEST PUSH1 0xE0 DUP3 ADD MSTORE SWAP5 POP PUSH2 0x229B PUSH2 0x100 DUP8 ADD PUSH2 0x1F7E JUMP JUMPDEST SWAP4 POP PUSH2 0x22AA PUSH2 0x120 DUP8 ADD PUSH2 0x1F7E JUMP JUMPDEST SWAP3 POP PUSH2 0x22B9 PUSH2 0x140 DUP8 ADD PUSH2 0x1F7E JUMP JUMPDEST SWAP2 POP PUSH2 0x22C8 PUSH2 0x160 DUP8 ADD PUSH2 0x1F7E JUMP JUMPDEST SWAP1 POP SWAP3 SWAP6 POP SWAP3 SWAP6 SWAP1 SWAP4 POP JUMP JUMPDEST PUSH1 0x1 PUSH1 0x1 PUSH1 0x40 SHL SUB DUP4 AND DUP2 MSTORE PUSH1 0x40 PUSH1 0x20 DUP3 ADD MSTORE PUSH0 PUSH2 0x22F5 PUSH1 0x40 DUP4 ADD DUP5 PUSH2 0x1EE5 JUMP JUMPDEST SWAP5 SWAP4 POP POP POP POP JUMP JUMPDEST PUSH1 0x1 PUSH1 0x1 PUSH1 0xA0 SHL SUB SWAP2 SWAP1 SWAP2 AND DUP2 MSTORE PUSH1 0x20 ADD SWAP1 JUMP JUMPDEST PUSH0 PUSH1 0x20 DUP3 DUP5 SUB SLT ISZERO PUSH2 0x2321 JUMPI PUSH0 PUSH0 REVERT JUMPDEST DUP2 CALLDATALOAD PUSH1 0x1 PUSH1 0x1 PUSH1 0x40 SHL SUB DUP2 GT ISZERO PUSH2 0x2336 JUMPI PUSH0 PUSH0 REVERT JUMPDEST PUSH2 0x22F5 DUP5 DUP3 DUP6 ADD PUSH2 0x2044 JUMP JUMPDEST PUSH1 0x60 DUP2 ADD DUP2 DUP4 PUSH0 JUMPDEST PUSH1 0x3 DUP2 LT ISZERO PUSH2 0x2372 JUMPI DUP2 MLOAD PUSH1 0x1 PUSH1 0x1 PUSH1 0x40 SHL SUB AND DUP4 MSTORE PUSH1 0x20 SWAP3 DUP4 ADD SWAP3 SWAP1 SWAP2 ADD SWAP1 PUSH1 0x1 ADD PUSH2 0x234A JUMP JUMPDEST POP POP POP SWAP3 SWAP2 POP POP JUMP JUMPDEST PUSH0 PUSH0 PUSH1 0x40 DUP4 DUP6 SUB SLT ISZERO PUSH2 0x238C JUMPI PUSH0 PUSH0 REVERT JUMPDEST DUP3 CALLDATALOAD PUSH1 0x1 PUSH1 0x1 PUSH1 0x40 SHL SUB DUP2 GT ISZERO PUSH2 0x23A1 JUMPI PUSH0 PUSH0 REVERT JUMPDEST PUSH2 0x23AD DUP6 DUP3 DUP7 ADD PUSH2 0x2044 JUMP JUMPDEST SWAP3 POP POP PUSH1 0x20 DUP4 ADD CALLDATALOAD PUSH1 0x1 PUSH1 0x1 PUSH1 0x40 SHL SUB DUP2 GT ISZERO PUSH2 0x23C8 JUMPI PUSH0 PUSH0 REVERT JUMPDEST PUSH2 0x23D4 DUP6 DUP3 DUP7 ADD PUSH2 0x2044 JUMP JUMPDEST SWAP2 POP POP SWAP3 POP SWAP3 SWAP1 POP JUMP JUMPDEST PUSH0 PUSH0 PUSH1 0x40 DUP4 DUP6 SUB SLT ISZERO PUSH2 0x23EF JUMPI PUSH0 PUSH0 REVERT JUMPDEST DUP3 CALLDATALOAD PUSH2 0x23FA DUP2 PUSH2 0x1F2C JUMP JUMPDEST SWAP2 POP PUSH1 0x20 DUP4 ADD CALLDATALOAD PUSH2 0x240A DUP2 PUSH2 0x1F2C JUMP JUMPDEST DUP1 SWAP2 POP POP SWAP3 POP SWAP3 SWAP1 POP JUMP JUMPDEST PUSH1 0x1 DUP2 DUP2 SHR SWAP1 DUP3 AND DUP1 PUSH2 0x2429 JUMPI PUSH1 0x7F DUP3 AND SWAP2 POP JUMPDEST PUSH1 0x20 DUP3 LT DUP2 SUB PUSH2 0x2447 JUMPI PUSH4 0x4E487B71 PUSH1 0xE0 SHL PUSH0 MSTORE PUSH1 0x22 PUSH1 0x4 MSTORE PUSH1 0x24 PUSH0 REVERT JUMPDEST POP SWAP2 SWAP1 POP JUMP JUMPDEST DUP1 MLOAD PUSH2 0x1F89 DUP2 PUSH2 0x1F2C JUMP JUMPDEST DUP1 MLOAD PUSH2 0x1F89 DUP2 PUSH2 0x1F6A JUMP JUMPDEST PUSH0 PUSH2 0x100 DUP3 DUP5 SUB SLT DUP1 ISZERO PUSH2 0x2475 JUMPI PUSH0 PUSH0 REVERT JUMPDEST POP PUSH2 0x247E PUSH2 0x1FA2 JUMP JUMPDEST DUP3 MLOAD PUSH2 0x2489 DUP2 PUSH2 0x1F2C JUMP JUMPDEST DUP2 MSTORE PUSH2 0x2497 PUSH1 0x20 DUP5 ADD PUSH2 0x244D JUMP JUMPDEST PUSH1 0x20 DUP3 ADD MSTORE PUSH2 0x24A8 PUSH1 0x40 DUP5 ADD PUSH2 0x2458 JUMP JUMPDEST PUSH1 0x40 DUP3 ADD MSTORE PUSH2 0x24B9 PUSH1 0x60 DUP5 ADD PUSH2 0x2458 JUMP JUMPDEST PUSH1 0x60 DUP3 ADD MSTORE PUSH2 0x24CA PUSH1 0x80 DUP5 ADD PUSH2 0x244D JUMP JUMPDEST PUSH1 0x80 DUP3 ADD MSTORE PUSH2 0x24DB PUSH1 0xA0 DUP5 ADD PUSH2 0x2458 JUMP JUMPDEST PUSH1 0xA0 DUP3 ADD MSTORE PUSH2 0x24EC PUSH1 0xC0 DUP5 ADD PUSH2 0x2458 JUMP JUMPDEST PUSH1 0xC0 DUP3 ADD MSTORE PUSH2 0x24FD PUSH1 0xE0 DUP5 ADD PUSH2 0x2458 JUMP JUMPDEST PUSH1 0xE0 DUP3 ADD MSTORE SWAP4 SWAP3 POP POP POP JUMP JUMPDEST PUSH0 PUSH1 0x20 DUP3 DUP5 SUB SLT ISZERO PUSH2 0x2519 JUMPI PUSH0 PUSH0 REVERT JUMPDEST DUP2 MLOAD DUP1 ISZERO ISZERO DUP2 EQ PUSH2 0x1F25 JUMPI PUSH0 PUSH0 REVERT JUMPDEST PUSH1 0x1 PUSH1 0x1 PUSH1 0xA0 SHL SUB SWAP4 DUP5 AND DUP2 MSTORE SWAP2 DUP4 AND PUSH1 0x20 DUP4 ADD MSTORE SWAP1 SWAP2 AND PUSH1 0x40 DUP3 ADD MSTORE PUSH1 0x60 ADD SWAP1 JUMP JUMPDEST PUSH1 0x1F DUP3 GT ISZERO PUSH2 0x1269 JUMPI DUP1 PUSH0 MSTORE PUSH1 0x20 PUSH0 KECCAK256 PUSH1 0x1F DUP5 ADD PUSH1 0x5 SHR DUP2 ADD PUSH1 0x20 DUP6 LT ISZERO PUSH2 0x2570 JUMPI POP DUP1 JUMPDEST PUSH1 0x1F DUP5 ADD PUSH1 0x5 SHR DUP3 ADD SWAP2 POP JUMPDEST DUP2 DUP2 LT ISZERO PUSH2 0x258F JUMPI PUSH0 DUP2 SSTORE PUSH1 0x1 ADD PUSH2 0x257C JUMP JUMPDEST POP POP POP POP POP JUMP JUMPDEST DUP2 MLOAD PUSH1 0x1 PUSH1 0x1 PUSH1 0x40 SHL SUB DUP2 GT ISZERO PUSH2 0x25AF JUMPI PUSH2 0x25AF PUSH2 0x1F8E JUMP JUMPDEST PUSH2 0x25C3 DUP2 PUSH2 0x25BD DUP5 SLOAD PUSH2 0x2415 JUMP JUMPDEST DUP5 PUSH2 0x254B JUMP JUMPDEST PUSH1 0x20 PUSH1 0x1F DUP3 GT PUSH1 0x1 DUP2 EQ PUSH2 0x25F5 JUMPI PUSH0 DUP4 ISZERO PUSH2 0x25DE JUMPI POP DUP5 DUP3 ADD MLOAD JUMPDEST PUSH0 NOT PUSH1 0x3 DUP6 SWAP1 SHL SHR NOT AND PUSH1 0x1 DUP5 SWAP1 SHL OR DUP5 SSTORE PUSH2 0x258F JUMP JUMPDEST PUSH0 DUP5 DUP2 MSTORE PUSH1 0x20 DUP2 KECCAK256 PUSH1 0x1F NOT DUP6 AND SWAP2 JUMPDEST DUP3 DUP2 LT ISZERO PUSH2 0x2624 JUMPI DUP8 DUP6 ADD MLOAD DUP3 SSTORE PUSH1 0x20 SWAP5 DUP6 ADD SWAP5 PUSH1 0x1 SWAP1 SWAP3 ADD SWAP2 ADD PUSH2 0x2604 JUMP JUMPDEST POP DUP5 DUP3 LT ISZERO PUSH2 0x2641 JUMPI DUP7 DUP5 ADD MLOAD PUSH0 NOT PUSH1 0x3 DUP8 SWAP1 SHL PUSH1 0xF8 AND SHR NOT AND DUP2 SSTORE JUMPDEST POP POP POP POP PUSH1 0x1 SWAP1 DUP2 SHL ADD SWAP1 SSTORE POP JUMP JUMPDEST PUSH4 0x4E487B71 PUSH1 0xE0 SHL PUSH0 MSTORE PUSH1 0x11 PUSH1 0x4 MSTORE PUSH1 0x24 PUSH0 REVERT JUMPDEST DUP1 DUP3 ADD DUP1 DUP3 GT ISZERO PUSH2 0x50D JUMPI PUSH2 0x50D PUSH2 0x2650 JUMP JUMPDEST PUSH1 0x1 DUP2 JUMPDEST PUSH1 0x1 DUP5 GT ISZERO PUSH2 0x26B2 JUMPI DUP1 DUP6 DIV DUP2 GT ISZERO PUSH2 0x2696 JUMPI PUSH2 0x2696 PUSH2 0x2650 JUMP JUMPDEST PUSH1 0x1 DUP5 AND ISZERO PUSH2 0x26A4 JUMPI SWAP1 DUP2 MUL SWAP1 JUMPDEST PUSH1 0x1 SWAP4 SWAP1 SWAP4 SHR SWAP3 DUP1 MUL PUSH2 0x267B JUMP JUMPDEST SWAP4 POP SWAP4 SWAP2 POP POP JUMP JUMPDEST PUSH0 DUP3 PUSH2 0x26C8 JUMPI POP PUSH1 0x1 PUSH2 0x50D JUMP JUMPDEST DUP2 PUSH2 0x26D4 JUMPI POP PUSH0 PUSH2 0x50D JUMP JUMPDEST DUP2 PUSH1 0x1 DUP2 EQ PUSH2 0x26EA JUMPI PUSH1 0x2 DUP2 EQ PUSH2 0x26F4 JUMPI PUSH2 0x2710 JUMP JUMPDEST PUSH1 0x1 SWAP2 POP POP PUSH2 0x50D JUMP JUMPDEST PUSH1 0xFF DUP5 GT ISZERO PUSH2 0x2705 JUMPI PUSH2 0x2705 PUSH2 0x2650 JUMP JUMPDEST POP POP PUSH1 0x1 DUP3 SHL PUSH2 0x50D JUMP JUMPDEST POP PUSH1 0x20 DUP4 LT PUSH2 0x133 DUP4 LT AND PUSH1 0x4E DUP5 LT PUSH1 0xB DUP5 LT AND OR ISZERO PUSH2 0x2733 JUMPI POP DUP2 DUP2 EXP PUSH2 0x50D JUMP JUMPDEST PUSH2 0x273F PUSH0 NOT DUP5 DUP5 PUSH2 0x2677 JUMP JUMPDEST DUP1 PUSH0 NOT DIV DUP3 GT ISZERO PUSH2 0x2752 JUMPI PUSH2 0x2752 PUSH2 0x2650 JUMP JUMPDEST MUL SWAP4 SWAP3 POP POP POP JUMP JUMPDEST PUSH0 PUSH2 0x1F25 PUSH1 0xFF DUP5 AND DUP4 PUSH2 0x26BA JUMP JUMPDEST DUP1 DUP3 MUL DUP2 ISZERO DUP3 DUP3 DIV DUP5 EQ OR PUSH2 0x50D JUMPI PUSH2 0x50D PUSH2 0x2650 JUMP JUMPDEST PUSH4 0x4E487B71 PUSH1 0xE0 SHL PUSH0 MSTORE PUSH1 0x12 PUSH1 0x4 MSTORE PUSH1 0x24 PUSH0 REVERT JUMPDEST PUSH0 DUP3 PUSH2 0x27A1 JUMPI PUSH2 0x27A1 PUSH2 0x277F JUMP JUMPDEST POP DIV SWAP1 JUMP JUMPDEST PUSH1 0x1 PUSH1 0x1 PUSH1 0xA0 SHL SUB SWAP4 DUP5 AND DUP2 MSTORE SWAP2 SWAP1 SWAP3 AND PUSH1 0x20 DUP3 ADD MSTORE PUSH1 0x40 DUP2 ADD SWAP2 SWAP1 SWAP2 MSTORE PUSH1 0x60 ADD SWAP1 JUMP JUMPDEST PUSH0 PUSH1 0x20 DUP3 DUP5 SUB SLT ISZERO PUSH2 0x27DA JUMPI PUSH0 PUSH0 REVERT JUMPDEST DUP2 MLOAD PUSH1 0x1 PUSH1 0x1 PUSH1 0x40 SHL SUB DUP2 GT ISZERO PUSH2 0x27EF JUMPI PUSH0 PUSH0 REVERT JUMPDEST DUP3 ADD PUSH1 0x1F DUP2 ADD DUP5 SGT PUSH2 0x27FF JUMPI PUSH0 PUSH0 REVERT JUMPDEST DUP1 MLOAD PUSH2 0x280D PUSH2 0x2066 DUP3 PUSH2 0x201E JUMP JUMPDEST DUP2 DUP2 MSTORE DUP6 PUSH1 0x20 DUP4 DUP6 ADD ADD GT ISZERO PUSH2 0x2821 JUMPI PUSH0 PUSH0 REVERT JUMPDEST DUP2 PUSH1 0x20 DUP5 ADD PUSH1 0x20 DUP4 ADD MCOPY PUSH0 SWAP2 DUP2 ADD PUSH1 0x20 ADD SWAP2 SWAP1 SWAP2 MSTORE SWAP5 SWAP4 POP POP POP POP JUMP JUMPDEST PUSH14 0x2732B2B21020B8383937BB32B21 PUSH1 0x95 SHL DUP2 MSTORE PUSH0 DUP3 MLOAD DUP1 PUSH1 0x20 DUP6 ADD PUSH1 0xE DUP6 ADD MCOPY PUSH0 SWAP3 ADD PUSH1 0xE ADD SWAP2 DUP3 MSTORE POP SWAP2 SWAP1 POP JUMP JUMPDEST PUSH4 0x4E487B71 PUSH1 0xE0 SHL PUSH0 MSTORE PUSH1 0x32 PUSH1 0x4 MSTORE PUSH1 0x24 PUSH0 REVERT JUMPDEST DUP2 DUP2 SUB DUP2 DUP2 GT ISZERO PUSH2 0x50D JUMPI PUSH2 0x50D PUSH2 0x2650 JUMP JUMPDEST PUSH0 PUSH1 0x20 DUP3 DUP5 SUB SLT ISZERO PUSH2 0x28A5 JUMPI PUSH0 PUSH0 REVERT JUMPDEST DUP2 MLOAD PUSH2 0x1F25 DUP2 PUSH2 0x1F6A JUMP JUMPDEST PUSH0 DUP3 PUSH2 0x28BE JUMPI PUSH2 0x28BE PUSH2 0x277F JUMP JUMPDEST POP MOD SWAP1 JUMP JUMPDEST PUSH1 0x1 PUSH1 0x1 PUSH1 0x40 SHL SUB DUP2 DUP2 AND DUP4 DUP3 AND ADD SWAP1 DUP2 GT ISZERO PUSH2 0x50D JUMPI PUSH2 0x50D PUSH2 0x2650 JUMP JUMPDEST PUSH0 PUSH1 0x1 DUP3 ADD PUSH2 0x28F3 JUMPI PUSH2 0x28F3 PUSH2 0x2650 JUMP JUMPDEST POP PUSH1 0x1 ADD SWAP1 JUMP JUMPDEST PUSH4 0x4E487B71 PUSH1 0xE0 SHL PUSH0 MSTORE PUSH1 0x31 PUSH1 0x4 MSTORE PUSH1 0x24 PUSH0 REVERT JUMPDEST PUSH0 PUSH1 0x60 DUP3 DUP5 SUB SLT DUP1 ISZERO PUSH2 0x291F JUMPI PUSH0 PUSH0 REVERT JUMPDEST POP PUSH1 0x40 MLOAD PUSH1 0x60 DUP2 ADD PUSH1 0x1 PUSH1 0x1 PUSH1 0x40 SHL SUB DUP2 GT DUP3 DUP3 LT OR ISZERO PUSH2 0x2942 JUMPI PUSH2 0x2942 PUSH2 0x1F8E JUMP JUMPDEST PUSH1 0x40 MSTORE DUP3 MLOAD PUSH2 0x2950 DUP2 PUSH2 0x1F2C JUMP JUMPDEST DUP2 MSTORE PUSH1 0x20 DUP4 ADD MLOAD PUSH2 0x2960 DUP2 PUSH2 0x1F2C JUMP JUMPDEST PUSH1 0x20 DUP3 ADD MSTORE PUSH1 0x40 DUP4 ADD MLOAD PUSH2 0x2973 DUP2 PUSH2 0x1F6A JUMP JUMPDEST PUSH1 0x40 DUP3 ADD MSTORE SWAP4 SWAP3 POP POP POP JUMP JUMPDEST PUSH0 PUSH2 0x1A0 DUP3 DUP5 SUB SLT DUP1 ISZERO PUSH2 0x2991 JUMPI PUSH0 PUSH0 REVERT JUMPDEST POP PUSH2 0x299A PUSH2 0x1FCB JUMP JUMPDEST PUSH2 0x29A3 DUP4 PUSH2 0x2458 JUMP JUMPDEST DUP2 MSTORE PUSH2 0x29B1 PUSH1 0x20 DUP5 ADD PUSH2 0x2458 JUMP JUMPDEST PUSH1 0x20 DUP3 ADD MSTORE PUSH2 0x29C2 PUSH1 0x40 DUP5 ADD PUSH2 0x2458 JUMP JUMPDEST PUSH1 0x40 DUP3 ADD MSTORE PUSH2 0x29D3 PUSH1 0x60 DUP5 ADD PUSH2 0x2458 JUMP JUMPDEST PUSH1 0x60 DUP3 ADD MSTORE PUSH2 0x29E4 PUSH1 0x80 DUP5 ADD PUSH2 0x2458 JUMP JUMPDEST PUSH1 0x80 DUP3 ADD MSTORE PUSH2 0x29F5 PUSH1 0xA0 DUP5 ADD PUSH2 0x2458 JUMP JUMPDEST PUSH1 0xA0 DUP3 ADD MSTORE PUSH2 0x2A06 PUSH1 0xC0 DUP5 ADD PUSH2 0x2458 JUMP JUMPDEST PUSH1 0xC0 DUP3 ADD MSTORE PUSH2 0x2A17 PUSH1 0xE0 DUP5 ADD PUSH2 0x2458 JUMP JUMPDEST PUSH1 0xE0 DUP3 ADD MSTORE PUSH2 0x2A29 PUSH2 0x100 DUP5 ADD PUSH2 0x2458 JUMP JUMPDEST PUSH2 0x100 DUP3 ADD MSTORE PUSH2 0x2A3C PUSH2 0x120 DUP5 ADD PUSH2 0x2458 JUMP JUMPDEST PUSH2 0x120 DUP3 ADD MSTORE PUSH2 0x2A4F PUSH2 0x140 DUP5 ADD PUSH2 0x2458 JUMP JUMPDEST PUSH2 0x140 DUP3 ADD MSTORE PUSH2 0x2A62 PUSH2 0x160 DUP5 ADD PUSH2 0x2458 JUMP JUMPDEST PUSH2 0x160 DUP3 ADD MSTORE PUSH2 0x2A75 PUSH2 0x180 DUP5 ADD PUSH2 0x2458 JUMP JUMPDEST PUSH2 0x180 DUP3 ADD MSTORE SWAP4 SWAP3 POP POP POP JUMP JUMPDEST PUSH0 PUSH0 PUSH1 0x40 DUP4 DUP6 SUB SLT ISZERO PUSH2 0x2A93 JUMPI PUSH0 PUSH0 REVERT JUMPDEST DUP3 MLOAD PUSH2 0x2A9E DUP2 PUSH2 0x1F6A JUMP JUMPDEST PUSH1 0x20 DUP5 ADD MLOAD SWAP1 SWAP3 POP PUSH2 0x240A DUP2 PUSH2 0x1F6A JUMP JUMPDEST PUSH1 0x1 PUSH1 0x1 PUSH1 0xA0 SHL SUB SWAP8 DUP9 AND DUP2 MSTORE SWAP6 DUP8 AND PUSH1 0x20 DUP8 ADD MSTORE SWAP4 DUP7 AND PUSH1 0x40 DUP7 ADD MSTORE SWAP2 DUP6 AND PUSH1 0x60 DUP6 ADD MSTORE SWAP1 SWAP4 AND PUSH1 0x80 DUP4 ADD MSTORE PUSH1 0xA0 DUP3 ADD SWAP3 SWAP1 SWAP3 MSTORE PUSH1 0xC0 DUP2 ADD SWAP2 SWAP1 SWAP2 MSTORE PUSH1 0xE0 ADD SWAP1 JUMP INVALID LOG2 PUSH5 0x6970667358 0x22 SLT KECCAK256 0x4B DUP5 SLOAD SWAP11 SAR 0xB1 SWAP9 0xE5 CALLCODE TIMESTAMP PUSH1 0xF4 0xDA 0xAC 0xF PUSH32 0x505E81A4C4B07DAF9707ED1B21CBEEC64736F6C634300081B00330000000000 "
		},
		"gasEstimates": {
			"creation": {
				"codeDepositCost": "2209600",
				"executionCost": "infinite",
				"totalCost": "infinite"
			},
			"external": {
				"Decrypt(uint64,uint64,uint64,bytes)": "infinite",
				"Decrypt(uint64,uint64,uint64,string)": "infinite",
				"Encapsulate((address,address,uint64,uint64,address,uint64,uint64,uint64),uint64,uint64,uint64,uint64)": "infinite",
				"Encrypt(uint64,uint64,bytes,bytes)": "infinite",
				"Encrypt(uint64,uint64,string,string)": "infinite",
				"GetMarketRate(address)": "2551",
				"MotzkinPrime()": "237",
				"Prune()": "infinite",
				"Purchase(address,uint256)": "infinite",
				"Redeem(address,uint256)": "infinite",
				"Rename(string,string)": "infinite",
				"Saat(bytes)": "infinite",
				"Type()": "infinite",
				"Void()": "2492",
				"Xiao()": "2515",
				"Zheng()": "2514",
				"addOwner(address)": "infinite",
				"allowance(address,address)": "infinite",
				"approve(address,uint256)": "24681",
				"balanceOf(address)": "2551",
				"decimals()": "221",
				"hashKey(bytes)": "infinite",
				"maxSupply()": "2338",
				"mintToCap()": "infinite",
				"name()": "infinite",
				"owner()": "302",
				"owner(address)": "2688",
				"renounceOwnership(address)": "infinite",
				"symbol()": "infinite",
				"totalSupply()": "2370",
				"transfer(address,uint256)": "51307",
				"transferFrom(address,address,uint256)": "infinite"
			},
			"internal": {
				"Crypt(struct Bao memory,struct Bao memory,bytes memory,bytes memory)": "infinite"
			}
		},
		"methodIdentifiers": {
			"Decrypt(uint64,uint64,uint64,bytes)": "4317c04a",
			"Decrypt(uint64,uint64,uint64,string)": "8cfbf772",
			"Encapsulate((address,address,uint64,uint64,address,uint64,uint64,uint64),uint64,uint64,uint64,uint64)": "44a4a69c",
			"Encrypt(uint64,uint64,bytes,bytes)": "18afcee8",
			"Encrypt(uint64,uint64,string,string)": "1227290d",
			"GetMarketRate(address)": "2b83b1fc",
			"MotzkinPrime()": "d3dc2a0f",
			"Prune()": "d8be150f",
			"Purchase(address,uint256)": "2499a533",
			"Redeem(address,uint256)": "222838db",
			"Rename(string,string)": "9dcbf7ea",
			"Saat(bytes)": "98c7299f",
			"Type()": "ff762044",
			"Void()": "f4f6c22c",
			"Xiao()": "6fb7329c",
			"Zheng()": "f9a76e48",
			"addOwner(address)": "7065cb48",
			"allowance(address,address)": "dd62ed3e",
			"approve(address,uint256)": "095ea7b3",
			"balanceOf(address)": "70a08231",
			"decimals()": "313ce567",
			"hashKey(bytes)": "8ef323b3",
			"maxSupply()": "d5abeb01",
			"mintToCap()": "f4e6c93f",
			"name()": "06fdde03",
			"owner()": "8da5cb5b",
			"owner(address)": "666e1b39",
			"renounceOwnership(address)": "38bf3cfa",
			"symbol()": "95d89b41",
			"totalSupply()": "18160ddd",
			"transfer(address,uint256)": "a9059cbb",
			"transferFrom(address,address,uint256)": "23b872dd"
		}
	},
	"abi": [
		{
			"inputs": [
				{
					"internalType": "address",
					"name": "VoidAddress",
					"type": "address"
				}
			],
			"stateMutability": "nonpayable",
			"type": "constructor"
		},
		{
			"inputs": [
				{
					"internalType": "uint8",
					"name": "minimum",
					"type": "uint8"
				},
				{
					"internalType": "uint256",
					"name": "length",
					"type": "uint256"
				}
			],
			"name": "ChromosomeLength",
			"type": "error"
		},
		{
			"inputs": [
				{
					"internalType": "address",
					"name": "origin",
					"type": "address"
				},
				{
					"internalType": "address",
					"name": "sender",
					"type": "address"
				},
				{
					"internalType": "address",
					"name": "owner",
					"type": "address"
				},
				{
					"internalType": "address",
					"name": "spender",
					"type": "address"
				},
				{
					"internalType": "address",
					"name": "what",
					"type": "address"
				},
				{
					"internalType": "uint256",
					"name": "allowance",
					"type": "uint256"
				},
				{
					"internalType": "uint256",
					"name": "needed",
					"type": "uint256"
				}
			],
			"name": "DysnomiaInsufficientAllowance",
			"type": "error"
		},
		{
			"inputs": [
				{
					"internalType": "address",
					"name": "origin",
					"type": "address"
				},
				{
					"internalType": "address",
					"name": "sender",
					"type": "address"
				},
				{
					"internalType": "address",
					"name": "from",
					"type": "address"
				},
				{
					"internalType": "address",
					"name": "to",
					"type": "address"
				},
				{
					"internalType": "address",
					"name": "what",
					"type": "address"
				},
				{
					"internalType": "uint256",
					"name": "balance",
					"type": "uint256"
				},
				{
					"internalType": "uint256",
					"name": "needed",
					"type": "uint256"
				}
			],
			"name": "DysnomiaInsufficientBalance",
			"type": "error"
		},
		{
			"inputs": [
				{
					"internalType": "address",
					"name": "asset",
					"type": "address"
				}
			],
			"name": "MarketRateNotFound",
			"type": "error"
		},
		{
			"inputs": [
				{
					"internalType": "address",
					"name": "from",
					"type": "address"
				},
				{
					"internalType": "address",
					"name": "to",
					"type": "address"
				},
				{
					"internalType": "address",
					"name": "party",
					"type": "address"
				}
			],
			"name": "NotParty",
			"type": "error"
		},
		{
			"inputs": [
				{
					"internalType": "address",
					"name": "origin",
					"type": "address"
				},
				{
					"internalType": "address",
					"name": "owner",
					"type": "address"
				},
				{
					"internalType": "address",
					"name": "what",
					"type": "address"
				}
			],
			"name": "OwnableInvalidOwner",
			"type": "error"
		},
		{
			"inputs": [
				{
					"internalType": "address",
					"name": "origin",
					"type": "address"
				},
				{
					"internalType": "address",
					"name": "account",
					"type": "address"
				},
				{
					"internalType": "address",
					"name": "what",
					"type": "address"
				}
			],
			"name": "OwnableUnauthorizedAccount",
			"type": "error"
		},
		{
			"inputs": [
				{
					"internalType": "uint64",
					"name": "max",
					"type": "uint64"
				},
				{
					"internalType": "uint256",
					"name": "count",
					"type": "uint256"
				}
			],
			"name": "TooManyCrypts",
			"type": "error"
		},
		{
			"anonymous": false,
			"inputs": [
				{
					"indexed": true,
					"internalType": "address",
					"name": "owner",
					"type": "address"
				},
				{
					"indexed": true,
					"internalType": "address",
					"name": "spender",
					"type": "address"
				},
				{
					"indexed": false,
					"internalType": "uint256",
					"name": "value",
					"type": "uint256"
				}
			],
			"name": "Approval",
			"type": "event"
		},
		{
			"anonymous": false,
			"inputs": [
				{
					"indexed": true,
					"internalType": "address",
					"name": "newOwner",
					"type": "address"
				},
				{
					"indexed": true,
					"internalType": "bool",
					"name": "state",
					"type": "bool"
				}
			],
			"name": "OwnershipUpdate",
			"type": "event"
		},
		{
			"anonymous": false,
			"inputs": [
				{
					"indexed": true,
					"internalType": "address",
					"name": "from",
					"type": "address"
				},
				{
					"indexed": true,
					"internalType": "address",
					"name": "to",
					"type": "address"
				},
				{
					"indexed": false,
					"internalType": "uint256",
					"name": "value",
					"type": "uint256"
				}
			],
			"name": "Transfer",
			"type": "event"
		},
		{
			"inputs": [
				{
					"internalType": "uint64",
					"name": "From",
					"type": "uint64"
				},
				{
					"internalType": "uint64",
					"name": "to",
					"type": "uint64"
				},
				{
					"internalType": "uint64",
					"name": "Index",
					"type": "uint64"
				},
				{
					"internalType": "bytes",
					"name": "Key",
					"type": "bytes"
				}
			],
			"name": "Decrypt",
			"outputs": [
				{
					"internalType": "bytes",
					"name": "result",
					"type": "bytes"
				}
			],
			"stateMutability": "nonpayable",
			"type": "function"
		},
		{
			"inputs": [
				{
					"internalType": "uint64",
					"name": "From",
					"type": "uint64"
				},
				{
					"internalType": "uint64",
					"name": "to",
					"type": "uint64"
				},
				{
					"internalType": "uint64",
					"name": "Index",
					"type": "uint64"
				},
				{
					"internalType": "string",
					"name": "Key",
					"type": "string"
				}
			],
			"name": "Decrypt",
			"outputs": [
				{
					"internalType": "bytes",
					"name": "",
					"type": "bytes"
				}
			],
			"stateMutability": "nonpayable",
			"type": "function"
		},
		{
			"inputs": [
				{
					"components": [
						{
							"internalType": "address",
							"name": "Phi",
							"type": "address"
						},
						{
							"internalType": "contract SHA",
							"name": "Mu",
							"type": "address"
						},
						{
							"internalType": "uint64",
							"name": "Xi",
							"type": "uint64"
						},
						{
							"internalType": "uint64",
							"name": "Pi",
							"type": "uint64"
						},
						{
							"internalType": "contract SHIO",
							"name": "Shio",
							"type": "address"
						},
						{
							"internalType": "uint64",
							"name": "Ring",
							"type": "uint64"
						},
						{
							"internalType": "uint64",
							"name": "Omicron",
							"type": "uint64"
						},
						{
							"internalType": "uint64",
							"name": "Omega",
							"type": "uint64"
						}
					],
					"internalType": "struct Bao",
					"name": "From",
					"type": "tuple"
				},
				{
					"internalType": "uint64",
					"name": "Gamma",
					"type": "uint64"
				},
				{
					"internalType": "uint64",
					"name": "Rho",
					"type": "uint64"
				},
				{
					"internalType": "uint64",
					"name": "Upsilon",
					"type": "uint64"
				},
				{
					"internalType": "uint64",
					"name": "Ohm",
					"type": "uint64"
				}
			],
			"name": "Encapsulate",
			"outputs": [
				{
					"internalType": "uint64",
					"name": "Entropy",
					"type": "uint64"
				},
				{
					"internalType": "bytes",
					"name": "Geng",
					"type": "bytes"
				}
			],
			"stateMutability": "nonpayable",
			"type": "function"
		},
		{
			"inputs": [
				{
					"internalType": "uint64",
					"name": "From",
					"type": "uint64"
				},
				{
					"internalType": "uint64",
					"name": "to",
					"type": "uint64"
				},
				{
					"internalType": "string",
					"name": "Key",
					"type": "string"
				},
				{
					"internalType": "string",
					"name": "Data",
					"type": "string"
				}
			],
			"name": "Encrypt",
			"outputs": [
				{
					"internalType": "uint64",
					"name": "index",
					"type": "uint64"
				}
			],
			"stateMutability": "nonpayable",
			"type": "function"
		},
		{
			"inputs": [
				{
					"internalType": "uint64",
					"name": "From",
					"type": "uint64"
				},
				{
					"internalType": "uint64",
					"name": "to",
					"type": "uint64"
				},
				{
					"internalType": "bytes",
					"name": "Key",
					"type": "bytes"
				},
				{
					"internalType": "bytes",
					"name": "Data",
					"type": "bytes"
				}
			],
			"name": "Encrypt",
			"outputs": [
				{
					"internalType": "uint64",
					"name": "index",
					"type": "uint64"
				}
			],
			"stateMutability": "nonpayable",
			"type": "function"
		},
		{
			"inputs": [
				{
					"internalType": "address",
					"name": "_a",
					"type": "address"
				}
			],
			"name": "GetMarketRate",
			"outputs": [
				{
					"internalType": "uint256",
					"name": "",
					"type": "uint256"
				}
			],
			"stateMutability": "view",
			"type": "function"
		},
		{
			"inputs": [],
			"name": "MotzkinPrime",
			"outputs": [
				{
					"internalType": "uint64",
					"name": "",
					"type": "uint64"
				}
			],
			"stateMutability": "view",
			"type": "function"
		},
		{
			"inputs": [],
			"name": "Prune",
			"outputs": [],
			"stateMutability": "nonpayable",
			"type": "function"
		},
		{
			"inputs": [
				{
					"internalType": "address",
					"name": "_t",
					"type": "address"
				},
				{
					"internalType": "uint256",
					"name": "_a",
					"type": "uint256"
				}
			],
			"name": "Purchase",
			"outputs": [],
			"stateMutability": "nonpayable",
			"type": "function"
		},
		{
			"inputs": [
				{
					"internalType": "address",
					"name": "_t",
					"type": "address"
				},
				{
					"internalType": "uint256",
					"name": "_a",
					"type": "uint256"
				}
			],
			"name": "Redeem",
			"outputs": [],
			"stateMutability": "nonpayable",
			"type": "function"
		},
		{
			"inputs": [
				{
					"internalType": "string",
					"name": "newName",
					"type": "string"
				},
				{
					"internalType": "string",
					"name": "newSymbol",
					"type": "string"
				}
			],
			"name": "Rename",
			"outputs": [],
			"stateMutability": "nonpayable",
			"type": "function"
		},
		{
			"inputs": [
				{
					"internalType": "bytes",
					"name": "Geng",
					"type": "bytes"
				}
			],
			"name": "Saat",
			"outputs": [
				{
					"internalType": "uint64[3]",
					"name": "Go",
					"type": "uint64[3]"
				}
			],
			"stateMutability": "pure",
			"type": "function"
		},
		{
			"inputs": [],
			"name": "Type",
			"outputs": [
				{
					"internalType": "string",
					"name": "",
					"type": "string"
				}
			],
			"stateMutability": "view",
			"type": "function"
		},
		{
			"inputs": [],
			"name": "Void",
			"outputs": [
				{
					"internalType": "contract VOID",
					"name": "",
					"type": "address"
				}
			],
			"stateMutability": "view",
			"type": "function"
		},
		{
			"inputs": [],
			"name": "Xiao",
			"outputs": [
				{
					"internalType": "contract atropaMath",
					"name": "",
					"type": "address"
				}
			],
			"stateMutability": "view",
			"type": "function"
		},
		{
			"inputs": [],
			"name": "Zheng",
			"outputs": [
				{
					"internalType": "contract ZHENG",
					"name": "",
					"type": "address"
				}
			],
			"stateMutability": "view",
			"type": "function"
		},
		{
			"inputs": [
				{
					"internalType": "address",
					"name": "newOwner",
					"type": "address"
				}
			],
			"name": "addOwner",
			"outputs": [],
			"stateMutability": "nonpayable",
			"type": "function"
		},
		{
			"inputs": [
				{
					"internalType": "address",
					"name": "owner",
					"type": "address"
				},
				{
					"internalType": "address",
					"name": "spender",
					"type": "address"
				}
			],
			"name": "allowance",
			"outputs": [
				{
					"internalType": "uint256",
					"name": "",
					"type": "uint256"
				}
			],
			"stateMutability": "view",
			"type": "function"
		},
		{
			"inputs": [
				{
					"internalType": "address",
					"name": "spender",
					"type": "address"
				},
				{
					"internalType": "uint256",
					"name": "value",
					"type": "uint256"
				}
			],
			"name": "approve",
			"outputs": [
				{
					"internalType": "bool",
					"name": "",
					"type": "bool"
				}
			],
			"stateMutability": "nonpayable",
			"type": "function"
		},
		{
			"inputs": [
				{
					"internalType": "address",
					"name": "account",
					"type": "address"
				}
			],
			"name": "balanceOf",
			"outputs": [
				{
					"internalType": "uint256",
					"name": "",
					"type": "uint256"
				}
			],
			"stateMutability": "view",
			"type": "function"
		},
		{
			"inputs": [],
			"name": "decimals",
			"outputs": [
				{
					"internalType": "uint8",
					"name": "",
					"type": "uint8"
				}
			],
			"stateMutability": "view",
			"type": "function"
		},
		{
			"inputs": [
				{
					"internalType": "bytes",
					"name": "Key",
					"type": "bytes"
				}
			],
			"name": "hashKey",
			"outputs": [
				{
					"internalType": "uint64",
					"name": "result",
					"type": "uint64"
				}
			],
			"stateMutability": "nonpayable",
			"type": "function"
		},
		{
			"inputs": [],
			"name": "maxSupply",
			"outputs": [
				{
					"internalType": "uint256",
					"name": "",
					"type": "uint256"
				}
			],
			"stateMutability": "view",
			"type": "function"
		},
		{
			"inputs": [],
			"name": "mintToCap",
			"outputs": [],
			"stateMutability": "nonpayable",
			"type": "function"
		},
		{
			"inputs": [],
			"name": "name",
			"outputs": [
				{
					"internalType": "string",
					"name": "",
					"type": "string"
				}
			],
			"stateMutability": "view",
			"type": "function"
		},
		{
			"inputs": [
				{
					"internalType": "address",
					"name": "cOwner",
					"type": "address"
				}
			],
			"name": "owner",
			"outputs": [
				{
					"internalType": "bool",
					"name": "",
					"type": "bool"
				}
			],
			"stateMutability": "view",
			"type": "function"
		},
		{
			"inputs": [],
			"name": "owner",
			"outputs": [
				{
					"internalType": "address",
					"name": "",
					"type": "address"
				}
			],
			"stateMutability": "view",
			"type": "function"
		},
		{
			"inputs": [
				{
					"internalType": "address",
					"name": "toRemove",
					"type": "address"
				}
			],
			"name": "renounceOwnership",
			"outputs": [],
			"stateMutability": "nonpayable",
			"type": "function"
		},
		{
			"inputs": [],
			"name": "symbol",
			"outputs": [
				{
					"internalType": "string",
					"name": "",
					"type": "string"
				}
			],
			"stateMutability": "view",
			"type": "function"
		},
		{
			"inputs": [],
			"name": "totalSupply",
			"outputs": [
				{
					"internalType": "uint256",
					"name": "",
					"type": "uint256"
				}
			],
			"stateMutability": "view",
			"type": "function"
		},
		{
			"inputs": [
				{
					"internalType": "address",
					"name": "to",
					"type": "address"
				},
				{
					"internalType": "uint256",
					"name": "value",
					"type": "uint256"
				}
			],
			"name": "transfer",
			"outputs": [
				{
					"internalType": "bool",
					"name": "",
					"type": "bool"
				}
			],
			"stateMutability": "nonpayable",
			"type": "function"
		},
		{
			"inputs": [
				{
					"internalType": "address",
					"name": "from",
					"type": "address"
				},
				{
					"internalType": "address",
					"name": "to",
					"type": "address"
				},
				{
					"internalType": "uint256",
					"name": "value",
					"type": "uint256"
				}
			],
			"name": "transferFrom",
			"outputs": [
				{
					"internalType": "bool",
					"name": "",
					"type": "bool"
				}
			],
			"stateMutability": "nonpayable",
			"type": "function"
		}
	]
}