{
	"data": {
		"bytecode": {
			"linkReferences": {},
			"object": "6080604052348015600e575f5ffd5b503380603f57604051633603021960e21b81523260048201525f602482015230604482015260640160405180910390fd5b6048816001604d565b5060a0565b6001600160a01b0382165f81815260208190526040808220805460ff191685151590811790915590519092917f6bfa7e860c3e9bf67b810cb88276b19b27c972812bac04793d369b59a1183a8391a35050565b6114db806100ad5f395ff3fe608060405234801561000f575f5ffd5b5060043610610254575f3560e01c8063821cdcb411610140578063a9bb1252116100bf578063d56a2f8a11610084578063d56a2f8a146104d9578063d6192e29146102a9578063db61df3e146103d6578063e09781f4146104ff578063e23550ce14610512578063f8d9fb9314610525575f5ffd5b8063a9bb1252146104b3578063be7c7ac3146104c6578063bf6a48f4146103b0578063ce6ec8ef146104d9578063d55bc7ae146104ec575f5ffd5b8063963de08511610105578063963de0851461045457806398ada70a146104675780639ce8431e1461047a578063a249bc3d1461048d578063a902c0ee146104a0575f5ffd5b8063821cdcb4146103fc578063834a2d471461040f5780638da5cb5b1461042257806393a8333e14610430578063943cc8f114610441575f5ffd5b80634872755a116101d7578063666e1b391161019c578063666e1b391461039d5780636ba0831d146103b05780637065cb48146103c3578063711029f8146103d657806371fca080146103e95780637e7dd3251461026d575f5ffd5b80634872755a1461033e5780634d84c524146103515780634e2ce3a61461036457806360cd268514610377578063645558f21461038a575f5ffd5b80632ac6faa61161021d5780632ac6faa6146102df5780632fa0b74a146102f257806338bf3cfa146103055780633e49fb7e14610318578063476e4aa41461032b575f5ffd5b80627dc6ab146102585780630cde0a5f1461026d57806311d6bbe614610280578063150754ac146102a957806318825d63146102bc575b5f5ffd5b61026b610266366004610e0f565b610538565b005b61026b61027b366004610ef0565b610559565b61029361028e366004610f3a565b610573565b6040516102a09190610f5a565b60405180910390f35b61026b6102b7366004610f8f565b6105f2565b6102cf6102ca366004610fdc565b610604565b60405190151581526020016102a0565b61026b6102ed366004610ff3565b610636565b61026b610300366004610f8f565b61082c565b61026b61031336600461102c565b61091e565b61026b610326366004611045565b610930565b61026b610339366004610fdc565b610945565b61026b61034c36600461108f565b610959565b61029361035f36600461102c565b61096e565b61026b6103723660046110d0565b6109ec565b610293610385366004610fdc565b610a09565b610293610398366004610ff3565b610ad1565b6102cf6103ab36600461102c565b610ae3565b61026b6103be3660046110f8565b610b00565b61026b6103d136600461102c565b610b14565b61026b6103e4366004611112565b610b5d565b61026b6103f736600461113f565b610b71565b61029361040a366004610fdc565b610b8e565b61026b61041d366004610ff3565b610bfe565b6040513081526020016102a0565b6004546040519081526020016102a0565b61026b61044f366004611167565b610c0f565b61026b610462366004611181565b610c23565b61026b6104753660046111c2565b610c38565b61026b610488366004610f3a565b610c4c565b6102cf61049b366004610f3a565b610c60565b61026b6104ae3660046111dc565b610c6c565b61026b6104c13660046111fd565b610c80565b61026b6104d436600461102c565b610c94565b6102cf6104e7366004610ff3565b610ca8565b6102cf6104fa36600461102c565b610cb9565b61026b61050d366004611217565b610cc5565b61026b610520366004611238565b610cd9565b610293610533366004610fdc565b610ced565b610540610d15565b61055561054c8361096e565b61030083610b8e565b5050565b610561610d15565b61055561056d83610573565b8261082c565b6040805160088082528183019092526060916020820181803683370190505090505f5b60088110156105ec576105aa81600861126c565b836001600160401b0316901c60ff1660f81b8282815181106105ce576105ce611289565b60200101906001600160f81b03191690815f1a905350600101610596565b50919050565b6105fa610d15565b610555828261082c565b5f600261061083610b8e565b60405161061d919061129d565b9081526040519081900360200190205460ff1692915050565b61063e610d15565b60028160405161064e919061129d565b9081526040519081900360200190205460ff161561082957600281604051610676919061129d565b908152604051908190036020018120805460ff191690555f9060039061069d90849061129d565b90815260200160405180910390205490505f600460016004805490506106c391906112b3565b815481106106d3576106d3611289565b905f5260205f200180546106e6906112c6565b80601f0160208091040260200160405190810160405280929190818152602001828054610712906112c6565b801561075d5780601f106107345761010080835404028352916020019161075d565b820191905f5260205f20905b81548152906001019060200180831161074057829003601f168201915b5050505050905081600382604051610775919061129d565b908152602001604051809103902081905550600383604051610797919061129d565b90815260200160405180910390205f90556001836040516107b8919061129d565b90815260200160405180910390205f6107d19190610daa565b80600483815481106107e5576107e5611289565b905f5260205f200190816107f99190611343565b50600480548061080b5761080b6113fd565b600190038181905f5260205f20015f6108249190610daa565b905550505b50565b610834610d15565b600282604051610844919061129d565b9081526040519081900360200190205460ff1661055557600160028360405161086d919061129d565b908152604051908190036020018120805492151560ff1990931692909217909155600454906003906108a090859061129d565b908152602001604051809103902081905550806001836040516108c3919061129d565b908152602001604051809103902090816108dd9190611343565b50600480546001810182555f919091527f8a35acfbc15ff81a39ae7d344fd709f28e8600b4aa8c65c6b64bfe7fe36bd19b016109198382611343565b505050565b610926610d15565b610829815f610d57565b610938610d15565b610555826103008361096e565b61094d610d15565b6108296102ed82610b8e565b610961610d15565b6105558261030083610573565b604080516014808252818301909252606091602082018180368337019050509050606082901b5f5b60148110156109e5578181601481106109b1576109b1611289565b1a60f81b8382815181106109c7576109c7611289565b60200101906001600160f81b03191690815f1a905350600101610996565b5050919050565b6109f4610d15565b610555610a0083610573565b6103008361096e565b6060600160048381548110610a2057610a20611289565b905f5260205f2001604051610a359190611411565b90815260200160405180910390208054610a4e906112c6565b80601f0160208091040260200160405190810160405280929190818152602001828054610a7a906112c6565b8015610ac55780601f10610a9c57610100808354040283529160200191610ac5565b820191905f5260205f20905b815481529060010190602001808311610aa857829003601f168201915b50505050509050919050565b6060600182604051610a35919061129d565b6001600160a01b03165f9081526020819052604090205460ff1690565b610b08610d15565b61055561056d8361096e565b610b1c610d15565b6001600160a01b038116610b5257325f30604051633603021960e21b8152600401610b4993929190611482565b60405180910390fd5b610829816001610d57565b610b65610d15565b61055561056d83610b8e565b610b79610d15565b610555610b858361096e565b61030083610573565b6040805160208082528183019092526060916020820181803683370190505090505f5b60208110156105ec57610bc581600861126c565b83901c60ff1660f81b828281518110610be057610be0611289565b60200101906001600160f81b03191690815f1a905350600101610bb1565b610c06610d15565b61082981610636565b610c17610d15565b61055561054c83610573565b610c2b610d15565b6105558261030083610b8e565b610c40610d15565b610555610a008361096e565b610c54610d15565b6108296102ed82610573565b5f600261061083610573565b610c74610d15565b610555610a0083610b8e565b610c88610d15565b610555610b8583610573565b610c9c610d15565b6108296102ed8261096e565b5f60028260405161061d919061129d565b5f60026106108361096e565b610ccd610d15565b610555610b8583610b8e565b610ce1610d15565b61055561054c83610b8e565b606060048281548110610d0257610d02611289565b905f5260205f20018054610a4e906112c6565b610d1e33610ae3565b158015610d315750610d2f32610ae3565b155b15610d5557323330604051630be6bab560e01b8152600401610b4993929190611482565b565b6001600160a01b0382165f81815260208190526040808220805460ff191685151590811790915590519092917f6bfa7e860c3e9bf67b810cb88276b19b27c972812bac04793d369b59a1183a8391a35050565b508054610db6906112c6565b5f825580601f10610dc5575050565b601f0160209004905f5260205f209081019061082991905b80821115610df0575f8155600101610ddd565b5090565b80356001600160a01b0381168114610e0a575f5ffd5b919050565b5f5f60408385031215610e20575f5ffd5b610e2983610df4565b946020939093013593505050565b80356001600160401b0381168114610e0a575f5ffd5b634e487b7160e01b5f52604160045260245ffd5b5f82601f830112610e70575f5ffd5b8135602083015f5f6001600160401b03841115610e8f57610e8f610e4d565b50604051601f19601f85018116603f011681018181106001600160401b0382111715610ebd57610ebd610e4d565b604052838152905080828401871015610ed4575f5ffd5b838360208301375f602085830101528094505050505092915050565b5f5f60408385031215610f01575f5ffd5b610f0a83610e37565b915060208301356001600160401b03811115610f24575f5ffd5b610f3085828601610e61565b9150509250929050565b5f60208284031215610f4a575f5ffd5b610f5382610e37565b9392505050565b602081525f82518060208401528060208501604085015e5f604082850101526040601f19601f83011684010191505092915050565b5f5f60408385031215610fa0575f5ffd5b82356001600160401b03811115610fb5575f5ffd5b610fc185828601610e61565b92505060208301356001600160401b03811115610f24575f5ffd5b5f60208284031215610fec575f5ffd5b5035919050565b5f60208284031215611003575f5ffd5b81356001600160401b03811115611018575f5ffd5b61102484828501610e61565b949350505050565b5f6020828403121561103c575f5ffd5b610f5382610df4565b5f5f60408385031215611056575f5ffd5b82356001600160401b0381111561106b575f5ffd5b61107785828601610e61565b92505061108660208401610df4565b90509250929050565b5f5f604083850312156110a0575f5ffd5b82356001600160401b038111156110b5575f5ffd5b6110c185828601610e61565b92505061108660208401610e37565b5f5f604083850312156110e1575f5ffd5b6110ea83610e37565b915061108660208401610df4565b5f5f60408385031215611109575f5ffd5b610f0a83610df4565b5f5f60408385031215611123575f5ffd5b8235915060208301356001600160401b03811115610f24575f5ffd5b5f5f60408385031215611150575f5ffd5b61115983610df4565b915061108660208401610e37565b5f5f60408385031215611178575f5ffd5b610e2983610e37565b5f5f60408385031215611192575f5ffd5b82356001600160401b038111156111a7575f5ffd5b6111b385828601610e61565b95602094909401359450505050565b5f5f604083850312156111d3575f5ffd5b6110ea83610df4565b5f5f604083850312156111ed575f5ffd5b8235915061108660208401610df4565b5f5f6040838503121561120e575f5ffd5b61115983610e37565b5f5f60408385031215611228575f5ffd5b8235915061108660208401610e37565b5f5f60408385031215611249575f5ffd5b50508035926020909101359150565b634e487b7160e01b5f52601160045260245ffd5b808202811582820484141761128357611283611258565b92915050565b634e487b7160e01b5f52603260045260245ffd5b5f82518060208501845e5f920191825250919050565b8181038181111561128357611283611258565b600181811c908216806112da57607f821691505b6020821081036105ec57634e487b7160e01b5f52602260045260245ffd5b601f82111561091957805f5260205f20601f840160051c8101602085101561131d5750805b601f840160051c820191505b8181101561133c575f8155600101611329565b5050505050565b81516001600160401b0381111561135c5761135c610e4d565b6113708161136a84546112c6565b846112f8565b6020601f8211600181146113a2575f831561138b5750848201515b5f19600385901b1c1916600184901b17845561133c565b5f84815260208120601f198516915b828110156113d157878501518255602094850194600190920191016113b1565b50848210156113ee57868401515f19600387901b60f8161c191681555b50505050600190811b01905550565b634e487b7160e01b5f52603160045260245ffd5b5f5f835461141e816112c6565b600182168015611435576001811461144a57611477565b60ff1983168652811515820286019350611477565b865f5260205f205f5b8381101561146f57815488820152600190910190602001611453565b505081860193505b509195945050505050565b6001600160a01b039384168152918316602083015290911660408201526060019056fea264697066735822122043c9ebcd6602cb4a432f6ac924be4e05cb37771eeecfcd2c780f24d5d8ac198d64736f6c634300081b0033",
			"opcodes": "PUSH1 0x80 PUSH1 0x40 MSTORE CALLVALUE DUP1 ISZERO PUSH1 0xE JUMPI PUSH0 PUSH0 REVERT JUMPDEST POP CALLER DUP1 PUSH1 0x3F JUMPI PUSH1 0x40 MLOAD PUSH4 0x36030219 PUSH1 0xE2 SHL DUP2 MSTORE ORIGIN PUSH1 0x4 DUP3 ADD MSTORE PUSH0 PUSH1 0x24 DUP3 ADD MSTORE ADDRESS PUSH1 0x44 DUP3 ADD MSTORE PUSH1 0x64 ADD PUSH1 0x40 MLOAD DUP1 SWAP2 SUB SWAP1 REVERT JUMPDEST PUSH1 0x48 DUP2 PUSH1 0x1 PUSH1 0x4D JUMP JUMPDEST POP PUSH1 0xA0 JUMP JUMPDEST PUSH1 0x1 PUSH1 0x1 PUSH1 0xA0 SHL SUB DUP3 AND PUSH0 DUP2 DUP2 MSTORE PUSH1 0x20 DUP2 SWAP1 MSTORE PUSH1 0x40 DUP1 DUP3 KECCAK256 DUP1 SLOAD PUSH1 0xFF NOT AND DUP6 ISZERO ISZERO SWAP1 DUP2 OR SWAP1 SWAP2 SSTORE SWAP1 MLOAD SWAP1 SWAP3 SWAP2 PUSH32 0x6BFA7E860C3E9BF67B810CB88276B19B27C972812BAC04793D369B59A1183A83 SWAP2 LOG3 POP POP JUMP JUMPDEST PUSH2 0x14DB DUP1 PUSH2 0xAD PUSH0 CODECOPY PUSH0 RETURN INVALID PUSH1 0x80 PUSH1 0x40 MSTORE CALLVALUE DUP1 ISZERO PUSH2 0xF JUMPI PUSH0 PUSH0 REVERT JUMPDEST POP PUSH1 0x4 CALLDATASIZE LT PUSH2 0x254 JUMPI PUSH0 CALLDATALOAD PUSH1 0xE0 SHR DUP1 PUSH4 0x821CDCB4 GT PUSH2 0x140 JUMPI DUP1 PUSH4 0xA9BB1252 GT PUSH2 0xBF JUMPI DUP1 PUSH4 0xD56A2F8A GT PUSH2 0x84 JUMPI DUP1 PUSH4 0xD56A2F8A EQ PUSH2 0x4D9 JUMPI DUP1 PUSH4 0xD6192E29 EQ PUSH2 0x2A9 JUMPI DUP1 PUSH4 0xDB61DF3E EQ PUSH2 0x3D6 JUMPI DUP1 PUSH4 0xE09781F4 EQ PUSH2 0x4FF JUMPI DUP1 PUSH4 0xE23550CE EQ PUSH2 0x512 JUMPI DUP1 PUSH4 0xF8D9FB93 EQ PUSH2 0x525 JUMPI PUSH0 PUSH0 REVERT JUMPDEST DUP1 PUSH4 0xA9BB1252 EQ PUSH2 0x4B3 JUMPI DUP1 PUSH4 0xBE7C7AC3 EQ PUSH2 0x4C6 JUMPI DUP1 PUSH4 0xBF6A48F4 EQ PUSH2 0x3B0 JUMPI DUP1 PUSH4 0xCE6EC8EF EQ PUSH2 0x4D9 JUMPI DUP1 PUSH4 0xD55BC7AE EQ PUSH2 0x4EC JUMPI PUSH0 PUSH0 REVERT JUMPDEST DUP1 PUSH4 0x963DE085 GT PUSH2 0x105 JUMPI DUP1 PUSH4 0x963DE085 EQ PUSH2 0x454 JUMPI DUP1 PUSH4 0x98ADA70A EQ PUSH2 0x467 JUMPI DUP1 PUSH4 0x9CE8431E EQ PUSH2 0x47A JUMPI DUP1 PUSH4 0xA249BC3D EQ PUSH2 0x48D JUMPI DUP1 PUSH4 0xA902C0EE EQ PUSH2 0x4A0 JUMPI PUSH0 PUSH0 REVERT JUMPDEST DUP1 PUSH4 0x821CDCB4 EQ PUSH2 0x3FC JUMPI DUP1 PUSH4 0x834A2D47 EQ PUSH2 0x40F JUMPI DUP1 PUSH4 0x8DA5CB5B EQ PUSH2 0x422 JUMPI DUP1 PUSH4 0x93A8333E EQ PUSH2 0x430 JUMPI DUP1 PUSH4 0x943CC8F1 EQ PUSH2 0x441 JUMPI PUSH0 PUSH0 REVERT JUMPDEST DUP1 PUSH4 0x4872755A GT PUSH2 0x1D7 JUMPI DUP1 PUSH4 0x666E1B39 GT PUSH2 0x19C JUMPI DUP1 PUSH4 0x666E1B39 EQ PUSH2 0x39D JUMPI DUP1 PUSH4 0x6BA0831D EQ PUSH2 0x3B0 JUMPI DUP1 PUSH4 0x7065CB48 EQ PUSH2 0x3C3 JUMPI DUP1 PUSH4 0x711029F8 EQ PUSH2 0x3D6 JUMPI DUP1 PUSH4 0x71FCA080 EQ PUSH2 0x3E9 JUMPI DUP1 PUSH4 0x7E7DD325 EQ PUSH2 0x26D JUMPI PUSH0 PUSH0 REVERT JUMPDEST DUP1 PUSH4 0x4872755A EQ PUSH2 0x33E JUMPI DUP1 PUSH4 0x4D84C524 EQ PUSH2 0x351 JUMPI DUP1 PUSH4 0x4E2CE3A6 EQ PUSH2 0x364 JUMPI DUP1 PUSH4 0x60CD2685 EQ PUSH2 0x377 JUMPI DUP1 PUSH4 0x645558F2 EQ PUSH2 0x38A JUMPI PUSH0 PUSH0 REVERT JUMPDEST DUP1 PUSH4 0x2AC6FAA6 GT PUSH2 0x21D JUMPI DUP1 PUSH4 0x2AC6FAA6 EQ PUSH2 0x2DF JUMPI DUP1 PUSH4 0x2FA0B74A EQ PUSH2 0x2F2 JUMPI DUP1 PUSH4 0x38BF3CFA EQ PUSH2 0x305 JUMPI DUP1 PUSH4 0x3E49FB7E EQ PUSH2 0x318 JUMPI DUP1 PUSH4 0x476E4AA4 EQ PUSH2 0x32B JUMPI PUSH0 PUSH0 REVERT JUMPDEST DUP1 PUSH3 0x7DC6AB EQ PUSH2 0x258 JUMPI DUP1 PUSH4 0xCDE0A5F EQ PUSH2 0x26D JUMPI DUP1 PUSH4 0x11D6BBE6 EQ PUSH2 0x280 JUMPI DUP1 PUSH4 0x150754AC EQ PUSH2 0x2A9 JUMPI DUP1 PUSH4 0x18825D63 EQ PUSH2 0x2BC JUMPI JUMPDEST PUSH0 PUSH0 REVERT JUMPDEST PUSH2 0x26B PUSH2 0x266 CALLDATASIZE PUSH1 0x4 PUSH2 0xE0F JUMP JUMPDEST PUSH2 0x538 JUMP JUMPDEST STOP JUMPDEST PUSH2 0x26B PUSH2 0x27B CALLDATASIZE PUSH1 0x4 PUSH2 0xEF0 JUMP JUMPDEST PUSH2 0x559 JUMP JUMPDEST PUSH2 0x293 PUSH2 0x28E CALLDATASIZE PUSH1 0x4 PUSH2 0xF3A JUMP JUMPDEST PUSH2 0x573 JUMP JUMPDEST PUSH1 0x40 MLOAD PUSH2 0x2A0 SWAP2 SWAP1 PUSH2 0xF5A JUMP JUMPDEST PUSH1 0x40 MLOAD DUP1 SWAP2 SUB SWAP1 RETURN JUMPDEST PUSH2 0x26B PUSH2 0x2B7 CALLDATASIZE PUSH1 0x4 PUSH2 0xF8F JUMP JUMPDEST PUSH2 0x5F2 JUMP JUMPDEST PUSH2 0x2CF PUSH2 0x2CA CALLDATASIZE PUSH1 0x4 PUSH2 0xFDC JUMP JUMPDEST PUSH2 0x604 JUMP JUMPDEST PUSH1 0x40 MLOAD SWAP1 ISZERO ISZERO DUP2 MSTORE PUSH1 0x20 ADD PUSH2 0x2A0 JUMP JUMPDEST PUSH2 0x26B PUSH2 0x2ED CALLDATASIZE PUSH1 0x4 PUSH2 0xFF3 JUMP JUMPDEST PUSH2 0x636 JUMP JUMPDEST PUSH2 0x26B PUSH2 0x300 CALLDATASIZE PUSH1 0x4 PUSH2 0xF8F JUMP JUMPDEST PUSH2 0x82C JUMP JUMPDEST PUSH2 0x26B PUSH2 0x313 CALLDATASIZE PUSH1 0x4 PUSH2 0x102C JUMP JUMPDEST PUSH2 0x91E JUMP JUMPDEST PUSH2 0x26B PUSH2 0x326 CALLDATASIZE PUSH1 0x4 PUSH2 0x1045 JUMP JUMPDEST PUSH2 0x930 JUMP JUMPDEST PUSH2 0x26B PUSH2 0x339 CALLDATASIZE PUSH1 0x4 PUSH2 0xFDC JUMP JUMPDEST PUSH2 0x945 JUMP JUMPDEST PUSH2 0x26B PUSH2 0x34C CALLDATASIZE PUSH1 0x4 PUSH2 0x108F JUMP JUMPDEST PUSH2 0x959 JUMP JUMPDEST PUSH2 0x293 PUSH2 0x35F CALLDATASIZE PUSH1 0x4 PUSH2 0x102C JUMP JUMPDEST PUSH2 0x96E JUMP JUMPDEST PUSH2 0x26B PUSH2 0x372 CALLDATASIZE PUSH1 0x4 PUSH2 0x10D0 JUMP JUMPDEST PUSH2 0x9EC JUMP JUMPDEST PUSH2 0x293 PUSH2 0x385 CALLDATASIZE PUSH1 0x4 PUSH2 0xFDC JUMP JUMPDEST PUSH2 0xA09 JUMP JUMPDEST PUSH2 0x293 PUSH2 0x398 CALLDATASIZE PUSH1 0x4 PUSH2 0xFF3 JUMP JUMPDEST PUSH2 0xAD1 JUMP JUMPDEST PUSH2 0x2CF PUSH2 0x3AB CALLDATASIZE PUSH1 0x4 PUSH2 0x102C JUMP JUMPDEST PUSH2 0xAE3 JUMP JUMPDEST PUSH2 0x26B PUSH2 0x3BE CALLDATASIZE PUSH1 0x4 PUSH2 0x10F8 JUMP JUMPDEST PUSH2 0xB00 JUMP JUMPDEST PUSH2 0x26B PUSH2 0x3D1 CALLDATASIZE PUSH1 0x4 PUSH2 0x102C JUMP JUMPDEST PUSH2 0xB14 JUMP JUMPDEST PUSH2 0x26B PUSH2 0x3E4 CALLDATASIZE PUSH1 0x4 PUSH2 0x1112 JUMP JUMPDEST PUSH2 0xB5D JUMP JUMPDEST PUSH2 0x26B PUSH2 0x3F7 CALLDATASIZE PUSH1 0x4 PUSH2 0x113F JUMP JUMPDEST PUSH2 0xB71 JUMP JUMPDEST PUSH2 0x293 PUSH2 0x40A CALLDATASIZE PUSH1 0x4 PUSH2 0xFDC JUMP JUMPDEST PUSH2 0xB8E JUMP JUMPDEST PUSH2 0x26B PUSH2 0x41D CALLDATASIZE PUSH1 0x4 PUSH2 0xFF3 JUMP JUMPDEST PUSH2 0xBFE JUMP JUMPDEST PUSH1 0x40 MLOAD ADDRESS DUP2 MSTORE PUSH1 0x20 ADD PUSH2 0x2A0 JUMP JUMPDEST PUSH1 0x4 SLOAD PUSH1 0x40 MLOAD SWAP1 DUP2 MSTORE PUSH1 0x20 ADD PUSH2 0x2A0 JUMP JUMPDEST PUSH2 0x26B PUSH2 0x44F CALLDATASIZE PUSH1 0x4 PUSH2 0x1167 JUMP JUMPDEST PUSH2 0xC0F JUMP JUMPDEST PUSH2 0x26B PUSH2 0x462 CALLDATASIZE PUSH1 0x4 PUSH2 0x1181 JUMP JUMPDEST PUSH2 0xC23 JUMP JUMPDEST PUSH2 0x26B PUSH2 0x475 CALLDATASIZE PUSH1 0x4 PUSH2 0x11C2 JUMP JUMPDEST PUSH2 0xC38 JUMP JUMPDEST PUSH2 0x26B PUSH2 0x488 CALLDATASIZE PUSH1 0x4 PUSH2 0xF3A JUMP JUMPDEST PUSH2 0xC4C JUMP JUMPDEST PUSH2 0x2CF PUSH2 0x49B CALLDATASIZE PUSH1 0x4 PUSH2 0xF3A JUMP JUMPDEST PUSH2 0xC60 JUMP JUMPDEST PUSH2 0x26B PUSH2 0x4AE CALLDATASIZE PUSH1 0x4 PUSH2 0x11DC JUMP JUMPDEST PUSH2 0xC6C JUMP JUMPDEST PUSH2 0x26B PUSH2 0x4C1 CALLDATASIZE PUSH1 0x4 PUSH2 0x11FD JUMP JUMPDEST PUSH2 0xC80 JUMP JUMPDEST PUSH2 0x26B PUSH2 0x4D4 CALLDATASIZE PUSH1 0x4 PUSH2 0x102C JUMP JUMPDEST PUSH2 0xC94 JUMP JUMPDEST PUSH2 0x2CF PUSH2 0x4E7 CALLDATASIZE PUSH1 0x4 PUSH2 0xFF3 JUMP JUMPDEST PUSH2 0xCA8 JUMP JUMPDEST PUSH2 0x2CF PUSH2 0x4FA CALLDATASIZE PUSH1 0x4 PUSH2 0x102C JUMP JUMPDEST PUSH2 0xCB9 JUMP JUMPDEST PUSH2 0x26B PUSH2 0x50D CALLDATASIZE PUSH1 0x4 PUSH2 0x1217 JUMP JUMPDEST PUSH2 0xCC5 JUMP JUMPDEST PUSH2 0x26B PUSH2 0x520 CALLDATASIZE PUSH1 0x4 PUSH2 0x1238 JUMP JUMPDEST PUSH2 0xCD9 JUMP JUMPDEST PUSH2 0x293 PUSH2 0x533 CALLDATASIZE PUSH1 0x4 PUSH2 0xFDC JUMP JUMPDEST PUSH2 0xCED JUMP JUMPDEST PUSH2 0x540 PUSH2 0xD15 JUMP JUMPDEST PUSH2 0x555 PUSH2 0x54C DUP4 PUSH2 0x96E JUMP JUMPDEST PUSH2 0x300 DUP4 PUSH2 0xB8E JUMP JUMPDEST POP POP JUMP JUMPDEST PUSH2 0x561 PUSH2 0xD15 JUMP JUMPDEST PUSH2 0x555 PUSH2 0x56D DUP4 PUSH2 0x573 JUMP JUMPDEST DUP3 PUSH2 0x82C JUMP JUMPDEST PUSH1 0x40 DUP1 MLOAD PUSH1 0x8 DUP1 DUP3 MSTORE DUP2 DUP4 ADD SWAP1 SWAP3 MSTORE PUSH1 0x60 SWAP2 PUSH1 0x20 DUP3 ADD DUP2 DUP1 CALLDATASIZE DUP4 CALLDATACOPY ADD SWAP1 POP POP SWAP1 POP PUSH0 JUMPDEST PUSH1 0x8 DUP2 LT ISZERO PUSH2 0x5EC JUMPI PUSH2 0x5AA DUP2 PUSH1 0x8 PUSH2 0x126C JUMP JUMPDEST DUP4 PUSH1 0x1 PUSH1 0x1 PUSH1 0x40 SHL SUB AND SWAP1 SHR PUSH1 0xFF AND PUSH1 0xF8 SHL DUP3 DUP3 DUP2 MLOAD DUP2 LT PUSH2 0x5CE JUMPI PUSH2 0x5CE PUSH2 0x1289 JUMP JUMPDEST PUSH1 0x20 ADD ADD SWAP1 PUSH1 0x1 PUSH1 0x1 PUSH1 0xF8 SHL SUB NOT AND SWAP1 DUP2 PUSH0 BYTE SWAP1 MSTORE8 POP PUSH1 0x1 ADD PUSH2 0x596 JUMP JUMPDEST POP SWAP2 SWAP1 POP JUMP JUMPDEST PUSH2 0x5FA PUSH2 0xD15 JUMP JUMPDEST PUSH2 0x555 DUP3 DUP3 PUSH2 0x82C JUMP JUMPDEST PUSH0 PUSH1 0x2 PUSH2 0x610 DUP4 PUSH2 0xB8E JUMP JUMPDEST PUSH1 0x40 MLOAD PUSH2 0x61D SWAP2 SWAP1 PUSH2 0x129D JUMP JUMPDEST SWAP1 DUP2 MSTORE PUSH1 0x40 MLOAD SWAP1 DUP2 SWAP1 SUB PUSH1 0x20 ADD SWAP1 KECCAK256 SLOAD PUSH1 0xFF AND SWAP3 SWAP2 POP POP JUMP JUMPDEST PUSH2 0x63E PUSH2 0xD15 JUMP JUMPDEST PUSH1 0x2 DUP2 PUSH1 0x40 MLOAD PUSH2 0x64E SWAP2 SWAP1 PUSH2 0x129D JUMP JUMPDEST SWAP1 DUP2 MSTORE PUSH1 0x40 MLOAD SWAP1 DUP2 SWAP1 SUB PUSH1 0x20 ADD SWAP1 KECCAK256 SLOAD PUSH1 0xFF AND ISZERO PUSH2 0x829 JUMPI PUSH1 0x2 DUP2 PUSH1 0x40 MLOAD PUSH2 0x676 SWAP2 SWAP1 PUSH2 0x129D JUMP JUMPDEST SWAP1 DUP2 MSTORE PUSH1 0x40 MLOAD SWAP1 DUP2 SWAP1 SUB PUSH1 0x20 ADD DUP2 KECCAK256 DUP1 SLOAD PUSH1 0xFF NOT AND SWAP1 SSTORE PUSH0 SWAP1 PUSH1 0x3 SWAP1 PUSH2 0x69D SWAP1 DUP5 SWAP1 PUSH2 0x129D JUMP JUMPDEST SWAP1 DUP2 MSTORE PUSH1 0x20 ADD PUSH1 0x40 MLOAD DUP1 SWAP2 SUB SWAP1 KECCAK256 SLOAD SWAP1 POP PUSH0 PUSH1 0x4 PUSH1 0x1 PUSH1 0x4 DUP1 SLOAD SWAP1 POP PUSH2 0x6C3 SWAP2 SWAP1 PUSH2 0x12B3 JUMP JUMPDEST DUP2 SLOAD DUP2 LT PUSH2 0x6D3 JUMPI PUSH2 0x6D3 PUSH2 0x1289 JUMP JUMPDEST SWAP1 PUSH0 MSTORE PUSH1 0x20 PUSH0 KECCAK256 ADD DUP1 SLOAD PUSH2 0x6E6 SWAP1 PUSH2 0x12C6 JUMP JUMPDEST DUP1 PUSH1 0x1F ADD PUSH1 0x20 DUP1 SWAP2 DIV MUL PUSH1 0x20 ADD PUSH1 0x40 MLOAD SWAP1 DUP2 ADD PUSH1 0x40 MSTORE DUP1 SWAP3 SWAP2 SWAP1 DUP2 DUP2 MSTORE PUSH1 0x20 ADD DUP3 DUP1 SLOAD PUSH2 0x712 SWAP1 PUSH2 0x12C6 JUMP JUMPDEST DUP1 ISZERO PUSH2 0x75D JUMPI DUP1 PUSH1 0x1F LT PUSH2 0x734 JUMPI PUSH2 0x100 DUP1 DUP4 SLOAD DIV MUL DUP4 MSTORE SWAP2 PUSH1 0x20 ADD SWAP2 PUSH2 0x75D JUMP JUMPDEST DUP3 ADD SWAP2 SWAP1 PUSH0 MSTORE PUSH1 0x20 PUSH0 KECCAK256 SWAP1 JUMPDEST DUP2 SLOAD DUP2 MSTORE SWAP1 PUSH1 0x1 ADD SWAP1 PUSH1 0x20 ADD DUP1 DUP4 GT PUSH2 0x740 JUMPI DUP3 SWAP1 SUB PUSH1 0x1F AND DUP3 ADD SWAP2 JUMPDEST POP POP POP POP POP SWAP1 POP DUP2 PUSH1 0x3 DUP3 PUSH1 0x40 MLOAD PUSH2 0x775 SWAP2 SWAP1 PUSH2 0x129D JUMP JUMPDEST SWAP1 DUP2 MSTORE PUSH1 0x20 ADD PUSH1 0x40 MLOAD DUP1 SWAP2 SUB SWAP1 KECCAK256 DUP2 SWAP1 SSTORE POP PUSH1 0x3 DUP4 PUSH1 0x40 MLOAD PUSH2 0x797 SWAP2 SWAP1 PUSH2 0x129D JUMP JUMPDEST SWAP1 DUP2 MSTORE PUSH1 0x20 ADD PUSH1 0x40 MLOAD DUP1 SWAP2 SUB SWAP1 KECCAK256 PUSH0 SWAP1 SSTORE PUSH1 0x1 DUP4 PUSH1 0x40 MLOAD PUSH2 0x7B8 SWAP2 SWAP1 PUSH2 0x129D JUMP JUMPDEST SWAP1 DUP2 MSTORE PUSH1 0x20 ADD PUSH1 0x40 MLOAD DUP1 SWAP2 SUB SWAP1 KECCAK256 PUSH0 PUSH2 0x7D1 SWAP2 SWAP1 PUSH2 0xDAA JUMP JUMPDEST DUP1 PUSH1 0x4 DUP4 DUP2 SLOAD DUP2 LT PUSH2 0x7E5 JUMPI PUSH2 0x7E5 PUSH2 0x1289 JUMP JUMPDEST SWAP1 PUSH0 MSTORE PUSH1 0x20 PUSH0 KECCAK256 ADD SWAP1 DUP2 PUSH2 0x7F9 SWAP2 SWAP1 PUSH2 0x1343 JUMP JUMPDEST POP PUSH1 0x4 DUP1 SLOAD DUP1 PUSH2 0x80B JUMPI PUSH2 0x80B PUSH2 0x13FD JUMP JUMPDEST PUSH1 0x1 SWAP1 SUB DUP2 DUP2 SWAP1 PUSH0 MSTORE PUSH1 0x20 PUSH0 KECCAK256 ADD PUSH0 PUSH2 0x824 SWAP2 SWAP1 PUSH2 0xDAA JUMP JUMPDEST SWAP1 SSTORE POP POP JUMPDEST POP JUMP JUMPDEST PUSH2 0x834 PUSH2 0xD15 JUMP JUMPDEST PUSH1 0x2 DUP3 PUSH1 0x40 MLOAD PUSH2 0x844 SWAP2 SWAP1 PUSH2 0x129D JUMP JUMPDEST SWAP1 DUP2 MSTORE PUSH1 0x40 MLOAD SWAP1 DUP2 SWAP1 SUB PUSH1 0x20 ADD SWAP1 KECCAK256 SLOAD PUSH1 0xFF AND PUSH2 0x555 JUMPI PUSH1 0x1 PUSH1 0x2 DUP4 PUSH1 0x40 MLOAD PUSH2 0x86D SWAP2 SWAP1 PUSH2 0x129D JUMP JUMPDEST SWAP1 DUP2 MSTORE PUSH1 0x40 MLOAD SWAP1 DUP2 SWAP1 SUB PUSH1 0x20 ADD DUP2 KECCAK256 DUP1 SLOAD SWAP3 ISZERO ISZERO PUSH1 0xFF NOT SWAP1 SWAP4 AND SWAP3 SWAP1 SWAP3 OR SWAP1 SWAP2 SSTORE PUSH1 0x4 SLOAD SWAP1 PUSH1 0x3 SWAP1 PUSH2 0x8A0 SWAP1 DUP6 SWAP1 PUSH2 0x129D JUMP JUMPDEST SWAP1 DUP2 MSTORE PUSH1 0x20 ADD PUSH1 0x40 MLOAD DUP1 SWAP2 SUB SWAP1 KECCAK256 DUP2 SWAP1 SSTORE POP DUP1 PUSH1 0x1 DUP4 PUSH1 0x40 MLOAD PUSH2 0x8C3 SWAP2 SWAP1 PUSH2 0x129D JUMP JUMPDEST SWAP1 DUP2 MSTORE PUSH1 0x20 ADD PUSH1 0x40 MLOAD DUP1 SWAP2 SUB SWAP1 KECCAK256 SWAP1 DUP2 PUSH2 0x8DD SWAP2 SWAP1 PUSH2 0x1343 JUMP JUMPDEST POP PUSH1 0x4 DUP1 SLOAD PUSH1 0x1 DUP2 ADD DUP3 SSTORE PUSH0 SWAP2 SWAP1 SWAP2 MSTORE PUSH32 0x8A35ACFBC15FF81A39AE7D344FD709F28E8600B4AA8C65C6B64BFE7FE36BD19B ADD PUSH2 0x919 DUP4 DUP3 PUSH2 0x1343 JUMP JUMPDEST POP POP POP JUMP JUMPDEST PUSH2 0x926 PUSH2 0xD15 JUMP JUMPDEST PUSH2 0x829 DUP2 PUSH0 PUSH2 0xD57 JUMP JUMPDEST PUSH2 0x938 PUSH2 0xD15 JUMP JUMPDEST PUSH2 0x555 DUP3 PUSH2 0x300 DUP4 PUSH2 0x96E JUMP JUMPDEST PUSH2 0x94D PUSH2 0xD15 JUMP JUMPDEST PUSH2 0x829 PUSH2 0x2ED DUP3 PUSH2 0xB8E JUMP JUMPDEST PUSH2 0x961 PUSH2 0xD15 JUMP JUMPDEST PUSH2 0x555 DUP3 PUSH2 0x300 DUP4 PUSH2 0x573 JUMP JUMPDEST PUSH1 0x40 DUP1 MLOAD PUSH1 0x14 DUP1 DUP3 MSTORE DUP2 DUP4 ADD SWAP1 SWAP3 MSTORE PUSH1 0x60 SWAP2 PUSH1 0x20 DUP3 ADD DUP2 DUP1 CALLDATASIZE DUP4 CALLDATACOPY ADD SWAP1 POP POP SWAP1 POP PUSH1 0x60 DUP3 SWAP1 SHL PUSH0 JUMPDEST PUSH1 0x14 DUP2 LT ISZERO PUSH2 0x9E5 JUMPI DUP2 DUP2 PUSH1 0x14 DUP2 LT PUSH2 0x9B1 JUMPI PUSH2 0x9B1 PUSH2 0x1289 JUMP JUMPDEST BYTE PUSH1 0xF8 SHL DUP4 DUP3 DUP2 MLOAD DUP2 LT PUSH2 0x9C7 JUMPI PUSH2 0x9C7 PUSH2 0x1289 JUMP JUMPDEST PUSH1 0x20 ADD ADD SWAP1 PUSH1 0x1 PUSH1 0x1 PUSH1 0xF8 SHL SUB NOT AND SWAP1 DUP2 PUSH0 BYTE SWAP1 MSTORE8 POP PUSH1 0x1 ADD PUSH2 0x996 JUMP JUMPDEST POP POP SWAP2 SWAP1 POP JUMP JUMPDEST PUSH2 0x9F4 PUSH2 0xD15 JUMP JUMPDEST PUSH2 0x555 PUSH2 0xA00 DUP4 PUSH2 0x573 JUMP JUMPDEST PUSH2 0x300 DUP4 PUSH2 0x96E JUMP JUMPDEST PUSH1 0x60 PUSH1 0x1 PUSH1 0x4 DUP4 DUP2 SLOAD DUP2 LT PUSH2 0xA20 JUMPI PUSH2 0xA20 PUSH2 0x1289 JUMP JUMPDEST SWAP1 PUSH0 MSTORE PUSH1 0x20 PUSH0 KECCAK256 ADD PUSH1 0x40 MLOAD PUSH2 0xA35 SWAP2 SWAP1 PUSH2 0x1411 JUMP JUMPDEST SWAP1 DUP2 MSTORE PUSH1 0x20 ADD PUSH1 0x40 MLOAD DUP1 SWAP2 SUB SWAP1 KECCAK256 DUP1 SLOAD PUSH2 0xA4E SWAP1 PUSH2 0x12C6 JUMP JUMPDEST DUP1 PUSH1 0x1F ADD PUSH1 0x20 DUP1 SWAP2 DIV MUL PUSH1 0x20 ADD PUSH1 0x40 MLOAD SWAP1 DUP2 ADD PUSH1 0x40 MSTORE DUP1 SWAP3 SWAP2 SWAP1 DUP2 DUP2 MSTORE PUSH1 0x20 ADD DUP3 DUP1 SLOAD PUSH2 0xA7A SWAP1 PUSH2 0x12C6 JUMP JUMPDEST DUP1 ISZERO PUSH2 0xAC5 JUMPI DUP1 PUSH1 0x1F LT PUSH2 0xA9C JUMPI PUSH2 0x100 DUP1 DUP4 SLOAD DIV MUL DUP4 MSTORE SWAP2 PUSH1 0x20 ADD SWAP2 PUSH2 0xAC5 JUMP JUMPDEST DUP3 ADD SWAP2 SWAP1 PUSH0 MSTORE PUSH1 0x20 PUSH0 KECCAK256 SWAP1 JUMPDEST DUP2 SLOAD DUP2 MSTORE SWAP1 PUSH1 0x1 ADD SWAP1 PUSH1 0x20 ADD DUP1 DUP4 GT PUSH2 0xAA8 JUMPI DUP3 SWAP1 SUB PUSH1 0x1F AND DUP3 ADD SWAP2 JUMPDEST POP POP POP POP POP SWAP1 POP SWAP2 SWAP1 POP JUMP JUMPDEST PUSH1 0x60 PUSH1 0x1 DUP3 PUSH1 0x40 MLOAD PUSH2 0xA35 SWAP2 SWAP1 PUSH2 0x129D JUMP JUMPDEST PUSH1 0x1 PUSH1 0x1 PUSH1 0xA0 SHL SUB AND PUSH0 SWAP1 DUP2 MSTORE PUSH1 0x20 DUP2 SWAP1 MSTORE PUSH1 0x40 SWAP1 KECCAK256 SLOAD PUSH1 0xFF AND SWAP1 JUMP JUMPDEST PUSH2 0xB08 PUSH2 0xD15 JUMP JUMPDEST PUSH2 0x555 PUSH2 0x56D DUP4 PUSH2 0x96E JUMP JUMPDEST PUSH2 0xB1C PUSH2 0xD15 JUMP JUMPDEST PUSH1 0x1 PUSH1 0x1 PUSH1 0xA0 SHL SUB DUP2 AND PUSH2 0xB52 JUMPI ORIGIN PUSH0 ADDRESS PUSH1 0x40 MLOAD PUSH4 0x36030219 PUSH1 0xE2 SHL DUP2 MSTORE PUSH1 0x4 ADD PUSH2 0xB49 SWAP4 SWAP3 SWAP2 SWAP1 PUSH2 0x1482 JUMP JUMPDEST PUSH1 0x40 MLOAD DUP1 SWAP2 SUB SWAP1 REVERT JUMPDEST PUSH2 0x829 DUP2 PUSH1 0x1 PUSH2 0xD57 JUMP JUMPDEST PUSH2 0xB65 PUSH2 0xD15 JUMP JUMPDEST PUSH2 0x555 PUSH2 0x56D DUP4 PUSH2 0xB8E JUMP JUMPDEST PUSH2 0xB79 PUSH2 0xD15 JUMP JUMPDEST PUSH2 0x555 PUSH2 0xB85 DUP4 PUSH2 0x96E JUMP JUMPDEST PUSH2 0x300 DUP4 PUSH2 0x573 JUMP JUMPDEST PUSH1 0x40 DUP1 MLOAD PUSH1 0x20 DUP1 DUP3 MSTORE DUP2 DUP4 ADD SWAP1 SWAP3 MSTORE PUSH1 0x60 SWAP2 PUSH1 0x20 DUP3 ADD DUP2 DUP1 CALLDATASIZE DUP4 CALLDATACOPY ADD SWAP1 POP POP SWAP1 POP PUSH0 JUMPDEST PUSH1 0x20 DUP2 LT ISZERO PUSH2 0x5EC JUMPI PUSH2 0xBC5 DUP2 PUSH1 0x8 PUSH2 0x126C JUMP JUMPDEST DUP4 SWAP1 SHR PUSH1 0xFF AND PUSH1 0xF8 SHL DUP3 DUP3 DUP2 MLOAD DUP2 LT PUSH2 0xBE0 JUMPI PUSH2 0xBE0 PUSH2 0x1289 JUMP JUMPDEST PUSH1 0x20 ADD ADD SWAP1 PUSH1 0x1 PUSH1 0x1 PUSH1 0xF8 SHL SUB NOT AND SWAP1 DUP2 PUSH0 BYTE SWAP1 MSTORE8 POP PUSH1 0x1 ADD PUSH2 0xBB1 JUMP JUMPDEST PUSH2 0xC06 PUSH2 0xD15 JUMP JUMPDEST PUSH2 0x829 DUP2 PUSH2 0x636 JUMP JUMPDEST PUSH2 0xC17 PUSH2 0xD15 JUMP JUMPDEST PUSH2 0x555 PUSH2 0x54C DUP4 PUSH2 0x573 JUMP JUMPDEST PUSH2 0xC2B PUSH2 0xD15 JUMP JUMPDEST PUSH2 0x555 DUP3 PUSH2 0x300 DUP4 PUSH2 0xB8E JUMP JUMPDEST PUSH2 0xC40 PUSH2 0xD15 JUMP JUMPDEST PUSH2 0x555 PUSH2 0xA00 DUP4 PUSH2 0x96E JUMP JUMPDEST PUSH2 0xC54 PUSH2 0xD15 JUMP JUMPDEST PUSH2 0x829 PUSH2 0x2ED DUP3 PUSH2 0x573 JUMP JUMPDEST PUSH0 PUSH1 0x2 PUSH2 0x610 DUP4 PUSH2 0x573 JUMP JUMPDEST PUSH2 0xC74 PUSH2 0xD15 JUMP JUMPDEST PUSH2 0x555 PUSH2 0xA00 DUP4 PUSH2 0xB8E JUMP JUMPDEST PUSH2 0xC88 PUSH2 0xD15 JUMP JUMPDEST PUSH2 0x555 PUSH2 0xB85 DUP4 PUSH2 0x573 JUMP JUMPDEST PUSH2 0xC9C PUSH2 0xD15 JUMP JUMPDEST PUSH2 0x829 PUSH2 0x2ED DUP3 PUSH2 0x96E JUMP JUMPDEST PUSH0 PUSH1 0x2 DUP3 PUSH1 0x40 MLOAD PUSH2 0x61D SWAP2 SWAP1 PUSH2 0x129D JUMP JUMPDEST PUSH0 PUSH1 0x2 PUSH2 0x610 DUP4 PUSH2 0x96E JUMP JUMPDEST PUSH2 0xCCD PUSH2 0xD15 JUMP JUMPDEST PUSH2 0x555 PUSH2 0xB85 DUP4 PUSH2 0xB8E JUMP JUMPDEST PUSH2 0xCE1 PUSH2 0xD15 JUMP JUMPDEST PUSH2 0x555 PUSH2 0x54C DUP4 PUSH2 0xB8E JUMP JUMPDEST PUSH1 0x60 PUSH1 0x4 DUP3 DUP2 SLOAD DUP2 LT PUSH2 0xD02 JUMPI PUSH2 0xD02 PUSH2 0x1289 JUMP JUMPDEST SWAP1 PUSH0 MSTORE PUSH1 0x20 PUSH0 KECCAK256 ADD DUP1 SLOAD PUSH2 0xA4E SWAP1 PUSH2 0x12C6 JUMP JUMPDEST PUSH2 0xD1E CALLER PUSH2 0xAE3 JUMP JUMPDEST ISZERO DUP1 ISZERO PUSH2 0xD31 JUMPI POP PUSH2 0xD2F ORIGIN PUSH2 0xAE3 JUMP JUMPDEST ISZERO JUMPDEST ISZERO PUSH2 0xD55 JUMPI ORIGIN CALLER ADDRESS PUSH1 0x40 MLOAD PUSH4 0xBE6BAB5 PUSH1 0xE0 SHL DUP2 MSTORE PUSH1 0x4 ADD PUSH2 0xB49 SWAP4 SWAP3 SWAP2 SWAP1 PUSH2 0x1482 JUMP JUMPDEST JUMP JUMPDEST PUSH1 0x1 PUSH1 0x1 PUSH1 0xA0 SHL SUB DUP3 AND PUSH0 DUP2 DUP2 MSTORE PUSH1 0x20 DUP2 SWAP1 MSTORE PUSH1 0x40 DUP1 DUP3 KECCAK256 DUP1 SLOAD PUSH1 0xFF NOT AND DUP6 ISZERO ISZERO SWAP1 DUP2 OR SWAP1 SWAP2 SSTORE SWAP1 MLOAD SWAP1 SWAP3 SWAP2 PUSH32 0x6BFA7E860C3E9BF67B810CB88276B19B27C972812BAC04793D369B59A1183A83 SWAP2 LOG3 POP POP JUMP JUMPDEST POP DUP1 SLOAD PUSH2 0xDB6 SWAP1 PUSH2 0x12C6 JUMP JUMPDEST PUSH0 DUP3 SSTORE DUP1 PUSH1 0x1F LT PUSH2 0xDC5 JUMPI POP POP JUMP JUMPDEST PUSH1 0x1F ADD PUSH1 0x20 SWAP1 DIV SWAP1 PUSH0 MSTORE PUSH1 0x20 PUSH0 KECCAK256 SWAP1 DUP2 ADD SWAP1 PUSH2 0x829 SWAP2 SWAP1 JUMPDEST DUP1 DUP3 GT ISZERO PUSH2 0xDF0 JUMPI PUSH0 DUP2 SSTORE PUSH1 0x1 ADD PUSH2 0xDDD JUMP JUMPDEST POP SWAP1 JUMP JUMPDEST DUP1 CALLDATALOAD PUSH1 0x1 PUSH1 0x1 PUSH1 0xA0 SHL SUB DUP2 AND DUP2 EQ PUSH2 0xE0A JUMPI PUSH0 PUSH0 REVERT JUMPDEST SWAP2 SWAP1 POP JUMP JUMPDEST PUSH0 PUSH0 PUSH1 0x40 DUP4 DUP6 SUB SLT ISZERO PUSH2 0xE20 JUMPI PUSH0 PUSH0 REVERT JUMPDEST PUSH2 0xE29 DUP4 PUSH2 0xDF4 JUMP JUMPDEST SWAP5 PUSH1 0x20 SWAP4 SWAP1 SWAP4 ADD CALLDATALOAD SWAP4 POP POP POP JUMP JUMPDEST DUP1 CALLDATALOAD PUSH1 0x1 PUSH1 0x1 PUSH1 0x40 SHL SUB DUP2 AND DUP2 EQ PUSH2 0xE0A JUMPI PUSH0 PUSH0 REVERT JUMPDEST PUSH4 0x4E487B71 PUSH1 0xE0 SHL PUSH0 MSTORE PUSH1 0x41 PUSH1 0x4 MSTORE PUSH1 0x24 PUSH0 REVERT JUMPDEST PUSH0 DUP3 PUSH1 0x1F DUP4 ADD SLT PUSH2 0xE70 JUMPI PUSH0 PUSH0 REVERT JUMPDEST DUP2 CALLDATALOAD PUSH1 0x20 DUP4 ADD PUSH0 PUSH0 PUSH1 0x1 PUSH1 0x1 PUSH1 0x40 SHL SUB DUP5 GT ISZERO PUSH2 0xE8F JUMPI PUSH2 0xE8F PUSH2 0xE4D JUMP JUMPDEST POP PUSH1 0x40 MLOAD PUSH1 0x1F NOT PUSH1 0x1F DUP6 ADD DUP2 AND PUSH1 0x3F ADD AND DUP2 ADD DUP2 DUP2 LT PUSH1 0x1 PUSH1 0x1 PUSH1 0x40 SHL SUB DUP3 GT OR ISZERO PUSH2 0xEBD JUMPI PUSH2 0xEBD PUSH2 0xE4D JUMP JUMPDEST PUSH1 0x40 MSTORE DUP4 DUP2 MSTORE SWAP1 POP DUP1 DUP3 DUP5 ADD DUP8 LT ISZERO PUSH2 0xED4 JUMPI PUSH0 PUSH0 REVERT JUMPDEST DUP4 DUP4 PUSH1 0x20 DUP4 ADD CALLDATACOPY PUSH0 PUSH1 0x20 DUP6 DUP4 ADD ADD MSTORE DUP1 SWAP5 POP POP POP POP POP SWAP3 SWAP2 POP POP JUMP JUMPDEST PUSH0 PUSH0 PUSH1 0x40 DUP4 DUP6 SUB SLT ISZERO PUSH2 0xF01 JUMPI PUSH0 PUSH0 REVERT JUMPDEST PUSH2 0xF0A DUP4 PUSH2 0xE37 JUMP JUMPDEST SWAP2 POP PUSH1 0x20 DUP4 ADD CALLDATALOAD PUSH1 0x1 PUSH1 0x1 PUSH1 0x40 SHL SUB DUP2 GT ISZERO PUSH2 0xF24 JUMPI PUSH0 PUSH0 REVERT JUMPDEST PUSH2 0xF30 DUP6 DUP3 DUP7 ADD PUSH2 0xE61 JUMP JUMPDEST SWAP2 POP POP SWAP3 POP SWAP3 SWAP1 POP JUMP JUMPDEST PUSH0 PUSH1 0x20 DUP3 DUP5 SUB SLT ISZERO PUSH2 0xF4A JUMPI PUSH0 PUSH0 REVERT JUMPDEST PUSH2 0xF53 DUP3 PUSH2 0xE37 JUMP JUMPDEST SWAP4 SWAP3 POP POP POP JUMP JUMPDEST PUSH1 0x20 DUP2 MSTORE PUSH0 DUP3 MLOAD DUP1 PUSH1 0x20 DUP5 ADD MSTORE DUP1 PUSH1 0x20 DUP6 ADD PUSH1 0x40 DUP6 ADD MCOPY PUSH0 PUSH1 0x40 DUP3 DUP6 ADD ADD MSTORE PUSH1 0x40 PUSH1 0x1F NOT PUSH1 0x1F DUP4 ADD AND DUP5 ADD ADD SWAP2 POP POP SWAP3 SWAP2 POP POP JUMP JUMPDEST PUSH0 PUSH0 PUSH1 0x40 DUP4 DUP6 SUB SLT ISZERO PUSH2 0xFA0 JUMPI PUSH0 PUSH0 REVERT JUMPDEST DUP3 CALLDATALOAD PUSH1 0x1 PUSH1 0x1 PUSH1 0x40 SHL SUB DUP2 GT ISZERO PUSH2 0xFB5 JUMPI PUSH0 PUSH0 REVERT JUMPDEST PUSH2 0xFC1 DUP6 DUP3 DUP7 ADD PUSH2 0xE61 JUMP JUMPDEST SWAP3 POP POP PUSH1 0x20 DUP4 ADD CALLDATALOAD PUSH1 0x1 PUSH1 0x1 PUSH1 0x40 SHL SUB DUP2 GT ISZERO PUSH2 0xF24 JUMPI PUSH0 PUSH0 REVERT JUMPDEST PUSH0 PUSH1 0x20 DUP3 DUP5 SUB SLT ISZERO PUSH2 0xFEC JUMPI PUSH0 PUSH0 REVERT JUMPDEST POP CALLDATALOAD SWAP2 SWAP1 POP JUMP JUMPDEST PUSH0 PUSH1 0x20 DUP3 DUP5 SUB SLT ISZERO PUSH2 0x1003 JUMPI PUSH0 PUSH0 REVERT JUMPDEST DUP2 CALLDATALOAD PUSH1 0x1 PUSH1 0x1 PUSH1 0x40 SHL SUB DUP2 GT ISZERO PUSH2 0x1018 JUMPI PUSH0 PUSH0 REVERT JUMPDEST PUSH2 0x1024 DUP5 DUP3 DUP6 ADD PUSH2 0xE61 JUMP JUMPDEST SWAP5 SWAP4 POP POP POP POP JUMP JUMPDEST PUSH0 PUSH1 0x20 DUP3 DUP5 SUB SLT ISZERO PUSH2 0x103C JUMPI PUSH0 PUSH0 REVERT JUMPDEST PUSH2 0xF53 DUP3 PUSH2 0xDF4 JUMP JUMPDEST PUSH0 PUSH0 PUSH1 0x40 DUP4 DUP6 SUB SLT ISZERO PUSH2 0x1056 JUMPI PUSH0 PUSH0 REVERT JUMPDEST DUP3 CALLDATALOAD PUSH1 0x1 PUSH1 0x1 PUSH1 0x40 SHL SUB DUP2 GT ISZERO PUSH2 0x106B JUMPI PUSH0 PUSH0 REVERT JUMPDEST PUSH2 0x1077 DUP6 DUP3 DUP7 ADD PUSH2 0xE61 JUMP JUMPDEST SWAP3 POP POP PUSH2 0x1086 PUSH1 0x20 DUP5 ADD PUSH2 0xDF4 JUMP JUMPDEST SWAP1 POP SWAP3 POP SWAP3 SWAP1 POP JUMP JUMPDEST PUSH0 PUSH0 PUSH1 0x40 DUP4 DUP6 SUB SLT ISZERO PUSH2 0x10A0 JUMPI PUSH0 PUSH0 REVERT JUMPDEST DUP3 CALLDATALOAD PUSH1 0x1 PUSH1 0x1 PUSH1 0x40 SHL SUB DUP2 GT ISZERO PUSH2 0x10B5 JUMPI PUSH0 PUSH0 REVERT JUMPDEST PUSH2 0x10C1 DUP6 DUP3 DUP7 ADD PUSH2 0xE61 JUMP JUMPDEST SWAP3 POP POP PUSH2 0x1086 PUSH1 0x20 DUP5 ADD PUSH2 0xE37 JUMP JUMPDEST PUSH0 PUSH0 PUSH1 0x40 DUP4 DUP6 SUB SLT ISZERO PUSH2 0x10E1 JUMPI PUSH0 PUSH0 REVERT JUMPDEST PUSH2 0x10EA DUP4 PUSH2 0xE37 JUMP JUMPDEST SWAP2 POP PUSH2 0x1086 PUSH1 0x20 DUP5 ADD PUSH2 0xDF4 JUMP JUMPDEST PUSH0 PUSH0 PUSH1 0x40 DUP4 DUP6 SUB SLT ISZERO PUSH2 0x1109 JUMPI PUSH0 PUSH0 REVERT JUMPDEST PUSH2 0xF0A DUP4 PUSH2 0xDF4 JUMP JUMPDEST PUSH0 PUSH0 PUSH1 0x40 DUP4 DUP6 SUB SLT ISZERO PUSH2 0x1123 JUMPI PUSH0 PUSH0 REVERT JUMPDEST DUP3 CALLDATALOAD SWAP2 POP PUSH1 0x20 DUP4 ADD CALLDATALOAD PUSH1 0x1 PUSH1 0x1 PUSH1 0x40 SHL SUB DUP2 GT ISZERO PUSH2 0xF24 JUMPI PUSH0 PUSH0 REVERT JUMPDEST PUSH0 PUSH0 PUSH1 0x40 DUP4 DUP6 SUB SLT ISZERO PUSH2 0x1150 JUMPI PUSH0 PUSH0 REVERT JUMPDEST PUSH2 0x1159 DUP4 PUSH2 0xDF4 JUMP JUMPDEST SWAP2 POP PUSH2 0x1086 PUSH1 0x20 DUP5 ADD PUSH2 0xE37 JUMP JUMPDEST PUSH0 PUSH0 PUSH1 0x40 DUP4 DUP6 SUB SLT ISZERO PUSH2 0x1178 JUMPI PUSH0 PUSH0 REVERT JUMPDEST PUSH2 0xE29 DUP4 PUSH2 0xE37 JUMP JUMPDEST PUSH0 PUSH0 PUSH1 0x40 DUP4 DUP6 SUB SLT ISZERO PUSH2 0x1192 JUMPI PUSH0 PUSH0 REVERT JUMPDEST DUP3 CALLDATALOAD PUSH1 0x1 PUSH1 0x1 PUSH1 0x40 SHL SUB DUP2 GT ISZERO PUSH2 0x11A7 JUMPI PUSH0 PUSH0 REVERT JUMPDEST PUSH2 0x11B3 DUP6 DUP3 DUP7 ADD PUSH2 0xE61 JUMP JUMPDEST SWAP6 PUSH1 0x20 SWAP5 SWAP1 SWAP5 ADD CALLDATALOAD SWAP5 POP POP POP POP JUMP JUMPDEST PUSH0 PUSH0 PUSH1 0x40 DUP4 DUP6 SUB SLT ISZERO PUSH2 0x11D3 JUMPI PUSH0 PUSH0 REVERT JUMPDEST PUSH2 0x10EA DUP4 PUSH2 0xDF4 JUMP JUMPDEST PUSH0 PUSH0 PUSH1 0x40 DUP4 DUP6 SUB SLT ISZERO PUSH2 0x11ED JUMPI PUSH0 PUSH0 REVERT JUMPDEST DUP3 CALLDATALOAD SWAP2 POP PUSH2 0x1086 PUSH1 0x20 DUP5 ADD PUSH2 0xDF4 JUMP JUMPDEST PUSH0 PUSH0 PUSH1 0x40 DUP4 DUP6 SUB SLT ISZERO PUSH2 0x120E JUMPI PUSH0 PUSH0 REVERT JUMPDEST PUSH2 0x1159 DUP4 PUSH2 0xE37 JUMP JUMPDEST PUSH0 PUSH0 PUSH1 0x40 DUP4 DUP6 SUB SLT ISZERO PUSH2 0x1228 JUMPI PUSH0 PUSH0 REVERT JUMPDEST DUP3 CALLDATALOAD SWAP2 POP PUSH2 0x1086 PUSH1 0x20 DUP5 ADD PUSH2 0xE37 JUMP JUMPDEST PUSH0 PUSH0 PUSH1 0x40 DUP4 DUP6 SUB SLT ISZERO PUSH2 0x1249 JUMPI PUSH0 PUSH0 REVERT JUMPDEST POP POP DUP1 CALLDATALOAD SWAP3 PUSH1 0x20 SWAP1 SWAP2 ADD CALLDATALOAD SWAP2 POP JUMP JUMPDEST PUSH4 0x4E487B71 PUSH1 0xE0 SHL PUSH0 MSTORE PUSH1 0x11 PUSH1 0x4 MSTORE PUSH1 0x24 PUSH0 REVERT JUMPDEST DUP1 DUP3 MUL DUP2 ISZERO DUP3 DUP3 DIV DUP5 EQ OR PUSH2 0x1283 JUMPI PUSH2 0x1283 PUSH2 0x1258 JUMP JUMPDEST SWAP3 SWAP2 POP POP JUMP JUMPDEST PUSH4 0x4E487B71 PUSH1 0xE0 SHL PUSH0 MSTORE PUSH1 0x32 PUSH1 0x4 MSTORE PUSH1 0x24 PUSH0 REVERT JUMPDEST PUSH0 DUP3 MLOAD DUP1 PUSH1 0x20 DUP6 ADD DUP5 MCOPY PUSH0 SWAP3 ADD SWAP2 DUP3 MSTORE POP SWAP2 SWAP1 POP JUMP JUMPDEST DUP2 DUP2 SUB DUP2 DUP2 GT ISZERO PUSH2 0x1283 JUMPI PUSH2 0x1283 PUSH2 0x1258 JUMP JUMPDEST PUSH1 0x1 DUP2 DUP2 SHR SWAP1 DUP3 AND DUP1 PUSH2 0x12DA JUMPI PUSH1 0x7F DUP3 AND SWAP2 POP JUMPDEST PUSH1 0x20 DUP3 LT DUP2 SUB PUSH2 0x5EC JUMPI PUSH4 0x4E487B71 PUSH1 0xE0 SHL PUSH0 MSTORE PUSH1 0x22 PUSH1 0x4 MSTORE PUSH1 0x24 PUSH0 REVERT JUMPDEST PUSH1 0x1F DUP3 GT ISZERO PUSH2 0x919 JUMPI DUP1 PUSH0 MSTORE PUSH1 0x20 PUSH0 KECCAK256 PUSH1 0x1F DUP5 ADD PUSH1 0x5 SHR DUP2 ADD PUSH1 0x20 DUP6 LT ISZERO PUSH2 0x131D JUMPI POP DUP1 JUMPDEST PUSH1 0x1F DUP5 ADD PUSH1 0x5 SHR DUP3 ADD SWAP2 POP JUMPDEST DUP2 DUP2 LT ISZERO PUSH2 0x133C JUMPI PUSH0 DUP2 SSTORE PUSH1 0x1 ADD PUSH2 0x1329 JUMP JUMPDEST POP POP POP POP POP JUMP JUMPDEST DUP2 MLOAD PUSH1 0x1 PUSH1 0x1 PUSH1 0x40 SHL SUB DUP2 GT ISZERO PUSH2 0x135C JUMPI PUSH2 0x135C PUSH2 0xE4D JUMP JUMPDEST PUSH2 0x1370 DUP2 PUSH2 0x136A DUP5 SLOAD PUSH2 0x12C6 JUMP JUMPDEST DUP5 PUSH2 0x12F8 JUMP JUMPDEST PUSH1 0x20 PUSH1 0x1F DUP3 GT PUSH1 0x1 DUP2 EQ PUSH2 0x13A2 JUMPI PUSH0 DUP4 ISZERO PUSH2 0x138B JUMPI POP DUP5 DUP3 ADD MLOAD JUMPDEST PUSH0 NOT PUSH1 0x3 DUP6 SWAP1 SHL SHR NOT AND PUSH1 0x1 DUP5 SWAP1 SHL OR DUP5 SSTORE PUSH2 0x133C JUMP JUMPDEST PUSH0 DUP5 DUP2 MSTORE PUSH1 0x20 DUP2 KECCAK256 PUSH1 0x1F NOT DUP6 AND SWAP2 JUMPDEST DUP3 DUP2 LT ISZERO PUSH2 0x13D1 JUMPI DUP8 DUP6 ADD MLOAD DUP3 SSTORE PUSH1 0x20 SWAP5 DUP6 ADD SWAP5 PUSH1 0x1 SWAP1 SWAP3 ADD SWAP2 ADD PUSH2 0x13B1 JUMP JUMPDEST POP DUP5 DUP3 LT ISZERO PUSH2 0x13EE JUMPI DUP7 DUP5 ADD MLOAD PUSH0 NOT PUSH1 0x3 DUP8 SWAP1 SHL PUSH1 0xF8 AND SHR NOT AND DUP2 SSTORE JUMPDEST POP POP POP POP PUSH1 0x1 SWAP1 DUP2 SHL ADD SWAP1 SSTORE POP JUMP JUMPDEST PUSH4 0x4E487B71 PUSH1 0xE0 SHL PUSH0 MSTORE PUSH1 0x31 PUSH1 0x4 MSTORE PUSH1 0x24 PUSH0 REVERT JUMPDEST PUSH0 PUSH0 DUP4 SLOAD PUSH2 0x141E DUP2 PUSH2 0x12C6 JUMP JUMPDEST PUSH1 0x1 DUP3 AND DUP1 ISZERO PUSH2 0x1435 JUMPI PUSH1 0x1 DUP2 EQ PUSH2 0x144A JUMPI PUSH2 0x1477 JUMP JUMPDEST PUSH1 0xFF NOT DUP4 AND DUP7 MSTORE DUP2 ISZERO ISZERO DUP3 MUL DUP7 ADD SWAP4 POP PUSH2 0x1477 JUMP JUMPDEST DUP7 PUSH0 MSTORE PUSH1 0x20 PUSH0 KECCAK256 PUSH0 JUMPDEST DUP4 DUP2 LT ISZERO PUSH2 0x146F JUMPI DUP2 SLOAD DUP9 DUP3 ADD MSTORE PUSH1 0x1 SWAP1 SWAP2 ADD SWAP1 PUSH1 0x20 ADD PUSH2 0x1453 JUMP JUMPDEST POP POP DUP2 DUP7 ADD SWAP4 POP JUMPDEST POP SWAP2 SWAP6 SWAP5 POP POP POP POP POP JUMP JUMPDEST PUSH1 0x1 PUSH1 0x1 PUSH1 0xA0 SHL SUB SWAP4 DUP5 AND DUP2 MSTORE SWAP2 DUP4 AND PUSH1 0x20 DUP4 ADD MSTORE SWAP1 SWAP2 AND PUSH1 0x40 DUP3 ADD MSTORE PUSH1 0x60 ADD SWAP1 JUMP INVALID LOG2 PUSH5 0x6970667358 0x22 SLT KECCAK256 NUMBER 0xC9 0xEB 0xCD PUSH7 0x2CB4A432F6AC9 0x24 0xBE 0x4E SDIV 0xCB CALLDATACOPY PUSH24 0x1EEECFCD2C780F24D5D8AC198D64736F6C634300081B0033 "
		},
		"gasEstimates": {
			"creation": {
				"codeDepositCost": "1067800",
				"executionCost": "27024",
				"totalCost": "1094824"
			},
			"external": {
				"AddressToBytes(address)": "infinite",
				"Count()": "2391",
				"Get(bytes)": "infinite",
				"Get(uint256)": "infinite",
				"GetHashByIndex(uint256)": "infinite",
				"Inserted(address)": "infinite",
				"Inserted(bytes)": "infinite",
				"Inserted(string)": "infinite",
				"Inserted(uint256)": "infinite",
				"Inserted(uint64)": "infinite",
				"Register(address,address)": "infinite",
				"Register(address,bytes)": "infinite",
				"Register(address,string)": "infinite",
				"Register(address,uint256)": "infinite",
				"Register(address,uint64)": "infinite",
				"Register(bytes,bytes)": "infinite",
				"Register(string,address)": "infinite",
				"Register(string,bytes)": "infinite",
				"Register(string,string)": "infinite",
				"Register(string,uint256)": "infinite",
				"Register(string,uint64)": "infinite",
				"Register(uint256,address)": "infinite",
				"Register(uint256,bytes)": "infinite",
				"Register(uint256,string)": "infinite",
				"Register(uint256,uint256)": "infinite",
				"Register(uint256,uint64)": "infinite",
				"Register(uint64,address)": "infinite",
				"Register(uint64,bytes)": "infinite",
				"Register(uint64,string)": "infinite",
				"Register(uint64,uint256)": "infinite",
				"Register(uint64,uint64)": "infinite",
				"Remove(address)": "infinite",
				"Remove(bytes)": "infinite",
				"Remove(string)": "infinite",
				"Remove(uint256)": "infinite",
				"Remove(uint64)": "infinite",
				"Uint256ToBytes(uint256)": "infinite",
				"Uint64ToBytes(uint64)": "infinite",
				"addOwner(address)": "infinite",
				"owner()": "265",
				"owner(address)": "2606",
				"renounceOwnership(address)": "infinite"
			}
		},
		"methodIdentifiers": {
			"AddressToBytes(address)": "4d84c524",
			"Count()": "93a8333e",
			"Get(bytes)": "645558f2",
			"Get(uint256)": "60cd2685",
			"GetHashByIndex(uint256)": "f8d9fb93",
			"Inserted(address)": "d55bc7ae",
			"Inserted(bytes)": "d56a2f8a",
			"Inserted(string)": "ce6ec8ef",
			"Inserted(uint256)": "18825d63",
			"Inserted(uint64)": "a249bc3d",
			"Register(address,address)": "98ada70a",
			"Register(address,bytes)": "bf6a48f4",
			"Register(address,string)": "6ba0831d",
			"Register(address,uint256)": "007dc6ab",
			"Register(address,uint64)": "71fca080",
			"Register(bytes,bytes)": "2fa0b74a",
			"Register(string,address)": "3e49fb7e",
			"Register(string,bytes)": "150754ac",
			"Register(string,string)": "d6192e29",
			"Register(string,uint256)": "963de085",
			"Register(string,uint64)": "4872755a",
			"Register(uint256,address)": "a902c0ee",
			"Register(uint256,bytes)": "db61df3e",
			"Register(uint256,string)": "711029f8",
			"Register(uint256,uint256)": "e23550ce",
			"Register(uint256,uint64)": "e09781f4",
			"Register(uint64,address)": "4e2ce3a6",
			"Register(uint64,bytes)": "7e7dd325",
			"Register(uint64,string)": "0cde0a5f",
			"Register(uint64,uint256)": "943cc8f1",
			"Register(uint64,uint64)": "a9bb1252",
			"Remove(address)": "be7c7ac3",
			"Remove(bytes)": "2ac6faa6",
			"Remove(string)": "834a2d47",
			"Remove(uint256)": "476e4aa4",
			"Remove(uint64)": "9ce8431e",
			"Uint256ToBytes(uint256)": "821cdcb4",
			"Uint64ToBytes(uint64)": "11d6bbe6",
			"addOwner(address)": "7065cb48",
			"owner()": "8da5cb5b",
			"owner(address)": "666e1b39",
			"renounceOwnership(address)": "38bf3cfa"
		}
	},
	"abi": [
		{
			"inputs": [],
			"stateMutability": "nonpayable",
			"type": "constructor"
		},
		{
			"inputs": [
				{
					"internalType": "address",
					"name": "origin",
					"type": "address"
				},
				{
					"internalType": "address",
					"name": "owner",
					"type": "address"
				},
				{
					"internalType": "address",
					"name": "what",
					"type": "address"
				}
			],
			"name": "OwnableInvalidOwner",
			"type": "error"
		},
		{
			"inputs": [
				{
					"internalType": "address",
					"name": "origin",
					"type": "address"
				},
				{
					"internalType": "address",
					"name": "account",
					"type": "address"
				},
				{
					"internalType": "address",
					"name": "what",
					"type": "address"
				}
			],
			"name": "OwnableUnauthorizedAccount",
			"type": "error"
		},
		{
			"anonymous": false,
			"inputs": [
				{
					"indexed": true,
					"internalType": "address",
					"name": "newOwner",
					"type": "address"
				},
				{
					"indexed": true,
					"internalType": "bool",
					"name": "state",
					"type": "bool"
				}
			],
			"name": "OwnershipUpdate",
			"type": "event"
		},
		{
			"inputs": [
				{
					"internalType": "address",
					"name": "what",
					"type": "address"
				}
			],
			"name": "AddressToBytes",
			"outputs": [
				{
					"internalType": "bytes",
					"name": "_w",
					"type": "bytes"
				}
			],
			"stateMutability": "pure",
			"type": "function"
		},
		{
			"inputs": [],
			"name": "Count",
			"outputs": [
				{
					"internalType": "uint256",
					"name": "",
					"type": "uint256"
				}
			],
			"stateMutability": "view",
			"type": "function"
		},
		{
			"inputs": [
				{
					"internalType": "uint256",
					"name": "idx",
					"type": "uint256"
				}
			],
			"name": "Get",
			"outputs": [
				{
					"internalType": "bytes",
					"name": "",
					"type": "bytes"
				}
			],
			"stateMutability": "view",
			"type": "function"
		},
		{
			"inputs": [
				{
					"internalType": "bytes",
					"name": "key",
					"type": "bytes"
				}
			],
			"name": "Get",
			"outputs": [
				{
					"internalType": "bytes",
					"name": "",
					"type": "bytes"
				}
			],
			"stateMutability": "view",
			"type": "function"
		},
		{
			"inputs": [
				{
					"internalType": "uint256",
					"name": "index",
					"type": "uint256"
				}
			],
			"name": "GetHashByIndex",
			"outputs": [
				{
					"internalType": "bytes",
					"name": "",
					"type": "bytes"
				}
			],
			"stateMutability": "view",
			"type": "function"
		},
		{
			"inputs": [
				{
					"internalType": "uint256",
					"name": "what",
					"type": "uint256"
				}
			],
			"name": "Inserted",
			"outputs": [
				{
					"internalType": "bool",
					"name": "",
					"type": "bool"
				}
			],
			"stateMutability": "view",
			"type": "function"
		},
		{
			"inputs": [
				{
					"internalType": "uint64",
					"name": "what",
					"type": "uint64"
				}
			],
			"name": "Inserted",
			"outputs": [
				{
					"internalType": "bool",
					"name": "",
					"type": "bool"
				}
			],
			"stateMutability": "view",
			"type": "function"
		},
		{
			"inputs": [
				{
					"internalType": "string",
					"name": "what",
					"type": "string"
				}
			],
			"name": "Inserted",
			"outputs": [
				{
					"internalType": "bool",
					"name": "",
					"type": "bool"
				}
			],
			"stateMutability": "view",
			"type": "function"
		},
		{
			"inputs": [
				{
					"internalType": "address",
					"name": "what",
					"type": "address"
				}
			],
			"name": "Inserted",
			"outputs": [
				{
					"internalType": "bool",
					"name": "",
					"type": "bool"
				}
			],
			"stateMutability": "view",
			"type": "function"
		},
		{
			"inputs": [
				{
					"internalType": "bytes",
					"name": "what",
					"type": "bytes"
				}
			],
			"name": "Inserted",
			"outputs": [
				{
					"internalType": "bool",
					"name": "",
					"type": "bool"
				}
			],
			"stateMutability": "view",
			"type": "function"
		},
		{
			"inputs": [
				{
					"internalType": "address",
					"name": "_key",
					"type": "address"
				},
				{
					"internalType": "uint256",
					"name": "value",
					"type": "uint256"
				}
			],
			"name": "Register",
			"outputs": [],
			"stateMutability": "nonpayable",
			"type": "function"
		},
		{
			"inputs": [
				{
					"internalType": "uint64",
					"name": "_key",
					"type": "uint64"
				},
				{
					"internalType": "string",
					"name": "value",
					"type": "string"
				}
			],
			"name": "Register",
			"outputs": [],
			"stateMutability": "nonpayable",
			"type": "function"
		},
		{
			"inputs": [
				{
					"internalType": "string",
					"name": "_key",
					"type": "string"
				},
				{
					"internalType": "bytes",
					"name": "value",
					"type": "bytes"
				}
			],
			"name": "Register",
			"outputs": [],
			"stateMutability": "nonpayable",
			"type": "function"
		},
		{
			"inputs": [
				{
					"internalType": "bytes",
					"name": "key",
					"type": "bytes"
				},
				{
					"internalType": "bytes",
					"name": "value",
					"type": "bytes"
				}
			],
			"name": "Register",
			"outputs": [],
			"stateMutability": "nonpayable",
			"type": "function"
		},
		{
			"inputs": [
				{
					"internalType": "string",
					"name": "_key",
					"type": "string"
				},
				{
					"internalType": "address",
					"name": "value",
					"type": "address"
				}
			],
			"name": "Register",
			"outputs": [],
			"stateMutability": "nonpayable",
			"type": "function"
		},
		{
			"inputs": [
				{
					"internalType": "string",
					"name": "_key",
					"type": "string"
				},
				{
					"internalType": "uint64",
					"name": "value",
					"type": "uint64"
				}
			],
			"name": "Register",
			"outputs": [],
			"stateMutability": "nonpayable",
			"type": "function"
		},
		{
			"inputs": [
				{
					"internalType": "uint64",
					"name": "_key",
					"type": "uint64"
				},
				{
					"internalType": "address",
					"name": "value",
					"type": "address"
				}
			],
			"name": "Register",
			"outputs": [],
			"stateMutability": "nonpayable",
			"type": "function"
		},
		{
			"inputs": [
				{
					"internalType": "address",
					"name": "_key",
					"type": "address"
				},
				{
					"internalType": "string",
					"name": "value",
					"type": "string"
				}
			],
			"name": "Register",
			"outputs": [],
			"stateMutability": "nonpayable",
			"type": "function"
		},
		{
			"inputs": [
				{
					"internalType": "uint256",
					"name": "_key",
					"type": "uint256"
				},
				{
					"internalType": "string",
					"name": "value",
					"type": "string"
				}
			],
			"name": "Register",
			"outputs": [],
			"stateMutability": "nonpayable",
			"type": "function"
		},
		{
			"inputs": [
				{
					"internalType": "address",
					"name": "_key",
					"type": "address"
				},
				{
					"internalType": "uint64",
					"name": "value",
					"type": "uint64"
				}
			],
			"name": "Register",
			"outputs": [],
			"stateMutability": "nonpayable",
			"type": "function"
		},
		{
			"inputs": [
				{
					"internalType": "uint64",
					"name": "_key",
					"type": "uint64"
				},
				{
					"internalType": "bytes",
					"name": "value",
					"type": "bytes"
				}
			],
			"name": "Register",
			"outputs": [],
			"stateMutability": "nonpayable",
			"type": "function"
		},
		{
			"inputs": [
				{
					"internalType": "uint64",
					"name": "_key",
					"type": "uint64"
				},
				{
					"internalType": "uint256",
					"name": "value",
					"type": "uint256"
				}
			],
			"name": "Register",
			"outputs": [],
			"stateMutability": "nonpayable",
			"type": "function"
		},
		{
			"inputs": [
				{
					"internalType": "string",
					"name": "_key",
					"type": "string"
				},
				{
					"internalType": "uint256",
					"name": "value",
					"type": "uint256"
				}
			],
			"name": "Register",
			"outputs": [],
			"stateMutability": "nonpayable",
			"type": "function"
		},
		{
			"inputs": [
				{
					"internalType": "address",
					"name": "_key",
					"type": "address"
				},
				{
					"internalType": "address",
					"name": "value",
					"type": "address"
				}
			],
			"name": "Register",
			"outputs": [],
			"stateMutability": "nonpayable",
			"type": "function"
		},
		{
			"inputs": [
				{
					"internalType": "uint256",
					"name": "_key",
					"type": "uint256"
				},
				{
					"internalType": "address",
					"name": "value",
					"type": "address"
				}
			],
			"name": "Register",
			"outputs": [],
			"stateMutability": "nonpayable",
			"type": "function"
		},
		{
			"inputs": [
				{
					"internalType": "uint64",
					"name": "_key",
					"type": "uint64"
				},
				{
					"internalType": "uint64",
					"name": "value",
					"type": "uint64"
				}
			],
			"name": "Register",
			"outputs": [],
			"stateMutability": "nonpayable",
			"type": "function"
		},
		{
			"inputs": [
				{
					"internalType": "address",
					"name": "_key",
					"type": "address"
				},
				{
					"internalType": "bytes",
					"name": "value",
					"type": "bytes"
				}
			],
			"name": "Register",
			"outputs": [],
			"stateMutability": "nonpayable",
			"type": "function"
		},
		{
			"inputs": [
				{
					"internalType": "string",
					"name": "_key",
					"type": "string"
				},
				{
					"internalType": "string",
					"name": "value",
					"type": "string"
				}
			],
			"name": "Register",
			"outputs": [],
			"stateMutability": "nonpayable",
			"type": "function"
		},
		{
			"inputs": [
				{
					"internalType": "uint256",
					"name": "_key",
					"type": "uint256"
				},
				{
					"internalType": "bytes",
					"name": "value",
					"type": "bytes"
				}
			],
			"name": "Register",
			"outputs": [],
			"stateMutability": "nonpayable",
			"type": "function"
		},
		{
			"inputs": [
				{
					"internalType": "uint256",
					"name": "_key",
					"type": "uint256"
				},
				{
					"internalType": "uint64",
					"name": "value",
					"type": "uint64"
				}
			],
			"name": "Register",
			"outputs": [],
			"stateMutability": "nonpayable",
			"type": "function"
		},
		{
			"inputs": [
				{
					"internalType": "uint256",
					"name": "_key",
					"type": "uint256"
				},
				{
					"internalType": "uint256",
					"name": "value",
					"type": "uint256"
				}
			],
			"name": "Register",
			"outputs": [],
			"stateMutability": "nonpayable",
			"type": "function"
		},
		{
			"inputs": [
				{
					"internalType": "bytes",
					"name": "key",
					"type": "bytes"
				}
			],
			"name": "Remove",
			"outputs": [],
			"stateMutability": "nonpayable",
			"type": "function"
		},
		{
			"inputs": [
				{
					"internalType": "uint256",
					"name": "_key",
					"type": "uint256"
				}
			],
			"name": "Remove",
			"outputs": [],
			"stateMutability": "nonpayable",
			"type": "function"
		},
		{
			"inputs": [
				{
					"internalType": "string",
					"name": "_key",
					"type": "string"
				}
			],
			"name": "Remove",
			"outputs": [],
			"stateMutability": "nonpayable",
			"type": "function"
		},
		{
			"inputs": [
				{
					"internalType": "uint64",
					"name": "_key",
					"type": "uint64"
				}
			],
			"name": "Remove",
			"outputs": [],
			"stateMutability": "nonpayable",
			"type": "function"
		},
		{
			"inputs": [
				{
					"internalType": "address",
					"name": "_key",
					"type": "address"
				}
			],
			"name": "Remove",
			"outputs": [],
			"stateMutability": "nonpayable",
			"type": "function"
		},
		{
			"inputs": [
				{
					"internalType": "uint256",
					"name": "what",
					"type": "uint256"
				}
			],
			"name": "Uint256ToBytes",
			"outputs": [
				{
					"internalType": "bytes",
					"name": "_w",
					"type": "bytes"
				}
			],
			"stateMutability": "pure",
			"type": "function"
		},
		{
			"inputs": [
				{
					"internalType": "uint64",
					"name": "what",
					"type": "uint64"
				}
			],
			"name": "Uint64ToBytes",
			"outputs": [
				{
					"internalType": "bytes",
					"name": "_w",
					"type": "bytes"
				}
			],
			"stateMutability": "pure",
			"type": "function"
		},
		{
			"inputs": [
				{
					"internalType": "address",
					"name": "newOwner",
					"type": "address"
				}
			],
			"name": "addOwner",
			"outputs": [],
			"stateMutability": "nonpayable",
			"type": "function"
		},
		{
			"inputs": [
				{
					"internalType": "address",
					"name": "cOwner",
					"type": "address"
				}
			],
			"name": "owner",
			"outputs": [
				{
					"internalType": "bool",
					"name": "",
					"type": "bool"
				}
			],
			"stateMutability": "view",
			"type": "function"
		},
		{
			"inputs": [],
			"name": "owner",
			"outputs": [
				{
					"internalType": "address",
					"name": "",
					"type": "address"
				}
			],
			"stateMutability": "view",
			"type": "function"
		},
		{
			"inputs": [
				{
					"internalType": "address",
					"name": "toRemove",
					"type": "address"
				}
			],
			"name": "renounceOwnership",
			"outputs": [],
			"stateMutability": "nonpayable",
			"type": "function"
		}
	]
}