{
	"solidity/dysnomia/lib/registry.sol": {
		"Registry": {
			"abi": [
				{
					"inputs": [],
					"stateMutability": "nonpayable",
					"type": "constructor"
				},
				{
					"inputs": [
						{
							"internalType": "address",
							"name": "origin",
							"type": "address"
						},
						{
							"internalType": "address",
							"name": "owner",
							"type": "address"
						},
						{
							"internalType": "address",
							"name": "what",
							"type": "address"
						}
					],
					"name": "OwnableInvalidOwner",
					"type": "error"
				},
				{
					"inputs": [
						{
							"internalType": "address",
							"name": "origin",
							"type": "address"
						},
						{
							"internalType": "address",
							"name": "account",
							"type": "address"
						},
						{
							"internalType": "address",
							"name": "what",
							"type": "address"
						}
					],
					"name": "OwnableUnauthorizedAccount",
					"type": "error"
				},
				{
					"anonymous": false,
					"inputs": [
						{
							"indexed": true,
							"internalType": "address",
							"name": "newOwner",
							"type": "address"
						},
						{
							"indexed": true,
							"internalType": "bool",
							"name": "state",
							"type": "bool"
						}
					],
					"name": "OwnershipUpdate",
					"type": "event"
				},
				{
					"inputs": [
						{
							"internalType": "address",
							"name": "what",
							"type": "address"
						}
					],
					"name": "AddressToBytes",
					"outputs": [
						{
							"internalType": "bytes",
							"name": "_w",
							"type": "bytes"
						}
					],
					"stateMutability": "pure",
					"type": "function"
				},
				{
					"inputs": [],
					"name": "Count",
					"outputs": [
						{
							"internalType": "uint256",
							"name": "",
							"type": "uint256"
						}
					],
					"stateMutability": "view",
					"type": "function"
				},
				{
					"inputs": [
						{
							"internalType": "uint256",
							"name": "idx",
							"type": "uint256"
						}
					],
					"name": "Get",
					"outputs": [
						{
							"internalType": "bytes",
							"name": "",
							"type": "bytes"
						}
					],
					"stateMutability": "view",
					"type": "function"
				},
				{
					"inputs": [
						{
							"internalType": "bytes",
							"name": "key",
							"type": "bytes"
						}
					],
					"name": "Get",
					"outputs": [
						{
							"internalType": "bytes",
							"name": "",
							"type": "bytes"
						}
					],
					"stateMutability": "view",
					"type": "function"
				},
				{
					"inputs": [
						{
							"internalType": "uint256",
							"name": "index",
							"type": "uint256"
						}
					],
					"name": "GetHashByIndex",
					"outputs": [
						{
							"internalType": "bytes",
							"name": "",
							"type": "bytes"
						}
					],
					"stateMutability": "view",
					"type": "function"
				},
				{
					"inputs": [
						{
							"internalType": "uint256",
							"name": "what",
							"type": "uint256"
						}
					],
					"name": "Inserted",
					"outputs": [
						{
							"internalType": "bool",
							"name": "",
							"type": "bool"
						}
					],
					"stateMutability": "view",
					"type": "function"
				},
				{
					"inputs": [
						{
							"internalType": "uint64",
							"name": "what",
							"type": "uint64"
						}
					],
					"name": "Inserted",
					"outputs": [
						{
							"internalType": "bool",
							"name": "",
							"type": "bool"
						}
					],
					"stateMutability": "view",
					"type": "function"
				},
				{
					"inputs": [
						{
							"internalType": "string",
							"name": "what",
							"type": "string"
						}
					],
					"name": "Inserted",
					"outputs": [
						{
							"internalType": "bool",
							"name": "",
							"type": "bool"
						}
					],
					"stateMutability": "view",
					"type": "function"
				},
				{
					"inputs": [
						{
							"internalType": "address",
							"name": "what",
							"type": "address"
						}
					],
					"name": "Inserted",
					"outputs": [
						{
							"internalType": "bool",
							"name": "",
							"type": "bool"
						}
					],
					"stateMutability": "view",
					"type": "function"
				},
				{
					"inputs": [
						{
							"internalType": "bytes",
							"name": "what",
							"type": "bytes"
						}
					],
					"name": "Inserted",
					"outputs": [
						{
							"internalType": "bool",
							"name": "",
							"type": "bool"
						}
					],
					"stateMutability": "view",
					"type": "function"
				},
				{
					"inputs": [
						{
							"internalType": "address",
							"name": "_key",
							"type": "address"
						},
						{
							"internalType": "uint256",
							"name": "value",
							"type": "uint256"
						}
					],
					"name": "Register",
					"outputs": [],
					"stateMutability": "nonpayable",
					"type": "function"
				},
				{
					"inputs": [
						{
							"internalType": "uint64",
							"name": "_key",
							"type": "uint64"
						},
						{
							"internalType": "string",
							"name": "value",
							"type": "string"
						}
					],
					"name": "Register",
					"outputs": [],
					"stateMutability": "nonpayable",
					"type": "function"
				},
				{
					"inputs": [
						{
							"internalType": "string",
							"name": "_key",
							"type": "string"
						},
						{
							"internalType": "bytes",
							"name": "value",
							"type": "bytes"
						}
					],
					"name": "Register",
					"outputs": [],
					"stateMutability": "nonpayable",
					"type": "function"
				},
				{
					"inputs": [
						{
							"internalType": "bytes",
							"name": "key",
							"type": "bytes"
						},
						{
							"internalType": "bytes",
							"name": "value",
							"type": "bytes"
						}
					],
					"name": "Register",
					"outputs": [],
					"stateMutability": "nonpayable",
					"type": "function"
				},
				{
					"inputs": [
						{
							"internalType": "string",
							"name": "_key",
							"type": "string"
						},
						{
							"internalType": "address",
							"name": "value",
							"type": "address"
						}
					],
					"name": "Register",
					"outputs": [],
					"stateMutability": "nonpayable",
					"type": "function"
				},
				{
					"inputs": [
						{
							"internalType": "string",
							"name": "_key",
							"type": "string"
						},
						{
							"internalType": "uint64",
							"name": "value",
							"type": "uint64"
						}
					],
					"name": "Register",
					"outputs": [],
					"stateMutability": "nonpayable",
					"type": "function"
				},
				{
					"inputs": [
						{
							"internalType": "uint64",
							"name": "_key",
							"type": "uint64"
						},
						{
							"internalType": "address",
							"name": "value",
							"type": "address"
						}
					],
					"name": "Register",
					"outputs": [],
					"stateMutability": "nonpayable",
					"type": "function"
				},
				{
					"inputs": [
						{
							"internalType": "address",
							"name": "_key",
							"type": "address"
						},
						{
							"internalType": "string",
							"name": "value",
							"type": "string"
						}
					],
					"name": "Register",
					"outputs": [],
					"stateMutability": "nonpayable",
					"type": "function"
				},
				{
					"inputs": [
						{
							"internalType": "uint256",
							"name": "_key",
							"type": "uint256"
						},
						{
							"internalType": "string",
							"name": "value",
							"type": "string"
						}
					],
					"name": "Register",
					"outputs": [],
					"stateMutability": "nonpayable",
					"type": "function"
				},
				{
					"inputs": [
						{
							"internalType": "address",
							"name": "_key",
							"type": "address"
						},
						{
							"internalType": "uint64",
							"name": "value",
							"type": "uint64"
						}
					],
					"name": "Register",
					"outputs": [],
					"stateMutability": "nonpayable",
					"type": "function"
				},
				{
					"inputs": [
						{
							"internalType": "uint64",
							"name": "_key",
							"type": "uint64"
						},
						{
							"internalType": "bytes",
							"name": "value",
							"type": "bytes"
						}
					],
					"name": "Register",
					"outputs": [],
					"stateMutability": "nonpayable",
					"type": "function"
				},
				{
					"inputs": [
						{
							"internalType": "uint64",
							"name": "_key",
							"type": "uint64"
						},
						{
							"internalType": "uint256",
							"name": "value",
							"type": "uint256"
						}
					],
					"name": "Register",
					"outputs": [],
					"stateMutability": "nonpayable",
					"type": "function"
				},
				{
					"inputs": [
						{
							"internalType": "string",
							"name": "_key",
							"type": "string"
						},
						{
							"internalType": "uint256",
							"name": "value",
							"type": "uint256"
						}
					],
					"name": "Register",
					"outputs": [],
					"stateMutability": "nonpayable",
					"type": "function"
				},
				{
					"inputs": [
						{
							"internalType": "address",
							"name": "_key",
							"type": "address"
						},
						{
							"internalType": "address",
							"name": "value",
							"type": "address"
						}
					],
					"name": "Register",
					"outputs": [],
					"stateMutability": "nonpayable",
					"type": "function"
				},
				{
					"inputs": [
						{
							"internalType": "uint256",
							"name": "_key",
							"type": "uint256"
						},
						{
							"internalType": "address",
							"name": "value",
							"type": "address"
						}
					],
					"name": "Register",
					"outputs": [],
					"stateMutability": "nonpayable",
					"type": "function"
				},
				{
					"inputs": [
						{
							"internalType": "uint64",
							"name": "_key",
							"type": "uint64"
						},
						{
							"internalType": "uint64",
							"name": "value",
							"type": "uint64"
						}
					],
					"name": "Register",
					"outputs": [],
					"stateMutability": "nonpayable",
					"type": "function"
				},
				{
					"inputs": [
						{
							"internalType": "address",
							"name": "_key",
							"type": "address"
						},
						{
							"internalType": "bytes",
							"name": "value",
							"type": "bytes"
						}
					],
					"name": "Register",
					"outputs": [],
					"stateMutability": "nonpayable",
					"type": "function"
				},
				{
					"inputs": [
						{
							"internalType": "string",
							"name": "_key",
							"type": "string"
						},
						{
							"internalType": "string",
							"name": "value",
							"type": "string"
						}
					],
					"name": "Register",
					"outputs": [],
					"stateMutability": "nonpayable",
					"type": "function"
				},
				{
					"inputs": [
						{
							"internalType": "uint256",
							"name": "_key",
							"type": "uint256"
						},
						{
							"internalType": "bytes",
							"name": "value",
							"type": "bytes"
						}
					],
					"name": "Register",
					"outputs": [],
					"stateMutability": "nonpayable",
					"type": "function"
				},
				{
					"inputs": [
						{
							"internalType": "uint256",
							"name": "_key",
							"type": "uint256"
						},
						{
							"internalType": "uint64",
							"name": "value",
							"type": "uint64"
						}
					],
					"name": "Register",
					"outputs": [],
					"stateMutability": "nonpayable",
					"type": "function"
				},
				{
					"inputs": [
						{
							"internalType": "uint256",
							"name": "_key",
							"type": "uint256"
						},
						{
							"internalType": "uint256",
							"name": "value",
							"type": "uint256"
						}
					],
					"name": "Register",
					"outputs": [],
					"stateMutability": "nonpayable",
					"type": "function"
				},
				{
					"inputs": [
						{
							"internalType": "bytes",
							"name": "key",
							"type": "bytes"
						}
					],
					"name": "Remove",
					"outputs": [],
					"stateMutability": "nonpayable",
					"type": "function"
				},
				{
					"inputs": [
						{
							"internalType": "uint256",
							"name": "_key",
							"type": "uint256"
						}
					],
					"name": "Remove",
					"outputs": [],
					"stateMutability": "nonpayable",
					"type": "function"
				},
				{
					"inputs": [
						{
							"internalType": "string",
							"name": "_key",
							"type": "string"
						}
					],
					"name": "Remove",
					"outputs": [],
					"stateMutability": "nonpayable",
					"type": "function"
				},
				{
					"inputs": [
						{
							"internalType": "uint64",
							"name": "_key",
							"type": "uint64"
						}
					],
					"name": "Remove",
					"outputs": [],
					"stateMutability": "nonpayable",
					"type": "function"
				},
				{
					"inputs": [
						{
							"internalType": "address",
							"name": "_key",
							"type": "address"
						}
					],
					"name": "Remove",
					"outputs": [],
					"stateMutability": "nonpayable",
					"type": "function"
				},
				{
					"inputs": [
						{
							"internalType": "uint256",
							"name": "what",
							"type": "uint256"
						}
					],
					"name": "Uint256ToBytes",
					"outputs": [
						{
							"internalType": "bytes",
							"name": "_w",
							"type": "bytes"
						}
					],
					"stateMutability": "pure",
					"type": "function"
				},
				{
					"inputs": [
						{
							"internalType": "uint64",
							"name": "what",
							"type": "uint64"
						}
					],
					"name": "Uint64ToBytes",
					"outputs": [
						{
							"internalType": "bytes",
							"name": "_w",
							"type": "bytes"
						}
					],
					"stateMutability": "pure",
					"type": "function"
				},
				{
					"inputs": [
						{
							"internalType": "address",
							"name": "newOwner",
							"type": "address"
						}
					],
					"name": "addOwner",
					"outputs": [],
					"stateMutability": "nonpayable",
					"type": "function"
				},
				{
					"inputs": [
						{
							"internalType": "address",
							"name": "cOwner",
							"type": "address"
						}
					],
					"name": "owner",
					"outputs": [
						{
							"internalType": "bool",
							"name": "",
							"type": "bool"
						}
					],
					"stateMutability": "view",
					"type": "function"
				},
				{
					"inputs": [],
					"name": "owner",
					"outputs": [
						{
							"internalType": "address",
							"name": "",
							"type": "address"
						}
					],
					"stateMutability": "view",
					"type": "function"
				},
				{
					"inputs": [
						{
							"internalType": "address",
							"name": "toRemove",
							"type": "address"
						}
					],
					"name": "renounceOwnership",
					"outputs": [],
					"stateMutability": "nonpayable",
					"type": "function"
				}
			],
			"devdoc": {
				"kind": "dev",
				"methods": {},
				"version": 1
			},
			"evm": {
				"assembly": "    /* \"solidity/dysnomia/lib/registry.sol\":90:5769  contract Registry is MultiOwnable {... */\n  mstore(0x40, 0x80)\n    /* \"solidity/dysnomia/lib/registry.sol\":297:343  constructor() MultiOwnable(msg.sender) {... */\n  callvalue\n  dup1\n  iszero\n  tag_1\n  jumpi\n  revert(0x00, 0x00)\ntag_1:\n  pop\n    /* \"solidity/dysnomia/lib/registry.sol\":324:334  msg.sender */\n  caller\n  dup1\n    /* \"solidity/dysnomia/lib/multiownable.sol\":424:545  if (initialOwner == address(0)) {... */\n  tag_5\n  jumpi\n    /* \"solidity/dysnomia/lib/multiownable.sol\":477:534  OwnableInvalidOwner(tx.origin, address(0), address(this)) */\n  mload(0x40)\n  shl(0xe2, 0x36030219)\n  dup2\n  mstore\n    /* \"solidity/dysnomia/lib/multiownable.sol\":497:506  tx.origin */\n  origin\n    /* \"solidity/dysnomia/lib/multiownable.sol\":477:534  OwnableInvalidOwner(tx.origin, address(0), address(this)) */\n  0x04\n  dup3\n  add\n    /* \"#utility.yul\":216:267   */\n  mstore\n    /* \"solidity/dysnomia/lib/multiownable.sol\":516:517  0 */\n  0x00\n    /* \"#utility.yul\":283:301   */\n  0x24\n  dup3\n  add\n    /* \"#utility.yul\":276:336   */\n  mstore\n    /* \"solidity/dysnomia/lib/multiownable.sol\":528:532  this */\n  address\n    /* \"#utility.yul\":352:370   */\n  0x44\n  dup3\n  add\n    /* \"#utility.yul\":345:405   */\n  mstore\n    /* \"#utility.yul\":189:207   */\n  0x64\n  add\n    /* \"solidity/dysnomia/lib/multiownable.sol\":477:534  OwnableInvalidOwner(tx.origin, address(0), address(this)) */\n  mload(0x40)\n  dup1\n  swap2\n  sub\n  swap1\n  revert\n    /* \"solidity/dysnomia/lib/multiownable.sol\":424:545  if (initialOwner == address(0)) {... */\ntag_5:\n    /* \"solidity/dysnomia/lib/multiownable.sol\":554:590  _changeOwnership(initialOwner, true) */\n  tag_8\n    /* \"solidity/dysnomia/lib/multiownable.sol\":571:583  initialOwner */\n  dup2\n    /* \"solidity/dysnomia/lib/multiownable.sol\":585:589  true */\n  0x01\n    /* \"solidity/dysnomia/lib/multiownable.sol\":554:570  _changeOwnership */\n  tag_9\n    /* \"solidity/dysnomia/lib/multiownable.sol\":554:590  _changeOwnership(initialOwner, true) */\n  jump\t// in\ntag_8:\n    /* \"solidity/dysnomia/lib/multiownable.sol\":380:672  constructor(address initialOwner) {... */\n  pop\n    /* \"solidity/dysnomia/lib/registry.sol\":90:5769  contract Registry is MultiOwnable {... */\n  jump(tag_13)\n    /* \"solidity/dysnomia/lib/multiownable.sol\":1538:1697  function _changeOwnership(address cOwner, bool cState) internal virtual {... */\ntag_9:\n  sub(shl(0xa0, 0x01), 0x01)\n    /* \"solidity/dysnomia/lib/multiownable.sol\":1620:1635  _owners[cOwner] */\n  dup3\n  and\n    /* \"solidity/dysnomia/lib/multiownable.sol\":1620:1627  _owners */\n  0x00\n    /* \"solidity/dysnomia/lib/multiownable.sol\":1620:1635  _owners[cOwner] */\n  dup2\n  dup2\n  mstore\n  0x20\n  dup2\n  swap1\n  mstore\n  0x40\n  dup1\n  dup3\n  keccak256\n    /* \"solidity/dysnomia/lib/multiownable.sol\":1620:1644  _owners[cOwner] = cState */\n  dup1\n  sload\n  not(0xff)\n  and\n  dup6\n  iszero\n  iszero\n  swap1\n  dup2\n  or\n  swap1\n  swap2\n  sstore\n    /* \"solidity/dysnomia/lib/multiownable.sol\":1659:1690  OwnershipUpdate(cOwner, cState) */\n  swap1\n  mload\n    /* \"solidity/dysnomia/lib/multiownable.sol\":1620:1644  _owners[cOwner] = cState */\n  swap1\n  swap3\n    /* \"solidity/dysnomia/lib/multiownable.sol\":1620:1635  _owners[cOwner] */\n  swap2\n    /* \"solidity/dysnomia/lib/multiownable.sol\":1659:1690  OwnershipUpdate(cOwner, cState) */\n  0x6bfa7e860c3e9bf67b810cb88276b19b27c972812bac04793d369b59a1183a83\n  swap2\n  log3\n    /* \"solidity/dysnomia/lib/multiownable.sol\":1538:1697  function _changeOwnership(address cOwner, bool cState) internal virtual {... */\n  pop\n  pop\n  jump\t// out\n    /* \"#utility.yul\":14:411   */\ntag_13:\n    /* \"solidity/dysnomia/lib/registry.sol\":90:5769  contract Registry is MultiOwnable {... */\n  dataSize(sub_0)\n  dup1\n  dataOffset(sub_0)\n  0x00\n  codecopy\n  0x00\n  return\nstop\n\nsub_0: assembly {\n        /* \"solidity/dysnomia/lib/registry.sol\":90:5769  contract Registry is MultiOwnable {... */\n      mstore(0x40, 0x80)\n      callvalue\n      dup1\n      iszero\n      tag_1\n      jumpi\n      revert(0x00, 0x00)\n    tag_1:\n      pop\n      jumpi(tag_2, lt(calldatasize, 0x04))\n      shr(0xe0, calldataload(0x00))\n      dup1\n      0x821cdcb4\n      gt\n      tag_45\n      jumpi\n      dup1\n      0xa9bb1252\n      gt\n      tag_46\n      jumpi\n      dup1\n      0xd56a2f8a\n      gt\n      tag_47\n      jumpi\n      dup1\n      0xd56a2f8a\n      eq\n      tag_37\n      jumpi\n      dup1\n      0xd6192e29\n      eq\n      tag_6\n      jumpi\n      dup1\n      0xdb61df3e\n      eq\n      tag_21\n      jumpi\n      dup1\n      0xe09781f4\n      eq\n      tag_42\n      jumpi\n      dup1\n      0xe23550ce\n      eq\n      tag_43\n      jumpi\n      dup1\n      0xf8d9fb93\n      eq\n      tag_44\n      jumpi\n      revert(0x00, 0x00)\n    tag_47:\n      dup1\n      0xa9bb1252\n      eq\n      tag_34\n      jumpi\n      dup1\n      0xbe7c7ac3\n      eq\n      tag_35\n      jumpi\n      dup1\n      0xbf6a48f4\n      eq\n      tag_19\n      jumpi\n      dup1\n      0xce6ec8ef\n      eq\n      tag_37\n      jumpi\n      dup1\n      0xd55bc7ae\n      eq\n      tag_38\n      jumpi\n      revert(0x00, 0x00)\n    tag_46:\n      dup1\n      0x963de085\n      gt\n      tag_48\n      jumpi\n      dup1\n      0x963de085\n      eq\n      tag_29\n      jumpi\n      dup1\n      0x98ada70a\n      eq\n      tag_30\n      jumpi\n      dup1\n      0x9ce8431e\n      eq\n      tag_31\n      jumpi\n      dup1\n      0xa249bc3d\n      eq\n      tag_32\n      jumpi\n      dup1\n      0xa902c0ee\n      eq\n      tag_33\n      jumpi\n      revert(0x00, 0x00)\n    tag_48:\n      dup1\n      0x821cdcb4\n      eq\n      tag_24\n      jumpi\n      dup1\n      0x834a2d47\n      eq\n      tag_25\n      jumpi\n      dup1\n      0x8da5cb5b\n      eq\n      tag_26\n      jumpi\n      dup1\n      0x93a8333e\n      eq\n      tag_27\n      jumpi\n      dup1\n      0x943cc8f1\n      eq\n      tag_28\n      jumpi\n      revert(0x00, 0x00)\n    tag_45:\n      dup1\n      0x4872755a\n      gt\n      tag_49\n      jumpi\n      dup1\n      0x666e1b39\n      gt\n      tag_50\n      jumpi\n      dup1\n      0x666e1b39\n      eq\n      tag_18\n      jumpi\n      dup1\n      0x6ba0831d\n      eq\n      tag_19\n      jumpi\n      dup1\n      0x7065cb48\n      eq\n      tag_20\n      jumpi\n      dup1\n      0x711029f8\n      eq\n      tag_21\n      jumpi\n      dup1\n      0x71fca080\n      eq\n      tag_22\n      jumpi\n      dup1\n      0x7e7dd325\n      eq\n      tag_4\n      jumpi\n      revert(0x00, 0x00)\n    tag_50:\n      dup1\n      0x4872755a\n      eq\n      tag_13\n      jumpi\n      dup1\n      0x4d84c524\n      eq\n      tag_14\n      jumpi\n      dup1\n      0x4e2ce3a6\n      eq\n      tag_15\n      jumpi\n      dup1\n      0x60cd2685\n      eq\n      tag_16\n      jumpi\n      dup1\n      0x645558f2\n      eq\n      tag_17\n      jumpi\n      revert(0x00, 0x00)\n    tag_49:\n      dup1\n      0x2ac6faa6\n      gt\n      tag_51\n      jumpi\n      dup1\n      0x2ac6faa6\n      eq\n      tag_8\n      jumpi\n      dup1\n      0x2fa0b74a\n      eq\n      tag_9\n      jumpi\n      dup1\n      0x38bf3cfa\n      eq\n      tag_10\n      jumpi\n      dup1\n      0x3e49fb7e\n      eq\n      tag_11\n      jumpi\n      dup1\n      0x476e4aa4\n      eq\n      tag_12\n      jumpi\n      revert(0x00, 0x00)\n    tag_51:\n      dup1\n      0x7dc6ab\n      eq\n      tag_3\n      jumpi\n      dup1\n      0x0cde0a5f\n      eq\n      tag_4\n      jumpi\n      dup1\n      0x11d6bbe6\n      eq\n      tag_5\n      jumpi\n      dup1\n      0x150754ac\n      eq\n      tag_6\n      jumpi\n      dup1\n      0x18825d63\n      eq\n      tag_7\n      jumpi\n    tag_2:\n      revert(0x00, 0x00)\n        /* \"solidity/dysnomia/lib/registry.sol\":4726:4861  function Register(address _key, uint256 value) public onlyOwners {... */\n    tag_3:\n      tag_52\n      tag_53\n      calldatasize\n      0x04\n      tag_54\n      jump\t// in\n    tag_53:\n      tag_55\n      jump\t// in\n    tag_52:\n      stop\n        /* \"solidity/dysnomia/lib/registry.sol\":3079:3209  function Register(uint64 _key, string memory value) public onlyOwners {... */\n    tag_4:\n      tag_52\n      tag_57\n      calldatasize\n      0x04\n      tag_58\n      jump\t// in\n    tag_57:\n      tag_59\n      jump\t// in\n        /* \"solidity/dysnomia/lib/registry.sol\":793:995  function Uint64ToBytes(uint64 what) public pure returns (bytes memory _w) {... */\n    tag_5:\n      tag_60\n      tag_61\n      calldatasize\n      0x04\n      tag_62\n      jump\t// in\n    tag_61:\n      tag_63\n      jump\t// in\n    tag_60:\n      mload(0x40)\n      tag_64\n      swap2\n      swap1\n      tag_65\n      jump\t// in\n    tag_64:\n      mload(0x40)\n      dup1\n      swap2\n      sub\n      swap1\n      return\n        /* \"solidity/dysnomia/lib/registry.sol\":2277:2398  function Register(string memory _key, bytes memory value) public onlyOwners {... */\n    tag_6:\n      tag_52\n      tag_67\n      calldatasize\n      0x04\n      tag_68\n      jump\t// in\n    tag_67:\n      tag_69\n      jump\t// in\n        /* \"solidity/dysnomia/lib/registry.sol\":1331:1445  function Inserted(uint256 what) public view returns (bool) {... */\n    tag_7:\n      tag_70\n      tag_71\n      calldatasize\n      0x04\n      tag_72\n      jump\t// in\n    tag_71:\n      tag_73\n      jump\t// in\n    tag_70:\n      mload(0x40)\n        /* \"#utility.yul\":3646:3660   */\n      swap1\n      iszero\n        /* \"#utility.yul\":3639:3661   */\n      iszero\n        /* \"#utility.yul\":3621:3662   */\n      dup2\n      mstore\n        /* \"#utility.yul\":3609:3611   */\n      0x20\n        /* \"#utility.yul\":3594:3612   */\n      add\n        /* \"solidity/dysnomia/lib/registry.sol\":1331:1445  function Inserted(uint256 what) public view returns (bool) {... */\n      tag_64\n        /* \"#utility.yul\":3481:3668   */\n      jump\n        /* \"solidity/dysnomia/lib/registry.sol\":5008:5376  function Remove(bytes memory key) public onlyOwners {... */\n    tag_8:\n      tag_52\n      tag_77\n      calldatasize\n      0x04\n      tag_78\n      jump\t// in\n    tag_77:\n      tag_79\n      jump\t// in\n        /* \"solidity/dysnomia/lib/registry.sol\":2002:2271  function Register(bytes memory key, bytes memory value) public onlyOwners {... */\n    tag_9:\n      tag_52\n      tag_81\n      calldatasize\n      0x04\n      tag_68\n      jump\t// in\n    tag_81:\n      tag_83\n      jump\t// in\n        /* \"solidity/dysnomia/lib/multiownable.sol\":1168:1289  function renounceOwnership(address toRemove) public virtual onlyOwners {... */\n    tag_10:\n      tag_52\n      tag_85\n      calldatasize\n      0x04\n      tag_86\n      jump\t// in\n    tag_85:\n      tag_87\n      jump\t// in\n        /* \"solidity/dysnomia/lib/registry.sol\":2813:2945  function Register(string memory _key, address value) public onlyOwners {... */\n    tag_11:\n      tag_52\n      tag_89\n      calldatasize\n      0x04\n      tag_90\n      jump\t// in\n    tag_89:\n      tag_91\n      jump\t// in\n        /* \"solidity/dysnomia/lib/registry.sol\":5575:5668  function Remove(uint256 _key) public onlyOwners {... */\n    tag_12:\n      tag_52\n      tag_93\n      calldatasize\n      0x04\n      tag_72\n      jump\t// in\n    tag_93:\n      tag_94\n      jump\t// in\n        /* \"solidity/dysnomia/lib/registry.sol\":2539:2669  function Register(string memory _key, uint64 value) public onlyOwners {... */\n    tag_13:\n      tag_52\n      tag_96\n      calldatasize\n      0x04\n      tag_97\n      jump\t// in\n    tag_96:\n      tag_98\n      jump\t// in\n        /* \"solidity/dysnomia/lib/registry.sol\":1451:1664  function AddressToBytes(address what) public pure returns (bytes memory _w) {... */\n    tag_14:\n      tag_60\n      tag_100\n      calldatasize\n      0x04\n      tag_86\n      jump\t// in\n    tag_100:\n      tag_101\n      jump\t// in\n        /* \"solidity/dysnomia/lib/registry.sol\":3491:3624  function Register(uint64 _key, address value) public onlyOwners {... */\n    tag_15:\n      tag_52\n      tag_104\n      calldatasize\n      0x04\n      tag_105\n      jump\t// in\n    tag_104:\n      tag_106\n      jump\t// in\n        /* \"solidity/dysnomia/lib/registry.sol\":457:561  function Get(uint256 idx) public view returns (bytes memory) {... */\n    tag_16:\n      tag_60\n      tag_108\n      calldatasize\n      0x04\n      tag_72\n      jump\t// in\n    tag_108:\n      tag_109\n      jump\t// in\n        /* \"solidity/dysnomia/lib/registry.sol\":349:451  function Get(bytes memory key) public view returns (bytes memory) {... */\n    tag_17:\n      tag_60\n      tag_112\n      calldatasize\n      0x04\n      tag_78\n      jump\t// in\n    tag_112:\n      tag_113\n      jump\t// in\n        /* \"solidity/dysnomia/lib/multiownable.sol\":847:954  function owner(address cOwner) public view virtual returns (bool) {... */\n    tag_18:\n      tag_70\n      tag_116\n      calldatasize\n      0x04\n      tag_86\n      jump\t// in\n    tag_116:\n      tag_117\n      jump\t// in\n        /* \"solidity/dysnomia/lib/registry.sol\":4449:4581  function Register(address _key, string memory value) public onlyOwners {... */\n    tag_19:\n      tag_52\n      tag_120\n      calldatasize\n      0x04\n      tag_121\n      jump\t// in\n    tag_120:\n      tag_122\n      jump\t// in\n        /* \"solidity/dysnomia/lib/multiownable.sol\":1295:1532  function addOwner(address newOwner) public virtual onlyOwners {... */\n    tag_20:\n      tag_52\n      tag_124\n      calldatasize\n      0x04\n      tag_86\n      jump\t// in\n    tag_124:\n      tag_125\n      jump\t// in\n        /* \"solidity/dysnomia/lib/registry.sol\":3760:3892  function Register(uint256 _key, string memory value) public onlyOwners {... */\n    tag_21:\n      tag_52\n      tag_127\n      calldatasize\n      0x04\n      tag_128\n      jump\t// in\n    tag_127:\n      tag_129\n      jump\t// in\n        /* \"solidity/dysnomia/lib/registry.sol\":4587:4720  function Register(address _key, uint64 value) public onlyOwners {... */\n    tag_22:\n      tag_52\n      tag_131\n      calldatasize\n      0x04\n      tag_132\n      jump\t// in\n    tag_131:\n      tag_133\n      jump\t// in\n        /* \"solidity/dysnomia/lib/registry.sol\":1119:1325  function Uint256ToBytes(uint256 what) public pure returns (bytes memory _w) {... */\n    tag_24:\n      tag_60\n      tag_139\n      calldatasize\n      0x04\n      tag_72\n      jump\t// in\n    tag_139:\n      tag_140\n      jump\t// in\n        /* \"solidity/dysnomia/lib/registry.sol\":5382:5472  function Remove(string memory _key) public onlyOwners {... */\n    tag_25:\n      tag_52\n      tag_143\n      calldatasize\n      0x04\n      tag_78\n      jump\t// in\n    tag_143:\n      tag_145\n      jump\t// in\n        /* \"solidity/dysnomia/lib/multiownable.sol\":747:841  function owner() external view virtual returns (address) {... */\n    tag_26:\n      mload(0x40)\n        /* \"solidity/dysnomia/lib/multiownable.sol\":829:833  this */\n      address\n        /* \"#utility.yul\":7770:7821   */\n      dup2\n      mstore\n        /* \"#utility.yul\":7758:7760   */\n      0x20\n        /* \"#utility.yul\":7743:7761   */\n      add\n        /* \"solidity/dysnomia/lib/multiownable.sol\":747:841  function owner() external view virtual returns (address) {... */\n      tag_64\n        /* \"#utility.yul\":7624:7827   */\n      jump\n        /* \"solidity/dysnomia/lib/registry.sol\":1790:1881  function Count() public view returns(uint256) {... */\n    tag_27:\n        /* \"solidity/dysnomia/lib/registry.sol\":1861:1866  _keys */\n      0x04\n        /* \"solidity/dysnomia/lib/registry.sol\":1861:1873  _keys.length */\n      sload\n        /* \"solidity/dysnomia/lib/registry.sol\":1790:1881  function Count() public view returns(uint256) {... */\n      mload(0x40)\n        /* \"#utility.yul\":7978:8003   */\n      swap1\n      dup2\n      mstore\n        /* \"#utility.yul\":7966:7968   */\n      0x20\n        /* \"#utility.yul\":7951:7969   */\n      add\n        /* \"solidity/dysnomia/lib/registry.sol\":1790:1881  function Count() public view returns(uint256) {... */\n      tag_64\n        /* \"#utility.yul\":7832:8009   */\n      jump\n        /* \"solidity/dysnomia/lib/registry.sol\":3352:3485  function Register(uint64 _key, uint256 value) public onlyOwners {... */\n    tag_28:\n      tag_52\n      tag_155\n      calldatasize\n      0x04\n      tag_156\n      jump\t// in\n    tag_155:\n      tag_157\n      jump\t// in\n        /* \"solidity/dysnomia/lib/registry.sol\":2675:2807  function Register(string memory _key, uint256 value) public onlyOwners {... */\n    tag_29:\n      tag_52\n      tag_159\n      calldatasize\n      0x04\n      tag_160\n      jump\t// in\n    tag_159:\n      tag_161\n      jump\t// in\n        /* \"solidity/dysnomia/lib/registry.sol\":4867:5002  function Register(address _key, address value) public onlyOwners {... */\n    tag_30:\n      tag_52\n      tag_163\n      calldatasize\n      0x04\n      tag_164\n      jump\t// in\n    tag_163:\n      tag_165\n      jump\t// in\n        /* \"solidity/dysnomia/lib/registry.sol\":5478:5569  function Remove(uint64 _key) public onlyOwners {... */\n    tag_31:\n      tag_52\n      tag_167\n      calldatasize\n      0x04\n      tag_62\n      jump\t// in\n    tag_167:\n      tag_168\n      jump\t// in\n        /* \"solidity/dysnomia/lib/registry.sol\":1001:1113  function Inserted(uint64 what) public view returns (bool) {... */\n    tag_32:\n      tag_70\n      tag_170\n      calldatasize\n      0x04\n      tag_62\n      jump\t// in\n    tag_170:\n      tag_171\n      jump\t// in\n        /* \"solidity/dysnomia/lib/registry.sol\":4178:4313  function Register(uint256 _key, address value) public onlyOwners {... */\n    tag_33:\n      tag_52\n      tag_174\n      calldatasize\n      0x04\n      tag_175\n      jump\t// in\n    tag_174:\n      tag_176\n      jump\t// in\n        /* \"solidity/dysnomia/lib/registry.sol\":3215:3346  function Register(uint64 _key, uint64 value) public onlyOwners {... */\n    tag_34:\n      tag_52\n      tag_178\n      calldatasize\n      0x04\n      tag_179\n      jump\t// in\n    tag_178:\n      tag_180\n      jump\t// in\n        /* \"solidity/dysnomia/lib/registry.sol\":5674:5767  function Remove(address _key) public onlyOwners {... */\n    tag_35:\n      tag_52\n      tag_182\n      calldatasize\n      0x04\n      tag_86\n      jump\t// in\n    tag_182:\n      tag_183\n      jump\t// in\n        /* \"solidity/dysnomia/lib/registry.sol\":676:787  function Inserted(string memory what) public view returns (bool) {... */\n    tag_37:\n      tag_70\n      tag_189\n      calldatasize\n      0x04\n      tag_78\n      jump\t// in\n    tag_189:\n      tag_190\n      jump\t// in\n        /* \"solidity/dysnomia/lib/registry.sol\":1670:1784  function Inserted(address what) public view returns (bool) {... */\n    tag_38:\n      tag_70\n      tag_193\n      calldatasize\n      0x04\n      tag_86\n      jump\t// in\n    tag_193:\n      tag_194\n      jump\t// in\n        /* \"solidity/dysnomia/lib/registry.sol\":3898:4031  function Register(uint256 _key, uint64 value) public onlyOwners {... */\n    tag_42:\n      tag_52\n      tag_209\n      calldatasize\n      0x04\n      tag_210\n      jump\t// in\n    tag_209:\n      tag_211\n      jump\t// in\n        /* \"solidity/dysnomia/lib/registry.sol\":4037:4172  function Register(uint256 _key, uint256 value) public onlyOwners {... */\n    tag_43:\n      tag_52\n      tag_213\n      calldatasize\n      0x04\n      tag_214\n      jump\t// in\n    tag_213:\n      tag_215\n      jump\t// in\n        /* \"solidity/dysnomia/lib/registry.sol\":1887:1996  function GetHashByIndex(uint256 index) public view returns(bytes memory) {... */\n    tag_44:\n      tag_60\n      tag_217\n      calldatasize\n      0x04\n      tag_72\n      jump\t// in\n    tag_217:\n      tag_218\n      jump\t// in\n        /* \"solidity/dysnomia/lib/registry.sol\":4726:4861  function Register(address _key, uint256 value) public onlyOwners {... */\n    tag_55:\n        /* \"solidity/dysnomia/lib/multiownable.sol\":710:723  _checkOwner() */\n      tag_221\n        /* \"solidity/dysnomia/lib/multiownable.sol\":710:721  _checkOwner */\n      tag_222\n        /* \"solidity/dysnomia/lib/multiownable.sol\":710:723  _checkOwner() */\n      jump\t// in\n    tag_221:\n        /* \"solidity/dysnomia/lib/registry.sol\":4801:4854  Register(AddressToBytes(_key), Uint256ToBytes(value)) */\n      tag_224\n        /* \"solidity/dysnomia/lib/registry.sol\":4810:4830  AddressToBytes(_key) */\n      tag_225\n        /* \"solidity/dysnomia/lib/registry.sol\":4825:4829  _key */\n      dup4\n        /* \"solidity/dysnomia/lib/registry.sol\":4810:4824  AddressToBytes */\n      tag_101\n        /* \"solidity/dysnomia/lib/registry.sol\":4810:4830  AddressToBytes(_key) */\n      jump\t// in\n    tag_225:\n        /* \"solidity/dysnomia/lib/registry.sol\":4832:4853  Uint256ToBytes(value) */\n      tag_81\n        /* \"solidity/dysnomia/lib/registry.sol\":4847:4852  value */\n      dup4\n        /* \"solidity/dysnomia/lib/registry.sol\":4832:4846  Uint256ToBytes */\n      tag_140\n        /* \"solidity/dysnomia/lib/registry.sol\":4832:4853  Uint256ToBytes(value) */\n      jump\t// in\n        /* \"solidity/dysnomia/lib/registry.sol\":4801:4854  Register(AddressToBytes(_key), Uint256ToBytes(value)) */\n    tag_224:\n        /* \"solidity/dysnomia/lib/registry.sol\":4726:4861  function Register(address _key, uint256 value) public onlyOwners {... */\n      pop\n      pop\n      jump\t// out\n        /* \"solidity/dysnomia/lib/registry.sol\":3079:3209  function Register(uint64 _key, string memory value) public onlyOwners {... */\n    tag_59:\n        /* \"solidity/dysnomia/lib/multiownable.sol\":710:723  _checkOwner() */\n      tag_228\n        /* \"solidity/dysnomia/lib/multiownable.sol\":710:721  _checkOwner */\n      tag_222\n        /* \"solidity/dysnomia/lib/multiownable.sol\":710:723  _checkOwner() */\n      jump\t// in\n    tag_228:\n        /* \"solidity/dysnomia/lib/registry.sol\":3159:3202  Register(Uint64ToBytes(_key), bytes(value)) */\n      tag_224\n        /* \"solidity/dysnomia/lib/registry.sol\":3168:3187  Uint64ToBytes(_key) */\n      tag_231\n        /* \"solidity/dysnomia/lib/registry.sol\":3182:3186  _key */\n      dup4\n        /* \"solidity/dysnomia/lib/registry.sol\":3168:3181  Uint64ToBytes */\n      tag_63\n        /* \"solidity/dysnomia/lib/registry.sol\":3168:3187  Uint64ToBytes(_key) */\n      jump\t// in\n    tag_231:\n        /* \"solidity/dysnomia/lib/registry.sol\":3195:3200  value */\n      dup3\n        /* \"solidity/dysnomia/lib/registry.sol\":3159:3167  Register */\n      tag_83\n        /* \"solidity/dysnomia/lib/registry.sol\":3159:3202  Register(Uint64ToBytes(_key), bytes(value)) */\n      jump\t// in\n        /* \"solidity/dysnomia/lib/registry.sol\":793:995  function Uint64ToBytes(uint64 what) public pure returns (bytes memory _w) {... */\n    tag_63:\n        /* \"solidity/dysnomia/lib/registry.sol\":882:894  new bytes(8) */\n      0x40\n      dup1\n      mload\n        /* \"solidity/dysnomia/lib/registry.sol\":892:893  8 */\n      0x08\n        /* \"solidity/dysnomia/lib/registry.sol\":882:894  new bytes(8) */\n      dup1\n      dup3\n      mstore\n      dup2\n      dup4\n      add\n      swap1\n      swap3\n      mstore\n        /* \"solidity/dysnomia/lib/registry.sol\":850:865  bytes memory _w */\n      0x60\n      swap2\n        /* \"solidity/dysnomia/lib/registry.sol\":882:894  new bytes(8) */\n      0x20\n      dup3\n      add\n      dup2\n      dup1\n      calldatasize\n      dup4\n      calldatacopy\n      add\n      swap1\n      pop\n      pop\n        /* \"solidity/dysnomia/lib/registry.sol\":877:894  _w = new bytes(8) */\n      swap1\n      pop\n        /* \"solidity/dysnomia/lib/registry.sol\":908:914  uint i */\n      0x00\n        /* \"solidity/dysnomia/lib/registry.sol\":904:988  for(uint i = 0; i < 8; i++)... */\n    tag_237:\n        /* \"solidity/dysnomia/lib/registry.sol\":924:925  8 */\n      0x08\n        /* \"solidity/dysnomia/lib/registry.sol\":920:921  i */\n      dup2\n        /* \"solidity/dysnomia/lib/registry.sol\":920:925  i < 8 */\n      lt\n        /* \"solidity/dysnomia/lib/registry.sol\":904:988  for(uint i = 0; i < 8; i++)... */\n      iszero\n      tag_238\n      jumpi\n        /* \"solidity/dysnomia/lib/registry.sol\":975:978  8*i */\n      tag_240\n        /* \"solidity/dysnomia/lib/registry.sol\":977:978  i */\n      dup2\n        /* \"solidity/dysnomia/lib/registry.sol\":975:976  8 */\n      0x08\n        /* \"solidity/dysnomia/lib/registry.sol\":975:978  8*i */\n      tag_241\n      jump\t// in\n    tag_240:\n        /* \"solidity/dysnomia/lib/registry.sol\":966:970  what */\n      dup4\n      sub(shl(0x40, 0x01), 0x01)\n        /* \"solidity/dysnomia/lib/registry.sol\":966:979  what >> (8*i) */\n      and\n      swap1\n      shr\n        /* \"solidity/dysnomia/lib/registry.sol\":983:986  255 */\n      0xff\n        /* \"solidity/dysnomia/lib/registry.sol\":965:986  (what >> (8*i)) & 255 */\n      and\n        /* \"solidity/dysnomia/lib/registry.sol\":952:988  bytes1(uint8((what >> (8*i)) & 255)) */\n      0xf8\n      shl\n        /* \"solidity/dysnomia/lib/registry.sol\":944:946  _w */\n      dup3\n        /* \"solidity/dysnomia/lib/registry.sol\":947:948  i */\n      dup3\n        /* \"solidity/dysnomia/lib/registry.sol\":944:949  _w[i] */\n      dup2\n      mload\n      dup2\n      lt\n      tag_243\n      jumpi\n      tag_243\n      tag_244\n      jump\t// in\n    tag_243:\n      0x20\n      add\n      add\n        /* \"solidity/dysnomia/lib/registry.sol\":944:988  _w[i] = bytes1(uint8((what >> (8*i)) & 255)) */\n      swap1\n      not(sub(shl(0xf8, 0x01), 0x01))\n      and\n      swap1\n      dup2\n      0x00\n      byte\n      swap1\n      mstore8\n      pop\n        /* \"solidity/dysnomia/lib/registry.sol\":927:930  i++ */\n      0x01\n      add\n        /* \"solidity/dysnomia/lib/registry.sol\":904:988  for(uint i = 0; i < 8; i++)... */\n      jump(tag_237)\n    tag_238:\n      pop\n        /* \"solidity/dysnomia/lib/registry.sol\":793:995  function Uint64ToBytes(uint64 what) public pure returns (bytes memory _w) {... */\n      swap2\n      swap1\n      pop\n      jump\t// out\n        /* \"solidity/dysnomia/lib/registry.sol\":2277:2398  function Register(string memory _key, bytes memory value) public onlyOwners {... */\n    tag_69:\n        /* \"solidity/dysnomia/lib/multiownable.sol\":710:723  _checkOwner() */\n      tag_246\n        /* \"solidity/dysnomia/lib/multiownable.sol\":710:721  _checkOwner */\n      tag_222\n        /* \"solidity/dysnomia/lib/multiownable.sol\":710:723  _checkOwner() */\n      jump\t// in\n    tag_246:\n        /* \"solidity/dysnomia/lib/registry.sol\":2363:2391  Register(bytes(_key), value) */\n      tag_224\n        /* \"solidity/dysnomia/lib/registry.sol\":2378:2382  _key */\n      dup3\n        /* \"solidity/dysnomia/lib/registry.sol\":2385:2390  value */\n      dup3\n        /* \"solidity/dysnomia/lib/registry.sol\":2363:2371  Register */\n      tag_83\n        /* \"solidity/dysnomia/lib/registry.sol\":2363:2391  Register(bytes(_key), value) */\n      jump\t// in\n        /* \"solidity/dysnomia/lib/registry.sol\":1331:1445  function Inserted(uint256 what) public view returns (bool) {... */\n    tag_73:\n        /* \"solidity/dysnomia/lib/registry.sol\":1384:1388  bool */\n      0x00\n        /* \"solidity/dysnomia/lib/registry.sol\":1407:1416  _inserted */\n      0x02\n        /* \"solidity/dysnomia/lib/registry.sol\":1417:1437  Uint256ToBytes(what) */\n      tag_250\n        /* \"solidity/dysnomia/lib/registry.sol\":1432:1436  what */\n      dup4\n        /* \"solidity/dysnomia/lib/registry.sol\":1417:1431  Uint256ToBytes */\n      tag_140\n        /* \"solidity/dysnomia/lib/registry.sol\":1417:1437  Uint256ToBytes(what) */\n      jump\t// in\n    tag_250:\n        /* \"solidity/dysnomia/lib/registry.sol\":1407:1438  _inserted[Uint256ToBytes(what)] */\n      mload(0x40)\n      tag_251\n      swap2\n      swap1\n      tag_252\n      jump\t// in\n    tag_251:\n      swap1\n      dup2\n      mstore\n      mload(0x40)\n      swap1\n      dup2\n      swap1\n      sub\n      0x20\n      add\n      swap1\n      keccak256\n      sload\n      0xff\n      and\n      swap3\n        /* \"solidity/dysnomia/lib/registry.sol\":1331:1445  function Inserted(uint256 what) public view returns (bool) {... */\n      swap2\n      pop\n      pop\n      jump\t// out\n        /* \"solidity/dysnomia/lib/registry.sol\":5008:5376  function Remove(bytes memory key) public onlyOwners {... */\n    tag_79:\n        /* \"solidity/dysnomia/lib/multiownable.sol\":710:723  _checkOwner() */\n      tag_254\n        /* \"solidity/dysnomia/lib/multiownable.sol\":710:721  _checkOwner */\n      tag_222\n        /* \"solidity/dysnomia/lib/multiownable.sol\":710:723  _checkOwner() */\n      jump\t// in\n    tag_254:\n        /* \"solidity/dysnomia/lib/registry.sol\":5074:5083  _inserted */\n      0x02\n        /* \"solidity/dysnomia/lib/registry.sol\":5084:5087  key */\n      dup2\n        /* \"solidity/dysnomia/lib/registry.sol\":5074:5088  _inserted[key] */\n      mload(0x40)\n      tag_256\n      swap2\n      swap1\n      tag_252\n      jump\t// in\n    tag_256:\n      swap1\n      dup2\n      mstore\n      mload(0x40)\n      swap1\n      dup2\n      swap1\n      sub\n      0x20\n      add\n      swap1\n      keccak256\n      sload\n      0xff\n      and\n        /* \"solidity/dysnomia/lib/registry.sol\":5070:5097  if(!_inserted[key]) return; */\n      iszero\n        /* \"solidity/dysnomia/lib/registry.sol\":5090:5097  return; */\n      tag_255\n        /* \"solidity/dysnomia/lib/registry.sol\":5070:5097  if(!_inserted[key]) return; */\n      jumpi\n        /* \"solidity/dysnomia/lib/registry.sol\":5113:5122  _inserted */\n      0x02\n        /* \"solidity/dysnomia/lib/registry.sol\":5123:5126  key */\n      dup2\n        /* \"solidity/dysnomia/lib/registry.sol\":5113:5127  _inserted[key] */\n      mload(0x40)\n      tag_258\n      swap2\n      swap1\n      tag_252\n      jump\t// in\n    tag_258:\n      swap1\n      dup2\n      mstore\n      mload(0x40)\n      swap1\n      dup2\n      swap1\n      sub\n      0x20\n      add\n      dup2\n      keccak256\n        /* \"solidity/dysnomia/lib/registry.sol\":5106:5127  delete _inserted[key] */\n      dup1\n      sload\n      not(0xff)\n      and\n      swap1\n      sstore\n        /* \"solidity/dysnomia/lib/registry.sol\":5113:5127  _inserted[key] */\n      0x00\n      swap1\n        /* \"solidity/dysnomia/lib/registry.sol\":5153:5161  _indexOf */\n      0x03\n      swap1\n        /* \"solidity/dysnomia/lib/registry.sol\":5153:5166  _indexOf[key] */\n      tag_259\n      swap1\n        /* \"solidity/dysnomia/lib/registry.sol\":5162:5165  key */\n      dup5\n      swap1\n        /* \"solidity/dysnomia/lib/registry.sol\":5153:5166  _indexOf[key] */\n      tag_252\n      jump\t// in\n    tag_259:\n      swap1\n      dup2\n      mstore\n      0x20\n      add\n      mload(0x40)\n      dup1\n      swap2\n      sub\n      swap1\n      keccak256\n      sload\n        /* \"solidity/dysnomia/lib/registry.sol\":5137:5166  uint256 index = _indexOf[key] */\n      swap1\n      pop\n        /* \"solidity/dysnomia/lib/registry.sol\":5176:5196  bytes memory lastKey */\n      0x00\n        /* \"solidity/dysnomia/lib/registry.sol\":5199:5204  _keys */\n      0x04\n        /* \"solidity/dysnomia/lib/registry.sol\":5220:5221  1 */\n      0x01\n        /* \"solidity/dysnomia/lib/registry.sol\":5205:5210  _keys */\n      0x04\n        /* \"solidity/dysnomia/lib/registry.sol\":5205:5217  _keys.length */\n      dup1\n      sload\n      swap1\n      pop\n        /* \"solidity/dysnomia/lib/registry.sol\":5205:5221  _keys.length - 1 */\n      tag_260\n      swap2\n      swap1\n      tag_261\n      jump\t// in\n    tag_260:\n        /* \"solidity/dysnomia/lib/registry.sol\":5199:5222  _keys[_keys.length - 1] */\n      dup2\n      sload\n      dup2\n      lt\n      tag_263\n      jumpi\n      tag_263\n      tag_244\n      jump\t// in\n    tag_263:\n      swap1\n      0x00\n      mstore\n      keccak256(0x00, 0x20)\n      add\n        /* \"solidity/dysnomia/lib/registry.sol\":5176:5222  bytes memory lastKey = _keys[_keys.length - 1] */\n      dup1\n      sload\n      tag_265\n      swap1\n      tag_266\n      jump\t// in\n    tag_265:\n      dup1\n      0x1f\n      add\n      0x20\n      dup1\n      swap2\n      div\n      mul\n      0x20\n      add\n      mload(0x40)\n      swap1\n      dup2\n      add\n      0x40\n      mstore\n      dup1\n      swap3\n      swap2\n      swap1\n      dup2\n      dup2\n      mstore\n      0x20\n      add\n      dup3\n      dup1\n      sload\n      tag_267\n      swap1\n      tag_266\n      jump\t// in\n    tag_267:\n      dup1\n      iszero\n      tag_268\n      jumpi\n      dup1\n      0x1f\n      lt\n      tag_269\n      jumpi\n      0x0100\n      dup1\n      dup4\n      sload\n      div\n      mul\n      dup4\n      mstore\n      swap2\n      0x20\n      add\n      swap2\n      jump(tag_268)\n    tag_269:\n      dup3\n      add\n      swap2\n      swap1\n      0x00\n      mstore\n      keccak256(0x00, 0x20)\n      swap1\n    tag_270:\n      dup2\n      sload\n      dup2\n      mstore\n      swap1\n      0x01\n      add\n      swap1\n      0x20\n      add\n      dup1\n      dup4\n      gt\n      tag_270\n      jumpi\n      dup3\n      swap1\n      sub\n      0x1f\n      and\n      dup3\n      add\n      swap2\n    tag_268:\n      pop\n      pop\n      pop\n      pop\n      pop\n      swap1\n      pop\n        /* \"solidity/dysnomia/lib/registry.sol\":5252:5257  index */\n      dup2\n        /* \"solidity/dysnomia/lib/registry.sol\":5232:5240  _indexOf */\n      0x03\n        /* \"solidity/dysnomia/lib/registry.sol\":5241:5248  lastKey */\n      dup3\n        /* \"solidity/dysnomia/lib/registry.sol\":5232:5249  _indexOf[lastKey] */\n      mload(0x40)\n      tag_271\n      swap2\n      swap1\n      tag_252\n      jump\t// in\n    tag_271:\n      swap1\n      dup2\n      mstore\n      0x20\n      add\n      mload(0x40)\n      dup1\n      swap2\n      sub\n      swap1\n      keccak256\n        /* \"solidity/dysnomia/lib/registry.sol\":5232:5257  _indexOf[lastKey] = index */\n      dup2\n      swap1\n      sstore\n      pop\n        /* \"solidity/dysnomia/lib/registry.sol\":5274:5282  _indexOf */\n      0x03\n        /* \"solidity/dysnomia/lib/registry.sol\":5283:5286  key */\n      dup4\n        /* \"solidity/dysnomia/lib/registry.sol\":5274:5287  _indexOf[key] */\n      mload(0x40)\n      tag_272\n      swap2\n      swap1\n      tag_252\n      jump\t// in\n    tag_272:\n      swap1\n      dup2\n      mstore\n      0x20\n      add\n      mload(0x40)\n      dup1\n      swap2\n      sub\n      swap1\n      keccak256\n        /* \"solidity/dysnomia/lib/registry.sol\":5267:5287  delete _indexOf[key] */\n      0x00\n      swap1\n      sstore\n        /* \"solidity/dysnomia/lib/registry.sol\":5304:5311  _values */\n      0x01\n        /* \"solidity/dysnomia/lib/registry.sol\":5312:5315  key */\n      dup4\n        /* \"solidity/dysnomia/lib/registry.sol\":5304:5316  _values[key] */\n      mload(0x40)\n      tag_273\n      swap2\n      swap1\n      tag_252\n      jump\t// in\n    tag_273:\n      swap1\n      dup2\n      mstore\n      0x20\n      add\n      mload(0x40)\n      dup1\n      swap2\n      sub\n      swap1\n      keccak256\n      0x00\n        /* \"solidity/dysnomia/lib/registry.sol\":5297:5316  delete _values[key] */\n      tag_274\n      swap2\n      swap1\n      tag_275\n      jump\t// in\n    tag_274:\n        /* \"solidity/dysnomia/lib/registry.sol\":5341:5348  lastKey */\n      dup1\n        /* \"solidity/dysnomia/lib/registry.sol\":5326:5331  _keys */\n      0x04\n        /* \"solidity/dysnomia/lib/registry.sol\":5332:5337  index */\n      dup4\n        /* \"solidity/dysnomia/lib/registry.sol\":5326:5338  _keys[index] */\n      dup2\n      sload\n      dup2\n      lt\n      tag_277\n      jumpi\n      tag_277\n      tag_244\n      jump\t// in\n    tag_277:\n      swap1\n      0x00\n      mstore\n      keccak256(0x00, 0x20)\n      add\n        /* \"solidity/dysnomia/lib/registry.sol\":5326:5348  _keys[index] = lastKey */\n      swap1\n      dup2\n      tag_279\n      swap2\n      swap1\n      tag_280\n      jump\t// in\n    tag_279:\n      pop\n        /* \"solidity/dysnomia/lib/registry.sol\":5358:5363  _keys */\n      0x04\n        /* \"solidity/dysnomia/lib/registry.sol\":5358:5369  _keys.pop() */\n      dup1\n      sload\n      dup1\n      tag_282\n      jumpi\n      tag_282\n      tag_283\n      jump\t// in\n    tag_282:\n      0x01\n      swap1\n      sub\n      dup2\n      dup2\n      swap1\n      0x00\n      mstore\n      keccak256(0x00, 0x20)\n      add\n      0x00\n      tag_285\n      swap2\n      swap1\n      tag_275\n      jump\t// in\n    tag_285:\n      swap1\n      sstore\n        /* \"solidity/dysnomia/lib/registry.sol\":5060:5376  {... */\n      pop\n      pop\n        /* \"solidity/dysnomia/lib/multiownable.sol\":733:734  _ */\n    tag_255:\n        /* \"solidity/dysnomia/lib/registry.sol\":5008:5376  function Remove(bytes memory key) public onlyOwners {... */\n      pop\n      jump\t// out\n        /* \"solidity/dysnomia/lib/registry.sol\":2002:2271  function Register(bytes memory key, bytes memory value) public onlyOwners {... */\n    tag_83:\n        /* \"solidity/dysnomia/lib/multiownable.sol\":710:723  _checkOwner() */\n      tag_287\n        /* \"solidity/dysnomia/lib/multiownable.sol\":710:721  _checkOwner */\n      tag_222\n        /* \"solidity/dysnomia/lib/multiownable.sol\":710:723  _checkOwner() */\n      jump\t// in\n    tag_287:\n        /* \"solidity/dysnomia/lib/registry.sol\":2090:2099  _inserted */\n      0x02\n        /* \"solidity/dysnomia/lib/registry.sol\":2100:2103  key */\n      dup3\n        /* \"solidity/dysnomia/lib/registry.sol\":2090:2104  _inserted[key] */\n      mload(0x40)\n      tag_289\n      swap2\n      swap1\n      tag_252\n      jump\t// in\n    tag_289:\n      swap1\n      dup2\n      mstore\n      mload(0x40)\n      swap1\n      dup2\n      swap1\n      sub\n      0x20\n      add\n      swap1\n      keccak256\n      sload\n      0xff\n      and\n        /* \"solidity/dysnomia/lib/registry.sol\":2086:2265  if(!_inserted[key])... */\n      tag_224\n      jumpi\n        /* \"solidity/dysnomia/lib/registry.sol\":2145:2149  true */\n      0x01\n        /* \"solidity/dysnomia/lib/registry.sol\":2128:2137  _inserted */\n      0x02\n        /* \"solidity/dysnomia/lib/registry.sol\":2138:2141  key */\n      dup4\n        /* \"solidity/dysnomia/lib/registry.sol\":2128:2142  _inserted[key] */\n      mload(0x40)\n      tag_291\n      swap2\n      swap1\n      tag_252\n      jump\t// in\n    tag_291:\n      swap1\n      dup2\n      mstore\n      mload(0x40)\n      swap1\n      dup2\n      swap1\n      sub\n      0x20\n      add\n      dup2\n      keccak256\n        /* \"solidity/dysnomia/lib/registry.sol\":2128:2149  _inserted[key] = true */\n      dup1\n      sload\n      swap3\n      iszero\n      iszero\n      not(0xff)\n      swap1\n      swap4\n      and\n      swap3\n      swap1\n      swap3\n      or\n      swap1\n      swap2\n      sstore\n        /* \"solidity/dysnomia/lib/registry.sol\":2179:2184  _keys */\n      0x04\n        /* \"solidity/dysnomia/lib/registry.sol\":2179:2191  _keys.length */\n      sload\n      swap1\n        /* \"solidity/dysnomia/lib/registry.sol\":2163:2171  _indexOf */\n      0x03\n      swap1\n        /* \"solidity/dysnomia/lib/registry.sol\":2163:2176  _indexOf[key] */\n      tag_292\n      swap1\n        /* \"solidity/dysnomia/lib/registry.sol\":2172:2175  key */\n      dup6\n      swap1\n        /* \"solidity/dysnomia/lib/registry.sol\":2163:2176  _indexOf[key] */\n      tag_252\n      jump\t// in\n    tag_292:\n      swap1\n      dup2\n      mstore\n      0x20\n      add\n      mload(0x40)\n      dup1\n      swap2\n      sub\n      swap1\n      keccak256\n        /* \"solidity/dysnomia/lib/registry.sol\":2163:2191  _indexOf[key] = _keys.length */\n      dup2\n      swap1\n      sstore\n      pop\n        /* \"solidity/dysnomia/lib/registry.sol\":2220:2225  value */\n      dup1\n        /* \"solidity/dysnomia/lib/registry.sol\":2205:2212  _values */\n      0x01\n        /* \"solidity/dysnomia/lib/registry.sol\":2213:2216  key */\n      dup4\n        /* \"solidity/dysnomia/lib/registry.sol\":2205:2217  _values[key] */\n      mload(0x40)\n      tag_293\n      swap2\n      swap1\n      tag_252\n      jump\t// in\n    tag_293:\n      swap1\n      dup2\n      mstore\n      0x20\n      add\n      mload(0x40)\n      dup1\n      swap2\n      sub\n      swap1\n      keccak256\n        /* \"solidity/dysnomia/lib/registry.sol\":2205:2225  _values[key] = value */\n      swap1\n      dup2\n      tag_294\n      swap2\n      swap1\n      tag_280\n      jump\t// in\n    tag_294:\n      pop\n        /* \"solidity/dysnomia/lib/registry.sol\":2239:2244  _keys */\n      0x04\n        /* \"solidity/dysnomia/lib/registry.sol\":2239:2254  _keys.push(key) */\n      dup1\n      sload\n      0x01\n      dup2\n      add\n      dup3\n      sstore\n      0x00\n      swap2\n      swap1\n      swap2\n      mstore\n      0x8a35acfbc15ff81a39ae7d344fd709f28e8600b4aa8c65c6b64bfe7fe36bd19b\n      add\n      tag_296\n        /* \"solidity/dysnomia/lib/registry.sol\":2250:2253  key */\n      dup4\n        /* \"solidity/dysnomia/lib/registry.sol\":2239:2254  _keys.push(key) */\n      dup3\n      tag_280\n      jump\t// in\n    tag_296:\n      pop\n        /* \"solidity/dysnomia/lib/registry.sol\":2002:2271  function Register(bytes memory key, bytes memory value) public onlyOwners {... */\n      pop\n      pop\n      jump\t// out\n        /* \"solidity/dysnomia/lib/multiownable.sol\":1168:1289  function renounceOwnership(address toRemove) public virtual onlyOwners {... */\n    tag_87:\n        /* \"solidity/dysnomia/lib/multiownable.sol\":710:723  _checkOwner() */\n      tag_298\n        /* \"solidity/dysnomia/lib/multiownable.sol\":710:721  _checkOwner */\n      tag_222\n        /* \"solidity/dysnomia/lib/multiownable.sol\":710:723  _checkOwner() */\n      jump\t// in\n    tag_298:\n        /* \"solidity/dysnomia/lib/multiownable.sol\":1249:1282  _changeOwnership(toRemove, false) */\n      tag_255\n        /* \"solidity/dysnomia/lib/multiownable.sol\":1266:1274  toRemove */\n      dup2\n        /* \"solidity/dysnomia/lib/multiownable.sol\":1276:1281  false */\n      0x00\n        /* \"solidity/dysnomia/lib/multiownable.sol\":1249:1265  _changeOwnership */\n      tag_301\n        /* \"solidity/dysnomia/lib/multiownable.sol\":1249:1282  _changeOwnership(toRemove, false) */\n      jump\t// in\n        /* \"solidity/dysnomia/lib/registry.sol\":2813:2945  function Register(string memory _key, address value) public onlyOwners {... */\n    tag_91:\n        /* \"solidity/dysnomia/lib/multiownable.sol\":710:723  _checkOwner() */\n      tag_303\n        /* \"solidity/dysnomia/lib/multiownable.sol\":710:721  _checkOwner */\n      tag_222\n        /* \"solidity/dysnomia/lib/multiownable.sol\":710:723  _checkOwner() */\n      jump\t// in\n    tag_303:\n        /* \"solidity/dysnomia/lib/registry.sol\":2894:2938  Register(bytes(_key), AddressToBytes(value)) */\n      tag_224\n        /* \"solidity/dysnomia/lib/registry.sol\":2909:2913  _key */\n      dup3\n        /* \"solidity/dysnomia/lib/registry.sol\":2916:2937  AddressToBytes(value) */\n      tag_81\n        /* \"solidity/dysnomia/lib/registry.sol\":2931:2936  value */\n      dup4\n        /* \"solidity/dysnomia/lib/registry.sol\":2916:2930  AddressToBytes */\n      tag_101\n        /* \"solidity/dysnomia/lib/registry.sol\":2916:2937  AddressToBytes(value) */\n      jump\t// in\n        /* \"solidity/dysnomia/lib/registry.sol\":5575:5668  function Remove(uint256 _key) public onlyOwners {... */\n    tag_94:\n        /* \"solidity/dysnomia/lib/multiownable.sol\":710:723  _checkOwner() */\n      tag_308\n        /* \"solidity/dysnomia/lib/multiownable.sol\":710:721  _checkOwner */\n      tag_222\n        /* \"solidity/dysnomia/lib/multiownable.sol\":710:723  _checkOwner() */\n      jump\t// in\n    tag_308:\n        /* \"solidity/dysnomia/lib/registry.sol\":5633:5661  Remove(Uint256ToBytes(_key)) */\n      tag_255\n        /* \"solidity/dysnomia/lib/registry.sol\":5640:5660  Uint256ToBytes(_key) */\n      tag_77\n        /* \"solidity/dysnomia/lib/registry.sol\":5655:5659  _key */\n      dup3\n        /* \"solidity/dysnomia/lib/registry.sol\":5640:5654  Uint256ToBytes */\n      tag_140\n        /* \"solidity/dysnomia/lib/registry.sol\":5640:5660  Uint256ToBytes(_key) */\n      jump\t// in\n        /* \"solidity/dysnomia/lib/registry.sol\":2539:2669  function Register(string memory _key, uint64 value) public onlyOwners {... */\n    tag_98:\n        /* \"solidity/dysnomia/lib/multiownable.sol\":710:723  _checkOwner() */\n      tag_313\n        /* \"solidity/dysnomia/lib/multiownable.sol\":710:721  _checkOwner */\n      tag_222\n        /* \"solidity/dysnomia/lib/multiownable.sol\":710:723  _checkOwner() */\n      jump\t// in\n    tag_313:\n        /* \"solidity/dysnomia/lib/registry.sol\":2619:2662  Register(bytes(_key), Uint64ToBytes(value)) */\n      tag_224\n        /* \"solidity/dysnomia/lib/registry.sol\":2634:2638  _key */\n      dup3\n        /* \"solidity/dysnomia/lib/registry.sol\":2641:2661  Uint64ToBytes(value) */\n      tag_81\n        /* \"solidity/dysnomia/lib/registry.sol\":2655:2660  value */\n      dup4\n        /* \"solidity/dysnomia/lib/registry.sol\":2641:2654  Uint64ToBytes */\n      tag_63\n        /* \"solidity/dysnomia/lib/registry.sol\":2641:2661  Uint64ToBytes(value) */\n      jump\t// in\n        /* \"solidity/dysnomia/lib/registry.sol\":1451:1664  function AddressToBytes(address what) public pure returns (bytes memory _w) {... */\n    tag_101:\n        /* \"solidity/dysnomia/lib/registry.sol\":1542:1555  new bytes(20) */\n      0x40\n      dup1\n      mload\n        /* \"solidity/dysnomia/lib/registry.sol\":1552:1554  20 */\n      0x14\n        /* \"solidity/dysnomia/lib/registry.sol\":1542:1555  new bytes(20) */\n      dup1\n      dup3\n      mstore\n      dup2\n      dup4\n      add\n      swap1\n      swap3\n      mstore\n        /* \"solidity/dysnomia/lib/registry.sol\":1510:1525  bytes memory _w */\n      0x60\n      swap2\n        /* \"solidity/dysnomia/lib/registry.sol\":1542:1555  new bytes(20) */\n      0x20\n      dup3\n      add\n      dup2\n      dup1\n      calldatasize\n      dup4\n      calldatacopy\n      add\n      swap1\n      pop\n      pop\n        /* \"solidity/dysnomia/lib/registry.sol\":1537:1555  _w = new bytes(20) */\n      swap1\n      pop\n        /* \"solidity/dysnomia/lib/registry.sol\":1579:1592  bytes20(what) */\n      0x60\n      dup3\n      swap1\n      shl\n        /* \"solidity/dysnomia/lib/registry.sol\":1565:1576  bytes20 _w2 */\n      0x00\n        /* \"solidity/dysnomia/lib/registry.sol\":1602:1657  for(uint i = 0; i < 20; i++)... */\n    tag_321:\n        /* \"solidity/dysnomia/lib/registry.sol\":1622:1624  20 */\n      0x14\n        /* \"solidity/dysnomia/lib/registry.sol\":1618:1619  i */\n      dup2\n        /* \"solidity/dysnomia/lib/registry.sol\":1618:1624  i < 20 */\n      lt\n        /* \"solidity/dysnomia/lib/registry.sol\":1602:1657  for(uint i = 0; i < 20; i++)... */\n      iszero\n      tag_322\n      jumpi\n        /* \"solidity/dysnomia/lib/registry.sol\":1651:1654  _w2 */\n      dup2\n        /* \"solidity/dysnomia/lib/registry.sol\":1655:1656  i */\n      dup2\n        /* \"solidity/dysnomia/lib/registry.sol\":1651:1657  _w2[i] */\n      0x14\n      dup2\n      lt\n      tag_325\n      jumpi\n      tag_325\n      tag_244\n      jump\t// in\n    tag_325:\n      byte\n      0xf8\n      shl\n        /* \"solidity/dysnomia/lib/registry.sol\":1643:1645  _w */\n      dup4\n        /* \"solidity/dysnomia/lib/registry.sol\":1646:1647  i */\n      dup3\n        /* \"solidity/dysnomia/lib/registry.sol\":1643:1648  _w[i] */\n      dup2\n      mload\n      dup2\n      lt\n      tag_327\n      jumpi\n      tag_327\n      tag_244\n      jump\t// in\n    tag_327:\n      0x20\n      add\n      add\n        /* \"solidity/dysnomia/lib/registry.sol\":1643:1657  _w[i] = _w2[i] */\n      swap1\n      not(sub(shl(0xf8, 0x01), 0x01))\n      and\n      swap1\n      dup2\n      0x00\n      byte\n      swap1\n      mstore8\n      pop\n        /* \"solidity/dysnomia/lib/registry.sol\":1626:1629  i++ */\n      0x01\n      add\n        /* \"solidity/dysnomia/lib/registry.sol\":1602:1657  for(uint i = 0; i < 20; i++)... */\n      jump(tag_321)\n    tag_322:\n      pop\n        /* \"solidity/dysnomia/lib/registry.sol\":1527:1664  {... */\n      pop\n        /* \"solidity/dysnomia/lib/registry.sol\":1451:1664  function AddressToBytes(address what) public pure returns (bytes memory _w) {... */\n      swap2\n      swap1\n      pop\n      jump\t// out\n        /* \"solidity/dysnomia/lib/registry.sol\":3491:3624  function Register(uint64 _key, address value) public onlyOwners {... */\n    tag_106:\n        /* \"solidity/dysnomia/lib/multiownable.sol\":710:723  _checkOwner() */\n      tag_329\n        /* \"solidity/dysnomia/lib/multiownable.sol\":710:721  _checkOwner */\n      tag_222\n        /* \"solidity/dysnomia/lib/multiownable.sol\":710:723  _checkOwner() */\n      jump\t// in\n    tag_329:\n        /* \"solidity/dysnomia/lib/registry.sol\":3565:3617  Register(Uint64ToBytes(_key), AddressToBytes(value)) */\n      tag_224\n        /* \"solidity/dysnomia/lib/registry.sol\":3574:3593  Uint64ToBytes(_key) */\n      tag_332\n        /* \"solidity/dysnomia/lib/registry.sol\":3588:3592  _key */\n      dup4\n        /* \"solidity/dysnomia/lib/registry.sol\":3574:3587  Uint64ToBytes */\n      tag_63\n        /* \"solidity/dysnomia/lib/registry.sol\":3574:3593  Uint64ToBytes(_key) */\n      jump\t// in\n    tag_332:\n        /* \"solidity/dysnomia/lib/registry.sol\":3595:3616  AddressToBytes(value) */\n      tag_81\n        /* \"solidity/dysnomia/lib/registry.sol\":3610:3615  value */\n      dup4\n        /* \"solidity/dysnomia/lib/registry.sol\":3595:3609  AddressToBytes */\n      tag_101\n        /* \"solidity/dysnomia/lib/registry.sol\":3595:3616  AddressToBytes(value) */\n      jump\t// in\n        /* \"solidity/dysnomia/lib/registry.sol\":457:561  function Get(uint256 idx) public view returns (bytes memory) {... */\n    tag_109:\n        /* \"solidity/dysnomia/lib/registry.sol\":504:516  bytes memory */\n      0x60\n        /* \"solidity/dysnomia/lib/registry.sol\":535:542  _values */\n      0x01\n        /* \"solidity/dysnomia/lib/registry.sol\":543:548  _keys */\n      0x04\n        /* \"solidity/dysnomia/lib/registry.sol\":549:552  idx */\n      dup4\n        /* \"solidity/dysnomia/lib/registry.sol\":543:553  _keys[idx] */\n      dup2\n      sload\n      dup2\n      lt\n      tag_336\n      jumpi\n      tag_336\n      tag_244\n      jump\t// in\n    tag_336:\n      swap1\n      0x00\n      mstore\n      keccak256(0x00, 0x20)\n      add\n        /* \"solidity/dysnomia/lib/registry.sol\":535:554  _values[_keys[idx]] */\n      mload(0x40)\n      tag_338\n      swap2\n      swap1\n      tag_339\n      jump\t// in\n    tag_338:\n      swap1\n      dup2\n      mstore\n      0x20\n      add\n      mload(0x40)\n      dup1\n      swap2\n      sub\n      swap1\n      keccak256\n        /* \"solidity/dysnomia/lib/registry.sol\":528:554  return _values[_keys[idx]] */\n      dup1\n      sload\n      tag_340\n      swap1\n      tag_266\n      jump\t// in\n    tag_340:\n      dup1\n      0x1f\n      add\n      0x20\n      dup1\n      swap2\n      div\n      mul\n      0x20\n      add\n      mload(0x40)\n      swap1\n      dup2\n      add\n      0x40\n      mstore\n      dup1\n      swap3\n      swap2\n      swap1\n      dup2\n      dup2\n      mstore\n      0x20\n      add\n      dup3\n      dup1\n      sload\n      tag_341\n      swap1\n      tag_266\n      jump\t// in\n    tag_341:\n      dup1\n      iszero\n      tag_342\n      jumpi\n      dup1\n      0x1f\n      lt\n      tag_343\n      jumpi\n      0x0100\n      dup1\n      dup4\n      sload\n      div\n      mul\n      dup4\n      mstore\n      swap2\n      0x20\n      add\n      swap2\n      jump(tag_342)\n    tag_343:\n      dup3\n      add\n      swap2\n      swap1\n      0x00\n      mstore\n      keccak256(0x00, 0x20)\n      swap1\n    tag_344:\n      dup2\n      sload\n      dup2\n      mstore\n      swap1\n      0x01\n      add\n      swap1\n      0x20\n      add\n      dup1\n      dup4\n      gt\n      tag_344\n      jumpi\n      dup3\n      swap1\n      sub\n      0x1f\n      and\n      dup3\n      add\n      swap2\n    tag_342:\n      pop\n      pop\n      pop\n      pop\n      pop\n      swap1\n      pop\n        /* \"solidity/dysnomia/lib/registry.sol\":457:561  function Get(uint256 idx) public view returns (bytes memory) {... */\n      swap2\n      swap1\n      pop\n      jump\t// out\n        /* \"solidity/dysnomia/lib/registry.sol\":349:451  function Get(bytes memory key) public view returns (bytes memory) {... */\n    tag_113:\n        /* \"solidity/dysnomia/lib/registry.sol\":401:413  bytes memory */\n      0x60\n        /* \"solidity/dysnomia/lib/registry.sol\":432:439  _values */\n      0x01\n        /* \"solidity/dysnomia/lib/registry.sol\":440:443  key */\n      dup3\n        /* \"solidity/dysnomia/lib/registry.sol\":432:444  _values[key] */\n      mload(0x40)\n      tag_338\n      swap2\n      swap1\n      tag_252\n      jump\t// in\n        /* \"solidity/dysnomia/lib/multiownable.sol\":847:954  function owner(address cOwner) public view virtual returns (bool) {... */\n    tag_117:\n      sub(shl(0xa0, 0x01), 0x01)\n        /* \"solidity/dysnomia/lib/multiownable.sol\":931:946  _owners[cOwner] */\n      and\n        /* \"solidity/dysnomia/lib/multiownable.sol\":907:911  bool */\n      0x00\n        /* \"solidity/dysnomia/lib/multiownable.sol\":931:946  _owners[cOwner] */\n      swap1\n      dup2\n      mstore\n      0x20\n      dup2\n      swap1\n      mstore\n      0x40\n      swap1\n      keccak256\n      sload\n      0xff\n      and\n      swap1\n        /* \"solidity/dysnomia/lib/multiownable.sol\":847:954  function owner(address cOwner) public view virtual returns (bool) {... */\n      jump\t// out\n        /* \"solidity/dysnomia/lib/registry.sol\":4449:4581  function Register(address _key, string memory value) public onlyOwners {... */\n    tag_122:\n        /* \"solidity/dysnomia/lib/multiownable.sol\":710:723  _checkOwner() */\n      tag_354\n        /* \"solidity/dysnomia/lib/multiownable.sol\":710:721  _checkOwner */\n      tag_222\n        /* \"solidity/dysnomia/lib/multiownable.sol\":710:723  _checkOwner() */\n      jump\t// in\n    tag_354:\n        /* \"solidity/dysnomia/lib/registry.sol\":4530:4574  Register(AddressToBytes(_key), bytes(value)) */\n      tag_224\n        /* \"solidity/dysnomia/lib/registry.sol\":4539:4559  AddressToBytes(_key) */\n      tag_231\n        /* \"solidity/dysnomia/lib/registry.sol\":4554:4558  _key */\n      dup4\n        /* \"solidity/dysnomia/lib/registry.sol\":4539:4553  AddressToBytes */\n      tag_101\n        /* \"solidity/dysnomia/lib/registry.sol\":4539:4559  AddressToBytes(_key) */\n      jump\t// in\n        /* \"solidity/dysnomia/lib/multiownable.sol\":1295:1532  function addOwner(address newOwner) public virtual onlyOwners {... */\n    tag_125:\n        /* \"solidity/dysnomia/lib/multiownable.sol\":710:723  _checkOwner() */\n      tag_359\n        /* \"solidity/dysnomia/lib/multiownable.sol\":710:721  _checkOwner */\n      tag_222\n        /* \"solidity/dysnomia/lib/multiownable.sol\":710:723  _checkOwner() */\n      jump\t// in\n    tag_359:\n      sub(shl(0xa0, 0x01), 0x01)\n        /* \"solidity/dysnomia/lib/multiownable.sol\":1371:1393  newOwner == address(0) */\n      dup2\n      and\n        /* \"solidity/dysnomia/lib/multiownable.sol\":1367:1484  if (newOwner == address(0)) {... */\n      tag_361\n      jumpi\n        /* \"solidity/dysnomia/lib/multiownable.sol\":1436:1445  tx.origin */\n      origin\n        /* \"solidity/dysnomia/lib/multiownable.sol\":1455:1456  0 */\n      0x00\n        /* \"solidity/dysnomia/lib/multiownable.sol\":1467:1471  this */\n      address\n        /* \"solidity/dysnomia/lib/multiownable.sol\":1416:1473  OwnableInvalidOwner(tx.origin, address(0), address(this)) */\n      mload(0x40)\n      shl(0xe2, 0x36030219)\n      dup2\n      mstore\n      0x04\n      add\n      tag_362\n      swap4\n      swap3\n      swap2\n      swap1\n      tag_363\n      jump\t// in\n    tag_362:\n      mload(0x40)\n      dup1\n      swap2\n      sub\n      swap1\n      revert\n        /* \"solidity/dysnomia/lib/multiownable.sol\":1367:1484  if (newOwner == address(0)) {... */\n    tag_361:\n        /* \"solidity/dysnomia/lib/multiownable.sol\":1493:1525  _changeOwnership(newOwner, true) */\n      tag_255\n        /* \"solidity/dysnomia/lib/multiownable.sol\":1510:1518  newOwner */\n      dup2\n        /* \"solidity/dysnomia/lib/multiownable.sol\":1520:1524  true */\n      0x01\n        /* \"solidity/dysnomia/lib/multiownable.sol\":1493:1509  _changeOwnership */\n      tag_301\n        /* \"solidity/dysnomia/lib/multiownable.sol\":1493:1525  _changeOwnership(newOwner, true) */\n      jump\t// in\n        /* \"solidity/dysnomia/lib/registry.sol\":3760:3892  function Register(uint256 _key, string memory value) public onlyOwners {... */\n    tag_129:\n        /* \"solidity/dysnomia/lib/multiownable.sol\":710:723  _checkOwner() */\n      tag_366\n        /* \"solidity/dysnomia/lib/multiownable.sol\":710:721  _checkOwner */\n      tag_222\n        /* \"solidity/dysnomia/lib/multiownable.sol\":710:723  _checkOwner() */\n      jump\t// in\n    tag_366:\n        /* \"solidity/dysnomia/lib/registry.sol\":3841:3885  Register(Uint256ToBytes(_key), bytes(value)) */\n      tag_224\n        /* \"solidity/dysnomia/lib/registry.sol\":3850:3870  Uint256ToBytes(_key) */\n      tag_231\n        /* \"solidity/dysnomia/lib/registry.sol\":3865:3869  _key */\n      dup4\n        /* \"solidity/dysnomia/lib/registry.sol\":3850:3864  Uint256ToBytes */\n      tag_140\n        /* \"solidity/dysnomia/lib/registry.sol\":3850:3870  Uint256ToBytes(_key) */\n      jump\t// in\n        /* \"solidity/dysnomia/lib/registry.sol\":4587:4720  function Register(address _key, uint64 value) public onlyOwners {... */\n    tag_133:\n        /* \"solidity/dysnomia/lib/multiownable.sol\":710:723  _checkOwner() */\n      tag_371\n        /* \"solidity/dysnomia/lib/multiownable.sol\":710:721  _checkOwner */\n      tag_222\n        /* \"solidity/dysnomia/lib/multiownable.sol\":710:723  _checkOwner() */\n      jump\t// in\n    tag_371:\n        /* \"solidity/dysnomia/lib/registry.sol\":4661:4713  Register(AddressToBytes(_key), Uint64ToBytes(value)) */\n      tag_224\n        /* \"solidity/dysnomia/lib/registry.sol\":4670:4690  AddressToBytes(_key) */\n      tag_374\n        /* \"solidity/dysnomia/lib/registry.sol\":4685:4689  _key */\n      dup4\n        /* \"solidity/dysnomia/lib/registry.sol\":4670:4684  AddressToBytes */\n      tag_101\n        /* \"solidity/dysnomia/lib/registry.sol\":4670:4690  AddressToBytes(_key) */\n      jump\t// in\n    tag_374:\n        /* \"solidity/dysnomia/lib/registry.sol\":4692:4712  Uint64ToBytes(value) */\n      tag_81\n        /* \"solidity/dysnomia/lib/registry.sol\":4706:4711  value */\n      dup4\n        /* \"solidity/dysnomia/lib/registry.sol\":4692:4705  Uint64ToBytes */\n      tag_63\n        /* \"solidity/dysnomia/lib/registry.sol\":4692:4712  Uint64ToBytes(value) */\n      jump\t// in\n        /* \"solidity/dysnomia/lib/registry.sol\":1119:1325  function Uint256ToBytes(uint256 what) public pure returns (bytes memory _w) {... */\n    tag_140:\n        /* \"solidity/dysnomia/lib/registry.sol\":1210:1223  new bytes(32) */\n      0x40\n      dup1\n      mload\n        /* \"solidity/dysnomia/lib/registry.sol\":1220:1222  32 */\n      0x20\n        /* \"solidity/dysnomia/lib/registry.sol\":1210:1223  new bytes(32) */\n      dup1\n      dup3\n      mstore\n      dup2\n      dup4\n      add\n      swap1\n      swap3\n      mstore\n        /* \"solidity/dysnomia/lib/registry.sol\":1178:1193  bytes memory _w */\n      0x60\n      swap2\n        /* \"solidity/dysnomia/lib/registry.sol\":1210:1223  new bytes(32) */\n      0x20\n      dup3\n      add\n      dup2\n      dup1\n      calldatasize\n      dup4\n      calldatacopy\n      add\n      swap1\n      pop\n      pop\n        /* \"solidity/dysnomia/lib/registry.sol\":1205:1223  _w = new bytes(32) */\n      swap1\n      pop\n        /* \"solidity/dysnomia/lib/registry.sol\":1237:1243  uint i */\n      0x00\n        /* \"solidity/dysnomia/lib/registry.sol\":1233:1318  for(uint i = 0; i < 32; i++)... */\n    tag_385:\n        /* \"solidity/dysnomia/lib/registry.sol\":1253:1255  32 */\n      0x20\n        /* \"solidity/dysnomia/lib/registry.sol\":1249:1250  i */\n      dup2\n        /* \"solidity/dysnomia/lib/registry.sol\":1249:1255  i < 32 */\n      lt\n        /* \"solidity/dysnomia/lib/registry.sol\":1233:1318  for(uint i = 0; i < 32; i++)... */\n      iszero\n      tag_238\n      jumpi\n        /* \"solidity/dysnomia/lib/registry.sol\":1305:1308  8*i */\n      tag_388\n        /* \"solidity/dysnomia/lib/registry.sol\":1307:1308  i */\n      dup2\n        /* \"solidity/dysnomia/lib/registry.sol\":1305:1306  8 */\n      0x08\n        /* \"solidity/dysnomia/lib/registry.sol\":1305:1308  8*i */\n      tag_241\n      jump\t// in\n    tag_388:\n        /* \"solidity/dysnomia/lib/registry.sol\":1296:1300  what */\n      dup4\n        /* \"solidity/dysnomia/lib/registry.sol\":1296:1309  what >> (8*i) */\n      swap1\n      shr\n        /* \"solidity/dysnomia/lib/registry.sol\":1313:1316  255 */\n      0xff\n        /* \"solidity/dysnomia/lib/registry.sol\":1295:1316  (what >> (8*i)) & 255 */\n      and\n        /* \"solidity/dysnomia/lib/registry.sol\":1282:1318  bytes1(uint8((what >> (8*i)) & 255)) */\n      0xf8\n      shl\n        /* \"solidity/dysnomia/lib/registry.sol\":1274:1276  _w */\n      dup3\n        /* \"solidity/dysnomia/lib/registry.sol\":1277:1278  i */\n      dup3\n        /* \"solidity/dysnomia/lib/registry.sol\":1274:1279  _w[i] */\n      dup2\n      mload\n      dup2\n      lt\n      tag_390\n      jumpi\n      tag_390\n      tag_244\n      jump\t// in\n    tag_390:\n      0x20\n      add\n      add\n        /* \"solidity/dysnomia/lib/registry.sol\":1274:1318  _w[i] = bytes1(uint8((what >> (8*i)) & 255)) */\n      swap1\n      not(sub(shl(0xf8, 0x01), 0x01))\n      and\n      swap1\n      dup2\n      0x00\n      byte\n      swap1\n      mstore8\n      pop\n        /* \"solidity/dysnomia/lib/registry.sol\":1257:1260  i++ */\n      0x01\n      add\n        /* \"solidity/dysnomia/lib/registry.sol\":1233:1318  for(uint i = 0; i < 32; i++)... */\n      jump(tag_385)\n        /* \"solidity/dysnomia/lib/registry.sol\":5382:5472  function Remove(string memory _key) public onlyOwners {... */\n    tag_145:\n        /* \"solidity/dysnomia/lib/multiownable.sol\":710:723  _checkOwner() */\n      tag_392\n        /* \"solidity/dysnomia/lib/multiownable.sol\":710:721  _checkOwner */\n      tag_222\n        /* \"solidity/dysnomia/lib/multiownable.sol\":710:723  _checkOwner() */\n      jump\t// in\n    tag_392:\n        /* \"solidity/dysnomia/lib/registry.sol\":5446:5465  Remove(bytes(_key)) */\n      tag_255\n        /* \"solidity/dysnomia/lib/registry.sol\":5459:5463  _key */\n      dup2\n        /* \"solidity/dysnomia/lib/registry.sol\":5446:5452  Remove */\n      tag_79\n        /* \"solidity/dysnomia/lib/registry.sol\":5446:5465  Remove(bytes(_key)) */\n      jump\t// in\n        /* \"solidity/dysnomia/lib/registry.sol\":3352:3485  function Register(uint64 _key, uint256 value) public onlyOwners {... */\n    tag_157:\n        /* \"solidity/dysnomia/lib/multiownable.sol\":710:723  _checkOwner() */\n      tag_398\n        /* \"solidity/dysnomia/lib/multiownable.sol\":710:721  _checkOwner */\n      tag_222\n        /* \"solidity/dysnomia/lib/multiownable.sol\":710:723  _checkOwner() */\n      jump\t// in\n    tag_398:\n        /* \"solidity/dysnomia/lib/registry.sol\":3426:3478  Register(Uint64ToBytes(_key), Uint256ToBytes(value)) */\n      tag_224\n        /* \"solidity/dysnomia/lib/registry.sol\":3435:3454  Uint64ToBytes(_key) */\n      tag_225\n        /* \"solidity/dysnomia/lib/registry.sol\":3449:3453  _key */\n      dup4\n        /* \"solidity/dysnomia/lib/registry.sol\":3435:3448  Uint64ToBytes */\n      tag_63\n        /* \"solidity/dysnomia/lib/registry.sol\":3435:3454  Uint64ToBytes(_key) */\n      jump\t// in\n        /* \"solidity/dysnomia/lib/registry.sol\":2675:2807  function Register(string memory _key, uint256 value) public onlyOwners {... */\n    tag_161:\n        /* \"solidity/dysnomia/lib/multiownable.sol\":710:723  _checkOwner() */\n      tag_404\n        /* \"solidity/dysnomia/lib/multiownable.sol\":710:721  _checkOwner */\n      tag_222\n        /* \"solidity/dysnomia/lib/multiownable.sol\":710:723  _checkOwner() */\n      jump\t// in\n    tag_404:\n        /* \"solidity/dysnomia/lib/registry.sol\":2756:2800  Register(bytes(_key), Uint256ToBytes(value)) */\n      tag_224\n        /* \"solidity/dysnomia/lib/registry.sol\":2771:2775  _key */\n      dup3\n        /* \"solidity/dysnomia/lib/registry.sol\":2778:2799  Uint256ToBytes(value) */\n      tag_81\n        /* \"solidity/dysnomia/lib/registry.sol\":2793:2798  value */\n      dup4\n        /* \"solidity/dysnomia/lib/registry.sol\":2778:2792  Uint256ToBytes */\n      tag_140\n        /* \"solidity/dysnomia/lib/registry.sol\":2778:2799  Uint256ToBytes(value) */\n      jump\t// in\n        /* \"solidity/dysnomia/lib/registry.sol\":4867:5002  function Register(address _key, address value) public onlyOwners {... */\n    tag_165:\n        /* \"solidity/dysnomia/lib/multiownable.sol\":710:723  _checkOwner() */\n      tag_409\n        /* \"solidity/dysnomia/lib/multiownable.sol\":710:721  _checkOwner */\n      tag_222\n        /* \"solidity/dysnomia/lib/multiownable.sol\":710:723  _checkOwner() */\n      jump\t// in\n    tag_409:\n        /* \"solidity/dysnomia/lib/registry.sol\":4942:4995  Register(AddressToBytes(_key), AddressToBytes(value)) */\n      tag_224\n        /* \"solidity/dysnomia/lib/registry.sol\":4951:4971  AddressToBytes(_key) */\n      tag_332\n        /* \"solidity/dysnomia/lib/registry.sol\":4966:4970  _key */\n      dup4\n        /* \"solidity/dysnomia/lib/registry.sol\":4951:4965  AddressToBytes */\n      tag_101\n        /* \"solidity/dysnomia/lib/registry.sol\":4951:4971  AddressToBytes(_key) */\n      jump\t// in\n        /* \"solidity/dysnomia/lib/registry.sol\":5478:5569  function Remove(uint64 _key) public onlyOwners {... */\n    tag_168:\n        /* \"solidity/dysnomia/lib/multiownable.sol\":710:723  _checkOwner() */\n      tag_415\n        /* \"solidity/dysnomia/lib/multiownable.sol\":710:721  _checkOwner */\n      tag_222\n        /* \"solidity/dysnomia/lib/multiownable.sol\":710:723  _checkOwner() */\n      jump\t// in\n    tag_415:\n        /* \"solidity/dysnomia/lib/registry.sol\":5535:5562  Remove(Uint64ToBytes(_key)) */\n      tag_255\n        /* \"solidity/dysnomia/lib/registry.sol\":5542:5561  Uint64ToBytes(_key) */\n      tag_77\n        /* \"solidity/dysnomia/lib/registry.sol\":5556:5560  _key */\n      dup3\n        /* \"solidity/dysnomia/lib/registry.sol\":5542:5555  Uint64ToBytes */\n      tag_63\n        /* \"solidity/dysnomia/lib/registry.sol\":5542:5561  Uint64ToBytes(_key) */\n      jump\t// in\n        /* \"solidity/dysnomia/lib/registry.sol\":1001:1113  function Inserted(uint64 what) public view returns (bool) {... */\n    tag_171:\n        /* \"solidity/dysnomia/lib/registry.sol\":1053:1057  bool */\n      0x00\n        /* \"solidity/dysnomia/lib/registry.sol\":1076:1085  _inserted */\n      0x02\n        /* \"solidity/dysnomia/lib/registry.sol\":1086:1105  Uint64ToBytes(what) */\n      tag_250\n        /* \"solidity/dysnomia/lib/registry.sol\":1100:1104  what */\n      dup4\n        /* \"solidity/dysnomia/lib/registry.sol\":1086:1099  Uint64ToBytes */\n      tag_63\n        /* \"solidity/dysnomia/lib/registry.sol\":1086:1105  Uint64ToBytes(what) */\n      jump\t// in\n        /* \"solidity/dysnomia/lib/registry.sol\":4178:4313  function Register(uint256 _key, address value) public onlyOwners {... */\n    tag_176:\n        /* \"solidity/dysnomia/lib/multiownable.sol\":710:723  _checkOwner() */\n      tag_423\n        /* \"solidity/dysnomia/lib/multiownable.sol\":710:721  _checkOwner */\n      tag_222\n        /* \"solidity/dysnomia/lib/multiownable.sol\":710:723  _checkOwner() */\n      jump\t// in\n    tag_423:\n        /* \"solidity/dysnomia/lib/registry.sol\":4253:4306  Register(Uint256ToBytes(_key), AddressToBytes(value)) */\n      tag_224\n        /* \"solidity/dysnomia/lib/registry.sol\":4262:4282  Uint256ToBytes(_key) */\n      tag_332\n        /* \"solidity/dysnomia/lib/registry.sol\":4277:4281  _key */\n      dup4\n        /* \"solidity/dysnomia/lib/registry.sol\":4262:4276  Uint256ToBytes */\n      tag_140\n        /* \"solidity/dysnomia/lib/registry.sol\":4262:4282  Uint256ToBytes(_key) */\n      jump\t// in\n        /* \"solidity/dysnomia/lib/registry.sol\":3215:3346  function Register(uint64 _key, uint64 value) public onlyOwners {... */\n    tag_180:\n        /* \"solidity/dysnomia/lib/multiownable.sol\":710:723  _checkOwner() */\n      tag_429\n        /* \"solidity/dysnomia/lib/multiownable.sol\":710:721  _checkOwner */\n      tag_222\n        /* \"solidity/dysnomia/lib/multiownable.sol\":710:723  _checkOwner() */\n      jump\t// in\n    tag_429:\n        /* \"solidity/dysnomia/lib/registry.sol\":3288:3339  Register(Uint64ToBytes(_key), Uint64ToBytes(value)) */\n      tag_224\n        /* \"solidity/dysnomia/lib/registry.sol\":3297:3316  Uint64ToBytes(_key) */\n      tag_374\n        /* \"solidity/dysnomia/lib/registry.sol\":3311:3315  _key */\n      dup4\n        /* \"solidity/dysnomia/lib/registry.sol\":3297:3310  Uint64ToBytes */\n      tag_63\n        /* \"solidity/dysnomia/lib/registry.sol\":3297:3316  Uint64ToBytes(_key) */\n      jump\t// in\n        /* \"solidity/dysnomia/lib/registry.sol\":5674:5767  function Remove(address _key) public onlyOwners {... */\n    tag_183:\n        /* \"solidity/dysnomia/lib/multiownable.sol\":710:723  _checkOwner() */\n      tag_435\n        /* \"solidity/dysnomia/lib/multiownable.sol\":710:721  _checkOwner */\n      tag_222\n        /* \"solidity/dysnomia/lib/multiownable.sol\":710:723  _checkOwner() */\n      jump\t// in\n    tag_435:\n        /* \"solidity/dysnomia/lib/registry.sol\":5732:5760  Remove(AddressToBytes(_key)) */\n      tag_255\n        /* \"solidity/dysnomia/lib/registry.sol\":5739:5759  AddressToBytes(_key) */\n      tag_77\n        /* \"solidity/dysnomia/lib/registry.sol\":5754:5758  _key */\n      dup3\n        /* \"solidity/dysnomia/lib/registry.sol\":5739:5753  AddressToBytes */\n      tag_101\n        /* \"solidity/dysnomia/lib/registry.sol\":5739:5759  AddressToBytes(_key) */\n      jump\t// in\n        /* \"solidity/dysnomia/lib/registry.sol\":676:787  function Inserted(string memory what) public view returns (bool) {... */\n    tag_190:\n        /* \"solidity/dysnomia/lib/registry.sol\":735:739  bool */\n      0x00\n        /* \"solidity/dysnomia/lib/registry.sol\":758:767  _inserted */\n      0x02\n        /* \"solidity/dysnomia/lib/registry.sol\":774:778  what */\n      dup3\n        /* \"solidity/dysnomia/lib/registry.sol\":758:780  _inserted[bytes(what)] */\n      mload(0x40)\n      tag_251\n      swap2\n      swap1\n      tag_252\n      jump\t// in\n        /* \"solidity/dysnomia/lib/registry.sol\":1670:1784  function Inserted(address what) public view returns (bool) {... */\n    tag_194:\n        /* \"solidity/dysnomia/lib/registry.sol\":1723:1727  bool */\n      0x00\n        /* \"solidity/dysnomia/lib/registry.sol\":1746:1755  _inserted */\n      0x02\n        /* \"solidity/dysnomia/lib/registry.sol\":1756:1776  AddressToBytes(what) */\n      tag_250\n        /* \"solidity/dysnomia/lib/registry.sol\":1771:1775  what */\n      dup4\n        /* \"solidity/dysnomia/lib/registry.sol\":1756:1770  AddressToBytes */\n      tag_101\n        /* \"solidity/dysnomia/lib/registry.sol\":1756:1776  AddressToBytes(what) */\n      jump\t// in\n        /* \"solidity/dysnomia/lib/registry.sol\":3898:4031  function Register(uint256 _key, uint64 value) public onlyOwners {... */\n    tag_211:\n        /* \"solidity/dysnomia/lib/multiownable.sol\":710:723  _checkOwner() */\n      tag_461\n        /* \"solidity/dysnomia/lib/multiownable.sol\":710:721  _checkOwner */\n      tag_222\n        /* \"solidity/dysnomia/lib/multiownable.sol\":710:723  _checkOwner() */\n      jump\t// in\n    tag_461:\n        /* \"solidity/dysnomia/lib/registry.sol\":3972:4024  Register(Uint256ToBytes(_key), Uint64ToBytes(value)) */\n      tag_224\n        /* \"solidity/dysnomia/lib/registry.sol\":3981:4001  Uint256ToBytes(_key) */\n      tag_374\n        /* \"solidity/dysnomia/lib/registry.sol\":3996:4000  _key */\n      dup4\n        /* \"solidity/dysnomia/lib/registry.sol\":3981:3995  Uint256ToBytes */\n      tag_140\n        /* \"solidity/dysnomia/lib/registry.sol\":3981:4001  Uint256ToBytes(_key) */\n      jump\t// in\n        /* \"solidity/dysnomia/lib/registry.sol\":4037:4172  function Register(uint256 _key, uint256 value) public onlyOwners {... */\n    tag_215:\n        /* \"solidity/dysnomia/lib/multiownable.sol\":710:723  _checkOwner() */\n      tag_467\n        /* \"solidity/dysnomia/lib/multiownable.sol\":710:721  _checkOwner */\n      tag_222\n        /* \"solidity/dysnomia/lib/multiownable.sol\":710:723  _checkOwner() */\n      jump\t// in\n    tag_467:\n        /* \"solidity/dysnomia/lib/registry.sol\":4112:4165  Register(Uint256ToBytes(_key), Uint256ToBytes(value)) */\n      tag_224\n        /* \"solidity/dysnomia/lib/registry.sol\":4121:4141  Uint256ToBytes(_key) */\n      tag_225\n        /* \"solidity/dysnomia/lib/registry.sol\":4136:4140  _key */\n      dup4\n        /* \"solidity/dysnomia/lib/registry.sol\":4121:4135  Uint256ToBytes */\n      tag_140\n        /* \"solidity/dysnomia/lib/registry.sol\":4121:4141  Uint256ToBytes(_key) */\n      jump\t// in\n        /* \"solidity/dysnomia/lib/registry.sol\":1887:1996  function GetHashByIndex(uint256 index) public view returns(bytes memory) {... */\n    tag_218:\n        /* \"solidity/dysnomia/lib/registry.sol\":1946:1958  bytes memory */\n      0x60\n        /* \"solidity/dysnomia/lib/registry.sol\":1977:1982  _keys */\n      0x04\n        /* \"solidity/dysnomia/lib/registry.sol\":1983:1988  index */\n      dup3\n        /* \"solidity/dysnomia/lib/registry.sol\":1977:1989  _keys[index] */\n      dup2\n      sload\n      dup2\n      lt\n      tag_474\n      jumpi\n      tag_474\n      tag_244\n      jump\t// in\n    tag_474:\n      swap1\n      0x00\n      mstore\n      keccak256(0x00, 0x20)\n      add\n        /* \"solidity/dysnomia/lib/registry.sol\":1970:1989  return _keys[index] */\n      dup1\n      sload\n      tag_340\n      swap1\n      tag_266\n      jump\t// in\n        /* \"solidity/dysnomia/lib/multiownable.sol\":960:1162  function _checkOwner() internal view virtual {... */\n    tag_222:\n        /* \"solidity/dysnomia/lib/multiownable.sol\":1020:1037  owner(msg.sender) */\n      tag_482\n        /* \"solidity/dysnomia/lib/multiownable.sol\":1026:1036  msg.sender */\n      caller\n        /* \"solidity/dysnomia/lib/multiownable.sol\":1020:1025  owner */\n      tag_117\n        /* \"solidity/dysnomia/lib/multiownable.sol\":1020:1037  owner(msg.sender) */\n      jump\t// in\n    tag_482:\n        /* \"solidity/dysnomia/lib/multiownable.sol\":1019:1037  !owner(msg.sender) */\n      iszero\n        /* \"solidity/dysnomia/lib/multiownable.sol\":1019:1058  !owner(msg.sender) && !owner(tx.origin) */\n      dup1\n      iszero\n      tag_483\n      jumpi\n      pop\n        /* \"solidity/dysnomia/lib/multiownable.sol\":1042:1058  owner(tx.origin) */\n      tag_484\n        /* \"solidity/dysnomia/lib/multiownable.sol\":1048:1057  tx.origin */\n      origin\n        /* \"solidity/dysnomia/lib/multiownable.sol\":1042:1047  owner */\n      tag_117\n        /* \"solidity/dysnomia/lib/multiownable.sol\":1042:1058  owner(tx.origin) */\n      jump\t// in\n    tag_484:\n        /* \"solidity/dysnomia/lib/multiownable.sol\":1041:1058  !owner(tx.origin) */\n      iszero\n        /* \"solidity/dysnomia/lib/multiownable.sol\":1019:1058  !owner(msg.sender) && !owner(tx.origin) */\n    tag_483:\n        /* \"solidity/dysnomia/lib/multiownable.sol\":1015:1156  if (!owner(msg.sender) && !owner(tx.origin)) {... */\n      iszero\n      tag_485\n      jumpi\n        /* \"solidity/dysnomia/lib/multiownable.sol\":1108:1117  tx.origin */\n      origin\n        /* \"solidity/dysnomia/lib/multiownable.sol\":1119:1129  msg.sender */\n      caller\n        /* \"solidity/dysnomia/lib/multiownable.sol\":1139:1143  this */\n      address\n        /* \"solidity/dysnomia/lib/multiownable.sol\":1081:1145  OwnableUnauthorizedAccount(tx.origin, msg.sender, address(this)) */\n      mload(0x40)\n      shl(0xe0, 0x0be6bab5)\n      dup2\n      mstore\n      0x04\n      add\n      tag_362\n      swap4\n      swap3\n      swap2\n      swap1\n      tag_363\n      jump\t// in\n        /* \"solidity/dysnomia/lib/multiownable.sol\":1015:1156  if (!owner(msg.sender) && !owner(tx.origin)) {... */\n    tag_485:\n        /* \"solidity/dysnomia/lib/multiownable.sol\":960:1162  function _checkOwner() internal view virtual {... */\n      jump\t// out\n        /* \"solidity/dysnomia/lib/multiownable.sol\":1538:1697  function _changeOwnership(address cOwner, bool cState) internal virtual {... */\n    tag_301:\n      sub(shl(0xa0, 0x01), 0x01)\n        /* \"solidity/dysnomia/lib/multiownable.sol\":1620:1635  _owners[cOwner] */\n      dup3\n      and\n        /* \"solidity/dysnomia/lib/multiownable.sol\":1620:1627  _owners */\n      0x00\n        /* \"solidity/dysnomia/lib/multiownable.sol\":1620:1635  _owners[cOwner] */\n      dup2\n      dup2\n      mstore\n      0x20\n      dup2\n      swap1\n      mstore\n      0x40\n      dup1\n      dup3\n      keccak256\n        /* \"solidity/dysnomia/lib/multiownable.sol\":1620:1644  _owners[cOwner] = cState */\n      dup1\n      sload\n      not(0xff)\n      and\n      dup6\n      iszero\n      iszero\n      swap1\n      dup2\n      or\n      swap1\n      swap2\n      sstore\n        /* \"solidity/dysnomia/lib/multiownable.sol\":1659:1690  OwnershipUpdate(cOwner, cState) */\n      swap1\n      mload\n        /* \"solidity/dysnomia/lib/multiownable.sol\":1620:1644  _owners[cOwner] = cState */\n      swap1\n      swap3\n        /* \"solidity/dysnomia/lib/multiownable.sol\":1620:1635  _owners[cOwner] */\n      swap2\n        /* \"solidity/dysnomia/lib/multiownable.sol\":1659:1690  OwnershipUpdate(cOwner, cState) */\n      0x6bfa7e860c3e9bf67b810cb88276b19b27c972812bac04793d369b59a1183a83\n      swap2\n      log3\n        /* \"solidity/dysnomia/lib/multiownable.sol\":1538:1697  function _changeOwnership(address cOwner, bool cState) internal virtual {... */\n      pop\n      pop\n      jump\t// out\n    tag_275:\n      pop\n      dup1\n      sload\n      tag_488\n      swap1\n      tag_266\n      jump\t// in\n    tag_488:\n      0x00\n      dup3\n      sstore\n      dup1\n      0x1f\n      lt\n      tag_490\n      jumpi\n      pop\n      pop\n      jump\t// out\n    tag_490:\n      0x1f\n      add\n      0x20\n      swap1\n      div\n      swap1\n      0x00\n      mstore\n      keccak256(0x00, 0x20)\n      swap1\n      dup2\n      add\n      swap1\n      tag_255\n      swap2\n      swap1\n    tag_493:\n      dup1\n      dup3\n      gt\n      iszero\n      tag_494\n      jumpi\n      0x00\n      dup2\n      sstore\n      0x01\n      add\n      jump(tag_493)\n    tag_494:\n      pop\n      swap1\n      jump\t// out\n        /* \"#utility.yul\":14:187   */\n    tag_495:\n        /* \"#utility.yul\":82:102   */\n      dup1\n      calldataload\n      sub(shl(0xa0, 0x01), 0x01)\n        /* \"#utility.yul\":131:162   */\n      dup2\n      and\n        /* \"#utility.yul\":121:163   */\n      dup2\n      eq\n        /* \"#utility.yul\":111:181   */\n      tag_504\n      jumpi\n        /* \"#utility.yul\":177:178   */\n      0x00\n        /* \"#utility.yul\":174:175   */\n      0x00\n        /* \"#utility.yul\":167:179   */\n      revert\n        /* \"#utility.yul\":111:181   */\n    tag_504:\n        /* \"#utility.yul\":14:187   */\n      swap2\n      swap1\n      pop\n      jump\t// out\n        /* \"#utility.yul\":192:492   */\n    tag_54:\n        /* \"#utility.yul\":260:266   */\n      0x00\n        /* \"#utility.yul\":268:274   */\n      0x00\n        /* \"#utility.yul\":321:323   */\n      0x40\n        /* \"#utility.yul\":309:318   */\n      dup4\n        /* \"#utility.yul\":300:307   */\n      dup6\n        /* \"#utility.yul\":296:319   */\n      sub\n        /* \"#utility.yul\":292:324   */\n      slt\n        /* \"#utility.yul\":289:341   */\n      iszero\n      tag_506\n      jumpi\n        /* \"#utility.yul\":337:338   */\n      0x00\n        /* \"#utility.yul\":334:335   */\n      0x00\n        /* \"#utility.yul\":327:339   */\n      revert\n        /* \"#utility.yul\":289:341   */\n    tag_506:\n        /* \"#utility.yul\":360:389   */\n      tag_507\n        /* \"#utility.yul\":379:388   */\n      dup4\n        /* \"#utility.yul\":360:389   */\n      tag_495\n      jump\t// in\n    tag_507:\n        /* \"#utility.yul\":350:389   */\n      swap5\n        /* \"#utility.yul\":458:460   */\n      0x20\n        /* \"#utility.yul\":443:461   */\n      swap4\n      swap1\n      swap4\n      add\n        /* \"#utility.yul\":430:462   */\n      calldataload\n      swap4\n      pop\n      pop\n      pop\n        /* \"#utility.yul\":192:492   */\n      jump\t// out\n        /* \"#utility.yul\":497:668   */\n    tag_496:\n        /* \"#utility.yul\":564:584   */\n      dup1\n      calldataload\n      sub(shl(0x40, 0x01), 0x01)\n        /* \"#utility.yul\":613:643   */\n      dup2\n      and\n        /* \"#utility.yul\":603:644   */\n      dup2\n      eq\n        /* \"#utility.yul\":593:662   */\n      tag_504\n      jumpi\n        /* \"#utility.yul\":658:659   */\n      0x00\n        /* \"#utility.yul\":655:656   */\n      0x00\n        /* \"#utility.yul\":648:660   */\n      revert\n        /* \"#utility.yul\":673:800   */\n    tag_235:\n        /* \"#utility.yul\":734:744   */\n      0x4e487b71\n        /* \"#utility.yul\":729:732   */\n      0xe0\n        /* \"#utility.yul\":725:745   */\n      shl\n        /* \"#utility.yul\":722:723   */\n      0x00\n        /* \"#utility.yul\":715:746   */\n      mstore\n        /* \"#utility.yul\":765:769   */\n      0x41\n        /* \"#utility.yul\":762:763   */\n      0x04\n        /* \"#utility.yul\":755:770   */\n      mstore\n        /* \"#utility.yul\":789:793   */\n      0x24\n        /* \"#utility.yul\":786:787   */\n      0x00\n        /* \"#utility.yul\":779:794   */\n      revert\n        /* \"#utility.yul\":805:1694   */\n    tag_497:\n        /* \"#utility.yul\":848:853   */\n      0x00\n        /* \"#utility.yul\":901:904   */\n      dup3\n        /* \"#utility.yul\":894:898   */\n      0x1f\n        /* \"#utility.yul\":886:892   */\n      dup4\n        /* \"#utility.yul\":882:899   */\n      add\n        /* \"#utility.yul\":878:905   */\n      slt\n        /* \"#utility.yul\":868:923   */\n      tag_512\n      jumpi\n        /* \"#utility.yul\":919:920   */\n      0x00\n        /* \"#utility.yul\":916:917   */\n      0x00\n        /* \"#utility.yul\":909:921   */\n      revert\n        /* \"#utility.yul\":868:923   */\n    tag_512:\n        /* \"#utility.yul\":959:965   */\n      dup2\n        /* \"#utility.yul\":946:966   */\n      calldataload\n        /* \"#utility.yul\":998:1002   */\n      0x20\n        /* \"#utility.yul\":990:996   */\n      dup4\n        /* \"#utility.yul\":986:1003   */\n      add\n        /* \"#utility.yul\":1027:1028   */\n      0x00\n        /* \"#utility.yul\":1049:1050   */\n      0x00\n      sub(shl(0x40, 0x01), 0x01)\n        /* \"#utility.yul\":1065:1071   */\n      dup5\n        /* \"#utility.yul\":1062:1092   */\n      gt\n        /* \"#utility.yul\":1059:1115   */\n      iszero\n      tag_514\n      jumpi\n        /* \"#utility.yul\":1095:1113   */\n      tag_514\n      tag_235\n      jump\t// in\n    tag_514:\n      pop\n        /* \"#utility.yul\":1250:1252   */\n      0x40\n        /* \"#utility.yul\":1244:1253   */\n      mload\n      not(0x1f)\n        /* \"#utility.yul\":1163:1165   */\n      0x1f\n        /* \"#utility.yul\":1142:1157   */\n      dup6\n      add\n        /* \"#utility.yul\":1138:1167   */\n      dup2\n      and\n        /* \"#utility.yul\":1308:1310   */\n      0x3f\n        /* \"#utility.yul\":1296:1311   */\n      add\n        /* \"#utility.yul\":1292:1321   */\n      and\n        /* \"#utility.yul\":1280:1322   */\n      dup2\n      add\n        /* \"#utility.yul\":1373:1395   */\n      dup2\n      dup2\n      lt\n      sub(shl(0x40, 0x01), 0x01)\n        /* \"#utility.yul\":1337:1371   */\n      dup3\n      gt\n        /* \"#utility.yul\":1334:1396   */\n      or\n        /* \"#utility.yul\":1331:1419   */\n      iszero\n      tag_516\n      jumpi\n        /* \"#utility.yul\":1399:1417   */\n      tag_516\n      tag_235\n      jump\t// in\n    tag_516:\n        /* \"#utility.yul\":1435:1437   */\n      0x40\n        /* \"#utility.yul\":1428:1450   */\n      mstore\n        /* \"#utility.yul\":1485:1507   */\n      dup4\n      dup2\n      mstore\n        /* \"#utility.yul\":1470:1476   */\n      swap1\n      pop\n      dup1\n        /* \"#utility.yul\":1522:1538   */\n      dup3\n      dup5\n      add\n        /* \"#utility.yul\":1519:1544   */\n      dup8\n      lt\n        /* \"#utility.yul\":1516:1561   */\n      iszero\n      tag_517\n      jumpi\n        /* \"#utility.yul\":1557:1558   */\n      0x00\n        /* \"#utility.yul\":1554:1555   */\n      0x00\n        /* \"#utility.yul\":1547:1559   */\n      revert\n        /* \"#utility.yul\":1516:1561   */\n    tag_517:\n        /* \"#utility.yul\":1607:1613   */\n      dup4\n        /* \"#utility.yul\":1602:1605   */\n      dup4\n        /* \"#utility.yul\":1595:1599   */\n      0x20\n        /* \"#utility.yul\":1587:1593   */\n      dup4\n        /* \"#utility.yul\":1583:1600   */\n      add\n        /* \"#utility.yul\":1570:1614   */\n      calldatacopy\n        /* \"#utility.yul\":1662:1663   */\n      0x00\n        /* \"#utility.yul\":1655:1659   */\n      0x20\n        /* \"#utility.yul\":1646:1652   */\n      dup6\n        /* \"#utility.yul\":1638:1644   */\n      dup4\n        /* \"#utility.yul\":1634:1653   */\n      add\n        /* \"#utility.yul\":1630:1660   */\n      add\n        /* \"#utility.yul\":1623:1664   */\n      mstore\n        /* \"#utility.yul\":1682:1688   */\n      dup1\n        /* \"#utility.yul\":1673:1688   */\n      swap5\n      pop\n      pop\n      pop\n      pop\n      pop\n        /* \"#utility.yul\":805:1694   */\n      swap3\n      swap2\n      pop\n      pop\n      jump\t// out\n        /* \"#utility.yul\":1699:2093   */\n    tag_58:\n        /* \"#utility.yul\":1776:1782   */\n      0x00\n        /* \"#utility.yul\":1784:1790   */\n      0x00\n        /* \"#utility.yul\":1837:1839   */\n      0x40\n        /* \"#utility.yul\":1825:1834   */\n      dup4\n        /* \"#utility.yul\":1816:1823   */\n      dup6\n        /* \"#utility.yul\":1812:1835   */\n      sub\n        /* \"#utility.yul\":1808:1840   */\n      slt\n        /* \"#utility.yul\":1805:1857   */\n      iszero\n      tag_519\n      jumpi\n        /* \"#utility.yul\":1853:1854   */\n      0x00\n        /* \"#utility.yul\":1850:1851   */\n      0x00\n        /* \"#utility.yul\":1843:1855   */\n      revert\n        /* \"#utility.yul\":1805:1857   */\n    tag_519:\n        /* \"#utility.yul\":1876:1904   */\n      tag_520\n        /* \"#utility.yul\":1894:1903   */\n      dup4\n        /* \"#utility.yul\":1876:1904   */\n      tag_496\n      jump\t// in\n    tag_520:\n        /* \"#utility.yul\":1866:1904   */\n      swap2\n      pop\n        /* \"#utility.yul\":1955:1957   */\n      0x20\n        /* \"#utility.yul\":1944:1953   */\n      dup4\n        /* \"#utility.yul\":1940:1958   */\n      add\n        /* \"#utility.yul\":1927:1959   */\n      calldataload\n      sub(shl(0x40, 0x01), 0x01)\n        /* \"#utility.yul\":1974:1980   */\n      dup2\n        /* \"#utility.yul\":1971:2001   */\n      gt\n        /* \"#utility.yul\":1968:2018   */\n      iszero\n      tag_521\n      jumpi\n        /* \"#utility.yul\":2014:2015   */\n      0x00\n        /* \"#utility.yul\":2011:2012   */\n      0x00\n        /* \"#utility.yul\":2004:2016   */\n      revert\n        /* \"#utility.yul\":1968:2018   */\n    tag_521:\n        /* \"#utility.yul\":2037:2087   */\n      tag_522\n        /* \"#utility.yul\":2079:2086   */\n      dup6\n        /* \"#utility.yul\":2070:2076   */\n      dup3\n        /* \"#utility.yul\":2059:2068   */\n      dup7\n        /* \"#utility.yul\":2055:2077   */\n      add\n        /* \"#utility.yul\":2037:2087   */\n      tag_497\n      jump\t// in\n    tag_522:\n        /* \"#utility.yul\":2027:2087   */\n      swap2\n      pop\n      pop\n        /* \"#utility.yul\":1699:2093   */\n      swap3\n      pop\n      swap3\n      swap1\n      pop\n      jump\t// out\n        /* \"#utility.yul\":2098:2282   */\n    tag_62:\n        /* \"#utility.yul\":2156:2162   */\n      0x00\n        /* \"#utility.yul\":2209:2211   */\n      0x20\n        /* \"#utility.yul\":2197:2206   */\n      dup3\n        /* \"#utility.yul\":2188:2195   */\n      dup5\n        /* \"#utility.yul\":2184:2207   */\n      sub\n        /* \"#utility.yul\":2180:2212   */\n      slt\n        /* \"#utility.yul\":2177:2229   */\n      iszero\n      tag_524\n      jumpi\n        /* \"#utility.yul\":2225:2226   */\n      0x00\n        /* \"#utility.yul\":2222:2223   */\n      0x00\n        /* \"#utility.yul\":2215:2227   */\n      revert\n        /* \"#utility.yul\":2177:2229   */\n    tag_524:\n        /* \"#utility.yul\":2248:2276   */\n      tag_525\n        /* \"#utility.yul\":2266:2275   */\n      dup3\n        /* \"#utility.yul\":2248:2276   */\n      tag_496\n      jump\t// in\n    tag_525:\n        /* \"#utility.yul\":2238:2276   */\n      swap4\n        /* \"#utility.yul\":2098:2282   */\n      swap3\n      pop\n      pop\n      pop\n      jump\t// out\n        /* \"#utility.yul\":2287:2703   */\n    tag_65:\n        /* \"#utility.yul\":2434:2436   */\n      0x20\n        /* \"#utility.yul\":2423:2432   */\n      dup2\n        /* \"#utility.yul\":2416:2437   */\n      mstore\n        /* \"#utility.yul\":2397:2401   */\n      0x00\n        /* \"#utility.yul\":2466:2472   */\n      dup3\n        /* \"#utility.yul\":2460:2473   */\n      mload\n        /* \"#utility.yul\":2509:2515   */\n      dup1\n        /* \"#utility.yul\":2504:2506   */\n      0x20\n        /* \"#utility.yul\":2493:2502   */\n      dup5\n        /* \"#utility.yul\":2489:2507   */\n      add\n        /* \"#utility.yul\":2482:2516   */\n      mstore\n        /* \"#utility.yul\":2568:2574   */\n      dup1\n        /* \"#utility.yul\":2563:2565   */\n      0x20\n        /* \"#utility.yul\":2555:2561   */\n      dup6\n        /* \"#utility.yul\":2551:2566   */\n      add\n        /* \"#utility.yul\":2546:2548   */\n      0x40\n        /* \"#utility.yul\":2535:2544   */\n      dup6\n        /* \"#utility.yul\":2531:2549   */\n      add\n        /* \"#utility.yul\":2525:2575   */\n      mcopy\n        /* \"#utility.yul\":2624:2625   */\n      0x00\n        /* \"#utility.yul\":2619:2621   */\n      0x40\n        /* \"#utility.yul\":2610:2616   */\n      dup3\n        /* \"#utility.yul\":2599:2608   */\n      dup6\n        /* \"#utility.yul\":2595:2617   */\n      add\n        /* \"#utility.yul\":2591:2622   */\n      add\n        /* \"#utility.yul\":2584:2626   */\n      mstore\n        /* \"#utility.yul\":2694:2696   */\n      0x40\n        /* \"#utility.yul\":2687:2689   */\n      0x1f\n        /* \"#utility.yul\":2683:2690   */\n      not\n        /* \"#utility.yul\":2678:2680   */\n      0x1f\n        /* \"#utility.yul\":2670:2676   */\n      dup4\n        /* \"#utility.yul\":2666:2681   */\n      add\n        /* \"#utility.yul\":2662:2691   */\n      and\n        /* \"#utility.yul\":2651:2660   */\n      dup5\n        /* \"#utility.yul\":2647:2692   */\n      add\n        /* \"#utility.yul\":2643:2697   */\n      add\n        /* \"#utility.yul\":2635:2697   */\n      swap2\n      pop\n      pop\n        /* \"#utility.yul\":2287:2703   */\n      swap3\n      swap2\n      pop\n      pop\n      jump\t// out\n        /* \"#utility.yul\":2708:3245   */\n    tag_68:\n        /* \"#utility.yul\":2795:2801   */\n      0x00\n        /* \"#utility.yul\":2803:2809   */\n      0x00\n        /* \"#utility.yul\":2856:2858   */\n      0x40\n        /* \"#utility.yul\":2844:2853   */\n      dup4\n        /* \"#utility.yul\":2835:2842   */\n      dup6\n        /* \"#utility.yul\":2831:2854   */\n      sub\n        /* \"#utility.yul\":2827:2859   */\n      slt\n        /* \"#utility.yul\":2824:2876   */\n      iszero\n      tag_528\n      jumpi\n        /* \"#utility.yul\":2872:2873   */\n      0x00\n        /* \"#utility.yul\":2869:2870   */\n      0x00\n        /* \"#utility.yul\":2862:2874   */\n      revert\n        /* \"#utility.yul\":2824:2876   */\n    tag_528:\n        /* \"#utility.yul\":2912:2921   */\n      dup3\n        /* \"#utility.yul\":2899:2922   */\n      calldataload\n      sub(shl(0x40, 0x01), 0x01)\n        /* \"#utility.yul\":2937:2943   */\n      dup2\n        /* \"#utility.yul\":2934:2964   */\n      gt\n        /* \"#utility.yul\":2931:2981   */\n      iszero\n      tag_529\n      jumpi\n        /* \"#utility.yul\":2977:2978   */\n      0x00\n        /* \"#utility.yul\":2974:2975   */\n      0x00\n        /* \"#utility.yul\":2967:2979   */\n      revert\n        /* \"#utility.yul\":2931:2981   */\n    tag_529:\n        /* \"#utility.yul\":3000:3050   */\n      tag_530\n        /* \"#utility.yul\":3042:3049   */\n      dup6\n        /* \"#utility.yul\":3033:3039   */\n      dup3\n        /* \"#utility.yul\":3022:3031   */\n      dup7\n        /* \"#utility.yul\":3018:3040   */\n      add\n        /* \"#utility.yul\":3000:3050   */\n      tag_497\n      jump\t// in\n    tag_530:\n        /* \"#utility.yul\":2990:3050   */\n      swap3\n      pop\n      pop\n        /* \"#utility.yul\":3103:3105   */\n      0x20\n        /* \"#utility.yul\":3092:3101   */\n      dup4\n        /* \"#utility.yul\":3088:3106   */\n      add\n        /* \"#utility.yul\":3075:3107   */\n      calldataload\n      sub(shl(0x40, 0x01), 0x01)\n        /* \"#utility.yul\":3122:3130   */\n      dup2\n        /* \"#utility.yul\":3119:3151   */\n      gt\n        /* \"#utility.yul\":3116:3168   */\n      iszero\n      tag_521\n      jumpi\n        /* \"#utility.yul\":3164:3165   */\n      0x00\n        /* \"#utility.yul\":3161:3162   */\n      0x00\n        /* \"#utility.yul\":3154:3166   */\n      revert\n        /* \"#utility.yul\":3250:3476   */\n    tag_72:\n        /* \"#utility.yul\":3309:3315   */\n      0x00\n        /* \"#utility.yul\":3362:3364   */\n      0x20\n        /* \"#utility.yul\":3350:3359   */\n      dup3\n        /* \"#utility.yul\":3341:3348   */\n      dup5\n        /* \"#utility.yul\":3337:3360   */\n      sub\n        /* \"#utility.yul\":3333:3365   */\n      slt\n        /* \"#utility.yul\":3330:3382   */\n      iszero\n      tag_534\n      jumpi\n        /* \"#utility.yul\":3378:3379   */\n      0x00\n        /* \"#utility.yul\":3375:3376   */\n      0x00\n        /* \"#utility.yul\":3368:3380   */\n      revert\n        /* \"#utility.yul\":3330:3382   */\n    tag_534:\n      pop\n        /* \"#utility.yul\":3423:3446   */\n      calldataload\n      swap2\n        /* \"#utility.yul\":3250:3476   */\n      swap1\n      pop\n      jump\t// out\n        /* \"#utility.yul\":3673:3994   */\n    tag_78:\n        /* \"#utility.yul\":3741:3747   */\n      0x00\n        /* \"#utility.yul\":3794:3796   */\n      0x20\n        /* \"#utility.yul\":3782:3791   */\n      dup3\n        /* \"#utility.yul\":3773:3780   */\n      dup5\n        /* \"#utility.yul\":3769:3792   */\n      sub\n        /* \"#utility.yul\":3765:3797   */\n      slt\n        /* \"#utility.yul\":3762:3814   */\n      iszero\n      tag_537\n      jumpi\n        /* \"#utility.yul\":3810:3811   */\n      0x00\n        /* \"#utility.yul\":3807:3808   */\n      0x00\n        /* \"#utility.yul\":3800:3812   */\n      revert\n        /* \"#utility.yul\":3762:3814   */\n    tag_537:\n        /* \"#utility.yul\":3850:3859   */\n      dup2\n        /* \"#utility.yul\":3837:3860   */\n      calldataload\n      sub(shl(0x40, 0x01), 0x01)\n        /* \"#utility.yul\":3875:3881   */\n      dup2\n        /* \"#utility.yul\":3872:3902   */\n      gt\n        /* \"#utility.yul\":3869:3919   */\n      iszero\n      tag_538\n      jumpi\n        /* \"#utility.yul\":3915:3916   */\n      0x00\n        /* \"#utility.yul\":3912:3913   */\n      0x00\n        /* \"#utility.yul\":3905:3917   */\n      revert\n        /* \"#utility.yul\":3869:3919   */\n    tag_538:\n        /* \"#utility.yul\":3938:3988   */\n      tag_539\n        /* \"#utility.yul\":3980:3987   */\n      dup5\n        /* \"#utility.yul\":3971:3977   */\n      dup3\n        /* \"#utility.yul\":3960:3969   */\n      dup6\n        /* \"#utility.yul\":3956:3978   */\n      add\n        /* \"#utility.yul\":3938:3988   */\n      tag_497\n      jump\t// in\n    tag_539:\n        /* \"#utility.yul\":3928:3988   */\n      swap5\n        /* \"#utility.yul\":3673:3994   */\n      swap4\n      pop\n      pop\n      pop\n      pop\n      jump\t// out\n        /* \"#utility.yul\":4540:4726   */\n    tag_86:\n        /* \"#utility.yul\":4599:4605   */\n      0x00\n        /* \"#utility.yul\":4652:4654   */\n      0x20\n        /* \"#utility.yul\":4640:4649   */\n      dup3\n        /* \"#utility.yul\":4631:4638   */\n      dup5\n        /* \"#utility.yul\":4627:4650   */\n      sub\n        /* \"#utility.yul\":4623:4655   */\n      slt\n        /* \"#utility.yul\":4620:4672   */\n      iszero\n      tag_547\n      jumpi\n        /* \"#utility.yul\":4668:4669   */\n      0x00\n        /* \"#utility.yul\":4665:4666   */\n      0x00\n        /* \"#utility.yul\":4658:4670   */\n      revert\n        /* \"#utility.yul\":4620:4672   */\n    tag_547:\n        /* \"#utility.yul\":4691:4720   */\n      tag_525\n        /* \"#utility.yul\":4710:4719   */\n      dup3\n        /* \"#utility.yul\":4691:4720   */\n      tag_495\n      jump\t// in\n        /* \"#utility.yul\":4731:5127   */\n    tag_90:\n        /* \"#utility.yul\":4809:4815   */\n      0x00\n        /* \"#utility.yul\":4817:4823   */\n      0x00\n        /* \"#utility.yul\":4870:4872   */\n      0x40\n        /* \"#utility.yul\":4858:4867   */\n      dup4\n        /* \"#utility.yul\":4849:4856   */\n      dup6\n        /* \"#utility.yul\":4845:4868   */\n      sub\n        /* \"#utility.yul\":4841:4873   */\n      slt\n        /* \"#utility.yul\":4838:4890   */\n      iszero\n      tag_550\n      jumpi\n        /* \"#utility.yul\":4886:4887   */\n      0x00\n        /* \"#utility.yul\":4883:4884   */\n      0x00\n        /* \"#utility.yul\":4876:4888   */\n      revert\n        /* \"#utility.yul\":4838:4890   */\n    tag_550:\n        /* \"#utility.yul\":4926:4935   */\n      dup3\n        /* \"#utility.yul\":4913:4936   */\n      calldataload\n      sub(shl(0x40, 0x01), 0x01)\n        /* \"#utility.yul\":4951:4957   */\n      dup2\n        /* \"#utility.yul\":4948:4978   */\n      gt\n        /* \"#utility.yul\":4945:4995   */\n      iszero\n      tag_551\n      jumpi\n        /* \"#utility.yul\":4991:4992   */\n      0x00\n        /* \"#utility.yul\":4988:4989   */\n      0x00\n        /* \"#utility.yul\":4981:4993   */\n      revert\n        /* \"#utility.yul\":4945:4995   */\n    tag_551:\n        /* \"#utility.yul\":5014:5064   */\n      tag_552\n        /* \"#utility.yul\":5056:5063   */\n      dup6\n        /* \"#utility.yul\":5047:5053   */\n      dup3\n        /* \"#utility.yul\":5036:5045   */\n      dup7\n        /* \"#utility.yul\":5032:5054   */\n      add\n        /* \"#utility.yul\":5014:5064   */\n      tag_497\n      jump\t// in\n    tag_552:\n        /* \"#utility.yul\":5004:5064   */\n      swap3\n      pop\n      pop\n        /* \"#utility.yul\":5083:5121   */\n      tag_553\n        /* \"#utility.yul\":5117:5119   */\n      0x20\n        /* \"#utility.yul\":5106:5115   */\n      dup5\n        /* \"#utility.yul\":5102:5120   */\n      add\n        /* \"#utility.yul\":5083:5121   */\n      tag_495\n      jump\t// in\n    tag_553:\n        /* \"#utility.yul\":5073:5121   */\n      swap1\n      pop\n        /* \"#utility.yul\":4731:5127   */\n      swap3\n      pop\n      swap3\n      swap1\n      pop\n      jump\t// out\n        /* \"#utility.yul\":5132:5526   */\n    tag_97:\n        /* \"#utility.yul\":5209:5215   */\n      0x00\n        /* \"#utility.yul\":5217:5223   */\n      0x00\n        /* \"#utility.yul\":5270:5272   */\n      0x40\n        /* \"#utility.yul\":5258:5267   */\n      dup4\n        /* \"#utility.yul\":5249:5256   */\n      dup6\n        /* \"#utility.yul\":5245:5268   */\n      sub\n        /* \"#utility.yul\":5241:5273   */\n      slt\n        /* \"#utility.yul\":5238:5290   */\n      iszero\n      tag_555\n      jumpi\n        /* \"#utility.yul\":5286:5287   */\n      0x00\n        /* \"#utility.yul\":5283:5284   */\n      0x00\n        /* \"#utility.yul\":5276:5288   */\n      revert\n        /* \"#utility.yul\":5238:5290   */\n    tag_555:\n        /* \"#utility.yul\":5326:5335   */\n      dup3\n        /* \"#utility.yul\":5313:5336   */\n      calldataload\n      sub(shl(0x40, 0x01), 0x01)\n        /* \"#utility.yul\":5351:5357   */\n      dup2\n        /* \"#utility.yul\":5348:5378   */\n      gt\n        /* \"#utility.yul\":5345:5395   */\n      iszero\n      tag_556\n      jumpi\n        /* \"#utility.yul\":5391:5392   */\n      0x00\n        /* \"#utility.yul\":5388:5389   */\n      0x00\n        /* \"#utility.yul\":5381:5393   */\n      revert\n        /* \"#utility.yul\":5345:5395   */\n    tag_556:\n        /* \"#utility.yul\":5414:5464   */\n      tag_557\n        /* \"#utility.yul\":5456:5463   */\n      dup6\n        /* \"#utility.yul\":5447:5453   */\n      dup3\n        /* \"#utility.yul\":5436:5445   */\n      dup7\n        /* \"#utility.yul\":5432:5454   */\n      add\n        /* \"#utility.yul\":5414:5464   */\n      tag_497\n      jump\t// in\n    tag_557:\n        /* \"#utility.yul\":5404:5464   */\n      swap3\n      pop\n      pop\n        /* \"#utility.yul\":5483:5520   */\n      tag_553\n        /* \"#utility.yul\":5516:5518   */\n      0x20\n        /* \"#utility.yul\":5505:5514   */\n      dup5\n        /* \"#utility.yul\":5501:5519   */\n      add\n        /* \"#utility.yul\":5483:5520   */\n      tag_496\n      jump\t// in\n        /* \"#utility.yul\":5531:5789   */\n    tag_105:\n        /* \"#utility.yul\":5598:5604   */\n      0x00\n        /* \"#utility.yul\":5606:5612   */\n      0x00\n        /* \"#utility.yul\":5659:5661   */\n      0x40\n        /* \"#utility.yul\":5647:5656   */\n      dup4\n        /* \"#utility.yul\":5638:5645   */\n      dup6\n        /* \"#utility.yul\":5634:5657   */\n      sub\n        /* \"#utility.yul\":5630:5662   */\n      slt\n        /* \"#utility.yul\":5627:5679   */\n      iszero\n      tag_560\n      jumpi\n        /* \"#utility.yul\":5675:5676   */\n      0x00\n        /* \"#utility.yul\":5672:5673   */\n      0x00\n        /* \"#utility.yul\":5665:5677   */\n      revert\n        /* \"#utility.yul\":5627:5679   */\n    tag_560:\n        /* \"#utility.yul\":5698:5726   */\n      tag_561\n        /* \"#utility.yul\":5716:5725   */\n      dup4\n        /* \"#utility.yul\":5698:5726   */\n      tag_496\n      jump\t// in\n    tag_561:\n        /* \"#utility.yul\":5688:5726   */\n      swap2\n      pop\n        /* \"#utility.yul\":5745:5783   */\n      tag_553\n        /* \"#utility.yul\":5779:5781   */\n      0x20\n        /* \"#utility.yul\":5768:5777   */\n      dup5\n        /* \"#utility.yul\":5764:5782   */\n      add\n        /* \"#utility.yul\":5745:5783   */\n      tag_495\n      jump\t// in\n        /* \"#utility.yul\":5794:6190   */\n    tag_121:\n        /* \"#utility.yul\":5872:5878   */\n      0x00\n        /* \"#utility.yul\":5880:5886   */\n      0x00\n        /* \"#utility.yul\":5933:5935   */\n      0x40\n        /* \"#utility.yul\":5921:5930   */\n      dup4\n        /* \"#utility.yul\":5912:5919   */\n      dup6\n        /* \"#utility.yul\":5908:5931   */\n      sub\n        /* \"#utility.yul\":5904:5936   */\n      slt\n        /* \"#utility.yul\":5901:5953   */\n      iszero\n      tag_564\n      jumpi\n        /* \"#utility.yul\":5949:5950   */\n      0x00\n        /* \"#utility.yul\":5946:5947   */\n      0x00\n        /* \"#utility.yul\":5939:5951   */\n      revert\n        /* \"#utility.yul\":5901:5953   */\n    tag_564:\n        /* \"#utility.yul\":5972:6001   */\n      tag_520\n        /* \"#utility.yul\":5991:6000   */\n      dup4\n        /* \"#utility.yul\":5972:6001   */\n      tag_495\n      jump\t// in\n        /* \"#utility.yul\":6195:6631   */\n    tag_128:\n        /* \"#utility.yul\":6273:6279   */\n      0x00\n        /* \"#utility.yul\":6281:6287   */\n      0x00\n        /* \"#utility.yul\":6334:6336   */\n      0x40\n        /* \"#utility.yul\":6322:6331   */\n      dup4\n        /* \"#utility.yul\":6313:6320   */\n      dup6\n        /* \"#utility.yul\":6309:6332   */\n      sub\n        /* \"#utility.yul\":6305:6337   */\n      slt\n        /* \"#utility.yul\":6302:6354   */\n      iszero\n      tag_569\n      jumpi\n        /* \"#utility.yul\":6350:6351   */\n      0x00\n        /* \"#utility.yul\":6347:6348   */\n      0x00\n        /* \"#utility.yul\":6340:6352   */\n      revert\n        /* \"#utility.yul\":6302:6354   */\n    tag_569:\n        /* \"#utility.yul\":6395:6418   */\n      dup3\n      calldataload\n      swap2\n      pop\n        /* \"#utility.yul\":6493:6495   */\n      0x20\n        /* \"#utility.yul\":6478:6496   */\n      dup4\n      add\n        /* \"#utility.yul\":6465:6497   */\n      calldataload\n      sub(shl(0x40, 0x01), 0x01)\n        /* \"#utility.yul\":6509:6539   */\n      dup2\n      gt\n        /* \"#utility.yul\":6506:6556   */\n      iszero\n      tag_521\n      jumpi\n        /* \"#utility.yul\":6552:6553   */\n      0x00\n        /* \"#utility.yul\":6549:6550   */\n      0x00\n        /* \"#utility.yul\":6542:6554   */\n      revert\n        /* \"#utility.yul\":6636:6894   */\n    tag_132:\n        /* \"#utility.yul\":6703:6709   */\n      0x00\n        /* \"#utility.yul\":6711:6717   */\n      0x00\n        /* \"#utility.yul\":6764:6766   */\n      0x40\n        /* \"#utility.yul\":6752:6761   */\n      dup4\n        /* \"#utility.yul\":6743:6750   */\n      dup6\n        /* \"#utility.yul\":6739:6762   */\n      sub\n        /* \"#utility.yul\":6735:6767   */\n      slt\n        /* \"#utility.yul\":6732:6784   */\n      iszero\n      tag_573\n      jumpi\n        /* \"#utility.yul\":6780:6781   */\n      0x00\n        /* \"#utility.yul\":6777:6778   */\n      0x00\n        /* \"#utility.yul\":6770:6782   */\n      revert\n        /* \"#utility.yul\":6732:6784   */\n    tag_573:\n        /* \"#utility.yul\":6803:6832   */\n      tag_574\n        /* \"#utility.yul\":6822:6831   */\n      dup4\n        /* \"#utility.yul\":6803:6832   */\n      tag_495\n      jump\t// in\n    tag_574:\n        /* \"#utility.yul\":6793:6832   */\n      swap2\n      pop\n        /* \"#utility.yul\":6851:6888   */\n      tag_553\n        /* \"#utility.yul\":6884:6886   */\n      0x20\n        /* \"#utility.yul\":6873:6882   */\n      dup5\n        /* \"#utility.yul\":6869:6887   */\n      add\n        /* \"#utility.yul\":6851:6888   */\n      tag_496\n      jump\t// in\n        /* \"#utility.yul\":8014:8312   */\n    tag_156:\n        /* \"#utility.yul\":8081:8087   */\n      0x00\n        /* \"#utility.yul\":8089:8095   */\n      0x00\n        /* \"#utility.yul\":8142:8144   */\n      0x40\n        /* \"#utility.yul\":8130:8139   */\n      dup4\n        /* \"#utility.yul\":8121:8128   */\n      dup6\n        /* \"#utility.yul\":8117:8140   */\n      sub\n        /* \"#utility.yul\":8113:8145   */\n      slt\n        /* \"#utility.yul\":8110:8162   */\n      iszero\n      tag_588\n      jumpi\n        /* \"#utility.yul\":8158:8159   */\n      0x00\n        /* \"#utility.yul\":8155:8156   */\n      0x00\n        /* \"#utility.yul\":8148:8160   */\n      revert\n        /* \"#utility.yul\":8110:8162   */\n    tag_588:\n        /* \"#utility.yul\":8181:8209   */\n      tag_507\n        /* \"#utility.yul\":8199:8208   */\n      dup4\n        /* \"#utility.yul\":8181:8209   */\n      tag_496\n      jump\t// in\n        /* \"#utility.yul\":8317:8753   */\n    tag_160:\n        /* \"#utility.yul\":8395:8401   */\n      0x00\n        /* \"#utility.yul\":8403:8409   */\n      0x00\n        /* \"#utility.yul\":8456:8458   */\n      0x40\n        /* \"#utility.yul\":8444:8453   */\n      dup4\n        /* \"#utility.yul\":8435:8442   */\n      dup6\n        /* \"#utility.yul\":8431:8454   */\n      sub\n        /* \"#utility.yul\":8427:8459   */\n      slt\n        /* \"#utility.yul\":8424:8476   */\n      iszero\n      tag_591\n      jumpi\n        /* \"#utility.yul\":8472:8473   */\n      0x00\n        /* \"#utility.yul\":8469:8470   */\n      0x00\n        /* \"#utility.yul\":8462:8474   */\n      revert\n        /* \"#utility.yul\":8424:8476   */\n    tag_591:\n        /* \"#utility.yul\":8512:8521   */\n      dup3\n        /* \"#utility.yul\":8499:8522   */\n      calldataload\n      sub(shl(0x40, 0x01), 0x01)\n        /* \"#utility.yul\":8537:8543   */\n      dup2\n        /* \"#utility.yul\":8534:8564   */\n      gt\n        /* \"#utility.yul\":8531:8581   */\n      iszero\n      tag_592\n      jumpi\n        /* \"#utility.yul\":8577:8578   */\n      0x00\n        /* \"#utility.yul\":8574:8575   */\n      0x00\n        /* \"#utility.yul\":8567:8579   */\n      revert\n        /* \"#utility.yul\":8531:8581   */\n    tag_592:\n        /* \"#utility.yul\":8600:8650   */\n      tag_593\n        /* \"#utility.yul\":8642:8649   */\n      dup6\n        /* \"#utility.yul\":8633:8639   */\n      dup3\n        /* \"#utility.yul\":8622:8631   */\n      dup7\n        /* \"#utility.yul\":8618:8640   */\n      add\n        /* \"#utility.yul\":8600:8650   */\n      tag_497\n      jump\t// in\n    tag_593:\n        /* \"#utility.yul\":8590:8650   */\n      swap6\n        /* \"#utility.yul\":8719:8721   */\n      0x20\n        /* \"#utility.yul\":8704:8722   */\n      swap5\n      swap1\n      swap5\n      add\n        /* \"#utility.yul\":8691:8723   */\n      calldataload\n      swap5\n      pop\n      pop\n      pop\n      pop\n        /* \"#utility.yul\":8317:8753   */\n      jump\t// out\n        /* \"#utility.yul\":8758:9018   */\n    tag_164:\n        /* \"#utility.yul\":8826:8832   */\n      0x00\n        /* \"#utility.yul\":8834:8840   */\n      0x00\n        /* \"#utility.yul\":8887:8889   */\n      0x40\n        /* \"#utility.yul\":8875:8884   */\n      dup4\n        /* \"#utility.yul\":8866:8873   */\n      dup6\n        /* \"#utility.yul\":8862:8885   */\n      sub\n        /* \"#utility.yul\":8858:8890   */\n      slt\n        /* \"#utility.yul\":8855:8907   */\n      iszero\n      tag_595\n      jumpi\n        /* \"#utility.yul\":8903:8904   */\n      0x00\n        /* \"#utility.yul\":8900:8901   */\n      0x00\n        /* \"#utility.yul\":8893:8905   */\n      revert\n        /* \"#utility.yul\":8855:8907   */\n    tag_595:\n        /* \"#utility.yul\":8926:8955   */\n      tag_561\n        /* \"#utility.yul\":8945:8954   */\n      dup4\n        /* \"#utility.yul\":8926:8955   */\n      tag_495\n      jump\t// in\n        /* \"#utility.yul\":9023:9323   */\n    tag_175:\n        /* \"#utility.yul\":9091:9097   */\n      0x00\n        /* \"#utility.yul\":9099:9105   */\n      0x00\n        /* \"#utility.yul\":9152:9154   */\n      0x40\n        /* \"#utility.yul\":9140:9149   */\n      dup4\n        /* \"#utility.yul\":9131:9138   */\n      dup6\n        /* \"#utility.yul\":9127:9150   */\n      sub\n        /* \"#utility.yul\":9123:9155   */\n      slt\n        /* \"#utility.yul\":9120:9172   */\n      iszero\n      tag_599\n      jumpi\n        /* \"#utility.yul\":9168:9169   */\n      0x00\n        /* \"#utility.yul\":9165:9166   */\n      0x00\n        /* \"#utility.yul\":9158:9170   */\n      revert\n        /* \"#utility.yul\":9120:9172   */\n    tag_599:\n        /* \"#utility.yul\":9213:9236   */\n      dup3\n      calldataload\n      swap2\n      pop\n        /* \"#utility.yul\":9279:9317   */\n      tag_553\n        /* \"#utility.yul\":9313:9315   */\n      0x20\n        /* \"#utility.yul\":9298:9316   */\n      dup5\n      add\n        /* \"#utility.yul\":9279:9317   */\n      tag_495\n      jump\t// in\n        /* \"#utility.yul\":9328:9584   */\n    tag_179:\n        /* \"#utility.yul\":9394:9400   */\n      0x00\n        /* \"#utility.yul\":9402:9408   */\n      0x00\n        /* \"#utility.yul\":9455:9457   */\n      0x40\n        /* \"#utility.yul\":9443:9452   */\n      dup4\n        /* \"#utility.yul\":9434:9441   */\n      dup6\n        /* \"#utility.yul\":9430:9453   */\n      sub\n        /* \"#utility.yul\":9426:9458   */\n      slt\n        /* \"#utility.yul\":9423:9475   */\n      iszero\n      tag_602\n      jumpi\n        /* \"#utility.yul\":9471:9472   */\n      0x00\n        /* \"#utility.yul\":9468:9469   */\n      0x00\n        /* \"#utility.yul\":9461:9473   */\n      revert\n        /* \"#utility.yul\":9423:9475   */\n    tag_602:\n        /* \"#utility.yul\":9494:9522   */\n      tag_574\n        /* \"#utility.yul\":9512:9521   */\n      dup4\n        /* \"#utility.yul\":9494:9522   */\n      tag_496\n      jump\t// in\n        /* \"#utility.yul\":10972:11270   */\n    tag_210:\n        /* \"#utility.yul\":11039:11045   */\n      0x00\n        /* \"#utility.yul\":11047:11053   */\n      0x00\n        /* \"#utility.yul\":11100:11102   */\n      0x40\n        /* \"#utility.yul\":11088:11097   */\n      dup4\n        /* \"#utility.yul\":11079:11086   */\n      dup6\n        /* \"#utility.yul\":11075:11098   */\n      sub\n        /* \"#utility.yul\":11071:11103   */\n      slt\n        /* \"#utility.yul\":11068:11120   */\n      iszero\n      tag_621\n      jumpi\n        /* \"#utility.yul\":11116:11117   */\n      0x00\n        /* \"#utility.yul\":11113:11114   */\n      0x00\n        /* \"#utility.yul\":11106:11118   */\n      revert\n        /* \"#utility.yul\":11068:11120   */\n    tag_621:\n        /* \"#utility.yul\":11161:11184   */\n      dup3\n      calldataload\n      swap2\n      pop\n        /* \"#utility.yul\":11227:11264   */\n      tag_553\n        /* \"#utility.yul\":11260:11262   */\n      0x20\n        /* \"#utility.yul\":11245:11263   */\n      dup5\n      add\n        /* \"#utility.yul\":11227:11264   */\n      tag_496\n      jump\t// in\n        /* \"#utility.yul\":11275:11621   */\n    tag_214:\n        /* \"#utility.yul\":11343:11349   */\n      0x00\n        /* \"#utility.yul\":11351:11357   */\n      0x00\n        /* \"#utility.yul\":11404:11406   */\n      0x40\n        /* \"#utility.yul\":11392:11401   */\n      dup4\n        /* \"#utility.yul\":11383:11390   */\n      dup6\n        /* \"#utility.yul\":11379:11402   */\n      sub\n        /* \"#utility.yul\":11375:11407   */\n      slt\n        /* \"#utility.yul\":11372:11424   */\n      iszero\n      tag_624\n      jumpi\n        /* \"#utility.yul\":11420:11421   */\n      0x00\n        /* \"#utility.yul\":11417:11418   */\n      0x00\n        /* \"#utility.yul\":11410:11422   */\n      revert\n        /* \"#utility.yul\":11372:11424   */\n    tag_624:\n      pop\n      pop\n        /* \"#utility.yul\":11465:11488   */\n      dup1\n      calldataload\n      swap3\n        /* \"#utility.yul\":11585:11587   */\n      0x20\n        /* \"#utility.yul\":11570:11588   */\n      swap1\n      swap2\n      add\n        /* \"#utility.yul\":11557:11589   */\n      calldataload\n      swap2\n      pop\n        /* \"#utility.yul\":11275:11621   */\n      jump\t// out\n        /* \"#utility.yul\":11626:11753   */\n    tag_498:\n        /* \"#utility.yul\":11687:11697   */\n      0x4e487b71\n        /* \"#utility.yul\":11682:11685   */\n      0xe0\n        /* \"#utility.yul\":11678:11698   */\n      shl\n        /* \"#utility.yul\":11675:11676   */\n      0x00\n        /* \"#utility.yul\":11668:11699   */\n      mstore\n        /* \"#utility.yul\":11718:11722   */\n      0x11\n        /* \"#utility.yul\":11715:11716   */\n      0x04\n        /* \"#utility.yul\":11708:11723   */\n      mstore\n        /* \"#utility.yul\":11742:11746   */\n      0x24\n        /* \"#utility.yul\":11739:11740   */\n      0x00\n        /* \"#utility.yul\":11732:11747   */\n      revert\n        /* \"#utility.yul\":11758:11926   */\n    tag_241:\n        /* \"#utility.yul\":11831:11840   */\n      dup1\n      dup3\n      mul\n        /* \"#utility.yul\":11862:11871   */\n      dup2\n      iszero\n        /* \"#utility.yul\":11879:11894   */\n      dup3\n      dup3\n      div\n        /* \"#utility.yul\":11873:11895   */\n      dup5\n      eq\n        /* \"#utility.yul\":11859:11896   */\n      or\n        /* \"#utility.yul\":11849:11920   */\n      tag_628\n      jumpi\n        /* \"#utility.yul\":11900:11918   */\n      tag_628\n      tag_498\n      jump\t// in\n    tag_628:\n        /* \"#utility.yul\":11758:11926   */\n      swap3\n      swap2\n      pop\n      pop\n      jump\t// out\n        /* \"#utility.yul\":11931:12058   */\n    tag_244:\n        /* \"#utility.yul\":11992:12002   */\n      0x4e487b71\n        /* \"#utility.yul\":11987:11990   */\n      0xe0\n        /* \"#utility.yul\":11983:12003   */\n      shl\n        /* \"#utility.yul\":11980:11981   */\n      0x00\n        /* \"#utility.yul\":11973:12004   */\n      mstore\n        /* \"#utility.yul\":12023:12027   */\n      0x32\n        /* \"#utility.yul\":12020:12021   */\n      0x04\n        /* \"#utility.yul\":12013:12028   */\n      mstore\n        /* \"#utility.yul\":12047:12051   */\n      0x24\n        /* \"#utility.yul\":12044:12045   */\n      0x00\n        /* \"#utility.yul\":12037:12052   */\n      revert\n        /* \"#utility.yul\":12063:12364   */\n    tag_252:\n        /* \"#utility.yul\":12192:12195   */\n      0x00\n        /* \"#utility.yul\":12230:12236   */\n      dup3\n        /* \"#utility.yul\":12224:12237   */\n      mload\n        /* \"#utility.yul\":12276:12282   */\n      dup1\n        /* \"#utility.yul\":12269:12273   */\n      0x20\n        /* \"#utility.yul\":12261:12267   */\n      dup6\n        /* \"#utility.yul\":12257:12274   */\n      add\n        /* \"#utility.yul\":12252:12255   */\n      dup5\n        /* \"#utility.yul\":12246:12283   */\n      mcopy\n        /* \"#utility.yul\":12338:12339   */\n      0x00\n        /* \"#utility.yul\":12302:12318   */\n      swap3\n      add\n        /* \"#utility.yul\":12327:12340   */\n      swap2\n      dup3\n      mstore\n      pop\n        /* \"#utility.yul\":12302:12318   */\n      swap2\n        /* \"#utility.yul\":12063:12364   */\n      swap1\n      pop\n      jump\t// out\n        /* \"#utility.yul\":12369:12497   */\n    tag_261:\n        /* \"#utility.yul\":12436:12445   */\n      dup2\n      dup2\n      sub\n        /* \"#utility.yul\":12457:12468   */\n      dup2\n      dup2\n      gt\n        /* \"#utility.yul\":12454:12491   */\n      iszero\n      tag_628\n      jumpi\n        /* \"#utility.yul\":12471:12489   */\n      tag_628\n      tag_498\n      jump\t// in\n        /* \"#utility.yul\":12502:12882   */\n    tag_266:\n        /* \"#utility.yul\":12581:12582   */\n      0x01\n        /* \"#utility.yul\":12577:12589   */\n      dup2\n      dup2\n      shr\n      swap1\n        /* \"#utility.yul\":12624:12636   */\n      dup3\n      and\n      dup1\n        /* \"#utility.yul\":12645:12706   */\n      tag_635\n      jumpi\n        /* \"#utility.yul\":12699:12703   */\n      0x7f\n        /* \"#utility.yul\":12691:12697   */\n      dup3\n        /* \"#utility.yul\":12687:12704   */\n      and\n        /* \"#utility.yul\":12677:12704   */\n      swap2\n      pop\n        /* \"#utility.yul\":12645:12706   */\n    tag_635:\n        /* \"#utility.yul\":12752:12754   */\n      0x20\n        /* \"#utility.yul\":12744:12750   */\n      dup3\n        /* \"#utility.yul\":12741:12755   */\n      lt\n        /* \"#utility.yul\":12721:12739   */\n      dup2\n        /* \"#utility.yul\":12718:12756   */\n      sub\n        /* \"#utility.yul\":12715:12876   */\n      tag_238\n      jumpi\n        /* \"#utility.yul\":12798:12808   */\n      0x4e487b71\n        /* \"#utility.yul\":12793:12796   */\n      0xe0\n        /* \"#utility.yul\":12789:12809   */\n      shl\n        /* \"#utility.yul\":12786:12787   */\n      0x00\n        /* \"#utility.yul\":12779:12810   */\n      mstore\n        /* \"#utility.yul\":12833:12837   */\n      0x22\n        /* \"#utility.yul\":12830:12831   */\n      0x04\n        /* \"#utility.yul\":12823:12838   */\n      mstore\n        /* \"#utility.yul\":12861:12865   */\n      0x24\n        /* \"#utility.yul\":12858:12859   */\n      0x00\n        /* \"#utility.yul\":12851:12866   */\n      revert\n        /* \"#utility.yul\":13012:13529   */\n    tag_500:\n        /* \"#utility.yul\":13113:13115   */\n      0x1f\n        /* \"#utility.yul\":13108:13111   */\n      dup3\n        /* \"#utility.yul\":13105:13116   */\n      gt\n        /* \"#utility.yul\":13102:13523   */\n      iszero\n      tag_296\n      jumpi\n        /* \"#utility.yul\":13149:13154   */\n      dup1\n        /* \"#utility.yul\":13146:13147   */\n      0x00\n        /* \"#utility.yul\":13139:13155   */\n      mstore\n        /* \"#utility.yul\":13193:13197   */\n      0x20\n        /* \"#utility.yul\":13190:13191   */\n      0x00\n        /* \"#utility.yul\":13180:13198   */\n      keccak256\n        /* \"#utility.yul\":13263:13265   */\n      0x1f\n        /* \"#utility.yul\":13251:13261   */\n      dup5\n        /* \"#utility.yul\":13247:13266   */\n      add\n        /* \"#utility.yul\":13244:13245   */\n      0x05\n        /* \"#utility.yul\":13240:13267   */\n      shr\n        /* \"#utility.yul\":13234:13238   */\n      dup2\n        /* \"#utility.yul\":13230:13268   */\n      add\n        /* \"#utility.yul\":13299:13303   */\n      0x20\n        /* \"#utility.yul\":13287:13297   */\n      dup6\n        /* \"#utility.yul\":13284:13304   */\n      lt\n        /* \"#utility.yul\":13281:13328   */\n      iszero\n      tag_640\n      jumpi\n      pop\n        /* \"#utility.yul\":13322:13326   */\n      dup1\n        /* \"#utility.yul\":13281:13328   */\n    tag_640:\n        /* \"#utility.yul\":13377:13379   */\n      0x1f\n        /* \"#utility.yul\":13372:13375   */\n      dup5\n        /* \"#utility.yul\":13368:13380   */\n      add\n        /* \"#utility.yul\":13365:13366   */\n      0x05\n        /* \"#utility.yul\":13361:13381   */\n      shr\n        /* \"#utility.yul\":13355:13359   */\n      dup3\n        /* \"#utility.yul\":13351:13382   */\n      add\n        /* \"#utility.yul\":13341:13382   */\n      swap2\n      pop\n        /* \"#utility.yul\":13432:13513   */\n    tag_641:\n        /* \"#utility.yul\":13450:13452   */\n      dup2\n        /* \"#utility.yul\":13443:13448   */\n      dup2\n        /* \"#utility.yul\":13440:13453   */\n      lt\n        /* \"#utility.yul\":13432:13513   */\n      iszero\n      tag_643\n      jumpi\n        /* \"#utility.yul\":13509:13510   */\n      0x00\n        /* \"#utility.yul\":13495:13511   */\n      dup2\n      sstore\n        /* \"#utility.yul\":13476:13477   */\n      0x01\n        /* \"#utility.yul\":13465:13478   */\n      add\n        /* \"#utility.yul\":13432:13513   */\n      jump(tag_641)\n    tag_643:\n        /* \"#utility.yul\":13436:13439   */\n      pop\n      pop\n        /* \"#utility.yul\":13012:13529   */\n      pop\n      pop\n      pop\n      jump\t// out\n        /* \"#utility.yul\":13705:15000   */\n    tag_280:\n        /* \"#utility.yul\":13829:13832   */\n      dup2\n        /* \"#utility.yul\":13823:13833   */\n      mload\n      sub(shl(0x40, 0x01), 0x01)\n        /* \"#utility.yul\":13848:13854   */\n      dup2\n        /* \"#utility.yul\":13845:13875   */\n      gt\n        /* \"#utility.yul\":13842:13898   */\n      iszero\n      tag_647\n      jumpi\n        /* \"#utility.yul\":13878:13896   */\n      tag_647\n      tag_235\n      jump\t// in\n    tag_647:\n        /* \"#utility.yul\":13907:14003   */\n      tag_648\n        /* \"#utility.yul\":13996:14002   */\n      dup2\n        /* \"#utility.yul\":13956:13994   */\n      tag_649\n        /* \"#utility.yul\":13988:13992   */\n      dup5\n        /* \"#utility.yul\":13982:13993   */\n      sload\n        /* \"#utility.yul\":13956:13994   */\n      tag_266\n      jump\t// in\n    tag_649:\n        /* \"#utility.yul\":13950:13954   */\n      dup5\n        /* \"#utility.yul\":13907:14003   */\n      tag_500\n      jump\t// in\n    tag_648:\n        /* \"#utility.yul\":14052:14056   */\n      0x20\n        /* \"#utility.yul\":14083:14085   */\n      0x1f\n        /* \"#utility.yul\":14072:14086   */\n      dup3\n      gt\n        /* \"#utility.yul\":14100:14101   */\n      0x01\n        /* \"#utility.yul\":14095:14743   */\n      dup2\n      eq\n      tag_651\n      jumpi\n        /* \"#utility.yul\":14787:14788   */\n      0x00\n        /* \"#utility.yul\":14804:14810   */\n      dup4\n        /* \"#utility.yul\":14801:14890   */\n      iszero\n      tag_652\n      jumpi\n      pop\n        /* \"#utility.yul\":14856:14875   */\n      dup5\n      dup3\n      add\n        /* \"#utility.yul\":14850:14876   */\n      mload\n        /* \"#utility.yul\":14801:14890   */\n    tag_652:\n      not(0x00)\n        /* \"#utility.yul\":13662:13663   */\n      0x03\n        /* \"#utility.yul\":13658:13669   */\n      dup6\n      swap1\n      shl\n        /* \"#utility.yul\":13654:13678   */\n      shr\n        /* \"#utility.yul\":13650:13679   */\n      not\n        /* \"#utility.yul\":13640:13680   */\n      and\n        /* \"#utility.yul\":13686:13687   */\n      0x01\n        /* \"#utility.yul\":13682:13693   */\n      dup5\n      swap1\n      shl\n        /* \"#utility.yul\":13637:13694   */\n      or\n        /* \"#utility.yul\":14903:14984   */\n      dup5\n      sstore\n        /* \"#utility.yul\":14065:14994   */\n      jump(tag_643)\n        /* \"#utility.yul\":14095:14743   */\n    tag_651:\n        /* \"#utility.yul\":12959:12960   */\n      0x00\n        /* \"#utility.yul\":12952:12966   */\n      dup5\n      dup2\n      mstore\n        /* \"#utility.yul\":12996:13000   */\n      0x20\n        /* \"#utility.yul\":12983:13001   */\n      dup2\n      keccak256\n      not(0x1f)\n        /* \"#utility.yul\":14131:14151   */\n      dup6\n      and\n      swap2\n        /* \"#utility.yul\":14248:14470   */\n    tag_655:\n        /* \"#utility.yul\":14262:14269   */\n      dup3\n        /* \"#utility.yul\":14259:14260   */\n      dup2\n        /* \"#utility.yul\":14256:14270   */\n      lt\n        /* \"#utility.yul\":14248:14470   */\n      iszero\n      tag_657\n      jumpi\n        /* \"#utility.yul\":14344:14363   */\n      dup8\n      dup6\n      add\n        /* \"#utility.yul\":14338:14364   */\n      mload\n        /* \"#utility.yul\":14323:14365   */\n      dup3\n      sstore\n        /* \"#utility.yul\":14451:14455   */\n      0x20\n        /* \"#utility.yul\":14436:14456   */\n      swap5\n      dup6\n      add\n      swap5\n        /* \"#utility.yul\":14404:14405   */\n      0x01\n        /* \"#utility.yul\":14392:14406   */\n      swap1\n      swap3\n      add\n      swap2\n        /* \"#utility.yul\":14278:14290   */\n      add\n        /* \"#utility.yul\":14248:14470   */\n      jump(tag_655)\n    tag_657:\n        /* \"#utility.yul\":14252:14255   */\n      pop\n        /* \"#utility.yul\":14498:14504   */\n      dup5\n        /* \"#utility.yul\":14489:14496   */\n      dup3\n        /* \"#utility.yul\":14486:14505   */\n      lt\n        /* \"#utility.yul\":14483:14684   */\n      iszero\n      tag_658\n      jumpi\n        /* \"#utility.yul\":14559:14578   */\n      dup7\n      dup5\n      add\n        /* \"#utility.yul\":14553:14579   */\n      mload\n      not(0x00)\n        /* \"#utility.yul\":14642:14643   */\n      0x03\n        /* \"#utility.yul\":14638:14652   */\n      dup8\n      swap1\n      shl\n        /* \"#utility.yul\":14654:14657   */\n      0xf8\n        /* \"#utility.yul\":14634:14658   */\n      and\n        /* \"#utility.yul\":14630:14667   */\n      shr\n        /* \"#utility.yul\":14626:14668   */\n      not\n        /* \"#utility.yul\":14611:14669   */\n      and\n        /* \"#utility.yul\":14596:14670   */\n      dup2\n      sstore\n        /* \"#utility.yul\":14483:14684   */\n    tag_658:\n      pop\n      pop\n      pop\n      pop\n        /* \"#utility.yul\":14730:14731   */\n      0x01\n        /* \"#utility.yul\":14714:14728   */\n      swap1\n      dup2\n      shl\n        /* \"#utility.yul\":14710:14732   */\n      add\n        /* \"#utility.yul\":14697:14733   */\n      swap1\n      sstore\n      pop\n        /* \"#utility.yul\":13705:15000   */\n      jump\t// out\n        /* \"#utility.yul\":15005:15132   */\n    tag_283:\n        /* \"#utility.yul\":15066:15076   */\n      0x4e487b71\n        /* \"#utility.yul\":15061:15064   */\n      0xe0\n        /* \"#utility.yul\":15057:15077   */\n      shl\n        /* \"#utility.yul\":15054:15055   */\n      0x00\n        /* \"#utility.yul\":15047:15078   */\n      mstore\n        /* \"#utility.yul\":15097:15101   */\n      0x31\n        /* \"#utility.yul\":15094:15095   */\n      0x04\n        /* \"#utility.yul\":15087:15102   */\n      mstore\n        /* \"#utility.yul\":15121:15125   */\n      0x24\n        /* \"#utility.yul\":15118:15119   */\n      0x00\n        /* \"#utility.yul\":15111:15126   */\n      revert\n        /* \"#utility.yul\":15137:15932   */\n    tag_339:\n        /* \"#utility.yul\":15263:15266   */\n      0x00\n        /* \"#utility.yul\":15292:15293   */\n      0x00\n        /* \"#utility.yul\":15325:15331   */\n      dup4\n        /* \"#utility.yul\":15319:15332   */\n      sload\n        /* \"#utility.yul\":15355:15391   */\n      tag_661\n        /* \"#utility.yul\":15381:15390   */\n      dup2\n        /* \"#utility.yul\":15355:15391   */\n      tag_266\n      jump\t// in\n    tag_661:\n        /* \"#utility.yul\":15422:15423   */\n      0x01\n        /* \"#utility.yul\":15407:15424   */\n      dup3\n      and\n        /* \"#utility.yul\":15433:15566   */\n      dup1\n      iszero\n      tag_663\n      jumpi\n        /* \"#utility.yul\":15580:15581   */\n      0x01\n        /* \"#utility.yul\":15575:15907   */\n      dup2\n      eq\n      tag_664\n      jumpi\n        /* \"#utility.yul\":15400:15907   */\n      jump(tag_662)\n        /* \"#utility.yul\":15433:15566   */\n    tag_663:\n      not(0xff)\n        /* \"#utility.yul\":15466:15490   */\n      dup4\n      and\n        /* \"#utility.yul\":15454:15491   */\n      dup7\n      mstore\n        /* \"#utility.yul\":15539:15553   */\n      dup2\n      iszero\n        /* \"#utility.yul\":15532:15554   */\n      iszero\n        /* \"#utility.yul\":15520:15555   */\n      dup3\n      mul\n        /* \"#utility.yul\":15511:15556   */\n      dup7\n      add\n      swap4\n      pop\n        /* \"#utility.yul\":15433:15566   */\n      jump(tag_662)\n        /* \"#utility.yul\":15575:15907   */\n    tag_664:\n        /* \"#utility.yul\":15606:15612   */\n      dup7\n        /* \"#utility.yul\":15603:15604   */\n      0x00\n        /* \"#utility.yul\":15596:15613   */\n      mstore\n        /* \"#utility.yul\":15654:15658   */\n      0x20\n        /* \"#utility.yul\":15651:15652   */\n      0x00\n        /* \"#utility.yul\":15641:15659   */\n      keccak256\n        /* \"#utility.yul\":15681:15682   */\n      0x00\n        /* \"#utility.yul\":15695:15861   */\n    tag_665:\n        /* \"#utility.yul\":15709:15715   */\n      dup4\n        /* \"#utility.yul\":15706:15707   */\n      dup2\n        /* \"#utility.yul\":15703:15716   */\n      lt\n        /* \"#utility.yul\":15695:15861   */\n      iszero\n      tag_667\n      jumpi\n        /* \"#utility.yul\":15789:15803   */\n      dup2\n      sload\n        /* \"#utility.yul\":15776:15787   */\n      dup9\n      dup3\n      add\n        /* \"#utility.yul\":15769:15804   */\n      mstore\n        /* \"#utility.yul\":15845:15846   */\n      0x01\n        /* \"#utility.yul\":15832:15847   */\n      swap1\n      swap2\n      add\n      swap1\n        /* \"#utility.yul\":15731:15735   */\n      0x20\n        /* \"#utility.yul\":15724:15736   */\n      add\n        /* \"#utility.yul\":15695:15861   */\n      jump(tag_665)\n    tag_667:\n        /* \"#utility.yul\":15699:15702   */\n      pop\n      pop\n        /* \"#utility.yul\":15890:15896   */\n      dup2\n        /* \"#utility.yul\":15885:15888   */\n      dup7\n        /* \"#utility.yul\":15881:15897   */\n      add\n        /* \"#utility.yul\":15874:15897   */\n      swap4\n      pop\n        /* \"#utility.yul\":15400:15907   */\n    tag_662:\n      pop\n        /* \"#utility.yul\":15923:15926   */\n      swap2\n      swap6\n        /* \"#utility.yul\":15137:15932   */\n      swap5\n      pop\n      pop\n      pop\n      pop\n      pop\n      jump\t// out\n        /* \"#utility.yul\":15937:16334   */\n    tag_363:\n      sub(shl(0xa0, 0x01), 0x01)\n        /* \"#utility.yul\":16157:16189   */\n      swap4\n      dup5\n      and\n        /* \"#utility.yul\":16139:16190   */\n      dup2\n      mstore\n        /* \"#utility.yul\":16226:16258   */\n      swap2\n      dup4\n      and\n        /* \"#utility.yul\":16221:16223   */\n      0x20\n        /* \"#utility.yul\":16206:16224   */\n      dup4\n      add\n        /* \"#utility.yul\":16199:16259   */\n      mstore\n        /* \"#utility.yul\":16295:16327   */\n      swap1\n      swap2\n      and\n        /* \"#utility.yul\":16290:16292   */\n      0x40\n        /* \"#utility.yul\":16275:16293   */\n      dup3\n      add\n        /* \"#utility.yul\":16268:16328   */\n      mstore\n        /* \"#utility.yul\":16127:16129   */\n      0x60\n        /* \"#utility.yul\":16112:16130   */\n      add\n      swap1\n        /* \"#utility.yul\":15937:16334   */\n      jump\t// out\n\n    auxdata: 0xa264697066735822122043c9ebcd6602cb4a432f6ac924be4e05cb37771eeecfcd2c780f24d5d8ac198d64736f6c634300081b0033\n}\n",
				"bytecode": {
					"linkReferences": {},
					"object": "6080604052348015600e575f5ffd5b503380603f57604051633603021960e21b81523260048201525f602482015230604482015260640160405180910390fd5b6048816001604d565b5060a0565b6001600160a01b0382165f81815260208190526040808220805460ff191685151590811790915590519092917f6bfa7e860c3e9bf67b810cb88276b19b27c972812bac04793d369b59a1183a8391a35050565b6114db806100ad5f395ff3fe608060405234801561000f575f5ffd5b5060043610610254575f3560e01c8063821cdcb411610140578063a9bb1252116100bf578063d56a2f8a11610084578063d56a2f8a146104d9578063d6192e29146102a9578063db61df3e146103d6578063e09781f4146104ff578063e23550ce14610512578063f8d9fb9314610525575f5ffd5b8063a9bb1252146104b3578063be7c7ac3146104c6578063bf6a48f4146103b0578063ce6ec8ef146104d9578063d55bc7ae146104ec575f5ffd5b8063963de08511610105578063963de0851461045457806398ada70a146104675780639ce8431e1461047a578063a249bc3d1461048d578063a902c0ee146104a0575f5ffd5b8063821cdcb4146103fc578063834a2d471461040f5780638da5cb5b1461042257806393a8333e14610430578063943cc8f114610441575f5ffd5b80634872755a116101d7578063666e1b391161019c578063666e1b391461039d5780636ba0831d146103b05780637065cb48146103c3578063711029f8146103d657806371fca080146103e95780637e7dd3251461026d575f5ffd5b80634872755a1461033e5780634d84c524146103515780634e2ce3a61461036457806360cd268514610377578063645558f21461038a575f5ffd5b80632ac6faa61161021d5780632ac6faa6146102df5780632fa0b74a146102f257806338bf3cfa146103055780633e49fb7e14610318578063476e4aa41461032b575f5ffd5b80627dc6ab146102585780630cde0a5f1461026d57806311d6bbe614610280578063150754ac146102a957806318825d63146102bc575b5f5ffd5b61026b610266366004610e0f565b610538565b005b61026b61027b366004610ef0565b610559565b61029361028e366004610f3a565b610573565b6040516102a09190610f5a565b60405180910390f35b61026b6102b7366004610f8f565b6105f2565b6102cf6102ca366004610fdc565b610604565b60405190151581526020016102a0565b61026b6102ed366004610ff3565b610636565b61026b610300366004610f8f565b61082c565b61026b61031336600461102c565b61091e565b61026b610326366004611045565b610930565b61026b610339366004610fdc565b610945565b61026b61034c36600461108f565b610959565b61029361035f36600461102c565b61096e565b61026b6103723660046110d0565b6109ec565b610293610385366004610fdc565b610a09565b610293610398366004610ff3565b610ad1565b6102cf6103ab36600461102c565b610ae3565b61026b6103be3660046110f8565b610b00565b61026b6103d136600461102c565b610b14565b61026b6103e4366004611112565b610b5d565b61026b6103f736600461113f565b610b71565b61029361040a366004610fdc565b610b8e565b61026b61041d366004610ff3565b610bfe565b6040513081526020016102a0565b6004546040519081526020016102a0565b61026b61044f366004611167565b610c0f565b61026b610462366004611181565b610c23565b61026b6104753660046111c2565b610c38565b61026b610488366004610f3a565b610c4c565b6102cf61049b366004610f3a565b610c60565b61026b6104ae3660046111dc565b610c6c565b61026b6104c13660046111fd565b610c80565b61026b6104d436600461102c565b610c94565b6102cf6104e7366004610ff3565b610ca8565b6102cf6104fa36600461102c565b610cb9565b61026b61050d366004611217565b610cc5565b61026b610520366004611238565b610cd9565b610293610533366004610fdc565b610ced565b610540610d15565b61055561054c8361096e565b61030083610b8e565b5050565b610561610d15565b61055561056d83610573565b8261082c565b6040805160088082528183019092526060916020820181803683370190505090505f5b60088110156105ec576105aa81600861126c565b836001600160401b0316901c60ff1660f81b8282815181106105ce576105ce611289565b60200101906001600160f81b03191690815f1a905350600101610596565b50919050565b6105fa610d15565b610555828261082c565b5f600261061083610b8e565b60405161061d919061129d565b9081526040519081900360200190205460ff1692915050565b61063e610d15565b60028160405161064e919061129d565b9081526040519081900360200190205460ff161561082957600281604051610676919061129d565b908152604051908190036020018120805460ff191690555f9060039061069d90849061129d565b90815260200160405180910390205490505f600460016004805490506106c391906112b3565b815481106106d3576106d3611289565b905f5260205f200180546106e6906112c6565b80601f0160208091040260200160405190810160405280929190818152602001828054610712906112c6565b801561075d5780601f106107345761010080835404028352916020019161075d565b820191905f5260205f20905b81548152906001019060200180831161074057829003601f168201915b5050505050905081600382604051610775919061129d565b908152602001604051809103902081905550600383604051610797919061129d565b90815260200160405180910390205f90556001836040516107b8919061129d565b90815260200160405180910390205f6107d19190610daa565b80600483815481106107e5576107e5611289565b905f5260205f200190816107f99190611343565b50600480548061080b5761080b6113fd565b600190038181905f5260205f20015f6108249190610daa565b905550505b50565b610834610d15565b600282604051610844919061129d565b9081526040519081900360200190205460ff1661055557600160028360405161086d919061129d565b908152604051908190036020018120805492151560ff1990931692909217909155600454906003906108a090859061129d565b908152602001604051809103902081905550806001836040516108c3919061129d565b908152602001604051809103902090816108dd9190611343565b50600480546001810182555f919091527f8a35acfbc15ff81a39ae7d344fd709f28e8600b4aa8c65c6b64bfe7fe36bd19b016109198382611343565b505050565b610926610d15565b610829815f610d57565b610938610d15565b610555826103008361096e565b61094d610d15565b6108296102ed82610b8e565b610961610d15565b6105558261030083610573565b604080516014808252818301909252606091602082018180368337019050509050606082901b5f5b60148110156109e5578181601481106109b1576109b1611289565b1a60f81b8382815181106109c7576109c7611289565b60200101906001600160f81b03191690815f1a905350600101610996565b5050919050565b6109f4610d15565b610555610a0083610573565b6103008361096e565b6060600160048381548110610a2057610a20611289565b905f5260205f2001604051610a359190611411565b90815260200160405180910390208054610a4e906112c6565b80601f0160208091040260200160405190810160405280929190818152602001828054610a7a906112c6565b8015610ac55780601f10610a9c57610100808354040283529160200191610ac5565b820191905f5260205f20905b815481529060010190602001808311610aa857829003601f168201915b50505050509050919050565b6060600182604051610a35919061129d565b6001600160a01b03165f9081526020819052604090205460ff1690565b610b08610d15565b61055561056d8361096e565b610b1c610d15565b6001600160a01b038116610b5257325f30604051633603021960e21b8152600401610b4993929190611482565b60405180910390fd5b610829816001610d57565b610b65610d15565b61055561056d83610b8e565b610b79610d15565b610555610b858361096e565b61030083610573565b6040805160208082528183019092526060916020820181803683370190505090505f5b60208110156105ec57610bc581600861126c565b83901c60ff1660f81b828281518110610be057610be0611289565b60200101906001600160f81b03191690815f1a905350600101610bb1565b610c06610d15565b61082981610636565b610c17610d15565b61055561054c83610573565b610c2b610d15565b6105558261030083610b8e565b610c40610d15565b610555610a008361096e565b610c54610d15565b6108296102ed82610573565b5f600261061083610573565b610c74610d15565b610555610a0083610b8e565b610c88610d15565b610555610b8583610573565b610c9c610d15565b6108296102ed8261096e565b5f60028260405161061d919061129d565b5f60026106108361096e565b610ccd610d15565b610555610b8583610b8e565b610ce1610d15565b61055561054c83610b8e565b606060048281548110610d0257610d02611289565b905f5260205f20018054610a4e906112c6565b610d1e33610ae3565b158015610d315750610d2f32610ae3565b155b15610d5557323330604051630be6bab560e01b8152600401610b4993929190611482565b565b6001600160a01b0382165f81815260208190526040808220805460ff191685151590811790915590519092917f6bfa7e860c3e9bf67b810cb88276b19b27c972812bac04793d369b59a1183a8391a35050565b508054610db6906112c6565b5f825580601f10610dc5575050565b601f0160209004905f5260205f209081019061082991905b80821115610df0575f8155600101610ddd565b5090565b80356001600160a01b0381168114610e0a575f5ffd5b919050565b5f5f60408385031215610e20575f5ffd5b610e2983610df4565b946020939093013593505050565b80356001600160401b0381168114610e0a575f5ffd5b634e487b7160e01b5f52604160045260245ffd5b5f82601f830112610e70575f5ffd5b8135602083015f5f6001600160401b03841115610e8f57610e8f610e4d565b50604051601f19601f85018116603f011681018181106001600160401b0382111715610ebd57610ebd610e4d565b604052838152905080828401871015610ed4575f5ffd5b838360208301375f602085830101528094505050505092915050565b5f5f60408385031215610f01575f5ffd5b610f0a83610e37565b915060208301356001600160401b03811115610f24575f5ffd5b610f3085828601610e61565b9150509250929050565b5f60208284031215610f4a575f5ffd5b610f5382610e37565b9392505050565b602081525f82518060208401528060208501604085015e5f604082850101526040601f19601f83011684010191505092915050565b5f5f60408385031215610fa0575f5ffd5b82356001600160401b03811115610fb5575f5ffd5b610fc185828601610e61565b92505060208301356001600160401b03811115610f24575f5ffd5b5f60208284031215610fec575f5ffd5b5035919050565b5f60208284031215611003575f5ffd5b81356001600160401b03811115611018575f5ffd5b61102484828501610e61565b949350505050565b5f6020828403121561103c575f5ffd5b610f5382610df4565b5f5f60408385031215611056575f5ffd5b82356001600160401b0381111561106b575f5ffd5b61107785828601610e61565b92505061108660208401610df4565b90509250929050565b5f5f604083850312156110a0575f5ffd5b82356001600160401b038111156110b5575f5ffd5b6110c185828601610e61565b92505061108660208401610e37565b5f5f604083850312156110e1575f5ffd5b6110ea83610e37565b915061108660208401610df4565b5f5f60408385031215611109575f5ffd5b610f0a83610df4565b5f5f60408385031215611123575f5ffd5b8235915060208301356001600160401b03811115610f24575f5ffd5b5f5f60408385031215611150575f5ffd5b61115983610df4565b915061108660208401610e37565b5f5f60408385031215611178575f5ffd5b610e2983610e37565b5f5f60408385031215611192575f5ffd5b82356001600160401b038111156111a7575f5ffd5b6111b385828601610e61565b95602094909401359450505050565b5f5f604083850312156111d3575f5ffd5b6110ea83610df4565b5f5f604083850312156111ed575f5ffd5b8235915061108660208401610df4565b5f5f6040838503121561120e575f5ffd5b61115983610e37565b5f5f60408385031215611228575f5ffd5b8235915061108660208401610e37565b5f5f60408385031215611249575f5ffd5b50508035926020909101359150565b634e487b7160e01b5f52601160045260245ffd5b808202811582820484141761128357611283611258565b92915050565b634e487b7160e01b5f52603260045260245ffd5b5f82518060208501845e5f920191825250919050565b8181038181111561128357611283611258565b600181811c908216806112da57607f821691505b6020821081036105ec57634e487b7160e01b5f52602260045260245ffd5b601f82111561091957805f5260205f20601f840160051c8101602085101561131d5750805b601f840160051c820191505b8181101561133c575f8155600101611329565b5050505050565b81516001600160401b0381111561135c5761135c610e4d565b6113708161136a84546112c6565b846112f8565b6020601f8211600181146113a2575f831561138b5750848201515b5f19600385901b1c1916600184901b17845561133c565b5f84815260208120601f198516915b828110156113d157878501518255602094850194600190920191016113b1565b50848210156113ee57868401515f19600387901b60f8161c191681555b50505050600190811b01905550565b634e487b7160e01b5f52603160045260245ffd5b5f5f835461141e816112c6565b600182168015611435576001811461144a57611477565b60ff1983168652811515820286019350611477565b865f5260205f205f5b8381101561146f57815488820152600190910190602001611453565b505081860193505b509195945050505050565b6001600160a01b039384168152918316602083015290911660408201526060019056fea264697066735822122043c9ebcd6602cb4a432f6ac924be4e05cb37771eeecfcd2c780f24d5d8ac198d64736f6c634300081b0033",
					"opcodes": "PUSH1 0x80 PUSH1 0x40 MSTORE CALLVALUE DUP1 ISZERO PUSH1 0xE JUMPI PUSH0 PUSH0 REVERT JUMPDEST POP CALLER DUP1 PUSH1 0x3F JUMPI PUSH1 0x40 MLOAD PUSH4 0x36030219 PUSH1 0xE2 SHL DUP2 MSTORE ORIGIN PUSH1 0x4 DUP3 ADD MSTORE PUSH0 PUSH1 0x24 DUP3 ADD MSTORE ADDRESS PUSH1 0x44 DUP3 ADD MSTORE PUSH1 0x64 ADD PUSH1 0x40 MLOAD DUP1 SWAP2 SUB SWAP1 REVERT JUMPDEST PUSH1 0x48 DUP2 PUSH1 0x1 PUSH1 0x4D JUMP JUMPDEST POP PUSH1 0xA0 JUMP JUMPDEST PUSH1 0x1 PUSH1 0x1 PUSH1 0xA0 SHL SUB DUP3 AND PUSH0 DUP2 DUP2 MSTORE PUSH1 0x20 DUP2 SWAP1 MSTORE PUSH1 0x40 DUP1 DUP3 KECCAK256 DUP1 SLOAD PUSH1 0xFF NOT AND DUP6 ISZERO ISZERO SWAP1 DUP2 OR SWAP1 SWAP2 SSTORE SWAP1 MLOAD SWAP1 SWAP3 SWAP2 PUSH32 0x6BFA7E860C3E9BF67B810CB88276B19B27C972812BAC04793D369B59A1183A83 SWAP2 LOG3 POP POP JUMP JUMPDEST PUSH2 0x14DB DUP1 PUSH2 0xAD PUSH0 CODECOPY PUSH0 RETURN INVALID PUSH1 0x80 PUSH1 0x40 MSTORE CALLVALUE DUP1 ISZERO PUSH2 0xF JUMPI PUSH0 PUSH0 REVERT JUMPDEST POP PUSH1 0x4 CALLDATASIZE LT PUSH2 0x254 JUMPI PUSH0 CALLDATALOAD PUSH1 0xE0 SHR DUP1 PUSH4 0x821CDCB4 GT PUSH2 0x140 JUMPI DUP1 PUSH4 0xA9BB1252 GT PUSH2 0xBF JUMPI DUP1 PUSH4 0xD56A2F8A GT PUSH2 0x84 JUMPI DUP1 PUSH4 0xD56A2F8A EQ PUSH2 0x4D9 JUMPI DUP1 PUSH4 0xD6192E29 EQ PUSH2 0x2A9 JUMPI DUP1 PUSH4 0xDB61DF3E EQ PUSH2 0x3D6 JUMPI DUP1 PUSH4 0xE09781F4 EQ PUSH2 0x4FF JUMPI DUP1 PUSH4 0xE23550CE EQ PUSH2 0x512 JUMPI DUP1 PUSH4 0xF8D9FB93 EQ PUSH2 0x525 JUMPI PUSH0 PUSH0 REVERT JUMPDEST DUP1 PUSH4 0xA9BB1252 EQ PUSH2 0x4B3 JUMPI DUP1 PUSH4 0xBE7C7AC3 EQ PUSH2 0x4C6 JUMPI DUP1 PUSH4 0xBF6A48F4 EQ PUSH2 0x3B0 JUMPI DUP1 PUSH4 0xCE6EC8EF EQ PUSH2 0x4D9 JUMPI DUP1 PUSH4 0xD55BC7AE EQ PUSH2 0x4EC JUMPI PUSH0 PUSH0 REVERT JUMPDEST DUP1 PUSH4 0x963DE085 GT PUSH2 0x105 JUMPI DUP1 PUSH4 0x963DE085 EQ PUSH2 0x454 JUMPI DUP1 PUSH4 0x98ADA70A EQ PUSH2 0x467 JUMPI DUP1 PUSH4 0x9CE8431E EQ PUSH2 0x47A JUMPI DUP1 PUSH4 0xA249BC3D EQ PUSH2 0x48D JUMPI DUP1 PUSH4 0xA902C0EE EQ PUSH2 0x4A0 JUMPI PUSH0 PUSH0 REVERT JUMPDEST DUP1 PUSH4 0x821CDCB4 EQ PUSH2 0x3FC JUMPI DUP1 PUSH4 0x834A2D47 EQ PUSH2 0x40F JUMPI DUP1 PUSH4 0x8DA5CB5B EQ PUSH2 0x422 JUMPI DUP1 PUSH4 0x93A8333E EQ PUSH2 0x430 JUMPI DUP1 PUSH4 0x943CC8F1 EQ PUSH2 0x441 JUMPI PUSH0 PUSH0 REVERT JUMPDEST DUP1 PUSH4 0x4872755A GT PUSH2 0x1D7 JUMPI DUP1 PUSH4 0x666E1B39 GT PUSH2 0x19C JUMPI DUP1 PUSH4 0x666E1B39 EQ PUSH2 0x39D JUMPI DUP1 PUSH4 0x6BA0831D EQ PUSH2 0x3B0 JUMPI DUP1 PUSH4 0x7065CB48 EQ PUSH2 0x3C3 JUMPI DUP1 PUSH4 0x711029F8 EQ PUSH2 0x3D6 JUMPI DUP1 PUSH4 0x71FCA080 EQ PUSH2 0x3E9 JUMPI DUP1 PUSH4 0x7E7DD325 EQ PUSH2 0x26D JUMPI PUSH0 PUSH0 REVERT JUMPDEST DUP1 PUSH4 0x4872755A EQ PUSH2 0x33E JUMPI DUP1 PUSH4 0x4D84C524 EQ PUSH2 0x351 JUMPI DUP1 PUSH4 0x4E2CE3A6 EQ PUSH2 0x364 JUMPI DUP1 PUSH4 0x60CD2685 EQ PUSH2 0x377 JUMPI DUP1 PUSH4 0x645558F2 EQ PUSH2 0x38A JUMPI PUSH0 PUSH0 REVERT JUMPDEST DUP1 PUSH4 0x2AC6FAA6 GT PUSH2 0x21D JUMPI DUP1 PUSH4 0x2AC6FAA6 EQ PUSH2 0x2DF JUMPI DUP1 PUSH4 0x2FA0B74A EQ PUSH2 0x2F2 JUMPI DUP1 PUSH4 0x38BF3CFA EQ PUSH2 0x305 JUMPI DUP1 PUSH4 0x3E49FB7E EQ PUSH2 0x318 JUMPI DUP1 PUSH4 0x476E4AA4 EQ PUSH2 0x32B JUMPI PUSH0 PUSH0 REVERT JUMPDEST DUP1 PUSH3 0x7DC6AB EQ PUSH2 0x258 JUMPI DUP1 PUSH4 0xCDE0A5F EQ PUSH2 0x26D JUMPI DUP1 PUSH4 0x11D6BBE6 EQ PUSH2 0x280 JUMPI DUP1 PUSH4 0x150754AC EQ PUSH2 0x2A9 JUMPI DUP1 PUSH4 0x18825D63 EQ PUSH2 0x2BC JUMPI JUMPDEST PUSH0 PUSH0 REVERT JUMPDEST PUSH2 0x26B PUSH2 0x266 CALLDATASIZE PUSH1 0x4 PUSH2 0xE0F JUMP JUMPDEST PUSH2 0x538 JUMP JUMPDEST STOP JUMPDEST PUSH2 0x26B PUSH2 0x27B CALLDATASIZE PUSH1 0x4 PUSH2 0xEF0 JUMP JUMPDEST PUSH2 0x559 JUMP JUMPDEST PUSH2 0x293 PUSH2 0x28E CALLDATASIZE PUSH1 0x4 PUSH2 0xF3A JUMP JUMPDEST PUSH2 0x573 JUMP JUMPDEST PUSH1 0x40 MLOAD PUSH2 0x2A0 SWAP2 SWAP1 PUSH2 0xF5A JUMP JUMPDEST PUSH1 0x40 MLOAD DUP1 SWAP2 SUB SWAP1 RETURN JUMPDEST PUSH2 0x26B PUSH2 0x2B7 CALLDATASIZE PUSH1 0x4 PUSH2 0xF8F JUMP JUMPDEST PUSH2 0x5F2 JUMP JUMPDEST PUSH2 0x2CF PUSH2 0x2CA CALLDATASIZE PUSH1 0x4 PUSH2 0xFDC JUMP JUMPDEST PUSH2 0x604 JUMP JUMPDEST PUSH1 0x40 MLOAD SWAP1 ISZERO ISZERO DUP2 MSTORE PUSH1 0x20 ADD PUSH2 0x2A0 JUMP JUMPDEST PUSH2 0x26B PUSH2 0x2ED CALLDATASIZE PUSH1 0x4 PUSH2 0xFF3 JUMP JUMPDEST PUSH2 0x636 JUMP JUMPDEST PUSH2 0x26B PUSH2 0x300 CALLDATASIZE PUSH1 0x4 PUSH2 0xF8F JUMP JUMPDEST PUSH2 0x82C JUMP JUMPDEST PUSH2 0x26B PUSH2 0x313 CALLDATASIZE PUSH1 0x4 PUSH2 0x102C JUMP JUMPDEST PUSH2 0x91E JUMP JUMPDEST PUSH2 0x26B PUSH2 0x326 CALLDATASIZE PUSH1 0x4 PUSH2 0x1045 JUMP JUMPDEST PUSH2 0x930 JUMP JUMPDEST PUSH2 0x26B PUSH2 0x339 CALLDATASIZE PUSH1 0x4 PUSH2 0xFDC JUMP JUMPDEST PUSH2 0x945 JUMP JUMPDEST PUSH2 0x26B PUSH2 0x34C CALLDATASIZE PUSH1 0x4 PUSH2 0x108F JUMP JUMPDEST PUSH2 0x959 JUMP JUMPDEST PUSH2 0x293 PUSH2 0x35F CALLDATASIZE PUSH1 0x4 PUSH2 0x102C JUMP JUMPDEST PUSH2 0x96E JUMP JUMPDEST PUSH2 0x26B PUSH2 0x372 CALLDATASIZE PUSH1 0x4 PUSH2 0x10D0 JUMP JUMPDEST PUSH2 0x9EC JUMP JUMPDEST PUSH2 0x293 PUSH2 0x385 CALLDATASIZE PUSH1 0x4 PUSH2 0xFDC JUMP JUMPDEST PUSH2 0xA09 JUMP JUMPDEST PUSH2 0x293 PUSH2 0x398 CALLDATASIZE PUSH1 0x4 PUSH2 0xFF3 JUMP JUMPDEST PUSH2 0xAD1 JUMP JUMPDEST PUSH2 0x2CF PUSH2 0x3AB CALLDATASIZE PUSH1 0x4 PUSH2 0x102C JUMP JUMPDEST PUSH2 0xAE3 JUMP JUMPDEST PUSH2 0x26B PUSH2 0x3BE CALLDATASIZE PUSH1 0x4 PUSH2 0x10F8 JUMP JUMPDEST PUSH2 0xB00 JUMP JUMPDEST PUSH2 0x26B PUSH2 0x3D1 CALLDATASIZE PUSH1 0x4 PUSH2 0x102C JUMP JUMPDEST PUSH2 0xB14 JUMP JUMPDEST PUSH2 0x26B PUSH2 0x3E4 CALLDATASIZE PUSH1 0x4 PUSH2 0x1112 JUMP JUMPDEST PUSH2 0xB5D JUMP JUMPDEST PUSH2 0x26B PUSH2 0x3F7 CALLDATASIZE PUSH1 0x4 PUSH2 0x113F JUMP JUMPDEST PUSH2 0xB71 JUMP JUMPDEST PUSH2 0x293 PUSH2 0x40A CALLDATASIZE PUSH1 0x4 PUSH2 0xFDC JUMP JUMPDEST PUSH2 0xB8E JUMP JUMPDEST PUSH2 0x26B PUSH2 0x41D CALLDATASIZE PUSH1 0x4 PUSH2 0xFF3 JUMP JUMPDEST PUSH2 0xBFE JUMP JUMPDEST PUSH1 0x40 MLOAD ADDRESS DUP2 MSTORE PUSH1 0x20 ADD PUSH2 0x2A0 JUMP JUMPDEST PUSH1 0x4 SLOAD PUSH1 0x40 MLOAD SWAP1 DUP2 MSTORE PUSH1 0x20 ADD PUSH2 0x2A0 JUMP JUMPDEST PUSH2 0x26B PUSH2 0x44F CALLDATASIZE PUSH1 0x4 PUSH2 0x1167 JUMP JUMPDEST PUSH2 0xC0F JUMP JUMPDEST PUSH2 0x26B PUSH2 0x462 CALLDATASIZE PUSH1 0x4 PUSH2 0x1181 JUMP JUMPDEST PUSH2 0xC23 JUMP JUMPDEST PUSH2 0x26B PUSH2 0x475 CALLDATASIZE PUSH1 0x4 PUSH2 0x11C2 JUMP JUMPDEST PUSH2 0xC38 JUMP JUMPDEST PUSH2 0x26B PUSH2 0x488 CALLDATASIZE PUSH1 0x4 PUSH2 0xF3A JUMP JUMPDEST PUSH2 0xC4C JUMP JUMPDEST PUSH2 0x2CF PUSH2 0x49B CALLDATASIZE PUSH1 0x4 PUSH2 0xF3A JUMP JUMPDEST PUSH2 0xC60 JUMP JUMPDEST PUSH2 0x26B PUSH2 0x4AE CALLDATASIZE PUSH1 0x4 PUSH2 0x11DC JUMP JUMPDEST PUSH2 0xC6C JUMP JUMPDEST PUSH2 0x26B PUSH2 0x4C1 CALLDATASIZE PUSH1 0x4 PUSH2 0x11FD JUMP JUMPDEST PUSH2 0xC80 JUMP JUMPDEST PUSH2 0x26B PUSH2 0x4D4 CALLDATASIZE PUSH1 0x4 PUSH2 0x102C JUMP JUMPDEST PUSH2 0xC94 JUMP JUMPDEST PUSH2 0x2CF PUSH2 0x4E7 CALLDATASIZE PUSH1 0x4 PUSH2 0xFF3 JUMP JUMPDEST PUSH2 0xCA8 JUMP JUMPDEST PUSH2 0x2CF PUSH2 0x4FA CALLDATASIZE PUSH1 0x4 PUSH2 0x102C JUMP JUMPDEST PUSH2 0xCB9 JUMP JUMPDEST PUSH2 0x26B PUSH2 0x50D CALLDATASIZE PUSH1 0x4 PUSH2 0x1217 JUMP JUMPDEST PUSH2 0xCC5 JUMP JUMPDEST PUSH2 0x26B PUSH2 0x520 CALLDATASIZE PUSH1 0x4 PUSH2 0x1238 JUMP JUMPDEST PUSH2 0xCD9 JUMP JUMPDEST PUSH2 0x293 PUSH2 0x533 CALLDATASIZE PUSH1 0x4 PUSH2 0xFDC JUMP JUMPDEST PUSH2 0xCED JUMP JUMPDEST PUSH2 0x540 PUSH2 0xD15 JUMP JUMPDEST PUSH2 0x555 PUSH2 0x54C DUP4 PUSH2 0x96E JUMP JUMPDEST PUSH2 0x300 DUP4 PUSH2 0xB8E JUMP JUMPDEST POP POP JUMP JUMPDEST PUSH2 0x561 PUSH2 0xD15 JUMP JUMPDEST PUSH2 0x555 PUSH2 0x56D DUP4 PUSH2 0x573 JUMP JUMPDEST DUP3 PUSH2 0x82C JUMP JUMPDEST PUSH1 0x40 DUP1 MLOAD PUSH1 0x8 DUP1 DUP3 MSTORE DUP2 DUP4 ADD SWAP1 SWAP3 MSTORE PUSH1 0x60 SWAP2 PUSH1 0x20 DUP3 ADD DUP2 DUP1 CALLDATASIZE DUP4 CALLDATACOPY ADD SWAP1 POP POP SWAP1 POP PUSH0 JUMPDEST PUSH1 0x8 DUP2 LT ISZERO PUSH2 0x5EC JUMPI PUSH2 0x5AA DUP2 PUSH1 0x8 PUSH2 0x126C JUMP JUMPDEST DUP4 PUSH1 0x1 PUSH1 0x1 PUSH1 0x40 SHL SUB AND SWAP1 SHR PUSH1 0xFF AND PUSH1 0xF8 SHL DUP3 DUP3 DUP2 MLOAD DUP2 LT PUSH2 0x5CE JUMPI PUSH2 0x5CE PUSH2 0x1289 JUMP JUMPDEST PUSH1 0x20 ADD ADD SWAP1 PUSH1 0x1 PUSH1 0x1 PUSH1 0xF8 SHL SUB NOT AND SWAP1 DUP2 PUSH0 BYTE SWAP1 MSTORE8 POP PUSH1 0x1 ADD PUSH2 0x596 JUMP JUMPDEST POP SWAP2 SWAP1 POP JUMP JUMPDEST PUSH2 0x5FA PUSH2 0xD15 JUMP JUMPDEST PUSH2 0x555 DUP3 DUP3 PUSH2 0x82C JUMP JUMPDEST PUSH0 PUSH1 0x2 PUSH2 0x610 DUP4 PUSH2 0xB8E JUMP JUMPDEST PUSH1 0x40 MLOAD PUSH2 0x61D SWAP2 SWAP1 PUSH2 0x129D JUMP JUMPDEST SWAP1 DUP2 MSTORE PUSH1 0x40 MLOAD SWAP1 DUP2 SWAP1 SUB PUSH1 0x20 ADD SWAP1 KECCAK256 SLOAD PUSH1 0xFF AND SWAP3 SWAP2 POP POP JUMP JUMPDEST PUSH2 0x63E PUSH2 0xD15 JUMP JUMPDEST PUSH1 0x2 DUP2 PUSH1 0x40 MLOAD PUSH2 0x64E SWAP2 SWAP1 PUSH2 0x129D JUMP JUMPDEST SWAP1 DUP2 MSTORE PUSH1 0x40 MLOAD SWAP1 DUP2 SWAP1 SUB PUSH1 0x20 ADD SWAP1 KECCAK256 SLOAD PUSH1 0xFF AND ISZERO PUSH2 0x829 JUMPI PUSH1 0x2 DUP2 PUSH1 0x40 MLOAD PUSH2 0x676 SWAP2 SWAP1 PUSH2 0x129D JUMP JUMPDEST SWAP1 DUP2 MSTORE PUSH1 0x40 MLOAD SWAP1 DUP2 SWAP1 SUB PUSH1 0x20 ADD DUP2 KECCAK256 DUP1 SLOAD PUSH1 0xFF NOT AND SWAP1 SSTORE PUSH0 SWAP1 PUSH1 0x3 SWAP1 PUSH2 0x69D SWAP1 DUP5 SWAP1 PUSH2 0x129D JUMP JUMPDEST SWAP1 DUP2 MSTORE PUSH1 0x20 ADD PUSH1 0x40 MLOAD DUP1 SWAP2 SUB SWAP1 KECCAK256 SLOAD SWAP1 POP PUSH0 PUSH1 0x4 PUSH1 0x1 PUSH1 0x4 DUP1 SLOAD SWAP1 POP PUSH2 0x6C3 SWAP2 SWAP1 PUSH2 0x12B3 JUMP JUMPDEST DUP2 SLOAD DUP2 LT PUSH2 0x6D3 JUMPI PUSH2 0x6D3 PUSH2 0x1289 JUMP JUMPDEST SWAP1 PUSH0 MSTORE PUSH1 0x20 PUSH0 KECCAK256 ADD DUP1 SLOAD PUSH2 0x6E6 SWAP1 PUSH2 0x12C6 JUMP JUMPDEST DUP1 PUSH1 0x1F ADD PUSH1 0x20 DUP1 SWAP2 DIV MUL PUSH1 0x20 ADD PUSH1 0x40 MLOAD SWAP1 DUP2 ADD PUSH1 0x40 MSTORE DUP1 SWAP3 SWAP2 SWAP1 DUP2 DUP2 MSTORE PUSH1 0x20 ADD DUP3 DUP1 SLOAD PUSH2 0x712 SWAP1 PUSH2 0x12C6 JUMP JUMPDEST DUP1 ISZERO PUSH2 0x75D JUMPI DUP1 PUSH1 0x1F LT PUSH2 0x734 JUMPI PUSH2 0x100 DUP1 DUP4 SLOAD DIV MUL DUP4 MSTORE SWAP2 PUSH1 0x20 ADD SWAP2 PUSH2 0x75D JUMP JUMPDEST DUP3 ADD SWAP2 SWAP1 PUSH0 MSTORE PUSH1 0x20 PUSH0 KECCAK256 SWAP1 JUMPDEST DUP2 SLOAD DUP2 MSTORE SWAP1 PUSH1 0x1 ADD SWAP1 PUSH1 0x20 ADD DUP1 DUP4 GT PUSH2 0x740 JUMPI DUP3 SWAP1 SUB PUSH1 0x1F AND DUP3 ADD SWAP2 JUMPDEST POP POP POP POP POP SWAP1 POP DUP2 PUSH1 0x3 DUP3 PUSH1 0x40 MLOAD PUSH2 0x775 SWAP2 SWAP1 PUSH2 0x129D JUMP JUMPDEST SWAP1 DUP2 MSTORE PUSH1 0x20 ADD PUSH1 0x40 MLOAD DUP1 SWAP2 SUB SWAP1 KECCAK256 DUP2 SWAP1 SSTORE POP PUSH1 0x3 DUP4 PUSH1 0x40 MLOAD PUSH2 0x797 SWAP2 SWAP1 PUSH2 0x129D JUMP JUMPDEST SWAP1 DUP2 MSTORE PUSH1 0x20 ADD PUSH1 0x40 MLOAD DUP1 SWAP2 SUB SWAP1 KECCAK256 PUSH0 SWAP1 SSTORE PUSH1 0x1 DUP4 PUSH1 0x40 MLOAD PUSH2 0x7B8 SWAP2 SWAP1 PUSH2 0x129D JUMP JUMPDEST SWAP1 DUP2 MSTORE PUSH1 0x20 ADD PUSH1 0x40 MLOAD DUP1 SWAP2 SUB SWAP1 KECCAK256 PUSH0 PUSH2 0x7D1 SWAP2 SWAP1 PUSH2 0xDAA JUMP JUMPDEST DUP1 PUSH1 0x4 DUP4 DUP2 SLOAD DUP2 LT PUSH2 0x7E5 JUMPI PUSH2 0x7E5 PUSH2 0x1289 JUMP JUMPDEST SWAP1 PUSH0 MSTORE PUSH1 0x20 PUSH0 KECCAK256 ADD SWAP1 DUP2 PUSH2 0x7F9 SWAP2 SWAP1 PUSH2 0x1343 JUMP JUMPDEST POP PUSH1 0x4 DUP1 SLOAD DUP1 PUSH2 0x80B JUMPI PUSH2 0x80B PUSH2 0x13FD JUMP JUMPDEST PUSH1 0x1 SWAP1 SUB DUP2 DUP2 SWAP1 PUSH0 MSTORE PUSH1 0x20 PUSH0 KECCAK256 ADD PUSH0 PUSH2 0x824 SWAP2 SWAP1 PUSH2 0xDAA JUMP JUMPDEST SWAP1 SSTORE POP POP JUMPDEST POP JUMP JUMPDEST PUSH2 0x834 PUSH2 0xD15 JUMP JUMPDEST PUSH1 0x2 DUP3 PUSH1 0x40 MLOAD PUSH2 0x844 SWAP2 SWAP1 PUSH2 0x129D JUMP JUMPDEST SWAP1 DUP2 MSTORE PUSH1 0x40 MLOAD SWAP1 DUP2 SWAP1 SUB PUSH1 0x20 ADD SWAP1 KECCAK256 SLOAD PUSH1 0xFF AND PUSH2 0x555 JUMPI PUSH1 0x1 PUSH1 0x2 DUP4 PUSH1 0x40 MLOAD PUSH2 0x86D SWAP2 SWAP1 PUSH2 0x129D JUMP JUMPDEST SWAP1 DUP2 MSTORE PUSH1 0x40 MLOAD SWAP1 DUP2 SWAP1 SUB PUSH1 0x20 ADD DUP2 KECCAK256 DUP1 SLOAD SWAP3 ISZERO ISZERO PUSH1 0xFF NOT SWAP1 SWAP4 AND SWAP3 SWAP1 SWAP3 OR SWAP1 SWAP2 SSTORE PUSH1 0x4 SLOAD SWAP1 PUSH1 0x3 SWAP1 PUSH2 0x8A0 SWAP1 DUP6 SWAP1 PUSH2 0x129D JUMP JUMPDEST SWAP1 DUP2 MSTORE PUSH1 0x20 ADD PUSH1 0x40 MLOAD DUP1 SWAP2 SUB SWAP1 KECCAK256 DUP2 SWAP1 SSTORE POP DUP1 PUSH1 0x1 DUP4 PUSH1 0x40 MLOAD PUSH2 0x8C3 SWAP2 SWAP1 PUSH2 0x129D JUMP JUMPDEST SWAP1 DUP2 MSTORE PUSH1 0x20 ADD PUSH1 0x40 MLOAD DUP1 SWAP2 SUB SWAP1 KECCAK256 SWAP1 DUP2 PUSH2 0x8DD SWAP2 SWAP1 PUSH2 0x1343 JUMP JUMPDEST POP PUSH1 0x4 DUP1 SLOAD PUSH1 0x1 DUP2 ADD DUP3 SSTORE PUSH0 SWAP2 SWAP1 SWAP2 MSTORE PUSH32 0x8A35ACFBC15FF81A39AE7D344FD709F28E8600B4AA8C65C6B64BFE7FE36BD19B ADD PUSH2 0x919 DUP4 DUP3 PUSH2 0x1343 JUMP JUMPDEST POP POP POP JUMP JUMPDEST PUSH2 0x926 PUSH2 0xD15 JUMP JUMPDEST PUSH2 0x829 DUP2 PUSH0 PUSH2 0xD57 JUMP JUMPDEST PUSH2 0x938 PUSH2 0xD15 JUMP JUMPDEST PUSH2 0x555 DUP3 PUSH2 0x300 DUP4 PUSH2 0x96E JUMP JUMPDEST PUSH2 0x94D PUSH2 0xD15 JUMP JUMPDEST PUSH2 0x829 PUSH2 0x2ED DUP3 PUSH2 0xB8E JUMP JUMPDEST PUSH2 0x961 PUSH2 0xD15 JUMP JUMPDEST PUSH2 0x555 DUP3 PUSH2 0x300 DUP4 PUSH2 0x573 JUMP JUMPDEST PUSH1 0x40 DUP1 MLOAD PUSH1 0x14 DUP1 DUP3 MSTORE DUP2 DUP4 ADD SWAP1 SWAP3 MSTORE PUSH1 0x60 SWAP2 PUSH1 0x20 DUP3 ADD DUP2 DUP1 CALLDATASIZE DUP4 CALLDATACOPY ADD SWAP1 POP POP SWAP1 POP PUSH1 0x60 DUP3 SWAP1 SHL PUSH0 JUMPDEST PUSH1 0x14 DUP2 LT ISZERO PUSH2 0x9E5 JUMPI DUP2 DUP2 PUSH1 0x14 DUP2 LT PUSH2 0x9B1 JUMPI PUSH2 0x9B1 PUSH2 0x1289 JUMP JUMPDEST BYTE PUSH1 0xF8 SHL DUP4 DUP3 DUP2 MLOAD DUP2 LT PUSH2 0x9C7 JUMPI PUSH2 0x9C7 PUSH2 0x1289 JUMP JUMPDEST PUSH1 0x20 ADD ADD SWAP1 PUSH1 0x1 PUSH1 0x1 PUSH1 0xF8 SHL SUB NOT AND SWAP1 DUP2 PUSH0 BYTE SWAP1 MSTORE8 POP PUSH1 0x1 ADD PUSH2 0x996 JUMP JUMPDEST POP POP SWAP2 SWAP1 POP JUMP JUMPDEST PUSH2 0x9F4 PUSH2 0xD15 JUMP JUMPDEST PUSH2 0x555 PUSH2 0xA00 DUP4 PUSH2 0x573 JUMP JUMPDEST PUSH2 0x300 DUP4 PUSH2 0x96E JUMP JUMPDEST PUSH1 0x60 PUSH1 0x1 PUSH1 0x4 DUP4 DUP2 SLOAD DUP2 LT PUSH2 0xA20 JUMPI PUSH2 0xA20 PUSH2 0x1289 JUMP JUMPDEST SWAP1 PUSH0 MSTORE PUSH1 0x20 PUSH0 KECCAK256 ADD PUSH1 0x40 MLOAD PUSH2 0xA35 SWAP2 SWAP1 PUSH2 0x1411 JUMP JUMPDEST SWAP1 DUP2 MSTORE PUSH1 0x20 ADD PUSH1 0x40 MLOAD DUP1 SWAP2 SUB SWAP1 KECCAK256 DUP1 SLOAD PUSH2 0xA4E SWAP1 PUSH2 0x12C6 JUMP JUMPDEST DUP1 PUSH1 0x1F ADD PUSH1 0x20 DUP1 SWAP2 DIV MUL PUSH1 0x20 ADD PUSH1 0x40 MLOAD SWAP1 DUP2 ADD PUSH1 0x40 MSTORE DUP1 SWAP3 SWAP2 SWAP1 DUP2 DUP2 MSTORE PUSH1 0x20 ADD DUP3 DUP1 SLOAD PUSH2 0xA7A SWAP1 PUSH2 0x12C6 JUMP JUMPDEST DUP1 ISZERO PUSH2 0xAC5 JUMPI DUP1 PUSH1 0x1F LT PUSH2 0xA9C JUMPI PUSH2 0x100 DUP1 DUP4 SLOAD DIV MUL DUP4 MSTORE SWAP2 PUSH1 0x20 ADD SWAP2 PUSH2 0xAC5 JUMP JUMPDEST DUP3 ADD SWAP2 SWAP1 PUSH0 MSTORE PUSH1 0x20 PUSH0 KECCAK256 SWAP1 JUMPDEST DUP2 SLOAD DUP2 MSTORE SWAP1 PUSH1 0x1 ADD SWAP1 PUSH1 0x20 ADD DUP1 DUP4 GT PUSH2 0xAA8 JUMPI DUP3 SWAP1 SUB PUSH1 0x1F AND DUP3 ADD SWAP2 JUMPDEST POP POP POP POP POP SWAP1 POP SWAP2 SWAP1 POP JUMP JUMPDEST PUSH1 0x60 PUSH1 0x1 DUP3 PUSH1 0x40 MLOAD PUSH2 0xA35 SWAP2 SWAP1 PUSH2 0x129D JUMP JUMPDEST PUSH1 0x1 PUSH1 0x1 PUSH1 0xA0 SHL SUB AND PUSH0 SWAP1 DUP2 MSTORE PUSH1 0x20 DUP2 SWAP1 MSTORE PUSH1 0x40 SWAP1 KECCAK256 SLOAD PUSH1 0xFF AND SWAP1 JUMP JUMPDEST PUSH2 0xB08 PUSH2 0xD15 JUMP JUMPDEST PUSH2 0x555 PUSH2 0x56D DUP4 PUSH2 0x96E JUMP JUMPDEST PUSH2 0xB1C PUSH2 0xD15 JUMP JUMPDEST PUSH1 0x1 PUSH1 0x1 PUSH1 0xA0 SHL SUB DUP2 AND PUSH2 0xB52 JUMPI ORIGIN PUSH0 ADDRESS PUSH1 0x40 MLOAD PUSH4 0x36030219 PUSH1 0xE2 SHL DUP2 MSTORE PUSH1 0x4 ADD PUSH2 0xB49 SWAP4 SWAP3 SWAP2 SWAP1 PUSH2 0x1482 JUMP JUMPDEST PUSH1 0x40 MLOAD DUP1 SWAP2 SUB SWAP1 REVERT JUMPDEST PUSH2 0x829 DUP2 PUSH1 0x1 PUSH2 0xD57 JUMP JUMPDEST PUSH2 0xB65 PUSH2 0xD15 JUMP JUMPDEST PUSH2 0x555 PUSH2 0x56D DUP4 PUSH2 0xB8E JUMP JUMPDEST PUSH2 0xB79 PUSH2 0xD15 JUMP JUMPDEST PUSH2 0x555 PUSH2 0xB85 DUP4 PUSH2 0x96E JUMP JUMPDEST PUSH2 0x300 DUP4 PUSH2 0x573 JUMP JUMPDEST PUSH1 0x40 DUP1 MLOAD PUSH1 0x20 DUP1 DUP3 MSTORE DUP2 DUP4 ADD SWAP1 SWAP3 MSTORE PUSH1 0x60 SWAP2 PUSH1 0x20 DUP3 ADD DUP2 DUP1 CALLDATASIZE DUP4 CALLDATACOPY ADD SWAP1 POP POP SWAP1 POP PUSH0 JUMPDEST PUSH1 0x20 DUP2 LT ISZERO PUSH2 0x5EC JUMPI PUSH2 0xBC5 DUP2 PUSH1 0x8 PUSH2 0x126C JUMP JUMPDEST DUP4 SWAP1 SHR PUSH1 0xFF AND PUSH1 0xF8 SHL DUP3 DUP3 DUP2 MLOAD DUP2 LT PUSH2 0xBE0 JUMPI PUSH2 0xBE0 PUSH2 0x1289 JUMP JUMPDEST PUSH1 0x20 ADD ADD SWAP1 PUSH1 0x1 PUSH1 0x1 PUSH1 0xF8 SHL SUB NOT AND SWAP1 DUP2 PUSH0 BYTE SWAP1 MSTORE8 POP PUSH1 0x1 ADD PUSH2 0xBB1 JUMP JUMPDEST PUSH2 0xC06 PUSH2 0xD15 JUMP JUMPDEST PUSH2 0x829 DUP2 PUSH2 0x636 JUMP JUMPDEST PUSH2 0xC17 PUSH2 0xD15 JUMP JUMPDEST PUSH2 0x555 PUSH2 0x54C DUP4 PUSH2 0x573 JUMP JUMPDEST PUSH2 0xC2B PUSH2 0xD15 JUMP JUMPDEST PUSH2 0x555 DUP3 PUSH2 0x300 DUP4 PUSH2 0xB8E JUMP JUMPDEST PUSH2 0xC40 PUSH2 0xD15 JUMP JUMPDEST PUSH2 0x555 PUSH2 0xA00 DUP4 PUSH2 0x96E JUMP JUMPDEST PUSH2 0xC54 PUSH2 0xD15 JUMP JUMPDEST PUSH2 0x829 PUSH2 0x2ED DUP3 PUSH2 0x573 JUMP JUMPDEST PUSH0 PUSH1 0x2 PUSH2 0x610 DUP4 PUSH2 0x573 JUMP JUMPDEST PUSH2 0xC74 PUSH2 0xD15 JUMP JUMPDEST PUSH2 0x555 PUSH2 0xA00 DUP4 PUSH2 0xB8E JUMP JUMPDEST PUSH2 0xC88 PUSH2 0xD15 JUMP JUMPDEST PUSH2 0x555 PUSH2 0xB85 DUP4 PUSH2 0x573 JUMP JUMPDEST PUSH2 0xC9C PUSH2 0xD15 JUMP JUMPDEST PUSH2 0x829 PUSH2 0x2ED DUP3 PUSH2 0x96E JUMP JUMPDEST PUSH0 PUSH1 0x2 DUP3 PUSH1 0x40 MLOAD PUSH2 0x61D SWAP2 SWAP1 PUSH2 0x129D JUMP JUMPDEST PUSH0 PUSH1 0x2 PUSH2 0x610 DUP4 PUSH2 0x96E JUMP JUMPDEST PUSH2 0xCCD PUSH2 0xD15 JUMP JUMPDEST PUSH2 0x555 PUSH2 0xB85 DUP4 PUSH2 0xB8E JUMP JUMPDEST PUSH2 0xCE1 PUSH2 0xD15 JUMP JUMPDEST PUSH2 0x555 PUSH2 0x54C DUP4 PUSH2 0xB8E JUMP JUMPDEST PUSH1 0x60 PUSH1 0x4 DUP3 DUP2 SLOAD DUP2 LT PUSH2 0xD02 JUMPI PUSH2 0xD02 PUSH2 0x1289 JUMP JUMPDEST SWAP1 PUSH0 MSTORE PUSH1 0x20 PUSH0 KECCAK256 ADD DUP1 SLOAD PUSH2 0xA4E SWAP1 PUSH2 0x12C6 JUMP JUMPDEST PUSH2 0xD1E CALLER PUSH2 0xAE3 JUMP JUMPDEST ISZERO DUP1 ISZERO PUSH2 0xD31 JUMPI POP PUSH2 0xD2F ORIGIN PUSH2 0xAE3 JUMP JUMPDEST ISZERO JUMPDEST ISZERO PUSH2 0xD55 JUMPI ORIGIN CALLER ADDRESS PUSH1 0x40 MLOAD PUSH4 0xBE6BAB5 PUSH1 0xE0 SHL DUP2 MSTORE PUSH1 0x4 ADD PUSH2 0xB49 SWAP4 SWAP3 SWAP2 SWAP1 PUSH2 0x1482 JUMP JUMPDEST JUMP JUMPDEST PUSH1 0x1 PUSH1 0x1 PUSH1 0xA0 SHL SUB DUP3 AND PUSH0 DUP2 DUP2 MSTORE PUSH1 0x20 DUP2 SWAP1 MSTORE PUSH1 0x40 DUP1 DUP3 KECCAK256 DUP1 SLOAD PUSH1 0xFF NOT AND DUP6 ISZERO ISZERO SWAP1 DUP2 OR SWAP1 SWAP2 SSTORE SWAP1 MLOAD SWAP1 SWAP3 SWAP2 PUSH32 0x6BFA7E860C3E9BF67B810CB88276B19B27C972812BAC04793D369B59A1183A83 SWAP2 LOG3 POP POP JUMP JUMPDEST POP DUP1 SLOAD PUSH2 0xDB6 SWAP1 PUSH2 0x12C6 JUMP JUMPDEST PUSH0 DUP3 SSTORE DUP1 PUSH1 0x1F LT PUSH2 0xDC5 JUMPI POP POP JUMP JUMPDEST PUSH1 0x1F ADD PUSH1 0x20 SWAP1 DIV SWAP1 PUSH0 MSTORE PUSH1 0x20 PUSH0 KECCAK256 SWAP1 DUP2 ADD SWAP1 PUSH2 0x829 SWAP2 SWAP1 JUMPDEST DUP1 DUP3 GT ISZERO PUSH2 0xDF0 JUMPI PUSH0 DUP2 SSTORE PUSH1 0x1 ADD PUSH2 0xDDD JUMP JUMPDEST POP SWAP1 JUMP JUMPDEST DUP1 CALLDATALOAD PUSH1 0x1 PUSH1 0x1 PUSH1 0xA0 SHL SUB DUP2 AND DUP2 EQ PUSH2 0xE0A JUMPI PUSH0 PUSH0 REVERT JUMPDEST SWAP2 SWAP1 POP JUMP JUMPDEST PUSH0 PUSH0 PUSH1 0x40 DUP4 DUP6 SUB SLT ISZERO PUSH2 0xE20 JUMPI PUSH0 PUSH0 REVERT JUMPDEST PUSH2 0xE29 DUP4 PUSH2 0xDF4 JUMP JUMPDEST SWAP5 PUSH1 0x20 SWAP4 SWAP1 SWAP4 ADD CALLDATALOAD SWAP4 POP POP POP JUMP JUMPDEST DUP1 CALLDATALOAD PUSH1 0x1 PUSH1 0x1 PUSH1 0x40 SHL SUB DUP2 AND DUP2 EQ PUSH2 0xE0A JUMPI PUSH0 PUSH0 REVERT JUMPDEST PUSH4 0x4E487B71 PUSH1 0xE0 SHL PUSH0 MSTORE PUSH1 0x41 PUSH1 0x4 MSTORE PUSH1 0x24 PUSH0 REVERT JUMPDEST PUSH0 DUP3 PUSH1 0x1F DUP4 ADD SLT PUSH2 0xE70 JUMPI PUSH0 PUSH0 REVERT JUMPDEST DUP2 CALLDATALOAD PUSH1 0x20 DUP4 ADD PUSH0 PUSH0 PUSH1 0x1 PUSH1 0x1 PUSH1 0x40 SHL SUB DUP5 GT ISZERO PUSH2 0xE8F JUMPI PUSH2 0xE8F PUSH2 0xE4D JUMP JUMPDEST POP PUSH1 0x40 MLOAD PUSH1 0x1F NOT PUSH1 0x1F DUP6 ADD DUP2 AND PUSH1 0x3F ADD AND DUP2 ADD DUP2 DUP2 LT PUSH1 0x1 PUSH1 0x1 PUSH1 0x40 SHL SUB DUP3 GT OR ISZERO PUSH2 0xEBD JUMPI PUSH2 0xEBD PUSH2 0xE4D JUMP JUMPDEST PUSH1 0x40 MSTORE DUP4 DUP2 MSTORE SWAP1 POP DUP1 DUP3 DUP5 ADD DUP8 LT ISZERO PUSH2 0xED4 JUMPI PUSH0 PUSH0 REVERT JUMPDEST DUP4 DUP4 PUSH1 0x20 DUP4 ADD CALLDATACOPY PUSH0 PUSH1 0x20 DUP6 DUP4 ADD ADD MSTORE DUP1 SWAP5 POP POP POP POP POP SWAP3 SWAP2 POP POP JUMP JUMPDEST PUSH0 PUSH0 PUSH1 0x40 DUP4 DUP6 SUB SLT ISZERO PUSH2 0xF01 JUMPI PUSH0 PUSH0 REVERT JUMPDEST PUSH2 0xF0A DUP4 PUSH2 0xE37 JUMP JUMPDEST SWAP2 POP PUSH1 0x20 DUP4 ADD CALLDATALOAD PUSH1 0x1 PUSH1 0x1 PUSH1 0x40 SHL SUB DUP2 GT ISZERO PUSH2 0xF24 JUMPI PUSH0 PUSH0 REVERT JUMPDEST PUSH2 0xF30 DUP6 DUP3 DUP7 ADD PUSH2 0xE61 JUMP JUMPDEST SWAP2 POP POP SWAP3 POP SWAP3 SWAP1 POP JUMP JUMPDEST PUSH0 PUSH1 0x20 DUP3 DUP5 SUB SLT ISZERO PUSH2 0xF4A JUMPI PUSH0 PUSH0 REVERT JUMPDEST PUSH2 0xF53 DUP3 PUSH2 0xE37 JUMP JUMPDEST SWAP4 SWAP3 POP POP POP JUMP JUMPDEST PUSH1 0x20 DUP2 MSTORE PUSH0 DUP3 MLOAD DUP1 PUSH1 0x20 DUP5 ADD MSTORE DUP1 PUSH1 0x20 DUP6 ADD PUSH1 0x40 DUP6 ADD MCOPY PUSH0 PUSH1 0x40 DUP3 DUP6 ADD ADD MSTORE PUSH1 0x40 PUSH1 0x1F NOT PUSH1 0x1F DUP4 ADD AND DUP5 ADD ADD SWAP2 POP POP SWAP3 SWAP2 POP POP JUMP JUMPDEST PUSH0 PUSH0 PUSH1 0x40 DUP4 DUP6 SUB SLT ISZERO PUSH2 0xFA0 JUMPI PUSH0 PUSH0 REVERT JUMPDEST DUP3 CALLDATALOAD PUSH1 0x1 PUSH1 0x1 PUSH1 0x40 SHL SUB DUP2 GT ISZERO PUSH2 0xFB5 JUMPI PUSH0 PUSH0 REVERT JUMPDEST PUSH2 0xFC1 DUP6 DUP3 DUP7 ADD PUSH2 0xE61 JUMP JUMPDEST SWAP3 POP POP PUSH1 0x20 DUP4 ADD CALLDATALOAD PUSH1 0x1 PUSH1 0x1 PUSH1 0x40 SHL SUB DUP2 GT ISZERO PUSH2 0xF24 JUMPI PUSH0 PUSH0 REVERT JUMPDEST PUSH0 PUSH1 0x20 DUP3 DUP5 SUB SLT ISZERO PUSH2 0xFEC JUMPI PUSH0 PUSH0 REVERT JUMPDEST POP CALLDATALOAD SWAP2 SWAP1 POP JUMP JUMPDEST PUSH0 PUSH1 0x20 DUP3 DUP5 SUB SLT ISZERO PUSH2 0x1003 JUMPI PUSH0 PUSH0 REVERT JUMPDEST DUP2 CALLDATALOAD PUSH1 0x1 PUSH1 0x1 PUSH1 0x40 SHL SUB DUP2 GT ISZERO PUSH2 0x1018 JUMPI PUSH0 PUSH0 REVERT JUMPDEST PUSH2 0x1024 DUP5 DUP3 DUP6 ADD PUSH2 0xE61 JUMP JUMPDEST SWAP5 SWAP4 POP POP POP POP JUMP JUMPDEST PUSH0 PUSH1 0x20 DUP3 DUP5 SUB SLT ISZERO PUSH2 0x103C JUMPI PUSH0 PUSH0 REVERT JUMPDEST PUSH2 0xF53 DUP3 PUSH2 0xDF4 JUMP JUMPDEST PUSH0 PUSH0 PUSH1 0x40 DUP4 DUP6 SUB SLT ISZERO PUSH2 0x1056 JUMPI PUSH0 PUSH0 REVERT JUMPDEST DUP3 CALLDATALOAD PUSH1 0x1 PUSH1 0x1 PUSH1 0x40 SHL SUB DUP2 GT ISZERO PUSH2 0x106B JUMPI PUSH0 PUSH0 REVERT JUMPDEST PUSH2 0x1077 DUP6 DUP3 DUP7 ADD PUSH2 0xE61 JUMP JUMPDEST SWAP3 POP POP PUSH2 0x1086 PUSH1 0x20 DUP5 ADD PUSH2 0xDF4 JUMP JUMPDEST SWAP1 POP SWAP3 POP SWAP3 SWAP1 POP JUMP JUMPDEST PUSH0 PUSH0 PUSH1 0x40 DUP4 DUP6 SUB SLT ISZERO PUSH2 0x10A0 JUMPI PUSH0 PUSH0 REVERT JUMPDEST DUP3 CALLDATALOAD PUSH1 0x1 PUSH1 0x1 PUSH1 0x40 SHL SUB DUP2 GT ISZERO PUSH2 0x10B5 JUMPI PUSH0 PUSH0 REVERT JUMPDEST PUSH2 0x10C1 DUP6 DUP3 DUP7 ADD PUSH2 0xE61 JUMP JUMPDEST SWAP3 POP POP PUSH2 0x1086 PUSH1 0x20 DUP5 ADD PUSH2 0xE37 JUMP JUMPDEST PUSH0 PUSH0 PUSH1 0x40 DUP4 DUP6 SUB SLT ISZERO PUSH2 0x10E1 JUMPI PUSH0 PUSH0 REVERT JUMPDEST PUSH2 0x10EA DUP4 PUSH2 0xE37 JUMP JUMPDEST SWAP2 POP PUSH2 0x1086 PUSH1 0x20 DUP5 ADD PUSH2 0xDF4 JUMP JUMPDEST PUSH0 PUSH0 PUSH1 0x40 DUP4 DUP6 SUB SLT ISZERO PUSH2 0x1109 JUMPI PUSH0 PUSH0 REVERT JUMPDEST PUSH2 0xF0A DUP4 PUSH2 0xDF4 JUMP JUMPDEST PUSH0 PUSH0 PUSH1 0x40 DUP4 DUP6 SUB SLT ISZERO PUSH2 0x1123 JUMPI PUSH0 PUSH0 REVERT JUMPDEST DUP3 CALLDATALOAD SWAP2 POP PUSH1 0x20 DUP4 ADD CALLDATALOAD PUSH1 0x1 PUSH1 0x1 PUSH1 0x40 SHL SUB DUP2 GT ISZERO PUSH2 0xF24 JUMPI PUSH0 PUSH0 REVERT JUMPDEST PUSH0 PUSH0 PUSH1 0x40 DUP4 DUP6 SUB SLT ISZERO PUSH2 0x1150 JUMPI PUSH0 PUSH0 REVERT JUMPDEST PUSH2 0x1159 DUP4 PUSH2 0xDF4 JUMP JUMPDEST SWAP2 POP PUSH2 0x1086 PUSH1 0x20 DUP5 ADD PUSH2 0xE37 JUMP JUMPDEST PUSH0 PUSH0 PUSH1 0x40 DUP4 DUP6 SUB SLT ISZERO PUSH2 0x1178 JUMPI PUSH0 PUSH0 REVERT JUMPDEST PUSH2 0xE29 DUP4 PUSH2 0xE37 JUMP JUMPDEST PUSH0 PUSH0 PUSH1 0x40 DUP4 DUP6 SUB SLT ISZERO PUSH2 0x1192 JUMPI PUSH0 PUSH0 REVERT JUMPDEST DUP3 CALLDATALOAD PUSH1 0x1 PUSH1 0x1 PUSH1 0x40 SHL SUB DUP2 GT ISZERO PUSH2 0x11A7 JUMPI PUSH0 PUSH0 REVERT JUMPDEST PUSH2 0x11B3 DUP6 DUP3 DUP7 ADD PUSH2 0xE61 JUMP JUMPDEST SWAP6 PUSH1 0x20 SWAP5 SWAP1 SWAP5 ADD CALLDATALOAD SWAP5 POP POP POP POP JUMP JUMPDEST PUSH0 PUSH0 PUSH1 0x40 DUP4 DUP6 SUB SLT ISZERO PUSH2 0x11D3 JUMPI PUSH0 PUSH0 REVERT JUMPDEST PUSH2 0x10EA DUP4 PUSH2 0xDF4 JUMP JUMPDEST PUSH0 PUSH0 PUSH1 0x40 DUP4 DUP6 SUB SLT ISZERO PUSH2 0x11ED JUMPI PUSH0 PUSH0 REVERT JUMPDEST DUP3 CALLDATALOAD SWAP2 POP PUSH2 0x1086 PUSH1 0x20 DUP5 ADD PUSH2 0xDF4 JUMP JUMPDEST PUSH0 PUSH0 PUSH1 0x40 DUP4 DUP6 SUB SLT ISZERO PUSH2 0x120E JUMPI PUSH0 PUSH0 REVERT JUMPDEST PUSH2 0x1159 DUP4 PUSH2 0xE37 JUMP JUMPDEST PUSH0 PUSH0 PUSH1 0x40 DUP4 DUP6 SUB SLT ISZERO PUSH2 0x1228 JUMPI PUSH0 PUSH0 REVERT JUMPDEST DUP3 CALLDATALOAD SWAP2 POP PUSH2 0x1086 PUSH1 0x20 DUP5 ADD PUSH2 0xE37 JUMP JUMPDEST PUSH0 PUSH0 PUSH1 0x40 DUP4 DUP6 SUB SLT ISZERO PUSH2 0x1249 JUMPI PUSH0 PUSH0 REVERT JUMPDEST POP POP DUP1 CALLDATALOAD SWAP3 PUSH1 0x20 SWAP1 SWAP2 ADD CALLDATALOAD SWAP2 POP JUMP JUMPDEST PUSH4 0x4E487B71 PUSH1 0xE0 SHL PUSH0 MSTORE PUSH1 0x11 PUSH1 0x4 MSTORE PUSH1 0x24 PUSH0 REVERT JUMPDEST DUP1 DUP3 MUL DUP2 ISZERO DUP3 DUP3 DIV DUP5 EQ OR PUSH2 0x1283 JUMPI PUSH2 0x1283 PUSH2 0x1258 JUMP JUMPDEST SWAP3 SWAP2 POP POP JUMP JUMPDEST PUSH4 0x4E487B71 PUSH1 0xE0 SHL PUSH0 MSTORE PUSH1 0x32 PUSH1 0x4 MSTORE PUSH1 0x24 PUSH0 REVERT JUMPDEST PUSH0 DUP3 MLOAD DUP1 PUSH1 0x20 DUP6 ADD DUP5 MCOPY PUSH0 SWAP3 ADD SWAP2 DUP3 MSTORE POP SWAP2 SWAP1 POP JUMP JUMPDEST DUP2 DUP2 SUB DUP2 DUP2 GT ISZERO PUSH2 0x1283 JUMPI PUSH2 0x1283 PUSH2 0x1258 JUMP JUMPDEST PUSH1 0x1 DUP2 DUP2 SHR SWAP1 DUP3 AND DUP1 PUSH2 0x12DA JUMPI PUSH1 0x7F DUP3 AND SWAP2 POP JUMPDEST PUSH1 0x20 DUP3 LT DUP2 SUB PUSH2 0x5EC JUMPI PUSH4 0x4E487B71 PUSH1 0xE0 SHL PUSH0 MSTORE PUSH1 0x22 PUSH1 0x4 MSTORE PUSH1 0x24 PUSH0 REVERT JUMPDEST PUSH1 0x1F DUP3 GT ISZERO PUSH2 0x919 JUMPI DUP1 PUSH0 MSTORE PUSH1 0x20 PUSH0 KECCAK256 PUSH1 0x1F DUP5 ADD PUSH1 0x5 SHR DUP2 ADD PUSH1 0x20 DUP6 LT ISZERO PUSH2 0x131D JUMPI POP DUP1 JUMPDEST PUSH1 0x1F DUP5 ADD PUSH1 0x5 SHR DUP3 ADD SWAP2 POP JUMPDEST DUP2 DUP2 LT ISZERO PUSH2 0x133C JUMPI PUSH0 DUP2 SSTORE PUSH1 0x1 ADD PUSH2 0x1329 JUMP JUMPDEST POP POP POP POP POP JUMP JUMPDEST DUP2 MLOAD PUSH1 0x1 PUSH1 0x1 PUSH1 0x40 SHL SUB DUP2 GT ISZERO PUSH2 0x135C JUMPI PUSH2 0x135C PUSH2 0xE4D JUMP JUMPDEST PUSH2 0x1370 DUP2 PUSH2 0x136A DUP5 SLOAD PUSH2 0x12C6 JUMP JUMPDEST DUP5 PUSH2 0x12F8 JUMP JUMPDEST PUSH1 0x20 PUSH1 0x1F DUP3 GT PUSH1 0x1 DUP2 EQ PUSH2 0x13A2 JUMPI PUSH0 DUP4 ISZERO PUSH2 0x138B JUMPI POP DUP5 DUP3 ADD MLOAD JUMPDEST PUSH0 NOT PUSH1 0x3 DUP6 SWAP1 SHL SHR NOT AND PUSH1 0x1 DUP5 SWAP1 SHL OR DUP5 SSTORE PUSH2 0x133C JUMP JUMPDEST PUSH0 DUP5 DUP2 MSTORE PUSH1 0x20 DUP2 KECCAK256 PUSH1 0x1F NOT DUP6 AND SWAP2 JUMPDEST DUP3 DUP2 LT ISZERO PUSH2 0x13D1 JUMPI DUP8 DUP6 ADD MLOAD DUP3 SSTORE PUSH1 0x20 SWAP5 DUP6 ADD SWAP5 PUSH1 0x1 SWAP1 SWAP3 ADD SWAP2 ADD PUSH2 0x13B1 JUMP JUMPDEST POP DUP5 DUP3 LT ISZERO PUSH2 0x13EE JUMPI DUP7 DUP5 ADD MLOAD PUSH0 NOT PUSH1 0x3 DUP8 SWAP1 SHL PUSH1 0xF8 AND SHR NOT AND DUP2 SSTORE JUMPDEST POP POP POP POP PUSH1 0x1 SWAP1 DUP2 SHL ADD SWAP1 SSTORE POP JUMP JUMPDEST PUSH4 0x4E487B71 PUSH1 0xE0 SHL PUSH0 MSTORE PUSH1 0x31 PUSH1 0x4 MSTORE PUSH1 0x24 PUSH0 REVERT JUMPDEST PUSH0 PUSH0 DUP4 SLOAD PUSH2 0x141E DUP2 PUSH2 0x12C6 JUMP JUMPDEST PUSH1 0x1 DUP3 AND DUP1 ISZERO PUSH2 0x1435 JUMPI PUSH1 0x1 DUP2 EQ PUSH2 0x144A JUMPI PUSH2 0x1477 JUMP JUMPDEST PUSH1 0xFF NOT DUP4 AND DUP7 MSTORE DUP2 ISZERO ISZERO DUP3 MUL DUP7 ADD SWAP4 POP PUSH2 0x1477 JUMP JUMPDEST DUP7 PUSH0 MSTORE PUSH1 0x20 PUSH0 KECCAK256 PUSH0 JUMPDEST DUP4 DUP2 LT ISZERO PUSH2 0x146F JUMPI DUP2 SLOAD DUP9 DUP3 ADD MSTORE PUSH1 0x1 SWAP1 SWAP2 ADD SWAP1 PUSH1 0x20 ADD PUSH2 0x1453 JUMP JUMPDEST POP POP DUP2 DUP7 ADD SWAP4 POP JUMPDEST POP SWAP2 SWAP6 SWAP5 POP POP POP POP POP JUMP JUMPDEST PUSH1 0x1 PUSH1 0x1 PUSH1 0xA0 SHL SUB SWAP4 DUP5 AND DUP2 MSTORE SWAP2 DUP4 AND PUSH1 0x20 DUP4 ADD MSTORE SWAP1 SWAP2 AND PUSH1 0x40 DUP3 ADD MSTORE PUSH1 0x60 ADD SWAP1 JUMP INVALID LOG2 PUSH5 0x6970667358 0x22 SLT KECCAK256 NUMBER 0xC9 0xEB 0xCD PUSH7 0x2CB4A432F6AC9 0x24 0xBE 0x4E SDIV 0xCB CALLDATACOPY PUSH24 0x1EEECFCD2C780F24D5D8AC198D64736F6C634300081B0033 "
				},
				"gasEstimates": {
					"creation": {
						"codeDepositCost": "1067800",
						"executionCost": "27024",
						"totalCost": "1094824"
					},
					"external": {
						"AddressToBytes(address)": "infinite",
						"Count()": "2391",
						"Get(bytes)": "infinite",
						"Get(uint256)": "infinite",
						"GetHashByIndex(uint256)": "infinite",
						"Inserted(address)": "infinite",
						"Inserted(bytes)": "infinite",
						"Inserted(string)": "infinite",
						"Inserted(uint256)": "infinite",
						"Inserted(uint64)": "infinite",
						"Register(address,address)": "infinite",
						"Register(address,bytes)": "infinite",
						"Register(address,string)": "infinite",
						"Register(address,uint256)": "infinite",
						"Register(address,uint64)": "infinite",
						"Register(bytes,bytes)": "infinite",
						"Register(string,address)": "infinite",
						"Register(string,bytes)": "infinite",
						"Register(string,string)": "infinite",
						"Register(string,uint256)": "infinite",
						"Register(string,uint64)": "infinite",
						"Register(uint256,address)": "infinite",
						"Register(uint256,bytes)": "infinite",
						"Register(uint256,string)": "infinite",
						"Register(uint256,uint256)": "infinite",
						"Register(uint256,uint64)": "infinite",
						"Register(uint64,address)": "infinite",
						"Register(uint64,bytes)": "infinite",
						"Register(uint64,string)": "infinite",
						"Register(uint64,uint256)": "infinite",
						"Register(uint64,uint64)": "infinite",
						"Remove(address)": "infinite",
						"Remove(bytes)": "infinite",
						"Remove(string)": "infinite",
						"Remove(uint256)": "infinite",
						"Remove(uint64)": "infinite",
						"Uint256ToBytes(uint256)": "infinite",
						"Uint64ToBytes(uint64)": "infinite",
						"addOwner(address)": "infinite",
						"owner()": "265",
						"owner(address)": "2606",
						"renounceOwnership(address)": "infinite"
					}
				},
				"methodIdentifiers": {
					"AddressToBytes(address)": "4d84c524",
					"Count()": "93a8333e",
					"Get(bytes)": "645558f2",
					"Get(uint256)": "60cd2685",
					"GetHashByIndex(uint256)": "f8d9fb93",
					"Inserted(address)": "d55bc7ae",
					"Inserted(bytes)": "d56a2f8a",
					"Inserted(string)": "ce6ec8ef",
					"Inserted(uint256)": "18825d63",
					"Inserted(uint64)": "a249bc3d",
					"Register(address,address)": "98ada70a",
					"Register(address,bytes)": "bf6a48f4",
					"Register(address,string)": "6ba0831d",
					"Register(address,uint256)": "007dc6ab",
					"Register(address,uint64)": "71fca080",
					"Register(bytes,bytes)": "2fa0b74a",
					"Register(string,address)": "3e49fb7e",
					"Register(string,bytes)": "150754ac",
					"Register(string,string)": "d6192e29",
					"Register(string,uint256)": "963de085",
					"Register(string,uint64)": "4872755a",
					"Register(uint256,address)": "a902c0ee",
					"Register(uint256,bytes)": "db61df3e",
					"Register(uint256,string)": "711029f8",
					"Register(uint256,uint256)": "e23550ce",
					"Register(uint256,uint64)": "e09781f4",
					"Register(uint64,address)": "4e2ce3a6",
					"Register(uint64,bytes)": "7e7dd325",
					"Register(uint64,string)": "0cde0a5f",
					"Register(uint64,uint256)": "943cc8f1",
					"Register(uint64,uint64)": "a9bb1252",
					"Remove(address)": "be7c7ac3",
					"Remove(bytes)": "2ac6faa6",
					"Remove(string)": "834a2d47",
					"Remove(uint256)": "476e4aa4",
					"Remove(uint64)": "9ce8431e",
					"Uint256ToBytes(uint256)": "821cdcb4",
					"Uint64ToBytes(uint64)": "11d6bbe6",
					"addOwner(address)": "7065cb48",
					"owner()": "8da5cb5b",
					"owner(address)": "666e1b39",
					"renounceOwnership(address)": "38bf3cfa"
				}
			},
			"storageLayout": {
				"storage": [
					{
						"astId": 5,
						"contract": "solidity/dysnomia/lib/registry.sol:Registry",
						"label": "_owners",
						"offset": 0,
						"slot": "0",
						"type": "t_mapping(t_address,t_bool)"
					},
					{
						"astId": 194,
						"contract": "solidity/dysnomia/lib/registry.sol:Registry",
						"label": "_values",
						"offset": 0,
						"slot": "1",
						"type": "t_mapping(t_bytes_memory_ptr,t_bytes_storage)"
					},
					{
						"astId": 198,
						"contract": "solidity/dysnomia/lib/registry.sol:Registry",
						"label": "_inserted",
						"offset": 0,
						"slot": "2",
						"type": "t_mapping(t_bytes_memory_ptr,t_bool)"
					},
					{
						"astId": 202,
						"contract": "solidity/dysnomia/lib/registry.sol:Registry",
						"label": "_indexOf",
						"offset": 0,
						"slot": "3",
						"type": "t_mapping(t_bytes_memory_ptr,t_uint256)"
					},
					{
						"astId": 205,
						"contract": "solidity/dysnomia/lib/registry.sol:Registry",
						"label": "_keys",
						"offset": 0,
						"slot": "4",
						"type": "t_array(t_bytes_storage)dyn_storage"
					}
				],
				"types": {
					"t_address": {
						"encoding": "inplace",
						"label": "address",
						"numberOfBytes": "20"
					},
					"t_array(t_bytes_storage)dyn_storage": {
						"base": "t_bytes_storage",
						"encoding": "dynamic_array",
						"label": "bytes[]",
						"numberOfBytes": "32"
					},
					"t_bool": {
						"encoding": "inplace",
						"label": "bool",
						"numberOfBytes": "1"
					},
					"t_bytes_memory_ptr": {
						"encoding": "bytes",
						"label": "bytes",
						"numberOfBytes": "32"
					},
					"t_bytes_storage": {
						"encoding": "bytes",
						"label": "bytes",
						"numberOfBytes": "32"
					},
					"t_mapping(t_address,t_bool)": {
						"encoding": "mapping",
						"key": "t_address",
						"label": "mapping(address => bool)",
						"numberOfBytes": "32",
						"value": "t_bool"
					},
					"t_mapping(t_bytes_memory_ptr,t_bool)": {
						"encoding": "mapping",
						"key": "t_bytes_memory_ptr",
						"label": "mapping(bytes => bool)",
						"numberOfBytes": "32",
						"value": "t_bool"
					},
					"t_mapping(t_bytes_memory_ptr,t_bytes_storage)": {
						"encoding": "mapping",
						"key": "t_bytes_memory_ptr",
						"label": "mapping(bytes => bytes)",
						"numberOfBytes": "32",
						"value": "t_bytes_storage"
					},
					"t_mapping(t_bytes_memory_ptr,t_uint256)": {
						"encoding": "mapping",
						"key": "t_bytes_memory_ptr",
						"label": "mapping(bytes => uint256)",
						"numberOfBytes": "32",
						"value": "t_uint256"
					},
					"t_uint256": {
						"encoding": "inplace",
						"label": "uint256",
						"numberOfBytes": "32"
					}
				}
			},
			"userdoc": {
				"kind": "user",
				"methods": {},
				"version": 1
			}
		}
	}
}