{
	"contracts/RewardDistributor.sol": {
		"DailyTokenDistribution": {
			"abi": [
				{
					"inputs": [
						{
							"internalType": "uint256",
							"name": "_dailyMax",
							"type": "uint256"
						},
						{
							"internalType": "address",
							"name": "_xusd",
							"type": "address"
						}
					],
					"stateMutability": "nonpayable",
					"type": "constructor"
				},
				{
					"anonymous": false,
					"inputs": [
						{
							"indexed": true,
							"internalType": "address",
							"name": "user",
							"type": "address"
						},
						{
							"indexed": false,
							"internalType": "uint256",
							"name": "amount",
							"type": "uint256"
						}
					],
					"name": "DistributeTokens",
					"type": "event"
				},
				{
					"anonymous": false,
					"inputs": [
						{
							"indexed": true,
							"internalType": "address",
							"name": "user",
							"type": "address"
						},
						{
							"indexed": false,
							"internalType": "uint256",
							"name": "amount",
							"type": "uint256"
						}
					],
					"name": "Withdraw",
					"type": "event"
				},
				{
					"inputs": [
						{
							"internalType": "address",
							"name": "lpAddress",
							"type": "address"
						}
					],
					"name": "addLp",
					"outputs": [],
					"stateMutability": "nonpayable",
					"type": "function"
				},
				{
					"inputs": [
						{
							"internalType": "address[]",
							"name": "users",
							"type": "address[]"
						},
						{
							"internalType": "uint256[]",
							"name": "amounts",
							"type": "uint256[]"
						},
						{
							"internalType": "address",
							"name": "lpAddress",
							"type": "address"
						},
						{
							"internalType": "uint256",
							"name": "period",
							"type": "uint256"
						}
					],
					"name": "batchDistributeTokens",
					"outputs": [],
					"stateMutability": "nonpayable",
					"type": "function"
				},
				{
					"inputs": [],
					"name": "currentDay",
					"outputs": [
						{
							"internalType": "uint256",
							"name": "",
							"type": "uint256"
						}
					],
					"stateMutability": "view",
					"type": "function"
				},
				{
					"inputs": [],
					"name": "dailyMax",
					"outputs": [
						{
							"internalType": "uint256",
							"name": "",
							"type": "uint256"
						}
					],
					"stateMutability": "view",
					"type": "function"
				},
				{
					"inputs": [
						{
							"internalType": "uint256",
							"name": "amount",
							"type": "uint256"
						}
					],
					"name": "depositRewards",
					"outputs": [],
					"stateMutability": "nonpayable",
					"type": "function"
				},
				{
					"inputs": [
						{
							"internalType": "address",
							"name": "user",
							"type": "address"
						},
						{
							"internalType": "uint256",
							"name": "amount",
							"type": "uint256"
						},
						{
							"internalType": "address",
							"name": "lpAddress",
							"type": "address"
						},
						{
							"internalType": "uint256",
							"name": "period",
							"type": "uint256"
						}
					],
					"name": "distributeTokens",
					"outputs": [],
					"stateMutability": "nonpayable",
					"type": "function"
				},
				{
					"inputs": [],
					"name": "distributedToday",
					"outputs": [
						{
							"internalType": "uint256",
							"name": "",
							"type": "uint256"
						}
					],
					"stateMutability": "view",
					"type": "function"
				},
				{
					"inputs": [],
					"name": "getRemainingDailyTokens",
					"outputs": [
						{
							"internalType": "uint256",
							"name": "",
							"type": "uint256"
						}
					],
					"stateMutability": "view",
					"type": "function"
				},
				{
					"inputs": [
						{
							"internalType": "address",
							"name": "lpAddress",
							"type": "address"
						},
						{
							"internalType": "uint256",
							"name": "period",
							"type": "uint256"
						}
					],
					"name": "getUserBalance",
					"outputs": [
						{
							"internalType": "uint256",
							"name": "",
							"type": "uint256"
						}
					],
					"stateMutability": "view",
					"type": "function"
				},
				{
					"inputs": [
						{
							"internalType": "address",
							"name": "",
							"type": "address"
						}
					],
					"name": "lpList",
					"outputs": [
						{
							"internalType": "bool",
							"name": "",
							"type": "bool"
						}
					],
					"stateMutability": "view",
					"type": "function"
				},
				{
					"inputs": [
						{
							"internalType": "address",
							"name": "",
							"type": "address"
						},
						{
							"internalType": "uint256",
							"name": "",
							"type": "uint256"
						}
					],
					"name": "lpRewards",
					"outputs": [
						{
							"internalType": "uint256",
							"name": "",
							"type": "uint256"
						}
					],
					"stateMutability": "view",
					"type": "function"
				},
				{
					"inputs": [],
					"name": "owner",
					"outputs": [
						{
							"internalType": "address",
							"name": "",
							"type": "address"
						}
					],
					"stateMutability": "view",
					"type": "function"
				},
				{
					"inputs": [],
					"name": "totalSupply",
					"outputs": [
						{
							"internalType": "uint256",
							"name": "",
							"type": "uint256"
						}
					],
					"stateMutability": "view",
					"type": "function"
				},
				{
					"inputs": [],
					"name": "withdraw",
					"outputs": [],
					"stateMutability": "nonpayable",
					"type": "function"
				},
				{
					"stateMutability": "payable",
					"type": "receive"
				}
			],
			"devdoc": {
				"kind": "dev",
				"methods": {},
				"version": 1
			},
			"evm": {
				"assembly": "    /* \"contracts/RewardDistributor.sol\":132:5463  contract DailyTokenDistribution {... */\n  mstore(0x40, 0x80)\n    /* \"contracts/RewardDistributor.sol\":1930:2175  constructor( uint256 _dailyMax, address _xusd) {... */\n  callvalue\n  dup1\n  iszero\n  tag_1\n  jumpi\n  revert(0x00, 0x00)\ntag_1:\n  pop\n  mload(0x40)\n  sub(codesize, bytecodeSize)\n  dup1\n  bytecodeSize\n  dup4\n  codecopy\n  dup2\n  add\n  0x40\n  dup2\n  swap1\n  mstore\n  tag_2\n  swap2\n  tag_3\n  jump\t// in\ntag_2:\n    /* \"contracts/RewardDistributor.sol\":1987:1991  xusd */\n  0x04\n    /* \"contracts/RewardDistributor.sol\":1987:1999  xusd = _xusd */\n  dup1\n  sload\n  not(sub(shl(0xa0, 0x01), 0x01))\n  and\n  sub(shl(0xa0, 0x01), 0x01)\n  dup4\n  and\n  or\n  swap1\n  sstore\n  0x01\n    /* \"contracts/RewardDistributor.sol\":2017:2037  dailyMax = _dailyMax */\n  dup3\n  swap1\n  sstore\n    /* \"contracts/RewardDistributor.sol\":2060:2084  block.timestamp / 1 days */\n  tag_6\n    /* \"contracts/RewardDistributor.sol\":2078:2084  1 days */\n  0x015180\n    /* \"contracts/RewardDistributor.sol\":2060:2075  block.timestamp */\n  timestamp\n    /* \"contracts/RewardDistributor.sol\":2060:2084  block.timestamp / 1 days */\n  tag_7\n  jump\t// in\ntag_6:\n    /* \"contracts/RewardDistributor.sol\":2047:2057  currentDay */\n  0x03\n    /* \"contracts/RewardDistributor.sol\":2047:2084  currentDay = block.timestamp / 1 days */\n  sstore\n  pop\n  pop\n    /* \"contracts/RewardDistributor.sol\":2128:2133  owner */\n  0x07\n    /* \"contracts/RewardDistributor.sol\":2128:2146  owner = msg.sender */\n  dup1\n  sload\n  not(sub(shl(0xa0, 0x01), 0x01))\n  and\n    /* \"contracts/RewardDistributor.sol\":2136:2146  msg.sender */\n  caller\n    /* \"contracts/RewardDistributor.sol\":2128:2146  owner = msg.sender */\n  or\n  swap1\n  sstore\n    /* \"contracts/RewardDistributor.sol\":132:5463  contract DailyTokenDistribution {... */\n  jump(tag_9)\n    /* \"#utility.yul\":14:365   */\ntag_3:\n    /* \"#utility.yul\":93:99   */\n  0x00\n    /* \"#utility.yul\":101:107   */\n  0x00\n    /* \"#utility.yul\":154:156   */\n  0x40\n    /* \"#utility.yul\":142:151   */\n  dup4\n    /* \"#utility.yul\":133:140   */\n  dup6\n    /* \"#utility.yul\":129:152   */\n  sub\n    /* \"#utility.yul\":125:157   */\n  slt\n    /* \"#utility.yul\":122:174   */\n  iszero\n  tag_11\n  jumpi\n    /* \"#utility.yul\":170:171   */\n  0x00\n    /* \"#utility.yul\":167:168   */\n  0x00\n    /* \"#utility.yul\":160:172   */\n  revert\n    /* \"#utility.yul\":122:174   */\ntag_11:\n    /* \"#utility.yul\":193:209   */\n  dup3\n  mload\n    /* \"#utility.yul\":252:254   */\n  0x20\n    /* \"#utility.yul\":237:255   */\n  dup5\n  add\n    /* \"#utility.yul\":231:256   */\n  mload\n    /* \"#utility.yul\":193:209   */\n  swap1\n  swap3\n  pop\n  sub(shl(0xa0, 0x01), 0x01)\n    /* \"#utility.yul\":285:316   */\n  dup2\n  and\n    /* \"#utility.yul\":275:317   */\n  dup2\n  eq\n    /* \"#utility.yul\":265:335   */\n  tag_12\n  jumpi\n    /* \"#utility.yul\":331:332   */\n  0x00\n    /* \"#utility.yul\":328:329   */\n  0x00\n    /* \"#utility.yul\":321:333   */\n  revert\n    /* \"#utility.yul\":265:335   */\ntag_12:\n    /* \"#utility.yul\":354:359   */\n  dup1\n    /* \"#utility.yul\":344:359   */\n  swap2\n  pop\n  pop\n    /* \"#utility.yul\":14:365   */\n  swap3\n  pop\n  swap3\n  swap1\n  pop\n  jump\t// out\n    /* \"#utility.yul\":370:587   */\ntag_7:\n    /* \"#utility.yul\":410:411   */\n  0x00\n    /* \"#utility.yul\":436:437   */\n  dup3\n    /* \"#utility.yul\":426:558   */\n  tag_14\n  jumpi\n    /* \"#utility.yul\":480:490   */\n  0x4e487b71\n    /* \"#utility.yul\":475:478   */\n  0xe0\n    /* \"#utility.yul\":471:491   */\n  shl\n    /* \"#utility.yul\":468:469   */\n  0x00\n    /* \"#utility.yul\":461:492   */\n  mstore\n    /* \"#utility.yul\":515:519   */\n  0x12\n    /* \"#utility.yul\":512:513   */\n  0x04\n    /* \"#utility.yul\":505:520   */\n  mstore\n    /* \"#utility.yul\":543:547   */\n  0x24\n    /* \"#utility.yul\":540:541   */\n  0x00\n    /* \"#utility.yul\":533:548   */\n  revert\n    /* \"#utility.yul\":426:558   */\ntag_14:\n  pop\n    /* \"#utility.yul\":572:581   */\n  div\n  swap1\n    /* \"#utility.yul\":370:587   */\n  jump\t// out\ntag_9:\n    /* \"contracts/RewardDistributor.sol\":132:5463  contract DailyTokenDistribution {... */\n  dataSize(sub_0)\n  dup1\n  dataOffset(sub_0)\n  0x00\n  codecopy\n  0x00\n  return\nstop\n\nsub_0: assembly {\n        /* \"contracts/RewardDistributor.sol\":132:5463  contract DailyTokenDistribution {... */\n      mstore(0x40, 0x80)\n      jumpi(tag_1, lt(calldatasize, 0x04))\n      shr(0xe0, calldataload(0x00))\n      dup1\n      0x5c9302c9\n      gt\n      tag_17\n      jumpi\n      dup1\n      0x5c9302c9\n      eq\n      tag_10\n      jumpi\n      dup1\n      0x671cdb0c\n      eq\n      tag_11\n      jumpi\n      dup1\n      0x8bdf67f2\n      eq\n      tag_12\n      jumpi\n      dup1\n      0x8cc1e155\n      eq\n      tag_13\n      jumpi\n      dup1\n      0x8da5cb5b\n      eq\n      tag_14\n      jumpi\n      dup1\n      0x91a9648a\n      eq\n      tag_15\n      jumpi\n      dup1\n      0xe0f67bc7\n      eq\n      tag_16\n      jumpi\n      revert(0x00, 0x00)\n    tag_17:\n      dup1\n      0x06f20003\n      eq\n      tag_3\n      jumpi\n      dup1\n      0x0b209300\n      eq\n      tag_4\n      jumpi\n      dup1\n      0x18160ddd\n      eq\n      tag_5\n      jumpi\n      dup1\n      0x219a037d\n      eq\n      tag_6\n      jumpi\n      dup1\n      0x2617519b\n      eq\n      tag_7\n      jumpi\n      dup1\n      0x3ccfd60b\n      eq\n      tag_8\n      jumpi\n      dup1\n      0x55d2082c\n      eq\n      tag_9\n      jumpi\n      revert(0x00, 0x00)\n    tag_1:\n      jumpi(tag_2, calldatasize)\n      stop\n    tag_2:\n      revert(0x00, 0x00)\n        /* \"contracts/RewardDistributor.sol\":2381:2588  function addLp(address lpAddress) external onlyOwner{... */\n    tag_3:\n      callvalue\n      dup1\n      iszero\n      tag_20\n      jumpi\n      revert(0x00, 0x00)\n    tag_20:\n      pop\n      tag_21\n      tag_22\n      calldatasize\n      0x04\n      tag_23\n      jump\t// in\n    tag_22:\n      tag_24\n      jump\t// in\n    tag_21:\n      stop\n        /* \"contracts/RewardDistributor.sol\":2648:3290  function distributeTokens(address user, uint256 amount, address lpAddress, uint period) external onlyOwner resetIfNewDay {... */\n    tag_4:\n      callvalue\n      dup1\n      iszero\n      tag_25\n      jumpi\n      revert(0x00, 0x00)\n    tag_25:\n      pop\n      tag_21\n      tag_27\n      calldatasize\n      0x04\n      tag_28\n      jump\t// in\n    tag_27:\n      tag_29\n      jump\t// in\n        /* \"contracts/RewardDistributor.sol\":170:196  uint256 public totalSupply */\n    tag_5:\n      callvalue\n      dup1\n      iszero\n      tag_30\n      jumpi\n      revert(0x00, 0x00)\n    tag_30:\n      pop\n      tag_31\n      sload(0x00)\n      dup2\n      jump\n    tag_31:\n      mload(0x40)\n        /* \"#utility.yul\":1182:1207   */\n      swap1\n      dup2\n      mstore\n        /* \"#utility.yul\":1170:1172   */\n      0x20\n        /* \"#utility.yul\":1155:1173   */\n      add\n        /* \"contracts/RewardDistributor.sol\":170:196  uint256 public totalSupply */\n    tag_33:\n      mload(0x40)\n      dup1\n      swap2\n      sub\n      swap1\n      return\n        /* \"contracts/RewardDistributor.sol\":308:339  uint256 public distributedToday */\n    tag_6:\n      callvalue\n      dup1\n      iszero\n      tag_35\n      jumpi\n      revert(0x00, 0x00)\n    tag_35:\n      pop\n      tag_31\n      sload(0x02)\n      dup2\n      jump\n        /* \"contracts/RewardDistributor.sol\":4994:5112  function getRemainingDailyTokens() external view returns (uint256) {... */\n    tag_7:\n      callvalue\n      dup1\n      iszero\n      tag_39\n      jumpi\n      revert(0x00, 0x00)\n    tag_39:\n      pop\n      tag_31\n      tag_41\n      jump\t// in\n        /* \"contracts/RewardDistributor.sol\":4145:4923  function withdraw() external {... */\n    tag_8:\n      callvalue\n      dup1\n      iszero\n      tag_43\n      jumpi\n      revert(0x00, 0x00)\n    tag_43:\n      pop\n      tag_21\n      tag_45\n      jump\t// in\n        /* \"contracts/RewardDistributor.sol\":721:759  mapping(address => bool) public lpList */\n    tag_9:\n      callvalue\n      dup1\n      iszero\n      tag_46\n      jumpi\n      revert(0x00, 0x00)\n    tag_46:\n      pop\n      tag_47\n      tag_48\n      calldatasize\n      0x04\n      tag_23\n      jump\t// in\n    tag_48:\n      mstore(0x20, 0x06)\n      0x00\n      swap1\n      dup2\n      mstore\n      0x40\n      swap1\n      keccak256\n      sload\n      0xff\n      and\n      dup2\n      jump\n    tag_47:\n      mload(0x40)\n        /* \"#utility.yul\":1383:1397   */\n      swap1\n      iszero\n        /* \"#utility.yul\":1376:1398   */\n      iszero\n        /* \"#utility.yul\":1358:1399   */\n      dup2\n      mstore\n        /* \"#utility.yul\":1346:1348   */\n      0x20\n        /* \"#utility.yul\":1331:1349   */\n      add\n        /* \"contracts/RewardDistributor.sol\":721:759  mapping(address => bool) public lpList */\n      tag_33\n        /* \"#utility.yul\":1218:1405   */\n      jump\n        /* \"contracts/RewardDistributor.sol\":397:422  uint256 public currentDay */\n    tag_10:\n      callvalue\n      dup1\n      iszero\n      tag_52\n      jumpi\n      revert(0x00, 0x00)\n    tag_52:\n      pop\n      tag_31\n      sload(0x03)\n      dup2\n      jump\n        /* \"contracts/RewardDistributor.sol\":3370:4075  function batchDistributeTokens(address[] calldata users, uint256[] calldata amounts, address lpAddress, uint period) external onlyOwner resetIfNewDay {... */\n    tag_11:\n      callvalue\n      dup1\n      iszero\n      tag_56\n      jumpi\n      revert(0x00, 0x00)\n    tag_56:\n      pop\n      tag_21\n      tag_58\n      calldatasize\n      0x04\n      tag_59\n      jump\t// in\n    tag_58:\n      tag_60\n      jump\t// in\n        /* \"contracts/RewardDistributor.sol\":2182:2374  function depositRewards(uint amount)external onlyOwner{... */\n    tag_12:\n      callvalue\n      dup1\n      iszero\n      tag_61\n      jumpi\n      revert(0x00, 0x00)\n    tag_61:\n      pop\n      tag_21\n      tag_63\n      calldatasize\n      0x04\n      tag_64\n      jump\t// in\n    tag_63:\n      tag_65\n      jump\t// in\n        /* \"contracts/RewardDistributor.sol\":633:691  mapping(address => mapping(uint => uint)) public lpRewards */\n    tag_13:\n      callvalue\n      dup1\n      iszero\n      tag_66\n      jumpi\n      revert(0x00, 0x00)\n    tag_66:\n      pop\n      tag_31\n      tag_68\n      calldatasize\n      0x04\n      tag_69\n      jump\t// in\n    tag_68:\n      0x05\n      0x20\n      swap1\n      dup2\n      mstore\n      0x00\n      swap3\n      dup4\n      mstore\n      0x40\n      dup1\n      dup5\n      keccak256\n      swap1\n      swap2\n      mstore\n      swap1\n      dup3\n      mstore\n      swap1\n      keccak256\n      sload\n      dup2\n      jump\n        /* \"contracts/RewardDistributor.sol\":766:786  address public owner */\n    tag_14:\n      callvalue\n      dup1\n      iszero\n      tag_72\n      jumpi\n      revert(0x00, 0x00)\n    tag_72:\n      pop\n      sload(0x07)\n      tag_73\n      swap1\n      sub(shl(0xa0, 0x01), 0x01)\n      and\n      dup2\n      jump\n    tag_73:\n      mload(0x40)\n      sub(shl(0xa0, 0x01), 0x01)\n        /* \"#utility.yul\":3578:3610   */\n      swap1\n      swap2\n      and\n        /* \"#utility.yul\":3560:3611   */\n      dup2\n      mstore\n        /* \"#utility.yul\":3548:3550   */\n      0x20\n        /* \"#utility.yul\":3533:3551   */\n      add\n        /* \"contracts/RewardDistributor.sol\":766:786  address public owner */\n      tag_33\n        /* \"#utility.yul\":3414:3617   */\n      jump\n        /* \"contracts/RewardDistributor.sol\":5158:5326  function getUserBalance(address lpAddress, uint period) external view returns (uint256) {... */\n    tag_15:\n      callvalue\n      dup1\n      iszero\n      tag_77\n      jumpi\n      revert(0x00, 0x00)\n    tag_77:\n      pop\n      tag_31\n      tag_79\n      calldatasize\n      0x04\n      tag_69\n      jump\t// in\n    tag_79:\n      tag_80\n      jump\t// in\n        /* \"contracts/RewardDistributor.sol\":227:250  uint256 public dailyMax */\n    tag_16:\n      callvalue\n      dup1\n      iszero\n      tag_82\n      jumpi\n      revert(0x00, 0x00)\n    tag_82:\n      pop\n      tag_31\n      sload(0x01)\n      dup2\n      jump\n        /* \"contracts/RewardDistributor.sol\":2381:2588  function addLp(address lpAddress) external onlyOwner{... */\n    tag_24:\n        /* \"contracts/RewardDistributor.sol\":1463:1468  owner */\n      and(sub(shl(0xa0, 0x01), 0x01), sload(0x07))\n        /* \"contracts/RewardDistributor.sol\":1449:1459  msg.sender */\n      caller\n        /* \"contracts/RewardDistributor.sol\":1449:1468  msg.sender == owner */\n      eq\n        /* \"contracts/RewardDistributor.sol\":1441:1495  require(msg.sender == owner, \"Not the contract owner\") */\n      tag_87\n      jumpi\n      mload(0x40)\n      shl(0xe5, 0x461bcd)\n      dup2\n      mstore\n      0x04\n      add\n      tag_88\n      swap1\n      tag_89\n      jump\t// in\n    tag_88:\n      mload(0x40)\n      dup1\n      swap2\n      sub\n      swap1\n      revert\n    tag_87:\n        /* \"contracts/RewardDistributor.sol\":2452:2478  LpRepo.Contains(lpAddress) */\n      mload(0x40)\n      shl(0xe0, 0x3879ffd5)\n      dup2\n      mstore\n        /* \"contracts/RewardDistributor.sol\":2452:2458  LpRepo */\n      0x08\n        /* \"contracts/RewardDistributor.sol\":2452:2478  LpRepo.Contains(lpAddress) */\n      0x04\n      dup3\n      add\n        /* \"#utility.yul\":4180:4205   */\n      mstore\n      sub(shl(0xa0, 0x01), 0x01)\n        /* \"#utility.yul\":4241:4273   */\n      dup3\n      and\n        /* \"#utility.yul\":4221:4239   */\n      0x24\n      dup3\n      add\n        /* \"#utility.yul\":4214:4274   */\n      mstore\n        /* \"contracts/RewardDistributor.sol\":2452:2467  LpRepo.Contains */\n      linkerSymbol(\"e1f060530584cbd9762c33710bf2fcee28f10a01c2654f30b69099f245ca1b1a\")\n      swap1\n      0x3879ffd5\n      swap1\n        /* \"#utility.yul\":4153:4171   */\n      0x44\n      add\n        /* \"contracts/RewardDistributor.sol\":2452:2478  LpRepo.Contains(lpAddress) */\n      0x20\n      mload(0x40)\n      dup1\n      dup4\n      sub\n      dup2\n      dup7\n      gas\n      delegatecall\n      iszero\n      dup1\n      iszero\n      tag_94\n      jumpi\n      returndatacopy(0x00, 0x00, returndatasize)\n      revert(0x00, returndatasize)\n    tag_94:\n      pop\n      pop\n      pop\n      pop\n      mload(0x40)\n      returndatasize\n      not(0x1f)\n      0x1f\n      dup3\n      add\n      and\n      dup3\n      add\n      dup1\n      0x40\n      mstore\n      pop\n      dup2\n      add\n      swap1\n      tag_95\n      swap2\n      swap1\n      tag_96\n      jump\t// in\n    tag_95:\n        /* \"contracts/RewardDistributor.sol\":2451:2478  !LpRepo.Contains(lpAddress) */\n      iszero\n        /* \"contracts/RewardDistributor.sol\":2443:2500  require(!LpRepo.Contains(lpAddress), 'Lp Alrerady Added') */\n      tag_97\n      jumpi\n      mload(0x40)\n      shl(0xe5, 0x461bcd)\n      dup2\n      mstore\n        /* \"#utility.yul\":4769:4771   */\n      0x20\n        /* \"contracts/RewardDistributor.sol\":2443:2500  require(!LpRepo.Contains(lpAddress), 'Lp Alrerady Added') */\n      0x04\n      dup3\n      add\n        /* \"#utility.yul\":4751:4772   */\n      mstore\n        /* \"#utility.yul\":4808:4810   */\n      0x11\n        /* \"#utility.yul\":4788:4806   */\n      0x24\n      dup3\n      add\n        /* \"#utility.yul\":4781:4811   */\n      mstore\n      shl(0x7a, 0x131c08105b1c995c98591e481059191959)\n        /* \"#utility.yul\":4827:4845   */\n      0x44\n      dup3\n      add\n        /* \"#utility.yul\":4820:4867   */\n      mstore\n        /* \"#utility.yul\":4884:4902   */\n      0x64\n      add\n        /* \"contracts/RewardDistributor.sol\":2443:2500  require(!LpRepo.Contains(lpAddress), 'Lp Alrerady Added') */\n      tag_88\n        /* \"#utility.yul\":4567:4908   */\n      jump\n        /* \"contracts/RewardDistributor.sol\":2443:2500  require(!LpRepo.Contains(lpAddress), 'Lp Alrerady Added') */\n    tag_97:\n        /* \"contracts/RewardDistributor.sol\":2511:2537  LpRepo.Register(lpAddress) */\n      mload(0x40)\n      shl(0xe0, 0xd6f44de9)\n      dup2\n      mstore\n        /* \"contracts/RewardDistributor.sol\":2511:2517  LpRepo */\n      0x08\n        /* \"contracts/RewardDistributor.sol\":2511:2537  LpRepo.Register(lpAddress) */\n      0x04\n      dup3\n      add\n        /* \"#utility.yul\":4180:4205   */\n      mstore\n      sub(shl(0xa0, 0x01), 0x01)\n        /* \"#utility.yul\":4241:4273   */\n      dup3\n      and\n        /* \"#utility.yul\":4221:4239   */\n      0x24\n      dup3\n      add\n        /* \"#utility.yul\":4214:4274   */\n      mstore\n        /* \"contracts/RewardDistributor.sol\":2511:2526  LpRepo.Register */\n      linkerSymbol(\"e1f060530584cbd9762c33710bf2fcee28f10a01c2654f30b69099f245ca1b1a\")\n      swap1\n      0xd6f44de9\n      swap1\n        /* \"#utility.yul\":4153:4171   */\n      0x44\n      add\n        /* \"contracts/RewardDistributor.sol\":2511:2537  LpRepo.Register(lpAddress) */\n      0x00\n      mload(0x40)\n      dup1\n      dup4\n      sub\n      dup2\n      dup7\n      dup1\n      extcodesize\n      iszero\n      dup1\n      iszero\n      tag_101\n      jumpi\n      revert(0x00, 0x00)\n    tag_101:\n      pop\n      gas\n      delegatecall\n      iszero\n      dup1\n      iszero\n      tag_103\n      jumpi\n      returndatacopy(0x00, 0x00, returndatasize)\n      revert(0x00, returndatasize)\n    tag_103:\n      pop\n      pop\n      pop\n      sub(shl(0xa0, 0x01), 0x01)\n        /* \"contracts/RewardDistributor.sol\":2547:2564  lpList[lpAddress] */\n      swap1\n      swap2\n      and\n      0x00\n      swap1\n      dup2\n      mstore\n        /* \"contracts/RewardDistributor.sol\":2547:2553  lpList */\n      0x06\n        /* \"contracts/RewardDistributor.sol\":2547:2564  lpList[lpAddress] */\n      0x20\n      mstore\n      0x40\n      swap1\n      keccak256\n        /* \"contracts/RewardDistributor.sol\":2547:2571  lpList[lpAddress] = true */\n      dup1\n      sload\n      not(0xff)\n      and\n        /* \"contracts/RewardDistributor.sol\":2567:2571  true */\n      0x01\n        /* \"contracts/RewardDistributor.sol\":2547:2571  lpList[lpAddress] = true */\n      or\n      swap1\n      sstore\n      pop\n        /* \"contracts/RewardDistributor.sol\":2381:2588  function addLp(address lpAddress) external onlyOwner{... */\n      jump\t// out\n        /* \"contracts/RewardDistributor.sol\":2648:3290  function distributeTokens(address user, uint256 amount, address lpAddress, uint period) external onlyOwner resetIfNewDay {... */\n    tag_29:\n        /* \"contracts/RewardDistributor.sol\":1463:1468  owner */\n      and(sub(shl(0xa0, 0x01), 0x01), sload(0x07))\n        /* \"contracts/RewardDistributor.sol\":1449:1459  msg.sender */\n      caller\n        /* \"contracts/RewardDistributor.sol\":1449:1468  msg.sender == owner */\n      eq\n        /* \"contracts/RewardDistributor.sol\":1441:1495  require(msg.sender == owner, \"Not the contract owner\") */\n      tag_105\n      jumpi\n      mload(0x40)\n      shl(0xe5, 0x461bcd)\n      dup2\n      mstore\n      0x04\n      add\n      tag_88\n      swap1\n      tag_89\n      jump\t// in\n    tag_105:\n        /* \"contracts/RewardDistributor.sol\":1622:1635  uint256 today */\n      0x00\n        /* \"contracts/RewardDistributor.sol\":1638:1662  block.timestamp / 1 days */\n      tag_108\n        /* \"contracts/RewardDistributor.sol\":1656:1662  1 days */\n      0x015180\n        /* \"contracts/RewardDistributor.sol\":1638:1653  block.timestamp */\n      timestamp\n        /* \"contracts/RewardDistributor.sol\":1638:1662  block.timestamp / 1 days */\n      tag_109\n      jump\t// in\n    tag_108:\n        /* \"contracts/RewardDistributor.sol\":1622:1662  uint256 today = block.timestamp / 1 days */\n      swap1\n      pop\n        /* \"contracts/RewardDistributor.sol\":1684:1694  currentDay */\n      sload(0x03)\n        /* \"contracts/RewardDistributor.sol\":1676:1681  today */\n      dup2\n        /* \"contracts/RewardDistributor.sol\":1676:1694  today > currentDay */\n      gt\n        /* \"contracts/RewardDistributor.sol\":1672:1828  if (today > currentDay) {... */\n      iszero\n      tag_110\n      jumpi\n        /* \"contracts/RewardDistributor.sol\":1729:1730  0 */\n      0x00\n        /* \"contracts/RewardDistributor.sol\":1710:1726  distributedToday */\n      0x02\n        /* \"contracts/RewardDistributor.sol\":1710:1730  distributedToday = 0 */\n      sstore\n        /* \"contracts/RewardDistributor.sol\":1772:1782  currentDay */\n      0x03\n        /* \"contracts/RewardDistributor.sol\":1772:1790  currentDay = today */\n      dup2\n      swap1\n      sstore\n        /* \"contracts/RewardDistributor.sol\":1672:1828  if (today > currentDay) {... */\n    tag_110:\n        /* \"contracts/RewardDistributor.sol\":2820:2828  dailyMax */\n      sload(0x01)\n      sub(shl(0xa0, 0x01), 0x01)\n        /* \"contracts/RewardDistributor.sol\":2788:2808  lpRewards[lpAddress] */\n      dup5\n      and\n      0x00\n      swap1\n      dup2\n      mstore\n        /* \"contracts/RewardDistributor.sol\":2788:2797  lpRewards */\n      0x05\n        /* \"contracts/RewardDistributor.sol\":2788:2808  lpRewards[lpAddress] */\n      0x20\n      swap1\n      dup2\n      mstore\n      0x40\n      dup1\n      dup4\n      keccak256\n        /* \"contracts/RewardDistributor.sol\":2788:2816  lpRewards[lpAddress][period] */\n      dup7\n      dup5\n      mstore\n      swap1\n      swap2\n      mstore\n      swap1\n      keccak256\n      sload\n        /* \"contracts/RewardDistributor.sol\":2788:2828  lpRewards[lpAddress][period] <= dailyMax */\n      gt\n      iszero\n        /* \"contracts/RewardDistributor.sol\":2779:2850  require( lpRewards[lpAddress][period] <= dailyMax, \"Exceeds daily max\") */\n      tag_112\n      jumpi\n      mload(0x40)\n      shl(0xe5, 0x461bcd)\n      dup2\n      mstore\n        /* \"#utility.yul\":5469:5471   */\n      0x20\n        /* \"contracts/RewardDistributor.sol\":2779:2850  require( lpRewards[lpAddress][period] <= dailyMax, \"Exceeds daily max\") */\n      0x04\n      dup3\n      add\n        /* \"#utility.yul\":5451:5472   */\n      mstore\n        /* \"#utility.yul\":5508:5510   */\n      0x11\n        /* \"#utility.yul\":5488:5506   */\n      0x24\n      dup3\n      add\n        /* \"#utility.yul\":5481:5511   */\n      mstore\n      shl(0x7b, 0x08af0c6cacac8e640c8c2d2d8f240dac2f)\n        /* \"#utility.yul\":5527:5545   */\n      0x44\n      dup3\n      add\n        /* \"#utility.yul\":5520:5567   */\n      mstore\n        /* \"#utility.yul\":5584:5602   */\n      0x64\n      add\n        /* \"contracts/RewardDistributor.sol\":2779:2850  require( lpRewards[lpAddress][period] <= dailyMax, \"Exceeds daily max\") */\n      tag_88\n        /* \"#utility.yul\":5267:5608   */\n      jump\n        /* \"contracts/RewardDistributor.sol\":2779:2850  require( lpRewards[lpAddress][period] <= dailyMax, \"Exceeds daily max\") */\n    tag_112:\n      sub(shl(0xa0, 0x01), 0x01)\n        /* \"contracts/RewardDistributor.sol\":2869:2886  lpList[lpAddress] */\n      dup4\n      and\n      0x00\n      swap1\n      dup2\n      mstore\n        /* \"contracts/RewardDistributor.sol\":2869:2875  lpList */\n      0x06\n        /* \"contracts/RewardDistributor.sol\":2869:2886  lpList[lpAddress] */\n      0x20\n      mstore\n      0x40\n      swap1\n      keccak256\n      sload\n      0xff\n      and\n        /* \"contracts/RewardDistributor.sol\":2860:2905  require( lpList[lpAddress], \"Lp Not on list\") */\n      tag_115\n      jumpi\n      mload(0x40)\n      shl(0xe5, 0x461bcd)\n      dup2\n      mstore\n      0x04\n      add\n      tag_88\n      swap1\n      tag_117\n      jump\t// in\n    tag_115:\n        /* \"contracts/RewardDistributor.sol\":2938:2944  amount */\n      dup4\n        /* \"contracts/RewardDistributor.sol\":2923:2934  totalSupply */\n      sload(0x00)\n        /* \"contracts/RewardDistributor.sol\":2923:2944  totalSupply >= amount */\n      lt\n      iszero\n        /* \"contracts/RewardDistributor.sol\":2915:2987  require(totalSupply >= amount, \"Not enough tokens left in total supply\") */\n      tag_118\n      jumpi\n      mload(0x40)\n      shl(0xe5, 0x461bcd)\n      dup2\n      mstore\n        /* \"#utility.yul\":6158:6160   */\n      0x20\n        /* \"contracts/RewardDistributor.sol\":2915:2987  require(totalSupply >= amount, \"Not enough tokens left in total supply\") */\n      0x04\n      dup3\n      add\n        /* \"#utility.yul\":6140:6161   */\n      mstore\n        /* \"#utility.yul\":6197:6199   */\n      0x26\n        /* \"#utility.yul\":6177:6195   */\n      0x24\n      dup3\n      add\n        /* \"#utility.yul\":6170:6200   */\n      mstore\n        /* \"#utility.yul\":6236:6270   */\n      0x4e6f7420656e6f75676820746f6b656e73206c65667420696e20746f74616c20\n        /* \"#utility.yul\":6216:6234   */\n      0x44\n      dup3\n      add\n        /* \"#utility.yul\":6209:6271   */\n      mstore\n      shl(0xd0, 0x737570706c79)\n        /* \"#utility.yul\":6287:6305   */\n      0x64\n      dup3\n      add\n        /* \"#utility.yul\":6280:6316   */\n      mstore\n        /* \"#utility.yul\":6333:6352   */\n      0x84\n      add\n        /* \"contracts/RewardDistributor.sol\":2915:2987  require(totalSupply >= amount, \"Not enough tokens left in total supply\") */\n      tag_88\n        /* \"#utility.yul\":5956:6358   */\n      jump\n        /* \"contracts/RewardDistributor.sol\":2915:2987  require(totalSupply >= amount, \"Not enough tokens left in total supply\") */\n    tag_118:\n      sub(shl(0xa0, 0x01), 0x01)\n        /* \"contracts/RewardDistributor.sol\":2997:3015  userBalances[user] */\n      dup6\n      dup2\n      and\n      0x00\n      swap1\n      dup2\n      mstore\n        /* \"contracts/RewardDistributor.sol\":2997:3009  userBalances */\n      0x0b\n        /* \"contracts/RewardDistributor.sol\":2997:3015  userBalances[user] */\n      0x20\n      swap1\n      dup2\n      mstore\n      0x40\n      dup1\n      dup4\n      keccak256\n        /* \"contracts/RewardDistributor.sol\":2997:3026  userBalances[user][lpAddress] */\n      swap4\n      dup8\n      and\n      dup4\n      mstore\n      swap3\n      swap1\n      mstore\n      dup2\n      swap1\n      keccak256\n        /* \"contracts/RewardDistributor.sol\":2997:3053  userBalances[user][lpAddress].UserGains.Register(period) */\n      swap1\n      mload\n      shl(0xe0, 0x8b584f4d)\n      dup2\n      mstore\n      0x04\n      dup2\n      add\n        /* \"#utility.yul\":6571:6596   */\n      swap2\n      swap1\n      swap2\n      mstore\n        /* \"#utility.yul\":6612:6630   */\n      0x24\n      dup2\n      add\n        /* \"#utility.yul\":6605:6639   */\n      dup4\n      swap1\n      mstore\n        /* \"contracts/RewardDistributor.sol\":2997:3045  userBalances[user][lpAddress].UserGains.Register */\n      linkerSymbol(\"0302b47f2070ab02d534d3bad2f8e35698b0bbfbee8e9fef42c231bdb3092aed\")\n      swap1\n      0x8b584f4d\n      swap1\n        /* \"#utility.yul\":6544:6562   */\n      0x44\n      add\n        /* \"contracts/RewardDistributor.sol\":2997:3053  userBalances[user][lpAddress].UserGains.Register(period) */\n      0x00\n      mload(0x40)\n      dup1\n      dup4\n      sub\n      dup2\n      dup7\n      dup1\n      extcodesize\n      iszero\n      dup1\n      iszero\n      tag_123\n      jumpi\n      revert(0x00, 0x00)\n    tag_123:\n      pop\n      gas\n      delegatecall\n      iszero\n      dup1\n      iszero\n      tag_125\n      jumpi\n      returndatacopy(0x00, 0x00, returndatasize)\n      revert(0x00, returndatasize)\n    tag_125:\n      pop\n      pop\n      pop\n      pop\n      sub(shl(0xa0, 0x01), 0x01)\n        /* \"contracts/RewardDistributor.sol\":3063:3081  userBalances[user] */\n      dup6\n      dup2\n      and\n      0x00\n      swap1\n      dup2\n      mstore\n        /* \"contracts/RewardDistributor.sol\":3063:3075  userBalances */\n      0x0b\n        /* \"contracts/RewardDistributor.sol\":3063:3081  userBalances[user] */\n      0x20\n      swap1\n      dup2\n      mstore\n      0x40\n      dup1\n      dup4\n      keccak256\n        /* \"contracts/RewardDistributor.sol\":3063:3092  userBalances[user][lpAddress] */\n      swap4\n      dup8\n      and\n      dup1\n      dup5\n      mstore\n      swap4\n      dup3\n      mstore\n      dup1\n      dup4\n      keccak256\n        /* \"contracts/RewardDistributor.sol\":3063:3113  userBalances[user][lpAddress].userBalances[period] */\n      dup7\n      dup5\n      mstore\n        /* \"contracts/RewardDistributor.sol\":3063:3105  userBalances[user][lpAddress].userBalances */\n      0x03\n      add\n        /* \"contracts/RewardDistributor.sol\":3063:3113  userBalances[user][lpAddress].userBalances[period] */\n      dup3\n      mstore\n      dup1\n      dup4\n      keccak256\n        /* \"contracts/RewardDistributor.sol\":3063:3122  userBalances[user][lpAddress].userBalances[period] = amount */\n      dup9\n      swap1\n      sstore\n        /* \"contracts/RewardDistributor.sol\":3133:3153  lpRewards[lpAddress] */\n      swap3\n      dup3\n      mstore\n        /* \"contracts/RewardDistributor.sol\":3133:3142  lpRewards */\n      0x05\n        /* \"contracts/RewardDistributor.sol\":3133:3153  lpRewards[lpAddress] */\n      dup2\n      mstore\n      dup3\n      dup3\n      keccak256\n        /* \"contracts/RewardDistributor.sol\":3133:3161  lpRewards[lpAddress][period] */\n      dup6\n      dup4\n      mstore\n      swap1\n      mstore\n      swap1\n      dup2\n      keccak256\n        /* \"contracts/RewardDistributor.sol\":3133:3171  lpRewards[lpAddress][period] += amount */\n      dup1\n      sload\n        /* \"contracts/RewardDistributor.sol\":3063:3122  userBalances[user][lpAddress].userBalances[period] = amount */\n      dup7\n      swap3\n        /* \"contracts/RewardDistributor.sol\":3063:3081  userBalances[user] */\n      swap1\n        /* \"contracts/RewardDistributor.sol\":3133:3171  lpRewards[lpAddress][period] += amount */\n      tag_126\n      swap1\n        /* \"contracts/RewardDistributor.sol\":3063:3122  userBalances[user][lpAddress].userBalances[period] = amount */\n      dup5\n      swap1\n        /* \"contracts/RewardDistributor.sol\":3133:3171  lpRewards[lpAddress][period] += amount */\n      tag_127\n      jump\t// in\n    tag_126:\n      swap3\n      pop\n      pop\n      dup2\n      swap1\n      sstore\n      pop\n        /* \"contracts/RewardDistributor.sol\":3204:3210  amount */\n      dup4\n        /* \"contracts/RewardDistributor.sol\":3189:3200  totalSupply */\n      0x00\n      0x00\n        /* \"contracts/RewardDistributor.sol\":3189:3210  totalSupply -= amount */\n      dup3\n      dup3\n      sload\n      tag_128\n      swap2\n      swap1\n      tag_129\n      jump\t// in\n    tag_128:\n      swap1\n      swap2\n      sstore\n      pop\n      pop\n        /* \"contracts/RewardDistributor.sol\":3226:3256  DistributeTokens(user, amount) */\n      mload(0x40)\n        /* \"#utility.yul\":1182:1207   */\n      dup5\n      dup2\n      mstore\n      sub(shl(0xa0, 0x01), 0x01)\n        /* \"contracts/RewardDistributor.sol\":3226:3256  DistributeTokens(user, amount) */\n      dup7\n      and\n      swap1\n      0x66902764973bf4d35892cf2fde75fcd39ea2cc28a2d6f61e51e45493ee10afe1\n      swap1\n        /* \"#utility.yul\":1170:1172   */\n      0x20\n        /* \"#utility.yul\":1155:1173   */\n      add\n        /* \"contracts/RewardDistributor.sol\":3226:3256  DistributeTokens(user, amount) */\n      mload(0x40)\n      dup1\n      swap2\n      sub\n      swap1\n      log2\n        /* \"contracts/RewardDistributor.sol\":1612:1845  {... */\n      pop\n        /* \"contracts/RewardDistributor.sol\":2648:3290  function distributeTokens(address user, uint256 amount, address lpAddress, uint period) external onlyOwner resetIfNewDay {... */\n      pop\n      pop\n      pop\n      pop\n      jump\t// out\n        /* \"contracts/RewardDistributor.sol\":4994:5112  function getRemainingDailyTokens() external view returns (uint256) {... */\n    tag_41:\n        /* \"contracts/RewardDistributor.sol\":5052:5059  uint256 */\n      0x00\n        /* \"contracts/RewardDistributor.sol\":5089:5105  distributedToday */\n      sload(0x02)\n        /* \"contracts/RewardDistributor.sol\":5078:5086  dailyMax */\n      sload(0x01)\n        /* \"contracts/RewardDistributor.sol\":5078:5105  dailyMax - distributedToday */\n      tag_132\n      swap2\n      swap1\n      tag_129\n      jump\t// in\n    tag_132:\n        /* \"contracts/RewardDistributor.sol\":5071:5105  return dailyMax - distributedToday */\n      swap1\n      pop\n        /* \"contracts/RewardDistributor.sol\":4994:5112  function getRemainingDailyTokens() external view returns (uint256) {... */\n      swap1\n      jump\t// out\n        /* \"contracts/RewardDistributor.sol\":4145:4923  function withdraw() external {... */\n    tag_45:\n        /* \"contracts/RewardDistributor.sol\":4185:4203  uint rewardsAmount */\n      0x00\n      dup1\n        /* \"contracts/RewardDistributor.sol\":4278:4797  for (uint256 i = 0; i < LpRepo.Count(); i++) {... */\n    tag_134:\n        /* \"contracts/RewardDistributor.sol\":4302:4316  LpRepo.Count() */\n      mload(0x40)\n      shl(0xe0, 0xbc7fb2b5)\n      dup2\n      mstore\n        /* \"contracts/RewardDistributor.sol\":4302:4308  LpRepo */\n      0x08\n        /* \"contracts/RewardDistributor.sol\":4302:4316  LpRepo.Count() */\n      0x04\n      dup3\n      add\n        /* \"#utility.yul\":1182:1207   */\n      mstore\n        /* \"contracts/RewardDistributor.sol\":4302:4314  LpRepo.Count */\n      linkerSymbol(\"e1f060530584cbd9762c33710bf2fcee28f10a01c2654f30b69099f245ca1b1a\")\n      swap1\n      0xbc7fb2b5\n      swap1\n        /* \"#utility.yul\":1155:1173   */\n      0x24\n      add\n        /* \"contracts/RewardDistributor.sol\":4302:4316  LpRepo.Count() */\n      0x20\n      mload(0x40)\n      dup1\n      dup4\n      sub\n      dup2\n      dup7\n      gas\n      delegatecall\n      iszero\n      dup1\n      iszero\n      tag_140\n      jumpi\n      returndatacopy(0x00, 0x00, returndatasize)\n      revert(0x00, returndatasize)\n    tag_140:\n      pop\n      pop\n      pop\n      pop\n      mload(0x40)\n      returndatasize\n      not(0x1f)\n      0x1f\n      dup3\n      add\n      and\n      dup3\n      add\n      dup1\n      0x40\n      mstore\n      pop\n      dup2\n      add\n      swap1\n      tag_141\n      swap2\n      swap1\n      tag_142\n      jump\t// in\n    tag_141:\n        /* \"contracts/RewardDistributor.sol\":4298:4299  i */\n      dup2\n        /* \"contracts/RewardDistributor.sol\":4298:4316  i < LpRepo.Count() */\n      lt\n        /* \"contracts/RewardDistributor.sol\":4278:4797  for (uint256 i = 0; i < LpRepo.Count(); i++) {... */\n      iszero\n      tag_135\n      jumpi\n        /* \"contracts/RewardDistributor.sol\":4343:4352  uint256 j */\n      0x00\n        /* \"contracts/RewardDistributor.sol\":4338:4787  for (uint256 j = 0; j < userBalances[msg.sender][LpRepo.GetHashByIndex(i)].UserGains.Count(); j++) {... */\n    tag_143:\n        /* \"contracts/RewardDistributor.sol\":4375:4385  msg.sender */\n      caller\n        /* \"contracts/RewardDistributor.sol\":4362:4386  userBalances[msg.sender] */\n      0x00\n      swap1\n      dup2\n      mstore\n        /* \"contracts/RewardDistributor.sol\":4362:4374  userBalances */\n      0x0b\n        /* \"contracts/RewardDistributor.sol\":4362:4386  userBalances[msg.sender] */\n      0x20\n      mstore\n      0x40\n      dup1\n      dup3\n      keccak256\n        /* \"contracts/RewardDistributor.sol\":4387:4411  LpRepo.GetHashByIndex(i) */\n      swap1\n      mload\n      shl(0xe2, 0x0cdb0501)\n      dup2\n      mstore\n        /* \"contracts/RewardDistributor.sol\":4387:4393  LpRepo */\n      0x08\n        /* \"contracts/RewardDistributor.sol\":4387:4411  LpRepo.GetHashByIndex(i) */\n      0x04\n      dup3\n      add\n        /* \"#utility.yul\":6571:6596   */\n      mstore\n        /* \"#utility.yul\":6612:6630   */\n      0x24\n      dup2\n      add\n        /* \"#utility.yul\":6605:6639   */\n      dup6\n      swap1\n      mstore\n        /* \"contracts/RewardDistributor.sol\":4362:4386  userBalances[msg.sender] */\n      swap1\n      swap2\n      swap1\n        /* \"contracts/RewardDistributor.sol\":4387:4408  LpRepo.GetHashByIndex */\n      linkerSymbol(\"e1f060530584cbd9762c33710bf2fcee28f10a01c2654f30b69099f245ca1b1a\")\n      swap1\n      0x336c1404\n      swap1\n        /* \"#utility.yul\":6544:6562   */\n      0x44\n      add\n        /* \"contracts/RewardDistributor.sol\":4387:4411  LpRepo.GetHashByIndex(i) */\n      0x20\n      mload(0x40)\n      dup1\n      dup4\n      sub\n      dup2\n      dup7\n      gas\n      delegatecall\n      iszero\n      dup1\n      iszero\n      tag_149\n      jumpi\n      returndatacopy(0x00, 0x00, returndatasize)\n      revert(0x00, returndatasize)\n    tag_149:\n      pop\n      pop\n      pop\n      pop\n      mload(0x40)\n      returndatasize\n      not(0x1f)\n      0x1f\n      dup3\n      add\n      and\n      dup3\n      add\n      dup1\n      0x40\n      mstore\n      pop\n      dup2\n      add\n      swap1\n      tag_150\n      swap2\n      swap1\n      tag_151\n      jump\t// in\n    tag_150:\n      sub(shl(0xa0, 0x01), 0x01)\n        /* \"contracts/RewardDistributor.sol\":4362:4412  userBalances[msg.sender][LpRepo.GetHashByIndex(i)] */\n      and\n      dup2\n      mstore\n      0x20\n      dup2\n      add\n      swap2\n      swap1\n      swap2\n      mstore\n      0x40\n      swap1\n      dup2\n      add\n      0x00\n      keccak256\n        /* \"contracts/RewardDistributor.sol\":4362:4430  userBalances[msg.sender][LpRepo.GetHashByIndex(i)].UserGains.Count() */\n      swap1\n      mload\n      shl(0xe0, 0x9ba54d2d)\n      dup2\n      mstore\n      0x04\n      dup2\n      add\n        /* \"#utility.yul\":1182:1207   */\n      swap2\n      swap1\n      swap2\n      mstore\n        /* \"contracts/RewardDistributor.sol\":4362:4428  userBalances[msg.sender][LpRepo.GetHashByIndex(i)].UserGains.Count */\n      linkerSymbol(\"0302b47f2070ab02d534d3bad2f8e35698b0bbfbee8e9fef42c231bdb3092aed\")\n      swap1\n      0x9ba54d2d\n      swap1\n        /* \"#utility.yul\":1155:1173   */\n      0x24\n      add\n        /* \"contracts/RewardDistributor.sol\":4362:4430  userBalances[msg.sender][LpRepo.GetHashByIndex(i)].UserGains.Count() */\n      0x20\n      mload(0x40)\n      dup1\n      dup4\n      sub\n      dup2\n      dup7\n      gas\n      delegatecall\n      iszero\n      dup1\n      iszero\n      tag_155\n      jumpi\n      returndatacopy(0x00, 0x00, returndatasize)\n      revert(0x00, returndatasize)\n    tag_155:\n      pop\n      pop\n      pop\n      pop\n      mload(0x40)\n      returndatasize\n      not(0x1f)\n      0x1f\n      dup3\n      add\n      and\n      dup3\n      add\n      dup1\n      0x40\n      mstore\n      pop\n      dup2\n      add\n      swap1\n      tag_156\n      swap2\n      swap1\n      tag_142\n      jump\t// in\n    tag_156:\n        /* \"contracts/RewardDistributor.sol\":4358:4359  j */\n      dup2\n        /* \"contracts/RewardDistributor.sol\":4358:4430  j < userBalances[msg.sender][LpRepo.GetHashByIndex(i)].UserGains.Count() */\n      lt\n        /* \"contracts/RewardDistributor.sol\":4338:4787  for (uint256 j = 0; j < userBalances[msg.sender][LpRepo.GetHashByIndex(i)].UserGains.Count(); j++) {... */\n      iszero\n      tag_144\n      jumpi\n        /* \"contracts/RewardDistributor.sol\":4478:4488  msg.sender */\n      caller\n        /* \"contracts/RewardDistributor.sol\":4465:4489  userBalances[msg.sender] */\n      0x00\n      swap1\n      dup2\n      mstore\n        /* \"contracts/RewardDistributor.sol\":4465:4477  userBalances */\n      0x0b\n        /* \"contracts/RewardDistributor.sol\":4465:4489  userBalances[msg.sender] */\n      0x20\n      mstore\n      0x40\n      dup1\n      dup3\n      keccak256\n        /* \"contracts/RewardDistributor.sol\":4490:4514  LpRepo.GetHashByIndex(i) */\n      swap1\n      mload\n      shl(0xe2, 0x0cdb0501)\n      dup2\n      mstore\n        /* \"contracts/RewardDistributor.sol\":4490:4496  LpRepo */\n      0x08\n        /* \"contracts/RewardDistributor.sol\":4490:4514  LpRepo.GetHashByIndex(i) */\n      0x04\n      dup3\n      add\n        /* \"#utility.yul\":6571:6596   */\n      mstore\n        /* \"#utility.yul\":6612:6630   */\n      0x24\n      dup2\n      add\n        /* \"#utility.yul\":6605:6639   */\n      dup6\n      swap1\n      mstore\n        /* \"contracts/RewardDistributor.sol\":4465:4489  userBalances[msg.sender] */\n      swap1\n      swap2\n      swap1\n        /* \"contracts/RewardDistributor.sol\":4490:4511  LpRepo.GetHashByIndex */\n      linkerSymbol(\"e1f060530584cbd9762c33710bf2fcee28f10a01c2654f30b69099f245ca1b1a\")\n      swap1\n      0x336c1404\n      swap1\n        /* \"#utility.yul\":6544:6562   */\n      0x44\n      add\n        /* \"contracts/RewardDistributor.sol\":4490:4514  LpRepo.GetHashByIndex(i) */\n      0x20\n      mload(0x40)\n      dup1\n      dup4\n      sub\n      dup2\n      dup7\n      gas\n      delegatecall\n      iszero\n      dup1\n      iszero\n      tag_159\n      jumpi\n      returndatacopy(0x00, 0x00, returndatasize)\n      revert(0x00, returndatasize)\n    tag_159:\n      pop\n      pop\n      pop\n      pop\n      mload(0x40)\n      returndatasize\n      not(0x1f)\n      0x1f\n      dup3\n      add\n      and\n      dup3\n      add\n      dup1\n      0x40\n      mstore\n      pop\n      dup2\n      add\n      swap1\n      tag_160\n      swap2\n      swap1\n      tag_151\n      jump\t// in\n    tag_160:\n      sub(shl(0xa0, 0x01), 0x01)\n        /* \"contracts/RewardDistributor.sol\":4465:4515  userBalances[msg.sender][LpRepo.GetHashByIndex(i)] */\n      and\n      dup2\n      mstore\n      0x20\n      dup1\n      dup3\n      add\n      swap3\n      swap1\n      swap3\n      mstore\n      0x40\n      swap1\n      dup2\n      add\n      0x00\n      swap1\n      dup2\n      keccak256\n        /* \"contracts/RewardDistributor.sol\":4542:4552  msg.sender */\n      caller\n        /* \"contracts/RewardDistributor.sol\":4529:4553  userBalances[msg.sender] */\n      dup3\n      mstore\n        /* \"contracts/RewardDistributor.sol\":4529:4541  userBalances */\n      0x0b\n        /* \"contracts/RewardDistributor.sol\":4529:4553  userBalances[msg.sender] */\n      swap1\n      swap4\n      mstore\n      dup2\n      dup2\n      keccak256\n        /* \"contracts/RewardDistributor.sol\":4554:4578  LpRepo.GetHashByIndex(i) */\n      swap2\n      mload\n      shl(0xe2, 0x0cdb0501)\n      dup2\n      mstore\n        /* \"contracts/RewardDistributor.sol\":4554:4560  LpRepo */\n      0x08\n        /* \"contracts/RewardDistributor.sol\":4554:4578  LpRepo.GetHashByIndex(i) */\n      0x04\n      dup3\n      add\n        /* \"#utility.yul\":6571:6596   */\n      mstore\n        /* \"#utility.yul\":6612:6630   */\n      0x24\n      dup2\n      add\n        /* \"#utility.yul\":6605:6639   */\n      dup7\n      swap1\n      mstore\n        /* \"contracts/RewardDistributor.sol\":4465:4528  userBalances[msg.sender][LpRepo.GetHashByIndex(i)].userBalances */\n      0x03\n      swap1\n      swap4\n      add\n      swap3\n      swap1\n      swap2\n        /* \"contracts/RewardDistributor.sol\":4529:4553  userBalances[msg.sender] */\n      swap1\n      dup3\n      swap1\n        /* \"contracts/RewardDistributor.sol\":4554:4575  LpRepo.GetHashByIndex */\n      linkerSymbol(\"e1f060530584cbd9762c33710bf2fcee28f10a01c2654f30b69099f245ca1b1a\")\n      swap1\n      0x336c1404\n      swap1\n        /* \"#utility.yul\":6544:6562   */\n      0x44\n      add\n        /* \"contracts/RewardDistributor.sol\":4554:4578  LpRepo.GetHashByIndex(i) */\n      0x20\n      mload(0x40)\n      dup1\n      dup4\n      sub\n      dup2\n      dup7\n      gas\n      delegatecall\n      iszero\n      dup1\n      iszero\n      tag_163\n      jumpi\n      returndatacopy(0x00, 0x00, returndatasize)\n      revert(0x00, returndatasize)\n    tag_163:\n      pop\n      pop\n      pop\n      pop\n      mload(0x40)\n      returndatasize\n      not(0x1f)\n      0x1f\n      dup3\n      add\n      and\n      dup3\n      add\n      dup1\n      0x40\n      mstore\n      pop\n      dup2\n      add\n      swap1\n      tag_164\n      swap2\n      swap1\n      tag_151\n      jump\t// in\n    tag_164:\n      sub(shl(0xa0, 0x01), 0x01)\n        /* \"contracts/RewardDistributor.sol\":4529:4579  userBalances[msg.sender][LpRepo.GetHashByIndex(i)] */\n      and\n      dup2\n      mstore\n      0x20\n      dup2\n      add\n      swap2\n      swap1\n      swap2\n      mstore\n      0x40\n      swap1\n      dup2\n      add\n      0x00\n      keccak256\n        /* \"contracts/RewardDistributor.sol\":4529:4607  userBalances[msg.sender][LpRepo.GetHashByIndex(i)].UserGains.GetHashByIndex(j) */\n      swap1\n      mload\n      shl(0xe0, 0xcfe6aa63)\n      dup2\n      mstore\n      0x04\n      dup2\n      add\n        /* \"#utility.yul\":6571:6596   */\n      swap2\n      swap1\n      swap2\n      mstore\n        /* \"#utility.yul\":6612:6630   */\n      0x24\n      dup2\n      add\n        /* \"#utility.yul\":6605:6639   */\n      dup5\n      swap1\n      mstore\n        /* \"contracts/RewardDistributor.sol\":4529:4604  userBalances[msg.sender][LpRepo.GetHashByIndex(i)].UserGains.GetHashByIndex */\n      linkerSymbol(\"0302b47f2070ab02d534d3bad2f8e35698b0bbfbee8e9fef42c231bdb3092aed\")\n      swap1\n      0xcfe6aa63\n      swap1\n        /* \"#utility.yul\":6544:6562   */\n      0x44\n      add\n        /* \"contracts/RewardDistributor.sol\":4529:4607  userBalances[msg.sender][LpRepo.GetHashByIndex(i)].UserGains.GetHashByIndex(j) */\n      0x20\n      mload(0x40)\n      dup1\n      dup4\n      sub\n      dup2\n      dup7\n      gas\n      delegatecall\n      iszero\n      dup1\n      iszero\n      tag_167\n      jumpi\n      returndatacopy(0x00, 0x00, returndatasize)\n      revert(0x00, returndatasize)\n    tag_167:\n      pop\n      pop\n      pop\n      pop\n      mload(0x40)\n      returndatasize\n      not(0x1f)\n      0x1f\n      dup3\n      add\n      and\n      dup3\n      add\n      dup1\n      0x40\n      mstore\n      pop\n      dup2\n      add\n      swap1\n      tag_168\n      swap2\n      swap1\n      tag_142\n      jump\t// in\n    tag_168:\n        /* \"contracts/RewardDistributor.sol\":4465:4608  userBalances[msg.sender][LpRepo.GetHashByIndex(i)].userBalances[userBalances[msg.sender][LpRepo.GetHashByIndex(i)].UserGains.GetHashByIndex(j)] */\n      dup2\n      mstore\n      0x20\n      add\n      swap1\n      dup2\n      mstore\n      0x20\n      add\n      0x00\n      keccak256\n      sload\n        /* \"contracts/RewardDistributor.sol\":4448:4608  rewardsAmount += userBalances[msg.sender][LpRepo.GetHashByIndex(i)].userBalances[userBalances[msg.sender][LpRepo.GetHashByIndex(i)].UserGains.GetHashByIndex(j)] */\n      dup4\n      tag_169\n      swap2\n      swap1\n      tag_127\n      jump\t// in\n    tag_169:\n        /* \"contracts/RewardDistributor.sol\":4642:4652  msg.sender */\n      caller\n        /* \"contracts/RewardDistributor.sol\":4775:4776  0 */\n      0x00\n        /* \"contracts/RewardDistributor.sol\":4629:4653  userBalances[msg.sender] */\n      swap1\n      dup2\n      mstore\n        /* \"contracts/RewardDistributor.sol\":4629:4641  userBalances */\n      0x0b\n        /* \"contracts/RewardDistributor.sol\":4629:4653  userBalances[msg.sender] */\n      0x20\n      mstore\n      0x40\n      dup1\n      dup3\n      keccak256\n        /* \"contracts/RewardDistributor.sol\":4654:4678  LpRepo.GetHashByIndex(i) */\n      swap1\n      mload\n      shl(0xe2, 0x0cdb0501)\n      dup2\n      mstore\n        /* \"contracts/RewardDistributor.sol\":4654:4660  LpRepo */\n      0x08\n        /* \"contracts/RewardDistributor.sol\":4654:4678  LpRepo.GetHashByIndex(i) */\n      0x04\n      dup3\n      add\n        /* \"#utility.yul\":6571:6596   */\n      mstore\n        /* \"#utility.yul\":6612:6630   */\n      0x24\n      dup2\n      add\n        /* \"#utility.yul\":6605:6639   */\n      dup7\n      swap1\n      mstore\n        /* \"contracts/RewardDistributor.sol\":4448:4608  rewardsAmount += userBalances[msg.sender][LpRepo.GetHashByIndex(i)].userBalances[userBalances[msg.sender][LpRepo.GetHashByIndex(i)].UserGains.GetHashByIndex(j)] */\n      swap3\n      swap6\n      pop\n        /* \"contracts/RewardDistributor.sol\":4775:4776  0 */\n      swap1\n      swap2\n      dup3\n      swap1\n        /* \"contracts/RewardDistributor.sol\":4654:4675  LpRepo.GetHashByIndex */\n      linkerSymbol(\"e1f060530584cbd9762c33710bf2fcee28f10a01c2654f30b69099f245ca1b1a\")\n      swap1\n      0x336c1404\n      swap1\n        /* \"#utility.yul\":6544:6562   */\n      0x44\n      add\n        /* \"contracts/RewardDistributor.sol\":4654:4678  LpRepo.GetHashByIndex(i) */\n      0x20\n      mload(0x40)\n      dup1\n      dup4\n      sub\n      dup2\n      dup7\n      gas\n      delegatecall\n      iszero\n      dup1\n      iszero\n      tag_172\n      jumpi\n      returndatacopy(0x00, 0x00, returndatasize)\n      revert(0x00, returndatasize)\n    tag_172:\n      pop\n      pop\n      pop\n      pop\n      mload(0x40)\n      returndatasize\n      not(0x1f)\n      0x1f\n      dup3\n      add\n      and\n      dup3\n      add\n      dup1\n      0x40\n      mstore\n      pop\n      dup2\n      add\n      swap1\n      tag_173\n      swap2\n      swap1\n      tag_151\n      jump\t// in\n    tag_173:\n      sub(shl(0xa0, 0x01), 0x01)\n        /* \"contracts/RewardDistributor.sol\":4629:4679  userBalances[msg.sender][LpRepo.GetHashByIndex(i)] */\n      and\n      dup2\n      mstore\n      0x20\n      dup1\n      dup3\n      add\n      swap3\n      swap1\n      swap3\n      mstore\n      0x40\n      swap1\n      dup2\n      add\n      0x00\n      swap1\n      dup2\n      keccak256\n        /* \"contracts/RewardDistributor.sol\":4706:4716  msg.sender */\n      caller\n        /* \"contracts/RewardDistributor.sol\":4693:4717  userBalances[msg.sender] */\n      dup3\n      mstore\n        /* \"contracts/RewardDistributor.sol\":4693:4705  userBalances */\n      0x0b\n        /* \"contracts/RewardDistributor.sol\":4693:4717  userBalances[msg.sender] */\n      swap1\n      swap4\n      mstore\n      dup2\n      dup2\n      keccak256\n        /* \"contracts/RewardDistributor.sol\":4718:4742  LpRepo.GetHashByIndex(i) */\n      swap2\n      mload\n      shl(0xe2, 0x0cdb0501)\n      dup2\n      mstore\n        /* \"contracts/RewardDistributor.sol\":4718:4724  LpRepo */\n      0x08\n        /* \"contracts/RewardDistributor.sol\":4718:4742  LpRepo.GetHashByIndex(i) */\n      0x04\n      dup3\n      add\n        /* \"#utility.yul\":6571:6596   */\n      mstore\n        /* \"#utility.yul\":6612:6630   */\n      0x24\n      dup2\n      add\n        /* \"#utility.yul\":6605:6639   */\n      dup8\n      swap1\n      mstore\n        /* \"contracts/RewardDistributor.sol\":4629:4692  userBalances[msg.sender][LpRepo.GetHashByIndex(i)].userBalances */\n      0x03\n      swap1\n      swap4\n      add\n      swap3\n      swap1\n      swap2\n        /* \"contracts/RewardDistributor.sol\":4693:4717  userBalances[msg.sender] */\n      swap1\n      dup3\n      swap1\n        /* \"contracts/RewardDistributor.sol\":4718:4739  LpRepo.GetHashByIndex */\n      linkerSymbol(\"e1f060530584cbd9762c33710bf2fcee28f10a01c2654f30b69099f245ca1b1a\")\n      swap1\n      0x336c1404\n      swap1\n        /* \"#utility.yul\":6544:6562   */\n      0x44\n      add\n        /* \"contracts/RewardDistributor.sol\":4718:4742  LpRepo.GetHashByIndex(i) */\n      0x20\n      mload(0x40)\n      dup1\n      dup4\n      sub\n      dup2\n      dup7\n      gas\n      delegatecall\n      iszero\n      dup1\n      iszero\n      tag_176\n      jumpi\n      returndatacopy(0x00, 0x00, returndatasize)\n      revert(0x00, returndatasize)\n    tag_176:\n      pop\n      pop\n      pop\n      pop\n      mload(0x40)\n      returndatasize\n      not(0x1f)\n      0x1f\n      dup3\n      add\n      and\n      dup3\n      add\n      dup1\n      0x40\n      mstore\n      pop\n      dup2\n      add\n      swap1\n      tag_177\n      swap2\n      swap1\n      tag_151\n      jump\t// in\n    tag_177:\n      sub(shl(0xa0, 0x01), 0x01)\n        /* \"contracts/RewardDistributor.sol\":4693:4743  userBalances[msg.sender][LpRepo.GetHashByIndex(i)] */\n      and\n      dup2\n      mstore\n      0x20\n      dup2\n      add\n      swap2\n      swap1\n      swap2\n      mstore\n      0x40\n      swap1\n      dup2\n      add\n      0x00\n      keccak256\n        /* \"contracts/RewardDistributor.sol\":4693:4771  userBalances[msg.sender][LpRepo.GetHashByIndex(i)].UserGains.GetHashByIndex(j) */\n      swap1\n      mload\n      shl(0xe0, 0xcfe6aa63)\n      dup2\n      mstore\n      0x04\n      dup2\n      add\n        /* \"#utility.yul\":6571:6596   */\n      swap2\n      swap1\n      swap2\n      mstore\n        /* \"#utility.yul\":6612:6630   */\n      0x24\n      dup2\n      add\n        /* \"#utility.yul\":6605:6639   */\n      dup6\n      swap1\n      mstore\n        /* \"contracts/RewardDistributor.sol\":4693:4768  userBalances[msg.sender][LpRepo.GetHashByIndex(i)].UserGains.GetHashByIndex */\n      linkerSymbol(\"0302b47f2070ab02d534d3bad2f8e35698b0bbfbee8e9fef42c231bdb3092aed\")\n      swap1\n      0xcfe6aa63\n      swap1\n        /* \"#utility.yul\":6544:6562   */\n      0x44\n      add\n        /* \"contracts/RewardDistributor.sol\":4693:4771  userBalances[msg.sender][LpRepo.GetHashByIndex(i)].UserGains.GetHashByIndex(j) */\n      0x20\n      mload(0x40)\n      dup1\n      dup4\n      sub\n      dup2\n      dup7\n      gas\n      delegatecall\n      iszero\n      dup1\n      iszero\n      tag_180\n      jumpi\n      returndatacopy(0x00, 0x00, returndatasize)\n      revert(0x00, returndatasize)\n    tag_180:\n      pop\n      pop\n      pop\n      pop\n      mload(0x40)\n      returndatasize\n      not(0x1f)\n      0x1f\n      dup3\n      add\n      and\n      dup3\n      add\n      dup1\n      0x40\n      mstore\n      pop\n      dup2\n      add\n      swap1\n      tag_181\n      swap2\n      swap1\n      tag_142\n      jump\t// in\n    tag_181:\n        /* \"contracts/RewardDistributor.sol\":4629:4772  userBalances[msg.sender][LpRepo.GetHashByIndex(i)].userBalances[userBalances[msg.sender][LpRepo.GetHashByIndex(i)].UserGains.GetHashByIndex(j)] */\n      dup2\n      mstore\n      0x20\n      dup2\n      add\n      swap2\n      swap1\n      swap2\n      mstore\n      0x40\n      add\n      0x00\n      keccak256\n        /* \"contracts/RewardDistributor.sol\":4629:4776  userBalances[msg.sender][LpRepo.GetHashByIndex(i)].userBalances[userBalances[msg.sender][LpRepo.GetHashByIndex(i)].UserGains.GetHashByIndex(j)] = 0 */\n      sstore\n        /* \"contracts/RewardDistributor.sol\":4432:4435  j++ */\n      0x01\n      add\n        /* \"contracts/RewardDistributor.sol\":4338:4787  for (uint256 j = 0; j < userBalances[msg.sender][LpRepo.GetHashByIndex(i)].UserGains.Count(); j++) {... */\n      jump(tag_143)\n    tag_144:\n      pop\n        /* \"contracts/RewardDistributor.sol\":4318:4321  i++ */\n      0x01\n      add\n        /* \"contracts/RewardDistributor.sol\":4278:4797  for (uint256 i = 0; i < LpRepo.Count(); i++) {... */\n      jump(tag_134)\n    tag_135:\n      pop\n        /* \"contracts/RewardDistributor.sol\":4814:4818  xusd */\n      0x04\n      dup1\n      sload\n        /* \"contracts/RewardDistributor.sol\":4807:4855  IERC20(xusd).transfer(msg.sender, rewardsAmount) */\n      mload(0x40)\n      shl(0xe0, 0xa9059cbb)\n      dup2\n      mstore\n        /* \"contracts/RewardDistributor.sol\":4829:4839  msg.sender */\n      caller\n        /* \"contracts/RewardDistributor.sol\":4807:4855  IERC20(xusd).transfer(msg.sender, rewardsAmount) */\n      swap3\n      dup2\n      add\n        /* \"#utility.yul\":8249:8300   */\n      swap3\n      swap1\n      swap3\n      mstore\n        /* \"#utility.yul\":8316:8334   */\n      0x24\n      dup3\n      add\n        /* \"#utility.yul\":8309:8343   */\n      dup4\n      swap1\n      mstore\n      sub(shl(0xa0, 0x01), 0x01)\n        /* \"contracts/RewardDistributor.sol\":4814:4818  xusd */\n      and\n      swap1\n        /* \"contracts/RewardDistributor.sol\":4807:4828  IERC20(xusd).transfer */\n      0xa9059cbb\n      swap1\n        /* \"#utility.yul\":8222:8240   */\n      0x44\n      add\n        /* \"contracts/RewardDistributor.sol\":4807:4855  IERC20(xusd).transfer(msg.sender, rewardsAmount) */\n      0x20\n      mload(0x40)\n      dup1\n      dup4\n      sub\n      dup2\n      0x00\n      dup8\n      gas\n      call\n      iszero\n      dup1\n      iszero\n      tag_185\n      jumpi\n      returndatacopy(0x00, 0x00, returndatasize)\n      revert(0x00, returndatasize)\n    tag_185:\n      pop\n      pop\n      pop\n      pop\n      mload(0x40)\n      returndatasize\n      not(0x1f)\n      0x1f\n      dup3\n      add\n      and\n      dup3\n      add\n      dup1\n      0x40\n      mstore\n      pop\n      dup2\n      add\n      swap1\n      tag_186\n      swap2\n      swap1\n      tag_96\n      jump\t// in\n    tag_186:\n      pop\n        /* \"contracts/RewardDistributor.sol\":4870:4905  Withdraw(msg.sender, rewardsAmount) */\n      mload(0x40)\n        /* \"#utility.yul\":1182:1207   */\n      dup2\n      dup2\n      mstore\n        /* \"contracts/RewardDistributor.sol\":4879:4889  msg.sender */\n      caller\n      swap1\n        /* \"contracts/RewardDistributor.sol\":4870:4905  Withdraw(msg.sender, rewardsAmount) */\n      0x884edad9ce6fa2440d8a54cc123490eb96d2768479d49ff9c7366125a9424364\n      swap1\n        /* \"#utility.yul\":1170:1172   */\n      0x20\n        /* \"#utility.yul\":1155:1173   */\n      add\n        /* \"contracts/RewardDistributor.sol\":4870:4905  Withdraw(msg.sender, rewardsAmount) */\n      mload(0x40)\n      dup1\n      swap2\n      sub\n      swap1\n      log2\n        /* \"contracts/RewardDistributor.sol\":4174:4923  {... */\n      pop\n        /* \"contracts/RewardDistributor.sol\":4145:4923  function withdraw() external {... */\n      jump\t// out\n        /* \"contracts/RewardDistributor.sol\":3370:4075  function batchDistributeTokens(address[] calldata users, uint256[] calldata amounts, address lpAddress, uint period) external onlyOwner resetIfNewDay {... */\n    tag_60:\n        /* \"contracts/RewardDistributor.sol\":1463:1468  owner */\n      and(sub(shl(0xa0, 0x01), 0x01), sload(0x07))\n        /* \"contracts/RewardDistributor.sol\":1449:1459  msg.sender */\n      caller\n        /* \"contracts/RewardDistributor.sol\":1449:1468  msg.sender == owner */\n      eq\n        /* \"contracts/RewardDistributor.sol\":1441:1495  require(msg.sender == owner, \"Not the contract owner\") */\n      tag_189\n      jumpi\n      mload(0x40)\n      shl(0xe5, 0x461bcd)\n      dup2\n      mstore\n      0x04\n      add\n      tag_88\n      swap1\n      tag_89\n      jump\t// in\n    tag_189:\n        /* \"contracts/RewardDistributor.sol\":1622:1635  uint256 today */\n      0x00\n        /* \"contracts/RewardDistributor.sol\":1638:1662  block.timestamp / 1 days */\n      tag_192\n        /* \"contracts/RewardDistributor.sol\":1656:1662  1 days */\n      0x015180\n        /* \"contracts/RewardDistributor.sol\":1638:1653  block.timestamp */\n      timestamp\n        /* \"contracts/RewardDistributor.sol\":1638:1662  block.timestamp / 1 days */\n      tag_109\n      jump\t// in\n    tag_192:\n        /* \"contracts/RewardDistributor.sol\":1622:1662  uint256 today = block.timestamp / 1 days */\n      swap1\n      pop\n        /* \"contracts/RewardDistributor.sol\":1684:1694  currentDay */\n      sload(0x03)\n        /* \"contracts/RewardDistributor.sol\":1676:1681  today */\n      dup2\n        /* \"contracts/RewardDistributor.sol\":1676:1694  today > currentDay */\n      gt\n        /* \"contracts/RewardDistributor.sol\":1672:1828  if (today > currentDay) {... */\n      iszero\n      tag_193\n      jumpi\n        /* \"contracts/RewardDistributor.sol\":1729:1730  0 */\n      0x00\n        /* \"contracts/RewardDistributor.sol\":1710:1726  distributedToday */\n      0x02\n        /* \"contracts/RewardDistributor.sol\":1710:1730  distributedToday = 0 */\n      sstore\n        /* \"contracts/RewardDistributor.sol\":1772:1782  currentDay */\n      0x03\n        /* \"contracts/RewardDistributor.sol\":1772:1790  currentDay = today */\n      dup2\n      swap1\n      sstore\n        /* \"contracts/RewardDistributor.sol\":1672:1828  if (today > currentDay) {... */\n    tag_193:\n        /* \"contracts/RewardDistributor.sol\":3538:3568  users.length == amounts.length */\n      dup6\n      dup5\n      eq\n        /* \"contracts/RewardDistributor.sol\":3530:3606  require(users.length == amounts.length, \"Users and amounts length mismatch\") */\n      tag_195\n      jumpi\n      mload(0x40)\n      shl(0xe5, 0x461bcd)\n      dup2\n      mstore\n        /* \"#utility.yul\":8556:8558   */\n      0x20\n        /* \"contracts/RewardDistributor.sol\":3530:3606  require(users.length == amounts.length, \"Users and amounts length mismatch\") */\n      0x04\n      dup3\n      add\n        /* \"#utility.yul\":8538:8559   */\n      mstore\n        /* \"#utility.yul\":8595:8597   */\n      0x21\n        /* \"#utility.yul\":8575:8593   */\n      0x24\n      dup3\n      add\n        /* \"#utility.yul\":8568:8598   */\n      mstore\n        /* \"#utility.yul\":8634:8668   */\n      0x557365727320616e6420616d6f756e7473206c656e677468206d69736d617463\n        /* \"#utility.yul\":8614:8632   */\n      0x44\n      dup3\n      add\n        /* \"#utility.yul\":8607:8669   */\n      mstore\n      shl(0xfb, 0x0d)\n        /* \"#utility.yul\":8685:8703   */\n      0x64\n      dup3\n      add\n        /* \"#utility.yul\":8678:8709   */\n      mstore\n        /* \"#utility.yul\":8726:8745   */\n      0x84\n      add\n        /* \"contracts/RewardDistributor.sol\":3530:3606  require(users.length == amounts.length, \"Users and amounts length mismatch\") */\n      tag_88\n        /* \"#utility.yul\":8354:8751   */\n      jump\n        /* \"contracts/RewardDistributor.sol\":3530:3606  require(users.length == amounts.length, \"Users and amounts length mismatch\") */\n    tag_195:\n      sub(shl(0xa0, 0x01), 0x01)\n        /* \"contracts/RewardDistributor.sol\":3617:3634  lpList[lpAddress] */\n      dup4\n      and\n      0x00\n      swap1\n      dup2\n      mstore\n        /* \"contracts/RewardDistributor.sol\":3617:3623  lpList */\n      0x06\n        /* \"contracts/RewardDistributor.sol\":3617:3634  lpList[lpAddress] */\n      0x20\n      mstore\n      0x40\n      swap1\n      keccak256\n      sload\n      0xff\n      and\n        /* \"contracts/RewardDistributor.sol\":3608:3653  require( lpList[lpAddress], \"Lp Not on list\") */\n      tag_198\n      jumpi\n      mload(0x40)\n      shl(0xe5, 0x461bcd)\n      dup2\n      mstore\n      0x04\n      add\n      tag_88\n      swap1\n      tag_117\n      jump\t// in\n    tag_198:\n        /* \"contracts/RewardDistributor.sol\":3739:3748  uint256 i */\n      0x00\n        /* \"contracts/RewardDistributor.sol\":3734:4061  for (uint256 i = 0; i < users.length; i++) {... */\n    tag_200:\n        /* \"contracts/RewardDistributor.sol\":3754:3770  i < users.length */\n      dup7\n      dup2\n      lt\n        /* \"contracts/RewardDistributor.sol\":3734:4061  for (uint256 i = 0; i < users.length; i++) {... */\n      iszero\n      tag_201\n      jumpi\n        /* \"contracts/RewardDistributor.sol\":3805:3817  userBalances */\n      0x0b\n        /* \"contracts/RewardDistributor.sol\":3805:3827  userBalances[users[i]] */\n      0x00\n        /* \"contracts/RewardDistributor.sol\":3818:3823  users */\n      dup10\n      dup10\n        /* \"contracts/RewardDistributor.sol\":3824:3825  i */\n      dup5\n        /* \"contracts/RewardDistributor.sol\":3818:3826  users[i] */\n      dup2\n      dup2\n      lt\n      tag_204\n      jumpi\n      tag_204\n      tag_205\n      jump\t// in\n    tag_204:\n      swap1\n      pop\n      0x20\n      mul\n      add\n      0x20\n      dup2\n      add\n      swap1\n      tag_206\n      swap2\n      swap1\n      tag_23\n      jump\t// in\n    tag_206:\n      sub(shl(0xa0, 0x01), 0x01)\n        /* \"contracts/RewardDistributor.sol\":3805:3827  userBalances[users[i]] */\n      swap1\n      dup2\n      and\n      dup3\n      mstore\n      0x20\n      dup1\n      dup4\n      add\n      swap4\n      swap1\n      swap4\n      mstore\n      0x40\n      swap2\n      dup3\n      add\n      0x00\n      swap1\n      dup2\n      keccak256\n        /* \"contracts/RewardDistributor.sol\":3805:3838  userBalances[users[i]][lpAddress] */\n      swap2\n      dup9\n      and\n      dup2\n      mstore\n      swap3\n      mstore\n      swap1\n      dup2\n      swap1\n      keccak256\n        /* \"contracts/RewardDistributor.sol\":3805:3865  userBalances[users[i]][lpAddress].UserGains.Register(period) */\n      swap1\n      mload\n      shl(0xe0, 0x8b584f4d)\n      dup2\n      mstore\n      0x04\n      dup2\n      add\n        /* \"#utility.yul\":6571:6596   */\n      swap2\n      swap1\n      swap2\n      mstore\n        /* \"#utility.yul\":6612:6630   */\n      0x24\n      dup2\n      add\n        /* \"#utility.yul\":6605:6639   */\n      dup5\n      swap1\n      mstore\n        /* \"contracts/RewardDistributor.sol\":3805:3857  userBalances[users[i]][lpAddress].UserGains.Register */\n      linkerSymbol(\"0302b47f2070ab02d534d3bad2f8e35698b0bbfbee8e9fef42c231bdb3092aed\")\n      swap1\n      0x8b584f4d\n      swap1\n        /* \"#utility.yul\":6544:6562   */\n      0x44\n      add\n        /* \"contracts/RewardDistributor.sol\":3805:3865  userBalances[users[i]][lpAddress].UserGains.Register(period) */\n      0x00\n      mload(0x40)\n      dup1\n      dup4\n      sub\n      dup2\n      dup7\n      dup1\n      extcodesize\n      iszero\n      dup1\n      iszero\n      tag_208\n      jumpi\n      revert(0x00, 0x00)\n    tag_208:\n      pop\n      gas\n      delegatecall\n      iszero\n      dup1\n      iszero\n      tag_210\n      jumpi\n      returndatacopy(0x00, 0x00, returndatasize)\n      revert(0x00, returndatasize)\n    tag_210:\n      pop\n      pop\n      pop\n      pop\n        /* \"contracts/RewardDistributor.sol\":3932:3939  amounts */\n      dup6\n      dup6\n        /* \"contracts/RewardDistributor.sol\":3940:3941  i */\n      dup3\n        /* \"contracts/RewardDistributor.sol\":3932:3942  amounts[i] */\n      dup2\n      dup2\n      lt\n      tag_212\n      jumpi\n      tag_212\n      tag_205\n      jump\t// in\n    tag_212:\n      swap1\n      pop\n      0x20\n      mul\n      add\n      calldataload\n        /* \"contracts/RewardDistributor.sol\":3875:3887  userBalances */\n      0x0b\n        /* \"contracts/RewardDistributor.sol\":3875:3897  userBalances[users[i]] */\n      0x00\n        /* \"contracts/RewardDistributor.sol\":3888:3893  users */\n      dup11\n      dup11\n        /* \"contracts/RewardDistributor.sol\":3894:3895  i */\n      dup6\n        /* \"contracts/RewardDistributor.sol\":3888:3896  users[i] */\n      dup2\n      dup2\n      lt\n      tag_214\n      jumpi\n      tag_214\n      tag_205\n      jump\t// in\n    tag_214:\n      swap1\n      pop\n      0x20\n      mul\n      add\n      0x20\n      dup2\n      add\n      swap1\n      tag_215\n      swap2\n      swap1\n      tag_23\n      jump\t// in\n    tag_215:\n      sub(shl(0xa0, 0x01), 0x01)\n        /* \"contracts/RewardDistributor.sol\":3875:3897  userBalances[users[i]] */\n      swap1\n      dup2\n      and\n      dup3\n      mstore\n      0x20\n      dup1\n      dup4\n      add\n      swap4\n      swap1\n      swap4\n      mstore\n      0x40\n      swap2\n      dup3\n      add\n      0x00\n      swap1\n      dup2\n      keccak256\n        /* \"contracts/RewardDistributor.sol\":3875:3908  userBalances[users[i]][lpAddress] */\n      swap2\n      dup10\n      and\n      dup2\n      mstore\n      swap1\n      dup4\n      mstore\n      dup2\n      dup2\n      keccak256\n        /* \"contracts/RewardDistributor.sol\":3875:3929  userBalances[users[i]][lpAddress].userBalances[period] */\n      dup8\n      dup3\n      mstore\n        /* \"contracts/RewardDistributor.sol\":3875:3921  userBalances[users[i]][lpAddress].userBalances */\n      0x03\n      add\n        /* \"contracts/RewardDistributor.sol\":3875:3929  userBalances[users[i]][lpAddress].userBalances[period] */\n      swap1\n      swap3\n      mstore\n      swap1\n      keccak256\n        /* \"contracts/RewardDistributor.sol\":3875:3942  userBalances[users[i]][lpAddress].userBalances[period] = amounts[i] */\n      sstore\n        /* \"contracts/RewardDistributor.sol\":3985:3992  amounts */\n      dup6\n      dup6\n        /* \"contracts/RewardDistributor.sol\":3993:3994  i */\n      dup3\n        /* \"contracts/RewardDistributor.sol\":3985:3995  amounts[i] */\n      dup2\n      dup2\n      lt\n      tag_217\n      jumpi\n      tag_217\n      tag_205\n      jump\t// in\n    tag_217:\n      sub(shl(0xa0, 0x01), 0x01)\n        /* \"contracts/RewardDistributor.sol\":3953:3973  lpRewards[lpAddress] */\n      dup8\n      and\n      0x00\n      swap1\n      dup2\n      mstore\n        /* \"contracts/RewardDistributor.sol\":3953:3962  lpRewards */\n      0x05\n        /* \"contracts/RewardDistributor.sol\":3985:3995  amounts[i] */\n      0x20\n        /* \"contracts/RewardDistributor.sol\":3953:3973  lpRewards[lpAddress] */\n      swap1\n      dup2\n      mstore\n      0x40\n      dup1\n      dup4\n      keccak256\n        /* \"contracts/RewardDistributor.sol\":3953:3981  lpRewards[lpAddress][period] */\n      dup10\n      dup5\n      mstore\n      dup3\n      mstore\n      dup3\n      keccak256\n        /* \"contracts/RewardDistributor.sol\":3953:3995  lpRewards[lpAddress][period] += amounts[i] */\n      dup1\n      sload\n        /* \"contracts/RewardDistributor.sol\":3985:3995  amounts[i] */\n      swap4\n      swap1\n      swap2\n      mul\n      swap5\n      swap1\n      swap5\n      add\n      calldataload\n      swap4\n        /* \"contracts/RewardDistributor.sol\":3953:3981  lpRewards[lpAddress][period] */\n      swap3\n      pop\n        /* \"contracts/RewardDistributor.sol\":3953:3973  lpRewards[lpAddress] */\n      swap1\n        /* \"contracts/RewardDistributor.sol\":3953:3995  lpRewards[lpAddress][period] += amounts[i] */\n      tag_218\n      swap1\n        /* \"contracts/RewardDistributor.sol\":3985:3995  amounts[i] */\n      dup5\n      swap1\n        /* \"contracts/RewardDistributor.sol\":3953:3995  lpRewards[lpAddress][period] += amounts[i] */\n      tag_127\n      jump\t// in\n    tag_218:\n      swap1\n      swap2\n      sstore\n      pop\n        /* \"contracts/RewardDistributor.sol\":4028:4035  amounts */\n      dup7\n      swap1\n      pop\n      dup6\n        /* \"contracts/RewardDistributor.sol\":4036:4037  i */\n      dup3\n        /* \"contracts/RewardDistributor.sol\":4028:4038  amounts[i] */\n      dup2\n      dup2\n      lt\n      tag_220\n      jumpi\n      tag_220\n      tag_205\n      jump\t// in\n    tag_220:\n      swap1\n      pop\n      0x20\n      mul\n      add\n      calldataload\n        /* \"contracts/RewardDistributor.sol\":4013:4024  totalSupply */\n      0x00\n      0x00\n        /* \"contracts/RewardDistributor.sol\":4013:4038  totalSupply -= amounts[i] */\n      dup3\n      dup3\n      sload\n      tag_221\n      swap2\n      swap1\n      tag_129\n      jump\t// in\n    tag_221:\n      swap1\n      swap2\n      sstore\n      pop\n      pop\n        /* \"contracts/RewardDistributor.sol\":3772:3775  i++ */\n      0x01\n      add\n        /* \"contracts/RewardDistributor.sol\":3734:4061  for (uint256 i = 0; i < users.length; i++) {... */\n      jump(tag_200)\n    tag_201:\n      pop\n        /* \"contracts/RewardDistributor.sol\":1612:1845  {... */\n      pop\n        /* \"contracts/RewardDistributor.sol\":3370:4075  function batchDistributeTokens(address[] calldata users, uint256[] calldata amounts, address lpAddress, uint period) external onlyOwner resetIfNewDay {... */\n      pop\n      pop\n      pop\n      pop\n      pop\n      pop\n      jump\t// out\n        /* \"contracts/RewardDistributor.sol\":2182:2374  function depositRewards(uint amount)external onlyOwner{... */\n    tag_65:\n        /* \"contracts/RewardDistributor.sol\":1463:1468  owner */\n      and(sub(shl(0xa0, 0x01), 0x01), sload(0x07))\n        /* \"contracts/RewardDistributor.sol\":1449:1459  msg.sender */\n      caller\n        /* \"contracts/RewardDistributor.sol\":1449:1468  msg.sender == owner */\n      eq\n        /* \"contracts/RewardDistributor.sol\":1441:1495  require(msg.sender == owner, \"Not the contract owner\") */\n      tag_223\n      jumpi\n      mload(0x40)\n      shl(0xe5, 0x461bcd)\n      dup2\n      mstore\n      0x04\n      add\n      tag_88\n      swap1\n      tag_89\n      jump\t// in\n    tag_223:\n        /* \"contracts/RewardDistributor.sol\":2253:2257  xusd */\n      0x04\n      dup1\n      sload\n        /* \"contracts/RewardDistributor.sol\":2246:2306  IERC20(xusd).transferFrom(msg.sender, address(this), amount) */\n      mload(0x40)\n      shl(0xe0, 0x23b872dd)\n      dup2\n      mstore\n        /* \"contracts/RewardDistributor.sol\":2272:2282  msg.sender */\n      caller\n        /* \"contracts/RewardDistributor.sol\":2246:2306  IERC20(xusd).transferFrom(msg.sender, address(this), amount) */\n      swap3\n      dup2\n      add\n        /* \"#utility.yul\":9090:9141   */\n      swap3\n      swap1\n      swap3\n      mstore\n        /* \"contracts/RewardDistributor.sol\":2292:2296  this */\n      address\n        /* \"#utility.yul\":9157:9175   */\n      0x24\n      dup4\n      add\n        /* \"#utility.yul\":9150:9210   */\n      mstore\n        /* \"#utility.yul\":9226:9244   */\n      0x44\n      dup3\n      add\n        /* \"#utility.yul\":9219:9253   */\n      dup4\n      swap1\n      mstore\n      sub(shl(0xa0, 0x01), 0x01)\n        /* \"contracts/RewardDistributor.sol\":2253:2257  xusd */\n      and\n      swap1\n        /* \"contracts/RewardDistributor.sol\":2246:2271  IERC20(xusd).transferFrom */\n      0x23b872dd\n      swap1\n        /* \"#utility.yul\":9063:9081   */\n      0x64\n      add\n        /* \"contracts/RewardDistributor.sol\":2246:2306  IERC20(xusd).transferFrom(msg.sender, address(this), amount) */\n      0x20\n      mload(0x40)\n      dup1\n      dup4\n      sub\n      dup2\n      0x00\n      dup8\n      gas\n      call\n      iszero\n      dup1\n      iszero\n      tag_229\n      jumpi\n      returndatacopy(0x00, 0x00, returndatasize)\n      revert(0x00, returndatasize)\n    tag_229:\n      pop\n      pop\n      pop\n      pop\n      mload(0x40)\n      returndatasize\n      not(0x1f)\n      0x1f\n      dup3\n      add\n      and\n      dup3\n      add\n      dup1\n      0x40\n      mstore\n      pop\n      dup2\n      add\n      swap1\n      tag_230\n      swap2\n      swap1\n      tag_96\n      jump\t// in\n    tag_230:\n      pop\n        /* \"contracts/RewardDistributor.sol\":2337:2341  xusd */\n      0x04\n      dup1\n      sload\n        /* \"contracts/RewardDistributor.sol\":2330:2367  IERC20(xusd).balanceOf(address(this)) */\n      mload(0x40)\n      shl(0xe0, 0x70a08231)\n      dup2\n      mstore\n        /* \"contracts/RewardDistributor.sol\":2361:2365  this */\n      address\n        /* \"contracts/RewardDistributor.sol\":2330:2367  IERC20(xusd).balanceOf(address(this)) */\n      swap3\n      dup2\n      add\n        /* \"#utility.yul\":3560:3611   */\n      swap3\n      swap1\n      swap3\n      mstore\n      sub(shl(0xa0, 0x01), 0x01)\n        /* \"contracts/RewardDistributor.sol\":2337:2341  xusd */\n      and\n      swap1\n        /* \"contracts/RewardDistributor.sol\":2330:2352  IERC20(xusd).balanceOf */\n      0x70a08231\n      swap1\n        /* \"#utility.yul\":3533:3551   */\n      0x24\n      add\n        /* \"contracts/RewardDistributor.sol\":2330:2367  IERC20(xusd).balanceOf(address(this)) */\n      0x20\n      mload(0x40)\n      dup1\n      dup4\n      sub\n      dup2\n      dup7\n      gas\n      staticcall\n      iszero\n      dup1\n      iszero\n      tag_233\n      jumpi\n      returndatacopy(0x00, 0x00, returndatasize)\n      revert(0x00, returndatasize)\n    tag_233:\n      pop\n      pop\n      pop\n      pop\n      mload(0x40)\n      returndatasize\n      not(0x1f)\n      0x1f\n      dup3\n      add\n      and\n      dup3\n      add\n      dup1\n      0x40\n      mstore\n      pop\n      dup2\n      add\n      swap1\n      tag_234\n      swap2\n      swap1\n      tag_142\n      jump\t// in\n    tag_234:\n        /* \"contracts/RewardDistributor.sol\":2316:2327  totalSupply */\n      0x00\n        /* \"contracts/RewardDistributor.sol\":2316:2367  totalSupply = IERC20(xusd).balanceOf(address(this)) */\n      sstore\n      pop\n        /* \"contracts/RewardDistributor.sol\":2182:2374  function depositRewards(uint amount)external onlyOwner{... */\n      jump\t// out\n        /* \"contracts/RewardDistributor.sol\":5158:5326  function getUserBalance(address lpAddress, uint period) external view returns (uint256) {... */\n    tag_80:\n        /* \"contracts/RewardDistributor.sol\":5276:5286  msg.sender */\n      caller\n        /* \"contracts/RewardDistributor.sol\":5237:5244  uint256 */\n      0x00\n        /* \"contracts/RewardDistributor.sol\":5263:5287  userBalances[msg.sender] */\n      swap1\n      dup2\n      mstore\n        /* \"contracts/RewardDistributor.sol\":5263:5275  userBalances */\n      0x0b\n        /* \"contracts/RewardDistributor.sol\":5263:5287  userBalances[msg.sender] */\n      0x20\n      swap1\n      dup2\n      mstore\n      0x40\n      dup1\n      dup4\n      keccak256\n      sub(shl(0xa0, 0x01), 0x01)\n        /* \"contracts/RewardDistributor.sol\":5263:5298  userBalances[msg.sender][lpAddress] */\n      dup7\n      and\n      dup5\n      mstore\n      dup3\n      mstore\n      dup1\n      dup4\n      keccak256\n        /* \"contracts/RewardDistributor.sol\":5263:5319  userBalances[msg.sender][lpAddress].userBalances[period] */\n      dup5\n      dup5\n      mstore\n        /* \"contracts/RewardDistributor.sol\":5263:5311  userBalances[msg.sender][lpAddress].userBalances */\n      0x03\n      add\n        /* \"contracts/RewardDistributor.sol\":5263:5319  userBalances[msg.sender][lpAddress].userBalances[period] */\n      swap1\n      swap2\n      mstore\n      swap1\n      keccak256\n      sload\n        /* \"contracts/RewardDistributor.sol\":5158:5326  function getUserBalance(address lpAddress, uint period) external view returns (uint256) {... */\n    tag_235:\n      swap3\n      swap2\n      pop\n      pop\n      jump\t// out\n        /* \"#utility.yul\":14:145   */\n    tag_236:\n      sub(shl(0xa0, 0x01), 0x01)\n        /* \"#utility.yul\":89:120   */\n      dup2\n      and\n        /* \"#utility.yul\":79:121   */\n      dup2\n      eq\n        /* \"#utility.yul\":69:139   */\n      tag_241\n      jumpi\n        /* \"#utility.yul\":135:136   */\n      0x00\n        /* \"#utility.yul\":132:133   */\n      0x00\n        /* \"#utility.yul\":125:137   */\n      revert\n        /* \"#utility.yul\":69:139   */\n    tag_241:\n        /* \"#utility.yul\":14:145   */\n      pop\n      jump\t// out\n        /* \"#utility.yul\":150:397   */\n    tag_23:\n        /* \"#utility.yul\":209:215   */\n      0x00\n        /* \"#utility.yul\":262:264   */\n      0x20\n        /* \"#utility.yul\":250:259   */\n      dup3\n        /* \"#utility.yul\":241:248   */\n      dup5\n        /* \"#utility.yul\":237:260   */\n      sub\n        /* \"#utility.yul\":233:265   */\n      slt\n        /* \"#utility.yul\":230:282   */\n      iszero\n      tag_243\n      jumpi\n        /* \"#utility.yul\":278:279   */\n      0x00\n        /* \"#utility.yul\":275:276   */\n      0x00\n        /* \"#utility.yul\":268:280   */\n      revert\n        /* \"#utility.yul\":230:282   */\n    tag_243:\n        /* \"#utility.yul\":317:326   */\n      dup2\n        /* \"#utility.yul\":304:327   */\n      calldataload\n        /* \"#utility.yul\":336:367   */\n      tag_244\n        /* \"#utility.yul\":361:366   */\n      dup2\n        /* \"#utility.yul\":336:367   */\n      tag_236\n      jump\t// in\n    tag_244:\n        /* \"#utility.yul\":386:391   */\n      swap4\n        /* \"#utility.yul\":150:397   */\n      swap3\n      pop\n      pop\n      pop\n      jump\t// out\n        /* \"#utility.yul\":402:1031   */\n    tag_28:\n        /* \"#utility.yul\":488:494   */\n      0x00\n        /* \"#utility.yul\":496:502   */\n      0x00\n        /* \"#utility.yul\":504:510   */\n      0x00\n        /* \"#utility.yul\":512:518   */\n      0x00\n        /* \"#utility.yul\":565:568   */\n      0x80\n        /* \"#utility.yul\":553:562   */\n      dup6\n        /* \"#utility.yul\":544:551   */\n      dup8\n        /* \"#utility.yul\":540:563   */\n      sub\n        /* \"#utility.yul\":536:569   */\n      slt\n        /* \"#utility.yul\":533:586   */\n      iszero\n      tag_246\n      jumpi\n        /* \"#utility.yul\":582:583   */\n      0x00\n        /* \"#utility.yul\":579:580   */\n      0x00\n        /* \"#utility.yul\":572:584   */\n      revert\n        /* \"#utility.yul\":533:586   */\n    tag_246:\n        /* \"#utility.yul\":621:630   */\n      dup5\n        /* \"#utility.yul\":608:631   */\n      calldataload\n        /* \"#utility.yul\":640:671   */\n      tag_247\n        /* \"#utility.yul\":665:670   */\n      dup2\n        /* \"#utility.yul\":640:671   */\n      tag_236\n      jump\t// in\n    tag_247:\n        /* \"#utility.yul\":690:695   */\n      swap4\n      pop\n        /* \"#utility.yul\":768:770   */\n      0x20\n        /* \"#utility.yul\":753:771   */\n      dup6\n      add\n        /* \"#utility.yul\":740:772   */\n      calldataload\n      swap3\n      pop\n        /* \"#utility.yul\":850:852   */\n      0x40\n        /* \"#utility.yul\":835:853   */\n      dup6\n      add\n        /* \"#utility.yul\":822:854   */\n      calldataload\n        /* \"#utility.yul\":863:896   */\n      tag_248\n        /* \"#utility.yul\":822:854   */\n      dup2\n        /* \"#utility.yul\":863:896   */\n      tag_236\n      jump\t// in\n    tag_248:\n        /* \"#utility.yul\":402:1031   */\n      swap4\n      swap7\n      swap3\n      swap6\n      pop\n        /* \"#utility.yul\":915:922   */\n      swap3\n      swap4\n        /* \"#utility.yul\":995:997   */\n      0x60\n        /* \"#utility.yul\":980:998   */\n      add\n        /* \"#utility.yul\":967:999   */\n      calldataload\n      swap3\n      pop\n      pop\n        /* \"#utility.yul\":402:1031   */\n      jump\t// out\n        /* \"#utility.yul\":1410:1777   */\n    tag_237:\n        /* \"#utility.yul\":1473:1481   */\n      0x00\n        /* \"#utility.yul\":1483:1489   */\n      0x00\n        /* \"#utility.yul\":1537:1540   */\n      dup4\n        /* \"#utility.yul\":1530:1534   */\n      0x1f\n        /* \"#utility.yul\":1522:1528   */\n      dup5\n        /* \"#utility.yul\":1518:1535   */\n      add\n        /* \"#utility.yul\":1514:1541   */\n      slt\n        /* \"#utility.yul\":1504:1559   */\n      tag_252\n      jumpi\n        /* \"#utility.yul\":1555:1556   */\n      0x00\n        /* \"#utility.yul\":1552:1553   */\n      0x00\n        /* \"#utility.yul\":1545:1557   */\n      revert\n        /* \"#utility.yul\":1504:1559   */\n    tag_252:\n      pop\n        /* \"#utility.yul\":1578:1598   */\n      dup2\n      calldataload\n        /* \"#utility.yul\":1621:1639   */\n      0xffffffffffffffff\n        /* \"#utility.yul\":1610:1640   */\n      dup2\n      gt\n        /* \"#utility.yul\":1607:1657   */\n      iszero\n      tag_253\n      jumpi\n        /* \"#utility.yul\":1653:1654   */\n      0x00\n        /* \"#utility.yul\":1650:1651   */\n      0x00\n        /* \"#utility.yul\":1643:1655   */\n      revert\n        /* \"#utility.yul\":1607:1657   */\n    tag_253:\n        /* \"#utility.yul\":1690:1694   */\n      0x20\n        /* \"#utility.yul\":1682:1688   */\n      dup4\n        /* \"#utility.yul\":1678:1695   */\n      add\n        /* \"#utility.yul\":1666:1695   */\n      swap2\n      pop\n        /* \"#utility.yul\":1750:1753   */\n      dup4\n        /* \"#utility.yul\":1743:1747   */\n      0x20\n        /* \"#utility.yul\":1733:1739   */\n      dup3\n        /* \"#utility.yul\":1730:1731   */\n      0x05\n        /* \"#utility.yul\":1726:1740   */\n      shl\n        /* \"#utility.yul\":1718:1724   */\n      dup6\n        /* \"#utility.yul\":1714:1741   */\n      add\n        /* \"#utility.yul\":1710:1748   */\n      add\n        /* \"#utility.yul\":1707:1754   */\n      gt\n        /* \"#utility.yul\":1704:1771   */\n      iszero\n      tag_254\n      jumpi\n        /* \"#utility.yul\":1767:1768   */\n      0x00\n        /* \"#utility.yul\":1764:1765   */\n      0x00\n        /* \"#utility.yul\":1757:1769   */\n      revert\n        /* \"#utility.yul\":1704:1771   */\n    tag_254:\n        /* \"#utility.yul\":1410:1777   */\n      swap3\n      pop\n      swap3\n      swap1\n      pop\n      jump\t// out\n        /* \"#utility.yul\":1782:2806   */\n    tag_59:\n        /* \"#utility.yul\":1922:1928   */\n      0x00\n        /* \"#utility.yul\":1930:1936   */\n      0x00\n        /* \"#utility.yul\":1938:1944   */\n      0x00\n        /* \"#utility.yul\":1946:1952   */\n      0x00\n        /* \"#utility.yul\":1954:1960   */\n      0x00\n        /* \"#utility.yul\":1962:1968   */\n      0x00\n        /* \"#utility.yul\":2015:2018   */\n      0x80\n        /* \"#utility.yul\":2003:2012   */\n      dup8\n        /* \"#utility.yul\":1994:2001   */\n      dup10\n        /* \"#utility.yul\":1990:2013   */\n      sub\n        /* \"#utility.yul\":1986:2019   */\n      slt\n        /* \"#utility.yul\":1983:2036   */\n      iszero\n      tag_256\n      jumpi\n        /* \"#utility.yul\":2032:2033   */\n      0x00\n        /* \"#utility.yul\":2029:2030   */\n      0x00\n        /* \"#utility.yul\":2022:2034   */\n      revert\n        /* \"#utility.yul\":1983:2036   */\n    tag_256:\n        /* \"#utility.yul\":2072:2081   */\n      dup7\n        /* \"#utility.yul\":2059:2082   */\n      calldataload\n        /* \"#utility.yul\":2105:2123   */\n      0xffffffffffffffff\n        /* \"#utility.yul\":2097:2103   */\n      dup2\n        /* \"#utility.yul\":2094:2124   */\n      gt\n        /* \"#utility.yul\":2091:2141   */\n      iszero\n      tag_257\n      jumpi\n        /* \"#utility.yul\":2137:2138   */\n      0x00\n        /* \"#utility.yul\":2134:2135   */\n      0x00\n        /* \"#utility.yul\":2127:2139   */\n      revert\n        /* \"#utility.yul\":2091:2141   */\n    tag_257:\n        /* \"#utility.yul\":2176:2246   */\n      tag_258\n        /* \"#utility.yul\":2238:2245   */\n      dup10\n        /* \"#utility.yul\":2229:2235   */\n      dup3\n        /* \"#utility.yul\":2218:2227   */\n      dup11\n        /* \"#utility.yul\":2214:2236   */\n      add\n        /* \"#utility.yul\":2176:2246   */\n      tag_237\n      jump\t// in\n    tag_258:\n        /* \"#utility.yul\":2265:2273   */\n      swap1\n      swap8\n      pop\n        /* \"#utility.yul\":2150:2246   */\n      swap6\n      pop\n      pop\n        /* \"#utility.yul\":2353:2355   */\n      0x20\n        /* \"#utility.yul\":2338:2356   */\n      dup8\n      add\n        /* \"#utility.yul\":2325:2357   */\n      calldataload\n        /* \"#utility.yul\":2382:2400   */\n      0xffffffffffffffff\n        /* \"#utility.yul\":2369:2401   */\n      dup2\n      gt\n        /* \"#utility.yul\":2366:2418   */\n      iszero\n      tag_259\n      jumpi\n        /* \"#utility.yul\":2414:2415   */\n      0x00\n        /* \"#utility.yul\":2411:2412   */\n      0x00\n        /* \"#utility.yul\":2404:2416   */\n      revert\n        /* \"#utility.yul\":2366:2418   */\n    tag_259:\n        /* \"#utility.yul\":2453:2525   */\n      tag_260\n        /* \"#utility.yul\":2517:2524   */\n      dup10\n        /* \"#utility.yul\":2506:2514   */\n      dup3\n        /* \"#utility.yul\":2495:2504   */\n      dup11\n        /* \"#utility.yul\":2491:2515   */\n      add\n        /* \"#utility.yul\":2453:2525   */\n      tag_237\n      jump\t// in\n    tag_260:\n        /* \"#utility.yul\":2544:2552   */\n      swap1\n      swap6\n      pop\n        /* \"#utility.yul\":2427:2525   */\n      swap4\n      pop\n      pop\n        /* \"#utility.yul\":2629:2631   */\n      0x40\n        /* \"#utility.yul\":2614:2632   */\n      dup8\n      add\n        /* \"#utility.yul\":2601:2633   */\n      calldataload\n        /* \"#utility.yul\":2642:2673   */\n      tag_261\n        /* \"#utility.yul\":2601:2633   */\n      dup2\n        /* \"#utility.yul\":2642:2673   */\n      tag_236\n      jump\t// in\n    tag_261:\n        /* \"#utility.yul\":1782:2806   */\n      swap6\n      swap9\n      swap5\n      swap8\n      pop\n      swap3\n      swap6\n      swap2\n      swap5\n      swap4\n        /* \"#utility.yul\":2770:2772   */\n      0x60\n        /* \"#utility.yul\":2755:2773   */\n      swap1\n      swap3\n      add\n        /* \"#utility.yul\":2742:2774   */\n      calldataload\n      swap3\n      pop\n      pop\n        /* \"#utility.yul\":1782:2806   */\n      jump\t// out\n        /* \"#utility.yul\":2811:3037   */\n    tag_64:\n        /* \"#utility.yul\":2870:2876   */\n      0x00\n        /* \"#utility.yul\":2923:2925   */\n      0x20\n        /* \"#utility.yul\":2911:2920   */\n      dup3\n        /* \"#utility.yul\":2902:2909   */\n      dup5\n        /* \"#utility.yul\":2898:2921   */\n      sub\n        /* \"#utility.yul\":2894:2926   */\n      slt\n        /* \"#utility.yul\":2891:2943   */\n      iszero\n      tag_263\n      jumpi\n        /* \"#utility.yul\":2939:2940   */\n      0x00\n        /* \"#utility.yul\":2936:2937   */\n      0x00\n        /* \"#utility.yul\":2929:2941   */\n      revert\n        /* \"#utility.yul\":2891:2943   */\n    tag_263:\n      pop\n        /* \"#utility.yul\":2984:3007   */\n      calldataload\n      swap2\n        /* \"#utility.yul\":2811:3037   */\n      swap1\n      pop\n      jump\t// out\n        /* \"#utility.yul\":3042:3409   */\n    tag_69:\n        /* \"#utility.yul\":3110:3116   */\n      0x00\n        /* \"#utility.yul\":3118:3124   */\n      0x00\n        /* \"#utility.yul\":3171:3173   */\n      0x40\n        /* \"#utility.yul\":3159:3168   */\n      dup4\n        /* \"#utility.yul\":3150:3157   */\n      dup6\n        /* \"#utility.yul\":3146:3169   */\n      sub\n        /* \"#utility.yul\":3142:3174   */\n      slt\n        /* \"#utility.yul\":3139:3191   */\n      iszero\n      tag_265\n      jumpi\n        /* \"#utility.yul\":3187:3188   */\n      0x00\n        /* \"#utility.yul\":3184:3185   */\n      0x00\n        /* \"#utility.yul\":3177:3189   */\n      revert\n        /* \"#utility.yul\":3139:3191   */\n    tag_265:\n        /* \"#utility.yul\":3226:3235   */\n      dup3\n        /* \"#utility.yul\":3213:3236   */\n      calldataload\n        /* \"#utility.yul\":3245:3276   */\n      tag_266\n        /* \"#utility.yul\":3270:3275   */\n      dup2\n        /* \"#utility.yul\":3245:3276   */\n      tag_236\n      jump\t// in\n    tag_266:\n        /* \"#utility.yul\":3295:3300   */\n      swap5\n        /* \"#utility.yul\":3373:3375   */\n      0x20\n        /* \"#utility.yul\":3358:3376   */\n      swap4\n      swap1\n      swap4\n      add\n        /* \"#utility.yul\":3345:3377   */\n      calldataload\n      swap4\n      pop\n      pop\n      pop\n        /* \"#utility.yul\":3042:3409   */\n      jump\t// out\n        /* \"#utility.yul\":3622:3968   */\n    tag_89:\n        /* \"#utility.yul\":3824:3826   */\n      0x20\n        /* \"#utility.yul\":3806:3827   */\n      dup1\n      dup3\n      mstore\n        /* \"#utility.yul\":3863:3865   */\n      0x16\n        /* \"#utility.yul\":3843:3861   */\n      swap1\n      dup3\n      add\n        /* \"#utility.yul\":3836:3866   */\n      mstore\n      shl(0x51, 0x2737ba103a34329031b7b73a3930b1ba1037bbb732b9)\n        /* \"#utility.yul\":3897:3899   */\n      0x40\n        /* \"#utility.yul\":3882:3900   */\n      dup3\n      add\n        /* \"#utility.yul\":3875:3927   */\n      mstore\n        /* \"#utility.yul\":3959:3961   */\n      0x60\n        /* \"#utility.yul\":3944:3962   */\n      add\n      swap1\n        /* \"#utility.yul\":3622:3968   */\n      jump\t// out\n        /* \"#utility.yul\":4285:4562   */\n    tag_96:\n        /* \"#utility.yul\":4352:4358   */\n      0x00\n        /* \"#utility.yul\":4405:4407   */\n      0x20\n        /* \"#utility.yul\":4393:4402   */\n      dup3\n        /* \"#utility.yul\":4384:4391   */\n      dup5\n        /* \"#utility.yul\":4380:4403   */\n      sub\n        /* \"#utility.yul\":4376:4408   */\n      slt\n        /* \"#utility.yul\":4373:4425   */\n      iszero\n      tag_271\n      jumpi\n        /* \"#utility.yul\":4421:4422   */\n      0x00\n        /* \"#utility.yul\":4418:4419   */\n      0x00\n        /* \"#utility.yul\":4411:4423   */\n      revert\n        /* \"#utility.yul\":4373:4425   */\n    tag_271:\n        /* \"#utility.yul\":4453:4462   */\n      dup2\n        /* \"#utility.yul\":4447:4463   */\n      mload\n        /* \"#utility.yul\":4506:4511   */\n      dup1\n        /* \"#utility.yul\":4499:4512   */\n      iszero\n        /* \"#utility.yul\":4492:4513   */\n      iszero\n        /* \"#utility.yul\":4485:4490   */\n      dup2\n        /* \"#utility.yul\":4482:4514   */\n      eq\n        /* \"#utility.yul\":4472:4532   */\n      tag_244\n      jumpi\n        /* \"#utility.yul\":4528:4529   */\n      0x00\n        /* \"#utility.yul\":4525:4526   */\n      0x00\n        /* \"#utility.yul\":4518:4530   */\n      revert\n        /* \"#utility.yul\":4913:5040   */\n    tag_238:\n        /* \"#utility.yul\":4974:4984   */\n      0x4e487b71\n        /* \"#utility.yul\":4969:4972   */\n      0xe0\n        /* \"#utility.yul\":4965:4985   */\n      shl\n        /* \"#utility.yul\":4962:4963   */\n      0x00\n        /* \"#utility.yul\":4955:4986   */\n      mstore\n        /* \"#utility.yul\":5005:5009   */\n      0x11\n        /* \"#utility.yul\":5002:5003   */\n      0x04\n        /* \"#utility.yul\":4995:5010   */\n      mstore\n        /* \"#utility.yul\":5029:5033   */\n      0x24\n        /* \"#utility.yul\":5026:5027   */\n      0x00\n        /* \"#utility.yul\":5019:5034   */\n      revert\n        /* \"#utility.yul\":5045:5262   */\n    tag_109:\n        /* \"#utility.yul\":5085:5086   */\n      0x00\n        /* \"#utility.yul\":5111:5112   */\n      dup3\n        /* \"#utility.yul\":5101:5233   */\n      tag_276\n      jumpi\n        /* \"#utility.yul\":5155:5165   */\n      0x4e487b71\n        /* \"#utility.yul\":5150:5153   */\n      0xe0\n        /* \"#utility.yul\":5146:5166   */\n      shl\n        /* \"#utility.yul\":5143:5144   */\n      0x00\n        /* \"#utility.yul\":5136:5167   */\n      mstore\n        /* \"#utility.yul\":5190:5194   */\n      0x12\n        /* \"#utility.yul\":5187:5188   */\n      0x04\n        /* \"#utility.yul\":5180:5195   */\n      mstore\n        /* \"#utility.yul\":5218:5222   */\n      0x24\n        /* \"#utility.yul\":5215:5216   */\n      0x00\n        /* \"#utility.yul\":5208:5223   */\n      revert\n        /* \"#utility.yul\":5101:5233   */\n    tag_276:\n      pop\n        /* \"#utility.yul\":5247:5256   */\n      div\n      swap1\n        /* \"#utility.yul\":5045:5262   */\n      jump\t// out\n        /* \"#utility.yul\":5613:5951   */\n    tag_117:\n        /* \"#utility.yul\":5815:5817   */\n      0x20\n        /* \"#utility.yul\":5797:5818   */\n      dup1\n      dup3\n      mstore\n        /* \"#utility.yul\":5854:5856   */\n      0x0e\n        /* \"#utility.yul\":5834:5852   */\n      swap1\n      dup3\n      add\n        /* \"#utility.yul\":5827:5857   */\n      mstore\n      shl(0x92, 0x131c08139bdd081bdb881b1a5cdd)\n        /* \"#utility.yul\":5888:5890   */\n      0x40\n        /* \"#utility.yul\":5873:5891   */\n      dup3\n      add\n        /* \"#utility.yul\":5866:5910   */\n      mstore\n        /* \"#utility.yul\":5942:5944   */\n      0x60\n        /* \"#utility.yul\":5927:5945   */\n      add\n      swap1\n        /* \"#utility.yul\":5613:5951   */\n      jump\t// out\n        /* \"#utility.yul\":6650:6775   */\n    tag_127:\n        /* \"#utility.yul\":6715:6724   */\n      dup1\n      dup3\n      add\n        /* \"#utility.yul\":6736:6746   */\n      dup1\n      dup3\n      gt\n        /* \"#utility.yul\":6733:6769   */\n      iszero\n      tag_235\n      jumpi\n        /* \"#utility.yul\":6749:6767   */\n      tag_235\n      tag_238\n      jump\t// in\n        /* \"#utility.yul\":6780:6908   */\n    tag_129:\n        /* \"#utility.yul\":6847:6856   */\n      dup2\n      dup2\n      sub\n        /* \"#utility.yul\":6868:6879   */\n      dup2\n      dup2\n      gt\n        /* \"#utility.yul\":6865:6902   */\n      iszero\n      tag_235\n      jumpi\n        /* \"#utility.yul\":6882:6900   */\n      tag_235\n      tag_238\n      jump\t// in\n        /* \"#utility.yul\":7128:7312   */\n    tag_142:\n        /* \"#utility.yul\":7198:7204   */\n      0x00\n        /* \"#utility.yul\":7251:7253   */\n      0x20\n        /* \"#utility.yul\":7239:7248   */\n      dup3\n        /* \"#utility.yul\":7230:7237   */\n      dup5\n        /* \"#utility.yul\":7226:7249   */\n      sub\n        /* \"#utility.yul\":7222:7254   */\n      slt\n        /* \"#utility.yul\":7219:7271   */\n      iszero\n      tag_289\n      jumpi\n        /* \"#utility.yul\":7267:7268   */\n      0x00\n        /* \"#utility.yul\":7264:7265   */\n      0x00\n        /* \"#utility.yul\":7257:7269   */\n      revert\n        /* \"#utility.yul\":7219:7271   */\n    tag_289:\n      pop\n        /* \"#utility.yul\":7290:7306   */\n      mload\n      swap2\n        /* \"#utility.yul\":7128:7312   */\n      swap1\n      pop\n      jump\t// out\n        /* \"#utility.yul\":7603:7854   */\n    tag_151:\n        /* \"#utility.yul\":7673:7679   */\n      0x00\n        /* \"#utility.yul\":7726:7728   */\n      0x20\n        /* \"#utility.yul\":7714:7723   */\n      dup3\n        /* \"#utility.yul\":7705:7712   */\n      dup5\n        /* \"#utility.yul\":7701:7724   */\n      sub\n        /* \"#utility.yul\":7697:7729   */\n      slt\n        /* \"#utility.yul\":7694:7746   */\n      iszero\n      tag_292\n      jumpi\n        /* \"#utility.yul\":7742:7743   */\n      0x00\n        /* \"#utility.yul\":7739:7740   */\n      0x00\n        /* \"#utility.yul\":7732:7744   */\n      revert\n        /* \"#utility.yul\":7694:7746   */\n    tag_292:\n        /* \"#utility.yul\":7774:7783   */\n      dup2\n        /* \"#utility.yul\":7768:7784   */\n      mload\n        /* \"#utility.yul\":7793:7824   */\n      tag_244\n        /* \"#utility.yul\":7818:7823   */\n      dup2\n        /* \"#utility.yul\":7793:7824   */\n      tag_236\n      jump\t// in\n        /* \"#utility.yul\":8756:8883   */\n    tag_205:\n        /* \"#utility.yul\":8817:8827   */\n      0x4e487b71\n        /* \"#utility.yul\":8812:8815   */\n      0xe0\n        /* \"#utility.yul\":8808:8828   */\n      shl\n        /* \"#utility.yul\":8805:8806   */\n      0x00\n        /* \"#utility.yul\":8798:8829   */\n      mstore\n        /* \"#utility.yul\":8848:8852   */\n      0x32\n        /* \"#utility.yul\":8845:8846   */\n      0x04\n        /* \"#utility.yul\":8838:8853   */\n      mstore\n        /* \"#utility.yul\":8872:8876   */\n      0x24\n        /* \"#utility.yul\":8869:8870   */\n      0x00\n        /* \"#utility.yul\":8862:8877   */\n      revert\n\n    auxdata: 0xa2646970667358221220a4f5b7946c8b0404ee0ac0778880dd4ae65ac70d085410e2e1bb5f3d35bacc0664736f6c634300081b0033\n}\n",
				"bytecode": {
					"linkReferences": {
						"contracts/AddressReg.sol": {
							"LibRegistryAdd": [
								{
									"length": 20,
									"start": 971
								},
								{
									"length": 20,
									"start": 1165
								},
								{
									"length": 20,
									"start": 1979
								},
								{
									"length": 20,
									"start": 2126
								},
								{
									"length": 20,
									"start": 2411
								},
								{
									"length": 20,
									"start": 2582
								},
								{
									"length": 20,
									"start": 2896
								},
								{
									"length": 20,
									"start": 3067
								}
							]
						},
						"contracts/registry.sol": {
							"LibRegistry": [
								{
									"length": 20,
									"start": 1675
								},
								{
									"length": 20,
									"start": 2266
								},
								{
									"length": 20,
									"start": 2729
								},
								{
									"length": 20,
									"start": 3214
								},
								{
									"length": 20,
									"start": 3857
								}
							]
						}
					},
					"object": "6080604052348015600e575f5ffd5b5060405161148c38038061148c833981016040819052602b916071565b600480546001600160a01b0319166001600160a01b03831617905560018290556056620151804260a9565b6003555050600780546001600160a01b0319163317905560c7565b5f5f604083850312156081575f5ffd5b825160208401519092506001600160a01b0381168114609e575f5ffd5b809150509250929050565b5f8260c257634e487b7160e01b5f52601260045260245ffd5b500490565b6113b8806100d45f395ff3fe6080604052600436106100be575f3560e01c80635c9302c91161006d5780635c9302c9146101ab578063671cdb0c146101c05780638bdf67f2146101df5780638cc1e155146101fe5780638da5cb5b1461023457806391a9648a1461026b578063e0f67bc71461028a575f5ffd5b806306f20003146100c95780630b209300146100ea57806318160ddd14610109578063219a037d146101305780632617519b146101455780633ccfd60b1461015957806355d2082c1461016d575f5ffd5b366100c557005b5f5ffd5b3480156100d4575f5ffd5b506100e86100e33660046110f1565b61029f565b005b3480156100f5575f5ffd5b506100e8610104366004611113565b610427565b348015610114575f5ffd5b5061011d5f5481565b6040519081526020015b60405180910390f35b34801561013b575f5ffd5b5061011d60025481565b348015610150575f5ffd5b5061011d6106b8565b348015610164575f5ffd5b506100e86106ce565b348015610178575f5ffd5b5061019b6101873660046110f1565b60066020525f908152604090205460ff1681565b6040519015158152602001610127565b3480156101b6575f5ffd5b5061011d60035481565b3480156101cb575f5ffd5b506100e86101da3660046111a0565b610ce4565b3480156101ea575f5ffd5b506100e86101f936600461122b565b610f91565b348015610209575f5ffd5b5061011d610218366004611242565b600560209081525f928352604080842090915290825290205481565b34801561023f575f5ffd5b50600754610253906001600160a01b031681565b6040516001600160a01b039091168152602001610127565b348015610276575f5ffd5b5061011d610285366004611242565b6110a5565b348015610295575f5ffd5b5061011d60015481565b6007546001600160a01b031633146102d25760405162461bcd60e51b81526004016102c99061126c565b60405180910390fd5b604051633879ffd560e01b8152600860048201526001600160a01b038216602482015273__$e1f060530584cbd9762c33710bf2fcee28$__90633879ffd590604401602060405180830381865af415801561032f573d5f5f3e3d5ffd5b505050506040513d601f19601f82011682018060405250810190610353919061129c565b156103945760405162461bcd60e51b8152602060048201526011602482015270131c08105b1c995c98591e481059191959607a1b60448201526064016102c9565b60405163d6f44de960e01b8152600860048201526001600160a01b038216602482015273__$e1f060530584cbd9762c33710bf2fcee28$__9063d6f44de9906044015f6040518083038186803b1580156103ec575f5ffd5b505af41580156103fe573d5f5f3e3d5ffd5b5050506001600160a01b039091165f908152600660205260409020805460ff1916600117905550565b6007546001600160a01b031633146104515760405162461bcd60e51b81526004016102c99061126c565b5f61045f62015180426112cf565b9050600354811115610475575f60025560038190555b6001546001600160a01b0384165f90815260056020908152604080832086845290915290205411156104dd5760405162461bcd60e51b815260206004820152601160248201527008af0c6cacac8e640c8c2d2d8f240dac2f607b1b60448201526064016102c9565b6001600160a01b0383165f9081526006602052604090205460ff166105145760405162461bcd60e51b81526004016102c9906112ee565b835f5410156105745760405162461bcd60e51b815260206004820152602660248201527f4e6f7420656e6f75676820746f6b656e73206c65667420696e20746f74616c20604482015265737570706c7960d01b60648201526084016102c9565b6001600160a01b038581165f908152600b6020908152604080832093871683529290528190209051638b584f4d60e01b815260048101919091526024810183905273__$0302b47f2070ab02d534d3bad2f8e35698$__90638b584f4d906044015f6040518083038186803b1580156105ea575f5ffd5b505af41580156105fc573d5f5f3e3d5ffd5b505050506001600160a01b038581165f908152600b6020908152604080832093871680845293825280832086845260030182528083208890559282526005815282822085835290529081208054869290610657908490611316565b92505081905550835f5f82825461066e9190611329565b90915550506040518481526001600160a01b038616907f66902764973bf4d35892cf2fde75fcd39ea2cc28a2d6f61e51e45493ee10afe19060200160405180910390a25050505050565b5f6002546001546106c99190611329565b905090565b5f805b60405163bc7fb2b560e01b81526008600482015273__$e1f060530584cbd9762c33710bf2fcee28$__9063bc7fb2b590602401602060405180830381865af415801561071f573d5f5f3e3d5ffd5b505050506040513d601f19601f82011682018060405250810190610743919061133c565b811015610c37575f5b335f908152600b60205260408082209051630cdb050160e21b8152600860048201526024810185905290919073__$e1f060530584cbd9762c33710bf2fcee28$__9063336c140490604401602060405180830381865af41580156107b2573d5f5f3e3d5ffd5b505050506040513d601f19601f820116820180604052508101906107d69190611353565b6001600160a01b03168152602081019190915260409081015f209051639ba54d2d60e01b8152600481019190915273__$0302b47f2070ab02d534d3bad2f8e35698$__90639ba54d2d90602401602060405180830381865af415801561083e573d5f5f3e3d5ffd5b505050506040513d601f19601f82011682018060405250810190610862919061133c565b811015610c2e57335f908152600b60205260408082209051630cdb050160e21b8152600860048201526024810185905290919073__$e1f060530584cbd9762c33710bf2fcee28$__9063336c140490604401602060405180830381865af41580156108cf573d5f5f3e3d5ffd5b505050506040513d601f19601f820116820180604052508101906108f39190611353565b6001600160a01b0316815260208082019290925260409081015f908120338252600b9093528181209151630cdb050160e21b81526008600482015260248101869052600390930192909190829073__$e1f060530584cbd9762c33710bf2fcee28$__9063336c140490604401602060405180830381865af415801561097a573d5f5f3e3d5ffd5b505050506040513d601f19601f8201168201806040525081019061099e9190611353565b6001600160a01b03168152602081019190915260409081015f20905163cfe6aa6360e01b815260048101919091526024810184905273__$0302b47f2070ab02d534d3bad2f8e35698$__9063cfe6aa6390604401602060405180830381865af4158015610a0d573d5f5f3e3d5ffd5b505050506040513d601f19601f82011682018060405250810190610a31919061133c565b81526020019081526020015f205483610a4a9190611316565b335f908152600b60205260408082209051630cdb050160e21b815260086004820152602481018690529295509091829073__$e1f060530584cbd9762c33710bf2fcee28$__9063336c140490604401602060405180830381865af4158015610ab4573d5f5f3e3d5ffd5b505050506040513d601f19601f82011682018060405250810190610ad89190611353565b6001600160a01b0316815260208082019290925260409081015f908120338252600b9093528181209151630cdb050160e21b81526008600482015260248101879052600390930192909190829073__$e1f060530584cbd9762c33710bf2fcee28$__9063336c140490604401602060405180830381865af4158015610b5f573d5f5f3e3d5ffd5b505050506040513d601f19601f82011682018060405250810190610b839190611353565b6001600160a01b03168152602081019190915260409081015f20905163cfe6aa6360e01b815260048101919091526024810185905273__$0302b47f2070ab02d534d3bad2f8e35698$__9063cfe6aa6390604401602060405180830381865af4158015610bf2573d5f5f3e3d5ffd5b505050506040513d601f19601f82011682018060405250810190610c16919061133c565b815260208101919091526040015f205560010161074c565b506001016106d1565b506004805460405163a9059cbb60e01b81523392810192909252602482018390526001600160a01b03169063a9059cbb906044016020604051808303815f875af1158015610c87573d5f5f3e3d5ffd5b505050506040513d601f19601f82011682018060405250810190610cab919061129c565b5060405181815233907f884edad9ce6fa2440d8a54cc123490eb96d2768479d49ff9c7366125a94243649060200160405180910390a250565b6007546001600160a01b03163314610d0e5760405162461bcd60e51b81526004016102c99061126c565b5f610d1c62015180426112cf565b9050600354811115610d32575f60025560038190555b858414610d8b5760405162461bcd60e51b815260206004820152602160248201527f557365727320616e6420616d6f756e7473206c656e677468206d69736d6174636044820152600d60fb1b60648201526084016102c9565b6001600160a01b0383165f9081526006602052604090205460ff16610dc25760405162461bcd60e51b81526004016102c9906112ee565b5f5b86811015610f8757600b5f898984818110610de157610de161136e565b9050602002016020810190610df691906110f1565b6001600160a01b03908116825260208083019390935260409182015f90812091881681529252908190209051638b584f4d60e01b815260048101919091526024810184905273__$0302b47f2070ab02d534d3bad2f8e35698$__90638b584f4d906044015f6040518083038186803b158015610e70575f5ffd5b505af4158015610e82573d5f5f3e3d5ffd5b50505050858582818110610e9857610e9861136e565b90506020020135600b5f8a8a85818110610eb457610eb461136e565b9050602002016020810190610ec991906110f1565b6001600160a01b03908116825260208083019390935260409182015f9081209189168152908352818120878252600301909252902055858582818110610f1157610f1161136e565b6001600160a01b0387165f90815260056020908152604080832089845282528220805493909102949094013593925090610f4c908490611316565b909155508690508582818110610f6457610f6461136e565b905060200201355f5f828254610f7a9190611329565b9091555050600101610dc4565b5050505050505050565b6007546001600160a01b03163314610fbb5760405162461bcd60e51b81526004016102c99061126c565b600480546040516323b872dd60e01b81523392810192909252306024830152604482018390526001600160a01b0316906323b872dd906064016020604051808303815f875af1158015611010573d5f5f3e3d5ffd5b505050506040513d601f19601f82011682018060405250810190611034919061129c565b50600480546040516370a0823160e01b815230928101929092526001600160a01b0316906370a0823190602401602060405180830381865afa15801561107c573d5f5f3e3d5ffd5b505050506040513d601f19601f820116820180604052508101906110a0919061133c565b5f5550565b335f908152600b602090815260408083206001600160a01b038616845282528083208484526003019091529020545b92915050565b6001600160a01b03811681146110ee575f5ffd5b50565b5f60208284031215611101575f5ffd5b813561110c816110da565b9392505050565b5f5f5f5f60808587031215611126575f5ffd5b8435611131816110da565b9350602085013592506040850135611148816110da565b9396929550929360600135925050565b5f5f83601f840112611168575f5ffd5b50813567ffffffffffffffff81111561117f575f5ffd5b6020830191508360208260051b8501011115611199575f5ffd5b9250929050565b5f5f5f5f5f5f608087890312156111b5575f5ffd5b863567ffffffffffffffff8111156111cb575f5ffd5b6111d789828a01611158565b909750955050602087013567ffffffffffffffff8111156111f6575f5ffd5b61120289828a01611158565b9095509350506040870135611216816110da565b95989497509295919493606090920135925050565b5f6020828403121561123b575f5ffd5b5035919050565b5f5f60408385031215611253575f5ffd5b823561125e816110da565b946020939093013593505050565b6020808252601690820152752737ba103a34329031b7b73a3930b1ba1037bbb732b960511b604082015260600190565b5f602082840312156112ac575f5ffd5b8151801515811461110c575f5ffd5b634e487b7160e01b5f52601160045260245ffd5b5f826112e957634e487b7160e01b5f52601260045260245ffd5b500490565b6020808252600e908201526d131c08139bdd081bdb881b1a5cdd60921b604082015260600190565b808201808211156110d4576110d46112bb565b818103818111156110d4576110d46112bb565b5f6020828403121561134c575f5ffd5b5051919050565b5f60208284031215611363575f5ffd5b815161110c816110da565b634e487b7160e01b5f52603260045260245ffdfea2646970667358221220a4f5b7946c8b0404ee0ac0778880dd4ae65ac70d085410e2e1bb5f3d35bacc0664736f6c634300081b0033",
					"opcodes": "PUSH1 0x80 PUSH1 0x40 MSTORE CALLVALUE DUP1 ISZERO PUSH1 0xE JUMPI PUSH0 PUSH0 REVERT JUMPDEST POP PUSH1 0x40 MLOAD PUSH2 0x148C CODESIZE SUB DUP1 PUSH2 0x148C DUP4 CODECOPY DUP2 ADD PUSH1 0x40 DUP2 SWAP1 MSTORE PUSH1 0x2B SWAP2 PUSH1 0x71 JUMP JUMPDEST PUSH1 0x4 DUP1 SLOAD PUSH1 0x1 PUSH1 0x1 PUSH1 0xA0 SHL SUB NOT AND PUSH1 0x1 PUSH1 0x1 PUSH1 0xA0 SHL SUB DUP4 AND OR SWAP1 SSTORE PUSH1 0x1 DUP3 SWAP1 SSTORE PUSH1 0x56 PUSH3 0x15180 TIMESTAMP PUSH1 0xA9 JUMP JUMPDEST PUSH1 0x3 SSTORE POP POP PUSH1 0x7 DUP1 SLOAD PUSH1 0x1 PUSH1 0x1 PUSH1 0xA0 SHL SUB NOT AND CALLER OR SWAP1 SSTORE PUSH1 0xC7 JUMP JUMPDEST PUSH0 PUSH0 PUSH1 0x40 DUP4 DUP6 SUB SLT ISZERO PUSH1 0x81 JUMPI PUSH0 PUSH0 REVERT JUMPDEST DUP3 MLOAD PUSH1 0x20 DUP5 ADD MLOAD SWAP1 SWAP3 POP PUSH1 0x1 PUSH1 0x1 PUSH1 0xA0 SHL SUB DUP2 AND DUP2 EQ PUSH1 0x9E JUMPI PUSH0 PUSH0 REVERT JUMPDEST DUP1 SWAP2 POP POP SWAP3 POP SWAP3 SWAP1 POP JUMP JUMPDEST PUSH0 DUP3 PUSH1 0xC2 JUMPI PUSH4 0x4E487B71 PUSH1 0xE0 SHL PUSH0 MSTORE PUSH1 0x12 PUSH1 0x4 MSTORE PUSH1 0x24 PUSH0 REVERT JUMPDEST POP DIV SWAP1 JUMP JUMPDEST PUSH2 0x13B8 DUP1 PUSH2 0xD4 PUSH0 CODECOPY PUSH0 RETURN INVALID PUSH1 0x80 PUSH1 0x40 MSTORE PUSH1 0x4 CALLDATASIZE LT PUSH2 0xBE JUMPI PUSH0 CALLDATALOAD PUSH1 0xE0 SHR DUP1 PUSH4 0x5C9302C9 GT PUSH2 0x6D JUMPI DUP1 PUSH4 0x5C9302C9 EQ PUSH2 0x1AB JUMPI DUP1 PUSH4 0x671CDB0C EQ PUSH2 0x1C0 JUMPI DUP1 PUSH4 0x8BDF67F2 EQ PUSH2 0x1DF JUMPI DUP1 PUSH4 0x8CC1E155 EQ PUSH2 0x1FE JUMPI DUP1 PUSH4 0x8DA5CB5B EQ PUSH2 0x234 JUMPI DUP1 PUSH4 0x91A9648A EQ PUSH2 0x26B JUMPI DUP1 PUSH4 0xE0F67BC7 EQ PUSH2 0x28A JUMPI PUSH0 PUSH0 REVERT JUMPDEST DUP1 PUSH4 0x6F20003 EQ PUSH2 0xC9 JUMPI DUP1 PUSH4 0xB209300 EQ PUSH2 0xEA JUMPI DUP1 PUSH4 0x18160DDD EQ PUSH2 0x109 JUMPI DUP1 PUSH4 0x219A037D EQ PUSH2 0x130 JUMPI DUP1 PUSH4 0x2617519B EQ PUSH2 0x145 JUMPI DUP1 PUSH4 0x3CCFD60B EQ PUSH2 0x159 JUMPI DUP1 PUSH4 0x55D2082C EQ PUSH2 0x16D JUMPI PUSH0 PUSH0 REVERT JUMPDEST CALLDATASIZE PUSH2 0xC5 JUMPI STOP JUMPDEST PUSH0 PUSH0 REVERT JUMPDEST CALLVALUE DUP1 ISZERO PUSH2 0xD4 JUMPI PUSH0 PUSH0 REVERT JUMPDEST POP PUSH2 0xE8 PUSH2 0xE3 CALLDATASIZE PUSH1 0x4 PUSH2 0x10F1 JUMP JUMPDEST PUSH2 0x29F JUMP JUMPDEST STOP JUMPDEST CALLVALUE DUP1 ISZERO PUSH2 0xF5 JUMPI PUSH0 PUSH0 REVERT JUMPDEST POP PUSH2 0xE8 PUSH2 0x104 CALLDATASIZE PUSH1 0x4 PUSH2 0x1113 JUMP JUMPDEST PUSH2 0x427 JUMP JUMPDEST CALLVALUE DUP1 ISZERO PUSH2 0x114 JUMPI PUSH0 PUSH0 REVERT JUMPDEST POP PUSH2 0x11D PUSH0 SLOAD DUP2 JUMP JUMPDEST PUSH1 0x40 MLOAD SWAP1 DUP2 MSTORE PUSH1 0x20 ADD JUMPDEST PUSH1 0x40 MLOAD DUP1 SWAP2 SUB SWAP1 RETURN JUMPDEST CALLVALUE DUP1 ISZERO PUSH2 0x13B JUMPI PUSH0 PUSH0 REVERT JUMPDEST POP PUSH2 0x11D PUSH1 0x2 SLOAD DUP2 JUMP JUMPDEST CALLVALUE DUP1 ISZERO PUSH2 0x150 JUMPI PUSH0 PUSH0 REVERT JUMPDEST POP PUSH2 0x11D PUSH2 0x6B8 JUMP JUMPDEST CALLVALUE DUP1 ISZERO PUSH2 0x164 JUMPI PUSH0 PUSH0 REVERT JUMPDEST POP PUSH2 0xE8 PUSH2 0x6CE JUMP JUMPDEST CALLVALUE DUP1 ISZERO PUSH2 0x178 JUMPI PUSH0 PUSH0 REVERT JUMPDEST POP PUSH2 0x19B PUSH2 0x187 CALLDATASIZE PUSH1 0x4 PUSH2 0x10F1 JUMP JUMPDEST PUSH1 0x6 PUSH1 0x20 MSTORE PUSH0 SWAP1 DUP2 MSTORE PUSH1 0x40 SWAP1 KECCAK256 SLOAD PUSH1 0xFF AND DUP2 JUMP JUMPDEST PUSH1 0x40 MLOAD SWAP1 ISZERO ISZERO DUP2 MSTORE PUSH1 0x20 ADD PUSH2 0x127 JUMP JUMPDEST CALLVALUE DUP1 ISZERO PUSH2 0x1B6 JUMPI PUSH0 PUSH0 REVERT JUMPDEST POP PUSH2 0x11D PUSH1 0x3 SLOAD DUP2 JUMP JUMPDEST CALLVALUE DUP1 ISZERO PUSH2 0x1CB JUMPI PUSH0 PUSH0 REVERT JUMPDEST POP PUSH2 0xE8 PUSH2 0x1DA CALLDATASIZE PUSH1 0x4 PUSH2 0x11A0 JUMP JUMPDEST PUSH2 0xCE4 JUMP JUMPDEST CALLVALUE DUP1 ISZERO PUSH2 0x1EA JUMPI PUSH0 PUSH0 REVERT JUMPDEST POP PUSH2 0xE8 PUSH2 0x1F9 CALLDATASIZE PUSH1 0x4 PUSH2 0x122B JUMP JUMPDEST PUSH2 0xF91 JUMP JUMPDEST CALLVALUE DUP1 ISZERO PUSH2 0x209 JUMPI PUSH0 PUSH0 REVERT JUMPDEST POP PUSH2 0x11D PUSH2 0x218 CALLDATASIZE PUSH1 0x4 PUSH2 0x1242 JUMP JUMPDEST PUSH1 0x5 PUSH1 0x20 SWAP1 DUP2 MSTORE PUSH0 SWAP3 DUP4 MSTORE PUSH1 0x40 DUP1 DUP5 KECCAK256 SWAP1 SWAP2 MSTORE SWAP1 DUP3 MSTORE SWAP1 KECCAK256 SLOAD DUP2 JUMP JUMPDEST CALLVALUE DUP1 ISZERO PUSH2 0x23F JUMPI PUSH0 PUSH0 REVERT JUMPDEST POP PUSH1 0x7 SLOAD PUSH2 0x253 SWAP1 PUSH1 0x1 PUSH1 0x1 PUSH1 0xA0 SHL SUB AND DUP2 JUMP JUMPDEST PUSH1 0x40 MLOAD PUSH1 0x1 PUSH1 0x1 PUSH1 0xA0 SHL SUB SWAP1 SWAP2 AND DUP2 MSTORE PUSH1 0x20 ADD PUSH2 0x127 JUMP JUMPDEST CALLVALUE DUP1 ISZERO PUSH2 0x276 JUMPI PUSH0 PUSH0 REVERT JUMPDEST POP PUSH2 0x11D PUSH2 0x285 CALLDATASIZE PUSH1 0x4 PUSH2 0x1242 JUMP JUMPDEST PUSH2 0x10A5 JUMP JUMPDEST CALLVALUE DUP1 ISZERO PUSH2 0x295 JUMPI PUSH0 PUSH0 REVERT JUMPDEST POP PUSH2 0x11D PUSH1 0x1 SLOAD DUP2 JUMP JUMPDEST PUSH1 0x7 SLOAD PUSH1 0x1 PUSH1 0x1 PUSH1 0xA0 SHL SUB AND CALLER EQ PUSH2 0x2D2 JUMPI PUSH1 0x40 MLOAD PUSH3 0x461BCD PUSH1 0xE5 SHL DUP2 MSTORE PUSH1 0x4 ADD PUSH2 0x2C9 SWAP1 PUSH2 0x126C JUMP JUMPDEST PUSH1 0x40 MLOAD DUP1 SWAP2 SUB SWAP1 REVERT JUMPDEST PUSH1 0x40 MLOAD PUSH4 0x3879FFD5 PUSH1 0xE0 SHL DUP2 MSTORE PUSH1 0x8 PUSH1 0x4 DUP3 ADD MSTORE PUSH1 0x1 PUSH1 0x1 PUSH1 0xA0 SHL SUB DUP3 AND PUSH1 0x24 DUP3 ADD MSTORE PUSH20 0x0 SWAP1 PUSH4 0x3879FFD5 SWAP1 PUSH1 0x44 ADD PUSH1 0x20 PUSH1 0x40 MLOAD DUP1 DUP4 SUB DUP2 DUP7 GAS DELEGATECALL ISZERO DUP1 ISZERO PUSH2 0x32F JUMPI RETURNDATASIZE PUSH0 PUSH0 RETURNDATACOPY RETURNDATASIZE PUSH0 REVERT JUMPDEST POP POP POP POP PUSH1 0x40 MLOAD RETURNDATASIZE PUSH1 0x1F NOT PUSH1 0x1F DUP3 ADD AND DUP3 ADD DUP1 PUSH1 0x40 MSTORE POP DUP2 ADD SWAP1 PUSH2 0x353 SWAP2 SWAP1 PUSH2 0x129C JUMP JUMPDEST ISZERO PUSH2 0x394 JUMPI PUSH1 0x40 MLOAD PUSH3 0x461BCD PUSH1 0xE5 SHL DUP2 MSTORE PUSH1 0x20 PUSH1 0x4 DUP3 ADD MSTORE PUSH1 0x11 PUSH1 0x24 DUP3 ADD MSTORE PUSH17 0x131C08105B1C995C98591E481059191959 PUSH1 0x7A SHL PUSH1 0x44 DUP3 ADD MSTORE PUSH1 0x64 ADD PUSH2 0x2C9 JUMP JUMPDEST PUSH1 0x40 MLOAD PUSH4 0xD6F44DE9 PUSH1 0xE0 SHL DUP2 MSTORE PUSH1 0x8 PUSH1 0x4 DUP3 ADD MSTORE PUSH1 0x1 PUSH1 0x1 PUSH1 0xA0 SHL SUB DUP3 AND PUSH1 0x24 DUP3 ADD MSTORE PUSH20 0x0 SWAP1 PUSH4 0xD6F44DE9 SWAP1 PUSH1 0x44 ADD PUSH0 PUSH1 0x40 MLOAD DUP1 DUP4 SUB DUP2 DUP7 DUP1 EXTCODESIZE ISZERO DUP1 ISZERO PUSH2 0x3EC JUMPI PUSH0 PUSH0 REVERT JUMPDEST POP GAS DELEGATECALL ISZERO DUP1 ISZERO PUSH2 0x3FE JUMPI RETURNDATASIZE PUSH0 PUSH0 RETURNDATACOPY RETURNDATASIZE PUSH0 REVERT JUMPDEST POP POP POP PUSH1 0x1 PUSH1 0x1 PUSH1 0xA0 SHL SUB SWAP1 SWAP2 AND PUSH0 SWAP1 DUP2 MSTORE PUSH1 0x6 PUSH1 0x20 MSTORE PUSH1 0x40 SWAP1 KECCAK256 DUP1 SLOAD PUSH1 0xFF NOT AND PUSH1 0x1 OR SWAP1 SSTORE POP JUMP JUMPDEST PUSH1 0x7 SLOAD PUSH1 0x1 PUSH1 0x1 PUSH1 0xA0 SHL SUB AND CALLER EQ PUSH2 0x451 JUMPI PUSH1 0x40 MLOAD PUSH3 0x461BCD PUSH1 0xE5 SHL DUP2 MSTORE PUSH1 0x4 ADD PUSH2 0x2C9 SWAP1 PUSH2 0x126C JUMP JUMPDEST PUSH0 PUSH2 0x45F PUSH3 0x15180 TIMESTAMP PUSH2 0x12CF JUMP JUMPDEST SWAP1 POP PUSH1 0x3 SLOAD DUP2 GT ISZERO PUSH2 0x475 JUMPI PUSH0 PUSH1 0x2 SSTORE PUSH1 0x3 DUP2 SWAP1 SSTORE JUMPDEST PUSH1 0x1 SLOAD PUSH1 0x1 PUSH1 0x1 PUSH1 0xA0 SHL SUB DUP5 AND PUSH0 SWAP1 DUP2 MSTORE PUSH1 0x5 PUSH1 0x20 SWAP1 DUP2 MSTORE PUSH1 0x40 DUP1 DUP4 KECCAK256 DUP7 DUP5 MSTORE SWAP1 SWAP2 MSTORE SWAP1 KECCAK256 SLOAD GT ISZERO PUSH2 0x4DD JUMPI PUSH1 0x40 MLOAD PUSH3 0x461BCD PUSH1 0xE5 SHL DUP2 MSTORE PUSH1 0x20 PUSH1 0x4 DUP3 ADD MSTORE PUSH1 0x11 PUSH1 0x24 DUP3 ADD MSTORE PUSH17 0x8AF0C6CACAC8E640C8C2D2D8F240DAC2F PUSH1 0x7B SHL PUSH1 0x44 DUP3 ADD MSTORE PUSH1 0x64 ADD PUSH2 0x2C9 JUMP JUMPDEST PUSH1 0x1 PUSH1 0x1 PUSH1 0xA0 SHL SUB DUP4 AND PUSH0 SWAP1 DUP2 MSTORE PUSH1 0x6 PUSH1 0x20 MSTORE PUSH1 0x40 SWAP1 KECCAK256 SLOAD PUSH1 0xFF AND PUSH2 0x514 JUMPI PUSH1 0x40 MLOAD PUSH3 0x461BCD PUSH1 0xE5 SHL DUP2 MSTORE PUSH1 0x4 ADD PUSH2 0x2C9 SWAP1 PUSH2 0x12EE JUMP JUMPDEST DUP4 PUSH0 SLOAD LT ISZERO PUSH2 0x574 JUMPI PUSH1 0x40 MLOAD PUSH3 0x461BCD PUSH1 0xE5 SHL DUP2 MSTORE PUSH1 0x20 PUSH1 0x4 DUP3 ADD MSTORE PUSH1 0x26 PUSH1 0x24 DUP3 ADD MSTORE PUSH32 0x4E6F7420656E6F75676820746F6B656E73206C65667420696E20746F74616C20 PUSH1 0x44 DUP3 ADD MSTORE PUSH6 0x737570706C79 PUSH1 0xD0 SHL PUSH1 0x64 DUP3 ADD MSTORE PUSH1 0x84 ADD PUSH2 0x2C9 JUMP JUMPDEST PUSH1 0x1 PUSH1 0x1 PUSH1 0xA0 SHL SUB DUP6 DUP2 AND PUSH0 SWAP1 DUP2 MSTORE PUSH1 0xB PUSH1 0x20 SWAP1 DUP2 MSTORE PUSH1 0x40 DUP1 DUP4 KECCAK256 SWAP4 DUP8 AND DUP4 MSTORE SWAP3 SWAP1 MSTORE DUP2 SWAP1 KECCAK256 SWAP1 MLOAD PUSH4 0x8B584F4D PUSH1 0xE0 SHL DUP2 MSTORE PUSH1 0x4 DUP2 ADD SWAP2 SWAP1 SWAP2 MSTORE PUSH1 0x24 DUP2 ADD DUP4 SWAP1 MSTORE PUSH20 0x0 SWAP1 PUSH4 0x8B584F4D SWAP1 PUSH1 0x44 ADD PUSH0 PUSH1 0x40 MLOAD DUP1 DUP4 SUB DUP2 DUP7 DUP1 EXTCODESIZE ISZERO DUP1 ISZERO PUSH2 0x5EA JUMPI PUSH0 PUSH0 REVERT JUMPDEST POP GAS DELEGATECALL ISZERO DUP1 ISZERO PUSH2 0x5FC JUMPI RETURNDATASIZE PUSH0 PUSH0 RETURNDATACOPY RETURNDATASIZE PUSH0 REVERT JUMPDEST POP POP POP POP PUSH1 0x1 PUSH1 0x1 PUSH1 0xA0 SHL SUB DUP6 DUP2 AND PUSH0 SWAP1 DUP2 MSTORE PUSH1 0xB PUSH1 0x20 SWAP1 DUP2 MSTORE PUSH1 0x40 DUP1 DUP4 KECCAK256 SWAP4 DUP8 AND DUP1 DUP5 MSTORE SWAP4 DUP3 MSTORE DUP1 DUP4 KECCAK256 DUP7 DUP5 MSTORE PUSH1 0x3 ADD DUP3 MSTORE DUP1 DUP4 KECCAK256 DUP9 SWAP1 SSTORE SWAP3 DUP3 MSTORE PUSH1 0x5 DUP2 MSTORE DUP3 DUP3 KECCAK256 DUP6 DUP4 MSTORE SWAP1 MSTORE SWAP1 DUP2 KECCAK256 DUP1 SLOAD DUP7 SWAP3 SWAP1 PUSH2 0x657 SWAP1 DUP5 SWAP1 PUSH2 0x1316 JUMP JUMPDEST SWAP3 POP POP DUP2 SWAP1 SSTORE POP DUP4 PUSH0 PUSH0 DUP3 DUP3 SLOAD PUSH2 0x66E SWAP2 SWAP1 PUSH2 0x1329 JUMP JUMPDEST SWAP1 SWAP2 SSTORE POP POP PUSH1 0x40 MLOAD DUP5 DUP2 MSTORE PUSH1 0x1 PUSH1 0x1 PUSH1 0xA0 SHL SUB DUP7 AND SWAP1 PUSH32 0x66902764973BF4D35892CF2FDE75FCD39EA2CC28A2D6F61E51E45493EE10AFE1 SWAP1 PUSH1 0x20 ADD PUSH1 0x40 MLOAD DUP1 SWAP2 SUB SWAP1 LOG2 POP POP POP POP POP JUMP JUMPDEST PUSH0 PUSH1 0x2 SLOAD PUSH1 0x1 SLOAD PUSH2 0x6C9 SWAP2 SWAP1 PUSH2 0x1329 JUMP JUMPDEST SWAP1 POP SWAP1 JUMP JUMPDEST PUSH0 DUP1 JUMPDEST PUSH1 0x40 MLOAD PUSH4 0xBC7FB2B5 PUSH1 0xE0 SHL DUP2 MSTORE PUSH1 0x8 PUSH1 0x4 DUP3 ADD MSTORE PUSH20 0x0 SWAP1 PUSH4 0xBC7FB2B5 SWAP1 PUSH1 0x24 ADD PUSH1 0x20 PUSH1 0x40 MLOAD DUP1 DUP4 SUB DUP2 DUP7 GAS DELEGATECALL ISZERO DUP1 ISZERO PUSH2 0x71F JUMPI RETURNDATASIZE PUSH0 PUSH0 RETURNDATACOPY RETURNDATASIZE PUSH0 REVERT JUMPDEST POP POP POP POP PUSH1 0x40 MLOAD RETURNDATASIZE PUSH1 0x1F NOT PUSH1 0x1F DUP3 ADD AND DUP3 ADD DUP1 PUSH1 0x40 MSTORE POP DUP2 ADD SWAP1 PUSH2 0x743 SWAP2 SWAP1 PUSH2 0x133C JUMP JUMPDEST DUP2 LT ISZERO PUSH2 0xC37 JUMPI PUSH0 JUMPDEST CALLER PUSH0 SWAP1 DUP2 MSTORE PUSH1 0xB PUSH1 0x20 MSTORE PUSH1 0x40 DUP1 DUP3 KECCAK256 SWAP1 MLOAD PUSH4 0xCDB0501 PUSH1 0xE2 SHL DUP2 MSTORE PUSH1 0x8 PUSH1 0x4 DUP3 ADD MSTORE PUSH1 0x24 DUP2 ADD DUP6 SWAP1 MSTORE SWAP1 SWAP2 SWAP1 PUSH20 0x0 SWAP1 PUSH4 0x336C1404 SWAP1 PUSH1 0x44 ADD PUSH1 0x20 PUSH1 0x40 MLOAD DUP1 DUP4 SUB DUP2 DUP7 GAS DELEGATECALL ISZERO DUP1 ISZERO PUSH2 0x7B2 JUMPI RETURNDATASIZE PUSH0 PUSH0 RETURNDATACOPY RETURNDATASIZE PUSH0 REVERT JUMPDEST POP POP POP POP PUSH1 0x40 MLOAD RETURNDATASIZE PUSH1 0x1F NOT PUSH1 0x1F DUP3 ADD AND DUP3 ADD DUP1 PUSH1 0x40 MSTORE POP DUP2 ADD SWAP1 PUSH2 0x7D6 SWAP2 SWAP1 PUSH2 0x1353 JUMP JUMPDEST PUSH1 0x1 PUSH1 0x1 PUSH1 0xA0 SHL SUB AND DUP2 MSTORE PUSH1 0x20 DUP2 ADD SWAP2 SWAP1 SWAP2 MSTORE PUSH1 0x40 SWAP1 DUP2 ADD PUSH0 KECCAK256 SWAP1 MLOAD PUSH4 0x9BA54D2D PUSH1 0xE0 SHL DUP2 MSTORE PUSH1 0x4 DUP2 ADD SWAP2 SWAP1 SWAP2 MSTORE PUSH20 0x0 SWAP1 PUSH4 0x9BA54D2D SWAP1 PUSH1 0x24 ADD PUSH1 0x20 PUSH1 0x40 MLOAD DUP1 DUP4 SUB DUP2 DUP7 GAS DELEGATECALL ISZERO DUP1 ISZERO PUSH2 0x83E JUMPI RETURNDATASIZE PUSH0 PUSH0 RETURNDATACOPY RETURNDATASIZE PUSH0 REVERT JUMPDEST POP POP POP POP PUSH1 0x40 MLOAD RETURNDATASIZE PUSH1 0x1F NOT PUSH1 0x1F DUP3 ADD AND DUP3 ADD DUP1 PUSH1 0x40 MSTORE POP DUP2 ADD SWAP1 PUSH2 0x862 SWAP2 SWAP1 PUSH2 0x133C JUMP JUMPDEST DUP2 LT ISZERO PUSH2 0xC2E JUMPI CALLER PUSH0 SWAP1 DUP2 MSTORE PUSH1 0xB PUSH1 0x20 MSTORE PUSH1 0x40 DUP1 DUP3 KECCAK256 SWAP1 MLOAD PUSH4 0xCDB0501 PUSH1 0xE2 SHL DUP2 MSTORE PUSH1 0x8 PUSH1 0x4 DUP3 ADD MSTORE PUSH1 0x24 DUP2 ADD DUP6 SWAP1 MSTORE SWAP1 SWAP2 SWAP1 PUSH20 0x0 SWAP1 PUSH4 0x336C1404 SWAP1 PUSH1 0x44 ADD PUSH1 0x20 PUSH1 0x40 MLOAD DUP1 DUP4 SUB DUP2 DUP7 GAS DELEGATECALL ISZERO DUP1 ISZERO PUSH2 0x8CF JUMPI RETURNDATASIZE PUSH0 PUSH0 RETURNDATACOPY RETURNDATASIZE PUSH0 REVERT JUMPDEST POP POP POP POP PUSH1 0x40 MLOAD RETURNDATASIZE PUSH1 0x1F NOT PUSH1 0x1F DUP3 ADD AND DUP3 ADD DUP1 PUSH1 0x40 MSTORE POP DUP2 ADD SWAP1 PUSH2 0x8F3 SWAP2 SWAP1 PUSH2 0x1353 JUMP JUMPDEST PUSH1 0x1 PUSH1 0x1 PUSH1 0xA0 SHL SUB AND DUP2 MSTORE PUSH1 0x20 DUP1 DUP3 ADD SWAP3 SWAP1 SWAP3 MSTORE PUSH1 0x40 SWAP1 DUP2 ADD PUSH0 SWAP1 DUP2 KECCAK256 CALLER DUP3 MSTORE PUSH1 0xB SWAP1 SWAP4 MSTORE DUP2 DUP2 KECCAK256 SWAP2 MLOAD PUSH4 0xCDB0501 PUSH1 0xE2 SHL DUP2 MSTORE PUSH1 0x8 PUSH1 0x4 DUP3 ADD MSTORE PUSH1 0x24 DUP2 ADD DUP7 SWAP1 MSTORE PUSH1 0x3 SWAP1 SWAP4 ADD SWAP3 SWAP1 SWAP2 SWAP1 DUP3 SWAP1 PUSH20 0x0 SWAP1 PUSH4 0x336C1404 SWAP1 PUSH1 0x44 ADD PUSH1 0x20 PUSH1 0x40 MLOAD DUP1 DUP4 SUB DUP2 DUP7 GAS DELEGATECALL ISZERO DUP1 ISZERO PUSH2 0x97A JUMPI RETURNDATASIZE PUSH0 PUSH0 RETURNDATACOPY RETURNDATASIZE PUSH0 REVERT JUMPDEST POP POP POP POP PUSH1 0x40 MLOAD RETURNDATASIZE PUSH1 0x1F NOT PUSH1 0x1F DUP3 ADD AND DUP3 ADD DUP1 PUSH1 0x40 MSTORE POP DUP2 ADD SWAP1 PUSH2 0x99E SWAP2 SWAP1 PUSH2 0x1353 JUMP JUMPDEST PUSH1 0x1 PUSH1 0x1 PUSH1 0xA0 SHL SUB AND DUP2 MSTORE PUSH1 0x20 DUP2 ADD SWAP2 SWAP1 SWAP2 MSTORE PUSH1 0x40 SWAP1 DUP2 ADD PUSH0 KECCAK256 SWAP1 MLOAD PUSH4 0xCFE6AA63 PUSH1 0xE0 SHL DUP2 MSTORE PUSH1 0x4 DUP2 ADD SWAP2 SWAP1 SWAP2 MSTORE PUSH1 0x24 DUP2 ADD DUP5 SWAP1 MSTORE PUSH20 0x0 SWAP1 PUSH4 0xCFE6AA63 SWAP1 PUSH1 0x44 ADD PUSH1 0x20 PUSH1 0x40 MLOAD DUP1 DUP4 SUB DUP2 DUP7 GAS DELEGATECALL ISZERO DUP1 ISZERO PUSH2 0xA0D JUMPI RETURNDATASIZE PUSH0 PUSH0 RETURNDATACOPY RETURNDATASIZE PUSH0 REVERT JUMPDEST POP POP POP POP PUSH1 0x40 MLOAD RETURNDATASIZE PUSH1 0x1F NOT PUSH1 0x1F DUP3 ADD AND DUP3 ADD DUP1 PUSH1 0x40 MSTORE POP DUP2 ADD SWAP1 PUSH2 0xA31 SWAP2 SWAP1 PUSH2 0x133C JUMP JUMPDEST DUP2 MSTORE PUSH1 0x20 ADD SWAP1 DUP2 MSTORE PUSH1 0x20 ADD PUSH0 KECCAK256 SLOAD DUP4 PUSH2 0xA4A SWAP2 SWAP1 PUSH2 0x1316 JUMP JUMPDEST CALLER PUSH0 SWAP1 DUP2 MSTORE PUSH1 0xB PUSH1 0x20 MSTORE PUSH1 0x40 DUP1 DUP3 KECCAK256 SWAP1 MLOAD PUSH4 0xCDB0501 PUSH1 0xE2 SHL DUP2 MSTORE PUSH1 0x8 PUSH1 0x4 DUP3 ADD MSTORE PUSH1 0x24 DUP2 ADD DUP7 SWAP1 MSTORE SWAP3 SWAP6 POP SWAP1 SWAP2 DUP3 SWAP1 PUSH20 0x0 SWAP1 PUSH4 0x336C1404 SWAP1 PUSH1 0x44 ADD PUSH1 0x20 PUSH1 0x40 MLOAD DUP1 DUP4 SUB DUP2 DUP7 GAS DELEGATECALL ISZERO DUP1 ISZERO PUSH2 0xAB4 JUMPI RETURNDATASIZE PUSH0 PUSH0 RETURNDATACOPY RETURNDATASIZE PUSH0 REVERT JUMPDEST POP POP POP POP PUSH1 0x40 MLOAD RETURNDATASIZE PUSH1 0x1F NOT PUSH1 0x1F DUP3 ADD AND DUP3 ADD DUP1 PUSH1 0x40 MSTORE POP DUP2 ADD SWAP1 PUSH2 0xAD8 SWAP2 SWAP1 PUSH2 0x1353 JUMP JUMPDEST PUSH1 0x1 PUSH1 0x1 PUSH1 0xA0 SHL SUB AND DUP2 MSTORE PUSH1 0x20 DUP1 DUP3 ADD SWAP3 SWAP1 SWAP3 MSTORE PUSH1 0x40 SWAP1 DUP2 ADD PUSH0 SWAP1 DUP2 KECCAK256 CALLER DUP3 MSTORE PUSH1 0xB SWAP1 SWAP4 MSTORE DUP2 DUP2 KECCAK256 SWAP2 MLOAD PUSH4 0xCDB0501 PUSH1 0xE2 SHL DUP2 MSTORE PUSH1 0x8 PUSH1 0x4 DUP3 ADD MSTORE PUSH1 0x24 DUP2 ADD DUP8 SWAP1 MSTORE PUSH1 0x3 SWAP1 SWAP4 ADD SWAP3 SWAP1 SWAP2 SWAP1 DUP3 SWAP1 PUSH20 0x0 SWAP1 PUSH4 0x336C1404 SWAP1 PUSH1 0x44 ADD PUSH1 0x20 PUSH1 0x40 MLOAD DUP1 DUP4 SUB DUP2 DUP7 GAS DELEGATECALL ISZERO DUP1 ISZERO PUSH2 0xB5F JUMPI RETURNDATASIZE PUSH0 PUSH0 RETURNDATACOPY RETURNDATASIZE PUSH0 REVERT JUMPDEST POP POP POP POP PUSH1 0x40 MLOAD RETURNDATASIZE PUSH1 0x1F NOT PUSH1 0x1F DUP3 ADD AND DUP3 ADD DUP1 PUSH1 0x40 MSTORE POP DUP2 ADD SWAP1 PUSH2 0xB83 SWAP2 SWAP1 PUSH2 0x1353 JUMP JUMPDEST PUSH1 0x1 PUSH1 0x1 PUSH1 0xA0 SHL SUB AND DUP2 MSTORE PUSH1 0x20 DUP2 ADD SWAP2 SWAP1 SWAP2 MSTORE PUSH1 0x40 SWAP1 DUP2 ADD PUSH0 KECCAK256 SWAP1 MLOAD PUSH4 0xCFE6AA63 PUSH1 0xE0 SHL DUP2 MSTORE PUSH1 0x4 DUP2 ADD SWAP2 SWAP1 SWAP2 MSTORE PUSH1 0x24 DUP2 ADD DUP6 SWAP1 MSTORE PUSH20 0x0 SWAP1 PUSH4 0xCFE6AA63 SWAP1 PUSH1 0x44 ADD PUSH1 0x20 PUSH1 0x40 MLOAD DUP1 DUP4 SUB DUP2 DUP7 GAS DELEGATECALL ISZERO DUP1 ISZERO PUSH2 0xBF2 JUMPI RETURNDATASIZE PUSH0 PUSH0 RETURNDATACOPY RETURNDATASIZE PUSH0 REVERT JUMPDEST POP POP POP POP PUSH1 0x40 MLOAD RETURNDATASIZE PUSH1 0x1F NOT PUSH1 0x1F DUP3 ADD AND DUP3 ADD DUP1 PUSH1 0x40 MSTORE POP DUP2 ADD SWAP1 PUSH2 0xC16 SWAP2 SWAP1 PUSH2 0x133C JUMP JUMPDEST DUP2 MSTORE PUSH1 0x20 DUP2 ADD SWAP2 SWAP1 SWAP2 MSTORE PUSH1 0x40 ADD PUSH0 KECCAK256 SSTORE PUSH1 0x1 ADD PUSH2 0x74C JUMP JUMPDEST POP PUSH1 0x1 ADD PUSH2 0x6D1 JUMP JUMPDEST POP PUSH1 0x4 DUP1 SLOAD PUSH1 0x40 MLOAD PUSH4 0xA9059CBB PUSH1 0xE0 SHL DUP2 MSTORE CALLER SWAP3 DUP2 ADD SWAP3 SWAP1 SWAP3 MSTORE PUSH1 0x24 DUP3 ADD DUP4 SWAP1 MSTORE PUSH1 0x1 PUSH1 0x1 PUSH1 0xA0 SHL SUB AND SWAP1 PUSH4 0xA9059CBB SWAP1 PUSH1 0x44 ADD PUSH1 0x20 PUSH1 0x40 MLOAD DUP1 DUP4 SUB DUP2 PUSH0 DUP8 GAS CALL ISZERO DUP1 ISZERO PUSH2 0xC87 JUMPI RETURNDATASIZE PUSH0 PUSH0 RETURNDATACOPY RETURNDATASIZE PUSH0 REVERT JUMPDEST POP POP POP POP PUSH1 0x40 MLOAD RETURNDATASIZE PUSH1 0x1F NOT PUSH1 0x1F DUP3 ADD AND DUP3 ADD DUP1 PUSH1 0x40 MSTORE POP DUP2 ADD SWAP1 PUSH2 0xCAB SWAP2 SWAP1 PUSH2 0x129C JUMP JUMPDEST POP PUSH1 0x40 MLOAD DUP2 DUP2 MSTORE CALLER SWAP1 PUSH32 0x884EDAD9CE6FA2440D8A54CC123490EB96D2768479D49FF9C7366125A9424364 SWAP1 PUSH1 0x20 ADD PUSH1 0x40 MLOAD DUP1 SWAP2 SUB SWAP1 LOG2 POP JUMP JUMPDEST PUSH1 0x7 SLOAD PUSH1 0x1 PUSH1 0x1 PUSH1 0xA0 SHL SUB AND CALLER EQ PUSH2 0xD0E JUMPI PUSH1 0x40 MLOAD PUSH3 0x461BCD PUSH1 0xE5 SHL DUP2 MSTORE PUSH1 0x4 ADD PUSH2 0x2C9 SWAP1 PUSH2 0x126C JUMP JUMPDEST PUSH0 PUSH2 0xD1C PUSH3 0x15180 TIMESTAMP PUSH2 0x12CF JUMP JUMPDEST SWAP1 POP PUSH1 0x3 SLOAD DUP2 GT ISZERO PUSH2 0xD32 JUMPI PUSH0 PUSH1 0x2 SSTORE PUSH1 0x3 DUP2 SWAP1 SSTORE JUMPDEST DUP6 DUP5 EQ PUSH2 0xD8B JUMPI PUSH1 0x40 MLOAD PUSH3 0x461BCD PUSH1 0xE5 SHL DUP2 MSTORE PUSH1 0x20 PUSH1 0x4 DUP3 ADD MSTORE PUSH1 0x21 PUSH1 0x24 DUP3 ADD MSTORE PUSH32 0x557365727320616E6420616D6F756E7473206C656E677468206D69736D617463 PUSH1 0x44 DUP3 ADD MSTORE PUSH1 0xD PUSH1 0xFB SHL PUSH1 0x64 DUP3 ADD MSTORE PUSH1 0x84 ADD PUSH2 0x2C9 JUMP JUMPDEST PUSH1 0x1 PUSH1 0x1 PUSH1 0xA0 SHL SUB DUP4 AND PUSH0 SWAP1 DUP2 MSTORE PUSH1 0x6 PUSH1 0x20 MSTORE PUSH1 0x40 SWAP1 KECCAK256 SLOAD PUSH1 0xFF AND PUSH2 0xDC2 JUMPI PUSH1 0x40 MLOAD PUSH3 0x461BCD PUSH1 0xE5 SHL DUP2 MSTORE PUSH1 0x4 ADD PUSH2 0x2C9 SWAP1 PUSH2 0x12EE JUMP JUMPDEST PUSH0 JUMPDEST DUP7 DUP2 LT ISZERO PUSH2 0xF87 JUMPI PUSH1 0xB PUSH0 DUP10 DUP10 DUP5 DUP2 DUP2 LT PUSH2 0xDE1 JUMPI PUSH2 0xDE1 PUSH2 0x136E JUMP JUMPDEST SWAP1 POP PUSH1 0x20 MUL ADD PUSH1 0x20 DUP2 ADD SWAP1 PUSH2 0xDF6 SWAP2 SWAP1 PUSH2 0x10F1 JUMP JUMPDEST PUSH1 0x1 PUSH1 0x1 PUSH1 0xA0 SHL SUB SWAP1 DUP2 AND DUP3 MSTORE PUSH1 0x20 DUP1 DUP4 ADD SWAP4 SWAP1 SWAP4 MSTORE PUSH1 0x40 SWAP2 DUP3 ADD PUSH0 SWAP1 DUP2 KECCAK256 SWAP2 DUP9 AND DUP2 MSTORE SWAP3 MSTORE SWAP1 DUP2 SWAP1 KECCAK256 SWAP1 MLOAD PUSH4 0x8B584F4D PUSH1 0xE0 SHL DUP2 MSTORE PUSH1 0x4 DUP2 ADD SWAP2 SWAP1 SWAP2 MSTORE PUSH1 0x24 DUP2 ADD DUP5 SWAP1 MSTORE PUSH20 0x0 SWAP1 PUSH4 0x8B584F4D SWAP1 PUSH1 0x44 ADD PUSH0 PUSH1 0x40 MLOAD DUP1 DUP4 SUB DUP2 DUP7 DUP1 EXTCODESIZE ISZERO DUP1 ISZERO PUSH2 0xE70 JUMPI PUSH0 PUSH0 REVERT JUMPDEST POP GAS DELEGATECALL ISZERO DUP1 ISZERO PUSH2 0xE82 JUMPI RETURNDATASIZE PUSH0 PUSH0 RETURNDATACOPY RETURNDATASIZE PUSH0 REVERT JUMPDEST POP POP POP POP DUP6 DUP6 DUP3 DUP2 DUP2 LT PUSH2 0xE98 JUMPI PUSH2 0xE98 PUSH2 0x136E JUMP JUMPDEST SWAP1 POP PUSH1 0x20 MUL ADD CALLDATALOAD PUSH1 0xB PUSH0 DUP11 DUP11 DUP6 DUP2 DUP2 LT PUSH2 0xEB4 JUMPI PUSH2 0xEB4 PUSH2 0x136E JUMP JUMPDEST SWAP1 POP PUSH1 0x20 MUL ADD PUSH1 0x20 DUP2 ADD SWAP1 PUSH2 0xEC9 SWAP2 SWAP1 PUSH2 0x10F1 JUMP JUMPDEST PUSH1 0x1 PUSH1 0x1 PUSH1 0xA0 SHL SUB SWAP1 DUP2 AND DUP3 MSTORE PUSH1 0x20 DUP1 DUP4 ADD SWAP4 SWAP1 SWAP4 MSTORE PUSH1 0x40 SWAP2 DUP3 ADD PUSH0 SWAP1 DUP2 KECCAK256 SWAP2 DUP10 AND DUP2 MSTORE SWAP1 DUP4 MSTORE DUP2 DUP2 KECCAK256 DUP8 DUP3 MSTORE PUSH1 0x3 ADD SWAP1 SWAP3 MSTORE SWAP1 KECCAK256 SSTORE DUP6 DUP6 DUP3 DUP2 DUP2 LT PUSH2 0xF11 JUMPI PUSH2 0xF11 PUSH2 0x136E JUMP JUMPDEST PUSH1 0x1 PUSH1 0x1 PUSH1 0xA0 SHL SUB DUP8 AND PUSH0 SWAP1 DUP2 MSTORE PUSH1 0x5 PUSH1 0x20 SWAP1 DUP2 MSTORE PUSH1 0x40 DUP1 DUP4 KECCAK256 DUP10 DUP5 MSTORE DUP3 MSTORE DUP3 KECCAK256 DUP1 SLOAD SWAP4 SWAP1 SWAP2 MUL SWAP5 SWAP1 SWAP5 ADD CALLDATALOAD SWAP4 SWAP3 POP SWAP1 PUSH2 0xF4C SWAP1 DUP5 SWAP1 PUSH2 0x1316 JUMP JUMPDEST SWAP1 SWAP2 SSTORE POP DUP7 SWAP1 POP DUP6 DUP3 DUP2 DUP2 LT PUSH2 0xF64 JUMPI PUSH2 0xF64 PUSH2 0x136E JUMP JUMPDEST SWAP1 POP PUSH1 0x20 MUL ADD CALLDATALOAD PUSH0 PUSH0 DUP3 DUP3 SLOAD PUSH2 0xF7A SWAP2 SWAP1 PUSH2 0x1329 JUMP JUMPDEST SWAP1 SWAP2 SSTORE POP POP PUSH1 0x1 ADD PUSH2 0xDC4 JUMP JUMPDEST POP POP POP POP POP POP POP POP JUMP JUMPDEST PUSH1 0x7 SLOAD PUSH1 0x1 PUSH1 0x1 PUSH1 0xA0 SHL SUB AND CALLER EQ PUSH2 0xFBB JUMPI PUSH1 0x40 MLOAD PUSH3 0x461BCD PUSH1 0xE5 SHL DUP2 MSTORE PUSH1 0x4 ADD PUSH2 0x2C9 SWAP1 PUSH2 0x126C JUMP JUMPDEST PUSH1 0x4 DUP1 SLOAD PUSH1 0x40 MLOAD PUSH4 0x23B872DD PUSH1 0xE0 SHL DUP2 MSTORE CALLER SWAP3 DUP2 ADD SWAP3 SWAP1 SWAP3 MSTORE ADDRESS PUSH1 0x24 DUP4 ADD MSTORE PUSH1 0x44 DUP3 ADD DUP4 SWAP1 MSTORE PUSH1 0x1 PUSH1 0x1 PUSH1 0xA0 SHL SUB AND SWAP1 PUSH4 0x23B872DD SWAP1 PUSH1 0x64 ADD PUSH1 0x20 PUSH1 0x40 MLOAD DUP1 DUP4 SUB DUP2 PUSH0 DUP8 GAS CALL ISZERO DUP1 ISZERO PUSH2 0x1010 JUMPI RETURNDATASIZE PUSH0 PUSH0 RETURNDATACOPY RETURNDATASIZE PUSH0 REVERT JUMPDEST POP POP POP POP PUSH1 0x40 MLOAD RETURNDATASIZE PUSH1 0x1F NOT PUSH1 0x1F DUP3 ADD AND DUP3 ADD DUP1 PUSH1 0x40 MSTORE POP DUP2 ADD SWAP1 PUSH2 0x1034 SWAP2 SWAP1 PUSH2 0x129C JUMP JUMPDEST POP PUSH1 0x4 DUP1 SLOAD PUSH1 0x40 MLOAD PUSH4 0x70A08231 PUSH1 0xE0 SHL DUP2 MSTORE ADDRESS SWAP3 DUP2 ADD SWAP3 SWAP1 SWAP3 MSTORE PUSH1 0x1 PUSH1 0x1 PUSH1 0xA0 SHL SUB AND SWAP1 PUSH4 0x70A08231 SWAP1 PUSH1 0x24 ADD PUSH1 0x20 PUSH1 0x40 MLOAD DUP1 DUP4 SUB DUP2 DUP7 GAS STATICCALL ISZERO DUP1 ISZERO PUSH2 0x107C JUMPI RETURNDATASIZE PUSH0 PUSH0 RETURNDATACOPY RETURNDATASIZE PUSH0 REVERT JUMPDEST POP POP POP POP PUSH1 0x40 MLOAD RETURNDATASIZE PUSH1 0x1F NOT PUSH1 0x1F DUP3 ADD AND DUP3 ADD DUP1 PUSH1 0x40 MSTORE POP DUP2 ADD SWAP1 PUSH2 0x10A0 SWAP2 SWAP1 PUSH2 0x133C JUMP JUMPDEST PUSH0 SSTORE POP JUMP JUMPDEST CALLER PUSH0 SWAP1 DUP2 MSTORE PUSH1 0xB PUSH1 0x20 SWAP1 DUP2 MSTORE PUSH1 0x40 DUP1 DUP4 KECCAK256 PUSH1 0x1 PUSH1 0x1 PUSH1 0xA0 SHL SUB DUP7 AND DUP5 MSTORE DUP3 MSTORE DUP1 DUP4 KECCAK256 DUP5 DUP5 MSTORE PUSH1 0x3 ADD SWAP1 SWAP2 MSTORE SWAP1 KECCAK256 SLOAD JUMPDEST SWAP3 SWAP2 POP POP JUMP JUMPDEST PUSH1 0x1 PUSH1 0x1 PUSH1 0xA0 SHL SUB DUP2 AND DUP2 EQ PUSH2 0x10EE JUMPI PUSH0 PUSH0 REVERT JUMPDEST POP JUMP JUMPDEST PUSH0 PUSH1 0x20 DUP3 DUP5 SUB SLT ISZERO PUSH2 0x1101 JUMPI PUSH0 PUSH0 REVERT JUMPDEST DUP2 CALLDATALOAD PUSH2 0x110C DUP2 PUSH2 0x10DA JUMP JUMPDEST SWAP4 SWAP3 POP POP POP JUMP JUMPDEST PUSH0 PUSH0 PUSH0 PUSH0 PUSH1 0x80 DUP6 DUP8 SUB SLT ISZERO PUSH2 0x1126 JUMPI PUSH0 PUSH0 REVERT JUMPDEST DUP5 CALLDATALOAD PUSH2 0x1131 DUP2 PUSH2 0x10DA JUMP JUMPDEST SWAP4 POP PUSH1 0x20 DUP6 ADD CALLDATALOAD SWAP3 POP PUSH1 0x40 DUP6 ADD CALLDATALOAD PUSH2 0x1148 DUP2 PUSH2 0x10DA JUMP JUMPDEST SWAP4 SWAP7 SWAP3 SWAP6 POP SWAP3 SWAP4 PUSH1 0x60 ADD CALLDATALOAD SWAP3 POP POP JUMP JUMPDEST PUSH0 PUSH0 DUP4 PUSH1 0x1F DUP5 ADD SLT PUSH2 0x1168 JUMPI PUSH0 PUSH0 REVERT JUMPDEST POP DUP2 CALLDATALOAD PUSH8 0xFFFFFFFFFFFFFFFF DUP2 GT ISZERO PUSH2 0x117F JUMPI PUSH0 PUSH0 REVERT JUMPDEST PUSH1 0x20 DUP4 ADD SWAP2 POP DUP4 PUSH1 0x20 DUP3 PUSH1 0x5 SHL DUP6 ADD ADD GT ISZERO PUSH2 0x1199 JUMPI PUSH0 PUSH0 REVERT JUMPDEST SWAP3 POP SWAP3 SWAP1 POP JUMP JUMPDEST PUSH0 PUSH0 PUSH0 PUSH0 PUSH0 PUSH0 PUSH1 0x80 DUP8 DUP10 SUB SLT ISZERO PUSH2 0x11B5 JUMPI PUSH0 PUSH0 REVERT JUMPDEST DUP7 CALLDATALOAD PUSH8 0xFFFFFFFFFFFFFFFF DUP2 GT ISZERO PUSH2 0x11CB JUMPI PUSH0 PUSH0 REVERT JUMPDEST PUSH2 0x11D7 DUP10 DUP3 DUP11 ADD PUSH2 0x1158 JUMP JUMPDEST SWAP1 SWAP8 POP SWAP6 POP POP PUSH1 0x20 DUP8 ADD CALLDATALOAD PUSH8 0xFFFFFFFFFFFFFFFF DUP2 GT ISZERO PUSH2 0x11F6 JUMPI PUSH0 PUSH0 REVERT JUMPDEST PUSH2 0x1202 DUP10 DUP3 DUP11 ADD PUSH2 0x1158 JUMP JUMPDEST SWAP1 SWAP6 POP SWAP4 POP POP PUSH1 0x40 DUP8 ADD CALLDATALOAD PUSH2 0x1216 DUP2 PUSH2 0x10DA JUMP JUMPDEST SWAP6 SWAP9 SWAP5 SWAP8 POP SWAP3 SWAP6 SWAP2 SWAP5 SWAP4 PUSH1 0x60 SWAP1 SWAP3 ADD CALLDATALOAD SWAP3 POP POP JUMP JUMPDEST PUSH0 PUSH1 0x20 DUP3 DUP5 SUB SLT ISZERO PUSH2 0x123B JUMPI PUSH0 PUSH0 REVERT JUMPDEST POP CALLDATALOAD SWAP2 SWAP1 POP JUMP JUMPDEST PUSH0 PUSH0 PUSH1 0x40 DUP4 DUP6 SUB SLT ISZERO PUSH2 0x1253 JUMPI PUSH0 PUSH0 REVERT JUMPDEST DUP3 CALLDATALOAD PUSH2 0x125E DUP2 PUSH2 0x10DA JUMP JUMPDEST SWAP5 PUSH1 0x20 SWAP4 SWAP1 SWAP4 ADD CALLDATALOAD SWAP4 POP POP POP JUMP JUMPDEST PUSH1 0x20 DUP1 DUP3 MSTORE PUSH1 0x16 SWAP1 DUP3 ADD MSTORE PUSH22 0x2737BA103A34329031B7B73A3930B1BA1037BBB732B9 PUSH1 0x51 SHL PUSH1 0x40 DUP3 ADD MSTORE PUSH1 0x60 ADD SWAP1 JUMP JUMPDEST PUSH0 PUSH1 0x20 DUP3 DUP5 SUB SLT ISZERO PUSH2 0x12AC JUMPI PUSH0 PUSH0 REVERT JUMPDEST DUP2 MLOAD DUP1 ISZERO ISZERO DUP2 EQ PUSH2 0x110C JUMPI PUSH0 PUSH0 REVERT JUMPDEST PUSH4 0x4E487B71 PUSH1 0xE0 SHL PUSH0 MSTORE PUSH1 0x11 PUSH1 0x4 MSTORE PUSH1 0x24 PUSH0 REVERT JUMPDEST PUSH0 DUP3 PUSH2 0x12E9 JUMPI PUSH4 0x4E487B71 PUSH1 0xE0 SHL PUSH0 MSTORE PUSH1 0x12 PUSH1 0x4 MSTORE PUSH1 0x24 PUSH0 REVERT JUMPDEST POP DIV SWAP1 JUMP JUMPDEST PUSH1 0x20 DUP1 DUP3 MSTORE PUSH1 0xE SWAP1 DUP3 ADD MSTORE PUSH14 0x131C08139BDD081BDB881B1A5CDD PUSH1 0x92 SHL PUSH1 0x40 DUP3 ADD MSTORE PUSH1 0x60 ADD SWAP1 JUMP JUMPDEST DUP1 DUP3 ADD DUP1 DUP3 GT ISZERO PUSH2 0x10D4 JUMPI PUSH2 0x10D4 PUSH2 0x12BB JUMP JUMPDEST DUP2 DUP2 SUB DUP2 DUP2 GT ISZERO PUSH2 0x10D4 JUMPI PUSH2 0x10D4 PUSH2 0x12BB JUMP JUMPDEST PUSH0 PUSH1 0x20 DUP3 DUP5 SUB SLT ISZERO PUSH2 0x134C JUMPI PUSH0 PUSH0 REVERT JUMPDEST POP MLOAD SWAP2 SWAP1 POP JUMP JUMPDEST PUSH0 PUSH1 0x20 DUP3 DUP5 SUB SLT ISZERO PUSH2 0x1363 JUMPI PUSH0 PUSH0 REVERT JUMPDEST DUP2 MLOAD PUSH2 0x110C DUP2 PUSH2 0x10DA JUMP JUMPDEST PUSH4 0x4E487B71 PUSH1 0xE0 SHL PUSH0 MSTORE PUSH1 0x32 PUSH1 0x4 MSTORE PUSH1 0x24 PUSH0 REVERT INVALID LOG2 PUSH5 0x6970667358 0x22 SLT KECCAK256 LOG4 CREATE2 0xB7 SWAP5 PUSH13 0x8B0404EE0AC0778880DD4AE65A 0xC7 0xD ADDMOD SLOAD LT 0xE2 0xE1 0xBB PUSH0 RETURNDATASIZE CALLDATALOAD 0xBA 0xCC MOD PUSH5 0x736F6C6343 STOP ADDMOD SHL STOP CALLER "
				},
				"gasEstimates": {
					"creation": {
						"codeDepositCost": "1009600",
						"executionCost": "infinite",
						"totalCost": "infinite"
					},
					"external": {
						"addLp(address)": "infinite",
						"batchDistributeTokens(address[],uint256[],address,uint256)": "infinite",
						"currentDay()": "2283",
						"dailyMax()": "2415",
						"depositRewards(uint256)": "infinite",
						"distributeTokens(address,uint256,address,uint256)": "infinite",
						"distributedToday()": "2350",
						"getRemainingDailyTokens()": "4569",
						"getUserBalance(address,uint256)": "2810",
						"lpList(address)": "2655",
						"lpRewards(address,uint256)": "2657",
						"owner()": "2424",
						"totalSupply()": "2327",
						"withdraw()": "infinite"
					}
				},
				"methodIdentifiers": {
					"addLp(address)": "06f20003",
					"batchDistributeTokens(address[],uint256[],address,uint256)": "671cdb0c",
					"currentDay()": "5c9302c9",
					"dailyMax()": "e0f67bc7",
					"depositRewards(uint256)": "8bdf67f2",
					"distributeTokens(address,uint256,address,uint256)": "0b209300",
					"distributedToday()": "219a037d",
					"getRemainingDailyTokens()": "2617519b",
					"getUserBalance(address,uint256)": "91a9648a",
					"lpList(address)": "55d2082c",
					"lpRewards(address,uint256)": "8cc1e155",
					"owner()": "8da5cb5b",
					"totalSupply()": "18160ddd",
					"withdraw()": "3ccfd60b"
				}
			},
			"storageLayout": {
				"storage": [
					{
						"astId": 276,
						"contract": "contracts/RewardDistributor.sol:DailyTokenDistribution",
						"label": "totalSupply",
						"offset": 0,
						"slot": "0",
						"type": "t_uint256"
					},
					{
						"astId": 278,
						"contract": "contracts/RewardDistributor.sol:DailyTokenDistribution",
						"label": "dailyMax",
						"offset": 0,
						"slot": "1",
						"type": "t_uint256"
					},
					{
						"astId": 280,
						"contract": "contracts/RewardDistributor.sol:DailyTokenDistribution",
						"label": "distributedToday",
						"offset": 0,
						"slot": "2",
						"type": "t_uint256"
					},
					{
						"astId": 282,
						"contract": "contracts/RewardDistributor.sol:DailyTokenDistribution",
						"label": "currentDay",
						"offset": 0,
						"slot": "3",
						"type": "t_uint256"
					},
					{
						"astId": 284,
						"contract": "contracts/RewardDistributor.sol:DailyTokenDistribution",
						"label": "xusd",
						"offset": 0,
						"slot": "4",
						"type": "t_address"
					},
					{
						"astId": 298,
						"contract": "contracts/RewardDistributor.sol:DailyTokenDistribution",
						"label": "lpRewards",
						"offset": 0,
						"slot": "5",
						"type": "t_mapping(t_address,t_mapping(t_uint256,t_uint256))"
					},
					{
						"astId": 302,
						"contract": "contracts/RewardDistributor.sol:DailyTokenDistribution",
						"label": "lpList",
						"offset": 0,
						"slot": "6",
						"type": "t_mapping(t_address,t_bool)"
					},
					{
						"astId": 304,
						"contract": "contracts/RewardDistributor.sol:DailyTokenDistribution",
						"label": "owner",
						"offset": 0,
						"slot": "7",
						"type": "t_address"
					},
					{
						"astId": 315,
						"contract": "contracts/RewardDistributor.sol:DailyTokenDistribution",
						"label": "LpRepo",
						"offset": 0,
						"slot": "8",
						"type": "t_struct(Registry)15_storage"
					},
					{
						"astId": 322,
						"contract": "contracts/RewardDistributor.sol:DailyTokenDistribution",
						"label": "userBalances",
						"offset": 0,
						"slot": "11",
						"type": "t_mapping(t_address,t_mapping(t_address,t_struct(UsersGains)312_storage))"
					}
				],
				"types": {
					"t_address": {
						"encoding": "inplace",
						"label": "address",
						"numberOfBytes": "20"
					},
					"t_array(t_address)dyn_storage": {
						"base": "t_address",
						"encoding": "dynamic_array",
						"label": "address[]",
						"numberOfBytes": "32"
					},
					"t_array(t_uint256)dyn_storage": {
						"base": "t_uint256",
						"encoding": "dynamic_array",
						"label": "uint256[]",
						"numberOfBytes": "32"
					},
					"t_bool": {
						"encoding": "inplace",
						"label": "bool",
						"numberOfBytes": "1"
					},
					"t_mapping(t_address,t_bool)": {
						"encoding": "mapping",
						"key": "t_address",
						"label": "mapping(address => bool)",
						"numberOfBytes": "32",
						"value": "t_bool"
					},
					"t_mapping(t_address,t_mapping(t_address,t_struct(UsersGains)312_storage))": {
						"encoding": "mapping",
						"key": "t_address",
						"label": "mapping(address => mapping(address => struct DailyTokenDistribution.UsersGains))",
						"numberOfBytes": "32",
						"value": "t_mapping(t_address,t_struct(UsersGains)312_storage)"
					},
					"t_mapping(t_address,t_mapping(t_uint256,t_uint256))": {
						"encoding": "mapping",
						"key": "t_address",
						"label": "mapping(address => mapping(uint256 => uint256))",
						"numberOfBytes": "32",
						"value": "t_mapping(t_uint256,t_uint256)"
					},
					"t_mapping(t_address,t_struct(UsersGains)312_storage)": {
						"encoding": "mapping",
						"key": "t_address",
						"label": "mapping(address => struct DailyTokenDistribution.UsersGains)",
						"numberOfBytes": "32",
						"value": "t_struct(UsersGains)312_storage"
					},
					"t_mapping(t_address,t_uint256)": {
						"encoding": "mapping",
						"key": "t_address",
						"label": "mapping(address => uint256)",
						"numberOfBytes": "32",
						"value": "t_uint256"
					},
					"t_mapping(t_uint256,t_bool)": {
						"encoding": "mapping",
						"key": "t_uint256",
						"label": "mapping(uint256 => bool)",
						"numberOfBytes": "32",
						"value": "t_bool"
					},
					"t_mapping(t_uint256,t_uint256)": {
						"encoding": "mapping",
						"key": "t_uint256",
						"label": "mapping(uint256 => uint256)",
						"numberOfBytes": "32",
						"value": "t_uint256"
					},
					"t_struct(Registry)15_storage": {
						"encoding": "inplace",
						"label": "struct LibRegistryAdd.Registry",
						"members": [
							{
								"astId": 6,
								"contract": "contracts/RewardDistributor.sol:DailyTokenDistribution",
								"label": "keys",
								"offset": 0,
								"slot": "0",
								"type": "t_array(t_address)dyn_storage"
							},
							{
								"astId": 10,
								"contract": "contracts/RewardDistributor.sol:DailyTokenDistribution",
								"label": "indexOf",
								"offset": 0,
								"slot": "1",
								"type": "t_mapping(t_address,t_uint256)"
							},
							{
								"astId": 14,
								"contract": "contracts/RewardDistributor.sol:DailyTokenDistribution",
								"label": "inserted",
								"offset": 0,
								"slot": "2",
								"type": "t_mapping(t_address,t_bool)"
							}
						],
						"numberOfBytes": "96"
					},
					"t_struct(Registry)792_storage": {
						"encoding": "inplace",
						"label": "struct LibRegistry.Registry",
						"members": [
							{
								"astId": 783,
								"contract": "contracts/RewardDistributor.sol:DailyTokenDistribution",
								"label": "keys",
								"offset": 0,
								"slot": "0",
								"type": "t_array(t_uint256)dyn_storage"
							},
							{
								"astId": 787,
								"contract": "contracts/RewardDistributor.sol:DailyTokenDistribution",
								"label": "indexOf",
								"offset": 0,
								"slot": "1",
								"type": "t_mapping(t_uint256,t_uint256)"
							},
							{
								"astId": 791,
								"contract": "contracts/RewardDistributor.sol:DailyTokenDistribution",
								"label": "inserted",
								"offset": 0,
								"slot": "2",
								"type": "t_mapping(t_uint256,t_bool)"
							}
						],
						"numberOfBytes": "96"
					},
					"t_struct(UsersGains)312_storage": {
						"encoding": "inplace",
						"label": "struct DailyTokenDistribution.UsersGains",
						"members": [
							{
								"astId": 307,
								"contract": "contracts/RewardDistributor.sol:DailyTokenDistribution",
								"label": "UserGains",
								"offset": 0,
								"slot": "0",
								"type": "t_struct(Registry)792_storage"
							},
							{
								"astId": 311,
								"contract": "contracts/RewardDistributor.sol:DailyTokenDistribution",
								"label": "userBalances",
								"offset": 0,
								"slot": "3",
								"type": "t_mapping(t_uint256,t_uint256)"
							}
						],
						"numberOfBytes": "128"
					},
					"t_uint256": {
						"encoding": "inplace",
						"label": "uint256",
						"numberOfBytes": "32"
					}
				}
			},
			"userdoc": {
				"kind": "user",
				"methods": {},
				"version": 1
			}
		}
	}
}