{
	"data": {
		"bytecode": {
			"linkReferences": {},
			"object": "60806040527f01bdff210be472a81b4f71031db8db35dbf6d740bf414a13cc2865070aad1abf600955348015610033575f5ffd5b506040516144f03803806144f083398101604081905261005291610db7565b6040518060400160405280600c81526020016b4479736e6f6d69612043686f60a01b8152506040518060400160405280600381526020016243484f60e81b815250826001600160a01b0316636fb7329c6040518163ffffffff1660e01b8152600401602060405180830381865afa1580156100cf573d5f5f3e3d5ffd5b505050506040513d601f19601f820116820180604052508101906100f39190610db7565b338061012557604051633603021960e21b81523260048201525f60248201523060448201526064015b60405180910390fd5b61013081600161096e565b50600461013d8482610e71565b50600561014a8382610e71565b50600680546001600160a01b0319166001600160a01b0383169081179091556040805163604a6fa960e01b815290516201b207929163604a6fa991600480830192602092919082900301815f875af11580156101a8573d5f5f3e3d5ffd5b505050506040513d601f19601f820116820180604052508101906101cc9190610f46565b6101d69190610f5f565b6001600160401b031660075561022c7324f0154c1dce548adf15da2098fdd8b8a3b8151d6102066012600a611092565b6102119060016110a0565b6001600160a01b039091165f90815260086020526040902055565b5050600a80546001600160a01b0319166001600160a01b038416908117909155604051630e0cb96960e31b8152306004820152909150637065cb48906024015f604051808303815f87803b158015610282575f5ffd5b505af1158015610294573d5f5f3e3d5ffd5b5050600a546040516368f9c78760e01b81526001600160a01b0390911692506368f9c78791506102cb906004906005908201611136565b610160604051808303815f875af11580156102e8573d5f5f3e3d5ffd5b505050506040513d601f19601f8201168201806040525081019061030c919061125e565b8051600c80546001600160a01b0319166001600160a01b039283161790556020820151600d805460408501519284166001600160e01b031991821617600160a01b6001600160401b0394851602179091556060840151600e805460808701519285169316929092176801000000000000000091909416810293909317905560a0830151600f805460c086015160e08701519385166001600160801b03199092169190911790841690940293909317600160801b600160c01b031916600160801b91909216021790556103e1600b836003610ce8565b5050600c80546001600160a01b03191630908117909155600e54604051630e0cb96960e31b815260048101929092526801000000000000000090046001600160a01b03169150637065cb48906024015f604051808303815f87803b158015610447575f5ffd5b505af1158015610459573d5f5f3e3d5ffd5b50505050600c60020160089054906101000a90046001600160a01b03166001600160a01b031663a45669506040518163ffffffff1660e01b8152600401606060405180830381865afa1580156104b1573d5f5f3e3d5ffd5b505050506040513d601f19601f820116820180604052508101906104d591906112d2565b51604051630e0cb96960e31b81523060048201526001600160a01b0390911690637065cb48906024015f604051808303815f87803b158015610515575f5ffd5b505af1158015610527573d5f5f3e3d5ffd5b505050506105396109c160201b60201c565b6040805163f086425360e01b8152600c546001600160a01b039081166004830152600d54808216602484015260a01c6001600160401b039081166044840152600e548082166064850152841c82166084840152600f5480821660a48501529384901c811660c484015260809390931c90921660e482015291169063f086425390610104016020604051808303815f875af11580156105d9573d5f5f3e3d5ffd5b505050506040513d601f19601f820116820180604052508101906105fd9190610f46565b601080546001600160401b0319166001600160401b0392909216919091179055600a5460408051639ff4300160e01b81529051610756926001600160a01b031691639ff4300191600480830192602092919082900301815f875af1158015610667573d5f5f3e3d5ffd5b505050506040513d601f19601f8201168201806040525081019061068b9190610db7565b6001600160a01b03166376fade906040518163ffffffff1660e01b81526004016020604051808303815f875af11580156106c7573d5f5f3e3d5ffd5b505050506040513d601f19601f820116820180604052508101906106eb9190610db7565b6001600160a01b031663a45669506040518163ffffffff1660e01b8152600401610300604051808303815f875af1158015610728573d5f5f3e3d5ffd5b505050506040513d601f19601f8201168201806040525081019061074c9190611324565b5160c00151610a4e565b5061076190506109c1565b600f54604051635b78533360e01b8152600160801b9091046001600160401b031660048201526001600160a01b039190911690635b7853339060240160408051808303815f875af11580156107b8573d5f5f3e3d5ffd5b505050506040513d601f19601f820116820180604052508101906107dc919061136c565b600f8054600160401b600160c01b031916680100000000000000006001600160401b0393841602600160801b600160c01b03191617600160801b9390921692909202179055600a5460408051639ff4300160e01b8152905161095d926001600160a01b031691639ff4300191600480830192602092919082900301815f875af115801561086b573d5f5f3e3d5ffd5b505050506040513d601f19601f8201168201806040525081019061088f9190610db7565b6001600160a01b03166376fade906040518163ffffffff1660e01b81526004016020604051808303815f875af11580156108cb573d5f5f3e3d5ffd5b505050506040513d601f19601f820116820180604052508101906108ef9190610db7565b6001600160a01b031663a45669506040518163ffffffff1660e01b8152600401610300604051808303815f875af115801561092c573d5f5f3e3d5ffd5b505050506040513d601f19601f820116820180604052508101906109509190611324565b6040015160c00151610a4e565b506109689050610b55565b506113b0565b6001600160a01b0382165f81815260208190526040808220805460ff191685151590811790915590519092917f6bfa7e860c3e9bf67b810cb88276b19b27c972812bac04793d369b59a1183a8391a35050565b600a54604051636c93852d60e11b815260206004820152600d60248201526c636f72657265616374696f6e7360981b60448201525f916001600160a01b03169063d9270a5a90606401602060405180830381865afa158015610a25573d5f5f3e3d5ffd5b505050506040513d601f19601f82011682018060405250810190610a499190610db7565b905090565b5f80610a586109c1565b600e54601054604051630cf372a760e31b81526001600160a01b0368010000000000000000909304831660048201526001600160401b039182168718909116602482015291169063679b95389060440160408051808303815f875af1158015610ac3573d5f5f3e3d5ffd5b505050506040513d601f19601f82011682018060405250810190610ae7919061136c565b600f8054600160401b600160c01b031916600160801b6001600160401b039384168102600160401b600160801b0319169190911768010000000000000000948416850217918290556010805491830484166001600160401b0319909216821790559290041694909350915050565b610b616012600a611092565b600754610b6e91906110a0565b6003541015610b9757610b9730610b876012600a611092565b610b929060016110a0565b610b99565b565b610ba45f8383610ba8565b5050565b6001600160a01b038316610bd2578060035f828254610bc7919061139d565b90915550610c5c9050565b6001600160a01b0383165f9081526001602052604090205481811015610c3e57604051630f7d0bbd60e21b81523260048201523360248201526001600160a01b0380861660448301528416606482015230608482015260a4810182905260c4810183905260e40161011c565b6001600160a01b0384165f9081526001602052604090209082900390555b6001600160a01b038216610c7857600380548290039055610c96565b6001600160a01b0382165f9081526001602052604090208054820190555b816001600160a01b0316836001600160a01b03167fddf252ad1be2c89b69c2b068fc378daa952ba7f163c4a11628f55a4df523b3ef83604051610cdb91815260200190565b60405180910390a3505050565b600183019183908215610d7c579160200282015f5b83821115610d4757835183826101000a8154816001600160401b0302191690836001600160401b031602179055509260200192600801602081600701049283019260010302610cfd565b8015610d7a5782816101000a8154906001600160401b030219169055600801602081600701049283019260010302610d47565b505b50610d88929150610d8c565b5090565b5b80821115610d88575f8155600101610d8d565b6001600160a01b0381168114610db4575f5ffd5b50565b5f60208284031215610dc7575f5ffd5b8151610dd281610da0565b9392505050565b634e487b7160e01b5f52604160045260245ffd5b600181811c90821680610e0157607f821691505b602082108103610e1f57634e487b7160e01b5f52602260045260245ffd5b50919050565b601f821115610e6c57805f5260205f20601f840160051c81016020851015610e4a5750805b601f840160051c820191505b81811015610e69575f8155600101610e56565b50505b505050565b81516001600160401b03811115610e8a57610e8a610dd9565b610e9e81610e988454610ded565b84610e25565b6020601f821160018114610ed0575f8315610eb95750848201515b5f19600385901b1c1916600184901b178455610e69565b5f84815260208120601f198516915b82811015610eff5787850151825560209485019460019092019101610edf565b5084821015610f1c57868401515f19600387901b60f8161c191681555b50505050600190811b01905550565b80516001600160401b0381168114610f41575f5ffd5b919050565b5f60208284031215610f56575f5ffd5b610dd282610f2b565b5f6001600160401b03831680610f8357634e487b7160e01b5f52601260045260245ffd5b6001600160401b03929092169190910692915050565b634e487b7160e01b5f52601160045260245ffd5b6001815b6001841115610fe857808504811115610fcc57610fcc610f99565b6001841615610fda57908102905b60019390931c928002610fb1565b935093915050565b5f82610ffe5750600161108c565b8161100a57505f61108c565b8160018114611020576002811461102a57611046565b600191505061108c565b60ff84111561103b5761103b610f99565b50506001821b61108c565b5060208310610133831016604e8410600b8410161715611069575081810a61108c565b6110755f198484610fad565b805f190482111561108857611088610f99565b0290505b92915050565b5f610dd260ff841683610ff0565b808202811582820484141761108c5761108c610f99565b5f81546110c381610ded565b8085526001821680156110dd57600181146110f95761112d565b60ff1983166020870152602082151560051b870101935061112d565b845f5260205f205f5b838110156111245781546020828a010152600182019150602081019050611102565b87016020019450505b50505092915050565b604081525f61114860408301856110b7565b828103602084015261115a81856110b7565b95945050505050565b60405161010081016001600160401b038111828210171561118657611186610dd9565b60405290565b604051606081016001600160401b038111828210171561118657611186610dd9565b8051610f4181610da0565b5f61010082840312156111ca575f5ffd5b6111d2611163565b905081516111df81610da0565b81526111ed602083016111ae565b60208201526111fe60408301610f2b565b604082015261120f60608301610f2b565b6060820152611220608083016111ae565b608082015261123160a08301610f2b565b60a082015261124260c08301610f2b565b60c082015261125360e08301610f2b565b60e082015292915050565b5f5f6101608385031215611270575f5ffd5b83601f84011261127e575f5ffd5b61128661118c565b806060850186811115611297575f5ffd5b855b818110156112b8576112aa81610f2b565b845260209384019301611299565b508194506112c687826111b9565b93505050509250929050565b5f60608284031280156112e3575f5ffd5b506112ec61118c565b82516112f781610da0565b8152602083015161130781610da0565b602082015261131860408401610f2b565b60408201529392505050565b5f610300828403128015611336575f5ffd5b5061133f61118c565b61134984846111b9565b81526113598461010085016111b9565b60208201526113188461020085016111b9565b5f5f6040838503121561137d575f5ffd5b61138683610f2b565b915061139460208401610f2b565b90509250929050565b8082018082111561108c5761108c610f99565b613133806113bd5f395ff3fe608060405234801561000f575f5ffd5b5060043610610297575f3560e01c8063730e02e811610161578063d3dc2a0f116100ca578063e80c28bf11610084578063e80c28bf146106c6578063eedf25f0146106f4578063f4e6c93f14610707578063f4f6c22c1461070f578063fcef603d14610722578063ff76204414610735575f5ffd5b8063d3dc2a0f14610663578063d42770fc14610671578063d5abeb011461067a578063dc8849d014610683578063dd62ed3e146106ab578063e1ed6e72146106be575f5ffd5b80639377a2c31161011b5780639377a2c3146105d657806395d89b41146105e95780639dcbf7ea146105f1578063a9059cbb14610604578063ac5bd44f14610617578063c0ff53281461064b575f5ffd5b8063730e02e8146104d65780637c2bcc81146104ee57806385bcb519146105015780638da5cb5b146105b0578063911b9c4d146105b6578063929c6ca9146105ce575f5ffd5b806337a2e752116102035780635ee0f654116101bd5780635ee0f6541461045a57806360844f9d14610462578063666e1b39146104755780636fb7329c146104885780637065cb481461049b57806370a08231146104ae575f5ffd5b806337a2e752146103d157806338bf3cfa146103e45780633b8052c9146103f757806340c48dfa1461042a5780634431fbc41461043d5780634712262314610445575f5ffd5b8063222838db11610254578063222838db1461034c57806323b872dd146103615780632499a533146103745780632b83b1fc14610387578063313ce567146103af57806337820e7a146103be575f5ffd5b806306fdde031461029b578063088aee78146102b9578063095ea7b3146102e457806318160ddd146103075780631892fd78146103195780631ca30a2f14610339575b5f5ffd5b6102a3610757565b6040516102b091906126a4565b60405180910390f35b6102cc6102c73660046126bd565b6107e7565b6040516001600160401b0390911681526020016102b0565b6102f76102f23660046126e8565b610819565b60405190151581526020016102b0565b6003545b6040519081526020016102b0565b61032c610327366004612712565b610832565b6040516102b0919061272d565b6102a36103473660046126bd565b610a02565b61035f61035a3660046126e8565b610aa8565b005b6102f761036f36600461282c565b610ca1565b61035f6103823660046126e8565b610cc4565b61030b610395366004612712565b6001600160a01b03165f9081526008602052604090205490565b604051601281526020016102b0565b61032c6103cc36600461287e565b610e77565b61032c6103df366004612712565b610ea5565b61035f6103f2366004612712565b611252565b61040a61040536600461287e565b611267565b604080516001600160401b039384168152929091166020830152016102b0565b6010546102cc906001600160401b031681565b61030b611366565b61044d611467565b6040516102b09190612899565b61032c6114ea565b61044d61047036600461287e565b61169d565b6102f7610483366004612712565b611713565b60065461044d906001600160a01b031681565b61035f6104a9366004612712565b611730565b61030b6104bc366004612712565b6001600160a01b03165f9081526001602052604090205490565b600f54600160401b90046001600160401b03166102cc565b61035f6104fc366004612992565b611770565b600c54600d54600e54600f54610557936001600160a01b0390811693808216936001600160401b03600160a01b90920482169381831693600160401b928390041692818116928204811691600160801b90041688565b604080516001600160a01b03998a16815297891660208901526001600160401b03968716908801529385166060870152959091166080850152821660a084015292811660c083015290911660e0820152610100016102b0565b3061044d565b600f54600160801b90046001600160401b03166102cc565b61044d61178e565b61035f6105e43660046129cb565b6117dc565b6102a36118e0565b61035f6105ff366004612a19565b6118ef565b6102f76106123660046126e8565b611910565b61044d610625366004612992565b80516020818301810180516013825292820191909301209152546001600160a01b031681565b600e54600160401b90046001600160a01b031661044d565b6102cc6603632c8eb5af3b81565b61030b60095481565b61030b60075481565b61044d6106913660046126bd565b60146020525f90815260409020546001600160a01b031681565b61030b6106b9366004612a7c565b61191d565b6102cc611947565b61044d6106d4366004612712565b6001600160a01b039081165f908152601160205260409020600101541690565b61040a610702366004612aa8565b61199c565b61035f611d65565b600a5461044d906001600160a01b031681565b61035f610730366004612712565b611d77565b6102a36040518060400160405280600381526020016243484f60e81b81525081565b60606004805461076690612ad4565b80601f016020809104026020016040519081016040528092919081815260200182805461079290612ad4565b80156107dd5780601f106107b4576101008083540402835291602001916107dd565b820191905f5260205f20905b8154815290600101906020018083116107c057829003601f168201915b5050505050905090565b600b81600381106107f6575f80fd5b60049182820401919006600802915054906101000a90046001600160401b031681565b5f336108268185856121b5565b60019150505b92915050565b61083a612615565b6108426121c2565b6001600160a01b0382165f908152601160205260408120546001600160401b0316900361088d5781604051630c8fed4760e31b81526004016108849190612899565b60405180910390fd5b6001600160a01b038083165f9081526011602090815260409182902082516080808201855282546001600160401b039081168352855161010081018752600185015488168152600285015480891682880152600160a01b900482168188015260038501548083166060830152600160401b9081900490981692810192909252600484015480821660a0840152968704811660c0830152600160801b90960490951660e08601529182019390935260058301805491939284019161094f90612ad4565b80601f016020809104026020016040519081016040528092919081815260200182805461097b90612ad4565b80156109c65780601f1061099d576101008083540402835291602001916109c6565b820191905f5260205f20905b8154815290600101906020018083116109a957829003601f168201915b5050509183525050600691909101546001600160401b031660209091015290506109ef81612202565b6001600160401b03166060820152919050565b60158181548110610a11575f80fd5b905f5260205f20015f915090508054610a2990612ad4565b80601f0160208091040260200160405190810160405280929190818152602001828054610a5590612ad4565b8015610aa05780601f10610a7757610100808354040283529160200191610aa0565b820191905f5260205f20905b815481529060010190602001808311610a8357829003601f168201915b505050505081565b6001600160a01b0382165f908152600860205260408120549003610ae157816040516390b2344160e01b81526004016108849190612899565b815f610aef6012600a612c03565b6001600160a01b0385165f90815260086020526040902054610b119085612c11565b610b1b9190612c28565b6040516323b872dd60e01b81529091505f9030906323b872dd90610b4790339084908990600401612c47565b6020604051808303815f875af1158015610b63573d5f5f3e3d5ffd5b505050506040513d601f19601f82011682018060405250810190610b879190612c6b565b905080306001600160a01b03166306fdde036040518163ffffffff1660e01b81526004015f60405180830381865afa158015610bc5573d5f5f3e3d5ffd5b505050506040513d5f823e601f3d908101601f19168201604052610bec9190810190612c8a565b604051602001610bfc9190612d15565b60405160208183030381529060405290610c295760405162461bcd60e51b815260040161088491906126a4565b5060405163a9059cbb60e01b8152336004820152602481018390526001600160a01b0384169063a9059cbb906044015b6020604051808303815f875af1158015610c75573d5f5f3e3d5ffd5b505050506040513d601f19601f82011682018060405250810190610c999190612c6b565b505050505050565b5f33610cae858285612309565b610cb9858585612360565b506001949350505050565b6001600160a01b0382165f908152600860205260408120549003610cfd57816040516390b2344160e01b81526004016108849190612899565b815f610d0b6012600a612c03565b6001600160a01b0385165f90815260086020526040902054610d2d9085612c11565b610d379190612c28565b90505f826001600160a01b03166323b872dd3330856040518463ffffffff1660e01b8152600401610d6a93929190612c47565b6020604051808303815f875af1158015610d86573d5f5f3e3d5ffd5b505050506040513d601f19601f82011682018060405250810190610daa9190612c6b565b905080836001600160a01b03166306fdde036040518163ffffffff1660e01b81526004015f60405180830381865afa158015610de8573d5f5f3e3d5ffd5b505050506040513d5f823e601f3d908101601f19168201604052610e0f9190810190612c8a565b604051602001610e1f9190612d15565b60405160208183030381529060405290610e4c5760405162461bcd60e51b815260040161088491906126a4565b5060405163a9059cbb60e01b815233600482015260248101859052309063a9059cbb90604401610c59565b610e7f612615565b610e876121c2565b5f610e918361169d565b9050610e9c81610832565b9150505b919050565b610ead612615565b610eb56121c2565b610ebe82611d77565b60405163666e1b3960e01b815282906001600160a01b0382169063666e1b3990610eec903290600401612899565b602060405180830381865afa158015610f07573d5f5f3e3d5ffd5b505050506040513d601f19601f82011682018060405250810190610f2b9190612c6b565b610f5957604051631e6dc5ab60e31b81526001600160a01b0384166004820152326024820152604401610884565b610f61612615565b6040516301115dcf60e31b8152600160048201526001600160a01b0383169063088aee78906024016020604051808303815f875af1158015610fa5573d5f5f3e3d5ffd5b505050506040513d601f19601f82011682018060405250810190610fc99190612d42565b6001600160401b03168152604080516385bcb51960e01b815290516001600160a01b038416916385bcb5199160048083019261010092919082900301815f875af1158015611019573d5f5f3e3d5ffd5b505050506040513d601f19601f8201168201806040525081019061103d9190612d68565b602082018181526001600160a01b0380871690925251516040805163c584460d60e01b81529051919092169163c584460d916004808301925f9291908290030181865afa158015611090573d5f5f3e3d5ffd5b505050506040513d5f823e601f3d908101601f191682016040526110b79190810190612c8a565b6040828101918252325f90815260116020908152908290208451815467ffffffffffffffff19166001600160401b039182161782558286015180516001840180546001600160a01b0319166001600160a01b0392831617905593810151600284018054968301519186166001600160e01b031997881617600160a01b9285169290920291909117905560608101516003840180546080840151928516971696909617600160401b9190951681029490941790945560a084015160048301805460c087015160e0909701519284166001600160801b0319909116179583169094029490941767ffffffffffffffff60801b1916600160801b9490911693909302929092179055905182919060058201906111d09082612e59565b50606091909101516006909101805467ffffffffffffffff19166001600160401b03928316179055815181165f9081526012602052604090208054326001600160a01b03199091161790558151600b5461123292600160401b9091041661199c565b505061123d81612202565b6001600160401b031660608201529392505050565b61125a6121c2565b611264815f61236b565b50565b5f5f61127161178e565b600e54601054604051630cf372a760e31b81526001600160a01b039384169363679b9538936112bc93600160401b909104909116916001600160401b03909116881890600401612f13565b60408051808303815f875af11580156112d7573d5f5f3e3d5ffd5b505050506040513d601f19601f820116820180604052508101906112fb9190612f35565b600f8054600160401b600160c01b031916600160801b6001600160401b03938416810267ffffffffffffffff60401b191691909117600160401b9484168502179182905560108054918304841667ffffffffffffffff19909216821790559290041694909350915050565b600f545f9061138490600160401b90046001600160401b0316611267565b5050600654600f54600954604051633148f14f60e01b81526001600160401b03600160801b840481166004830152600160401b909304909216602483015260448201526001600160a01b0390911690633148f14f906064016020604051808303815f875af11580156113f8573d5f5f3e3d5ffd5b505050506040513d601f19601f8201168201806040525081019061141c9190612f62565b5f818152601460205260409020549091506001600160a01b031661145a575f81815260146020526040902080546001600160a01b0319163317905590565b611462611366565b905090565b600a54604051636c93852d60e11b8152602060048201526007602482015266737472696e677360c81b60448201525f916001600160a01b03169063d9270a5a906064015b602060405180830381865afa1580156114c6573d5f5f3e3d5ffd5b505050506040513d601f19601f820116820180604052508101906114629190612f79565b6114f2612615565b325f908152601160205260408120546001600160401b0316900361152b5732604051630c8fed4760e31b81526004016108849190612899565b325f9081526011602090815260409182902082516080808201855282546001600160401b03908116835285516101008101875260018501546001600160a01b039081168252600286015480821683890152600160a01b900483168289015260038601548084166060840152600160401b9081900490911693820193909352600485015480831660a0830152928304821660c0820152600160801b9092041660e08201529281019290925260058101805492939192918401916115ec90612ad4565b80601f016020809104026020016040519081016040528092919081815260200182805461161890612ad4565b80156116635780601f1061163a57610100808354040283529160200191611663565b820191905f5260205f20905b81548152906001019060200180831161164657829003601f168201915b5050509183525050600691909101546001600160401b0316602090910152905061168c81612202565b6001600160401b0316606082015290565b5f6116a66121c2565b6001600160401b0382165f908152601260205260409020546001600160a01b03166116ef5760405163bba4853d60e01b81526001600160401b0383166004820152602401610884565b506001600160401b03165f908152601260205260409020546001600160a01b031690565b6001600160a01b03165f9081526020819052604090205460ff1690565b6117386121c2565b6001600160a01b03811661176557325f30604051633603021960e21b815260040161088493929190612f94565b61126481600161236b565b6117786121c2565b600a54611264906001600160a01b0316826123be565b600a54604051636c93852d60e11b815260206004820152600d60248201526c636f72657265616374696f6e7360981b60448201525f916001600160a01b03169063d9270a5a906064016114ab565b6117e46121c2565b5f6001600160a01b03166013836040516117fe9190612fb7565b908152604051908190036020019020546001600160a01b0316146118605760138260405161182c9190612fb7565b90815260405190819003602001812054630289835760e61b8252610884916001600160a01b03909116908490600401612fc2565b806013836040516118719190612fb7565b90815260405190819003602001902080546001600160a01b03929092166001600160a01b0319909216919091179055601580546001810182555f919091527f55f448fdea98c4d29eb340757ef0a66cd03dbb9538908a6a81d96026b71ec475016118db8382612e59565b505050565b60606005805461076690612ad4565b6118f76121c2565b60046119038382612e59565b5060056118db8282612e59565b5f33610826818585612360565b6001600160a01b039182165f90815260026020908152604080832093909416825291909152205490565b325f908152601160205260408120546001600160401b031681036119805732604051630c8fed4760e31b81526004016108849190612899565b50325f908152601160205260409020546001600160401b031690565b6001600160401b0382165f9081526012602052604081205481906001600160a01b03166119e75760405163bba4853d60e01b81526001600160401b0385166004820152602401610884565b6001600160401b038085165f908152601260209081526040808320546001600160a01b03908116845260118352818420825160808082018552825488168252845161010081018652600184015485168152600284015480861682890152600160a01b90048916818701526003840154808a166060830152600160401b9081900490951691810191909152600483015480891660a0830152938404881660c0820152600160801b90930490961660e08301529285015260058201805493949391840191611ab290612ad4565b80601f0160208091040260200160405190810160405280929190818152602001828054611ade90612ad4565b8015611b295780601f10611b0057610100808354040283529160200191611b29565b820191905f5260205f20905b815481529060010190602001808311611b0c57829003601f168201915b5050509183525050600691909101546001600160401b03166020909101529050611b5281612202565b9350611b5c61178e565b6001600160a01b031663fc7cd61e826020015160800151866040518363ffffffff1660e01b8152600401611b91929190612f13565b60408051808303815f875af1158015611bac573d5f5f3e3d5ffd5b505050506040513d601f19601f82011682018060405250810190611bd09190612f35565b602083810180516001600160401b0393841660e08083019190915294841660c0918201528984165f908152601284526040808220546001600160a01b03908116835260118652918190208851815467ffffffffffffffff1916908816178155935180516001860180546001600160a01b03191691851691909117905594850151600285018054878401519285166001600160e01b031991821617600160a01b938a169390930292909217905560608601516003860180546080890151928a16931692909217600160401b91909416810293909317905560a08501516004850180549487015196909801519087166001600160801b0319909416939093179486169091029390931767ffffffffffffffff60801b1916600160801b919094160292909217909255908201518291906005820190611d0c9082612e59565b50606091909101516006909101805467ffffffffffffffff199081166001600160401b03938416179091556020929092015160c0810151601080549094169281169290921790925560e090910151909590945092505050565b611d6d6121c2565b611d7561242d565b565b600a5460408051639ff4300160e01b815290515f926001600160a01b031691639ff43001916004808301926020929190829003018187875af1158015611dbf573d5f5f3e3d5ffd5b505050506040513d601f19601f82011682018060405250810190611de39190612f79565b6001600160a01b03166376fade906040518163ffffffff1660e01b81526004016020604051808303815f875af1158015611e1f573d5f5f3e3d5ffd5b505050506040513d601f19601f82011682018060405250810190611e439190612f79565b6001600160a01b031663b50951686040518163ffffffff1660e01b81526004016020604051808303815f875af1158015611e7f573d5f5f3e3d5ffd5b505050506040513d601f19601f82011682018060405250810190611ea39190612f79565b6001600160a01b0316634cde872d6040518163ffffffff1660e01b81526004016020604051808303815f875af1158015611edf573d5f5f3e3d5ffd5b505050506040513d601f19601f82011682018060405250810190611f039190612f79565b6001600160a01b031663140c2fb56040518163ffffffff1660e01b81526004016020604051808303815f875af1158015611f3f573d5f5f3e3d5ffd5b505050506040513d601f19601f82011682018060405250810190611f639190612f79565b6001600160a01b031663044278fa836001600160a01b031663088aee7860016040518263ffffffff1660e01b8152600401611fa091815260200190565b6020604051808303815f875af1158015611fbc573d5f5f3e3d5ffd5b505050506040513d601f19601f82011682018060405250810190611fe09190612d42565b6040516001600160e01b031960e084901b1681526001600160401b039091166004820152602401610100604051808303815f875af1158015612024573d5f5f3e3d5ffd5b505050506040513d601f19601f820116820180604052508101906120489190612d68565b608081015160405163666e1b3960e01b81529192506001600160a01b03169063666e1b399061207b908590600401612899565b602060405180830381865afa158015612096573d5f5f3e3d5ffd5b505050506040513d601f19601f820116820180604052508101906120ba9190612c6b565b1580612191575080608001516001600160a01b03166325a28a8f6040518163ffffffff1660e01b8152600401602060405180830381865afa158015612101573d5f5f3e3d5ffd5b505050506040513d601f19601f820116820180604052508101906121259190612f79565b6001600160a01b031663666e1b39836040518263ffffffff1660e01b81526004016121509190612899565b602060405180830381865afa15801561216b573d5f5f3e3d5ffd5b505050506040513d601f19601f8201168201806040525081019061218f9190612c6b565b155b156121b15781604051630d034bfd60e21b81526004016108849190612899565b5050565b6118db838383600161246f565b6121cb33611713565b1580156121de57506121dc32611713565b155b15611d7557323330604051630be6bab560e01b815260040161088493929190612f94565b5f61220b61178e565b602083015160c081015160105460e09092015160405163b956aa8760e01b81526001600160a01b03949094169363b956aa879361225f93600c936001600160401b0390921690811892911890600401612fe5565b60408051808303815f875af115801561227a573d5f5f3e3d5ffd5b505050506040513d601f19601f8201168201806040525081019061229e9190612f35565b600f8054600160401b600160c01b031916600160801b6001600160401b03938416810267ffffffffffffffff60401b191691909117600160401b9484168502179182905560108054918304841667ffffffffffffffff19909216919091179055919091041692915050565b5f612314848461191d565b90505f19811461235a578181101561234c573233858530858760405162b83d1960e21b815260040161088497969594939291906130a7565b61235a84848484035f61246f565b50505050565b6118db8383836124ef565b6001600160a01b0382165f81815260208190526040808220805460ff191685151590811790915590519092917f6bfa7e860c3e9bf67b810cb88276b19b27c972812bac04793d369b59a1183a8391a35050565b604051636c93852d60e11b81526121b1906001600160a01b0384169063d9270a5a906123ee9085906004016126a4565b602060405180830381865afa158015612409573d5f5f3e3d5ffd5b505050506040513d601f19601f820116820180604052508101906104a99190612f79565b6124396012600a612c03565b6007546124469190612c11565b6003541015611d7557611d753061245f6012600a612c03565b61246a906001612c11565b61260a565b6001600160a01b038085165f908152600260209081526040808320938716835292905220829055801561235a57826001600160a01b0316846001600160a01b03167f8c5be1e5ebec7d5bd14f71427d1e84f3dd0314c0f7b2291e5b200ac8c7c3b925846040516124e191815260200190565b60405180910390a350505050565b6001600160a01b038316612519578060035f82825461250e91906130ea565b9091555061257e9050565b6001600160a01b0383165f90815260016020526040902054818110156125605732338585308587604051630f7d0bbd60e21b815260040161088497969594939291906130a7565b6001600160a01b0384165f9081526001602052604090209082900390555b6001600160a01b03821661259a576003805482900390556125b8565b6001600160a01b0382165f9081526001602052604090208054820190555b816001600160a01b0316836001600160a01b03167fddf252ad1be2c89b69c2b068fc378daa952ba7f163c4a11628f55a4df523b3ef836040516125fd91815260200190565b60405180910390a3505050565b6121b15f83836124ef565b60408051608080820183525f80835283516101008101855281815260208181018390529481018290526060810182905291820181905260a0820181905260c0820181905260e082015290918201908152606060208201525f60409091015290565b5f81518084528060208401602086015e5f602082860101526020601f19601f83011685010191505092915050565b602081525f6126b66020830184612676565b9392505050565b5f602082840312156126cd575f5ffd5b5035919050565b6001600160a01b0381168114611264575f5ffd5b5f5f604083850312156126f9575f5ffd5b8235612704816126d4565b946020939093013593505050565b5f60208284031215612722575f5ffd5b81356126b6816126d4565b602081526001600160401b0382511660208201525f602083015160018060a01b03815116604084015260018060a01b0360208201511660608401526001600160401b036040820151166080840152606081015161279560a08501826001600160401b03169052565b5060808101516001600160a01b03811660c08501525060a08101516001600160401b03811660e08501525060c08101516001600160401b0381166101008501525060e001516001600160401b038116610120840152506040830151610160610140840152612807610180840182612676565b905060608401516128246101608501826001600160401b03169052565b509392505050565b5f5f5f6060848603121561283e575f5ffd5b8335612849816126d4565b92506020840135612859816126d4565b929592945050506040919091013590565b6001600160401b0381168114611264575f5ffd5b5f6020828403121561288e575f5ffd5b81356126b68161286a565b6001600160a01b0391909116815260200190565b634e487b7160e01b5f52604160045260245ffd5b60405161010081016001600160401b03811182821017156128e4576128e46128ad565b60405290565b604051601f8201601f191681016001600160401b0381118282101715612912576129126128ad565b604052919050565b5f6001600160401b03821115612932576129326128ad565b50601f01601f191660200190565b5f82601f83011261294f575f5ffd5b813561296261295d8261291a565b6128ea565b818152846020838601011115612976575f5ffd5b816020850160208301375f918101602001919091529392505050565b5f602082840312156129a2575f5ffd5b81356001600160401b038111156129b7575f5ffd5b6129c384828501612940565b949350505050565b5f5f604083850312156129dc575f5ffd5b82356001600160401b038111156129f1575f5ffd5b6129fd85828601612940565b9250506020830135612a0e816126d4565b809150509250929050565b5f5f60408385031215612a2a575f5ffd5b82356001600160401b03811115612a3f575f5ffd5b612a4b85828601612940565b92505060208301356001600160401b03811115612a66575f5ffd5b612a7285828601612940565b9150509250929050565b5f5f60408385031215612a8d575f5ffd5b8235612a98816126d4565b91506020830135612a0e816126d4565b5f5f60408385031215612ab9575f5ffd5b8235612ac48161286a565b91506020830135612a0e8161286a565b600181811c90821680612ae857607f821691505b602082108103612b0657634e487b7160e01b5f52602260045260245ffd5b50919050565b634e487b7160e01b5f52601160045260245ffd5b6001815b6001841115612b5b57808504811115612b3f57612b3f612b0c565b6001841615612b4d57908102905b60019390931c928002612b24565b935093915050565b5f82612b715750600161082c565b81612b7d57505f61082c565b8160018114612b935760028114612b9d57612bb9565b600191505061082c565b60ff841115612bae57612bae612b0c565b50506001821b61082c565b5060208310610133831016604e8410600b8410161715612bdc575081810a61082c565b612be85f198484612b20565b805f1904821115612bfb57612bfb612b0c565b029392505050565b5f6126b660ff841683612b63565b808202811582820484141761082c5761082c612b0c565b5f82612c4257634e487b7160e01b5f52601260045260245ffd5b500490565b6001600160a01b039384168152919092166020820152604081019190915260600190565b5f60208284031215612c7b575f5ffd5b815180151581146126b6575f5ffd5b5f60208284031215612c9a575f5ffd5b81516001600160401b03811115612caf575f5ffd5b8201601f81018413612cbf575f5ffd5b8051612ccd61295d8261291a565b818152856020838501011115612ce1575f5ffd5b8160208401602083015e5f91810160200191909152949350505050565b5f81518060208401855e5f93019283525090919050565b6d02732b2b21020b8383937bb32b2160951b81525f6126b6600e830184612cfe565b8051610ea08161286a565b5f60208284031215612d52575f5ffd5b81516126b68161286a565b8051610ea0816126d4565b5f610100828403128015612d7a575f5ffd5b50612d836128c1565b8251612d8e816126d4565b8152612d9c60208401612d5d565b6020820152612dad60408401612d37565b6040820152612dbe60608401612d37565b6060820152612dcf60808401612d5d565b6080820152612de060a08401612d37565b60a0820152612df160c08401612d37565b60c0820152612e0260e08401612d37565b60e08201529392505050565b601f8211156118db57805f5260205f20601f840160051c81016020851015612e335750805b601f840160051c820191505b81811015612e52575f8155600101612e3f565b5050505050565b81516001600160401b03811115612e7257612e726128ad565b612e8681612e808454612ad4565b84612e0e565b6020601f821160018114612eb8575f8315612ea15750848201515b5f19600385901b1c1916600184901b178455612e52565b5f84815260208120601f198516915b82811015612ee75787850151825560209485019460019092019101612ec7565b5084821015612f0457868401515f19600387901b60f8161c191681555b50505050600190811b01905550565b6001600160a01b039290921682526001600160401b0316602082015260400190565b5f5f60408385031215612f46575f5ffd5b8251612f518161286a565b6020840151909250612a0e8161286a565b5f60208284031215612f72575f5ffd5b5051919050565b5f60208284031215612f89575f5ffd5b81516126b6816126d4565b6001600160a01b0393841681529183166020830152909116604082015260600190565b5f6126b68284612cfe565b6001600160a01b03831681526040602082018190525f906129c390830184612676565b83546001600160a01b03168152610140810160018501546001600160a01b038116602084015260a081901c6001600160401b031660408401525060028501546001600160401b03811660608401526001600160a01b03604082901c1660808401525060038501546001600160401b03811660a0840152604081901c6001600160401b031660c0840152608081901c6001600160401b031660e0840152506001600160401b0384166101008301526001600160401b0383166101208301526129c3565b6001600160a01b039788168152958716602087015293861660408601529185166060850152909316608083015260a082019290925260c081019190915260e00190565b8082018082111561082c5761082c612b0c56fea26469706673582212201864c531448b2dd38b8d064f9c39f15f9ba4c5764bbc2cdcd7ee9f58dc27878864736f6c634300081b0033",
			"opcodes": "PUSH1 0x80 PUSH1 0x40 MSTORE PUSH32 0x1BDFF210BE472A81B4F71031DB8DB35DBF6D740BF414A13CC2865070AAD1ABF PUSH1 0x9 SSTORE CALLVALUE DUP1 ISZERO PUSH2 0x33 JUMPI PUSH0 PUSH0 REVERT JUMPDEST POP PUSH1 0x40 MLOAD PUSH2 0x44F0 CODESIZE SUB DUP1 PUSH2 0x44F0 DUP4 CODECOPY DUP2 ADD PUSH1 0x40 DUP2 SWAP1 MSTORE PUSH2 0x52 SWAP2 PUSH2 0xDB7 JUMP JUMPDEST PUSH1 0x40 MLOAD DUP1 PUSH1 0x40 ADD PUSH1 0x40 MSTORE DUP1 PUSH1 0xC DUP2 MSTORE PUSH1 0x20 ADD PUSH12 0x4479736E6F6D69612043686F PUSH1 0xA0 SHL DUP2 MSTORE POP PUSH1 0x40 MLOAD DUP1 PUSH1 0x40 ADD PUSH1 0x40 MSTORE DUP1 PUSH1 0x3 DUP2 MSTORE PUSH1 0x20 ADD PUSH3 0x43484F PUSH1 0xE8 SHL DUP2 MSTORE POP DUP3 PUSH1 0x1 PUSH1 0x1 PUSH1 0xA0 SHL SUB AND PUSH4 0x6FB7329C PUSH1 0x40 MLOAD DUP2 PUSH4 0xFFFFFFFF AND PUSH1 0xE0 SHL DUP2 MSTORE PUSH1 0x4 ADD PUSH1 0x20 PUSH1 0x40 MLOAD DUP1 DUP4 SUB DUP2 DUP7 GAS STATICCALL ISZERO DUP1 ISZERO PUSH2 0xCF JUMPI RETURNDATASIZE PUSH0 PUSH0 RETURNDATACOPY RETURNDATASIZE PUSH0 REVERT JUMPDEST POP POP POP POP PUSH1 0x40 MLOAD RETURNDATASIZE PUSH1 0x1F NOT PUSH1 0x1F DUP3 ADD AND DUP3 ADD DUP1 PUSH1 0x40 MSTORE POP DUP2 ADD SWAP1 PUSH2 0xF3 SWAP2 SWAP1 PUSH2 0xDB7 JUMP JUMPDEST CALLER DUP1 PUSH2 0x125 JUMPI PUSH1 0x40 MLOAD PUSH4 0x36030219 PUSH1 0xE2 SHL DUP2 MSTORE ORIGIN PUSH1 0x4 DUP3 ADD MSTORE PUSH0 PUSH1 0x24 DUP3 ADD MSTORE ADDRESS PUSH1 0x44 DUP3 ADD MSTORE PUSH1 0x64 ADD JUMPDEST PUSH1 0x40 MLOAD DUP1 SWAP2 SUB SWAP1 REVERT JUMPDEST PUSH2 0x130 DUP2 PUSH1 0x1 PUSH2 0x96E JUMP JUMPDEST POP PUSH1 0x4 PUSH2 0x13D DUP5 DUP3 PUSH2 0xE71 JUMP JUMPDEST POP PUSH1 0x5 PUSH2 0x14A DUP4 DUP3 PUSH2 0xE71 JUMP JUMPDEST POP PUSH1 0x6 DUP1 SLOAD PUSH1 0x1 PUSH1 0x1 PUSH1 0xA0 SHL SUB NOT AND PUSH1 0x1 PUSH1 0x1 PUSH1 0xA0 SHL SUB DUP4 AND SWAP1 DUP2 OR SWAP1 SWAP2 SSTORE PUSH1 0x40 DUP1 MLOAD PUSH4 0x604A6FA9 PUSH1 0xE0 SHL DUP2 MSTORE SWAP1 MLOAD PUSH3 0x1B207 SWAP3 SWAP2 PUSH4 0x604A6FA9 SWAP2 PUSH1 0x4 DUP1 DUP4 ADD SWAP3 PUSH1 0x20 SWAP3 SWAP2 SWAP1 DUP3 SWAP1 SUB ADD DUP2 PUSH0 DUP8 GAS CALL ISZERO DUP1 ISZERO PUSH2 0x1A8 JUMPI RETURNDATASIZE PUSH0 PUSH0 RETURNDATACOPY RETURNDATASIZE PUSH0 REVERT JUMPDEST POP POP POP POP PUSH1 0x40 MLOAD RETURNDATASIZE PUSH1 0x1F NOT PUSH1 0x1F DUP3 ADD AND DUP3 ADD DUP1 PUSH1 0x40 MSTORE POP DUP2 ADD SWAP1 PUSH2 0x1CC SWAP2 SWAP1 PUSH2 0xF46 JUMP JUMPDEST PUSH2 0x1D6 SWAP2 SWAP1 PUSH2 0xF5F JUMP JUMPDEST PUSH1 0x1 PUSH1 0x1 PUSH1 0x40 SHL SUB AND PUSH1 0x7 SSTORE PUSH2 0x22C PUSH20 0x24F0154C1DCE548ADF15DA2098FDD8B8A3B8151D PUSH2 0x206 PUSH1 0x12 PUSH1 0xA PUSH2 0x1092 JUMP JUMPDEST PUSH2 0x211 SWAP1 PUSH1 0x1 PUSH2 0x10A0 JUMP JUMPDEST PUSH1 0x1 PUSH1 0x1 PUSH1 0xA0 SHL SUB SWAP1 SWAP2 AND PUSH0 SWAP1 DUP2 MSTORE PUSH1 0x8 PUSH1 0x20 MSTORE PUSH1 0x40 SWAP1 KECCAK256 SSTORE JUMP JUMPDEST POP POP PUSH1 0xA DUP1 SLOAD PUSH1 0x1 PUSH1 0x1 PUSH1 0xA0 SHL SUB NOT AND PUSH1 0x1 PUSH1 0x1 PUSH1 0xA0 SHL SUB DUP5 AND SWAP1 DUP2 OR SWAP1 SWAP2 SSTORE PUSH1 0x40 MLOAD PUSH4 0xE0CB969 PUSH1 0xE3 SHL DUP2 MSTORE ADDRESS PUSH1 0x4 DUP3 ADD MSTORE SWAP1 SWAP2 POP PUSH4 0x7065CB48 SWAP1 PUSH1 0x24 ADD PUSH0 PUSH1 0x40 MLOAD DUP1 DUP4 SUB DUP2 PUSH0 DUP8 DUP1 EXTCODESIZE ISZERO DUP1 ISZERO PUSH2 0x282 JUMPI PUSH0 PUSH0 REVERT JUMPDEST POP GAS CALL ISZERO DUP1 ISZERO PUSH2 0x294 JUMPI RETURNDATASIZE PUSH0 PUSH0 RETURNDATACOPY RETURNDATASIZE PUSH0 REVERT JUMPDEST POP POP PUSH1 0xA SLOAD PUSH1 0x40 MLOAD PUSH4 0x68F9C787 PUSH1 0xE0 SHL DUP2 MSTORE PUSH1 0x1 PUSH1 0x1 PUSH1 0xA0 SHL SUB SWAP1 SWAP2 AND SWAP3 POP PUSH4 0x68F9C787 SWAP2 POP PUSH2 0x2CB SWAP1 PUSH1 0x4 SWAP1 PUSH1 0x5 SWAP1 DUP3 ADD PUSH2 0x1136 JUMP JUMPDEST PUSH2 0x160 PUSH1 0x40 MLOAD DUP1 DUP4 SUB DUP2 PUSH0 DUP8 GAS CALL ISZERO DUP1 ISZERO PUSH2 0x2E8 JUMPI RETURNDATASIZE PUSH0 PUSH0 RETURNDATACOPY RETURNDATASIZE PUSH0 REVERT JUMPDEST POP POP POP POP PUSH1 0x40 MLOAD RETURNDATASIZE PUSH1 0x1F NOT PUSH1 0x1F DUP3 ADD AND DUP3 ADD DUP1 PUSH1 0x40 MSTORE POP DUP2 ADD SWAP1 PUSH2 0x30C SWAP2 SWAP1 PUSH2 0x125E JUMP JUMPDEST DUP1 MLOAD PUSH1 0xC DUP1 SLOAD PUSH1 0x1 PUSH1 0x1 PUSH1 0xA0 SHL SUB NOT AND PUSH1 0x1 PUSH1 0x1 PUSH1 0xA0 SHL SUB SWAP3 DUP4 AND OR SWAP1 SSTORE PUSH1 0x20 DUP3 ADD MLOAD PUSH1 0xD DUP1 SLOAD PUSH1 0x40 DUP6 ADD MLOAD SWAP3 DUP5 AND PUSH1 0x1 PUSH1 0x1 PUSH1 0xE0 SHL SUB NOT SWAP2 DUP3 AND OR PUSH1 0x1 PUSH1 0xA0 SHL PUSH1 0x1 PUSH1 0x1 PUSH1 0x40 SHL SUB SWAP5 DUP6 AND MUL OR SWAP1 SWAP2 SSTORE PUSH1 0x60 DUP5 ADD MLOAD PUSH1 0xE DUP1 SLOAD PUSH1 0x80 DUP8 ADD MLOAD SWAP3 DUP6 AND SWAP4 AND SWAP3 SWAP1 SWAP3 OR PUSH9 0x10000000000000000 SWAP2 SWAP1 SWAP5 AND DUP2 MUL SWAP4 SWAP1 SWAP4 OR SWAP1 SSTORE PUSH1 0xA0 DUP4 ADD MLOAD PUSH1 0xF DUP1 SLOAD PUSH1 0xC0 DUP7 ADD MLOAD PUSH1 0xE0 DUP8 ADD MLOAD SWAP4 DUP6 AND PUSH1 0x1 PUSH1 0x1 PUSH1 0x80 SHL SUB NOT SWAP1 SWAP3 AND SWAP2 SWAP1 SWAP2 OR SWAP1 DUP5 AND SWAP1 SWAP5 MUL SWAP4 SWAP1 SWAP4 OR PUSH1 0x1 PUSH1 0x80 SHL PUSH1 0x1 PUSH1 0xC0 SHL SUB NOT AND PUSH1 0x1 PUSH1 0x80 SHL SWAP2 SWAP1 SWAP3 AND MUL OR SWAP1 SSTORE PUSH2 0x3E1 PUSH1 0xB DUP4 PUSH1 0x3 PUSH2 0xCE8 JUMP JUMPDEST POP POP PUSH1 0xC DUP1 SLOAD PUSH1 0x1 PUSH1 0x1 PUSH1 0xA0 SHL SUB NOT AND ADDRESS SWAP1 DUP2 OR SWAP1 SWAP2 SSTORE PUSH1 0xE SLOAD PUSH1 0x40 MLOAD PUSH4 0xE0CB969 PUSH1 0xE3 SHL DUP2 MSTORE PUSH1 0x4 DUP2 ADD SWAP3 SWAP1 SWAP3 MSTORE PUSH9 0x10000000000000000 SWAP1 DIV PUSH1 0x1 PUSH1 0x1 PUSH1 0xA0 SHL SUB AND SWAP2 POP PUSH4 0x7065CB48 SWAP1 PUSH1 0x24 ADD PUSH0 PUSH1 0x40 MLOAD DUP1 DUP4 SUB DUP2 PUSH0 DUP8 DUP1 EXTCODESIZE ISZERO DUP1 ISZERO PUSH2 0x447 JUMPI PUSH0 PUSH0 REVERT JUMPDEST POP GAS CALL ISZERO DUP1 ISZERO PUSH2 0x459 JUMPI RETURNDATASIZE PUSH0 PUSH0 RETURNDATACOPY RETURNDATASIZE PUSH0 REVERT JUMPDEST POP POP POP POP PUSH1 0xC PUSH1 0x2 ADD PUSH1 0x8 SWAP1 SLOAD SWAP1 PUSH2 0x100 EXP SWAP1 DIV PUSH1 0x1 PUSH1 0x1 PUSH1 0xA0 SHL SUB AND PUSH1 0x1 PUSH1 0x1 PUSH1 0xA0 SHL SUB AND PUSH4 0xA4566950 PUSH1 0x40 MLOAD DUP2 PUSH4 0xFFFFFFFF AND PUSH1 0xE0 SHL DUP2 MSTORE PUSH1 0x4 ADD PUSH1 0x60 PUSH1 0x40 MLOAD DUP1 DUP4 SUB DUP2 DUP7 GAS STATICCALL ISZERO DUP1 ISZERO PUSH2 0x4B1 JUMPI RETURNDATASIZE PUSH0 PUSH0 RETURNDATACOPY RETURNDATASIZE PUSH0 REVERT JUMPDEST POP POP POP POP PUSH1 0x40 MLOAD RETURNDATASIZE PUSH1 0x1F NOT PUSH1 0x1F DUP3 ADD AND DUP3 ADD DUP1 PUSH1 0x40 MSTORE POP DUP2 ADD SWAP1 PUSH2 0x4D5 SWAP2 SWAP1 PUSH2 0x12D2 JUMP JUMPDEST MLOAD PUSH1 0x40 MLOAD PUSH4 0xE0CB969 PUSH1 0xE3 SHL DUP2 MSTORE ADDRESS PUSH1 0x4 DUP3 ADD MSTORE PUSH1 0x1 PUSH1 0x1 PUSH1 0xA0 SHL SUB SWAP1 SWAP2 AND SWAP1 PUSH4 0x7065CB48 SWAP1 PUSH1 0x24 ADD PUSH0 PUSH1 0x40 MLOAD DUP1 DUP4 SUB DUP2 PUSH0 DUP8 DUP1 EXTCODESIZE ISZERO DUP1 ISZERO PUSH2 0x515 JUMPI PUSH0 PUSH0 REVERT JUMPDEST POP GAS CALL ISZERO DUP1 ISZERO PUSH2 0x527 JUMPI RETURNDATASIZE PUSH0 PUSH0 RETURNDATACOPY RETURNDATASIZE PUSH0 REVERT JUMPDEST POP POP POP POP PUSH2 0x539 PUSH2 0x9C1 PUSH1 0x20 SHL PUSH1 0x20 SHR JUMP JUMPDEST PUSH1 0x40 DUP1 MLOAD PUSH4 0xF0864253 PUSH1 0xE0 SHL DUP2 MSTORE PUSH1 0xC SLOAD PUSH1 0x1 PUSH1 0x1 PUSH1 0xA0 SHL SUB SWAP1 DUP2 AND PUSH1 0x4 DUP4 ADD MSTORE PUSH1 0xD SLOAD DUP1 DUP3 AND PUSH1 0x24 DUP5 ADD MSTORE PUSH1 0xA0 SHR PUSH1 0x1 PUSH1 0x1 PUSH1 0x40 SHL SUB SWAP1 DUP2 AND PUSH1 0x44 DUP5 ADD MSTORE PUSH1 0xE SLOAD DUP1 DUP3 AND PUSH1 0x64 DUP6 ADD MSTORE DUP5 SHR DUP3 AND PUSH1 0x84 DUP5 ADD MSTORE PUSH1 0xF SLOAD DUP1 DUP3 AND PUSH1 0xA4 DUP6 ADD MSTORE SWAP4 DUP5 SWAP1 SHR DUP2 AND PUSH1 0xC4 DUP5 ADD MSTORE PUSH1 0x80 SWAP4 SWAP1 SWAP4 SHR SWAP1 SWAP3 AND PUSH1 0xE4 DUP3 ADD MSTORE SWAP2 AND SWAP1 PUSH4 0xF0864253 SWAP1 PUSH2 0x104 ADD PUSH1 0x20 PUSH1 0x40 MLOAD DUP1 DUP4 SUB DUP2 PUSH0 DUP8 GAS CALL ISZERO DUP1 ISZERO PUSH2 0x5D9 JUMPI RETURNDATASIZE PUSH0 PUSH0 RETURNDATACOPY RETURNDATASIZE PUSH0 REVERT JUMPDEST POP POP POP POP PUSH1 0x40 MLOAD RETURNDATASIZE PUSH1 0x1F NOT PUSH1 0x1F DUP3 ADD AND DUP3 ADD DUP1 PUSH1 0x40 MSTORE POP DUP2 ADD SWAP1 PUSH2 0x5FD SWAP2 SWAP1 PUSH2 0xF46 JUMP JUMPDEST PUSH1 0x10 DUP1 SLOAD PUSH1 0x1 PUSH1 0x1 PUSH1 0x40 SHL SUB NOT AND PUSH1 0x1 PUSH1 0x1 PUSH1 0x40 SHL SUB SWAP3 SWAP1 SWAP3 AND SWAP2 SWAP1 SWAP2 OR SWAP1 SSTORE PUSH1 0xA SLOAD PUSH1 0x40 DUP1 MLOAD PUSH4 0x9FF43001 PUSH1 0xE0 SHL DUP2 MSTORE SWAP1 MLOAD PUSH2 0x756 SWAP3 PUSH1 0x1 PUSH1 0x1 PUSH1 0xA0 SHL SUB AND SWAP2 PUSH4 0x9FF43001 SWAP2 PUSH1 0x4 DUP1 DUP4 ADD SWAP3 PUSH1 0x20 SWAP3 SWAP2 SWAP1 DUP3 SWAP1 SUB ADD DUP2 PUSH0 DUP8 GAS CALL ISZERO DUP1 ISZERO PUSH2 0x667 JUMPI RETURNDATASIZE PUSH0 PUSH0 RETURNDATACOPY RETURNDATASIZE PUSH0 REVERT JUMPDEST POP POP POP POP PUSH1 0x40 MLOAD RETURNDATASIZE PUSH1 0x1F NOT PUSH1 0x1F DUP3 ADD AND DUP3 ADD DUP1 PUSH1 0x40 MSTORE POP DUP2 ADD SWAP1 PUSH2 0x68B SWAP2 SWAP1 PUSH2 0xDB7 JUMP JUMPDEST PUSH1 0x1 PUSH1 0x1 PUSH1 0xA0 SHL SUB AND PUSH4 0x76FADE90 PUSH1 0x40 MLOAD DUP2 PUSH4 0xFFFFFFFF AND PUSH1 0xE0 SHL DUP2 MSTORE PUSH1 0x4 ADD PUSH1 0x20 PUSH1 0x40 MLOAD DUP1 DUP4 SUB DUP2 PUSH0 DUP8 GAS CALL ISZERO DUP1 ISZERO PUSH2 0x6C7 JUMPI RETURNDATASIZE PUSH0 PUSH0 RETURNDATACOPY RETURNDATASIZE PUSH0 REVERT JUMPDEST POP POP POP POP PUSH1 0x40 MLOAD RETURNDATASIZE PUSH1 0x1F NOT PUSH1 0x1F DUP3 ADD AND DUP3 ADD DUP1 PUSH1 0x40 MSTORE POP DUP2 ADD SWAP1 PUSH2 0x6EB SWAP2 SWAP1 PUSH2 0xDB7 JUMP JUMPDEST PUSH1 0x1 PUSH1 0x1 PUSH1 0xA0 SHL SUB AND PUSH4 0xA4566950 PUSH1 0x40 MLOAD DUP2 PUSH4 0xFFFFFFFF AND PUSH1 0xE0 SHL DUP2 MSTORE PUSH1 0x4 ADD PUSH2 0x300 PUSH1 0x40 MLOAD DUP1 DUP4 SUB DUP2 PUSH0 DUP8 GAS CALL ISZERO DUP1 ISZERO PUSH2 0x728 JUMPI RETURNDATASIZE PUSH0 PUSH0 RETURNDATACOPY RETURNDATASIZE PUSH0 REVERT JUMPDEST POP POP POP POP PUSH1 0x40 MLOAD RETURNDATASIZE PUSH1 0x1F NOT PUSH1 0x1F DUP3 ADD AND DUP3 ADD DUP1 PUSH1 0x40 MSTORE POP DUP2 ADD SWAP1 PUSH2 0x74C SWAP2 SWAP1 PUSH2 0x1324 JUMP JUMPDEST MLOAD PUSH1 0xC0 ADD MLOAD PUSH2 0xA4E JUMP JUMPDEST POP PUSH2 0x761 SWAP1 POP PUSH2 0x9C1 JUMP JUMPDEST PUSH1 0xF SLOAD PUSH1 0x40 MLOAD PUSH4 0x5B785333 PUSH1 0xE0 SHL DUP2 MSTORE PUSH1 0x1 PUSH1 0x80 SHL SWAP1 SWAP2 DIV PUSH1 0x1 PUSH1 0x1 PUSH1 0x40 SHL SUB AND PUSH1 0x4 DUP3 ADD MSTORE PUSH1 0x1 PUSH1 0x1 PUSH1 0xA0 SHL SUB SWAP2 SWAP1 SWAP2 AND SWAP1 PUSH4 0x5B785333 SWAP1 PUSH1 0x24 ADD PUSH1 0x40 DUP1 MLOAD DUP1 DUP4 SUB DUP2 PUSH0 DUP8 GAS CALL ISZERO DUP1 ISZERO PUSH2 0x7B8 JUMPI RETURNDATASIZE PUSH0 PUSH0 RETURNDATACOPY RETURNDATASIZE PUSH0 REVERT JUMPDEST POP POP POP POP PUSH1 0x40 MLOAD RETURNDATASIZE PUSH1 0x1F NOT PUSH1 0x1F DUP3 ADD AND DUP3 ADD DUP1 PUSH1 0x40 MSTORE POP DUP2 ADD SWAP1 PUSH2 0x7DC SWAP2 SWAP1 PUSH2 0x136C JUMP JUMPDEST PUSH1 0xF DUP1 SLOAD PUSH1 0x1 PUSH1 0x40 SHL PUSH1 0x1 PUSH1 0xC0 SHL SUB NOT AND PUSH9 0x10000000000000000 PUSH1 0x1 PUSH1 0x1 PUSH1 0x40 SHL SUB SWAP4 DUP5 AND MUL PUSH1 0x1 PUSH1 0x80 SHL PUSH1 0x1 PUSH1 0xC0 SHL SUB NOT AND OR PUSH1 0x1 PUSH1 0x80 SHL SWAP4 SWAP1 SWAP3 AND SWAP3 SWAP1 SWAP3 MUL OR SWAP1 SSTORE PUSH1 0xA SLOAD PUSH1 0x40 DUP1 MLOAD PUSH4 0x9FF43001 PUSH1 0xE0 SHL DUP2 MSTORE SWAP1 MLOAD PUSH2 0x95D SWAP3 PUSH1 0x1 PUSH1 0x1 PUSH1 0xA0 SHL SUB AND SWAP2 PUSH4 0x9FF43001 SWAP2 PUSH1 0x4 DUP1 DUP4 ADD SWAP3 PUSH1 0x20 SWAP3 SWAP2 SWAP1 DUP3 SWAP1 SUB ADD DUP2 PUSH0 DUP8 GAS CALL ISZERO DUP1 ISZERO PUSH2 0x86B JUMPI RETURNDATASIZE PUSH0 PUSH0 RETURNDATACOPY RETURNDATASIZE PUSH0 REVERT JUMPDEST POP POP POP POP PUSH1 0x40 MLOAD RETURNDATASIZE PUSH1 0x1F NOT PUSH1 0x1F DUP3 ADD AND DUP3 ADD DUP1 PUSH1 0x40 MSTORE POP DUP2 ADD SWAP1 PUSH2 0x88F SWAP2 SWAP1 PUSH2 0xDB7 JUMP JUMPDEST PUSH1 0x1 PUSH1 0x1 PUSH1 0xA0 SHL SUB AND PUSH4 0x76FADE90 PUSH1 0x40 MLOAD DUP2 PUSH4 0xFFFFFFFF AND PUSH1 0xE0 SHL DUP2 MSTORE PUSH1 0x4 ADD PUSH1 0x20 PUSH1 0x40 MLOAD DUP1 DUP4 SUB DUP2 PUSH0 DUP8 GAS CALL ISZERO DUP1 ISZERO PUSH2 0x8CB JUMPI RETURNDATASIZE PUSH0 PUSH0 RETURNDATACOPY RETURNDATASIZE PUSH0 REVERT JUMPDEST POP POP POP POP PUSH1 0x40 MLOAD RETURNDATASIZE PUSH1 0x1F NOT PUSH1 0x1F DUP3 ADD AND DUP3 ADD DUP1 PUSH1 0x40 MSTORE POP DUP2 ADD SWAP1 PUSH2 0x8EF SWAP2 SWAP1 PUSH2 0xDB7 JUMP JUMPDEST PUSH1 0x1 PUSH1 0x1 PUSH1 0xA0 SHL SUB AND PUSH4 0xA4566950 PUSH1 0x40 MLOAD DUP2 PUSH4 0xFFFFFFFF AND PUSH1 0xE0 SHL DUP2 MSTORE PUSH1 0x4 ADD PUSH2 0x300 PUSH1 0x40 MLOAD DUP1 DUP4 SUB DUP2 PUSH0 DUP8 GAS CALL ISZERO DUP1 ISZERO PUSH2 0x92C JUMPI RETURNDATASIZE PUSH0 PUSH0 RETURNDATACOPY RETURNDATASIZE PUSH0 REVERT JUMPDEST POP POP POP POP PUSH1 0x40 MLOAD RETURNDATASIZE PUSH1 0x1F NOT PUSH1 0x1F DUP3 ADD AND DUP3 ADD DUP1 PUSH1 0x40 MSTORE POP DUP2 ADD SWAP1 PUSH2 0x950 SWAP2 SWAP1 PUSH2 0x1324 JUMP JUMPDEST PUSH1 0x40 ADD MLOAD PUSH1 0xC0 ADD MLOAD PUSH2 0xA4E JUMP JUMPDEST POP PUSH2 0x968 SWAP1 POP PUSH2 0xB55 JUMP JUMPDEST POP PUSH2 0x13B0 JUMP JUMPDEST PUSH1 0x1 PUSH1 0x1 PUSH1 0xA0 SHL SUB DUP3 AND PUSH0 DUP2 DUP2 MSTORE PUSH1 0x20 DUP2 SWAP1 MSTORE PUSH1 0x40 DUP1 DUP3 KECCAK256 DUP1 SLOAD PUSH1 0xFF NOT AND DUP6 ISZERO ISZERO SWAP1 DUP2 OR SWAP1 SWAP2 SSTORE SWAP1 MLOAD SWAP1 SWAP3 SWAP2 PUSH32 0x6BFA7E860C3E9BF67B810CB88276B19B27C972812BAC04793D369B59A1183A83 SWAP2 LOG3 POP POP JUMP JUMPDEST PUSH1 0xA SLOAD PUSH1 0x40 MLOAD PUSH4 0x6C93852D PUSH1 0xE1 SHL DUP2 MSTORE PUSH1 0x20 PUSH1 0x4 DUP3 ADD MSTORE PUSH1 0xD PUSH1 0x24 DUP3 ADD MSTORE PUSH13 0x636F72657265616374696F6E73 PUSH1 0x98 SHL PUSH1 0x44 DUP3 ADD MSTORE PUSH0 SWAP2 PUSH1 0x1 PUSH1 0x1 PUSH1 0xA0 SHL SUB AND SWAP1 PUSH4 0xD9270A5A SWAP1 PUSH1 0x64 ADD PUSH1 0x20 PUSH1 0x40 MLOAD DUP1 DUP4 SUB DUP2 DUP7 GAS STATICCALL ISZERO DUP1 ISZERO PUSH2 0xA25 JUMPI RETURNDATASIZE PUSH0 PUSH0 RETURNDATACOPY RETURNDATASIZE PUSH0 REVERT JUMPDEST POP POP POP POP PUSH1 0x40 MLOAD RETURNDATASIZE PUSH1 0x1F NOT PUSH1 0x1F DUP3 ADD AND DUP3 ADD DUP1 PUSH1 0x40 MSTORE POP DUP2 ADD SWAP1 PUSH2 0xA49 SWAP2 SWAP1 PUSH2 0xDB7 JUMP JUMPDEST SWAP1 POP SWAP1 JUMP JUMPDEST PUSH0 DUP1 PUSH2 0xA58 PUSH2 0x9C1 JUMP JUMPDEST PUSH1 0xE SLOAD PUSH1 0x10 SLOAD PUSH1 0x40 MLOAD PUSH4 0xCF372A7 PUSH1 0xE3 SHL DUP2 MSTORE PUSH1 0x1 PUSH1 0x1 PUSH1 0xA0 SHL SUB PUSH9 0x10000000000000000 SWAP1 SWAP4 DIV DUP4 AND PUSH1 0x4 DUP3 ADD MSTORE PUSH1 0x1 PUSH1 0x1 PUSH1 0x40 SHL SUB SWAP2 DUP3 AND DUP8 XOR SWAP1 SWAP2 AND PUSH1 0x24 DUP3 ADD MSTORE SWAP2 AND SWAP1 PUSH4 0x679B9538 SWAP1 PUSH1 0x44 ADD PUSH1 0x40 DUP1 MLOAD DUP1 DUP4 SUB DUP2 PUSH0 DUP8 GAS CALL ISZERO DUP1 ISZERO PUSH2 0xAC3 JUMPI RETURNDATASIZE PUSH0 PUSH0 RETURNDATACOPY RETURNDATASIZE PUSH0 REVERT JUMPDEST POP POP POP POP PUSH1 0x40 MLOAD RETURNDATASIZE PUSH1 0x1F NOT PUSH1 0x1F DUP3 ADD AND DUP3 ADD DUP1 PUSH1 0x40 MSTORE POP DUP2 ADD SWAP1 PUSH2 0xAE7 SWAP2 SWAP1 PUSH2 0x136C JUMP JUMPDEST PUSH1 0xF DUP1 SLOAD PUSH1 0x1 PUSH1 0x40 SHL PUSH1 0x1 PUSH1 0xC0 SHL SUB NOT AND PUSH1 0x1 PUSH1 0x80 SHL PUSH1 0x1 PUSH1 0x1 PUSH1 0x40 SHL SUB SWAP4 DUP5 AND DUP2 MUL PUSH1 0x1 PUSH1 0x40 SHL PUSH1 0x1 PUSH1 0x80 SHL SUB NOT AND SWAP2 SWAP1 SWAP2 OR PUSH9 0x10000000000000000 SWAP5 DUP5 AND DUP6 MUL OR SWAP2 DUP3 SWAP1 SSTORE PUSH1 0x10 DUP1 SLOAD SWAP2 DUP4 DIV DUP5 AND PUSH1 0x1 PUSH1 0x1 PUSH1 0x40 SHL SUB NOT SWAP1 SWAP3 AND DUP3 OR SWAP1 SSTORE SWAP3 SWAP1 DIV AND SWAP5 SWAP1 SWAP4 POP SWAP2 POP POP JUMP JUMPDEST PUSH2 0xB61 PUSH1 0x12 PUSH1 0xA PUSH2 0x1092 JUMP JUMPDEST PUSH1 0x7 SLOAD PUSH2 0xB6E SWAP2 SWAP1 PUSH2 0x10A0 JUMP JUMPDEST PUSH1 0x3 SLOAD LT ISZERO PUSH2 0xB97 JUMPI PUSH2 0xB97 ADDRESS PUSH2 0xB87 PUSH1 0x12 PUSH1 0xA PUSH2 0x1092 JUMP JUMPDEST PUSH2 0xB92 SWAP1 PUSH1 0x1 PUSH2 0x10A0 JUMP JUMPDEST PUSH2 0xB99 JUMP JUMPDEST JUMP JUMPDEST PUSH2 0xBA4 PUSH0 DUP4 DUP4 PUSH2 0xBA8 JUMP JUMPDEST POP POP JUMP JUMPDEST PUSH1 0x1 PUSH1 0x1 PUSH1 0xA0 SHL SUB DUP4 AND PUSH2 0xBD2 JUMPI DUP1 PUSH1 0x3 PUSH0 DUP3 DUP3 SLOAD PUSH2 0xBC7 SWAP2 SWAP1 PUSH2 0x139D JUMP JUMPDEST SWAP1 SWAP2 SSTORE POP PUSH2 0xC5C SWAP1 POP JUMP JUMPDEST PUSH1 0x1 PUSH1 0x1 PUSH1 0xA0 SHL SUB DUP4 AND PUSH0 SWAP1 DUP2 MSTORE PUSH1 0x1 PUSH1 0x20 MSTORE PUSH1 0x40 SWAP1 KECCAK256 SLOAD DUP2 DUP2 LT ISZERO PUSH2 0xC3E JUMPI PUSH1 0x40 MLOAD PUSH4 0xF7D0BBD PUSH1 0xE2 SHL DUP2 MSTORE ORIGIN PUSH1 0x4 DUP3 ADD MSTORE CALLER PUSH1 0x24 DUP3 ADD MSTORE PUSH1 0x1 PUSH1 0x1 PUSH1 0xA0 SHL SUB DUP1 DUP7 AND PUSH1 0x44 DUP4 ADD MSTORE DUP5 AND PUSH1 0x64 DUP3 ADD MSTORE ADDRESS PUSH1 0x84 DUP3 ADD MSTORE PUSH1 0xA4 DUP2 ADD DUP3 SWAP1 MSTORE PUSH1 0xC4 DUP2 ADD DUP4 SWAP1 MSTORE PUSH1 0xE4 ADD PUSH2 0x11C JUMP JUMPDEST PUSH1 0x1 PUSH1 0x1 PUSH1 0xA0 SHL SUB DUP5 AND PUSH0 SWAP1 DUP2 MSTORE PUSH1 0x1 PUSH1 0x20 MSTORE PUSH1 0x40 SWAP1 KECCAK256 SWAP1 DUP3 SWAP1 SUB SWAP1 SSTORE JUMPDEST PUSH1 0x1 PUSH1 0x1 PUSH1 0xA0 SHL SUB DUP3 AND PUSH2 0xC78 JUMPI PUSH1 0x3 DUP1 SLOAD DUP3 SWAP1 SUB SWAP1 SSTORE PUSH2 0xC96 JUMP JUMPDEST PUSH1 0x1 PUSH1 0x1 PUSH1 0xA0 SHL SUB DUP3 AND PUSH0 SWAP1 DUP2 MSTORE PUSH1 0x1 PUSH1 0x20 MSTORE PUSH1 0x40 SWAP1 KECCAK256 DUP1 SLOAD DUP3 ADD SWAP1 SSTORE JUMPDEST DUP2 PUSH1 0x1 PUSH1 0x1 PUSH1 0xA0 SHL SUB AND DUP4 PUSH1 0x1 PUSH1 0x1 PUSH1 0xA0 SHL SUB AND PUSH32 0xDDF252AD1BE2C89B69C2B068FC378DAA952BA7F163C4A11628F55A4DF523B3EF DUP4 PUSH1 0x40 MLOAD PUSH2 0xCDB SWAP2 DUP2 MSTORE PUSH1 0x20 ADD SWAP1 JUMP JUMPDEST PUSH1 0x40 MLOAD DUP1 SWAP2 SUB SWAP1 LOG3 POP POP POP JUMP JUMPDEST PUSH1 0x1 DUP4 ADD SWAP2 DUP4 SWAP1 DUP3 ISZERO PUSH2 0xD7C JUMPI SWAP2 PUSH1 0x20 MUL DUP3 ADD PUSH0 JUMPDEST DUP4 DUP3 GT ISZERO PUSH2 0xD47 JUMPI DUP4 MLOAD DUP4 DUP3 PUSH2 0x100 EXP DUP2 SLOAD DUP2 PUSH1 0x1 PUSH1 0x1 PUSH1 0x40 SHL SUB MUL NOT AND SWAP1 DUP4 PUSH1 0x1 PUSH1 0x1 PUSH1 0x40 SHL SUB AND MUL OR SWAP1 SSTORE POP SWAP3 PUSH1 0x20 ADD SWAP3 PUSH1 0x8 ADD PUSH1 0x20 DUP2 PUSH1 0x7 ADD DIV SWAP3 DUP4 ADD SWAP3 PUSH1 0x1 SUB MUL PUSH2 0xCFD JUMP JUMPDEST DUP1 ISZERO PUSH2 0xD7A JUMPI DUP3 DUP2 PUSH2 0x100 EXP DUP2 SLOAD SWAP1 PUSH1 0x1 PUSH1 0x1 PUSH1 0x40 SHL SUB MUL NOT AND SWAP1 SSTORE PUSH1 0x8 ADD PUSH1 0x20 DUP2 PUSH1 0x7 ADD DIV SWAP3 DUP4 ADD SWAP3 PUSH1 0x1 SUB MUL PUSH2 0xD47 JUMP JUMPDEST POP JUMPDEST POP PUSH2 0xD88 SWAP3 SWAP2 POP PUSH2 0xD8C JUMP JUMPDEST POP SWAP1 JUMP JUMPDEST JUMPDEST DUP1 DUP3 GT ISZERO PUSH2 0xD88 JUMPI PUSH0 DUP2 SSTORE PUSH1 0x1 ADD PUSH2 0xD8D JUMP JUMPDEST PUSH1 0x1 PUSH1 0x1 PUSH1 0xA0 SHL SUB DUP2 AND DUP2 EQ PUSH2 0xDB4 JUMPI PUSH0 PUSH0 REVERT JUMPDEST POP JUMP JUMPDEST PUSH0 PUSH1 0x20 DUP3 DUP5 SUB SLT ISZERO PUSH2 0xDC7 JUMPI PUSH0 PUSH0 REVERT JUMPDEST DUP2 MLOAD PUSH2 0xDD2 DUP2 PUSH2 0xDA0 JUMP JUMPDEST SWAP4 SWAP3 POP POP POP JUMP JUMPDEST PUSH4 0x4E487B71 PUSH1 0xE0 SHL PUSH0 MSTORE PUSH1 0x41 PUSH1 0x4 MSTORE PUSH1 0x24 PUSH0 REVERT JUMPDEST PUSH1 0x1 DUP2 DUP2 SHR SWAP1 DUP3 AND DUP1 PUSH2 0xE01 JUMPI PUSH1 0x7F DUP3 AND SWAP2 POP JUMPDEST PUSH1 0x20 DUP3 LT DUP2 SUB PUSH2 0xE1F JUMPI PUSH4 0x4E487B71 PUSH1 0xE0 SHL PUSH0 MSTORE PUSH1 0x22 PUSH1 0x4 MSTORE PUSH1 0x24 PUSH0 REVERT JUMPDEST POP SWAP2 SWAP1 POP JUMP JUMPDEST PUSH1 0x1F DUP3 GT ISZERO PUSH2 0xE6C JUMPI DUP1 PUSH0 MSTORE PUSH1 0x20 PUSH0 KECCAK256 PUSH1 0x1F DUP5 ADD PUSH1 0x5 SHR DUP2 ADD PUSH1 0x20 DUP6 LT ISZERO PUSH2 0xE4A JUMPI POP DUP1 JUMPDEST PUSH1 0x1F DUP5 ADD PUSH1 0x5 SHR DUP3 ADD SWAP2 POP JUMPDEST DUP2 DUP2 LT ISZERO PUSH2 0xE69 JUMPI PUSH0 DUP2 SSTORE PUSH1 0x1 ADD PUSH2 0xE56 JUMP JUMPDEST POP POP JUMPDEST POP POP POP JUMP JUMPDEST DUP2 MLOAD PUSH1 0x1 PUSH1 0x1 PUSH1 0x40 SHL SUB DUP2 GT ISZERO PUSH2 0xE8A JUMPI PUSH2 0xE8A PUSH2 0xDD9 JUMP JUMPDEST PUSH2 0xE9E DUP2 PUSH2 0xE98 DUP5 SLOAD PUSH2 0xDED JUMP JUMPDEST DUP5 PUSH2 0xE25 JUMP JUMPDEST PUSH1 0x20 PUSH1 0x1F DUP3 GT PUSH1 0x1 DUP2 EQ PUSH2 0xED0 JUMPI PUSH0 DUP4 ISZERO PUSH2 0xEB9 JUMPI POP DUP5 DUP3 ADD MLOAD JUMPDEST PUSH0 NOT PUSH1 0x3 DUP6 SWAP1 SHL SHR NOT AND PUSH1 0x1 DUP5 SWAP1 SHL OR DUP5 SSTORE PUSH2 0xE69 JUMP JUMPDEST PUSH0 DUP5 DUP2 MSTORE PUSH1 0x20 DUP2 KECCAK256 PUSH1 0x1F NOT DUP6 AND SWAP2 JUMPDEST DUP3 DUP2 LT ISZERO PUSH2 0xEFF JUMPI DUP8 DUP6 ADD MLOAD DUP3 SSTORE PUSH1 0x20 SWAP5 DUP6 ADD SWAP5 PUSH1 0x1 SWAP1 SWAP3 ADD SWAP2 ADD PUSH2 0xEDF JUMP JUMPDEST POP DUP5 DUP3 LT ISZERO PUSH2 0xF1C JUMPI DUP7 DUP5 ADD MLOAD PUSH0 NOT PUSH1 0x3 DUP8 SWAP1 SHL PUSH1 0xF8 AND SHR NOT AND DUP2 SSTORE JUMPDEST POP POP POP POP PUSH1 0x1 SWAP1 DUP2 SHL ADD SWAP1 SSTORE POP JUMP JUMPDEST DUP1 MLOAD PUSH1 0x1 PUSH1 0x1 PUSH1 0x40 SHL SUB DUP2 AND DUP2 EQ PUSH2 0xF41 JUMPI PUSH0 PUSH0 REVERT JUMPDEST SWAP2 SWAP1 POP JUMP JUMPDEST PUSH0 PUSH1 0x20 DUP3 DUP5 SUB SLT ISZERO PUSH2 0xF56 JUMPI PUSH0 PUSH0 REVERT JUMPDEST PUSH2 0xDD2 DUP3 PUSH2 0xF2B JUMP JUMPDEST PUSH0 PUSH1 0x1 PUSH1 0x1 PUSH1 0x40 SHL SUB DUP4 AND DUP1 PUSH2 0xF83 JUMPI PUSH4 0x4E487B71 PUSH1 0xE0 SHL PUSH0 MSTORE PUSH1 0x12 PUSH1 0x4 MSTORE PUSH1 0x24 PUSH0 REVERT JUMPDEST PUSH1 0x1 PUSH1 0x1 PUSH1 0x40 SHL SUB SWAP3 SWAP1 SWAP3 AND SWAP2 SWAP1 SWAP2 MOD SWAP3 SWAP2 POP POP JUMP JUMPDEST PUSH4 0x4E487B71 PUSH1 0xE0 SHL PUSH0 MSTORE PUSH1 0x11 PUSH1 0x4 MSTORE PUSH1 0x24 PUSH0 REVERT JUMPDEST PUSH1 0x1 DUP2 JUMPDEST PUSH1 0x1 DUP5 GT ISZERO PUSH2 0xFE8 JUMPI DUP1 DUP6 DIV DUP2 GT ISZERO PUSH2 0xFCC JUMPI PUSH2 0xFCC PUSH2 0xF99 JUMP JUMPDEST PUSH1 0x1 DUP5 AND ISZERO PUSH2 0xFDA JUMPI SWAP1 DUP2 MUL SWAP1 JUMPDEST PUSH1 0x1 SWAP4 SWAP1 SWAP4 SHR SWAP3 DUP1 MUL PUSH2 0xFB1 JUMP JUMPDEST SWAP4 POP SWAP4 SWAP2 POP POP JUMP JUMPDEST PUSH0 DUP3 PUSH2 0xFFE JUMPI POP PUSH1 0x1 PUSH2 0x108C JUMP JUMPDEST DUP2 PUSH2 0x100A JUMPI POP PUSH0 PUSH2 0x108C JUMP JUMPDEST DUP2 PUSH1 0x1 DUP2 EQ PUSH2 0x1020 JUMPI PUSH1 0x2 DUP2 EQ PUSH2 0x102A JUMPI PUSH2 0x1046 JUMP JUMPDEST PUSH1 0x1 SWAP2 POP POP PUSH2 0x108C JUMP JUMPDEST PUSH1 0xFF DUP5 GT ISZERO PUSH2 0x103B JUMPI PUSH2 0x103B PUSH2 0xF99 JUMP JUMPDEST POP POP PUSH1 0x1 DUP3 SHL PUSH2 0x108C JUMP JUMPDEST POP PUSH1 0x20 DUP4 LT PUSH2 0x133 DUP4 LT AND PUSH1 0x4E DUP5 LT PUSH1 0xB DUP5 LT AND OR ISZERO PUSH2 0x1069 JUMPI POP DUP2 DUP2 EXP PUSH2 0x108C JUMP JUMPDEST PUSH2 0x1075 PUSH0 NOT DUP5 DUP5 PUSH2 0xFAD JUMP JUMPDEST DUP1 PUSH0 NOT DIV DUP3 GT ISZERO PUSH2 0x1088 JUMPI PUSH2 0x1088 PUSH2 0xF99 JUMP JUMPDEST MUL SWAP1 POP JUMPDEST SWAP3 SWAP2 POP POP JUMP JUMPDEST PUSH0 PUSH2 0xDD2 PUSH1 0xFF DUP5 AND DUP4 PUSH2 0xFF0 JUMP JUMPDEST DUP1 DUP3 MUL DUP2 ISZERO DUP3 DUP3 DIV DUP5 EQ OR PUSH2 0x108C JUMPI PUSH2 0x108C PUSH2 0xF99 JUMP JUMPDEST PUSH0 DUP2 SLOAD PUSH2 0x10C3 DUP2 PUSH2 0xDED JUMP JUMPDEST DUP1 DUP6 MSTORE PUSH1 0x1 DUP3 AND DUP1 ISZERO PUSH2 0x10DD JUMPI PUSH1 0x1 DUP2 EQ PUSH2 0x10F9 JUMPI PUSH2 0x112D JUMP JUMPDEST PUSH1 0xFF NOT DUP4 AND PUSH1 0x20 DUP8 ADD MSTORE PUSH1 0x20 DUP3 ISZERO ISZERO PUSH1 0x5 SHL DUP8 ADD ADD SWAP4 POP PUSH2 0x112D JUMP JUMPDEST DUP5 PUSH0 MSTORE PUSH1 0x20 PUSH0 KECCAK256 PUSH0 JUMPDEST DUP4 DUP2 LT ISZERO PUSH2 0x1124 JUMPI DUP2 SLOAD PUSH1 0x20 DUP3 DUP11 ADD ADD MSTORE PUSH1 0x1 DUP3 ADD SWAP2 POP PUSH1 0x20 DUP2 ADD SWAP1 POP PUSH2 0x1102 JUMP JUMPDEST DUP8 ADD PUSH1 0x20 ADD SWAP5 POP POP JUMPDEST POP POP POP SWAP3 SWAP2 POP POP JUMP JUMPDEST PUSH1 0x40 DUP2 MSTORE PUSH0 PUSH2 0x1148 PUSH1 0x40 DUP4 ADD DUP6 PUSH2 0x10B7 JUMP JUMPDEST DUP3 DUP2 SUB PUSH1 0x20 DUP5 ADD MSTORE PUSH2 0x115A DUP2 DUP6 PUSH2 0x10B7 JUMP JUMPDEST SWAP6 SWAP5 POP POP POP POP POP JUMP JUMPDEST PUSH1 0x40 MLOAD PUSH2 0x100 DUP2 ADD PUSH1 0x1 PUSH1 0x1 PUSH1 0x40 SHL SUB DUP2 GT DUP3 DUP3 LT OR ISZERO PUSH2 0x1186 JUMPI PUSH2 0x1186 PUSH2 0xDD9 JUMP JUMPDEST PUSH1 0x40 MSTORE SWAP1 JUMP JUMPDEST PUSH1 0x40 MLOAD PUSH1 0x60 DUP2 ADD PUSH1 0x1 PUSH1 0x1 PUSH1 0x40 SHL SUB DUP2 GT DUP3 DUP3 LT OR ISZERO PUSH2 0x1186 JUMPI PUSH2 0x1186 PUSH2 0xDD9 JUMP JUMPDEST DUP1 MLOAD PUSH2 0xF41 DUP2 PUSH2 0xDA0 JUMP JUMPDEST PUSH0 PUSH2 0x100 DUP3 DUP5 SUB SLT ISZERO PUSH2 0x11CA JUMPI PUSH0 PUSH0 REVERT JUMPDEST PUSH2 0x11D2 PUSH2 0x1163 JUMP JUMPDEST SWAP1 POP DUP2 MLOAD PUSH2 0x11DF DUP2 PUSH2 0xDA0 JUMP JUMPDEST DUP2 MSTORE PUSH2 0x11ED PUSH1 0x20 DUP4 ADD PUSH2 0x11AE JUMP JUMPDEST PUSH1 0x20 DUP3 ADD MSTORE PUSH2 0x11FE PUSH1 0x40 DUP4 ADD PUSH2 0xF2B JUMP JUMPDEST PUSH1 0x40 DUP3 ADD MSTORE PUSH2 0x120F PUSH1 0x60 DUP4 ADD PUSH2 0xF2B JUMP JUMPDEST PUSH1 0x60 DUP3 ADD MSTORE PUSH2 0x1220 PUSH1 0x80 DUP4 ADD PUSH2 0x11AE JUMP JUMPDEST PUSH1 0x80 DUP3 ADD MSTORE PUSH2 0x1231 PUSH1 0xA0 DUP4 ADD PUSH2 0xF2B JUMP JUMPDEST PUSH1 0xA0 DUP3 ADD MSTORE PUSH2 0x1242 PUSH1 0xC0 DUP4 ADD PUSH2 0xF2B JUMP JUMPDEST PUSH1 0xC0 DUP3 ADD MSTORE PUSH2 0x1253 PUSH1 0xE0 DUP4 ADD PUSH2 0xF2B JUMP JUMPDEST PUSH1 0xE0 DUP3 ADD MSTORE SWAP3 SWAP2 POP POP JUMP JUMPDEST PUSH0 PUSH0 PUSH2 0x160 DUP4 DUP6 SUB SLT ISZERO PUSH2 0x1270 JUMPI PUSH0 PUSH0 REVERT JUMPDEST DUP4 PUSH1 0x1F DUP5 ADD SLT PUSH2 0x127E JUMPI PUSH0 PUSH0 REVERT JUMPDEST PUSH2 0x1286 PUSH2 0x118C JUMP JUMPDEST DUP1 PUSH1 0x60 DUP6 ADD DUP7 DUP2 GT ISZERO PUSH2 0x1297 JUMPI PUSH0 PUSH0 REVERT JUMPDEST DUP6 JUMPDEST DUP2 DUP2 LT ISZERO PUSH2 0x12B8 JUMPI PUSH2 0x12AA DUP2 PUSH2 0xF2B JUMP JUMPDEST DUP5 MSTORE PUSH1 0x20 SWAP4 DUP5 ADD SWAP4 ADD PUSH2 0x1299 JUMP JUMPDEST POP DUP2 SWAP5 POP PUSH2 0x12C6 DUP8 DUP3 PUSH2 0x11B9 JUMP JUMPDEST SWAP4 POP POP POP POP SWAP3 POP SWAP3 SWAP1 POP JUMP JUMPDEST PUSH0 PUSH1 0x60 DUP3 DUP5 SUB SLT DUP1 ISZERO PUSH2 0x12E3 JUMPI PUSH0 PUSH0 REVERT JUMPDEST POP PUSH2 0x12EC PUSH2 0x118C JUMP JUMPDEST DUP3 MLOAD PUSH2 0x12F7 DUP2 PUSH2 0xDA0 JUMP JUMPDEST DUP2 MSTORE PUSH1 0x20 DUP4 ADD MLOAD PUSH2 0x1307 DUP2 PUSH2 0xDA0 JUMP JUMPDEST PUSH1 0x20 DUP3 ADD MSTORE PUSH2 0x1318 PUSH1 0x40 DUP5 ADD PUSH2 0xF2B JUMP JUMPDEST PUSH1 0x40 DUP3 ADD MSTORE SWAP4 SWAP3 POP POP POP JUMP JUMPDEST PUSH0 PUSH2 0x300 DUP3 DUP5 SUB SLT DUP1 ISZERO PUSH2 0x1336 JUMPI PUSH0 PUSH0 REVERT JUMPDEST POP PUSH2 0x133F PUSH2 0x118C JUMP JUMPDEST PUSH2 0x1349 DUP5 DUP5 PUSH2 0x11B9 JUMP JUMPDEST DUP2 MSTORE PUSH2 0x1359 DUP5 PUSH2 0x100 DUP6 ADD PUSH2 0x11B9 JUMP JUMPDEST PUSH1 0x20 DUP3 ADD MSTORE PUSH2 0x1318 DUP5 PUSH2 0x200 DUP6 ADD PUSH2 0x11B9 JUMP JUMPDEST PUSH0 PUSH0 PUSH1 0x40 DUP4 DUP6 SUB SLT ISZERO PUSH2 0x137D JUMPI PUSH0 PUSH0 REVERT JUMPDEST PUSH2 0x1386 DUP4 PUSH2 0xF2B JUMP JUMPDEST SWAP2 POP PUSH2 0x1394 PUSH1 0x20 DUP5 ADD PUSH2 0xF2B JUMP JUMPDEST SWAP1 POP SWAP3 POP SWAP3 SWAP1 POP JUMP JUMPDEST DUP1 DUP3 ADD DUP1 DUP3 GT ISZERO PUSH2 0x108C JUMPI PUSH2 0x108C PUSH2 0xF99 JUMP JUMPDEST PUSH2 0x3133 DUP1 PUSH2 0x13BD PUSH0 CODECOPY PUSH0 RETURN INVALID PUSH1 0x80 PUSH1 0x40 MSTORE CALLVALUE DUP1 ISZERO PUSH2 0xF JUMPI PUSH0 PUSH0 REVERT JUMPDEST POP PUSH1 0x4 CALLDATASIZE LT PUSH2 0x297 JUMPI PUSH0 CALLDATALOAD PUSH1 0xE0 SHR DUP1 PUSH4 0x730E02E8 GT PUSH2 0x161 JUMPI DUP1 PUSH4 0xD3DC2A0F GT PUSH2 0xCA JUMPI DUP1 PUSH4 0xE80C28BF GT PUSH2 0x84 JUMPI DUP1 PUSH4 0xE80C28BF EQ PUSH2 0x6C6 JUMPI DUP1 PUSH4 0xEEDF25F0 EQ PUSH2 0x6F4 JUMPI DUP1 PUSH4 0xF4E6C93F EQ PUSH2 0x707 JUMPI DUP1 PUSH4 0xF4F6C22C EQ PUSH2 0x70F JUMPI DUP1 PUSH4 0xFCEF603D EQ PUSH2 0x722 JUMPI DUP1 PUSH4 0xFF762044 EQ PUSH2 0x735 JUMPI PUSH0 PUSH0 REVERT JUMPDEST DUP1 PUSH4 0xD3DC2A0F EQ PUSH2 0x663 JUMPI DUP1 PUSH4 0xD42770FC EQ PUSH2 0x671 JUMPI DUP1 PUSH4 0xD5ABEB01 EQ PUSH2 0x67A JUMPI DUP1 PUSH4 0xDC8849D0 EQ PUSH2 0x683 JUMPI DUP1 PUSH4 0xDD62ED3E EQ PUSH2 0x6AB JUMPI DUP1 PUSH4 0xE1ED6E72 EQ PUSH2 0x6BE JUMPI PUSH0 PUSH0 REVERT JUMPDEST DUP1 PUSH4 0x9377A2C3 GT PUSH2 0x11B JUMPI DUP1 PUSH4 0x9377A2C3 EQ PUSH2 0x5D6 JUMPI DUP1 PUSH4 0x95D89B41 EQ PUSH2 0x5E9 JUMPI DUP1 PUSH4 0x9DCBF7EA EQ PUSH2 0x5F1 JUMPI DUP1 PUSH4 0xA9059CBB EQ PUSH2 0x604 JUMPI DUP1 PUSH4 0xAC5BD44F EQ PUSH2 0x617 JUMPI DUP1 PUSH4 0xC0FF5328 EQ PUSH2 0x64B JUMPI PUSH0 PUSH0 REVERT JUMPDEST DUP1 PUSH4 0x730E02E8 EQ PUSH2 0x4D6 JUMPI DUP1 PUSH4 0x7C2BCC81 EQ PUSH2 0x4EE JUMPI DUP1 PUSH4 0x85BCB519 EQ PUSH2 0x501 JUMPI DUP1 PUSH4 0x8DA5CB5B EQ PUSH2 0x5B0 JUMPI DUP1 PUSH4 0x911B9C4D EQ PUSH2 0x5B6 JUMPI DUP1 PUSH4 0x929C6CA9 EQ PUSH2 0x5CE JUMPI PUSH0 PUSH0 REVERT JUMPDEST DUP1 PUSH4 0x37A2E752 GT PUSH2 0x203 JUMPI DUP1 PUSH4 0x5EE0F654 GT PUSH2 0x1BD JUMPI DUP1 PUSH4 0x5EE0F654 EQ PUSH2 0x45A JUMPI DUP1 PUSH4 0x60844F9D EQ PUSH2 0x462 JUMPI DUP1 PUSH4 0x666E1B39 EQ PUSH2 0x475 JUMPI DUP1 PUSH4 0x6FB7329C EQ PUSH2 0x488 JUMPI DUP1 PUSH4 0x7065CB48 EQ PUSH2 0x49B JUMPI DUP1 PUSH4 0x70A08231 EQ PUSH2 0x4AE JUMPI PUSH0 PUSH0 REVERT JUMPDEST DUP1 PUSH4 0x37A2E752 EQ PUSH2 0x3D1 JUMPI DUP1 PUSH4 0x38BF3CFA EQ PUSH2 0x3E4 JUMPI DUP1 PUSH4 0x3B8052C9 EQ PUSH2 0x3F7 JUMPI DUP1 PUSH4 0x40C48DFA EQ PUSH2 0x42A JUMPI DUP1 PUSH4 0x4431FBC4 EQ PUSH2 0x43D JUMPI DUP1 PUSH4 0x47122623 EQ PUSH2 0x445 JUMPI PUSH0 PUSH0 REVERT JUMPDEST DUP1 PUSH4 0x222838DB GT PUSH2 0x254 JUMPI DUP1 PUSH4 0x222838DB EQ PUSH2 0x34C JUMPI DUP1 PUSH4 0x23B872DD EQ PUSH2 0x361 JUMPI DUP1 PUSH4 0x2499A533 EQ PUSH2 0x374 JUMPI DUP1 PUSH4 0x2B83B1FC EQ PUSH2 0x387 JUMPI DUP1 PUSH4 0x313CE567 EQ PUSH2 0x3AF JUMPI DUP1 PUSH4 0x37820E7A EQ PUSH2 0x3BE JUMPI PUSH0 PUSH0 REVERT JUMPDEST DUP1 PUSH4 0x6FDDE03 EQ PUSH2 0x29B JUMPI DUP1 PUSH4 0x88AEE78 EQ PUSH2 0x2B9 JUMPI DUP1 PUSH4 0x95EA7B3 EQ PUSH2 0x2E4 JUMPI DUP1 PUSH4 0x18160DDD EQ PUSH2 0x307 JUMPI DUP1 PUSH4 0x1892FD78 EQ PUSH2 0x319 JUMPI DUP1 PUSH4 0x1CA30A2F EQ PUSH2 0x339 JUMPI JUMPDEST PUSH0 PUSH0 REVERT JUMPDEST PUSH2 0x2A3 PUSH2 0x757 JUMP JUMPDEST PUSH1 0x40 MLOAD PUSH2 0x2B0 SWAP2 SWAP1 PUSH2 0x26A4 JUMP JUMPDEST PUSH1 0x40 MLOAD DUP1 SWAP2 SUB SWAP1 RETURN JUMPDEST PUSH2 0x2CC PUSH2 0x2C7 CALLDATASIZE PUSH1 0x4 PUSH2 0x26BD JUMP JUMPDEST PUSH2 0x7E7 JUMP JUMPDEST PUSH1 0x40 MLOAD PUSH1 0x1 PUSH1 0x1 PUSH1 0x40 SHL SUB SWAP1 SWAP2 AND DUP2 MSTORE PUSH1 0x20 ADD PUSH2 0x2B0 JUMP JUMPDEST PUSH2 0x2F7 PUSH2 0x2F2 CALLDATASIZE PUSH1 0x4 PUSH2 0x26E8 JUMP JUMPDEST PUSH2 0x819 JUMP JUMPDEST PUSH1 0x40 MLOAD SWAP1 ISZERO ISZERO DUP2 MSTORE PUSH1 0x20 ADD PUSH2 0x2B0 JUMP JUMPDEST PUSH1 0x3 SLOAD JUMPDEST PUSH1 0x40 MLOAD SWAP1 DUP2 MSTORE PUSH1 0x20 ADD PUSH2 0x2B0 JUMP JUMPDEST PUSH2 0x32C PUSH2 0x327 CALLDATASIZE PUSH1 0x4 PUSH2 0x2712 JUMP JUMPDEST PUSH2 0x832 JUMP JUMPDEST PUSH1 0x40 MLOAD PUSH2 0x2B0 SWAP2 SWAP1 PUSH2 0x272D JUMP JUMPDEST PUSH2 0x2A3 PUSH2 0x347 CALLDATASIZE PUSH1 0x4 PUSH2 0x26BD JUMP JUMPDEST PUSH2 0xA02 JUMP JUMPDEST PUSH2 0x35F PUSH2 0x35A CALLDATASIZE PUSH1 0x4 PUSH2 0x26E8 JUMP JUMPDEST PUSH2 0xAA8 JUMP JUMPDEST STOP JUMPDEST PUSH2 0x2F7 PUSH2 0x36F CALLDATASIZE PUSH1 0x4 PUSH2 0x282C JUMP JUMPDEST PUSH2 0xCA1 JUMP JUMPDEST PUSH2 0x35F PUSH2 0x382 CALLDATASIZE PUSH1 0x4 PUSH2 0x26E8 JUMP JUMPDEST PUSH2 0xCC4 JUMP JUMPDEST PUSH2 0x30B PUSH2 0x395 CALLDATASIZE PUSH1 0x4 PUSH2 0x2712 JUMP JUMPDEST PUSH1 0x1 PUSH1 0x1 PUSH1 0xA0 SHL SUB AND PUSH0 SWAP1 DUP2 MSTORE PUSH1 0x8 PUSH1 0x20 MSTORE PUSH1 0x40 SWAP1 KECCAK256 SLOAD SWAP1 JUMP JUMPDEST PUSH1 0x40 MLOAD PUSH1 0x12 DUP2 MSTORE PUSH1 0x20 ADD PUSH2 0x2B0 JUMP JUMPDEST PUSH2 0x32C PUSH2 0x3CC CALLDATASIZE PUSH1 0x4 PUSH2 0x287E JUMP JUMPDEST PUSH2 0xE77 JUMP JUMPDEST PUSH2 0x32C PUSH2 0x3DF CALLDATASIZE PUSH1 0x4 PUSH2 0x2712 JUMP JUMPDEST PUSH2 0xEA5 JUMP JUMPDEST PUSH2 0x35F PUSH2 0x3F2 CALLDATASIZE PUSH1 0x4 PUSH2 0x2712 JUMP JUMPDEST PUSH2 0x1252 JUMP JUMPDEST PUSH2 0x40A PUSH2 0x405 CALLDATASIZE PUSH1 0x4 PUSH2 0x287E JUMP JUMPDEST PUSH2 0x1267 JUMP JUMPDEST PUSH1 0x40 DUP1 MLOAD PUSH1 0x1 PUSH1 0x1 PUSH1 0x40 SHL SUB SWAP4 DUP5 AND DUP2 MSTORE SWAP3 SWAP1 SWAP2 AND PUSH1 0x20 DUP4 ADD MSTORE ADD PUSH2 0x2B0 JUMP JUMPDEST PUSH1 0x10 SLOAD PUSH2 0x2CC SWAP1 PUSH1 0x1 PUSH1 0x1 PUSH1 0x40 SHL SUB AND DUP2 JUMP JUMPDEST PUSH2 0x30B PUSH2 0x1366 JUMP JUMPDEST PUSH2 0x44D PUSH2 0x1467 JUMP JUMPDEST PUSH1 0x40 MLOAD PUSH2 0x2B0 SWAP2 SWAP1 PUSH2 0x2899 JUMP JUMPDEST PUSH2 0x32C PUSH2 0x14EA JUMP JUMPDEST PUSH2 0x44D PUSH2 0x470 CALLDATASIZE PUSH1 0x4 PUSH2 0x287E JUMP JUMPDEST PUSH2 0x169D JUMP JUMPDEST PUSH2 0x2F7 PUSH2 0x483 CALLDATASIZE PUSH1 0x4 PUSH2 0x2712 JUMP JUMPDEST PUSH2 0x1713 JUMP JUMPDEST PUSH1 0x6 SLOAD PUSH2 0x44D SWAP1 PUSH1 0x1 PUSH1 0x1 PUSH1 0xA0 SHL SUB AND DUP2 JUMP JUMPDEST PUSH2 0x35F PUSH2 0x4A9 CALLDATASIZE PUSH1 0x4 PUSH2 0x2712 JUMP JUMPDEST PUSH2 0x1730 JUMP JUMPDEST PUSH2 0x30B PUSH2 0x4BC CALLDATASIZE PUSH1 0x4 PUSH2 0x2712 JUMP JUMPDEST PUSH1 0x1 PUSH1 0x1 PUSH1 0xA0 SHL SUB AND PUSH0 SWAP1 DUP2 MSTORE PUSH1 0x1 PUSH1 0x20 MSTORE PUSH1 0x40 SWAP1 KECCAK256 SLOAD SWAP1 JUMP JUMPDEST PUSH1 0xF SLOAD PUSH1 0x1 PUSH1 0x40 SHL SWAP1 DIV PUSH1 0x1 PUSH1 0x1 PUSH1 0x40 SHL SUB AND PUSH2 0x2CC JUMP JUMPDEST PUSH2 0x35F PUSH2 0x4FC CALLDATASIZE PUSH1 0x4 PUSH2 0x2992 JUMP JUMPDEST PUSH2 0x1770 JUMP JUMPDEST PUSH1 0xC SLOAD PUSH1 0xD SLOAD PUSH1 0xE SLOAD PUSH1 0xF SLOAD PUSH2 0x557 SWAP4 PUSH1 0x1 PUSH1 0x1 PUSH1 0xA0 SHL SUB SWAP1 DUP2 AND SWAP4 DUP1 DUP3 AND SWAP4 PUSH1 0x1 PUSH1 0x1 PUSH1 0x40 SHL SUB PUSH1 0x1 PUSH1 0xA0 SHL SWAP1 SWAP3 DIV DUP3 AND SWAP4 DUP2 DUP4 AND SWAP4 PUSH1 0x1 PUSH1 0x40 SHL SWAP3 DUP4 SWAP1 DIV AND SWAP3 DUP2 DUP2 AND SWAP3 DUP3 DIV DUP2 AND SWAP2 PUSH1 0x1 PUSH1 0x80 SHL SWAP1 DIV AND DUP9 JUMP JUMPDEST PUSH1 0x40 DUP1 MLOAD PUSH1 0x1 PUSH1 0x1 PUSH1 0xA0 SHL SUB SWAP10 DUP11 AND DUP2 MSTORE SWAP8 DUP10 AND PUSH1 0x20 DUP10 ADD MSTORE PUSH1 0x1 PUSH1 0x1 PUSH1 0x40 SHL SUB SWAP7 DUP8 AND SWAP1 DUP9 ADD MSTORE SWAP4 DUP6 AND PUSH1 0x60 DUP8 ADD MSTORE SWAP6 SWAP1 SWAP2 AND PUSH1 0x80 DUP6 ADD MSTORE DUP3 AND PUSH1 0xA0 DUP5 ADD MSTORE SWAP3 DUP2 AND PUSH1 0xC0 DUP4 ADD MSTORE SWAP1 SWAP2 AND PUSH1 0xE0 DUP3 ADD MSTORE PUSH2 0x100 ADD PUSH2 0x2B0 JUMP JUMPDEST ADDRESS PUSH2 0x44D JUMP JUMPDEST PUSH1 0xF SLOAD PUSH1 0x1 PUSH1 0x80 SHL SWAP1 DIV PUSH1 0x1 PUSH1 0x1 PUSH1 0x40 SHL SUB AND PUSH2 0x2CC JUMP JUMPDEST PUSH2 0x44D PUSH2 0x178E JUMP JUMPDEST PUSH2 0x35F PUSH2 0x5E4 CALLDATASIZE PUSH1 0x4 PUSH2 0x29CB JUMP JUMPDEST PUSH2 0x17DC JUMP JUMPDEST PUSH2 0x2A3 PUSH2 0x18E0 JUMP JUMPDEST PUSH2 0x35F PUSH2 0x5FF CALLDATASIZE PUSH1 0x4 PUSH2 0x2A19 JUMP JUMPDEST PUSH2 0x18EF JUMP JUMPDEST PUSH2 0x2F7 PUSH2 0x612 CALLDATASIZE PUSH1 0x4 PUSH2 0x26E8 JUMP JUMPDEST PUSH2 0x1910 JUMP JUMPDEST PUSH2 0x44D PUSH2 0x625 CALLDATASIZE PUSH1 0x4 PUSH2 0x2992 JUMP JUMPDEST DUP1 MLOAD PUSH1 0x20 DUP2 DUP4 ADD DUP2 ADD DUP1 MLOAD PUSH1 0x13 DUP3 MSTORE SWAP3 DUP3 ADD SWAP2 SWAP1 SWAP4 ADD KECCAK256 SWAP2 MSTORE SLOAD PUSH1 0x1 PUSH1 0x1 PUSH1 0xA0 SHL SUB AND DUP2 JUMP JUMPDEST PUSH1 0xE SLOAD PUSH1 0x1 PUSH1 0x40 SHL SWAP1 DIV PUSH1 0x1 PUSH1 0x1 PUSH1 0xA0 SHL SUB AND PUSH2 0x44D JUMP JUMPDEST PUSH2 0x2CC PUSH7 0x3632C8EB5AF3B DUP2 JUMP JUMPDEST PUSH2 0x30B PUSH1 0x9 SLOAD DUP2 JUMP JUMPDEST PUSH2 0x30B PUSH1 0x7 SLOAD DUP2 JUMP JUMPDEST PUSH2 0x44D PUSH2 0x691 CALLDATASIZE PUSH1 0x4 PUSH2 0x26BD JUMP JUMPDEST PUSH1 0x14 PUSH1 0x20 MSTORE PUSH0 SWAP1 DUP2 MSTORE PUSH1 0x40 SWAP1 KECCAK256 SLOAD PUSH1 0x1 PUSH1 0x1 PUSH1 0xA0 SHL SUB AND DUP2 JUMP JUMPDEST PUSH2 0x30B PUSH2 0x6B9 CALLDATASIZE PUSH1 0x4 PUSH2 0x2A7C JUMP JUMPDEST PUSH2 0x191D JUMP JUMPDEST PUSH2 0x2CC PUSH2 0x1947 JUMP JUMPDEST PUSH2 0x44D PUSH2 0x6D4 CALLDATASIZE PUSH1 0x4 PUSH2 0x2712 JUMP JUMPDEST PUSH1 0x1 PUSH1 0x1 PUSH1 0xA0 SHL SUB SWAP1 DUP2 AND PUSH0 SWAP1 DUP2 MSTORE PUSH1 0x11 PUSH1 0x20 MSTORE PUSH1 0x40 SWAP1 KECCAK256 PUSH1 0x1 ADD SLOAD AND SWAP1 JUMP JUMPDEST PUSH2 0x40A PUSH2 0x702 CALLDATASIZE PUSH1 0x4 PUSH2 0x2AA8 JUMP JUMPDEST PUSH2 0x199C JUMP JUMPDEST PUSH2 0x35F PUSH2 0x1D65 JUMP JUMPDEST PUSH1 0xA SLOAD PUSH2 0x44D SWAP1 PUSH1 0x1 PUSH1 0x1 PUSH1 0xA0 SHL SUB AND DUP2 JUMP JUMPDEST PUSH2 0x35F PUSH2 0x730 CALLDATASIZE PUSH1 0x4 PUSH2 0x2712 JUMP JUMPDEST PUSH2 0x1D77 JUMP JUMPDEST PUSH2 0x2A3 PUSH1 0x40 MLOAD DUP1 PUSH1 0x40 ADD PUSH1 0x40 MSTORE DUP1 PUSH1 0x3 DUP2 MSTORE PUSH1 0x20 ADD PUSH3 0x43484F PUSH1 0xE8 SHL DUP2 MSTORE POP DUP2 JUMP JUMPDEST PUSH1 0x60 PUSH1 0x4 DUP1 SLOAD PUSH2 0x766 SWAP1 PUSH2 0x2AD4 JUMP JUMPDEST DUP1 PUSH1 0x1F ADD PUSH1 0x20 DUP1 SWAP2 DIV MUL PUSH1 0x20 ADD PUSH1 0x40 MLOAD SWAP1 DUP2 ADD PUSH1 0x40 MSTORE DUP1 SWAP3 SWAP2 SWAP1 DUP2 DUP2 MSTORE PUSH1 0x20 ADD DUP3 DUP1 SLOAD PUSH2 0x792 SWAP1 PUSH2 0x2AD4 JUMP JUMPDEST DUP1 ISZERO PUSH2 0x7DD JUMPI DUP1 PUSH1 0x1F LT PUSH2 0x7B4 JUMPI PUSH2 0x100 DUP1 DUP4 SLOAD DIV MUL DUP4 MSTORE SWAP2 PUSH1 0x20 ADD SWAP2 PUSH2 0x7DD JUMP JUMPDEST DUP3 ADD SWAP2 SWAP1 PUSH0 MSTORE PUSH1 0x20 PUSH0 KECCAK256 SWAP1 JUMPDEST DUP2 SLOAD DUP2 MSTORE SWAP1 PUSH1 0x1 ADD SWAP1 PUSH1 0x20 ADD DUP1 DUP4 GT PUSH2 0x7C0 JUMPI DUP3 SWAP1 SUB PUSH1 0x1F AND DUP3 ADD SWAP2 JUMPDEST POP POP POP POP POP SWAP1 POP SWAP1 JUMP JUMPDEST PUSH1 0xB DUP2 PUSH1 0x3 DUP2 LT PUSH2 0x7F6 JUMPI PUSH0 DUP1 REVERT JUMPDEST PUSH1 0x4 SWAP2 DUP3 DUP3 DIV ADD SWAP2 SWAP1 MOD PUSH1 0x8 MUL SWAP2 POP SLOAD SWAP1 PUSH2 0x100 EXP SWAP1 DIV PUSH1 0x1 PUSH1 0x1 PUSH1 0x40 SHL SUB AND DUP2 JUMP JUMPDEST PUSH0 CALLER PUSH2 0x826 DUP2 DUP6 DUP6 PUSH2 0x21B5 JUMP JUMPDEST PUSH1 0x1 SWAP2 POP POP JUMPDEST SWAP3 SWAP2 POP POP JUMP JUMPDEST PUSH2 0x83A PUSH2 0x2615 JUMP JUMPDEST PUSH2 0x842 PUSH2 0x21C2 JUMP JUMPDEST PUSH1 0x1 PUSH1 0x1 PUSH1 0xA0 SHL SUB DUP3 AND PUSH0 SWAP1 DUP2 MSTORE PUSH1 0x11 PUSH1 0x20 MSTORE PUSH1 0x40 DUP2 KECCAK256 SLOAD PUSH1 0x1 PUSH1 0x1 PUSH1 0x40 SHL SUB AND SWAP1 SUB PUSH2 0x88D JUMPI DUP2 PUSH1 0x40 MLOAD PUSH4 0xC8FED47 PUSH1 0xE3 SHL DUP2 MSTORE PUSH1 0x4 ADD PUSH2 0x884 SWAP2 SWAP1 PUSH2 0x2899 JUMP JUMPDEST PUSH1 0x40 MLOAD DUP1 SWAP2 SUB SWAP1 REVERT JUMPDEST PUSH1 0x1 PUSH1 0x1 PUSH1 0xA0 SHL SUB DUP1 DUP4 AND PUSH0 SWAP1 DUP2 MSTORE PUSH1 0x11 PUSH1 0x20 SWAP1 DUP2 MSTORE PUSH1 0x40 SWAP2 DUP3 SWAP1 KECCAK256 DUP3 MLOAD PUSH1 0x80 DUP1 DUP3 ADD DUP6 MSTORE DUP3 SLOAD PUSH1 0x1 PUSH1 0x1 PUSH1 0x40 SHL SUB SWAP1 DUP2 AND DUP4 MSTORE DUP6 MLOAD PUSH2 0x100 DUP2 ADD DUP8 MSTORE PUSH1 0x1 DUP6 ADD SLOAD DUP9 AND DUP2 MSTORE PUSH1 0x2 DUP6 ADD SLOAD DUP1 DUP10 AND DUP3 DUP9 ADD MSTORE PUSH1 0x1 PUSH1 0xA0 SHL SWAP1 DIV DUP3 AND DUP2 DUP9 ADD MSTORE PUSH1 0x3 DUP6 ADD SLOAD DUP1 DUP4 AND PUSH1 0x60 DUP4 ADD MSTORE PUSH1 0x1 PUSH1 0x40 SHL SWAP1 DUP2 SWAP1 DIV SWAP1 SWAP9 AND SWAP3 DUP2 ADD SWAP3 SWAP1 SWAP3 MSTORE PUSH1 0x4 DUP5 ADD SLOAD DUP1 DUP3 AND PUSH1 0xA0 DUP5 ADD MSTORE SWAP7 DUP8 DIV DUP2 AND PUSH1 0xC0 DUP4 ADD MSTORE PUSH1 0x1 PUSH1 0x80 SHL SWAP1 SWAP7 DIV SWAP1 SWAP6 AND PUSH1 0xE0 DUP7 ADD MSTORE SWAP2 DUP3 ADD SWAP4 SWAP1 SWAP4 MSTORE PUSH1 0x5 DUP4 ADD DUP1 SLOAD SWAP2 SWAP4 SWAP3 DUP5 ADD SWAP2 PUSH2 0x94F SWAP1 PUSH2 0x2AD4 JUMP JUMPDEST DUP1 PUSH1 0x1F ADD PUSH1 0x20 DUP1 SWAP2 DIV MUL PUSH1 0x20 ADD PUSH1 0x40 MLOAD SWAP1 DUP2 ADD PUSH1 0x40 MSTORE DUP1 SWAP3 SWAP2 SWAP1 DUP2 DUP2 MSTORE PUSH1 0x20 ADD DUP3 DUP1 SLOAD PUSH2 0x97B SWAP1 PUSH2 0x2AD4 JUMP JUMPDEST DUP1 ISZERO PUSH2 0x9C6 JUMPI DUP1 PUSH1 0x1F LT PUSH2 0x99D JUMPI PUSH2 0x100 DUP1 DUP4 SLOAD DIV MUL DUP4 MSTORE SWAP2 PUSH1 0x20 ADD SWAP2 PUSH2 0x9C6 JUMP JUMPDEST DUP3 ADD SWAP2 SWAP1 PUSH0 MSTORE PUSH1 0x20 PUSH0 KECCAK256 SWAP1 JUMPDEST DUP2 SLOAD DUP2 MSTORE SWAP1 PUSH1 0x1 ADD SWAP1 PUSH1 0x20 ADD DUP1 DUP4 GT PUSH2 0x9A9 JUMPI DUP3 SWAP1 SUB PUSH1 0x1F AND DUP3 ADD SWAP2 JUMPDEST POP POP POP SWAP2 DUP4 MSTORE POP POP PUSH1 0x6 SWAP2 SWAP1 SWAP2 ADD SLOAD PUSH1 0x1 PUSH1 0x1 PUSH1 0x40 SHL SUB AND PUSH1 0x20 SWAP1 SWAP2 ADD MSTORE SWAP1 POP PUSH2 0x9EF DUP2 PUSH2 0x2202 JUMP JUMPDEST PUSH1 0x1 PUSH1 0x1 PUSH1 0x40 SHL SUB AND PUSH1 0x60 DUP3 ADD MSTORE SWAP2 SWAP1 POP JUMP JUMPDEST PUSH1 0x15 DUP2 DUP2 SLOAD DUP2 LT PUSH2 0xA11 JUMPI PUSH0 DUP1 REVERT JUMPDEST SWAP1 PUSH0 MSTORE PUSH1 0x20 PUSH0 KECCAK256 ADD PUSH0 SWAP2 POP SWAP1 POP DUP1 SLOAD PUSH2 0xA29 SWAP1 PUSH2 0x2AD4 JUMP JUMPDEST DUP1 PUSH1 0x1F ADD PUSH1 0x20 DUP1 SWAP2 DIV MUL PUSH1 0x20 ADD PUSH1 0x40 MLOAD SWAP1 DUP2 ADD PUSH1 0x40 MSTORE DUP1 SWAP3 SWAP2 SWAP1 DUP2 DUP2 MSTORE PUSH1 0x20 ADD DUP3 DUP1 SLOAD PUSH2 0xA55 SWAP1 PUSH2 0x2AD4 JUMP JUMPDEST DUP1 ISZERO PUSH2 0xAA0 JUMPI DUP1 PUSH1 0x1F LT PUSH2 0xA77 JUMPI PUSH2 0x100 DUP1 DUP4 SLOAD DIV MUL DUP4 MSTORE SWAP2 PUSH1 0x20 ADD SWAP2 PUSH2 0xAA0 JUMP JUMPDEST DUP3 ADD SWAP2 SWAP1 PUSH0 MSTORE PUSH1 0x20 PUSH0 KECCAK256 SWAP1 JUMPDEST DUP2 SLOAD DUP2 MSTORE SWAP1 PUSH1 0x1 ADD SWAP1 PUSH1 0x20 ADD DUP1 DUP4 GT PUSH2 0xA83 JUMPI DUP3 SWAP1 SUB PUSH1 0x1F AND DUP3 ADD SWAP2 JUMPDEST POP POP POP POP POP DUP2 JUMP JUMPDEST PUSH1 0x1 PUSH1 0x1 PUSH1 0xA0 SHL SUB DUP3 AND PUSH0 SWAP1 DUP2 MSTORE PUSH1 0x8 PUSH1 0x20 MSTORE PUSH1 0x40 DUP2 KECCAK256 SLOAD SWAP1 SUB PUSH2 0xAE1 JUMPI DUP2 PUSH1 0x40 MLOAD PUSH4 0x90B23441 PUSH1 0xE0 SHL DUP2 MSTORE PUSH1 0x4 ADD PUSH2 0x884 SWAP2 SWAP1 PUSH2 0x2899 JUMP JUMPDEST DUP2 PUSH0 PUSH2 0xAEF PUSH1 0x12 PUSH1 0xA PUSH2 0x2C03 JUMP JUMPDEST PUSH1 0x1 PUSH1 0x1 PUSH1 0xA0 SHL SUB DUP6 AND PUSH0 SWAP1 DUP2 MSTORE PUSH1 0x8 PUSH1 0x20 MSTORE PUSH1 0x40 SWAP1 KECCAK256 SLOAD PUSH2 0xB11 SWAP1 DUP6 PUSH2 0x2C11 JUMP JUMPDEST PUSH2 0xB1B SWAP2 SWAP1 PUSH2 0x2C28 JUMP JUMPDEST PUSH1 0x40 MLOAD PUSH4 0x23B872DD PUSH1 0xE0 SHL DUP2 MSTORE SWAP1 SWAP2 POP PUSH0 SWAP1 ADDRESS SWAP1 PUSH4 0x23B872DD SWAP1 PUSH2 0xB47 SWAP1 CALLER SWAP1 DUP5 SWAP1 DUP10 SWAP1 PUSH1 0x4 ADD PUSH2 0x2C47 JUMP JUMPDEST PUSH1 0x20 PUSH1 0x40 MLOAD DUP1 DUP4 SUB DUP2 PUSH0 DUP8 GAS CALL ISZERO DUP1 ISZERO PUSH2 0xB63 JUMPI RETURNDATASIZE PUSH0 PUSH0 RETURNDATACOPY RETURNDATASIZE PUSH0 REVERT JUMPDEST POP POP POP POP PUSH1 0x40 MLOAD RETURNDATASIZE PUSH1 0x1F NOT PUSH1 0x1F DUP3 ADD AND DUP3 ADD DUP1 PUSH1 0x40 MSTORE POP DUP2 ADD SWAP1 PUSH2 0xB87 SWAP2 SWAP1 PUSH2 0x2C6B JUMP JUMPDEST SWAP1 POP DUP1 ADDRESS PUSH1 0x1 PUSH1 0x1 PUSH1 0xA0 SHL SUB AND PUSH4 0x6FDDE03 PUSH1 0x40 MLOAD DUP2 PUSH4 0xFFFFFFFF AND PUSH1 0xE0 SHL DUP2 MSTORE PUSH1 0x4 ADD PUSH0 PUSH1 0x40 MLOAD DUP1 DUP4 SUB DUP2 DUP7 GAS STATICCALL ISZERO DUP1 ISZERO PUSH2 0xBC5 JUMPI RETURNDATASIZE PUSH0 PUSH0 RETURNDATACOPY RETURNDATASIZE PUSH0 REVERT JUMPDEST POP POP POP POP PUSH1 0x40 MLOAD RETURNDATASIZE PUSH0 DUP3 RETURNDATACOPY PUSH1 0x1F RETURNDATASIZE SWAP1 DUP2 ADD PUSH1 0x1F NOT AND DUP3 ADD PUSH1 0x40 MSTORE PUSH2 0xBEC SWAP2 SWAP1 DUP2 ADD SWAP1 PUSH2 0x2C8A JUMP JUMPDEST PUSH1 0x40 MLOAD PUSH1 0x20 ADD PUSH2 0xBFC SWAP2 SWAP1 PUSH2 0x2D15 JUMP JUMPDEST PUSH1 0x40 MLOAD PUSH1 0x20 DUP2 DUP4 SUB SUB DUP2 MSTORE SWAP1 PUSH1 0x40 MSTORE SWAP1 PUSH2 0xC29 JUMPI PUSH1 0x40 MLOAD PUSH3 0x461BCD PUSH1 0xE5 SHL DUP2 MSTORE PUSH1 0x4 ADD PUSH2 0x884 SWAP2 SWAP1 PUSH2 0x26A4 JUMP JUMPDEST POP PUSH1 0x40 MLOAD PUSH4 0xA9059CBB PUSH1 0xE0 SHL DUP2 MSTORE CALLER PUSH1 0x4 DUP3 ADD MSTORE PUSH1 0x24 DUP2 ADD DUP4 SWAP1 MSTORE PUSH1 0x1 PUSH1 0x1 PUSH1 0xA0 SHL SUB DUP5 AND SWAP1 PUSH4 0xA9059CBB SWAP1 PUSH1 0x44 ADD JUMPDEST PUSH1 0x20 PUSH1 0x40 MLOAD DUP1 DUP4 SUB DUP2 PUSH0 DUP8 GAS CALL ISZERO DUP1 ISZERO PUSH2 0xC75 JUMPI RETURNDATASIZE PUSH0 PUSH0 RETURNDATACOPY RETURNDATASIZE PUSH0 REVERT JUMPDEST POP POP POP POP PUSH1 0x40 MLOAD RETURNDATASIZE PUSH1 0x1F NOT PUSH1 0x1F DUP3 ADD AND DUP3 ADD DUP1 PUSH1 0x40 MSTORE POP DUP2 ADD SWAP1 PUSH2 0xC99 SWAP2 SWAP1 PUSH2 0x2C6B JUMP JUMPDEST POP POP POP POP POP POP JUMP JUMPDEST PUSH0 CALLER PUSH2 0xCAE DUP6 DUP3 DUP6 PUSH2 0x2309 JUMP JUMPDEST PUSH2 0xCB9 DUP6 DUP6 DUP6 PUSH2 0x2360 JUMP JUMPDEST POP PUSH1 0x1 SWAP5 SWAP4 POP POP POP POP JUMP JUMPDEST PUSH1 0x1 PUSH1 0x1 PUSH1 0xA0 SHL SUB DUP3 AND PUSH0 SWAP1 DUP2 MSTORE PUSH1 0x8 PUSH1 0x20 MSTORE PUSH1 0x40 DUP2 KECCAK256 SLOAD SWAP1 SUB PUSH2 0xCFD JUMPI DUP2 PUSH1 0x40 MLOAD PUSH4 0x90B23441 PUSH1 0xE0 SHL DUP2 MSTORE PUSH1 0x4 ADD PUSH2 0x884 SWAP2 SWAP1 PUSH2 0x2899 JUMP JUMPDEST DUP2 PUSH0 PUSH2 0xD0B PUSH1 0x12 PUSH1 0xA PUSH2 0x2C03 JUMP JUMPDEST PUSH1 0x1 PUSH1 0x1 PUSH1 0xA0 SHL SUB DUP6 AND PUSH0 SWAP1 DUP2 MSTORE PUSH1 0x8 PUSH1 0x20 MSTORE PUSH1 0x40 SWAP1 KECCAK256 SLOAD PUSH2 0xD2D SWAP1 DUP6 PUSH2 0x2C11 JUMP JUMPDEST PUSH2 0xD37 SWAP2 SWAP1 PUSH2 0x2C28 JUMP JUMPDEST SWAP1 POP PUSH0 DUP3 PUSH1 0x1 PUSH1 0x1 PUSH1 0xA0 SHL SUB AND PUSH4 0x23B872DD CALLER ADDRESS DUP6 PUSH1 0x40 MLOAD DUP5 PUSH4 0xFFFFFFFF AND PUSH1 0xE0 SHL DUP2 MSTORE PUSH1 0x4 ADD PUSH2 0xD6A SWAP4 SWAP3 SWAP2 SWAP1 PUSH2 0x2C47 JUMP JUMPDEST PUSH1 0x20 PUSH1 0x40 MLOAD DUP1 DUP4 SUB DUP2 PUSH0 DUP8 GAS CALL ISZERO DUP1 ISZERO PUSH2 0xD86 JUMPI RETURNDATASIZE PUSH0 PUSH0 RETURNDATACOPY RETURNDATASIZE PUSH0 REVERT JUMPDEST POP POP POP POP PUSH1 0x40 MLOAD RETURNDATASIZE PUSH1 0x1F NOT PUSH1 0x1F DUP3 ADD AND DUP3 ADD DUP1 PUSH1 0x40 MSTORE POP DUP2 ADD SWAP1 PUSH2 0xDAA SWAP2 SWAP1 PUSH2 0x2C6B JUMP JUMPDEST SWAP1 POP DUP1 DUP4 PUSH1 0x1 PUSH1 0x1 PUSH1 0xA0 SHL SUB AND PUSH4 0x6FDDE03 PUSH1 0x40 MLOAD DUP2 PUSH4 0xFFFFFFFF AND PUSH1 0xE0 SHL DUP2 MSTORE PUSH1 0x4 ADD PUSH0 PUSH1 0x40 MLOAD DUP1 DUP4 SUB DUP2 DUP7 GAS STATICCALL ISZERO DUP1 ISZERO PUSH2 0xDE8 JUMPI RETURNDATASIZE PUSH0 PUSH0 RETURNDATACOPY RETURNDATASIZE PUSH0 REVERT JUMPDEST POP POP POP POP PUSH1 0x40 MLOAD RETURNDATASIZE PUSH0 DUP3 RETURNDATACOPY PUSH1 0x1F RETURNDATASIZE SWAP1 DUP2 ADD PUSH1 0x1F NOT AND DUP3 ADD PUSH1 0x40 MSTORE PUSH2 0xE0F SWAP2 SWAP1 DUP2 ADD SWAP1 PUSH2 0x2C8A JUMP JUMPDEST PUSH1 0x40 MLOAD PUSH1 0x20 ADD PUSH2 0xE1F SWAP2 SWAP1 PUSH2 0x2D15 JUMP JUMPDEST PUSH1 0x40 MLOAD PUSH1 0x20 DUP2 DUP4 SUB SUB DUP2 MSTORE SWAP1 PUSH1 0x40 MSTORE SWAP1 PUSH2 0xE4C JUMPI PUSH1 0x40 MLOAD PUSH3 0x461BCD PUSH1 0xE5 SHL DUP2 MSTORE PUSH1 0x4 ADD PUSH2 0x884 SWAP2 SWAP1 PUSH2 0x26A4 JUMP JUMPDEST POP PUSH1 0x40 MLOAD PUSH4 0xA9059CBB PUSH1 0xE0 SHL DUP2 MSTORE CALLER PUSH1 0x4 DUP3 ADD MSTORE PUSH1 0x24 DUP2 ADD DUP6 SWAP1 MSTORE ADDRESS SWAP1 PUSH4 0xA9059CBB SWAP1 PUSH1 0x44 ADD PUSH2 0xC59 JUMP JUMPDEST PUSH2 0xE7F PUSH2 0x2615 JUMP JUMPDEST PUSH2 0xE87 PUSH2 0x21C2 JUMP JUMPDEST PUSH0 PUSH2 0xE91 DUP4 PUSH2 0x169D JUMP JUMPDEST SWAP1 POP PUSH2 0xE9C DUP2 PUSH2 0x832 JUMP JUMPDEST SWAP2 POP POP JUMPDEST SWAP2 SWAP1 POP JUMP JUMPDEST PUSH2 0xEAD PUSH2 0x2615 JUMP JUMPDEST PUSH2 0xEB5 PUSH2 0x21C2 JUMP JUMPDEST PUSH2 0xEBE DUP3 PUSH2 0x1D77 JUMP JUMPDEST PUSH1 0x40 MLOAD PUSH4 0x666E1B39 PUSH1 0xE0 SHL DUP2 MSTORE DUP3 SWAP1 PUSH1 0x1 PUSH1 0x1 PUSH1 0xA0 SHL SUB DUP3 AND SWAP1 PUSH4 0x666E1B39 SWAP1 PUSH2 0xEEC SWAP1 ORIGIN SWAP1 PUSH1 0x4 ADD PUSH2 0x2899 JUMP JUMPDEST PUSH1 0x20 PUSH1 0x40 MLOAD DUP1 DUP4 SUB DUP2 DUP7 GAS STATICCALL ISZERO DUP1 ISZERO PUSH2 0xF07 JUMPI RETURNDATASIZE PUSH0 PUSH0 RETURNDATACOPY RETURNDATASIZE PUSH0 REVERT JUMPDEST POP POP POP POP PUSH1 0x40 MLOAD RETURNDATASIZE PUSH1 0x1F NOT PUSH1 0x1F DUP3 ADD AND DUP3 ADD DUP1 PUSH1 0x40 MSTORE POP DUP2 ADD SWAP1 PUSH2 0xF2B SWAP2 SWAP1 PUSH2 0x2C6B JUMP JUMPDEST PUSH2 0xF59 JUMPI PUSH1 0x40 MLOAD PUSH4 0x1E6DC5AB PUSH1 0xE3 SHL DUP2 MSTORE PUSH1 0x1 PUSH1 0x1 PUSH1 0xA0 SHL SUB DUP5 AND PUSH1 0x4 DUP3 ADD MSTORE ORIGIN PUSH1 0x24 DUP3 ADD MSTORE PUSH1 0x44 ADD PUSH2 0x884 JUMP JUMPDEST PUSH2 0xF61 PUSH2 0x2615 JUMP JUMPDEST PUSH1 0x40 MLOAD PUSH4 0x1115DCF PUSH1 0xE3 SHL DUP2 MSTORE PUSH1 0x1 PUSH1 0x4 DUP3 ADD MSTORE PUSH1 0x1 PUSH1 0x1 PUSH1 0xA0 SHL SUB DUP4 AND SWAP1 PUSH4 0x88AEE78 SWAP1 PUSH1 0x24 ADD PUSH1 0x20 PUSH1 0x40 MLOAD DUP1 DUP4 SUB DUP2 PUSH0 DUP8 GAS CALL ISZERO DUP1 ISZERO PUSH2 0xFA5 JUMPI RETURNDATASIZE PUSH0 PUSH0 RETURNDATACOPY RETURNDATASIZE PUSH0 REVERT JUMPDEST POP POP POP POP PUSH1 0x40 MLOAD RETURNDATASIZE PUSH1 0x1F NOT PUSH1 0x1F DUP3 ADD AND DUP3 ADD DUP1 PUSH1 0x40 MSTORE POP DUP2 ADD SWAP1 PUSH2 0xFC9 SWAP2 SWAP1 PUSH2 0x2D42 JUMP JUMPDEST PUSH1 0x1 PUSH1 0x1 PUSH1 0x40 SHL SUB AND DUP2 MSTORE PUSH1 0x40 DUP1 MLOAD PUSH4 0x85BCB519 PUSH1 0xE0 SHL DUP2 MSTORE SWAP1 MLOAD PUSH1 0x1 PUSH1 0x1 PUSH1 0xA0 SHL SUB DUP5 AND SWAP2 PUSH4 0x85BCB519 SWAP2 PUSH1 0x4 DUP1 DUP4 ADD SWAP3 PUSH2 0x100 SWAP3 SWAP2 SWAP1 DUP3 SWAP1 SUB ADD DUP2 PUSH0 DUP8 GAS CALL ISZERO DUP1 ISZERO PUSH2 0x1019 JUMPI RETURNDATASIZE PUSH0 PUSH0 RETURNDATACOPY RETURNDATASIZE PUSH0 REVERT JUMPDEST POP POP POP POP PUSH1 0x40 MLOAD RETURNDATASIZE PUSH1 0x1F NOT PUSH1 0x1F DUP3 ADD AND DUP3 ADD DUP1 PUSH1 0x40 MSTORE POP DUP2 ADD SWAP1 PUSH2 0x103D SWAP2 SWAP1 PUSH2 0x2D68 JUMP JUMPDEST PUSH1 0x20 DUP3 ADD DUP2 DUP2 MSTORE PUSH1 0x1 PUSH1 0x1 PUSH1 0xA0 SHL SUB DUP1 DUP8 AND SWAP1 SWAP3 MSTORE MLOAD MLOAD PUSH1 0x40 DUP1 MLOAD PUSH4 0xC584460D PUSH1 0xE0 SHL DUP2 MSTORE SWAP1 MLOAD SWAP2 SWAP1 SWAP3 AND SWAP2 PUSH4 0xC584460D SWAP2 PUSH1 0x4 DUP1 DUP4 ADD SWAP3 PUSH0 SWAP3 SWAP2 SWAP1 DUP3 SWAP1 SUB ADD DUP2 DUP7 GAS STATICCALL ISZERO DUP1 ISZERO PUSH2 0x1090 JUMPI RETURNDATASIZE PUSH0 PUSH0 RETURNDATACOPY RETURNDATASIZE PUSH0 REVERT JUMPDEST POP POP POP POP PUSH1 0x40 MLOAD RETURNDATASIZE PUSH0 DUP3 RETURNDATACOPY PUSH1 0x1F RETURNDATASIZE SWAP1 DUP2 ADD PUSH1 0x1F NOT AND DUP3 ADD PUSH1 0x40 MSTORE PUSH2 0x10B7 SWAP2 SWAP1 DUP2 ADD SWAP1 PUSH2 0x2C8A JUMP JUMPDEST PUSH1 0x40 DUP3 DUP2 ADD SWAP2 DUP3 MSTORE ORIGIN PUSH0 SWAP1 DUP2 MSTORE PUSH1 0x11 PUSH1 0x20 SWAP1 DUP2 MSTORE SWAP1 DUP3 SWAP1 KECCAK256 DUP5 MLOAD DUP2 SLOAD PUSH8 0xFFFFFFFFFFFFFFFF NOT AND PUSH1 0x1 PUSH1 0x1 PUSH1 0x40 SHL SUB SWAP2 DUP3 AND OR DUP3 SSTORE DUP3 DUP7 ADD MLOAD DUP1 MLOAD PUSH1 0x1 DUP5 ADD DUP1 SLOAD PUSH1 0x1 PUSH1 0x1 PUSH1 0xA0 SHL SUB NOT AND PUSH1 0x1 PUSH1 0x1 PUSH1 0xA0 SHL SUB SWAP3 DUP4 AND OR SWAP1 SSTORE SWAP4 DUP2 ADD MLOAD PUSH1 0x2 DUP5 ADD DUP1 SLOAD SWAP7 DUP4 ADD MLOAD SWAP2 DUP7 AND PUSH1 0x1 PUSH1 0x1 PUSH1 0xE0 SHL SUB NOT SWAP8 DUP9 AND OR PUSH1 0x1 PUSH1 0xA0 SHL SWAP3 DUP6 AND SWAP3 SWAP1 SWAP3 MUL SWAP2 SWAP1 SWAP2 OR SWAP1 SSTORE PUSH1 0x60 DUP2 ADD MLOAD PUSH1 0x3 DUP5 ADD DUP1 SLOAD PUSH1 0x80 DUP5 ADD MLOAD SWAP3 DUP6 AND SWAP8 AND SWAP7 SWAP1 SWAP7 OR PUSH1 0x1 PUSH1 0x40 SHL SWAP2 SWAP1 SWAP6 AND DUP2 MUL SWAP5 SWAP1 SWAP5 OR SWAP1 SWAP5 SSTORE PUSH1 0xA0 DUP5 ADD MLOAD PUSH1 0x4 DUP4 ADD DUP1 SLOAD PUSH1 0xC0 DUP8 ADD MLOAD PUSH1 0xE0 SWAP1 SWAP8 ADD MLOAD SWAP3 DUP5 AND PUSH1 0x1 PUSH1 0x1 PUSH1 0x80 SHL SUB NOT SWAP1 SWAP2 AND OR SWAP6 DUP4 AND SWAP1 SWAP5 MUL SWAP5 SWAP1 SWAP5 OR PUSH8 0xFFFFFFFFFFFFFFFF PUSH1 0x80 SHL NOT AND PUSH1 0x1 PUSH1 0x80 SHL SWAP5 SWAP1 SWAP2 AND SWAP4 SWAP1 SWAP4 MUL SWAP3 SWAP1 SWAP3 OR SWAP1 SSTORE SWAP1 MLOAD DUP3 SWAP2 SWAP1 PUSH1 0x5 DUP3 ADD SWAP1 PUSH2 0x11D0 SWAP1 DUP3 PUSH2 0x2E59 JUMP JUMPDEST POP PUSH1 0x60 SWAP2 SWAP1 SWAP2 ADD MLOAD PUSH1 0x6 SWAP1 SWAP2 ADD DUP1 SLOAD PUSH8 0xFFFFFFFFFFFFFFFF NOT AND PUSH1 0x1 PUSH1 0x1 PUSH1 0x40 SHL SUB SWAP3 DUP4 AND OR SWAP1 SSTORE DUP2 MLOAD DUP2 AND PUSH0 SWAP1 DUP2 MSTORE PUSH1 0x12 PUSH1 0x20 MSTORE PUSH1 0x40 SWAP1 KECCAK256 DUP1 SLOAD ORIGIN PUSH1 0x1 PUSH1 0x1 PUSH1 0xA0 SHL SUB NOT SWAP1 SWAP2 AND OR SWAP1 SSTORE DUP2 MLOAD PUSH1 0xB SLOAD PUSH2 0x1232 SWAP3 PUSH1 0x1 PUSH1 0x40 SHL SWAP1 SWAP2 DIV AND PUSH2 0x199C JUMP JUMPDEST POP POP PUSH2 0x123D DUP2 PUSH2 0x2202 JUMP JUMPDEST PUSH1 0x1 PUSH1 0x1 PUSH1 0x40 SHL SUB AND PUSH1 0x60 DUP3 ADD MSTORE SWAP4 SWAP3 POP POP POP JUMP JUMPDEST PUSH2 0x125A PUSH2 0x21C2 JUMP JUMPDEST PUSH2 0x1264 DUP2 PUSH0 PUSH2 0x236B JUMP JUMPDEST POP JUMP JUMPDEST PUSH0 PUSH0 PUSH2 0x1271 PUSH2 0x178E JUMP JUMPDEST PUSH1 0xE SLOAD PUSH1 0x10 SLOAD PUSH1 0x40 MLOAD PUSH4 0xCF372A7 PUSH1 0xE3 SHL DUP2 MSTORE PUSH1 0x1 PUSH1 0x1 PUSH1 0xA0 SHL SUB SWAP4 DUP5 AND SWAP4 PUSH4 0x679B9538 SWAP4 PUSH2 0x12BC SWAP4 PUSH1 0x1 PUSH1 0x40 SHL SWAP1 SWAP2 DIV SWAP1 SWAP2 AND SWAP2 PUSH1 0x1 PUSH1 0x1 PUSH1 0x40 SHL SUB SWAP1 SWAP2 AND DUP9 XOR SWAP1 PUSH1 0x4 ADD PUSH2 0x2F13 JUMP JUMPDEST PUSH1 0x40 DUP1 MLOAD DUP1 DUP4 SUB DUP2 PUSH0 DUP8 GAS CALL ISZERO DUP1 ISZERO PUSH2 0x12D7 JUMPI RETURNDATASIZE PUSH0 PUSH0 RETURNDATACOPY RETURNDATASIZE PUSH0 REVERT JUMPDEST POP POP POP POP PUSH1 0x40 MLOAD RETURNDATASIZE PUSH1 0x1F NOT PUSH1 0x1F DUP3 ADD AND DUP3 ADD DUP1 PUSH1 0x40 MSTORE POP DUP2 ADD SWAP1 PUSH2 0x12FB SWAP2 SWAP1 PUSH2 0x2F35 JUMP JUMPDEST PUSH1 0xF DUP1 SLOAD PUSH1 0x1 PUSH1 0x40 SHL PUSH1 0x1 PUSH1 0xC0 SHL SUB NOT AND PUSH1 0x1 PUSH1 0x80 SHL PUSH1 0x1 PUSH1 0x1 PUSH1 0x40 SHL SUB SWAP4 DUP5 AND DUP2 MUL PUSH8 0xFFFFFFFFFFFFFFFF PUSH1 0x40 SHL NOT AND SWAP2 SWAP1 SWAP2 OR PUSH1 0x1 PUSH1 0x40 SHL SWAP5 DUP5 AND DUP6 MUL OR SWAP2 DUP3 SWAP1 SSTORE PUSH1 0x10 DUP1 SLOAD SWAP2 DUP4 DIV DUP5 AND PUSH8 0xFFFFFFFFFFFFFFFF NOT SWAP1 SWAP3 AND DUP3 OR SWAP1 SSTORE SWAP3 SWAP1 DIV AND SWAP5 SWAP1 SWAP4 POP SWAP2 POP POP JUMP JUMPDEST PUSH1 0xF SLOAD PUSH0 SWAP1 PUSH2 0x1384 SWAP1 PUSH1 0x1 PUSH1 0x40 SHL SWAP1 DIV PUSH1 0x1 PUSH1 0x1 PUSH1 0x40 SHL SUB AND PUSH2 0x1267 JUMP JUMPDEST POP POP PUSH1 0x6 SLOAD PUSH1 0xF SLOAD PUSH1 0x9 SLOAD PUSH1 0x40 MLOAD PUSH4 0x3148F14F PUSH1 0xE0 SHL DUP2 MSTORE PUSH1 0x1 PUSH1 0x1 PUSH1 0x40 SHL SUB PUSH1 0x1 PUSH1 0x80 SHL DUP5 DIV DUP2 AND PUSH1 0x4 DUP4 ADD MSTORE PUSH1 0x1 PUSH1 0x40 SHL SWAP1 SWAP4 DIV SWAP1 SWAP3 AND PUSH1 0x24 DUP4 ADD MSTORE PUSH1 0x44 DUP3 ADD MSTORE PUSH1 0x1 PUSH1 0x1 PUSH1 0xA0 SHL SUB SWAP1 SWAP2 AND SWAP1 PUSH4 0x3148F14F SWAP1 PUSH1 0x64 ADD PUSH1 0x20 PUSH1 0x40 MLOAD DUP1 DUP4 SUB DUP2 PUSH0 DUP8 GAS CALL ISZERO DUP1 ISZERO PUSH2 0x13F8 JUMPI RETURNDATASIZE PUSH0 PUSH0 RETURNDATACOPY RETURNDATASIZE PUSH0 REVERT JUMPDEST POP POP POP POP PUSH1 0x40 MLOAD RETURNDATASIZE PUSH1 0x1F NOT PUSH1 0x1F DUP3 ADD AND DUP3 ADD DUP1 PUSH1 0x40 MSTORE POP DUP2 ADD SWAP1 PUSH2 0x141C SWAP2 SWAP1 PUSH2 0x2F62 JUMP JUMPDEST PUSH0 DUP2 DUP2 MSTORE PUSH1 0x14 PUSH1 0x20 MSTORE PUSH1 0x40 SWAP1 KECCAK256 SLOAD SWAP1 SWAP2 POP PUSH1 0x1 PUSH1 0x1 PUSH1 0xA0 SHL SUB AND PUSH2 0x145A JUMPI PUSH0 DUP2 DUP2 MSTORE PUSH1 0x14 PUSH1 0x20 MSTORE PUSH1 0x40 SWAP1 KECCAK256 DUP1 SLOAD PUSH1 0x1 PUSH1 0x1 PUSH1 0xA0 SHL SUB NOT AND CALLER OR SWAP1 SSTORE SWAP1 JUMP JUMPDEST PUSH2 0x1462 PUSH2 0x1366 JUMP JUMPDEST SWAP1 POP SWAP1 JUMP JUMPDEST PUSH1 0xA SLOAD PUSH1 0x40 MLOAD PUSH4 0x6C93852D PUSH1 0xE1 SHL DUP2 MSTORE PUSH1 0x20 PUSH1 0x4 DUP3 ADD MSTORE PUSH1 0x7 PUSH1 0x24 DUP3 ADD MSTORE PUSH7 0x737472696E6773 PUSH1 0xC8 SHL PUSH1 0x44 DUP3 ADD MSTORE PUSH0 SWAP2 PUSH1 0x1 PUSH1 0x1 PUSH1 0xA0 SHL SUB AND SWAP1 PUSH4 0xD9270A5A SWAP1 PUSH1 0x64 ADD JUMPDEST PUSH1 0x20 PUSH1 0x40 MLOAD DUP1 DUP4 SUB DUP2 DUP7 GAS STATICCALL ISZERO DUP1 ISZERO PUSH2 0x14C6 JUMPI RETURNDATASIZE PUSH0 PUSH0 RETURNDATACOPY RETURNDATASIZE PUSH0 REVERT JUMPDEST POP POP POP POP PUSH1 0x40 MLOAD RETURNDATASIZE PUSH1 0x1F NOT PUSH1 0x1F DUP3 ADD AND DUP3 ADD DUP1 PUSH1 0x40 MSTORE POP DUP2 ADD SWAP1 PUSH2 0x1462 SWAP2 SWAP1 PUSH2 0x2F79 JUMP JUMPDEST PUSH2 0x14F2 PUSH2 0x2615 JUMP JUMPDEST ORIGIN PUSH0 SWAP1 DUP2 MSTORE PUSH1 0x11 PUSH1 0x20 MSTORE PUSH1 0x40 DUP2 KECCAK256 SLOAD PUSH1 0x1 PUSH1 0x1 PUSH1 0x40 SHL SUB AND SWAP1 SUB PUSH2 0x152B JUMPI ORIGIN PUSH1 0x40 MLOAD PUSH4 0xC8FED47 PUSH1 0xE3 SHL DUP2 MSTORE PUSH1 0x4 ADD PUSH2 0x884 SWAP2 SWAP1 PUSH2 0x2899 JUMP JUMPDEST ORIGIN PUSH0 SWAP1 DUP2 MSTORE PUSH1 0x11 PUSH1 0x20 SWAP1 DUP2 MSTORE PUSH1 0x40 SWAP2 DUP3 SWAP1 KECCAK256 DUP3 MLOAD PUSH1 0x80 DUP1 DUP3 ADD DUP6 MSTORE DUP3 SLOAD PUSH1 0x1 PUSH1 0x1 PUSH1 0x40 SHL SUB SWAP1 DUP2 AND DUP4 MSTORE DUP6 MLOAD PUSH2 0x100 DUP2 ADD DUP8 MSTORE PUSH1 0x1 DUP6 ADD SLOAD PUSH1 0x1 PUSH1 0x1 PUSH1 0xA0 SHL SUB SWAP1 DUP2 AND DUP3 MSTORE PUSH1 0x2 DUP7 ADD SLOAD DUP1 DUP3 AND DUP4 DUP10 ADD MSTORE PUSH1 0x1 PUSH1 0xA0 SHL SWAP1 DIV DUP4 AND DUP3 DUP10 ADD MSTORE PUSH1 0x3 DUP7 ADD SLOAD DUP1 DUP5 AND PUSH1 0x60 DUP5 ADD MSTORE PUSH1 0x1 PUSH1 0x40 SHL SWAP1 DUP2 SWAP1 DIV SWAP1 SWAP2 AND SWAP4 DUP3 ADD SWAP4 SWAP1 SWAP4 MSTORE PUSH1 0x4 DUP6 ADD SLOAD DUP1 DUP4 AND PUSH1 0xA0 DUP4 ADD MSTORE SWAP3 DUP4 DIV DUP3 AND PUSH1 0xC0 DUP3 ADD MSTORE PUSH1 0x1 PUSH1 0x80 SHL SWAP1 SWAP3 DIV AND PUSH1 0xE0 DUP3 ADD MSTORE SWAP3 DUP2 ADD SWAP3 SWAP1 SWAP3 MSTORE PUSH1 0x5 DUP2 ADD DUP1 SLOAD SWAP3 SWAP4 SWAP2 SWAP3 SWAP2 DUP5 ADD SWAP2 PUSH2 0x15EC SWAP1 PUSH2 0x2AD4 JUMP JUMPDEST DUP1 PUSH1 0x1F ADD PUSH1 0x20 DUP1 SWAP2 DIV MUL PUSH1 0x20 ADD PUSH1 0x40 MLOAD SWAP1 DUP2 ADD PUSH1 0x40 MSTORE DUP1 SWAP3 SWAP2 SWAP1 DUP2 DUP2 MSTORE PUSH1 0x20 ADD DUP3 DUP1 SLOAD PUSH2 0x1618 SWAP1 PUSH2 0x2AD4 JUMP JUMPDEST DUP1 ISZERO PUSH2 0x1663 JUMPI DUP1 PUSH1 0x1F LT PUSH2 0x163A JUMPI PUSH2 0x100 DUP1 DUP4 SLOAD DIV MUL DUP4 MSTORE SWAP2 PUSH1 0x20 ADD SWAP2 PUSH2 0x1663 JUMP JUMPDEST DUP3 ADD SWAP2 SWAP1 PUSH0 MSTORE PUSH1 0x20 PUSH0 KECCAK256 SWAP1 JUMPDEST DUP2 SLOAD DUP2 MSTORE SWAP1 PUSH1 0x1 ADD SWAP1 PUSH1 0x20 ADD DUP1 DUP4 GT PUSH2 0x1646 JUMPI DUP3 SWAP1 SUB PUSH1 0x1F AND DUP3 ADD SWAP2 JUMPDEST POP POP POP SWAP2 DUP4 MSTORE POP POP PUSH1 0x6 SWAP2 SWAP1 SWAP2 ADD SLOAD PUSH1 0x1 PUSH1 0x1 PUSH1 0x40 SHL SUB AND PUSH1 0x20 SWAP1 SWAP2 ADD MSTORE SWAP1 POP PUSH2 0x168C DUP2 PUSH2 0x2202 JUMP JUMPDEST PUSH1 0x1 PUSH1 0x1 PUSH1 0x40 SHL SUB AND PUSH1 0x60 DUP3 ADD MSTORE SWAP1 JUMP JUMPDEST PUSH0 PUSH2 0x16A6 PUSH2 0x21C2 JUMP JUMPDEST PUSH1 0x1 PUSH1 0x1 PUSH1 0x40 SHL SUB DUP3 AND PUSH0 SWAP1 DUP2 MSTORE PUSH1 0x12 PUSH1 0x20 MSTORE PUSH1 0x40 SWAP1 KECCAK256 SLOAD PUSH1 0x1 PUSH1 0x1 PUSH1 0xA0 SHL SUB AND PUSH2 0x16EF JUMPI PUSH1 0x40 MLOAD PUSH4 0xBBA4853D PUSH1 0xE0 SHL DUP2 MSTORE PUSH1 0x1 PUSH1 0x1 PUSH1 0x40 SHL SUB DUP4 AND PUSH1 0x4 DUP3 ADD MSTORE PUSH1 0x24 ADD PUSH2 0x884 JUMP JUMPDEST POP PUSH1 0x1 PUSH1 0x1 PUSH1 0x40 SHL SUB AND PUSH0 SWAP1 DUP2 MSTORE PUSH1 0x12 PUSH1 0x20 MSTORE PUSH1 0x40 SWAP1 KECCAK256 SLOAD PUSH1 0x1 PUSH1 0x1 PUSH1 0xA0 SHL SUB AND SWAP1 JUMP JUMPDEST PUSH1 0x1 PUSH1 0x1 PUSH1 0xA0 SHL SUB AND PUSH0 SWAP1 DUP2 MSTORE PUSH1 0x20 DUP2 SWAP1 MSTORE PUSH1 0x40 SWAP1 KECCAK256 SLOAD PUSH1 0xFF AND SWAP1 JUMP JUMPDEST PUSH2 0x1738 PUSH2 0x21C2 JUMP JUMPDEST PUSH1 0x1 PUSH1 0x1 PUSH1 0xA0 SHL SUB DUP2 AND PUSH2 0x1765 JUMPI ORIGIN PUSH0 ADDRESS PUSH1 0x40 MLOAD PUSH4 0x36030219 PUSH1 0xE2 SHL DUP2 MSTORE PUSH1 0x4 ADD PUSH2 0x884 SWAP4 SWAP3 SWAP2 SWAP1 PUSH2 0x2F94 JUMP JUMPDEST PUSH2 0x1264 DUP2 PUSH1 0x1 PUSH2 0x236B JUMP JUMPDEST PUSH2 0x1778 PUSH2 0x21C2 JUMP JUMPDEST PUSH1 0xA SLOAD PUSH2 0x1264 SWAP1 PUSH1 0x1 PUSH1 0x1 PUSH1 0xA0 SHL SUB AND DUP3 PUSH2 0x23BE JUMP JUMPDEST PUSH1 0xA SLOAD PUSH1 0x40 MLOAD PUSH4 0x6C93852D PUSH1 0xE1 SHL DUP2 MSTORE PUSH1 0x20 PUSH1 0x4 DUP3 ADD MSTORE PUSH1 0xD PUSH1 0x24 DUP3 ADD MSTORE PUSH13 0x636F72657265616374696F6E73 PUSH1 0x98 SHL PUSH1 0x44 DUP3 ADD MSTORE PUSH0 SWAP2 PUSH1 0x1 PUSH1 0x1 PUSH1 0xA0 SHL SUB AND SWAP1 PUSH4 0xD9270A5A SWAP1 PUSH1 0x64 ADD PUSH2 0x14AB JUMP JUMPDEST PUSH2 0x17E4 PUSH2 0x21C2 JUMP JUMPDEST PUSH0 PUSH1 0x1 PUSH1 0x1 PUSH1 0xA0 SHL SUB AND PUSH1 0x13 DUP4 PUSH1 0x40 MLOAD PUSH2 0x17FE SWAP2 SWAP1 PUSH2 0x2FB7 JUMP JUMPDEST SWAP1 DUP2 MSTORE PUSH1 0x40 MLOAD SWAP1 DUP2 SWAP1 SUB PUSH1 0x20 ADD SWAP1 KECCAK256 SLOAD PUSH1 0x1 PUSH1 0x1 PUSH1 0xA0 SHL SUB AND EQ PUSH2 0x1860 JUMPI PUSH1 0x13 DUP3 PUSH1 0x40 MLOAD PUSH2 0x182C SWAP2 SWAP1 PUSH2 0x2FB7 JUMP JUMPDEST SWAP1 DUP2 MSTORE PUSH1 0x40 MLOAD SWAP1 DUP2 SWAP1 SUB PUSH1 0x20 ADD DUP2 KECCAK256 SLOAD PUSH4 0x2898357 PUSH1 0xE6 SHL DUP3 MSTORE PUSH2 0x884 SWAP2 PUSH1 0x1 PUSH1 0x1 PUSH1 0xA0 SHL SUB SWAP1 SWAP2 AND SWAP1 DUP5 SWAP1 PUSH1 0x4 ADD PUSH2 0x2FC2 JUMP JUMPDEST DUP1 PUSH1 0x13 DUP4 PUSH1 0x40 MLOAD PUSH2 0x1871 SWAP2 SWAP1 PUSH2 0x2FB7 JUMP JUMPDEST SWAP1 DUP2 MSTORE PUSH1 0x40 MLOAD SWAP1 DUP2 SWAP1 SUB PUSH1 0x20 ADD SWAP1 KECCAK256 DUP1 SLOAD PUSH1 0x1 PUSH1 0x1 PUSH1 0xA0 SHL SUB SWAP3 SWAP1 SWAP3 AND PUSH1 0x1 PUSH1 0x1 PUSH1 0xA0 SHL SUB NOT SWAP1 SWAP3 AND SWAP2 SWAP1 SWAP2 OR SWAP1 SSTORE PUSH1 0x15 DUP1 SLOAD PUSH1 0x1 DUP2 ADD DUP3 SSTORE PUSH0 SWAP2 SWAP1 SWAP2 MSTORE PUSH32 0x55F448FDEA98C4D29EB340757EF0A66CD03DBB9538908A6A81D96026B71EC475 ADD PUSH2 0x18DB DUP4 DUP3 PUSH2 0x2E59 JUMP JUMPDEST POP POP POP JUMP JUMPDEST PUSH1 0x60 PUSH1 0x5 DUP1 SLOAD PUSH2 0x766 SWAP1 PUSH2 0x2AD4 JUMP JUMPDEST PUSH2 0x18F7 PUSH2 0x21C2 JUMP JUMPDEST PUSH1 0x4 PUSH2 0x1903 DUP4 DUP3 PUSH2 0x2E59 JUMP JUMPDEST POP PUSH1 0x5 PUSH2 0x18DB DUP3 DUP3 PUSH2 0x2E59 JUMP JUMPDEST PUSH0 CALLER PUSH2 0x826 DUP2 DUP6 DUP6 PUSH2 0x2360 JUMP JUMPDEST PUSH1 0x1 PUSH1 0x1 PUSH1 0xA0 SHL SUB SWAP2 DUP3 AND PUSH0 SWAP1 DUP2 MSTORE PUSH1 0x2 PUSH1 0x20 SWAP1 DUP2 MSTORE PUSH1 0x40 DUP1 DUP4 KECCAK256 SWAP4 SWAP1 SWAP5 AND DUP3 MSTORE SWAP2 SWAP1 SWAP2 MSTORE KECCAK256 SLOAD SWAP1 JUMP JUMPDEST ORIGIN PUSH0 SWAP1 DUP2 MSTORE PUSH1 0x11 PUSH1 0x20 MSTORE PUSH1 0x40 DUP2 KECCAK256 SLOAD PUSH1 0x1 PUSH1 0x1 PUSH1 0x40 SHL SUB AND DUP2 SUB PUSH2 0x1980 JUMPI ORIGIN PUSH1 0x40 MLOAD PUSH4 0xC8FED47 PUSH1 0xE3 SHL DUP2 MSTORE PUSH1 0x4 ADD PUSH2 0x884 SWAP2 SWAP1 PUSH2 0x2899 JUMP JUMPDEST POP ORIGIN PUSH0 SWAP1 DUP2 MSTORE PUSH1 0x11 PUSH1 0x20 MSTORE PUSH1 0x40 SWAP1 KECCAK256 SLOAD PUSH1 0x1 PUSH1 0x1 PUSH1 0x40 SHL SUB AND SWAP1 JUMP JUMPDEST PUSH1 0x1 PUSH1 0x1 PUSH1 0x40 SHL SUB DUP3 AND PUSH0 SWAP1 DUP2 MSTORE PUSH1 0x12 PUSH1 0x20 MSTORE PUSH1 0x40 DUP2 KECCAK256 SLOAD DUP2 SWAP1 PUSH1 0x1 PUSH1 0x1 PUSH1 0xA0 SHL SUB AND PUSH2 0x19E7 JUMPI PUSH1 0x40 MLOAD PUSH4 0xBBA4853D PUSH1 0xE0 SHL DUP2 MSTORE PUSH1 0x1 PUSH1 0x1 PUSH1 0x40 SHL SUB DUP6 AND PUSH1 0x4 DUP3 ADD MSTORE PUSH1 0x24 ADD PUSH2 0x884 JUMP JUMPDEST PUSH1 0x1 PUSH1 0x1 PUSH1 0x40 SHL SUB DUP1 DUP6 AND PUSH0 SWAP1 DUP2 MSTORE PUSH1 0x12 PUSH1 0x20 SWAP1 DUP2 MSTORE PUSH1 0x40 DUP1 DUP4 KECCAK256 SLOAD PUSH1 0x1 PUSH1 0x1 PUSH1 0xA0 SHL SUB SWAP1 DUP2 AND DUP5 MSTORE PUSH1 0x11 DUP4 MSTORE DUP2 DUP5 KECCAK256 DUP3 MLOAD PUSH1 0x80 DUP1 DUP3 ADD DUP6 MSTORE DUP3 SLOAD DUP9 AND DUP3 MSTORE DUP5 MLOAD PUSH2 0x100 DUP2 ADD DUP7 MSTORE PUSH1 0x1 DUP5 ADD SLOAD DUP6 AND DUP2 MSTORE PUSH1 0x2 DUP5 ADD SLOAD DUP1 DUP7 AND DUP3 DUP10 ADD MSTORE PUSH1 0x1 PUSH1 0xA0 SHL SWAP1 DIV DUP10 AND DUP2 DUP8 ADD MSTORE PUSH1 0x3 DUP5 ADD SLOAD DUP1 DUP11 AND PUSH1 0x60 DUP4 ADD MSTORE PUSH1 0x1 PUSH1 0x40 SHL SWAP1 DUP2 SWAP1 DIV SWAP1 SWAP6 AND SWAP2 DUP2 ADD SWAP2 SWAP1 SWAP2 MSTORE PUSH1 0x4 DUP4 ADD SLOAD DUP1 DUP10 AND PUSH1 0xA0 DUP4 ADD MSTORE SWAP4 DUP5 DIV DUP9 AND PUSH1 0xC0 DUP3 ADD MSTORE PUSH1 0x1 PUSH1 0x80 SHL SWAP1 SWAP4 DIV SWAP1 SWAP7 AND PUSH1 0xE0 DUP4 ADD MSTORE SWAP3 DUP6 ADD MSTORE PUSH1 0x5 DUP3 ADD DUP1 SLOAD SWAP4 SWAP5 SWAP4 SWAP2 DUP5 ADD SWAP2 PUSH2 0x1AB2 SWAP1 PUSH2 0x2AD4 JUMP JUMPDEST DUP1 PUSH1 0x1F ADD PUSH1 0x20 DUP1 SWAP2 DIV MUL PUSH1 0x20 ADD PUSH1 0x40 MLOAD SWAP1 DUP2 ADD PUSH1 0x40 MSTORE DUP1 SWAP3 SWAP2 SWAP1 DUP2 DUP2 MSTORE PUSH1 0x20 ADD DUP3 DUP1 SLOAD PUSH2 0x1ADE SWAP1 PUSH2 0x2AD4 JUMP JUMPDEST DUP1 ISZERO PUSH2 0x1B29 JUMPI DUP1 PUSH1 0x1F LT PUSH2 0x1B00 JUMPI PUSH2 0x100 DUP1 DUP4 SLOAD DIV MUL DUP4 MSTORE SWAP2 PUSH1 0x20 ADD SWAP2 PUSH2 0x1B29 JUMP JUMPDEST DUP3 ADD SWAP2 SWAP1 PUSH0 MSTORE PUSH1 0x20 PUSH0 KECCAK256 SWAP1 JUMPDEST DUP2 SLOAD DUP2 MSTORE SWAP1 PUSH1 0x1 ADD SWAP1 PUSH1 0x20 ADD DUP1 DUP4 GT PUSH2 0x1B0C JUMPI DUP3 SWAP1 SUB PUSH1 0x1F AND DUP3 ADD SWAP2 JUMPDEST POP POP POP SWAP2 DUP4 MSTORE POP POP PUSH1 0x6 SWAP2 SWAP1 SWAP2 ADD SLOAD PUSH1 0x1 PUSH1 0x1 PUSH1 0x40 SHL SUB AND PUSH1 0x20 SWAP1 SWAP2 ADD MSTORE SWAP1 POP PUSH2 0x1B52 DUP2 PUSH2 0x2202 JUMP JUMPDEST SWAP4 POP PUSH2 0x1B5C PUSH2 0x178E JUMP JUMPDEST PUSH1 0x1 PUSH1 0x1 PUSH1 0xA0 SHL SUB AND PUSH4 0xFC7CD61E DUP3 PUSH1 0x20 ADD MLOAD PUSH1 0x80 ADD MLOAD DUP7 PUSH1 0x40 MLOAD DUP4 PUSH4 0xFFFFFFFF AND PUSH1 0xE0 SHL DUP2 MSTORE PUSH1 0x4 ADD PUSH2 0x1B91 SWAP3 SWAP2 SWAP1 PUSH2 0x2F13 JUMP JUMPDEST PUSH1 0x40 DUP1 MLOAD DUP1 DUP4 SUB DUP2 PUSH0 DUP8 GAS CALL ISZERO DUP1 ISZERO PUSH2 0x1BAC JUMPI RETURNDATASIZE PUSH0 PUSH0 RETURNDATACOPY RETURNDATASIZE PUSH0 REVERT JUMPDEST POP POP POP POP PUSH1 0x40 MLOAD RETURNDATASIZE PUSH1 0x1F NOT PUSH1 0x1F DUP3 ADD AND DUP3 ADD DUP1 PUSH1 0x40 MSTORE POP DUP2 ADD SWAP1 PUSH2 0x1BD0 SWAP2 SWAP1 PUSH2 0x2F35 JUMP JUMPDEST PUSH1 0x20 DUP4 DUP2 ADD DUP1 MLOAD PUSH1 0x1 PUSH1 0x1 PUSH1 0x40 SHL SUB SWAP4 DUP5 AND PUSH1 0xE0 DUP1 DUP4 ADD SWAP2 SWAP1 SWAP2 MSTORE SWAP5 DUP5 AND PUSH1 0xC0 SWAP2 DUP3 ADD MSTORE DUP10 DUP5 AND PUSH0 SWAP1 DUP2 MSTORE PUSH1 0x12 DUP5 MSTORE PUSH1 0x40 DUP1 DUP3 KECCAK256 SLOAD PUSH1 0x1 PUSH1 0x1 PUSH1 0xA0 SHL SUB SWAP1 DUP2 AND DUP4 MSTORE PUSH1 0x11 DUP7 MSTORE SWAP2 DUP2 SWAP1 KECCAK256 DUP9 MLOAD DUP2 SLOAD PUSH8 0xFFFFFFFFFFFFFFFF NOT AND SWAP1 DUP9 AND OR DUP2 SSTORE SWAP4 MLOAD DUP1 MLOAD PUSH1 0x1 DUP7 ADD DUP1 SLOAD PUSH1 0x1 PUSH1 0x1 PUSH1 0xA0 SHL SUB NOT AND SWAP2 DUP6 AND SWAP2 SWAP1 SWAP2 OR SWAP1 SSTORE SWAP5 DUP6 ADD MLOAD PUSH1 0x2 DUP6 ADD DUP1 SLOAD DUP8 DUP5 ADD MLOAD SWAP3 DUP6 AND PUSH1 0x1 PUSH1 0x1 PUSH1 0xE0 SHL SUB NOT SWAP2 DUP3 AND OR PUSH1 0x1 PUSH1 0xA0 SHL SWAP4 DUP11 AND SWAP4 SWAP1 SWAP4 MUL SWAP3 SWAP1 SWAP3 OR SWAP1 SSTORE PUSH1 0x60 DUP7 ADD MLOAD PUSH1 0x3 DUP7 ADD DUP1 SLOAD PUSH1 0x80 DUP10 ADD MLOAD SWAP3 DUP11 AND SWAP4 AND SWAP3 SWAP1 SWAP3 OR PUSH1 0x1 PUSH1 0x40 SHL SWAP2 SWAP1 SWAP5 AND DUP2 MUL SWAP4 SWAP1 SWAP4 OR SWAP1 SSTORE PUSH1 0xA0 DUP6 ADD MLOAD PUSH1 0x4 DUP6 ADD DUP1 SLOAD SWAP5 DUP8 ADD MLOAD SWAP7 SWAP1 SWAP9 ADD MLOAD SWAP1 DUP8 AND PUSH1 0x1 PUSH1 0x1 PUSH1 0x80 SHL SUB NOT SWAP1 SWAP5 AND SWAP4 SWAP1 SWAP4 OR SWAP5 DUP7 AND SWAP1 SWAP2 MUL SWAP4 SWAP1 SWAP4 OR PUSH8 0xFFFFFFFFFFFFFFFF PUSH1 0x80 SHL NOT AND PUSH1 0x1 PUSH1 0x80 SHL SWAP2 SWAP1 SWAP5 AND MUL SWAP3 SWAP1 SWAP3 OR SWAP1 SWAP3 SSTORE SWAP1 DUP3 ADD MLOAD DUP3 SWAP2 SWAP1 PUSH1 0x5 DUP3 ADD SWAP1 PUSH2 0x1D0C SWAP1 DUP3 PUSH2 0x2E59 JUMP JUMPDEST POP PUSH1 0x60 SWAP2 SWAP1 SWAP2 ADD MLOAD PUSH1 0x6 SWAP1 SWAP2 ADD DUP1 SLOAD PUSH8 0xFFFFFFFFFFFFFFFF NOT SWAP1 DUP2 AND PUSH1 0x1 PUSH1 0x1 PUSH1 0x40 SHL SUB SWAP4 DUP5 AND OR SWAP1 SWAP2 SSTORE PUSH1 0x20 SWAP3 SWAP1 SWAP3 ADD MLOAD PUSH1 0xC0 DUP2 ADD MLOAD PUSH1 0x10 DUP1 SLOAD SWAP1 SWAP5 AND SWAP3 DUP2 AND SWAP3 SWAP1 SWAP3 OR SWAP1 SWAP3 SSTORE PUSH1 0xE0 SWAP1 SWAP2 ADD MLOAD SWAP1 SWAP6 SWAP1 SWAP5 POP SWAP3 POP POP POP JUMP JUMPDEST PUSH2 0x1D6D PUSH2 0x21C2 JUMP JUMPDEST PUSH2 0x1D75 PUSH2 0x242D JUMP JUMPDEST JUMP JUMPDEST PUSH1 0xA SLOAD PUSH1 0x40 DUP1 MLOAD PUSH4 0x9FF43001 PUSH1 0xE0 SHL DUP2 MSTORE SWAP1 MLOAD PUSH0 SWAP3 PUSH1 0x1 PUSH1 0x1 PUSH1 0xA0 SHL SUB AND SWAP2 PUSH4 0x9FF43001 SWAP2 PUSH1 0x4 DUP1 DUP4 ADD SWAP3 PUSH1 0x20 SWAP3 SWAP2 SWAP1 DUP3 SWAP1 SUB ADD DUP2 DUP8 DUP8 GAS CALL ISZERO DUP1 ISZERO PUSH2 0x1DBF JUMPI RETURNDATASIZE PUSH0 PUSH0 RETURNDATACOPY RETURNDATASIZE PUSH0 REVERT JUMPDEST POP POP POP POP PUSH1 0x40 MLOAD RETURNDATASIZE PUSH1 0x1F NOT PUSH1 0x1F DUP3 ADD AND DUP3 ADD DUP1 PUSH1 0x40 MSTORE POP DUP2 ADD SWAP1 PUSH2 0x1DE3 SWAP2 SWAP1 PUSH2 0x2F79 JUMP JUMPDEST PUSH1 0x1 PUSH1 0x1 PUSH1 0xA0 SHL SUB AND PUSH4 0x76FADE90 PUSH1 0x40 MLOAD DUP2 PUSH4 0xFFFFFFFF AND PUSH1 0xE0 SHL DUP2 MSTORE PUSH1 0x4 ADD PUSH1 0x20 PUSH1 0x40 MLOAD DUP1 DUP4 SUB DUP2 PUSH0 DUP8 GAS CALL ISZERO DUP1 ISZERO PUSH2 0x1E1F JUMPI RETURNDATASIZE PUSH0 PUSH0 RETURNDATACOPY RETURNDATASIZE PUSH0 REVERT JUMPDEST POP POP POP POP PUSH1 0x40 MLOAD RETURNDATASIZE PUSH1 0x1F NOT PUSH1 0x1F DUP3 ADD AND DUP3 ADD DUP1 PUSH1 0x40 MSTORE POP DUP2 ADD SWAP1 PUSH2 0x1E43 SWAP2 SWAP1 PUSH2 0x2F79 JUMP JUMPDEST PUSH1 0x1 PUSH1 0x1 PUSH1 0xA0 SHL SUB AND PUSH4 0xB5095168 PUSH1 0x40 MLOAD DUP2 PUSH4 0xFFFFFFFF AND PUSH1 0xE0 SHL DUP2 MSTORE PUSH1 0x4 ADD PUSH1 0x20 PUSH1 0x40 MLOAD DUP1 DUP4 SUB DUP2 PUSH0 DUP8 GAS CALL ISZERO DUP1 ISZERO PUSH2 0x1E7F JUMPI RETURNDATASIZE PUSH0 PUSH0 RETURNDATACOPY RETURNDATASIZE PUSH0 REVERT JUMPDEST POP POP POP POP PUSH1 0x40 MLOAD RETURNDATASIZE PUSH1 0x1F NOT PUSH1 0x1F DUP3 ADD AND DUP3 ADD DUP1 PUSH1 0x40 MSTORE POP DUP2 ADD SWAP1 PUSH2 0x1EA3 SWAP2 SWAP1 PUSH2 0x2F79 JUMP JUMPDEST PUSH1 0x1 PUSH1 0x1 PUSH1 0xA0 SHL SUB AND PUSH4 0x4CDE872D PUSH1 0x40 MLOAD DUP2 PUSH4 0xFFFFFFFF AND PUSH1 0xE0 SHL DUP2 MSTORE PUSH1 0x4 ADD PUSH1 0x20 PUSH1 0x40 MLOAD DUP1 DUP4 SUB DUP2 PUSH0 DUP8 GAS CALL ISZERO DUP1 ISZERO PUSH2 0x1EDF JUMPI RETURNDATASIZE PUSH0 PUSH0 RETURNDATACOPY RETURNDATASIZE PUSH0 REVERT JUMPDEST POP POP POP POP PUSH1 0x40 MLOAD RETURNDATASIZE PUSH1 0x1F NOT PUSH1 0x1F DUP3 ADD AND DUP3 ADD DUP1 PUSH1 0x40 MSTORE POP DUP2 ADD SWAP1 PUSH2 0x1F03 SWAP2 SWAP1 PUSH2 0x2F79 JUMP JUMPDEST PUSH1 0x1 PUSH1 0x1 PUSH1 0xA0 SHL SUB AND PUSH4 0x140C2FB5 PUSH1 0x40 MLOAD DUP2 PUSH4 0xFFFFFFFF AND PUSH1 0xE0 SHL DUP2 MSTORE PUSH1 0x4 ADD PUSH1 0x20 PUSH1 0x40 MLOAD DUP1 DUP4 SUB DUP2 PUSH0 DUP8 GAS CALL ISZERO DUP1 ISZERO PUSH2 0x1F3F JUMPI RETURNDATASIZE PUSH0 PUSH0 RETURNDATACOPY RETURNDATASIZE PUSH0 REVERT JUMPDEST POP POP POP POP PUSH1 0x40 MLOAD RETURNDATASIZE PUSH1 0x1F NOT PUSH1 0x1F DUP3 ADD AND DUP3 ADD DUP1 PUSH1 0x40 MSTORE POP DUP2 ADD SWAP1 PUSH2 0x1F63 SWAP2 SWAP1 PUSH2 0x2F79 JUMP JUMPDEST PUSH1 0x1 PUSH1 0x1 PUSH1 0xA0 SHL SUB AND PUSH4 0x44278FA DUP4 PUSH1 0x1 PUSH1 0x1 PUSH1 0xA0 SHL SUB AND PUSH4 0x88AEE78 PUSH1 0x1 PUSH1 0x40 MLOAD DUP3 PUSH4 0xFFFFFFFF AND PUSH1 0xE0 SHL DUP2 MSTORE PUSH1 0x4 ADD PUSH2 0x1FA0 SWAP2 DUP2 MSTORE PUSH1 0x20 ADD SWAP1 JUMP JUMPDEST PUSH1 0x20 PUSH1 0x40 MLOAD DUP1 DUP4 SUB DUP2 PUSH0 DUP8 GAS CALL ISZERO DUP1 ISZERO PUSH2 0x1FBC JUMPI RETURNDATASIZE PUSH0 PUSH0 RETURNDATACOPY RETURNDATASIZE PUSH0 REVERT JUMPDEST POP POP POP POP PUSH1 0x40 MLOAD RETURNDATASIZE PUSH1 0x1F NOT PUSH1 0x1F DUP3 ADD AND DUP3 ADD DUP1 PUSH1 0x40 MSTORE POP DUP2 ADD SWAP1 PUSH2 0x1FE0 SWAP2 SWAP1 PUSH2 0x2D42 JUMP JUMPDEST PUSH1 0x40 MLOAD PUSH1 0x1 PUSH1 0x1 PUSH1 0xE0 SHL SUB NOT PUSH1 0xE0 DUP5 SWAP1 SHL AND DUP2 MSTORE PUSH1 0x1 PUSH1 0x1 PUSH1 0x40 SHL SUB SWAP1 SWAP2 AND PUSH1 0x4 DUP3 ADD MSTORE PUSH1 0x24 ADD PUSH2 0x100 PUSH1 0x40 MLOAD DUP1 DUP4 SUB DUP2 PUSH0 DUP8 GAS CALL ISZERO DUP1 ISZERO PUSH2 0x2024 JUMPI RETURNDATASIZE PUSH0 PUSH0 RETURNDATACOPY RETURNDATASIZE PUSH0 REVERT JUMPDEST POP POP POP POP PUSH1 0x40 MLOAD RETURNDATASIZE PUSH1 0x1F NOT PUSH1 0x1F DUP3 ADD AND DUP3 ADD DUP1 PUSH1 0x40 MSTORE POP DUP2 ADD SWAP1 PUSH2 0x2048 SWAP2 SWAP1 PUSH2 0x2D68 JUMP JUMPDEST PUSH1 0x80 DUP2 ADD MLOAD PUSH1 0x40 MLOAD PUSH4 0x666E1B39 PUSH1 0xE0 SHL DUP2 MSTORE SWAP2 SWAP3 POP PUSH1 0x1 PUSH1 0x1 PUSH1 0xA0 SHL SUB AND SWAP1 PUSH4 0x666E1B39 SWAP1 PUSH2 0x207B SWAP1 DUP6 SWAP1 PUSH1 0x4 ADD PUSH2 0x2899 JUMP JUMPDEST PUSH1 0x20 PUSH1 0x40 MLOAD DUP1 DUP4 SUB DUP2 DUP7 GAS STATICCALL ISZERO DUP1 ISZERO PUSH2 0x2096 JUMPI RETURNDATASIZE PUSH0 PUSH0 RETURNDATACOPY RETURNDATASIZE PUSH0 REVERT JUMPDEST POP POP POP POP PUSH1 0x40 MLOAD RETURNDATASIZE PUSH1 0x1F NOT PUSH1 0x1F DUP3 ADD AND DUP3 ADD DUP1 PUSH1 0x40 MSTORE POP DUP2 ADD SWAP1 PUSH2 0x20BA SWAP2 SWAP1 PUSH2 0x2C6B JUMP JUMPDEST ISZERO DUP1 PUSH2 0x2191 JUMPI POP DUP1 PUSH1 0x80 ADD MLOAD PUSH1 0x1 PUSH1 0x1 PUSH1 0xA0 SHL SUB AND PUSH4 0x25A28A8F PUSH1 0x40 MLOAD DUP2 PUSH4 0xFFFFFFFF AND PUSH1 0xE0 SHL DUP2 MSTORE PUSH1 0x4 ADD PUSH1 0x20 PUSH1 0x40 MLOAD DUP1 DUP4 SUB DUP2 DUP7 GAS STATICCALL ISZERO DUP1 ISZERO PUSH2 0x2101 JUMPI RETURNDATASIZE PUSH0 PUSH0 RETURNDATACOPY RETURNDATASIZE PUSH0 REVERT JUMPDEST POP POP POP POP PUSH1 0x40 MLOAD RETURNDATASIZE PUSH1 0x1F NOT PUSH1 0x1F DUP3 ADD AND DUP3 ADD DUP1 PUSH1 0x40 MSTORE POP DUP2 ADD SWAP1 PUSH2 0x2125 SWAP2 SWAP1 PUSH2 0x2F79 JUMP JUMPDEST PUSH1 0x1 PUSH1 0x1 PUSH1 0xA0 SHL SUB AND PUSH4 0x666E1B39 DUP4 PUSH1 0x40 MLOAD DUP3 PUSH4 0xFFFFFFFF AND PUSH1 0xE0 SHL DUP2 MSTORE PUSH1 0x4 ADD PUSH2 0x2150 SWAP2 SWAP1 PUSH2 0x2899 JUMP JUMPDEST PUSH1 0x20 PUSH1 0x40 MLOAD DUP1 DUP4 SUB DUP2 DUP7 GAS STATICCALL ISZERO DUP1 ISZERO PUSH2 0x216B JUMPI RETURNDATASIZE PUSH0 PUSH0 RETURNDATACOPY RETURNDATASIZE PUSH0 REVERT JUMPDEST POP POP POP POP PUSH1 0x40 MLOAD RETURNDATASIZE PUSH1 0x1F NOT PUSH1 0x1F DUP3 ADD AND DUP3 ADD DUP1 PUSH1 0x40 MSTORE POP DUP2 ADD SWAP1 PUSH2 0x218F SWAP2 SWAP1 PUSH2 0x2C6B JUMP JUMPDEST ISZERO JUMPDEST ISZERO PUSH2 0x21B1 JUMPI DUP2 PUSH1 0x40 MLOAD PUSH4 0xD034BFD PUSH1 0xE2 SHL DUP2 MSTORE PUSH1 0x4 ADD PUSH2 0x884 SWAP2 SWAP1 PUSH2 0x2899 JUMP JUMPDEST POP POP JUMP JUMPDEST PUSH2 0x18DB DUP4 DUP4 DUP4 PUSH1 0x1 PUSH2 0x246F JUMP JUMPDEST PUSH2 0x21CB CALLER PUSH2 0x1713 JUMP JUMPDEST ISZERO DUP1 ISZERO PUSH2 0x21DE JUMPI POP PUSH2 0x21DC ORIGIN PUSH2 0x1713 JUMP JUMPDEST ISZERO JUMPDEST ISZERO PUSH2 0x1D75 JUMPI ORIGIN CALLER ADDRESS PUSH1 0x40 MLOAD PUSH4 0xBE6BAB5 PUSH1 0xE0 SHL DUP2 MSTORE PUSH1 0x4 ADD PUSH2 0x884 SWAP4 SWAP3 SWAP2 SWAP1 PUSH2 0x2F94 JUMP JUMPDEST PUSH0 PUSH2 0x220B PUSH2 0x178E JUMP JUMPDEST PUSH1 0x20 DUP4 ADD MLOAD PUSH1 0xC0 DUP2 ADD MLOAD PUSH1 0x10 SLOAD PUSH1 0xE0 SWAP1 SWAP3 ADD MLOAD PUSH1 0x40 MLOAD PUSH4 0xB956AA87 PUSH1 0xE0 SHL DUP2 MSTORE PUSH1 0x1 PUSH1 0x1 PUSH1 0xA0 SHL SUB SWAP5 SWAP1 SWAP5 AND SWAP4 PUSH4 0xB956AA87 SWAP4 PUSH2 0x225F SWAP4 PUSH1 0xC SWAP4 PUSH1 0x1 PUSH1 0x1 PUSH1 0x40 SHL SUB SWAP1 SWAP3 AND SWAP1 DUP2 XOR SWAP3 SWAP2 XOR SWAP1 PUSH1 0x4 ADD PUSH2 0x2FE5 JUMP JUMPDEST PUSH1 0x40 DUP1 MLOAD DUP1 DUP4 SUB DUP2 PUSH0 DUP8 GAS CALL ISZERO DUP1 ISZERO PUSH2 0x227A JUMPI RETURNDATASIZE PUSH0 PUSH0 RETURNDATACOPY RETURNDATASIZE PUSH0 REVERT JUMPDEST POP POP POP POP PUSH1 0x40 MLOAD RETURNDATASIZE PUSH1 0x1F NOT PUSH1 0x1F DUP3 ADD AND DUP3 ADD DUP1 PUSH1 0x40 MSTORE POP DUP2 ADD SWAP1 PUSH2 0x229E SWAP2 SWAP1 PUSH2 0x2F35 JUMP JUMPDEST PUSH1 0xF DUP1 SLOAD PUSH1 0x1 PUSH1 0x40 SHL PUSH1 0x1 PUSH1 0xC0 SHL SUB NOT AND PUSH1 0x1 PUSH1 0x80 SHL PUSH1 0x1 PUSH1 0x1 PUSH1 0x40 SHL SUB SWAP4 DUP5 AND DUP2 MUL PUSH8 0xFFFFFFFFFFFFFFFF PUSH1 0x40 SHL NOT AND SWAP2 SWAP1 SWAP2 OR PUSH1 0x1 PUSH1 0x40 SHL SWAP5 DUP5 AND DUP6 MUL OR SWAP2 DUP3 SWAP1 SSTORE PUSH1 0x10 DUP1 SLOAD SWAP2 DUP4 DIV DUP5 AND PUSH8 0xFFFFFFFFFFFFFFFF NOT SWAP1 SWAP3 AND SWAP2 SWAP1 SWAP2 OR SWAP1 SSTORE SWAP2 SWAP1 SWAP2 DIV AND SWAP3 SWAP2 POP POP JUMP JUMPDEST PUSH0 PUSH2 0x2314 DUP5 DUP5 PUSH2 0x191D JUMP JUMPDEST SWAP1 POP PUSH0 NOT DUP2 EQ PUSH2 0x235A JUMPI DUP2 DUP2 LT ISZERO PUSH2 0x234C JUMPI ORIGIN CALLER DUP6 DUP6 ADDRESS DUP6 DUP8 PUSH1 0x40 MLOAD PUSH3 0xB83D19 PUSH1 0xE2 SHL DUP2 MSTORE PUSH1 0x4 ADD PUSH2 0x884 SWAP8 SWAP7 SWAP6 SWAP5 SWAP4 SWAP3 SWAP2 SWAP1 PUSH2 0x30A7 JUMP JUMPDEST PUSH2 0x235A DUP5 DUP5 DUP5 DUP5 SUB PUSH0 PUSH2 0x246F JUMP JUMPDEST POP POP POP POP JUMP JUMPDEST PUSH2 0x18DB DUP4 DUP4 DUP4 PUSH2 0x24EF JUMP JUMPDEST PUSH1 0x1 PUSH1 0x1 PUSH1 0xA0 SHL SUB DUP3 AND PUSH0 DUP2 DUP2 MSTORE PUSH1 0x20 DUP2 SWAP1 MSTORE PUSH1 0x40 DUP1 DUP3 KECCAK256 DUP1 SLOAD PUSH1 0xFF NOT AND DUP6 ISZERO ISZERO SWAP1 DUP2 OR SWAP1 SWAP2 SSTORE SWAP1 MLOAD SWAP1 SWAP3 SWAP2 PUSH32 0x6BFA7E860C3E9BF67B810CB88276B19B27C972812BAC04793D369B59A1183A83 SWAP2 LOG3 POP POP JUMP JUMPDEST PUSH1 0x40 MLOAD PUSH4 0x6C93852D PUSH1 0xE1 SHL DUP2 MSTORE PUSH2 0x21B1 SWAP1 PUSH1 0x1 PUSH1 0x1 PUSH1 0xA0 SHL SUB DUP5 AND SWAP1 PUSH4 0xD9270A5A SWAP1 PUSH2 0x23EE SWAP1 DUP6 SWAP1 PUSH1 0x4 ADD PUSH2 0x26A4 JUMP JUMPDEST PUSH1 0x20 PUSH1 0x40 MLOAD DUP1 DUP4 SUB DUP2 DUP7 GAS STATICCALL ISZERO DUP1 ISZERO PUSH2 0x2409 JUMPI RETURNDATASIZE PUSH0 PUSH0 RETURNDATACOPY RETURNDATASIZE PUSH0 REVERT JUMPDEST POP POP POP POP PUSH1 0x40 MLOAD RETURNDATASIZE PUSH1 0x1F NOT PUSH1 0x1F DUP3 ADD AND DUP3 ADD DUP1 PUSH1 0x40 MSTORE POP DUP2 ADD SWAP1 PUSH2 0x4A9 SWAP2 SWAP1 PUSH2 0x2F79 JUMP JUMPDEST PUSH2 0x2439 PUSH1 0x12 PUSH1 0xA PUSH2 0x2C03 JUMP JUMPDEST PUSH1 0x7 SLOAD PUSH2 0x2446 SWAP2 SWAP1 PUSH2 0x2C11 JUMP JUMPDEST PUSH1 0x3 SLOAD LT ISZERO PUSH2 0x1D75 JUMPI PUSH2 0x1D75 ADDRESS PUSH2 0x245F PUSH1 0x12 PUSH1 0xA PUSH2 0x2C03 JUMP JUMPDEST PUSH2 0x246A SWAP1 PUSH1 0x1 PUSH2 0x2C11 JUMP JUMPDEST PUSH2 0x260A JUMP JUMPDEST PUSH1 0x1 PUSH1 0x1 PUSH1 0xA0 SHL SUB DUP1 DUP6 AND PUSH0 SWAP1 DUP2 MSTORE PUSH1 0x2 PUSH1 0x20 SWAP1 DUP2 MSTORE PUSH1 0x40 DUP1 DUP4 KECCAK256 SWAP4 DUP8 AND DUP4 MSTORE SWAP3 SWAP1 MSTORE KECCAK256 DUP3 SWAP1 SSTORE DUP1 ISZERO PUSH2 0x235A JUMPI DUP3 PUSH1 0x1 PUSH1 0x1 PUSH1 0xA0 SHL SUB AND DUP5 PUSH1 0x1 PUSH1 0x1 PUSH1 0xA0 SHL SUB AND PUSH32 0x8C5BE1E5EBEC7D5BD14F71427D1E84F3DD0314C0F7B2291E5B200AC8C7C3B925 DUP5 PUSH1 0x40 MLOAD PUSH2 0x24E1 SWAP2 DUP2 MSTORE PUSH1 0x20 ADD SWAP1 JUMP JUMPDEST PUSH1 0x40 MLOAD DUP1 SWAP2 SUB SWAP1 LOG3 POP POP POP POP JUMP JUMPDEST PUSH1 0x1 PUSH1 0x1 PUSH1 0xA0 SHL SUB DUP4 AND PUSH2 0x2519 JUMPI DUP1 PUSH1 0x3 PUSH0 DUP3 DUP3 SLOAD PUSH2 0x250E SWAP2 SWAP1 PUSH2 0x30EA JUMP JUMPDEST SWAP1 SWAP2 SSTORE POP PUSH2 0x257E SWAP1 POP JUMP JUMPDEST PUSH1 0x1 PUSH1 0x1 PUSH1 0xA0 SHL SUB DUP4 AND PUSH0 SWAP1 DUP2 MSTORE PUSH1 0x1 PUSH1 0x20 MSTORE PUSH1 0x40 SWAP1 KECCAK256 SLOAD DUP2 DUP2 LT ISZERO PUSH2 0x2560 JUMPI ORIGIN CALLER DUP6 DUP6 ADDRESS DUP6 DUP8 PUSH1 0x40 MLOAD PUSH4 0xF7D0BBD PUSH1 0xE2 SHL DUP2 MSTORE PUSH1 0x4 ADD PUSH2 0x884 SWAP8 SWAP7 SWAP6 SWAP5 SWAP4 SWAP3 SWAP2 SWAP1 PUSH2 0x30A7 JUMP JUMPDEST PUSH1 0x1 PUSH1 0x1 PUSH1 0xA0 SHL SUB DUP5 AND PUSH0 SWAP1 DUP2 MSTORE PUSH1 0x1 PUSH1 0x20 MSTORE PUSH1 0x40 SWAP1 KECCAK256 SWAP1 DUP3 SWAP1 SUB SWAP1 SSTORE JUMPDEST PUSH1 0x1 PUSH1 0x1 PUSH1 0xA0 SHL SUB DUP3 AND PUSH2 0x259A JUMPI PUSH1 0x3 DUP1 SLOAD DUP3 SWAP1 SUB SWAP1 SSTORE PUSH2 0x25B8 JUMP JUMPDEST PUSH1 0x1 PUSH1 0x1 PUSH1 0xA0 SHL SUB DUP3 AND PUSH0 SWAP1 DUP2 MSTORE PUSH1 0x1 PUSH1 0x20 MSTORE PUSH1 0x40 SWAP1 KECCAK256 DUP1 SLOAD DUP3 ADD SWAP1 SSTORE JUMPDEST DUP2 PUSH1 0x1 PUSH1 0x1 PUSH1 0xA0 SHL SUB AND DUP4 PUSH1 0x1 PUSH1 0x1 PUSH1 0xA0 SHL SUB AND PUSH32 0xDDF252AD1BE2C89B69C2B068FC378DAA952BA7F163C4A11628F55A4DF523B3EF DUP4 PUSH1 0x40 MLOAD PUSH2 0x25FD SWAP2 DUP2 MSTORE PUSH1 0x20 ADD SWAP1 JUMP JUMPDEST PUSH1 0x40 MLOAD DUP1 SWAP2 SUB SWAP1 LOG3 POP POP POP JUMP JUMPDEST PUSH2 0x21B1 PUSH0 DUP4 DUP4 PUSH2 0x24EF JUMP JUMPDEST PUSH1 0x40 DUP1 MLOAD PUSH1 0x80 DUP1 DUP3 ADD DUP4 MSTORE PUSH0 DUP1 DUP4 MSTORE DUP4 MLOAD PUSH2 0x100 DUP2 ADD DUP6 MSTORE DUP2 DUP2 MSTORE PUSH1 0x20 DUP2 DUP2 ADD DUP4 SWAP1 MSTORE SWAP5 DUP2 ADD DUP3 SWAP1 MSTORE PUSH1 0x60 DUP2 ADD DUP3 SWAP1 MSTORE SWAP2 DUP3 ADD DUP2 SWAP1 MSTORE PUSH1 0xA0 DUP3 ADD DUP2 SWAP1 MSTORE PUSH1 0xC0 DUP3 ADD DUP2 SWAP1 MSTORE PUSH1 0xE0 DUP3 ADD MSTORE SWAP1 SWAP2 DUP3 ADD SWAP1 DUP2 MSTORE PUSH1 0x60 PUSH1 0x20 DUP3 ADD MSTORE PUSH0 PUSH1 0x40 SWAP1 SWAP2 ADD MSTORE SWAP1 JUMP JUMPDEST PUSH0 DUP2 MLOAD DUP1 DUP5 MSTORE DUP1 PUSH1 0x20 DUP5 ADD PUSH1 0x20 DUP7 ADD MCOPY PUSH0 PUSH1 0x20 DUP3 DUP7 ADD ADD MSTORE PUSH1 0x20 PUSH1 0x1F NOT PUSH1 0x1F DUP4 ADD AND DUP6 ADD ADD SWAP2 POP POP SWAP3 SWAP2 POP POP JUMP JUMPDEST PUSH1 0x20 DUP2 MSTORE PUSH0 PUSH2 0x26B6 PUSH1 0x20 DUP4 ADD DUP5 PUSH2 0x2676 JUMP JUMPDEST SWAP4 SWAP3 POP POP POP JUMP JUMPDEST PUSH0 PUSH1 0x20 DUP3 DUP5 SUB SLT ISZERO PUSH2 0x26CD JUMPI PUSH0 PUSH0 REVERT JUMPDEST POP CALLDATALOAD SWAP2 SWAP1 POP JUMP JUMPDEST PUSH1 0x1 PUSH1 0x1 PUSH1 0xA0 SHL SUB DUP2 AND DUP2 EQ PUSH2 0x1264 JUMPI PUSH0 PUSH0 REVERT JUMPDEST PUSH0 PUSH0 PUSH1 0x40 DUP4 DUP6 SUB SLT ISZERO PUSH2 0x26F9 JUMPI PUSH0 PUSH0 REVERT JUMPDEST DUP3 CALLDATALOAD PUSH2 0x2704 DUP2 PUSH2 0x26D4 JUMP JUMPDEST SWAP5 PUSH1 0x20 SWAP4 SWAP1 SWAP4 ADD CALLDATALOAD SWAP4 POP POP POP JUMP JUMPDEST PUSH0 PUSH1 0x20 DUP3 DUP5 SUB SLT ISZERO PUSH2 0x2722 JUMPI PUSH0 PUSH0 REVERT JUMPDEST DUP2 CALLDATALOAD PUSH2 0x26B6 DUP2 PUSH2 0x26D4 JUMP JUMPDEST PUSH1 0x20 DUP2 MSTORE PUSH1 0x1 PUSH1 0x1 PUSH1 0x40 SHL SUB DUP3 MLOAD AND PUSH1 0x20 DUP3 ADD MSTORE PUSH0 PUSH1 0x20 DUP4 ADD MLOAD PUSH1 0x1 DUP1 PUSH1 0xA0 SHL SUB DUP2 MLOAD AND PUSH1 0x40 DUP5 ADD MSTORE PUSH1 0x1 DUP1 PUSH1 0xA0 SHL SUB PUSH1 0x20 DUP3 ADD MLOAD AND PUSH1 0x60 DUP5 ADD MSTORE PUSH1 0x1 PUSH1 0x1 PUSH1 0x40 SHL SUB PUSH1 0x40 DUP3 ADD MLOAD AND PUSH1 0x80 DUP5 ADD MSTORE PUSH1 0x60 DUP2 ADD MLOAD PUSH2 0x2795 PUSH1 0xA0 DUP6 ADD DUP3 PUSH1 0x1 PUSH1 0x1 PUSH1 0x40 SHL SUB AND SWAP1 MSTORE JUMP JUMPDEST POP PUSH1 0x80 DUP2 ADD MLOAD PUSH1 0x1 PUSH1 0x1 PUSH1 0xA0 SHL SUB DUP2 AND PUSH1 0xC0 DUP6 ADD MSTORE POP PUSH1 0xA0 DUP2 ADD MLOAD PUSH1 0x1 PUSH1 0x1 PUSH1 0x40 SHL SUB DUP2 AND PUSH1 0xE0 DUP6 ADD MSTORE POP PUSH1 0xC0 DUP2 ADD MLOAD PUSH1 0x1 PUSH1 0x1 PUSH1 0x40 SHL SUB DUP2 AND PUSH2 0x100 DUP6 ADD MSTORE POP PUSH1 0xE0 ADD MLOAD PUSH1 0x1 PUSH1 0x1 PUSH1 0x40 SHL SUB DUP2 AND PUSH2 0x120 DUP5 ADD MSTORE POP PUSH1 0x40 DUP4 ADD MLOAD PUSH2 0x160 PUSH2 0x140 DUP5 ADD MSTORE PUSH2 0x2807 PUSH2 0x180 DUP5 ADD DUP3 PUSH2 0x2676 JUMP JUMPDEST SWAP1 POP PUSH1 0x60 DUP5 ADD MLOAD PUSH2 0x2824 PUSH2 0x160 DUP6 ADD DUP3 PUSH1 0x1 PUSH1 0x1 PUSH1 0x40 SHL SUB AND SWAP1 MSTORE JUMP JUMPDEST POP SWAP4 SWAP3 POP POP POP JUMP JUMPDEST PUSH0 PUSH0 PUSH0 PUSH1 0x60 DUP5 DUP7 SUB SLT ISZERO PUSH2 0x283E JUMPI PUSH0 PUSH0 REVERT JUMPDEST DUP4 CALLDATALOAD PUSH2 0x2849 DUP2 PUSH2 0x26D4 JUMP JUMPDEST SWAP3 POP PUSH1 0x20 DUP5 ADD CALLDATALOAD PUSH2 0x2859 DUP2 PUSH2 0x26D4 JUMP JUMPDEST SWAP3 SWAP6 SWAP3 SWAP5 POP POP POP PUSH1 0x40 SWAP2 SWAP1 SWAP2 ADD CALLDATALOAD SWAP1 JUMP JUMPDEST PUSH1 0x1 PUSH1 0x1 PUSH1 0x40 SHL SUB DUP2 AND DUP2 EQ PUSH2 0x1264 JUMPI PUSH0 PUSH0 REVERT JUMPDEST PUSH0 PUSH1 0x20 DUP3 DUP5 SUB SLT ISZERO PUSH2 0x288E JUMPI PUSH0 PUSH0 REVERT JUMPDEST DUP2 CALLDATALOAD PUSH2 0x26B6 DUP2 PUSH2 0x286A JUMP JUMPDEST PUSH1 0x1 PUSH1 0x1 PUSH1 0xA0 SHL SUB SWAP2 SWAP1 SWAP2 AND DUP2 MSTORE PUSH1 0x20 ADD SWAP1 JUMP JUMPDEST PUSH4 0x4E487B71 PUSH1 0xE0 SHL PUSH0 MSTORE PUSH1 0x41 PUSH1 0x4 MSTORE PUSH1 0x24 PUSH0 REVERT JUMPDEST PUSH1 0x40 MLOAD PUSH2 0x100 DUP2 ADD PUSH1 0x1 PUSH1 0x1 PUSH1 0x40 SHL SUB DUP2 GT DUP3 DUP3 LT OR ISZERO PUSH2 0x28E4 JUMPI PUSH2 0x28E4 PUSH2 0x28AD JUMP JUMPDEST PUSH1 0x40 MSTORE SWAP1 JUMP JUMPDEST PUSH1 0x40 MLOAD PUSH1 0x1F DUP3 ADD PUSH1 0x1F NOT AND DUP2 ADD PUSH1 0x1 PUSH1 0x1 PUSH1 0x40 SHL SUB DUP2 GT DUP3 DUP3 LT OR ISZERO PUSH2 0x2912 JUMPI PUSH2 0x2912 PUSH2 0x28AD JUMP JUMPDEST PUSH1 0x40 MSTORE SWAP2 SWAP1 POP JUMP JUMPDEST PUSH0 PUSH1 0x1 PUSH1 0x1 PUSH1 0x40 SHL SUB DUP3 GT ISZERO PUSH2 0x2932 JUMPI PUSH2 0x2932 PUSH2 0x28AD JUMP JUMPDEST POP PUSH1 0x1F ADD PUSH1 0x1F NOT AND PUSH1 0x20 ADD SWAP1 JUMP JUMPDEST PUSH0 DUP3 PUSH1 0x1F DUP4 ADD SLT PUSH2 0x294F JUMPI PUSH0 PUSH0 REVERT JUMPDEST DUP2 CALLDATALOAD PUSH2 0x2962 PUSH2 0x295D DUP3 PUSH2 0x291A JUMP JUMPDEST PUSH2 0x28EA JUMP JUMPDEST DUP2 DUP2 MSTORE DUP5 PUSH1 0x20 DUP4 DUP7 ADD ADD GT ISZERO PUSH2 0x2976 JUMPI PUSH0 PUSH0 REVERT JUMPDEST DUP2 PUSH1 0x20 DUP6 ADD PUSH1 0x20 DUP4 ADD CALLDATACOPY PUSH0 SWAP2 DUP2 ADD PUSH1 0x20 ADD SWAP2 SWAP1 SWAP2 MSTORE SWAP4 SWAP3 POP POP POP JUMP JUMPDEST PUSH0 PUSH1 0x20 DUP3 DUP5 SUB SLT ISZERO PUSH2 0x29A2 JUMPI PUSH0 PUSH0 REVERT JUMPDEST DUP2 CALLDATALOAD PUSH1 0x1 PUSH1 0x1 PUSH1 0x40 SHL SUB DUP2 GT ISZERO PUSH2 0x29B7 JUMPI PUSH0 PUSH0 REVERT JUMPDEST PUSH2 0x29C3 DUP5 DUP3 DUP6 ADD PUSH2 0x2940 JUMP JUMPDEST SWAP5 SWAP4 POP POP POP POP JUMP JUMPDEST PUSH0 PUSH0 PUSH1 0x40 DUP4 DUP6 SUB SLT ISZERO PUSH2 0x29DC JUMPI PUSH0 PUSH0 REVERT JUMPDEST DUP3 CALLDATALOAD PUSH1 0x1 PUSH1 0x1 PUSH1 0x40 SHL SUB DUP2 GT ISZERO PUSH2 0x29F1 JUMPI PUSH0 PUSH0 REVERT JUMPDEST PUSH2 0x29FD DUP6 DUP3 DUP7 ADD PUSH2 0x2940 JUMP JUMPDEST SWAP3 POP POP PUSH1 0x20 DUP4 ADD CALLDATALOAD PUSH2 0x2A0E DUP2 PUSH2 0x26D4 JUMP JUMPDEST DUP1 SWAP2 POP POP SWAP3 POP SWAP3 SWAP1 POP JUMP JUMPDEST PUSH0 PUSH0 PUSH1 0x40 DUP4 DUP6 SUB SLT ISZERO PUSH2 0x2A2A JUMPI PUSH0 PUSH0 REVERT JUMPDEST DUP3 CALLDATALOAD PUSH1 0x1 PUSH1 0x1 PUSH1 0x40 SHL SUB DUP2 GT ISZERO PUSH2 0x2A3F JUMPI PUSH0 PUSH0 REVERT JUMPDEST PUSH2 0x2A4B DUP6 DUP3 DUP7 ADD PUSH2 0x2940 JUMP JUMPDEST SWAP3 POP POP PUSH1 0x20 DUP4 ADD CALLDATALOAD PUSH1 0x1 PUSH1 0x1 PUSH1 0x40 SHL SUB DUP2 GT ISZERO PUSH2 0x2A66 JUMPI PUSH0 PUSH0 REVERT JUMPDEST PUSH2 0x2A72 DUP6 DUP3 DUP7 ADD PUSH2 0x2940 JUMP JUMPDEST SWAP2 POP POP SWAP3 POP SWAP3 SWAP1 POP JUMP JUMPDEST PUSH0 PUSH0 PUSH1 0x40 DUP4 DUP6 SUB SLT ISZERO PUSH2 0x2A8D JUMPI PUSH0 PUSH0 REVERT JUMPDEST DUP3 CALLDATALOAD PUSH2 0x2A98 DUP2 PUSH2 0x26D4 JUMP JUMPDEST SWAP2 POP PUSH1 0x20 DUP4 ADD CALLDATALOAD PUSH2 0x2A0E DUP2 PUSH2 0x26D4 JUMP JUMPDEST PUSH0 PUSH0 PUSH1 0x40 DUP4 DUP6 SUB SLT ISZERO PUSH2 0x2AB9 JUMPI PUSH0 PUSH0 REVERT JUMPDEST DUP3 CALLDATALOAD PUSH2 0x2AC4 DUP2 PUSH2 0x286A JUMP JUMPDEST SWAP2 POP PUSH1 0x20 DUP4 ADD CALLDATALOAD PUSH2 0x2A0E DUP2 PUSH2 0x286A JUMP JUMPDEST PUSH1 0x1 DUP2 DUP2 SHR SWAP1 DUP3 AND DUP1 PUSH2 0x2AE8 JUMPI PUSH1 0x7F DUP3 AND SWAP2 POP JUMPDEST PUSH1 0x20 DUP3 LT DUP2 SUB PUSH2 0x2B06 JUMPI PUSH4 0x4E487B71 PUSH1 0xE0 SHL PUSH0 MSTORE PUSH1 0x22 PUSH1 0x4 MSTORE PUSH1 0x24 PUSH0 REVERT JUMPDEST POP SWAP2 SWAP1 POP JUMP JUMPDEST PUSH4 0x4E487B71 PUSH1 0xE0 SHL PUSH0 MSTORE PUSH1 0x11 PUSH1 0x4 MSTORE PUSH1 0x24 PUSH0 REVERT JUMPDEST PUSH1 0x1 DUP2 JUMPDEST PUSH1 0x1 DUP5 GT ISZERO PUSH2 0x2B5B JUMPI DUP1 DUP6 DIV DUP2 GT ISZERO PUSH2 0x2B3F JUMPI PUSH2 0x2B3F PUSH2 0x2B0C JUMP JUMPDEST PUSH1 0x1 DUP5 AND ISZERO PUSH2 0x2B4D JUMPI SWAP1 DUP2 MUL SWAP1 JUMPDEST PUSH1 0x1 SWAP4 SWAP1 SWAP4 SHR SWAP3 DUP1 MUL PUSH2 0x2B24 JUMP JUMPDEST SWAP4 POP SWAP4 SWAP2 POP POP JUMP JUMPDEST PUSH0 DUP3 PUSH2 0x2B71 JUMPI POP PUSH1 0x1 PUSH2 0x82C JUMP JUMPDEST DUP2 PUSH2 0x2B7D JUMPI POP PUSH0 PUSH2 0x82C JUMP JUMPDEST DUP2 PUSH1 0x1 DUP2 EQ PUSH2 0x2B93 JUMPI PUSH1 0x2 DUP2 EQ PUSH2 0x2B9D JUMPI PUSH2 0x2BB9 JUMP JUMPDEST PUSH1 0x1 SWAP2 POP POP PUSH2 0x82C JUMP JUMPDEST PUSH1 0xFF DUP5 GT ISZERO PUSH2 0x2BAE JUMPI PUSH2 0x2BAE PUSH2 0x2B0C JUMP JUMPDEST POP POP PUSH1 0x1 DUP3 SHL PUSH2 0x82C JUMP JUMPDEST POP PUSH1 0x20 DUP4 LT PUSH2 0x133 DUP4 LT AND PUSH1 0x4E DUP5 LT PUSH1 0xB DUP5 LT AND OR ISZERO PUSH2 0x2BDC JUMPI POP DUP2 DUP2 EXP PUSH2 0x82C JUMP JUMPDEST PUSH2 0x2BE8 PUSH0 NOT DUP5 DUP5 PUSH2 0x2B20 JUMP JUMPDEST DUP1 PUSH0 NOT DIV DUP3 GT ISZERO PUSH2 0x2BFB JUMPI PUSH2 0x2BFB PUSH2 0x2B0C JUMP JUMPDEST MUL SWAP4 SWAP3 POP POP POP JUMP JUMPDEST PUSH0 PUSH2 0x26B6 PUSH1 0xFF DUP5 AND DUP4 PUSH2 0x2B63 JUMP JUMPDEST DUP1 DUP3 MUL DUP2 ISZERO DUP3 DUP3 DIV DUP5 EQ OR PUSH2 0x82C JUMPI PUSH2 0x82C PUSH2 0x2B0C JUMP JUMPDEST PUSH0 DUP3 PUSH2 0x2C42 JUMPI PUSH4 0x4E487B71 PUSH1 0xE0 SHL PUSH0 MSTORE PUSH1 0x12 PUSH1 0x4 MSTORE PUSH1 0x24 PUSH0 REVERT JUMPDEST POP DIV SWAP1 JUMP JUMPDEST PUSH1 0x1 PUSH1 0x1 PUSH1 0xA0 SHL SUB SWAP4 DUP5 AND DUP2 MSTORE SWAP2 SWAP1 SWAP3 AND PUSH1 0x20 DUP3 ADD MSTORE PUSH1 0x40 DUP2 ADD SWAP2 SWAP1 SWAP2 MSTORE PUSH1 0x60 ADD SWAP1 JUMP JUMPDEST PUSH0 PUSH1 0x20 DUP3 DUP5 SUB SLT ISZERO PUSH2 0x2C7B JUMPI PUSH0 PUSH0 REVERT JUMPDEST DUP2 MLOAD DUP1 ISZERO ISZERO DUP2 EQ PUSH2 0x26B6 JUMPI PUSH0 PUSH0 REVERT JUMPDEST PUSH0 PUSH1 0x20 DUP3 DUP5 SUB SLT ISZERO PUSH2 0x2C9A JUMPI PUSH0 PUSH0 REVERT JUMPDEST DUP2 MLOAD PUSH1 0x1 PUSH1 0x1 PUSH1 0x40 SHL SUB DUP2 GT ISZERO PUSH2 0x2CAF JUMPI PUSH0 PUSH0 REVERT JUMPDEST DUP3 ADD PUSH1 0x1F DUP2 ADD DUP5 SGT PUSH2 0x2CBF JUMPI PUSH0 PUSH0 REVERT JUMPDEST DUP1 MLOAD PUSH2 0x2CCD PUSH2 0x295D DUP3 PUSH2 0x291A JUMP JUMPDEST DUP2 DUP2 MSTORE DUP6 PUSH1 0x20 DUP4 DUP6 ADD ADD GT ISZERO PUSH2 0x2CE1 JUMPI PUSH0 PUSH0 REVERT JUMPDEST DUP2 PUSH1 0x20 DUP5 ADD PUSH1 0x20 DUP4 ADD MCOPY PUSH0 SWAP2 DUP2 ADD PUSH1 0x20 ADD SWAP2 SWAP1 SWAP2 MSTORE SWAP5 SWAP4 POP POP POP POP JUMP JUMPDEST PUSH0 DUP2 MLOAD DUP1 PUSH1 0x20 DUP5 ADD DUP6 MCOPY PUSH0 SWAP4 ADD SWAP3 DUP4 MSTORE POP SWAP1 SWAP2 SWAP1 POP JUMP JUMPDEST PUSH14 0x2732B2B21020B8383937BB32B21 PUSH1 0x95 SHL DUP2 MSTORE PUSH0 PUSH2 0x26B6 PUSH1 0xE DUP4 ADD DUP5 PUSH2 0x2CFE JUMP JUMPDEST DUP1 MLOAD PUSH2 0xEA0 DUP2 PUSH2 0x286A JUMP JUMPDEST PUSH0 PUSH1 0x20 DUP3 DUP5 SUB SLT ISZERO PUSH2 0x2D52 JUMPI PUSH0 PUSH0 REVERT JUMPDEST DUP2 MLOAD PUSH2 0x26B6 DUP2 PUSH2 0x286A JUMP JUMPDEST DUP1 MLOAD PUSH2 0xEA0 DUP2 PUSH2 0x26D4 JUMP JUMPDEST PUSH0 PUSH2 0x100 DUP3 DUP5 SUB SLT DUP1 ISZERO PUSH2 0x2D7A JUMPI PUSH0 PUSH0 REVERT JUMPDEST POP PUSH2 0x2D83 PUSH2 0x28C1 JUMP JUMPDEST DUP3 MLOAD PUSH2 0x2D8E DUP2 PUSH2 0x26D4 JUMP JUMPDEST DUP2 MSTORE PUSH2 0x2D9C PUSH1 0x20 DUP5 ADD PUSH2 0x2D5D JUMP JUMPDEST PUSH1 0x20 DUP3 ADD MSTORE PUSH2 0x2DAD PUSH1 0x40 DUP5 ADD PUSH2 0x2D37 JUMP JUMPDEST PUSH1 0x40 DUP3 ADD MSTORE PUSH2 0x2DBE PUSH1 0x60 DUP5 ADD PUSH2 0x2D37 JUMP JUMPDEST PUSH1 0x60 DUP3 ADD MSTORE PUSH2 0x2DCF PUSH1 0x80 DUP5 ADD PUSH2 0x2D5D JUMP JUMPDEST PUSH1 0x80 DUP3 ADD MSTORE PUSH2 0x2DE0 PUSH1 0xA0 DUP5 ADD PUSH2 0x2D37 JUMP JUMPDEST PUSH1 0xA0 DUP3 ADD MSTORE PUSH2 0x2DF1 PUSH1 0xC0 DUP5 ADD PUSH2 0x2D37 JUMP JUMPDEST PUSH1 0xC0 DUP3 ADD MSTORE PUSH2 0x2E02 PUSH1 0xE0 DUP5 ADD PUSH2 0x2D37 JUMP JUMPDEST PUSH1 0xE0 DUP3 ADD MSTORE SWAP4 SWAP3 POP POP POP JUMP JUMPDEST PUSH1 0x1F DUP3 GT ISZERO PUSH2 0x18DB JUMPI DUP1 PUSH0 MSTORE PUSH1 0x20 PUSH0 KECCAK256 PUSH1 0x1F DUP5 ADD PUSH1 0x5 SHR DUP2 ADD PUSH1 0x20 DUP6 LT ISZERO PUSH2 0x2E33 JUMPI POP DUP1 JUMPDEST PUSH1 0x1F DUP5 ADD PUSH1 0x5 SHR DUP3 ADD SWAP2 POP JUMPDEST DUP2 DUP2 LT ISZERO PUSH2 0x2E52 JUMPI PUSH0 DUP2 SSTORE PUSH1 0x1 ADD PUSH2 0x2E3F JUMP JUMPDEST POP POP POP POP POP JUMP JUMPDEST DUP2 MLOAD PUSH1 0x1 PUSH1 0x1 PUSH1 0x40 SHL SUB DUP2 GT ISZERO PUSH2 0x2E72 JUMPI PUSH2 0x2E72 PUSH2 0x28AD JUMP JUMPDEST PUSH2 0x2E86 DUP2 PUSH2 0x2E80 DUP5 SLOAD PUSH2 0x2AD4 JUMP JUMPDEST DUP5 PUSH2 0x2E0E JUMP JUMPDEST PUSH1 0x20 PUSH1 0x1F DUP3 GT PUSH1 0x1 DUP2 EQ PUSH2 0x2EB8 JUMPI PUSH0 DUP4 ISZERO PUSH2 0x2EA1 JUMPI POP DUP5 DUP3 ADD MLOAD JUMPDEST PUSH0 NOT PUSH1 0x3 DUP6 SWAP1 SHL SHR NOT AND PUSH1 0x1 DUP5 SWAP1 SHL OR DUP5 SSTORE PUSH2 0x2E52 JUMP JUMPDEST PUSH0 DUP5 DUP2 MSTORE PUSH1 0x20 DUP2 KECCAK256 PUSH1 0x1F NOT DUP6 AND SWAP2 JUMPDEST DUP3 DUP2 LT ISZERO PUSH2 0x2EE7 JUMPI DUP8 DUP6 ADD MLOAD DUP3 SSTORE PUSH1 0x20 SWAP5 DUP6 ADD SWAP5 PUSH1 0x1 SWAP1 SWAP3 ADD SWAP2 ADD PUSH2 0x2EC7 JUMP JUMPDEST POP DUP5 DUP3 LT ISZERO PUSH2 0x2F04 JUMPI DUP7 DUP5 ADD MLOAD PUSH0 NOT PUSH1 0x3 DUP8 SWAP1 SHL PUSH1 0xF8 AND SHR NOT AND DUP2 SSTORE JUMPDEST POP POP POP POP PUSH1 0x1 SWAP1 DUP2 SHL ADD SWAP1 SSTORE POP JUMP JUMPDEST PUSH1 0x1 PUSH1 0x1 PUSH1 0xA0 SHL SUB SWAP3 SWAP1 SWAP3 AND DUP3 MSTORE PUSH1 0x1 PUSH1 0x1 PUSH1 0x40 SHL SUB AND PUSH1 0x20 DUP3 ADD MSTORE PUSH1 0x40 ADD SWAP1 JUMP JUMPDEST PUSH0 PUSH0 PUSH1 0x40 DUP4 DUP6 SUB SLT ISZERO PUSH2 0x2F46 JUMPI PUSH0 PUSH0 REVERT JUMPDEST DUP3 MLOAD PUSH2 0x2F51 DUP2 PUSH2 0x286A JUMP JUMPDEST PUSH1 0x20 DUP5 ADD MLOAD SWAP1 SWAP3 POP PUSH2 0x2A0E DUP2 PUSH2 0x286A JUMP JUMPDEST PUSH0 PUSH1 0x20 DUP3 DUP5 SUB SLT ISZERO PUSH2 0x2F72 JUMPI PUSH0 PUSH0 REVERT JUMPDEST POP MLOAD SWAP2 SWAP1 POP JUMP JUMPDEST PUSH0 PUSH1 0x20 DUP3 DUP5 SUB SLT ISZERO PUSH2 0x2F89 JUMPI PUSH0 PUSH0 REVERT JUMPDEST DUP2 MLOAD PUSH2 0x26B6 DUP2 PUSH2 0x26D4 JUMP JUMPDEST PUSH1 0x1 PUSH1 0x1 PUSH1 0xA0 SHL SUB SWAP4 DUP5 AND DUP2 MSTORE SWAP2 DUP4 AND PUSH1 0x20 DUP4 ADD MSTORE SWAP1 SWAP2 AND PUSH1 0x40 DUP3 ADD MSTORE PUSH1 0x60 ADD SWAP1 JUMP JUMPDEST PUSH0 PUSH2 0x26B6 DUP3 DUP5 PUSH2 0x2CFE JUMP JUMPDEST PUSH1 0x1 PUSH1 0x1 PUSH1 0xA0 SHL SUB DUP4 AND DUP2 MSTORE PUSH1 0x40 PUSH1 0x20 DUP3 ADD DUP2 SWAP1 MSTORE PUSH0 SWAP1 PUSH2 0x29C3 SWAP1 DUP4 ADD DUP5 PUSH2 0x2676 JUMP JUMPDEST DUP4 SLOAD PUSH1 0x1 PUSH1 0x1 PUSH1 0xA0 SHL SUB AND DUP2 MSTORE PUSH2 0x140 DUP2 ADD PUSH1 0x1 DUP6 ADD SLOAD PUSH1 0x1 PUSH1 0x1 PUSH1 0xA0 SHL SUB DUP2 AND PUSH1 0x20 DUP5 ADD MSTORE PUSH1 0xA0 DUP2 SWAP1 SHR PUSH1 0x1 PUSH1 0x1 PUSH1 0x40 SHL SUB AND PUSH1 0x40 DUP5 ADD MSTORE POP PUSH1 0x2 DUP6 ADD SLOAD PUSH1 0x1 PUSH1 0x1 PUSH1 0x40 SHL SUB DUP2 AND PUSH1 0x60 DUP5 ADD MSTORE PUSH1 0x1 PUSH1 0x1 PUSH1 0xA0 SHL SUB PUSH1 0x40 DUP3 SWAP1 SHR AND PUSH1 0x80 DUP5 ADD MSTORE POP PUSH1 0x3 DUP6 ADD SLOAD PUSH1 0x1 PUSH1 0x1 PUSH1 0x40 SHL SUB DUP2 AND PUSH1 0xA0 DUP5 ADD MSTORE PUSH1 0x40 DUP2 SWAP1 SHR PUSH1 0x1 PUSH1 0x1 PUSH1 0x40 SHL SUB AND PUSH1 0xC0 DUP5 ADD MSTORE PUSH1 0x80 DUP2 SWAP1 SHR PUSH1 0x1 PUSH1 0x1 PUSH1 0x40 SHL SUB AND PUSH1 0xE0 DUP5 ADD MSTORE POP PUSH1 0x1 PUSH1 0x1 PUSH1 0x40 SHL SUB DUP5 AND PUSH2 0x100 DUP4 ADD MSTORE PUSH1 0x1 PUSH1 0x1 PUSH1 0x40 SHL SUB DUP4 AND PUSH2 0x120 DUP4 ADD MSTORE PUSH2 0x29C3 JUMP JUMPDEST PUSH1 0x1 PUSH1 0x1 PUSH1 0xA0 SHL SUB SWAP8 DUP9 AND DUP2 MSTORE SWAP6 DUP8 AND PUSH1 0x20 DUP8 ADD MSTORE SWAP4 DUP7 AND PUSH1 0x40 DUP7 ADD MSTORE SWAP2 DUP6 AND PUSH1 0x60 DUP6 ADD MSTORE SWAP1 SWAP4 AND PUSH1 0x80 DUP4 ADD MSTORE PUSH1 0xA0 DUP3 ADD SWAP3 SWAP1 SWAP3 MSTORE PUSH1 0xC0 DUP2 ADD SWAP2 SWAP1 SWAP2 MSTORE PUSH1 0xE0 ADD SWAP1 JUMP JUMPDEST DUP1 DUP3 ADD DUP1 DUP3 GT ISZERO PUSH2 0x82C JUMPI PUSH2 0x82C PUSH2 0x2B0C JUMP INVALID LOG2 PUSH5 0x6970667358 0x22 SLT KECCAK256 XOR PUSH5 0xC531448B2D 0xD3 DUP12 DUP14 MOD 0x4F SWAP13 CODECOPY CALL PUSH0 SWAP12 LOG4 0xC5 PUSH23 0x4BBC2CDCD7EE9F58DC27878864736F6C634300081B0033 "
		},
		"gasEstimates": {
			"creation": {
				"codeDepositCost": "2519000",
				"executionCost": "infinite",
				"totalCost": "infinite"
			},
			"external": {
				"AddLibraryOwner(string)": "infinite",
				"AddSystemAddress(string,address)": "infinite",
				"Addresses(string)": "infinite",
				"Aliases(uint256)": "infinite",
				"CYUN()": "infinite",
				"Enter(address)": "infinite",
				"Entropy()": "2448",
				"GetAddressBySoul(uint64)": "infinite",
				"GetMarketRate(address)": "2640",
				"GetUser()": "infinite",
				"GetUserByAddress(address)": "infinite",
				"GetUserBySoul(uint64)": "infinite",
				"GetUserSoul()": "4777",
				"GetUserTokenAddress(address)": "2632",
				"Luo()": "infinite",
				"MotzkinPrime()": "260",
				"Omega()": "2481",
				"Omicron()": "2393",
				"On()": "9076",
				"Prime()": "2361",
				"Purchase(address,uint256)": "infinite",
				"Qu(uint256)": "2609",
				"React(uint64)": "infinite",
				"ReactUser(uint64,uint64)": "infinite",
				"Reactor()": "infinite",
				"Redeem(address,uint256)": "infinite",
				"Rename(string,string)": "infinite",
				"Saat(uint256)": "4184",
				"Shio()": "2526",
				"Type()": "infinite",
				"VerifyUserTokenPermissions(address)": "infinite",
				"Void()": "2470",
				"Xiao()": "2471",
				"addOwner(address)": "infinite",
				"allowance(address,address)": "infinite",
				"approve(address,uint256)": "24726",
				"balanceOf(address)": "2683",
				"decimals()": "310",
				"maxSupply()": "2383",
				"mintToCap()": "infinite",
				"name()": "infinite",
				"owner()": "347",
				"owner(address)": "2644",
				"renounceOwnership(address)": "infinite",
				"symbol()": "infinite",
				"totalSupply()": "2393",
				"transfer(address,uint256)": "51241",
				"transferFrom(address,address,uint256)": "infinite"
			},
			"internal": {
				"Recall(struct User memory)": "infinite"
			}
		},
		"methodIdentifiers": {
			"AddLibraryOwner(string)": "7c2bcc81",
			"AddSystemAddress(string,address)": "9377a2c3",
			"Addresses(string)": "ac5bd44f",
			"Aliases(uint256)": "1ca30a2f",
			"CYUN()": "47122623",
			"Enter(address)": "37a2e752",
			"Entropy()": "40c48dfa",
			"GetAddressBySoul(uint64)": "60844f9d",
			"GetMarketRate(address)": "2b83b1fc",
			"GetUser()": "5ee0f654",
			"GetUserByAddress(address)": "1892fd78",
			"GetUserBySoul(uint64)": "37820e7a",
			"GetUserSoul()": "e1ed6e72",
			"GetUserTokenAddress(address)": "e80c28bf",
			"Luo()": "4431fbc4",
			"MotzkinPrime()": "d3dc2a0f",
			"Omega()": "911b9c4d",
			"Omicron()": "730e02e8",
			"On()": "85bcb519",
			"Prime()": "d42770fc",
			"Purchase(address,uint256)": "2499a533",
			"Qu(uint256)": "dc8849d0",
			"React(uint64)": "3b8052c9",
			"ReactUser(uint64,uint64)": "eedf25f0",
			"Reactor()": "929c6ca9",
			"Redeem(address,uint256)": "222838db",
			"Rename(string,string)": "9dcbf7ea",
			"Saat(uint256)": "088aee78",
			"Shio()": "c0ff5328",
			"Type()": "ff762044",
			"VerifyUserTokenPermissions(address)": "fcef603d",
			"Void()": "f4f6c22c",
			"Xiao()": "6fb7329c",
			"addOwner(address)": "7065cb48",
			"allowance(address,address)": "dd62ed3e",
			"approve(address,uint256)": "095ea7b3",
			"balanceOf(address)": "70a08231",
			"decimals()": "313ce567",
			"maxSupply()": "d5abeb01",
			"mintToCap()": "f4e6c93f",
			"name()": "06fdde03",
			"owner()": "8da5cb5b",
			"owner(address)": "666e1b39",
			"renounceOwnership(address)": "38bf3cfa",
			"symbol()": "95d89b41",
			"totalSupply()": "18160ddd",
			"transfer(address,uint256)": "a9059cbb",
			"transferFrom(address,address,uint256)": "23b872dd"
		}
	},
	"abi": [
		{
			"inputs": [
				{
					"internalType": "address",
					"name": "VoidAddress",
					"type": "address"
				}
			],
			"stateMutability": "nonpayable",
			"type": "constructor"
		},
		{
			"inputs": [
				{
					"internalType": "address",
					"name": "origin",
					"type": "address"
				},
				{
					"internalType": "address",
					"name": "sender",
					"type": "address"
				},
				{
					"internalType": "address",
					"name": "owner",
					"type": "address"
				},
				{
					"internalType": "address",
					"name": "spender",
					"type": "address"
				},
				{
					"internalType": "address",
					"name": "what",
					"type": "address"
				},
				{
					"internalType": "uint256",
					"name": "allowance",
					"type": "uint256"
				},
				{
					"internalType": "uint256",
					"name": "needed",
					"type": "uint256"
				}
			],
			"name": "DysnomiaInsufficientAllowance",
			"type": "error"
		},
		{
			"inputs": [
				{
					"internalType": "address",
					"name": "origin",
					"type": "address"
				},
				{
					"internalType": "address",
					"name": "sender",
					"type": "address"
				},
				{
					"internalType": "address",
					"name": "from",
					"type": "address"
				},
				{
					"internalType": "address",
					"name": "to",
					"type": "address"
				},
				{
					"internalType": "address",
					"name": "what",
					"type": "address"
				},
				{
					"internalType": "uint256",
					"name": "balance",
					"type": "uint256"
				},
				{
					"internalType": "uint256",
					"name": "needed",
					"type": "uint256"
				}
			],
			"name": "DysnomiaInsufficientBalance",
			"type": "error"
		},
		{
			"inputs": [
				{
					"internalType": "address",
					"name": "UserToken",
					"type": "address"
				},
				{
					"internalType": "address",
					"name": "User",
					"type": "address"
				}
			],
			"name": "InvalidOwnership",
			"type": "error"
		},
		{
			"inputs": [],
			"name": "InvalidUser",
			"type": "error"
		},
		{
			"inputs": [
				{
					"internalType": "address",
					"name": "Asset",
					"type": "address"
				}
			],
			"name": "InvalidUserToken",
			"type": "error"
		},
		{
			"inputs": [
				{
					"internalType": "address",
					"name": "asset",
					"type": "address"
				}
			],
			"name": "MarketRateNotFound",
			"type": "error"
		},
		{
			"inputs": [
				{
					"internalType": "address",
					"name": "origin",
					"type": "address"
				},
				{
					"internalType": "address",
					"name": "owner",
					"type": "address"
				},
				{
					"internalType": "address",
					"name": "what",
					"type": "address"
				}
			],
			"name": "OwnableInvalidOwner",
			"type": "error"
		},
		{
			"inputs": [
				{
					"internalType": "address",
					"name": "origin",
					"type": "address"
				},
				{
					"internalType": "address",
					"name": "account",
					"type": "address"
				},
				{
					"internalType": "address",
					"name": "what",
					"type": "address"
				}
			],
			"name": "OwnableUnauthorizedAccount",
			"type": "error"
		},
		{
			"inputs": [
				{
					"internalType": "uint64",
					"name": "Soul",
					"type": "uint64"
				}
			],
			"name": "SoulNotEntered",
			"type": "error"
		},
		{
			"inputs": [
				{
					"internalType": "address",
					"name": "Address",
					"type": "address"
				},
				{
					"internalType": "string",
					"name": "Alias",
					"type": "string"
				}
			],
			"name": "SystemAddress",
			"type": "error"
		},
		{
			"inputs": [
				{
					"internalType": "address",
					"name": "User",
					"type": "address"
				}
			],
			"name": "UserNotEntered",
			"type": "error"
		},
		{
			"anonymous": false,
			"inputs": [
				{
					"indexed": true,
					"internalType": "address",
					"name": "owner",
					"type": "address"
				},
				{
					"indexed": true,
					"internalType": "address",
					"name": "spender",
					"type": "address"
				},
				{
					"indexed": false,
					"internalType": "uint256",
					"name": "value",
					"type": "uint256"
				}
			],
			"name": "Approval",
			"type": "event"
		},
		{
			"anonymous": false,
			"inputs": [
				{
					"indexed": true,
					"internalType": "address",
					"name": "newOwner",
					"type": "address"
				},
				{
					"indexed": true,
					"internalType": "bool",
					"name": "state",
					"type": "bool"
				}
			],
			"name": "OwnershipUpdate",
			"type": "event"
		},
		{
			"anonymous": false,
			"inputs": [
				{
					"indexed": true,
					"internalType": "address",
					"name": "from",
					"type": "address"
				},
				{
					"indexed": true,
					"internalType": "address",
					"name": "to",
					"type": "address"
				},
				{
					"indexed": false,
					"internalType": "uint256",
					"name": "value",
					"type": "uint256"
				}
			],
			"name": "Transfer",
			"type": "event"
		},
		{
			"inputs": [
				{
					"internalType": "string",
					"name": "what",
					"type": "string"
				}
			],
			"name": "AddLibraryOwner",
			"outputs": [],
			"stateMutability": "nonpayable",
			"type": "function"
		},
		{
			"inputs": [
				{
					"internalType": "string",
					"name": "Alias",
					"type": "string"
				},
				{
					"internalType": "address",
					"name": "Address",
					"type": "address"
				}
			],
			"name": "AddSystemAddress",
			"outputs": [],
			"stateMutability": "nonpayable",
			"type": "function"
		},
		{
			"inputs": [
				{
					"internalType": "string",
					"name": "",
					"type": "string"
				}
			],
			"name": "Addresses",
			"outputs": [
				{
					"internalType": "address",
					"name": "",
					"type": "address"
				}
			],
			"stateMutability": "view",
			"type": "function"
		},
		{
			"inputs": [
				{
					"internalType": "uint256",
					"name": "",
					"type": "uint256"
				}
			],
			"name": "Aliases",
			"outputs": [
				{
					"internalType": "string",
					"name": "",
					"type": "string"
				}
			],
			"stateMutability": "view",
			"type": "function"
		},
		{
			"inputs": [],
			"name": "CYUN",
			"outputs": [
				{
					"internalType": "contract LIBSTRINGS",
					"name": "",
					"type": "address"
				}
			],
			"stateMutability": "view",
			"type": "function"
		},
		{
			"inputs": [
				{
					"internalType": "address",
					"name": "UserToken",
					"type": "address"
				}
			],
			"name": "Enter",
			"outputs": [
				{
					"components": [
						{
							"internalType": "uint64",
							"name": "Soul",
							"type": "uint64"
						},
						{
							"components": [
								{
									"internalType": "address",
									"name": "Phi",
									"type": "address"
								},
								{
									"internalType": "contract SHA",
									"name": "Mu",
									"type": "address"
								},
								{
									"internalType": "uint64",
									"name": "Xi",
									"type": "uint64"
								},
								{
									"internalType": "uint64",
									"name": "Pi",
									"type": "uint64"
								},
								{
									"internalType": "contract SHIO",
									"name": "Shio",
									"type": "address"
								},
								{
									"internalType": "uint64",
									"name": "Ring",
									"type": "uint64"
								},
								{
									"internalType": "uint64",
									"name": "Omicron",
									"type": "uint64"
								},
								{
									"internalType": "uint64",
									"name": "Omega",
									"type": "uint64"
								}
							],
							"internalType": "struct Bao",
							"name": "On",
							"type": "tuple"
						},
						{
							"internalType": "string",
							"name": "Username",
							"type": "string"
						},
						{
							"internalType": "uint64",
							"name": "Entropy",
							"type": "uint64"
						}
					],
					"internalType": "struct User",
					"name": "",
					"type": "tuple"
				}
			],
			"stateMutability": "nonpayable",
			"type": "function"
		},
		{
			"inputs": [],
			"name": "Entropy",
			"outputs": [
				{
					"internalType": "uint64",
					"name": "",
					"type": "uint64"
				}
			],
			"stateMutability": "view",
			"type": "function"
		},
		{
			"inputs": [
				{
					"internalType": "uint64",
					"name": "soul",
					"type": "uint64"
				}
			],
			"name": "GetAddressBySoul",
			"outputs": [
				{
					"internalType": "address",
					"name": "UserAddress",
					"type": "address"
				}
			],
			"stateMutability": "view",
			"type": "function"
		},
		{
			"inputs": [
				{
					"internalType": "address",
					"name": "_a",
					"type": "address"
				}
			],
			"name": "GetMarketRate",
			"outputs": [
				{
					"internalType": "uint256",
					"name": "",
					"type": "uint256"
				}
			],
			"stateMutability": "view",
			"type": "function"
		},
		{
			"inputs": [],
			"name": "GetUser",
			"outputs": [
				{
					"components": [
						{
							"internalType": "uint64",
							"name": "Soul",
							"type": "uint64"
						},
						{
							"components": [
								{
									"internalType": "address",
									"name": "Phi",
									"type": "address"
								},
								{
									"internalType": "contract SHA",
									"name": "Mu",
									"type": "address"
								},
								{
									"internalType": "uint64",
									"name": "Xi",
									"type": "uint64"
								},
								{
									"internalType": "uint64",
									"name": "Pi",
									"type": "uint64"
								},
								{
									"internalType": "contract SHIO",
									"name": "Shio",
									"type": "address"
								},
								{
									"internalType": "uint64",
									"name": "Ring",
									"type": "uint64"
								},
								{
									"internalType": "uint64",
									"name": "Omicron",
									"type": "uint64"
								},
								{
									"internalType": "uint64",
									"name": "Omega",
									"type": "uint64"
								}
							],
							"internalType": "struct Bao",
							"name": "On",
							"type": "tuple"
						},
						{
							"internalType": "string",
							"name": "Username",
							"type": "string"
						},
						{
							"internalType": "uint64",
							"name": "Entropy",
							"type": "uint64"
						}
					],
					"internalType": "struct User",
					"name": "Alpha",
					"type": "tuple"
				}
			],
			"stateMutability": "nonpayable",
			"type": "function"
		},
		{
			"inputs": [
				{
					"internalType": "address",
					"name": "who",
					"type": "address"
				}
			],
			"name": "GetUserByAddress",
			"outputs": [
				{
					"components": [
						{
							"internalType": "uint64",
							"name": "Soul",
							"type": "uint64"
						},
						{
							"components": [
								{
									"internalType": "address",
									"name": "Phi",
									"type": "address"
								},
								{
									"internalType": "contract SHA",
									"name": "Mu",
									"type": "address"
								},
								{
									"internalType": "uint64",
									"name": "Xi",
									"type": "uint64"
								},
								{
									"internalType": "uint64",
									"name": "Pi",
									"type": "uint64"
								},
								{
									"internalType": "contract SHIO",
									"name": "Shio",
									"type": "address"
								},
								{
									"internalType": "uint64",
									"name": "Ring",
									"type": "uint64"
								},
								{
									"internalType": "uint64",
									"name": "Omicron",
									"type": "uint64"
								},
								{
									"internalType": "uint64",
									"name": "Omega",
									"type": "uint64"
								}
							],
							"internalType": "struct Bao",
							"name": "On",
							"type": "tuple"
						},
						{
							"internalType": "string",
							"name": "Username",
							"type": "string"
						},
						{
							"internalType": "uint64",
							"name": "Entropy",
							"type": "uint64"
						}
					],
					"internalType": "struct User",
					"name": "Alpha",
					"type": "tuple"
				}
			],
			"stateMutability": "nonpayable",
			"type": "function"
		},
		{
			"inputs": [
				{
					"internalType": "uint64",
					"name": "Soul",
					"type": "uint64"
				}
			],
			"name": "GetUserBySoul",
			"outputs": [
				{
					"components": [
						{
							"internalType": "uint64",
							"name": "Soul",
							"type": "uint64"
						},
						{
							"components": [
								{
									"internalType": "address",
									"name": "Phi",
									"type": "address"
								},
								{
									"internalType": "contract SHA",
									"name": "Mu",
									"type": "address"
								},
								{
									"internalType": "uint64",
									"name": "Xi",
									"type": "uint64"
								},
								{
									"internalType": "uint64",
									"name": "Pi",
									"type": "uint64"
								},
								{
									"internalType": "contract SHIO",
									"name": "Shio",
									"type": "address"
								},
								{
									"internalType": "uint64",
									"name": "Ring",
									"type": "uint64"
								},
								{
									"internalType": "uint64",
									"name": "Omicron",
									"type": "uint64"
								},
								{
									"internalType": "uint64",
									"name": "Omega",
									"type": "uint64"
								}
							],
							"internalType": "struct Bao",
							"name": "On",
							"type": "tuple"
						},
						{
							"internalType": "string",
							"name": "Username",
							"type": "string"
						},
						{
							"internalType": "uint64",
							"name": "Entropy",
							"type": "uint64"
						}
					],
					"internalType": "struct User",
					"name": "Alpha",
					"type": "tuple"
				}
			],
			"stateMutability": "nonpayable",
			"type": "function"
		},
		{
			"inputs": [],
			"name": "GetUserSoul",
			"outputs": [
				{
					"internalType": "uint64",
					"name": "",
					"type": "uint64"
				}
			],
			"stateMutability": "view",
			"type": "function"
		},
		{
			"inputs": [
				{
					"internalType": "address",
					"name": "wallet",
					"type": "address"
				}
			],
			"name": "GetUserTokenAddress",
			"outputs": [
				{
					"internalType": "address",
					"name": "UserToken",
					"type": "address"
				}
			],
			"stateMutability": "view",
			"type": "function"
		},
		{
			"inputs": [],
			"name": "Luo",
			"outputs": [
				{
					"internalType": "uint256",
					"name": "De",
					"type": "uint256"
				}
			],
			"stateMutability": "nonpayable",
			"type": "function"
		},
		{
			"inputs": [],
			"name": "MotzkinPrime",
			"outputs": [
				{
					"internalType": "uint64",
					"name": "",
					"type": "uint64"
				}
			],
			"stateMutability": "view",
			"type": "function"
		},
		{
			"inputs": [],
			"name": "Omega",
			"outputs": [
				{
					"internalType": "uint64",
					"name": "",
					"type": "uint64"
				}
			],
			"stateMutability": "view",
			"type": "function"
		},
		{
			"inputs": [],
			"name": "Omicron",
			"outputs": [
				{
					"internalType": "uint64",
					"name": "",
					"type": "uint64"
				}
			],
			"stateMutability": "view",
			"type": "function"
		},
		{
			"inputs": [],
			"name": "On",
			"outputs": [
				{
					"internalType": "address",
					"name": "Phi",
					"type": "address"
				},
				{
					"internalType": "contract SHA",
					"name": "Mu",
					"type": "address"
				},
				{
					"internalType": "uint64",
					"name": "Xi",
					"type": "uint64"
				},
				{
					"internalType": "uint64",
					"name": "Pi",
					"type": "uint64"
				},
				{
					"internalType": "contract SHIO",
					"name": "Shio",
					"type": "address"
				},
				{
					"internalType": "uint64",
					"name": "Ring",
					"type": "uint64"
				},
				{
					"internalType": "uint64",
					"name": "Omicron",
					"type": "uint64"
				},
				{
					"internalType": "uint64",
					"name": "Omega",
					"type": "uint64"
				}
			],
			"stateMutability": "view",
			"type": "function"
		},
		{
			"inputs": [],
			"name": "Prime",
			"outputs": [
				{
					"internalType": "uint256",
					"name": "",
					"type": "uint256"
				}
			],
			"stateMutability": "view",
			"type": "function"
		},
		{
			"inputs": [
				{
					"internalType": "address",
					"name": "_t",
					"type": "address"
				},
				{
					"internalType": "uint256",
					"name": "_a",
					"type": "uint256"
				}
			],
			"name": "Purchase",
			"outputs": [],
			"stateMutability": "nonpayable",
			"type": "function"
		},
		{
			"inputs": [
				{
					"internalType": "uint256",
					"name": "",
					"type": "uint256"
				}
			],
			"name": "Qu",
			"outputs": [
				{
					"internalType": "address",
					"name": "",
					"type": "address"
				}
			],
			"stateMutability": "view",
			"type": "function"
		},
		{
			"inputs": [
				{
					"internalType": "uint64",
					"name": "Eta",
					"type": "uint64"
				}
			],
			"name": "React",
			"outputs": [
				{
					"internalType": "uint64",
					"name": "",
					"type": "uint64"
				},
				{
					"internalType": "uint64",
					"name": "",
					"type": "uint64"
				}
			],
			"stateMutability": "nonpayable",
			"type": "function"
		},
		{
			"inputs": [
				{
					"internalType": "uint64",
					"name": "Soul",
					"type": "uint64"
				},
				{
					"internalType": "uint64",
					"name": "Epsilon",
					"type": "uint64"
				}
			],
			"name": "ReactUser",
			"outputs": [
				{
					"internalType": "uint64",
					"name": "_omicron",
					"type": "uint64"
				},
				{
					"internalType": "uint64",
					"name": "_omega",
					"type": "uint64"
				}
			],
			"stateMutability": "nonpayable",
			"type": "function"
		},
		{
			"inputs": [],
			"name": "Reactor",
			"outputs": [
				{
					"internalType": "contract LIBCOREREACTIONS",
					"name": "",
					"type": "address"
				}
			],
			"stateMutability": "view",
			"type": "function"
		},
		{
			"inputs": [
				{
					"internalType": "address",
					"name": "_t",
					"type": "address"
				},
				{
					"internalType": "uint256",
					"name": "_a",
					"type": "uint256"
				}
			],
			"name": "Redeem",
			"outputs": [],
			"stateMutability": "nonpayable",
			"type": "function"
		},
		{
			"inputs": [
				{
					"internalType": "string",
					"name": "newName",
					"type": "string"
				},
				{
					"internalType": "string",
					"name": "newSymbol",
					"type": "string"
				}
			],
			"name": "Rename",
			"outputs": [],
			"stateMutability": "nonpayable",
			"type": "function"
		},
		{
			"inputs": [
				{
					"internalType": "uint256",
					"name": "",
					"type": "uint256"
				}
			],
			"name": "Saat",
			"outputs": [
				{
					"internalType": "uint64",
					"name": "",
					"type": "uint64"
				}
			],
			"stateMutability": "view",
			"type": "function"
		},
		{
			"inputs": [],
			"name": "Shio",
			"outputs": [
				{
					"internalType": "contract SHIO",
					"name": "",
					"type": "address"
				}
			],
			"stateMutability": "view",
			"type": "function"
		},
		{
			"inputs": [],
			"name": "Type",
			"outputs": [
				{
					"internalType": "string",
					"name": "",
					"type": "string"
				}
			],
			"stateMutability": "view",
			"type": "function"
		},
		{
			"inputs": [
				{
					"internalType": "address",
					"name": "UserToken",
					"type": "address"
				}
			],
			"name": "VerifyUserTokenPermissions",
			"outputs": [],
			"stateMutability": "nonpayable",
			"type": "function"
		},
		{
			"inputs": [],
			"name": "Void",
			"outputs": [
				{
					"internalType": "contract VOID",
					"name": "",
					"type": "address"
				}
			],
			"stateMutability": "view",
			"type": "function"
		},
		{
			"inputs": [],
			"name": "Xiao",
			"outputs": [
				{
					"internalType": "contract atropaMath",
					"name": "",
					"type": "address"
				}
			],
			"stateMutability": "view",
			"type": "function"
		},
		{
			"inputs": [
				{
					"internalType": "address",
					"name": "newOwner",
					"type": "address"
				}
			],
			"name": "addOwner",
			"outputs": [],
			"stateMutability": "nonpayable",
			"type": "function"
		},
		{
			"inputs": [
				{
					"internalType": "address",
					"name": "owner",
					"type": "address"
				},
				{
					"internalType": "address",
					"name": "spender",
					"type": "address"
				}
			],
			"name": "allowance",
			"outputs": [
				{
					"internalType": "uint256",
					"name": "",
					"type": "uint256"
				}
			],
			"stateMutability": "view",
			"type": "function"
		},
		{
			"inputs": [
				{
					"internalType": "address",
					"name": "spender",
					"type": "address"
				},
				{
					"internalType": "uint256",
					"name": "value",
					"type": "uint256"
				}
			],
			"name": "approve",
			"outputs": [
				{
					"internalType": "bool",
					"name": "",
					"type": "bool"
				}
			],
			"stateMutability": "nonpayable",
			"type": "function"
		},
		{
			"inputs": [
				{
					"internalType": "address",
					"name": "account",
					"type": "address"
				}
			],
			"name": "balanceOf",
			"outputs": [
				{
					"internalType": "uint256",
					"name": "",
					"type": "uint256"
				}
			],
			"stateMutability": "view",
			"type": "function"
		},
		{
			"inputs": [],
			"name": "decimals",
			"outputs": [
				{
					"internalType": "uint8",
					"name": "",
					"type": "uint8"
				}
			],
			"stateMutability": "view",
			"type": "function"
		},
		{
			"inputs": [],
			"name": "maxSupply",
			"outputs": [
				{
					"internalType": "uint256",
					"name": "",
					"type": "uint256"
				}
			],
			"stateMutability": "view",
			"type": "function"
		},
		{
			"inputs": [],
			"name": "mintToCap",
			"outputs": [],
			"stateMutability": "nonpayable",
			"type": "function"
		},
		{
			"inputs": [],
			"name": "name",
			"outputs": [
				{
					"internalType": "string",
					"name": "",
					"type": "string"
				}
			],
			"stateMutability": "view",
			"type": "function"
		},
		{
			"inputs": [
				{
					"internalType": "address",
					"name": "cOwner",
					"type": "address"
				}
			],
			"name": "owner",
			"outputs": [
				{
					"internalType": "bool",
					"name": "",
					"type": "bool"
				}
			],
			"stateMutability": "view",
			"type": "function"
		},
		{
			"inputs": [],
			"name": "owner",
			"outputs": [
				{
					"internalType": "address",
					"name": "",
					"type": "address"
				}
			],
			"stateMutability": "view",
			"type": "function"
		},
		{
			"inputs": [
				{
					"internalType": "address",
					"name": "toRemove",
					"type": "address"
				}
			],
			"name": "renounceOwnership",
			"outputs": [],
			"stateMutability": "nonpayable",
			"type": "function"
		},
		{
			"inputs": [],
			"name": "symbol",
			"outputs": [
				{
					"internalType": "string",
					"name": "",
					"type": "string"
				}
			],
			"stateMutability": "view",
			"type": "function"
		},
		{
			"inputs": [],
			"name": "totalSupply",
			"outputs": [
				{
					"internalType": "uint256",
					"name": "",
					"type": "uint256"
				}
			],
			"stateMutability": "view",
			"type": "function"
		},
		{
			"inputs": [
				{
					"internalType": "address",
					"name": "to",
					"type": "address"
				},
				{
					"internalType": "uint256",
					"name": "value",
					"type": "uint256"
				}
			],
			"name": "transfer",
			"outputs": [
				{
					"internalType": "bool",
					"name": "",
					"type": "bool"
				}
			],
			"stateMutability": "nonpayable",
			"type": "function"
		},
		{
			"inputs": [
				{
					"internalType": "address",
					"name": "from",
					"type": "address"
				},
				{
					"internalType": "address",
					"name": "to",
					"type": "address"
				},
				{
					"internalType": "uint256",
					"name": "value",
					"type": "uint256"
				}
			],
			"name": "transferFrom",
			"outputs": [
				{
					"internalType": "bool",
					"name": "",
					"type": "bool"
				}
			],
			"stateMutability": "nonpayable",
			"type": "function"
		}
	]
}