{
	"data": {
		"bytecode": {
			"linkReferences": {},
			"object": "6080604052348015600e575f5ffd5b506040516137c13803806137c1833981016040819052602b916094565b5f80546001600160a01b0319166001600160a01b038316908117909155604051630e0cb96960e31b8152306004820152637065cb48906024015f604051808303815f87803b158015607a575f5ffd5b505af1158015608b573d5f5f3e3d5ffd5b505050505060bf565b5f6020828403121560a3575f5ffd5b81516001600160a01b038116811460b8575f5ffd5b9392505050565b6136f5806100cc5f395ff3fe608060405234801561000f575f5ffd5b5060043610610034575f3560e01c80638c6dc5ec14610038578063f4f6c22c14610061575b5f5ffd5b61004b610046366004610278565b610073565b60405161005891906102dd565b60405180910390f35b5f5461004b906001600160a01b031681565b5f8054604051849184916001600160a01b0390911690610092906101cc565b61009e9392919061031f565b604051809103905ff0801580156100b7573d5f5f3e3d5ffd5b50604051630e0cb96960e31b81529091506001600160a01b03821690637065cb48906100e79033906004016102dd565b5f604051808303815f87803b1580156100fe575f5ffd5b505af1158015610110573d5f5f3e3d5ffd5b5050604051630e0cb96960e31b81526001600160a01b0384169250637065cb4891506101409032906004016102dd565b5f604051808303815f87803b158015610157575f5ffd5b505af1158015610169573d5f5f3e3d5ffd5b5050604051631c5f9e7d60e11b81526001600160a01b03841692506338bf3cfa91506101999030906004016102dd565b5f604051808303815f87803b1580156101b0575f5ffd5b505af11580156101c2573d5f5f3e3d5ffd5b5050505092915050565b6133638061035d83390190565b634e487b7160e01b5f52604160045260245ffd5b5f82601f8301126101fc575f5ffd5b813567ffffffffffffffff811115610216576102166101d9565b604051601f8201601f19908116603f0116810167ffffffffffffffff81118282101715610245576102456101d9565b60405281815283820160200185101561025c575f5ffd5b816020850160208301375f918101602001919091529392505050565b5f5f60408385031215610289575f5ffd5b823567ffffffffffffffff81111561029f575f5ffd5b6102ab858286016101ed565b925050602083013567ffffffffffffffff8111156102c7575f5ffd5b6102d3858286016101ed565b9150509250929050565b6001600160a01b0391909116815260200190565b5f81518084528060208401602086015e5f602082860101526020601f19601f83011685010191505092915050565b606081525f61033160608301866102f1565b828103602084015261034381866102f1565b91505060018060a01b038316604083015294935050505056fe608060405234801561000f575f5ffd5b5060405161336338038061336383398101604081905261002e916108c4565b8282826001600160a01b0316636fb7329c6040518163ffffffff1660e01b8152600401602060405180830381865afa15801561006c573d5f5f3e3d5ffd5b505050506040513d601f19601f82011682018060405250810190610090919061093c565b33806100c257604051633603021960e21b81523260048201525f60248201523060448201526064015b60405180910390fd5b6100cd81600161052c565b5060046100da84826109e2565b5060056100e783826109e2565b50600680546001600160a01b0319166001600160a01b0383169081179091556040805163604a6fa960e01b815290516201b207929163604a6fa991600480830192602092919082900301815f875af1158015610145573d5f5f3e3d5ffd5b505050506040513d601f19601f820116820180604052508101906101699190610ab7565b6101739190610ae4565b6001600160401b03166007819055505f600a60075460065f9054906101000a90046001600160a01b03166001600160a01b031663604a6fa96040518163ffffffff1660e01b81526004016020604051808303815f875af11580156101d9573d5f5f3e3d5ffd5b505050506040513d601f19601f820116820180604052508101906101fd9190610ab7565b6001600160401b03166102109190610b12565b61021a9190610b39565b905061023b3261022c6012600a610c31565b6102369084610c3f565b61057f565b6102857324f0154c1dce548adf15da2098fdd8b8a3b8151d61025f6012600a610c31565b61026a906001610c3f565b6001600160a01b039091165f90815260086020526040902055565b5050600980546001600160a01b0319166001600160a01b0385169081179091556040516368f9c78760e01b81529092506368f9c78791506102cc9086908690600401610c84565b610160604051808303815f875af11580156102e9573d5f5f3e3d5ffd5b505050506040513d601f19601f8201168201806040525081019061030d9190610cbc565b8051600b80546001600160a01b0319166001600160a01b039283161790556020820151600c805460408501519284166001600160e01b031991821617600160a01b6001600160401b0394851602179091556060840151600d805460808701519285169316929092176801000000000000000091909416810293909317905560a0830151600e805460c086015160e08701519385166001600160801b03199092169190911790841690940293909317600160801b600160c01b031916600160801b91909216021790556103e2600a83600361070d565b5050600d54604051630e0cb96960e31b8152306004820152680100000000000000009091046001600160a01b03169150637065cb48906024015f604051808303815f87803b158015610432575f5ffd5b505af1158015610444573d5f5f3e3d5ffd5b50505050600b60020160089054906101000a90046001600160a01b03166001600160a01b031663a45669506040518163ffffffff1660e01b8152600401606060405180830381865afa15801561049c573d5f5f3e3d5ffd5b505050506040513d601f19601f820116820180604052508101906104c09190610dd2565b51604051630e0cb96960e31b81523060048201526001600160a01b0390911690637065cb48906024015f604051808303815f87803b158015610500575f5ffd5b505af1158015610512573d5f5f3e3d5ffd5b5050505061052461058e60201b60201c565b505050610e37565b6001600160a01b0382165f81815260208190526040808220805460ff191685151590811790915590519092917f6bfa7e860c3e9bf67b810cb88276b19b27c972812bac04793d369b59a1183a8391a35050565b61058a5f83836105cd565b5050565b61059a6012600a610c31565b6007546105a79190610c3f565b60035410156105cb576105cb306105c06012600a610c31565b610236906001610c3f565b565b6001600160a01b0383166105f7578060035f8282546105ec9190610e24565b909155506106819050565b6001600160a01b0383165f908152600160205260409020548181101561066357604051630f7d0bbd60e21b81523260048201523360248201526001600160a01b0380861660448301528416606482015230608482015260a4810182905260c4810183905260e4016100b9565b6001600160a01b0384165f9081526001602052604090209082900390555b6001600160a01b03821661069d576003805482900390556106bb565b6001600160a01b0382165f9081526001602052604090208054820190555b816001600160a01b0316836001600160a01b03167fddf252ad1be2c89b69c2b068fc378daa952ba7f163c4a11628f55a4df523b3ef8360405161070091815260200190565b60405180910390a3505050565b6001830191839082156107a1579160200282015f5b8382111561076c57835183826101000a8154816001600160401b0302191690836001600160401b031602179055509260200192600801602081600701049283019260010302610722565b801561079f5782816101000a8154906001600160401b03021916905560080160208160070104928301926001030261076c565b505b506107ad9291506107b1565b5090565b5b808211156107ad575f81556001016107b2565b634e487b7160e01b5f52604160045260245ffd5b60405161010081016001600160401b03811182821017156107fc576107fc6107c5565b60405290565b604051606081016001600160401b03811182821017156107fc576107fc6107c5565b5f82601f830112610833575f5ffd5b81516001600160401b0381111561084c5761084c6107c5565b604051601f8201601f19908116603f011681016001600160401b038111828210171561087a5761087a6107c5565b604052818152838201602001851015610891575f5ffd5b8160208501602083015e5f918101602001919091529392505050565b6001600160a01b03811681146108c1575f5ffd5b50565b5f5f5f606084860312156108d6575f5ffd5b83516001600160401b038111156108eb575f5ffd5b6108f786828701610824565b602086015190945090506001600160401b03811115610914575f5ffd5b61092086828701610824565b9250506040840151610931816108ad565b809150509250925092565b5f6020828403121561094c575f5ffd5b8151610957816108ad565b9392505050565b600181811c9082168061097257607f821691505b60208210810361099057634e487b7160e01b5f52602260045260245ffd5b50919050565b601f8211156109dd57805f5260205f20601f840160051c810160208510156109bb5750805b601f840160051c820191505b818110156109da575f81556001016109c7565b50505b505050565b81516001600160401b038111156109fb576109fb6107c5565b610a0f81610a09845461095e565b84610996565b6020601f821160018114610a41575f8315610a2a5750848201515b5f19600385901b1c1916600184901b1784556109da565b5f84815260208120601f198516915b82811015610a705787850151825560209485019460019092019101610a50565b5084821015610a8d57868401515f19600387901b60f8161c191681555b50505050600190811b01905550565b80516001600160401b0381168114610ab2575f5ffd5b919050565b5f60208284031215610ac7575f5ffd5b61095782610a9c565b634e487b7160e01b5f52601260045260245ffd5b5f6001600160401b03831680610afc57610afc610ad0565b6001600160401b03929092169190910692915050565b5f82610b2057610b20610ad0565b500690565b634e487b7160e01b5f52601160045260245ffd5b5f82610b4757610b47610ad0565b500490565b6001815b6001841115610b8757808504811115610b6b57610b6b610b25565b6001841615610b7957908102905b60019390931c928002610b50565b935093915050565b5f82610b9d57506001610c2b565b81610ba957505f610c2b565b8160018114610bbf5760028114610bc957610be5565b6001915050610c2b565b60ff841115610bda57610bda610b25565b50506001821b610c2b565b5060208310610133831016604e8410600b8410161715610c08575081810a610c2b565b610c145f198484610b4c565b805f1904821115610c2757610c27610b25565b0290505b92915050565b5f61095760ff841683610b8f565b8082028115828204841417610c2b57610c2b610b25565b5f81518084528060208401602086015e5f602082860101526020601f19601f83011685010191505092915050565b604081525f610c966040830185610c56565b8281036020840152610ca88185610c56565b95945050505050565b8051610ab2816108ad565b5f5f828403610160811215610ccf575f5ffd5b84601f850112610cdd575f5ffd5b610ce5610802565b806060860187811115610cf6575f5ffd5b865b81811015610d1757610d0981610a9c565b845260209384019301610cf8565b508195505f9250610100605f1985011215610d30575f5ffd5b610d386107d9565b9250805193505050610d49826108ad565b818152610d5860808601610cb1565b6020820152610d6960a08601610a9c565b6040820152610d7a60c08601610a9c565b6060820152610d8b60e08601610cb1565b6080820152610d9d6101008601610a9c565b60a0820152610daf6101208601610a9c565b60c0820152610dc16101408601610a9c565b60e082015280925050509250929050565b5f6060828403128015610de3575f5ffd5b50610dec610802565b8251610df7816108ad565b81526020830151610e07816108ad565b6020820152610e1860408401610a9c565b60408201529392505050565b80820180821115610c2b57610c2b610b25565b61251f80610e445f395ff3fe608060405234801561000f575f5ffd5b50600436106101d6575f3560e01c806370a0823111610101578063c34686e51161009a578063c34686e5146104bb578063c584460d146104ce578063c6bf2b65146104d6578063d3dc2a0f146104e9578063d5abeb01146104f7578063dd62ed3e14610500578063ed70e46c14610513578063f4e6c93f14610526578063ff7620441461052e575f5ffd5b806370a082311461038257806385bcb519146103aa578063884edad9146104595780638da5cb5b1461046c5780638e3bb9fb1461047257806395d89b41146104855780639dcbf7ea1461048d578063a9059cbb146104a0578063ac8f5ead146104b3575f5ffd5b80632b83b1fc116101735780632b83b1fc146102b9578063313ce567146102e157806338bf3cfa146102f0578063393a35a514610303578063414c3935146103165780634209b07c14610329578063666e1b39146103495780636fb7329c1461035c5780637065cb481461036f575f5ffd5b8062b660ef146101da57806306fdde03146101ef578063088aee781461020d578063095ea7b31461023857806318160ddd1461025b57806321516fc41461026d578063222838db1461028057806323b872dd146102935780632499a533146102a6575b5f5ffd5b6101ed6101e8366004611a1d565b610550565b005b6101f7610647565b6040516102049190611a97565b60405180910390f35b61022061021b366004611ab0565b6106d7565b6040516001600160401b039091168152602001610204565b61024b610246366004611ac7565b610709565b6040519015158152602001610204565b6003545b604051908152602001610204565b6101ed61027b366004611af1565b610722565b6101ed61028e366004611ac7565b610792565b61024b6102a1366004611b2a565b610993565b6101ed6102b4366004611ac7565b6109b6565b61025f6102c7366004611b68565b6001600160a01b03165f9081526008602052604090205490565b60405160128152602001610204565b6101ed6102fe366004611b68565b610b64565b6101f7610311366004611c52565b610b76565b6101ed610324366004611c7a565b610bf9565b60095461033c906001600160a01b031681565b6040516102049190611cb1565b61024b610357366004611b68565b610da9565b60065461033c906001600160a01b031681565b6101ed61037d366004611b68565b610dc6565b61025f610390366004611b68565b6001600160a01b03165f9081526001602052604090205490565b600b54600c54600d54600e54610400936001600160a01b0390811693808216936001600160401b03600160a01b90920482169381831693600160401b928390041692818116928204811691600160801b90041688565b604080516001600160a01b03998a16815297891660208901526001600160401b03968716908801529385166060870152959091166080850152821660a084015292811660c083015290911660e082015261010001610204565b6101ed610467366004611ac7565b610e06565b3061033c565b600f5461033c906001600160a01b031681565b6101f7610f73565b6101ed61049b366004611cc5565b610f82565b61024b6104ae366004611ac7565b610fa8565b6101ed610fb5565b6101ed6104c9366004611d12565b611041565b6101f76110c8565b6101ed6104e4366004611af1565b61113d565b6102206603632c8eb5af3b81565b61025f60075481565b61025f61050e366004611d49565b6111f3565b6101f7610521366004611b68565b61121d565b6101ed611257565b6101f7604051806040016040528060038152602001624c415560e81b81525081565b610558611269565b60095460405162b660ef60e01b81526001600160a01b039091169062b660ef906105889085908590600401611d75565b5f604051808303815f87803b15801561059f575f5ffd5b505af11580156105b1573d5f5f3e3d5ffd5b50506009546001600160a01b0316915063cf34ef5390506105d1846112a9565b836040516020016105e3929190611daf565b6040516020818303038152906040526040518263ffffffff1660e01b815260040161060e9190611a97565b5f604051808303815f87803b158015610625575f5ffd5b505af1158015610637573d5f5f3e3d5ffd5b505050506106436112e1565b5050565b60606004805461065690611dee565b80601f016020809104026020016040519081016040528092919081815260200182805461068290611dee565b80156106cd5780601f106106a4576101008083540402835291602001916106cd565b820191905f5260205f20905b8154815290600101906020018083116106b057829003601f168201915b5050505050905090565b600a81600381106106e6575f80fd5b60049182820401919006600802915054906101000a90046001600160401b031681565b5f33610716818585611323565b60019150505b92915050565b61072a611269565b6009546040516308545bf160e21b81526001600160a01b03909116906321516fc49061075a908490600401611a97565b5f604051808303815f87803b158015610771575f5ffd5b505af1158015610783573d5f5f3e3d5ffd5b5050505061078f6112e1565b50565b6001600160a01b0382165f9081526008602052604081205490036107d457816040516390b2344160e01b81526004016107cb9190611cb1565b60405180910390fd5b815f6107e26012600a611f1d565b6001600160a01b0385165f908152600860205260409020546108049085611f2b565b61080e9190611f56565b6040516323b872dd60e01b81529091505f9030906323b872dd9061083a90339084908990600401611f75565b6020604051808303815f875af1158015610856573d5f5f3e3d5ffd5b505050506040513d601f19601f8201168201806040525081019061087a9190611f99565b905080306001600160a01b03166306fdde036040518163ffffffff1660e01b81526004015f60405180830381865afa1580156108b8573d5f5f3e3d5ffd5b505050506040513d5f823e601f3d908101601f191682016040526108df9190810190611fb4565b6040516020016108ef9190612028565b6040516020818303038152906040529061091c5760405162461bcd60e51b81526004016107cb9190611a97565b5060405163a9059cbb60e01b81526001600160a01b0384169063a9059cbb9061094b903390869060040161204a565b6020604051808303815f875af1158015610967573d5f5f3e3d5ffd5b505050506040513d601f19601f8201168201806040525081019061098b9190611f99565b505050505050565b5f336109a0858285611330565b6109ab858585611381565b506001949350505050565b6001600160a01b0382165f9081526008602052604081205490036109ef57816040516390b2344160e01b81526004016107cb9190611cb1565b815f6109fd6012600a611f1d565b6001600160a01b0385165f90815260086020526040902054610a1f9085611f2b565b610a299190611f56565b90505f826001600160a01b03166323b872dd3330856040518463ffffffff1660e01b8152600401610a5c93929190611f75565b6020604051808303815f875af1158015610a78573d5f5f3e3d5ffd5b505050506040513d601f19601f82011682018060405250810190610a9c9190611f99565b905080836001600160a01b03166306fdde036040518163ffffffff1660e01b81526004015f60405180830381865afa158015610ada573d5f5f3e3d5ffd5b505050506040513d5f823e601f3d908101601f19168201604052610b019190810190611fb4565b604051602001610b119190612028565b60405160208183030381529060405290610b3e5760405162461bcd60e51b81526004016107cb9190611a97565b5060405163a9059cbb60e01b8152309063a9059cbb9061094b903390889060040161204a565b610b6c611269565b61078f815f61138c565b6060610b80611269565b60095460405163393a35a560e01b81526001600160a01b039091169063393a35a590610bb0908590600401612119565b5f60405180830381865afa158015610bca573d5f5f3e3d5ffd5b505050506040513d5f823e601f3d908101601f19168201604052610bf19190810190611fb4565b90505b919050565b610c01611269565b818015610c0b5750805b15610d5b5760095f9054906101000a90046001600160a01b03166001600160a01b0316631097e5796040518163ffffffff1660e01b8152600401610160604051808303815f875af1158015610c62573d5f5f3e3d5ffd5b505050506040513d601f19601f82011682018060405250810190610c8691906121d8565b8051600b80546001600160a01b0319166001600160a01b039283161790556020820151600c805460408501519284166001600160e01b031991821617600160a01b6001600160401b0394851602179091556060840151600d80546080870151928516931692909217600160401b91909416810293909317905560a0830151600e805460c086015160e08701519385166001600160801b0319909216919091179084169094029390931767ffffffffffffffff60801b1916600160801b9190921602179055610d57600a83600361186c565b5050505b60095460405163cf34ef5360e01b815260206004820152600d60248201526c14995cd95d08151bc8159bda59609a1b60448201526001600160a01b039091169063cf34ef539060640161060e565b6001600160a01b03165f9081526020819052604090205460ff1690565b610dce611269565b6001600160a01b038116610dfb57325f30604051633603021960e21b81526004016107cb9392919061226b565b61078f81600161138c565b610e0e611269565b60405163a9059cbb60e01b815282906001600160a01b0382169063a9059cbb90610e3e903390869060040161204a565b6020604051808303815f875af1158015610e5a573d5f5f3e3d5ffd5b505050506040513d601f19601f82011682018060405250810190610e7e9190611f99565b506009546001600160a01b031663cf34ef53610e99846113df565b836001600160a01b03166306fdde036040518163ffffffff1660e01b81526004015f60405180830381865afa158015610ed4573d5f5f3e3d5ffd5b505050506040513d5f823e601f3d908101601f19168201604052610efb9190810190611fb4565b610f04336112a9565b604051602001610f169392919061228e565b6040516020818303038152906040526040518263ffffffff1660e01b8152600401610f419190611a97565b5f604051808303815f87803b158015610f58575f5ffd5b505af1158015610f6a573d5f5f3e3d5ffd5b50505050505050565b60606005805461065690611dee565b610f8a611269565b6004610f968382612330565b506005610fa38282612330565b505050565b5f33610716818585611381565b610fbd611269565b600f80546001600160a01b03191690556009805460405163cf34ef5360e01b8152602060048201526024810192909252684c65667420506c617960b81b60448301526001600160a01b03169063cf34ef53906064015f604051808303815f87803b158015611029575f5ffd5b505af115801561103b573d5f5f3e3d5ffd5b50505050565b611049611269565b60095460405163c34686e560e01b81526001600160a01b039091169063c34686e59061107b90859085906004016123ea565b5f604051808303815f87803b158015611092575f5ffd5b505af11580156110a4573d5f5f3e3d5ffd5b505060095484516001600160a01b03909116925063cf34ef5391506105d1906112a9565b60095460405163b502e56760e01b81526060916001600160a01b03169063b502e567906110f790600401612427565b5f60405180830381865afa158015611111573d5f5f3e3d5ffd5b505050506040513d5f823e601f3d908101601f191682016040526111389190810190611fb4565b905090565b611145611269565b6009546040516337d72ded60e21b81526001600160a01b039091169063df5cb7b490611175908490600401612438565b5f604051808303815f87803b15801561118c575f5ffd5b505af115801561119e573d5f5f3e3d5ffd5b50506009546040516001600160a01b03909116925063cf34ef5391506111c890849060200161245b565b6040516020818303038152906040526040518263ffffffff1660e01b815260040161075a9190611a97565b6001600160a01b039182165f90815260026020908152604080832093909416825291909152205490565b6060611227611269565b600954604051633b5c391b60e21b81526001600160a01b039091169063ed70e46c90610bb0908590600401611cb1565b61125f611269565b6112676112e1565b565b61127233610da9565b158015611285575061128332610da9565b155b1561126757323330604051630be6bab560e01b81526004016107cb9392919061226b565b604051606082811b6bffffffffffffffffffffffff1916602083015290610bf19060340160405160208183030381529060405261146c565b6112ed6012600a611f1d565b6007546112fa9190611f2b565b600354101561126757611267306113136012600a611f1d565b61131e906001611f2b565b611673565b610fa3838383600161167e565b5f61133b84846111f3565b90505f19811461103b5781811015611373573233858530858760405162b83d1960e21b81526004016107cb979695949392919061247f565b61103b84848484035f61167e565b610fa38383836116fe565b6001600160a01b0382165f81815260208190526040808220805460ff191685151590811790915590519092917f6bfa7e860c3e9bf67b810cb88276b19b27c972812bac04793d369b59a1183a8391a35050565b60605f6113eb83611819565b6001019050806001600160401b0381111561140857611408611938565b6040519080825280601f01601f191660200182016040528015611432576020820181803683370190505b5091508082016020015b5f19016f181899199a1a9b1b9c1cb0b131b232b360811b600a85061a8153600a840493508361143c575050919050565b60408051808201909152601081526f181899199a1a9b1b9c1cb0b131b232b360811b60208201528151606091905f906114a6906002611f2b565b6114b19060026124c2565b6001600160401b038111156114c8576114c8611938565b6040519080825280601f01601f1916602001820160405280156114f2576020820181803683370190505b509050600360fc1b815f8151811061150c5761150c6124d5565b60200101906001600160f81b03191690815f1a905350600f60fb1b8160018151811061153a5761153a6124d5565b60200101906001600160f81b03191690815f1a9053505f5b845181101561166b57826004868381518110611570576115706124d5565b016020015182516001600160f81b031990911690911c60f81c908110611598576115986124d5565b01602001516001600160f81b031916826115b3836002611f2b565b6115be9060026124c2565b815181106115ce576115ce6124d5565b60200101906001600160f81b03191690815f1a905350828582815181106115f7576115f76124d5565b602091010151815160f89190911c600f16908110611617576116176124d5565b01602001516001600160f81b03191682611632836002611f2b565b61163d9060036124c2565b8151811061164d5761164d6124d5565b60200101906001600160f81b03191690815f1a905350600101611552565b509392505050565b6106435f83836116fe565b6001600160a01b038085165f908152600260209081526040808320938716835292905220829055801561103b57826001600160a01b0316846001600160a01b03167f8c5be1e5ebec7d5bd14f71427d1e84f3dd0314c0f7b2291e5b200ac8c7c3b925846040516116f091815260200190565b60405180910390a350505050565b6001600160a01b038316611728578060035f82825461171d91906124c2565b9091555061178d9050565b6001600160a01b0383165f908152600160205260409020548181101561176f5732338585308587604051630f7d0bbd60e21b81526004016107cb979695949392919061247f565b6001600160a01b0384165f9081526001602052604090209082900390555b6001600160a01b0382166117a9576003805482900390556117c7565b6001600160a01b0382165f9081526001602052604090208054820190555b816001600160a01b0316836001600160a01b03167fddf252ad1be2c89b69c2b068fc378daa952ba7f163c4a11628f55a4df523b3ef8360405161180c91815260200190565b60405180910390a3505050565b5f8060405b60018160ff1610611865578060ff16600a0a8410611857578060ff16600a0a848161184b5761184b611f42565b0493508060ff16820191505b600260ff821604905061181e565b5092915050565b600183019183908215611900579160200282015f5b838211156118cb57835183826101000a8154816001600160401b0302191690836001600160401b031602179055509260200192600801602081600701049283019260010302611881565b80156118fe5782816101000a8154906001600160401b0302191690556008016020816007010492830192600103026118cb565b505b5061190c929150611910565b5090565b5b8082111561190c575f8155600101611911565b6001600160a01b038116811461078f575f5ffd5b634e487b7160e01b5f52604160045260245ffd5b60405161010081016001600160401b038111828210171561196f5761196f611938565b60405290565b604051601f8201601f191681016001600160401b038111828210171561199d5761199d611938565b604052919050565b5f6001600160401b038211156119bd576119bd611938565b50601f01601f191660200190565b5f82601f8301126119da575f5ffd5b81356119ed6119e8826119a5565b611975565b818152846020838601011115611a01575f5ffd5b816020850160208301375f918101602001919091529392505050565b5f5f60408385031215611a2e575f5ffd5b8235611a3981611924565b915060208301356001600160401b03811115611a53575f5ffd5b611a5f858286016119cb565b9150509250929050565b5f81518084528060208401602086015e5f602082860101526020601f19601f83011685010191505092915050565b602081525f611aa96020830184611a69565b9392505050565b5f60208284031215611ac0575f5ffd5b5035919050565b5f5f60408385031215611ad8575f5ffd5b8235611ae381611924565b946020939093013593505050565b5f60208284031215611b01575f5ffd5b81356001600160401b03811115611b16575f5ffd5b611b22848285016119cb565b949350505050565b5f5f5f60608486031215611b3c575f5ffd5b8335611b4781611924565b92506020840135611b5781611924565b929592945050506040919091013590565b5f60208284031215611b78575f5ffd5b8135611aa981611924565b8035610bf481611924565b6001600160401b038116811461078f575f5ffd5b8035610bf481611b8e565b5f6101008284031215611bbe575f5ffd5b611bc661194c565b90508135611bd381611924565b8152611be160208301611b83565b6020820152611bf260408301611ba2565b6040820152611c0360608301611ba2565b6060820152611c1460808301611b83565b6080820152611c2560a08301611ba2565b60a0820152611c3660c08301611ba2565b60c0820152611c4760e08301611ba2565b60e082015292915050565b5f6101008284031215611c63575f5ffd5b611aa98383611bad565b801515811461078f575f5ffd5b5f5f60408385031215611c8b575f5ffd5b8235611c9681611c6d565b91506020830135611ca681611c6d565b809150509250929050565b6001600160a01b0391909116815260200190565b5f5f60408385031215611cd6575f5ffd5b82356001600160401b03811115611ceb575f5ffd5b611cf7858286016119cb565b92505060208301356001600160401b03811115611a53575f5ffd5b5f5f6101208385031215611d24575f5ffd5b611d2e8484611bad565b91506101008301356001600160401b03811115611a53575f5ffd5b5f5f60408385031215611d5a575f5ffd5b8235611d6581611924565b91506020830135611ca681611924565b6001600160a01b03831681526040602082018190525f90611b2290830184611a69565b5f81518060208401855e5f93019283525090919050565b65416c6961735b60d01b81525f611dc96006830185611d98565b6802e9039b2ba103a37960bd1b8152611de56009820185611d98565b95945050505050565b600181811c90821680611e0257607f821691505b602082108103611e2057634e487b7160e01b5f52602260045260245ffd5b50919050565b634e487b7160e01b5f52601160045260245ffd5b6001815b6001841115611e7557808504811115611e5957611e59611e26565b6001841615611e6757908102905b60019390931c928002611e3e565b935093915050565b5f82611e8b5750600161071c565b81611e9757505f61071c565b8160018114611ead5760028114611eb757611ed3565b600191505061071c565b60ff841115611ec857611ec8611e26565b50506001821b61071c565b5060208310610133831016604e8410600b8410161715611ef6575081810a61071c565b611f025f198484611e3a565b805f1904821115611f1557611f15611e26565b029392505050565b5f611aa960ff841683611e7d565b808202811582820484141761071c5761071c611e26565b634e487b7160e01b5f52601260045260245ffd5b5f82611f7057634e487b7160e01b5f52601260045260245ffd5b500490565b6001600160a01b039384168152919092166020820152604081019190915260600190565b5f60208284031215611fa9575f5ffd5b8151611aa981611c6d565b5f60208284031215611fc4575f5ffd5b81516001600160401b03811115611fd9575f5ffd5b8201601f81018413611fe9575f5ffd5b8051611ff76119e8826119a5565b81815285602083850101111561200b575f5ffd5b8160208401602083015e5f91810160200191909152949350505050565b6d02732b2b21020b8383937bb32b2160951b81525f611aa9600e830184611d98565b6001600160a01b03929092168252602082015260400190565b80516001600160a01b039081168352602080830151909116908301526040808201516001600160401b031690830152606080820151906120ad908401826001600160401b03169052565b5060808101516120c860808401826001600160a01b03169052565b5060a08101516120e360a08401826001600160401b03169052565b5060c08101516120fe60c08401826001600160401b03169052565b5060e0810151610fa360e08401826001600160401b03169052565b610100810161071c8284612063565b8051610bf481611b8e565b8051610bf481611924565b5f610100828403121561214f575f5ffd5b61215761194c565b9050815161216481611924565b815261217260208301612133565b602082015261218360408301612128565b604082015261219460608301612128565b60608201526121a560808301612133565b60808201526121b660a08301612128565b60a08201526121c760c08301612128565b60c0820152611c4760e08301612128565b5f5f61016083850312156121ea575f5ffd5b83601f8401126121f8575f5ffd5b604051606081016001600160401b038111828210171561221a5761221a611938565b60405280606085018681111561222e575f5ffd5b855b8181101561225157805161224381611b8e565b835260209283019201612230565b5082945061225f878261213e565b93505050509250929050565b6001600160a01b0393841681529183166020830152909116604082015260600190565b6b02bb4ba34323930bb9027b3160a51b81525f6122ae600c830186611d98565b600160fd1b81526122c26001820186611d98565b9050630102a37960e51b81526122db6004820185611d98565b9695505050505050565b601f821115610fa357805f5260205f20601f840160051c8101602085101561230a5750805b601f840160051c820191505b81811015612329575f8155600101612316565b5050505050565b81516001600160401b0381111561234957612349611938565b61235d816123578454611dee565b846122e5565b6020601f82116001811461238f575f83156123785750848201515b5f19600385901b1c1916600184901b178455612329565b5f84815260208120601f198516915b828110156123be578785015182556020948501946001909201910161239e565b50848210156123db57868401515f19600387901b60f8161c191681555b50505050600190811b01905550565b6123f48184612063565b6101206101008201525f611b22610120830184611a69565b6008815267557365726e616d6560c01b602082015260400190565b602081525f610bf16020830161240c565b604081525f6124496040830161240c565b8281036020840152611b228185611a69565b6f02ab9b2b93730b6b29039b2ba103a37960851b81525f611aa96010830184611d98565b6001600160a01b039788168152958716602087015293861660408601529185166060850152909316608083015260a082019290925260c081019190915260e00190565b8082018082111561071c5761071c611e26565b634e487b7160e01b5f52603260045260245ffdfea2646970667358221220e5561576d30a5418c87d82ee2240f67547f6b1417936f5c7bc37d88716f4e9d764736f6c634300081b0033a264697066735822122073bfe942e4720597aa0486c944bd629516d56fb063f83df42b90252e23ad8e2964736f6c634300081b0033",
			"opcodes": "PUSH1 0x80 PUSH1 0x40 MSTORE CALLVALUE DUP1 ISZERO PUSH1 0xE JUMPI PUSH0 PUSH0 REVERT JUMPDEST POP PUSH1 0x40 MLOAD PUSH2 0x37C1 CODESIZE SUB DUP1 PUSH2 0x37C1 DUP4 CODECOPY DUP2 ADD PUSH1 0x40 DUP2 SWAP1 MSTORE PUSH1 0x2B SWAP2 PUSH1 0x94 JUMP JUMPDEST PUSH0 DUP1 SLOAD PUSH1 0x1 PUSH1 0x1 PUSH1 0xA0 SHL SUB NOT AND PUSH1 0x1 PUSH1 0x1 PUSH1 0xA0 SHL SUB DUP4 AND SWAP1 DUP2 OR SWAP1 SWAP2 SSTORE PUSH1 0x40 MLOAD PUSH4 0xE0CB969 PUSH1 0xE3 SHL DUP2 MSTORE ADDRESS PUSH1 0x4 DUP3 ADD MSTORE PUSH4 0x7065CB48 SWAP1 PUSH1 0x24 ADD PUSH0 PUSH1 0x40 MLOAD DUP1 DUP4 SUB DUP2 PUSH0 DUP8 DUP1 EXTCODESIZE ISZERO DUP1 ISZERO PUSH1 0x7A JUMPI PUSH0 PUSH0 REVERT JUMPDEST POP GAS CALL ISZERO DUP1 ISZERO PUSH1 0x8B JUMPI RETURNDATASIZE PUSH0 PUSH0 RETURNDATACOPY RETURNDATASIZE PUSH0 REVERT JUMPDEST POP POP POP POP POP PUSH1 0xBF JUMP JUMPDEST PUSH0 PUSH1 0x20 DUP3 DUP5 SUB SLT ISZERO PUSH1 0xA3 JUMPI PUSH0 PUSH0 REVERT JUMPDEST DUP2 MLOAD PUSH1 0x1 PUSH1 0x1 PUSH1 0xA0 SHL SUB DUP2 AND DUP2 EQ PUSH1 0xB8 JUMPI PUSH0 PUSH0 REVERT JUMPDEST SWAP4 SWAP3 POP POP POP JUMP JUMPDEST PUSH2 0x36F5 DUP1 PUSH2 0xCC PUSH0 CODECOPY PUSH0 RETURN INVALID PUSH1 0x80 PUSH1 0x40 MSTORE CALLVALUE DUP1 ISZERO PUSH2 0xF JUMPI PUSH0 PUSH0 REVERT JUMPDEST POP PUSH1 0x4 CALLDATASIZE LT PUSH2 0x34 JUMPI PUSH0 CALLDATALOAD PUSH1 0xE0 SHR DUP1 PUSH4 0x8C6DC5EC EQ PUSH2 0x38 JUMPI DUP1 PUSH4 0xF4F6C22C EQ PUSH2 0x61 JUMPI JUMPDEST PUSH0 PUSH0 REVERT JUMPDEST PUSH2 0x4B PUSH2 0x46 CALLDATASIZE PUSH1 0x4 PUSH2 0x278 JUMP JUMPDEST PUSH2 0x73 JUMP JUMPDEST PUSH1 0x40 MLOAD PUSH2 0x58 SWAP2 SWAP1 PUSH2 0x2DD JUMP JUMPDEST PUSH1 0x40 MLOAD DUP1 SWAP2 SUB SWAP1 RETURN JUMPDEST PUSH0 SLOAD PUSH2 0x4B SWAP1 PUSH1 0x1 PUSH1 0x1 PUSH1 0xA0 SHL SUB AND DUP2 JUMP JUMPDEST PUSH0 DUP1 SLOAD PUSH1 0x40 MLOAD DUP5 SWAP2 DUP5 SWAP2 PUSH1 0x1 PUSH1 0x1 PUSH1 0xA0 SHL SUB SWAP1 SWAP2 AND SWAP1 PUSH2 0x92 SWAP1 PUSH2 0x1CC JUMP JUMPDEST PUSH2 0x9E SWAP4 SWAP3 SWAP2 SWAP1 PUSH2 0x31F JUMP JUMPDEST PUSH1 0x40 MLOAD DUP1 SWAP2 SUB SWAP1 PUSH0 CREATE DUP1 ISZERO DUP1 ISZERO PUSH2 0xB7 JUMPI RETURNDATASIZE PUSH0 PUSH0 RETURNDATACOPY RETURNDATASIZE PUSH0 REVERT JUMPDEST POP PUSH1 0x40 MLOAD PUSH4 0xE0CB969 PUSH1 0xE3 SHL DUP2 MSTORE SWAP1 SWAP2 POP PUSH1 0x1 PUSH1 0x1 PUSH1 0xA0 SHL SUB DUP3 AND SWAP1 PUSH4 0x7065CB48 SWAP1 PUSH2 0xE7 SWAP1 CALLER SWAP1 PUSH1 0x4 ADD PUSH2 0x2DD JUMP JUMPDEST PUSH0 PUSH1 0x40 MLOAD DUP1 DUP4 SUB DUP2 PUSH0 DUP8 DUP1 EXTCODESIZE ISZERO DUP1 ISZERO PUSH2 0xFE JUMPI PUSH0 PUSH0 REVERT JUMPDEST POP GAS CALL ISZERO DUP1 ISZERO PUSH2 0x110 JUMPI RETURNDATASIZE PUSH0 PUSH0 RETURNDATACOPY RETURNDATASIZE PUSH0 REVERT JUMPDEST POP POP PUSH1 0x40 MLOAD PUSH4 0xE0CB969 PUSH1 0xE3 SHL DUP2 MSTORE PUSH1 0x1 PUSH1 0x1 PUSH1 0xA0 SHL SUB DUP5 AND SWAP3 POP PUSH4 0x7065CB48 SWAP2 POP PUSH2 0x140 SWAP1 ORIGIN SWAP1 PUSH1 0x4 ADD PUSH2 0x2DD JUMP JUMPDEST PUSH0 PUSH1 0x40 MLOAD DUP1 DUP4 SUB DUP2 PUSH0 DUP8 DUP1 EXTCODESIZE ISZERO DUP1 ISZERO PUSH2 0x157 JUMPI PUSH0 PUSH0 REVERT JUMPDEST POP GAS CALL ISZERO DUP1 ISZERO PUSH2 0x169 JUMPI RETURNDATASIZE PUSH0 PUSH0 RETURNDATACOPY RETURNDATASIZE PUSH0 REVERT JUMPDEST POP POP PUSH1 0x40 MLOAD PUSH4 0x1C5F9E7D PUSH1 0xE1 SHL DUP2 MSTORE PUSH1 0x1 PUSH1 0x1 PUSH1 0xA0 SHL SUB DUP5 AND SWAP3 POP PUSH4 0x38BF3CFA SWAP2 POP PUSH2 0x199 SWAP1 ADDRESS SWAP1 PUSH1 0x4 ADD PUSH2 0x2DD JUMP JUMPDEST PUSH0 PUSH1 0x40 MLOAD DUP1 DUP4 SUB DUP2 PUSH0 DUP8 DUP1 EXTCODESIZE ISZERO DUP1 ISZERO PUSH2 0x1B0 JUMPI PUSH0 PUSH0 REVERT JUMPDEST POP GAS CALL ISZERO DUP1 ISZERO PUSH2 0x1C2 JUMPI RETURNDATASIZE PUSH0 PUSH0 RETURNDATACOPY RETURNDATASIZE PUSH0 REVERT JUMPDEST POP POP POP POP SWAP3 SWAP2 POP POP JUMP JUMPDEST PUSH2 0x3363 DUP1 PUSH2 0x35D DUP4 CODECOPY ADD SWAP1 JUMP JUMPDEST PUSH4 0x4E487B71 PUSH1 0xE0 SHL PUSH0 MSTORE PUSH1 0x41 PUSH1 0x4 MSTORE PUSH1 0x24 PUSH0 REVERT JUMPDEST PUSH0 DUP3 PUSH1 0x1F DUP4 ADD SLT PUSH2 0x1FC JUMPI PUSH0 PUSH0 REVERT JUMPDEST DUP2 CALLDATALOAD PUSH8 0xFFFFFFFFFFFFFFFF DUP2 GT ISZERO PUSH2 0x216 JUMPI PUSH2 0x216 PUSH2 0x1D9 JUMP JUMPDEST PUSH1 0x40 MLOAD PUSH1 0x1F DUP3 ADD PUSH1 0x1F NOT SWAP1 DUP2 AND PUSH1 0x3F ADD AND DUP2 ADD PUSH8 0xFFFFFFFFFFFFFFFF DUP2 GT DUP3 DUP3 LT OR ISZERO PUSH2 0x245 JUMPI PUSH2 0x245 PUSH2 0x1D9 JUMP JUMPDEST PUSH1 0x40 MSTORE DUP2 DUP2 MSTORE DUP4 DUP3 ADD PUSH1 0x20 ADD DUP6 LT ISZERO PUSH2 0x25C JUMPI PUSH0 PUSH0 REVERT JUMPDEST DUP2 PUSH1 0x20 DUP6 ADD PUSH1 0x20 DUP4 ADD CALLDATACOPY PUSH0 SWAP2 DUP2 ADD PUSH1 0x20 ADD SWAP2 SWAP1 SWAP2 MSTORE SWAP4 SWAP3 POP POP POP JUMP JUMPDEST PUSH0 PUSH0 PUSH1 0x40 DUP4 DUP6 SUB SLT ISZERO PUSH2 0x289 JUMPI PUSH0 PUSH0 REVERT JUMPDEST DUP3 CALLDATALOAD PUSH8 0xFFFFFFFFFFFFFFFF DUP2 GT ISZERO PUSH2 0x29F JUMPI PUSH0 PUSH0 REVERT JUMPDEST PUSH2 0x2AB DUP6 DUP3 DUP7 ADD PUSH2 0x1ED JUMP JUMPDEST SWAP3 POP POP PUSH1 0x20 DUP4 ADD CALLDATALOAD PUSH8 0xFFFFFFFFFFFFFFFF DUP2 GT ISZERO PUSH2 0x2C7 JUMPI PUSH0 PUSH0 REVERT JUMPDEST PUSH2 0x2D3 DUP6 DUP3 DUP7 ADD PUSH2 0x1ED JUMP JUMPDEST SWAP2 POP POP SWAP3 POP SWAP3 SWAP1 POP JUMP JUMPDEST PUSH1 0x1 PUSH1 0x1 PUSH1 0xA0 SHL SUB SWAP2 SWAP1 SWAP2 AND DUP2 MSTORE PUSH1 0x20 ADD SWAP1 JUMP JUMPDEST PUSH0 DUP2 MLOAD DUP1 DUP5 MSTORE DUP1 PUSH1 0x20 DUP5 ADD PUSH1 0x20 DUP7 ADD MCOPY PUSH0 PUSH1 0x20 DUP3 DUP7 ADD ADD MSTORE PUSH1 0x20 PUSH1 0x1F NOT PUSH1 0x1F DUP4 ADD AND DUP6 ADD ADD SWAP2 POP POP SWAP3 SWAP2 POP POP JUMP JUMPDEST PUSH1 0x60 DUP2 MSTORE PUSH0 PUSH2 0x331 PUSH1 0x60 DUP4 ADD DUP7 PUSH2 0x2F1 JUMP JUMPDEST DUP3 DUP2 SUB PUSH1 0x20 DUP5 ADD MSTORE PUSH2 0x343 DUP2 DUP7 PUSH2 0x2F1 JUMP JUMPDEST SWAP2 POP POP PUSH1 0x1 DUP1 PUSH1 0xA0 SHL SUB DUP4 AND PUSH1 0x40 DUP4 ADD MSTORE SWAP5 SWAP4 POP POP POP POP JUMP INVALID PUSH1 0x80 PUSH1 0x40 MSTORE CALLVALUE DUP1 ISZERO PUSH2 0xF JUMPI PUSH0 PUSH0 REVERT JUMPDEST POP PUSH1 0x40 MLOAD PUSH2 0x3363 CODESIZE SUB DUP1 PUSH2 0x3363 DUP4 CODECOPY DUP2 ADD PUSH1 0x40 DUP2 SWAP1 MSTORE PUSH2 0x2E SWAP2 PUSH2 0x8C4 JUMP JUMPDEST DUP3 DUP3 DUP3 PUSH1 0x1 PUSH1 0x1 PUSH1 0xA0 SHL SUB AND PUSH4 0x6FB7329C PUSH1 0x40 MLOAD DUP2 PUSH4 0xFFFFFFFF AND PUSH1 0xE0 SHL DUP2 MSTORE PUSH1 0x4 ADD PUSH1 0x20 PUSH1 0x40 MLOAD DUP1 DUP4 SUB DUP2 DUP7 GAS STATICCALL ISZERO DUP1 ISZERO PUSH2 0x6C JUMPI RETURNDATASIZE PUSH0 PUSH0 RETURNDATACOPY RETURNDATASIZE PUSH0 REVERT JUMPDEST POP POP POP POP PUSH1 0x40 MLOAD RETURNDATASIZE PUSH1 0x1F NOT PUSH1 0x1F DUP3 ADD AND DUP3 ADD DUP1 PUSH1 0x40 MSTORE POP DUP2 ADD SWAP1 PUSH2 0x90 SWAP2 SWAP1 PUSH2 0x93C JUMP JUMPDEST CALLER DUP1 PUSH2 0xC2 JUMPI PUSH1 0x40 MLOAD PUSH4 0x36030219 PUSH1 0xE2 SHL DUP2 MSTORE ORIGIN PUSH1 0x4 DUP3 ADD MSTORE PUSH0 PUSH1 0x24 DUP3 ADD MSTORE ADDRESS PUSH1 0x44 DUP3 ADD MSTORE PUSH1 0x64 ADD JUMPDEST PUSH1 0x40 MLOAD DUP1 SWAP2 SUB SWAP1 REVERT JUMPDEST PUSH2 0xCD DUP2 PUSH1 0x1 PUSH2 0x52C JUMP JUMPDEST POP PUSH1 0x4 PUSH2 0xDA DUP5 DUP3 PUSH2 0x9E2 JUMP JUMPDEST POP PUSH1 0x5 PUSH2 0xE7 DUP4 DUP3 PUSH2 0x9E2 JUMP JUMPDEST POP PUSH1 0x6 DUP1 SLOAD PUSH1 0x1 PUSH1 0x1 PUSH1 0xA0 SHL SUB NOT AND PUSH1 0x1 PUSH1 0x1 PUSH1 0xA0 SHL SUB DUP4 AND SWAP1 DUP2 OR SWAP1 SWAP2 SSTORE PUSH1 0x40 DUP1 MLOAD PUSH4 0x604A6FA9 PUSH1 0xE0 SHL DUP2 MSTORE SWAP1 MLOAD PUSH3 0x1B207 SWAP3 SWAP2 PUSH4 0x604A6FA9 SWAP2 PUSH1 0x4 DUP1 DUP4 ADD SWAP3 PUSH1 0x20 SWAP3 SWAP2 SWAP1 DUP3 SWAP1 SUB ADD DUP2 PUSH0 DUP8 GAS CALL ISZERO DUP1 ISZERO PUSH2 0x145 JUMPI RETURNDATASIZE PUSH0 PUSH0 RETURNDATACOPY RETURNDATASIZE PUSH0 REVERT JUMPDEST POP POP POP POP PUSH1 0x40 MLOAD RETURNDATASIZE PUSH1 0x1F NOT PUSH1 0x1F DUP3 ADD AND DUP3 ADD DUP1 PUSH1 0x40 MSTORE POP DUP2 ADD SWAP1 PUSH2 0x169 SWAP2 SWAP1 PUSH2 0xAB7 JUMP JUMPDEST PUSH2 0x173 SWAP2 SWAP1 PUSH2 0xAE4 JUMP JUMPDEST PUSH1 0x1 PUSH1 0x1 PUSH1 0x40 SHL SUB AND PUSH1 0x7 DUP2 SWAP1 SSTORE POP PUSH0 PUSH1 0xA PUSH1 0x7 SLOAD PUSH1 0x6 PUSH0 SWAP1 SLOAD SWAP1 PUSH2 0x100 EXP SWAP1 DIV PUSH1 0x1 PUSH1 0x1 PUSH1 0xA0 SHL SUB AND PUSH1 0x1 PUSH1 0x1 PUSH1 0xA0 SHL SUB AND PUSH4 0x604A6FA9 PUSH1 0x40 MLOAD DUP2 PUSH4 0xFFFFFFFF AND PUSH1 0xE0 SHL DUP2 MSTORE PUSH1 0x4 ADD PUSH1 0x20 PUSH1 0x40 MLOAD DUP1 DUP4 SUB DUP2 PUSH0 DUP8 GAS CALL ISZERO DUP1 ISZERO PUSH2 0x1D9 JUMPI RETURNDATASIZE PUSH0 PUSH0 RETURNDATACOPY RETURNDATASIZE PUSH0 REVERT JUMPDEST POP POP POP POP PUSH1 0x40 MLOAD RETURNDATASIZE PUSH1 0x1F NOT PUSH1 0x1F DUP3 ADD AND DUP3 ADD DUP1 PUSH1 0x40 MSTORE POP DUP2 ADD SWAP1 PUSH2 0x1FD SWAP2 SWAP1 PUSH2 0xAB7 JUMP JUMPDEST PUSH1 0x1 PUSH1 0x1 PUSH1 0x40 SHL SUB AND PUSH2 0x210 SWAP2 SWAP1 PUSH2 0xB12 JUMP JUMPDEST PUSH2 0x21A SWAP2 SWAP1 PUSH2 0xB39 JUMP JUMPDEST SWAP1 POP PUSH2 0x23B ORIGIN PUSH2 0x22C PUSH1 0x12 PUSH1 0xA PUSH2 0xC31 JUMP JUMPDEST PUSH2 0x236 SWAP1 DUP5 PUSH2 0xC3F JUMP JUMPDEST PUSH2 0x57F JUMP JUMPDEST PUSH2 0x285 PUSH20 0x24F0154C1DCE548ADF15DA2098FDD8B8A3B8151D PUSH2 0x25F PUSH1 0x12 PUSH1 0xA PUSH2 0xC31 JUMP JUMPDEST PUSH2 0x26A SWAP1 PUSH1 0x1 PUSH2 0xC3F JUMP JUMPDEST PUSH1 0x1 PUSH1 0x1 PUSH1 0xA0 SHL SUB SWAP1 SWAP2 AND PUSH0 SWAP1 DUP2 MSTORE PUSH1 0x8 PUSH1 0x20 MSTORE PUSH1 0x40 SWAP1 KECCAK256 SSTORE JUMP JUMPDEST POP POP PUSH1 0x9 DUP1 SLOAD PUSH1 0x1 PUSH1 0x1 PUSH1 0xA0 SHL SUB NOT AND PUSH1 0x1 PUSH1 0x1 PUSH1 0xA0 SHL SUB DUP6 AND SWAP1 DUP2 OR SWAP1 SWAP2 SSTORE PUSH1 0x40 MLOAD PUSH4 0x68F9C787 PUSH1 0xE0 SHL DUP2 MSTORE SWAP1 SWAP3 POP PUSH4 0x68F9C787 SWAP2 POP PUSH2 0x2CC SWAP1 DUP7 SWAP1 DUP7 SWAP1 PUSH1 0x4 ADD PUSH2 0xC84 JUMP JUMPDEST PUSH2 0x160 PUSH1 0x40 MLOAD DUP1 DUP4 SUB DUP2 PUSH0 DUP8 GAS CALL ISZERO DUP1 ISZERO PUSH2 0x2E9 JUMPI RETURNDATASIZE PUSH0 PUSH0 RETURNDATACOPY RETURNDATASIZE PUSH0 REVERT JUMPDEST POP POP POP POP PUSH1 0x40 MLOAD RETURNDATASIZE PUSH1 0x1F NOT PUSH1 0x1F DUP3 ADD AND DUP3 ADD DUP1 PUSH1 0x40 MSTORE POP DUP2 ADD SWAP1 PUSH2 0x30D SWAP2 SWAP1 PUSH2 0xCBC JUMP JUMPDEST DUP1 MLOAD PUSH1 0xB DUP1 SLOAD PUSH1 0x1 PUSH1 0x1 PUSH1 0xA0 SHL SUB NOT AND PUSH1 0x1 PUSH1 0x1 PUSH1 0xA0 SHL SUB SWAP3 DUP4 AND OR SWAP1 SSTORE PUSH1 0x20 DUP3 ADD MLOAD PUSH1 0xC DUP1 SLOAD PUSH1 0x40 DUP6 ADD MLOAD SWAP3 DUP5 AND PUSH1 0x1 PUSH1 0x1 PUSH1 0xE0 SHL SUB NOT SWAP2 DUP3 AND OR PUSH1 0x1 PUSH1 0xA0 SHL PUSH1 0x1 PUSH1 0x1 PUSH1 0x40 SHL SUB SWAP5 DUP6 AND MUL OR SWAP1 SWAP2 SSTORE PUSH1 0x60 DUP5 ADD MLOAD PUSH1 0xD DUP1 SLOAD PUSH1 0x80 DUP8 ADD MLOAD SWAP3 DUP6 AND SWAP4 AND SWAP3 SWAP1 SWAP3 OR PUSH9 0x10000000000000000 SWAP2 SWAP1 SWAP5 AND DUP2 MUL SWAP4 SWAP1 SWAP4 OR SWAP1 SSTORE PUSH1 0xA0 DUP4 ADD MLOAD PUSH1 0xE DUP1 SLOAD PUSH1 0xC0 DUP7 ADD MLOAD PUSH1 0xE0 DUP8 ADD MLOAD SWAP4 DUP6 AND PUSH1 0x1 PUSH1 0x1 PUSH1 0x80 SHL SUB NOT SWAP1 SWAP3 AND SWAP2 SWAP1 SWAP2 OR SWAP1 DUP5 AND SWAP1 SWAP5 MUL SWAP4 SWAP1 SWAP4 OR PUSH1 0x1 PUSH1 0x80 SHL PUSH1 0x1 PUSH1 0xC0 SHL SUB NOT AND PUSH1 0x1 PUSH1 0x80 SHL SWAP2 SWAP1 SWAP3 AND MUL OR SWAP1 SSTORE PUSH2 0x3E2 PUSH1 0xA DUP4 PUSH1 0x3 PUSH2 0x70D JUMP JUMPDEST POP POP PUSH1 0xD SLOAD PUSH1 0x40 MLOAD PUSH4 0xE0CB969 PUSH1 0xE3 SHL DUP2 MSTORE ADDRESS PUSH1 0x4 DUP3 ADD MSTORE PUSH9 0x10000000000000000 SWAP1 SWAP2 DIV PUSH1 0x1 PUSH1 0x1 PUSH1 0xA0 SHL SUB AND SWAP2 POP PUSH4 0x7065CB48 SWAP1 PUSH1 0x24 ADD PUSH0 PUSH1 0x40 MLOAD DUP1 DUP4 SUB DUP2 PUSH0 DUP8 DUP1 EXTCODESIZE ISZERO DUP1 ISZERO PUSH2 0x432 JUMPI PUSH0 PUSH0 REVERT JUMPDEST POP GAS CALL ISZERO DUP1 ISZERO PUSH2 0x444 JUMPI RETURNDATASIZE PUSH0 PUSH0 RETURNDATACOPY RETURNDATASIZE PUSH0 REVERT JUMPDEST POP POP POP POP PUSH1 0xB PUSH1 0x2 ADD PUSH1 0x8 SWAP1 SLOAD SWAP1 PUSH2 0x100 EXP SWAP1 DIV PUSH1 0x1 PUSH1 0x1 PUSH1 0xA0 SHL SUB AND PUSH1 0x1 PUSH1 0x1 PUSH1 0xA0 SHL SUB AND PUSH4 0xA4566950 PUSH1 0x40 MLOAD DUP2 PUSH4 0xFFFFFFFF AND PUSH1 0xE0 SHL DUP2 MSTORE PUSH1 0x4 ADD PUSH1 0x60 PUSH1 0x40 MLOAD DUP1 DUP4 SUB DUP2 DUP7 GAS STATICCALL ISZERO DUP1 ISZERO PUSH2 0x49C JUMPI RETURNDATASIZE PUSH0 PUSH0 RETURNDATACOPY RETURNDATASIZE PUSH0 REVERT JUMPDEST POP POP POP POP PUSH1 0x40 MLOAD RETURNDATASIZE PUSH1 0x1F NOT PUSH1 0x1F DUP3 ADD AND DUP3 ADD DUP1 PUSH1 0x40 MSTORE POP DUP2 ADD SWAP1 PUSH2 0x4C0 SWAP2 SWAP1 PUSH2 0xDD2 JUMP JUMPDEST MLOAD PUSH1 0x40 MLOAD PUSH4 0xE0CB969 PUSH1 0xE3 SHL DUP2 MSTORE ADDRESS PUSH1 0x4 DUP3 ADD MSTORE PUSH1 0x1 PUSH1 0x1 PUSH1 0xA0 SHL SUB SWAP1 SWAP2 AND SWAP1 PUSH4 0x7065CB48 SWAP1 PUSH1 0x24 ADD PUSH0 PUSH1 0x40 MLOAD DUP1 DUP4 SUB DUP2 PUSH0 DUP8 DUP1 EXTCODESIZE ISZERO DUP1 ISZERO PUSH2 0x500 JUMPI PUSH0 PUSH0 REVERT JUMPDEST POP GAS CALL ISZERO DUP1 ISZERO PUSH2 0x512 JUMPI RETURNDATASIZE PUSH0 PUSH0 RETURNDATACOPY RETURNDATASIZE PUSH0 REVERT JUMPDEST POP POP POP POP PUSH2 0x524 PUSH2 0x58E PUSH1 0x20 SHL PUSH1 0x20 SHR JUMP JUMPDEST POP POP POP PUSH2 0xE37 JUMP JUMPDEST PUSH1 0x1 PUSH1 0x1 PUSH1 0xA0 SHL SUB DUP3 AND PUSH0 DUP2 DUP2 MSTORE PUSH1 0x20 DUP2 SWAP1 MSTORE PUSH1 0x40 DUP1 DUP3 KECCAK256 DUP1 SLOAD PUSH1 0xFF NOT AND DUP6 ISZERO ISZERO SWAP1 DUP2 OR SWAP1 SWAP2 SSTORE SWAP1 MLOAD SWAP1 SWAP3 SWAP2 PUSH32 0x6BFA7E860C3E9BF67B810CB88276B19B27C972812BAC04793D369B59A1183A83 SWAP2 LOG3 POP POP JUMP JUMPDEST PUSH2 0x58A PUSH0 DUP4 DUP4 PUSH2 0x5CD JUMP JUMPDEST POP POP JUMP JUMPDEST PUSH2 0x59A PUSH1 0x12 PUSH1 0xA PUSH2 0xC31 JUMP JUMPDEST PUSH1 0x7 SLOAD PUSH2 0x5A7 SWAP2 SWAP1 PUSH2 0xC3F JUMP JUMPDEST PUSH1 0x3 SLOAD LT ISZERO PUSH2 0x5CB JUMPI PUSH2 0x5CB ADDRESS PUSH2 0x5C0 PUSH1 0x12 PUSH1 0xA PUSH2 0xC31 JUMP JUMPDEST PUSH2 0x236 SWAP1 PUSH1 0x1 PUSH2 0xC3F JUMP JUMPDEST JUMP JUMPDEST PUSH1 0x1 PUSH1 0x1 PUSH1 0xA0 SHL SUB DUP4 AND PUSH2 0x5F7 JUMPI DUP1 PUSH1 0x3 PUSH0 DUP3 DUP3 SLOAD PUSH2 0x5EC SWAP2 SWAP1 PUSH2 0xE24 JUMP JUMPDEST SWAP1 SWAP2 SSTORE POP PUSH2 0x681 SWAP1 POP JUMP JUMPDEST PUSH1 0x1 PUSH1 0x1 PUSH1 0xA0 SHL SUB DUP4 AND PUSH0 SWAP1 DUP2 MSTORE PUSH1 0x1 PUSH1 0x20 MSTORE PUSH1 0x40 SWAP1 KECCAK256 SLOAD DUP2 DUP2 LT ISZERO PUSH2 0x663 JUMPI PUSH1 0x40 MLOAD PUSH4 0xF7D0BBD PUSH1 0xE2 SHL DUP2 MSTORE ORIGIN PUSH1 0x4 DUP3 ADD MSTORE CALLER PUSH1 0x24 DUP3 ADD MSTORE PUSH1 0x1 PUSH1 0x1 PUSH1 0xA0 SHL SUB DUP1 DUP7 AND PUSH1 0x44 DUP4 ADD MSTORE DUP5 AND PUSH1 0x64 DUP3 ADD MSTORE ADDRESS PUSH1 0x84 DUP3 ADD MSTORE PUSH1 0xA4 DUP2 ADD DUP3 SWAP1 MSTORE PUSH1 0xC4 DUP2 ADD DUP4 SWAP1 MSTORE PUSH1 0xE4 ADD PUSH2 0xB9 JUMP JUMPDEST PUSH1 0x1 PUSH1 0x1 PUSH1 0xA0 SHL SUB DUP5 AND PUSH0 SWAP1 DUP2 MSTORE PUSH1 0x1 PUSH1 0x20 MSTORE PUSH1 0x40 SWAP1 KECCAK256 SWAP1 DUP3 SWAP1 SUB SWAP1 SSTORE JUMPDEST PUSH1 0x1 PUSH1 0x1 PUSH1 0xA0 SHL SUB DUP3 AND PUSH2 0x69D JUMPI PUSH1 0x3 DUP1 SLOAD DUP3 SWAP1 SUB SWAP1 SSTORE PUSH2 0x6BB JUMP JUMPDEST PUSH1 0x1 PUSH1 0x1 PUSH1 0xA0 SHL SUB DUP3 AND PUSH0 SWAP1 DUP2 MSTORE PUSH1 0x1 PUSH1 0x20 MSTORE PUSH1 0x40 SWAP1 KECCAK256 DUP1 SLOAD DUP3 ADD SWAP1 SSTORE JUMPDEST DUP2 PUSH1 0x1 PUSH1 0x1 PUSH1 0xA0 SHL SUB AND DUP4 PUSH1 0x1 PUSH1 0x1 PUSH1 0xA0 SHL SUB AND PUSH32 0xDDF252AD1BE2C89B69C2B068FC378DAA952BA7F163C4A11628F55A4DF523B3EF DUP4 PUSH1 0x40 MLOAD PUSH2 0x700 SWAP2 DUP2 MSTORE PUSH1 0x20 ADD SWAP1 JUMP JUMPDEST PUSH1 0x40 MLOAD DUP1 SWAP2 SUB SWAP1 LOG3 POP POP POP JUMP JUMPDEST PUSH1 0x1 DUP4 ADD SWAP2 DUP4 SWAP1 DUP3 ISZERO PUSH2 0x7A1 JUMPI SWAP2 PUSH1 0x20 MUL DUP3 ADD PUSH0 JUMPDEST DUP4 DUP3 GT ISZERO PUSH2 0x76C JUMPI DUP4 MLOAD DUP4 DUP3 PUSH2 0x100 EXP DUP2 SLOAD DUP2 PUSH1 0x1 PUSH1 0x1 PUSH1 0x40 SHL SUB MUL NOT AND SWAP1 DUP4 PUSH1 0x1 PUSH1 0x1 PUSH1 0x40 SHL SUB AND MUL OR SWAP1 SSTORE POP SWAP3 PUSH1 0x20 ADD SWAP3 PUSH1 0x8 ADD PUSH1 0x20 DUP2 PUSH1 0x7 ADD DIV SWAP3 DUP4 ADD SWAP3 PUSH1 0x1 SUB MUL PUSH2 0x722 JUMP JUMPDEST DUP1 ISZERO PUSH2 0x79F JUMPI DUP3 DUP2 PUSH2 0x100 EXP DUP2 SLOAD SWAP1 PUSH1 0x1 PUSH1 0x1 PUSH1 0x40 SHL SUB MUL NOT AND SWAP1 SSTORE PUSH1 0x8 ADD PUSH1 0x20 DUP2 PUSH1 0x7 ADD DIV SWAP3 DUP4 ADD SWAP3 PUSH1 0x1 SUB MUL PUSH2 0x76C JUMP JUMPDEST POP JUMPDEST POP PUSH2 0x7AD SWAP3 SWAP2 POP PUSH2 0x7B1 JUMP JUMPDEST POP SWAP1 JUMP JUMPDEST JUMPDEST DUP1 DUP3 GT ISZERO PUSH2 0x7AD JUMPI PUSH0 DUP2 SSTORE PUSH1 0x1 ADD PUSH2 0x7B2 JUMP JUMPDEST PUSH4 0x4E487B71 PUSH1 0xE0 SHL PUSH0 MSTORE PUSH1 0x41 PUSH1 0x4 MSTORE PUSH1 0x24 PUSH0 REVERT JUMPDEST PUSH1 0x40 MLOAD PUSH2 0x100 DUP2 ADD PUSH1 0x1 PUSH1 0x1 PUSH1 0x40 SHL SUB DUP2 GT DUP3 DUP3 LT OR ISZERO PUSH2 0x7FC JUMPI PUSH2 0x7FC PUSH2 0x7C5 JUMP JUMPDEST PUSH1 0x40 MSTORE SWAP1 JUMP JUMPDEST PUSH1 0x40 MLOAD PUSH1 0x60 DUP2 ADD PUSH1 0x1 PUSH1 0x1 PUSH1 0x40 SHL SUB DUP2 GT DUP3 DUP3 LT OR ISZERO PUSH2 0x7FC JUMPI PUSH2 0x7FC PUSH2 0x7C5 JUMP JUMPDEST PUSH0 DUP3 PUSH1 0x1F DUP4 ADD SLT PUSH2 0x833 JUMPI PUSH0 PUSH0 REVERT JUMPDEST DUP2 MLOAD PUSH1 0x1 PUSH1 0x1 PUSH1 0x40 SHL SUB DUP2 GT ISZERO PUSH2 0x84C JUMPI PUSH2 0x84C PUSH2 0x7C5 JUMP JUMPDEST PUSH1 0x40 MLOAD PUSH1 0x1F DUP3 ADD PUSH1 0x1F NOT SWAP1 DUP2 AND PUSH1 0x3F ADD AND DUP2 ADD PUSH1 0x1 PUSH1 0x1 PUSH1 0x40 SHL SUB DUP2 GT DUP3 DUP3 LT OR ISZERO PUSH2 0x87A JUMPI PUSH2 0x87A PUSH2 0x7C5 JUMP JUMPDEST PUSH1 0x40 MSTORE DUP2 DUP2 MSTORE DUP4 DUP3 ADD PUSH1 0x20 ADD DUP6 LT ISZERO PUSH2 0x891 JUMPI PUSH0 PUSH0 REVERT JUMPDEST DUP2 PUSH1 0x20 DUP6 ADD PUSH1 0x20 DUP4 ADD MCOPY PUSH0 SWAP2 DUP2 ADD PUSH1 0x20 ADD SWAP2 SWAP1 SWAP2 MSTORE SWAP4 SWAP3 POP POP POP JUMP JUMPDEST PUSH1 0x1 PUSH1 0x1 PUSH1 0xA0 SHL SUB DUP2 AND DUP2 EQ PUSH2 0x8C1 JUMPI PUSH0 PUSH0 REVERT JUMPDEST POP JUMP JUMPDEST PUSH0 PUSH0 PUSH0 PUSH1 0x60 DUP5 DUP7 SUB SLT ISZERO PUSH2 0x8D6 JUMPI PUSH0 PUSH0 REVERT JUMPDEST DUP4 MLOAD PUSH1 0x1 PUSH1 0x1 PUSH1 0x40 SHL SUB DUP2 GT ISZERO PUSH2 0x8EB JUMPI PUSH0 PUSH0 REVERT JUMPDEST PUSH2 0x8F7 DUP7 DUP3 DUP8 ADD PUSH2 0x824 JUMP JUMPDEST PUSH1 0x20 DUP7 ADD MLOAD SWAP1 SWAP5 POP SWAP1 POP PUSH1 0x1 PUSH1 0x1 PUSH1 0x40 SHL SUB DUP2 GT ISZERO PUSH2 0x914 JUMPI PUSH0 PUSH0 REVERT JUMPDEST PUSH2 0x920 DUP7 DUP3 DUP8 ADD PUSH2 0x824 JUMP JUMPDEST SWAP3 POP POP PUSH1 0x40 DUP5 ADD MLOAD PUSH2 0x931 DUP2 PUSH2 0x8AD JUMP JUMPDEST DUP1 SWAP2 POP POP SWAP3 POP SWAP3 POP SWAP3 JUMP JUMPDEST PUSH0 PUSH1 0x20 DUP3 DUP5 SUB SLT ISZERO PUSH2 0x94C JUMPI PUSH0 PUSH0 REVERT JUMPDEST DUP2 MLOAD PUSH2 0x957 DUP2 PUSH2 0x8AD JUMP JUMPDEST SWAP4 SWAP3 POP POP POP JUMP JUMPDEST PUSH1 0x1 DUP2 DUP2 SHR SWAP1 DUP3 AND DUP1 PUSH2 0x972 JUMPI PUSH1 0x7F DUP3 AND SWAP2 POP JUMPDEST PUSH1 0x20 DUP3 LT DUP2 SUB PUSH2 0x990 JUMPI PUSH4 0x4E487B71 PUSH1 0xE0 SHL PUSH0 MSTORE PUSH1 0x22 PUSH1 0x4 MSTORE PUSH1 0x24 PUSH0 REVERT JUMPDEST POP SWAP2 SWAP1 POP JUMP JUMPDEST PUSH1 0x1F DUP3 GT ISZERO PUSH2 0x9DD JUMPI DUP1 PUSH0 MSTORE PUSH1 0x20 PUSH0 KECCAK256 PUSH1 0x1F DUP5 ADD PUSH1 0x5 SHR DUP2 ADD PUSH1 0x20 DUP6 LT ISZERO PUSH2 0x9BB JUMPI POP DUP1 JUMPDEST PUSH1 0x1F DUP5 ADD PUSH1 0x5 SHR DUP3 ADD SWAP2 POP JUMPDEST DUP2 DUP2 LT ISZERO PUSH2 0x9DA JUMPI PUSH0 DUP2 SSTORE PUSH1 0x1 ADD PUSH2 0x9C7 JUMP JUMPDEST POP POP JUMPDEST POP POP POP JUMP JUMPDEST DUP2 MLOAD PUSH1 0x1 PUSH1 0x1 PUSH1 0x40 SHL SUB DUP2 GT ISZERO PUSH2 0x9FB JUMPI PUSH2 0x9FB PUSH2 0x7C5 JUMP JUMPDEST PUSH2 0xA0F DUP2 PUSH2 0xA09 DUP5 SLOAD PUSH2 0x95E JUMP JUMPDEST DUP5 PUSH2 0x996 JUMP JUMPDEST PUSH1 0x20 PUSH1 0x1F DUP3 GT PUSH1 0x1 DUP2 EQ PUSH2 0xA41 JUMPI PUSH0 DUP4 ISZERO PUSH2 0xA2A JUMPI POP DUP5 DUP3 ADD MLOAD JUMPDEST PUSH0 NOT PUSH1 0x3 DUP6 SWAP1 SHL SHR NOT AND PUSH1 0x1 DUP5 SWAP1 SHL OR DUP5 SSTORE PUSH2 0x9DA JUMP JUMPDEST PUSH0 DUP5 DUP2 MSTORE PUSH1 0x20 DUP2 KECCAK256 PUSH1 0x1F NOT DUP6 AND SWAP2 JUMPDEST DUP3 DUP2 LT ISZERO PUSH2 0xA70 JUMPI DUP8 DUP6 ADD MLOAD DUP3 SSTORE PUSH1 0x20 SWAP5 DUP6 ADD SWAP5 PUSH1 0x1 SWAP1 SWAP3 ADD SWAP2 ADD PUSH2 0xA50 JUMP JUMPDEST POP DUP5 DUP3 LT ISZERO PUSH2 0xA8D JUMPI DUP7 DUP5 ADD MLOAD PUSH0 NOT PUSH1 0x3 DUP8 SWAP1 SHL PUSH1 0xF8 AND SHR NOT AND DUP2 SSTORE JUMPDEST POP POP POP POP PUSH1 0x1 SWAP1 DUP2 SHL ADD SWAP1 SSTORE POP JUMP JUMPDEST DUP1 MLOAD PUSH1 0x1 PUSH1 0x1 PUSH1 0x40 SHL SUB DUP2 AND DUP2 EQ PUSH2 0xAB2 JUMPI PUSH0 PUSH0 REVERT JUMPDEST SWAP2 SWAP1 POP JUMP JUMPDEST PUSH0 PUSH1 0x20 DUP3 DUP5 SUB SLT ISZERO PUSH2 0xAC7 JUMPI PUSH0 PUSH0 REVERT JUMPDEST PUSH2 0x957 DUP3 PUSH2 0xA9C JUMP JUMPDEST PUSH4 0x4E487B71 PUSH1 0xE0 SHL PUSH0 MSTORE PUSH1 0x12 PUSH1 0x4 MSTORE PUSH1 0x24 PUSH0 REVERT JUMPDEST PUSH0 PUSH1 0x1 PUSH1 0x1 PUSH1 0x40 SHL SUB DUP4 AND DUP1 PUSH2 0xAFC JUMPI PUSH2 0xAFC PUSH2 0xAD0 JUMP JUMPDEST PUSH1 0x1 PUSH1 0x1 PUSH1 0x40 SHL SUB SWAP3 SWAP1 SWAP3 AND SWAP2 SWAP1 SWAP2 MOD SWAP3 SWAP2 POP POP JUMP JUMPDEST PUSH0 DUP3 PUSH2 0xB20 JUMPI PUSH2 0xB20 PUSH2 0xAD0 JUMP JUMPDEST POP MOD SWAP1 JUMP JUMPDEST PUSH4 0x4E487B71 PUSH1 0xE0 SHL PUSH0 MSTORE PUSH1 0x11 PUSH1 0x4 MSTORE PUSH1 0x24 PUSH0 REVERT JUMPDEST PUSH0 DUP3 PUSH2 0xB47 JUMPI PUSH2 0xB47 PUSH2 0xAD0 JUMP JUMPDEST POP DIV SWAP1 JUMP JUMPDEST PUSH1 0x1 DUP2 JUMPDEST PUSH1 0x1 DUP5 GT ISZERO PUSH2 0xB87 JUMPI DUP1 DUP6 DIV DUP2 GT ISZERO PUSH2 0xB6B JUMPI PUSH2 0xB6B PUSH2 0xB25 JUMP JUMPDEST PUSH1 0x1 DUP5 AND ISZERO PUSH2 0xB79 JUMPI SWAP1 DUP2 MUL SWAP1 JUMPDEST PUSH1 0x1 SWAP4 SWAP1 SWAP4 SHR SWAP3 DUP1 MUL PUSH2 0xB50 JUMP JUMPDEST SWAP4 POP SWAP4 SWAP2 POP POP JUMP JUMPDEST PUSH0 DUP3 PUSH2 0xB9D JUMPI POP PUSH1 0x1 PUSH2 0xC2B JUMP JUMPDEST DUP2 PUSH2 0xBA9 JUMPI POP PUSH0 PUSH2 0xC2B JUMP JUMPDEST DUP2 PUSH1 0x1 DUP2 EQ PUSH2 0xBBF JUMPI PUSH1 0x2 DUP2 EQ PUSH2 0xBC9 JUMPI PUSH2 0xBE5 JUMP JUMPDEST PUSH1 0x1 SWAP2 POP POP PUSH2 0xC2B JUMP JUMPDEST PUSH1 0xFF DUP5 GT ISZERO PUSH2 0xBDA JUMPI PUSH2 0xBDA PUSH2 0xB25 JUMP JUMPDEST POP POP PUSH1 0x1 DUP3 SHL PUSH2 0xC2B JUMP JUMPDEST POP PUSH1 0x20 DUP4 LT PUSH2 0x133 DUP4 LT AND PUSH1 0x4E DUP5 LT PUSH1 0xB DUP5 LT AND OR ISZERO PUSH2 0xC08 JUMPI POP DUP2 DUP2 EXP PUSH2 0xC2B JUMP JUMPDEST PUSH2 0xC14 PUSH0 NOT DUP5 DUP5 PUSH2 0xB4C JUMP JUMPDEST DUP1 PUSH0 NOT DIV DUP3 GT ISZERO PUSH2 0xC27 JUMPI PUSH2 0xC27 PUSH2 0xB25 JUMP JUMPDEST MUL SWAP1 POP JUMPDEST SWAP3 SWAP2 POP POP JUMP JUMPDEST PUSH0 PUSH2 0x957 PUSH1 0xFF DUP5 AND DUP4 PUSH2 0xB8F JUMP JUMPDEST DUP1 DUP3 MUL DUP2 ISZERO DUP3 DUP3 DIV DUP5 EQ OR PUSH2 0xC2B JUMPI PUSH2 0xC2B PUSH2 0xB25 JUMP JUMPDEST PUSH0 DUP2 MLOAD DUP1 DUP5 MSTORE DUP1 PUSH1 0x20 DUP5 ADD PUSH1 0x20 DUP7 ADD MCOPY PUSH0 PUSH1 0x20 DUP3 DUP7 ADD ADD MSTORE PUSH1 0x20 PUSH1 0x1F NOT PUSH1 0x1F DUP4 ADD AND DUP6 ADD ADD SWAP2 POP POP SWAP3 SWAP2 POP POP JUMP JUMPDEST PUSH1 0x40 DUP2 MSTORE PUSH0 PUSH2 0xC96 PUSH1 0x40 DUP4 ADD DUP6 PUSH2 0xC56 JUMP JUMPDEST DUP3 DUP2 SUB PUSH1 0x20 DUP5 ADD MSTORE PUSH2 0xCA8 DUP2 DUP6 PUSH2 0xC56 JUMP JUMPDEST SWAP6 SWAP5 POP POP POP POP POP JUMP JUMPDEST DUP1 MLOAD PUSH2 0xAB2 DUP2 PUSH2 0x8AD JUMP JUMPDEST PUSH0 PUSH0 DUP3 DUP5 SUB PUSH2 0x160 DUP2 SLT ISZERO PUSH2 0xCCF JUMPI PUSH0 PUSH0 REVERT JUMPDEST DUP5 PUSH1 0x1F DUP6 ADD SLT PUSH2 0xCDD JUMPI PUSH0 PUSH0 REVERT JUMPDEST PUSH2 0xCE5 PUSH2 0x802 JUMP JUMPDEST DUP1 PUSH1 0x60 DUP7 ADD DUP8 DUP2 GT ISZERO PUSH2 0xCF6 JUMPI PUSH0 PUSH0 REVERT JUMPDEST DUP7 JUMPDEST DUP2 DUP2 LT ISZERO PUSH2 0xD17 JUMPI PUSH2 0xD09 DUP2 PUSH2 0xA9C JUMP JUMPDEST DUP5 MSTORE PUSH1 0x20 SWAP4 DUP5 ADD SWAP4 ADD PUSH2 0xCF8 JUMP JUMPDEST POP DUP2 SWAP6 POP PUSH0 SWAP3 POP PUSH2 0x100 PUSH1 0x5F NOT DUP6 ADD SLT ISZERO PUSH2 0xD30 JUMPI PUSH0 PUSH0 REVERT JUMPDEST PUSH2 0xD38 PUSH2 0x7D9 JUMP JUMPDEST SWAP3 POP DUP1 MLOAD SWAP4 POP POP POP PUSH2 0xD49 DUP3 PUSH2 0x8AD JUMP JUMPDEST DUP2 DUP2 MSTORE PUSH2 0xD58 PUSH1 0x80 DUP7 ADD PUSH2 0xCB1 JUMP JUMPDEST PUSH1 0x20 DUP3 ADD MSTORE PUSH2 0xD69 PUSH1 0xA0 DUP7 ADD PUSH2 0xA9C JUMP JUMPDEST PUSH1 0x40 DUP3 ADD MSTORE PUSH2 0xD7A PUSH1 0xC0 DUP7 ADD PUSH2 0xA9C JUMP JUMPDEST PUSH1 0x60 DUP3 ADD MSTORE PUSH2 0xD8B PUSH1 0xE0 DUP7 ADD PUSH2 0xCB1 JUMP JUMPDEST PUSH1 0x80 DUP3 ADD MSTORE PUSH2 0xD9D PUSH2 0x100 DUP7 ADD PUSH2 0xA9C JUMP JUMPDEST PUSH1 0xA0 DUP3 ADD MSTORE PUSH2 0xDAF PUSH2 0x120 DUP7 ADD PUSH2 0xA9C JUMP JUMPDEST PUSH1 0xC0 DUP3 ADD MSTORE PUSH2 0xDC1 PUSH2 0x140 DUP7 ADD PUSH2 0xA9C JUMP JUMPDEST PUSH1 0xE0 DUP3 ADD MSTORE DUP1 SWAP3 POP POP POP SWAP3 POP SWAP3 SWAP1 POP JUMP JUMPDEST PUSH0 PUSH1 0x60 DUP3 DUP5 SUB SLT DUP1 ISZERO PUSH2 0xDE3 JUMPI PUSH0 PUSH0 REVERT JUMPDEST POP PUSH2 0xDEC PUSH2 0x802 JUMP JUMPDEST DUP3 MLOAD PUSH2 0xDF7 DUP2 PUSH2 0x8AD JUMP JUMPDEST DUP2 MSTORE PUSH1 0x20 DUP4 ADD MLOAD PUSH2 0xE07 DUP2 PUSH2 0x8AD JUMP JUMPDEST PUSH1 0x20 DUP3 ADD MSTORE PUSH2 0xE18 PUSH1 0x40 DUP5 ADD PUSH2 0xA9C JUMP JUMPDEST PUSH1 0x40 DUP3 ADD MSTORE SWAP4 SWAP3 POP POP POP JUMP JUMPDEST DUP1 DUP3 ADD DUP1 DUP3 GT ISZERO PUSH2 0xC2B JUMPI PUSH2 0xC2B PUSH2 0xB25 JUMP JUMPDEST PUSH2 0x251F DUP1 PUSH2 0xE44 PUSH0 CODECOPY PUSH0 RETURN INVALID PUSH1 0x80 PUSH1 0x40 MSTORE CALLVALUE DUP1 ISZERO PUSH2 0xF JUMPI PUSH0 PUSH0 REVERT JUMPDEST POP PUSH1 0x4 CALLDATASIZE LT PUSH2 0x1D6 JUMPI PUSH0 CALLDATALOAD PUSH1 0xE0 SHR DUP1 PUSH4 0x70A08231 GT PUSH2 0x101 JUMPI DUP1 PUSH4 0xC34686E5 GT PUSH2 0x9A JUMPI DUP1 PUSH4 0xC34686E5 EQ PUSH2 0x4BB JUMPI DUP1 PUSH4 0xC584460D EQ PUSH2 0x4CE JUMPI DUP1 PUSH4 0xC6BF2B65 EQ PUSH2 0x4D6 JUMPI DUP1 PUSH4 0xD3DC2A0F EQ PUSH2 0x4E9 JUMPI DUP1 PUSH4 0xD5ABEB01 EQ PUSH2 0x4F7 JUMPI DUP1 PUSH4 0xDD62ED3E EQ PUSH2 0x500 JUMPI DUP1 PUSH4 0xED70E46C EQ PUSH2 0x513 JUMPI DUP1 PUSH4 0xF4E6C93F EQ PUSH2 0x526 JUMPI DUP1 PUSH4 0xFF762044 EQ PUSH2 0x52E JUMPI PUSH0 PUSH0 REVERT JUMPDEST DUP1 PUSH4 0x70A08231 EQ PUSH2 0x382 JUMPI DUP1 PUSH4 0x85BCB519 EQ PUSH2 0x3AA JUMPI DUP1 PUSH4 0x884EDAD9 EQ PUSH2 0x459 JUMPI DUP1 PUSH4 0x8DA5CB5B EQ PUSH2 0x46C JUMPI DUP1 PUSH4 0x8E3BB9FB EQ PUSH2 0x472 JUMPI DUP1 PUSH4 0x95D89B41 EQ PUSH2 0x485 JUMPI DUP1 PUSH4 0x9DCBF7EA EQ PUSH2 0x48D JUMPI DUP1 PUSH4 0xA9059CBB EQ PUSH2 0x4A0 JUMPI DUP1 PUSH4 0xAC8F5EAD EQ PUSH2 0x4B3 JUMPI PUSH0 PUSH0 REVERT JUMPDEST DUP1 PUSH4 0x2B83B1FC GT PUSH2 0x173 JUMPI DUP1 PUSH4 0x2B83B1FC EQ PUSH2 0x2B9 JUMPI DUP1 PUSH4 0x313CE567 EQ PUSH2 0x2E1 JUMPI DUP1 PUSH4 0x38BF3CFA EQ PUSH2 0x2F0 JUMPI DUP1 PUSH4 0x393A35A5 EQ PUSH2 0x303 JUMPI DUP1 PUSH4 0x414C3935 EQ PUSH2 0x316 JUMPI DUP1 PUSH4 0x4209B07C EQ PUSH2 0x329 JUMPI DUP1 PUSH4 0x666E1B39 EQ PUSH2 0x349 JUMPI DUP1 PUSH4 0x6FB7329C EQ PUSH2 0x35C JUMPI DUP1 PUSH4 0x7065CB48 EQ PUSH2 0x36F JUMPI PUSH0 PUSH0 REVERT JUMPDEST DUP1 PUSH3 0xB660EF EQ PUSH2 0x1DA JUMPI DUP1 PUSH4 0x6FDDE03 EQ PUSH2 0x1EF JUMPI DUP1 PUSH4 0x88AEE78 EQ PUSH2 0x20D JUMPI DUP1 PUSH4 0x95EA7B3 EQ PUSH2 0x238 JUMPI DUP1 PUSH4 0x18160DDD EQ PUSH2 0x25B JUMPI DUP1 PUSH4 0x21516FC4 EQ PUSH2 0x26D JUMPI DUP1 PUSH4 0x222838DB EQ PUSH2 0x280 JUMPI DUP1 PUSH4 0x23B872DD EQ PUSH2 0x293 JUMPI DUP1 PUSH4 0x2499A533 EQ PUSH2 0x2A6 JUMPI JUMPDEST PUSH0 PUSH0 REVERT JUMPDEST PUSH2 0x1ED PUSH2 0x1E8 CALLDATASIZE PUSH1 0x4 PUSH2 0x1A1D JUMP JUMPDEST PUSH2 0x550 JUMP JUMPDEST STOP JUMPDEST PUSH2 0x1F7 PUSH2 0x647 JUMP JUMPDEST PUSH1 0x40 MLOAD PUSH2 0x204 SWAP2 SWAP1 PUSH2 0x1A97 JUMP JUMPDEST PUSH1 0x40 MLOAD DUP1 SWAP2 SUB SWAP1 RETURN JUMPDEST PUSH2 0x220 PUSH2 0x21B CALLDATASIZE PUSH1 0x4 PUSH2 0x1AB0 JUMP JUMPDEST PUSH2 0x6D7 JUMP JUMPDEST PUSH1 0x40 MLOAD PUSH1 0x1 PUSH1 0x1 PUSH1 0x40 SHL SUB SWAP1 SWAP2 AND DUP2 MSTORE PUSH1 0x20 ADD PUSH2 0x204 JUMP JUMPDEST PUSH2 0x24B PUSH2 0x246 CALLDATASIZE PUSH1 0x4 PUSH2 0x1AC7 JUMP JUMPDEST PUSH2 0x709 JUMP JUMPDEST PUSH1 0x40 MLOAD SWAP1 ISZERO ISZERO DUP2 MSTORE PUSH1 0x20 ADD PUSH2 0x204 JUMP JUMPDEST PUSH1 0x3 SLOAD JUMPDEST PUSH1 0x40 MLOAD SWAP1 DUP2 MSTORE PUSH1 0x20 ADD PUSH2 0x204 JUMP JUMPDEST PUSH2 0x1ED PUSH2 0x27B CALLDATASIZE PUSH1 0x4 PUSH2 0x1AF1 JUMP JUMPDEST PUSH2 0x722 JUMP JUMPDEST PUSH2 0x1ED PUSH2 0x28E CALLDATASIZE PUSH1 0x4 PUSH2 0x1AC7 JUMP JUMPDEST PUSH2 0x792 JUMP JUMPDEST PUSH2 0x24B PUSH2 0x2A1 CALLDATASIZE PUSH1 0x4 PUSH2 0x1B2A JUMP JUMPDEST PUSH2 0x993 JUMP JUMPDEST PUSH2 0x1ED PUSH2 0x2B4 CALLDATASIZE PUSH1 0x4 PUSH2 0x1AC7 JUMP JUMPDEST PUSH2 0x9B6 JUMP JUMPDEST PUSH2 0x25F PUSH2 0x2C7 CALLDATASIZE PUSH1 0x4 PUSH2 0x1B68 JUMP JUMPDEST PUSH1 0x1 PUSH1 0x1 PUSH1 0xA0 SHL SUB AND PUSH0 SWAP1 DUP2 MSTORE PUSH1 0x8 PUSH1 0x20 MSTORE PUSH1 0x40 SWAP1 KECCAK256 SLOAD SWAP1 JUMP JUMPDEST PUSH1 0x40 MLOAD PUSH1 0x12 DUP2 MSTORE PUSH1 0x20 ADD PUSH2 0x204 JUMP JUMPDEST PUSH2 0x1ED PUSH2 0x2FE CALLDATASIZE PUSH1 0x4 PUSH2 0x1B68 JUMP JUMPDEST PUSH2 0xB64 JUMP JUMPDEST PUSH2 0x1F7 PUSH2 0x311 CALLDATASIZE PUSH1 0x4 PUSH2 0x1C52 JUMP JUMPDEST PUSH2 0xB76 JUMP JUMPDEST PUSH2 0x1ED PUSH2 0x324 CALLDATASIZE PUSH1 0x4 PUSH2 0x1C7A JUMP JUMPDEST PUSH2 0xBF9 JUMP JUMPDEST PUSH1 0x9 SLOAD PUSH2 0x33C SWAP1 PUSH1 0x1 PUSH1 0x1 PUSH1 0xA0 SHL SUB AND DUP2 JUMP JUMPDEST PUSH1 0x40 MLOAD PUSH2 0x204 SWAP2 SWAP1 PUSH2 0x1CB1 JUMP JUMPDEST PUSH2 0x24B PUSH2 0x357 CALLDATASIZE PUSH1 0x4 PUSH2 0x1B68 JUMP JUMPDEST PUSH2 0xDA9 JUMP JUMPDEST PUSH1 0x6 SLOAD PUSH2 0x33C SWAP1 PUSH1 0x1 PUSH1 0x1 PUSH1 0xA0 SHL SUB AND DUP2 JUMP JUMPDEST PUSH2 0x1ED PUSH2 0x37D CALLDATASIZE PUSH1 0x4 PUSH2 0x1B68 JUMP JUMPDEST PUSH2 0xDC6 JUMP JUMPDEST PUSH2 0x25F PUSH2 0x390 CALLDATASIZE PUSH1 0x4 PUSH2 0x1B68 JUMP JUMPDEST PUSH1 0x1 PUSH1 0x1 PUSH1 0xA0 SHL SUB AND PUSH0 SWAP1 DUP2 MSTORE PUSH1 0x1 PUSH1 0x20 MSTORE PUSH1 0x40 SWAP1 KECCAK256 SLOAD SWAP1 JUMP JUMPDEST PUSH1 0xB SLOAD PUSH1 0xC SLOAD PUSH1 0xD SLOAD PUSH1 0xE SLOAD PUSH2 0x400 SWAP4 PUSH1 0x1 PUSH1 0x1 PUSH1 0xA0 SHL SUB SWAP1 DUP2 AND SWAP4 DUP1 DUP3 AND SWAP4 PUSH1 0x1 PUSH1 0x1 PUSH1 0x40 SHL SUB PUSH1 0x1 PUSH1 0xA0 SHL SWAP1 SWAP3 DIV DUP3 AND SWAP4 DUP2 DUP4 AND SWAP4 PUSH1 0x1 PUSH1 0x40 SHL SWAP3 DUP4 SWAP1 DIV AND SWAP3 DUP2 DUP2 AND SWAP3 DUP3 DIV DUP2 AND SWAP2 PUSH1 0x1 PUSH1 0x80 SHL SWAP1 DIV AND DUP9 JUMP JUMPDEST PUSH1 0x40 DUP1 MLOAD PUSH1 0x1 PUSH1 0x1 PUSH1 0xA0 SHL SUB SWAP10 DUP11 AND DUP2 MSTORE SWAP8 DUP10 AND PUSH1 0x20 DUP10 ADD MSTORE PUSH1 0x1 PUSH1 0x1 PUSH1 0x40 SHL SUB SWAP7 DUP8 AND SWAP1 DUP9 ADD MSTORE SWAP4 DUP6 AND PUSH1 0x60 DUP8 ADD MSTORE SWAP6 SWAP1 SWAP2 AND PUSH1 0x80 DUP6 ADD MSTORE DUP3 AND PUSH1 0xA0 DUP5 ADD MSTORE SWAP3 DUP2 AND PUSH1 0xC0 DUP4 ADD MSTORE SWAP1 SWAP2 AND PUSH1 0xE0 DUP3 ADD MSTORE PUSH2 0x100 ADD PUSH2 0x204 JUMP JUMPDEST PUSH2 0x1ED PUSH2 0x467 CALLDATASIZE PUSH1 0x4 PUSH2 0x1AC7 JUMP JUMPDEST PUSH2 0xE06 JUMP JUMPDEST ADDRESS PUSH2 0x33C JUMP JUMPDEST PUSH1 0xF SLOAD PUSH2 0x33C SWAP1 PUSH1 0x1 PUSH1 0x1 PUSH1 0xA0 SHL SUB AND DUP2 JUMP JUMPDEST PUSH2 0x1F7 PUSH2 0xF73 JUMP JUMPDEST PUSH2 0x1ED PUSH2 0x49B CALLDATASIZE PUSH1 0x4 PUSH2 0x1CC5 JUMP JUMPDEST PUSH2 0xF82 JUMP JUMPDEST PUSH2 0x24B PUSH2 0x4AE CALLDATASIZE PUSH1 0x4 PUSH2 0x1AC7 JUMP JUMPDEST PUSH2 0xFA8 JUMP JUMPDEST PUSH2 0x1ED PUSH2 0xFB5 JUMP JUMPDEST PUSH2 0x1ED PUSH2 0x4C9 CALLDATASIZE PUSH1 0x4 PUSH2 0x1D12 JUMP JUMPDEST PUSH2 0x1041 JUMP JUMPDEST PUSH2 0x1F7 PUSH2 0x10C8 JUMP JUMPDEST PUSH2 0x1ED PUSH2 0x4E4 CALLDATASIZE PUSH1 0x4 PUSH2 0x1AF1 JUMP JUMPDEST PUSH2 0x113D JUMP JUMPDEST PUSH2 0x220 PUSH7 0x3632C8EB5AF3B DUP2 JUMP JUMPDEST PUSH2 0x25F PUSH1 0x7 SLOAD DUP2 JUMP JUMPDEST PUSH2 0x25F PUSH2 0x50E CALLDATASIZE PUSH1 0x4 PUSH2 0x1D49 JUMP JUMPDEST PUSH2 0x11F3 JUMP JUMPDEST PUSH2 0x1F7 PUSH2 0x521 CALLDATASIZE PUSH1 0x4 PUSH2 0x1B68 JUMP JUMPDEST PUSH2 0x121D JUMP JUMPDEST PUSH2 0x1ED PUSH2 0x1257 JUMP JUMPDEST PUSH2 0x1F7 PUSH1 0x40 MLOAD DUP1 PUSH1 0x40 ADD PUSH1 0x40 MSTORE DUP1 PUSH1 0x3 DUP2 MSTORE PUSH1 0x20 ADD PUSH3 0x4C4155 PUSH1 0xE8 SHL DUP2 MSTORE POP DUP2 JUMP JUMPDEST PUSH2 0x558 PUSH2 0x1269 JUMP JUMPDEST PUSH1 0x9 SLOAD PUSH1 0x40 MLOAD PUSH3 0xB660EF PUSH1 0xE0 SHL DUP2 MSTORE PUSH1 0x1 PUSH1 0x1 PUSH1 0xA0 SHL SUB SWAP1 SWAP2 AND SWAP1 PUSH3 0xB660EF SWAP1 PUSH2 0x588 SWAP1 DUP6 SWAP1 DUP6 SWAP1 PUSH1 0x4 ADD PUSH2 0x1D75 JUMP JUMPDEST PUSH0 PUSH1 0x40 MLOAD DUP1 DUP4 SUB DUP2 PUSH0 DUP8 DUP1 EXTCODESIZE ISZERO DUP1 ISZERO PUSH2 0x59F JUMPI PUSH0 PUSH0 REVERT JUMPDEST POP GAS CALL ISZERO DUP1 ISZERO PUSH2 0x5B1 JUMPI RETURNDATASIZE PUSH0 PUSH0 RETURNDATACOPY RETURNDATASIZE PUSH0 REVERT JUMPDEST POP POP PUSH1 0x9 SLOAD PUSH1 0x1 PUSH1 0x1 PUSH1 0xA0 SHL SUB AND SWAP2 POP PUSH4 0xCF34EF53 SWAP1 POP PUSH2 0x5D1 DUP5 PUSH2 0x12A9 JUMP JUMPDEST DUP4 PUSH1 0x40 MLOAD PUSH1 0x20 ADD PUSH2 0x5E3 SWAP3 SWAP2 SWAP1 PUSH2 0x1DAF JUMP JUMPDEST PUSH1 0x40 MLOAD PUSH1 0x20 DUP2 DUP4 SUB SUB DUP2 MSTORE SWAP1 PUSH1 0x40 MSTORE PUSH1 0x40 MLOAD DUP3 PUSH4 0xFFFFFFFF AND PUSH1 0xE0 SHL DUP2 MSTORE PUSH1 0x4 ADD PUSH2 0x60E SWAP2 SWAP1 PUSH2 0x1A97 JUMP JUMPDEST PUSH0 PUSH1 0x40 MLOAD DUP1 DUP4 SUB DUP2 PUSH0 DUP8 DUP1 EXTCODESIZE ISZERO DUP1 ISZERO PUSH2 0x625 JUMPI PUSH0 PUSH0 REVERT JUMPDEST POP GAS CALL ISZERO DUP1 ISZERO PUSH2 0x637 JUMPI RETURNDATASIZE PUSH0 PUSH0 RETURNDATACOPY RETURNDATASIZE PUSH0 REVERT JUMPDEST POP POP POP POP PUSH2 0x643 PUSH2 0x12E1 JUMP JUMPDEST POP POP JUMP JUMPDEST PUSH1 0x60 PUSH1 0x4 DUP1 SLOAD PUSH2 0x656 SWAP1 PUSH2 0x1DEE JUMP JUMPDEST DUP1 PUSH1 0x1F ADD PUSH1 0x20 DUP1 SWAP2 DIV MUL PUSH1 0x20 ADD PUSH1 0x40 MLOAD SWAP1 DUP2 ADD PUSH1 0x40 MSTORE DUP1 SWAP3 SWAP2 SWAP1 DUP2 DUP2 MSTORE PUSH1 0x20 ADD DUP3 DUP1 SLOAD PUSH2 0x682 SWAP1 PUSH2 0x1DEE JUMP JUMPDEST DUP1 ISZERO PUSH2 0x6CD JUMPI DUP1 PUSH1 0x1F LT PUSH2 0x6A4 JUMPI PUSH2 0x100 DUP1 DUP4 SLOAD DIV MUL DUP4 MSTORE SWAP2 PUSH1 0x20 ADD SWAP2 PUSH2 0x6CD JUMP JUMPDEST DUP3 ADD SWAP2 SWAP1 PUSH0 MSTORE PUSH1 0x20 PUSH0 KECCAK256 SWAP1 JUMPDEST DUP2 SLOAD DUP2 MSTORE SWAP1 PUSH1 0x1 ADD SWAP1 PUSH1 0x20 ADD DUP1 DUP4 GT PUSH2 0x6B0 JUMPI DUP3 SWAP1 SUB PUSH1 0x1F AND DUP3 ADD SWAP2 JUMPDEST POP POP POP POP POP SWAP1 POP SWAP1 JUMP JUMPDEST PUSH1 0xA DUP2 PUSH1 0x3 DUP2 LT PUSH2 0x6E6 JUMPI PUSH0 DUP1 REVERT JUMPDEST PUSH1 0x4 SWAP2 DUP3 DUP3 DIV ADD SWAP2 SWAP1 MOD PUSH1 0x8 MUL SWAP2 POP SLOAD SWAP1 PUSH2 0x100 EXP SWAP1 DIV PUSH1 0x1 PUSH1 0x1 PUSH1 0x40 SHL SUB AND DUP2 JUMP JUMPDEST PUSH0 CALLER PUSH2 0x716 DUP2 DUP6 DUP6 PUSH2 0x1323 JUMP JUMPDEST PUSH1 0x1 SWAP2 POP POP JUMPDEST SWAP3 SWAP2 POP POP JUMP JUMPDEST PUSH2 0x72A PUSH2 0x1269 JUMP JUMPDEST PUSH1 0x9 SLOAD PUSH1 0x40 MLOAD PUSH4 0x8545BF1 PUSH1 0xE2 SHL DUP2 MSTORE PUSH1 0x1 PUSH1 0x1 PUSH1 0xA0 SHL SUB SWAP1 SWAP2 AND SWAP1 PUSH4 0x21516FC4 SWAP1 PUSH2 0x75A SWAP1 DUP5 SWAP1 PUSH1 0x4 ADD PUSH2 0x1A97 JUMP JUMPDEST PUSH0 PUSH1 0x40 MLOAD DUP1 DUP4 SUB DUP2 PUSH0 DUP8 DUP1 EXTCODESIZE ISZERO DUP1 ISZERO PUSH2 0x771 JUMPI PUSH0 PUSH0 REVERT JUMPDEST POP GAS CALL ISZERO DUP1 ISZERO PUSH2 0x783 JUMPI RETURNDATASIZE PUSH0 PUSH0 RETURNDATACOPY RETURNDATASIZE PUSH0 REVERT JUMPDEST POP POP POP POP PUSH2 0x78F PUSH2 0x12E1 JUMP JUMPDEST POP JUMP JUMPDEST PUSH1 0x1 PUSH1 0x1 PUSH1 0xA0 SHL SUB DUP3 AND PUSH0 SWAP1 DUP2 MSTORE PUSH1 0x8 PUSH1 0x20 MSTORE PUSH1 0x40 DUP2 KECCAK256 SLOAD SWAP1 SUB PUSH2 0x7D4 JUMPI DUP2 PUSH1 0x40 MLOAD PUSH4 0x90B23441 PUSH1 0xE0 SHL DUP2 MSTORE PUSH1 0x4 ADD PUSH2 0x7CB SWAP2 SWAP1 PUSH2 0x1CB1 JUMP JUMPDEST PUSH1 0x40 MLOAD DUP1 SWAP2 SUB SWAP1 REVERT JUMPDEST DUP2 PUSH0 PUSH2 0x7E2 PUSH1 0x12 PUSH1 0xA PUSH2 0x1F1D JUMP JUMPDEST PUSH1 0x1 PUSH1 0x1 PUSH1 0xA0 SHL SUB DUP6 AND PUSH0 SWAP1 DUP2 MSTORE PUSH1 0x8 PUSH1 0x20 MSTORE PUSH1 0x40 SWAP1 KECCAK256 SLOAD PUSH2 0x804 SWAP1 DUP6 PUSH2 0x1F2B JUMP JUMPDEST PUSH2 0x80E SWAP2 SWAP1 PUSH2 0x1F56 JUMP JUMPDEST PUSH1 0x40 MLOAD PUSH4 0x23B872DD PUSH1 0xE0 SHL DUP2 MSTORE SWAP1 SWAP2 POP PUSH0 SWAP1 ADDRESS SWAP1 PUSH4 0x23B872DD SWAP1 PUSH2 0x83A SWAP1 CALLER SWAP1 DUP5 SWAP1 DUP10 SWAP1 PUSH1 0x4 ADD PUSH2 0x1F75 JUMP JUMPDEST PUSH1 0x20 PUSH1 0x40 MLOAD DUP1 DUP4 SUB DUP2 PUSH0 DUP8 GAS CALL ISZERO DUP1 ISZERO PUSH2 0x856 JUMPI RETURNDATASIZE PUSH0 PUSH0 RETURNDATACOPY RETURNDATASIZE PUSH0 REVERT JUMPDEST POP POP POP POP PUSH1 0x40 MLOAD RETURNDATASIZE PUSH1 0x1F NOT PUSH1 0x1F DUP3 ADD AND DUP3 ADD DUP1 PUSH1 0x40 MSTORE POP DUP2 ADD SWAP1 PUSH2 0x87A SWAP2 SWAP1 PUSH2 0x1F99 JUMP JUMPDEST SWAP1 POP DUP1 ADDRESS PUSH1 0x1 PUSH1 0x1 PUSH1 0xA0 SHL SUB AND PUSH4 0x6FDDE03 PUSH1 0x40 MLOAD DUP2 PUSH4 0xFFFFFFFF AND PUSH1 0xE0 SHL DUP2 MSTORE PUSH1 0x4 ADD PUSH0 PUSH1 0x40 MLOAD DUP1 DUP4 SUB DUP2 DUP7 GAS STATICCALL ISZERO DUP1 ISZERO PUSH2 0x8B8 JUMPI RETURNDATASIZE PUSH0 PUSH0 RETURNDATACOPY RETURNDATASIZE PUSH0 REVERT JUMPDEST POP POP POP POP PUSH1 0x40 MLOAD RETURNDATASIZE PUSH0 DUP3 RETURNDATACOPY PUSH1 0x1F RETURNDATASIZE SWAP1 DUP2 ADD PUSH1 0x1F NOT AND DUP3 ADD PUSH1 0x40 MSTORE PUSH2 0x8DF SWAP2 SWAP1 DUP2 ADD SWAP1 PUSH2 0x1FB4 JUMP JUMPDEST PUSH1 0x40 MLOAD PUSH1 0x20 ADD PUSH2 0x8EF SWAP2 SWAP1 PUSH2 0x2028 JUMP JUMPDEST PUSH1 0x40 MLOAD PUSH1 0x20 DUP2 DUP4 SUB SUB DUP2 MSTORE SWAP1 PUSH1 0x40 MSTORE SWAP1 PUSH2 0x91C JUMPI PUSH1 0x40 MLOAD PUSH3 0x461BCD PUSH1 0xE5 SHL DUP2 MSTORE PUSH1 0x4 ADD PUSH2 0x7CB SWAP2 SWAP1 PUSH2 0x1A97 JUMP JUMPDEST POP PUSH1 0x40 MLOAD PUSH4 0xA9059CBB PUSH1 0xE0 SHL DUP2 MSTORE PUSH1 0x1 PUSH1 0x1 PUSH1 0xA0 SHL SUB DUP5 AND SWAP1 PUSH4 0xA9059CBB SWAP1 PUSH2 0x94B SWAP1 CALLER SWAP1 DUP7 SWAP1 PUSH1 0x4 ADD PUSH2 0x204A JUMP JUMPDEST PUSH1 0x20 PUSH1 0x40 MLOAD DUP1 DUP4 SUB DUP2 PUSH0 DUP8 GAS CALL ISZERO DUP1 ISZERO PUSH2 0x967 JUMPI RETURNDATASIZE PUSH0 PUSH0 RETURNDATACOPY RETURNDATASIZE PUSH0 REVERT JUMPDEST POP POP POP POP PUSH1 0x40 MLOAD RETURNDATASIZE PUSH1 0x1F NOT PUSH1 0x1F DUP3 ADD AND DUP3 ADD DUP1 PUSH1 0x40 MSTORE POP DUP2 ADD SWAP1 PUSH2 0x98B SWAP2 SWAP1 PUSH2 0x1F99 JUMP JUMPDEST POP POP POP POP POP POP JUMP JUMPDEST PUSH0 CALLER PUSH2 0x9A0 DUP6 DUP3 DUP6 PUSH2 0x1330 JUMP JUMPDEST PUSH2 0x9AB DUP6 DUP6 DUP6 PUSH2 0x1381 JUMP JUMPDEST POP PUSH1 0x1 SWAP5 SWAP4 POP POP POP POP JUMP JUMPDEST PUSH1 0x1 PUSH1 0x1 PUSH1 0xA0 SHL SUB DUP3 AND PUSH0 SWAP1 DUP2 MSTORE PUSH1 0x8 PUSH1 0x20 MSTORE PUSH1 0x40 DUP2 KECCAK256 SLOAD SWAP1 SUB PUSH2 0x9EF JUMPI DUP2 PUSH1 0x40 MLOAD PUSH4 0x90B23441 PUSH1 0xE0 SHL DUP2 MSTORE PUSH1 0x4 ADD PUSH2 0x7CB SWAP2 SWAP1 PUSH2 0x1CB1 JUMP JUMPDEST DUP2 PUSH0 PUSH2 0x9FD PUSH1 0x12 PUSH1 0xA PUSH2 0x1F1D JUMP JUMPDEST PUSH1 0x1 PUSH1 0x1 PUSH1 0xA0 SHL SUB DUP6 AND PUSH0 SWAP1 DUP2 MSTORE PUSH1 0x8 PUSH1 0x20 MSTORE PUSH1 0x40 SWAP1 KECCAK256 SLOAD PUSH2 0xA1F SWAP1 DUP6 PUSH2 0x1F2B JUMP JUMPDEST PUSH2 0xA29 SWAP2 SWAP1 PUSH2 0x1F56 JUMP JUMPDEST SWAP1 POP PUSH0 DUP3 PUSH1 0x1 PUSH1 0x1 PUSH1 0xA0 SHL SUB AND PUSH4 0x23B872DD CALLER ADDRESS DUP6 PUSH1 0x40 MLOAD DUP5 PUSH4 0xFFFFFFFF AND PUSH1 0xE0 SHL DUP2 MSTORE PUSH1 0x4 ADD PUSH2 0xA5C SWAP4 SWAP3 SWAP2 SWAP1 PUSH2 0x1F75 JUMP JUMPDEST PUSH1 0x20 PUSH1 0x40 MLOAD DUP1 DUP4 SUB DUP2 PUSH0 DUP8 GAS CALL ISZERO DUP1 ISZERO PUSH2 0xA78 JUMPI RETURNDATASIZE PUSH0 PUSH0 RETURNDATACOPY RETURNDATASIZE PUSH0 REVERT JUMPDEST POP POP POP POP PUSH1 0x40 MLOAD RETURNDATASIZE PUSH1 0x1F NOT PUSH1 0x1F DUP3 ADD AND DUP3 ADD DUP1 PUSH1 0x40 MSTORE POP DUP2 ADD SWAP1 PUSH2 0xA9C SWAP2 SWAP1 PUSH2 0x1F99 JUMP JUMPDEST SWAP1 POP DUP1 DUP4 PUSH1 0x1 PUSH1 0x1 PUSH1 0xA0 SHL SUB AND PUSH4 0x6FDDE03 PUSH1 0x40 MLOAD DUP2 PUSH4 0xFFFFFFFF AND PUSH1 0xE0 SHL DUP2 MSTORE PUSH1 0x4 ADD PUSH0 PUSH1 0x40 MLOAD DUP1 DUP4 SUB DUP2 DUP7 GAS STATICCALL ISZERO DUP1 ISZERO PUSH2 0xADA JUMPI RETURNDATASIZE PUSH0 PUSH0 RETURNDATACOPY RETURNDATASIZE PUSH0 REVERT JUMPDEST POP POP POP POP PUSH1 0x40 MLOAD RETURNDATASIZE PUSH0 DUP3 RETURNDATACOPY PUSH1 0x1F RETURNDATASIZE SWAP1 DUP2 ADD PUSH1 0x1F NOT AND DUP3 ADD PUSH1 0x40 MSTORE PUSH2 0xB01 SWAP2 SWAP1 DUP2 ADD SWAP1 PUSH2 0x1FB4 JUMP JUMPDEST PUSH1 0x40 MLOAD PUSH1 0x20 ADD PUSH2 0xB11 SWAP2 SWAP1 PUSH2 0x2028 JUMP JUMPDEST PUSH1 0x40 MLOAD PUSH1 0x20 DUP2 DUP4 SUB SUB DUP2 MSTORE SWAP1 PUSH1 0x40 MSTORE SWAP1 PUSH2 0xB3E JUMPI PUSH1 0x40 MLOAD PUSH3 0x461BCD PUSH1 0xE5 SHL DUP2 MSTORE PUSH1 0x4 ADD PUSH2 0x7CB SWAP2 SWAP1 PUSH2 0x1A97 JUMP JUMPDEST POP PUSH1 0x40 MLOAD PUSH4 0xA9059CBB PUSH1 0xE0 SHL DUP2 MSTORE ADDRESS SWAP1 PUSH4 0xA9059CBB SWAP1 PUSH2 0x94B SWAP1 CALLER SWAP1 DUP9 SWAP1 PUSH1 0x4 ADD PUSH2 0x204A JUMP JUMPDEST PUSH2 0xB6C PUSH2 0x1269 JUMP JUMPDEST PUSH2 0x78F DUP2 PUSH0 PUSH2 0x138C JUMP JUMPDEST PUSH1 0x60 PUSH2 0xB80 PUSH2 0x1269 JUMP JUMPDEST PUSH1 0x9 SLOAD PUSH1 0x40 MLOAD PUSH4 0x393A35A5 PUSH1 0xE0 SHL DUP2 MSTORE PUSH1 0x1 PUSH1 0x1 PUSH1 0xA0 SHL SUB SWAP1 SWAP2 AND SWAP1 PUSH4 0x393A35A5 SWAP1 PUSH2 0xBB0 SWAP1 DUP6 SWAP1 PUSH1 0x4 ADD PUSH2 0x2119 JUMP JUMPDEST PUSH0 PUSH1 0x40 MLOAD DUP1 DUP4 SUB DUP2 DUP7 GAS STATICCALL ISZERO DUP1 ISZERO PUSH2 0xBCA JUMPI RETURNDATASIZE PUSH0 PUSH0 RETURNDATACOPY RETURNDATASIZE PUSH0 REVERT JUMPDEST POP POP POP POP PUSH1 0x40 MLOAD RETURNDATASIZE PUSH0 DUP3 RETURNDATACOPY PUSH1 0x1F RETURNDATASIZE SWAP1 DUP2 ADD PUSH1 0x1F NOT AND DUP3 ADD PUSH1 0x40 MSTORE PUSH2 0xBF1 SWAP2 SWAP1 DUP2 ADD SWAP1 PUSH2 0x1FB4 JUMP JUMPDEST SWAP1 POP JUMPDEST SWAP2 SWAP1 POP JUMP JUMPDEST PUSH2 0xC01 PUSH2 0x1269 JUMP JUMPDEST DUP2 DUP1 ISZERO PUSH2 0xC0B JUMPI POP DUP1 JUMPDEST ISZERO PUSH2 0xD5B JUMPI PUSH1 0x9 PUSH0 SWAP1 SLOAD SWAP1 PUSH2 0x100 EXP SWAP1 DIV PUSH1 0x1 PUSH1 0x1 PUSH1 0xA0 SHL SUB AND PUSH1 0x1 PUSH1 0x1 PUSH1 0xA0 SHL SUB AND PUSH4 0x1097E579 PUSH1 0x40 MLOAD DUP2 PUSH4 0xFFFFFFFF AND PUSH1 0xE0 SHL DUP2 MSTORE PUSH1 0x4 ADD PUSH2 0x160 PUSH1 0x40 MLOAD DUP1 DUP4 SUB DUP2 PUSH0 DUP8 GAS CALL ISZERO DUP1 ISZERO PUSH2 0xC62 JUMPI RETURNDATASIZE PUSH0 PUSH0 RETURNDATACOPY RETURNDATASIZE PUSH0 REVERT JUMPDEST POP POP POP POP PUSH1 0x40 MLOAD RETURNDATASIZE PUSH1 0x1F NOT PUSH1 0x1F DUP3 ADD AND DUP3 ADD DUP1 PUSH1 0x40 MSTORE POP DUP2 ADD SWAP1 PUSH2 0xC86 SWAP2 SWAP1 PUSH2 0x21D8 JUMP JUMPDEST DUP1 MLOAD PUSH1 0xB DUP1 SLOAD PUSH1 0x1 PUSH1 0x1 PUSH1 0xA0 SHL SUB NOT AND PUSH1 0x1 PUSH1 0x1 PUSH1 0xA0 SHL SUB SWAP3 DUP4 AND OR SWAP1 SSTORE PUSH1 0x20 DUP3 ADD MLOAD PUSH1 0xC DUP1 SLOAD PUSH1 0x40 DUP6 ADD MLOAD SWAP3 DUP5 AND PUSH1 0x1 PUSH1 0x1 PUSH1 0xE0 SHL SUB NOT SWAP2 DUP3 AND OR PUSH1 0x1 PUSH1 0xA0 SHL PUSH1 0x1 PUSH1 0x1 PUSH1 0x40 SHL SUB SWAP5 DUP6 AND MUL OR SWAP1 SWAP2 SSTORE PUSH1 0x60 DUP5 ADD MLOAD PUSH1 0xD DUP1 SLOAD PUSH1 0x80 DUP8 ADD MLOAD SWAP3 DUP6 AND SWAP4 AND SWAP3 SWAP1 SWAP3 OR PUSH1 0x1 PUSH1 0x40 SHL SWAP2 SWAP1 SWAP5 AND DUP2 MUL SWAP4 SWAP1 SWAP4 OR SWAP1 SSTORE PUSH1 0xA0 DUP4 ADD MLOAD PUSH1 0xE DUP1 SLOAD PUSH1 0xC0 DUP7 ADD MLOAD PUSH1 0xE0 DUP8 ADD MLOAD SWAP4 DUP6 AND PUSH1 0x1 PUSH1 0x1 PUSH1 0x80 SHL SUB NOT SWAP1 SWAP3 AND SWAP2 SWAP1 SWAP2 OR SWAP1 DUP5 AND SWAP1 SWAP5 MUL SWAP4 SWAP1 SWAP4 OR PUSH8 0xFFFFFFFFFFFFFFFF PUSH1 0x80 SHL NOT AND PUSH1 0x1 PUSH1 0x80 SHL SWAP2 SWAP1 SWAP3 AND MUL OR SWAP1 SSTORE PUSH2 0xD57 PUSH1 0xA DUP4 PUSH1 0x3 PUSH2 0x186C JUMP JUMPDEST POP POP POP JUMPDEST PUSH1 0x9 SLOAD PUSH1 0x40 MLOAD PUSH4 0xCF34EF53 PUSH1 0xE0 SHL DUP2 MSTORE PUSH1 0x20 PUSH1 0x4 DUP3 ADD MSTORE PUSH1 0xD PUSH1 0x24 DUP3 ADD MSTORE PUSH13 0x14995CD95D08151BC8159BDA59 PUSH1 0x9A SHL PUSH1 0x44 DUP3 ADD MSTORE PUSH1 0x1 PUSH1 0x1 PUSH1 0xA0 SHL SUB SWAP1 SWAP2 AND SWAP1 PUSH4 0xCF34EF53 SWAP1 PUSH1 0x64 ADD PUSH2 0x60E JUMP JUMPDEST PUSH1 0x1 PUSH1 0x1 PUSH1 0xA0 SHL SUB AND PUSH0 SWAP1 DUP2 MSTORE PUSH1 0x20 DUP2 SWAP1 MSTORE PUSH1 0x40 SWAP1 KECCAK256 SLOAD PUSH1 0xFF AND SWAP1 JUMP JUMPDEST PUSH2 0xDCE PUSH2 0x1269 JUMP JUMPDEST PUSH1 0x1 PUSH1 0x1 PUSH1 0xA0 SHL SUB DUP2 AND PUSH2 0xDFB JUMPI ORIGIN PUSH0 ADDRESS PUSH1 0x40 MLOAD PUSH4 0x36030219 PUSH1 0xE2 SHL DUP2 MSTORE PUSH1 0x4 ADD PUSH2 0x7CB SWAP4 SWAP3 SWAP2 SWAP1 PUSH2 0x226B JUMP JUMPDEST PUSH2 0x78F DUP2 PUSH1 0x1 PUSH2 0x138C JUMP JUMPDEST PUSH2 0xE0E PUSH2 0x1269 JUMP JUMPDEST PUSH1 0x40 MLOAD PUSH4 0xA9059CBB PUSH1 0xE0 SHL DUP2 MSTORE DUP3 SWAP1 PUSH1 0x1 PUSH1 0x1 PUSH1 0xA0 SHL SUB DUP3 AND SWAP1 PUSH4 0xA9059CBB SWAP1 PUSH2 0xE3E SWAP1 CALLER SWAP1 DUP7 SWAP1 PUSH1 0x4 ADD PUSH2 0x204A JUMP JUMPDEST PUSH1 0x20 PUSH1 0x40 MLOAD DUP1 DUP4 SUB DUP2 PUSH0 DUP8 GAS CALL ISZERO DUP1 ISZERO PUSH2 0xE5A JUMPI RETURNDATASIZE PUSH0 PUSH0 RETURNDATACOPY RETURNDATASIZE PUSH0 REVERT JUMPDEST POP POP POP POP PUSH1 0x40 MLOAD RETURNDATASIZE PUSH1 0x1F NOT PUSH1 0x1F DUP3 ADD AND DUP3 ADD DUP1 PUSH1 0x40 MSTORE POP DUP2 ADD SWAP1 PUSH2 0xE7E SWAP2 SWAP1 PUSH2 0x1F99 JUMP JUMPDEST POP PUSH1 0x9 SLOAD PUSH1 0x1 PUSH1 0x1 PUSH1 0xA0 SHL SUB AND PUSH4 0xCF34EF53 PUSH2 0xE99 DUP5 PUSH2 0x13DF JUMP JUMPDEST DUP4 PUSH1 0x1 PUSH1 0x1 PUSH1 0xA0 SHL SUB AND PUSH4 0x6FDDE03 PUSH1 0x40 MLOAD DUP2 PUSH4 0xFFFFFFFF AND PUSH1 0xE0 SHL DUP2 MSTORE PUSH1 0x4 ADD PUSH0 PUSH1 0x40 MLOAD DUP1 DUP4 SUB DUP2 DUP7 GAS STATICCALL ISZERO DUP1 ISZERO PUSH2 0xED4 JUMPI RETURNDATASIZE PUSH0 PUSH0 RETURNDATACOPY RETURNDATASIZE PUSH0 REVERT JUMPDEST POP POP POP POP PUSH1 0x40 MLOAD RETURNDATASIZE PUSH0 DUP3 RETURNDATACOPY PUSH1 0x1F RETURNDATASIZE SWAP1 DUP2 ADD PUSH1 0x1F NOT AND DUP3 ADD PUSH1 0x40 MSTORE PUSH2 0xEFB SWAP2 SWAP1 DUP2 ADD SWAP1 PUSH2 0x1FB4 JUMP JUMPDEST PUSH2 0xF04 CALLER PUSH2 0x12A9 JUMP JUMPDEST PUSH1 0x40 MLOAD PUSH1 0x20 ADD PUSH2 0xF16 SWAP4 SWAP3 SWAP2 SWAP1 PUSH2 0x228E JUMP JUMPDEST PUSH1 0x40 MLOAD PUSH1 0x20 DUP2 DUP4 SUB SUB DUP2 MSTORE SWAP1 PUSH1 0x40 MSTORE PUSH1 0x40 MLOAD DUP3 PUSH4 0xFFFFFFFF AND PUSH1 0xE0 SHL DUP2 MSTORE PUSH1 0x4 ADD PUSH2 0xF41 SWAP2 SWAP1 PUSH2 0x1A97 JUMP JUMPDEST PUSH0 PUSH1 0x40 MLOAD DUP1 DUP4 SUB DUP2 PUSH0 DUP8 DUP1 EXTCODESIZE ISZERO DUP1 ISZERO PUSH2 0xF58 JUMPI PUSH0 PUSH0 REVERT JUMPDEST POP GAS CALL ISZERO DUP1 ISZERO PUSH2 0xF6A JUMPI RETURNDATASIZE PUSH0 PUSH0 RETURNDATACOPY RETURNDATASIZE PUSH0 REVERT JUMPDEST POP POP POP POP POP POP POP JUMP JUMPDEST PUSH1 0x60 PUSH1 0x5 DUP1 SLOAD PUSH2 0x656 SWAP1 PUSH2 0x1DEE JUMP JUMPDEST PUSH2 0xF8A PUSH2 0x1269 JUMP JUMPDEST PUSH1 0x4 PUSH2 0xF96 DUP4 DUP3 PUSH2 0x2330 JUMP JUMPDEST POP PUSH1 0x5 PUSH2 0xFA3 DUP3 DUP3 PUSH2 0x2330 JUMP JUMPDEST POP POP POP JUMP JUMPDEST PUSH0 CALLER PUSH2 0x716 DUP2 DUP6 DUP6 PUSH2 0x1381 JUMP JUMPDEST PUSH2 0xFBD PUSH2 0x1269 JUMP JUMPDEST PUSH1 0xF DUP1 SLOAD PUSH1 0x1 PUSH1 0x1 PUSH1 0xA0 SHL SUB NOT AND SWAP1 SSTORE PUSH1 0x9 DUP1 SLOAD PUSH1 0x40 MLOAD PUSH4 0xCF34EF53 PUSH1 0xE0 SHL DUP2 MSTORE PUSH1 0x20 PUSH1 0x4 DUP3 ADD MSTORE PUSH1 0x24 DUP2 ADD SWAP3 SWAP1 SWAP3 MSTORE PUSH9 0x4C65667420506C6179 PUSH1 0xB8 SHL PUSH1 0x44 DUP4 ADD MSTORE PUSH1 0x1 PUSH1 0x1 PUSH1 0xA0 SHL SUB AND SWAP1 PUSH4 0xCF34EF53 SWAP1 PUSH1 0x64 ADD PUSH0 PUSH1 0x40 MLOAD DUP1 DUP4 SUB DUP2 PUSH0 DUP8 DUP1 EXTCODESIZE ISZERO DUP1 ISZERO PUSH2 0x1029 JUMPI PUSH0 PUSH0 REVERT JUMPDEST POP GAS CALL ISZERO DUP1 ISZERO PUSH2 0x103B JUMPI RETURNDATASIZE PUSH0 PUSH0 RETURNDATACOPY RETURNDATASIZE PUSH0 REVERT JUMPDEST POP POP POP POP JUMP JUMPDEST PUSH2 0x1049 PUSH2 0x1269 JUMP JUMPDEST PUSH1 0x9 SLOAD PUSH1 0x40 MLOAD PUSH4 0xC34686E5 PUSH1 0xE0 SHL DUP2 MSTORE PUSH1 0x1 PUSH1 0x1 PUSH1 0xA0 SHL SUB SWAP1 SWAP2 AND SWAP1 PUSH4 0xC34686E5 SWAP1 PUSH2 0x107B SWAP1 DUP6 SWAP1 DUP6 SWAP1 PUSH1 0x4 ADD PUSH2 0x23EA JUMP JUMPDEST PUSH0 PUSH1 0x40 MLOAD DUP1 DUP4 SUB DUP2 PUSH0 DUP8 DUP1 EXTCODESIZE ISZERO DUP1 ISZERO PUSH2 0x1092 JUMPI PUSH0 PUSH0 REVERT JUMPDEST POP GAS CALL ISZERO DUP1 ISZERO PUSH2 0x10A4 JUMPI RETURNDATASIZE PUSH0 PUSH0 RETURNDATACOPY RETURNDATASIZE PUSH0 REVERT JUMPDEST POP POP PUSH1 0x9 SLOAD DUP5 MLOAD PUSH1 0x1 PUSH1 0x1 PUSH1 0xA0 SHL SUB SWAP1 SWAP2 AND SWAP3 POP PUSH4 0xCF34EF53 SWAP2 POP PUSH2 0x5D1 SWAP1 PUSH2 0x12A9 JUMP JUMPDEST PUSH1 0x9 SLOAD PUSH1 0x40 MLOAD PUSH4 0xB502E567 PUSH1 0xE0 SHL DUP2 MSTORE PUSH1 0x60 SWAP2 PUSH1 0x1 PUSH1 0x1 PUSH1 0xA0 SHL SUB AND SWAP1 PUSH4 0xB502E567 SWAP1 PUSH2 0x10F7 SWAP1 PUSH1 0x4 ADD PUSH2 0x2427 JUMP JUMPDEST PUSH0 PUSH1 0x40 MLOAD DUP1 DUP4 SUB DUP2 DUP7 GAS STATICCALL ISZERO DUP1 ISZERO PUSH2 0x1111 JUMPI RETURNDATASIZE PUSH0 PUSH0 RETURNDATACOPY RETURNDATASIZE PUSH0 REVERT JUMPDEST POP POP POP POP PUSH1 0x40 MLOAD RETURNDATASIZE PUSH0 DUP3 RETURNDATACOPY PUSH1 0x1F RETURNDATASIZE SWAP1 DUP2 ADD PUSH1 0x1F NOT AND DUP3 ADD PUSH1 0x40 MSTORE PUSH2 0x1138 SWAP2 SWAP1 DUP2 ADD SWAP1 PUSH2 0x1FB4 JUMP JUMPDEST SWAP1 POP SWAP1 JUMP JUMPDEST PUSH2 0x1145 PUSH2 0x1269 JUMP JUMPDEST PUSH1 0x9 SLOAD PUSH1 0x40 MLOAD PUSH4 0x37D72DED PUSH1 0xE2 SHL DUP2 MSTORE PUSH1 0x1 PUSH1 0x1 PUSH1 0xA0 SHL SUB SWAP1 SWAP2 AND SWAP1 PUSH4 0xDF5CB7B4 SWAP1 PUSH2 0x1175 SWAP1 DUP5 SWAP1 PUSH1 0x4 ADD PUSH2 0x2438 JUMP JUMPDEST PUSH0 PUSH1 0x40 MLOAD DUP1 DUP4 SUB DUP2 PUSH0 DUP8 DUP1 EXTCODESIZE ISZERO DUP1 ISZERO PUSH2 0x118C JUMPI PUSH0 PUSH0 REVERT JUMPDEST POP GAS CALL ISZERO DUP1 ISZERO PUSH2 0x119E JUMPI RETURNDATASIZE PUSH0 PUSH0 RETURNDATACOPY RETURNDATASIZE PUSH0 REVERT JUMPDEST POP POP PUSH1 0x9 SLOAD PUSH1 0x40 MLOAD PUSH1 0x1 PUSH1 0x1 PUSH1 0xA0 SHL SUB SWAP1 SWAP2 AND SWAP3 POP PUSH4 0xCF34EF53 SWAP2 POP PUSH2 0x11C8 SWAP1 DUP5 SWAP1 PUSH1 0x20 ADD PUSH2 0x245B JUMP JUMPDEST PUSH1 0x40 MLOAD PUSH1 0x20 DUP2 DUP4 SUB SUB DUP2 MSTORE SWAP1 PUSH1 0x40 MSTORE PUSH1 0x40 MLOAD DUP3 PUSH4 0xFFFFFFFF AND PUSH1 0xE0 SHL DUP2 MSTORE PUSH1 0x4 ADD PUSH2 0x75A SWAP2 SWAP1 PUSH2 0x1A97 JUMP JUMPDEST PUSH1 0x1 PUSH1 0x1 PUSH1 0xA0 SHL SUB SWAP2 DUP3 AND PUSH0 SWAP1 DUP2 MSTORE PUSH1 0x2 PUSH1 0x20 SWAP1 DUP2 MSTORE PUSH1 0x40 DUP1 DUP4 KECCAK256 SWAP4 SWAP1 SWAP5 AND DUP3 MSTORE SWAP2 SWAP1 SWAP2 MSTORE KECCAK256 SLOAD SWAP1 JUMP JUMPDEST PUSH1 0x60 PUSH2 0x1227 PUSH2 0x1269 JUMP JUMPDEST PUSH1 0x9 SLOAD PUSH1 0x40 MLOAD PUSH4 0x3B5C391B PUSH1 0xE2 SHL DUP2 MSTORE PUSH1 0x1 PUSH1 0x1 PUSH1 0xA0 SHL SUB SWAP1 SWAP2 AND SWAP1 PUSH4 0xED70E46C SWAP1 PUSH2 0xBB0 SWAP1 DUP6 SWAP1 PUSH1 0x4 ADD PUSH2 0x1CB1 JUMP JUMPDEST PUSH2 0x125F PUSH2 0x1269 JUMP JUMPDEST PUSH2 0x1267 PUSH2 0x12E1 JUMP JUMPDEST JUMP JUMPDEST PUSH2 0x1272 CALLER PUSH2 0xDA9 JUMP JUMPDEST ISZERO DUP1 ISZERO PUSH2 0x1285 JUMPI POP PUSH2 0x1283 ORIGIN PUSH2 0xDA9 JUMP JUMPDEST ISZERO JUMPDEST ISZERO PUSH2 0x1267 JUMPI ORIGIN CALLER ADDRESS PUSH1 0x40 MLOAD PUSH4 0xBE6BAB5 PUSH1 0xE0 SHL DUP2 MSTORE PUSH1 0x4 ADD PUSH2 0x7CB SWAP4 SWAP3 SWAP2 SWAP1 PUSH2 0x226B JUMP JUMPDEST PUSH1 0x40 MLOAD PUSH1 0x60 DUP3 DUP2 SHL PUSH12 0xFFFFFFFFFFFFFFFFFFFFFFFF NOT AND PUSH1 0x20 DUP4 ADD MSTORE SWAP1 PUSH2 0xBF1 SWAP1 PUSH1 0x34 ADD PUSH1 0x40 MLOAD PUSH1 0x20 DUP2 DUP4 SUB SUB DUP2 MSTORE SWAP1 PUSH1 0x40 MSTORE PUSH2 0x146C JUMP JUMPDEST PUSH2 0x12ED PUSH1 0x12 PUSH1 0xA PUSH2 0x1F1D JUMP JUMPDEST PUSH1 0x7 SLOAD PUSH2 0x12FA SWAP2 SWAP1 PUSH2 0x1F2B JUMP JUMPDEST PUSH1 0x3 SLOAD LT ISZERO PUSH2 0x1267 JUMPI PUSH2 0x1267 ADDRESS PUSH2 0x1313 PUSH1 0x12 PUSH1 0xA PUSH2 0x1F1D JUMP JUMPDEST PUSH2 0x131E SWAP1 PUSH1 0x1 PUSH2 0x1F2B JUMP JUMPDEST PUSH2 0x1673 JUMP JUMPDEST PUSH2 0xFA3 DUP4 DUP4 DUP4 PUSH1 0x1 PUSH2 0x167E JUMP JUMPDEST PUSH0 PUSH2 0x133B DUP5 DUP5 PUSH2 0x11F3 JUMP JUMPDEST SWAP1 POP PUSH0 NOT DUP2 EQ PUSH2 0x103B JUMPI DUP2 DUP2 LT ISZERO PUSH2 0x1373 JUMPI ORIGIN CALLER DUP6 DUP6 ADDRESS DUP6 DUP8 PUSH1 0x40 MLOAD PUSH3 0xB83D19 PUSH1 0xE2 SHL DUP2 MSTORE PUSH1 0x4 ADD PUSH2 0x7CB SWAP8 SWAP7 SWAP6 SWAP5 SWAP4 SWAP3 SWAP2 SWAP1 PUSH2 0x247F JUMP JUMPDEST PUSH2 0x103B DUP5 DUP5 DUP5 DUP5 SUB PUSH0 PUSH2 0x167E JUMP JUMPDEST PUSH2 0xFA3 DUP4 DUP4 DUP4 PUSH2 0x16FE JUMP JUMPDEST PUSH1 0x1 PUSH1 0x1 PUSH1 0xA0 SHL SUB DUP3 AND PUSH0 DUP2 DUP2 MSTORE PUSH1 0x20 DUP2 SWAP1 MSTORE PUSH1 0x40 DUP1 DUP3 KECCAK256 DUP1 SLOAD PUSH1 0xFF NOT AND DUP6 ISZERO ISZERO SWAP1 DUP2 OR SWAP1 SWAP2 SSTORE SWAP1 MLOAD SWAP1 SWAP3 SWAP2 PUSH32 0x6BFA7E860C3E9BF67B810CB88276B19B27C972812BAC04793D369B59A1183A83 SWAP2 LOG3 POP POP JUMP JUMPDEST PUSH1 0x60 PUSH0 PUSH2 0x13EB DUP4 PUSH2 0x1819 JUMP JUMPDEST PUSH1 0x1 ADD SWAP1 POP DUP1 PUSH1 0x1 PUSH1 0x1 PUSH1 0x40 SHL SUB DUP2 GT ISZERO PUSH2 0x1408 JUMPI PUSH2 0x1408 PUSH2 0x1938 JUMP JUMPDEST PUSH1 0x40 MLOAD SWAP1 DUP1 DUP3 MSTORE DUP1 PUSH1 0x1F ADD PUSH1 0x1F NOT AND PUSH1 0x20 ADD DUP3 ADD PUSH1 0x40 MSTORE DUP1 ISZERO PUSH2 0x1432 JUMPI PUSH1 0x20 DUP3 ADD DUP2 DUP1 CALLDATASIZE DUP4 CALLDATACOPY ADD SWAP1 POP JUMPDEST POP SWAP2 POP DUP1 DUP3 ADD PUSH1 0x20 ADD JUMPDEST PUSH0 NOT ADD PUSH16 0x181899199A1A9B1B9C1CB0B131B232B3 PUSH1 0x81 SHL PUSH1 0xA DUP6 MOD BYTE DUP2 MSTORE8 PUSH1 0xA DUP5 DIV SWAP4 POP DUP4 PUSH2 0x143C JUMPI POP POP SWAP2 SWAP1 POP JUMP JUMPDEST PUSH1 0x40 DUP1 MLOAD DUP1 DUP3 ADD SWAP1 SWAP2 MSTORE PUSH1 0x10 DUP2 MSTORE PUSH16 0x181899199A1A9B1B9C1CB0B131B232B3 PUSH1 0x81 SHL PUSH1 0x20 DUP3 ADD MSTORE DUP2 MLOAD PUSH1 0x60 SWAP2 SWAP1 PUSH0 SWAP1 PUSH2 0x14A6 SWAP1 PUSH1 0x2 PUSH2 0x1F2B JUMP JUMPDEST PUSH2 0x14B1 SWAP1 PUSH1 0x2 PUSH2 0x24C2 JUMP JUMPDEST PUSH1 0x1 PUSH1 0x1 PUSH1 0x40 SHL SUB DUP2 GT ISZERO PUSH2 0x14C8 JUMPI PUSH2 0x14C8 PUSH2 0x1938 JUMP JUMPDEST PUSH1 0x40 MLOAD SWAP1 DUP1 DUP3 MSTORE DUP1 PUSH1 0x1F ADD PUSH1 0x1F NOT AND PUSH1 0x20 ADD DUP3 ADD PUSH1 0x40 MSTORE DUP1 ISZERO PUSH2 0x14F2 JUMPI PUSH1 0x20 DUP3 ADD DUP2 DUP1 CALLDATASIZE DUP4 CALLDATACOPY ADD SWAP1 POP JUMPDEST POP SWAP1 POP PUSH1 0x3 PUSH1 0xFC SHL DUP2 PUSH0 DUP2 MLOAD DUP2 LT PUSH2 0x150C JUMPI PUSH2 0x150C PUSH2 0x24D5 JUMP JUMPDEST PUSH1 0x20 ADD ADD SWAP1 PUSH1 0x1 PUSH1 0x1 PUSH1 0xF8 SHL SUB NOT AND SWAP1 DUP2 PUSH0 BYTE SWAP1 MSTORE8 POP PUSH1 0xF PUSH1 0xFB SHL DUP2 PUSH1 0x1 DUP2 MLOAD DUP2 LT PUSH2 0x153A JUMPI PUSH2 0x153A PUSH2 0x24D5 JUMP JUMPDEST PUSH1 0x20 ADD ADD SWAP1 PUSH1 0x1 PUSH1 0x1 PUSH1 0xF8 SHL SUB NOT AND SWAP1 DUP2 PUSH0 BYTE SWAP1 MSTORE8 POP PUSH0 JUMPDEST DUP5 MLOAD DUP2 LT ISZERO PUSH2 0x166B JUMPI DUP3 PUSH1 0x4 DUP7 DUP4 DUP2 MLOAD DUP2 LT PUSH2 0x1570 JUMPI PUSH2 0x1570 PUSH2 0x24D5 JUMP JUMPDEST ADD PUSH1 0x20 ADD MLOAD DUP3 MLOAD PUSH1 0x1 PUSH1 0x1 PUSH1 0xF8 SHL SUB NOT SWAP1 SWAP2 AND SWAP1 SWAP2 SHR PUSH1 0xF8 SHR SWAP1 DUP2 LT PUSH2 0x1598 JUMPI PUSH2 0x1598 PUSH2 0x24D5 JUMP JUMPDEST ADD PUSH1 0x20 ADD MLOAD PUSH1 0x1 PUSH1 0x1 PUSH1 0xF8 SHL SUB NOT AND DUP3 PUSH2 0x15B3 DUP4 PUSH1 0x2 PUSH2 0x1F2B JUMP JUMPDEST PUSH2 0x15BE SWAP1 PUSH1 0x2 PUSH2 0x24C2 JUMP JUMPDEST DUP2 MLOAD DUP2 LT PUSH2 0x15CE JUMPI PUSH2 0x15CE PUSH2 0x24D5 JUMP JUMPDEST PUSH1 0x20 ADD ADD SWAP1 PUSH1 0x1 PUSH1 0x1 PUSH1 0xF8 SHL SUB NOT AND SWAP1 DUP2 PUSH0 BYTE SWAP1 MSTORE8 POP DUP3 DUP6 DUP3 DUP2 MLOAD DUP2 LT PUSH2 0x15F7 JUMPI PUSH2 0x15F7 PUSH2 0x24D5 JUMP JUMPDEST PUSH1 0x20 SWAP2 ADD ADD MLOAD DUP2 MLOAD PUSH1 0xF8 SWAP2 SWAP1 SWAP2 SHR PUSH1 0xF AND SWAP1 DUP2 LT PUSH2 0x1617 JUMPI PUSH2 0x1617 PUSH2 0x24D5 JUMP JUMPDEST ADD PUSH1 0x20 ADD MLOAD PUSH1 0x1 PUSH1 0x1 PUSH1 0xF8 SHL SUB NOT AND DUP3 PUSH2 0x1632 DUP4 PUSH1 0x2 PUSH2 0x1F2B JUMP JUMPDEST PUSH2 0x163D SWAP1 PUSH1 0x3 PUSH2 0x24C2 JUMP JUMPDEST DUP2 MLOAD DUP2 LT PUSH2 0x164D JUMPI PUSH2 0x164D PUSH2 0x24D5 JUMP JUMPDEST PUSH1 0x20 ADD ADD SWAP1 PUSH1 0x1 PUSH1 0x1 PUSH1 0xF8 SHL SUB NOT AND SWAP1 DUP2 PUSH0 BYTE SWAP1 MSTORE8 POP PUSH1 0x1 ADD PUSH2 0x1552 JUMP JUMPDEST POP SWAP4 SWAP3 POP POP POP JUMP JUMPDEST PUSH2 0x643 PUSH0 DUP4 DUP4 PUSH2 0x16FE JUMP JUMPDEST PUSH1 0x1 PUSH1 0x1 PUSH1 0xA0 SHL SUB DUP1 DUP6 AND PUSH0 SWAP1 DUP2 MSTORE PUSH1 0x2 PUSH1 0x20 SWAP1 DUP2 MSTORE PUSH1 0x40 DUP1 DUP4 KECCAK256 SWAP4 DUP8 AND DUP4 MSTORE SWAP3 SWAP1 MSTORE KECCAK256 DUP3 SWAP1 SSTORE DUP1 ISZERO PUSH2 0x103B JUMPI DUP3 PUSH1 0x1 PUSH1 0x1 PUSH1 0xA0 SHL SUB AND DUP5 PUSH1 0x1 PUSH1 0x1 PUSH1 0xA0 SHL SUB AND PUSH32 0x8C5BE1E5EBEC7D5BD14F71427D1E84F3DD0314C0F7B2291E5B200AC8C7C3B925 DUP5 PUSH1 0x40 MLOAD PUSH2 0x16F0 SWAP2 DUP2 MSTORE PUSH1 0x20 ADD SWAP1 JUMP JUMPDEST PUSH1 0x40 MLOAD DUP1 SWAP2 SUB SWAP1 LOG3 POP POP POP POP JUMP JUMPDEST PUSH1 0x1 PUSH1 0x1 PUSH1 0xA0 SHL SUB DUP4 AND PUSH2 0x1728 JUMPI DUP1 PUSH1 0x3 PUSH0 DUP3 DUP3 SLOAD PUSH2 0x171D SWAP2 SWAP1 PUSH2 0x24C2 JUMP JUMPDEST SWAP1 SWAP2 SSTORE POP PUSH2 0x178D SWAP1 POP JUMP JUMPDEST PUSH1 0x1 PUSH1 0x1 PUSH1 0xA0 SHL SUB DUP4 AND PUSH0 SWAP1 DUP2 MSTORE PUSH1 0x1 PUSH1 0x20 MSTORE PUSH1 0x40 SWAP1 KECCAK256 SLOAD DUP2 DUP2 LT ISZERO PUSH2 0x176F JUMPI ORIGIN CALLER DUP6 DUP6 ADDRESS DUP6 DUP8 PUSH1 0x40 MLOAD PUSH4 0xF7D0BBD PUSH1 0xE2 SHL DUP2 MSTORE PUSH1 0x4 ADD PUSH2 0x7CB SWAP8 SWAP7 SWAP6 SWAP5 SWAP4 SWAP3 SWAP2 SWAP1 PUSH2 0x247F JUMP JUMPDEST PUSH1 0x1 PUSH1 0x1 PUSH1 0xA0 SHL SUB DUP5 AND PUSH0 SWAP1 DUP2 MSTORE PUSH1 0x1 PUSH1 0x20 MSTORE PUSH1 0x40 SWAP1 KECCAK256 SWAP1 DUP3 SWAP1 SUB SWAP1 SSTORE JUMPDEST PUSH1 0x1 PUSH1 0x1 PUSH1 0xA0 SHL SUB DUP3 AND PUSH2 0x17A9 JUMPI PUSH1 0x3 DUP1 SLOAD DUP3 SWAP1 SUB SWAP1 SSTORE PUSH2 0x17C7 JUMP JUMPDEST PUSH1 0x1 PUSH1 0x1 PUSH1 0xA0 SHL SUB DUP3 AND PUSH0 SWAP1 DUP2 MSTORE PUSH1 0x1 PUSH1 0x20 MSTORE PUSH1 0x40 SWAP1 KECCAK256 DUP1 SLOAD DUP3 ADD SWAP1 SSTORE JUMPDEST DUP2 PUSH1 0x1 PUSH1 0x1 PUSH1 0xA0 SHL SUB AND DUP4 PUSH1 0x1 PUSH1 0x1 PUSH1 0xA0 SHL SUB AND PUSH32 0xDDF252AD1BE2C89B69C2B068FC378DAA952BA7F163C4A11628F55A4DF523B3EF DUP4 PUSH1 0x40 MLOAD PUSH2 0x180C SWAP2 DUP2 MSTORE PUSH1 0x20 ADD SWAP1 JUMP JUMPDEST PUSH1 0x40 MLOAD DUP1 SWAP2 SUB SWAP1 LOG3 POP POP POP JUMP JUMPDEST PUSH0 DUP1 PUSH1 0x40 JUMPDEST PUSH1 0x1 DUP2 PUSH1 0xFF AND LT PUSH2 0x1865 JUMPI DUP1 PUSH1 0xFF AND PUSH1 0xA EXP DUP5 LT PUSH2 0x1857 JUMPI DUP1 PUSH1 0xFF AND PUSH1 0xA EXP DUP5 DUP2 PUSH2 0x184B JUMPI PUSH2 0x184B PUSH2 0x1F42 JUMP JUMPDEST DIV SWAP4 POP DUP1 PUSH1 0xFF AND DUP3 ADD SWAP2 POP JUMPDEST PUSH1 0x2 PUSH1 0xFF DUP3 AND DIV SWAP1 POP PUSH2 0x181E JUMP JUMPDEST POP SWAP3 SWAP2 POP POP JUMP JUMPDEST PUSH1 0x1 DUP4 ADD SWAP2 DUP4 SWAP1 DUP3 ISZERO PUSH2 0x1900 JUMPI SWAP2 PUSH1 0x20 MUL DUP3 ADD PUSH0 JUMPDEST DUP4 DUP3 GT ISZERO PUSH2 0x18CB JUMPI DUP4 MLOAD DUP4 DUP3 PUSH2 0x100 EXP DUP2 SLOAD DUP2 PUSH1 0x1 PUSH1 0x1 PUSH1 0x40 SHL SUB MUL NOT AND SWAP1 DUP4 PUSH1 0x1 PUSH1 0x1 PUSH1 0x40 SHL SUB AND MUL OR SWAP1 SSTORE POP SWAP3 PUSH1 0x20 ADD SWAP3 PUSH1 0x8 ADD PUSH1 0x20 DUP2 PUSH1 0x7 ADD DIV SWAP3 DUP4 ADD SWAP3 PUSH1 0x1 SUB MUL PUSH2 0x1881 JUMP JUMPDEST DUP1 ISZERO PUSH2 0x18FE JUMPI DUP3 DUP2 PUSH2 0x100 EXP DUP2 SLOAD SWAP1 PUSH1 0x1 PUSH1 0x1 PUSH1 0x40 SHL SUB MUL NOT AND SWAP1 SSTORE PUSH1 0x8 ADD PUSH1 0x20 DUP2 PUSH1 0x7 ADD DIV SWAP3 DUP4 ADD SWAP3 PUSH1 0x1 SUB MUL PUSH2 0x18CB JUMP JUMPDEST POP JUMPDEST POP PUSH2 0x190C SWAP3 SWAP2 POP PUSH2 0x1910 JUMP JUMPDEST POP SWAP1 JUMP JUMPDEST JUMPDEST DUP1 DUP3 GT ISZERO PUSH2 0x190C JUMPI PUSH0 DUP2 SSTORE PUSH1 0x1 ADD PUSH2 0x1911 JUMP JUMPDEST PUSH1 0x1 PUSH1 0x1 PUSH1 0xA0 SHL SUB DUP2 AND DUP2 EQ PUSH2 0x78F JUMPI PUSH0 PUSH0 REVERT JUMPDEST PUSH4 0x4E487B71 PUSH1 0xE0 SHL PUSH0 MSTORE PUSH1 0x41 PUSH1 0x4 MSTORE PUSH1 0x24 PUSH0 REVERT JUMPDEST PUSH1 0x40 MLOAD PUSH2 0x100 DUP2 ADD PUSH1 0x1 PUSH1 0x1 PUSH1 0x40 SHL SUB DUP2 GT DUP3 DUP3 LT OR ISZERO PUSH2 0x196F JUMPI PUSH2 0x196F PUSH2 0x1938 JUMP JUMPDEST PUSH1 0x40 MSTORE SWAP1 JUMP JUMPDEST PUSH1 0x40 MLOAD PUSH1 0x1F DUP3 ADD PUSH1 0x1F NOT AND DUP2 ADD PUSH1 0x1 PUSH1 0x1 PUSH1 0x40 SHL SUB DUP2 GT DUP3 DUP3 LT OR ISZERO PUSH2 0x199D JUMPI PUSH2 0x199D PUSH2 0x1938 JUMP JUMPDEST PUSH1 0x40 MSTORE SWAP2 SWAP1 POP JUMP JUMPDEST PUSH0 PUSH1 0x1 PUSH1 0x1 PUSH1 0x40 SHL SUB DUP3 GT ISZERO PUSH2 0x19BD JUMPI PUSH2 0x19BD PUSH2 0x1938 JUMP JUMPDEST POP PUSH1 0x1F ADD PUSH1 0x1F NOT AND PUSH1 0x20 ADD SWAP1 JUMP JUMPDEST PUSH0 DUP3 PUSH1 0x1F DUP4 ADD SLT PUSH2 0x19DA JUMPI PUSH0 PUSH0 REVERT JUMPDEST DUP2 CALLDATALOAD PUSH2 0x19ED PUSH2 0x19E8 DUP3 PUSH2 0x19A5 JUMP JUMPDEST PUSH2 0x1975 JUMP JUMPDEST DUP2 DUP2 MSTORE DUP5 PUSH1 0x20 DUP4 DUP7 ADD ADD GT ISZERO PUSH2 0x1A01 JUMPI PUSH0 PUSH0 REVERT JUMPDEST DUP2 PUSH1 0x20 DUP6 ADD PUSH1 0x20 DUP4 ADD CALLDATACOPY PUSH0 SWAP2 DUP2 ADD PUSH1 0x20 ADD SWAP2 SWAP1 SWAP2 MSTORE SWAP4 SWAP3 POP POP POP JUMP JUMPDEST PUSH0 PUSH0 PUSH1 0x40 DUP4 DUP6 SUB SLT ISZERO PUSH2 0x1A2E JUMPI PUSH0 PUSH0 REVERT JUMPDEST DUP3 CALLDATALOAD PUSH2 0x1A39 DUP2 PUSH2 0x1924 JUMP JUMPDEST SWAP2 POP PUSH1 0x20 DUP4 ADD CALLDATALOAD PUSH1 0x1 PUSH1 0x1 PUSH1 0x40 SHL SUB DUP2 GT ISZERO PUSH2 0x1A53 JUMPI PUSH0 PUSH0 REVERT JUMPDEST PUSH2 0x1A5F DUP6 DUP3 DUP7 ADD PUSH2 0x19CB JUMP JUMPDEST SWAP2 POP POP SWAP3 POP SWAP3 SWAP1 POP JUMP JUMPDEST PUSH0 DUP2 MLOAD DUP1 DUP5 MSTORE DUP1 PUSH1 0x20 DUP5 ADD PUSH1 0x20 DUP7 ADD MCOPY PUSH0 PUSH1 0x20 DUP3 DUP7 ADD ADD MSTORE PUSH1 0x20 PUSH1 0x1F NOT PUSH1 0x1F DUP4 ADD AND DUP6 ADD ADD SWAP2 POP POP SWAP3 SWAP2 POP POP JUMP JUMPDEST PUSH1 0x20 DUP2 MSTORE PUSH0 PUSH2 0x1AA9 PUSH1 0x20 DUP4 ADD DUP5 PUSH2 0x1A69 JUMP JUMPDEST SWAP4 SWAP3 POP POP POP JUMP JUMPDEST PUSH0 PUSH1 0x20 DUP3 DUP5 SUB SLT ISZERO PUSH2 0x1AC0 JUMPI PUSH0 PUSH0 REVERT JUMPDEST POP CALLDATALOAD SWAP2 SWAP1 POP JUMP JUMPDEST PUSH0 PUSH0 PUSH1 0x40 DUP4 DUP6 SUB SLT ISZERO PUSH2 0x1AD8 JUMPI PUSH0 PUSH0 REVERT JUMPDEST DUP3 CALLDATALOAD PUSH2 0x1AE3 DUP2 PUSH2 0x1924 JUMP JUMPDEST SWAP5 PUSH1 0x20 SWAP4 SWAP1 SWAP4 ADD CALLDATALOAD SWAP4 POP POP POP JUMP JUMPDEST PUSH0 PUSH1 0x20 DUP3 DUP5 SUB SLT ISZERO PUSH2 0x1B01 JUMPI PUSH0 PUSH0 REVERT JUMPDEST DUP2 CALLDATALOAD PUSH1 0x1 PUSH1 0x1 PUSH1 0x40 SHL SUB DUP2 GT ISZERO PUSH2 0x1B16 JUMPI PUSH0 PUSH0 REVERT JUMPDEST PUSH2 0x1B22 DUP5 DUP3 DUP6 ADD PUSH2 0x19CB JUMP JUMPDEST SWAP5 SWAP4 POP POP POP POP JUMP JUMPDEST PUSH0 PUSH0 PUSH0 PUSH1 0x60 DUP5 DUP7 SUB SLT ISZERO PUSH2 0x1B3C JUMPI PUSH0 PUSH0 REVERT JUMPDEST DUP4 CALLDATALOAD PUSH2 0x1B47 DUP2 PUSH2 0x1924 JUMP JUMPDEST SWAP3 POP PUSH1 0x20 DUP5 ADD CALLDATALOAD PUSH2 0x1B57 DUP2 PUSH2 0x1924 JUMP JUMPDEST SWAP3 SWAP6 SWAP3 SWAP5 POP POP POP PUSH1 0x40 SWAP2 SWAP1 SWAP2 ADD CALLDATALOAD SWAP1 JUMP JUMPDEST PUSH0 PUSH1 0x20 DUP3 DUP5 SUB SLT ISZERO PUSH2 0x1B78 JUMPI PUSH0 PUSH0 REVERT JUMPDEST DUP2 CALLDATALOAD PUSH2 0x1AA9 DUP2 PUSH2 0x1924 JUMP JUMPDEST DUP1 CALLDATALOAD PUSH2 0xBF4 DUP2 PUSH2 0x1924 JUMP JUMPDEST PUSH1 0x1 PUSH1 0x1 PUSH1 0x40 SHL SUB DUP2 AND DUP2 EQ PUSH2 0x78F JUMPI PUSH0 PUSH0 REVERT JUMPDEST DUP1 CALLDATALOAD PUSH2 0xBF4 DUP2 PUSH2 0x1B8E JUMP JUMPDEST PUSH0 PUSH2 0x100 DUP3 DUP5 SUB SLT ISZERO PUSH2 0x1BBE JUMPI PUSH0 PUSH0 REVERT JUMPDEST PUSH2 0x1BC6 PUSH2 0x194C JUMP JUMPDEST SWAP1 POP DUP2 CALLDATALOAD PUSH2 0x1BD3 DUP2 PUSH2 0x1924 JUMP JUMPDEST DUP2 MSTORE PUSH2 0x1BE1 PUSH1 0x20 DUP4 ADD PUSH2 0x1B83 JUMP JUMPDEST PUSH1 0x20 DUP3 ADD MSTORE PUSH2 0x1BF2 PUSH1 0x40 DUP4 ADD PUSH2 0x1BA2 JUMP JUMPDEST PUSH1 0x40 DUP3 ADD MSTORE PUSH2 0x1C03 PUSH1 0x60 DUP4 ADD PUSH2 0x1BA2 JUMP JUMPDEST PUSH1 0x60 DUP3 ADD MSTORE PUSH2 0x1C14 PUSH1 0x80 DUP4 ADD PUSH2 0x1B83 JUMP JUMPDEST PUSH1 0x80 DUP3 ADD MSTORE PUSH2 0x1C25 PUSH1 0xA0 DUP4 ADD PUSH2 0x1BA2 JUMP JUMPDEST PUSH1 0xA0 DUP3 ADD MSTORE PUSH2 0x1C36 PUSH1 0xC0 DUP4 ADD PUSH2 0x1BA2 JUMP JUMPDEST PUSH1 0xC0 DUP3 ADD MSTORE PUSH2 0x1C47 PUSH1 0xE0 DUP4 ADD PUSH2 0x1BA2 JUMP JUMPDEST PUSH1 0xE0 DUP3 ADD MSTORE SWAP3 SWAP2 POP POP JUMP JUMPDEST PUSH0 PUSH2 0x100 DUP3 DUP5 SUB SLT ISZERO PUSH2 0x1C63 JUMPI PUSH0 PUSH0 REVERT JUMPDEST PUSH2 0x1AA9 DUP4 DUP4 PUSH2 0x1BAD JUMP JUMPDEST DUP1 ISZERO ISZERO DUP2 EQ PUSH2 0x78F JUMPI PUSH0 PUSH0 REVERT JUMPDEST PUSH0 PUSH0 PUSH1 0x40 DUP4 DUP6 SUB SLT ISZERO PUSH2 0x1C8B JUMPI PUSH0 PUSH0 REVERT JUMPDEST DUP3 CALLDATALOAD PUSH2 0x1C96 DUP2 PUSH2 0x1C6D JUMP JUMPDEST SWAP2 POP PUSH1 0x20 DUP4 ADD CALLDATALOAD PUSH2 0x1CA6 DUP2 PUSH2 0x1C6D JUMP JUMPDEST DUP1 SWAP2 POP POP SWAP3 POP SWAP3 SWAP1 POP JUMP JUMPDEST PUSH1 0x1 PUSH1 0x1 PUSH1 0xA0 SHL SUB SWAP2 SWAP1 SWAP2 AND DUP2 MSTORE PUSH1 0x20 ADD SWAP1 JUMP JUMPDEST PUSH0 PUSH0 PUSH1 0x40 DUP4 DUP6 SUB SLT ISZERO PUSH2 0x1CD6 JUMPI PUSH0 PUSH0 REVERT JUMPDEST DUP3 CALLDATALOAD PUSH1 0x1 PUSH1 0x1 PUSH1 0x40 SHL SUB DUP2 GT ISZERO PUSH2 0x1CEB JUMPI PUSH0 PUSH0 REVERT JUMPDEST PUSH2 0x1CF7 DUP6 DUP3 DUP7 ADD PUSH2 0x19CB JUMP JUMPDEST SWAP3 POP POP PUSH1 0x20 DUP4 ADD CALLDATALOAD PUSH1 0x1 PUSH1 0x1 PUSH1 0x40 SHL SUB DUP2 GT ISZERO PUSH2 0x1A53 JUMPI PUSH0 PUSH0 REVERT JUMPDEST PUSH0 PUSH0 PUSH2 0x120 DUP4 DUP6 SUB SLT ISZERO PUSH2 0x1D24 JUMPI PUSH0 PUSH0 REVERT JUMPDEST PUSH2 0x1D2E DUP5 DUP5 PUSH2 0x1BAD JUMP JUMPDEST SWAP2 POP PUSH2 0x100 DUP4 ADD CALLDATALOAD PUSH1 0x1 PUSH1 0x1 PUSH1 0x40 SHL SUB DUP2 GT ISZERO PUSH2 0x1A53 JUMPI PUSH0 PUSH0 REVERT JUMPDEST PUSH0 PUSH0 PUSH1 0x40 DUP4 DUP6 SUB SLT ISZERO PUSH2 0x1D5A JUMPI PUSH0 PUSH0 REVERT JUMPDEST DUP3 CALLDATALOAD PUSH2 0x1D65 DUP2 PUSH2 0x1924 JUMP JUMPDEST SWAP2 POP PUSH1 0x20 DUP4 ADD CALLDATALOAD PUSH2 0x1CA6 DUP2 PUSH2 0x1924 JUMP JUMPDEST PUSH1 0x1 PUSH1 0x1 PUSH1 0xA0 SHL SUB DUP4 AND DUP2 MSTORE PUSH1 0x40 PUSH1 0x20 DUP3 ADD DUP2 SWAP1 MSTORE PUSH0 SWAP1 PUSH2 0x1B22 SWAP1 DUP4 ADD DUP5 PUSH2 0x1A69 JUMP JUMPDEST PUSH0 DUP2 MLOAD DUP1 PUSH1 0x20 DUP5 ADD DUP6 MCOPY PUSH0 SWAP4 ADD SWAP3 DUP4 MSTORE POP SWAP1 SWAP2 SWAP1 POP JUMP JUMPDEST PUSH6 0x416C6961735B PUSH1 0xD0 SHL DUP2 MSTORE PUSH0 PUSH2 0x1DC9 PUSH1 0x6 DUP4 ADD DUP6 PUSH2 0x1D98 JUMP JUMPDEST PUSH9 0x2E9039B2BA103A379 PUSH1 0xBD SHL DUP2 MSTORE PUSH2 0x1DE5 PUSH1 0x9 DUP3 ADD DUP6 PUSH2 0x1D98 JUMP JUMPDEST SWAP6 SWAP5 POP POP POP POP POP JUMP JUMPDEST PUSH1 0x1 DUP2 DUP2 SHR SWAP1 DUP3 AND DUP1 PUSH2 0x1E02 JUMPI PUSH1 0x7F DUP3 AND SWAP2 POP JUMPDEST PUSH1 0x20 DUP3 LT DUP2 SUB PUSH2 0x1E20 JUMPI PUSH4 0x4E487B71 PUSH1 0xE0 SHL PUSH0 MSTORE PUSH1 0x22 PUSH1 0x4 MSTORE PUSH1 0x24 PUSH0 REVERT JUMPDEST POP SWAP2 SWAP1 POP JUMP JUMPDEST PUSH4 0x4E487B71 PUSH1 0xE0 SHL PUSH0 MSTORE PUSH1 0x11 PUSH1 0x4 MSTORE PUSH1 0x24 PUSH0 REVERT JUMPDEST PUSH1 0x1 DUP2 JUMPDEST PUSH1 0x1 DUP5 GT ISZERO PUSH2 0x1E75 JUMPI DUP1 DUP6 DIV DUP2 GT ISZERO PUSH2 0x1E59 JUMPI PUSH2 0x1E59 PUSH2 0x1E26 JUMP JUMPDEST PUSH1 0x1 DUP5 AND ISZERO PUSH2 0x1E67 JUMPI SWAP1 DUP2 MUL SWAP1 JUMPDEST PUSH1 0x1 SWAP4 SWAP1 SWAP4 SHR SWAP3 DUP1 MUL PUSH2 0x1E3E JUMP JUMPDEST SWAP4 POP SWAP4 SWAP2 POP POP JUMP JUMPDEST PUSH0 DUP3 PUSH2 0x1E8B JUMPI POP PUSH1 0x1 PUSH2 0x71C JUMP JUMPDEST DUP2 PUSH2 0x1E97 JUMPI POP PUSH0 PUSH2 0x71C JUMP JUMPDEST DUP2 PUSH1 0x1 DUP2 EQ PUSH2 0x1EAD JUMPI PUSH1 0x2 DUP2 EQ PUSH2 0x1EB7 JUMPI PUSH2 0x1ED3 JUMP JUMPDEST PUSH1 0x1 SWAP2 POP POP PUSH2 0x71C JUMP JUMPDEST PUSH1 0xFF DUP5 GT ISZERO PUSH2 0x1EC8 JUMPI PUSH2 0x1EC8 PUSH2 0x1E26 JUMP JUMPDEST POP POP PUSH1 0x1 DUP3 SHL PUSH2 0x71C JUMP JUMPDEST POP PUSH1 0x20 DUP4 LT PUSH2 0x133 DUP4 LT AND PUSH1 0x4E DUP5 LT PUSH1 0xB DUP5 LT AND OR ISZERO PUSH2 0x1EF6 JUMPI POP DUP2 DUP2 EXP PUSH2 0x71C JUMP JUMPDEST PUSH2 0x1F02 PUSH0 NOT DUP5 DUP5 PUSH2 0x1E3A JUMP JUMPDEST DUP1 PUSH0 NOT DIV DUP3 GT ISZERO PUSH2 0x1F15 JUMPI PUSH2 0x1F15 PUSH2 0x1E26 JUMP JUMPDEST MUL SWAP4 SWAP3 POP POP POP JUMP JUMPDEST PUSH0 PUSH2 0x1AA9 PUSH1 0xFF DUP5 AND DUP4 PUSH2 0x1E7D JUMP JUMPDEST DUP1 DUP3 MUL DUP2 ISZERO DUP3 DUP3 DIV DUP5 EQ OR PUSH2 0x71C JUMPI PUSH2 0x71C PUSH2 0x1E26 JUMP JUMPDEST PUSH4 0x4E487B71 PUSH1 0xE0 SHL PUSH0 MSTORE PUSH1 0x12 PUSH1 0x4 MSTORE PUSH1 0x24 PUSH0 REVERT JUMPDEST PUSH0 DUP3 PUSH2 0x1F70 JUMPI PUSH4 0x4E487B71 PUSH1 0xE0 SHL PUSH0 MSTORE PUSH1 0x12 PUSH1 0x4 MSTORE PUSH1 0x24 PUSH0 REVERT JUMPDEST POP DIV SWAP1 JUMP JUMPDEST PUSH1 0x1 PUSH1 0x1 PUSH1 0xA0 SHL SUB SWAP4 DUP5 AND DUP2 MSTORE SWAP2 SWAP1 SWAP3 AND PUSH1 0x20 DUP3 ADD MSTORE PUSH1 0x40 DUP2 ADD SWAP2 SWAP1 SWAP2 MSTORE PUSH1 0x60 ADD SWAP1 JUMP JUMPDEST PUSH0 PUSH1 0x20 DUP3 DUP5 SUB SLT ISZERO PUSH2 0x1FA9 JUMPI PUSH0 PUSH0 REVERT JUMPDEST DUP2 MLOAD PUSH2 0x1AA9 DUP2 PUSH2 0x1C6D JUMP JUMPDEST PUSH0 PUSH1 0x20 DUP3 DUP5 SUB SLT ISZERO PUSH2 0x1FC4 JUMPI PUSH0 PUSH0 REVERT JUMPDEST DUP2 MLOAD PUSH1 0x1 PUSH1 0x1 PUSH1 0x40 SHL SUB DUP2 GT ISZERO PUSH2 0x1FD9 JUMPI PUSH0 PUSH0 REVERT JUMPDEST DUP3 ADD PUSH1 0x1F DUP2 ADD DUP5 SGT PUSH2 0x1FE9 JUMPI PUSH0 PUSH0 REVERT JUMPDEST DUP1 MLOAD PUSH2 0x1FF7 PUSH2 0x19E8 DUP3 PUSH2 0x19A5 JUMP JUMPDEST DUP2 DUP2 MSTORE DUP6 PUSH1 0x20 DUP4 DUP6 ADD ADD GT ISZERO PUSH2 0x200B JUMPI PUSH0 PUSH0 REVERT JUMPDEST DUP2 PUSH1 0x20 DUP5 ADD PUSH1 0x20 DUP4 ADD MCOPY PUSH0 SWAP2 DUP2 ADD PUSH1 0x20 ADD SWAP2 SWAP1 SWAP2 MSTORE SWAP5 SWAP4 POP POP POP POP JUMP JUMPDEST PUSH14 0x2732B2B21020B8383937BB32B21 PUSH1 0x95 SHL DUP2 MSTORE PUSH0 PUSH2 0x1AA9 PUSH1 0xE DUP4 ADD DUP5 PUSH2 0x1D98 JUMP JUMPDEST PUSH1 0x1 PUSH1 0x1 PUSH1 0xA0 SHL SUB SWAP3 SWAP1 SWAP3 AND DUP3 MSTORE PUSH1 0x20 DUP3 ADD MSTORE PUSH1 0x40 ADD SWAP1 JUMP JUMPDEST DUP1 MLOAD PUSH1 0x1 PUSH1 0x1 PUSH1 0xA0 SHL SUB SWAP1 DUP2 AND DUP4 MSTORE PUSH1 0x20 DUP1 DUP4 ADD MLOAD SWAP1 SWAP2 AND SWAP1 DUP4 ADD MSTORE PUSH1 0x40 DUP1 DUP3 ADD MLOAD PUSH1 0x1 PUSH1 0x1 PUSH1 0x40 SHL SUB AND SWAP1 DUP4 ADD MSTORE PUSH1 0x60 DUP1 DUP3 ADD MLOAD SWAP1 PUSH2 0x20AD SWAP1 DUP5 ADD DUP3 PUSH1 0x1 PUSH1 0x1 PUSH1 0x40 SHL SUB AND SWAP1 MSTORE JUMP JUMPDEST POP PUSH1 0x80 DUP2 ADD MLOAD PUSH2 0x20C8 PUSH1 0x80 DUP5 ADD DUP3 PUSH1 0x1 PUSH1 0x1 PUSH1 0xA0 SHL SUB AND SWAP1 MSTORE JUMP JUMPDEST POP PUSH1 0xA0 DUP2 ADD MLOAD PUSH2 0x20E3 PUSH1 0xA0 DUP5 ADD DUP3 PUSH1 0x1 PUSH1 0x1 PUSH1 0x40 SHL SUB AND SWAP1 MSTORE JUMP JUMPDEST POP PUSH1 0xC0 DUP2 ADD MLOAD PUSH2 0x20FE PUSH1 0xC0 DUP5 ADD DUP3 PUSH1 0x1 PUSH1 0x1 PUSH1 0x40 SHL SUB AND SWAP1 MSTORE JUMP JUMPDEST POP PUSH1 0xE0 DUP2 ADD MLOAD PUSH2 0xFA3 PUSH1 0xE0 DUP5 ADD DUP3 PUSH1 0x1 PUSH1 0x1 PUSH1 0x40 SHL SUB AND SWAP1 MSTORE JUMP JUMPDEST PUSH2 0x100 DUP2 ADD PUSH2 0x71C DUP3 DUP5 PUSH2 0x2063 JUMP JUMPDEST DUP1 MLOAD PUSH2 0xBF4 DUP2 PUSH2 0x1B8E JUMP JUMPDEST DUP1 MLOAD PUSH2 0xBF4 DUP2 PUSH2 0x1924 JUMP JUMPDEST PUSH0 PUSH2 0x100 DUP3 DUP5 SUB SLT ISZERO PUSH2 0x214F JUMPI PUSH0 PUSH0 REVERT JUMPDEST PUSH2 0x2157 PUSH2 0x194C JUMP JUMPDEST SWAP1 POP DUP2 MLOAD PUSH2 0x2164 DUP2 PUSH2 0x1924 JUMP JUMPDEST DUP2 MSTORE PUSH2 0x2172 PUSH1 0x20 DUP4 ADD PUSH2 0x2133 JUMP JUMPDEST PUSH1 0x20 DUP3 ADD MSTORE PUSH2 0x2183 PUSH1 0x40 DUP4 ADD PUSH2 0x2128 JUMP JUMPDEST PUSH1 0x40 DUP3 ADD MSTORE PUSH2 0x2194 PUSH1 0x60 DUP4 ADD PUSH2 0x2128 JUMP JUMPDEST PUSH1 0x60 DUP3 ADD MSTORE PUSH2 0x21A5 PUSH1 0x80 DUP4 ADD PUSH2 0x2133 JUMP JUMPDEST PUSH1 0x80 DUP3 ADD MSTORE PUSH2 0x21B6 PUSH1 0xA0 DUP4 ADD PUSH2 0x2128 JUMP JUMPDEST PUSH1 0xA0 DUP3 ADD MSTORE PUSH2 0x21C7 PUSH1 0xC0 DUP4 ADD PUSH2 0x2128 JUMP JUMPDEST PUSH1 0xC0 DUP3 ADD MSTORE PUSH2 0x1C47 PUSH1 0xE0 DUP4 ADD PUSH2 0x2128 JUMP JUMPDEST PUSH0 PUSH0 PUSH2 0x160 DUP4 DUP6 SUB SLT ISZERO PUSH2 0x21EA JUMPI PUSH0 PUSH0 REVERT JUMPDEST DUP4 PUSH1 0x1F DUP5 ADD SLT PUSH2 0x21F8 JUMPI PUSH0 PUSH0 REVERT JUMPDEST PUSH1 0x40 MLOAD PUSH1 0x60 DUP2 ADD PUSH1 0x1 PUSH1 0x1 PUSH1 0x40 SHL SUB DUP2 GT DUP3 DUP3 LT OR ISZERO PUSH2 0x221A JUMPI PUSH2 0x221A PUSH2 0x1938 JUMP JUMPDEST PUSH1 0x40 MSTORE DUP1 PUSH1 0x60 DUP6 ADD DUP7 DUP2 GT ISZERO PUSH2 0x222E JUMPI PUSH0 PUSH0 REVERT JUMPDEST DUP6 JUMPDEST DUP2 DUP2 LT ISZERO PUSH2 0x2251 JUMPI DUP1 MLOAD PUSH2 0x2243 DUP2 PUSH2 0x1B8E JUMP JUMPDEST DUP4 MSTORE PUSH1 0x20 SWAP3 DUP4 ADD SWAP3 ADD PUSH2 0x2230 JUMP JUMPDEST POP DUP3 SWAP5 POP PUSH2 0x225F DUP8 DUP3 PUSH2 0x213E JUMP JUMPDEST SWAP4 POP POP POP POP SWAP3 POP SWAP3 SWAP1 POP JUMP JUMPDEST PUSH1 0x1 PUSH1 0x1 PUSH1 0xA0 SHL SUB SWAP4 DUP5 AND DUP2 MSTORE SWAP2 DUP4 AND PUSH1 0x20 DUP4 ADD MSTORE SWAP1 SWAP2 AND PUSH1 0x40 DUP3 ADD MSTORE PUSH1 0x60 ADD SWAP1 JUMP JUMPDEST PUSH12 0x2BB4BA34323930BB9027B31 PUSH1 0xA5 SHL DUP2 MSTORE PUSH0 PUSH2 0x22AE PUSH1 0xC DUP4 ADD DUP7 PUSH2 0x1D98 JUMP JUMPDEST PUSH1 0x1 PUSH1 0xFD SHL DUP2 MSTORE PUSH2 0x22C2 PUSH1 0x1 DUP3 ADD DUP7 PUSH2 0x1D98 JUMP JUMPDEST SWAP1 POP PUSH4 0x102A379 PUSH1 0xE5 SHL DUP2 MSTORE PUSH2 0x22DB PUSH1 0x4 DUP3 ADD DUP6 PUSH2 0x1D98 JUMP JUMPDEST SWAP7 SWAP6 POP POP POP POP POP POP JUMP JUMPDEST PUSH1 0x1F DUP3 GT ISZERO PUSH2 0xFA3 JUMPI DUP1 PUSH0 MSTORE PUSH1 0x20 PUSH0 KECCAK256 PUSH1 0x1F DUP5 ADD PUSH1 0x5 SHR DUP2 ADD PUSH1 0x20 DUP6 LT ISZERO PUSH2 0x230A JUMPI POP DUP1 JUMPDEST PUSH1 0x1F DUP5 ADD PUSH1 0x5 SHR DUP3 ADD SWAP2 POP JUMPDEST DUP2 DUP2 LT ISZERO PUSH2 0x2329 JUMPI PUSH0 DUP2 SSTORE PUSH1 0x1 ADD PUSH2 0x2316 JUMP JUMPDEST POP POP POP POP POP JUMP JUMPDEST DUP2 MLOAD PUSH1 0x1 PUSH1 0x1 PUSH1 0x40 SHL SUB DUP2 GT ISZERO PUSH2 0x2349 JUMPI PUSH2 0x2349 PUSH2 0x1938 JUMP JUMPDEST PUSH2 0x235D DUP2 PUSH2 0x2357 DUP5 SLOAD PUSH2 0x1DEE JUMP JUMPDEST DUP5 PUSH2 0x22E5 JUMP JUMPDEST PUSH1 0x20 PUSH1 0x1F DUP3 GT PUSH1 0x1 DUP2 EQ PUSH2 0x238F JUMPI PUSH0 DUP4 ISZERO PUSH2 0x2378 JUMPI POP DUP5 DUP3 ADD MLOAD JUMPDEST PUSH0 NOT PUSH1 0x3 DUP6 SWAP1 SHL SHR NOT AND PUSH1 0x1 DUP5 SWAP1 SHL OR DUP5 SSTORE PUSH2 0x2329 JUMP JUMPDEST PUSH0 DUP5 DUP2 MSTORE PUSH1 0x20 DUP2 KECCAK256 PUSH1 0x1F NOT DUP6 AND SWAP2 JUMPDEST DUP3 DUP2 LT ISZERO PUSH2 0x23BE JUMPI DUP8 DUP6 ADD MLOAD DUP3 SSTORE PUSH1 0x20 SWAP5 DUP6 ADD SWAP5 PUSH1 0x1 SWAP1 SWAP3 ADD SWAP2 ADD PUSH2 0x239E JUMP JUMPDEST POP DUP5 DUP3 LT ISZERO PUSH2 0x23DB JUMPI DUP7 DUP5 ADD MLOAD PUSH0 NOT PUSH1 0x3 DUP8 SWAP1 SHL PUSH1 0xF8 AND SHR NOT AND DUP2 SSTORE JUMPDEST POP POP POP POP PUSH1 0x1 SWAP1 DUP2 SHL ADD SWAP1 SSTORE POP JUMP JUMPDEST PUSH2 0x23F4 DUP2 DUP5 PUSH2 0x2063 JUMP JUMPDEST PUSH2 0x120 PUSH2 0x100 DUP3 ADD MSTORE PUSH0 PUSH2 0x1B22 PUSH2 0x120 DUP4 ADD DUP5 PUSH2 0x1A69 JUMP JUMPDEST PUSH1 0x8 DUP2 MSTORE PUSH8 0x557365726E616D65 PUSH1 0xC0 SHL PUSH1 0x20 DUP3 ADD MSTORE PUSH1 0x40 ADD SWAP1 JUMP JUMPDEST PUSH1 0x20 DUP2 MSTORE PUSH0 PUSH2 0xBF1 PUSH1 0x20 DUP4 ADD PUSH2 0x240C JUMP JUMPDEST PUSH1 0x40 DUP2 MSTORE PUSH0 PUSH2 0x2449 PUSH1 0x40 DUP4 ADD PUSH2 0x240C JUMP JUMPDEST DUP3 DUP2 SUB PUSH1 0x20 DUP5 ADD MSTORE PUSH2 0x1B22 DUP2 DUP6 PUSH2 0x1A69 JUMP JUMPDEST PUSH16 0x2AB9B2B93730B6B29039B2BA103A379 PUSH1 0x85 SHL DUP2 MSTORE PUSH0 PUSH2 0x1AA9 PUSH1 0x10 DUP4 ADD DUP5 PUSH2 0x1D98 JUMP JUMPDEST PUSH1 0x1 PUSH1 0x1 PUSH1 0xA0 SHL SUB SWAP8 DUP9 AND DUP2 MSTORE SWAP6 DUP8 AND PUSH1 0x20 DUP8 ADD MSTORE SWAP4 DUP7 AND PUSH1 0x40 DUP7 ADD MSTORE SWAP2 DUP6 AND PUSH1 0x60 DUP6 ADD MSTORE SWAP1 SWAP4 AND PUSH1 0x80 DUP4 ADD MSTORE PUSH1 0xA0 DUP3 ADD SWAP3 SWAP1 SWAP3 MSTORE PUSH1 0xC0 DUP2 ADD SWAP2 SWAP1 SWAP2 MSTORE PUSH1 0xE0 ADD SWAP1 JUMP JUMPDEST DUP1 DUP3 ADD DUP1 DUP3 GT ISZERO PUSH2 0x71C JUMPI PUSH2 0x71C PUSH2 0x1E26 JUMP JUMPDEST PUSH4 0x4E487B71 PUSH1 0xE0 SHL PUSH0 MSTORE PUSH1 0x32 PUSH1 0x4 MSTORE PUSH1 0x24 PUSH0 REVERT INVALID LOG2 PUSH5 0x6970667358 0x22 SLT KECCAK256 0xE5 JUMP ISZERO PUSH23 0xD30A5418C87D82EE2240F67547F6B1417936F5C7BC37D8 DUP8 AND DELEGATECALL 0xE9 0xD7 PUSH5 0x736F6C6343 STOP ADDMOD SHL STOP CALLER LOG2 PUSH5 0x6970667358 0x22 SLT KECCAK256 PUSH20 0xBFE942E4720597AA0486C944BD629516D56FB063 0xF8 RETURNDATASIZE DELEGATECALL 0x2B SWAP1 0x25 0x2E 0x23 0xAD DUP15 0x29 PUSH5 0x736F6C6343 STOP ADDMOD SHL STOP CALLER "
		},
		"gasEstimates": {
			"creation": {
				"codeDepositCost": "2813800",
				"executionCost": "infinite",
				"totalCost": "infinite"
			},
			"external": {
				"New(string,string)": "infinite",
				"Void()": "2359"
			}
		},
		"methodIdentifiers": {
			"New(string,string)": "8c6dc5ec",
			"Void()": "f4f6c22c"
		}
	},
	"abi": [
		{
			"inputs": [
				{
					"internalType": "address",
					"name": "VOIDAddress",
					"type": "address"
				}
			],
			"stateMutability": "nonpayable",
			"type": "constructor"
		},
		{
			"inputs": [
				{
					"internalType": "string",
					"name": "name",
					"type": "string"
				},
				{
					"internalType": "string",
					"name": "symbol",
					"type": "string"
				}
			],
			"name": "New",
			"outputs": [
				{
					"internalType": "contract LAU",
					"name": "Mu",
					"type": "address"
				}
			],
			"stateMutability": "nonpayable",
			"type": "function"
		},
		{
			"inputs": [],
			"name": "Void",
			"outputs": [
				{
					"internalType": "contract VOID",
					"name": "",
					"type": "address"
				}
			],
			"stateMutability": "view",
			"type": "function"
		}
	]
}