{
	"data": {
		"bytecode": {
			"linkReferences": {},
			"object": "608060405234801561000f575f5ffd5b506040516129f43803806129f483398101604081905261002e916104da565b6040518060400160405280600b81526020016a4459534e4f4d494120516960a81b81525060405180604001604052806002815260200161514960f01b815250826001600160a01b0316636fb7329c6040518163ffffffff1660e01b8152600401602060405180830381865afa1580156100a9573d5f5f3e3d5ffd5b505050506040513d601f19601f820116820180604052508101906100cd91906104da565b33806100ff57604051633603021960e21b81523260048201525f60248201523060448201526064015b60405180910390fd5b61010a81600161023b565b5060046101178482610594565b5060056101248382610594565b50600680546001600160a01b0319166001600160a01b0383169081179091556040805163604a6fa960e01b815290516201b207929163604a6fa991600480830192602092919082900301815f875af1158015610182573d5f5f3e3d5ffd5b505050506040513d601f19601f820116820180604052508101906101a6919061064e565b6101b09190610674565b6001600160401b03166007556102067324f0154c1dce548adf15da2098fdd8b8a3b8151d6101e06012600a6107a7565b6101eb9060016107b5565b6001600160a01b039091165f90815260086020526040902055565b5050600980546001600160a01b0319166001600160a01b0384161790555061022d3261028e565b6102356102d9565b506107df565b6001600160a01b0382165f81815260208190526040808220805460ff191685151590811790915590519092917f6bfa7e860c3e9bf67b810cb88276b19b27c972812bac04793d369b59a1183a8391a35050565b61029661031d565b6001600160a01b0381166102cb57604051633603021960e21b81523260048201525f60248201523060448201526064016100f6565b6102d681600161023b565b50565b6102e56012600a6107a7565b6007546102f291906107b5565b600354101561031b5761031b3061030b6012600a6107a7565b6103169060016107b5565b610377565b565b335f9081526020819052604090205460ff1615801561034b5750325f9081526020819052604090205460ff16155b1561031b57604051630be6bab560e01b81523260048201523360248201523060448201526064016100f6565b6103825f8383610386565b5050565b6001600160a01b0383166103b0578060035f8282546103a591906107cc565b9091555061043a9050565b6001600160a01b0383165f908152600160205260409020548181101561041c57604051630f7d0bbd60e21b81523260048201523360248201526001600160a01b0380861660448301528416606482015230608482015260a4810182905260c4810183905260e4016100f6565b6001600160a01b0384165f9081526001602052604090209082900390555b6001600160a01b03821661045657600380548290039055610474565b6001600160a01b0382165f9081526001602052604090208054820190555b816001600160a01b0316836001600160a01b03167fddf252ad1be2c89b69c2b068fc378daa952ba7f163c4a11628f55a4df523b3ef836040516104b991815260200190565b60405180910390a3505050565b6001600160a01b03811681146102d6575f5ffd5b5f602082840312156104ea575f5ffd5b81516104f5816104c6565b9392505050565b634e487b7160e01b5f52604160045260245ffd5b600181811c9082168061052457607f821691505b60208210810361054257634e487b7160e01b5f52602260045260245ffd5b50919050565b601f82111561058f57805f5260205f20601f840160051c8101602085101561056d5750805b601f840160051c820191505b8181101561058c575f8155600101610579565b50505b505050565b81516001600160401b038111156105ad576105ad6104fc565b6105c1816105bb8454610510565b84610548565b6020601f8211600181146105f3575f83156105dc5750848201515b5f19600385901b1c1916600184901b17845561058c565b5f84815260208120601f198516915b828110156106225787850151825560209485019460019092019101610602565b508482101561063f57868401515f19600387901b60f8161c191681555b50505050600190811b01905550565b5f6020828403121561065e575f5ffd5b81516001600160401b03811681146104f5575f5ffd5b5f6001600160401b0383168061069857634e487b7160e01b5f52601260045260245ffd5b6001600160401b03929092169190910692915050565b634e487b7160e01b5f52601160045260245ffd5b6001815b60018411156106fd578085048111156106e1576106e16106ae565b60018416156106ef57908102905b60019390931c9280026106c6565b935093915050565b5f82610713575060016107a1565b8161071f57505f6107a1565b8160018114610735576002811461073f5761075b565b60019150506107a1565b60ff841115610750576107506106ae565b50506001821b6107a1565b5060208310610133831016604e8410600b841016171561077e575081810a6107a1565b61078a5f1984846106c2565b805f190482111561079d5761079d6106ae565b0290505b92915050565b5f6104f560ff841683610705565b80820281158282048414176107a1576107a16106ae565b808201808211156107a1576107a16106ae565b612208806107ec5f395ff3fe608060405234801561000f575f5ffd5b50600436106101b6575f3560e01c80636fb7329c116100f6578063bafd8d4a1161009a578063bafd8d4a146103c8578063d3dc2a0f146103db578063d5abeb0114610401578063d9fe351d1461040a578063dd62ed3e14610432578063dedcc67e14610445578063eee9253d14610458578063f4e6c93f1461046b578063ff76204414610473575f5ffd5b80636fb7329c146103265780637038bd20146103465780637065cb481461035957806370a082311461036c5780638da5cb5b1461039457806395d89b411461039a5780639dcbf7ea146103a2578063a9059cbb146103b5575f5ffd5b80632d4b59791161015d5780632d4b597914610278578063304c29d61461028b578063313ce567146102aa57806338bf3cfa146102b95780633aac9d70146102cc5780634e334b7c146102ed57806356ca301a14610300578063666e1b3914610313575f5ffd5b806306fdde03146101ba578063095ea7b3146101d857806318160ddd146101fb578063222838db1461020d57806323b872dd146102225780632499a5331461023557806327d74dee146102485780632b83b1fc14610250575b5f5ffd5b6101c2610494565b6040516101cf9190611926565b60405180910390f35b6101eb6101e6366004611953565b610524565b60405190151581526020016101cf565b6003545b6040519081526020016101cf565b61022061021b366004611953565b61053d565b005b6101eb61023036600461197d565b61073e565b610220610243366004611953565b610761565b600a546101ff565b6101ff61025e3660046119bb565b6001600160a01b03165f9081526008602052604090205490565b610220610286366004611a92565b61090f565b6101ff610299366004611ae7565b5f908152600f602052604090205490565b604051601281526020016101cf565b6102206102c73660046119bb565b610ef4565b6102df6102da366004611ae7565b610f09565b6040516101cf929190611afe565b6102df6102fb366004611b64565b611027565b61022061030e366004611b80565b611078565b6101eb6103213660046119bb565b61147d565b600654610339906001600160a01b031681565b6040516101cf9190611ba0565b6101ff610354366004611bb4565b61149a565b6102206103673660046119bb565b6114cc565b6101ff61037a3660046119bb565b6001600160a01b03165f9081526001602052604090205490565b30610339565b6101c261150c565b6102206103b0366004611bf7565b61151b565b6101eb6103c3366004611953565b611541565b600954610339906001600160a01b031681565b6103e96603632c8eb5af3b81565b6040516001600160401b0390911681526020016101cf565b6101ff60075481565b6101ff610418366004611c44565b6001600160401b03165f908152600e602052604090205490565b6101ff610440366004611c5f565b61154e565b6101ff610453366004611c96565b611578565b6102df610466366004611b80565b61159d565b6102206115cb565b6101c260405180604001604052806002815260200161514960f01b81525081565b6060600480546104a390611ccc565b80601f01602080910402602001604051908101604052809291908181526020018280546104cf90611ccc565b801561051a5780601f106104f15761010080835404028352916020019161051a565b820191905f5260205f20905b8154815290600101906020018083116104fd57829003601f168201915b5050505050905090565b5f336105318185856115dd565b60019150505b92915050565b6001600160a01b0382165f90815260086020526040812054900361057f57816040516390b2344160e01b81526004016105769190611ba0565b60405180910390fd5b815f61058d6012600a611dfb565b6001600160a01b0385165f908152600860205260409020546105af9085611e09565b6105b99190611e20565b6040516323b872dd60e01b81529091505f9030906323b872dd906105e590339084908990600401611e3f565b6020604051808303815f875af1158015610601573d5f5f3e3d5ffd5b505050506040513d601f19601f820116820180604052508101906106259190611e63565b905080306001600160a01b03166306fdde036040518163ffffffff1660e01b81526004015f60405180830381865afa158015610663573d5f5f3e3d5ffd5b505050506040513d5f823e601f3d908101601f1916820160405261068a9190810190611e82565b60405160200161069a9190611f0d565b604051602081830303815290604052906106c75760405162461bcd60e51b81526004016105769190611926565b5060405163a9059cbb60e01b81526001600160a01b0384169063a9059cbb906106f69033908690600401611f2f565b6020604051808303815f875af1158015610712573d5f5f3e3d5ffd5b505050506040513d601f19601f820116820180604052508101906107369190611e63565b505050505050565b5f3361074b8582856115ea565b61075685858561163b565b506001949350505050565b6001600160a01b0382165f90815260086020526040812054900361079a57816040516390b2344160e01b81526004016105769190611ba0565b815f6107a86012600a611dfb565b6001600160a01b0385165f908152600860205260409020546107ca9085611e09565b6107d49190611e20565b90505f826001600160a01b03166323b872dd3330856040518463ffffffff1660e01b815260040161080793929190611e3f565b6020604051808303815f875af1158015610823573d5f5f3e3d5ffd5b505050506040513d601f19601f820116820180604052508101906108479190611e63565b905080836001600160a01b03166306fdde036040518163ffffffff1660e01b81526004015f60405180830381865afa158015610885573d5f5f3e3d5ffd5b505050506040513d5f823e601f3d908101601f191682016040526108ac9190810190611e82565b6040516020016108bc9190611f0d565b604051602081830303815290604052906108e95760405162461bcd60e51b81526004016105769190611926565b5060405163a9059cbb60e01b8152309063a9059cbb906106f69033908890600401611f2f565b6109176118c5565b836001600160a01b031663a138da0b6040518163ffffffff1660e01b8152600401602060405180830381865afa158015610953573d5f5f3e3d5ffd5b505050506040513d601f19601f820116820180604052508101906109779190611f48565b8082525f0361099b578360405163038c318f60e41b81526004016105769190611ba0565b60095460408051631a1cbf0f60e21b815290515f926001600160a01b031691636872fc3c9160048083019260209291908290030181865afa1580156109e2573d5f5f3e3d5ffd5b505050506040513d601f19601f82011682018060405250810190610a069190611f5f565b8251604051630dc8849d60e41b81526001600160a01b03929092169163dc8849d091610a389160040190815260200190565b602060405180830381865afa158015610a53573d5f5f3e3d5ffd5b505050506040513d601f19601f82011682018060405250810190610a779190611f5f565b9050846001600160a01b0316816001600160a01b031614610aaf578151604051631643751560e11b8152610576918791600401611f2f565b60095460408051631a1cbf0f60e21b815290515f926001600160a01b031691636872fc3c9160048083019260209291908290030181865afa158015610af6573d5f5f3e3d5ffd5b505050506040513d601f19601f82011682018060405250810190610b1a9190611f5f565b6001600160a01b031663e1ed6e726040518163ffffffff1660e01b8152600401602060405180830381865afa158015610b55573d5f5f3e3d5ffd5b505050506040513d601f19601f82011682018060405250810190610b799190611f7a565b90505f60095f9054906101000a90046001600160a01b03166001600160a01b0316636872fc3c6040518163ffffffff1660e01b8152600401602060405180830381865afa158015610bcc573d5f5f3e3d5ffd5b505050506040513d601f19601f82011682018060405250810190610bf09190611f5f565b6001600160a01b031663ac5bd44f6040518163ffffffff1660e01b8152600401610c1990611f95565b602060405180830381865afa158015610c34573d5f5f3e3d5ffd5b505050506040513d601f19601f82011682018060405250810190610c589190611f5f565b6040516323b872dd60e01b81529091506001600160a01b038216906323b872dd90610c8b90339030908a90600401611e3f565b6020604051808303815f875af1158015610ca7573d5f5f3e3d5ffd5b505050506040513d601f19601f82011682018060405250810190610ccb9190611e63565b506001600160401b0382811660208601908152600a805460408801818152606089018a81524260808b01908152600180850186555f9586528b517fc65a7bb8d6351c1cf70c95a316cc6a92839c986682d98bc35f958f4883f9d2a860059096029586015595517fc65a7bb8d6351c1cf70c95a316cc6a92839c986682d98bc35f958f4883f9d2a98501805467ffffffffffffffff1916919098161790965590517fc65a7bb8d6351c1cf70c95a316cc6a92839c986682d98bc35f958f4883f9d2aa830155517fc65a7bb8d6351c1cf70c95a316cc6a92839c986682d98bc35f958f4883f9d2ab82015592517fc65a7bb8d6351c1cf70c95a316cc6a92839c986682d98bc35f958f4883f9d2ac90930192909255600b805491820181559091527f0175b7a638427703f0dbe7bb9bbf987a2551717b34e79f33b5b1008d1fa01db901610e168782611ffc565b506001600160401b0382165f818152600e602090815260408083208882018051825460018181018555938752858720015589518552600f845282852090518154928301825590855283852090910155928252600c90528190209051869190610e7f9089906120b6565b90815260200160405180910390205f828254610e9b91906120c1565b909155505083515f908152600d6020526040908190209051869190610ec19089906120b6565b90815260200160405180910390205f828254610edd91906120c1565b90915550610eeb9050611646565b50505050505050565b610efc611688565b610f06815f6116c8565b50565b610f116118c5565b6060600a8381548110610f2657610f266120d4565b905f5260205f209060050201600b8481548110610f4557610f456120d4565b5f9182526020918290206040805160a0810182528554815260018601546001600160401b03169481019490945260028501549084015260038401546060840152600490930154608083015290910180548190610fa090611ccc565b80601f0160208091040260200160405190810160405280929190818152602001828054610fcc90611ccc565b80156110175780601f10610fee57610100808354040283529160200191611017565b820191905f5260205f20905b815481529060010190602001808311610ffa57829003601f168201915b5050505050905091509150915091565b61102f6118c5565b6001600160401b0383165f908152600e60205260409020805460609161106d918590811061105f5761105f6120d4565b905f5260205f200154610f09565b915091509250929050565b60095460408051631a1cbf0f60e21b815290515f926001600160a01b031691636872fc3c9160048083019260209291908290030181865afa1580156110bf573d5f5f3e3d5ffd5b505050506040513d601f19601f820116820180604052508101906110e39190611f5f565b6001600160a01b031663e1ed6e726040518163ffffffff1660e01b8152600401602060405180830381865afa15801561111e573d5f5f3e3d5ffd5b505050506040513d601f19601f820116820180604052508101906111429190611f7a565b9050806001600160401b0316600a8481548110611161576111616120d4565b5f9182526020909120600160059092020101546001600160401b03161461119e576040516309acb99760e31b815260048101849052602401610576565b600a83815481106111b1576111b16120d4565b905f5260205f209060050201600301548211156112105782600a84815481106111dc576111dc6120d4565b905f5260205f2090600502016003015460405163d8bf65b560e01b8152600401610576929190918252602082015260400190565b60095460408051631a1cbf0f60e21b815290515f926001600160a01b031691636872fc3c9160048083019260209291908290030181865afa158015611257573d5f5f3e3d5ffd5b505050506040513d601f19601f8201168201806040525081019061127b9190611f5f565b6001600160a01b031663ac5bd44f6040518163ffffffff1660e01b81526004016112a490611f95565b602060405180830381865afa1580156112bf573d5f5f3e3d5ffd5b505050506040513d601f19601f820116820180604052508101906112e39190611f5f565b60405163a9059cbb60e01b81529091506001600160a01b0382169063a9059cbb906113149033908790600401611f2f565b6020604051808303815f875af1158015611330573d5f5f3e3d5ffd5b505050506040513d601f19601f820116820180604052508101906113549190611e63565b5082600a8581548110611369576113696120d4565b905f5260205f2090600502016003015f82825461138691906120e8565b90915550506001600160401b0382165f908152600c60205260409020600b805485929190879081106113ba576113ba6120d4565b905f5260205f20016040516113cf91906120fb565b90815260200160405180910390205f8282546113eb91906120e8565b9250508190555082600d5f600a8781548110611409576114096120d4565b905f5260205f2090600502015f015481526020019081526020015f20600b8681548110611438576114386120d4565b905f5260205f200160405161144d91906120fb565b90815260200160405180910390205f82825461146991906120e8565b909155506114779050611646565b50505050565b6001600160a01b03165f9081526020819052604090205460ff1690565b5f828152600d602052604080822090516114b59084906120b6565b908152602001604051809103902054905092915050565b6114d4611688565b6001600160a01b03811661150157325f30604051633603021960e21b81526004016105769392919061216c565b610f068160016116c8565b6060600580546104a390611ccc565b611523611688565b600461152f8382611ffc565b50600561153c8282611ffc565b505050565b5f3361053181858561163b565b6001600160a01b039182165f90815260026020908152604080832093909416825291909152205490565b6001600160401b0382165f908152600c602052604080822090516114b59084906120b6565b6115a56118c5565b5f838152600f60205260409020805460609161106d918590811061105f5761105f6120d4565b6115d3611688565b6115db611646565b565b61153c838383600161171b565b5f6115f5848461154e565b90505f198114611477578181101561162d573233858530858760405162b83d1960e21b8152600401610576979695949392919061218f565b61147784848484035f61171b565b61153c83838361179b565b6116526012600a611dfb565b60075461165f9190611e09565b60035410156115db576115db306116786012600a611dfb565b611683906001611e09565b6118b6565b6116913361147d565b1580156116a457506116a23261147d565b155b156115db57323330604051630be6bab560e01b81526004016105769392919061216c565b6001600160a01b0382165f81815260208190526040808220805460ff191685151590811790915590519092917f6bfa7e860c3e9bf67b810cb88276b19b27c972812bac04793d369b59a1183a8391a35050565b6001600160a01b038085165f908152600260209081526040808320938716835292905220829055801561147757826001600160a01b0316846001600160a01b03167f8c5be1e5ebec7d5bd14f71427d1e84f3dd0314c0f7b2291e5b200ac8c7c3b9258460405161178d91815260200190565b60405180910390a350505050565b6001600160a01b0383166117c5578060035f8282546117ba91906120c1565b9091555061182a9050565b6001600160a01b0383165f908152600160205260409020548181101561180c5732338585308587604051630f7d0bbd60e21b8152600401610576979695949392919061218f565b6001600160a01b0384165f9081526001602052604090209082900390555b6001600160a01b03821661184657600380548290039055611864565b6001600160a01b0382165f9081526001602052604090208054820190555b816001600160a01b0316836001600160a01b03167fddf252ad1be2c89b69c2b068fc378daa952ba7f163c4a11628f55a4df523b3ef836040516118a991815260200190565b60405180910390a3505050565b6118c15f838361179b565b5050565b6040518060a001604052805f81526020015f6001600160401b031681526020015f81526020015f81526020015f81525090565b5f81518084528060208401602086015e5f602082860101526020601f19601f83011685010191505092915050565b602081525f61193860208301846118f8565b9392505050565b6001600160a01b0381168114610f06575f5ffd5b5f5f60408385031215611964575f5ffd5b823561196f8161193f565b946020939093013593505050565b5f5f5f6060848603121561198f575f5ffd5b833561199a8161193f565b925060208401356119aa8161193f565b929592945050506040919091013590565b5f602082840312156119cb575f5ffd5b81356119388161193f565b634e487b7160e01b5f52604160045260245ffd5b604051601f8201601f191681016001600160401b0381118282101715611a1257611a126119d6565b604052919050565b5f6001600160401b03821115611a3257611a326119d6565b50601f01601f191660200190565b5f82601f830112611a4f575f5ffd5b8135611a62611a5d82611a1a565b6119ea565b818152846020838601011115611a76575f5ffd5b816020850160208301375f918101602001919091529392505050565b5f5f5f60608486031215611aa4575f5ffd5b8335611aaf8161193f565b925060208401356001600160401b03811115611ac9575f5ffd5b611ad586828701611a40565b93969395505050506040919091013590565b5f60208284031215611af7575f5ffd5b5035919050565b825181526001600160401b03602084015116602082015260408301516040820152606083015160608201526080830151608082015260c060a08201525f611b4860c08301846118f8565b949350505050565b6001600160401b0381168114610f06575f5ffd5b5f5f60408385031215611b75575f5ffd5b823561196f81611b50565b5f5f60408385031215611b91575f5ffd5b50508035926020909101359150565b6001600160a01b0391909116815260200190565b5f5f60408385031215611bc5575f5ffd5b8235915060208301356001600160401b03811115611be1575f5ffd5b611bed85828601611a40565b9150509250929050565b5f5f60408385031215611c08575f5ffd5b82356001600160401b03811115611c1d575f5ffd5b611c2985828601611a40565b92505060208301356001600160401b03811115611be1575f5ffd5b5f60208284031215611c54575f5ffd5b813561193881611b50565b5f5f60408385031215611c70575f5ffd5b8235611c7b8161193f565b91506020830135611c8b8161193f565b809150509250929050565b5f5f60408385031215611ca7575f5ffd5b8235611cb281611b50565b915060208301356001600160401b03811115611be1575f5ffd5b600181811c90821680611ce057607f821691505b602082108103611cfe57634e487b7160e01b5f52602260045260245ffd5b50919050565b634e487b7160e01b5f52601160045260245ffd5b6001815b6001841115611d5357808504811115611d3757611d37611d04565b6001841615611d4557908102905b60019390931c928002611d1c565b935093915050565b5f82611d6957506001610537565b81611d7557505f610537565b8160018114611d8b5760028114611d9557611db1565b6001915050610537565b60ff841115611da657611da6611d04565b50506001821b610537565b5060208310610133831016604e8410600b8410161715611dd4575081810a610537565b611de05f198484611d18565b805f1904821115611df357611df3611d04565b029392505050565b5f61193860ff841683611d5b565b808202811582820484141761053757610537611d04565b5f82611e3a57634e487b7160e01b5f52601260045260245ffd5b500490565b6001600160a01b039384168152919092166020820152604081019190915260600190565b5f60208284031215611e73575f5ffd5b81518015158114611938575f5ffd5b5f60208284031215611e92575f5ffd5b81516001600160401b03811115611ea7575f5ffd5b8201601f81018413611eb7575f5ffd5b8051611ec5611a5d82611a1a565b818152856020838501011115611ed9575f5ffd5b8160208401602083015e5f91810160200191909152949350505050565b5f81518060208401855e5f93019283525090919050565b6d02732b2b21020b8383937bb32b2160951b81525f611938600e830184611ef6565b6001600160a01b03929092168252602082015260400190565b5f60208284031215611f58575f5ffd5b5051919050565b5f60208284031215611f6f575f5ffd5b81516119388161193f565b5f60208284031215611f8a575f5ffd5b815161193881611b50565b602080825260029082015261597560f01b604082015260600190565b601f82111561153c57805f5260205f20601f840160051c81016020851015611fd65750805b601f840160051c820191505b81811015611ff5575f8155600101611fe2565b5050505050565b81516001600160401b03811115612015576120156119d6565b612029816120238454611ccc565b84611fb1565b6020601f82116001811461205b575f83156120445750848201515b5f19600385901b1c1916600184901b178455611ff5565b5f84815260208120601f198516915b8281101561208a578785015182556020948501946001909201910161206a565b50848210156120a757868401515f19600387901b60f8161c191681555b50505050600190811b01905550565b5f6119388284611ef6565b8082018082111561053757610537611d04565b634e487b7160e01b5f52603260045260245ffd5b8181038181111561053757610537611d04565b5f5f835461210881611ccc565b60018216801561211f576001811461213457612161565b60ff1983168652811515820286019350612161565b865f5260205f205f5b838110156121595781548882015260019091019060200161213d565b505081860193505b509195945050505050565b6001600160a01b0393841681529183166020830152909116604082015260600190565b6001600160a01b039788168152958716602087015293861660408601529185166060850152909316608083015260a082019290925260c081019190915260e0019056fea2646970667358221220b373960238b6ee4532dfb7f19b2ddb99cedeed570b9965ee39fbdc41ce4d9bca64736f6c634300081b0033",
			"opcodes": "PUSH1 0x80 PUSH1 0x40 MSTORE CALLVALUE DUP1 ISZERO PUSH2 0xF JUMPI PUSH0 PUSH0 REVERT JUMPDEST POP PUSH1 0x40 MLOAD PUSH2 0x29F4 CODESIZE SUB DUP1 PUSH2 0x29F4 DUP4 CODECOPY DUP2 ADD PUSH1 0x40 DUP2 SWAP1 MSTORE PUSH2 0x2E SWAP2 PUSH2 0x4DA JUMP JUMPDEST PUSH1 0x40 MLOAD DUP1 PUSH1 0x40 ADD PUSH1 0x40 MSTORE DUP1 PUSH1 0xB DUP2 MSTORE PUSH1 0x20 ADD PUSH11 0x4459534E4F4D4941205169 PUSH1 0xA8 SHL DUP2 MSTORE POP PUSH1 0x40 MLOAD DUP1 PUSH1 0x40 ADD PUSH1 0x40 MSTORE DUP1 PUSH1 0x2 DUP2 MSTORE PUSH1 0x20 ADD PUSH2 0x5149 PUSH1 0xF0 SHL DUP2 MSTORE POP DUP3 PUSH1 0x1 PUSH1 0x1 PUSH1 0xA0 SHL SUB AND PUSH4 0x6FB7329C PUSH1 0x40 MLOAD DUP2 PUSH4 0xFFFFFFFF AND PUSH1 0xE0 SHL DUP2 MSTORE PUSH1 0x4 ADD PUSH1 0x20 PUSH1 0x40 MLOAD DUP1 DUP4 SUB DUP2 DUP7 GAS STATICCALL ISZERO DUP1 ISZERO PUSH2 0xA9 JUMPI RETURNDATASIZE PUSH0 PUSH0 RETURNDATACOPY RETURNDATASIZE PUSH0 REVERT JUMPDEST POP POP POP POP PUSH1 0x40 MLOAD RETURNDATASIZE PUSH1 0x1F NOT PUSH1 0x1F DUP3 ADD AND DUP3 ADD DUP1 PUSH1 0x40 MSTORE POP DUP2 ADD SWAP1 PUSH2 0xCD SWAP2 SWAP1 PUSH2 0x4DA JUMP JUMPDEST CALLER DUP1 PUSH2 0xFF JUMPI PUSH1 0x40 MLOAD PUSH4 0x36030219 PUSH1 0xE2 SHL DUP2 MSTORE ORIGIN PUSH1 0x4 DUP3 ADD MSTORE PUSH0 PUSH1 0x24 DUP3 ADD MSTORE ADDRESS PUSH1 0x44 DUP3 ADD MSTORE PUSH1 0x64 ADD JUMPDEST PUSH1 0x40 MLOAD DUP1 SWAP2 SUB SWAP1 REVERT JUMPDEST PUSH2 0x10A DUP2 PUSH1 0x1 PUSH2 0x23B JUMP JUMPDEST POP PUSH1 0x4 PUSH2 0x117 DUP5 DUP3 PUSH2 0x594 JUMP JUMPDEST POP PUSH1 0x5 PUSH2 0x124 DUP4 DUP3 PUSH2 0x594 JUMP JUMPDEST POP PUSH1 0x6 DUP1 SLOAD PUSH1 0x1 PUSH1 0x1 PUSH1 0xA0 SHL SUB NOT AND PUSH1 0x1 PUSH1 0x1 PUSH1 0xA0 SHL SUB DUP4 AND SWAP1 DUP2 OR SWAP1 SWAP2 SSTORE PUSH1 0x40 DUP1 MLOAD PUSH4 0x604A6FA9 PUSH1 0xE0 SHL DUP2 MSTORE SWAP1 MLOAD PUSH3 0x1B207 SWAP3 SWAP2 PUSH4 0x604A6FA9 SWAP2 PUSH1 0x4 DUP1 DUP4 ADD SWAP3 PUSH1 0x20 SWAP3 SWAP2 SWAP1 DUP3 SWAP1 SUB ADD DUP2 PUSH0 DUP8 GAS CALL ISZERO DUP1 ISZERO PUSH2 0x182 JUMPI RETURNDATASIZE PUSH0 PUSH0 RETURNDATACOPY RETURNDATASIZE PUSH0 REVERT JUMPDEST POP POP POP POP PUSH1 0x40 MLOAD RETURNDATASIZE PUSH1 0x1F NOT PUSH1 0x1F DUP3 ADD AND DUP3 ADD DUP1 PUSH1 0x40 MSTORE POP DUP2 ADD SWAP1 PUSH2 0x1A6 SWAP2 SWAP1 PUSH2 0x64E JUMP JUMPDEST PUSH2 0x1B0 SWAP2 SWAP1 PUSH2 0x674 JUMP JUMPDEST PUSH1 0x1 PUSH1 0x1 PUSH1 0x40 SHL SUB AND PUSH1 0x7 SSTORE PUSH2 0x206 PUSH20 0x24F0154C1DCE548ADF15DA2098FDD8B8A3B8151D PUSH2 0x1E0 PUSH1 0x12 PUSH1 0xA PUSH2 0x7A7 JUMP JUMPDEST PUSH2 0x1EB SWAP1 PUSH1 0x1 PUSH2 0x7B5 JUMP JUMPDEST PUSH1 0x1 PUSH1 0x1 PUSH1 0xA0 SHL SUB SWAP1 SWAP2 AND PUSH0 SWAP1 DUP2 MSTORE PUSH1 0x8 PUSH1 0x20 MSTORE PUSH1 0x40 SWAP1 KECCAK256 SSTORE JUMP JUMPDEST POP POP PUSH1 0x9 DUP1 SLOAD PUSH1 0x1 PUSH1 0x1 PUSH1 0xA0 SHL SUB NOT AND PUSH1 0x1 PUSH1 0x1 PUSH1 0xA0 SHL SUB DUP5 AND OR SWAP1 SSTORE POP PUSH2 0x22D ORIGIN PUSH2 0x28E JUMP JUMPDEST PUSH2 0x235 PUSH2 0x2D9 JUMP JUMPDEST POP PUSH2 0x7DF JUMP JUMPDEST PUSH1 0x1 PUSH1 0x1 PUSH1 0xA0 SHL SUB DUP3 AND PUSH0 DUP2 DUP2 MSTORE PUSH1 0x20 DUP2 SWAP1 MSTORE PUSH1 0x40 DUP1 DUP3 KECCAK256 DUP1 SLOAD PUSH1 0xFF NOT AND DUP6 ISZERO ISZERO SWAP1 DUP2 OR SWAP1 SWAP2 SSTORE SWAP1 MLOAD SWAP1 SWAP3 SWAP2 PUSH32 0x6BFA7E860C3E9BF67B810CB88276B19B27C972812BAC04793D369B59A1183A83 SWAP2 LOG3 POP POP JUMP JUMPDEST PUSH2 0x296 PUSH2 0x31D JUMP JUMPDEST PUSH1 0x1 PUSH1 0x1 PUSH1 0xA0 SHL SUB DUP2 AND PUSH2 0x2CB JUMPI PUSH1 0x40 MLOAD PUSH4 0x36030219 PUSH1 0xE2 SHL DUP2 MSTORE ORIGIN PUSH1 0x4 DUP3 ADD MSTORE PUSH0 PUSH1 0x24 DUP3 ADD MSTORE ADDRESS PUSH1 0x44 DUP3 ADD MSTORE PUSH1 0x64 ADD PUSH2 0xF6 JUMP JUMPDEST PUSH2 0x2D6 DUP2 PUSH1 0x1 PUSH2 0x23B JUMP JUMPDEST POP JUMP JUMPDEST PUSH2 0x2E5 PUSH1 0x12 PUSH1 0xA PUSH2 0x7A7 JUMP JUMPDEST PUSH1 0x7 SLOAD PUSH2 0x2F2 SWAP2 SWAP1 PUSH2 0x7B5 JUMP JUMPDEST PUSH1 0x3 SLOAD LT ISZERO PUSH2 0x31B JUMPI PUSH2 0x31B ADDRESS PUSH2 0x30B PUSH1 0x12 PUSH1 0xA PUSH2 0x7A7 JUMP JUMPDEST PUSH2 0x316 SWAP1 PUSH1 0x1 PUSH2 0x7B5 JUMP JUMPDEST PUSH2 0x377 JUMP JUMPDEST JUMP JUMPDEST CALLER PUSH0 SWAP1 DUP2 MSTORE PUSH1 0x20 DUP2 SWAP1 MSTORE PUSH1 0x40 SWAP1 KECCAK256 SLOAD PUSH1 0xFF AND ISZERO DUP1 ISZERO PUSH2 0x34B JUMPI POP ORIGIN PUSH0 SWAP1 DUP2 MSTORE PUSH1 0x20 DUP2 SWAP1 MSTORE PUSH1 0x40 SWAP1 KECCAK256 SLOAD PUSH1 0xFF AND ISZERO JUMPDEST ISZERO PUSH2 0x31B JUMPI PUSH1 0x40 MLOAD PUSH4 0xBE6BAB5 PUSH1 0xE0 SHL DUP2 MSTORE ORIGIN PUSH1 0x4 DUP3 ADD MSTORE CALLER PUSH1 0x24 DUP3 ADD MSTORE ADDRESS PUSH1 0x44 DUP3 ADD MSTORE PUSH1 0x64 ADD PUSH2 0xF6 JUMP JUMPDEST PUSH2 0x382 PUSH0 DUP4 DUP4 PUSH2 0x386 JUMP JUMPDEST POP POP JUMP JUMPDEST PUSH1 0x1 PUSH1 0x1 PUSH1 0xA0 SHL SUB DUP4 AND PUSH2 0x3B0 JUMPI DUP1 PUSH1 0x3 PUSH0 DUP3 DUP3 SLOAD PUSH2 0x3A5 SWAP2 SWAP1 PUSH2 0x7CC JUMP JUMPDEST SWAP1 SWAP2 SSTORE POP PUSH2 0x43A SWAP1 POP JUMP JUMPDEST PUSH1 0x1 PUSH1 0x1 PUSH1 0xA0 SHL SUB DUP4 AND PUSH0 SWAP1 DUP2 MSTORE PUSH1 0x1 PUSH1 0x20 MSTORE PUSH1 0x40 SWAP1 KECCAK256 SLOAD DUP2 DUP2 LT ISZERO PUSH2 0x41C JUMPI PUSH1 0x40 MLOAD PUSH4 0xF7D0BBD PUSH1 0xE2 SHL DUP2 MSTORE ORIGIN PUSH1 0x4 DUP3 ADD MSTORE CALLER PUSH1 0x24 DUP3 ADD MSTORE PUSH1 0x1 PUSH1 0x1 PUSH1 0xA0 SHL SUB DUP1 DUP7 AND PUSH1 0x44 DUP4 ADD MSTORE DUP5 AND PUSH1 0x64 DUP3 ADD MSTORE ADDRESS PUSH1 0x84 DUP3 ADD MSTORE PUSH1 0xA4 DUP2 ADD DUP3 SWAP1 MSTORE PUSH1 0xC4 DUP2 ADD DUP4 SWAP1 MSTORE PUSH1 0xE4 ADD PUSH2 0xF6 JUMP JUMPDEST PUSH1 0x1 PUSH1 0x1 PUSH1 0xA0 SHL SUB DUP5 AND PUSH0 SWAP1 DUP2 MSTORE PUSH1 0x1 PUSH1 0x20 MSTORE PUSH1 0x40 SWAP1 KECCAK256 SWAP1 DUP3 SWAP1 SUB SWAP1 SSTORE JUMPDEST PUSH1 0x1 PUSH1 0x1 PUSH1 0xA0 SHL SUB DUP3 AND PUSH2 0x456 JUMPI PUSH1 0x3 DUP1 SLOAD DUP3 SWAP1 SUB SWAP1 SSTORE PUSH2 0x474 JUMP JUMPDEST PUSH1 0x1 PUSH1 0x1 PUSH1 0xA0 SHL SUB DUP3 AND PUSH0 SWAP1 DUP2 MSTORE PUSH1 0x1 PUSH1 0x20 MSTORE PUSH1 0x40 SWAP1 KECCAK256 DUP1 SLOAD DUP3 ADD SWAP1 SSTORE JUMPDEST DUP2 PUSH1 0x1 PUSH1 0x1 PUSH1 0xA0 SHL SUB AND DUP4 PUSH1 0x1 PUSH1 0x1 PUSH1 0xA0 SHL SUB AND PUSH32 0xDDF252AD1BE2C89B69C2B068FC378DAA952BA7F163C4A11628F55A4DF523B3EF DUP4 PUSH1 0x40 MLOAD PUSH2 0x4B9 SWAP2 DUP2 MSTORE PUSH1 0x20 ADD SWAP1 JUMP JUMPDEST PUSH1 0x40 MLOAD DUP1 SWAP2 SUB SWAP1 LOG3 POP POP POP JUMP JUMPDEST PUSH1 0x1 PUSH1 0x1 PUSH1 0xA0 SHL SUB DUP2 AND DUP2 EQ PUSH2 0x2D6 JUMPI PUSH0 PUSH0 REVERT JUMPDEST PUSH0 PUSH1 0x20 DUP3 DUP5 SUB SLT ISZERO PUSH2 0x4EA JUMPI PUSH0 PUSH0 REVERT JUMPDEST DUP2 MLOAD PUSH2 0x4F5 DUP2 PUSH2 0x4C6 JUMP JUMPDEST SWAP4 SWAP3 POP POP POP JUMP JUMPDEST PUSH4 0x4E487B71 PUSH1 0xE0 SHL PUSH0 MSTORE PUSH1 0x41 PUSH1 0x4 MSTORE PUSH1 0x24 PUSH0 REVERT JUMPDEST PUSH1 0x1 DUP2 DUP2 SHR SWAP1 DUP3 AND DUP1 PUSH2 0x524 JUMPI PUSH1 0x7F DUP3 AND SWAP2 POP JUMPDEST PUSH1 0x20 DUP3 LT DUP2 SUB PUSH2 0x542 JUMPI PUSH4 0x4E487B71 PUSH1 0xE0 SHL PUSH0 MSTORE PUSH1 0x22 PUSH1 0x4 MSTORE PUSH1 0x24 PUSH0 REVERT JUMPDEST POP SWAP2 SWAP1 POP JUMP JUMPDEST PUSH1 0x1F DUP3 GT ISZERO PUSH2 0x58F JUMPI DUP1 PUSH0 MSTORE PUSH1 0x20 PUSH0 KECCAK256 PUSH1 0x1F DUP5 ADD PUSH1 0x5 SHR DUP2 ADD PUSH1 0x20 DUP6 LT ISZERO PUSH2 0x56D JUMPI POP DUP1 JUMPDEST PUSH1 0x1F DUP5 ADD PUSH1 0x5 SHR DUP3 ADD SWAP2 POP JUMPDEST DUP2 DUP2 LT ISZERO PUSH2 0x58C JUMPI PUSH0 DUP2 SSTORE PUSH1 0x1 ADD PUSH2 0x579 JUMP JUMPDEST POP POP JUMPDEST POP POP POP JUMP JUMPDEST DUP2 MLOAD PUSH1 0x1 PUSH1 0x1 PUSH1 0x40 SHL SUB DUP2 GT ISZERO PUSH2 0x5AD JUMPI PUSH2 0x5AD PUSH2 0x4FC JUMP JUMPDEST PUSH2 0x5C1 DUP2 PUSH2 0x5BB DUP5 SLOAD PUSH2 0x510 JUMP JUMPDEST DUP5 PUSH2 0x548 JUMP JUMPDEST PUSH1 0x20 PUSH1 0x1F DUP3 GT PUSH1 0x1 DUP2 EQ PUSH2 0x5F3 JUMPI PUSH0 DUP4 ISZERO PUSH2 0x5DC JUMPI POP DUP5 DUP3 ADD MLOAD JUMPDEST PUSH0 NOT PUSH1 0x3 DUP6 SWAP1 SHL SHR NOT AND PUSH1 0x1 DUP5 SWAP1 SHL OR DUP5 SSTORE PUSH2 0x58C JUMP JUMPDEST PUSH0 DUP5 DUP2 MSTORE PUSH1 0x20 DUP2 KECCAK256 PUSH1 0x1F NOT DUP6 AND SWAP2 JUMPDEST DUP3 DUP2 LT ISZERO PUSH2 0x622 JUMPI DUP8 DUP6 ADD MLOAD DUP3 SSTORE PUSH1 0x20 SWAP5 DUP6 ADD SWAP5 PUSH1 0x1 SWAP1 SWAP3 ADD SWAP2 ADD PUSH2 0x602 JUMP JUMPDEST POP DUP5 DUP3 LT ISZERO PUSH2 0x63F JUMPI DUP7 DUP5 ADD MLOAD PUSH0 NOT PUSH1 0x3 DUP8 SWAP1 SHL PUSH1 0xF8 AND SHR NOT AND DUP2 SSTORE JUMPDEST POP POP POP POP PUSH1 0x1 SWAP1 DUP2 SHL ADD SWAP1 SSTORE POP JUMP JUMPDEST PUSH0 PUSH1 0x20 DUP3 DUP5 SUB SLT ISZERO PUSH2 0x65E JUMPI PUSH0 PUSH0 REVERT JUMPDEST DUP2 MLOAD PUSH1 0x1 PUSH1 0x1 PUSH1 0x40 SHL SUB DUP2 AND DUP2 EQ PUSH2 0x4F5 JUMPI PUSH0 PUSH0 REVERT JUMPDEST PUSH0 PUSH1 0x1 PUSH1 0x1 PUSH1 0x40 SHL SUB DUP4 AND DUP1 PUSH2 0x698 JUMPI PUSH4 0x4E487B71 PUSH1 0xE0 SHL PUSH0 MSTORE PUSH1 0x12 PUSH1 0x4 MSTORE PUSH1 0x24 PUSH0 REVERT JUMPDEST PUSH1 0x1 PUSH1 0x1 PUSH1 0x40 SHL SUB SWAP3 SWAP1 SWAP3 AND SWAP2 SWAP1 SWAP2 MOD SWAP3 SWAP2 POP POP JUMP JUMPDEST PUSH4 0x4E487B71 PUSH1 0xE0 SHL PUSH0 MSTORE PUSH1 0x11 PUSH1 0x4 MSTORE PUSH1 0x24 PUSH0 REVERT JUMPDEST PUSH1 0x1 DUP2 JUMPDEST PUSH1 0x1 DUP5 GT ISZERO PUSH2 0x6FD JUMPI DUP1 DUP6 DIV DUP2 GT ISZERO PUSH2 0x6E1 JUMPI PUSH2 0x6E1 PUSH2 0x6AE JUMP JUMPDEST PUSH1 0x1 DUP5 AND ISZERO PUSH2 0x6EF JUMPI SWAP1 DUP2 MUL SWAP1 JUMPDEST PUSH1 0x1 SWAP4 SWAP1 SWAP4 SHR SWAP3 DUP1 MUL PUSH2 0x6C6 JUMP JUMPDEST SWAP4 POP SWAP4 SWAP2 POP POP JUMP JUMPDEST PUSH0 DUP3 PUSH2 0x713 JUMPI POP PUSH1 0x1 PUSH2 0x7A1 JUMP JUMPDEST DUP2 PUSH2 0x71F JUMPI POP PUSH0 PUSH2 0x7A1 JUMP JUMPDEST DUP2 PUSH1 0x1 DUP2 EQ PUSH2 0x735 JUMPI PUSH1 0x2 DUP2 EQ PUSH2 0x73F JUMPI PUSH2 0x75B JUMP JUMPDEST PUSH1 0x1 SWAP2 POP POP PUSH2 0x7A1 JUMP JUMPDEST PUSH1 0xFF DUP5 GT ISZERO PUSH2 0x750 JUMPI PUSH2 0x750 PUSH2 0x6AE JUMP JUMPDEST POP POP PUSH1 0x1 DUP3 SHL PUSH2 0x7A1 JUMP JUMPDEST POP PUSH1 0x20 DUP4 LT PUSH2 0x133 DUP4 LT AND PUSH1 0x4E DUP5 LT PUSH1 0xB DUP5 LT AND OR ISZERO PUSH2 0x77E JUMPI POP DUP2 DUP2 EXP PUSH2 0x7A1 JUMP JUMPDEST PUSH2 0x78A PUSH0 NOT DUP5 DUP5 PUSH2 0x6C2 JUMP JUMPDEST DUP1 PUSH0 NOT DIV DUP3 GT ISZERO PUSH2 0x79D JUMPI PUSH2 0x79D PUSH2 0x6AE JUMP JUMPDEST MUL SWAP1 POP JUMPDEST SWAP3 SWAP2 POP POP JUMP JUMPDEST PUSH0 PUSH2 0x4F5 PUSH1 0xFF DUP5 AND DUP4 PUSH2 0x705 JUMP JUMPDEST DUP1 DUP3 MUL DUP2 ISZERO DUP3 DUP3 DIV DUP5 EQ OR PUSH2 0x7A1 JUMPI PUSH2 0x7A1 PUSH2 0x6AE JUMP JUMPDEST DUP1 DUP3 ADD DUP1 DUP3 GT ISZERO PUSH2 0x7A1 JUMPI PUSH2 0x7A1 PUSH2 0x6AE JUMP JUMPDEST PUSH2 0x2208 DUP1 PUSH2 0x7EC PUSH0 CODECOPY PUSH0 RETURN INVALID PUSH1 0x80 PUSH1 0x40 MSTORE CALLVALUE DUP1 ISZERO PUSH2 0xF JUMPI PUSH0 PUSH0 REVERT JUMPDEST POP PUSH1 0x4 CALLDATASIZE LT PUSH2 0x1B6 JUMPI PUSH0 CALLDATALOAD PUSH1 0xE0 SHR DUP1 PUSH4 0x6FB7329C GT PUSH2 0xF6 JUMPI DUP1 PUSH4 0xBAFD8D4A GT PUSH2 0x9A JUMPI DUP1 PUSH4 0xBAFD8D4A EQ PUSH2 0x3C8 JUMPI DUP1 PUSH4 0xD3DC2A0F EQ PUSH2 0x3DB JUMPI DUP1 PUSH4 0xD5ABEB01 EQ PUSH2 0x401 JUMPI DUP1 PUSH4 0xD9FE351D EQ PUSH2 0x40A JUMPI DUP1 PUSH4 0xDD62ED3E EQ PUSH2 0x432 JUMPI DUP1 PUSH4 0xDEDCC67E EQ PUSH2 0x445 JUMPI DUP1 PUSH4 0xEEE9253D EQ PUSH2 0x458 JUMPI DUP1 PUSH4 0xF4E6C93F EQ PUSH2 0x46B JUMPI DUP1 PUSH4 0xFF762044 EQ PUSH2 0x473 JUMPI PUSH0 PUSH0 REVERT JUMPDEST DUP1 PUSH4 0x6FB7329C EQ PUSH2 0x326 JUMPI DUP1 PUSH4 0x7038BD20 EQ PUSH2 0x346 JUMPI DUP1 PUSH4 0x7065CB48 EQ PUSH2 0x359 JUMPI DUP1 PUSH4 0x70A08231 EQ PUSH2 0x36C JUMPI DUP1 PUSH4 0x8DA5CB5B EQ PUSH2 0x394 JUMPI DUP1 PUSH4 0x95D89B41 EQ PUSH2 0x39A JUMPI DUP1 PUSH4 0x9DCBF7EA EQ PUSH2 0x3A2 JUMPI DUP1 PUSH4 0xA9059CBB EQ PUSH2 0x3B5 JUMPI PUSH0 PUSH0 REVERT JUMPDEST DUP1 PUSH4 0x2D4B5979 GT PUSH2 0x15D JUMPI DUP1 PUSH4 0x2D4B5979 EQ PUSH2 0x278 JUMPI DUP1 PUSH4 0x304C29D6 EQ PUSH2 0x28B JUMPI DUP1 PUSH4 0x313CE567 EQ PUSH2 0x2AA JUMPI DUP1 PUSH4 0x38BF3CFA EQ PUSH2 0x2B9 JUMPI DUP1 PUSH4 0x3AAC9D70 EQ PUSH2 0x2CC JUMPI DUP1 PUSH4 0x4E334B7C EQ PUSH2 0x2ED JUMPI DUP1 PUSH4 0x56CA301A EQ PUSH2 0x300 JUMPI DUP1 PUSH4 0x666E1B39 EQ PUSH2 0x313 JUMPI PUSH0 PUSH0 REVERT JUMPDEST DUP1 PUSH4 0x6FDDE03 EQ PUSH2 0x1BA JUMPI DUP1 PUSH4 0x95EA7B3 EQ PUSH2 0x1D8 JUMPI DUP1 PUSH4 0x18160DDD EQ PUSH2 0x1FB JUMPI DUP1 PUSH4 0x222838DB EQ PUSH2 0x20D JUMPI DUP1 PUSH4 0x23B872DD EQ PUSH2 0x222 JUMPI DUP1 PUSH4 0x2499A533 EQ PUSH2 0x235 JUMPI DUP1 PUSH4 0x27D74DEE EQ PUSH2 0x248 JUMPI DUP1 PUSH4 0x2B83B1FC EQ PUSH2 0x250 JUMPI JUMPDEST PUSH0 PUSH0 REVERT JUMPDEST PUSH2 0x1C2 PUSH2 0x494 JUMP JUMPDEST PUSH1 0x40 MLOAD PUSH2 0x1CF SWAP2 SWAP1 PUSH2 0x1926 JUMP JUMPDEST PUSH1 0x40 MLOAD DUP1 SWAP2 SUB SWAP1 RETURN JUMPDEST PUSH2 0x1EB PUSH2 0x1E6 CALLDATASIZE PUSH1 0x4 PUSH2 0x1953 JUMP JUMPDEST PUSH2 0x524 JUMP JUMPDEST PUSH1 0x40 MLOAD SWAP1 ISZERO ISZERO DUP2 MSTORE PUSH1 0x20 ADD PUSH2 0x1CF JUMP JUMPDEST PUSH1 0x3 SLOAD JUMPDEST PUSH1 0x40 MLOAD SWAP1 DUP2 MSTORE PUSH1 0x20 ADD PUSH2 0x1CF JUMP JUMPDEST PUSH2 0x220 PUSH2 0x21B CALLDATASIZE PUSH1 0x4 PUSH2 0x1953 JUMP JUMPDEST PUSH2 0x53D JUMP JUMPDEST STOP JUMPDEST PUSH2 0x1EB PUSH2 0x230 CALLDATASIZE PUSH1 0x4 PUSH2 0x197D JUMP JUMPDEST PUSH2 0x73E JUMP JUMPDEST PUSH2 0x220 PUSH2 0x243 CALLDATASIZE PUSH1 0x4 PUSH2 0x1953 JUMP JUMPDEST PUSH2 0x761 JUMP JUMPDEST PUSH1 0xA SLOAD PUSH2 0x1FF JUMP JUMPDEST PUSH2 0x1FF PUSH2 0x25E CALLDATASIZE PUSH1 0x4 PUSH2 0x19BB JUMP JUMPDEST PUSH1 0x1 PUSH1 0x1 PUSH1 0xA0 SHL SUB AND PUSH0 SWAP1 DUP2 MSTORE PUSH1 0x8 PUSH1 0x20 MSTORE PUSH1 0x40 SWAP1 KECCAK256 SLOAD SWAP1 JUMP JUMPDEST PUSH2 0x220 PUSH2 0x286 CALLDATASIZE PUSH1 0x4 PUSH2 0x1A92 JUMP JUMPDEST PUSH2 0x90F JUMP JUMPDEST PUSH2 0x1FF PUSH2 0x299 CALLDATASIZE PUSH1 0x4 PUSH2 0x1AE7 JUMP JUMPDEST PUSH0 SWAP1 DUP2 MSTORE PUSH1 0xF PUSH1 0x20 MSTORE PUSH1 0x40 SWAP1 KECCAK256 SLOAD SWAP1 JUMP JUMPDEST PUSH1 0x40 MLOAD PUSH1 0x12 DUP2 MSTORE PUSH1 0x20 ADD PUSH2 0x1CF JUMP JUMPDEST PUSH2 0x220 PUSH2 0x2C7 CALLDATASIZE PUSH1 0x4 PUSH2 0x19BB JUMP JUMPDEST PUSH2 0xEF4 JUMP JUMPDEST PUSH2 0x2DF PUSH2 0x2DA CALLDATASIZE PUSH1 0x4 PUSH2 0x1AE7 JUMP JUMPDEST PUSH2 0xF09 JUMP JUMPDEST PUSH1 0x40 MLOAD PUSH2 0x1CF SWAP3 SWAP2 SWAP1 PUSH2 0x1AFE JUMP JUMPDEST PUSH2 0x2DF PUSH2 0x2FB CALLDATASIZE PUSH1 0x4 PUSH2 0x1B64 JUMP JUMPDEST PUSH2 0x1027 JUMP JUMPDEST PUSH2 0x220 PUSH2 0x30E CALLDATASIZE PUSH1 0x4 PUSH2 0x1B80 JUMP JUMPDEST PUSH2 0x1078 JUMP JUMPDEST PUSH2 0x1EB PUSH2 0x321 CALLDATASIZE PUSH1 0x4 PUSH2 0x19BB JUMP JUMPDEST PUSH2 0x147D JUMP JUMPDEST PUSH1 0x6 SLOAD PUSH2 0x339 SWAP1 PUSH1 0x1 PUSH1 0x1 PUSH1 0xA0 SHL SUB AND DUP2 JUMP JUMPDEST PUSH1 0x40 MLOAD PUSH2 0x1CF SWAP2 SWAP1 PUSH2 0x1BA0 JUMP JUMPDEST PUSH2 0x1FF PUSH2 0x354 CALLDATASIZE PUSH1 0x4 PUSH2 0x1BB4 JUMP JUMPDEST PUSH2 0x149A JUMP JUMPDEST PUSH2 0x220 PUSH2 0x367 CALLDATASIZE PUSH1 0x4 PUSH2 0x19BB JUMP JUMPDEST PUSH2 0x14CC JUMP JUMPDEST PUSH2 0x1FF PUSH2 0x37A CALLDATASIZE PUSH1 0x4 PUSH2 0x19BB JUMP JUMPDEST PUSH1 0x1 PUSH1 0x1 PUSH1 0xA0 SHL SUB AND PUSH0 SWAP1 DUP2 MSTORE PUSH1 0x1 PUSH1 0x20 MSTORE PUSH1 0x40 SWAP1 KECCAK256 SLOAD SWAP1 JUMP JUMPDEST ADDRESS PUSH2 0x339 JUMP JUMPDEST PUSH2 0x1C2 PUSH2 0x150C JUMP JUMPDEST PUSH2 0x220 PUSH2 0x3B0 CALLDATASIZE PUSH1 0x4 PUSH2 0x1BF7 JUMP JUMPDEST PUSH2 0x151B JUMP JUMPDEST PUSH2 0x1EB PUSH2 0x3C3 CALLDATASIZE PUSH1 0x4 PUSH2 0x1953 JUMP JUMPDEST PUSH2 0x1541 JUMP JUMPDEST PUSH1 0x9 SLOAD PUSH2 0x339 SWAP1 PUSH1 0x1 PUSH1 0x1 PUSH1 0xA0 SHL SUB AND DUP2 JUMP JUMPDEST PUSH2 0x3E9 PUSH7 0x3632C8EB5AF3B DUP2 JUMP JUMPDEST PUSH1 0x40 MLOAD PUSH1 0x1 PUSH1 0x1 PUSH1 0x40 SHL SUB SWAP1 SWAP2 AND DUP2 MSTORE PUSH1 0x20 ADD PUSH2 0x1CF JUMP JUMPDEST PUSH2 0x1FF PUSH1 0x7 SLOAD DUP2 JUMP JUMPDEST PUSH2 0x1FF PUSH2 0x418 CALLDATASIZE PUSH1 0x4 PUSH2 0x1C44 JUMP JUMPDEST PUSH1 0x1 PUSH1 0x1 PUSH1 0x40 SHL SUB AND PUSH0 SWAP1 DUP2 MSTORE PUSH1 0xE PUSH1 0x20 MSTORE PUSH1 0x40 SWAP1 KECCAK256 SLOAD SWAP1 JUMP JUMPDEST PUSH2 0x1FF PUSH2 0x440 CALLDATASIZE PUSH1 0x4 PUSH2 0x1C5F JUMP JUMPDEST PUSH2 0x154E JUMP JUMPDEST PUSH2 0x1FF PUSH2 0x453 CALLDATASIZE PUSH1 0x4 PUSH2 0x1C96 JUMP JUMPDEST PUSH2 0x1578 JUMP JUMPDEST PUSH2 0x2DF PUSH2 0x466 CALLDATASIZE PUSH1 0x4 PUSH2 0x1B80 JUMP JUMPDEST PUSH2 0x159D JUMP JUMPDEST PUSH2 0x220 PUSH2 0x15CB JUMP JUMPDEST PUSH2 0x1C2 PUSH1 0x40 MLOAD DUP1 PUSH1 0x40 ADD PUSH1 0x40 MSTORE DUP1 PUSH1 0x2 DUP2 MSTORE PUSH1 0x20 ADD PUSH2 0x5149 PUSH1 0xF0 SHL DUP2 MSTORE POP DUP2 JUMP JUMPDEST PUSH1 0x60 PUSH1 0x4 DUP1 SLOAD PUSH2 0x4A3 SWAP1 PUSH2 0x1CCC JUMP JUMPDEST DUP1 PUSH1 0x1F ADD PUSH1 0x20 DUP1 SWAP2 DIV MUL PUSH1 0x20 ADD PUSH1 0x40 MLOAD SWAP1 DUP2 ADD PUSH1 0x40 MSTORE DUP1 SWAP3 SWAP2 SWAP1 DUP2 DUP2 MSTORE PUSH1 0x20 ADD DUP3 DUP1 SLOAD PUSH2 0x4CF SWAP1 PUSH2 0x1CCC JUMP JUMPDEST DUP1 ISZERO PUSH2 0x51A JUMPI DUP1 PUSH1 0x1F LT PUSH2 0x4F1 JUMPI PUSH2 0x100 DUP1 DUP4 SLOAD DIV MUL DUP4 MSTORE SWAP2 PUSH1 0x20 ADD SWAP2 PUSH2 0x51A JUMP JUMPDEST DUP3 ADD SWAP2 SWAP1 PUSH0 MSTORE PUSH1 0x20 PUSH0 KECCAK256 SWAP1 JUMPDEST DUP2 SLOAD DUP2 MSTORE SWAP1 PUSH1 0x1 ADD SWAP1 PUSH1 0x20 ADD DUP1 DUP4 GT PUSH2 0x4FD JUMPI DUP3 SWAP1 SUB PUSH1 0x1F AND DUP3 ADD SWAP2 JUMPDEST POP POP POP POP POP SWAP1 POP SWAP1 JUMP JUMPDEST PUSH0 CALLER PUSH2 0x531 DUP2 DUP6 DUP6 PUSH2 0x15DD JUMP JUMPDEST PUSH1 0x1 SWAP2 POP POP JUMPDEST SWAP3 SWAP2 POP POP JUMP JUMPDEST PUSH1 0x1 PUSH1 0x1 PUSH1 0xA0 SHL SUB DUP3 AND PUSH0 SWAP1 DUP2 MSTORE PUSH1 0x8 PUSH1 0x20 MSTORE PUSH1 0x40 DUP2 KECCAK256 SLOAD SWAP1 SUB PUSH2 0x57F JUMPI DUP2 PUSH1 0x40 MLOAD PUSH4 0x90B23441 PUSH1 0xE0 SHL DUP2 MSTORE PUSH1 0x4 ADD PUSH2 0x576 SWAP2 SWAP1 PUSH2 0x1BA0 JUMP JUMPDEST PUSH1 0x40 MLOAD DUP1 SWAP2 SUB SWAP1 REVERT JUMPDEST DUP2 PUSH0 PUSH2 0x58D PUSH1 0x12 PUSH1 0xA PUSH2 0x1DFB JUMP JUMPDEST PUSH1 0x1 PUSH1 0x1 PUSH1 0xA0 SHL SUB DUP6 AND PUSH0 SWAP1 DUP2 MSTORE PUSH1 0x8 PUSH1 0x20 MSTORE PUSH1 0x40 SWAP1 KECCAK256 SLOAD PUSH2 0x5AF SWAP1 DUP6 PUSH2 0x1E09 JUMP JUMPDEST PUSH2 0x5B9 SWAP2 SWAP1 PUSH2 0x1E20 JUMP JUMPDEST PUSH1 0x40 MLOAD PUSH4 0x23B872DD PUSH1 0xE0 SHL DUP2 MSTORE SWAP1 SWAP2 POP PUSH0 SWAP1 ADDRESS SWAP1 PUSH4 0x23B872DD SWAP1 PUSH2 0x5E5 SWAP1 CALLER SWAP1 DUP5 SWAP1 DUP10 SWAP1 PUSH1 0x4 ADD PUSH2 0x1E3F JUMP JUMPDEST PUSH1 0x20 PUSH1 0x40 MLOAD DUP1 DUP4 SUB DUP2 PUSH0 DUP8 GAS CALL ISZERO DUP1 ISZERO PUSH2 0x601 JUMPI RETURNDATASIZE PUSH0 PUSH0 RETURNDATACOPY RETURNDATASIZE PUSH0 REVERT JUMPDEST POP POP POP POP PUSH1 0x40 MLOAD RETURNDATASIZE PUSH1 0x1F NOT PUSH1 0x1F DUP3 ADD AND DUP3 ADD DUP1 PUSH1 0x40 MSTORE POP DUP2 ADD SWAP1 PUSH2 0x625 SWAP2 SWAP1 PUSH2 0x1E63 JUMP JUMPDEST SWAP1 POP DUP1 ADDRESS PUSH1 0x1 PUSH1 0x1 PUSH1 0xA0 SHL SUB AND PUSH4 0x6FDDE03 PUSH1 0x40 MLOAD DUP2 PUSH4 0xFFFFFFFF AND PUSH1 0xE0 SHL DUP2 MSTORE PUSH1 0x4 ADD PUSH0 PUSH1 0x40 MLOAD DUP1 DUP4 SUB DUP2 DUP7 GAS STATICCALL ISZERO DUP1 ISZERO PUSH2 0x663 JUMPI RETURNDATASIZE PUSH0 PUSH0 RETURNDATACOPY RETURNDATASIZE PUSH0 REVERT JUMPDEST POP POP POP POP PUSH1 0x40 MLOAD RETURNDATASIZE PUSH0 DUP3 RETURNDATACOPY PUSH1 0x1F RETURNDATASIZE SWAP1 DUP2 ADD PUSH1 0x1F NOT AND DUP3 ADD PUSH1 0x40 MSTORE PUSH2 0x68A SWAP2 SWAP1 DUP2 ADD SWAP1 PUSH2 0x1E82 JUMP JUMPDEST PUSH1 0x40 MLOAD PUSH1 0x20 ADD PUSH2 0x69A SWAP2 SWAP1 PUSH2 0x1F0D JUMP JUMPDEST PUSH1 0x40 MLOAD PUSH1 0x20 DUP2 DUP4 SUB SUB DUP2 MSTORE SWAP1 PUSH1 0x40 MSTORE SWAP1 PUSH2 0x6C7 JUMPI PUSH1 0x40 MLOAD PUSH3 0x461BCD PUSH1 0xE5 SHL DUP2 MSTORE PUSH1 0x4 ADD PUSH2 0x576 SWAP2 SWAP1 PUSH2 0x1926 JUMP JUMPDEST POP PUSH1 0x40 MLOAD PUSH4 0xA9059CBB PUSH1 0xE0 SHL DUP2 MSTORE PUSH1 0x1 PUSH1 0x1 PUSH1 0xA0 SHL SUB DUP5 AND SWAP1 PUSH4 0xA9059CBB SWAP1 PUSH2 0x6F6 SWAP1 CALLER SWAP1 DUP7 SWAP1 PUSH1 0x4 ADD PUSH2 0x1F2F JUMP JUMPDEST PUSH1 0x20 PUSH1 0x40 MLOAD DUP1 DUP4 SUB DUP2 PUSH0 DUP8 GAS CALL ISZERO DUP1 ISZERO PUSH2 0x712 JUMPI RETURNDATASIZE PUSH0 PUSH0 RETURNDATACOPY RETURNDATASIZE PUSH0 REVERT JUMPDEST POP POP POP POP PUSH1 0x40 MLOAD RETURNDATASIZE PUSH1 0x1F NOT PUSH1 0x1F DUP3 ADD AND DUP3 ADD DUP1 PUSH1 0x40 MSTORE POP DUP2 ADD SWAP1 PUSH2 0x736 SWAP2 SWAP1 PUSH2 0x1E63 JUMP JUMPDEST POP POP POP POP POP POP JUMP JUMPDEST PUSH0 CALLER PUSH2 0x74B DUP6 DUP3 DUP6 PUSH2 0x15EA JUMP JUMPDEST PUSH2 0x756 DUP6 DUP6 DUP6 PUSH2 0x163B JUMP JUMPDEST POP PUSH1 0x1 SWAP5 SWAP4 POP POP POP POP JUMP JUMPDEST PUSH1 0x1 PUSH1 0x1 PUSH1 0xA0 SHL SUB DUP3 AND PUSH0 SWAP1 DUP2 MSTORE PUSH1 0x8 PUSH1 0x20 MSTORE PUSH1 0x40 DUP2 KECCAK256 SLOAD SWAP1 SUB PUSH2 0x79A JUMPI DUP2 PUSH1 0x40 MLOAD PUSH4 0x90B23441 PUSH1 0xE0 SHL DUP2 MSTORE PUSH1 0x4 ADD PUSH2 0x576 SWAP2 SWAP1 PUSH2 0x1BA0 JUMP JUMPDEST DUP2 PUSH0 PUSH2 0x7A8 PUSH1 0x12 PUSH1 0xA PUSH2 0x1DFB JUMP JUMPDEST PUSH1 0x1 PUSH1 0x1 PUSH1 0xA0 SHL SUB DUP6 AND PUSH0 SWAP1 DUP2 MSTORE PUSH1 0x8 PUSH1 0x20 MSTORE PUSH1 0x40 SWAP1 KECCAK256 SLOAD PUSH2 0x7CA SWAP1 DUP6 PUSH2 0x1E09 JUMP JUMPDEST PUSH2 0x7D4 SWAP2 SWAP1 PUSH2 0x1E20 JUMP JUMPDEST SWAP1 POP PUSH0 DUP3 PUSH1 0x1 PUSH1 0x1 PUSH1 0xA0 SHL SUB AND PUSH4 0x23B872DD CALLER ADDRESS DUP6 PUSH1 0x40 MLOAD DUP5 PUSH4 0xFFFFFFFF AND PUSH1 0xE0 SHL DUP2 MSTORE PUSH1 0x4 ADD PUSH2 0x807 SWAP4 SWAP3 SWAP2 SWAP1 PUSH2 0x1E3F JUMP JUMPDEST PUSH1 0x20 PUSH1 0x40 MLOAD DUP1 DUP4 SUB DUP2 PUSH0 DUP8 GAS CALL ISZERO DUP1 ISZERO PUSH2 0x823 JUMPI RETURNDATASIZE PUSH0 PUSH0 RETURNDATACOPY RETURNDATASIZE PUSH0 REVERT JUMPDEST POP POP POP POP PUSH1 0x40 MLOAD RETURNDATASIZE PUSH1 0x1F NOT PUSH1 0x1F DUP3 ADD AND DUP3 ADD DUP1 PUSH1 0x40 MSTORE POP DUP2 ADD SWAP1 PUSH2 0x847 SWAP2 SWAP1 PUSH2 0x1E63 JUMP JUMPDEST SWAP1 POP DUP1 DUP4 PUSH1 0x1 PUSH1 0x1 PUSH1 0xA0 SHL SUB AND PUSH4 0x6FDDE03 PUSH1 0x40 MLOAD DUP2 PUSH4 0xFFFFFFFF AND PUSH1 0xE0 SHL DUP2 MSTORE PUSH1 0x4 ADD PUSH0 PUSH1 0x40 MLOAD DUP1 DUP4 SUB DUP2 DUP7 GAS STATICCALL ISZERO DUP1 ISZERO PUSH2 0x885 JUMPI RETURNDATASIZE PUSH0 PUSH0 RETURNDATACOPY RETURNDATASIZE PUSH0 REVERT JUMPDEST POP POP POP POP PUSH1 0x40 MLOAD RETURNDATASIZE PUSH0 DUP3 RETURNDATACOPY PUSH1 0x1F RETURNDATASIZE SWAP1 DUP2 ADD PUSH1 0x1F NOT AND DUP3 ADD PUSH1 0x40 MSTORE PUSH2 0x8AC SWAP2 SWAP1 DUP2 ADD SWAP1 PUSH2 0x1E82 JUMP JUMPDEST PUSH1 0x40 MLOAD PUSH1 0x20 ADD PUSH2 0x8BC SWAP2 SWAP1 PUSH2 0x1F0D JUMP JUMPDEST PUSH1 0x40 MLOAD PUSH1 0x20 DUP2 DUP4 SUB SUB DUP2 MSTORE SWAP1 PUSH1 0x40 MSTORE SWAP1 PUSH2 0x8E9 JUMPI PUSH1 0x40 MLOAD PUSH3 0x461BCD PUSH1 0xE5 SHL DUP2 MSTORE PUSH1 0x4 ADD PUSH2 0x576 SWAP2 SWAP1 PUSH2 0x1926 JUMP JUMPDEST POP PUSH1 0x40 MLOAD PUSH4 0xA9059CBB PUSH1 0xE0 SHL DUP2 MSTORE ADDRESS SWAP1 PUSH4 0xA9059CBB SWAP1 PUSH2 0x6F6 SWAP1 CALLER SWAP1 DUP9 SWAP1 PUSH1 0x4 ADD PUSH2 0x1F2F JUMP JUMPDEST PUSH2 0x917 PUSH2 0x18C5 JUMP JUMPDEST DUP4 PUSH1 0x1 PUSH1 0x1 PUSH1 0xA0 SHL SUB AND PUSH4 0xA138DA0B PUSH1 0x40 MLOAD DUP2 PUSH4 0xFFFFFFFF AND PUSH1 0xE0 SHL DUP2 MSTORE PUSH1 0x4 ADD PUSH1 0x20 PUSH1 0x40 MLOAD DUP1 DUP4 SUB DUP2 DUP7 GAS STATICCALL ISZERO DUP1 ISZERO PUSH2 0x953 JUMPI RETURNDATASIZE PUSH0 PUSH0 RETURNDATACOPY RETURNDATASIZE PUSH0 REVERT JUMPDEST POP POP POP POP PUSH1 0x40 MLOAD RETURNDATASIZE PUSH1 0x1F NOT PUSH1 0x1F DUP3 ADD AND DUP3 ADD DUP1 PUSH1 0x40 MSTORE POP DUP2 ADD SWAP1 PUSH2 0x977 SWAP2 SWAP1 PUSH2 0x1F48 JUMP JUMPDEST DUP1 DUP3 MSTORE PUSH0 SUB PUSH2 0x99B JUMPI DUP4 PUSH1 0x40 MLOAD PUSH4 0x38C318F PUSH1 0xE4 SHL DUP2 MSTORE PUSH1 0x4 ADD PUSH2 0x576 SWAP2 SWAP1 PUSH2 0x1BA0 JUMP JUMPDEST PUSH1 0x9 SLOAD PUSH1 0x40 DUP1 MLOAD PUSH4 0x1A1CBF0F PUSH1 0xE2 SHL DUP2 MSTORE SWAP1 MLOAD PUSH0 SWAP3 PUSH1 0x1 PUSH1 0x1 PUSH1 0xA0 SHL SUB AND SWAP2 PUSH4 0x6872FC3C SWAP2 PUSH1 0x4 DUP1 DUP4 ADD SWAP3 PUSH1 0x20 SWAP3 SWAP2 SWAP1 DUP3 SWAP1 SUB ADD DUP2 DUP7 GAS STATICCALL ISZERO DUP1 ISZERO PUSH2 0x9E2 JUMPI RETURNDATASIZE PUSH0 PUSH0 RETURNDATACOPY RETURNDATASIZE PUSH0 REVERT JUMPDEST POP POP POP POP PUSH1 0x40 MLOAD RETURNDATASIZE PUSH1 0x1F NOT PUSH1 0x1F DUP3 ADD AND DUP3 ADD DUP1 PUSH1 0x40 MSTORE POP DUP2 ADD SWAP1 PUSH2 0xA06 SWAP2 SWAP1 PUSH2 0x1F5F JUMP JUMPDEST DUP3 MLOAD PUSH1 0x40 MLOAD PUSH4 0xDC8849D PUSH1 0xE4 SHL DUP2 MSTORE PUSH1 0x1 PUSH1 0x1 PUSH1 0xA0 SHL SUB SWAP3 SWAP1 SWAP3 AND SWAP2 PUSH4 0xDC8849D0 SWAP2 PUSH2 0xA38 SWAP2 PUSH1 0x4 ADD SWAP1 DUP2 MSTORE PUSH1 0x20 ADD SWAP1 JUMP JUMPDEST PUSH1 0x20 PUSH1 0x40 MLOAD DUP1 DUP4 SUB DUP2 DUP7 GAS STATICCALL ISZERO DUP1 ISZERO PUSH2 0xA53 JUMPI RETURNDATASIZE PUSH0 PUSH0 RETURNDATACOPY RETURNDATASIZE PUSH0 REVERT JUMPDEST POP POP POP POP PUSH1 0x40 MLOAD RETURNDATASIZE PUSH1 0x1F NOT PUSH1 0x1F DUP3 ADD AND DUP3 ADD DUP1 PUSH1 0x40 MSTORE POP DUP2 ADD SWAP1 PUSH2 0xA77 SWAP2 SWAP1 PUSH2 0x1F5F JUMP JUMPDEST SWAP1 POP DUP5 PUSH1 0x1 PUSH1 0x1 PUSH1 0xA0 SHL SUB AND DUP2 PUSH1 0x1 PUSH1 0x1 PUSH1 0xA0 SHL SUB AND EQ PUSH2 0xAAF JUMPI DUP2 MLOAD PUSH1 0x40 MLOAD PUSH4 0x16437515 PUSH1 0xE1 SHL DUP2 MSTORE PUSH2 0x576 SWAP2 DUP8 SWAP2 PUSH1 0x4 ADD PUSH2 0x1F2F JUMP JUMPDEST PUSH1 0x9 SLOAD PUSH1 0x40 DUP1 MLOAD PUSH4 0x1A1CBF0F PUSH1 0xE2 SHL DUP2 MSTORE SWAP1 MLOAD PUSH0 SWAP3 PUSH1 0x1 PUSH1 0x1 PUSH1 0xA0 SHL SUB AND SWAP2 PUSH4 0x6872FC3C SWAP2 PUSH1 0x4 DUP1 DUP4 ADD SWAP3 PUSH1 0x20 SWAP3 SWAP2 SWAP1 DUP3 SWAP1 SUB ADD DUP2 DUP7 GAS STATICCALL ISZERO DUP1 ISZERO PUSH2 0xAF6 JUMPI RETURNDATASIZE PUSH0 PUSH0 RETURNDATACOPY RETURNDATASIZE PUSH0 REVERT JUMPDEST POP POP POP POP PUSH1 0x40 MLOAD RETURNDATASIZE PUSH1 0x1F NOT PUSH1 0x1F DUP3 ADD AND DUP3 ADD DUP1 PUSH1 0x40 MSTORE POP DUP2 ADD SWAP1 PUSH2 0xB1A SWAP2 SWAP1 PUSH2 0x1F5F JUMP JUMPDEST PUSH1 0x1 PUSH1 0x1 PUSH1 0xA0 SHL SUB AND PUSH4 0xE1ED6E72 PUSH1 0x40 MLOAD DUP2 PUSH4 0xFFFFFFFF AND PUSH1 0xE0 SHL DUP2 MSTORE PUSH1 0x4 ADD PUSH1 0x20 PUSH1 0x40 MLOAD DUP1 DUP4 SUB DUP2 DUP7 GAS STATICCALL ISZERO DUP1 ISZERO PUSH2 0xB55 JUMPI RETURNDATASIZE PUSH0 PUSH0 RETURNDATACOPY RETURNDATASIZE PUSH0 REVERT JUMPDEST POP POP POP POP PUSH1 0x40 MLOAD RETURNDATASIZE PUSH1 0x1F NOT PUSH1 0x1F DUP3 ADD AND DUP3 ADD DUP1 PUSH1 0x40 MSTORE POP DUP2 ADD SWAP1 PUSH2 0xB79 SWAP2 SWAP1 PUSH2 0x1F7A JUMP JUMPDEST SWAP1 POP PUSH0 PUSH1 0x9 PUSH0 SWAP1 SLOAD SWAP1 PUSH2 0x100 EXP SWAP1 DIV PUSH1 0x1 PUSH1 0x1 PUSH1 0xA0 SHL SUB AND PUSH1 0x1 PUSH1 0x1 PUSH1 0xA0 SHL SUB AND PUSH4 0x6872FC3C PUSH1 0x40 MLOAD DUP2 PUSH4 0xFFFFFFFF AND PUSH1 0xE0 SHL DUP2 MSTORE PUSH1 0x4 ADD PUSH1 0x20 PUSH1 0x40 MLOAD DUP1 DUP4 SUB DUP2 DUP7 GAS STATICCALL ISZERO DUP1 ISZERO PUSH2 0xBCC JUMPI RETURNDATASIZE PUSH0 PUSH0 RETURNDATACOPY RETURNDATASIZE PUSH0 REVERT JUMPDEST POP POP POP POP PUSH1 0x40 MLOAD RETURNDATASIZE PUSH1 0x1F NOT PUSH1 0x1F DUP3 ADD AND DUP3 ADD DUP1 PUSH1 0x40 MSTORE POP DUP2 ADD SWAP1 PUSH2 0xBF0 SWAP2 SWAP1 PUSH2 0x1F5F JUMP JUMPDEST PUSH1 0x1 PUSH1 0x1 PUSH1 0xA0 SHL SUB AND PUSH4 0xAC5BD44F PUSH1 0x40 MLOAD DUP2 PUSH4 0xFFFFFFFF AND PUSH1 0xE0 SHL DUP2 MSTORE PUSH1 0x4 ADD PUSH2 0xC19 SWAP1 PUSH2 0x1F95 JUMP JUMPDEST PUSH1 0x20 PUSH1 0x40 MLOAD DUP1 DUP4 SUB DUP2 DUP7 GAS STATICCALL ISZERO DUP1 ISZERO PUSH2 0xC34 JUMPI RETURNDATASIZE PUSH0 PUSH0 RETURNDATACOPY RETURNDATASIZE PUSH0 REVERT JUMPDEST POP POP POP POP PUSH1 0x40 MLOAD RETURNDATASIZE PUSH1 0x1F NOT PUSH1 0x1F DUP3 ADD AND DUP3 ADD DUP1 PUSH1 0x40 MSTORE POP DUP2 ADD SWAP1 PUSH2 0xC58 SWAP2 SWAP1 PUSH2 0x1F5F JUMP JUMPDEST PUSH1 0x40 MLOAD PUSH4 0x23B872DD PUSH1 0xE0 SHL DUP2 MSTORE SWAP1 SWAP2 POP PUSH1 0x1 PUSH1 0x1 PUSH1 0xA0 SHL SUB DUP3 AND SWAP1 PUSH4 0x23B872DD SWAP1 PUSH2 0xC8B SWAP1 CALLER SWAP1 ADDRESS SWAP1 DUP11 SWAP1 PUSH1 0x4 ADD PUSH2 0x1E3F JUMP JUMPDEST PUSH1 0x20 PUSH1 0x40 MLOAD DUP1 DUP4 SUB DUP2 PUSH0 DUP8 GAS CALL ISZERO DUP1 ISZERO PUSH2 0xCA7 JUMPI RETURNDATASIZE PUSH0 PUSH0 RETURNDATACOPY RETURNDATASIZE PUSH0 REVERT JUMPDEST POP POP POP POP PUSH1 0x40 MLOAD RETURNDATASIZE PUSH1 0x1F NOT PUSH1 0x1F DUP3 ADD AND DUP3 ADD DUP1 PUSH1 0x40 MSTORE POP DUP2 ADD SWAP1 PUSH2 0xCCB SWAP2 SWAP1 PUSH2 0x1E63 JUMP JUMPDEST POP PUSH1 0x1 PUSH1 0x1 PUSH1 0x40 SHL SUB DUP3 DUP2 AND PUSH1 0x20 DUP7 ADD SWAP1 DUP2 MSTORE PUSH1 0xA DUP1 SLOAD PUSH1 0x40 DUP9 ADD DUP2 DUP2 MSTORE PUSH1 0x60 DUP10 ADD DUP11 DUP2 MSTORE TIMESTAMP PUSH1 0x80 DUP12 ADD SWAP1 DUP2 MSTORE PUSH1 0x1 DUP1 DUP6 ADD DUP7 SSTORE PUSH0 SWAP6 DUP7 MSTORE DUP12 MLOAD PUSH32 0xC65A7BB8D6351C1CF70C95A316CC6A92839C986682D98BC35F958F4883F9D2A8 PUSH1 0x5 SWAP1 SWAP7 MUL SWAP6 DUP7 ADD SSTORE SWAP6 MLOAD PUSH32 0xC65A7BB8D6351C1CF70C95A316CC6A92839C986682D98BC35F958F4883F9D2A9 DUP6 ADD DUP1 SLOAD PUSH8 0xFFFFFFFFFFFFFFFF NOT AND SWAP2 SWAP1 SWAP9 AND OR SWAP1 SWAP7 SSTORE SWAP1 MLOAD PUSH32 0xC65A7BB8D6351C1CF70C95A316CC6A92839C986682D98BC35F958F4883F9D2AA DUP4 ADD SSTORE MLOAD PUSH32 0xC65A7BB8D6351C1CF70C95A316CC6A92839C986682D98BC35F958F4883F9D2AB DUP3 ADD SSTORE SWAP3 MLOAD PUSH32 0xC65A7BB8D6351C1CF70C95A316CC6A92839C986682D98BC35F958F4883F9D2AC SWAP1 SWAP4 ADD SWAP3 SWAP1 SWAP3 SSTORE PUSH1 0xB DUP1 SLOAD SWAP2 DUP3 ADD DUP2 SSTORE SWAP1 SWAP2 MSTORE PUSH32 0x175B7A638427703F0DBE7BB9BBF987A2551717B34E79F33B5B1008D1FA01DB9 ADD PUSH2 0xE16 DUP8 DUP3 PUSH2 0x1FFC JUMP JUMPDEST POP PUSH1 0x1 PUSH1 0x1 PUSH1 0x40 SHL SUB DUP3 AND PUSH0 DUP2 DUP2 MSTORE PUSH1 0xE PUSH1 0x20 SWAP1 DUP2 MSTORE PUSH1 0x40 DUP1 DUP4 KECCAK256 DUP9 DUP3 ADD DUP1 MLOAD DUP3 SLOAD PUSH1 0x1 DUP2 DUP2 ADD DUP6 SSTORE SWAP4 DUP8 MSTORE DUP6 DUP8 KECCAK256 ADD SSTORE DUP10 MLOAD DUP6 MSTORE PUSH1 0xF DUP5 MSTORE DUP3 DUP6 KECCAK256 SWAP1 MLOAD DUP2 SLOAD SWAP3 DUP4 ADD DUP3 SSTORE SWAP1 DUP6 MSTORE DUP4 DUP6 KECCAK256 SWAP1 SWAP2 ADD SSTORE SWAP3 DUP3 MSTORE PUSH1 0xC SWAP1 MSTORE DUP2 SWAP1 KECCAK256 SWAP1 MLOAD DUP7 SWAP2 SWAP1 PUSH2 0xE7F SWAP1 DUP10 SWAP1 PUSH2 0x20B6 JUMP JUMPDEST SWAP1 DUP2 MSTORE PUSH1 0x20 ADD PUSH1 0x40 MLOAD DUP1 SWAP2 SUB SWAP1 KECCAK256 PUSH0 DUP3 DUP3 SLOAD PUSH2 0xE9B SWAP2 SWAP1 PUSH2 0x20C1 JUMP JUMPDEST SWAP1 SWAP2 SSTORE POP POP DUP4 MLOAD PUSH0 SWAP1 DUP2 MSTORE PUSH1 0xD PUSH1 0x20 MSTORE PUSH1 0x40 SWAP1 DUP2 SWAP1 KECCAK256 SWAP1 MLOAD DUP7 SWAP2 SWAP1 PUSH2 0xEC1 SWAP1 DUP10 SWAP1 PUSH2 0x20B6 JUMP JUMPDEST SWAP1 DUP2 MSTORE PUSH1 0x20 ADD PUSH1 0x40 MLOAD DUP1 SWAP2 SUB SWAP1 KECCAK256 PUSH0 DUP3 DUP3 SLOAD PUSH2 0xEDD SWAP2 SWAP1 PUSH2 0x20C1 JUMP JUMPDEST SWAP1 SWAP2 SSTORE POP PUSH2 0xEEB SWAP1 POP PUSH2 0x1646 JUMP JUMPDEST POP POP POP POP POP POP POP JUMP JUMPDEST PUSH2 0xEFC PUSH2 0x1688 JUMP JUMPDEST PUSH2 0xF06 DUP2 PUSH0 PUSH2 0x16C8 JUMP JUMPDEST POP JUMP JUMPDEST PUSH2 0xF11 PUSH2 0x18C5 JUMP JUMPDEST PUSH1 0x60 PUSH1 0xA DUP4 DUP2 SLOAD DUP2 LT PUSH2 0xF26 JUMPI PUSH2 0xF26 PUSH2 0x20D4 JUMP JUMPDEST SWAP1 PUSH0 MSTORE PUSH1 0x20 PUSH0 KECCAK256 SWAP1 PUSH1 0x5 MUL ADD PUSH1 0xB DUP5 DUP2 SLOAD DUP2 LT PUSH2 0xF45 JUMPI PUSH2 0xF45 PUSH2 0x20D4 JUMP JUMPDEST PUSH0 SWAP2 DUP3 MSTORE PUSH1 0x20 SWAP2 DUP3 SWAP1 KECCAK256 PUSH1 0x40 DUP1 MLOAD PUSH1 0xA0 DUP2 ADD DUP3 MSTORE DUP6 SLOAD DUP2 MSTORE PUSH1 0x1 DUP7 ADD SLOAD PUSH1 0x1 PUSH1 0x1 PUSH1 0x40 SHL SUB AND SWAP5 DUP2 ADD SWAP5 SWAP1 SWAP5 MSTORE PUSH1 0x2 DUP6 ADD SLOAD SWAP1 DUP5 ADD MSTORE PUSH1 0x3 DUP5 ADD SLOAD PUSH1 0x60 DUP5 ADD MSTORE PUSH1 0x4 SWAP1 SWAP4 ADD SLOAD PUSH1 0x80 DUP4 ADD MSTORE SWAP1 SWAP2 ADD DUP1 SLOAD DUP2 SWAP1 PUSH2 0xFA0 SWAP1 PUSH2 0x1CCC JUMP JUMPDEST DUP1 PUSH1 0x1F ADD PUSH1 0x20 DUP1 SWAP2 DIV MUL PUSH1 0x20 ADD PUSH1 0x40 MLOAD SWAP1 DUP2 ADD PUSH1 0x40 MSTORE DUP1 SWAP3 SWAP2 SWAP1 DUP2 DUP2 MSTORE PUSH1 0x20 ADD DUP3 DUP1 SLOAD PUSH2 0xFCC SWAP1 PUSH2 0x1CCC JUMP JUMPDEST DUP1 ISZERO PUSH2 0x1017 JUMPI DUP1 PUSH1 0x1F LT PUSH2 0xFEE JUMPI PUSH2 0x100 DUP1 DUP4 SLOAD DIV MUL DUP4 MSTORE SWAP2 PUSH1 0x20 ADD SWAP2 PUSH2 0x1017 JUMP JUMPDEST DUP3 ADD SWAP2 SWAP1 PUSH0 MSTORE PUSH1 0x20 PUSH0 KECCAK256 SWAP1 JUMPDEST DUP2 SLOAD DUP2 MSTORE SWAP1 PUSH1 0x1 ADD SWAP1 PUSH1 0x20 ADD DUP1 DUP4 GT PUSH2 0xFFA JUMPI DUP3 SWAP1 SUB PUSH1 0x1F AND DUP3 ADD SWAP2 JUMPDEST POP POP POP POP POP SWAP1 POP SWAP2 POP SWAP2 POP SWAP2 POP SWAP2 JUMP JUMPDEST PUSH2 0x102F PUSH2 0x18C5 JUMP JUMPDEST PUSH1 0x1 PUSH1 0x1 PUSH1 0x40 SHL SUB DUP4 AND PUSH0 SWAP1 DUP2 MSTORE PUSH1 0xE PUSH1 0x20 MSTORE PUSH1 0x40 SWAP1 KECCAK256 DUP1 SLOAD PUSH1 0x60 SWAP2 PUSH2 0x106D SWAP2 DUP6 SWAP1 DUP2 LT PUSH2 0x105F JUMPI PUSH2 0x105F PUSH2 0x20D4 JUMP JUMPDEST SWAP1 PUSH0 MSTORE PUSH1 0x20 PUSH0 KECCAK256 ADD SLOAD PUSH2 0xF09 JUMP JUMPDEST SWAP2 POP SWAP2 POP SWAP3 POP SWAP3 SWAP1 POP JUMP JUMPDEST PUSH1 0x9 SLOAD PUSH1 0x40 DUP1 MLOAD PUSH4 0x1A1CBF0F PUSH1 0xE2 SHL DUP2 MSTORE SWAP1 MLOAD PUSH0 SWAP3 PUSH1 0x1 PUSH1 0x1 PUSH1 0xA0 SHL SUB AND SWAP2 PUSH4 0x6872FC3C SWAP2 PUSH1 0x4 DUP1 DUP4 ADD SWAP3 PUSH1 0x20 SWAP3 SWAP2 SWAP1 DUP3 SWAP1 SUB ADD DUP2 DUP7 GAS STATICCALL ISZERO DUP1 ISZERO PUSH2 0x10BF JUMPI RETURNDATASIZE PUSH0 PUSH0 RETURNDATACOPY RETURNDATASIZE PUSH0 REVERT JUMPDEST POP POP POP POP PUSH1 0x40 MLOAD RETURNDATASIZE PUSH1 0x1F NOT PUSH1 0x1F DUP3 ADD AND DUP3 ADD DUP1 PUSH1 0x40 MSTORE POP DUP2 ADD SWAP1 PUSH2 0x10E3 SWAP2 SWAP1 PUSH2 0x1F5F JUMP JUMPDEST PUSH1 0x1 PUSH1 0x1 PUSH1 0xA0 SHL SUB AND PUSH4 0xE1ED6E72 PUSH1 0x40 MLOAD DUP2 PUSH4 0xFFFFFFFF AND PUSH1 0xE0 SHL DUP2 MSTORE PUSH1 0x4 ADD PUSH1 0x20 PUSH1 0x40 MLOAD DUP1 DUP4 SUB DUP2 DUP7 GAS STATICCALL ISZERO DUP1 ISZERO PUSH2 0x111E JUMPI RETURNDATASIZE PUSH0 PUSH0 RETURNDATACOPY RETURNDATASIZE PUSH0 REVERT JUMPDEST POP POP POP POP PUSH1 0x40 MLOAD RETURNDATASIZE PUSH1 0x1F NOT PUSH1 0x1F DUP3 ADD AND DUP3 ADD DUP1 PUSH1 0x40 MSTORE POP DUP2 ADD SWAP1 PUSH2 0x1142 SWAP2 SWAP1 PUSH2 0x1F7A JUMP JUMPDEST SWAP1 POP DUP1 PUSH1 0x1 PUSH1 0x1 PUSH1 0x40 SHL SUB AND PUSH1 0xA DUP5 DUP2 SLOAD DUP2 LT PUSH2 0x1161 JUMPI PUSH2 0x1161 PUSH2 0x20D4 JUMP JUMPDEST PUSH0 SWAP2 DUP3 MSTORE PUSH1 0x20 SWAP1 SWAP2 KECCAK256 PUSH1 0x1 PUSH1 0x5 SWAP1 SWAP3 MUL ADD ADD SLOAD PUSH1 0x1 PUSH1 0x1 PUSH1 0x40 SHL SUB AND EQ PUSH2 0x119E JUMPI PUSH1 0x40 MLOAD PUSH4 0x9ACB997 PUSH1 0xE3 SHL DUP2 MSTORE PUSH1 0x4 DUP2 ADD DUP5 SWAP1 MSTORE PUSH1 0x24 ADD PUSH2 0x576 JUMP JUMPDEST PUSH1 0xA DUP4 DUP2 SLOAD DUP2 LT PUSH2 0x11B1 JUMPI PUSH2 0x11B1 PUSH2 0x20D4 JUMP JUMPDEST SWAP1 PUSH0 MSTORE PUSH1 0x20 PUSH0 KECCAK256 SWAP1 PUSH1 0x5 MUL ADD PUSH1 0x3 ADD SLOAD DUP3 GT ISZERO PUSH2 0x1210 JUMPI DUP3 PUSH1 0xA DUP5 DUP2 SLOAD DUP2 LT PUSH2 0x11DC JUMPI PUSH2 0x11DC PUSH2 0x20D4 JUMP JUMPDEST SWAP1 PUSH0 MSTORE PUSH1 0x20 PUSH0 KECCAK256 SWAP1 PUSH1 0x5 MUL ADD PUSH1 0x3 ADD SLOAD PUSH1 0x40 MLOAD PUSH4 0xD8BF65B5 PUSH1 0xE0 SHL DUP2 MSTORE PUSH1 0x4 ADD PUSH2 0x576 SWAP3 SWAP2 SWAP1 SWAP2 DUP3 MSTORE PUSH1 0x20 DUP3 ADD MSTORE PUSH1 0x40 ADD SWAP1 JUMP JUMPDEST PUSH1 0x9 SLOAD PUSH1 0x40 DUP1 MLOAD PUSH4 0x1A1CBF0F PUSH1 0xE2 SHL DUP2 MSTORE SWAP1 MLOAD PUSH0 SWAP3 PUSH1 0x1 PUSH1 0x1 PUSH1 0xA0 SHL SUB AND SWAP2 PUSH4 0x6872FC3C SWAP2 PUSH1 0x4 DUP1 DUP4 ADD SWAP3 PUSH1 0x20 SWAP3 SWAP2 SWAP1 DUP3 SWAP1 SUB ADD DUP2 DUP7 GAS STATICCALL ISZERO DUP1 ISZERO PUSH2 0x1257 JUMPI RETURNDATASIZE PUSH0 PUSH0 RETURNDATACOPY RETURNDATASIZE PUSH0 REVERT JUMPDEST POP POP POP POP PUSH1 0x40 MLOAD RETURNDATASIZE PUSH1 0x1F NOT PUSH1 0x1F DUP3 ADD AND DUP3 ADD DUP1 PUSH1 0x40 MSTORE POP DUP2 ADD SWAP1 PUSH2 0x127B SWAP2 SWAP1 PUSH2 0x1F5F JUMP JUMPDEST PUSH1 0x1 PUSH1 0x1 PUSH1 0xA0 SHL SUB AND PUSH4 0xAC5BD44F PUSH1 0x40 MLOAD DUP2 PUSH4 0xFFFFFFFF AND PUSH1 0xE0 SHL DUP2 MSTORE PUSH1 0x4 ADD PUSH2 0x12A4 SWAP1 PUSH2 0x1F95 JUMP JUMPDEST PUSH1 0x20 PUSH1 0x40 MLOAD DUP1 DUP4 SUB DUP2 DUP7 GAS STATICCALL ISZERO DUP1 ISZERO PUSH2 0x12BF JUMPI RETURNDATASIZE PUSH0 PUSH0 RETURNDATACOPY RETURNDATASIZE PUSH0 REVERT JUMPDEST POP POP POP POP PUSH1 0x40 MLOAD RETURNDATASIZE PUSH1 0x1F NOT PUSH1 0x1F DUP3 ADD AND DUP3 ADD DUP1 PUSH1 0x40 MSTORE POP DUP2 ADD SWAP1 PUSH2 0x12E3 SWAP2 SWAP1 PUSH2 0x1F5F JUMP JUMPDEST PUSH1 0x40 MLOAD PUSH4 0xA9059CBB PUSH1 0xE0 SHL DUP2 MSTORE SWAP1 SWAP2 POP PUSH1 0x1 PUSH1 0x1 PUSH1 0xA0 SHL SUB DUP3 AND SWAP1 PUSH4 0xA9059CBB SWAP1 PUSH2 0x1314 SWAP1 CALLER SWAP1 DUP8 SWAP1 PUSH1 0x4 ADD PUSH2 0x1F2F JUMP JUMPDEST PUSH1 0x20 PUSH1 0x40 MLOAD DUP1 DUP4 SUB DUP2 PUSH0 DUP8 GAS CALL ISZERO DUP1 ISZERO PUSH2 0x1330 JUMPI RETURNDATASIZE PUSH0 PUSH0 RETURNDATACOPY RETURNDATASIZE PUSH0 REVERT JUMPDEST POP POP POP POP PUSH1 0x40 MLOAD RETURNDATASIZE PUSH1 0x1F NOT PUSH1 0x1F DUP3 ADD AND DUP3 ADD DUP1 PUSH1 0x40 MSTORE POP DUP2 ADD SWAP1 PUSH2 0x1354 SWAP2 SWAP1 PUSH2 0x1E63 JUMP JUMPDEST POP DUP3 PUSH1 0xA DUP6 DUP2 SLOAD DUP2 LT PUSH2 0x1369 JUMPI PUSH2 0x1369 PUSH2 0x20D4 JUMP JUMPDEST SWAP1 PUSH0 MSTORE PUSH1 0x20 PUSH0 KECCAK256 SWAP1 PUSH1 0x5 MUL ADD PUSH1 0x3 ADD PUSH0 DUP3 DUP3 SLOAD PUSH2 0x1386 SWAP2 SWAP1 PUSH2 0x20E8 JUMP JUMPDEST SWAP1 SWAP2 SSTORE POP POP PUSH1 0x1 PUSH1 0x1 PUSH1 0x40 SHL SUB DUP3 AND PUSH0 SWAP1 DUP2 MSTORE PUSH1 0xC PUSH1 0x20 MSTORE PUSH1 0x40 SWAP1 KECCAK256 PUSH1 0xB DUP1 SLOAD DUP6 SWAP3 SWAP2 SWAP1 DUP8 SWAP1 DUP2 LT PUSH2 0x13BA JUMPI PUSH2 0x13BA PUSH2 0x20D4 JUMP JUMPDEST SWAP1 PUSH0 MSTORE PUSH1 0x20 PUSH0 KECCAK256 ADD PUSH1 0x40 MLOAD PUSH2 0x13CF SWAP2 SWAP1 PUSH2 0x20FB JUMP JUMPDEST SWAP1 DUP2 MSTORE PUSH1 0x20 ADD PUSH1 0x40 MLOAD DUP1 SWAP2 SUB SWAP1 KECCAK256 PUSH0 DUP3 DUP3 SLOAD PUSH2 0x13EB SWAP2 SWAP1 PUSH2 0x20E8 JUMP JUMPDEST SWAP3 POP POP DUP2 SWAP1 SSTORE POP DUP3 PUSH1 0xD PUSH0 PUSH1 0xA DUP8 DUP2 SLOAD DUP2 LT PUSH2 0x1409 JUMPI PUSH2 0x1409 PUSH2 0x20D4 JUMP JUMPDEST SWAP1 PUSH0 MSTORE PUSH1 0x20 PUSH0 KECCAK256 SWAP1 PUSH1 0x5 MUL ADD PUSH0 ADD SLOAD DUP2 MSTORE PUSH1 0x20 ADD SWAP1 DUP2 MSTORE PUSH1 0x20 ADD PUSH0 KECCAK256 PUSH1 0xB DUP7 DUP2 SLOAD DUP2 LT PUSH2 0x1438 JUMPI PUSH2 0x1438 PUSH2 0x20D4 JUMP JUMPDEST SWAP1 PUSH0 MSTORE PUSH1 0x20 PUSH0 KECCAK256 ADD PUSH1 0x40 MLOAD PUSH2 0x144D SWAP2 SWAP1 PUSH2 0x20FB JUMP JUMPDEST SWAP1 DUP2 MSTORE PUSH1 0x20 ADD PUSH1 0x40 MLOAD DUP1 SWAP2 SUB SWAP1 KECCAK256 PUSH0 DUP3 DUP3 SLOAD PUSH2 0x1469 SWAP2 SWAP1 PUSH2 0x20E8 JUMP JUMPDEST SWAP1 SWAP2 SSTORE POP PUSH2 0x1477 SWAP1 POP PUSH2 0x1646 JUMP JUMPDEST POP POP POP POP JUMP JUMPDEST PUSH1 0x1 PUSH1 0x1 PUSH1 0xA0 SHL SUB AND PUSH0 SWAP1 DUP2 MSTORE PUSH1 0x20 DUP2 SWAP1 MSTORE PUSH1 0x40 SWAP1 KECCAK256 SLOAD PUSH1 0xFF AND SWAP1 JUMP JUMPDEST PUSH0 DUP3 DUP2 MSTORE PUSH1 0xD PUSH1 0x20 MSTORE PUSH1 0x40 DUP1 DUP3 KECCAK256 SWAP1 MLOAD PUSH2 0x14B5 SWAP1 DUP5 SWAP1 PUSH2 0x20B6 JUMP JUMPDEST SWAP1 DUP2 MSTORE PUSH1 0x20 ADD PUSH1 0x40 MLOAD DUP1 SWAP2 SUB SWAP1 KECCAK256 SLOAD SWAP1 POP SWAP3 SWAP2 POP POP JUMP JUMPDEST PUSH2 0x14D4 PUSH2 0x1688 JUMP JUMPDEST PUSH1 0x1 PUSH1 0x1 PUSH1 0xA0 SHL SUB DUP2 AND PUSH2 0x1501 JUMPI ORIGIN PUSH0 ADDRESS PUSH1 0x40 MLOAD PUSH4 0x36030219 PUSH1 0xE2 SHL DUP2 MSTORE PUSH1 0x4 ADD PUSH2 0x576 SWAP4 SWAP3 SWAP2 SWAP1 PUSH2 0x216C JUMP JUMPDEST PUSH2 0xF06 DUP2 PUSH1 0x1 PUSH2 0x16C8 JUMP JUMPDEST PUSH1 0x60 PUSH1 0x5 DUP1 SLOAD PUSH2 0x4A3 SWAP1 PUSH2 0x1CCC JUMP JUMPDEST PUSH2 0x1523 PUSH2 0x1688 JUMP JUMPDEST PUSH1 0x4 PUSH2 0x152F DUP4 DUP3 PUSH2 0x1FFC JUMP JUMPDEST POP PUSH1 0x5 PUSH2 0x153C DUP3 DUP3 PUSH2 0x1FFC JUMP JUMPDEST POP POP POP JUMP JUMPDEST PUSH0 CALLER PUSH2 0x531 DUP2 DUP6 DUP6 PUSH2 0x163B JUMP JUMPDEST PUSH1 0x1 PUSH1 0x1 PUSH1 0xA0 SHL SUB SWAP2 DUP3 AND PUSH0 SWAP1 DUP2 MSTORE PUSH1 0x2 PUSH1 0x20 SWAP1 DUP2 MSTORE PUSH1 0x40 DUP1 DUP4 KECCAK256 SWAP4 SWAP1 SWAP5 AND DUP3 MSTORE SWAP2 SWAP1 SWAP2 MSTORE KECCAK256 SLOAD SWAP1 JUMP JUMPDEST PUSH1 0x1 PUSH1 0x1 PUSH1 0x40 SHL SUB DUP3 AND PUSH0 SWAP1 DUP2 MSTORE PUSH1 0xC PUSH1 0x20 MSTORE PUSH1 0x40 DUP1 DUP3 KECCAK256 SWAP1 MLOAD PUSH2 0x14B5 SWAP1 DUP5 SWAP1 PUSH2 0x20B6 JUMP JUMPDEST PUSH2 0x15A5 PUSH2 0x18C5 JUMP JUMPDEST PUSH0 DUP4 DUP2 MSTORE PUSH1 0xF PUSH1 0x20 MSTORE PUSH1 0x40 SWAP1 KECCAK256 DUP1 SLOAD PUSH1 0x60 SWAP2 PUSH2 0x106D SWAP2 DUP6 SWAP1 DUP2 LT PUSH2 0x105F JUMPI PUSH2 0x105F PUSH2 0x20D4 JUMP JUMPDEST PUSH2 0x15D3 PUSH2 0x1688 JUMP JUMPDEST PUSH2 0x15DB PUSH2 0x1646 JUMP JUMPDEST JUMP JUMPDEST PUSH2 0x153C DUP4 DUP4 DUP4 PUSH1 0x1 PUSH2 0x171B JUMP JUMPDEST PUSH0 PUSH2 0x15F5 DUP5 DUP5 PUSH2 0x154E JUMP JUMPDEST SWAP1 POP PUSH0 NOT DUP2 EQ PUSH2 0x1477 JUMPI DUP2 DUP2 LT ISZERO PUSH2 0x162D JUMPI ORIGIN CALLER DUP6 DUP6 ADDRESS DUP6 DUP8 PUSH1 0x40 MLOAD PUSH3 0xB83D19 PUSH1 0xE2 SHL DUP2 MSTORE PUSH1 0x4 ADD PUSH2 0x576 SWAP8 SWAP7 SWAP6 SWAP5 SWAP4 SWAP3 SWAP2 SWAP1 PUSH2 0x218F JUMP JUMPDEST PUSH2 0x1477 DUP5 DUP5 DUP5 DUP5 SUB PUSH0 PUSH2 0x171B JUMP JUMPDEST PUSH2 0x153C DUP4 DUP4 DUP4 PUSH2 0x179B JUMP JUMPDEST PUSH2 0x1652 PUSH1 0x12 PUSH1 0xA PUSH2 0x1DFB JUMP JUMPDEST PUSH1 0x7 SLOAD PUSH2 0x165F SWAP2 SWAP1 PUSH2 0x1E09 JUMP JUMPDEST PUSH1 0x3 SLOAD LT ISZERO PUSH2 0x15DB JUMPI PUSH2 0x15DB ADDRESS PUSH2 0x1678 PUSH1 0x12 PUSH1 0xA PUSH2 0x1DFB JUMP JUMPDEST PUSH2 0x1683 SWAP1 PUSH1 0x1 PUSH2 0x1E09 JUMP JUMPDEST PUSH2 0x18B6 JUMP JUMPDEST PUSH2 0x1691 CALLER PUSH2 0x147D JUMP JUMPDEST ISZERO DUP1 ISZERO PUSH2 0x16A4 JUMPI POP PUSH2 0x16A2 ORIGIN PUSH2 0x147D JUMP JUMPDEST ISZERO JUMPDEST ISZERO PUSH2 0x15DB JUMPI ORIGIN CALLER ADDRESS PUSH1 0x40 MLOAD PUSH4 0xBE6BAB5 PUSH1 0xE0 SHL DUP2 MSTORE PUSH1 0x4 ADD PUSH2 0x576 SWAP4 SWAP3 SWAP2 SWAP1 PUSH2 0x216C JUMP JUMPDEST PUSH1 0x1 PUSH1 0x1 PUSH1 0xA0 SHL SUB DUP3 AND PUSH0 DUP2 DUP2 MSTORE PUSH1 0x20 DUP2 SWAP1 MSTORE PUSH1 0x40 DUP1 DUP3 KECCAK256 DUP1 SLOAD PUSH1 0xFF NOT AND DUP6 ISZERO ISZERO SWAP1 DUP2 OR SWAP1 SWAP2 SSTORE SWAP1 MLOAD SWAP1 SWAP3 SWAP2 PUSH32 0x6BFA7E860C3E9BF67B810CB88276B19B27C972812BAC04793D369B59A1183A83 SWAP2 LOG3 POP POP JUMP JUMPDEST PUSH1 0x1 PUSH1 0x1 PUSH1 0xA0 SHL SUB DUP1 DUP6 AND PUSH0 SWAP1 DUP2 MSTORE PUSH1 0x2 PUSH1 0x20 SWAP1 DUP2 MSTORE PUSH1 0x40 DUP1 DUP4 KECCAK256 SWAP4 DUP8 AND DUP4 MSTORE SWAP3 SWAP1 MSTORE KECCAK256 DUP3 SWAP1 SSTORE DUP1 ISZERO PUSH2 0x1477 JUMPI DUP3 PUSH1 0x1 PUSH1 0x1 PUSH1 0xA0 SHL SUB AND DUP5 PUSH1 0x1 PUSH1 0x1 PUSH1 0xA0 SHL SUB AND PUSH32 0x8C5BE1E5EBEC7D5BD14F71427D1E84F3DD0314C0F7B2291E5B200AC8C7C3B925 DUP5 PUSH1 0x40 MLOAD PUSH2 0x178D SWAP2 DUP2 MSTORE PUSH1 0x20 ADD SWAP1 JUMP JUMPDEST PUSH1 0x40 MLOAD DUP1 SWAP2 SUB SWAP1 LOG3 POP POP POP POP JUMP JUMPDEST PUSH1 0x1 PUSH1 0x1 PUSH1 0xA0 SHL SUB DUP4 AND PUSH2 0x17C5 JUMPI DUP1 PUSH1 0x3 PUSH0 DUP3 DUP3 SLOAD PUSH2 0x17BA SWAP2 SWAP1 PUSH2 0x20C1 JUMP JUMPDEST SWAP1 SWAP2 SSTORE POP PUSH2 0x182A SWAP1 POP JUMP JUMPDEST PUSH1 0x1 PUSH1 0x1 PUSH1 0xA0 SHL SUB DUP4 AND PUSH0 SWAP1 DUP2 MSTORE PUSH1 0x1 PUSH1 0x20 MSTORE PUSH1 0x40 SWAP1 KECCAK256 SLOAD DUP2 DUP2 LT ISZERO PUSH2 0x180C JUMPI ORIGIN CALLER DUP6 DUP6 ADDRESS DUP6 DUP8 PUSH1 0x40 MLOAD PUSH4 0xF7D0BBD PUSH1 0xE2 SHL DUP2 MSTORE PUSH1 0x4 ADD PUSH2 0x576 SWAP8 SWAP7 SWAP6 SWAP5 SWAP4 SWAP3 SWAP2 SWAP1 PUSH2 0x218F JUMP JUMPDEST PUSH1 0x1 PUSH1 0x1 PUSH1 0xA0 SHL SUB DUP5 AND PUSH0 SWAP1 DUP2 MSTORE PUSH1 0x1 PUSH1 0x20 MSTORE PUSH1 0x40 SWAP1 KECCAK256 SWAP1 DUP3 SWAP1 SUB SWAP1 SSTORE JUMPDEST PUSH1 0x1 PUSH1 0x1 PUSH1 0xA0 SHL SUB DUP3 AND PUSH2 0x1846 JUMPI PUSH1 0x3 DUP1 SLOAD DUP3 SWAP1 SUB SWAP1 SSTORE PUSH2 0x1864 JUMP JUMPDEST PUSH1 0x1 PUSH1 0x1 PUSH1 0xA0 SHL SUB DUP3 AND PUSH0 SWAP1 DUP2 MSTORE PUSH1 0x1 PUSH1 0x20 MSTORE PUSH1 0x40 SWAP1 KECCAK256 DUP1 SLOAD DUP3 ADD SWAP1 SSTORE JUMPDEST DUP2 PUSH1 0x1 PUSH1 0x1 PUSH1 0xA0 SHL SUB AND DUP4 PUSH1 0x1 PUSH1 0x1 PUSH1 0xA0 SHL SUB AND PUSH32 0xDDF252AD1BE2C89B69C2B068FC378DAA952BA7F163C4A11628F55A4DF523B3EF DUP4 PUSH1 0x40 MLOAD PUSH2 0x18A9 SWAP2 DUP2 MSTORE PUSH1 0x20 ADD SWAP1 JUMP JUMPDEST PUSH1 0x40 MLOAD DUP1 SWAP2 SUB SWAP1 LOG3 POP POP POP JUMP JUMPDEST PUSH2 0x18C1 PUSH0 DUP4 DUP4 PUSH2 0x179B JUMP JUMPDEST POP POP JUMP JUMPDEST PUSH1 0x40 MLOAD DUP1 PUSH1 0xA0 ADD PUSH1 0x40 MSTORE DUP1 PUSH0 DUP2 MSTORE PUSH1 0x20 ADD PUSH0 PUSH1 0x1 PUSH1 0x1 PUSH1 0x40 SHL SUB AND DUP2 MSTORE PUSH1 0x20 ADD PUSH0 DUP2 MSTORE PUSH1 0x20 ADD PUSH0 DUP2 MSTORE PUSH1 0x20 ADD PUSH0 DUP2 MSTORE POP SWAP1 JUMP JUMPDEST PUSH0 DUP2 MLOAD DUP1 DUP5 MSTORE DUP1 PUSH1 0x20 DUP5 ADD PUSH1 0x20 DUP7 ADD MCOPY PUSH0 PUSH1 0x20 DUP3 DUP7 ADD ADD MSTORE PUSH1 0x20 PUSH1 0x1F NOT PUSH1 0x1F DUP4 ADD AND DUP6 ADD ADD SWAP2 POP POP SWAP3 SWAP2 POP POP JUMP JUMPDEST PUSH1 0x20 DUP2 MSTORE PUSH0 PUSH2 0x1938 PUSH1 0x20 DUP4 ADD DUP5 PUSH2 0x18F8 JUMP JUMPDEST SWAP4 SWAP3 POP POP POP JUMP JUMPDEST PUSH1 0x1 PUSH1 0x1 PUSH1 0xA0 SHL SUB DUP2 AND DUP2 EQ PUSH2 0xF06 JUMPI PUSH0 PUSH0 REVERT JUMPDEST PUSH0 PUSH0 PUSH1 0x40 DUP4 DUP6 SUB SLT ISZERO PUSH2 0x1964 JUMPI PUSH0 PUSH0 REVERT JUMPDEST DUP3 CALLDATALOAD PUSH2 0x196F DUP2 PUSH2 0x193F JUMP JUMPDEST SWAP5 PUSH1 0x20 SWAP4 SWAP1 SWAP4 ADD CALLDATALOAD SWAP4 POP POP POP JUMP JUMPDEST PUSH0 PUSH0 PUSH0 PUSH1 0x60 DUP5 DUP7 SUB SLT ISZERO PUSH2 0x198F JUMPI PUSH0 PUSH0 REVERT JUMPDEST DUP4 CALLDATALOAD PUSH2 0x199A DUP2 PUSH2 0x193F JUMP JUMPDEST SWAP3 POP PUSH1 0x20 DUP5 ADD CALLDATALOAD PUSH2 0x19AA DUP2 PUSH2 0x193F JUMP JUMPDEST SWAP3 SWAP6 SWAP3 SWAP5 POP POP POP PUSH1 0x40 SWAP2 SWAP1 SWAP2 ADD CALLDATALOAD SWAP1 JUMP JUMPDEST PUSH0 PUSH1 0x20 DUP3 DUP5 SUB SLT ISZERO PUSH2 0x19CB JUMPI PUSH0 PUSH0 REVERT JUMPDEST DUP2 CALLDATALOAD PUSH2 0x1938 DUP2 PUSH2 0x193F JUMP JUMPDEST PUSH4 0x4E487B71 PUSH1 0xE0 SHL PUSH0 MSTORE PUSH1 0x41 PUSH1 0x4 MSTORE PUSH1 0x24 PUSH0 REVERT JUMPDEST PUSH1 0x40 MLOAD PUSH1 0x1F DUP3 ADD PUSH1 0x1F NOT AND DUP2 ADD PUSH1 0x1 PUSH1 0x1 PUSH1 0x40 SHL SUB DUP2 GT DUP3 DUP3 LT OR ISZERO PUSH2 0x1A12 JUMPI PUSH2 0x1A12 PUSH2 0x19D6 JUMP JUMPDEST PUSH1 0x40 MSTORE SWAP2 SWAP1 POP JUMP JUMPDEST PUSH0 PUSH1 0x1 PUSH1 0x1 PUSH1 0x40 SHL SUB DUP3 GT ISZERO PUSH2 0x1A32 JUMPI PUSH2 0x1A32 PUSH2 0x19D6 JUMP JUMPDEST POP PUSH1 0x1F ADD PUSH1 0x1F NOT AND PUSH1 0x20 ADD SWAP1 JUMP JUMPDEST PUSH0 DUP3 PUSH1 0x1F DUP4 ADD SLT PUSH2 0x1A4F JUMPI PUSH0 PUSH0 REVERT JUMPDEST DUP2 CALLDATALOAD PUSH2 0x1A62 PUSH2 0x1A5D DUP3 PUSH2 0x1A1A JUMP JUMPDEST PUSH2 0x19EA JUMP JUMPDEST DUP2 DUP2 MSTORE DUP5 PUSH1 0x20 DUP4 DUP7 ADD ADD GT ISZERO PUSH2 0x1A76 JUMPI PUSH0 PUSH0 REVERT JUMPDEST DUP2 PUSH1 0x20 DUP6 ADD PUSH1 0x20 DUP4 ADD CALLDATACOPY PUSH0 SWAP2 DUP2 ADD PUSH1 0x20 ADD SWAP2 SWAP1 SWAP2 MSTORE SWAP4 SWAP3 POP POP POP JUMP JUMPDEST PUSH0 PUSH0 PUSH0 PUSH1 0x60 DUP5 DUP7 SUB SLT ISZERO PUSH2 0x1AA4 JUMPI PUSH0 PUSH0 REVERT JUMPDEST DUP4 CALLDATALOAD PUSH2 0x1AAF DUP2 PUSH2 0x193F JUMP JUMPDEST SWAP3 POP PUSH1 0x20 DUP5 ADD CALLDATALOAD PUSH1 0x1 PUSH1 0x1 PUSH1 0x40 SHL SUB DUP2 GT ISZERO PUSH2 0x1AC9 JUMPI PUSH0 PUSH0 REVERT JUMPDEST PUSH2 0x1AD5 DUP7 DUP3 DUP8 ADD PUSH2 0x1A40 JUMP JUMPDEST SWAP4 SWAP7 SWAP4 SWAP6 POP POP POP POP PUSH1 0x40 SWAP2 SWAP1 SWAP2 ADD CALLDATALOAD SWAP1 JUMP JUMPDEST PUSH0 PUSH1 0x20 DUP3 DUP5 SUB SLT ISZERO PUSH2 0x1AF7 JUMPI PUSH0 PUSH0 REVERT JUMPDEST POP CALLDATALOAD SWAP2 SWAP1 POP JUMP JUMPDEST DUP3 MLOAD DUP2 MSTORE PUSH1 0x1 PUSH1 0x1 PUSH1 0x40 SHL SUB PUSH1 0x20 DUP5 ADD MLOAD AND PUSH1 0x20 DUP3 ADD MSTORE PUSH1 0x40 DUP4 ADD MLOAD PUSH1 0x40 DUP3 ADD MSTORE PUSH1 0x60 DUP4 ADD MLOAD PUSH1 0x60 DUP3 ADD MSTORE PUSH1 0x80 DUP4 ADD MLOAD PUSH1 0x80 DUP3 ADD MSTORE PUSH1 0xC0 PUSH1 0xA0 DUP3 ADD MSTORE PUSH0 PUSH2 0x1B48 PUSH1 0xC0 DUP4 ADD DUP5 PUSH2 0x18F8 JUMP JUMPDEST SWAP5 SWAP4 POP POP POP POP JUMP JUMPDEST PUSH1 0x1 PUSH1 0x1 PUSH1 0x40 SHL SUB DUP2 AND DUP2 EQ PUSH2 0xF06 JUMPI PUSH0 PUSH0 REVERT JUMPDEST PUSH0 PUSH0 PUSH1 0x40 DUP4 DUP6 SUB SLT ISZERO PUSH2 0x1B75 JUMPI PUSH0 PUSH0 REVERT JUMPDEST DUP3 CALLDATALOAD PUSH2 0x196F DUP2 PUSH2 0x1B50 JUMP JUMPDEST PUSH0 PUSH0 PUSH1 0x40 DUP4 DUP6 SUB SLT ISZERO PUSH2 0x1B91 JUMPI PUSH0 PUSH0 REVERT JUMPDEST POP POP DUP1 CALLDATALOAD SWAP3 PUSH1 0x20 SWAP1 SWAP2 ADD CALLDATALOAD SWAP2 POP JUMP JUMPDEST PUSH1 0x1 PUSH1 0x1 PUSH1 0xA0 SHL SUB SWAP2 SWAP1 SWAP2 AND DUP2 MSTORE PUSH1 0x20 ADD SWAP1 JUMP JUMPDEST PUSH0 PUSH0 PUSH1 0x40 DUP4 DUP6 SUB SLT ISZERO PUSH2 0x1BC5 JUMPI PUSH0 PUSH0 REVERT JUMPDEST DUP3 CALLDATALOAD SWAP2 POP PUSH1 0x20 DUP4 ADD CALLDATALOAD PUSH1 0x1 PUSH1 0x1 PUSH1 0x40 SHL SUB DUP2 GT ISZERO PUSH2 0x1BE1 JUMPI PUSH0 PUSH0 REVERT JUMPDEST PUSH2 0x1BED DUP6 DUP3 DUP7 ADD PUSH2 0x1A40 JUMP JUMPDEST SWAP2 POP POP SWAP3 POP SWAP3 SWAP1 POP JUMP JUMPDEST PUSH0 PUSH0 PUSH1 0x40 DUP4 DUP6 SUB SLT ISZERO PUSH2 0x1C08 JUMPI PUSH0 PUSH0 REVERT JUMPDEST DUP3 CALLDATALOAD PUSH1 0x1 PUSH1 0x1 PUSH1 0x40 SHL SUB DUP2 GT ISZERO PUSH2 0x1C1D JUMPI PUSH0 PUSH0 REVERT JUMPDEST PUSH2 0x1C29 DUP6 DUP3 DUP7 ADD PUSH2 0x1A40 JUMP JUMPDEST SWAP3 POP POP PUSH1 0x20 DUP4 ADD CALLDATALOAD PUSH1 0x1 PUSH1 0x1 PUSH1 0x40 SHL SUB DUP2 GT ISZERO PUSH2 0x1BE1 JUMPI PUSH0 PUSH0 REVERT JUMPDEST PUSH0 PUSH1 0x20 DUP3 DUP5 SUB SLT ISZERO PUSH2 0x1C54 JUMPI PUSH0 PUSH0 REVERT JUMPDEST DUP2 CALLDATALOAD PUSH2 0x1938 DUP2 PUSH2 0x1B50 JUMP JUMPDEST PUSH0 PUSH0 PUSH1 0x40 DUP4 DUP6 SUB SLT ISZERO PUSH2 0x1C70 JUMPI PUSH0 PUSH0 REVERT JUMPDEST DUP3 CALLDATALOAD PUSH2 0x1C7B DUP2 PUSH2 0x193F JUMP JUMPDEST SWAP2 POP PUSH1 0x20 DUP4 ADD CALLDATALOAD PUSH2 0x1C8B DUP2 PUSH2 0x193F JUMP JUMPDEST DUP1 SWAP2 POP POP SWAP3 POP SWAP3 SWAP1 POP JUMP JUMPDEST PUSH0 PUSH0 PUSH1 0x40 DUP4 DUP6 SUB SLT ISZERO PUSH2 0x1CA7 JUMPI PUSH0 PUSH0 REVERT JUMPDEST DUP3 CALLDATALOAD PUSH2 0x1CB2 DUP2 PUSH2 0x1B50 JUMP JUMPDEST SWAP2 POP PUSH1 0x20 DUP4 ADD CALLDATALOAD PUSH1 0x1 PUSH1 0x1 PUSH1 0x40 SHL SUB DUP2 GT ISZERO PUSH2 0x1BE1 JUMPI PUSH0 PUSH0 REVERT JUMPDEST PUSH1 0x1 DUP2 DUP2 SHR SWAP1 DUP3 AND DUP1 PUSH2 0x1CE0 JUMPI PUSH1 0x7F DUP3 AND SWAP2 POP JUMPDEST PUSH1 0x20 DUP3 LT DUP2 SUB PUSH2 0x1CFE JUMPI PUSH4 0x4E487B71 PUSH1 0xE0 SHL PUSH0 MSTORE PUSH1 0x22 PUSH1 0x4 MSTORE PUSH1 0x24 PUSH0 REVERT JUMPDEST POP SWAP2 SWAP1 POP JUMP JUMPDEST PUSH4 0x4E487B71 PUSH1 0xE0 SHL PUSH0 MSTORE PUSH1 0x11 PUSH1 0x4 MSTORE PUSH1 0x24 PUSH0 REVERT JUMPDEST PUSH1 0x1 DUP2 JUMPDEST PUSH1 0x1 DUP5 GT ISZERO PUSH2 0x1D53 JUMPI DUP1 DUP6 DIV DUP2 GT ISZERO PUSH2 0x1D37 JUMPI PUSH2 0x1D37 PUSH2 0x1D04 JUMP JUMPDEST PUSH1 0x1 DUP5 AND ISZERO PUSH2 0x1D45 JUMPI SWAP1 DUP2 MUL SWAP1 JUMPDEST PUSH1 0x1 SWAP4 SWAP1 SWAP4 SHR SWAP3 DUP1 MUL PUSH2 0x1D1C JUMP JUMPDEST SWAP4 POP SWAP4 SWAP2 POP POP JUMP JUMPDEST PUSH0 DUP3 PUSH2 0x1D69 JUMPI POP PUSH1 0x1 PUSH2 0x537 JUMP JUMPDEST DUP2 PUSH2 0x1D75 JUMPI POP PUSH0 PUSH2 0x537 JUMP JUMPDEST DUP2 PUSH1 0x1 DUP2 EQ PUSH2 0x1D8B JUMPI PUSH1 0x2 DUP2 EQ PUSH2 0x1D95 JUMPI PUSH2 0x1DB1 JUMP JUMPDEST PUSH1 0x1 SWAP2 POP POP PUSH2 0x537 JUMP JUMPDEST PUSH1 0xFF DUP5 GT ISZERO PUSH2 0x1DA6 JUMPI PUSH2 0x1DA6 PUSH2 0x1D04 JUMP JUMPDEST POP POP PUSH1 0x1 DUP3 SHL PUSH2 0x537 JUMP JUMPDEST POP PUSH1 0x20 DUP4 LT PUSH2 0x133 DUP4 LT AND PUSH1 0x4E DUP5 LT PUSH1 0xB DUP5 LT AND OR ISZERO PUSH2 0x1DD4 JUMPI POP DUP2 DUP2 EXP PUSH2 0x537 JUMP JUMPDEST PUSH2 0x1DE0 PUSH0 NOT DUP5 DUP5 PUSH2 0x1D18 JUMP JUMPDEST DUP1 PUSH0 NOT DIV DUP3 GT ISZERO PUSH2 0x1DF3 JUMPI PUSH2 0x1DF3 PUSH2 0x1D04 JUMP JUMPDEST MUL SWAP4 SWAP3 POP POP POP JUMP JUMPDEST PUSH0 PUSH2 0x1938 PUSH1 0xFF DUP5 AND DUP4 PUSH2 0x1D5B JUMP JUMPDEST DUP1 DUP3 MUL DUP2 ISZERO DUP3 DUP3 DIV DUP5 EQ OR PUSH2 0x537 JUMPI PUSH2 0x537 PUSH2 0x1D04 JUMP JUMPDEST PUSH0 DUP3 PUSH2 0x1E3A JUMPI PUSH4 0x4E487B71 PUSH1 0xE0 SHL PUSH0 MSTORE PUSH1 0x12 PUSH1 0x4 MSTORE PUSH1 0x24 PUSH0 REVERT JUMPDEST POP DIV SWAP1 JUMP JUMPDEST PUSH1 0x1 PUSH1 0x1 PUSH1 0xA0 SHL SUB SWAP4 DUP5 AND DUP2 MSTORE SWAP2 SWAP1 SWAP3 AND PUSH1 0x20 DUP3 ADD MSTORE PUSH1 0x40 DUP2 ADD SWAP2 SWAP1 SWAP2 MSTORE PUSH1 0x60 ADD SWAP1 JUMP JUMPDEST PUSH0 PUSH1 0x20 DUP3 DUP5 SUB SLT ISZERO PUSH2 0x1E73 JUMPI PUSH0 PUSH0 REVERT JUMPDEST DUP2 MLOAD DUP1 ISZERO ISZERO DUP2 EQ PUSH2 0x1938 JUMPI PUSH0 PUSH0 REVERT JUMPDEST PUSH0 PUSH1 0x20 DUP3 DUP5 SUB SLT ISZERO PUSH2 0x1E92 JUMPI PUSH0 PUSH0 REVERT JUMPDEST DUP2 MLOAD PUSH1 0x1 PUSH1 0x1 PUSH1 0x40 SHL SUB DUP2 GT ISZERO PUSH2 0x1EA7 JUMPI PUSH0 PUSH0 REVERT JUMPDEST DUP3 ADD PUSH1 0x1F DUP2 ADD DUP5 SGT PUSH2 0x1EB7 JUMPI PUSH0 PUSH0 REVERT JUMPDEST DUP1 MLOAD PUSH2 0x1EC5 PUSH2 0x1A5D DUP3 PUSH2 0x1A1A JUMP JUMPDEST DUP2 DUP2 MSTORE DUP6 PUSH1 0x20 DUP4 DUP6 ADD ADD GT ISZERO PUSH2 0x1ED9 JUMPI PUSH0 PUSH0 REVERT JUMPDEST DUP2 PUSH1 0x20 DUP5 ADD PUSH1 0x20 DUP4 ADD MCOPY PUSH0 SWAP2 DUP2 ADD PUSH1 0x20 ADD SWAP2 SWAP1 SWAP2 MSTORE SWAP5 SWAP4 POP POP POP POP JUMP JUMPDEST PUSH0 DUP2 MLOAD DUP1 PUSH1 0x20 DUP5 ADD DUP6 MCOPY PUSH0 SWAP4 ADD SWAP3 DUP4 MSTORE POP SWAP1 SWAP2 SWAP1 POP JUMP JUMPDEST PUSH14 0x2732B2B21020B8383937BB32B21 PUSH1 0x95 SHL DUP2 MSTORE PUSH0 PUSH2 0x1938 PUSH1 0xE DUP4 ADD DUP5 PUSH2 0x1EF6 JUMP JUMPDEST PUSH1 0x1 PUSH1 0x1 PUSH1 0xA0 SHL SUB SWAP3 SWAP1 SWAP3 AND DUP3 MSTORE PUSH1 0x20 DUP3 ADD MSTORE PUSH1 0x40 ADD SWAP1 JUMP JUMPDEST PUSH0 PUSH1 0x20 DUP3 DUP5 SUB SLT ISZERO PUSH2 0x1F58 JUMPI PUSH0 PUSH0 REVERT JUMPDEST POP MLOAD SWAP2 SWAP1 POP JUMP JUMPDEST PUSH0 PUSH1 0x20 DUP3 DUP5 SUB SLT ISZERO PUSH2 0x1F6F JUMPI PUSH0 PUSH0 REVERT JUMPDEST DUP2 MLOAD PUSH2 0x1938 DUP2 PUSH2 0x193F JUMP JUMPDEST PUSH0 PUSH1 0x20 DUP3 DUP5 SUB SLT ISZERO PUSH2 0x1F8A JUMPI PUSH0 PUSH0 REVERT JUMPDEST DUP2 MLOAD PUSH2 0x1938 DUP2 PUSH2 0x1B50 JUMP JUMPDEST PUSH1 0x20 DUP1 DUP3 MSTORE PUSH1 0x2 SWAP1 DUP3 ADD MSTORE PUSH2 0x5975 PUSH1 0xF0 SHL PUSH1 0x40 DUP3 ADD MSTORE PUSH1 0x60 ADD SWAP1 JUMP JUMPDEST PUSH1 0x1F DUP3 GT ISZERO PUSH2 0x153C JUMPI DUP1 PUSH0 MSTORE PUSH1 0x20 PUSH0 KECCAK256 PUSH1 0x1F DUP5 ADD PUSH1 0x5 SHR DUP2 ADD PUSH1 0x20 DUP6 LT ISZERO PUSH2 0x1FD6 JUMPI POP DUP1 JUMPDEST PUSH1 0x1F DUP5 ADD PUSH1 0x5 SHR DUP3 ADD SWAP2 POP JUMPDEST DUP2 DUP2 LT ISZERO PUSH2 0x1FF5 JUMPI PUSH0 DUP2 SSTORE PUSH1 0x1 ADD PUSH2 0x1FE2 JUMP JUMPDEST POP POP POP POP POP JUMP JUMPDEST DUP2 MLOAD PUSH1 0x1 PUSH1 0x1 PUSH1 0x40 SHL SUB DUP2 GT ISZERO PUSH2 0x2015 JUMPI PUSH2 0x2015 PUSH2 0x19D6 JUMP JUMPDEST PUSH2 0x2029 DUP2 PUSH2 0x2023 DUP5 SLOAD PUSH2 0x1CCC JUMP JUMPDEST DUP5 PUSH2 0x1FB1 JUMP JUMPDEST PUSH1 0x20 PUSH1 0x1F DUP3 GT PUSH1 0x1 DUP2 EQ PUSH2 0x205B JUMPI PUSH0 DUP4 ISZERO PUSH2 0x2044 JUMPI POP DUP5 DUP3 ADD MLOAD JUMPDEST PUSH0 NOT PUSH1 0x3 DUP6 SWAP1 SHL SHR NOT AND PUSH1 0x1 DUP5 SWAP1 SHL OR DUP5 SSTORE PUSH2 0x1FF5 JUMP JUMPDEST PUSH0 DUP5 DUP2 MSTORE PUSH1 0x20 DUP2 KECCAK256 PUSH1 0x1F NOT DUP6 AND SWAP2 JUMPDEST DUP3 DUP2 LT ISZERO PUSH2 0x208A JUMPI DUP8 DUP6 ADD MLOAD DUP3 SSTORE PUSH1 0x20 SWAP5 DUP6 ADD SWAP5 PUSH1 0x1 SWAP1 SWAP3 ADD SWAP2 ADD PUSH2 0x206A JUMP JUMPDEST POP DUP5 DUP3 LT ISZERO PUSH2 0x20A7 JUMPI DUP7 DUP5 ADD MLOAD PUSH0 NOT PUSH1 0x3 DUP8 SWAP1 SHL PUSH1 0xF8 AND SHR NOT AND DUP2 SSTORE JUMPDEST POP POP POP POP PUSH1 0x1 SWAP1 DUP2 SHL ADD SWAP1 SSTORE POP JUMP JUMPDEST PUSH0 PUSH2 0x1938 DUP3 DUP5 PUSH2 0x1EF6 JUMP JUMPDEST DUP1 DUP3 ADD DUP1 DUP3 GT ISZERO PUSH2 0x537 JUMPI PUSH2 0x537 PUSH2 0x1D04 JUMP JUMPDEST PUSH4 0x4E487B71 PUSH1 0xE0 SHL PUSH0 MSTORE PUSH1 0x32 PUSH1 0x4 MSTORE PUSH1 0x24 PUSH0 REVERT JUMPDEST DUP2 DUP2 SUB DUP2 DUP2 GT ISZERO PUSH2 0x537 JUMPI PUSH2 0x537 PUSH2 0x1D04 JUMP JUMPDEST PUSH0 PUSH0 DUP4 SLOAD PUSH2 0x2108 DUP2 PUSH2 0x1CCC JUMP JUMPDEST PUSH1 0x1 DUP3 AND DUP1 ISZERO PUSH2 0x211F JUMPI PUSH1 0x1 DUP2 EQ PUSH2 0x2134 JUMPI PUSH2 0x2161 JUMP JUMPDEST PUSH1 0xFF NOT DUP4 AND DUP7 MSTORE DUP2 ISZERO ISZERO DUP3 MUL DUP7 ADD SWAP4 POP PUSH2 0x2161 JUMP JUMPDEST DUP7 PUSH0 MSTORE PUSH1 0x20 PUSH0 KECCAK256 PUSH0 JUMPDEST DUP4 DUP2 LT ISZERO PUSH2 0x2159 JUMPI DUP2 SLOAD DUP9 DUP3 ADD MSTORE PUSH1 0x1 SWAP1 SWAP2 ADD SWAP1 PUSH1 0x20 ADD PUSH2 0x213D JUMP JUMPDEST POP POP DUP2 DUP7 ADD SWAP4 POP JUMPDEST POP SWAP2 SWAP6 SWAP5 POP POP POP POP POP JUMP JUMPDEST PUSH1 0x1 PUSH1 0x1 PUSH1 0xA0 SHL SUB SWAP4 DUP5 AND DUP2 MSTORE SWAP2 DUP4 AND PUSH1 0x20 DUP4 ADD MSTORE SWAP1 SWAP2 AND PUSH1 0x40 DUP3 ADD MSTORE PUSH1 0x60 ADD SWAP1 JUMP JUMPDEST PUSH1 0x1 PUSH1 0x1 PUSH1 0xA0 SHL SUB SWAP8 DUP9 AND DUP2 MSTORE SWAP6 DUP8 AND PUSH1 0x20 DUP8 ADD MSTORE SWAP4 DUP7 AND PUSH1 0x40 DUP7 ADD MSTORE SWAP2 DUP6 AND PUSH1 0x60 DUP6 ADD MSTORE SWAP1 SWAP4 AND PUSH1 0x80 DUP4 ADD MSTORE PUSH1 0xA0 DUP3 ADD SWAP3 SWAP1 SWAP3 MSTORE PUSH1 0xC0 DUP2 ADD SWAP2 SWAP1 SWAP2 MSTORE PUSH1 0xE0 ADD SWAP1 JUMP INVALID LOG2 PUSH5 0x6970667358 0x22 SLT KECCAK256 0xB3 PUSH20 0x960238B6EE4532DFB7F19B2DDB99CEDEED570B99 PUSH6 0xEE39FBDC41CE 0x4D SWAP12 0xCA PUSH5 0x736F6C6343 STOP ADDMOD SHL STOP CALLER "
		},
		"gasEstimates": {
			"creation": {
				"codeDepositCost": "1742400",
				"executionCost": "infinite",
				"totalCost": "infinite"
			},
			"external": {
				"Deposit(address,string,uint256)": "infinite",
				"GetDeposit(uint256)": "infinite",
				"GetDepositCount()": "2447",
				"GetMarketRate(address)": "2706",
				"GetQingAdjectiveValue(uint256,string)": "infinite",
				"GetQingDepositByIndex(uint256,uint256)": "infinite",
				"GetQingDepositCount(uint256)": "2480",
				"GetUserAdjectiveValue(uint64,string)": "infinite",
				"GetUserDepositByIndex(uint64,uint256)": "infinite",
				"GetUserDepositCount(uint64)": "2616",
				"MotzkinPrime()": "259",
				"Purchase(address,uint256)": "infinite",
				"Redeem(address,uint256)": "infinite",
				"Rename(string,string)": "infinite",
				"Type()": "infinite",
				"Withdraw(uint256,uint256)": "infinite",
				"Xiao()": "2383",
				"Zuo()": "2382",
				"addOwner(address)": "infinite",
				"allowance(address,address)": "infinite",
				"approve(address,uint256)": "24681",
				"balanceOf(address)": "2617",
				"decimals()": "243",
				"maxSupply()": "2360",
				"mintToCap()": "infinite",
				"name()": "infinite",
				"owner()": "346",
				"owner(address)": "2732",
				"renounceOwnership(address)": "infinite",
				"symbol()": "infinite",
				"totalSupply()": "2348",
				"transfer(address,uint256)": "51307",
				"transferFrom(address,address,uint256)": "infinite"
			}
		},
		"methodIdentifiers": {
			"Deposit(address,string,uint256)": "2d4b5979",
			"GetDeposit(uint256)": "3aac9d70",
			"GetDepositCount()": "27d74dee",
			"GetMarketRate(address)": "2b83b1fc",
			"GetQingAdjectiveValue(uint256,string)": "7038bd20",
			"GetQingDepositByIndex(uint256,uint256)": "eee9253d",
			"GetQingDepositCount(uint256)": "304c29d6",
			"GetUserAdjectiveValue(uint64,string)": "dedcc67e",
			"GetUserDepositByIndex(uint64,uint256)": "4e334b7c",
			"GetUserDepositCount(uint64)": "d9fe351d",
			"MotzkinPrime()": "d3dc2a0f",
			"Purchase(address,uint256)": "2499a533",
			"Redeem(address,uint256)": "222838db",
			"Rename(string,string)": "9dcbf7ea",
			"Type()": "ff762044",
			"Withdraw(uint256,uint256)": "56ca301a",
			"Xiao()": "6fb7329c",
			"Zuo()": "bafd8d4a",
			"addOwner(address)": "7065cb48",
			"allowance(address,address)": "dd62ed3e",
			"approve(address,uint256)": "095ea7b3",
			"balanceOf(address)": "70a08231",
			"decimals()": "313ce567",
			"maxSupply()": "d5abeb01",
			"mintToCap()": "f4e6c93f",
			"name()": "06fdde03",
			"owner()": "8da5cb5b",
			"owner(address)": "666e1b39",
			"renounceOwnership(address)": "38bf3cfa",
			"symbol()": "95d89b41",
			"totalSupply()": "18160ddd",
			"transfer(address,uint256)": "a9059cbb",
			"transferFrom(address,address,uint256)": "23b872dd"
		}
	},
	"abi": [
		{
			"inputs": [
				{
					"internalType": "address",
					"name": "ZuoQingAddress",
					"type": "address"
				}
			],
			"stateMutability": "nonpayable",
			"type": "constructor"
		},
		{
			"inputs": [
				{
					"internalType": "address",
					"name": "origin",
					"type": "address"
				},
				{
					"internalType": "address",
					"name": "sender",
					"type": "address"
				},
				{
					"internalType": "address",
					"name": "owner",
					"type": "address"
				},
				{
					"internalType": "address",
					"name": "spender",
					"type": "address"
				},
				{
					"internalType": "address",
					"name": "what",
					"type": "address"
				},
				{
					"internalType": "uint256",
					"name": "allowance",
					"type": "uint256"
				},
				{
					"internalType": "uint256",
					"name": "needed",
					"type": "uint256"
				}
			],
			"name": "DysnomiaInsufficientAllowance",
			"type": "error"
		},
		{
			"inputs": [
				{
					"internalType": "address",
					"name": "origin",
					"type": "address"
				},
				{
					"internalType": "address",
					"name": "sender",
					"type": "address"
				},
				{
					"internalType": "address",
					"name": "from",
					"type": "address"
				},
				{
					"internalType": "address",
					"name": "to",
					"type": "address"
				},
				{
					"internalType": "address",
					"name": "what",
					"type": "address"
				},
				{
					"internalType": "uint256",
					"name": "balance",
					"type": "uint256"
				},
				{
					"internalType": "uint256",
					"name": "needed",
					"type": "uint256"
				}
			],
			"name": "DysnomiaInsufficientBalance",
			"type": "error"
		},
		{
			"inputs": [
				{
					"internalType": "uint256",
					"name": "DepositId",
					"type": "uint256"
				},
				{
					"internalType": "uint256",
					"name": "Balance",
					"type": "uint256"
				}
			],
			"name": "ExceedsBalance",
			"type": "error"
		},
		{
			"inputs": [
				{
					"internalType": "address",
					"name": "asset",
					"type": "address"
				}
			],
			"name": "MarketRateNotFound",
			"type": "error"
		},
		{
			"inputs": [
				{
					"internalType": "uint256",
					"name": "DepositId",
					"type": "uint256"
				}
			],
			"name": "NotOwner",
			"type": "error"
		},
		{
			"inputs": [
				{
					"internalType": "address",
					"name": "origin",
					"type": "address"
				},
				{
					"internalType": "address",
					"name": "owner",
					"type": "address"
				},
				{
					"internalType": "address",
					"name": "what",
					"type": "address"
				}
			],
			"name": "OwnableInvalidOwner",
			"type": "error"
		},
		{
			"inputs": [
				{
					"internalType": "address",
					"name": "origin",
					"type": "address"
				},
				{
					"internalType": "address",
					"name": "account",
					"type": "address"
				},
				{
					"internalType": "address",
					"name": "what",
					"type": "address"
				}
			],
			"name": "OwnableUnauthorizedAccount",
			"type": "error"
		},
		{
			"inputs": [
				{
					"internalType": "address",
					"name": "Qing",
					"type": "address"
				}
			],
			"name": "UnknownQing",
			"type": "error"
		},
		{
			"inputs": [
				{
					"internalType": "address",
					"name": "Qing",
					"type": "address"
				},
				{
					"internalType": "uint256",
					"name": "Waat",
					"type": "uint256"
				}
			],
			"name": "WaatMismatch",
			"type": "error"
		},
		{
			"anonymous": false,
			"inputs": [
				{
					"indexed": true,
					"internalType": "address",
					"name": "owner",
					"type": "address"
				},
				{
					"indexed": true,
					"internalType": "address",
					"name": "spender",
					"type": "address"
				},
				{
					"indexed": false,
					"internalType": "uint256",
					"name": "value",
					"type": "uint256"
				}
			],
			"name": "Approval",
			"type": "event"
		},
		{
			"anonymous": false,
			"inputs": [
				{
					"indexed": true,
					"internalType": "address",
					"name": "newOwner",
					"type": "address"
				},
				{
					"indexed": true,
					"internalType": "bool",
					"name": "state",
					"type": "bool"
				}
			],
			"name": "OwnershipUpdate",
			"type": "event"
		},
		{
			"anonymous": false,
			"inputs": [
				{
					"indexed": true,
					"internalType": "address",
					"name": "from",
					"type": "address"
				},
				{
					"indexed": true,
					"internalType": "address",
					"name": "to",
					"type": "address"
				},
				{
					"indexed": false,
					"internalType": "uint256",
					"name": "value",
					"type": "uint256"
				}
			],
			"name": "Transfer",
			"type": "event"
		},
		{
			"inputs": [
				{
					"internalType": "address",
					"name": "Qing",
					"type": "address"
				},
				{
					"internalType": "string",
					"name": "Adjective",
					"type": "string"
				},
				{
					"internalType": "uint256",
					"name": "amount",
					"type": "uint256"
				}
			],
			"name": "Deposit",
			"outputs": [],
			"stateMutability": "nonpayable",
			"type": "function"
		},
		{
			"inputs": [
				{
					"internalType": "uint256",
					"name": "Id",
					"type": "uint256"
				}
			],
			"name": "GetDeposit",
			"outputs": [
				{
					"components": [
						{
							"internalType": "uint256",
							"name": "waat",
							"type": "uint256"
						},
						{
							"internalType": "uint64",
							"name": "soul",
							"type": "uint64"
						},
						{
							"internalType": "uint256",
							"name": "depositId",
							"type": "uint256"
						},
						{
							"internalType": "uint256",
							"name": "amount",
							"type": "uint256"
						},
						{
							"internalType": "uint256",
							"name": "timestamp",
							"type": "uint256"
						}
					],
					"internalType": "struct TimeDeposit",
					"name": "Stake",
					"type": "tuple"
				},
				{
					"internalType": "string",
					"name": "Adjective",
					"type": "string"
				}
			],
			"stateMutability": "view",
			"type": "function"
		},
		{
			"inputs": [],
			"name": "GetDepositCount",
			"outputs": [
				{
					"internalType": "uint256",
					"name": "",
					"type": "uint256"
				}
			],
			"stateMutability": "view",
			"type": "function"
		},
		{
			"inputs": [
				{
					"internalType": "address",
					"name": "_a",
					"type": "address"
				}
			],
			"name": "GetMarketRate",
			"outputs": [
				{
					"internalType": "uint256",
					"name": "",
					"type": "uint256"
				}
			],
			"stateMutability": "view",
			"type": "function"
		},
		{
			"inputs": [
				{
					"internalType": "uint256",
					"name": "QingWaat",
					"type": "uint256"
				},
				{
					"internalType": "string",
					"name": "Adjective",
					"type": "string"
				}
			],
			"name": "GetQingAdjectiveValue",
			"outputs": [
				{
					"internalType": "uint256",
					"name": "Sum",
					"type": "uint256"
				}
			],
			"stateMutability": "view",
			"type": "function"
		},
		{
			"inputs": [
				{
					"internalType": "uint256",
					"name": "QingWaat",
					"type": "uint256"
				},
				{
					"internalType": "uint256",
					"name": "Index",
					"type": "uint256"
				}
			],
			"name": "GetQingDepositByIndex",
			"outputs": [
				{
					"components": [
						{
							"internalType": "uint256",
							"name": "waat",
							"type": "uint256"
						},
						{
							"internalType": "uint64",
							"name": "soul",
							"type": "uint64"
						},
						{
							"internalType": "uint256",
							"name": "depositId",
							"type": "uint256"
						},
						{
							"internalType": "uint256",
							"name": "amount",
							"type": "uint256"
						},
						{
							"internalType": "uint256",
							"name": "timestamp",
							"type": "uint256"
						}
					],
					"internalType": "struct TimeDeposit",
					"name": "Stake",
					"type": "tuple"
				},
				{
					"internalType": "string",
					"name": "Adjective",
					"type": "string"
				}
			],
			"stateMutability": "view",
			"type": "function"
		},
		{
			"inputs": [
				{
					"internalType": "uint256",
					"name": "QingWaat",
					"type": "uint256"
				}
			],
			"name": "GetQingDepositCount",
			"outputs": [
				{
					"internalType": "uint256",
					"name": "",
					"type": "uint256"
				}
			],
			"stateMutability": "view",
			"type": "function"
		},
		{
			"inputs": [
				{
					"internalType": "uint64",
					"name": "UserSoul",
					"type": "uint64"
				},
				{
					"internalType": "string",
					"name": "Adjective",
					"type": "string"
				}
			],
			"name": "GetUserAdjectiveValue",
			"outputs": [
				{
					"internalType": "uint256",
					"name": "Sum",
					"type": "uint256"
				}
			],
			"stateMutability": "view",
			"type": "function"
		},
		{
			"inputs": [
				{
					"internalType": "uint64",
					"name": "UserSoul",
					"type": "uint64"
				},
				{
					"internalType": "uint256",
					"name": "Index",
					"type": "uint256"
				}
			],
			"name": "GetUserDepositByIndex",
			"outputs": [
				{
					"components": [
						{
							"internalType": "uint256",
							"name": "waat",
							"type": "uint256"
						},
						{
							"internalType": "uint64",
							"name": "soul",
							"type": "uint64"
						},
						{
							"internalType": "uint256",
							"name": "depositId",
							"type": "uint256"
						},
						{
							"internalType": "uint256",
							"name": "amount",
							"type": "uint256"
						},
						{
							"internalType": "uint256",
							"name": "timestamp",
							"type": "uint256"
						}
					],
					"internalType": "struct TimeDeposit",
					"name": "Stake",
					"type": "tuple"
				},
				{
					"internalType": "string",
					"name": "Adjective",
					"type": "string"
				}
			],
			"stateMutability": "view",
			"type": "function"
		},
		{
			"inputs": [
				{
					"internalType": "uint64",
					"name": "UserSoul",
					"type": "uint64"
				}
			],
			"name": "GetUserDepositCount",
			"outputs": [
				{
					"internalType": "uint256",
					"name": "",
					"type": "uint256"
				}
			],
			"stateMutability": "view",
			"type": "function"
		},
		{
			"inputs": [],
			"name": "MotzkinPrime",
			"outputs": [
				{
					"internalType": "uint64",
					"name": "",
					"type": "uint64"
				}
			],
			"stateMutability": "view",
			"type": "function"
		},
		{
			"inputs": [
				{
					"internalType": "address",
					"name": "_t",
					"type": "address"
				},
				{
					"internalType": "uint256",
					"name": "_a",
					"type": "uint256"
				}
			],
			"name": "Purchase",
			"outputs": [],
			"stateMutability": "nonpayable",
			"type": "function"
		},
		{
			"inputs": [
				{
					"internalType": "address",
					"name": "_t",
					"type": "address"
				},
				{
					"internalType": "uint256",
					"name": "_a",
					"type": "uint256"
				}
			],
			"name": "Redeem",
			"outputs": [],
			"stateMutability": "nonpayable",
			"type": "function"
		},
		{
			"inputs": [
				{
					"internalType": "string",
					"name": "newName",
					"type": "string"
				},
				{
					"internalType": "string",
					"name": "newSymbol",
					"type": "string"
				}
			],
			"name": "Rename",
			"outputs": [],
			"stateMutability": "nonpayable",
			"type": "function"
		},
		{
			"inputs": [],
			"name": "Type",
			"outputs": [
				{
					"internalType": "string",
					"name": "",
					"type": "string"
				}
			],
			"stateMutability": "view",
			"type": "function"
		},
		{
			"inputs": [
				{
					"internalType": "uint256",
					"name": "Id",
					"type": "uint256"
				},
				{
					"internalType": "uint256",
					"name": "Amount",
					"type": "uint256"
				}
			],
			"name": "Withdraw",
			"outputs": [],
			"stateMutability": "nonpayable",
			"type": "function"
		},
		{
			"inputs": [],
			"name": "Xiao",
			"outputs": [
				{
					"internalType": "contract atropaMath",
					"name": "",
					"type": "address"
				}
			],
			"stateMutability": "view",
			"type": "function"
		},
		{
			"inputs": [],
			"name": "Zuo",
			"outputs": [
				{
					"internalType": "contract QING",
					"name": "",
					"type": "address"
				}
			],
			"stateMutability": "view",
			"type": "function"
		},
		{
			"inputs": [
				{
					"internalType": "address",
					"name": "newOwner",
					"type": "address"
				}
			],
			"name": "addOwner",
			"outputs": [],
			"stateMutability": "nonpayable",
			"type": "function"
		},
		{
			"inputs": [
				{
					"internalType": "address",
					"name": "owner",
					"type": "address"
				},
				{
					"internalType": "address",
					"name": "spender",
					"type": "address"
				}
			],
			"name": "allowance",
			"outputs": [
				{
					"internalType": "uint256",
					"name": "",
					"type": "uint256"
				}
			],
			"stateMutability": "view",
			"type": "function"
		},
		{
			"inputs": [
				{
					"internalType": "address",
					"name": "spender",
					"type": "address"
				},
				{
					"internalType": "uint256",
					"name": "value",
					"type": "uint256"
				}
			],
			"name": "approve",
			"outputs": [
				{
					"internalType": "bool",
					"name": "",
					"type": "bool"
				}
			],
			"stateMutability": "nonpayable",
			"type": "function"
		},
		{
			"inputs": [
				{
					"internalType": "address",
					"name": "account",
					"type": "address"
				}
			],
			"name": "balanceOf",
			"outputs": [
				{
					"internalType": "uint256",
					"name": "",
					"type": "uint256"
				}
			],
			"stateMutability": "view",
			"type": "function"
		},
		{
			"inputs": [],
			"name": "decimals",
			"outputs": [
				{
					"internalType": "uint8",
					"name": "",
					"type": "uint8"
				}
			],
			"stateMutability": "view",
			"type": "function"
		},
		{
			"inputs": [],
			"name": "maxSupply",
			"outputs": [
				{
					"internalType": "uint256",
					"name": "",
					"type": "uint256"
				}
			],
			"stateMutability": "view",
			"type": "function"
		},
		{
			"inputs": [],
			"name": "mintToCap",
			"outputs": [],
			"stateMutability": "nonpayable",
			"type": "function"
		},
		{
			"inputs": [],
			"name": "name",
			"outputs": [
				{
					"internalType": "string",
					"name": "",
					"type": "string"
				}
			],
			"stateMutability": "view",
			"type": "function"
		},
		{
			"inputs": [
				{
					"internalType": "address",
					"name": "cOwner",
					"type": "address"
				}
			],
			"name": "owner",
			"outputs": [
				{
					"internalType": "bool",
					"name": "",
					"type": "bool"
				}
			],
			"stateMutability": "view",
			"type": "function"
		},
		{
			"inputs": [],
			"name": "owner",
			"outputs": [
				{
					"internalType": "address",
					"name": "",
					"type": "address"
				}
			],
			"stateMutability": "view",
			"type": "function"
		},
		{
			"inputs": [
				{
					"internalType": "address",
					"name": "toRemove",
					"type": "address"
				}
			],
			"name": "renounceOwnership",
			"outputs": [],
			"stateMutability": "nonpayable",
			"type": "function"
		},
		{
			"inputs": [],
			"name": "symbol",
			"outputs": [
				{
					"internalType": "string",
					"name": "",
					"type": "string"
				}
			],
			"stateMutability": "view",
			"type": "function"
		},
		{
			"inputs": [],
			"name": "totalSupply",
			"outputs": [
				{
					"internalType": "uint256",
					"name": "",
					"type": "uint256"
				}
			],
			"stateMutability": "view",
			"type": "function"
		},
		{
			"inputs": [
				{
					"internalType": "address",
					"name": "to",
					"type": "address"
				},
				{
					"internalType": "uint256",
					"name": "value",
					"type": "uint256"
				}
			],
			"name": "transfer",
			"outputs": [
				{
					"internalType": "bool",
					"name": "",
					"type": "bool"
				}
			],
			"stateMutability": "nonpayable",
			"type": "function"
		},
		{
			"inputs": [
				{
					"internalType": "address",
					"name": "from",
					"type": "address"
				},
				{
					"internalType": "address",
					"name": "to",
					"type": "address"
				},
				{
					"internalType": "uint256",
					"name": "value",
					"type": "uint256"
				}
			],
			"name": "transferFrom",
			"outputs": [
				{
					"internalType": "bool",
					"name": "",
					"type": "bool"
				}
			],
			"stateMutability": "nonpayable",
			"type": "function"
		}
	]
}