{
	"data": {
		"bytecode": {
			"linkReferences": {},
			"object": "608060405234801561000f575f5ffd5b5060405161523838038061523883398101604081905261002e91610d48565b6040518060400160405280600f81526020016e4d7973746572696f75732051696e6760881b815250604051806040016040528060018152602001607160f81b815250826001600160a01b0316636fb7329c6040518163ffffffff1660e01b8152600401602060405180830381865afa1580156100ac573d5f5f3e3d5ffd5b505050506040513d601f19601f820116820180604052508101906100d09190610d80565b338061010257604051633603021960e21b81523260048201525f60248201523060448201526064015b60405180910390fd5b61010d816001610640565b50600461011a8482610e32565b5060056101278382610e32565b50600680546001600160a01b0319166001600160a01b0383169081179091556040805163604a6fa960e01b815290516201b207929163604a6fa991600480830192602092919082900301815f875af1158015610185573d5f5f3e3d5ffd5b505050506040513d601f19601f820116820180604052508101906101a99190610eec565b6101b39190610f26565b6001600160401b03166007556102097324f0154c1dce548adf15da2098fdd8b8a3b8151d6101e36012600a61104d565b6101ee90600161105b565b6001600160a01b039091165f90815260086020526040902055565b5050600980546001600160a01b0319166001600160a01b0384169081179091556040805163110c7ef160e21b81529051919250634431fbc491600480830192602092919082900301815f875af1158015610265573d5f5f3e3d5ffd5b505050506040513d601f19601f820116820180604052508101906102899190611072565b600b55600a80546001600160a01b0319166001600160a01b038416179055335f908152600f60209081526040909120805460ff191660011790556102cc90610693565b6102d55f6106b3565b600e805460ff191690556102e76106c0565b60408051639909afed60e01b81526001600160a01b038581166004830152602482019290925260076044820152666f776e6572282960c81b6064820152911690639909afed90608401602060405180830381865afa15801561034b573d5f5f3e3d5ffd5b505050506040513d601f19601f8201168201806040525081019061036f9190611089565b156103e657600a5460408051638da5cb5b60e01b815290516103e6926001600160a01b031691638da5cb5b9160048083019260209291908290030181865afa1580156103bd573d5f5f3e3d5ffd5b505050506040513d601f19601f820116820180604052508101906103e19190610d80565b6107ac565b6103ee6106c0565b60408051639909afed60e01b81526001600160a01b038581166004830152602482019290925260066044820152656e616d65282960d01b6064820152911690639909afed90608401602060405180830381865afa158015610451573d5f5f3e3d5ffd5b505050506040513d601f19601f820116820180604052508101906104759190611089565b801561050d57506104846106c0565b60408051639909afed60e01b81526001600160a01b0385811660048301526024820192909252600860448201526773796d626f6c282960c01b6064820152911690639909afed90608401602060405180830381865afa1580156104e9573d5f5f3e3d5ffd5b505050506040513d601f19601f8201168201806040525081019061050d9190611089565b1561063157600a54604080516306fdde0360e01b81529051610631926001600160a01b0316916306fdde03916004808301925f9291908290030181865afa15801561055a573d5f5f3e3d5ffd5b505050506040513d5f823e601f3d908101601f1916820160405261058191908101906110a8565b604051602001610591919061116f565b60408051601f19818403018152828252600a546395d89b4160e01b8452915190926001600160a01b03909216916395d89b41916004808301925f9291908290030181865afa1580156105e5573d5f5f3e3d5ffd5b505050506040513d5f823e601f3d908101601f1916820160405261060c91908101906110a8565b60405160200161061c919061118f565b60408051601f198184030181529190526107f7565b61063961081d565b50506111ca565b6001600160a01b0382165f81815260208190526040808220805460ff191685151590811790915590519092917f6bfa7e860c3e9bf67b810cb88276b19b27c972812bac04793d369b59a1183a8391a35050565b61069b610861565b600c805461ffff191661ffff92909216919091179055565b6106bb610861565b600d55565b60095460408051633d3db08b60e21b815290515f926001600160a01b03169163f4f6c22c9160048083019260209291908290030181865afa158015610707573d5f5f3e3d5ffd5b505050506040513d601f19601f8201168201806040525081019061072b9190610d80565b604051636c93852d60e11b815260206004820152600360248201526279616960e81b60448201526001600160a01b03919091169063d9270a5a90606401602060405180830381865afa158015610783573d5f5f3e3d5ffd5b505050506040513d601f19601f820116820180604052508101906107a79190610d80565b905090565b6107b4610948565b6001600160a01b0381166107e957604051633603021960e21b81523260048201525f60248201523060448201526064016100f9565b6107f4816001610640565b50565b6107ff610948565b600461080b8382610e32565b5060056108188282610e32565b505050565b6108296012600a61104d565b600754610836919061105b565b600354101561085f5761085f3061084f6012600a61104d565b61085a90600161105b565b6109a2565b565b61086a336109b1565b15801561087d575061087b326109b1565b155b1561085f57600954604080516370f6b73960e11b815290515f926001600160a01b03169163e1ed6e729160048083019260209291908290030181865afa1580156108c9573d5f5f3e3d5ffd5b505050506040513d601f19601f820116820180604052508101906108ed9190610eec565b6001600160401b0381165f9081526011602052604090206001015490915061091d906001600160a01b03166109b1565b6107f45760405163b6c14f5360e01b81523260048201523360248201523060448201526064016100f9565b335f9081526020819052604090205460ff161580156109765750325f9081526020819052604090205460ff16155b1561085f57604051630be6bab560e01b81523260048201523360248201523060448201526064016100f9565b6109ad5f8383610bf4565b5050565b6001600160a01b0381165f908152600f602052604081205460ff16156109d957506001919050565b600e5460ff16158015610a7b57506109f36012600a61104d565b6109fe90601961105b565b6040516370a0823160e01b81526001600160a01b038416600482015273203e366a1821570b2f84ff5ae8b3bdeb48dc4fa1906370a0823190602401602060405180830381865afa158015610a54573d5f5f3e3d5ffd5b505050506040513d601f19601f82011682018060405250810190610a789190611072565b10155b15610a8857506001919050565b600a54604080516318160ddd60e01b815290515f926001600160a01b0316916318160ddd9160048083019260209291908290030181865afa158015610acf573d5f5f3e3d5ffd5b505050506040513d601f19601f82011682018060405250810190610af39190611072565b600c54909150610b079061ffff16826111a4565b600a546040516370a0823160e01b81526001600160a01b038681166004830152909116906370a0823190602401602060405180830381865afa158015610b4f573d5f5f3e3d5ffd5b505050506040513d601f19601f82011682018060405250810190610b739190611072565b10610b815750600192915050565b600a5460405163666e1b3960e01b81526001600160a01b0385811660048301529091169063666e1b3990602401602060405180830381865afa158015610bc9573d5f5f3e3d5ffd5b505050506040513d601f19601f82011682018060405250810190610bed9190611089565b9392505050565b6001600160a01b038316610c1e578060035f828254610c1391906111b7565b90915550610ca89050565b6001600160a01b0383165f9081526001602052604090205481811015610c8a57604051630f7d0bbd60e21b81523260048201523360248201526001600160a01b0380861660448301528416606482015230608482015260a4810182905260c4810183905260e4016100f9565b6001600160a01b0384165f9081526001602052604090209082900390555b6001600160a01b038216610cc457600380548290039055610ce2565b6001600160a01b0382165f9081526001602052604090208054820190555b816001600160a01b0316836001600160a01b03167fddf252ad1be2c89b69c2b068fc378daa952ba7f163c4a11628f55a4df523b3ef83604051610d2791815260200190565b60405180910390a3505050565b6001600160a01b03811681146107f4575f5ffd5b5f5f60408385031215610d59575f5ffd5b8251610d6481610d34565b6020840151909250610d7581610d34565b809150509250929050565b5f60208284031215610d90575f5ffd5b8151610bed81610d34565b634e487b7160e01b5f52604160045260245ffd5b600181811c90821680610dc357607f821691505b602082108103610de157634e487b7160e01b5f52602260045260245ffd5b50919050565b601f82111561081857805f5260205f20601f840160051c81016020851015610e0c5750805b601f840160051c820191505b81811015610e2b575f8155600101610e18565b5050505050565b81516001600160401b03811115610e4b57610e4b610d9b565b610e5f81610e598454610daf565b84610de7565b6020601f821160018114610e91575f8315610e7a5750848201515b5f19600385901b1c1916600184901b178455610e2b565b5f84815260208120601f198516915b82811015610ec05787850151825560209485019460019092019101610ea0565b5084821015610edd57868401515f19600387901b60f8161c191681555b50505050600190811b01905550565b5f60208284031215610efc575f5ffd5b81516001600160401b0381168114610bed575f5ffd5b634e487b7160e01b5f52601260045260245ffd5b5f6001600160401b03831680610f3e57610f3e610f12565b6001600160401b03929092169190910692915050565b634e487b7160e01b5f52601160045260245ffd5b6001815b6001841115610fa357808504811115610f8757610f87610f54565b6001841615610f9557908102905b60019390931c928002610f6c565b935093915050565b5f82610fb957506001611047565b81610fc557505f611047565b8160018114610fdb5760028114610fe557611001565b6001915050611047565b60ff841115610ff657610ff6610f54565b50506001821b611047565b5060208310610133831016604e8410600b8410161715611024575081810a611047565b6110305f198484610f68565b805f190482111561104357611043610f54565b0290505b92915050565b5f610bed60ff841683610fab565b808202811582820484141761104757611047610f54565b5f60208284031215611082575f5ffd5b5051919050565b5f60208284031215611099575f5ffd5b81518015158114610bed575f5ffd5b5f602082840312156110b8575f5ffd5b81516001600160401b038111156110cd575f5ffd5b8201601f810184136110dd575f5ffd5b80516001600160401b038111156110f6576110f6610d9b565b604051601f8201601f19908116603f011681016001600160401b038111828210171561112457611124610d9b565b60405281815282820160200186101561113b575f5ffd5b8160208401602083015e5f91810160200191909152949350505050565b5f81518060208401855e5f93019283525090919050565b5f61117a8284611158565b642051494e4760d81b81526005019392505050565b607160f81b81525f610bed6001830184611158565b5f826111b2576111b2610f12565b500490565b8082018082111561104757611047610f54565b614061806111d75f395ff3fe608060405234801561000f575f5ffd5b5060043610610281575f3560e01c80637065cb4811610156578063ac8f5ead116100ca578063dd62ed3e11610084578063dd62ed3e146105bc578063df42e80e146105cf578063f4e6c93f146105e2578063f6859792146105ea578063fbe5a232146105fd578063ff76204414610606575f5ffd5b8063ac8f5ead14610532578063b46c0ac31461053a578063b4f8b70c1461056d578063d3dc2a0f14610580578063d5abeb01146105a6578063d5ca77c4146105af575f5ffd5b8063884edad91161011b578063884edad9146104e25780638da5cb5b146104f557806395d89b41146104fb5780639dcbf7ea14610503578063a138da0b14610516578063a9059cbb1461051f575f5ffd5b80637065cb481461046e57806370a08231146104815780637b166306146104a95780637dfe96f3146104bc5780638677e743146104cf575f5ffd5b80632b83b1fc116101f85780633c7e0c00116101b25780633c7e0c00146103f857806340f7d1b71461040b57806361d7826214610420578063666e1b39146104355780636872fc3c146104485780636fb7329c1461045b575f5ffd5b80632b83b1fc14610380578063313ce567146103a8578063328d13e3146103b75780633764d772146103ca57806337d74ffe146103d257806338bf3cfa146103e5575f5ffd5b80630d4ec845116102495780630d4ec8451461030f57806318160ddd1461032257806321516fc414610334578063222838db1461034757806323b872dd1461035a5780632499a5331461036d575f5ffd5b806306fdde03146102855780630764c80c146102a3578063095ea7b3146102b857806309d162e7146102db5780630aae7978146102ee575b5f5ffd5b61028d610629565b60405161029a91906132bd565b60405180910390f35b6102b66102b13660046132e3565b6106b9565b005b6102cb6102c63660046132fe565b610e74565b604051901515815260200161029a565b6102b66102e936600461342f565b610e8d565b600c546102fc9061ffff1681565b60405161ffff909116815260200161029a565b6102b661031d3660046132e3565b6110f5565b6003545b60405190815260200161029a565b6102b661034236600461347b565b611125565b6102b66103553660046132fe565b611561565b6102cb6103683660046134b4565b611759565b6102b661037b3660046132fe565b61177c565b61032661038e3660046132e3565b6001600160a01b03165f9081526008602052604090205490565b6040516012815260200161029a565b6102b66103c53660046134ff565b61192a565b6102b661195c565b6102cb6103e03660046132e3565b611c1f565b6102b66103f33660046132e3565b611e64565b6102b6610406366004613536565b611e76565b610413611e96565b60405161029a9190613557565b610428611f1c565b60405161029a91906135a2565b6102cb6104433660046132e3565b612008565b600954610428906001600160a01b031681565b600654610428906001600160a01b031681565b6102b661047c3660046132e3565b612025565b61032661048f3660046132e3565b6001600160a01b03165f9081526001602052604090205490565b6102b66104b73660046135b6565b612065565b6102b66104ca3660046135d1565b612080565b6102b66104dd3660046135e8565b61208d565b6102b66104f03660046132fe565b6120f7565b30610428565b61028d612365565b6102b661051136600461362b565b612374565b610326600b5481565b6102cb61052d3660046132fe565b61239a565b6102b66123a7565b61054d61054836600461368c565b61243e565b604080516001600160401b0393841681529290911660208301520161029a565b6102b661057b3660046136b8565b61285a565b61058e6603632c8eb5af3b81565b6040516001600160401b03909116815260200161029a565b61032660075481565b600e546102cb9060ff1681565b6103266105ca3660046136d4565b612bcb565b600a54610428906001600160a01b031681565b6102b6612bf5565b6102b66105f836600461347b565b612c07565b610326600d5481565b61028d6040518060400160405280600481526020016351494e4760e01b81525081565b60606004805461063890613700565b80601f016020809104026020016040519081016040528092919081815260200182805461066490613700565b80156106af5780601f10610686576101008083540402835291602001916106af565b820191905f5260205f20905b81548152906001019060200180831161069257829003601f168201915b5050505050905090565b600954604080516370f6b73960e11b815290515f926001600160a01b03169163e1ed6e729160048083019260209291908290030181865afa158015610700573d5f5f3e3d5ffd5b505050506040513d601f19601f820116820180604052508101906107249190613748565b60095460405163fcef603d60e01b81529192506001600160a01b03169063fcef603d906107559085906004016135a2565b5f604051808303815f87803b15801561076c575f5ffd5b505af115801561077e573d5f5f3e3d5ffd5b505050506001600160401b0381165f908152601160205260409020600101546001600160a01b038381169116036107d35781604051637ca7fcf160e11b81526004016107ca91906135a2565b60405180910390fd5b6001600160a01b0382165f90815260106020526040902054421180156107fa57505f600d54115b1561094b57600d54600a54604051636eb1769f60e11b81523360048201523060248201526001600160a01b039091169063dd62ed3e90604401602060405180830381865afa15801561084e573d5f5f3e3d5ffd5b505050506040513d601f19601f820116820180604052508101906108729190613763565b116108af57600a54600d546001600160a01b039091169061089490600161378e565b6040516334a7664560e11b81526004016107ca9291906137a1565b600a54600d546040516323b872dd60e01b81525f926001600160a01b0316916323b872dd916108e59133913091906004016137ba565b6020604051808303815f875af1158015610901573d5f5f3e3d5ffd5b505050506040513d601f19601f8201168201806040525081019061092591906137de565b90508061094957600a54600d546001600160a01b039091169061089490600161378e565b505b6001600160a01b0382165f90815260106020526040902054421115610e6057600954604051631bd173a960e11b81525f916001600160a01b0316906337a2e7529061099a9086906004016135a2565b5f604051808303815f875af11580156109b5573d5f5f3e3d5ffd5b505050506040513d5f823e601f3d908101601f191682016040526109dc9190810190613851565b90507fc3c8ef8ace382d68d03cfded2642151dae0b300d3cb604b727071fe036a292ee815f015160095f9054906101000a90046001600160a01b03166001600160a01b031663f4f6c22c6040518163ffffffff1660e01b8152600401602060405180830381865afa158015610a53573d5f5f3e3d5ffd5b505050506040513d601f19601f82011682018060405250810190610a77919061398f565b6001600160a01b0316639ff430016040518163ffffffff1660e01b81526004016020604051808303815f875af1158015610ab3573d5f5f3e3d5ffd5b505050506040513d601f19601f82011682018060405250810190610ad7919061398f565b6001600160a01b03166327bacc406040518163ffffffff1660e01b8152600401602060405180830381865afa158015610b12573d5f5f3e3d5ffd5b505050506040513d601f19601f82011682018060405250810190610b369190613748565b8360400151604051610b4a939291906139aa565b60405180910390a1805160095460408051633d3db08b60e21b81529051610c8193926001600160a01b03169163f4f6c22c9160048083019260209291908290030181865afa158015610b9e573d5f5f3e3d5ffd5b505050506040513d601f19601f82011682018060405250810190610bc2919061398f565b6001600160a01b0316639ff430016040518163ffffffff1660e01b81526004016020604051808303815f875af1158015610bfe573d5f5f3e3d5ffd5b505050506040513d601f19601f82011682018060405250810190610c22919061398f565b6001600160a01b03166327bacc406040518163ffffffff1660e01b8152600401602060405180830381865afa158015610c5d573d5f5f3e3d5ffd5b505050506040513d601f19601f820116820180604052508101906105489190613748565b602083810180516001600160401b0393841660e08083019190915294841660c091820152855184165f908152601184526040908190208751815467ffffffffffffffff1916908716178155925180516001850180546001600160a01b0319166001600160a01b0392831617905594810151600285018054838501519288166001600160e01b031991821617600160a01b938a169390930292909217905560608201516003860180546080850151928a16931692909217600160401b91909716810296909617905560a08101516004850180549483015192909801519087166001600160801b0319909416939093179086169094029390931767ffffffffffffffff60801b1916600160801b919094160292909217909255908201518291906005820190610dae9082613a27565b50606091909101516006909101805467ffffffffffffffff19166001600160401b03909216919091179055610de6426201518061378e565b6001600160a01b0384165f908152601060205260408120919091559051601280546001810182559252600482047fbb8a6a4669ba250d26cd7a459eca9d215f8307e33aebe50379bc5a3617ec34440180546001600160401b0392831660086003909516949094026101000a93840292909302199092161790555b610e6861195c565b610e70612c6f565b5050565b5f33610e81818585612cb1565b60019150505b92915050565b610e95611f1c565b6001600160a01b0316336001600160a01b031614610ec8573060405163a59d7f4d60e01b81526004016107ca91906135a2565b6040516301115dcf60e31b81526001600482015282905f906001600160a01b0383169063088aee78906024016020604051808303815f875af1158015610f10573d5f5f3e3d5ffd5b505050506040513d601f19601f82011682018060405250810190610f349190613748565b60095460405163fcef603d60e01b81529192506001600160a01b03169063fcef603d90610f659087906004016135a2565b5f604051808303815f87803b158015610f7c575f5ffd5b505af1158015610f8e573d5f5f3e3d5ffd5b50505050600d545f14158015610fba57506001600160a01b0384165f9081526010602052604090205442115b15610fe357604051636a33310560e11b81526001600160401b03821660048201526024016107ca565b600b546040516301115dcf60e31b8152600260048201527f8b413ba408d0e5e23fa00c5b0c5f94d771aec2d0c991a649dad0e23caddb6fcf919083906001600160a01b0386169063088aee78906024016020604051808303815f875af115801561104f573d5f5f3e3d5ffd5b505050506040513d601f19601f820116820180604052508101906110739190613748565b856001600160a01b031663c584460d6040518163ffffffff1660e01b81526004015f60405180830381865afa1580156110ae573d5f5f3e3d5ffd5b505050506040513d5f823e601f3d908101601f191682016040526110d59190810190613ae1565b876040516110e7959493929190613b12565b60405180910390a150505050565b6110fd612cbe565b61110a426201518061378e565b6001600160a01b039091165f90815260106020526040902055565b600954604080516370f6b73960e11b815290515f926001600160a01b03169163e1ed6e729160048083019260209291908290030181865afa15801561116c573d5f5f3e3d5ffd5b505050506040513d601f19601f820116820180604052508101906111909190613748565b905061119a611f1c565b600a5460405163d892146d60e01b81526001600160a01b039283169263d892146d926111cb929116906004016135a2565b602060405180830381865afa1580156111e6573d5f5f3e3d5ffd5b505050506040513d601f19601f8201168201806040525081019061120a91906137de565b1561123557600a5460405163a59d7f4d60e01b81526107ca916001600160a01b0316906004016135a2565b6001600160401b038082165f90815260116020526040812054909116900361127b57604051636a33310560e11b81526001600160401b03821660048201526024016107ca565b7f8b413ba408d0e5e23fa00c5b0c5f94d771aec2d0c991a649dad0e23caddb6fcf600b548260095f9054906101000a90046001600160a01b03166001600160a01b031663f4f6c22c6040518163ffffffff1660e01b8152600401602060405180830381865afa1580156112f0573d5f5f3e3d5ffd5b505050506040513d601f19601f82011682018060405250810190611314919061398f565b6001600160a01b0316639ff430016040518163ffffffff1660e01b81526004016020604051808303815f875af1158015611350573d5f5f3e3d5ffd5b505050506040513d601f19601f82011682018060405250810190611374919061398f565b6001600160a01b03166327bacc406040518163ffffffff1660e01b8152600401602060405180830381865afa1580156113af573d5f5f3e3d5ffd5b505050506040513d601f19601f820116820180604052508101906113d39190613748565b6001600160401b0385165f9081526011602052604090819020905161140094939291600501908890613be5565b60405180910390a160095f9054906101000a90046001600160a01b03166001600160a01b031663929c6ca96040518163ffffffff1660e01b8152600401602060405180830381865afa158015611458573d5f5f3e3d5ffd5b505050506040513d601f19601f8201168201806040525081019061147c919061398f565b6001600160401b0382165f9081526011602052604090819020905163766b44f560e11b81526001600160a01b03929092169163ecd689ea916114c091600401613c1b565b60408051808303815f875af11580156114db573d5f5f3e3d5ffd5b505050506040513d601f19601f820116820180604052508101906114ff9190613d26565b6001600160401b038084165f9081526011602052604090206004018054938216600160401b0267ffffffffffffffff60401b1993909216600160801b0292909216600160401b600160c01b031990931692909217919091179055610e6861195c565b6001600160a01b0382165f90815260086020526040812054900361159a57816040516390b2344160e01b81526004016107ca91906135a2565b815f6115a86012600a613e36565b6001600160a01b0385165f908152600860205260409020546115ca9085613e44565b6115d49190613e5b565b6040516323b872dd60e01b81529091505f9030906323b872dd90611600903390849089906004016137ba565b6020604051808303815f875af115801561161c573d5f5f3e3d5ffd5b505050506040513d601f19601f8201168201806040525081019061164091906137de565b905080306001600160a01b03166306fdde036040518163ffffffff1660e01b81526004015f60405180830381865afa15801561167e573d5f5f3e3d5ffd5b505050506040513d5f823e601f3d908101601f191682016040526116a59190810190613ae1565b6040516020016116b59190613e7a565b604051602081830303815290604052906116e25760405162461bcd60e51b81526004016107ca91906132bd565b5060405163a9059cbb60e01b81526001600160a01b0384169063a9059cbb9061171190339086906004016137a1565b6020604051808303815f875af115801561172d573d5f5f3e3d5ffd5b505050506040513d601f19601f8201168201806040525081019061175191906137de565b505050505050565b5f33611766858285612d9d565b611771858585612df4565b506001949350505050565b6001600160a01b0382165f9081526008602052604081205490036117b557816040516390b2344160e01b81526004016107ca91906135a2565b815f6117c36012600a613e36565b6001600160a01b0385165f908152600860205260409020546117e59085613e44565b6117ef9190613e5b565b90505f826001600160a01b03166323b872dd3330856040518463ffffffff1660e01b8152600401611822939291906137ba565b6020604051808303815f875af115801561183e573d5f5f3e3d5ffd5b505050506040513d601f19601f8201168201806040525081019061186291906137de565b905080836001600160a01b03166306fdde036040518163ffffffff1660e01b81526004015f60405180830381865afa1580156118a0573d5f5f3e3d5ffd5b505050506040513d5f823e601f3d908101601f191682016040526118c79190810190613ae1565b6040516020016118d79190613e7a565b604051602081830303815290604052906119045760405162461bcd60e51b81526004016107ca91906132bd565b5060405163a9059cbb60e01b8152309063a9059cbb9061171190339088906004016137a1565b611932612cbe565b6001600160a01b03919091165f908152600f60205260409020805460ff1916911515919091179055565b5f5b601254811015611c1c575f60115f6012848154811061197f5761197f613eaa565b5f91825260208083206004808404909101546001600160401b03600860039586160261010090810a909204811687528684019790975260409586019094208551608080820188528254891682528751968701885260018301546001600160a01b039081168852600284015480821689880152600160a01b90048a16888a015295830154808a166060890152600160401b90819004909616908701529181015480881660a0870152938404871660c0860152600160801b90930490951660e08401528401919091526005810180549192840191611a5a90613700565b80601f0160208091040260200160405190810160405280929190818152602001828054611a8690613700565b8015611ad15780601f10611aa857610100808354040283529160200191611ad1565b820191905f5260205f20905b815481529060010190602001808311611ab457829003601f168201915b5050509183525050600691909101546001600160401b031660209182015281810151516001600160a01b03165f90815260109091526040902054909150421115611c13577f94016256b5a8c81e2ab26f48f739977139a54fe84068fc66e52414cec417d8ed8160400151604051611b4891906132bd565b60405180910390a160115f60128481548110611b6657611b66613eaa565b5f918252602080832060048084049091015460039384166008026101000a90046001600160401b031685529084019490945260409092018120805467ffffffffffffffff191681556001810180546001600160a01b03191690556002810180546001600160e01b0319908116909155928101805490931690925591810180546001600160c01b031916905590611bff6005830182613245565b50600601805467ffffffffffffffff191690555b5060010161195e565b50565b6001600160a01b0381165f908152600f602052604081205460ff1615611c4757506001919050565b600e5460ff16158015611ce55750611c616012600a613e36565b611c6c906019613e44565b6040516370a0823160e01b815273203e366a1821570b2f84ff5ae8b3bdeb48dc4fa1906370a0823190611ca39086906004016135a2565b602060405180830381865afa158015611cbe573d5f5f3e3d5ffd5b505050506040513d601f19601f82011682018060405250810190611ce29190613763565b10155b15611cf257506001919050565b600a54604080516318160ddd60e01b815290515f926001600160a01b0316916318160ddd9160048083019260209291908290030181865afa158015611d39573d5f5f3e3d5ffd5b505050506040513d601f19601f82011682018060405250810190611d5d9190613763565b600c54909150611d719061ffff1682613e5b565b600a546040516370a0823160e01b81526001600160a01b03909116906370a0823190611da19087906004016135a2565b602060405180830381865afa158015611dbc573d5f5f3e3d5ffd5b505050506040513d601f19601f82011682018060405250810190611de09190613763565b10611dee5750600192915050565b600a5460405163666e1b3960e01b81526001600160a01b039091169063666e1b3990611e1e9086906004016135a2565b602060405180830381865afa158015611e39573d5f5f3e3d5ffd5b505050506040513d601f19601f82011682018060405250810190611e5d91906137de565b9392505050565b611e6c612dff565b611c1c815f612e3f565b611e7e612cbe565b600c805461ffff191661ffff92909216919091179055565b606060128054806020026020016040519081016040528092919081815260200182805480156106af57602002820191905f5260205f20905f905b82829054906101000a90046001600160401b03166001600160401b031681526020019060080190602082600701049283019260010382029150808411611ed05790505050505050905090565b60095460408051633d3db08b60e21b815290515f926001600160a01b03169163f4f6c22c9160048083019260209291908290030181865afa158015611f63573d5f5f3e3d5ffd5b505050506040513d601f19601f82011682018060405250810190611f87919061398f565b604051636c93852d60e11b815260206004820152600360248201526279616960e81b60448201526001600160a01b03919091169063d9270a5a90606401602060405180830381865afa158015611fdf573d5f5f3e3d5ffd5b505050506040513d601f19601f82011682018060405250810190612003919061398f565b905090565b6001600160a01b03165f9081526020819052604090205460ff1690565b61202d612dff565b6001600160a01b03811661205a57325f30604051633603021960e21b81526004016107ca93929190613ebe565b611c1c816001612e3f565b61206d612dff565b600e805460ff1916911515919091179055565b612088612cbe565b600d55565b612095612cbe565b61209d611f1c565b6001600160a01b031663566bbe4c600b5484846040518463ffffffff1660e01b81526004016120ce93929190613ee1565b5f604051808303815f87803b1580156120e5575f5ffd5b505af1158015611751573d5f5f3e3d5ffd5b6120ff612dff565b600954604080516317b83d9560e21b815290515f926001600160a01b031691635ee0f6549160048083019286929190829003018183875af1158015612146573d5f5f3e3d5ffd5b505050506040513d5f823e601f3d908101601f1916820160405261216d9190810190613851565b60405163a9059cbb60e01b815290915083906001600160a01b0382169063a9059cbb906121a090339087906004016137a1565b6020604051808303815f875af11580156121bc573d5f5f3e3d5ffd5b505050506040513d601f19601f820116820180604052508101906121e091906137de565b50815160095460408051633d3db08b60e21b815290517fe92387feba3075ba4fca643e2b60d0daec63b9c4c64bfd47cf2b45e0beca400193926001600160a01b03169163f4f6c22c9160048083019260209291908290030181865afa15801561224b573d5f5f3e3d5ffd5b505050506040513d601f19601f8201168201806040525081019061226f919061398f565b6001600160a01b0316639ff430016040518163ffffffff1660e01b81526004016020604051808303815f875af11580156122ab573d5f5f3e3d5ffd5b505050506040513d601f19601f820116820180604052508101906122cf919061398f565b6001600160a01b03166327bacc406040518163ffffffff1660e01b8152600401602060405180830381865afa15801561230a573d5f5f3e3d5ffd5b505050506040513d601f19601f8201168201806040525081019061232e9190613748565b604080516001600160401b0393841681529290911660208301526001600160a01b03871690820152606081018590526080016110e7565b60606005805461063890613700565b61237c612dff565b60046123888382613a27565b5060056123958282613a27565b505050565b5f33610e81818585612df4565b600954604080516370f6b73960e11b815290515f926001600160a01b03169163e1ed6e729160048083019260209291908290030181865afa1580156123ee573d5f5f3e3d5ffd5b505050506040513d601f19601f820116820180604052508101906124129190613748565b6001600160401b038082165f81815260116020526040902054929350911603611c1c57611c1c81612e92565b6001600160401b038083165f9081526011602052604081205490918291168103612498576001600160401b038481165f9081526011602052604090819020549051636a33310560e11b8152911660048201526024016107ca565b60095f9054906101000a90046001600160a01b03166001600160a01b031663929c6ca96040518163ffffffff1660e01b8152600401602060405180830381865afa1580156124e8573d5f5f3e3d5ffd5b505050506040513d601f19601f8201168201806040525081019061250c919061398f565b6001600160a01b031663679b953860095f9054906101000a90046001600160a01b03166001600160a01b031663c0ff53286040518163ffffffff1660e01b8152600401602060405180830381865afa15801561256a573d5f5f3e3d5ffd5b505050506040513d601f19601f8201168201806040525081019061258e919061398f565b6001600160401b038088165f908152601160205260409081902060049081015491516001600160e01b031960e087901b1681526125da9493600160401b90930490921689189101613f11565b60408051808303815f875af11580156125f5573d5f5f3e3d5ffd5b505050506040513d601f19601f820116820180604052508101906126199190613d26565b6001600160401b038087165f9081526011602090815260409182902060049081018054968516600160401b0267ffffffffffffffff60401b1996909516600160801b0295909516600160401b600160c01b03199096169590951792909217909255600954825163929c6ca960e01b815292516001600160a01b039091169363929c6ca993808201939291908290030181865afa1580156126bb573d5f5f3e3d5ffd5b505050506040513d601f19601f820116820180604052508101906126df919061398f565b6001600160a01b031663679b953860095f9054906101000a90046001600160a01b03166001600160a01b031663c0ff53286040518163ffffffff1660e01b8152600401602060405180830381865afa15801561273d573d5f5f3e3d5ffd5b505050506040513d601f19601f82011682018060405250810190612761919061398f565b6001600160401b038088165f908152601160209081526040918290206004908101546009548451630e61c05d60e31b81529451600160801b909204909516946001600160a01b03169363730e02e893818401939092918290030181865afa1580156127ce573d5f5f3e3d5ffd5b505050506040513d601f19601f820116820180604052508101906127f29190613748565b186040518363ffffffff1660e01b8152600401612810929190613f11565b60408051808303815f875af115801561282b573d5f5f3e3d5ffd5b505050506040513d601f19601f8201168201806040525081019061284f9190613d26565b915091509250929050565b612862612cbe565b600954604080516370f6b73960e11b815290515f926001600160a01b03169163e1ed6e729160048083019260209291908290030181865afa1580156128a9573d5f5f3e3d5ffd5b505050506040513d601f19601f820116820180604052508101906128cd9190613748565b6001600160401b038082165f90815260116020908152604080832081516080808201845282548716825283516101008101855260018401546001600160a01b039081168252600285015480821683890152600160a01b90048916828701526003850154808a166060840152600160401b9081900490911692820192909252600484015480891660a0830152918204881660c0820152600160801b90910490961660e08701529283019490945260058401805495965092949193929084019161299490613700565b80601f01602080910402602001604051908101604052809291908181526020018280546129c090613700565b8015612a0b5780601f106129e257610100808354040283529160200191612a0b565b820191905f5260205f20905b8154815290600101906020018083116129ee57829003601f168201915b5050509183525050600691909101546001600160401b031660209091015290505f5b60125461ffff82161015612bc457846001600160401b031660128261ffff1681548110612a5c57612a5c613eaa565b5f918252602090912060048204015460039091166008026101000a90046001600160401b031603612bb2577fe525f4574deaa438db7d25e31b0fbf75a2d4fa47a86428bce22994969b5027d8825f0151836040015160128461ffff1681548110612ac857612ac8613eaa565b905f5260205f2090600491828204019190066008029054906101000a90046001600160401b031660115f60128761ffff1681548110612b0957612b09613eaa565b905f5260205f2090600491828204019190066008029054906101000a90046001600160401b03166001600160401b03166001600160401b031681526020019081526020015f2060050188604051612b64959493929190613f33565b60405180910390a1612bb260128261ffff1681548110612b8657612b86613eaa565b905f5260205f2090600491828204019190066008029054906101000a90046001600160401b0316612e92565b80612bbc81613f89565b915050612a2d565b5050505050565b6001600160a01b039182165f90815260026020908152604080832093909416825291909152205490565b612bfd612dff565b612c05612c6f565b565b612c0f612cbe565b612c17611f1c565b6001600160a01b0316639f74d646600b54836040518363ffffffff1660e01b8152600401612c46929190613fa9565b5f604051808303815f87803b158015612c5d575f5ffd5b505af1158015612bc4573d5f5f3e3d5ffd5b612c7b6012600a613e36565b600754612c889190613e44565b6003541015612c0557612c0530612ca16012600a613e36565b612cac906001613e44565b61309f565b61239583838360016130aa565b612cc733611c1f565b158015612cda5750612cd832611c1f565b155b15612c0557600954604080516370f6b73960e11b815290515f926001600160a01b03169163e1ed6e729160048083019260209291908290030181865afa158015612d26573d5f5f3e3d5ffd5b505050506040513d601f19601f82011682018060405250810190612d4a9190613748565b6001600160401b0381165f90815260116020526040902060010154909150612d7a906001600160a01b0316611c1f565b611c1c5732333060405163b6c14f5360e01b81526004016107ca93929190613ebe565b5f612da88484612bcb565b90505f198114612dee5781811015612de0573233858530858760405162b83d1960e21b81526004016107ca9796959493929190613fc1565b612dee84848484035f6130aa565b50505050565b61239583838361312a565b612e0833612008565b158015612e1b5750612e1932612008565b155b15612c0557323330604051630be6bab560e01b81526004016107ca93929190613ebe565b6001600160a01b0382165f81815260208190526040808220805460ff191685151590811790915590519092917f6bfa7e860c3e9bf67b810cb88276b19b27c972812bac04793d369b59a1183a8391a35050565b5f5b60125461ffff82161015610e7057816001600160401b031660128261ffff1681548110612ec357612ec3613eaa565b5f918252602090912060048204015460039091166008026101000a90046001600160401b03160361308d5760115f60128361ffff1681548110612f0857612f08613eaa565b5f918252602080832060048084049091015460039384166008026101000a90046001600160401b031685529084019490945260409092018120805467ffffffffffffffff191681556001810180546001600160a01b03191690556002810180546001600160e01b0319908116909155928101805490931690925591810180546001600160c01b031916905590612fa16005830182613245565b50600601805467ffffffffffffffff1916905560128054612fc490600190614004565b81548110612fd457612fd4613eaa565b905f5260205f2090600491828204019190066008029054906101000a90046001600160401b031660128261ffff168154811061301257613012613eaa565b905f5260205f2090600491828204019190066008026101000a8154816001600160401b0302191690836001600160401b03160217905550601280548061305a5761305a614017565b5f8281526020902060045f199092019182040180546001600160401b03600860038516026101000a021916905590555050565b8061309781613f89565b915050612e94565b610e705f838361312a565b6001600160a01b038085165f9081526002602090815260408083209387168352929052208290558015612dee57826001600160a01b0316846001600160a01b03167f8c5be1e5ebec7d5bd14f71427d1e84f3dd0314c0f7b2291e5b200ac8c7c3b9258460405161311c91815260200190565b60405180910390a350505050565b6001600160a01b038316613154578060035f828254613149919061378e565b909155506131b99050565b6001600160a01b0383165f908152600160205260409020548181101561319b5732338585308587604051630f7d0bbd60e21b81526004016107ca9796959493929190613fc1565b6001600160a01b0384165f9081526001602052604090209082900390555b6001600160a01b0382166131d5576003805482900390556131f3565b6001600160a01b0382165f9081526001602052604090208054820190555b816001600160a01b0316836001600160a01b03167fddf252ad1be2c89b69c2b068fc378daa952ba7f163c4a11628f55a4df523b3ef8360405161323891815260200190565b60405180910390a3505050565b50805461325190613700565b5f825580601f10613260575050565b601f0160209004905f5260205f2090810190611c1c91905b8082111561328b575f8155600101613278565b5090565b5f81518084528060208401602086015e5f602082860101526020601f19601f83011685010191505092915050565b602081525f611e5d602083018461328f565b6001600160a01b0381168114611c1c575f5ffd5b5f602082840312156132f3575f5ffd5b8135611e5d816132cf565b5f5f6040838503121561330f575f5ffd5b823561331a816132cf565b946020939093013593505050565b634e487b7160e01b5f52604160045260245ffd5b604051608081016001600160401b038111828210171561335e5761335e613328565b60405290565b60405161010081016001600160401b038111828210171561335e5761335e613328565b604051601f8201601f191681016001600160401b03811182821017156133af576133af613328565b604052919050565b5f6001600160401b038211156133cf576133cf613328565b50601f01601f191660200190565b5f82601f8301126133ec575f5ffd5b81356133ff6133fa826133b7565b613387565b818152846020838601011115613413575f5ffd5b816020850160208301375f918101602001919091529392505050565b5f5f60408385031215613440575f5ffd5b823561344b816132cf565b915060208301356001600160401b03811115613465575f5ffd5b613471858286016133dd565b9150509250929050565b5f6020828403121561348b575f5ffd5b81356001600160401b038111156134a0575f5ffd5b6134ac848285016133dd565b949350505050565b5f5f5f606084860312156134c6575f5ffd5b83356134d1816132cf565b925060208401356134e1816132cf565b929592945050506040919091013590565b8015158114611c1c575f5ffd5b5f5f60408385031215613510575f5ffd5b823561351b816132cf565b9150602083013561352b816134f2565b809150509250929050565b5f60208284031215613546575f5ffd5b813561ffff81168114611e5d575f5ffd5b602080825282518282018190525f918401906040840190835b818110156135975783516001600160401b0316835260209384019390920191600101613570565b509095945050505050565b6001600160a01b0391909116815260200190565b5f602082840312156135c6575f5ffd5b8135611e5d816134f2565b5f602082840312156135e1575f5ffd5b5035919050565b5f5f604083850312156135f9575f5ffd5b82356001600160401b0381111561360e575f5ffd5b61361a858286016133dd565b925050602083013561352b816132cf565b5f5f6040838503121561363c575f5ffd5b82356001600160401b03811115613651575f5ffd5b61365d858286016133dd565b92505060208301356001600160401b03811115613465575f5ffd5b6001600160401b0381168114611c1c575f5ffd5b5f5f6040838503121561369d575f5ffd5b82356136a881613678565b9150602083013561352b81613678565b5f5f604083850312156136c9575f5ffd5b823561344b81613678565b5f5f604083850312156136e5575f5ffd5b82356136f0816132cf565b9150602083013561352b816132cf565b600181811c9082168061371457607f821691505b60208210810361373257634e487b7160e01b5f52602260045260245ffd5b50919050565b805161374381613678565b919050565b5f60208284031215613758575f5ffd5b8151611e5d81613678565b5f60208284031215613773575f5ffd5b5051919050565b634e487b7160e01b5f52601160045260245ffd5b80820180821115610e8757610e8761377a565b6001600160a01b03929092168252602082015260400190565b6001600160a01b039384168152919092166020820152604081019190915260600190565b5f602082840312156137ee575f5ffd5b8151611e5d816134f2565b8051613743816132cf565b5f82601f830112613813575f5ffd5b81516138216133fa826133b7565b818152846020838601011115613835575f5ffd5b8160208501602083015e5f918101602001919091529392505050565b5f60208284031215613861575f5ffd5b81516001600160401b03811115613876575f5ffd5b8201808403610160811215613889575f5ffd5b61389161333c565b825161389c81613678565b8152610100601f19830112156138b0575f5ffd5b6138b8613364565b915060208301516138c8816132cf565b82526138d6604084016137f9565b60208301526138e760608401613738565b60408301526138f860808401613738565b606083015261390960a084016137f9565b608083015261391a60c08401613738565b60a083015261392b60e08401613738565b60c083015261393d6101008401613738565b60e083015281602082015261012083015191506001600160401b03821115613963575f5ffd5b61396f86838501613804565b60408201526139816101408401613738565b606082015295945050505050565b5f6020828403121561399f575f5ffd5b8151611e5d816132cf565b6001600160401b03841681526001600160401b0383166020820152606060408201525f6139da606083018461328f565b95945050505050565b601f82111561239557805f5260205f20601f840160051c81016020851015613a085750805b601f840160051c820191505b81811015612bc4575f8155600101613a14565b81516001600160401b03811115613a4057613a40613328565b613a5481613a4e8454613700565b846139e3565b6020601f821160018114613a86575f8315613a6f5750848201515b5f19600385901b1c1916600184901b178455612bc4565b5f84815260208120601f198516915b82811015613ab55787850151825560209485019460019092019101613a95565b5084821015613ad257868401515f19600387901b60f8161c191681555b50505050600190811b01905550565b5f60208284031215613af1575f5ffd5b81516001600160401b03811115613b06575f5ffd5b6134ac84828501613804565b8581526001600160401b03851660208201526001600160401b038416604082015260a060608201525f613b4860a083018561328f565b8281036080840152613b5a818561328f565b98975050505050505050565b5f8154613b7281613700565b808552600182168015613b8c5760018114613ba857613bdc565b60ff1983166020870152602082151560051b8701019350613bdc565b845f5260205f205f5b83811015613bd35781546020828a010152600182019150602081019050613bb1565b87016020019450505b50505092915050565b8581526001600160401b03851660208201526001600160401b038416604082015260a060608201525f613b4860a0830185613b66565b602081526001600160401b038254166020820152613c5760408201613c4a60018501546001600160a01b031690565b6001600160a01b03169052565b60028201546001600160a01b03811660608301525f9060a081901c6001600160401b031660808401525060038301546001600160401b03811660a08401526001600160a01b03604082901c1660c08401525060048301546001600160401b03811660e0840152604081901c6001600160401b0316610100840152608081901c6001600160401b031661012084015250610160610140830152613d00610180830160058501613b66565b60068401546001600160401b03166001600160401b038116610160850152509392505050565b5f5f60408385031215613d37575f5ffd5b8251613d4281613678565b602084015190925061352b81613678565b6001815b6001841115613d8e57808504811115613d7257613d7261377a565b6001841615613d8057908102905b60019390931c928002613d57565b935093915050565b5f82613da457506001610e87565b81613db057505f610e87565b8160018114613dc65760028114613dd057613dec565b6001915050610e87565b60ff841115613de157613de161377a565b50506001821b610e87565b5060208310610133831016604e8410600b8410161715613e0f575081810a610e87565b613e1b5f198484613d53565b805f1904821115613e2e57613e2e61377a565b029392505050565b5f611e5d60ff841683613d96565b8082028115828204841417610e8757610e8761377a565b5f82613e7557634e487b7160e01b5f52601260045260245ffd5b500490565b6d02732b2b21020b8383937bb32b2160951b81525f82518060208501600e85015e5f9201600e0191825250919050565b634e487b7160e01b5f52603260045260245ffd5b6001600160a01b0393841681529183166020830152909116604082015260600190565b838152606060208201525f613ef9606083018561328f565b905060018060a01b0383166040830152949350505050565b6001600160a01b039290921682526001600160401b0316602082015260400190565b6001600160401b038616815260a060208201525f613f5460a083018761328f565b6001600160401b03861660408401528281036060840152613f758186613b66565b90508281036080840152613b5a818561328f565b5f61ffff821661ffff8103613fa057613fa061377a565b60010192915050565b828152604060208201525f6134ac604083018461328f565b6001600160a01b039788168152958716602087015293861660408601529185166060850152909316608083015260a082019290925260c081019190915260e00190565b81810381811115610e8757610e8761377a565b634e487b7160e01b5f52603160045260245ffdfea26469706673582212204c4811c0174149a0cceed10376630bbba58a901dd86f219fbe1e6e7edb6f5b7f64736f6c634300081b0033",
			"opcodes": "PUSH1 0x80 PUSH1 0x40 MSTORE CALLVALUE DUP1 ISZERO PUSH2 0xF JUMPI PUSH0 PUSH0 REVERT JUMPDEST POP PUSH1 0x40 MLOAD PUSH2 0x5238 CODESIZE SUB DUP1 PUSH2 0x5238 DUP4 CODECOPY DUP2 ADD PUSH1 0x40 DUP2 SWAP1 MSTORE PUSH2 0x2E SWAP2 PUSH2 0xD48 JUMP JUMPDEST PUSH1 0x40 MLOAD DUP1 PUSH1 0x40 ADD PUSH1 0x40 MSTORE DUP1 PUSH1 0xF DUP2 MSTORE PUSH1 0x20 ADD PUSH15 0x4D7973746572696F75732051696E67 PUSH1 0x88 SHL DUP2 MSTORE POP PUSH1 0x40 MLOAD DUP1 PUSH1 0x40 ADD PUSH1 0x40 MSTORE DUP1 PUSH1 0x1 DUP2 MSTORE PUSH1 0x20 ADD PUSH1 0x71 PUSH1 0xF8 SHL DUP2 MSTORE POP DUP3 PUSH1 0x1 PUSH1 0x1 PUSH1 0xA0 SHL SUB AND PUSH4 0x6FB7329C PUSH1 0x40 MLOAD DUP2 PUSH4 0xFFFFFFFF AND PUSH1 0xE0 SHL DUP2 MSTORE PUSH1 0x4 ADD PUSH1 0x20 PUSH1 0x40 MLOAD DUP1 DUP4 SUB DUP2 DUP7 GAS STATICCALL ISZERO DUP1 ISZERO PUSH2 0xAC JUMPI RETURNDATASIZE PUSH0 PUSH0 RETURNDATACOPY RETURNDATASIZE PUSH0 REVERT JUMPDEST POP POP POP POP PUSH1 0x40 MLOAD RETURNDATASIZE PUSH1 0x1F NOT PUSH1 0x1F DUP3 ADD AND DUP3 ADD DUP1 PUSH1 0x40 MSTORE POP DUP2 ADD SWAP1 PUSH2 0xD0 SWAP2 SWAP1 PUSH2 0xD80 JUMP JUMPDEST CALLER DUP1 PUSH2 0x102 JUMPI PUSH1 0x40 MLOAD PUSH4 0x36030219 PUSH1 0xE2 SHL DUP2 MSTORE ORIGIN PUSH1 0x4 DUP3 ADD MSTORE PUSH0 PUSH1 0x24 DUP3 ADD MSTORE ADDRESS PUSH1 0x44 DUP3 ADD MSTORE PUSH1 0x64 ADD JUMPDEST PUSH1 0x40 MLOAD DUP1 SWAP2 SUB SWAP1 REVERT JUMPDEST PUSH2 0x10D DUP2 PUSH1 0x1 PUSH2 0x640 JUMP JUMPDEST POP PUSH1 0x4 PUSH2 0x11A DUP5 DUP3 PUSH2 0xE32 JUMP JUMPDEST POP PUSH1 0x5 PUSH2 0x127 DUP4 DUP3 PUSH2 0xE32 JUMP JUMPDEST POP PUSH1 0x6 DUP1 SLOAD PUSH1 0x1 PUSH1 0x1 PUSH1 0xA0 SHL SUB NOT AND PUSH1 0x1 PUSH1 0x1 PUSH1 0xA0 SHL SUB DUP4 AND SWAP1 DUP2 OR SWAP1 SWAP2 SSTORE PUSH1 0x40 DUP1 MLOAD PUSH4 0x604A6FA9 PUSH1 0xE0 SHL DUP2 MSTORE SWAP1 MLOAD PUSH3 0x1B207 SWAP3 SWAP2 PUSH4 0x604A6FA9 SWAP2 PUSH1 0x4 DUP1 DUP4 ADD SWAP3 PUSH1 0x20 SWAP3 SWAP2 SWAP1 DUP3 SWAP1 SUB ADD DUP2 PUSH0 DUP8 GAS CALL ISZERO DUP1 ISZERO PUSH2 0x185 JUMPI RETURNDATASIZE PUSH0 PUSH0 RETURNDATACOPY RETURNDATASIZE PUSH0 REVERT JUMPDEST POP POP POP POP PUSH1 0x40 MLOAD RETURNDATASIZE PUSH1 0x1F NOT PUSH1 0x1F DUP3 ADD AND DUP3 ADD DUP1 PUSH1 0x40 MSTORE POP DUP2 ADD SWAP1 PUSH2 0x1A9 SWAP2 SWAP1 PUSH2 0xEEC JUMP JUMPDEST PUSH2 0x1B3 SWAP2 SWAP1 PUSH2 0xF26 JUMP JUMPDEST PUSH1 0x1 PUSH1 0x1 PUSH1 0x40 SHL SUB AND PUSH1 0x7 SSTORE PUSH2 0x209 PUSH20 0x24F0154C1DCE548ADF15DA2098FDD8B8A3B8151D PUSH2 0x1E3 PUSH1 0x12 PUSH1 0xA PUSH2 0x104D JUMP JUMPDEST PUSH2 0x1EE SWAP1 PUSH1 0x1 PUSH2 0x105B JUMP JUMPDEST PUSH1 0x1 PUSH1 0x1 PUSH1 0xA0 SHL SUB SWAP1 SWAP2 AND PUSH0 SWAP1 DUP2 MSTORE PUSH1 0x8 PUSH1 0x20 MSTORE PUSH1 0x40 SWAP1 KECCAK256 SSTORE JUMP JUMPDEST POP POP PUSH1 0x9 DUP1 SLOAD PUSH1 0x1 PUSH1 0x1 PUSH1 0xA0 SHL SUB NOT AND PUSH1 0x1 PUSH1 0x1 PUSH1 0xA0 SHL SUB DUP5 AND SWAP1 DUP2 OR SWAP1 SWAP2 SSTORE PUSH1 0x40 DUP1 MLOAD PUSH4 0x110C7EF1 PUSH1 0xE2 SHL DUP2 MSTORE SWAP1 MLOAD SWAP2 SWAP3 POP PUSH4 0x4431FBC4 SWAP2 PUSH1 0x4 DUP1 DUP4 ADD SWAP3 PUSH1 0x20 SWAP3 SWAP2 SWAP1 DUP3 SWAP1 SUB ADD DUP2 PUSH0 DUP8 GAS CALL ISZERO DUP1 ISZERO PUSH2 0x265 JUMPI RETURNDATASIZE PUSH0 PUSH0 RETURNDATACOPY RETURNDATASIZE PUSH0 REVERT JUMPDEST POP POP POP POP PUSH1 0x40 MLOAD RETURNDATASIZE PUSH1 0x1F NOT PUSH1 0x1F DUP3 ADD AND DUP3 ADD DUP1 PUSH1 0x40 MSTORE POP DUP2 ADD SWAP1 PUSH2 0x289 SWAP2 SWAP1 PUSH2 0x1072 JUMP JUMPDEST PUSH1 0xB SSTORE PUSH1 0xA DUP1 SLOAD PUSH1 0x1 PUSH1 0x1 PUSH1 0xA0 SHL SUB NOT AND PUSH1 0x1 PUSH1 0x1 PUSH1 0xA0 SHL SUB DUP5 AND OR SWAP1 SSTORE CALLER PUSH0 SWAP1 DUP2 MSTORE PUSH1 0xF PUSH1 0x20 SWAP1 DUP2 MSTORE PUSH1 0x40 SWAP1 SWAP2 KECCAK256 DUP1 SLOAD PUSH1 0xFF NOT AND PUSH1 0x1 OR SWAP1 SSTORE PUSH2 0x2CC SWAP1 PUSH2 0x693 JUMP JUMPDEST PUSH2 0x2D5 PUSH0 PUSH2 0x6B3 JUMP JUMPDEST PUSH1 0xE DUP1 SLOAD PUSH1 0xFF NOT AND SWAP1 SSTORE PUSH2 0x2E7 PUSH2 0x6C0 JUMP JUMPDEST PUSH1 0x40 DUP1 MLOAD PUSH4 0x9909AFED PUSH1 0xE0 SHL DUP2 MSTORE PUSH1 0x1 PUSH1 0x1 PUSH1 0xA0 SHL SUB DUP6 DUP2 AND PUSH1 0x4 DUP4 ADD MSTORE PUSH1 0x24 DUP3 ADD SWAP3 SWAP1 SWAP3 MSTORE PUSH1 0x7 PUSH1 0x44 DUP3 ADD MSTORE PUSH7 0x6F776E65722829 PUSH1 0xC8 SHL PUSH1 0x64 DUP3 ADD MSTORE SWAP2 AND SWAP1 PUSH4 0x9909AFED SWAP1 PUSH1 0x84 ADD PUSH1 0x20 PUSH1 0x40 MLOAD DUP1 DUP4 SUB DUP2 DUP7 GAS STATICCALL ISZERO DUP1 ISZERO PUSH2 0x34B JUMPI RETURNDATASIZE PUSH0 PUSH0 RETURNDATACOPY RETURNDATASIZE PUSH0 REVERT JUMPDEST POP POP POP POP PUSH1 0x40 MLOAD RETURNDATASIZE PUSH1 0x1F NOT PUSH1 0x1F DUP3 ADD AND DUP3 ADD DUP1 PUSH1 0x40 MSTORE POP DUP2 ADD SWAP1 PUSH2 0x36F SWAP2 SWAP1 PUSH2 0x1089 JUMP JUMPDEST ISZERO PUSH2 0x3E6 JUMPI PUSH1 0xA SLOAD PUSH1 0x40 DUP1 MLOAD PUSH4 0x8DA5CB5B PUSH1 0xE0 SHL DUP2 MSTORE SWAP1 MLOAD PUSH2 0x3E6 SWAP3 PUSH1 0x1 PUSH1 0x1 PUSH1 0xA0 SHL SUB AND SWAP2 PUSH4 0x8DA5CB5B SWAP2 PUSH1 0x4 DUP1 DUP4 ADD SWAP3 PUSH1 0x20 SWAP3 SWAP2 SWAP1 DUP3 SWAP1 SUB ADD DUP2 DUP7 GAS STATICCALL ISZERO DUP1 ISZERO PUSH2 0x3BD JUMPI RETURNDATASIZE PUSH0 PUSH0 RETURNDATACOPY RETURNDATASIZE PUSH0 REVERT JUMPDEST POP POP POP POP PUSH1 0x40 MLOAD RETURNDATASIZE PUSH1 0x1F NOT PUSH1 0x1F DUP3 ADD AND DUP3 ADD DUP1 PUSH1 0x40 MSTORE POP DUP2 ADD SWAP1 PUSH2 0x3E1 SWAP2 SWAP1 PUSH2 0xD80 JUMP JUMPDEST PUSH2 0x7AC JUMP JUMPDEST PUSH2 0x3EE PUSH2 0x6C0 JUMP JUMPDEST PUSH1 0x40 DUP1 MLOAD PUSH4 0x9909AFED PUSH1 0xE0 SHL DUP2 MSTORE PUSH1 0x1 PUSH1 0x1 PUSH1 0xA0 SHL SUB DUP6 DUP2 AND PUSH1 0x4 DUP4 ADD MSTORE PUSH1 0x24 DUP3 ADD SWAP3 SWAP1 SWAP3 MSTORE PUSH1 0x6 PUSH1 0x44 DUP3 ADD MSTORE PUSH6 0x6E616D652829 PUSH1 0xD0 SHL PUSH1 0x64 DUP3 ADD MSTORE SWAP2 AND SWAP1 PUSH4 0x9909AFED SWAP1 PUSH1 0x84 ADD PUSH1 0x20 PUSH1 0x40 MLOAD DUP1 DUP4 SUB DUP2 DUP7 GAS STATICCALL ISZERO DUP1 ISZERO PUSH2 0x451 JUMPI RETURNDATASIZE PUSH0 PUSH0 RETURNDATACOPY RETURNDATASIZE PUSH0 REVERT JUMPDEST POP POP POP POP PUSH1 0x40 MLOAD RETURNDATASIZE PUSH1 0x1F NOT PUSH1 0x1F DUP3 ADD AND DUP3 ADD DUP1 PUSH1 0x40 MSTORE POP DUP2 ADD SWAP1 PUSH2 0x475 SWAP2 SWAP1 PUSH2 0x1089 JUMP JUMPDEST DUP1 ISZERO PUSH2 0x50D JUMPI POP PUSH2 0x484 PUSH2 0x6C0 JUMP JUMPDEST PUSH1 0x40 DUP1 MLOAD PUSH4 0x9909AFED PUSH1 0xE0 SHL DUP2 MSTORE PUSH1 0x1 PUSH1 0x1 PUSH1 0xA0 SHL SUB DUP6 DUP2 AND PUSH1 0x4 DUP4 ADD MSTORE PUSH1 0x24 DUP3 ADD SWAP3 SWAP1 SWAP3 MSTORE PUSH1 0x8 PUSH1 0x44 DUP3 ADD MSTORE PUSH8 0x73796D626F6C2829 PUSH1 0xC0 SHL PUSH1 0x64 DUP3 ADD MSTORE SWAP2 AND SWAP1 PUSH4 0x9909AFED SWAP1 PUSH1 0x84 ADD PUSH1 0x20 PUSH1 0x40 MLOAD DUP1 DUP4 SUB DUP2 DUP7 GAS STATICCALL ISZERO DUP1 ISZERO PUSH2 0x4E9 JUMPI RETURNDATASIZE PUSH0 PUSH0 RETURNDATACOPY RETURNDATASIZE PUSH0 REVERT JUMPDEST POP POP POP POP PUSH1 0x40 MLOAD RETURNDATASIZE PUSH1 0x1F NOT PUSH1 0x1F DUP3 ADD AND DUP3 ADD DUP1 PUSH1 0x40 MSTORE POP DUP2 ADD SWAP1 PUSH2 0x50D SWAP2 SWAP1 PUSH2 0x1089 JUMP JUMPDEST ISZERO PUSH2 0x631 JUMPI PUSH1 0xA SLOAD PUSH1 0x40 DUP1 MLOAD PUSH4 0x6FDDE03 PUSH1 0xE0 SHL DUP2 MSTORE SWAP1 MLOAD PUSH2 0x631 SWAP3 PUSH1 0x1 PUSH1 0x1 PUSH1 0xA0 SHL SUB AND SWAP2 PUSH4 0x6FDDE03 SWAP2 PUSH1 0x4 DUP1 DUP4 ADD SWAP3 PUSH0 SWAP3 SWAP2 SWAP1 DUP3 SWAP1 SUB ADD DUP2 DUP7 GAS STATICCALL ISZERO DUP1 ISZERO PUSH2 0x55A JUMPI RETURNDATASIZE PUSH0 PUSH0 RETURNDATACOPY RETURNDATASIZE PUSH0 REVERT JUMPDEST POP POP POP POP PUSH1 0x40 MLOAD RETURNDATASIZE PUSH0 DUP3 RETURNDATACOPY PUSH1 0x1F RETURNDATASIZE SWAP1 DUP2 ADD PUSH1 0x1F NOT AND DUP3 ADD PUSH1 0x40 MSTORE PUSH2 0x581 SWAP2 SWAP1 DUP2 ADD SWAP1 PUSH2 0x10A8 JUMP JUMPDEST PUSH1 0x40 MLOAD PUSH1 0x20 ADD PUSH2 0x591 SWAP2 SWAP1 PUSH2 0x116F JUMP JUMPDEST PUSH1 0x40 DUP1 MLOAD PUSH1 0x1F NOT DUP2 DUP5 SUB ADD DUP2 MSTORE DUP3 DUP3 MSTORE PUSH1 0xA SLOAD PUSH4 0x95D89B41 PUSH1 0xE0 SHL DUP5 MSTORE SWAP2 MLOAD SWAP1 SWAP3 PUSH1 0x1 PUSH1 0x1 PUSH1 0xA0 SHL SUB SWAP1 SWAP3 AND SWAP2 PUSH4 0x95D89B41 SWAP2 PUSH1 0x4 DUP1 DUP4 ADD SWAP3 PUSH0 SWAP3 SWAP2 SWAP1 DUP3 SWAP1 SUB ADD DUP2 DUP7 GAS STATICCALL ISZERO DUP1 ISZERO PUSH2 0x5E5 JUMPI RETURNDATASIZE PUSH0 PUSH0 RETURNDATACOPY RETURNDATASIZE PUSH0 REVERT JUMPDEST POP POP POP POP PUSH1 0x40 MLOAD RETURNDATASIZE PUSH0 DUP3 RETURNDATACOPY PUSH1 0x1F RETURNDATASIZE SWAP1 DUP2 ADD PUSH1 0x1F NOT AND DUP3 ADD PUSH1 0x40 MSTORE PUSH2 0x60C SWAP2 SWAP1 DUP2 ADD SWAP1 PUSH2 0x10A8 JUMP JUMPDEST PUSH1 0x40 MLOAD PUSH1 0x20 ADD PUSH2 0x61C SWAP2 SWAP1 PUSH2 0x118F JUMP JUMPDEST PUSH1 0x40 DUP1 MLOAD PUSH1 0x1F NOT DUP2 DUP5 SUB ADD DUP2 MSTORE SWAP2 SWAP1 MSTORE PUSH2 0x7F7 JUMP JUMPDEST PUSH2 0x639 PUSH2 0x81D JUMP JUMPDEST POP POP PUSH2 0x11CA JUMP JUMPDEST PUSH1 0x1 PUSH1 0x1 PUSH1 0xA0 SHL SUB DUP3 AND PUSH0 DUP2 DUP2 MSTORE PUSH1 0x20 DUP2 SWAP1 MSTORE PUSH1 0x40 DUP1 DUP3 KECCAK256 DUP1 SLOAD PUSH1 0xFF NOT AND DUP6 ISZERO ISZERO SWAP1 DUP2 OR SWAP1 SWAP2 SSTORE SWAP1 MLOAD SWAP1 SWAP3 SWAP2 PUSH32 0x6BFA7E860C3E9BF67B810CB88276B19B27C972812BAC04793D369B59A1183A83 SWAP2 LOG3 POP POP JUMP JUMPDEST PUSH2 0x69B PUSH2 0x861 JUMP JUMPDEST PUSH1 0xC DUP1 SLOAD PUSH2 0xFFFF NOT AND PUSH2 0xFFFF SWAP3 SWAP1 SWAP3 AND SWAP2 SWAP1 SWAP2 OR SWAP1 SSTORE JUMP JUMPDEST PUSH2 0x6BB PUSH2 0x861 JUMP JUMPDEST PUSH1 0xD SSTORE JUMP JUMPDEST PUSH1 0x9 SLOAD PUSH1 0x40 DUP1 MLOAD PUSH4 0x3D3DB08B PUSH1 0xE2 SHL DUP2 MSTORE SWAP1 MLOAD PUSH0 SWAP3 PUSH1 0x1 PUSH1 0x1 PUSH1 0xA0 SHL SUB AND SWAP2 PUSH4 0xF4F6C22C SWAP2 PUSH1 0x4 DUP1 DUP4 ADD SWAP3 PUSH1 0x20 SWAP3 SWAP2 SWAP1 DUP3 SWAP1 SUB ADD DUP2 DUP7 GAS STATICCALL ISZERO DUP1 ISZERO PUSH2 0x707 JUMPI RETURNDATASIZE PUSH0 PUSH0 RETURNDATACOPY RETURNDATASIZE PUSH0 REVERT JUMPDEST POP POP POP POP PUSH1 0x40 MLOAD RETURNDATASIZE PUSH1 0x1F NOT PUSH1 0x1F DUP3 ADD AND DUP3 ADD DUP1 PUSH1 0x40 MSTORE POP DUP2 ADD SWAP1 PUSH2 0x72B SWAP2 SWAP1 PUSH2 0xD80 JUMP JUMPDEST PUSH1 0x40 MLOAD PUSH4 0x6C93852D PUSH1 0xE1 SHL DUP2 MSTORE PUSH1 0x20 PUSH1 0x4 DUP3 ADD MSTORE PUSH1 0x3 PUSH1 0x24 DUP3 ADD MSTORE PUSH3 0x796169 PUSH1 0xE8 SHL PUSH1 0x44 DUP3 ADD MSTORE PUSH1 0x1 PUSH1 0x1 PUSH1 0xA0 SHL SUB SWAP2 SWAP1 SWAP2 AND SWAP1 PUSH4 0xD9270A5A SWAP1 PUSH1 0x64 ADD PUSH1 0x20 PUSH1 0x40 MLOAD DUP1 DUP4 SUB DUP2 DUP7 GAS STATICCALL ISZERO DUP1 ISZERO PUSH2 0x783 JUMPI RETURNDATASIZE PUSH0 PUSH0 RETURNDATACOPY RETURNDATASIZE PUSH0 REVERT JUMPDEST POP POP POP POP PUSH1 0x40 MLOAD RETURNDATASIZE PUSH1 0x1F NOT PUSH1 0x1F DUP3 ADD AND DUP3 ADD DUP1 PUSH1 0x40 MSTORE POP DUP2 ADD SWAP1 PUSH2 0x7A7 SWAP2 SWAP1 PUSH2 0xD80 JUMP JUMPDEST SWAP1 POP SWAP1 JUMP JUMPDEST PUSH2 0x7B4 PUSH2 0x948 JUMP JUMPDEST PUSH1 0x1 PUSH1 0x1 PUSH1 0xA0 SHL SUB DUP2 AND PUSH2 0x7E9 JUMPI PUSH1 0x40 MLOAD PUSH4 0x36030219 PUSH1 0xE2 SHL DUP2 MSTORE ORIGIN PUSH1 0x4 DUP3 ADD MSTORE PUSH0 PUSH1 0x24 DUP3 ADD MSTORE ADDRESS PUSH1 0x44 DUP3 ADD MSTORE PUSH1 0x64 ADD PUSH2 0xF9 JUMP JUMPDEST PUSH2 0x7F4 DUP2 PUSH1 0x1 PUSH2 0x640 JUMP JUMPDEST POP JUMP JUMPDEST PUSH2 0x7FF PUSH2 0x948 JUMP JUMPDEST PUSH1 0x4 PUSH2 0x80B DUP4 DUP3 PUSH2 0xE32 JUMP JUMPDEST POP PUSH1 0x5 PUSH2 0x818 DUP3 DUP3 PUSH2 0xE32 JUMP JUMPDEST POP POP POP JUMP JUMPDEST PUSH2 0x829 PUSH1 0x12 PUSH1 0xA PUSH2 0x104D JUMP JUMPDEST PUSH1 0x7 SLOAD PUSH2 0x836 SWAP2 SWAP1 PUSH2 0x105B JUMP JUMPDEST PUSH1 0x3 SLOAD LT ISZERO PUSH2 0x85F JUMPI PUSH2 0x85F ADDRESS PUSH2 0x84F PUSH1 0x12 PUSH1 0xA PUSH2 0x104D JUMP JUMPDEST PUSH2 0x85A SWAP1 PUSH1 0x1 PUSH2 0x105B JUMP JUMPDEST PUSH2 0x9A2 JUMP JUMPDEST JUMP JUMPDEST PUSH2 0x86A CALLER PUSH2 0x9B1 JUMP JUMPDEST ISZERO DUP1 ISZERO PUSH2 0x87D JUMPI POP PUSH2 0x87B ORIGIN PUSH2 0x9B1 JUMP JUMPDEST ISZERO JUMPDEST ISZERO PUSH2 0x85F JUMPI PUSH1 0x9 SLOAD PUSH1 0x40 DUP1 MLOAD PUSH4 0x70F6B739 PUSH1 0xE1 SHL DUP2 MSTORE SWAP1 MLOAD PUSH0 SWAP3 PUSH1 0x1 PUSH1 0x1 PUSH1 0xA0 SHL SUB AND SWAP2 PUSH4 0xE1ED6E72 SWAP2 PUSH1 0x4 DUP1 DUP4 ADD SWAP3 PUSH1 0x20 SWAP3 SWAP2 SWAP1 DUP3 SWAP1 SUB ADD DUP2 DUP7 GAS STATICCALL ISZERO DUP1 ISZERO PUSH2 0x8C9 JUMPI RETURNDATASIZE PUSH0 PUSH0 RETURNDATACOPY RETURNDATASIZE PUSH0 REVERT JUMPDEST POP POP POP POP PUSH1 0x40 MLOAD RETURNDATASIZE PUSH1 0x1F NOT PUSH1 0x1F DUP3 ADD AND DUP3 ADD DUP1 PUSH1 0x40 MSTORE POP DUP2 ADD SWAP1 PUSH2 0x8ED SWAP2 SWAP1 PUSH2 0xEEC JUMP JUMPDEST PUSH1 0x1 PUSH1 0x1 PUSH1 0x40 SHL SUB DUP2 AND PUSH0 SWAP1 DUP2 MSTORE PUSH1 0x11 PUSH1 0x20 MSTORE PUSH1 0x40 SWAP1 KECCAK256 PUSH1 0x1 ADD SLOAD SWAP1 SWAP2 POP PUSH2 0x91D SWAP1 PUSH1 0x1 PUSH1 0x1 PUSH1 0xA0 SHL SUB AND PUSH2 0x9B1 JUMP JUMPDEST PUSH2 0x7F4 JUMPI PUSH1 0x40 MLOAD PUSH4 0xB6C14F53 PUSH1 0xE0 SHL DUP2 MSTORE ORIGIN PUSH1 0x4 DUP3 ADD MSTORE CALLER PUSH1 0x24 DUP3 ADD MSTORE ADDRESS PUSH1 0x44 DUP3 ADD MSTORE PUSH1 0x64 ADD PUSH2 0xF9 JUMP JUMPDEST CALLER PUSH0 SWAP1 DUP2 MSTORE PUSH1 0x20 DUP2 SWAP1 MSTORE PUSH1 0x40 SWAP1 KECCAK256 SLOAD PUSH1 0xFF AND ISZERO DUP1 ISZERO PUSH2 0x976 JUMPI POP ORIGIN PUSH0 SWAP1 DUP2 MSTORE PUSH1 0x20 DUP2 SWAP1 MSTORE PUSH1 0x40 SWAP1 KECCAK256 SLOAD PUSH1 0xFF AND ISZERO JUMPDEST ISZERO PUSH2 0x85F JUMPI PUSH1 0x40 MLOAD PUSH4 0xBE6BAB5 PUSH1 0xE0 SHL DUP2 MSTORE ORIGIN PUSH1 0x4 DUP3 ADD MSTORE CALLER PUSH1 0x24 DUP3 ADD MSTORE ADDRESS PUSH1 0x44 DUP3 ADD MSTORE PUSH1 0x64 ADD PUSH2 0xF9 JUMP JUMPDEST PUSH2 0x9AD PUSH0 DUP4 DUP4 PUSH2 0xBF4 JUMP JUMPDEST POP POP JUMP JUMPDEST PUSH1 0x1 PUSH1 0x1 PUSH1 0xA0 SHL SUB DUP2 AND PUSH0 SWAP1 DUP2 MSTORE PUSH1 0xF PUSH1 0x20 MSTORE PUSH1 0x40 DUP2 KECCAK256 SLOAD PUSH1 0xFF AND ISZERO PUSH2 0x9D9 JUMPI POP PUSH1 0x1 SWAP2 SWAP1 POP JUMP JUMPDEST PUSH1 0xE SLOAD PUSH1 0xFF AND ISZERO DUP1 ISZERO PUSH2 0xA7B JUMPI POP PUSH2 0x9F3 PUSH1 0x12 PUSH1 0xA PUSH2 0x104D JUMP JUMPDEST PUSH2 0x9FE SWAP1 PUSH1 0x19 PUSH2 0x105B JUMP JUMPDEST PUSH1 0x40 MLOAD PUSH4 0x70A08231 PUSH1 0xE0 SHL DUP2 MSTORE PUSH1 0x1 PUSH1 0x1 PUSH1 0xA0 SHL SUB DUP5 AND PUSH1 0x4 DUP3 ADD MSTORE PUSH20 0x203E366A1821570B2F84FF5AE8B3BDEB48DC4FA1 SWAP1 PUSH4 0x70A08231 SWAP1 PUSH1 0x24 ADD PUSH1 0x20 PUSH1 0x40 MLOAD DUP1 DUP4 SUB DUP2 DUP7 GAS STATICCALL ISZERO DUP1 ISZERO PUSH2 0xA54 JUMPI RETURNDATASIZE PUSH0 PUSH0 RETURNDATACOPY RETURNDATASIZE PUSH0 REVERT JUMPDEST POP POP POP POP PUSH1 0x40 MLOAD RETURNDATASIZE PUSH1 0x1F NOT PUSH1 0x1F DUP3 ADD AND DUP3 ADD DUP1 PUSH1 0x40 MSTORE POP DUP2 ADD SWAP1 PUSH2 0xA78 SWAP2 SWAP1 PUSH2 0x1072 JUMP JUMPDEST LT ISZERO JUMPDEST ISZERO PUSH2 0xA88 JUMPI POP PUSH1 0x1 SWAP2 SWAP1 POP JUMP JUMPDEST PUSH1 0xA SLOAD PUSH1 0x40 DUP1 MLOAD PUSH4 0x18160DDD PUSH1 0xE0 SHL DUP2 MSTORE SWAP1 MLOAD PUSH0 SWAP3 PUSH1 0x1 PUSH1 0x1 PUSH1 0xA0 SHL SUB AND SWAP2 PUSH4 0x18160DDD SWAP2 PUSH1 0x4 DUP1 DUP4 ADD SWAP3 PUSH1 0x20 SWAP3 SWAP2 SWAP1 DUP3 SWAP1 SUB ADD DUP2 DUP7 GAS STATICCALL ISZERO DUP1 ISZERO PUSH2 0xACF JUMPI RETURNDATASIZE PUSH0 PUSH0 RETURNDATACOPY RETURNDATASIZE PUSH0 REVERT JUMPDEST POP POP POP POP PUSH1 0x40 MLOAD RETURNDATASIZE PUSH1 0x1F NOT PUSH1 0x1F DUP3 ADD AND DUP3 ADD DUP1 PUSH1 0x40 MSTORE POP DUP2 ADD SWAP1 PUSH2 0xAF3 SWAP2 SWAP1 PUSH2 0x1072 JUMP JUMPDEST PUSH1 0xC SLOAD SWAP1 SWAP2 POP PUSH2 0xB07 SWAP1 PUSH2 0xFFFF AND DUP3 PUSH2 0x11A4 JUMP JUMPDEST PUSH1 0xA SLOAD PUSH1 0x40 MLOAD PUSH4 0x70A08231 PUSH1 0xE0 SHL DUP2 MSTORE PUSH1 0x1 PUSH1 0x1 PUSH1 0xA0 SHL SUB DUP7 DUP2 AND PUSH1 0x4 DUP4 ADD MSTORE SWAP1 SWAP2 AND SWAP1 PUSH4 0x70A08231 SWAP1 PUSH1 0x24 ADD PUSH1 0x20 PUSH1 0x40 MLOAD DUP1 DUP4 SUB DUP2 DUP7 GAS STATICCALL ISZERO DUP1 ISZERO PUSH2 0xB4F JUMPI RETURNDATASIZE PUSH0 PUSH0 RETURNDATACOPY RETURNDATASIZE PUSH0 REVERT JUMPDEST POP POP POP POP PUSH1 0x40 MLOAD RETURNDATASIZE PUSH1 0x1F NOT PUSH1 0x1F DUP3 ADD AND DUP3 ADD DUP1 PUSH1 0x40 MSTORE POP DUP2 ADD SWAP1 PUSH2 0xB73 SWAP2 SWAP1 PUSH2 0x1072 JUMP JUMPDEST LT PUSH2 0xB81 JUMPI POP PUSH1 0x1 SWAP3 SWAP2 POP POP JUMP JUMPDEST PUSH1 0xA SLOAD PUSH1 0x40 MLOAD PUSH4 0x666E1B39 PUSH1 0xE0 SHL DUP2 MSTORE PUSH1 0x1 PUSH1 0x1 PUSH1 0xA0 SHL SUB DUP6 DUP2 AND PUSH1 0x4 DUP4 ADD MSTORE SWAP1 SWAP2 AND SWAP1 PUSH4 0x666E1B39 SWAP1 PUSH1 0x24 ADD PUSH1 0x20 PUSH1 0x40 MLOAD DUP1 DUP4 SUB DUP2 DUP7 GAS STATICCALL ISZERO DUP1 ISZERO PUSH2 0xBC9 JUMPI RETURNDATASIZE PUSH0 PUSH0 RETURNDATACOPY RETURNDATASIZE PUSH0 REVERT JUMPDEST POP POP POP POP PUSH1 0x40 MLOAD RETURNDATASIZE PUSH1 0x1F NOT PUSH1 0x1F DUP3 ADD AND DUP3 ADD DUP1 PUSH1 0x40 MSTORE POP DUP2 ADD SWAP1 PUSH2 0xBED SWAP2 SWAP1 PUSH2 0x1089 JUMP JUMPDEST SWAP4 SWAP3 POP POP POP JUMP JUMPDEST PUSH1 0x1 PUSH1 0x1 PUSH1 0xA0 SHL SUB DUP4 AND PUSH2 0xC1E JUMPI DUP1 PUSH1 0x3 PUSH0 DUP3 DUP3 SLOAD PUSH2 0xC13 SWAP2 SWAP1 PUSH2 0x11B7 JUMP JUMPDEST SWAP1 SWAP2 SSTORE POP PUSH2 0xCA8 SWAP1 POP JUMP JUMPDEST PUSH1 0x1 PUSH1 0x1 PUSH1 0xA0 SHL SUB DUP4 AND PUSH0 SWAP1 DUP2 MSTORE PUSH1 0x1 PUSH1 0x20 MSTORE PUSH1 0x40 SWAP1 KECCAK256 SLOAD DUP2 DUP2 LT ISZERO PUSH2 0xC8A JUMPI PUSH1 0x40 MLOAD PUSH4 0xF7D0BBD PUSH1 0xE2 SHL DUP2 MSTORE ORIGIN PUSH1 0x4 DUP3 ADD MSTORE CALLER PUSH1 0x24 DUP3 ADD MSTORE PUSH1 0x1 PUSH1 0x1 PUSH1 0xA0 SHL SUB DUP1 DUP7 AND PUSH1 0x44 DUP4 ADD MSTORE DUP5 AND PUSH1 0x64 DUP3 ADD MSTORE ADDRESS PUSH1 0x84 DUP3 ADD MSTORE PUSH1 0xA4 DUP2 ADD DUP3 SWAP1 MSTORE PUSH1 0xC4 DUP2 ADD DUP4 SWAP1 MSTORE PUSH1 0xE4 ADD PUSH2 0xF9 JUMP JUMPDEST PUSH1 0x1 PUSH1 0x1 PUSH1 0xA0 SHL SUB DUP5 AND PUSH0 SWAP1 DUP2 MSTORE PUSH1 0x1 PUSH1 0x20 MSTORE PUSH1 0x40 SWAP1 KECCAK256 SWAP1 DUP3 SWAP1 SUB SWAP1 SSTORE JUMPDEST PUSH1 0x1 PUSH1 0x1 PUSH1 0xA0 SHL SUB DUP3 AND PUSH2 0xCC4 JUMPI PUSH1 0x3 DUP1 SLOAD DUP3 SWAP1 SUB SWAP1 SSTORE PUSH2 0xCE2 JUMP JUMPDEST PUSH1 0x1 PUSH1 0x1 PUSH1 0xA0 SHL SUB DUP3 AND PUSH0 SWAP1 DUP2 MSTORE PUSH1 0x1 PUSH1 0x20 MSTORE PUSH1 0x40 SWAP1 KECCAK256 DUP1 SLOAD DUP3 ADD SWAP1 SSTORE JUMPDEST DUP2 PUSH1 0x1 PUSH1 0x1 PUSH1 0xA0 SHL SUB AND DUP4 PUSH1 0x1 PUSH1 0x1 PUSH1 0xA0 SHL SUB AND PUSH32 0xDDF252AD1BE2C89B69C2B068FC378DAA952BA7F163C4A11628F55A4DF523B3EF DUP4 PUSH1 0x40 MLOAD PUSH2 0xD27 SWAP2 DUP2 MSTORE PUSH1 0x20 ADD SWAP1 JUMP JUMPDEST PUSH1 0x40 MLOAD DUP1 SWAP2 SUB SWAP1 LOG3 POP POP POP JUMP JUMPDEST PUSH1 0x1 PUSH1 0x1 PUSH1 0xA0 SHL SUB DUP2 AND DUP2 EQ PUSH2 0x7F4 JUMPI PUSH0 PUSH0 REVERT JUMPDEST PUSH0 PUSH0 PUSH1 0x40 DUP4 DUP6 SUB SLT ISZERO PUSH2 0xD59 JUMPI PUSH0 PUSH0 REVERT JUMPDEST DUP3 MLOAD PUSH2 0xD64 DUP2 PUSH2 0xD34 JUMP JUMPDEST PUSH1 0x20 DUP5 ADD MLOAD SWAP1 SWAP3 POP PUSH2 0xD75 DUP2 PUSH2 0xD34 JUMP JUMPDEST DUP1 SWAP2 POP POP SWAP3 POP SWAP3 SWAP1 POP JUMP JUMPDEST PUSH0 PUSH1 0x20 DUP3 DUP5 SUB SLT ISZERO PUSH2 0xD90 JUMPI PUSH0 PUSH0 REVERT JUMPDEST DUP2 MLOAD PUSH2 0xBED DUP2 PUSH2 0xD34 JUMP JUMPDEST PUSH4 0x4E487B71 PUSH1 0xE0 SHL PUSH0 MSTORE PUSH1 0x41 PUSH1 0x4 MSTORE PUSH1 0x24 PUSH0 REVERT JUMPDEST PUSH1 0x1 DUP2 DUP2 SHR SWAP1 DUP3 AND DUP1 PUSH2 0xDC3 JUMPI PUSH1 0x7F DUP3 AND SWAP2 POP JUMPDEST PUSH1 0x20 DUP3 LT DUP2 SUB PUSH2 0xDE1 JUMPI PUSH4 0x4E487B71 PUSH1 0xE0 SHL PUSH0 MSTORE PUSH1 0x22 PUSH1 0x4 MSTORE PUSH1 0x24 PUSH0 REVERT JUMPDEST POP SWAP2 SWAP1 POP JUMP JUMPDEST PUSH1 0x1F DUP3 GT ISZERO PUSH2 0x818 JUMPI DUP1 PUSH0 MSTORE PUSH1 0x20 PUSH0 KECCAK256 PUSH1 0x1F DUP5 ADD PUSH1 0x5 SHR DUP2 ADD PUSH1 0x20 DUP6 LT ISZERO PUSH2 0xE0C JUMPI POP DUP1 JUMPDEST PUSH1 0x1F DUP5 ADD PUSH1 0x5 SHR DUP3 ADD SWAP2 POP JUMPDEST DUP2 DUP2 LT ISZERO PUSH2 0xE2B JUMPI PUSH0 DUP2 SSTORE PUSH1 0x1 ADD PUSH2 0xE18 JUMP JUMPDEST POP POP POP POP POP JUMP JUMPDEST DUP2 MLOAD PUSH1 0x1 PUSH1 0x1 PUSH1 0x40 SHL SUB DUP2 GT ISZERO PUSH2 0xE4B JUMPI PUSH2 0xE4B PUSH2 0xD9B JUMP JUMPDEST PUSH2 0xE5F DUP2 PUSH2 0xE59 DUP5 SLOAD PUSH2 0xDAF JUMP JUMPDEST DUP5 PUSH2 0xDE7 JUMP JUMPDEST PUSH1 0x20 PUSH1 0x1F DUP3 GT PUSH1 0x1 DUP2 EQ PUSH2 0xE91 JUMPI PUSH0 DUP4 ISZERO PUSH2 0xE7A JUMPI POP DUP5 DUP3 ADD MLOAD JUMPDEST PUSH0 NOT PUSH1 0x3 DUP6 SWAP1 SHL SHR NOT AND PUSH1 0x1 DUP5 SWAP1 SHL OR DUP5 SSTORE PUSH2 0xE2B JUMP JUMPDEST PUSH0 DUP5 DUP2 MSTORE PUSH1 0x20 DUP2 KECCAK256 PUSH1 0x1F NOT DUP6 AND SWAP2 JUMPDEST DUP3 DUP2 LT ISZERO PUSH2 0xEC0 JUMPI DUP8 DUP6 ADD MLOAD DUP3 SSTORE PUSH1 0x20 SWAP5 DUP6 ADD SWAP5 PUSH1 0x1 SWAP1 SWAP3 ADD SWAP2 ADD PUSH2 0xEA0 JUMP JUMPDEST POP DUP5 DUP3 LT ISZERO PUSH2 0xEDD JUMPI DUP7 DUP5 ADD MLOAD PUSH0 NOT PUSH1 0x3 DUP8 SWAP1 SHL PUSH1 0xF8 AND SHR NOT AND DUP2 SSTORE JUMPDEST POP POP POP POP PUSH1 0x1 SWAP1 DUP2 SHL ADD SWAP1 SSTORE POP JUMP JUMPDEST PUSH0 PUSH1 0x20 DUP3 DUP5 SUB SLT ISZERO PUSH2 0xEFC JUMPI PUSH0 PUSH0 REVERT JUMPDEST DUP2 MLOAD PUSH1 0x1 PUSH1 0x1 PUSH1 0x40 SHL SUB DUP2 AND DUP2 EQ PUSH2 0xBED JUMPI PUSH0 PUSH0 REVERT JUMPDEST PUSH4 0x4E487B71 PUSH1 0xE0 SHL PUSH0 MSTORE PUSH1 0x12 PUSH1 0x4 MSTORE PUSH1 0x24 PUSH0 REVERT JUMPDEST PUSH0 PUSH1 0x1 PUSH1 0x1 PUSH1 0x40 SHL SUB DUP4 AND DUP1 PUSH2 0xF3E JUMPI PUSH2 0xF3E PUSH2 0xF12 JUMP JUMPDEST PUSH1 0x1 PUSH1 0x1 PUSH1 0x40 SHL SUB SWAP3 SWAP1 SWAP3 AND SWAP2 SWAP1 SWAP2 MOD SWAP3 SWAP2 POP POP JUMP JUMPDEST PUSH4 0x4E487B71 PUSH1 0xE0 SHL PUSH0 MSTORE PUSH1 0x11 PUSH1 0x4 MSTORE PUSH1 0x24 PUSH0 REVERT JUMPDEST PUSH1 0x1 DUP2 JUMPDEST PUSH1 0x1 DUP5 GT ISZERO PUSH2 0xFA3 JUMPI DUP1 DUP6 DIV DUP2 GT ISZERO PUSH2 0xF87 JUMPI PUSH2 0xF87 PUSH2 0xF54 JUMP JUMPDEST PUSH1 0x1 DUP5 AND ISZERO PUSH2 0xF95 JUMPI SWAP1 DUP2 MUL SWAP1 JUMPDEST PUSH1 0x1 SWAP4 SWAP1 SWAP4 SHR SWAP3 DUP1 MUL PUSH2 0xF6C JUMP JUMPDEST SWAP4 POP SWAP4 SWAP2 POP POP JUMP JUMPDEST PUSH0 DUP3 PUSH2 0xFB9 JUMPI POP PUSH1 0x1 PUSH2 0x1047 JUMP JUMPDEST DUP2 PUSH2 0xFC5 JUMPI POP PUSH0 PUSH2 0x1047 JUMP JUMPDEST DUP2 PUSH1 0x1 DUP2 EQ PUSH2 0xFDB JUMPI PUSH1 0x2 DUP2 EQ PUSH2 0xFE5 JUMPI PUSH2 0x1001 JUMP JUMPDEST PUSH1 0x1 SWAP2 POP POP PUSH2 0x1047 JUMP JUMPDEST PUSH1 0xFF DUP5 GT ISZERO PUSH2 0xFF6 JUMPI PUSH2 0xFF6 PUSH2 0xF54 JUMP JUMPDEST POP POP PUSH1 0x1 DUP3 SHL PUSH2 0x1047 JUMP JUMPDEST POP PUSH1 0x20 DUP4 LT PUSH2 0x133 DUP4 LT AND PUSH1 0x4E DUP5 LT PUSH1 0xB DUP5 LT AND OR ISZERO PUSH2 0x1024 JUMPI POP DUP2 DUP2 EXP PUSH2 0x1047 JUMP JUMPDEST PUSH2 0x1030 PUSH0 NOT DUP5 DUP5 PUSH2 0xF68 JUMP JUMPDEST DUP1 PUSH0 NOT DIV DUP3 GT ISZERO PUSH2 0x1043 JUMPI PUSH2 0x1043 PUSH2 0xF54 JUMP JUMPDEST MUL SWAP1 POP JUMPDEST SWAP3 SWAP2 POP POP JUMP JUMPDEST PUSH0 PUSH2 0xBED PUSH1 0xFF DUP5 AND DUP4 PUSH2 0xFAB JUMP JUMPDEST DUP1 DUP3 MUL DUP2 ISZERO DUP3 DUP3 DIV DUP5 EQ OR PUSH2 0x1047 JUMPI PUSH2 0x1047 PUSH2 0xF54 JUMP JUMPDEST PUSH0 PUSH1 0x20 DUP3 DUP5 SUB SLT ISZERO PUSH2 0x1082 JUMPI PUSH0 PUSH0 REVERT JUMPDEST POP MLOAD SWAP2 SWAP1 POP JUMP JUMPDEST PUSH0 PUSH1 0x20 DUP3 DUP5 SUB SLT ISZERO PUSH2 0x1099 JUMPI PUSH0 PUSH0 REVERT JUMPDEST DUP2 MLOAD DUP1 ISZERO ISZERO DUP2 EQ PUSH2 0xBED JUMPI PUSH0 PUSH0 REVERT JUMPDEST PUSH0 PUSH1 0x20 DUP3 DUP5 SUB SLT ISZERO PUSH2 0x10B8 JUMPI PUSH0 PUSH0 REVERT JUMPDEST DUP2 MLOAD PUSH1 0x1 PUSH1 0x1 PUSH1 0x40 SHL SUB DUP2 GT ISZERO PUSH2 0x10CD JUMPI PUSH0 PUSH0 REVERT JUMPDEST DUP3 ADD PUSH1 0x1F DUP2 ADD DUP5 SGT PUSH2 0x10DD JUMPI PUSH0 PUSH0 REVERT JUMPDEST DUP1 MLOAD PUSH1 0x1 PUSH1 0x1 PUSH1 0x40 SHL SUB DUP2 GT ISZERO PUSH2 0x10F6 JUMPI PUSH2 0x10F6 PUSH2 0xD9B JUMP JUMPDEST PUSH1 0x40 MLOAD PUSH1 0x1F DUP3 ADD PUSH1 0x1F NOT SWAP1 DUP2 AND PUSH1 0x3F ADD AND DUP2 ADD PUSH1 0x1 PUSH1 0x1 PUSH1 0x40 SHL SUB DUP2 GT DUP3 DUP3 LT OR ISZERO PUSH2 0x1124 JUMPI PUSH2 0x1124 PUSH2 0xD9B JUMP JUMPDEST PUSH1 0x40 MSTORE DUP2 DUP2 MSTORE DUP3 DUP3 ADD PUSH1 0x20 ADD DUP7 LT ISZERO PUSH2 0x113B JUMPI PUSH0 PUSH0 REVERT JUMPDEST DUP2 PUSH1 0x20 DUP5 ADD PUSH1 0x20 DUP4 ADD MCOPY PUSH0 SWAP2 DUP2 ADD PUSH1 0x20 ADD SWAP2 SWAP1 SWAP2 MSTORE SWAP5 SWAP4 POP POP POP POP JUMP JUMPDEST PUSH0 DUP2 MLOAD DUP1 PUSH1 0x20 DUP5 ADD DUP6 MCOPY PUSH0 SWAP4 ADD SWAP3 DUP4 MSTORE POP SWAP1 SWAP2 SWAP1 POP JUMP JUMPDEST PUSH0 PUSH2 0x117A DUP3 DUP5 PUSH2 0x1158 JUMP JUMPDEST PUSH5 0x2051494E47 PUSH1 0xD8 SHL DUP2 MSTORE PUSH1 0x5 ADD SWAP4 SWAP3 POP POP POP JUMP JUMPDEST PUSH1 0x71 PUSH1 0xF8 SHL DUP2 MSTORE PUSH0 PUSH2 0xBED PUSH1 0x1 DUP4 ADD DUP5 PUSH2 0x1158 JUMP JUMPDEST PUSH0 DUP3 PUSH2 0x11B2 JUMPI PUSH2 0x11B2 PUSH2 0xF12 JUMP JUMPDEST POP DIV SWAP1 JUMP JUMPDEST DUP1 DUP3 ADD DUP1 DUP3 GT ISZERO PUSH2 0x1047 JUMPI PUSH2 0x1047 PUSH2 0xF54 JUMP JUMPDEST PUSH2 0x4061 DUP1 PUSH2 0x11D7 PUSH0 CODECOPY PUSH0 RETURN INVALID PUSH1 0x80 PUSH1 0x40 MSTORE CALLVALUE DUP1 ISZERO PUSH2 0xF JUMPI PUSH0 PUSH0 REVERT JUMPDEST POP PUSH1 0x4 CALLDATASIZE LT PUSH2 0x281 JUMPI PUSH0 CALLDATALOAD PUSH1 0xE0 SHR DUP1 PUSH4 0x7065CB48 GT PUSH2 0x156 JUMPI DUP1 PUSH4 0xAC8F5EAD GT PUSH2 0xCA JUMPI DUP1 PUSH4 0xDD62ED3E GT PUSH2 0x84 JUMPI DUP1 PUSH4 0xDD62ED3E EQ PUSH2 0x5BC JUMPI DUP1 PUSH4 0xDF42E80E EQ PUSH2 0x5CF JUMPI DUP1 PUSH4 0xF4E6C93F EQ PUSH2 0x5E2 JUMPI DUP1 PUSH4 0xF6859792 EQ PUSH2 0x5EA JUMPI DUP1 PUSH4 0xFBE5A232 EQ PUSH2 0x5FD JUMPI DUP1 PUSH4 0xFF762044 EQ PUSH2 0x606 JUMPI PUSH0 PUSH0 REVERT JUMPDEST DUP1 PUSH4 0xAC8F5EAD EQ PUSH2 0x532 JUMPI DUP1 PUSH4 0xB46C0AC3 EQ PUSH2 0x53A JUMPI DUP1 PUSH4 0xB4F8B70C EQ PUSH2 0x56D JUMPI DUP1 PUSH4 0xD3DC2A0F EQ PUSH2 0x580 JUMPI DUP1 PUSH4 0xD5ABEB01 EQ PUSH2 0x5A6 JUMPI DUP1 PUSH4 0xD5CA77C4 EQ PUSH2 0x5AF JUMPI PUSH0 PUSH0 REVERT JUMPDEST DUP1 PUSH4 0x884EDAD9 GT PUSH2 0x11B JUMPI DUP1 PUSH4 0x884EDAD9 EQ PUSH2 0x4E2 JUMPI DUP1 PUSH4 0x8DA5CB5B EQ PUSH2 0x4F5 JUMPI DUP1 PUSH4 0x95D89B41 EQ PUSH2 0x4FB JUMPI DUP1 PUSH4 0x9DCBF7EA EQ PUSH2 0x503 JUMPI DUP1 PUSH4 0xA138DA0B EQ PUSH2 0x516 JUMPI DUP1 PUSH4 0xA9059CBB EQ PUSH2 0x51F JUMPI PUSH0 PUSH0 REVERT JUMPDEST DUP1 PUSH4 0x7065CB48 EQ PUSH2 0x46E JUMPI DUP1 PUSH4 0x70A08231 EQ PUSH2 0x481 JUMPI DUP1 PUSH4 0x7B166306 EQ PUSH2 0x4A9 JUMPI DUP1 PUSH4 0x7DFE96F3 EQ PUSH2 0x4BC JUMPI DUP1 PUSH4 0x8677E743 EQ PUSH2 0x4CF JUMPI PUSH0 PUSH0 REVERT JUMPDEST DUP1 PUSH4 0x2B83B1FC GT PUSH2 0x1F8 JUMPI DUP1 PUSH4 0x3C7E0C00 GT PUSH2 0x1B2 JUMPI DUP1 PUSH4 0x3C7E0C00 EQ PUSH2 0x3F8 JUMPI DUP1 PUSH4 0x40F7D1B7 EQ PUSH2 0x40B JUMPI DUP1 PUSH4 0x61D78262 EQ PUSH2 0x420 JUMPI DUP1 PUSH4 0x666E1B39 EQ PUSH2 0x435 JUMPI DUP1 PUSH4 0x6872FC3C EQ PUSH2 0x448 JUMPI DUP1 PUSH4 0x6FB7329C EQ PUSH2 0x45B JUMPI PUSH0 PUSH0 REVERT JUMPDEST DUP1 PUSH4 0x2B83B1FC EQ PUSH2 0x380 JUMPI DUP1 PUSH4 0x313CE567 EQ PUSH2 0x3A8 JUMPI DUP1 PUSH4 0x328D13E3 EQ PUSH2 0x3B7 JUMPI DUP1 PUSH4 0x3764D772 EQ PUSH2 0x3CA JUMPI DUP1 PUSH4 0x37D74FFE EQ PUSH2 0x3D2 JUMPI DUP1 PUSH4 0x38BF3CFA EQ PUSH2 0x3E5 JUMPI PUSH0 PUSH0 REVERT JUMPDEST DUP1 PUSH4 0xD4EC845 GT PUSH2 0x249 JUMPI DUP1 PUSH4 0xD4EC845 EQ PUSH2 0x30F JUMPI DUP1 PUSH4 0x18160DDD EQ PUSH2 0x322 JUMPI DUP1 PUSH4 0x21516FC4 EQ PUSH2 0x334 JUMPI DUP1 PUSH4 0x222838DB EQ PUSH2 0x347 JUMPI DUP1 PUSH4 0x23B872DD EQ PUSH2 0x35A JUMPI DUP1 PUSH4 0x2499A533 EQ PUSH2 0x36D JUMPI PUSH0 PUSH0 REVERT JUMPDEST DUP1 PUSH4 0x6FDDE03 EQ PUSH2 0x285 JUMPI DUP1 PUSH4 0x764C80C EQ PUSH2 0x2A3 JUMPI DUP1 PUSH4 0x95EA7B3 EQ PUSH2 0x2B8 JUMPI DUP1 PUSH4 0x9D162E7 EQ PUSH2 0x2DB JUMPI DUP1 PUSH4 0xAAE7978 EQ PUSH2 0x2EE JUMPI JUMPDEST PUSH0 PUSH0 REVERT JUMPDEST PUSH2 0x28D PUSH2 0x629 JUMP JUMPDEST PUSH1 0x40 MLOAD PUSH2 0x29A SWAP2 SWAP1 PUSH2 0x32BD JUMP JUMPDEST PUSH1 0x40 MLOAD DUP1 SWAP2 SUB SWAP1 RETURN JUMPDEST PUSH2 0x2B6 PUSH2 0x2B1 CALLDATASIZE PUSH1 0x4 PUSH2 0x32E3 JUMP JUMPDEST PUSH2 0x6B9 JUMP JUMPDEST STOP JUMPDEST PUSH2 0x2CB PUSH2 0x2C6 CALLDATASIZE PUSH1 0x4 PUSH2 0x32FE JUMP JUMPDEST PUSH2 0xE74 JUMP JUMPDEST PUSH1 0x40 MLOAD SWAP1 ISZERO ISZERO DUP2 MSTORE PUSH1 0x20 ADD PUSH2 0x29A JUMP JUMPDEST PUSH2 0x2B6 PUSH2 0x2E9 CALLDATASIZE PUSH1 0x4 PUSH2 0x342F JUMP JUMPDEST PUSH2 0xE8D JUMP JUMPDEST PUSH1 0xC SLOAD PUSH2 0x2FC SWAP1 PUSH2 0xFFFF AND DUP2 JUMP JUMPDEST PUSH1 0x40 MLOAD PUSH2 0xFFFF SWAP1 SWAP2 AND DUP2 MSTORE PUSH1 0x20 ADD PUSH2 0x29A JUMP JUMPDEST PUSH2 0x2B6 PUSH2 0x31D CALLDATASIZE PUSH1 0x4 PUSH2 0x32E3 JUMP JUMPDEST PUSH2 0x10F5 JUMP JUMPDEST PUSH1 0x3 SLOAD JUMPDEST PUSH1 0x40 MLOAD SWAP1 DUP2 MSTORE PUSH1 0x20 ADD PUSH2 0x29A JUMP JUMPDEST PUSH2 0x2B6 PUSH2 0x342 CALLDATASIZE PUSH1 0x4 PUSH2 0x347B JUMP JUMPDEST PUSH2 0x1125 JUMP JUMPDEST PUSH2 0x2B6 PUSH2 0x355 CALLDATASIZE PUSH1 0x4 PUSH2 0x32FE JUMP JUMPDEST PUSH2 0x1561 JUMP JUMPDEST PUSH2 0x2CB PUSH2 0x368 CALLDATASIZE PUSH1 0x4 PUSH2 0x34B4 JUMP JUMPDEST PUSH2 0x1759 JUMP JUMPDEST PUSH2 0x2B6 PUSH2 0x37B CALLDATASIZE PUSH1 0x4 PUSH2 0x32FE JUMP JUMPDEST PUSH2 0x177C JUMP JUMPDEST PUSH2 0x326 PUSH2 0x38E CALLDATASIZE PUSH1 0x4 PUSH2 0x32E3 JUMP JUMPDEST PUSH1 0x1 PUSH1 0x1 PUSH1 0xA0 SHL SUB AND PUSH0 SWAP1 DUP2 MSTORE PUSH1 0x8 PUSH1 0x20 MSTORE PUSH1 0x40 SWAP1 KECCAK256 SLOAD SWAP1 JUMP JUMPDEST PUSH1 0x40 MLOAD PUSH1 0x12 DUP2 MSTORE PUSH1 0x20 ADD PUSH2 0x29A JUMP JUMPDEST PUSH2 0x2B6 PUSH2 0x3C5 CALLDATASIZE PUSH1 0x4 PUSH2 0x34FF JUMP JUMPDEST PUSH2 0x192A JUMP JUMPDEST PUSH2 0x2B6 PUSH2 0x195C JUMP JUMPDEST PUSH2 0x2CB PUSH2 0x3E0 CALLDATASIZE PUSH1 0x4 PUSH2 0x32E3 JUMP JUMPDEST PUSH2 0x1C1F JUMP JUMPDEST PUSH2 0x2B6 PUSH2 0x3F3 CALLDATASIZE PUSH1 0x4 PUSH2 0x32E3 JUMP JUMPDEST PUSH2 0x1E64 JUMP JUMPDEST PUSH2 0x2B6 PUSH2 0x406 CALLDATASIZE PUSH1 0x4 PUSH2 0x3536 JUMP JUMPDEST PUSH2 0x1E76 JUMP JUMPDEST PUSH2 0x413 PUSH2 0x1E96 JUMP JUMPDEST PUSH1 0x40 MLOAD PUSH2 0x29A SWAP2 SWAP1 PUSH2 0x3557 JUMP JUMPDEST PUSH2 0x428 PUSH2 0x1F1C JUMP JUMPDEST PUSH1 0x40 MLOAD PUSH2 0x29A SWAP2 SWAP1 PUSH2 0x35A2 JUMP JUMPDEST PUSH2 0x2CB PUSH2 0x443 CALLDATASIZE PUSH1 0x4 PUSH2 0x32E3 JUMP JUMPDEST PUSH2 0x2008 JUMP JUMPDEST PUSH1 0x9 SLOAD PUSH2 0x428 SWAP1 PUSH1 0x1 PUSH1 0x1 PUSH1 0xA0 SHL SUB AND DUP2 JUMP JUMPDEST PUSH1 0x6 SLOAD PUSH2 0x428 SWAP1 PUSH1 0x1 PUSH1 0x1 PUSH1 0xA0 SHL SUB AND DUP2 JUMP JUMPDEST PUSH2 0x2B6 PUSH2 0x47C CALLDATASIZE PUSH1 0x4 PUSH2 0x32E3 JUMP JUMPDEST PUSH2 0x2025 JUMP JUMPDEST PUSH2 0x326 PUSH2 0x48F CALLDATASIZE PUSH1 0x4 PUSH2 0x32E3 JUMP JUMPDEST PUSH1 0x1 PUSH1 0x1 PUSH1 0xA0 SHL SUB AND PUSH0 SWAP1 DUP2 MSTORE PUSH1 0x1 PUSH1 0x20 MSTORE PUSH1 0x40 SWAP1 KECCAK256 SLOAD SWAP1 JUMP JUMPDEST PUSH2 0x2B6 PUSH2 0x4B7 CALLDATASIZE PUSH1 0x4 PUSH2 0x35B6 JUMP JUMPDEST PUSH2 0x2065 JUMP JUMPDEST PUSH2 0x2B6 PUSH2 0x4CA CALLDATASIZE PUSH1 0x4 PUSH2 0x35D1 JUMP JUMPDEST PUSH2 0x2080 JUMP JUMPDEST PUSH2 0x2B6 PUSH2 0x4DD CALLDATASIZE PUSH1 0x4 PUSH2 0x35E8 JUMP JUMPDEST PUSH2 0x208D JUMP JUMPDEST PUSH2 0x2B6 PUSH2 0x4F0 CALLDATASIZE PUSH1 0x4 PUSH2 0x32FE JUMP JUMPDEST PUSH2 0x20F7 JUMP JUMPDEST ADDRESS PUSH2 0x428 JUMP JUMPDEST PUSH2 0x28D PUSH2 0x2365 JUMP JUMPDEST PUSH2 0x2B6 PUSH2 0x511 CALLDATASIZE PUSH1 0x4 PUSH2 0x362B JUMP JUMPDEST PUSH2 0x2374 JUMP JUMPDEST PUSH2 0x326 PUSH1 0xB SLOAD DUP2 JUMP JUMPDEST PUSH2 0x2CB PUSH2 0x52D CALLDATASIZE PUSH1 0x4 PUSH2 0x32FE JUMP JUMPDEST PUSH2 0x239A JUMP JUMPDEST PUSH2 0x2B6 PUSH2 0x23A7 JUMP JUMPDEST PUSH2 0x54D PUSH2 0x548 CALLDATASIZE PUSH1 0x4 PUSH2 0x368C JUMP JUMPDEST PUSH2 0x243E JUMP JUMPDEST PUSH1 0x40 DUP1 MLOAD PUSH1 0x1 PUSH1 0x1 PUSH1 0x40 SHL SUB SWAP4 DUP5 AND DUP2 MSTORE SWAP3 SWAP1 SWAP2 AND PUSH1 0x20 DUP4 ADD MSTORE ADD PUSH2 0x29A JUMP JUMPDEST PUSH2 0x2B6 PUSH2 0x57B CALLDATASIZE PUSH1 0x4 PUSH2 0x36B8 JUMP JUMPDEST PUSH2 0x285A JUMP JUMPDEST PUSH2 0x58E PUSH7 0x3632C8EB5AF3B DUP2 JUMP JUMPDEST PUSH1 0x40 MLOAD PUSH1 0x1 PUSH1 0x1 PUSH1 0x40 SHL SUB SWAP1 SWAP2 AND DUP2 MSTORE PUSH1 0x20 ADD PUSH2 0x29A JUMP JUMPDEST PUSH2 0x326 PUSH1 0x7 SLOAD DUP2 JUMP JUMPDEST PUSH1 0xE SLOAD PUSH2 0x2CB SWAP1 PUSH1 0xFF AND DUP2 JUMP JUMPDEST PUSH2 0x326 PUSH2 0x5CA CALLDATASIZE PUSH1 0x4 PUSH2 0x36D4 JUMP JUMPDEST PUSH2 0x2BCB JUMP JUMPDEST PUSH1 0xA SLOAD PUSH2 0x428 SWAP1 PUSH1 0x1 PUSH1 0x1 PUSH1 0xA0 SHL SUB AND DUP2 JUMP JUMPDEST PUSH2 0x2B6 PUSH2 0x2BF5 JUMP JUMPDEST PUSH2 0x2B6 PUSH2 0x5F8 CALLDATASIZE PUSH1 0x4 PUSH2 0x347B JUMP JUMPDEST PUSH2 0x2C07 JUMP JUMPDEST PUSH2 0x326 PUSH1 0xD SLOAD DUP2 JUMP JUMPDEST PUSH2 0x28D PUSH1 0x40 MLOAD DUP1 PUSH1 0x40 ADD PUSH1 0x40 MSTORE DUP1 PUSH1 0x4 DUP2 MSTORE PUSH1 0x20 ADD PUSH4 0x51494E47 PUSH1 0xE0 SHL DUP2 MSTORE POP DUP2 JUMP JUMPDEST PUSH1 0x60 PUSH1 0x4 DUP1 SLOAD PUSH2 0x638 SWAP1 PUSH2 0x3700 JUMP JUMPDEST DUP1 PUSH1 0x1F ADD PUSH1 0x20 DUP1 SWAP2 DIV MUL PUSH1 0x20 ADD PUSH1 0x40 MLOAD SWAP1 DUP2 ADD PUSH1 0x40 MSTORE DUP1 SWAP3 SWAP2 SWAP1 DUP2 DUP2 MSTORE PUSH1 0x20 ADD DUP3 DUP1 SLOAD PUSH2 0x664 SWAP1 PUSH2 0x3700 JUMP JUMPDEST DUP1 ISZERO PUSH2 0x6AF JUMPI DUP1 PUSH1 0x1F LT PUSH2 0x686 JUMPI PUSH2 0x100 DUP1 DUP4 SLOAD DIV MUL DUP4 MSTORE SWAP2 PUSH1 0x20 ADD SWAP2 PUSH2 0x6AF JUMP JUMPDEST DUP3 ADD SWAP2 SWAP1 PUSH0 MSTORE PUSH1 0x20 PUSH0 KECCAK256 SWAP1 JUMPDEST DUP2 SLOAD DUP2 MSTORE SWAP1 PUSH1 0x1 ADD SWAP1 PUSH1 0x20 ADD DUP1 DUP4 GT PUSH2 0x692 JUMPI DUP3 SWAP1 SUB PUSH1 0x1F AND DUP3 ADD SWAP2 JUMPDEST POP POP POP POP POP SWAP1 POP SWAP1 JUMP JUMPDEST PUSH1 0x9 SLOAD PUSH1 0x40 DUP1 MLOAD PUSH4 0x70F6B739 PUSH1 0xE1 SHL DUP2 MSTORE SWAP1 MLOAD PUSH0 SWAP3 PUSH1 0x1 PUSH1 0x1 PUSH1 0xA0 SHL SUB AND SWAP2 PUSH4 0xE1ED6E72 SWAP2 PUSH1 0x4 DUP1 DUP4 ADD SWAP3 PUSH1 0x20 SWAP3 SWAP2 SWAP1 DUP3 SWAP1 SUB ADD DUP2 DUP7 GAS STATICCALL ISZERO DUP1 ISZERO PUSH2 0x700 JUMPI RETURNDATASIZE PUSH0 PUSH0 RETURNDATACOPY RETURNDATASIZE PUSH0 REVERT JUMPDEST POP POP POP POP PUSH1 0x40 MLOAD RETURNDATASIZE PUSH1 0x1F NOT PUSH1 0x1F DUP3 ADD AND DUP3 ADD DUP1 PUSH1 0x40 MSTORE POP DUP2 ADD SWAP1 PUSH2 0x724 SWAP2 SWAP1 PUSH2 0x3748 JUMP JUMPDEST PUSH1 0x9 SLOAD PUSH1 0x40 MLOAD PUSH4 0xFCEF603D PUSH1 0xE0 SHL DUP2 MSTORE SWAP2 SWAP3 POP PUSH1 0x1 PUSH1 0x1 PUSH1 0xA0 SHL SUB AND SWAP1 PUSH4 0xFCEF603D SWAP1 PUSH2 0x755 SWAP1 DUP6 SWAP1 PUSH1 0x4 ADD PUSH2 0x35A2 JUMP JUMPDEST PUSH0 PUSH1 0x40 MLOAD DUP1 DUP4 SUB DUP2 PUSH0 DUP8 DUP1 EXTCODESIZE ISZERO DUP1 ISZERO PUSH2 0x76C JUMPI PUSH0 PUSH0 REVERT JUMPDEST POP GAS CALL ISZERO DUP1 ISZERO PUSH2 0x77E JUMPI RETURNDATASIZE PUSH0 PUSH0 RETURNDATACOPY RETURNDATASIZE PUSH0 REVERT JUMPDEST POP POP POP POP PUSH1 0x1 PUSH1 0x1 PUSH1 0x40 SHL SUB DUP2 AND PUSH0 SWAP1 DUP2 MSTORE PUSH1 0x11 PUSH1 0x20 MSTORE PUSH1 0x40 SWAP1 KECCAK256 PUSH1 0x1 ADD SLOAD PUSH1 0x1 PUSH1 0x1 PUSH1 0xA0 SHL SUB DUP4 DUP2 AND SWAP2 AND SUB PUSH2 0x7D3 JUMPI DUP2 PUSH1 0x40 MLOAD PUSH4 0x7CA7FCF1 PUSH1 0xE1 SHL DUP2 MSTORE PUSH1 0x4 ADD PUSH2 0x7CA SWAP2 SWAP1 PUSH2 0x35A2 JUMP JUMPDEST PUSH1 0x40 MLOAD DUP1 SWAP2 SUB SWAP1 REVERT JUMPDEST PUSH1 0x1 PUSH1 0x1 PUSH1 0xA0 SHL SUB DUP3 AND PUSH0 SWAP1 DUP2 MSTORE PUSH1 0x10 PUSH1 0x20 MSTORE PUSH1 0x40 SWAP1 KECCAK256 SLOAD TIMESTAMP GT DUP1 ISZERO PUSH2 0x7FA JUMPI POP PUSH0 PUSH1 0xD SLOAD GT JUMPDEST ISZERO PUSH2 0x94B JUMPI PUSH1 0xD SLOAD PUSH1 0xA SLOAD PUSH1 0x40 MLOAD PUSH4 0x6EB1769F PUSH1 0xE1 SHL DUP2 MSTORE CALLER PUSH1 0x4 DUP3 ADD MSTORE ADDRESS PUSH1 0x24 DUP3 ADD MSTORE PUSH1 0x1 PUSH1 0x1 PUSH1 0xA0 SHL SUB SWAP1 SWAP2 AND SWAP1 PUSH4 0xDD62ED3E SWAP1 PUSH1 0x44 ADD PUSH1 0x20 PUSH1 0x40 MLOAD DUP1 DUP4 SUB DUP2 DUP7 GAS STATICCALL ISZERO DUP1 ISZERO PUSH2 0x84E JUMPI RETURNDATASIZE PUSH0 PUSH0 RETURNDATACOPY RETURNDATASIZE PUSH0 REVERT JUMPDEST POP POP POP POP PUSH1 0x40 MLOAD RETURNDATASIZE PUSH1 0x1F NOT PUSH1 0x1F DUP3 ADD AND DUP3 ADD DUP1 PUSH1 0x40 MSTORE POP DUP2 ADD SWAP1 PUSH2 0x872 SWAP2 SWAP1 PUSH2 0x3763 JUMP JUMPDEST GT PUSH2 0x8AF JUMPI PUSH1 0xA SLOAD PUSH1 0xD SLOAD PUSH1 0x1 PUSH1 0x1 PUSH1 0xA0 SHL SUB SWAP1 SWAP2 AND SWAP1 PUSH2 0x894 SWAP1 PUSH1 0x1 PUSH2 0x378E JUMP JUMPDEST PUSH1 0x40 MLOAD PUSH4 0x34A76645 PUSH1 0xE1 SHL DUP2 MSTORE PUSH1 0x4 ADD PUSH2 0x7CA SWAP3 SWAP2 SWAP1 PUSH2 0x37A1 JUMP JUMPDEST PUSH1 0xA SLOAD PUSH1 0xD SLOAD PUSH1 0x40 MLOAD PUSH4 0x23B872DD PUSH1 0xE0 SHL DUP2 MSTORE PUSH0 SWAP3 PUSH1 0x1 PUSH1 0x1 PUSH1 0xA0 SHL SUB AND SWAP2 PUSH4 0x23B872DD SWAP2 PUSH2 0x8E5 SWAP2 CALLER SWAP2 ADDRESS SWAP2 SWAP1 PUSH1 0x4 ADD PUSH2 0x37BA JUMP JUMPDEST PUSH1 0x20 PUSH1 0x40 MLOAD DUP1 DUP4 SUB DUP2 PUSH0 DUP8 GAS CALL ISZERO DUP1 ISZERO PUSH2 0x901 JUMPI RETURNDATASIZE PUSH0 PUSH0 RETURNDATACOPY RETURNDATASIZE PUSH0 REVERT JUMPDEST POP POP POP POP PUSH1 0x40 MLOAD RETURNDATASIZE PUSH1 0x1F NOT PUSH1 0x1F DUP3 ADD AND DUP3 ADD DUP1 PUSH1 0x40 MSTORE POP DUP2 ADD SWAP1 PUSH2 0x925 SWAP2 SWAP1 PUSH2 0x37DE JUMP JUMPDEST SWAP1 POP DUP1 PUSH2 0x949 JUMPI PUSH1 0xA SLOAD PUSH1 0xD SLOAD PUSH1 0x1 PUSH1 0x1 PUSH1 0xA0 SHL SUB SWAP1 SWAP2 AND SWAP1 PUSH2 0x894 SWAP1 PUSH1 0x1 PUSH2 0x378E JUMP JUMPDEST POP JUMPDEST PUSH1 0x1 PUSH1 0x1 PUSH1 0xA0 SHL SUB DUP3 AND PUSH0 SWAP1 DUP2 MSTORE PUSH1 0x10 PUSH1 0x20 MSTORE PUSH1 0x40 SWAP1 KECCAK256 SLOAD TIMESTAMP GT ISZERO PUSH2 0xE60 JUMPI PUSH1 0x9 SLOAD PUSH1 0x40 MLOAD PUSH4 0x1BD173A9 PUSH1 0xE1 SHL DUP2 MSTORE PUSH0 SWAP2 PUSH1 0x1 PUSH1 0x1 PUSH1 0xA0 SHL SUB AND SWAP1 PUSH4 0x37A2E752 SWAP1 PUSH2 0x99A SWAP1 DUP7 SWAP1 PUSH1 0x4 ADD PUSH2 0x35A2 JUMP JUMPDEST PUSH0 PUSH1 0x40 MLOAD DUP1 DUP4 SUB DUP2 PUSH0 DUP8 GAS CALL ISZERO DUP1 ISZERO PUSH2 0x9B5 JUMPI RETURNDATASIZE PUSH0 PUSH0 RETURNDATACOPY RETURNDATASIZE PUSH0 REVERT JUMPDEST POP POP POP POP PUSH1 0x40 MLOAD RETURNDATASIZE PUSH0 DUP3 RETURNDATACOPY PUSH1 0x1F RETURNDATASIZE SWAP1 DUP2 ADD PUSH1 0x1F NOT AND DUP3 ADD PUSH1 0x40 MSTORE PUSH2 0x9DC SWAP2 SWAP1 DUP2 ADD SWAP1 PUSH2 0x3851 JUMP JUMPDEST SWAP1 POP PUSH32 0xC3C8EF8ACE382D68D03CFDED2642151DAE0B300D3CB604B727071FE036A292EE DUP2 PUSH0 ADD MLOAD PUSH1 0x9 PUSH0 SWAP1 SLOAD SWAP1 PUSH2 0x100 EXP SWAP1 DIV PUSH1 0x1 PUSH1 0x1 PUSH1 0xA0 SHL SUB AND PUSH1 0x1 PUSH1 0x1 PUSH1 0xA0 SHL SUB AND PUSH4 0xF4F6C22C PUSH1 0x40 MLOAD DUP2 PUSH4 0xFFFFFFFF AND PUSH1 0xE0 SHL DUP2 MSTORE PUSH1 0x4 ADD PUSH1 0x20 PUSH1 0x40 MLOAD DUP1 DUP4 SUB DUP2 DUP7 GAS STATICCALL ISZERO DUP1 ISZERO PUSH2 0xA53 JUMPI RETURNDATASIZE PUSH0 PUSH0 RETURNDATACOPY RETURNDATASIZE PUSH0 REVERT JUMPDEST POP POP POP POP PUSH1 0x40 MLOAD RETURNDATASIZE PUSH1 0x1F NOT PUSH1 0x1F DUP3 ADD AND DUP3 ADD DUP1 PUSH1 0x40 MSTORE POP DUP2 ADD SWAP1 PUSH2 0xA77 SWAP2 SWAP1 PUSH2 0x398F JUMP JUMPDEST PUSH1 0x1 PUSH1 0x1 PUSH1 0xA0 SHL SUB AND PUSH4 0x9FF43001 PUSH1 0x40 MLOAD DUP2 PUSH4 0xFFFFFFFF AND PUSH1 0xE0 SHL DUP2 MSTORE PUSH1 0x4 ADD PUSH1 0x20 PUSH1 0x40 MLOAD DUP1 DUP4 SUB DUP2 PUSH0 DUP8 GAS CALL ISZERO DUP1 ISZERO PUSH2 0xAB3 JUMPI RETURNDATASIZE PUSH0 PUSH0 RETURNDATACOPY RETURNDATASIZE PUSH0 REVERT JUMPDEST POP POP POP POP PUSH1 0x40 MLOAD RETURNDATASIZE PUSH1 0x1F NOT PUSH1 0x1F DUP3 ADD AND DUP3 ADD DUP1 PUSH1 0x40 MSTORE POP DUP2 ADD SWAP1 PUSH2 0xAD7 SWAP2 SWAP1 PUSH2 0x398F JUMP JUMPDEST PUSH1 0x1 PUSH1 0x1 PUSH1 0xA0 SHL SUB AND PUSH4 0x27BACC40 PUSH1 0x40 MLOAD DUP2 PUSH4 0xFFFFFFFF AND PUSH1 0xE0 SHL DUP2 MSTORE PUSH1 0x4 ADD PUSH1 0x20 PUSH1 0x40 MLOAD DUP1 DUP4 SUB DUP2 DUP7 GAS STATICCALL ISZERO DUP1 ISZERO PUSH2 0xB12 JUMPI RETURNDATASIZE PUSH0 PUSH0 RETURNDATACOPY RETURNDATASIZE PUSH0 REVERT JUMPDEST POP POP POP POP PUSH1 0x40 MLOAD RETURNDATASIZE PUSH1 0x1F NOT PUSH1 0x1F DUP3 ADD AND DUP3 ADD DUP1 PUSH1 0x40 MSTORE POP DUP2 ADD SWAP1 PUSH2 0xB36 SWAP2 SWAP1 PUSH2 0x3748 JUMP JUMPDEST DUP4 PUSH1 0x40 ADD MLOAD PUSH1 0x40 MLOAD PUSH2 0xB4A SWAP4 SWAP3 SWAP2 SWAP1 PUSH2 0x39AA JUMP JUMPDEST PUSH1 0x40 MLOAD DUP1 SWAP2 SUB SWAP1 LOG1 DUP1 MLOAD PUSH1 0x9 SLOAD PUSH1 0x40 DUP1 MLOAD PUSH4 0x3D3DB08B PUSH1 0xE2 SHL DUP2 MSTORE SWAP1 MLOAD PUSH2 0xC81 SWAP4 SWAP3 PUSH1 0x1 PUSH1 0x1 PUSH1 0xA0 SHL SUB AND SWAP2 PUSH4 0xF4F6C22C SWAP2 PUSH1 0x4 DUP1 DUP4 ADD SWAP3 PUSH1 0x20 SWAP3 SWAP2 SWAP1 DUP3 SWAP1 SUB ADD DUP2 DUP7 GAS STATICCALL ISZERO DUP1 ISZERO PUSH2 0xB9E JUMPI RETURNDATASIZE PUSH0 PUSH0 RETURNDATACOPY RETURNDATASIZE PUSH0 REVERT JUMPDEST POP POP POP POP PUSH1 0x40 MLOAD RETURNDATASIZE PUSH1 0x1F NOT PUSH1 0x1F DUP3 ADD AND DUP3 ADD DUP1 PUSH1 0x40 MSTORE POP DUP2 ADD SWAP1 PUSH2 0xBC2 SWAP2 SWAP1 PUSH2 0x398F JUMP JUMPDEST PUSH1 0x1 PUSH1 0x1 PUSH1 0xA0 SHL SUB AND PUSH4 0x9FF43001 PUSH1 0x40 MLOAD DUP2 PUSH4 0xFFFFFFFF AND PUSH1 0xE0 SHL DUP2 MSTORE PUSH1 0x4 ADD PUSH1 0x20 PUSH1 0x40 MLOAD DUP1 DUP4 SUB DUP2 PUSH0 DUP8 GAS CALL ISZERO DUP1 ISZERO PUSH2 0xBFE JUMPI RETURNDATASIZE PUSH0 PUSH0 RETURNDATACOPY RETURNDATASIZE PUSH0 REVERT JUMPDEST POP POP POP POP PUSH1 0x40 MLOAD RETURNDATASIZE PUSH1 0x1F NOT PUSH1 0x1F DUP3 ADD AND DUP3 ADD DUP1 PUSH1 0x40 MSTORE POP DUP2 ADD SWAP1 PUSH2 0xC22 SWAP2 SWAP1 PUSH2 0x398F JUMP JUMPDEST PUSH1 0x1 PUSH1 0x1 PUSH1 0xA0 SHL SUB AND PUSH4 0x27BACC40 PUSH1 0x40 MLOAD DUP2 PUSH4 0xFFFFFFFF AND PUSH1 0xE0 SHL DUP2 MSTORE PUSH1 0x4 ADD PUSH1 0x20 PUSH1 0x40 MLOAD DUP1 DUP4 SUB DUP2 DUP7 GAS STATICCALL ISZERO DUP1 ISZERO PUSH2 0xC5D JUMPI RETURNDATASIZE PUSH0 PUSH0 RETURNDATACOPY RETURNDATASIZE PUSH0 REVERT JUMPDEST POP POP POP POP PUSH1 0x40 MLOAD RETURNDATASIZE PUSH1 0x1F NOT PUSH1 0x1F DUP3 ADD AND DUP3 ADD DUP1 PUSH1 0x40 MSTORE POP DUP2 ADD SWAP1 PUSH2 0x548 SWAP2 SWAP1 PUSH2 0x3748 JUMP JUMPDEST PUSH1 0x20 DUP4 DUP2 ADD DUP1 MLOAD PUSH1 0x1 PUSH1 0x1 PUSH1 0x40 SHL SUB SWAP4 DUP5 AND PUSH1 0xE0 DUP1 DUP4 ADD SWAP2 SWAP1 SWAP2 MSTORE SWAP5 DUP5 AND PUSH1 0xC0 SWAP2 DUP3 ADD MSTORE DUP6 MLOAD DUP5 AND PUSH0 SWAP1 DUP2 MSTORE PUSH1 0x11 DUP5 MSTORE PUSH1 0x40 SWAP1 DUP2 SWAP1 KECCAK256 DUP8 MLOAD DUP2 SLOAD PUSH8 0xFFFFFFFFFFFFFFFF NOT AND SWAP1 DUP8 AND OR DUP2 SSTORE SWAP3 MLOAD DUP1 MLOAD PUSH1 0x1 DUP6 ADD DUP1 SLOAD PUSH1 0x1 PUSH1 0x1 PUSH1 0xA0 SHL SUB NOT AND PUSH1 0x1 PUSH1 0x1 PUSH1 0xA0 SHL SUB SWAP3 DUP4 AND OR SWAP1 SSTORE SWAP5 DUP2 ADD MLOAD PUSH1 0x2 DUP6 ADD DUP1 SLOAD DUP4 DUP6 ADD MLOAD SWAP3 DUP9 AND PUSH1 0x1 PUSH1 0x1 PUSH1 0xE0 SHL SUB NOT SWAP2 DUP3 AND OR PUSH1 0x1 PUSH1 0xA0 SHL SWAP4 DUP11 AND SWAP4 SWAP1 SWAP4 MUL SWAP3 SWAP1 SWAP3 OR SWAP1 SSTORE PUSH1 0x60 DUP3 ADD MLOAD PUSH1 0x3 DUP7 ADD DUP1 SLOAD PUSH1 0x80 DUP6 ADD MLOAD SWAP3 DUP11 AND SWAP4 AND SWAP3 SWAP1 SWAP3 OR PUSH1 0x1 PUSH1 0x40 SHL SWAP2 SWAP1 SWAP8 AND DUP2 MUL SWAP7 SWAP1 SWAP7 OR SWAP1 SSTORE PUSH1 0xA0 DUP2 ADD MLOAD PUSH1 0x4 DUP6 ADD DUP1 SLOAD SWAP5 DUP4 ADD MLOAD SWAP3 SWAP1 SWAP9 ADD MLOAD SWAP1 DUP8 AND PUSH1 0x1 PUSH1 0x1 PUSH1 0x80 SHL SUB NOT SWAP1 SWAP5 AND SWAP4 SWAP1 SWAP4 OR SWAP1 DUP7 AND SWAP1 SWAP5 MUL SWAP4 SWAP1 SWAP4 OR PUSH8 0xFFFFFFFFFFFFFFFF PUSH1 0x80 SHL NOT AND PUSH1 0x1 PUSH1 0x80 SHL SWAP2 SWAP1 SWAP5 AND MUL SWAP3 SWAP1 SWAP3 OR SWAP1 SWAP3 SSTORE SWAP1 DUP3 ADD MLOAD DUP3 SWAP2 SWAP1 PUSH1 0x5 DUP3 ADD SWAP1 PUSH2 0xDAE SWAP1 DUP3 PUSH2 0x3A27 JUMP JUMPDEST POP PUSH1 0x60 SWAP2 SWAP1 SWAP2 ADD MLOAD PUSH1 0x6 SWAP1 SWAP2 ADD DUP1 SLOAD PUSH8 0xFFFFFFFFFFFFFFFF NOT AND PUSH1 0x1 PUSH1 0x1 PUSH1 0x40 SHL SUB SWAP1 SWAP3 AND SWAP2 SWAP1 SWAP2 OR SWAP1 SSTORE PUSH2 0xDE6 TIMESTAMP PUSH3 0x15180 PUSH2 0x378E JUMP JUMPDEST PUSH1 0x1 PUSH1 0x1 PUSH1 0xA0 SHL SUB DUP5 AND PUSH0 SWAP1 DUP2 MSTORE PUSH1 0x10 PUSH1 0x20 MSTORE PUSH1 0x40 DUP2 KECCAK256 SWAP2 SWAP1 SWAP2 SSTORE SWAP1 MLOAD PUSH1 0x12 DUP1 SLOAD PUSH1 0x1 DUP2 ADD DUP3 SSTORE SWAP3 MSTORE PUSH1 0x4 DUP3 DIV PUSH32 0xBB8A6A4669BA250D26CD7A459ECA9D215F8307E33AEBE50379BC5A3617EC3444 ADD DUP1 SLOAD PUSH1 0x1 PUSH1 0x1 PUSH1 0x40 SHL SUB SWAP3 DUP4 AND PUSH1 0x8 PUSH1 0x3 SWAP1 SWAP6 AND SWAP5 SWAP1 SWAP5 MUL PUSH2 0x100 EXP SWAP4 DUP5 MUL SWAP3 SWAP1 SWAP4 MUL NOT SWAP1 SWAP3 AND OR SWAP1 SSTORE JUMPDEST PUSH2 0xE68 PUSH2 0x195C JUMP JUMPDEST PUSH2 0xE70 PUSH2 0x2C6F JUMP JUMPDEST POP POP JUMP JUMPDEST PUSH0 CALLER PUSH2 0xE81 DUP2 DUP6 DUP6 PUSH2 0x2CB1 JUMP JUMPDEST PUSH1 0x1 SWAP2 POP POP JUMPDEST SWAP3 SWAP2 POP POP JUMP JUMPDEST PUSH2 0xE95 PUSH2 0x1F1C JUMP JUMPDEST PUSH1 0x1 PUSH1 0x1 PUSH1 0xA0 SHL SUB AND CALLER PUSH1 0x1 PUSH1 0x1 PUSH1 0xA0 SHL SUB AND EQ PUSH2 0xEC8 JUMPI ADDRESS PUSH1 0x40 MLOAD PUSH4 0xA59D7F4D PUSH1 0xE0 SHL DUP2 MSTORE PUSH1 0x4 ADD PUSH2 0x7CA SWAP2 SWAP1 PUSH2 0x35A2 JUMP JUMPDEST PUSH1 0x40 MLOAD PUSH4 0x1115DCF PUSH1 0xE3 SHL DUP2 MSTORE PUSH1 0x1 PUSH1 0x4 DUP3 ADD MSTORE DUP3 SWAP1 PUSH0 SWAP1 PUSH1 0x1 PUSH1 0x1 PUSH1 0xA0 SHL SUB DUP4 AND SWAP1 PUSH4 0x88AEE78 SWAP1 PUSH1 0x24 ADD PUSH1 0x20 PUSH1 0x40 MLOAD DUP1 DUP4 SUB DUP2 PUSH0 DUP8 GAS CALL ISZERO DUP1 ISZERO PUSH2 0xF10 JUMPI RETURNDATASIZE PUSH0 PUSH0 RETURNDATACOPY RETURNDATASIZE PUSH0 REVERT JUMPDEST POP POP POP POP PUSH1 0x40 MLOAD RETURNDATASIZE PUSH1 0x1F NOT PUSH1 0x1F DUP3 ADD AND DUP3 ADD DUP1 PUSH1 0x40 MSTORE POP DUP2 ADD SWAP1 PUSH2 0xF34 SWAP2 SWAP1 PUSH2 0x3748 JUMP JUMPDEST PUSH1 0x9 SLOAD PUSH1 0x40 MLOAD PUSH4 0xFCEF603D PUSH1 0xE0 SHL DUP2 MSTORE SWAP2 SWAP3 POP PUSH1 0x1 PUSH1 0x1 PUSH1 0xA0 SHL SUB AND SWAP1 PUSH4 0xFCEF603D SWAP1 PUSH2 0xF65 SWAP1 DUP8 SWAP1 PUSH1 0x4 ADD PUSH2 0x35A2 JUMP JUMPDEST PUSH0 PUSH1 0x40 MLOAD DUP1 DUP4 SUB DUP2 PUSH0 DUP8 DUP1 EXTCODESIZE ISZERO DUP1 ISZERO PUSH2 0xF7C JUMPI PUSH0 PUSH0 REVERT JUMPDEST POP GAS CALL ISZERO DUP1 ISZERO PUSH2 0xF8E JUMPI RETURNDATASIZE PUSH0 PUSH0 RETURNDATACOPY RETURNDATASIZE PUSH0 REVERT JUMPDEST POP POP POP POP PUSH1 0xD SLOAD PUSH0 EQ ISZERO DUP1 ISZERO PUSH2 0xFBA JUMPI POP PUSH1 0x1 PUSH1 0x1 PUSH1 0xA0 SHL SUB DUP5 AND PUSH0 SWAP1 DUP2 MSTORE PUSH1 0x10 PUSH1 0x20 MSTORE PUSH1 0x40 SWAP1 KECCAK256 SLOAD TIMESTAMP GT JUMPDEST ISZERO PUSH2 0xFE3 JUMPI PUSH1 0x40 MLOAD PUSH4 0x6A333105 PUSH1 0xE1 SHL DUP2 MSTORE PUSH1 0x1 PUSH1 0x1 PUSH1 0x40 SHL SUB DUP3 AND PUSH1 0x4 DUP3 ADD MSTORE PUSH1 0x24 ADD PUSH2 0x7CA JUMP JUMPDEST PUSH1 0xB SLOAD PUSH1 0x40 MLOAD PUSH4 0x1115DCF PUSH1 0xE3 SHL DUP2 MSTORE PUSH1 0x2 PUSH1 0x4 DUP3 ADD MSTORE PUSH32 0x8B413BA408D0E5E23FA00C5B0C5F94D771AEC2D0C991A649DAD0E23CADDB6FCF SWAP2 SWAP1 DUP4 SWAP1 PUSH1 0x1 PUSH1 0x1 PUSH1 0xA0 SHL SUB DUP7 AND SWAP1 PUSH4 0x88AEE78 SWAP1 PUSH1 0x24 ADD PUSH1 0x20 PUSH1 0x40 MLOAD DUP1 DUP4 SUB DUP2 PUSH0 DUP8 GAS CALL ISZERO DUP1 ISZERO PUSH2 0x104F JUMPI RETURNDATASIZE PUSH0 PUSH0 RETURNDATACOPY RETURNDATASIZE PUSH0 REVERT JUMPDEST POP POP POP POP PUSH1 0x40 MLOAD RETURNDATASIZE PUSH1 0x1F NOT PUSH1 0x1F DUP3 ADD AND DUP3 ADD DUP1 PUSH1 0x40 MSTORE POP DUP2 ADD SWAP1 PUSH2 0x1073 SWAP2 SWAP1 PUSH2 0x3748 JUMP JUMPDEST DUP6 PUSH1 0x1 PUSH1 0x1 PUSH1 0xA0 SHL SUB AND PUSH4 0xC584460D PUSH1 0x40 MLOAD DUP2 PUSH4 0xFFFFFFFF AND PUSH1 0xE0 SHL DUP2 MSTORE PUSH1 0x4 ADD PUSH0 PUSH1 0x40 MLOAD DUP1 DUP4 SUB DUP2 DUP7 GAS STATICCALL ISZERO DUP1 ISZERO PUSH2 0x10AE JUMPI RETURNDATASIZE PUSH0 PUSH0 RETURNDATACOPY RETURNDATASIZE PUSH0 REVERT JUMPDEST POP POP POP POP PUSH1 0x40 MLOAD RETURNDATASIZE PUSH0 DUP3 RETURNDATACOPY PUSH1 0x1F RETURNDATASIZE SWAP1 DUP2 ADD PUSH1 0x1F NOT AND DUP3 ADD PUSH1 0x40 MSTORE PUSH2 0x10D5 SWAP2 SWAP1 DUP2 ADD SWAP1 PUSH2 0x3AE1 JUMP JUMPDEST DUP8 PUSH1 0x40 MLOAD PUSH2 0x10E7 SWAP6 SWAP5 SWAP4 SWAP3 SWAP2 SWAP1 PUSH2 0x3B12 JUMP JUMPDEST PUSH1 0x40 MLOAD DUP1 SWAP2 SUB SWAP1 LOG1 POP POP POP POP JUMP JUMPDEST PUSH2 0x10FD PUSH2 0x2CBE JUMP JUMPDEST PUSH2 0x110A TIMESTAMP PUSH3 0x15180 PUSH2 0x378E JUMP JUMPDEST PUSH1 0x1 PUSH1 0x1 PUSH1 0xA0 SHL SUB SWAP1 SWAP2 AND PUSH0 SWAP1 DUP2 MSTORE PUSH1 0x10 PUSH1 0x20 MSTORE PUSH1 0x40 SWAP1 KECCAK256 SSTORE JUMP JUMPDEST PUSH1 0x9 SLOAD PUSH1 0x40 DUP1 MLOAD PUSH4 0x70F6B739 PUSH1 0xE1 SHL DUP2 MSTORE SWAP1 MLOAD PUSH0 SWAP3 PUSH1 0x1 PUSH1 0x1 PUSH1 0xA0 SHL SUB AND SWAP2 PUSH4 0xE1ED6E72 SWAP2 PUSH1 0x4 DUP1 DUP4 ADD SWAP3 PUSH1 0x20 SWAP3 SWAP2 SWAP1 DUP3 SWAP1 SUB ADD DUP2 DUP7 GAS STATICCALL ISZERO DUP1 ISZERO PUSH2 0x116C JUMPI RETURNDATASIZE PUSH0 PUSH0 RETURNDATACOPY RETURNDATASIZE PUSH0 REVERT JUMPDEST POP POP POP POP PUSH1 0x40 MLOAD RETURNDATASIZE PUSH1 0x1F NOT PUSH1 0x1F DUP3 ADD AND DUP3 ADD DUP1 PUSH1 0x40 MSTORE POP DUP2 ADD SWAP1 PUSH2 0x1190 SWAP2 SWAP1 PUSH2 0x3748 JUMP JUMPDEST SWAP1 POP PUSH2 0x119A PUSH2 0x1F1C JUMP JUMPDEST PUSH1 0xA SLOAD PUSH1 0x40 MLOAD PUSH4 0xD892146D PUSH1 0xE0 SHL DUP2 MSTORE PUSH1 0x1 PUSH1 0x1 PUSH1 0xA0 SHL SUB SWAP3 DUP4 AND SWAP3 PUSH4 0xD892146D SWAP3 PUSH2 0x11CB SWAP3 SWAP2 AND SWAP1 PUSH1 0x4 ADD PUSH2 0x35A2 JUMP JUMPDEST PUSH1 0x20 PUSH1 0x40 MLOAD DUP1 DUP4 SUB DUP2 DUP7 GAS STATICCALL ISZERO DUP1 ISZERO PUSH2 0x11E6 JUMPI RETURNDATASIZE PUSH0 PUSH0 RETURNDATACOPY RETURNDATASIZE PUSH0 REVERT JUMPDEST POP POP POP POP PUSH1 0x40 MLOAD RETURNDATASIZE PUSH1 0x1F NOT PUSH1 0x1F DUP3 ADD AND DUP3 ADD DUP1 PUSH1 0x40 MSTORE POP DUP2 ADD SWAP1 PUSH2 0x120A SWAP2 SWAP1 PUSH2 0x37DE JUMP JUMPDEST ISZERO PUSH2 0x1235 JUMPI PUSH1 0xA SLOAD PUSH1 0x40 MLOAD PUSH4 0xA59D7F4D PUSH1 0xE0 SHL DUP2 MSTORE PUSH2 0x7CA SWAP2 PUSH1 0x1 PUSH1 0x1 PUSH1 0xA0 SHL SUB AND SWAP1 PUSH1 0x4 ADD PUSH2 0x35A2 JUMP JUMPDEST PUSH1 0x1 PUSH1 0x1 PUSH1 0x40 SHL SUB DUP1 DUP3 AND PUSH0 SWAP1 DUP2 MSTORE PUSH1 0x11 PUSH1 0x20 MSTORE PUSH1 0x40 DUP2 KECCAK256 SLOAD SWAP1 SWAP2 AND SWAP1 SUB PUSH2 0x127B JUMPI PUSH1 0x40 MLOAD PUSH4 0x6A333105 PUSH1 0xE1 SHL DUP2 MSTORE PUSH1 0x1 PUSH1 0x1 PUSH1 0x40 SHL SUB DUP3 AND PUSH1 0x4 DUP3 ADD MSTORE PUSH1 0x24 ADD PUSH2 0x7CA JUMP JUMPDEST PUSH32 0x8B413BA408D0E5E23FA00C5B0C5F94D771AEC2D0C991A649DAD0E23CADDB6FCF PUSH1 0xB SLOAD DUP3 PUSH1 0x9 PUSH0 SWAP1 SLOAD SWAP1 PUSH2 0x100 EXP SWAP1 DIV PUSH1 0x1 PUSH1 0x1 PUSH1 0xA0 SHL SUB AND PUSH1 0x1 PUSH1 0x1 PUSH1 0xA0 SHL SUB AND PUSH4 0xF4F6C22C PUSH1 0x40 MLOAD DUP2 PUSH4 0xFFFFFFFF AND PUSH1 0xE0 SHL DUP2 MSTORE PUSH1 0x4 ADD PUSH1 0x20 PUSH1 0x40 MLOAD DUP1 DUP4 SUB DUP2 DUP7 GAS STATICCALL ISZERO DUP1 ISZERO PUSH2 0x12F0 JUMPI RETURNDATASIZE PUSH0 PUSH0 RETURNDATACOPY RETURNDATASIZE PUSH0 REVERT JUMPDEST POP POP POP POP PUSH1 0x40 MLOAD RETURNDATASIZE PUSH1 0x1F NOT PUSH1 0x1F DUP3 ADD AND DUP3 ADD DUP1 PUSH1 0x40 MSTORE POP DUP2 ADD SWAP1 PUSH2 0x1314 SWAP2 SWAP1 PUSH2 0x398F JUMP JUMPDEST PUSH1 0x1 PUSH1 0x1 PUSH1 0xA0 SHL SUB AND PUSH4 0x9FF43001 PUSH1 0x40 MLOAD DUP2 PUSH4 0xFFFFFFFF AND PUSH1 0xE0 SHL DUP2 MSTORE PUSH1 0x4 ADD PUSH1 0x20 PUSH1 0x40 MLOAD DUP1 DUP4 SUB DUP2 PUSH0 DUP8 GAS CALL ISZERO DUP1 ISZERO PUSH2 0x1350 JUMPI RETURNDATASIZE PUSH0 PUSH0 RETURNDATACOPY RETURNDATASIZE PUSH0 REVERT JUMPDEST POP POP POP POP PUSH1 0x40 MLOAD RETURNDATASIZE PUSH1 0x1F NOT PUSH1 0x1F DUP3 ADD AND DUP3 ADD DUP1 PUSH1 0x40 MSTORE POP DUP2 ADD SWAP1 PUSH2 0x1374 SWAP2 SWAP1 PUSH2 0x398F JUMP JUMPDEST PUSH1 0x1 PUSH1 0x1 PUSH1 0xA0 SHL SUB AND PUSH4 0x27BACC40 PUSH1 0x40 MLOAD DUP2 PUSH4 0xFFFFFFFF AND PUSH1 0xE0 SHL DUP2 MSTORE PUSH1 0x4 ADD PUSH1 0x20 PUSH1 0x40 MLOAD DUP1 DUP4 SUB DUP2 DUP7 GAS STATICCALL ISZERO DUP1 ISZERO PUSH2 0x13AF JUMPI RETURNDATASIZE PUSH0 PUSH0 RETURNDATACOPY RETURNDATASIZE PUSH0 REVERT JUMPDEST POP POP POP POP PUSH1 0x40 MLOAD RETURNDATASIZE PUSH1 0x1F NOT PUSH1 0x1F DUP3 ADD AND DUP3 ADD DUP1 PUSH1 0x40 MSTORE POP DUP2 ADD SWAP1 PUSH2 0x13D3 SWAP2 SWAP1 PUSH2 0x3748 JUMP JUMPDEST PUSH1 0x1 PUSH1 0x1 PUSH1 0x40 SHL SUB DUP6 AND PUSH0 SWAP1 DUP2 MSTORE PUSH1 0x11 PUSH1 0x20 MSTORE PUSH1 0x40 SWAP1 DUP2 SWAP1 KECCAK256 SWAP1 MLOAD PUSH2 0x1400 SWAP5 SWAP4 SWAP3 SWAP2 PUSH1 0x5 ADD SWAP1 DUP9 SWAP1 PUSH2 0x3BE5 JUMP JUMPDEST PUSH1 0x40 MLOAD DUP1 SWAP2 SUB SWAP1 LOG1 PUSH1 0x9 PUSH0 SWAP1 SLOAD SWAP1 PUSH2 0x100 EXP SWAP1 DIV PUSH1 0x1 PUSH1 0x1 PUSH1 0xA0 SHL SUB AND PUSH1 0x1 PUSH1 0x1 PUSH1 0xA0 SHL SUB AND PUSH4 0x929C6CA9 PUSH1 0x40 MLOAD DUP2 PUSH4 0xFFFFFFFF AND PUSH1 0xE0 SHL DUP2 MSTORE PUSH1 0x4 ADD PUSH1 0x20 PUSH1 0x40 MLOAD DUP1 DUP4 SUB DUP2 DUP7 GAS STATICCALL ISZERO DUP1 ISZERO PUSH2 0x1458 JUMPI RETURNDATASIZE PUSH0 PUSH0 RETURNDATACOPY RETURNDATASIZE PUSH0 REVERT JUMPDEST POP POP POP POP PUSH1 0x40 MLOAD RETURNDATASIZE PUSH1 0x1F NOT PUSH1 0x1F DUP3 ADD AND DUP3 ADD DUP1 PUSH1 0x40 MSTORE POP DUP2 ADD SWAP1 PUSH2 0x147C SWAP2 SWAP1 PUSH2 0x398F JUMP JUMPDEST PUSH1 0x1 PUSH1 0x1 PUSH1 0x40 SHL SUB DUP3 AND PUSH0 SWAP1 DUP2 MSTORE PUSH1 0x11 PUSH1 0x20 MSTORE PUSH1 0x40 SWAP1 DUP2 SWAP1 KECCAK256 SWAP1 MLOAD PUSH4 0x766B44F5 PUSH1 0xE1 SHL DUP2 MSTORE PUSH1 0x1 PUSH1 0x1 PUSH1 0xA0 SHL SUB SWAP3 SWAP1 SWAP3 AND SWAP2 PUSH4 0xECD689EA SWAP2 PUSH2 0x14C0 SWAP2 PUSH1 0x4 ADD PUSH2 0x3C1B JUMP JUMPDEST PUSH1 0x40 DUP1 MLOAD DUP1 DUP4 SUB DUP2 PUSH0 DUP8 GAS CALL ISZERO DUP1 ISZERO PUSH2 0x14DB JUMPI RETURNDATASIZE PUSH0 PUSH0 RETURNDATACOPY RETURNDATASIZE PUSH0 REVERT JUMPDEST POP POP POP POP PUSH1 0x40 MLOAD RETURNDATASIZE PUSH1 0x1F NOT PUSH1 0x1F DUP3 ADD AND DUP3 ADD DUP1 PUSH1 0x40 MSTORE POP DUP2 ADD SWAP1 PUSH2 0x14FF SWAP2 SWAP1 PUSH2 0x3D26 JUMP JUMPDEST PUSH1 0x1 PUSH1 0x1 PUSH1 0x40 SHL SUB DUP1 DUP5 AND PUSH0 SWAP1 DUP2 MSTORE PUSH1 0x11 PUSH1 0x20 MSTORE PUSH1 0x40 SWAP1 KECCAK256 PUSH1 0x4 ADD DUP1 SLOAD SWAP4 DUP3 AND PUSH1 0x1 PUSH1 0x40 SHL MUL PUSH8 0xFFFFFFFFFFFFFFFF PUSH1 0x40 SHL NOT SWAP4 SWAP1 SWAP3 AND PUSH1 0x1 PUSH1 0x80 SHL MUL SWAP3 SWAP1 SWAP3 AND PUSH1 0x1 PUSH1 0x40 SHL PUSH1 0x1 PUSH1 0xC0 SHL SUB NOT SWAP1 SWAP4 AND SWAP3 SWAP1 SWAP3 OR SWAP2 SWAP1 SWAP2 OR SWAP1 SSTORE PUSH2 0xE68 PUSH2 0x195C JUMP JUMPDEST PUSH1 0x1 PUSH1 0x1 PUSH1 0xA0 SHL SUB DUP3 AND PUSH0 SWAP1 DUP2 MSTORE PUSH1 0x8 PUSH1 0x20 MSTORE PUSH1 0x40 DUP2 KECCAK256 SLOAD SWAP1 SUB PUSH2 0x159A JUMPI DUP2 PUSH1 0x40 MLOAD PUSH4 0x90B23441 PUSH1 0xE0 SHL DUP2 MSTORE PUSH1 0x4 ADD PUSH2 0x7CA SWAP2 SWAP1 PUSH2 0x35A2 JUMP JUMPDEST DUP2 PUSH0 PUSH2 0x15A8 PUSH1 0x12 PUSH1 0xA PUSH2 0x3E36 JUMP JUMPDEST PUSH1 0x1 PUSH1 0x1 PUSH1 0xA0 SHL SUB DUP6 AND PUSH0 SWAP1 DUP2 MSTORE PUSH1 0x8 PUSH1 0x20 MSTORE PUSH1 0x40 SWAP1 KECCAK256 SLOAD PUSH2 0x15CA SWAP1 DUP6 PUSH2 0x3E44 JUMP JUMPDEST PUSH2 0x15D4 SWAP2 SWAP1 PUSH2 0x3E5B JUMP JUMPDEST PUSH1 0x40 MLOAD PUSH4 0x23B872DD PUSH1 0xE0 SHL DUP2 MSTORE SWAP1 SWAP2 POP PUSH0 SWAP1 ADDRESS SWAP1 PUSH4 0x23B872DD SWAP1 PUSH2 0x1600 SWAP1 CALLER SWAP1 DUP5 SWAP1 DUP10 SWAP1 PUSH1 0x4 ADD PUSH2 0x37BA JUMP JUMPDEST PUSH1 0x20 PUSH1 0x40 MLOAD DUP1 DUP4 SUB DUP2 PUSH0 DUP8 GAS CALL ISZERO DUP1 ISZERO PUSH2 0x161C JUMPI RETURNDATASIZE PUSH0 PUSH0 RETURNDATACOPY RETURNDATASIZE PUSH0 REVERT JUMPDEST POP POP POP POP PUSH1 0x40 MLOAD RETURNDATASIZE PUSH1 0x1F NOT PUSH1 0x1F DUP3 ADD AND DUP3 ADD DUP1 PUSH1 0x40 MSTORE POP DUP2 ADD SWAP1 PUSH2 0x1640 SWAP2 SWAP1 PUSH2 0x37DE JUMP JUMPDEST SWAP1 POP DUP1 ADDRESS PUSH1 0x1 PUSH1 0x1 PUSH1 0xA0 SHL SUB AND PUSH4 0x6FDDE03 PUSH1 0x40 MLOAD DUP2 PUSH4 0xFFFFFFFF AND PUSH1 0xE0 SHL DUP2 MSTORE PUSH1 0x4 ADD PUSH0 PUSH1 0x40 MLOAD DUP1 DUP4 SUB DUP2 DUP7 GAS STATICCALL ISZERO DUP1 ISZERO PUSH2 0x167E JUMPI RETURNDATASIZE PUSH0 PUSH0 RETURNDATACOPY RETURNDATASIZE PUSH0 REVERT JUMPDEST POP POP POP POP PUSH1 0x40 MLOAD RETURNDATASIZE PUSH0 DUP3 RETURNDATACOPY PUSH1 0x1F RETURNDATASIZE SWAP1 DUP2 ADD PUSH1 0x1F NOT AND DUP3 ADD PUSH1 0x40 MSTORE PUSH2 0x16A5 SWAP2 SWAP1 DUP2 ADD SWAP1 PUSH2 0x3AE1 JUMP JUMPDEST PUSH1 0x40 MLOAD PUSH1 0x20 ADD PUSH2 0x16B5 SWAP2 SWAP1 PUSH2 0x3E7A JUMP JUMPDEST PUSH1 0x40 MLOAD PUSH1 0x20 DUP2 DUP4 SUB SUB DUP2 MSTORE SWAP1 PUSH1 0x40 MSTORE SWAP1 PUSH2 0x16E2 JUMPI PUSH1 0x40 MLOAD PUSH3 0x461BCD PUSH1 0xE5 SHL DUP2 MSTORE PUSH1 0x4 ADD PUSH2 0x7CA SWAP2 SWAP1 PUSH2 0x32BD JUMP JUMPDEST POP PUSH1 0x40 MLOAD PUSH4 0xA9059CBB PUSH1 0xE0 SHL DUP2 MSTORE PUSH1 0x1 PUSH1 0x1 PUSH1 0xA0 SHL SUB DUP5 AND SWAP1 PUSH4 0xA9059CBB SWAP1 PUSH2 0x1711 SWAP1 CALLER SWAP1 DUP7 SWAP1 PUSH1 0x4 ADD PUSH2 0x37A1 JUMP JUMPDEST PUSH1 0x20 PUSH1 0x40 MLOAD DUP1 DUP4 SUB DUP2 PUSH0 DUP8 GAS CALL ISZERO DUP1 ISZERO PUSH2 0x172D JUMPI RETURNDATASIZE PUSH0 PUSH0 RETURNDATACOPY RETURNDATASIZE PUSH0 REVERT JUMPDEST POP POP POP POP PUSH1 0x40 MLOAD RETURNDATASIZE PUSH1 0x1F NOT PUSH1 0x1F DUP3 ADD AND DUP3 ADD DUP1 PUSH1 0x40 MSTORE POP DUP2 ADD SWAP1 PUSH2 0x1751 SWAP2 SWAP1 PUSH2 0x37DE JUMP JUMPDEST POP POP POP POP POP POP JUMP JUMPDEST PUSH0 CALLER PUSH2 0x1766 DUP6 DUP3 DUP6 PUSH2 0x2D9D JUMP JUMPDEST PUSH2 0x1771 DUP6 DUP6 DUP6 PUSH2 0x2DF4 JUMP JUMPDEST POP PUSH1 0x1 SWAP5 SWAP4 POP POP POP POP JUMP JUMPDEST PUSH1 0x1 PUSH1 0x1 PUSH1 0xA0 SHL SUB DUP3 AND PUSH0 SWAP1 DUP2 MSTORE PUSH1 0x8 PUSH1 0x20 MSTORE PUSH1 0x40 DUP2 KECCAK256 SLOAD SWAP1 SUB PUSH2 0x17B5 JUMPI DUP2 PUSH1 0x40 MLOAD PUSH4 0x90B23441 PUSH1 0xE0 SHL DUP2 MSTORE PUSH1 0x4 ADD PUSH2 0x7CA SWAP2 SWAP1 PUSH2 0x35A2 JUMP JUMPDEST DUP2 PUSH0 PUSH2 0x17C3 PUSH1 0x12 PUSH1 0xA PUSH2 0x3E36 JUMP JUMPDEST PUSH1 0x1 PUSH1 0x1 PUSH1 0xA0 SHL SUB DUP6 AND PUSH0 SWAP1 DUP2 MSTORE PUSH1 0x8 PUSH1 0x20 MSTORE PUSH1 0x40 SWAP1 KECCAK256 SLOAD PUSH2 0x17E5 SWAP1 DUP6 PUSH2 0x3E44 JUMP JUMPDEST PUSH2 0x17EF SWAP2 SWAP1 PUSH2 0x3E5B JUMP JUMPDEST SWAP1 POP PUSH0 DUP3 PUSH1 0x1 PUSH1 0x1 PUSH1 0xA0 SHL SUB AND PUSH4 0x23B872DD CALLER ADDRESS DUP6 PUSH1 0x40 MLOAD DUP5 PUSH4 0xFFFFFFFF AND PUSH1 0xE0 SHL DUP2 MSTORE PUSH1 0x4 ADD PUSH2 0x1822 SWAP4 SWAP3 SWAP2 SWAP1 PUSH2 0x37BA JUMP JUMPDEST PUSH1 0x20 PUSH1 0x40 MLOAD DUP1 DUP4 SUB DUP2 PUSH0 DUP8 GAS CALL ISZERO DUP1 ISZERO PUSH2 0x183E JUMPI RETURNDATASIZE PUSH0 PUSH0 RETURNDATACOPY RETURNDATASIZE PUSH0 REVERT JUMPDEST POP POP POP POP PUSH1 0x40 MLOAD RETURNDATASIZE PUSH1 0x1F NOT PUSH1 0x1F DUP3 ADD AND DUP3 ADD DUP1 PUSH1 0x40 MSTORE POP DUP2 ADD SWAP1 PUSH2 0x1862 SWAP2 SWAP1 PUSH2 0x37DE JUMP JUMPDEST SWAP1 POP DUP1 DUP4 PUSH1 0x1 PUSH1 0x1 PUSH1 0xA0 SHL SUB AND PUSH4 0x6FDDE03 PUSH1 0x40 MLOAD DUP2 PUSH4 0xFFFFFFFF AND PUSH1 0xE0 SHL DUP2 MSTORE PUSH1 0x4 ADD PUSH0 PUSH1 0x40 MLOAD DUP1 DUP4 SUB DUP2 DUP7 GAS STATICCALL ISZERO DUP1 ISZERO PUSH2 0x18A0 JUMPI RETURNDATASIZE PUSH0 PUSH0 RETURNDATACOPY RETURNDATASIZE PUSH0 REVERT JUMPDEST POP POP POP POP PUSH1 0x40 MLOAD RETURNDATASIZE PUSH0 DUP3 RETURNDATACOPY PUSH1 0x1F RETURNDATASIZE SWAP1 DUP2 ADD PUSH1 0x1F NOT AND DUP3 ADD PUSH1 0x40 MSTORE PUSH2 0x18C7 SWAP2 SWAP1 DUP2 ADD SWAP1 PUSH2 0x3AE1 JUMP JUMPDEST PUSH1 0x40 MLOAD PUSH1 0x20 ADD PUSH2 0x18D7 SWAP2 SWAP1 PUSH2 0x3E7A JUMP JUMPDEST PUSH1 0x40 MLOAD PUSH1 0x20 DUP2 DUP4 SUB SUB DUP2 MSTORE SWAP1 PUSH1 0x40 MSTORE SWAP1 PUSH2 0x1904 JUMPI PUSH1 0x40 MLOAD PUSH3 0x461BCD PUSH1 0xE5 SHL DUP2 MSTORE PUSH1 0x4 ADD PUSH2 0x7CA SWAP2 SWAP1 PUSH2 0x32BD JUMP JUMPDEST POP PUSH1 0x40 MLOAD PUSH4 0xA9059CBB PUSH1 0xE0 SHL DUP2 MSTORE ADDRESS SWAP1 PUSH4 0xA9059CBB SWAP1 PUSH2 0x1711 SWAP1 CALLER SWAP1 DUP9 SWAP1 PUSH1 0x4 ADD PUSH2 0x37A1 JUMP JUMPDEST PUSH2 0x1932 PUSH2 0x2CBE JUMP JUMPDEST PUSH1 0x1 PUSH1 0x1 PUSH1 0xA0 SHL SUB SWAP2 SWAP1 SWAP2 AND PUSH0 SWAP1 DUP2 MSTORE PUSH1 0xF PUSH1 0x20 MSTORE PUSH1 0x40 SWAP1 KECCAK256 DUP1 SLOAD PUSH1 0xFF NOT AND SWAP2 ISZERO ISZERO SWAP2 SWAP1 SWAP2 OR SWAP1 SSTORE JUMP JUMPDEST PUSH0 JUMPDEST PUSH1 0x12 SLOAD DUP2 LT ISZERO PUSH2 0x1C1C JUMPI PUSH0 PUSH1 0x11 PUSH0 PUSH1 0x12 DUP5 DUP2 SLOAD DUP2 LT PUSH2 0x197F JUMPI PUSH2 0x197F PUSH2 0x3EAA JUMP JUMPDEST PUSH0 SWAP2 DUP3 MSTORE PUSH1 0x20 DUP1 DUP4 KECCAK256 PUSH1 0x4 DUP1 DUP5 DIV SWAP1 SWAP2 ADD SLOAD PUSH1 0x1 PUSH1 0x1 PUSH1 0x40 SHL SUB PUSH1 0x8 PUSH1 0x3 SWAP6 DUP7 AND MUL PUSH2 0x100 SWAP1 DUP2 EXP SWAP1 SWAP3 DIV DUP2 AND DUP8 MSTORE DUP7 DUP5 ADD SWAP8 SWAP1 SWAP8 MSTORE PUSH1 0x40 SWAP6 DUP7 ADD SWAP1 SWAP5 KECCAK256 DUP6 MLOAD PUSH1 0x80 DUP1 DUP3 ADD DUP9 MSTORE DUP3 SLOAD DUP10 AND DUP3 MSTORE DUP8 MLOAD SWAP7 DUP8 ADD DUP9 MSTORE PUSH1 0x1 DUP4 ADD SLOAD PUSH1 0x1 PUSH1 0x1 PUSH1 0xA0 SHL SUB SWAP1 DUP2 AND DUP9 MSTORE PUSH1 0x2 DUP5 ADD SLOAD DUP1 DUP3 AND DUP10 DUP9 ADD MSTORE PUSH1 0x1 PUSH1 0xA0 SHL SWAP1 DIV DUP11 AND DUP9 DUP11 ADD MSTORE SWAP6 DUP4 ADD SLOAD DUP1 DUP11 AND PUSH1 0x60 DUP10 ADD MSTORE PUSH1 0x1 PUSH1 0x40 SHL SWAP1 DUP2 SWAP1 DIV SWAP1 SWAP7 AND SWAP1 DUP8 ADD MSTORE SWAP2 DUP2 ADD SLOAD DUP1 DUP9 AND PUSH1 0xA0 DUP8 ADD MSTORE SWAP4 DUP5 DIV DUP8 AND PUSH1 0xC0 DUP7 ADD MSTORE PUSH1 0x1 PUSH1 0x80 SHL SWAP1 SWAP4 DIV SWAP1 SWAP6 AND PUSH1 0xE0 DUP5 ADD MSTORE DUP5 ADD SWAP2 SWAP1 SWAP2 MSTORE PUSH1 0x5 DUP2 ADD DUP1 SLOAD SWAP2 SWAP3 DUP5 ADD SWAP2 PUSH2 0x1A5A SWAP1 PUSH2 0x3700 JUMP JUMPDEST DUP1 PUSH1 0x1F ADD PUSH1 0x20 DUP1 SWAP2 DIV MUL PUSH1 0x20 ADD PUSH1 0x40 MLOAD SWAP1 DUP2 ADD PUSH1 0x40 MSTORE DUP1 SWAP3 SWAP2 SWAP1 DUP2 DUP2 MSTORE PUSH1 0x20 ADD DUP3 DUP1 SLOAD PUSH2 0x1A86 SWAP1 PUSH2 0x3700 JUMP JUMPDEST DUP1 ISZERO PUSH2 0x1AD1 JUMPI DUP1 PUSH1 0x1F LT PUSH2 0x1AA8 JUMPI PUSH2 0x100 DUP1 DUP4 SLOAD DIV MUL DUP4 MSTORE SWAP2 PUSH1 0x20 ADD SWAP2 PUSH2 0x1AD1 JUMP JUMPDEST DUP3 ADD SWAP2 SWAP1 PUSH0 MSTORE PUSH1 0x20 PUSH0 KECCAK256 SWAP1 JUMPDEST DUP2 SLOAD DUP2 MSTORE SWAP1 PUSH1 0x1 ADD SWAP1 PUSH1 0x20 ADD DUP1 DUP4 GT PUSH2 0x1AB4 JUMPI DUP3 SWAP1 SUB PUSH1 0x1F AND DUP3 ADD SWAP2 JUMPDEST POP POP POP SWAP2 DUP4 MSTORE POP POP PUSH1 0x6 SWAP2 SWAP1 SWAP2 ADD SLOAD PUSH1 0x1 PUSH1 0x1 PUSH1 0x40 SHL SUB AND PUSH1 0x20 SWAP2 DUP3 ADD MSTORE DUP2 DUP2 ADD MLOAD MLOAD PUSH1 0x1 PUSH1 0x1 PUSH1 0xA0 SHL SUB AND PUSH0 SWAP1 DUP2 MSTORE PUSH1 0x10 SWAP1 SWAP2 MSTORE PUSH1 0x40 SWAP1 KECCAK256 SLOAD SWAP1 SWAP2 POP TIMESTAMP GT ISZERO PUSH2 0x1C13 JUMPI PUSH32 0x94016256B5A8C81E2AB26F48F739977139A54FE84068FC66E52414CEC417D8ED DUP2 PUSH1 0x40 ADD MLOAD PUSH1 0x40 MLOAD PUSH2 0x1B48 SWAP2 SWAP1 PUSH2 0x32BD JUMP JUMPDEST PUSH1 0x40 MLOAD DUP1 SWAP2 SUB SWAP1 LOG1 PUSH1 0x11 PUSH0 PUSH1 0x12 DUP5 DUP2 SLOAD DUP2 LT PUSH2 0x1B66 JUMPI PUSH2 0x1B66 PUSH2 0x3EAA JUMP JUMPDEST PUSH0 SWAP2 DUP3 MSTORE PUSH1 0x20 DUP1 DUP4 KECCAK256 PUSH1 0x4 DUP1 DUP5 DIV SWAP1 SWAP2 ADD SLOAD PUSH1 0x3 SWAP4 DUP5 AND PUSH1 0x8 MUL PUSH2 0x100 EXP SWAP1 DIV PUSH1 0x1 PUSH1 0x1 PUSH1 0x40 SHL SUB AND DUP6 MSTORE SWAP1 DUP5 ADD SWAP5 SWAP1 SWAP5 MSTORE PUSH1 0x40 SWAP1 SWAP3 ADD DUP2 KECCAK256 DUP1 SLOAD PUSH8 0xFFFFFFFFFFFFFFFF NOT AND DUP2 SSTORE PUSH1 0x1 DUP2 ADD DUP1 SLOAD PUSH1 0x1 PUSH1 0x1 PUSH1 0xA0 SHL SUB NOT AND SWAP1 SSTORE PUSH1 0x2 DUP2 ADD DUP1 SLOAD PUSH1 0x1 PUSH1 0x1 PUSH1 0xE0 SHL SUB NOT SWAP1 DUP2 AND SWAP1 SWAP2 SSTORE SWAP3 DUP2 ADD DUP1 SLOAD SWAP1 SWAP4 AND SWAP1 SWAP3 SSTORE SWAP2 DUP2 ADD DUP1 SLOAD PUSH1 0x1 PUSH1 0x1 PUSH1 0xC0 SHL SUB NOT AND SWAP1 SSTORE SWAP1 PUSH2 0x1BFF PUSH1 0x5 DUP4 ADD DUP3 PUSH2 0x3245 JUMP JUMPDEST POP PUSH1 0x6 ADD DUP1 SLOAD PUSH8 0xFFFFFFFFFFFFFFFF NOT AND SWAP1 SSTORE JUMPDEST POP PUSH1 0x1 ADD PUSH2 0x195E JUMP JUMPDEST POP JUMP JUMPDEST PUSH1 0x1 PUSH1 0x1 PUSH1 0xA0 SHL SUB DUP2 AND PUSH0 SWAP1 DUP2 MSTORE PUSH1 0xF PUSH1 0x20 MSTORE PUSH1 0x40 DUP2 KECCAK256 SLOAD PUSH1 0xFF AND ISZERO PUSH2 0x1C47 JUMPI POP PUSH1 0x1 SWAP2 SWAP1 POP JUMP JUMPDEST PUSH1 0xE SLOAD PUSH1 0xFF AND ISZERO DUP1 ISZERO PUSH2 0x1CE5 JUMPI POP PUSH2 0x1C61 PUSH1 0x12 PUSH1 0xA PUSH2 0x3E36 JUMP JUMPDEST PUSH2 0x1C6C SWAP1 PUSH1 0x19 PUSH2 0x3E44 JUMP JUMPDEST PUSH1 0x40 MLOAD PUSH4 0x70A08231 PUSH1 0xE0 SHL DUP2 MSTORE PUSH20 0x203E366A1821570B2F84FF5AE8B3BDEB48DC4FA1 SWAP1 PUSH4 0x70A08231 SWAP1 PUSH2 0x1CA3 SWAP1 DUP7 SWAP1 PUSH1 0x4 ADD PUSH2 0x35A2 JUMP JUMPDEST PUSH1 0x20 PUSH1 0x40 MLOAD DUP1 DUP4 SUB DUP2 DUP7 GAS STATICCALL ISZERO DUP1 ISZERO PUSH2 0x1CBE JUMPI RETURNDATASIZE PUSH0 PUSH0 RETURNDATACOPY RETURNDATASIZE PUSH0 REVERT JUMPDEST POP POP POP POP PUSH1 0x40 MLOAD RETURNDATASIZE PUSH1 0x1F NOT PUSH1 0x1F DUP3 ADD AND DUP3 ADD DUP1 PUSH1 0x40 MSTORE POP DUP2 ADD SWAP1 PUSH2 0x1CE2 SWAP2 SWAP1 PUSH2 0x3763 JUMP JUMPDEST LT ISZERO JUMPDEST ISZERO PUSH2 0x1CF2 JUMPI POP PUSH1 0x1 SWAP2 SWAP1 POP JUMP JUMPDEST PUSH1 0xA SLOAD PUSH1 0x40 DUP1 MLOAD PUSH4 0x18160DDD PUSH1 0xE0 SHL DUP2 MSTORE SWAP1 MLOAD PUSH0 SWAP3 PUSH1 0x1 PUSH1 0x1 PUSH1 0xA0 SHL SUB AND SWAP2 PUSH4 0x18160DDD SWAP2 PUSH1 0x4 DUP1 DUP4 ADD SWAP3 PUSH1 0x20 SWAP3 SWAP2 SWAP1 DUP3 SWAP1 SUB ADD DUP2 DUP7 GAS STATICCALL ISZERO DUP1 ISZERO PUSH2 0x1D39 JUMPI RETURNDATASIZE PUSH0 PUSH0 RETURNDATACOPY RETURNDATASIZE PUSH0 REVERT JUMPDEST POP POP POP POP PUSH1 0x40 MLOAD RETURNDATASIZE PUSH1 0x1F NOT PUSH1 0x1F DUP3 ADD AND DUP3 ADD DUP1 PUSH1 0x40 MSTORE POP DUP2 ADD SWAP1 PUSH2 0x1D5D SWAP2 SWAP1 PUSH2 0x3763 JUMP JUMPDEST PUSH1 0xC SLOAD SWAP1 SWAP2 POP PUSH2 0x1D71 SWAP1 PUSH2 0xFFFF AND DUP3 PUSH2 0x3E5B JUMP JUMPDEST PUSH1 0xA SLOAD PUSH1 0x40 MLOAD PUSH4 0x70A08231 PUSH1 0xE0 SHL DUP2 MSTORE PUSH1 0x1 PUSH1 0x1 PUSH1 0xA0 SHL SUB SWAP1 SWAP2 AND SWAP1 PUSH4 0x70A08231 SWAP1 PUSH2 0x1DA1 SWAP1 DUP8 SWAP1 PUSH1 0x4 ADD PUSH2 0x35A2 JUMP JUMPDEST PUSH1 0x20 PUSH1 0x40 MLOAD DUP1 DUP4 SUB DUP2 DUP7 GAS STATICCALL ISZERO DUP1 ISZERO PUSH2 0x1DBC JUMPI RETURNDATASIZE PUSH0 PUSH0 RETURNDATACOPY RETURNDATASIZE PUSH0 REVERT JUMPDEST POP POP POP POP PUSH1 0x40 MLOAD RETURNDATASIZE PUSH1 0x1F NOT PUSH1 0x1F DUP3 ADD AND DUP3 ADD DUP1 PUSH1 0x40 MSTORE POP DUP2 ADD SWAP1 PUSH2 0x1DE0 SWAP2 SWAP1 PUSH2 0x3763 JUMP JUMPDEST LT PUSH2 0x1DEE JUMPI POP PUSH1 0x1 SWAP3 SWAP2 POP POP JUMP JUMPDEST PUSH1 0xA SLOAD PUSH1 0x40 MLOAD PUSH4 0x666E1B39 PUSH1 0xE0 SHL DUP2 MSTORE PUSH1 0x1 PUSH1 0x1 PUSH1 0xA0 SHL SUB SWAP1 SWAP2 AND SWAP1 PUSH4 0x666E1B39 SWAP1 PUSH2 0x1E1E SWAP1 DUP7 SWAP1 PUSH1 0x4 ADD PUSH2 0x35A2 JUMP JUMPDEST PUSH1 0x20 PUSH1 0x40 MLOAD DUP1 DUP4 SUB DUP2 DUP7 GAS STATICCALL ISZERO DUP1 ISZERO PUSH2 0x1E39 JUMPI RETURNDATASIZE PUSH0 PUSH0 RETURNDATACOPY RETURNDATASIZE PUSH0 REVERT JUMPDEST POP POP POP POP PUSH1 0x40 MLOAD RETURNDATASIZE PUSH1 0x1F NOT PUSH1 0x1F DUP3 ADD AND DUP3 ADD DUP1 PUSH1 0x40 MSTORE POP DUP2 ADD SWAP1 PUSH2 0x1E5D SWAP2 SWAP1 PUSH2 0x37DE JUMP JUMPDEST SWAP4 SWAP3 POP POP POP JUMP JUMPDEST PUSH2 0x1E6C PUSH2 0x2DFF JUMP JUMPDEST PUSH2 0x1C1C DUP2 PUSH0 PUSH2 0x2E3F JUMP JUMPDEST PUSH2 0x1E7E PUSH2 0x2CBE JUMP JUMPDEST PUSH1 0xC DUP1 SLOAD PUSH2 0xFFFF NOT AND PUSH2 0xFFFF SWAP3 SWAP1 SWAP3 AND SWAP2 SWAP1 SWAP2 OR SWAP1 SSTORE JUMP JUMPDEST PUSH1 0x60 PUSH1 0x12 DUP1 SLOAD DUP1 PUSH1 0x20 MUL PUSH1 0x20 ADD PUSH1 0x40 MLOAD SWAP1 DUP2 ADD PUSH1 0x40 MSTORE DUP1 SWAP3 SWAP2 SWAP1 DUP2 DUP2 MSTORE PUSH1 0x20 ADD DUP3 DUP1 SLOAD DUP1 ISZERO PUSH2 0x6AF JUMPI PUSH1 0x20 MUL DUP3 ADD SWAP2 SWAP1 PUSH0 MSTORE PUSH1 0x20 PUSH0 KECCAK256 SWAP1 PUSH0 SWAP1 JUMPDEST DUP3 DUP3 SWAP1 SLOAD SWAP1 PUSH2 0x100 EXP SWAP1 DIV PUSH1 0x1 PUSH1 0x1 PUSH1 0x40 SHL SUB AND PUSH1 0x1 PUSH1 0x1 PUSH1 0x40 SHL SUB AND DUP2 MSTORE PUSH1 0x20 ADD SWAP1 PUSH1 0x8 ADD SWAP1 PUSH1 0x20 DUP3 PUSH1 0x7 ADD DIV SWAP3 DUP4 ADD SWAP3 PUSH1 0x1 SUB DUP3 MUL SWAP2 POP DUP1 DUP5 GT PUSH2 0x1ED0 JUMPI SWAP1 POP POP POP POP POP POP SWAP1 POP SWAP1 JUMP JUMPDEST PUSH1 0x9 SLOAD PUSH1 0x40 DUP1 MLOAD PUSH4 0x3D3DB08B PUSH1 0xE2 SHL DUP2 MSTORE SWAP1 MLOAD PUSH0 SWAP3 PUSH1 0x1 PUSH1 0x1 PUSH1 0xA0 SHL SUB AND SWAP2 PUSH4 0xF4F6C22C SWAP2 PUSH1 0x4 DUP1 DUP4 ADD SWAP3 PUSH1 0x20 SWAP3 SWAP2 SWAP1 DUP3 SWAP1 SUB ADD DUP2 DUP7 GAS STATICCALL ISZERO DUP1 ISZERO PUSH2 0x1F63 JUMPI RETURNDATASIZE PUSH0 PUSH0 RETURNDATACOPY RETURNDATASIZE PUSH0 REVERT JUMPDEST POP POP POP POP PUSH1 0x40 MLOAD RETURNDATASIZE PUSH1 0x1F NOT PUSH1 0x1F DUP3 ADD AND DUP3 ADD DUP1 PUSH1 0x40 MSTORE POP DUP2 ADD SWAP1 PUSH2 0x1F87 SWAP2 SWAP1 PUSH2 0x398F JUMP JUMPDEST PUSH1 0x40 MLOAD PUSH4 0x6C93852D PUSH1 0xE1 SHL DUP2 MSTORE PUSH1 0x20 PUSH1 0x4 DUP3 ADD MSTORE PUSH1 0x3 PUSH1 0x24 DUP3 ADD MSTORE PUSH3 0x796169 PUSH1 0xE8 SHL PUSH1 0x44 DUP3 ADD MSTORE PUSH1 0x1 PUSH1 0x1 PUSH1 0xA0 SHL SUB SWAP2 SWAP1 SWAP2 AND SWAP1 PUSH4 0xD9270A5A SWAP1 PUSH1 0x64 ADD PUSH1 0x20 PUSH1 0x40 MLOAD DUP1 DUP4 SUB DUP2 DUP7 GAS STATICCALL ISZERO DUP1 ISZERO PUSH2 0x1FDF JUMPI RETURNDATASIZE PUSH0 PUSH0 RETURNDATACOPY RETURNDATASIZE PUSH0 REVERT JUMPDEST POP POP POP POP PUSH1 0x40 MLOAD RETURNDATASIZE PUSH1 0x1F NOT PUSH1 0x1F DUP3 ADD AND DUP3 ADD DUP1 PUSH1 0x40 MSTORE POP DUP2 ADD SWAP1 PUSH2 0x2003 SWAP2 SWAP1 PUSH2 0x398F JUMP JUMPDEST SWAP1 POP SWAP1 JUMP JUMPDEST PUSH1 0x1 PUSH1 0x1 PUSH1 0xA0 SHL SUB AND PUSH0 SWAP1 DUP2 MSTORE PUSH1 0x20 DUP2 SWAP1 MSTORE PUSH1 0x40 SWAP1 KECCAK256 SLOAD PUSH1 0xFF AND SWAP1 JUMP JUMPDEST PUSH2 0x202D PUSH2 0x2DFF JUMP JUMPDEST PUSH1 0x1 PUSH1 0x1 PUSH1 0xA0 SHL SUB DUP2 AND PUSH2 0x205A JUMPI ORIGIN PUSH0 ADDRESS PUSH1 0x40 MLOAD PUSH4 0x36030219 PUSH1 0xE2 SHL DUP2 MSTORE PUSH1 0x4 ADD PUSH2 0x7CA SWAP4 SWAP3 SWAP2 SWAP1 PUSH2 0x3EBE JUMP JUMPDEST PUSH2 0x1C1C DUP2 PUSH1 0x1 PUSH2 0x2E3F JUMP JUMPDEST PUSH2 0x206D PUSH2 0x2DFF JUMP JUMPDEST PUSH1 0xE DUP1 SLOAD PUSH1 0xFF NOT AND SWAP2 ISZERO ISZERO SWAP2 SWAP1 SWAP2 OR SWAP1 SSTORE JUMP JUMPDEST PUSH2 0x2088 PUSH2 0x2CBE JUMP JUMPDEST PUSH1 0xD SSTORE JUMP JUMPDEST PUSH2 0x2095 PUSH2 0x2CBE JUMP JUMPDEST PUSH2 0x209D PUSH2 0x1F1C JUMP JUMPDEST PUSH1 0x1 PUSH1 0x1 PUSH1 0xA0 SHL SUB AND PUSH4 0x566BBE4C PUSH1 0xB SLOAD DUP5 DUP5 PUSH1 0x40 MLOAD DUP5 PUSH4 0xFFFFFFFF AND PUSH1 0xE0 SHL DUP2 MSTORE PUSH1 0x4 ADD PUSH2 0x20CE SWAP4 SWAP3 SWAP2 SWAP1 PUSH2 0x3EE1 JUMP JUMPDEST PUSH0 PUSH1 0x40 MLOAD DUP1 DUP4 SUB DUP2 PUSH0 DUP8 DUP1 EXTCODESIZE ISZERO DUP1 ISZERO PUSH2 0x20E5 JUMPI PUSH0 PUSH0 REVERT JUMPDEST POP GAS CALL ISZERO DUP1 ISZERO PUSH2 0x1751 JUMPI RETURNDATASIZE PUSH0 PUSH0 RETURNDATACOPY RETURNDATASIZE PUSH0 REVERT JUMPDEST PUSH2 0x20FF PUSH2 0x2DFF JUMP JUMPDEST PUSH1 0x9 SLOAD PUSH1 0x40 DUP1 MLOAD PUSH4 0x17B83D95 PUSH1 0xE2 SHL DUP2 MSTORE SWAP1 MLOAD PUSH0 SWAP3 PUSH1 0x1 PUSH1 0x1 PUSH1 0xA0 SHL SUB AND SWAP2 PUSH4 0x5EE0F654 SWAP2 PUSH1 0x4 DUP1 DUP4 ADD SWAP3 DUP7 SWAP3 SWAP2 SWAP1 DUP3 SWAP1 SUB ADD DUP2 DUP4 DUP8 GAS CALL ISZERO DUP1 ISZERO PUSH2 0x2146 JUMPI RETURNDATASIZE PUSH0 PUSH0 RETURNDATACOPY RETURNDATASIZE PUSH0 REVERT JUMPDEST POP POP POP POP PUSH1 0x40 MLOAD RETURNDATASIZE PUSH0 DUP3 RETURNDATACOPY PUSH1 0x1F RETURNDATASIZE SWAP1 DUP2 ADD PUSH1 0x1F NOT AND DUP3 ADD PUSH1 0x40 MSTORE PUSH2 0x216D SWAP2 SWAP1 DUP2 ADD SWAP1 PUSH2 0x3851 JUMP JUMPDEST PUSH1 0x40 MLOAD PUSH4 0xA9059CBB PUSH1 0xE0 SHL DUP2 MSTORE SWAP1 SWAP2 POP DUP4 SWAP1 PUSH1 0x1 PUSH1 0x1 PUSH1 0xA0 SHL SUB DUP3 AND SWAP1 PUSH4 0xA9059CBB SWAP1 PUSH2 0x21A0 SWAP1 CALLER SWAP1 DUP8 SWAP1 PUSH1 0x4 ADD PUSH2 0x37A1 JUMP JUMPDEST PUSH1 0x20 PUSH1 0x40 MLOAD DUP1 DUP4 SUB DUP2 PUSH0 DUP8 GAS CALL ISZERO DUP1 ISZERO PUSH2 0x21BC JUMPI RETURNDATASIZE PUSH0 PUSH0 RETURNDATACOPY RETURNDATASIZE PUSH0 REVERT JUMPDEST POP POP POP POP PUSH1 0x40 MLOAD RETURNDATASIZE PUSH1 0x1F NOT PUSH1 0x1F DUP3 ADD AND DUP3 ADD DUP1 PUSH1 0x40 MSTORE POP DUP2 ADD SWAP1 PUSH2 0x21E0 SWAP2 SWAP1 PUSH2 0x37DE JUMP JUMPDEST POP DUP2 MLOAD PUSH1 0x9 SLOAD PUSH1 0x40 DUP1 MLOAD PUSH4 0x3D3DB08B PUSH1 0xE2 SHL DUP2 MSTORE SWAP1 MLOAD PUSH32 0xE92387FEBA3075BA4FCA643E2B60D0DAEC63B9C4C64BFD47CF2B45E0BECA4001 SWAP4 SWAP3 PUSH1 0x1 PUSH1 0x1 PUSH1 0xA0 SHL SUB AND SWAP2 PUSH4 0xF4F6C22C SWAP2 PUSH1 0x4 DUP1 DUP4 ADD SWAP3 PUSH1 0x20 SWAP3 SWAP2 SWAP1 DUP3 SWAP1 SUB ADD DUP2 DUP7 GAS STATICCALL ISZERO DUP1 ISZERO PUSH2 0x224B JUMPI RETURNDATASIZE PUSH0 PUSH0 RETURNDATACOPY RETURNDATASIZE PUSH0 REVERT JUMPDEST POP POP POP POP PUSH1 0x40 MLOAD RETURNDATASIZE PUSH1 0x1F NOT PUSH1 0x1F DUP3 ADD AND DUP3 ADD DUP1 PUSH1 0x40 MSTORE POP DUP2 ADD SWAP1 PUSH2 0x226F SWAP2 SWAP1 PUSH2 0x398F JUMP JUMPDEST PUSH1 0x1 PUSH1 0x1 PUSH1 0xA0 SHL SUB AND PUSH4 0x9FF43001 PUSH1 0x40 MLOAD DUP2 PUSH4 0xFFFFFFFF AND PUSH1 0xE0 SHL DUP2 MSTORE PUSH1 0x4 ADD PUSH1 0x20 PUSH1 0x40 MLOAD DUP1 DUP4 SUB DUP2 PUSH0 DUP8 GAS CALL ISZERO DUP1 ISZERO PUSH2 0x22AB JUMPI RETURNDATASIZE PUSH0 PUSH0 RETURNDATACOPY RETURNDATASIZE PUSH0 REVERT JUMPDEST POP POP POP POP PUSH1 0x40 MLOAD RETURNDATASIZE PUSH1 0x1F NOT PUSH1 0x1F DUP3 ADD AND DUP3 ADD DUP1 PUSH1 0x40 MSTORE POP DUP2 ADD SWAP1 PUSH2 0x22CF SWAP2 SWAP1 PUSH2 0x398F JUMP JUMPDEST PUSH1 0x1 PUSH1 0x1 PUSH1 0xA0 SHL SUB AND PUSH4 0x27BACC40 PUSH1 0x40 MLOAD DUP2 PUSH4 0xFFFFFFFF AND PUSH1 0xE0 SHL DUP2 MSTORE PUSH1 0x4 ADD PUSH1 0x20 PUSH1 0x40 MLOAD DUP1 DUP4 SUB DUP2 DUP7 GAS STATICCALL ISZERO DUP1 ISZERO PUSH2 0x230A JUMPI RETURNDATASIZE PUSH0 PUSH0 RETURNDATACOPY RETURNDATASIZE PUSH0 REVERT JUMPDEST POP POP POP POP PUSH1 0x40 MLOAD RETURNDATASIZE PUSH1 0x1F NOT PUSH1 0x1F DUP3 ADD AND DUP3 ADD DUP1 PUSH1 0x40 MSTORE POP DUP2 ADD SWAP1 PUSH2 0x232E SWAP2 SWAP1 PUSH2 0x3748 JUMP JUMPDEST PUSH1 0x40 DUP1 MLOAD PUSH1 0x1 PUSH1 0x1 PUSH1 0x40 SHL SUB SWAP4 DUP5 AND DUP2 MSTORE SWAP3 SWAP1 SWAP2 AND PUSH1 0x20 DUP4 ADD MSTORE PUSH1 0x1 PUSH1 0x1 PUSH1 0xA0 SHL SUB DUP8 AND SWAP1 DUP3 ADD MSTORE PUSH1 0x60 DUP2 ADD DUP6 SWAP1 MSTORE PUSH1 0x80 ADD PUSH2 0x10E7 JUMP JUMPDEST PUSH1 0x60 PUSH1 0x5 DUP1 SLOAD PUSH2 0x638 SWAP1 PUSH2 0x3700 JUMP JUMPDEST PUSH2 0x237C PUSH2 0x2DFF JUMP JUMPDEST PUSH1 0x4 PUSH2 0x2388 DUP4 DUP3 PUSH2 0x3A27 JUMP JUMPDEST POP PUSH1 0x5 PUSH2 0x2395 DUP3 DUP3 PUSH2 0x3A27 JUMP JUMPDEST POP POP POP JUMP JUMPDEST PUSH0 CALLER PUSH2 0xE81 DUP2 DUP6 DUP6 PUSH2 0x2DF4 JUMP JUMPDEST PUSH1 0x9 SLOAD PUSH1 0x40 DUP1 MLOAD PUSH4 0x70F6B739 PUSH1 0xE1 SHL DUP2 MSTORE SWAP1 MLOAD PUSH0 SWAP3 PUSH1 0x1 PUSH1 0x1 PUSH1 0xA0 SHL SUB AND SWAP2 PUSH4 0xE1ED6E72 SWAP2 PUSH1 0x4 DUP1 DUP4 ADD SWAP3 PUSH1 0x20 SWAP3 SWAP2 SWAP1 DUP3 SWAP1 SUB ADD DUP2 DUP7 GAS STATICCALL ISZERO DUP1 ISZERO PUSH2 0x23EE JUMPI RETURNDATASIZE PUSH0 PUSH0 RETURNDATACOPY RETURNDATASIZE PUSH0 REVERT JUMPDEST POP POP POP POP PUSH1 0x40 MLOAD RETURNDATASIZE PUSH1 0x1F NOT PUSH1 0x1F DUP3 ADD AND DUP3 ADD DUP1 PUSH1 0x40 MSTORE POP DUP2 ADD SWAP1 PUSH2 0x2412 SWAP2 SWAP1 PUSH2 0x3748 JUMP JUMPDEST PUSH1 0x1 PUSH1 0x1 PUSH1 0x40 SHL SUB DUP1 DUP3 AND PUSH0 DUP2 DUP2 MSTORE PUSH1 0x11 PUSH1 0x20 MSTORE PUSH1 0x40 SWAP1 KECCAK256 SLOAD SWAP3 SWAP4 POP SWAP2 AND SUB PUSH2 0x1C1C JUMPI PUSH2 0x1C1C DUP2 PUSH2 0x2E92 JUMP JUMPDEST PUSH1 0x1 PUSH1 0x1 PUSH1 0x40 SHL SUB DUP1 DUP4 AND PUSH0 SWAP1 DUP2 MSTORE PUSH1 0x11 PUSH1 0x20 MSTORE PUSH1 0x40 DUP2 KECCAK256 SLOAD SWAP1 SWAP2 DUP3 SWAP2 AND DUP2 SUB PUSH2 0x2498 JUMPI PUSH1 0x1 PUSH1 0x1 PUSH1 0x40 SHL SUB DUP5 DUP2 AND PUSH0 SWAP1 DUP2 MSTORE PUSH1 0x11 PUSH1 0x20 MSTORE PUSH1 0x40 SWAP1 DUP2 SWAP1 KECCAK256 SLOAD SWAP1 MLOAD PUSH4 0x6A333105 PUSH1 0xE1 SHL DUP2 MSTORE SWAP2 AND PUSH1 0x4 DUP3 ADD MSTORE PUSH1 0x24 ADD PUSH2 0x7CA JUMP JUMPDEST PUSH1 0x9 PUSH0 SWAP1 SLOAD SWAP1 PUSH2 0x100 EXP SWAP1 DIV PUSH1 0x1 PUSH1 0x1 PUSH1 0xA0 SHL SUB AND PUSH1 0x1 PUSH1 0x1 PUSH1 0xA0 SHL SUB AND PUSH4 0x929C6CA9 PUSH1 0x40 MLOAD DUP2 PUSH4 0xFFFFFFFF AND PUSH1 0xE0 SHL DUP2 MSTORE PUSH1 0x4 ADD PUSH1 0x20 PUSH1 0x40 MLOAD DUP1 DUP4 SUB DUP2 DUP7 GAS STATICCALL ISZERO DUP1 ISZERO PUSH2 0x24E8 JUMPI RETURNDATASIZE PUSH0 PUSH0 RETURNDATACOPY RETURNDATASIZE PUSH0 REVERT JUMPDEST POP POP POP POP PUSH1 0x40 MLOAD RETURNDATASIZE PUSH1 0x1F NOT PUSH1 0x1F DUP3 ADD AND DUP3 ADD DUP1 PUSH1 0x40 MSTORE POP DUP2 ADD SWAP1 PUSH2 0x250C SWAP2 SWAP1 PUSH2 0x398F JUMP JUMPDEST PUSH1 0x1 PUSH1 0x1 PUSH1 0xA0 SHL SUB AND PUSH4 0x679B9538 PUSH1 0x9 PUSH0 SWAP1 SLOAD SWAP1 PUSH2 0x100 EXP SWAP1 DIV PUSH1 0x1 PUSH1 0x1 PUSH1 0xA0 SHL SUB AND PUSH1 0x1 PUSH1 0x1 PUSH1 0xA0 SHL SUB AND PUSH4 0xC0FF5328 PUSH1 0x40 MLOAD DUP2 PUSH4 0xFFFFFFFF AND PUSH1 0xE0 SHL DUP2 MSTORE PUSH1 0x4 ADD PUSH1 0x20 PUSH1 0x40 MLOAD DUP1 DUP4 SUB DUP2 DUP7 GAS STATICCALL ISZERO DUP1 ISZERO PUSH2 0x256A JUMPI RETURNDATASIZE PUSH0 PUSH0 RETURNDATACOPY RETURNDATASIZE PUSH0 REVERT JUMPDEST POP POP POP POP PUSH1 0x40 MLOAD RETURNDATASIZE PUSH1 0x1F NOT PUSH1 0x1F DUP3 ADD AND DUP3 ADD DUP1 PUSH1 0x40 MSTORE POP DUP2 ADD SWAP1 PUSH2 0x258E SWAP2 SWAP1 PUSH2 0x398F JUMP JUMPDEST PUSH1 0x1 PUSH1 0x1 PUSH1 0x40 SHL SUB DUP1 DUP9 AND PUSH0 SWAP1 DUP2 MSTORE PUSH1 0x11 PUSH1 0x20 MSTORE PUSH1 0x40 SWAP1 DUP2 SWAP1 KECCAK256 PUSH1 0x4 SWAP1 DUP2 ADD SLOAD SWAP2 MLOAD PUSH1 0x1 PUSH1 0x1 PUSH1 0xE0 SHL SUB NOT PUSH1 0xE0 DUP8 SWAP1 SHL AND DUP2 MSTORE PUSH2 0x25DA SWAP5 SWAP4 PUSH1 0x1 PUSH1 0x40 SHL SWAP1 SWAP4 DIV SWAP1 SWAP3 AND DUP10 XOR SWAP2 ADD PUSH2 0x3F11 JUMP JUMPDEST PUSH1 0x40 DUP1 MLOAD DUP1 DUP4 SUB DUP2 PUSH0 DUP8 GAS CALL ISZERO DUP1 ISZERO PUSH2 0x25F5 JUMPI RETURNDATASIZE PUSH0 PUSH0 RETURNDATACOPY RETURNDATASIZE PUSH0 REVERT JUMPDEST POP POP POP POP PUSH1 0x40 MLOAD RETURNDATASIZE PUSH1 0x1F NOT PUSH1 0x1F DUP3 ADD AND DUP3 ADD DUP1 PUSH1 0x40 MSTORE POP DUP2 ADD SWAP1 PUSH2 0x2619 SWAP2 SWAP1 PUSH2 0x3D26 JUMP JUMPDEST PUSH1 0x1 PUSH1 0x1 PUSH1 0x40 SHL SUB DUP1 DUP8 AND PUSH0 SWAP1 DUP2 MSTORE PUSH1 0x11 PUSH1 0x20 SWAP1 DUP2 MSTORE PUSH1 0x40 SWAP2 DUP3 SWAP1 KECCAK256 PUSH1 0x4 SWAP1 DUP2 ADD DUP1 SLOAD SWAP7 DUP6 AND PUSH1 0x1 PUSH1 0x40 SHL MUL PUSH8 0xFFFFFFFFFFFFFFFF PUSH1 0x40 SHL NOT SWAP7 SWAP1 SWAP6 AND PUSH1 0x1 PUSH1 0x80 SHL MUL SWAP6 SWAP1 SWAP6 AND PUSH1 0x1 PUSH1 0x40 SHL PUSH1 0x1 PUSH1 0xC0 SHL SUB NOT SWAP1 SWAP7 AND SWAP6 SWAP1 SWAP6 OR SWAP3 SWAP1 SWAP3 OR SWAP1 SWAP3 SSTORE PUSH1 0x9 SLOAD DUP3 MLOAD PUSH4 0x929C6CA9 PUSH1 0xE0 SHL DUP2 MSTORE SWAP3 MLOAD PUSH1 0x1 PUSH1 0x1 PUSH1 0xA0 SHL SUB SWAP1 SWAP2 AND SWAP4 PUSH4 0x929C6CA9 SWAP4 DUP1 DUP3 ADD SWAP4 SWAP3 SWAP2 SWAP1 DUP3 SWAP1 SUB ADD DUP2 DUP7 GAS STATICCALL ISZERO DUP1 ISZERO PUSH2 0x26BB JUMPI RETURNDATASIZE PUSH0 PUSH0 RETURNDATACOPY RETURNDATASIZE PUSH0 REVERT JUMPDEST POP POP POP POP PUSH1 0x40 MLOAD RETURNDATASIZE PUSH1 0x1F NOT PUSH1 0x1F DUP3 ADD AND DUP3 ADD DUP1 PUSH1 0x40 MSTORE POP DUP2 ADD SWAP1 PUSH2 0x26DF SWAP2 SWAP1 PUSH2 0x398F JUMP JUMPDEST PUSH1 0x1 PUSH1 0x1 PUSH1 0xA0 SHL SUB AND PUSH4 0x679B9538 PUSH1 0x9 PUSH0 SWAP1 SLOAD SWAP1 PUSH2 0x100 EXP SWAP1 DIV PUSH1 0x1 PUSH1 0x1 PUSH1 0xA0 SHL SUB AND PUSH1 0x1 PUSH1 0x1 PUSH1 0xA0 SHL SUB AND PUSH4 0xC0FF5328 PUSH1 0x40 MLOAD DUP2 PUSH4 0xFFFFFFFF AND PUSH1 0xE0 SHL DUP2 MSTORE PUSH1 0x4 ADD PUSH1 0x20 PUSH1 0x40 MLOAD DUP1 DUP4 SUB DUP2 DUP7 GAS STATICCALL ISZERO DUP1 ISZERO PUSH2 0x273D JUMPI RETURNDATASIZE PUSH0 PUSH0 RETURNDATACOPY RETURNDATASIZE PUSH0 REVERT JUMPDEST POP POP POP POP PUSH1 0x40 MLOAD RETURNDATASIZE PUSH1 0x1F NOT PUSH1 0x1F DUP3 ADD AND DUP3 ADD DUP1 PUSH1 0x40 MSTORE POP DUP2 ADD SWAP1 PUSH2 0x2761 SWAP2 SWAP1 PUSH2 0x398F JUMP JUMPDEST PUSH1 0x1 PUSH1 0x1 PUSH1 0x40 SHL SUB DUP1 DUP9 AND PUSH0 SWAP1 DUP2 MSTORE PUSH1 0x11 PUSH1 0x20 SWAP1 DUP2 MSTORE PUSH1 0x40 SWAP2 DUP3 SWAP1 KECCAK256 PUSH1 0x4 SWAP1 DUP2 ADD SLOAD PUSH1 0x9 SLOAD DUP5 MLOAD PUSH4 0xE61C05D PUSH1 0xE3 SHL DUP2 MSTORE SWAP5 MLOAD PUSH1 0x1 PUSH1 0x80 SHL SWAP1 SWAP3 DIV SWAP1 SWAP6 AND SWAP5 PUSH1 0x1 PUSH1 0x1 PUSH1 0xA0 SHL SUB AND SWAP4 PUSH4 0x730E02E8 SWAP4 DUP2 DUP5 ADD SWAP4 SWAP1 SWAP3 SWAP2 DUP3 SWAP1 SUB ADD DUP2 DUP7 GAS STATICCALL ISZERO DUP1 ISZERO PUSH2 0x27CE JUMPI RETURNDATASIZE PUSH0 PUSH0 RETURNDATACOPY RETURNDATASIZE PUSH0 REVERT JUMPDEST POP POP POP POP PUSH1 0x40 MLOAD RETURNDATASIZE PUSH1 0x1F NOT PUSH1 0x1F DUP3 ADD AND DUP3 ADD DUP1 PUSH1 0x40 MSTORE POP DUP2 ADD SWAP1 PUSH2 0x27F2 SWAP2 SWAP1 PUSH2 0x3748 JUMP JUMPDEST XOR PUSH1 0x40 MLOAD DUP4 PUSH4 0xFFFFFFFF AND PUSH1 0xE0 SHL DUP2 MSTORE PUSH1 0x4 ADD PUSH2 0x2810 SWAP3 SWAP2 SWAP1 PUSH2 0x3F11 JUMP JUMPDEST PUSH1 0x40 DUP1 MLOAD DUP1 DUP4 SUB DUP2 PUSH0 DUP8 GAS CALL ISZERO DUP1 ISZERO PUSH2 0x282B JUMPI RETURNDATASIZE PUSH0 PUSH0 RETURNDATACOPY RETURNDATASIZE PUSH0 REVERT JUMPDEST POP POP POP POP PUSH1 0x40 MLOAD RETURNDATASIZE PUSH1 0x1F NOT PUSH1 0x1F DUP3 ADD AND DUP3 ADD DUP1 PUSH1 0x40 MSTORE POP DUP2 ADD SWAP1 PUSH2 0x284F SWAP2 SWAP1 PUSH2 0x3D26 JUMP JUMPDEST SWAP2 POP SWAP2 POP SWAP3 POP SWAP3 SWAP1 POP JUMP JUMPDEST PUSH2 0x2862 PUSH2 0x2CBE JUMP JUMPDEST PUSH1 0x9 SLOAD PUSH1 0x40 DUP1 MLOAD PUSH4 0x70F6B739 PUSH1 0xE1 SHL DUP2 MSTORE SWAP1 MLOAD PUSH0 SWAP3 PUSH1 0x1 PUSH1 0x1 PUSH1 0xA0 SHL SUB AND SWAP2 PUSH4 0xE1ED6E72 SWAP2 PUSH1 0x4 DUP1 DUP4 ADD SWAP3 PUSH1 0x20 SWAP3 SWAP2 SWAP1 DUP3 SWAP1 SUB ADD DUP2 DUP7 GAS STATICCALL ISZERO DUP1 ISZERO PUSH2 0x28A9 JUMPI RETURNDATASIZE PUSH0 PUSH0 RETURNDATACOPY RETURNDATASIZE PUSH0 REVERT JUMPDEST POP POP POP POP PUSH1 0x40 MLOAD RETURNDATASIZE PUSH1 0x1F NOT PUSH1 0x1F DUP3 ADD AND DUP3 ADD DUP1 PUSH1 0x40 MSTORE POP DUP2 ADD SWAP1 PUSH2 0x28CD SWAP2 SWAP1 PUSH2 0x3748 JUMP JUMPDEST PUSH1 0x1 PUSH1 0x1 PUSH1 0x40 SHL SUB DUP1 DUP3 AND PUSH0 SWAP1 DUP2 MSTORE PUSH1 0x11 PUSH1 0x20 SWAP1 DUP2 MSTORE PUSH1 0x40 DUP1 DUP4 KECCAK256 DUP2 MLOAD PUSH1 0x80 DUP1 DUP3 ADD DUP5 MSTORE DUP3 SLOAD DUP8 AND DUP3 MSTORE DUP4 MLOAD PUSH2 0x100 DUP2 ADD DUP6 MSTORE PUSH1 0x1 DUP5 ADD SLOAD PUSH1 0x1 PUSH1 0x1 PUSH1 0xA0 SHL SUB SWAP1 DUP2 AND DUP3 MSTORE PUSH1 0x2 DUP6 ADD SLOAD DUP1 DUP3 AND DUP4 DUP10 ADD MSTORE PUSH1 0x1 PUSH1 0xA0 SHL SWAP1 DIV DUP10 AND DUP3 DUP8 ADD MSTORE PUSH1 0x3 DUP6 ADD SLOAD DUP1 DUP11 AND PUSH1 0x60 DUP5 ADD MSTORE PUSH1 0x1 PUSH1 0x40 SHL SWAP1 DUP2 SWAP1 DIV SWAP1 SWAP2 AND SWAP3 DUP3 ADD SWAP3 SWAP1 SWAP3 MSTORE PUSH1 0x4 DUP5 ADD SLOAD DUP1 DUP10 AND PUSH1 0xA0 DUP4 ADD MSTORE SWAP2 DUP3 DIV DUP9 AND PUSH1 0xC0 DUP3 ADD MSTORE PUSH1 0x1 PUSH1 0x80 SHL SWAP1 SWAP2 DIV SWAP1 SWAP7 AND PUSH1 0xE0 DUP8 ADD MSTORE SWAP3 DUP4 ADD SWAP5 SWAP1 SWAP5 MSTORE PUSH1 0x5 DUP5 ADD DUP1 SLOAD SWAP6 SWAP7 POP SWAP3 SWAP5 SWAP2 SWAP4 SWAP3 SWAP1 DUP5 ADD SWAP2 PUSH2 0x2994 SWAP1 PUSH2 0x3700 JUMP JUMPDEST DUP1 PUSH1 0x1F ADD PUSH1 0x20 DUP1 SWAP2 DIV MUL PUSH1 0x20 ADD PUSH1 0x40 MLOAD SWAP1 DUP2 ADD PUSH1 0x40 MSTORE DUP1 SWAP3 SWAP2 SWAP1 DUP2 DUP2 MSTORE PUSH1 0x20 ADD DUP3 DUP1 SLOAD PUSH2 0x29C0 SWAP1 PUSH2 0x3700 JUMP JUMPDEST DUP1 ISZERO PUSH2 0x2A0B JUMPI DUP1 PUSH1 0x1F LT PUSH2 0x29E2 JUMPI PUSH2 0x100 DUP1 DUP4 SLOAD DIV MUL DUP4 MSTORE SWAP2 PUSH1 0x20 ADD SWAP2 PUSH2 0x2A0B JUMP JUMPDEST DUP3 ADD SWAP2 SWAP1 PUSH0 MSTORE PUSH1 0x20 PUSH0 KECCAK256 SWAP1 JUMPDEST DUP2 SLOAD DUP2 MSTORE SWAP1 PUSH1 0x1 ADD SWAP1 PUSH1 0x20 ADD DUP1 DUP4 GT PUSH2 0x29EE JUMPI DUP3 SWAP1 SUB PUSH1 0x1F AND DUP3 ADD SWAP2 JUMPDEST POP POP POP SWAP2 DUP4 MSTORE POP POP PUSH1 0x6 SWAP2 SWAP1 SWAP2 ADD SLOAD PUSH1 0x1 PUSH1 0x1 PUSH1 0x40 SHL SUB AND PUSH1 0x20 SWAP1 SWAP2 ADD MSTORE SWAP1 POP PUSH0 JUMPDEST PUSH1 0x12 SLOAD PUSH2 0xFFFF DUP3 AND LT ISZERO PUSH2 0x2BC4 JUMPI DUP5 PUSH1 0x1 PUSH1 0x1 PUSH1 0x40 SHL SUB AND PUSH1 0x12 DUP3 PUSH2 0xFFFF AND DUP2 SLOAD DUP2 LT PUSH2 0x2A5C JUMPI PUSH2 0x2A5C PUSH2 0x3EAA JUMP JUMPDEST PUSH0 SWAP2 DUP3 MSTORE PUSH1 0x20 SWAP1 SWAP2 KECCAK256 PUSH1 0x4 DUP3 DIV ADD SLOAD PUSH1 0x3 SWAP1 SWAP2 AND PUSH1 0x8 MUL PUSH2 0x100 EXP SWAP1 DIV PUSH1 0x1 PUSH1 0x1 PUSH1 0x40 SHL SUB AND SUB PUSH2 0x2BB2 JUMPI PUSH32 0xE525F4574DEAA438DB7D25E31B0FBF75A2D4FA47A86428BCE22994969B5027D8 DUP3 PUSH0 ADD MLOAD DUP4 PUSH1 0x40 ADD MLOAD PUSH1 0x12 DUP5 PUSH2 0xFFFF AND DUP2 SLOAD DUP2 LT PUSH2 0x2AC8 JUMPI PUSH2 0x2AC8 PUSH2 0x3EAA JUMP JUMPDEST SWAP1 PUSH0 MSTORE PUSH1 0x20 PUSH0 KECCAK256 SWAP1 PUSH1 0x4 SWAP2 DUP3 DUP3 DIV ADD SWAP2 SWAP1 MOD PUSH1 0x8 MUL SWAP1 SLOAD SWAP1 PUSH2 0x100 EXP SWAP1 DIV PUSH1 0x1 PUSH1 0x1 PUSH1 0x40 SHL SUB AND PUSH1 0x11 PUSH0 PUSH1 0x12 DUP8 PUSH2 0xFFFF AND DUP2 SLOAD DUP2 LT PUSH2 0x2B09 JUMPI PUSH2 0x2B09 PUSH2 0x3EAA JUMP JUMPDEST SWAP1 PUSH0 MSTORE PUSH1 0x20 PUSH0 KECCAK256 SWAP1 PUSH1 0x4 SWAP2 DUP3 DUP3 DIV ADD SWAP2 SWAP1 MOD PUSH1 0x8 MUL SWAP1 SLOAD SWAP1 PUSH2 0x100 EXP SWAP1 DIV PUSH1 0x1 PUSH1 0x1 PUSH1 0x40 SHL SUB AND PUSH1 0x1 PUSH1 0x1 PUSH1 0x40 SHL SUB AND PUSH1 0x1 PUSH1 0x1 PUSH1 0x40 SHL SUB AND DUP2 MSTORE PUSH1 0x20 ADD SWAP1 DUP2 MSTORE PUSH1 0x20 ADD PUSH0 KECCAK256 PUSH1 0x5 ADD DUP9 PUSH1 0x40 MLOAD PUSH2 0x2B64 SWAP6 SWAP5 SWAP4 SWAP3 SWAP2 SWAP1 PUSH2 0x3F33 JUMP JUMPDEST PUSH1 0x40 MLOAD DUP1 SWAP2 SUB SWAP1 LOG1 PUSH2 0x2BB2 PUSH1 0x12 DUP3 PUSH2 0xFFFF AND DUP2 SLOAD DUP2 LT PUSH2 0x2B86 JUMPI PUSH2 0x2B86 PUSH2 0x3EAA JUMP JUMPDEST SWAP1 PUSH0 MSTORE PUSH1 0x20 PUSH0 KECCAK256 SWAP1 PUSH1 0x4 SWAP2 DUP3 DUP3 DIV ADD SWAP2 SWAP1 MOD PUSH1 0x8 MUL SWAP1 SLOAD SWAP1 PUSH2 0x100 EXP SWAP1 DIV PUSH1 0x1 PUSH1 0x1 PUSH1 0x40 SHL SUB AND PUSH2 0x2E92 JUMP JUMPDEST DUP1 PUSH2 0x2BBC DUP2 PUSH2 0x3F89 JUMP JUMPDEST SWAP2 POP POP PUSH2 0x2A2D JUMP JUMPDEST POP POP POP POP POP JUMP JUMPDEST PUSH1 0x1 PUSH1 0x1 PUSH1 0xA0 SHL SUB SWAP2 DUP3 AND PUSH0 SWAP1 DUP2 MSTORE PUSH1 0x2 PUSH1 0x20 SWAP1 DUP2 MSTORE PUSH1 0x40 DUP1 DUP4 KECCAK256 SWAP4 SWAP1 SWAP5 AND DUP3 MSTORE SWAP2 SWAP1 SWAP2 MSTORE KECCAK256 SLOAD SWAP1 JUMP JUMPDEST PUSH2 0x2BFD PUSH2 0x2DFF JUMP JUMPDEST PUSH2 0x2C05 PUSH2 0x2C6F JUMP JUMPDEST JUMP JUMPDEST PUSH2 0x2C0F PUSH2 0x2CBE JUMP JUMPDEST PUSH2 0x2C17 PUSH2 0x1F1C JUMP JUMPDEST PUSH1 0x1 PUSH1 0x1 PUSH1 0xA0 SHL SUB AND PUSH4 0x9F74D646 PUSH1 0xB SLOAD DUP4 PUSH1 0x40 MLOAD DUP4 PUSH4 0xFFFFFFFF AND PUSH1 0xE0 SHL DUP2 MSTORE PUSH1 0x4 ADD PUSH2 0x2C46 SWAP3 SWAP2 SWAP1 PUSH2 0x3FA9 JUMP JUMPDEST PUSH0 PUSH1 0x40 MLOAD DUP1 DUP4 SUB DUP2 PUSH0 DUP8 DUP1 EXTCODESIZE ISZERO DUP1 ISZERO PUSH2 0x2C5D JUMPI PUSH0 PUSH0 REVERT JUMPDEST POP GAS CALL ISZERO DUP1 ISZERO PUSH2 0x2BC4 JUMPI RETURNDATASIZE PUSH0 PUSH0 RETURNDATACOPY RETURNDATASIZE PUSH0 REVERT JUMPDEST PUSH2 0x2C7B PUSH1 0x12 PUSH1 0xA PUSH2 0x3E36 JUMP JUMPDEST PUSH1 0x7 SLOAD PUSH2 0x2C88 SWAP2 SWAP1 PUSH2 0x3E44 JUMP JUMPDEST PUSH1 0x3 SLOAD LT ISZERO PUSH2 0x2C05 JUMPI PUSH2 0x2C05 ADDRESS PUSH2 0x2CA1 PUSH1 0x12 PUSH1 0xA PUSH2 0x3E36 JUMP JUMPDEST PUSH2 0x2CAC SWAP1 PUSH1 0x1 PUSH2 0x3E44 JUMP JUMPDEST PUSH2 0x309F JUMP JUMPDEST PUSH2 0x2395 DUP4 DUP4 DUP4 PUSH1 0x1 PUSH2 0x30AA JUMP JUMPDEST PUSH2 0x2CC7 CALLER PUSH2 0x1C1F JUMP JUMPDEST ISZERO DUP1 ISZERO PUSH2 0x2CDA JUMPI POP PUSH2 0x2CD8 ORIGIN PUSH2 0x1C1F JUMP JUMPDEST ISZERO JUMPDEST ISZERO PUSH2 0x2C05 JUMPI PUSH1 0x9 SLOAD PUSH1 0x40 DUP1 MLOAD PUSH4 0x70F6B739 PUSH1 0xE1 SHL DUP2 MSTORE SWAP1 MLOAD PUSH0 SWAP3 PUSH1 0x1 PUSH1 0x1 PUSH1 0xA0 SHL SUB AND SWAP2 PUSH4 0xE1ED6E72 SWAP2 PUSH1 0x4 DUP1 DUP4 ADD SWAP3 PUSH1 0x20 SWAP3 SWAP2 SWAP1 DUP3 SWAP1 SUB ADD DUP2 DUP7 GAS STATICCALL ISZERO DUP1 ISZERO PUSH2 0x2D26 JUMPI RETURNDATASIZE PUSH0 PUSH0 RETURNDATACOPY RETURNDATASIZE PUSH0 REVERT JUMPDEST POP POP POP POP PUSH1 0x40 MLOAD RETURNDATASIZE PUSH1 0x1F NOT PUSH1 0x1F DUP3 ADD AND DUP3 ADD DUP1 PUSH1 0x40 MSTORE POP DUP2 ADD SWAP1 PUSH2 0x2D4A SWAP2 SWAP1 PUSH2 0x3748 JUMP JUMPDEST PUSH1 0x1 PUSH1 0x1 PUSH1 0x40 SHL SUB DUP2 AND PUSH0 SWAP1 DUP2 MSTORE PUSH1 0x11 PUSH1 0x20 MSTORE PUSH1 0x40 SWAP1 KECCAK256 PUSH1 0x1 ADD SLOAD SWAP1 SWAP2 POP PUSH2 0x2D7A SWAP1 PUSH1 0x1 PUSH1 0x1 PUSH1 0xA0 SHL SUB AND PUSH2 0x1C1F JUMP JUMPDEST PUSH2 0x1C1C JUMPI ORIGIN CALLER ADDRESS PUSH1 0x40 MLOAD PUSH4 0xB6C14F53 PUSH1 0xE0 SHL DUP2 MSTORE PUSH1 0x4 ADD PUSH2 0x7CA SWAP4 SWAP3 SWAP2 SWAP1 PUSH2 0x3EBE JUMP JUMPDEST PUSH0 PUSH2 0x2DA8 DUP5 DUP5 PUSH2 0x2BCB JUMP JUMPDEST SWAP1 POP PUSH0 NOT DUP2 EQ PUSH2 0x2DEE JUMPI DUP2 DUP2 LT ISZERO PUSH2 0x2DE0 JUMPI ORIGIN CALLER DUP6 DUP6 ADDRESS DUP6 DUP8 PUSH1 0x40 MLOAD PUSH3 0xB83D19 PUSH1 0xE2 SHL DUP2 MSTORE PUSH1 0x4 ADD PUSH2 0x7CA SWAP8 SWAP7 SWAP6 SWAP5 SWAP4 SWAP3 SWAP2 SWAP1 PUSH2 0x3FC1 JUMP JUMPDEST PUSH2 0x2DEE DUP5 DUP5 DUP5 DUP5 SUB PUSH0 PUSH2 0x30AA JUMP JUMPDEST POP POP POP POP JUMP JUMPDEST PUSH2 0x2395 DUP4 DUP4 DUP4 PUSH2 0x312A JUMP JUMPDEST PUSH2 0x2E08 CALLER PUSH2 0x2008 JUMP JUMPDEST ISZERO DUP1 ISZERO PUSH2 0x2E1B JUMPI POP PUSH2 0x2E19 ORIGIN PUSH2 0x2008 JUMP JUMPDEST ISZERO JUMPDEST ISZERO PUSH2 0x2C05 JUMPI ORIGIN CALLER ADDRESS PUSH1 0x40 MLOAD PUSH4 0xBE6BAB5 PUSH1 0xE0 SHL DUP2 MSTORE PUSH1 0x4 ADD PUSH2 0x7CA SWAP4 SWAP3 SWAP2 SWAP1 PUSH2 0x3EBE JUMP JUMPDEST PUSH1 0x1 PUSH1 0x1 PUSH1 0xA0 SHL SUB DUP3 AND PUSH0 DUP2 DUP2 MSTORE PUSH1 0x20 DUP2 SWAP1 MSTORE PUSH1 0x40 DUP1 DUP3 KECCAK256 DUP1 SLOAD PUSH1 0xFF NOT AND DUP6 ISZERO ISZERO SWAP1 DUP2 OR SWAP1 SWAP2 SSTORE SWAP1 MLOAD SWAP1 SWAP3 SWAP2 PUSH32 0x6BFA7E860C3E9BF67B810CB88276B19B27C972812BAC04793D369B59A1183A83 SWAP2 LOG3 POP POP JUMP JUMPDEST PUSH0 JUMPDEST PUSH1 0x12 SLOAD PUSH2 0xFFFF DUP3 AND LT ISZERO PUSH2 0xE70 JUMPI DUP2 PUSH1 0x1 PUSH1 0x1 PUSH1 0x40 SHL SUB AND PUSH1 0x12 DUP3 PUSH2 0xFFFF AND DUP2 SLOAD DUP2 LT PUSH2 0x2EC3 JUMPI PUSH2 0x2EC3 PUSH2 0x3EAA JUMP JUMPDEST PUSH0 SWAP2 DUP3 MSTORE PUSH1 0x20 SWAP1 SWAP2 KECCAK256 PUSH1 0x4 DUP3 DIV ADD SLOAD PUSH1 0x3 SWAP1 SWAP2 AND PUSH1 0x8 MUL PUSH2 0x100 EXP SWAP1 DIV PUSH1 0x1 PUSH1 0x1 PUSH1 0x40 SHL SUB AND SUB PUSH2 0x308D JUMPI PUSH1 0x11 PUSH0 PUSH1 0x12 DUP4 PUSH2 0xFFFF AND DUP2 SLOAD DUP2 LT PUSH2 0x2F08 JUMPI PUSH2 0x2F08 PUSH2 0x3EAA JUMP JUMPDEST PUSH0 SWAP2 DUP3 MSTORE PUSH1 0x20 DUP1 DUP4 KECCAK256 PUSH1 0x4 DUP1 DUP5 DIV SWAP1 SWAP2 ADD SLOAD PUSH1 0x3 SWAP4 DUP5 AND PUSH1 0x8 MUL PUSH2 0x100 EXP SWAP1 DIV PUSH1 0x1 PUSH1 0x1 PUSH1 0x40 SHL SUB AND DUP6 MSTORE SWAP1 DUP5 ADD SWAP5 SWAP1 SWAP5 MSTORE PUSH1 0x40 SWAP1 SWAP3 ADD DUP2 KECCAK256 DUP1 SLOAD PUSH8 0xFFFFFFFFFFFFFFFF NOT AND DUP2 SSTORE PUSH1 0x1 DUP2 ADD DUP1 SLOAD PUSH1 0x1 PUSH1 0x1 PUSH1 0xA0 SHL SUB NOT AND SWAP1 SSTORE PUSH1 0x2 DUP2 ADD DUP1 SLOAD PUSH1 0x1 PUSH1 0x1 PUSH1 0xE0 SHL SUB NOT SWAP1 DUP2 AND SWAP1 SWAP2 SSTORE SWAP3 DUP2 ADD DUP1 SLOAD SWAP1 SWAP4 AND SWAP1 SWAP3 SSTORE SWAP2 DUP2 ADD DUP1 SLOAD PUSH1 0x1 PUSH1 0x1 PUSH1 0xC0 SHL SUB NOT AND SWAP1 SSTORE SWAP1 PUSH2 0x2FA1 PUSH1 0x5 DUP4 ADD DUP3 PUSH2 0x3245 JUMP JUMPDEST POP PUSH1 0x6 ADD DUP1 SLOAD PUSH8 0xFFFFFFFFFFFFFFFF NOT AND SWAP1 SSTORE PUSH1 0x12 DUP1 SLOAD PUSH2 0x2FC4 SWAP1 PUSH1 0x1 SWAP1 PUSH2 0x4004 JUMP JUMPDEST DUP2 SLOAD DUP2 LT PUSH2 0x2FD4 JUMPI PUSH2 0x2FD4 PUSH2 0x3EAA JUMP JUMPDEST SWAP1 PUSH0 MSTORE PUSH1 0x20 PUSH0 KECCAK256 SWAP1 PUSH1 0x4 SWAP2 DUP3 DUP3 DIV ADD SWAP2 SWAP1 MOD PUSH1 0x8 MUL SWAP1 SLOAD SWAP1 PUSH2 0x100 EXP SWAP1 DIV PUSH1 0x1 PUSH1 0x1 PUSH1 0x40 SHL SUB AND PUSH1 0x12 DUP3 PUSH2 0xFFFF AND DUP2 SLOAD DUP2 LT PUSH2 0x3012 JUMPI PUSH2 0x3012 PUSH2 0x3EAA JUMP JUMPDEST SWAP1 PUSH0 MSTORE PUSH1 0x20 PUSH0 KECCAK256 SWAP1 PUSH1 0x4 SWAP2 DUP3 DUP3 DIV ADD SWAP2 SWAP1 MOD PUSH1 0x8 MUL PUSH2 0x100 EXP DUP2 SLOAD DUP2 PUSH1 0x1 PUSH1 0x1 PUSH1 0x40 SHL SUB MUL NOT AND SWAP1 DUP4 PUSH1 0x1 PUSH1 0x1 PUSH1 0x40 SHL SUB AND MUL OR SWAP1 SSTORE POP PUSH1 0x12 DUP1 SLOAD DUP1 PUSH2 0x305A JUMPI PUSH2 0x305A PUSH2 0x4017 JUMP JUMPDEST PUSH0 DUP3 DUP2 MSTORE PUSH1 0x20 SWAP1 KECCAK256 PUSH1 0x4 PUSH0 NOT SWAP1 SWAP3 ADD SWAP2 DUP3 DIV ADD DUP1 SLOAD PUSH1 0x1 PUSH1 0x1 PUSH1 0x40 SHL SUB PUSH1 0x8 PUSH1 0x3 DUP6 AND MUL PUSH2 0x100 EXP MUL NOT AND SWAP1 SSTORE SWAP1 SSTORE POP POP JUMP JUMPDEST DUP1 PUSH2 0x3097 DUP2 PUSH2 0x3F89 JUMP JUMPDEST SWAP2 POP POP PUSH2 0x2E94 JUMP JUMPDEST PUSH2 0xE70 PUSH0 DUP4 DUP4 PUSH2 0x312A JUMP JUMPDEST PUSH1 0x1 PUSH1 0x1 PUSH1 0xA0 SHL SUB DUP1 DUP6 AND PUSH0 SWAP1 DUP2 MSTORE PUSH1 0x2 PUSH1 0x20 SWAP1 DUP2 MSTORE PUSH1 0x40 DUP1 DUP4 KECCAK256 SWAP4 DUP8 AND DUP4 MSTORE SWAP3 SWAP1 MSTORE KECCAK256 DUP3 SWAP1 SSTORE DUP1 ISZERO PUSH2 0x2DEE JUMPI DUP3 PUSH1 0x1 PUSH1 0x1 PUSH1 0xA0 SHL SUB AND DUP5 PUSH1 0x1 PUSH1 0x1 PUSH1 0xA0 SHL SUB AND PUSH32 0x8C5BE1E5EBEC7D5BD14F71427D1E84F3DD0314C0F7B2291E5B200AC8C7C3B925 DUP5 PUSH1 0x40 MLOAD PUSH2 0x311C SWAP2 DUP2 MSTORE PUSH1 0x20 ADD SWAP1 JUMP JUMPDEST PUSH1 0x40 MLOAD DUP1 SWAP2 SUB SWAP1 LOG3 POP POP POP POP JUMP JUMPDEST PUSH1 0x1 PUSH1 0x1 PUSH1 0xA0 SHL SUB DUP4 AND PUSH2 0x3154 JUMPI DUP1 PUSH1 0x3 PUSH0 DUP3 DUP3 SLOAD PUSH2 0x3149 SWAP2 SWAP1 PUSH2 0x378E JUMP JUMPDEST SWAP1 SWAP2 SSTORE POP PUSH2 0x31B9 SWAP1 POP JUMP JUMPDEST PUSH1 0x1 PUSH1 0x1 PUSH1 0xA0 SHL SUB DUP4 AND PUSH0 SWAP1 DUP2 MSTORE PUSH1 0x1 PUSH1 0x20 MSTORE PUSH1 0x40 SWAP1 KECCAK256 SLOAD DUP2 DUP2 LT ISZERO PUSH2 0x319B JUMPI ORIGIN CALLER DUP6 DUP6 ADDRESS DUP6 DUP8 PUSH1 0x40 MLOAD PUSH4 0xF7D0BBD PUSH1 0xE2 SHL DUP2 MSTORE PUSH1 0x4 ADD PUSH2 0x7CA SWAP8 SWAP7 SWAP6 SWAP5 SWAP4 SWAP3 SWAP2 SWAP1 PUSH2 0x3FC1 JUMP JUMPDEST PUSH1 0x1 PUSH1 0x1 PUSH1 0xA0 SHL SUB DUP5 AND PUSH0 SWAP1 DUP2 MSTORE PUSH1 0x1 PUSH1 0x20 MSTORE PUSH1 0x40 SWAP1 KECCAK256 SWAP1 DUP3 SWAP1 SUB SWAP1 SSTORE JUMPDEST PUSH1 0x1 PUSH1 0x1 PUSH1 0xA0 SHL SUB DUP3 AND PUSH2 0x31D5 JUMPI PUSH1 0x3 DUP1 SLOAD DUP3 SWAP1 SUB SWAP1 SSTORE PUSH2 0x31F3 JUMP JUMPDEST PUSH1 0x1 PUSH1 0x1 PUSH1 0xA0 SHL SUB DUP3 AND PUSH0 SWAP1 DUP2 MSTORE PUSH1 0x1 PUSH1 0x20 MSTORE PUSH1 0x40 SWAP1 KECCAK256 DUP1 SLOAD DUP3 ADD SWAP1 SSTORE JUMPDEST DUP2 PUSH1 0x1 PUSH1 0x1 PUSH1 0xA0 SHL SUB AND DUP4 PUSH1 0x1 PUSH1 0x1 PUSH1 0xA0 SHL SUB AND PUSH32 0xDDF252AD1BE2C89B69C2B068FC378DAA952BA7F163C4A11628F55A4DF523B3EF DUP4 PUSH1 0x40 MLOAD PUSH2 0x3238 SWAP2 DUP2 MSTORE PUSH1 0x20 ADD SWAP1 JUMP JUMPDEST PUSH1 0x40 MLOAD DUP1 SWAP2 SUB SWAP1 LOG3 POP POP POP JUMP JUMPDEST POP DUP1 SLOAD PUSH2 0x3251 SWAP1 PUSH2 0x3700 JUMP JUMPDEST PUSH0 DUP3 SSTORE DUP1 PUSH1 0x1F LT PUSH2 0x3260 JUMPI POP POP JUMP JUMPDEST PUSH1 0x1F ADD PUSH1 0x20 SWAP1 DIV SWAP1 PUSH0 MSTORE PUSH1 0x20 PUSH0 KECCAK256 SWAP1 DUP2 ADD SWAP1 PUSH2 0x1C1C SWAP2 SWAP1 JUMPDEST DUP1 DUP3 GT ISZERO PUSH2 0x328B JUMPI PUSH0 DUP2 SSTORE PUSH1 0x1 ADD PUSH2 0x3278 JUMP JUMPDEST POP SWAP1 JUMP JUMPDEST PUSH0 DUP2 MLOAD DUP1 DUP5 MSTORE DUP1 PUSH1 0x20 DUP5 ADD PUSH1 0x20 DUP7 ADD MCOPY PUSH0 PUSH1 0x20 DUP3 DUP7 ADD ADD MSTORE PUSH1 0x20 PUSH1 0x1F NOT PUSH1 0x1F DUP4 ADD AND DUP6 ADD ADD SWAP2 POP POP SWAP3 SWAP2 POP POP JUMP JUMPDEST PUSH1 0x20 DUP2 MSTORE PUSH0 PUSH2 0x1E5D PUSH1 0x20 DUP4 ADD DUP5 PUSH2 0x328F JUMP JUMPDEST PUSH1 0x1 PUSH1 0x1 PUSH1 0xA0 SHL SUB DUP2 AND DUP2 EQ PUSH2 0x1C1C JUMPI PUSH0 PUSH0 REVERT JUMPDEST PUSH0 PUSH1 0x20 DUP3 DUP5 SUB SLT ISZERO PUSH2 0x32F3 JUMPI PUSH0 PUSH0 REVERT JUMPDEST DUP2 CALLDATALOAD PUSH2 0x1E5D DUP2 PUSH2 0x32CF JUMP JUMPDEST PUSH0 PUSH0 PUSH1 0x40 DUP4 DUP6 SUB SLT ISZERO PUSH2 0x330F JUMPI PUSH0 PUSH0 REVERT JUMPDEST DUP3 CALLDATALOAD PUSH2 0x331A DUP2 PUSH2 0x32CF JUMP JUMPDEST SWAP5 PUSH1 0x20 SWAP4 SWAP1 SWAP4 ADD CALLDATALOAD SWAP4 POP POP POP JUMP JUMPDEST PUSH4 0x4E487B71 PUSH1 0xE0 SHL PUSH0 MSTORE PUSH1 0x41 PUSH1 0x4 MSTORE PUSH1 0x24 PUSH0 REVERT JUMPDEST PUSH1 0x40 MLOAD PUSH1 0x80 DUP2 ADD PUSH1 0x1 PUSH1 0x1 PUSH1 0x40 SHL SUB DUP2 GT DUP3 DUP3 LT OR ISZERO PUSH2 0x335E JUMPI PUSH2 0x335E PUSH2 0x3328 JUMP JUMPDEST PUSH1 0x40 MSTORE SWAP1 JUMP JUMPDEST PUSH1 0x40 MLOAD PUSH2 0x100 DUP2 ADD PUSH1 0x1 PUSH1 0x1 PUSH1 0x40 SHL SUB DUP2 GT DUP3 DUP3 LT OR ISZERO PUSH2 0x335E JUMPI PUSH2 0x335E PUSH2 0x3328 JUMP JUMPDEST PUSH1 0x40 MLOAD PUSH1 0x1F DUP3 ADD PUSH1 0x1F NOT AND DUP2 ADD PUSH1 0x1 PUSH1 0x1 PUSH1 0x40 SHL SUB DUP2 GT DUP3 DUP3 LT OR ISZERO PUSH2 0x33AF JUMPI PUSH2 0x33AF PUSH2 0x3328 JUMP JUMPDEST PUSH1 0x40 MSTORE SWAP2 SWAP1 POP JUMP JUMPDEST PUSH0 PUSH1 0x1 PUSH1 0x1 PUSH1 0x40 SHL SUB DUP3 GT ISZERO PUSH2 0x33CF JUMPI PUSH2 0x33CF PUSH2 0x3328 JUMP JUMPDEST POP PUSH1 0x1F ADD PUSH1 0x1F NOT AND PUSH1 0x20 ADD SWAP1 JUMP JUMPDEST PUSH0 DUP3 PUSH1 0x1F DUP4 ADD SLT PUSH2 0x33EC JUMPI PUSH0 PUSH0 REVERT JUMPDEST DUP2 CALLDATALOAD PUSH2 0x33FF PUSH2 0x33FA DUP3 PUSH2 0x33B7 JUMP JUMPDEST PUSH2 0x3387 JUMP JUMPDEST DUP2 DUP2 MSTORE DUP5 PUSH1 0x20 DUP4 DUP7 ADD ADD GT ISZERO PUSH2 0x3413 JUMPI PUSH0 PUSH0 REVERT JUMPDEST DUP2 PUSH1 0x20 DUP6 ADD PUSH1 0x20 DUP4 ADD CALLDATACOPY PUSH0 SWAP2 DUP2 ADD PUSH1 0x20 ADD SWAP2 SWAP1 SWAP2 MSTORE SWAP4 SWAP3 POP POP POP JUMP JUMPDEST PUSH0 PUSH0 PUSH1 0x40 DUP4 DUP6 SUB SLT ISZERO PUSH2 0x3440 JUMPI PUSH0 PUSH0 REVERT JUMPDEST DUP3 CALLDATALOAD PUSH2 0x344B DUP2 PUSH2 0x32CF JUMP JUMPDEST SWAP2 POP PUSH1 0x20 DUP4 ADD CALLDATALOAD PUSH1 0x1 PUSH1 0x1 PUSH1 0x40 SHL SUB DUP2 GT ISZERO PUSH2 0x3465 JUMPI PUSH0 PUSH0 REVERT JUMPDEST PUSH2 0x3471 DUP6 DUP3 DUP7 ADD PUSH2 0x33DD JUMP JUMPDEST SWAP2 POP POP SWAP3 POP SWAP3 SWAP1 POP JUMP JUMPDEST PUSH0 PUSH1 0x20 DUP3 DUP5 SUB SLT ISZERO PUSH2 0x348B JUMPI PUSH0 PUSH0 REVERT JUMPDEST DUP2 CALLDATALOAD PUSH1 0x1 PUSH1 0x1 PUSH1 0x40 SHL SUB DUP2 GT ISZERO PUSH2 0x34A0 JUMPI PUSH0 PUSH0 REVERT JUMPDEST PUSH2 0x34AC DUP5 DUP3 DUP6 ADD PUSH2 0x33DD JUMP JUMPDEST SWAP5 SWAP4 POP POP POP POP JUMP JUMPDEST PUSH0 PUSH0 PUSH0 PUSH1 0x60 DUP5 DUP7 SUB SLT ISZERO PUSH2 0x34C6 JUMPI PUSH0 PUSH0 REVERT JUMPDEST DUP4 CALLDATALOAD PUSH2 0x34D1 DUP2 PUSH2 0x32CF JUMP JUMPDEST SWAP3 POP PUSH1 0x20 DUP5 ADD CALLDATALOAD PUSH2 0x34E1 DUP2 PUSH2 0x32CF JUMP JUMPDEST SWAP3 SWAP6 SWAP3 SWAP5 POP POP POP PUSH1 0x40 SWAP2 SWAP1 SWAP2 ADD CALLDATALOAD SWAP1 JUMP JUMPDEST DUP1 ISZERO ISZERO DUP2 EQ PUSH2 0x1C1C JUMPI PUSH0 PUSH0 REVERT JUMPDEST PUSH0 PUSH0 PUSH1 0x40 DUP4 DUP6 SUB SLT ISZERO PUSH2 0x3510 JUMPI PUSH0 PUSH0 REVERT JUMPDEST DUP3 CALLDATALOAD PUSH2 0x351B DUP2 PUSH2 0x32CF JUMP JUMPDEST SWAP2 POP PUSH1 0x20 DUP4 ADD CALLDATALOAD PUSH2 0x352B DUP2 PUSH2 0x34F2 JUMP JUMPDEST DUP1 SWAP2 POP POP SWAP3 POP SWAP3 SWAP1 POP JUMP JUMPDEST PUSH0 PUSH1 0x20 DUP3 DUP5 SUB SLT ISZERO PUSH2 0x3546 JUMPI PUSH0 PUSH0 REVERT JUMPDEST DUP2 CALLDATALOAD PUSH2 0xFFFF DUP2 AND DUP2 EQ PUSH2 0x1E5D JUMPI PUSH0 PUSH0 REVERT JUMPDEST PUSH1 0x20 DUP1 DUP3 MSTORE DUP3 MLOAD DUP3 DUP3 ADD DUP2 SWAP1 MSTORE PUSH0 SWAP2 DUP5 ADD SWAP1 PUSH1 0x40 DUP5 ADD SWAP1 DUP4 JUMPDEST DUP2 DUP2 LT ISZERO PUSH2 0x3597 JUMPI DUP4 MLOAD PUSH1 0x1 PUSH1 0x1 PUSH1 0x40 SHL SUB AND DUP4 MSTORE PUSH1 0x20 SWAP4 DUP5 ADD SWAP4 SWAP1 SWAP3 ADD SWAP2 PUSH1 0x1 ADD PUSH2 0x3570 JUMP JUMPDEST POP SWAP1 SWAP6 SWAP5 POP POP POP POP POP JUMP JUMPDEST PUSH1 0x1 PUSH1 0x1 PUSH1 0xA0 SHL SUB SWAP2 SWAP1 SWAP2 AND DUP2 MSTORE PUSH1 0x20 ADD SWAP1 JUMP JUMPDEST PUSH0 PUSH1 0x20 DUP3 DUP5 SUB SLT ISZERO PUSH2 0x35C6 JUMPI PUSH0 PUSH0 REVERT JUMPDEST DUP2 CALLDATALOAD PUSH2 0x1E5D DUP2 PUSH2 0x34F2 JUMP JUMPDEST PUSH0 PUSH1 0x20 DUP3 DUP5 SUB SLT ISZERO PUSH2 0x35E1 JUMPI PUSH0 PUSH0 REVERT JUMPDEST POP CALLDATALOAD SWAP2 SWAP1 POP JUMP JUMPDEST PUSH0 PUSH0 PUSH1 0x40 DUP4 DUP6 SUB SLT ISZERO PUSH2 0x35F9 JUMPI PUSH0 PUSH0 REVERT JUMPDEST DUP3 CALLDATALOAD PUSH1 0x1 PUSH1 0x1 PUSH1 0x40 SHL SUB DUP2 GT ISZERO PUSH2 0x360E JUMPI PUSH0 PUSH0 REVERT JUMPDEST PUSH2 0x361A DUP6 DUP3 DUP7 ADD PUSH2 0x33DD JUMP JUMPDEST SWAP3 POP POP PUSH1 0x20 DUP4 ADD CALLDATALOAD PUSH2 0x352B DUP2 PUSH2 0x32CF JUMP JUMPDEST PUSH0 PUSH0 PUSH1 0x40 DUP4 DUP6 SUB SLT ISZERO PUSH2 0x363C JUMPI PUSH0 PUSH0 REVERT JUMPDEST DUP3 CALLDATALOAD PUSH1 0x1 PUSH1 0x1 PUSH1 0x40 SHL SUB DUP2 GT ISZERO PUSH2 0x3651 JUMPI PUSH0 PUSH0 REVERT JUMPDEST PUSH2 0x365D DUP6 DUP3 DUP7 ADD PUSH2 0x33DD JUMP JUMPDEST SWAP3 POP POP PUSH1 0x20 DUP4 ADD CALLDATALOAD PUSH1 0x1 PUSH1 0x1 PUSH1 0x40 SHL SUB DUP2 GT ISZERO PUSH2 0x3465 JUMPI PUSH0 PUSH0 REVERT JUMPDEST PUSH1 0x1 PUSH1 0x1 PUSH1 0x40 SHL SUB DUP2 AND DUP2 EQ PUSH2 0x1C1C JUMPI PUSH0 PUSH0 REVERT JUMPDEST PUSH0 PUSH0 PUSH1 0x40 DUP4 DUP6 SUB SLT ISZERO PUSH2 0x369D JUMPI PUSH0 PUSH0 REVERT JUMPDEST DUP3 CALLDATALOAD PUSH2 0x36A8 DUP2 PUSH2 0x3678 JUMP JUMPDEST SWAP2 POP PUSH1 0x20 DUP4 ADD CALLDATALOAD PUSH2 0x352B DUP2 PUSH2 0x3678 JUMP JUMPDEST PUSH0 PUSH0 PUSH1 0x40 DUP4 DUP6 SUB SLT ISZERO PUSH2 0x36C9 JUMPI PUSH0 PUSH0 REVERT JUMPDEST DUP3 CALLDATALOAD PUSH2 0x344B DUP2 PUSH2 0x3678 JUMP JUMPDEST PUSH0 PUSH0 PUSH1 0x40 DUP4 DUP6 SUB SLT ISZERO PUSH2 0x36E5 JUMPI PUSH0 PUSH0 REVERT JUMPDEST DUP3 CALLDATALOAD PUSH2 0x36F0 DUP2 PUSH2 0x32CF JUMP JUMPDEST SWAP2 POP PUSH1 0x20 DUP4 ADD CALLDATALOAD PUSH2 0x352B DUP2 PUSH2 0x32CF JUMP JUMPDEST PUSH1 0x1 DUP2 DUP2 SHR SWAP1 DUP3 AND DUP1 PUSH2 0x3714 JUMPI PUSH1 0x7F DUP3 AND SWAP2 POP JUMPDEST PUSH1 0x20 DUP3 LT DUP2 SUB PUSH2 0x3732 JUMPI PUSH4 0x4E487B71 PUSH1 0xE0 SHL PUSH0 MSTORE PUSH1 0x22 PUSH1 0x4 MSTORE PUSH1 0x24 PUSH0 REVERT JUMPDEST POP SWAP2 SWAP1 POP JUMP JUMPDEST DUP1 MLOAD PUSH2 0x3743 DUP2 PUSH2 0x3678 JUMP JUMPDEST SWAP2 SWAP1 POP JUMP JUMPDEST PUSH0 PUSH1 0x20 DUP3 DUP5 SUB SLT ISZERO PUSH2 0x3758 JUMPI PUSH0 PUSH0 REVERT JUMPDEST DUP2 MLOAD PUSH2 0x1E5D DUP2 PUSH2 0x3678 JUMP JUMPDEST PUSH0 PUSH1 0x20 DUP3 DUP5 SUB SLT ISZERO PUSH2 0x3773 JUMPI PUSH0 PUSH0 REVERT JUMPDEST POP MLOAD SWAP2 SWAP1 POP JUMP JUMPDEST PUSH4 0x4E487B71 PUSH1 0xE0 SHL PUSH0 MSTORE PUSH1 0x11 PUSH1 0x4 MSTORE PUSH1 0x24 PUSH0 REVERT JUMPDEST DUP1 DUP3 ADD DUP1 DUP3 GT ISZERO PUSH2 0xE87 JUMPI PUSH2 0xE87 PUSH2 0x377A JUMP JUMPDEST PUSH1 0x1 PUSH1 0x1 PUSH1 0xA0 SHL SUB SWAP3 SWAP1 SWAP3 AND DUP3 MSTORE PUSH1 0x20 DUP3 ADD MSTORE PUSH1 0x40 ADD SWAP1 JUMP JUMPDEST PUSH1 0x1 PUSH1 0x1 PUSH1 0xA0 SHL SUB SWAP4 DUP5 AND DUP2 MSTORE SWAP2 SWAP1 SWAP3 AND PUSH1 0x20 DUP3 ADD MSTORE PUSH1 0x40 DUP2 ADD SWAP2 SWAP1 SWAP2 MSTORE PUSH1 0x60 ADD SWAP1 JUMP JUMPDEST PUSH0 PUSH1 0x20 DUP3 DUP5 SUB SLT ISZERO PUSH2 0x37EE JUMPI PUSH0 PUSH0 REVERT JUMPDEST DUP2 MLOAD PUSH2 0x1E5D DUP2 PUSH2 0x34F2 JUMP JUMPDEST DUP1 MLOAD PUSH2 0x3743 DUP2 PUSH2 0x32CF JUMP JUMPDEST PUSH0 DUP3 PUSH1 0x1F DUP4 ADD SLT PUSH2 0x3813 JUMPI PUSH0 PUSH0 REVERT JUMPDEST DUP2 MLOAD PUSH2 0x3821 PUSH2 0x33FA DUP3 PUSH2 0x33B7 JUMP JUMPDEST DUP2 DUP2 MSTORE DUP5 PUSH1 0x20 DUP4 DUP7 ADD ADD GT ISZERO PUSH2 0x3835 JUMPI PUSH0 PUSH0 REVERT JUMPDEST DUP2 PUSH1 0x20 DUP6 ADD PUSH1 0x20 DUP4 ADD MCOPY PUSH0 SWAP2 DUP2 ADD PUSH1 0x20 ADD SWAP2 SWAP1 SWAP2 MSTORE SWAP4 SWAP3 POP POP POP JUMP JUMPDEST PUSH0 PUSH1 0x20 DUP3 DUP5 SUB SLT ISZERO PUSH2 0x3861 JUMPI PUSH0 PUSH0 REVERT JUMPDEST DUP2 MLOAD PUSH1 0x1 PUSH1 0x1 PUSH1 0x40 SHL SUB DUP2 GT ISZERO PUSH2 0x3876 JUMPI PUSH0 PUSH0 REVERT JUMPDEST DUP3 ADD DUP1 DUP5 SUB PUSH2 0x160 DUP2 SLT ISZERO PUSH2 0x3889 JUMPI PUSH0 PUSH0 REVERT JUMPDEST PUSH2 0x3891 PUSH2 0x333C JUMP JUMPDEST DUP3 MLOAD PUSH2 0x389C DUP2 PUSH2 0x3678 JUMP JUMPDEST DUP2 MSTORE PUSH2 0x100 PUSH1 0x1F NOT DUP4 ADD SLT ISZERO PUSH2 0x38B0 JUMPI PUSH0 PUSH0 REVERT JUMPDEST PUSH2 0x38B8 PUSH2 0x3364 JUMP JUMPDEST SWAP2 POP PUSH1 0x20 DUP4 ADD MLOAD PUSH2 0x38C8 DUP2 PUSH2 0x32CF JUMP JUMPDEST DUP3 MSTORE PUSH2 0x38D6 PUSH1 0x40 DUP5 ADD PUSH2 0x37F9 JUMP JUMPDEST PUSH1 0x20 DUP4 ADD MSTORE PUSH2 0x38E7 PUSH1 0x60 DUP5 ADD PUSH2 0x3738 JUMP JUMPDEST PUSH1 0x40 DUP4 ADD MSTORE PUSH2 0x38F8 PUSH1 0x80 DUP5 ADD PUSH2 0x3738 JUMP JUMPDEST PUSH1 0x60 DUP4 ADD MSTORE PUSH2 0x3909 PUSH1 0xA0 DUP5 ADD PUSH2 0x37F9 JUMP JUMPDEST PUSH1 0x80 DUP4 ADD MSTORE PUSH2 0x391A PUSH1 0xC0 DUP5 ADD PUSH2 0x3738 JUMP JUMPDEST PUSH1 0xA0 DUP4 ADD MSTORE PUSH2 0x392B PUSH1 0xE0 DUP5 ADD PUSH2 0x3738 JUMP JUMPDEST PUSH1 0xC0 DUP4 ADD MSTORE PUSH2 0x393D PUSH2 0x100 DUP5 ADD PUSH2 0x3738 JUMP JUMPDEST PUSH1 0xE0 DUP4 ADD MSTORE DUP2 PUSH1 0x20 DUP3 ADD MSTORE PUSH2 0x120 DUP4 ADD MLOAD SWAP2 POP PUSH1 0x1 PUSH1 0x1 PUSH1 0x40 SHL SUB DUP3 GT ISZERO PUSH2 0x3963 JUMPI PUSH0 PUSH0 REVERT JUMPDEST PUSH2 0x396F DUP7 DUP4 DUP6 ADD PUSH2 0x3804 JUMP JUMPDEST PUSH1 0x40 DUP3 ADD MSTORE PUSH2 0x3981 PUSH2 0x140 DUP5 ADD PUSH2 0x3738 JUMP JUMPDEST PUSH1 0x60 DUP3 ADD MSTORE SWAP6 SWAP5 POP POP POP POP POP JUMP JUMPDEST PUSH0 PUSH1 0x20 DUP3 DUP5 SUB SLT ISZERO PUSH2 0x399F JUMPI PUSH0 PUSH0 REVERT JUMPDEST DUP2 MLOAD PUSH2 0x1E5D DUP2 PUSH2 0x32CF JUMP JUMPDEST PUSH1 0x1 PUSH1 0x1 PUSH1 0x40 SHL SUB DUP5 AND DUP2 MSTORE PUSH1 0x1 PUSH1 0x1 PUSH1 0x40 SHL SUB DUP4 AND PUSH1 0x20 DUP3 ADD MSTORE PUSH1 0x60 PUSH1 0x40 DUP3 ADD MSTORE PUSH0 PUSH2 0x39DA PUSH1 0x60 DUP4 ADD DUP5 PUSH2 0x328F JUMP JUMPDEST SWAP6 SWAP5 POP POP POP POP POP JUMP JUMPDEST PUSH1 0x1F DUP3 GT ISZERO PUSH2 0x2395 JUMPI DUP1 PUSH0 MSTORE PUSH1 0x20 PUSH0 KECCAK256 PUSH1 0x1F DUP5 ADD PUSH1 0x5 SHR DUP2 ADD PUSH1 0x20 DUP6 LT ISZERO PUSH2 0x3A08 JUMPI POP DUP1 JUMPDEST PUSH1 0x1F DUP5 ADD PUSH1 0x5 SHR DUP3 ADD SWAP2 POP JUMPDEST DUP2 DUP2 LT ISZERO PUSH2 0x2BC4 JUMPI PUSH0 DUP2 SSTORE PUSH1 0x1 ADD PUSH2 0x3A14 JUMP JUMPDEST DUP2 MLOAD PUSH1 0x1 PUSH1 0x1 PUSH1 0x40 SHL SUB DUP2 GT ISZERO PUSH2 0x3A40 JUMPI PUSH2 0x3A40 PUSH2 0x3328 JUMP JUMPDEST PUSH2 0x3A54 DUP2 PUSH2 0x3A4E DUP5 SLOAD PUSH2 0x3700 JUMP JUMPDEST DUP5 PUSH2 0x39E3 JUMP JUMPDEST PUSH1 0x20 PUSH1 0x1F DUP3 GT PUSH1 0x1 DUP2 EQ PUSH2 0x3A86 JUMPI PUSH0 DUP4 ISZERO PUSH2 0x3A6F JUMPI POP DUP5 DUP3 ADD MLOAD JUMPDEST PUSH0 NOT PUSH1 0x3 DUP6 SWAP1 SHL SHR NOT AND PUSH1 0x1 DUP5 SWAP1 SHL OR DUP5 SSTORE PUSH2 0x2BC4 JUMP JUMPDEST PUSH0 DUP5 DUP2 MSTORE PUSH1 0x20 DUP2 KECCAK256 PUSH1 0x1F NOT DUP6 AND SWAP2 JUMPDEST DUP3 DUP2 LT ISZERO PUSH2 0x3AB5 JUMPI DUP8 DUP6 ADD MLOAD DUP3 SSTORE PUSH1 0x20 SWAP5 DUP6 ADD SWAP5 PUSH1 0x1 SWAP1 SWAP3 ADD SWAP2 ADD PUSH2 0x3A95 JUMP JUMPDEST POP DUP5 DUP3 LT ISZERO PUSH2 0x3AD2 JUMPI DUP7 DUP5 ADD MLOAD PUSH0 NOT PUSH1 0x3 DUP8 SWAP1 SHL PUSH1 0xF8 AND SHR NOT AND DUP2 SSTORE JUMPDEST POP POP POP POP PUSH1 0x1 SWAP1 DUP2 SHL ADD SWAP1 SSTORE POP JUMP JUMPDEST PUSH0 PUSH1 0x20 DUP3 DUP5 SUB SLT ISZERO PUSH2 0x3AF1 JUMPI PUSH0 PUSH0 REVERT JUMPDEST DUP2 MLOAD PUSH1 0x1 PUSH1 0x1 PUSH1 0x40 SHL SUB DUP2 GT ISZERO PUSH2 0x3B06 JUMPI PUSH0 PUSH0 REVERT JUMPDEST PUSH2 0x34AC DUP5 DUP3 DUP6 ADD PUSH2 0x3804 JUMP JUMPDEST DUP6 DUP2 MSTORE PUSH1 0x1 PUSH1 0x1 PUSH1 0x40 SHL SUB DUP6 AND PUSH1 0x20 DUP3 ADD MSTORE PUSH1 0x1 PUSH1 0x1 PUSH1 0x40 SHL SUB DUP5 AND PUSH1 0x40 DUP3 ADD MSTORE PUSH1 0xA0 PUSH1 0x60 DUP3 ADD MSTORE PUSH0 PUSH2 0x3B48 PUSH1 0xA0 DUP4 ADD DUP6 PUSH2 0x328F JUMP JUMPDEST DUP3 DUP2 SUB PUSH1 0x80 DUP5 ADD MSTORE PUSH2 0x3B5A DUP2 DUP6 PUSH2 0x328F JUMP JUMPDEST SWAP9 SWAP8 POP POP POP POP POP POP POP POP JUMP JUMPDEST PUSH0 DUP2 SLOAD PUSH2 0x3B72 DUP2 PUSH2 0x3700 JUMP JUMPDEST DUP1 DUP6 MSTORE PUSH1 0x1 DUP3 AND DUP1 ISZERO PUSH2 0x3B8C JUMPI PUSH1 0x1 DUP2 EQ PUSH2 0x3BA8 JUMPI PUSH2 0x3BDC JUMP JUMPDEST PUSH1 0xFF NOT DUP4 AND PUSH1 0x20 DUP8 ADD MSTORE PUSH1 0x20 DUP3 ISZERO ISZERO PUSH1 0x5 SHL DUP8 ADD ADD SWAP4 POP PUSH2 0x3BDC JUMP JUMPDEST DUP5 PUSH0 MSTORE PUSH1 0x20 PUSH0 KECCAK256 PUSH0 JUMPDEST DUP4 DUP2 LT ISZERO PUSH2 0x3BD3 JUMPI DUP2 SLOAD PUSH1 0x20 DUP3 DUP11 ADD ADD MSTORE PUSH1 0x1 DUP3 ADD SWAP2 POP PUSH1 0x20 DUP2 ADD SWAP1 POP PUSH2 0x3BB1 JUMP JUMPDEST DUP8 ADD PUSH1 0x20 ADD SWAP5 POP POP JUMPDEST POP POP POP SWAP3 SWAP2 POP POP JUMP JUMPDEST DUP6 DUP2 MSTORE PUSH1 0x1 PUSH1 0x1 PUSH1 0x40 SHL SUB DUP6 AND PUSH1 0x20 DUP3 ADD MSTORE PUSH1 0x1 PUSH1 0x1 PUSH1 0x40 SHL SUB DUP5 AND PUSH1 0x40 DUP3 ADD MSTORE PUSH1 0xA0 PUSH1 0x60 DUP3 ADD MSTORE PUSH0 PUSH2 0x3B48 PUSH1 0xA0 DUP4 ADD DUP6 PUSH2 0x3B66 JUMP JUMPDEST PUSH1 0x20 DUP2 MSTORE PUSH1 0x1 PUSH1 0x1 PUSH1 0x40 SHL SUB DUP3 SLOAD AND PUSH1 0x20 DUP3 ADD MSTORE PUSH2 0x3C57 PUSH1 0x40 DUP3 ADD PUSH2 0x3C4A PUSH1 0x1 DUP6 ADD SLOAD PUSH1 0x1 PUSH1 0x1 PUSH1 0xA0 SHL SUB AND SWAP1 JUMP JUMPDEST PUSH1 0x1 PUSH1 0x1 PUSH1 0xA0 SHL SUB AND SWAP1 MSTORE JUMP JUMPDEST PUSH1 0x2 DUP3 ADD SLOAD PUSH1 0x1 PUSH1 0x1 PUSH1 0xA0 SHL SUB DUP2 AND PUSH1 0x60 DUP4 ADD MSTORE PUSH0 SWAP1 PUSH1 0xA0 DUP2 SWAP1 SHR PUSH1 0x1 PUSH1 0x1 PUSH1 0x40 SHL SUB AND PUSH1 0x80 DUP5 ADD MSTORE POP PUSH1 0x3 DUP4 ADD SLOAD PUSH1 0x1 PUSH1 0x1 PUSH1 0x40 SHL SUB DUP2 AND PUSH1 0xA0 DUP5 ADD MSTORE PUSH1 0x1 PUSH1 0x1 PUSH1 0xA0 SHL SUB PUSH1 0x40 DUP3 SWAP1 SHR AND PUSH1 0xC0 DUP5 ADD MSTORE POP PUSH1 0x4 DUP4 ADD SLOAD PUSH1 0x1 PUSH1 0x1 PUSH1 0x40 SHL SUB DUP2 AND PUSH1 0xE0 DUP5 ADD MSTORE PUSH1 0x40 DUP2 SWAP1 SHR PUSH1 0x1 PUSH1 0x1 PUSH1 0x40 SHL SUB AND PUSH2 0x100 DUP5 ADD MSTORE PUSH1 0x80 DUP2 SWAP1 SHR PUSH1 0x1 PUSH1 0x1 PUSH1 0x40 SHL SUB AND PUSH2 0x120 DUP5 ADD MSTORE POP PUSH2 0x160 PUSH2 0x140 DUP4 ADD MSTORE PUSH2 0x3D00 PUSH2 0x180 DUP4 ADD PUSH1 0x5 DUP6 ADD PUSH2 0x3B66 JUMP JUMPDEST PUSH1 0x6 DUP5 ADD SLOAD PUSH1 0x1 PUSH1 0x1 PUSH1 0x40 SHL SUB AND PUSH1 0x1 PUSH1 0x1 PUSH1 0x40 SHL SUB DUP2 AND PUSH2 0x160 DUP6 ADD MSTORE POP SWAP4 SWAP3 POP POP POP JUMP JUMPDEST PUSH0 PUSH0 PUSH1 0x40 DUP4 DUP6 SUB SLT ISZERO PUSH2 0x3D37 JUMPI PUSH0 PUSH0 REVERT JUMPDEST DUP3 MLOAD PUSH2 0x3D42 DUP2 PUSH2 0x3678 JUMP JUMPDEST PUSH1 0x20 DUP5 ADD MLOAD SWAP1 SWAP3 POP PUSH2 0x352B DUP2 PUSH2 0x3678 JUMP JUMPDEST PUSH1 0x1 DUP2 JUMPDEST PUSH1 0x1 DUP5 GT ISZERO PUSH2 0x3D8E JUMPI DUP1 DUP6 DIV DUP2 GT ISZERO PUSH2 0x3D72 JUMPI PUSH2 0x3D72 PUSH2 0x377A JUMP JUMPDEST PUSH1 0x1 DUP5 AND ISZERO PUSH2 0x3D80 JUMPI SWAP1 DUP2 MUL SWAP1 JUMPDEST PUSH1 0x1 SWAP4 SWAP1 SWAP4 SHR SWAP3 DUP1 MUL PUSH2 0x3D57 JUMP JUMPDEST SWAP4 POP SWAP4 SWAP2 POP POP JUMP JUMPDEST PUSH0 DUP3 PUSH2 0x3DA4 JUMPI POP PUSH1 0x1 PUSH2 0xE87 JUMP JUMPDEST DUP2 PUSH2 0x3DB0 JUMPI POP PUSH0 PUSH2 0xE87 JUMP JUMPDEST DUP2 PUSH1 0x1 DUP2 EQ PUSH2 0x3DC6 JUMPI PUSH1 0x2 DUP2 EQ PUSH2 0x3DD0 JUMPI PUSH2 0x3DEC JUMP JUMPDEST PUSH1 0x1 SWAP2 POP POP PUSH2 0xE87 JUMP JUMPDEST PUSH1 0xFF DUP5 GT ISZERO PUSH2 0x3DE1 JUMPI PUSH2 0x3DE1 PUSH2 0x377A JUMP JUMPDEST POP POP PUSH1 0x1 DUP3 SHL PUSH2 0xE87 JUMP JUMPDEST POP PUSH1 0x20 DUP4 LT PUSH2 0x133 DUP4 LT AND PUSH1 0x4E DUP5 LT PUSH1 0xB DUP5 LT AND OR ISZERO PUSH2 0x3E0F JUMPI POP DUP2 DUP2 EXP PUSH2 0xE87 JUMP JUMPDEST PUSH2 0x3E1B PUSH0 NOT DUP5 DUP5 PUSH2 0x3D53 JUMP JUMPDEST DUP1 PUSH0 NOT DIV DUP3 GT ISZERO PUSH2 0x3E2E JUMPI PUSH2 0x3E2E PUSH2 0x377A JUMP JUMPDEST MUL SWAP4 SWAP3 POP POP POP JUMP JUMPDEST PUSH0 PUSH2 0x1E5D PUSH1 0xFF DUP5 AND DUP4 PUSH2 0x3D96 JUMP JUMPDEST DUP1 DUP3 MUL DUP2 ISZERO DUP3 DUP3 DIV DUP5 EQ OR PUSH2 0xE87 JUMPI PUSH2 0xE87 PUSH2 0x377A JUMP JUMPDEST PUSH0 DUP3 PUSH2 0x3E75 JUMPI PUSH4 0x4E487B71 PUSH1 0xE0 SHL PUSH0 MSTORE PUSH1 0x12 PUSH1 0x4 MSTORE PUSH1 0x24 PUSH0 REVERT JUMPDEST POP DIV SWAP1 JUMP JUMPDEST PUSH14 0x2732B2B21020B8383937BB32B21 PUSH1 0x95 SHL DUP2 MSTORE PUSH0 DUP3 MLOAD DUP1 PUSH1 0x20 DUP6 ADD PUSH1 0xE DUP6 ADD MCOPY PUSH0 SWAP3 ADD PUSH1 0xE ADD SWAP2 DUP3 MSTORE POP SWAP2 SWAP1 POP JUMP JUMPDEST PUSH4 0x4E487B71 PUSH1 0xE0 SHL PUSH0 MSTORE PUSH1 0x32 PUSH1 0x4 MSTORE PUSH1 0x24 PUSH0 REVERT JUMPDEST PUSH1 0x1 PUSH1 0x1 PUSH1 0xA0 SHL SUB SWAP4 DUP5 AND DUP2 MSTORE SWAP2 DUP4 AND PUSH1 0x20 DUP4 ADD MSTORE SWAP1 SWAP2 AND PUSH1 0x40 DUP3 ADD MSTORE PUSH1 0x60 ADD SWAP1 JUMP JUMPDEST DUP4 DUP2 MSTORE PUSH1 0x60 PUSH1 0x20 DUP3 ADD MSTORE PUSH0 PUSH2 0x3EF9 PUSH1 0x60 DUP4 ADD DUP6 PUSH2 0x328F JUMP JUMPDEST SWAP1 POP PUSH1 0x1 DUP1 PUSH1 0xA0 SHL SUB DUP4 AND PUSH1 0x40 DUP4 ADD MSTORE SWAP5 SWAP4 POP POP POP POP JUMP JUMPDEST PUSH1 0x1 PUSH1 0x1 PUSH1 0xA0 SHL SUB SWAP3 SWAP1 SWAP3 AND DUP3 MSTORE PUSH1 0x1 PUSH1 0x1 PUSH1 0x40 SHL SUB AND PUSH1 0x20 DUP3 ADD MSTORE PUSH1 0x40 ADD SWAP1 JUMP JUMPDEST PUSH1 0x1 PUSH1 0x1 PUSH1 0x40 SHL SUB DUP7 AND DUP2 MSTORE PUSH1 0xA0 PUSH1 0x20 DUP3 ADD MSTORE PUSH0 PUSH2 0x3F54 PUSH1 0xA0 DUP4 ADD DUP8 PUSH2 0x328F JUMP JUMPDEST PUSH1 0x1 PUSH1 0x1 PUSH1 0x40 SHL SUB DUP7 AND PUSH1 0x40 DUP5 ADD MSTORE DUP3 DUP2 SUB PUSH1 0x60 DUP5 ADD MSTORE PUSH2 0x3F75 DUP2 DUP7 PUSH2 0x3B66 JUMP JUMPDEST SWAP1 POP DUP3 DUP2 SUB PUSH1 0x80 DUP5 ADD MSTORE PUSH2 0x3B5A DUP2 DUP6 PUSH2 0x328F JUMP JUMPDEST PUSH0 PUSH2 0xFFFF DUP3 AND PUSH2 0xFFFF DUP2 SUB PUSH2 0x3FA0 JUMPI PUSH2 0x3FA0 PUSH2 0x377A JUMP JUMPDEST PUSH1 0x1 ADD SWAP3 SWAP2 POP POP JUMP JUMPDEST DUP3 DUP2 MSTORE PUSH1 0x40 PUSH1 0x20 DUP3 ADD MSTORE PUSH0 PUSH2 0x34AC PUSH1 0x40 DUP4 ADD DUP5 PUSH2 0x328F JUMP JUMPDEST PUSH1 0x1 PUSH1 0x1 PUSH1 0xA0 SHL SUB SWAP8 DUP9 AND DUP2 MSTORE SWAP6 DUP8 AND PUSH1 0x20 DUP8 ADD MSTORE SWAP4 DUP7 AND PUSH1 0x40 DUP7 ADD MSTORE SWAP2 DUP6 AND PUSH1 0x60 DUP6 ADD MSTORE SWAP1 SWAP4 AND PUSH1 0x80 DUP4 ADD MSTORE PUSH1 0xA0 DUP3 ADD SWAP3 SWAP1 SWAP3 MSTORE PUSH1 0xC0 DUP2 ADD SWAP2 SWAP1 SWAP2 MSTORE PUSH1 0xE0 ADD SWAP1 JUMP JUMPDEST DUP2 DUP2 SUB DUP2 DUP2 GT ISZERO PUSH2 0xE87 JUMPI PUSH2 0xE87 PUSH2 0x377A JUMP JUMPDEST PUSH4 0x4E487B71 PUSH1 0xE0 SHL PUSH0 MSTORE PUSH1 0x31 PUSH1 0x4 MSTORE PUSH1 0x24 PUSH0 REVERT INVALID LOG2 PUSH5 0x6970667358 0x22 SLT KECCAK256 0x4C BASEFEE GT 0xC0 OR COINBASE BLOBHASH LOG0 0xCC 0xEE 0xD1 SUB PUSH23 0x630BBBA58A901DD86F219FBE1E6E7EDB6F5B7F64736F6C PUSH4 0x4300081B STOP CALLER "
		},
		"gasEstimates": {
			"creation": {
				"codeDepositCost": "3296200",
				"executionCost": "infinite",
				"totalCost": "infinite"
			},
			"external": {
				"AllowCROWS(bool)": "infinite",
				"Asset()": "2426",
				"Bounce()": "infinite",
				"BouncerDivisor()": "2447",
				"Chat(string)": "infinite",
				"Cho()": "2493",
				"Connect(string,address)": "infinite",
				"CoverCharge()": "2426",
				"Disconnect(string)": "infinite",
				"GetMarketRate(address)": "2574",
				"Join(address)": "infinite",
				"Kick(uint64,string)": "infinite",
				"Leave()": "infinite",
				"Look()": "infinite",
				"MotzkinPrime()": "326",
				"NoCROWS()": "2464",
				"Purchase(address,uint256)": "infinite",
				"ReactPlayer(uint64,uint64)": "infinite",
				"Redeem(address,uint256)": "infinite",
				"Rename(string,string)": "infinite",
				"Type()": "infinite",
				"VAT()": "infinite",
				"Waat()": "2427",
				"Withdraw(address,uint256)": "infinite",
				"Xiao()": "2515",
				"YAISendMSG(address,string)": "infinite",
				"addOwner(address)": "infinite",
				"allowance(address,address)": "infinite",
				"approve(address,uint256)": "24726",
				"balanceOf(address)": "2596",
				"bouncer(address)": "infinite",
				"decimals()": "244",
				"maxSupply()": "2427",
				"mintToCap()": "infinite",
				"name()": "infinite",
				"owner()": "302",
				"owner(address)": "2666",
				"renounceOwnership(address)": "infinite",
				"setBouncerDivisor(uint16)": "infinite",
				"setCoverCharge(uint256)": "infinite",
				"setGuestlist(address)": "infinite",
				"setStaff(address,bool)": "infinite",
				"symbol()": "infinite",
				"totalSupply()": "2348",
				"transfer(address,uint256)": "51285",
				"transferFrom(address,address,uint256)": "infinite"
			},
			"internal": {
				"_checkBouncer()": "infinite",
				"_removeUserBySoul(uint64)": "infinite"
			}
		},
		"methodIdentifiers": {
			"AllowCROWS(bool)": "7b166306",
			"Asset()": "df42e80e",
			"Bounce()": "3764d772",
			"BouncerDivisor()": "0aae7978",
			"Chat(string)": "21516fc4",
			"Cho()": "6872fc3c",
			"Connect(string,address)": "8677e743",
			"CoverCharge()": "fbe5a232",
			"Disconnect(string)": "f6859792",
			"GetMarketRate(address)": "2b83b1fc",
			"Join(address)": "0764c80c",
			"Kick(uint64,string)": "b4f8b70c",
			"Leave()": "ac8f5ead",
			"Look()": "40f7d1b7",
			"MotzkinPrime()": "d3dc2a0f",
			"NoCROWS()": "d5ca77c4",
			"Purchase(address,uint256)": "2499a533",
			"ReactPlayer(uint64,uint64)": "b46c0ac3",
			"Redeem(address,uint256)": "222838db",
			"Rename(string,string)": "9dcbf7ea",
			"Type()": "ff762044",
			"VAT()": "61d78262",
			"Waat()": "a138da0b",
			"Withdraw(address,uint256)": "884edad9",
			"Xiao()": "6fb7329c",
			"YAISendMSG(address,string)": "09d162e7",
			"addOwner(address)": "7065cb48",
			"allowance(address,address)": "dd62ed3e",
			"approve(address,uint256)": "095ea7b3",
			"balanceOf(address)": "70a08231",
			"bouncer(address)": "37d74ffe",
			"decimals()": "313ce567",
			"maxSupply()": "d5abeb01",
			"mintToCap()": "f4e6c93f",
			"name()": "06fdde03",
			"owner()": "8da5cb5b",
			"owner(address)": "666e1b39",
			"renounceOwnership(address)": "38bf3cfa",
			"setBouncerDivisor(uint16)": "3c7e0c00",
			"setCoverCharge(uint256)": "7dfe96f3",
			"setGuestlist(address)": "0d4ec845",
			"setStaff(address,bool)": "328d13e3",
			"symbol()": "95d89b41",
			"totalSupply()": "18160ddd",
			"transfer(address,uint256)": "a9059cbb",
			"transferFrom(address,address,uint256)": "23b872dd"
		}
	},
	"abi": [
		{
			"inputs": [
				{
					"internalType": "address",
					"name": "Integrative",
					"type": "address"
				},
				{
					"internalType": "address",
					"name": "ChoAddress",
					"type": "address"
				}
			],
			"stateMutability": "nonpayable",
			"type": "constructor"
		},
		{
			"inputs": [
				{
					"internalType": "address",
					"name": "UserToken",
					"type": "address"
				}
			],
			"name": "AlreadyJoined",
			"type": "error"
		},
		{
			"inputs": [
				{
					"internalType": "address",
					"name": "origin",
					"type": "address"
				},
				{
					"internalType": "address",
					"name": "account",
					"type": "address"
				},
				{
					"internalType": "address",
					"name": "what",
					"type": "address"
				}
			],
			"name": "BouncerUnauthorized",
			"type": "error"
		},
		{
			"inputs": [
				{
					"internalType": "address",
					"name": "AssetAddress",
					"type": "address"
				},
				{
					"internalType": "uint256",
					"name": "Amount",
					"type": "uint256"
				}
			],
			"name": "CoverChargeUnauthorized",
			"type": "error"
		},
		{
			"inputs": [
				{
					"internalType": "address",
					"name": "origin",
					"type": "address"
				},
				{
					"internalType": "address",
					"name": "sender",
					"type": "address"
				},
				{
					"internalType": "address",
					"name": "owner",
					"type": "address"
				},
				{
					"internalType": "address",
					"name": "spender",
					"type": "address"
				},
				{
					"internalType": "address",
					"name": "what",
					"type": "address"
				},
				{
					"internalType": "uint256",
					"name": "allowance",
					"type": "uint256"
				},
				{
					"internalType": "uint256",
					"name": "needed",
					"type": "uint256"
				}
			],
			"name": "DysnomiaInsufficientAllowance",
			"type": "error"
		},
		{
			"inputs": [
				{
					"internalType": "address",
					"name": "origin",
					"type": "address"
				},
				{
					"internalType": "address",
					"name": "sender",
					"type": "address"
				},
				{
					"internalType": "address",
					"name": "from",
					"type": "address"
				},
				{
					"internalType": "address",
					"name": "to",
					"type": "address"
				},
				{
					"internalType": "address",
					"name": "what",
					"type": "address"
				},
				{
					"internalType": "uint256",
					"name": "balance",
					"type": "uint256"
				},
				{
					"internalType": "uint256",
					"name": "needed",
					"type": "uint256"
				}
			],
			"name": "DysnomiaInsufficientBalance",
			"type": "error"
		},
		{
			"inputs": [
				{
					"internalType": "address",
					"name": "Asset",
					"type": "address"
				}
			],
			"name": "Forbidden",
			"type": "error"
		},
		{
			"inputs": [
				{
					"internalType": "address",
					"name": "asset",
					"type": "address"
				}
			],
			"name": "MarketRateNotFound",
			"type": "error"
		},
		{
			"inputs": [
				{
					"internalType": "uint64",
					"name": "Soul",
					"type": "uint64"
				}
			],
			"name": "NotAdmitted",
			"type": "error"
		},
		{
			"inputs": [
				{
					"internalType": "address",
					"name": "origin",
					"type": "address"
				},
				{
					"internalType": "address",
					"name": "owner",
					"type": "address"
				},
				{
					"internalType": "address",
					"name": "what",
					"type": "address"
				}
			],
			"name": "OwnableInvalidOwner",
			"type": "error"
		},
		{
			"inputs": [
				{
					"internalType": "address",
					"name": "origin",
					"type": "address"
				},
				{
					"internalType": "address",
					"name": "account",
					"type": "address"
				},
				{
					"internalType": "address",
					"name": "what",
					"type": "address"
				}
			],
			"name": "OwnableUnauthorizedAccount",
			"type": "error"
		},
		{
			"anonymous": false,
			"inputs": [
				{
					"indexed": true,
					"internalType": "address",
					"name": "owner",
					"type": "address"
				},
				{
					"indexed": true,
					"internalType": "address",
					"name": "spender",
					"type": "address"
				},
				{
					"indexed": false,
					"internalType": "uint256",
					"name": "value",
					"type": "uint256"
				}
			],
			"name": "Approval",
			"type": "event"
		},
		{
			"anonymous": false,
			"inputs": [
				{
					"indexed": false,
					"internalType": "string",
					"name": "Username",
					"type": "string"
				}
			],
			"name": "Bounced",
			"type": "event"
		},
		{
			"anonymous": false,
			"inputs": [
				{
					"indexed": false,
					"internalType": "uint64",
					"name": "Soul",
					"type": "uint64"
				},
				{
					"indexed": false,
					"internalType": "uint64",
					"name": "Aura",
					"type": "uint64"
				},
				{
					"indexed": false,
					"internalType": "string",
					"name": "Username",
					"type": "string"
				}
			],
			"name": "Joined",
			"type": "event"
		},
		{
			"anonymous": false,
			"inputs": [
				{
					"indexed": false,
					"internalType": "uint64",
					"name": "OperatorSoul",
					"type": "uint64"
				},
				{
					"indexed": false,
					"internalType": "string",
					"name": "OperatorUsername",
					"type": "string"
				},
				{
					"indexed": false,
					"internalType": "uint64",
					"name": "UserSoul",
					"type": "uint64"
				},
				{
					"indexed": false,
					"internalType": "string",
					"name": "Username",
					"type": "string"
				},
				{
					"indexed": false,
					"internalType": "string",
					"name": "Why",
					"type": "string"
				}
			],
			"name": "KickedUser",
			"type": "event"
		},
		{
			"anonymous": false,
			"inputs": [
				{
					"indexed": false,
					"internalType": "uint256",
					"name": "Waat",
					"type": "uint256"
				},
				{
					"indexed": false,
					"internalType": "uint64",
					"name": "Soul",
					"type": "uint64"
				},
				{
					"indexed": false,
					"internalType": "uint64",
					"name": "Aura",
					"type": "uint64"
				},
				{
					"indexed": false,
					"internalType": "string",
					"name": "Username",
					"type": "string"
				},
				{
					"indexed": false,
					"internalType": "string",
					"name": "LogLine",
					"type": "string"
				}
			],
			"name": "LogEvent",
			"type": "event"
		},
		{
			"anonymous": false,
			"inputs": [
				{
					"indexed": true,
					"internalType": "address",
					"name": "newOwner",
					"type": "address"
				},
				{
					"indexed": true,
					"internalType": "bool",
					"name": "state",
					"type": "bool"
				}
			],
			"name": "OwnershipUpdate",
			"type": "event"
		},
		{
			"anonymous": false,
			"inputs": [
				{
					"indexed": true,
					"internalType": "address",
					"name": "from",
					"type": "address"
				},
				{
					"indexed": true,
					"internalType": "address",
					"name": "to",
					"type": "address"
				},
				{
					"indexed": false,
					"internalType": "uint256",
					"name": "value",
					"type": "uint256"
				}
			],
			"name": "Transfer",
			"type": "event"
		},
		{
			"anonymous": false,
			"inputs": [
				{
					"indexed": false,
					"internalType": "uint64",
					"name": "Soul",
					"type": "uint64"
				},
				{
					"indexed": false,
					"internalType": "uint64",
					"name": "Aura",
					"type": "uint64"
				},
				{
					"indexed": false,
					"internalType": "address",
					"name": "Token",
					"type": "address"
				},
				{
					"indexed": false,
					"internalType": "uint256",
					"name": "amount",
					"type": "uint256"
				}
			],
			"name": "Withdrawal",
			"type": "event"
		},
		{
			"inputs": [
				{
					"internalType": "bool",
					"name": "_b",
					"type": "bool"
				}
			],
			"name": "AllowCROWS",
			"outputs": [],
			"stateMutability": "nonpayable",
			"type": "function"
		},
		{
			"inputs": [],
			"name": "Asset",
			"outputs": [
				{
					"internalType": "contract DYSNOMIA",
					"name": "",
					"type": "address"
				}
			],
			"stateMutability": "view",
			"type": "function"
		},
		{
			"inputs": [],
			"name": "Bounce",
			"outputs": [],
			"stateMutability": "nonpayable",
			"type": "function"
		},
		{
			"inputs": [],
			"name": "BouncerDivisor",
			"outputs": [
				{
					"internalType": "uint16",
					"name": "",
					"type": "uint16"
				}
			],
			"stateMutability": "view",
			"type": "function"
		},
		{
			"inputs": [
				{
					"internalType": "string",
					"name": "chatline",
					"type": "string"
				}
			],
			"name": "Chat",
			"outputs": [],
			"stateMutability": "nonpayable",
			"type": "function"
		},
		{
			"inputs": [],
			"name": "Cho",
			"outputs": [
				{
					"internalType": "contract CHOINTERFACE",
					"name": "",
					"type": "address"
				}
			],
			"stateMutability": "view",
			"type": "function"
		},
		{
			"inputs": [
				{
					"internalType": "string",
					"name": "name",
					"type": "string"
				},
				{
					"internalType": "address",
					"name": "_qing",
					"type": "address"
				}
			],
			"name": "Connect",
			"outputs": [],
			"stateMutability": "nonpayable",
			"type": "function"
		},
		{
			"inputs": [],
			"name": "CoverCharge",
			"outputs": [
				{
					"internalType": "uint256",
					"name": "",
					"type": "uint256"
				}
			],
			"stateMutability": "view",
			"type": "function"
		},
		{
			"inputs": [
				{
					"internalType": "string",
					"name": "name",
					"type": "string"
				}
			],
			"name": "Disconnect",
			"outputs": [],
			"stateMutability": "nonpayable",
			"type": "function"
		},
		{
			"inputs": [
				{
					"internalType": "address",
					"name": "_a",
					"type": "address"
				}
			],
			"name": "GetMarketRate",
			"outputs": [
				{
					"internalType": "uint256",
					"name": "",
					"type": "uint256"
				}
			],
			"stateMutability": "view",
			"type": "function"
		},
		{
			"inputs": [
				{
					"internalType": "address",
					"name": "UserToken",
					"type": "address"
				}
			],
			"name": "Join",
			"outputs": [],
			"stateMutability": "nonpayable",
			"type": "function"
		},
		{
			"inputs": [
				{
					"internalType": "uint64",
					"name": "Soul",
					"type": "uint64"
				},
				{
					"internalType": "string",
					"name": "Why",
					"type": "string"
				}
			],
			"name": "Kick",
			"outputs": [],
			"stateMutability": "nonpayable",
			"type": "function"
		},
		{
			"inputs": [],
			"name": "Leave",
			"outputs": [],
			"stateMutability": "nonpayable",
			"type": "function"
		},
		{
			"inputs": [],
			"name": "Look",
			"outputs": [
				{
					"internalType": "uint64[]",
					"name": "",
					"type": "uint64[]"
				}
			],
			"stateMutability": "view",
			"type": "function"
		},
		{
			"inputs": [],
			"name": "MotzkinPrime",
			"outputs": [
				{
					"internalType": "uint64",
					"name": "",
					"type": "uint64"
				}
			],
			"stateMutability": "view",
			"type": "function"
		},
		{
			"inputs": [],
			"name": "NoCROWS",
			"outputs": [
				{
					"internalType": "bool",
					"name": "",
					"type": "bool"
				}
			],
			"stateMutability": "view",
			"type": "function"
		},
		{
			"inputs": [
				{
					"internalType": "address",
					"name": "_t",
					"type": "address"
				},
				{
					"internalType": "uint256",
					"name": "_a",
					"type": "uint256"
				}
			],
			"name": "Purchase",
			"outputs": [],
			"stateMutability": "nonpayable",
			"type": "function"
		},
		{
			"inputs": [
				{
					"internalType": "uint64",
					"name": "Soul",
					"type": "uint64"
				},
				{
					"internalType": "uint64",
					"name": "Theta",
					"type": "uint64"
				}
			],
			"name": "ReactPlayer",
			"outputs": [
				{
					"internalType": "uint64",
					"name": "Omicron",
					"type": "uint64"
				},
				{
					"internalType": "uint64",
					"name": "Omega",
					"type": "uint64"
				}
			],
			"stateMutability": "nonpayable",
			"type": "function"
		},
		{
			"inputs": [
				{
					"internalType": "address",
					"name": "_t",
					"type": "address"
				},
				{
					"internalType": "uint256",
					"name": "_a",
					"type": "uint256"
				}
			],
			"name": "Redeem",
			"outputs": [],
			"stateMutability": "nonpayable",
			"type": "function"
		},
		{
			"inputs": [
				{
					"internalType": "string",
					"name": "newName",
					"type": "string"
				},
				{
					"internalType": "string",
					"name": "newSymbol",
					"type": "string"
				}
			],
			"name": "Rename",
			"outputs": [],
			"stateMutability": "nonpayable",
			"type": "function"
		},
		{
			"inputs": [],
			"name": "Type",
			"outputs": [
				{
					"internalType": "string",
					"name": "",
					"type": "string"
				}
			],
			"stateMutability": "view",
			"type": "function"
		},
		{
			"inputs": [],
			"name": "VAT",
			"outputs": [
				{
					"internalType": "contract LIBYAI",
					"name": "",
					"type": "address"
				}
			],
			"stateMutability": "view",
			"type": "function"
		},
		{
			"inputs": [],
			"name": "Waat",
			"outputs": [
				{
					"internalType": "uint256",
					"name": "",
					"type": "uint256"
				}
			],
			"stateMutability": "view",
			"type": "function"
		},
		{
			"inputs": [
				{
					"internalType": "address",
					"name": "what",
					"type": "address"
				},
				{
					"internalType": "uint256",
					"name": "amount",
					"type": "uint256"
				}
			],
			"name": "Withdraw",
			"outputs": [],
			"stateMutability": "nonpayable",
			"type": "function"
		},
		{
			"inputs": [],
			"name": "Xiao",
			"outputs": [
				{
					"internalType": "contract atropaMath",
					"name": "",
					"type": "address"
				}
			],
			"stateMutability": "view",
			"type": "function"
		},
		{
			"inputs": [
				{
					"internalType": "address",
					"name": "UserToken",
					"type": "address"
				},
				{
					"internalType": "string",
					"name": "Chatline",
					"type": "string"
				}
			],
			"name": "YAISendMSG",
			"outputs": [],
			"stateMutability": "nonpayable",
			"type": "function"
		},
		{
			"inputs": [
				{
					"internalType": "address",
					"name": "newOwner",
					"type": "address"
				}
			],
			"name": "addOwner",
			"outputs": [],
			"stateMutability": "nonpayable",
			"type": "function"
		},
		{
			"inputs": [
				{
					"internalType": "address",
					"name": "owner",
					"type": "address"
				},
				{
					"internalType": "address",
					"name": "spender",
					"type": "address"
				}
			],
			"name": "allowance",
			"outputs": [
				{
					"internalType": "uint256",
					"name": "",
					"type": "uint256"
				}
			],
			"stateMutability": "view",
			"type": "function"
		},
		{
			"inputs": [
				{
					"internalType": "address",
					"name": "spender",
					"type": "address"
				},
				{
					"internalType": "uint256",
					"name": "value",
					"type": "uint256"
				}
			],
			"name": "approve",
			"outputs": [
				{
					"internalType": "bool",
					"name": "",
					"type": "bool"
				}
			],
			"stateMutability": "nonpayable",
			"type": "function"
		},
		{
			"inputs": [
				{
					"internalType": "address",
					"name": "account",
					"type": "address"
				}
			],
			"name": "balanceOf",
			"outputs": [
				{
					"internalType": "uint256",
					"name": "",
					"type": "uint256"
				}
			],
			"stateMutability": "view",
			"type": "function"
		},
		{
			"inputs": [
				{
					"internalType": "address",
					"name": "cBouncer",
					"type": "address"
				}
			],
			"name": "bouncer",
			"outputs": [
				{
					"internalType": "bool",
					"name": "",
					"type": "bool"
				}
			],
			"stateMutability": "view",
			"type": "function"
		},
		{
			"inputs": [],
			"name": "decimals",
			"outputs": [
				{
					"internalType": "uint8",
					"name": "",
					"type": "uint8"
				}
			],
			"stateMutability": "view",
			"type": "function"
		},
		{
			"inputs": [],
			"name": "maxSupply",
			"outputs": [
				{
					"internalType": "uint256",
					"name": "",
					"type": "uint256"
				}
			],
			"stateMutability": "view",
			"type": "function"
		},
		{
			"inputs": [],
			"name": "mintToCap",
			"outputs": [],
			"stateMutability": "nonpayable",
			"type": "function"
		},
		{
			"inputs": [],
			"name": "name",
			"outputs": [
				{
					"internalType": "string",
					"name": "",
					"type": "string"
				}
			],
			"stateMutability": "view",
			"type": "function"
		},
		{
			"inputs": [
				{
					"internalType": "address",
					"name": "cOwner",
					"type": "address"
				}
			],
			"name": "owner",
			"outputs": [
				{
					"internalType": "bool",
					"name": "",
					"type": "bool"
				}
			],
			"stateMutability": "view",
			"type": "function"
		},
		{
			"inputs": [],
			"name": "owner",
			"outputs": [
				{
					"internalType": "address",
					"name": "",
					"type": "address"
				}
			],
			"stateMutability": "view",
			"type": "function"
		},
		{
			"inputs": [
				{
					"internalType": "address",
					"name": "toRemove",
					"type": "address"
				}
			],
			"name": "renounceOwnership",
			"outputs": [],
			"stateMutability": "nonpayable",
			"type": "function"
		},
		{
			"inputs": [
				{
					"internalType": "uint16",
					"name": "_d",
					"type": "uint16"
				}
			],
			"name": "setBouncerDivisor",
			"outputs": [],
			"stateMutability": "nonpayable",
			"type": "function"
		},
		{
			"inputs": [
				{
					"internalType": "uint256",
					"name": "_c",
					"type": "uint256"
				}
			],
			"name": "setCoverCharge",
			"outputs": [],
			"stateMutability": "nonpayable",
			"type": "function"
		},
		{
			"inputs": [
				{
					"internalType": "address",
					"name": "_a",
					"type": "address"
				}
			],
			"name": "setGuestlist",
			"outputs": [],
			"stateMutability": "nonpayable",
			"type": "function"
		},
		{
			"inputs": [
				{
					"internalType": "address",
					"name": "_a",
					"type": "address"
				},
				{
					"internalType": "bool",
					"name": "active",
					"type": "bool"
				}
			],
			"name": "setStaff",
			"outputs": [],
			"stateMutability": "nonpayable",
			"type": "function"
		},
		{
			"inputs": [],
			"name": "symbol",
			"outputs": [
				{
					"internalType": "string",
					"name": "",
					"type": "string"
				}
			],
			"stateMutability": "view",
			"type": "function"
		},
		{
			"inputs": [],
			"name": "totalSupply",
			"outputs": [
				{
					"internalType": "uint256",
					"name": "",
					"type": "uint256"
				}
			],
			"stateMutability": "view",
			"type": "function"
		},
		{
			"inputs": [
				{
					"internalType": "address",
					"name": "to",
					"type": "address"
				},
				{
					"internalType": "uint256",
					"name": "value",
					"type": "uint256"
				}
			],
			"name": "transfer",
			"outputs": [
				{
					"internalType": "bool",
					"name": "",
					"type": "bool"
				}
			],
			"stateMutability": "nonpayable",
			"type": "function"
		},
		{
			"inputs": [
				{
					"internalType": "address",
					"name": "from",
					"type": "address"
				},
				{
					"internalType": "address",
					"name": "to",
					"type": "address"
				},
				{
					"internalType": "uint256",
					"name": "value",
					"type": "uint256"
				}
			],
			"name": "transferFrom",
			"outputs": [
				{
					"internalType": "bool",
					"name": "",
					"type": "bool"
				}
			],
			"stateMutability": "nonpayable",
			"type": "function"
		}
	]
}