{
	"data": {
		"bytecode": {
			"linkReferences": {},
			"object": "608060405234801561000f575f5ffd5b50604051612eca380380612eca83398101604081905261002e916107d6565b828282338061006357604051633603021960e21b81523260048201525f60248201523060448201526064015b60405180910390fd5b61006e816001610250565b50600461007b84826108df565b50600561008883826108df565b50600680546001600160a01b0319166001600160a01b0383169081179091556040805163604a6fa960e01b815290516201b207929163604a6fa991600480830192602092919082900301815f875af11580156100e6573d5f5f3e3d5ffd5b505050506040513d601f19601f8201168201806040525081019061010a9190610999565b61011491906109da565b6001600160401b03166007819055505f600a60075460065f9054906101000a90046001600160a01b03166001600160a01b031663604a6fa96040518163ffffffff1660e01b81526004016020604051808303815f875af115801561017a573d5f5f3e3d5ffd5b505050506040513d601f19601f8201168201806040525081019061019e9190610999565b6001600160401b03166101b19190610a08565b6101bb9190610a2f565b90506101dc326101cd6012600a610b27565b6101d79084610b35565b6102a3565b6102267324f0154c1dce548adf15da2098fdd8b8a3b8151d6102006012600a610b27565b61020b906001610b35565b6001600160a01b039091165f90815260086020526040902055565b505050506102386102b260201b60201c565b610240610486565b61024861054a565b505050610b5f565b6001600160a01b0382165f81815260208190526040808220805460ff191685151590811790915590519092917f6bfa7e860c3e9bf67b810cb88276b19b27c972812bac04793d369b59a1183a8391a35050565b6102ae5f8383610552565b5050565b60065f9054906101000a90046001600160a01b03166001600160a01b031663604a6fa96040518163ffffffff1660e01b81526004016020604051808303815f875af1158015610303573d5f5f3e3d5ffd5b505050506040513d601f19601f820116820180604052508101906103279190610999565b600980546001600160401b0319166001600160401b03929092169190911790556006546040805163604a6fa960e01b815290516001600160a01b039092169163604a6fa99160048082019260209290919082900301815f875af1158015610390573d5f5f3e3d5ffd5b505050506040513d601f19601f820116820180604052508101906103b49190610999565b600980546001600160401b03929092166801000000000000000002600160401b600160801b03199092169190911790556006546040805163604a6fa960e01b815290516001600160a01b039092169163604a6fa99160048082019260209290919082900301815f875af115801561042d573d5f5f3e3d5ffd5b505050506040513d601f19601f820116820180604052508101906104519190610999565b600980546001600160401b0392909216600160801b02600160801b600160c01b0319909216919091179055610484610692565b565b6006546009546040516353df6e3560e01b81526001600160401b038083166004830152600160801b90920490911660248201526603632c8eb5af3b60448201526001600160a01b03909116906353df6e35906064016020604051808303815f875af11580156104f7573d5f5f3e3d5ffd5b505050506040513d601f19601f8201168201806040525081019061051b9190610999565b600980546001600160401b0392909216600160c01b026001600160c01b03909216919091179055610484610692565b6104846106cf565b6001600160a01b03831661057c578060035f8282546105719190610b4c565b909155506106069050565b6001600160a01b0383165f90815260016020526040902054818110156105e857604051630f7d0bbd60e21b81523260048201523360248201526001600160a01b0380861660448301528416606482015230608482015260a4810182905260c4810183905260e40161005a565b6001600160a01b0384165f9081526001602052604090209082900390555b6001600160a01b03821661062257600380548290039055610640565b6001600160a01b0382165f9081526001602052604090208054820190555b816001600160a01b0316836001600160a01b03167fddf252ad1be2c89b69c2b068fc378daa952ba7f163c4a11628f55a4df523b3ef8360405161068591815260200190565b60405180910390a3505050565b61069e6012600a610b27565b6007546106ab9190610b35565b600354101561048457610484306106c46012600a610b27565b6101d7906001610b35565b6106d76106df565b610484610692565b335f9081526020819052604090205460ff1615801561070d5750325f9081526020819052604090205460ff16155b1561048457604051630be6bab560e01b815232600482015233602482015230604482015260640161005a565b634e487b7160e01b5f52604160045260245ffd5b5f82601f83011261075c575f5ffd5b81516001600160401b0381111561077557610775610739565b604051601f8201601f19908116603f011681016001600160401b03811182821017156107a3576107a3610739565b6040528181528382016020018510156107ba575f5ffd5b8160208501602083015e5f918101602001919091529392505050565b5f5f5f606084860312156107e8575f5ffd5b83516001600160401b038111156107fd575f5ffd5b6108098682870161074d565b602086015190945090506001600160401b03811115610826575f5ffd5b6108328682870161074d565b604086015190935090506001600160a01b0381168114610850575f5ffd5b809150509250925092565b600181811c9082168061086f57607f821691505b60208210810361088d57634e487b7160e01b5f52602260045260245ffd5b50919050565b601f8211156108da57805f5260205f20601f840160051c810160208510156108b85750805b601f840160051c820191505b818110156108d7575f81556001016108c4565b50505b505050565b81516001600160401b038111156108f8576108f8610739565b61090c81610906845461085b565b84610893565b6020601f82116001811461093e575f83156109275750848201515b5f19600385901b1c1916600184901b1784556108d7565b5f84815260208120601f198516915b8281101561096d578785015182556020948501946001909201910161094d565b508482101561098a57868401515f19600387901b60f8161c191681555b50505050600190811b01905550565b5f602082840312156109a9575f5ffd5b81516001600160401b03811681146109bf575f5ffd5b9392505050565b634e487b7160e01b5f52601260045260245ffd5b5f6001600160401b038316806109f2576109f26109c6565b6001600160401b03929092169190910692915050565b5f82610a1657610a166109c6565b500690565b634e487b7160e01b5f52601160045260245ffd5b5f82610a3d57610a3d6109c6565b500490565b6001815b6001841115610a7d57808504811115610a6157610a61610a1b565b6001841615610a6f57908102905b60019390931c928002610a46565b935093915050565b5f82610a9357506001610b21565b81610a9f57505f610b21565b8160018114610ab55760028114610abf57610adb565b6001915050610b21565b60ff841115610ad057610ad0610a1b565b50506001821b610b21565b5060208310610133831016604e8410600b8410161715610afe575081810a610b21565b610b0a5f198484610a42565b805f1904821115610b1d57610b1d610a1b565b0290505b92915050565b5f6109bf60ff841683610a85565b8082028115828204841417610b2157610b21610a1b565b80820180821115610b2157610b21610a1b565b61235e80610b6c5f395ff3fe608060405234801561000f575f5ffd5b50600436106101c1575f3560e01c806372d229fd116100f6578063b40619de1161009a578063b40619de146104ee578063c2bea95f14610501578063d3dc2a0f14610514578063d5abeb0114610522578063dd62ed3e1461052b578063f302d97f1461053e578063f4e6c93f14610571578063f6671de414610579578063ff7620441461058c575f5ffd5b806372d229fd146104615780637db9510e14610474578063834e94801461047c5780638da5cb5b1461048f57806395d89b41146104955780639b3d54e41461049d5780639dcbf7ea146104c8578063a9059cbb146104db575f5ffd5b8063313ce56711610168578063313ce567146103a357806338bf3cfa146103b25780633e9f6444146103c5578063467e251f146103d857806346dd4401146103eb578063666e1b39146103f35780636fb7329c146104065780637065cb481461042657806370a0823114610439575f5ffd5b806306fdde03146101c5578063095ea7b3146101e35780631686f2651461020657806318160ddd1461032e578063222838db1461034057806323b872dd146103555780632499a533146103685780632b83b1fc1461037b575b5f5ffd5b6101cd6105ae565b6040516101da9190611aa9565b60405180910390f35b6101f66101f1366004611af9565b61063e565b60405190151581526020016101da565b610321604080516101a0810182525f80825260208201819052918101829052606081018290526080810182905260a0810182905260c0810182905260e08101829052610100810182905261012081018290526101408101829052610160810182905261018081019190915250604080516101a0810182526009546001600160401b038082168352600160401b80830482166020850152600160801b808404831695850195909552600160c01b9283900482166060850152600a548083166080860152818104831660a0860152858104831660c0860152839004821660e0850152600b548083166101008601529081048216610120850152938404811661014084015292048216610160820152600c5490911661018082015290565b6040516101da9190611b21565b6003545b6040519081526020016101da565b61035361034e366004611af9565b610657565b005b6101f6610363366004611c87565b610859565b610353610376366004611af9565b61087c565b610332610389366004611cc1565b6001600160a01b03165f9081526008602052604090205490565b604051601281526020016101da565b6103536103c0366004611cc1565b610a2f565b6103536103d3366004611cf5565b610a44565b6103536103e6366004611d3d565b610ee9565b610353610fd0565b6101f6610401366004611cc1565b6110a5565b600654610419906001600160a01b031681565b6040516101da9190611d58565b610353610434366004611cc1565b6110c2565b610332610447366004611cc1565b6001600160a01b03165f9081526001602052604090205490565b61035361046f366004611d3d565b611102565b6103536111cb565b61035361048a366004611cf5565b611296565b30610419565b6101cd6112f1565b600d546104b0906001600160401b031681565b6040516001600160401b0390911681526020016101da565b6103536104d6366004611e28565b611300565b6101f66104e9366004611af9565b611321565b6103536104fc366004611d3d565b61132e565b61035361050f366004611d3d565b6113f4565b6104b06603632c8eb5af3b81565b61033260075481565b610332610539366004611e8b565b6114b2565b61055161054c366004611ebc565b6114dc565b604080516001600160401b039384168152929091166020830152016101da565b610353611657565b6104b0610587366004611d3d565b611667565b6101cd6040518060400160405280600381526020016253484160e81b81525081565b6060600480546105bd90611ef3565b80601f01602080910402602001604051908101604052809291908181526020018280546105e990611ef3565b80156106345780601f1061060b57610100808354040283529160200191610634565b820191905f5260205f20905b81548152906001019060200180831161061757829003601f168201915b5050505050905090565b5f3361064b8185856116fd565b60019150505b92915050565b6001600160a01b0382165f90815260086020526040812054900361069957816040516390b2344160e01b81526004016106909190611d58565b60405180910390fd5b815f6106a76012600a612022565b6001600160a01b0385165f908152600860205260409020546106c99085612030565b6106d39190612047565b6040516323b872dd60e01b81529091505f9030906323b872dd906106ff90339084908990600401612066565b6020604051808303815f875af115801561071b573d5f5f3e3d5ffd5b505050506040513d601f19601f8201168201806040525081019061073f919061208a565b905080306001600160a01b03166306fdde036040518163ffffffff1660e01b81526004015f60405180830381865afa15801561077d573d5f5f3e3d5ffd5b505050506040513d5f823e601f3d908101601f191682016040526107a491908101906120a9565b6040516020016107b4919061211d565b604051602081830303815290604052906107e15760405162461bcd60e51b81526004016106909190611aa9565b5060405163a9059cbb60e01b8152336004820152602481018390526001600160a01b0384169063a9059cbb906044015b6020604051808303815f875af115801561082d573d5f5f3e3d5ffd5b505050506040513d601f19601f82011682018060405250810190610851919061208a565b505050505050565b5f3361086685828561170a565b610871858585611761565b506001949350505050565b6001600160a01b0382165f9081526008602052604081205490036108b557816040516390b2344160e01b81526004016106909190611d58565b815f6108c36012600a612022565b6001600160a01b0385165f908152600860205260409020546108e59085612030565b6108ef9190612047565b90505f826001600160a01b03166323b872dd3330856040518463ffffffff1660e01b815260040161092293929190612066565b6020604051808303815f875af115801561093e573d5f5f3e3d5ffd5b505050506040513d601f19601f82011682018060405250810190610962919061208a565b905080836001600160a01b03166306fdde036040518163ffffffff1660e01b81526004015f60405180830381865afa1580156109a0573d5f5f3e3d5ffd5b505050506040513d5f823e601f3d908101601f191682016040526109c791908101906120a9565b6040516020016109d7919061211d565b60405160208183030381529060405290610a045760405162461bcd60e51b81526004016106909190611aa9565b5060405163a9059cbb60e01b815233600482015260248101859052309063a9059cbb90604401610811565b610a3761176c565b610a41815f6117ac565b50565b610a4c61176c565b600a54600160801b90046001600160401b03165f03610b4457600a805467ffffffffffffffff60801b1916600160801b6001600160401b03868116820292909217928390556006546009546040516353df6e3560e01b81526001600160a01b03909216946353df6e3594610ad594928116939290910416906603632c8eb5af3b9060040161214d565b6020604051808303815f875af1158015610af1573d5f5f3e3d5ffd5b505050506040513d601f19601f82011682018060405250810190610b159190612170565b600a80546001600160401b0392909216600160c01b026001600160c01b03909216919091179055610b446117ff565b600654600a546040516353df6e3560e01b81525f926001600160a01b0316916353df6e3591610b92918791600160801b9091046001600160401b0316906603632c8eb5af3b9060040161214d565b6020604051808303815f875af1158015610bae573d5f5f3e3d5ffd5b505050506040513d601f19601f82011682018060405250810190610bd29190612170565b600654600a546040516353df6e3560e01b81529293505f926001600160a01b03909216916353df6e3591610c24918791600160801b90046001600160401b0316906603632c8eb5af3b9060040161214d565b6020604051808303815f875af1158015610c40573d5f5f3e3d5ffd5b505050506040513d601f19601f82011682018060405250810190610c649190612170565b6006546009546040516353df6e3560e01b81529293505f926001600160a01b03909216916353df6e3591610cb6918991600160801b90046001600160401b0316906603632c8eb5af3b9060040161214d565b6020604051808303815f875af1158015610cd2573d5f5f3e3d5ffd5b505050506040513d601f19601f82011682018060405250810190610cf69190612170565b9050610d02818361218b565b600b80546001600160401b0392909216600160801b0267ffffffffffffffff60801b19909216919091179055610d38818461218b565b600b80546001600160c01b0316600160c01b6001600160401b03938416021790819055610d6e91600160801b909104168461218b565b600b805467ffffffffffffffff19166001600160401b039283161790556006546009546040516353df6e3560e01b81526001600160a01b03909216926353df6e3592610dd1928992600160801b90910416906603632c8eb5af3b9060040161214d565b6020604051808303815f875af1158015610ded573d5f5f3e3d5ffd5b505050506040513d601f19601f82011682018060405250810190610e119190612170565b600d805467ffffffffffffffff19166001600160401b03928316179055600654600b54600a546040516353df6e3560e01b81526001600160a01b03909316936353df6e3593610e8093600160c01b9004821692600160801b9004909116906603632c8eb5af3b9060040161214d565b6020604051808303815f875af1158015610e9c573d5f5f3e3d5ffd5b505050506040513d601f19601f82011682018060405250810190610ec09190612170565b600c805467ffffffffffffffff19166001600160401b03929092169190911790556108516117ff565b610ef161176c565b600a805467ffffffffffffffff60801b1916600160801b6001600160401b03848116820292909217928390556006546009546040516353df6e3560e01b81526001600160a01b03909216946353df6e3594610f6194928116939290910416906603632c8eb5af3b9060040161214d565b6020604051808303815f875af1158015610f7d573d5f5f3e3d5ffd5b505050506040513d601f19601f82011682018060405250810190610fa19190612170565b600a80546001600160401b0392909216600160c01b026001600160c01b03909216919091179055610a416117ff565b610fd861176c565b600654600954600b546040516353df6e3560e01b81526001600160a01b03909316926353df6e3592611026926001600160401b0380831693600160801b90930481169291169060040161214d565b6020604051808303815f875af1158015611042573d5f5f3e3d5ffd5b505050506040513d601f19601f820116820180604052508101906110669190612170565b600d805467ffffffffffffffff19166001600160401b0392909216919091179055600a805467ffffffffffffffff60401b191690556110a36117ff565b565b6001600160a01b03165f9081526020819052604090205460ff1690565b6110ca61176c565b6001600160a01b0381166110f757325f30604051633603021960e21b8152600401610690939291906121aa565b610a418160016117ac565b61110a61176c565b6006546009546040516353df6e3560e01b81526001600160a01b03909216916353df6e3591611157918591600160401b90046001600160401b0316906603632c8eb5af3b9060040161214d565b6020604051808303815f875af1158015611173573d5f5f3e3d5ffd5b505050506040513d601f19601f820116820180604052508101906111979190612170565b600b80546001600160401b0392909216600160401b0267ffffffffffffffff60401b19909216919091179055610a416117ff565b6111d361176c565b6006546009546040516353df6e3560e01b81526001600160a01b03909216916353df6e3591611222916001600160401b0380831692600160401b900416906603632c8eb5af3b9060040161214d565b6020604051808303815f875af115801561123e573d5f5f3e3d5ffd5b505050506040513d601f19601f820116820180604052508101906112629190612170565b600a80546001600160401b0392909216600160401b0267ffffffffffffffff60401b199092169190911790556110a36117ff565b61129e61176c565b600980546001600160401b03858116600160801b0267ffffffffffffffff60801b19858316600160401b026001600160801b03199094169287169290921792909217161790556112ec6117ff565b505050565b6060600580546105bd90611ef3565b61130861176c565b60046113148382612218565b5060056112ec8282612218565b5f3361064b818585611761565b61133661176c565b6006546009546040516353df6e3560e01b81526001600160a01b03909216916353df6e3591611383918591600160401b90046001600160401b0316906603632c8eb5af3b9060040161214d565b6020604051808303815f875af115801561139f573d5f5f3e3d5ffd5b505050506040513d601f19601f820116820180604052508101906113c39190612170565b6009805467ffffffffffffffff19166001600160401b03929092169190911790556113ec611841565b610a416117ff565b6113fc61176c565b6006546009546040516353df6e3560e01b81526001600160a01b03909216916353df6e3591611449918591600160401b90046001600160401b0316906603632c8eb5af3b9060040161214d565b6020604051808303815f875af1158015611465573d5f5f3e3d5ffd5b505050506040513d601f19601f820116820180604052508101906114899190612170565b600a805467ffffffffffffffff19166001600160401b0392909216919091179055610a416117ff565b6001600160a01b039182165f90815260026020908152604080832093909416825291909152205490565b6006546009546040516353df6e3560e01b81525f92839283926001600160a01b03909216916353df6e3591611528918991600160c01b90046001600160401b031690899060040161214d565b6020604051808303815f875af1158015611544573d5f5f3e3d5ffd5b505050506040513d601f19601f820116820180604052508101906115689190612170565b6006546009546040516353df6e3560e01b81529293505f926001600160a01b03909216916353df6e35916115b4918a918a91600160c01b9091046001600160401b03169060040161214d565b6020604051808303815f875af11580156115d0573d5f5f3e3d5ffd5b505050506040513d601f19601f820116820180604052508101906115f49190612170565b90506001600160401b038216158061161357506001600160401b038116155b156116445760405163b5067c2760e01b81526001600160401b03808416600483015282166024820152604401610690565b61164c6117ff565b909590945092505050565b61165f61176c565b6110a36117ff565b5f6116706117ff565b600654600954600b546040516353df6e3560e01b81526001600160a01b03909316926353df6e35926116bd928792600160801b9092046001600160401b039081169291169060040161214d565b6020604051808303815f875af11580156116d9573d5f5f3e3d5ffd5b505050506040513d601f19601f820116820180604052508101906106519190612170565b6112ec83838360016118ff565b5f61171584846114b2565b90505f19811461175b578181101561174d573233858530858760405162b83d1960e21b815260040161069097969594939291906122d2565b61175b84848484035f6118ff565b50505050565b6112ec83838361197f565b611775336110a5565b1580156117885750611786326110a5565b155b156110a357323330604051630be6bab560e01b8152600401610690939291906121aa565b6001600160a01b0382165f81815260208190526040808220805460ff191685151590811790915590519092917f6bfa7e860c3e9bf67b810cb88276b19b27c972812bac04793d369b59a1183a8391a35050565b61180b6012600a612022565b6007546118189190612030565b60035410156110a3576110a3306118316012600a612022565b61183c906001612030565b611a9a565b6006546009546040516353df6e3560e01b81526001600160a01b03909216916353df6e3591611890916001600160401b0380831692600160801b900416906603632c8eb5af3b9060040161214d565b6020604051808303815f875af11580156118ac573d5f5f3e3d5ffd5b505050506040513d601f19601f820116820180604052508101906118d09190612170565b600980546001600160401b0392909216600160c01b026001600160c01b039092169190911790556110a36117ff565b6001600160a01b038085165f908152600260209081526040808320938716835292905220829055801561175b57826001600160a01b0316846001600160a01b03167f8c5be1e5ebec7d5bd14f71427d1e84f3dd0314c0f7b2291e5b200ac8c7c3b9258460405161197191815260200190565b60405180910390a350505050565b6001600160a01b0383166119a9578060035f82825461199e9190612315565b90915550611a0e9050565b6001600160a01b0383165f90815260016020526040902054818110156119f05732338585308587604051630f7d0bbd60e21b815260040161069097969594939291906122d2565b6001600160a01b0384165f9081526001602052604090209082900390555b6001600160a01b038216611a2a57600380548290039055611a48565b6001600160a01b0382165f9081526001602052604090208054820190555b816001600160a01b0316836001600160a01b03167fddf252ad1be2c89b69c2b068fc378daa952ba7f163c4a11628f55a4df523b3ef83604051611a8d91815260200190565b60405180910390a3505050565b611aa55f838361197f565b5050565b602081525f82518060208401528060208501604085015e5f604082850101526040601f19601f83011684010191505092915050565b80356001600160a01b0381168114611af4575f5ffd5b919050565b5f5f60408385031215611b0a575f5ffd5b611b1383611ade565b946020939093013593505050565b81516001600160401b031681526101a081016020830151611b4d60208401826001600160401b03169052565b506040830151611b6860408401826001600160401b03169052565b506060830151611b8360608401826001600160401b03169052565b506080830151611b9e60808401826001600160401b03169052565b5060a0830151611bb960a08401826001600160401b03169052565b5060c0830151611bd460c08401826001600160401b03169052565b5060e0830151611bef60e08401826001600160401b03169052565b50610100830151611c0c6101008401826001600160401b03169052565b50610120830151611c296101208401826001600160401b03169052565b50610140830151611c466101408401826001600160401b03169052565b50610160830151611c636101608401826001600160401b03169052565b50610180830151611c806101808401826001600160401b03169052565b5092915050565b5f5f5f60608486031215611c99575f5ffd5b611ca284611ade565b9250611cb060208501611ade565b929592945050506040919091013590565b5f60208284031215611cd1575f5ffd5b611cda82611ade565b9392505050565b6001600160401b0381168114610a41575f5ffd5b5f5f5f60608486031215611d07575f5ffd5b8335611d1281611ce1565b92506020840135611d2281611ce1565b91506040840135611d3281611ce1565b809150509250925092565b5f60208284031215611d4d575f5ffd5b8135611cda81611ce1565b6001600160a01b0391909116815260200190565b634e487b7160e01b5f52604160045260245ffd5b604051601f8201601f191681016001600160401b0381118282101715611da857611da8611d6c565b604052919050565b5f6001600160401b03821115611dc857611dc8611d6c565b50601f01601f191660200190565b5f82601f830112611de5575f5ffd5b8135611df8611df382611db0565b611d80565b818152846020838601011115611e0c575f5ffd5b816020850160208301375f918101602001919091529392505050565b5f5f60408385031215611e39575f5ffd5b82356001600160401b03811115611e4e575f5ffd5b611e5a85828601611dd6565b92505060208301356001600160401b03811115611e75575f5ffd5b611e8185828601611dd6565b9150509250929050565b5f5f60408385031215611e9c575f5ffd5b611ea583611ade565b9150611eb360208401611ade565b90509250929050565b5f5f60408385031215611ecd575f5ffd5b8235611ed881611ce1565b91506020830135611ee881611ce1565b809150509250929050565b600181811c90821680611f0757607f821691505b602082108103611f2557634e487b7160e01b5f52602260045260245ffd5b50919050565b634e487b7160e01b5f52601160045260245ffd5b6001815b6001841115611f7a57808504811115611f5e57611f5e611f2b565b6001841615611f6c57908102905b60019390931c928002611f43565b935093915050565b5f82611f9057506001610651565b81611f9c57505f610651565b8160018114611fb25760028114611fbc57611fd8565b6001915050610651565b60ff841115611fcd57611fcd611f2b565b50506001821b610651565b5060208310610133831016604e8410600b8410161715611ffb575081810a610651565b6120075f198484611f3f565b805f190482111561201a5761201a611f2b565b029392505050565b5f611cda60ff841683611f82565b808202811582820484141761065157610651611f2b565b5f8261206157634e487b7160e01b5f52601260045260245ffd5b500490565b6001600160a01b039384168152919092166020820152604081019190915260600190565b5f6020828403121561209a575f5ffd5b81518015158114611cda575f5ffd5b5f602082840312156120b9575f5ffd5b81516001600160401b038111156120ce575f5ffd5b8201601f810184136120de575f5ffd5b80516120ec611df382611db0565b818152856020838501011115612100575f5ffd5b8160208401602083015e5f91810160200191909152949350505050565b6d02732b2b21020b8383937bb32b2160951b81525f82518060208501600e85015e5f9201600e0191825250919050565b6001600160401b0393841681529183166020830152909116604082015260600190565b5f60208284031215612180575f5ffd5b8151611cda81611ce1565b6001600160401b03818116838216019081111561065157610651611f2b565b6001600160a01b0393841681529183166020830152909116604082015260600190565b601f8211156112ec57805f5260205f20601f840160051c810160208510156121f25750805b601f840160051c820191505b81811015612211575f81556001016121fe565b5050505050565b81516001600160401b0381111561223157612231611d6c565b6122458161223f8454611ef3565b846121cd565b6020601f821160018114612277575f83156122605750848201515b5f19600385901b1c1916600184901b178455612211565b5f84815260208120601f198516915b828110156122a65787850151825560209485019460019092019101612286565b50848210156122c357868401515f19600387901b60f8161c191681555b50505050600190811b01905550565b6001600160a01b039788168152958716602087015293861660408601529185166060850152909316608083015260a082019290925260c081019190915260e00190565b8082018082111561065157610651611f2b56fea2646970667358221220f0883db2eadfbe281a816e162f4e176cc71b1f95bbb9de8344a2e405eaca90d664736f6c634300081b0033",
			"opcodes": "PUSH1 0x80 PUSH1 0x40 MSTORE CALLVALUE DUP1 ISZERO PUSH2 0xF JUMPI PUSH0 PUSH0 REVERT JUMPDEST POP PUSH1 0x40 MLOAD PUSH2 0x2ECA CODESIZE SUB DUP1 PUSH2 0x2ECA DUP4 CODECOPY DUP2 ADD PUSH1 0x40 DUP2 SWAP1 MSTORE PUSH2 0x2E SWAP2 PUSH2 0x7D6 JUMP JUMPDEST DUP3 DUP3 DUP3 CALLER DUP1 PUSH2 0x63 JUMPI PUSH1 0x40 MLOAD PUSH4 0x36030219 PUSH1 0xE2 SHL DUP2 MSTORE ORIGIN PUSH1 0x4 DUP3 ADD MSTORE PUSH0 PUSH1 0x24 DUP3 ADD MSTORE ADDRESS PUSH1 0x44 DUP3 ADD MSTORE PUSH1 0x64 ADD JUMPDEST PUSH1 0x40 MLOAD DUP1 SWAP2 SUB SWAP1 REVERT JUMPDEST PUSH2 0x6E DUP2 PUSH1 0x1 PUSH2 0x250 JUMP JUMPDEST POP PUSH1 0x4 PUSH2 0x7B DUP5 DUP3 PUSH2 0x8DF JUMP JUMPDEST POP PUSH1 0x5 PUSH2 0x88 DUP4 DUP3 PUSH2 0x8DF JUMP JUMPDEST POP PUSH1 0x6 DUP1 SLOAD PUSH1 0x1 PUSH1 0x1 PUSH1 0xA0 SHL SUB NOT AND PUSH1 0x1 PUSH1 0x1 PUSH1 0xA0 SHL SUB DUP4 AND SWAP1 DUP2 OR SWAP1 SWAP2 SSTORE PUSH1 0x40 DUP1 MLOAD PUSH4 0x604A6FA9 PUSH1 0xE0 SHL DUP2 MSTORE SWAP1 MLOAD PUSH3 0x1B207 SWAP3 SWAP2 PUSH4 0x604A6FA9 SWAP2 PUSH1 0x4 DUP1 DUP4 ADD SWAP3 PUSH1 0x20 SWAP3 SWAP2 SWAP1 DUP3 SWAP1 SUB ADD DUP2 PUSH0 DUP8 GAS CALL ISZERO DUP1 ISZERO PUSH2 0xE6 JUMPI RETURNDATASIZE PUSH0 PUSH0 RETURNDATACOPY RETURNDATASIZE PUSH0 REVERT JUMPDEST POP POP POP POP PUSH1 0x40 MLOAD RETURNDATASIZE PUSH1 0x1F NOT PUSH1 0x1F DUP3 ADD AND DUP3 ADD DUP1 PUSH1 0x40 MSTORE POP DUP2 ADD SWAP1 PUSH2 0x10A SWAP2 SWAP1 PUSH2 0x999 JUMP JUMPDEST PUSH2 0x114 SWAP2 SWAP1 PUSH2 0x9DA JUMP JUMPDEST PUSH1 0x1 PUSH1 0x1 PUSH1 0x40 SHL SUB AND PUSH1 0x7 DUP2 SWAP1 SSTORE POP PUSH0 PUSH1 0xA PUSH1 0x7 SLOAD PUSH1 0x6 PUSH0 SWAP1 SLOAD SWAP1 PUSH2 0x100 EXP SWAP1 DIV PUSH1 0x1 PUSH1 0x1 PUSH1 0xA0 SHL SUB AND PUSH1 0x1 PUSH1 0x1 PUSH1 0xA0 SHL SUB AND PUSH4 0x604A6FA9 PUSH1 0x40 MLOAD DUP2 PUSH4 0xFFFFFFFF AND PUSH1 0xE0 SHL DUP2 MSTORE PUSH1 0x4 ADD PUSH1 0x20 PUSH1 0x40 MLOAD DUP1 DUP4 SUB DUP2 PUSH0 DUP8 GAS CALL ISZERO DUP1 ISZERO PUSH2 0x17A JUMPI RETURNDATASIZE PUSH0 PUSH0 RETURNDATACOPY RETURNDATASIZE PUSH0 REVERT JUMPDEST POP POP POP POP PUSH1 0x40 MLOAD RETURNDATASIZE PUSH1 0x1F NOT PUSH1 0x1F DUP3 ADD AND DUP3 ADD DUP1 PUSH1 0x40 MSTORE POP DUP2 ADD SWAP1 PUSH2 0x19E SWAP2 SWAP1 PUSH2 0x999 JUMP JUMPDEST PUSH1 0x1 PUSH1 0x1 PUSH1 0x40 SHL SUB AND PUSH2 0x1B1 SWAP2 SWAP1 PUSH2 0xA08 JUMP JUMPDEST PUSH2 0x1BB SWAP2 SWAP1 PUSH2 0xA2F JUMP JUMPDEST SWAP1 POP PUSH2 0x1DC ORIGIN PUSH2 0x1CD PUSH1 0x12 PUSH1 0xA PUSH2 0xB27 JUMP JUMPDEST PUSH2 0x1D7 SWAP1 DUP5 PUSH2 0xB35 JUMP JUMPDEST PUSH2 0x2A3 JUMP JUMPDEST PUSH2 0x226 PUSH20 0x24F0154C1DCE548ADF15DA2098FDD8B8A3B8151D PUSH2 0x200 PUSH1 0x12 PUSH1 0xA PUSH2 0xB27 JUMP JUMPDEST PUSH2 0x20B SWAP1 PUSH1 0x1 PUSH2 0xB35 JUMP JUMPDEST PUSH1 0x1 PUSH1 0x1 PUSH1 0xA0 SHL SUB SWAP1 SWAP2 AND PUSH0 SWAP1 DUP2 MSTORE PUSH1 0x8 PUSH1 0x20 MSTORE PUSH1 0x40 SWAP1 KECCAK256 SSTORE JUMP JUMPDEST POP POP POP POP PUSH2 0x238 PUSH2 0x2B2 PUSH1 0x20 SHL PUSH1 0x20 SHR JUMP JUMPDEST PUSH2 0x240 PUSH2 0x486 JUMP JUMPDEST PUSH2 0x248 PUSH2 0x54A JUMP JUMPDEST POP POP POP PUSH2 0xB5F JUMP JUMPDEST PUSH1 0x1 PUSH1 0x1 PUSH1 0xA0 SHL SUB DUP3 AND PUSH0 DUP2 DUP2 MSTORE PUSH1 0x20 DUP2 SWAP1 MSTORE PUSH1 0x40 DUP1 DUP3 KECCAK256 DUP1 SLOAD PUSH1 0xFF NOT AND DUP6 ISZERO ISZERO SWAP1 DUP2 OR SWAP1 SWAP2 SSTORE SWAP1 MLOAD SWAP1 SWAP3 SWAP2 PUSH32 0x6BFA7E860C3E9BF67B810CB88276B19B27C972812BAC04793D369B59A1183A83 SWAP2 LOG3 POP POP JUMP JUMPDEST PUSH2 0x2AE PUSH0 DUP4 DUP4 PUSH2 0x552 JUMP JUMPDEST POP POP JUMP JUMPDEST PUSH1 0x6 PUSH0 SWAP1 SLOAD SWAP1 PUSH2 0x100 EXP SWAP1 DIV PUSH1 0x1 PUSH1 0x1 PUSH1 0xA0 SHL SUB AND PUSH1 0x1 PUSH1 0x1 PUSH1 0xA0 SHL SUB AND PUSH4 0x604A6FA9 PUSH1 0x40 MLOAD DUP2 PUSH4 0xFFFFFFFF AND PUSH1 0xE0 SHL DUP2 MSTORE PUSH1 0x4 ADD PUSH1 0x20 PUSH1 0x40 MLOAD DUP1 DUP4 SUB DUP2 PUSH0 DUP8 GAS CALL ISZERO DUP1 ISZERO PUSH2 0x303 JUMPI RETURNDATASIZE PUSH0 PUSH0 RETURNDATACOPY RETURNDATASIZE PUSH0 REVERT JUMPDEST POP POP POP POP PUSH1 0x40 MLOAD RETURNDATASIZE PUSH1 0x1F NOT PUSH1 0x1F DUP3 ADD AND DUP3 ADD DUP1 PUSH1 0x40 MSTORE POP DUP2 ADD SWAP1 PUSH2 0x327 SWAP2 SWAP1 PUSH2 0x999 JUMP JUMPDEST PUSH1 0x9 DUP1 SLOAD PUSH1 0x1 PUSH1 0x1 PUSH1 0x40 SHL SUB NOT AND PUSH1 0x1 PUSH1 0x1 PUSH1 0x40 SHL SUB SWAP3 SWAP1 SWAP3 AND SWAP2 SWAP1 SWAP2 OR SWAP1 SSTORE PUSH1 0x6 SLOAD PUSH1 0x40 DUP1 MLOAD PUSH4 0x604A6FA9 PUSH1 0xE0 SHL DUP2 MSTORE SWAP1 MLOAD PUSH1 0x1 PUSH1 0x1 PUSH1 0xA0 SHL SUB SWAP1 SWAP3 AND SWAP2 PUSH4 0x604A6FA9 SWAP2 PUSH1 0x4 DUP1 DUP3 ADD SWAP3 PUSH1 0x20 SWAP3 SWAP1 SWAP2 SWAP1 DUP3 SWAP1 SUB ADD DUP2 PUSH0 DUP8 GAS CALL ISZERO DUP1 ISZERO PUSH2 0x390 JUMPI RETURNDATASIZE PUSH0 PUSH0 RETURNDATACOPY RETURNDATASIZE PUSH0 REVERT JUMPDEST POP POP POP POP PUSH1 0x40 MLOAD RETURNDATASIZE PUSH1 0x1F NOT PUSH1 0x1F DUP3 ADD AND DUP3 ADD DUP1 PUSH1 0x40 MSTORE POP DUP2 ADD SWAP1 PUSH2 0x3B4 SWAP2 SWAP1 PUSH2 0x999 JUMP JUMPDEST PUSH1 0x9 DUP1 SLOAD PUSH1 0x1 PUSH1 0x1 PUSH1 0x40 SHL SUB SWAP3 SWAP1 SWAP3 AND PUSH9 0x10000000000000000 MUL PUSH1 0x1 PUSH1 0x40 SHL PUSH1 0x1 PUSH1 0x80 SHL SUB NOT SWAP1 SWAP3 AND SWAP2 SWAP1 SWAP2 OR SWAP1 SSTORE PUSH1 0x6 SLOAD PUSH1 0x40 DUP1 MLOAD PUSH4 0x604A6FA9 PUSH1 0xE0 SHL DUP2 MSTORE SWAP1 MLOAD PUSH1 0x1 PUSH1 0x1 PUSH1 0xA0 SHL SUB SWAP1 SWAP3 AND SWAP2 PUSH4 0x604A6FA9 SWAP2 PUSH1 0x4 DUP1 DUP3 ADD SWAP3 PUSH1 0x20 SWAP3 SWAP1 SWAP2 SWAP1 DUP3 SWAP1 SUB ADD DUP2 PUSH0 DUP8 GAS CALL ISZERO DUP1 ISZERO PUSH2 0x42D JUMPI RETURNDATASIZE PUSH0 PUSH0 RETURNDATACOPY RETURNDATASIZE PUSH0 REVERT JUMPDEST POP POP POP POP PUSH1 0x40 MLOAD RETURNDATASIZE PUSH1 0x1F NOT PUSH1 0x1F DUP3 ADD AND DUP3 ADD DUP1 PUSH1 0x40 MSTORE POP DUP2 ADD SWAP1 PUSH2 0x451 SWAP2 SWAP1 PUSH2 0x999 JUMP JUMPDEST PUSH1 0x9 DUP1 SLOAD PUSH1 0x1 PUSH1 0x1 PUSH1 0x40 SHL SUB SWAP3 SWAP1 SWAP3 AND PUSH1 0x1 PUSH1 0x80 SHL MUL PUSH1 0x1 PUSH1 0x80 SHL PUSH1 0x1 PUSH1 0xC0 SHL SUB NOT SWAP1 SWAP3 AND SWAP2 SWAP1 SWAP2 OR SWAP1 SSTORE PUSH2 0x484 PUSH2 0x692 JUMP JUMPDEST JUMP JUMPDEST PUSH1 0x6 SLOAD PUSH1 0x9 SLOAD PUSH1 0x40 MLOAD PUSH4 0x53DF6E35 PUSH1 0xE0 SHL DUP2 MSTORE PUSH1 0x1 PUSH1 0x1 PUSH1 0x40 SHL SUB DUP1 DUP4 AND PUSH1 0x4 DUP4 ADD MSTORE PUSH1 0x1 PUSH1 0x80 SHL SWAP1 SWAP3 DIV SWAP1 SWAP2 AND PUSH1 0x24 DUP3 ADD MSTORE PUSH7 0x3632C8EB5AF3B PUSH1 0x44 DUP3 ADD MSTORE PUSH1 0x1 PUSH1 0x1 PUSH1 0xA0 SHL SUB SWAP1 SWAP2 AND SWAP1 PUSH4 0x53DF6E35 SWAP1 PUSH1 0x64 ADD PUSH1 0x20 PUSH1 0x40 MLOAD DUP1 DUP4 SUB DUP2 PUSH0 DUP8 GAS CALL ISZERO DUP1 ISZERO PUSH2 0x4F7 JUMPI RETURNDATASIZE PUSH0 PUSH0 RETURNDATACOPY RETURNDATASIZE PUSH0 REVERT JUMPDEST POP POP POP POP PUSH1 0x40 MLOAD RETURNDATASIZE PUSH1 0x1F NOT PUSH1 0x1F DUP3 ADD AND DUP3 ADD DUP1 PUSH1 0x40 MSTORE POP DUP2 ADD SWAP1 PUSH2 0x51B SWAP2 SWAP1 PUSH2 0x999 JUMP JUMPDEST PUSH1 0x9 DUP1 SLOAD PUSH1 0x1 PUSH1 0x1 PUSH1 0x40 SHL SUB SWAP3 SWAP1 SWAP3 AND PUSH1 0x1 PUSH1 0xC0 SHL MUL PUSH1 0x1 PUSH1 0x1 PUSH1 0xC0 SHL SUB SWAP1 SWAP3 AND SWAP2 SWAP1 SWAP2 OR SWAP1 SSTORE PUSH2 0x484 PUSH2 0x692 JUMP JUMPDEST PUSH2 0x484 PUSH2 0x6CF JUMP JUMPDEST PUSH1 0x1 PUSH1 0x1 PUSH1 0xA0 SHL SUB DUP4 AND PUSH2 0x57C JUMPI DUP1 PUSH1 0x3 PUSH0 DUP3 DUP3 SLOAD PUSH2 0x571 SWAP2 SWAP1 PUSH2 0xB4C JUMP JUMPDEST SWAP1 SWAP2 SSTORE POP PUSH2 0x606 SWAP1 POP JUMP JUMPDEST PUSH1 0x1 PUSH1 0x1 PUSH1 0xA0 SHL SUB DUP4 AND PUSH0 SWAP1 DUP2 MSTORE PUSH1 0x1 PUSH1 0x20 MSTORE PUSH1 0x40 SWAP1 KECCAK256 SLOAD DUP2 DUP2 LT ISZERO PUSH2 0x5E8 JUMPI PUSH1 0x40 MLOAD PUSH4 0xF7D0BBD PUSH1 0xE2 SHL DUP2 MSTORE ORIGIN PUSH1 0x4 DUP3 ADD MSTORE CALLER PUSH1 0x24 DUP3 ADD MSTORE PUSH1 0x1 PUSH1 0x1 PUSH1 0xA0 SHL SUB DUP1 DUP7 AND PUSH1 0x44 DUP4 ADD MSTORE DUP5 AND PUSH1 0x64 DUP3 ADD MSTORE ADDRESS PUSH1 0x84 DUP3 ADD MSTORE PUSH1 0xA4 DUP2 ADD DUP3 SWAP1 MSTORE PUSH1 0xC4 DUP2 ADD DUP4 SWAP1 MSTORE PUSH1 0xE4 ADD PUSH2 0x5A JUMP JUMPDEST PUSH1 0x1 PUSH1 0x1 PUSH1 0xA0 SHL SUB DUP5 AND PUSH0 SWAP1 DUP2 MSTORE PUSH1 0x1 PUSH1 0x20 MSTORE PUSH1 0x40 SWAP1 KECCAK256 SWAP1 DUP3 SWAP1 SUB SWAP1 SSTORE JUMPDEST PUSH1 0x1 PUSH1 0x1 PUSH1 0xA0 SHL SUB DUP3 AND PUSH2 0x622 JUMPI PUSH1 0x3 DUP1 SLOAD DUP3 SWAP1 SUB SWAP1 SSTORE PUSH2 0x640 JUMP JUMPDEST PUSH1 0x1 PUSH1 0x1 PUSH1 0xA0 SHL SUB DUP3 AND PUSH0 SWAP1 DUP2 MSTORE PUSH1 0x1 PUSH1 0x20 MSTORE PUSH1 0x40 SWAP1 KECCAK256 DUP1 SLOAD DUP3 ADD SWAP1 SSTORE JUMPDEST DUP2 PUSH1 0x1 PUSH1 0x1 PUSH1 0xA0 SHL SUB AND DUP4 PUSH1 0x1 PUSH1 0x1 PUSH1 0xA0 SHL SUB AND PUSH32 0xDDF252AD1BE2C89B69C2B068FC378DAA952BA7F163C4A11628F55A4DF523B3EF DUP4 PUSH1 0x40 MLOAD PUSH2 0x685 SWAP2 DUP2 MSTORE PUSH1 0x20 ADD SWAP1 JUMP JUMPDEST PUSH1 0x40 MLOAD DUP1 SWAP2 SUB SWAP1 LOG3 POP POP POP JUMP JUMPDEST PUSH2 0x69E PUSH1 0x12 PUSH1 0xA PUSH2 0xB27 JUMP JUMPDEST PUSH1 0x7 SLOAD PUSH2 0x6AB SWAP2 SWAP1 PUSH2 0xB35 JUMP JUMPDEST PUSH1 0x3 SLOAD LT ISZERO PUSH2 0x484 JUMPI PUSH2 0x484 ADDRESS PUSH2 0x6C4 PUSH1 0x12 PUSH1 0xA PUSH2 0xB27 JUMP JUMPDEST PUSH2 0x1D7 SWAP1 PUSH1 0x1 PUSH2 0xB35 JUMP JUMPDEST PUSH2 0x6D7 PUSH2 0x6DF JUMP JUMPDEST PUSH2 0x484 PUSH2 0x692 JUMP JUMPDEST CALLER PUSH0 SWAP1 DUP2 MSTORE PUSH1 0x20 DUP2 SWAP1 MSTORE PUSH1 0x40 SWAP1 KECCAK256 SLOAD PUSH1 0xFF AND ISZERO DUP1 ISZERO PUSH2 0x70D JUMPI POP ORIGIN PUSH0 SWAP1 DUP2 MSTORE PUSH1 0x20 DUP2 SWAP1 MSTORE PUSH1 0x40 SWAP1 KECCAK256 SLOAD PUSH1 0xFF AND ISZERO JUMPDEST ISZERO PUSH2 0x484 JUMPI PUSH1 0x40 MLOAD PUSH4 0xBE6BAB5 PUSH1 0xE0 SHL DUP2 MSTORE ORIGIN PUSH1 0x4 DUP3 ADD MSTORE CALLER PUSH1 0x24 DUP3 ADD MSTORE ADDRESS PUSH1 0x44 DUP3 ADD MSTORE PUSH1 0x64 ADD PUSH2 0x5A JUMP JUMPDEST PUSH4 0x4E487B71 PUSH1 0xE0 SHL PUSH0 MSTORE PUSH1 0x41 PUSH1 0x4 MSTORE PUSH1 0x24 PUSH0 REVERT JUMPDEST PUSH0 DUP3 PUSH1 0x1F DUP4 ADD SLT PUSH2 0x75C JUMPI PUSH0 PUSH0 REVERT JUMPDEST DUP2 MLOAD PUSH1 0x1 PUSH1 0x1 PUSH1 0x40 SHL SUB DUP2 GT ISZERO PUSH2 0x775 JUMPI PUSH2 0x775 PUSH2 0x739 JUMP JUMPDEST PUSH1 0x40 MLOAD PUSH1 0x1F DUP3 ADD PUSH1 0x1F NOT SWAP1 DUP2 AND PUSH1 0x3F ADD AND DUP2 ADD PUSH1 0x1 PUSH1 0x1 PUSH1 0x40 SHL SUB DUP2 GT DUP3 DUP3 LT OR ISZERO PUSH2 0x7A3 JUMPI PUSH2 0x7A3 PUSH2 0x739 JUMP JUMPDEST PUSH1 0x40 MSTORE DUP2 DUP2 MSTORE DUP4 DUP3 ADD PUSH1 0x20 ADD DUP6 LT ISZERO PUSH2 0x7BA JUMPI PUSH0 PUSH0 REVERT JUMPDEST DUP2 PUSH1 0x20 DUP6 ADD PUSH1 0x20 DUP4 ADD MCOPY PUSH0 SWAP2 DUP2 ADD PUSH1 0x20 ADD SWAP2 SWAP1 SWAP2 MSTORE SWAP4 SWAP3 POP POP POP JUMP JUMPDEST PUSH0 PUSH0 PUSH0 PUSH1 0x60 DUP5 DUP7 SUB SLT ISZERO PUSH2 0x7E8 JUMPI PUSH0 PUSH0 REVERT JUMPDEST DUP4 MLOAD PUSH1 0x1 PUSH1 0x1 PUSH1 0x40 SHL SUB DUP2 GT ISZERO PUSH2 0x7FD JUMPI PUSH0 PUSH0 REVERT JUMPDEST PUSH2 0x809 DUP7 DUP3 DUP8 ADD PUSH2 0x74D JUMP JUMPDEST PUSH1 0x20 DUP7 ADD MLOAD SWAP1 SWAP5 POP SWAP1 POP PUSH1 0x1 PUSH1 0x1 PUSH1 0x40 SHL SUB DUP2 GT ISZERO PUSH2 0x826 JUMPI PUSH0 PUSH0 REVERT JUMPDEST PUSH2 0x832 DUP7 DUP3 DUP8 ADD PUSH2 0x74D JUMP JUMPDEST PUSH1 0x40 DUP7 ADD MLOAD SWAP1 SWAP4 POP SWAP1 POP PUSH1 0x1 PUSH1 0x1 PUSH1 0xA0 SHL SUB DUP2 AND DUP2 EQ PUSH2 0x850 JUMPI PUSH0 PUSH0 REVERT JUMPDEST DUP1 SWAP2 POP POP SWAP3 POP SWAP3 POP SWAP3 JUMP JUMPDEST PUSH1 0x1 DUP2 DUP2 SHR SWAP1 DUP3 AND DUP1 PUSH2 0x86F JUMPI PUSH1 0x7F DUP3 AND SWAP2 POP JUMPDEST PUSH1 0x20 DUP3 LT DUP2 SUB PUSH2 0x88D JUMPI PUSH4 0x4E487B71 PUSH1 0xE0 SHL PUSH0 MSTORE PUSH1 0x22 PUSH1 0x4 MSTORE PUSH1 0x24 PUSH0 REVERT JUMPDEST POP SWAP2 SWAP1 POP JUMP JUMPDEST PUSH1 0x1F DUP3 GT ISZERO PUSH2 0x8DA JUMPI DUP1 PUSH0 MSTORE PUSH1 0x20 PUSH0 KECCAK256 PUSH1 0x1F DUP5 ADD PUSH1 0x5 SHR DUP2 ADD PUSH1 0x20 DUP6 LT ISZERO PUSH2 0x8B8 JUMPI POP DUP1 JUMPDEST PUSH1 0x1F DUP5 ADD PUSH1 0x5 SHR DUP3 ADD SWAP2 POP JUMPDEST DUP2 DUP2 LT ISZERO PUSH2 0x8D7 JUMPI PUSH0 DUP2 SSTORE PUSH1 0x1 ADD PUSH2 0x8C4 JUMP JUMPDEST POP POP JUMPDEST POP POP POP JUMP JUMPDEST DUP2 MLOAD PUSH1 0x1 PUSH1 0x1 PUSH1 0x40 SHL SUB DUP2 GT ISZERO PUSH2 0x8F8 JUMPI PUSH2 0x8F8 PUSH2 0x739 JUMP JUMPDEST PUSH2 0x90C DUP2 PUSH2 0x906 DUP5 SLOAD PUSH2 0x85B JUMP JUMPDEST DUP5 PUSH2 0x893 JUMP JUMPDEST PUSH1 0x20 PUSH1 0x1F DUP3 GT PUSH1 0x1 DUP2 EQ PUSH2 0x93E JUMPI PUSH0 DUP4 ISZERO PUSH2 0x927 JUMPI POP DUP5 DUP3 ADD MLOAD JUMPDEST PUSH0 NOT PUSH1 0x3 DUP6 SWAP1 SHL SHR NOT AND PUSH1 0x1 DUP5 SWAP1 SHL OR DUP5 SSTORE PUSH2 0x8D7 JUMP JUMPDEST PUSH0 DUP5 DUP2 MSTORE PUSH1 0x20 DUP2 KECCAK256 PUSH1 0x1F NOT DUP6 AND SWAP2 JUMPDEST DUP3 DUP2 LT ISZERO PUSH2 0x96D JUMPI DUP8 DUP6 ADD MLOAD DUP3 SSTORE PUSH1 0x20 SWAP5 DUP6 ADD SWAP5 PUSH1 0x1 SWAP1 SWAP3 ADD SWAP2 ADD PUSH2 0x94D JUMP JUMPDEST POP DUP5 DUP3 LT ISZERO PUSH2 0x98A JUMPI DUP7 DUP5 ADD MLOAD PUSH0 NOT PUSH1 0x3 DUP8 SWAP1 SHL PUSH1 0xF8 AND SHR NOT AND DUP2 SSTORE JUMPDEST POP POP POP POP PUSH1 0x1 SWAP1 DUP2 SHL ADD SWAP1 SSTORE POP JUMP JUMPDEST PUSH0 PUSH1 0x20 DUP3 DUP5 SUB SLT ISZERO PUSH2 0x9A9 JUMPI PUSH0 PUSH0 REVERT JUMPDEST DUP2 MLOAD PUSH1 0x1 PUSH1 0x1 PUSH1 0x40 SHL SUB DUP2 AND DUP2 EQ PUSH2 0x9BF JUMPI PUSH0 PUSH0 REVERT JUMPDEST SWAP4 SWAP3 POP POP POP JUMP JUMPDEST PUSH4 0x4E487B71 PUSH1 0xE0 SHL PUSH0 MSTORE PUSH1 0x12 PUSH1 0x4 MSTORE PUSH1 0x24 PUSH0 REVERT JUMPDEST PUSH0 PUSH1 0x1 PUSH1 0x1 PUSH1 0x40 SHL SUB DUP4 AND DUP1 PUSH2 0x9F2 JUMPI PUSH2 0x9F2 PUSH2 0x9C6 JUMP JUMPDEST PUSH1 0x1 PUSH1 0x1 PUSH1 0x40 SHL SUB SWAP3 SWAP1 SWAP3 AND SWAP2 SWAP1 SWAP2 MOD SWAP3 SWAP2 POP POP JUMP JUMPDEST PUSH0 DUP3 PUSH2 0xA16 JUMPI PUSH2 0xA16 PUSH2 0x9C6 JUMP JUMPDEST POP MOD SWAP1 JUMP JUMPDEST PUSH4 0x4E487B71 PUSH1 0xE0 SHL PUSH0 MSTORE PUSH1 0x11 PUSH1 0x4 MSTORE PUSH1 0x24 PUSH0 REVERT JUMPDEST PUSH0 DUP3 PUSH2 0xA3D JUMPI PUSH2 0xA3D PUSH2 0x9C6 JUMP JUMPDEST POP DIV SWAP1 JUMP JUMPDEST PUSH1 0x1 DUP2 JUMPDEST PUSH1 0x1 DUP5 GT ISZERO PUSH2 0xA7D JUMPI DUP1 DUP6 DIV DUP2 GT ISZERO PUSH2 0xA61 JUMPI PUSH2 0xA61 PUSH2 0xA1B JUMP JUMPDEST PUSH1 0x1 DUP5 AND ISZERO PUSH2 0xA6F JUMPI SWAP1 DUP2 MUL SWAP1 JUMPDEST PUSH1 0x1 SWAP4 SWAP1 SWAP4 SHR SWAP3 DUP1 MUL PUSH2 0xA46 JUMP JUMPDEST SWAP4 POP SWAP4 SWAP2 POP POP JUMP JUMPDEST PUSH0 DUP3 PUSH2 0xA93 JUMPI POP PUSH1 0x1 PUSH2 0xB21 JUMP JUMPDEST DUP2 PUSH2 0xA9F JUMPI POP PUSH0 PUSH2 0xB21 JUMP JUMPDEST DUP2 PUSH1 0x1 DUP2 EQ PUSH2 0xAB5 JUMPI PUSH1 0x2 DUP2 EQ PUSH2 0xABF JUMPI PUSH2 0xADB JUMP JUMPDEST PUSH1 0x1 SWAP2 POP POP PUSH2 0xB21 JUMP JUMPDEST PUSH1 0xFF DUP5 GT ISZERO PUSH2 0xAD0 JUMPI PUSH2 0xAD0 PUSH2 0xA1B JUMP JUMPDEST POP POP PUSH1 0x1 DUP3 SHL PUSH2 0xB21 JUMP JUMPDEST POP PUSH1 0x20 DUP4 LT PUSH2 0x133 DUP4 LT AND PUSH1 0x4E DUP5 LT PUSH1 0xB DUP5 LT AND OR ISZERO PUSH2 0xAFE JUMPI POP DUP2 DUP2 EXP PUSH2 0xB21 JUMP JUMPDEST PUSH2 0xB0A PUSH0 NOT DUP5 DUP5 PUSH2 0xA42 JUMP JUMPDEST DUP1 PUSH0 NOT DIV DUP3 GT ISZERO PUSH2 0xB1D JUMPI PUSH2 0xB1D PUSH2 0xA1B JUMP JUMPDEST MUL SWAP1 POP JUMPDEST SWAP3 SWAP2 POP POP JUMP JUMPDEST PUSH0 PUSH2 0x9BF PUSH1 0xFF DUP5 AND DUP4 PUSH2 0xA85 JUMP JUMPDEST DUP1 DUP3 MUL DUP2 ISZERO DUP3 DUP3 DIV DUP5 EQ OR PUSH2 0xB21 JUMPI PUSH2 0xB21 PUSH2 0xA1B JUMP JUMPDEST DUP1 DUP3 ADD DUP1 DUP3 GT ISZERO PUSH2 0xB21 JUMPI PUSH2 0xB21 PUSH2 0xA1B JUMP JUMPDEST PUSH2 0x235E DUP1 PUSH2 0xB6C PUSH0 CODECOPY PUSH0 RETURN INVALID PUSH1 0x80 PUSH1 0x40 MSTORE CALLVALUE DUP1 ISZERO PUSH2 0xF JUMPI PUSH0 PUSH0 REVERT JUMPDEST POP PUSH1 0x4 CALLDATASIZE LT PUSH2 0x1C1 JUMPI PUSH0 CALLDATALOAD PUSH1 0xE0 SHR DUP1 PUSH4 0x72D229FD GT PUSH2 0xF6 JUMPI DUP1 PUSH4 0xB40619DE GT PUSH2 0x9A JUMPI DUP1 PUSH4 0xB40619DE EQ PUSH2 0x4EE JUMPI DUP1 PUSH4 0xC2BEA95F EQ PUSH2 0x501 JUMPI DUP1 PUSH4 0xD3DC2A0F EQ PUSH2 0x514 JUMPI DUP1 PUSH4 0xD5ABEB01 EQ PUSH2 0x522 JUMPI DUP1 PUSH4 0xDD62ED3E EQ PUSH2 0x52B JUMPI DUP1 PUSH4 0xF302D97F EQ PUSH2 0x53E JUMPI DUP1 PUSH4 0xF4E6C93F EQ PUSH2 0x571 JUMPI DUP1 PUSH4 0xF6671DE4 EQ PUSH2 0x579 JUMPI DUP1 PUSH4 0xFF762044 EQ PUSH2 0x58C JUMPI PUSH0 PUSH0 REVERT JUMPDEST DUP1 PUSH4 0x72D229FD EQ PUSH2 0x461 JUMPI DUP1 PUSH4 0x7DB9510E EQ PUSH2 0x474 JUMPI DUP1 PUSH4 0x834E9480 EQ PUSH2 0x47C JUMPI DUP1 PUSH4 0x8DA5CB5B EQ PUSH2 0x48F JUMPI DUP1 PUSH4 0x95D89B41 EQ PUSH2 0x495 JUMPI DUP1 PUSH4 0x9B3D54E4 EQ PUSH2 0x49D JUMPI DUP1 PUSH4 0x9DCBF7EA EQ PUSH2 0x4C8 JUMPI DUP1 PUSH4 0xA9059CBB EQ PUSH2 0x4DB JUMPI PUSH0 PUSH0 REVERT JUMPDEST DUP1 PUSH4 0x313CE567 GT PUSH2 0x168 JUMPI DUP1 PUSH4 0x313CE567 EQ PUSH2 0x3A3 JUMPI DUP1 PUSH4 0x38BF3CFA EQ PUSH2 0x3B2 JUMPI DUP1 PUSH4 0x3E9F6444 EQ PUSH2 0x3C5 JUMPI DUP1 PUSH4 0x467E251F EQ PUSH2 0x3D8 JUMPI DUP1 PUSH4 0x46DD4401 EQ PUSH2 0x3EB JUMPI DUP1 PUSH4 0x666E1B39 EQ PUSH2 0x3F3 JUMPI DUP1 PUSH4 0x6FB7329C EQ PUSH2 0x406 JUMPI DUP1 PUSH4 0x7065CB48 EQ PUSH2 0x426 JUMPI DUP1 PUSH4 0x70A08231 EQ PUSH2 0x439 JUMPI PUSH0 PUSH0 REVERT JUMPDEST DUP1 PUSH4 0x6FDDE03 EQ PUSH2 0x1C5 JUMPI DUP1 PUSH4 0x95EA7B3 EQ PUSH2 0x1E3 JUMPI DUP1 PUSH4 0x1686F265 EQ PUSH2 0x206 JUMPI DUP1 PUSH4 0x18160DDD EQ PUSH2 0x32E JUMPI DUP1 PUSH4 0x222838DB EQ PUSH2 0x340 JUMPI DUP1 PUSH4 0x23B872DD EQ PUSH2 0x355 JUMPI DUP1 PUSH4 0x2499A533 EQ PUSH2 0x368 JUMPI DUP1 PUSH4 0x2B83B1FC EQ PUSH2 0x37B JUMPI JUMPDEST PUSH0 PUSH0 REVERT JUMPDEST PUSH2 0x1CD PUSH2 0x5AE JUMP JUMPDEST PUSH1 0x40 MLOAD PUSH2 0x1DA SWAP2 SWAP1 PUSH2 0x1AA9 JUMP JUMPDEST PUSH1 0x40 MLOAD DUP1 SWAP2 SUB SWAP1 RETURN JUMPDEST PUSH2 0x1F6 PUSH2 0x1F1 CALLDATASIZE PUSH1 0x4 PUSH2 0x1AF9 JUMP JUMPDEST PUSH2 0x63E JUMP JUMPDEST PUSH1 0x40 MLOAD SWAP1 ISZERO ISZERO DUP2 MSTORE PUSH1 0x20 ADD PUSH2 0x1DA JUMP JUMPDEST PUSH2 0x321 PUSH1 0x40 DUP1 MLOAD PUSH2 0x1A0 DUP2 ADD DUP3 MSTORE PUSH0 DUP1 DUP3 MSTORE PUSH1 0x20 DUP3 ADD DUP2 SWAP1 MSTORE SWAP2 DUP2 ADD DUP3 SWAP1 MSTORE PUSH1 0x60 DUP2 ADD DUP3 SWAP1 MSTORE PUSH1 0x80 DUP2 ADD DUP3 SWAP1 MSTORE PUSH1 0xA0 DUP2 ADD DUP3 SWAP1 MSTORE PUSH1 0xC0 DUP2 ADD DUP3 SWAP1 MSTORE PUSH1 0xE0 DUP2 ADD DUP3 SWAP1 MSTORE PUSH2 0x100 DUP2 ADD DUP3 SWAP1 MSTORE PUSH2 0x120 DUP2 ADD DUP3 SWAP1 MSTORE PUSH2 0x140 DUP2 ADD DUP3 SWAP1 MSTORE PUSH2 0x160 DUP2 ADD DUP3 SWAP1 MSTORE PUSH2 0x180 DUP2 ADD SWAP2 SWAP1 SWAP2 MSTORE POP PUSH1 0x40 DUP1 MLOAD PUSH2 0x1A0 DUP2 ADD DUP3 MSTORE PUSH1 0x9 SLOAD PUSH1 0x1 PUSH1 0x1 PUSH1 0x40 SHL SUB DUP1 DUP3 AND DUP4 MSTORE PUSH1 0x1 PUSH1 0x40 SHL DUP1 DUP4 DIV DUP3 AND PUSH1 0x20 DUP6 ADD MSTORE PUSH1 0x1 PUSH1 0x80 SHL DUP1 DUP5 DIV DUP4 AND SWAP6 DUP6 ADD SWAP6 SWAP1 SWAP6 MSTORE PUSH1 0x1 PUSH1 0xC0 SHL SWAP3 DUP4 SWAP1 DIV DUP3 AND PUSH1 0x60 DUP6 ADD MSTORE PUSH1 0xA SLOAD DUP1 DUP4 AND PUSH1 0x80 DUP7 ADD MSTORE DUP2 DUP2 DIV DUP4 AND PUSH1 0xA0 DUP7 ADD MSTORE DUP6 DUP2 DIV DUP4 AND PUSH1 0xC0 DUP7 ADD MSTORE DUP4 SWAP1 DIV DUP3 AND PUSH1 0xE0 DUP6 ADD MSTORE PUSH1 0xB SLOAD DUP1 DUP4 AND PUSH2 0x100 DUP7 ADD MSTORE SWAP1 DUP2 DIV DUP3 AND PUSH2 0x120 DUP6 ADD MSTORE SWAP4 DUP5 DIV DUP2 AND PUSH2 0x140 DUP5 ADD MSTORE SWAP3 DIV DUP3 AND PUSH2 0x160 DUP3 ADD MSTORE PUSH1 0xC SLOAD SWAP1 SWAP2 AND PUSH2 0x180 DUP3 ADD MSTORE SWAP1 JUMP JUMPDEST PUSH1 0x40 MLOAD PUSH2 0x1DA SWAP2 SWAP1 PUSH2 0x1B21 JUMP JUMPDEST PUSH1 0x3 SLOAD JUMPDEST PUSH1 0x40 MLOAD SWAP1 DUP2 MSTORE PUSH1 0x20 ADD PUSH2 0x1DA JUMP JUMPDEST PUSH2 0x353 PUSH2 0x34E CALLDATASIZE PUSH1 0x4 PUSH2 0x1AF9 JUMP JUMPDEST PUSH2 0x657 JUMP JUMPDEST STOP JUMPDEST PUSH2 0x1F6 PUSH2 0x363 CALLDATASIZE PUSH1 0x4 PUSH2 0x1C87 JUMP JUMPDEST PUSH2 0x859 JUMP JUMPDEST PUSH2 0x353 PUSH2 0x376 CALLDATASIZE PUSH1 0x4 PUSH2 0x1AF9 JUMP JUMPDEST PUSH2 0x87C JUMP JUMPDEST PUSH2 0x332 PUSH2 0x389 CALLDATASIZE PUSH1 0x4 PUSH2 0x1CC1 JUMP JUMPDEST PUSH1 0x1 PUSH1 0x1 PUSH1 0xA0 SHL SUB AND PUSH0 SWAP1 DUP2 MSTORE PUSH1 0x8 PUSH1 0x20 MSTORE PUSH1 0x40 SWAP1 KECCAK256 SLOAD SWAP1 JUMP JUMPDEST PUSH1 0x40 MLOAD PUSH1 0x12 DUP2 MSTORE PUSH1 0x20 ADD PUSH2 0x1DA JUMP JUMPDEST PUSH2 0x353 PUSH2 0x3C0 CALLDATASIZE PUSH1 0x4 PUSH2 0x1CC1 JUMP JUMPDEST PUSH2 0xA2F JUMP JUMPDEST PUSH2 0x353 PUSH2 0x3D3 CALLDATASIZE PUSH1 0x4 PUSH2 0x1CF5 JUMP JUMPDEST PUSH2 0xA44 JUMP JUMPDEST PUSH2 0x353 PUSH2 0x3E6 CALLDATASIZE PUSH1 0x4 PUSH2 0x1D3D JUMP JUMPDEST PUSH2 0xEE9 JUMP JUMPDEST PUSH2 0x353 PUSH2 0xFD0 JUMP JUMPDEST PUSH2 0x1F6 PUSH2 0x401 CALLDATASIZE PUSH1 0x4 PUSH2 0x1CC1 JUMP JUMPDEST PUSH2 0x10A5 JUMP JUMPDEST PUSH1 0x6 SLOAD PUSH2 0x419 SWAP1 PUSH1 0x1 PUSH1 0x1 PUSH1 0xA0 SHL SUB AND DUP2 JUMP JUMPDEST PUSH1 0x40 MLOAD PUSH2 0x1DA SWAP2 SWAP1 PUSH2 0x1D58 JUMP JUMPDEST PUSH2 0x353 PUSH2 0x434 CALLDATASIZE PUSH1 0x4 PUSH2 0x1CC1 JUMP JUMPDEST PUSH2 0x10C2 JUMP JUMPDEST PUSH2 0x332 PUSH2 0x447 CALLDATASIZE PUSH1 0x4 PUSH2 0x1CC1 JUMP JUMPDEST PUSH1 0x1 PUSH1 0x1 PUSH1 0xA0 SHL SUB AND PUSH0 SWAP1 DUP2 MSTORE PUSH1 0x1 PUSH1 0x20 MSTORE PUSH1 0x40 SWAP1 KECCAK256 SLOAD SWAP1 JUMP JUMPDEST PUSH2 0x353 PUSH2 0x46F CALLDATASIZE PUSH1 0x4 PUSH2 0x1D3D JUMP JUMPDEST PUSH2 0x1102 JUMP JUMPDEST PUSH2 0x353 PUSH2 0x11CB JUMP JUMPDEST PUSH2 0x353 PUSH2 0x48A CALLDATASIZE PUSH1 0x4 PUSH2 0x1CF5 JUMP JUMPDEST PUSH2 0x1296 JUMP JUMPDEST ADDRESS PUSH2 0x419 JUMP JUMPDEST PUSH2 0x1CD PUSH2 0x12F1 JUMP JUMPDEST PUSH1 0xD SLOAD PUSH2 0x4B0 SWAP1 PUSH1 0x1 PUSH1 0x1 PUSH1 0x40 SHL SUB AND DUP2 JUMP JUMPDEST PUSH1 0x40 MLOAD PUSH1 0x1 PUSH1 0x1 PUSH1 0x40 SHL SUB SWAP1 SWAP2 AND DUP2 MSTORE PUSH1 0x20 ADD PUSH2 0x1DA JUMP JUMPDEST PUSH2 0x353 PUSH2 0x4D6 CALLDATASIZE PUSH1 0x4 PUSH2 0x1E28 JUMP JUMPDEST PUSH2 0x1300 JUMP JUMPDEST PUSH2 0x1F6 PUSH2 0x4E9 CALLDATASIZE PUSH1 0x4 PUSH2 0x1AF9 JUMP JUMPDEST PUSH2 0x1321 JUMP JUMPDEST PUSH2 0x353 PUSH2 0x4FC CALLDATASIZE PUSH1 0x4 PUSH2 0x1D3D JUMP JUMPDEST PUSH2 0x132E JUMP JUMPDEST PUSH2 0x353 PUSH2 0x50F CALLDATASIZE PUSH1 0x4 PUSH2 0x1D3D JUMP JUMPDEST PUSH2 0x13F4 JUMP JUMPDEST PUSH2 0x4B0 PUSH7 0x3632C8EB5AF3B DUP2 JUMP JUMPDEST PUSH2 0x332 PUSH1 0x7 SLOAD DUP2 JUMP JUMPDEST PUSH2 0x332 PUSH2 0x539 CALLDATASIZE PUSH1 0x4 PUSH2 0x1E8B JUMP JUMPDEST PUSH2 0x14B2 JUMP JUMPDEST PUSH2 0x551 PUSH2 0x54C CALLDATASIZE PUSH1 0x4 PUSH2 0x1EBC JUMP JUMPDEST PUSH2 0x14DC JUMP JUMPDEST PUSH1 0x40 DUP1 MLOAD PUSH1 0x1 PUSH1 0x1 PUSH1 0x40 SHL SUB SWAP4 DUP5 AND DUP2 MSTORE SWAP3 SWAP1 SWAP2 AND PUSH1 0x20 DUP4 ADD MSTORE ADD PUSH2 0x1DA JUMP JUMPDEST PUSH2 0x353 PUSH2 0x1657 JUMP JUMPDEST PUSH2 0x4B0 PUSH2 0x587 CALLDATASIZE PUSH1 0x4 PUSH2 0x1D3D JUMP JUMPDEST PUSH2 0x1667 JUMP JUMPDEST PUSH2 0x1CD PUSH1 0x40 MLOAD DUP1 PUSH1 0x40 ADD PUSH1 0x40 MSTORE DUP1 PUSH1 0x3 DUP2 MSTORE PUSH1 0x20 ADD PUSH3 0x534841 PUSH1 0xE8 SHL DUP2 MSTORE POP DUP2 JUMP JUMPDEST PUSH1 0x60 PUSH1 0x4 DUP1 SLOAD PUSH2 0x5BD SWAP1 PUSH2 0x1EF3 JUMP JUMPDEST DUP1 PUSH1 0x1F ADD PUSH1 0x20 DUP1 SWAP2 DIV MUL PUSH1 0x20 ADD PUSH1 0x40 MLOAD SWAP1 DUP2 ADD PUSH1 0x40 MSTORE DUP1 SWAP3 SWAP2 SWAP1 DUP2 DUP2 MSTORE PUSH1 0x20 ADD DUP3 DUP1 SLOAD PUSH2 0x5E9 SWAP1 PUSH2 0x1EF3 JUMP JUMPDEST DUP1 ISZERO PUSH2 0x634 JUMPI DUP1 PUSH1 0x1F LT PUSH2 0x60B JUMPI PUSH2 0x100 DUP1 DUP4 SLOAD DIV MUL DUP4 MSTORE SWAP2 PUSH1 0x20 ADD SWAP2 PUSH2 0x634 JUMP JUMPDEST DUP3 ADD SWAP2 SWAP1 PUSH0 MSTORE PUSH1 0x20 PUSH0 KECCAK256 SWAP1 JUMPDEST DUP2 SLOAD DUP2 MSTORE SWAP1 PUSH1 0x1 ADD SWAP1 PUSH1 0x20 ADD DUP1 DUP4 GT PUSH2 0x617 JUMPI DUP3 SWAP1 SUB PUSH1 0x1F AND DUP3 ADD SWAP2 JUMPDEST POP POP POP POP POP SWAP1 POP SWAP1 JUMP JUMPDEST PUSH0 CALLER PUSH2 0x64B DUP2 DUP6 DUP6 PUSH2 0x16FD JUMP JUMPDEST PUSH1 0x1 SWAP2 POP POP JUMPDEST SWAP3 SWAP2 POP POP JUMP JUMPDEST PUSH1 0x1 PUSH1 0x1 PUSH1 0xA0 SHL SUB DUP3 AND PUSH0 SWAP1 DUP2 MSTORE PUSH1 0x8 PUSH1 0x20 MSTORE PUSH1 0x40 DUP2 KECCAK256 SLOAD SWAP1 SUB PUSH2 0x699 JUMPI DUP2 PUSH1 0x40 MLOAD PUSH4 0x90B23441 PUSH1 0xE0 SHL DUP2 MSTORE PUSH1 0x4 ADD PUSH2 0x690 SWAP2 SWAP1 PUSH2 0x1D58 JUMP JUMPDEST PUSH1 0x40 MLOAD DUP1 SWAP2 SUB SWAP1 REVERT JUMPDEST DUP2 PUSH0 PUSH2 0x6A7 PUSH1 0x12 PUSH1 0xA PUSH2 0x2022 JUMP JUMPDEST PUSH1 0x1 PUSH1 0x1 PUSH1 0xA0 SHL SUB DUP6 AND PUSH0 SWAP1 DUP2 MSTORE PUSH1 0x8 PUSH1 0x20 MSTORE PUSH1 0x40 SWAP1 KECCAK256 SLOAD PUSH2 0x6C9 SWAP1 DUP6 PUSH2 0x2030 JUMP JUMPDEST PUSH2 0x6D3 SWAP2 SWAP1 PUSH2 0x2047 JUMP JUMPDEST PUSH1 0x40 MLOAD PUSH4 0x23B872DD PUSH1 0xE0 SHL DUP2 MSTORE SWAP1 SWAP2 POP PUSH0 SWAP1 ADDRESS SWAP1 PUSH4 0x23B872DD SWAP1 PUSH2 0x6FF SWAP1 CALLER SWAP1 DUP5 SWAP1 DUP10 SWAP1 PUSH1 0x4 ADD PUSH2 0x2066 JUMP JUMPDEST PUSH1 0x20 PUSH1 0x40 MLOAD DUP1 DUP4 SUB DUP2 PUSH0 DUP8 GAS CALL ISZERO DUP1 ISZERO PUSH2 0x71B JUMPI RETURNDATASIZE PUSH0 PUSH0 RETURNDATACOPY RETURNDATASIZE PUSH0 REVERT JUMPDEST POP POP POP POP PUSH1 0x40 MLOAD RETURNDATASIZE PUSH1 0x1F NOT PUSH1 0x1F DUP3 ADD AND DUP3 ADD DUP1 PUSH1 0x40 MSTORE POP DUP2 ADD SWAP1 PUSH2 0x73F SWAP2 SWAP1 PUSH2 0x208A JUMP JUMPDEST SWAP1 POP DUP1 ADDRESS PUSH1 0x1 PUSH1 0x1 PUSH1 0xA0 SHL SUB AND PUSH4 0x6FDDE03 PUSH1 0x40 MLOAD DUP2 PUSH4 0xFFFFFFFF AND PUSH1 0xE0 SHL DUP2 MSTORE PUSH1 0x4 ADD PUSH0 PUSH1 0x40 MLOAD DUP1 DUP4 SUB DUP2 DUP7 GAS STATICCALL ISZERO DUP1 ISZERO PUSH2 0x77D JUMPI RETURNDATASIZE PUSH0 PUSH0 RETURNDATACOPY RETURNDATASIZE PUSH0 REVERT JUMPDEST POP POP POP POP PUSH1 0x40 MLOAD RETURNDATASIZE PUSH0 DUP3 RETURNDATACOPY PUSH1 0x1F RETURNDATASIZE SWAP1 DUP2 ADD PUSH1 0x1F NOT AND DUP3 ADD PUSH1 0x40 MSTORE PUSH2 0x7A4 SWAP2 SWAP1 DUP2 ADD SWAP1 PUSH2 0x20A9 JUMP JUMPDEST PUSH1 0x40 MLOAD PUSH1 0x20 ADD PUSH2 0x7B4 SWAP2 SWAP1 PUSH2 0x211D JUMP JUMPDEST PUSH1 0x40 MLOAD PUSH1 0x20 DUP2 DUP4 SUB SUB DUP2 MSTORE SWAP1 PUSH1 0x40 MSTORE SWAP1 PUSH2 0x7E1 JUMPI PUSH1 0x40 MLOAD PUSH3 0x461BCD PUSH1 0xE5 SHL DUP2 MSTORE PUSH1 0x4 ADD PUSH2 0x690 SWAP2 SWAP1 PUSH2 0x1AA9 JUMP JUMPDEST POP PUSH1 0x40 MLOAD PUSH4 0xA9059CBB PUSH1 0xE0 SHL DUP2 MSTORE CALLER PUSH1 0x4 DUP3 ADD MSTORE PUSH1 0x24 DUP2 ADD DUP4 SWAP1 MSTORE PUSH1 0x1 PUSH1 0x1 PUSH1 0xA0 SHL SUB DUP5 AND SWAP1 PUSH4 0xA9059CBB SWAP1 PUSH1 0x44 ADD JUMPDEST PUSH1 0x20 PUSH1 0x40 MLOAD DUP1 DUP4 SUB DUP2 PUSH0 DUP8 GAS CALL ISZERO DUP1 ISZERO PUSH2 0x82D JUMPI RETURNDATASIZE PUSH0 PUSH0 RETURNDATACOPY RETURNDATASIZE PUSH0 REVERT JUMPDEST POP POP POP POP PUSH1 0x40 MLOAD RETURNDATASIZE PUSH1 0x1F NOT PUSH1 0x1F DUP3 ADD AND DUP3 ADD DUP1 PUSH1 0x40 MSTORE POP DUP2 ADD SWAP1 PUSH2 0x851 SWAP2 SWAP1 PUSH2 0x208A JUMP JUMPDEST POP POP POP POP POP POP JUMP JUMPDEST PUSH0 CALLER PUSH2 0x866 DUP6 DUP3 DUP6 PUSH2 0x170A JUMP JUMPDEST PUSH2 0x871 DUP6 DUP6 DUP6 PUSH2 0x1761 JUMP JUMPDEST POP PUSH1 0x1 SWAP5 SWAP4 POP POP POP POP JUMP JUMPDEST PUSH1 0x1 PUSH1 0x1 PUSH1 0xA0 SHL SUB DUP3 AND PUSH0 SWAP1 DUP2 MSTORE PUSH1 0x8 PUSH1 0x20 MSTORE PUSH1 0x40 DUP2 KECCAK256 SLOAD SWAP1 SUB PUSH2 0x8B5 JUMPI DUP2 PUSH1 0x40 MLOAD PUSH4 0x90B23441 PUSH1 0xE0 SHL DUP2 MSTORE PUSH1 0x4 ADD PUSH2 0x690 SWAP2 SWAP1 PUSH2 0x1D58 JUMP JUMPDEST DUP2 PUSH0 PUSH2 0x8C3 PUSH1 0x12 PUSH1 0xA PUSH2 0x2022 JUMP JUMPDEST PUSH1 0x1 PUSH1 0x1 PUSH1 0xA0 SHL SUB DUP6 AND PUSH0 SWAP1 DUP2 MSTORE PUSH1 0x8 PUSH1 0x20 MSTORE PUSH1 0x40 SWAP1 KECCAK256 SLOAD PUSH2 0x8E5 SWAP1 DUP6 PUSH2 0x2030 JUMP JUMPDEST PUSH2 0x8EF SWAP2 SWAP1 PUSH2 0x2047 JUMP JUMPDEST SWAP1 POP PUSH0 DUP3 PUSH1 0x1 PUSH1 0x1 PUSH1 0xA0 SHL SUB AND PUSH4 0x23B872DD CALLER ADDRESS DUP6 PUSH1 0x40 MLOAD DUP5 PUSH4 0xFFFFFFFF AND PUSH1 0xE0 SHL DUP2 MSTORE PUSH1 0x4 ADD PUSH2 0x922 SWAP4 SWAP3 SWAP2 SWAP1 PUSH2 0x2066 JUMP JUMPDEST PUSH1 0x20 PUSH1 0x40 MLOAD DUP1 DUP4 SUB DUP2 PUSH0 DUP8 GAS CALL ISZERO DUP1 ISZERO PUSH2 0x93E JUMPI RETURNDATASIZE PUSH0 PUSH0 RETURNDATACOPY RETURNDATASIZE PUSH0 REVERT JUMPDEST POP POP POP POP PUSH1 0x40 MLOAD RETURNDATASIZE PUSH1 0x1F NOT PUSH1 0x1F DUP3 ADD AND DUP3 ADD DUP1 PUSH1 0x40 MSTORE POP DUP2 ADD SWAP1 PUSH2 0x962 SWAP2 SWAP1 PUSH2 0x208A JUMP JUMPDEST SWAP1 POP DUP1 DUP4 PUSH1 0x1 PUSH1 0x1 PUSH1 0xA0 SHL SUB AND PUSH4 0x6FDDE03 PUSH1 0x40 MLOAD DUP2 PUSH4 0xFFFFFFFF AND PUSH1 0xE0 SHL DUP2 MSTORE PUSH1 0x4 ADD PUSH0 PUSH1 0x40 MLOAD DUP1 DUP4 SUB DUP2 DUP7 GAS STATICCALL ISZERO DUP1 ISZERO PUSH2 0x9A0 JUMPI RETURNDATASIZE PUSH0 PUSH0 RETURNDATACOPY RETURNDATASIZE PUSH0 REVERT JUMPDEST POP POP POP POP PUSH1 0x40 MLOAD RETURNDATASIZE PUSH0 DUP3 RETURNDATACOPY PUSH1 0x1F RETURNDATASIZE SWAP1 DUP2 ADD PUSH1 0x1F NOT AND DUP3 ADD PUSH1 0x40 MSTORE PUSH2 0x9C7 SWAP2 SWAP1 DUP2 ADD SWAP1 PUSH2 0x20A9 JUMP JUMPDEST PUSH1 0x40 MLOAD PUSH1 0x20 ADD PUSH2 0x9D7 SWAP2 SWAP1 PUSH2 0x211D JUMP JUMPDEST PUSH1 0x40 MLOAD PUSH1 0x20 DUP2 DUP4 SUB SUB DUP2 MSTORE SWAP1 PUSH1 0x40 MSTORE SWAP1 PUSH2 0xA04 JUMPI PUSH1 0x40 MLOAD PUSH3 0x461BCD PUSH1 0xE5 SHL DUP2 MSTORE PUSH1 0x4 ADD PUSH2 0x690 SWAP2 SWAP1 PUSH2 0x1AA9 JUMP JUMPDEST POP PUSH1 0x40 MLOAD PUSH4 0xA9059CBB PUSH1 0xE0 SHL DUP2 MSTORE CALLER PUSH1 0x4 DUP3 ADD MSTORE PUSH1 0x24 DUP2 ADD DUP6 SWAP1 MSTORE ADDRESS SWAP1 PUSH4 0xA9059CBB SWAP1 PUSH1 0x44 ADD PUSH2 0x811 JUMP JUMPDEST PUSH2 0xA37 PUSH2 0x176C JUMP JUMPDEST PUSH2 0xA41 DUP2 PUSH0 PUSH2 0x17AC JUMP JUMPDEST POP JUMP JUMPDEST PUSH2 0xA4C PUSH2 0x176C JUMP JUMPDEST PUSH1 0xA SLOAD PUSH1 0x1 PUSH1 0x80 SHL SWAP1 DIV PUSH1 0x1 PUSH1 0x1 PUSH1 0x40 SHL SUB AND PUSH0 SUB PUSH2 0xB44 JUMPI PUSH1 0xA DUP1 SLOAD PUSH8 0xFFFFFFFFFFFFFFFF PUSH1 0x80 SHL NOT AND PUSH1 0x1 PUSH1 0x80 SHL PUSH1 0x1 PUSH1 0x1 PUSH1 0x40 SHL SUB DUP7 DUP2 AND DUP3 MUL SWAP3 SWAP1 SWAP3 OR SWAP3 DUP4 SWAP1 SSTORE PUSH1 0x6 SLOAD PUSH1 0x9 SLOAD PUSH1 0x40 MLOAD PUSH4 0x53DF6E35 PUSH1 0xE0 SHL DUP2 MSTORE PUSH1 0x1 PUSH1 0x1 PUSH1 0xA0 SHL SUB SWAP1 SWAP3 AND SWAP5 PUSH4 0x53DF6E35 SWAP5 PUSH2 0xAD5 SWAP5 SWAP3 DUP2 AND SWAP4 SWAP3 SWAP1 SWAP2 DIV AND SWAP1 PUSH7 0x3632C8EB5AF3B SWAP1 PUSH1 0x4 ADD PUSH2 0x214D JUMP JUMPDEST PUSH1 0x20 PUSH1 0x40 MLOAD DUP1 DUP4 SUB DUP2 PUSH0 DUP8 GAS CALL ISZERO DUP1 ISZERO PUSH2 0xAF1 JUMPI RETURNDATASIZE PUSH0 PUSH0 RETURNDATACOPY RETURNDATASIZE PUSH0 REVERT JUMPDEST POP POP POP POP PUSH1 0x40 MLOAD RETURNDATASIZE PUSH1 0x1F NOT PUSH1 0x1F DUP3 ADD AND DUP3 ADD DUP1 PUSH1 0x40 MSTORE POP DUP2 ADD SWAP1 PUSH2 0xB15 SWAP2 SWAP1 PUSH2 0x2170 JUMP JUMPDEST PUSH1 0xA DUP1 SLOAD PUSH1 0x1 PUSH1 0x1 PUSH1 0x40 SHL SUB SWAP3 SWAP1 SWAP3 AND PUSH1 0x1 PUSH1 0xC0 SHL MUL PUSH1 0x1 PUSH1 0x1 PUSH1 0xC0 SHL SUB SWAP1 SWAP3 AND SWAP2 SWAP1 SWAP2 OR SWAP1 SSTORE PUSH2 0xB44 PUSH2 0x17FF JUMP JUMPDEST PUSH1 0x6 SLOAD PUSH1 0xA SLOAD PUSH1 0x40 MLOAD PUSH4 0x53DF6E35 PUSH1 0xE0 SHL DUP2 MSTORE PUSH0 SWAP3 PUSH1 0x1 PUSH1 0x1 PUSH1 0xA0 SHL SUB AND SWAP2 PUSH4 0x53DF6E35 SWAP2 PUSH2 0xB92 SWAP2 DUP8 SWAP2 PUSH1 0x1 PUSH1 0x80 SHL SWAP1 SWAP2 DIV PUSH1 0x1 PUSH1 0x1 PUSH1 0x40 SHL SUB AND SWAP1 PUSH7 0x3632C8EB5AF3B SWAP1 PUSH1 0x4 ADD PUSH2 0x214D JUMP JUMPDEST PUSH1 0x20 PUSH1 0x40 MLOAD DUP1 DUP4 SUB DUP2 PUSH0 DUP8 GAS CALL ISZERO DUP1 ISZERO PUSH2 0xBAE JUMPI RETURNDATASIZE PUSH0 PUSH0 RETURNDATACOPY RETURNDATASIZE PUSH0 REVERT JUMPDEST POP POP POP POP PUSH1 0x40 MLOAD RETURNDATASIZE PUSH1 0x1F NOT PUSH1 0x1F DUP3 ADD AND DUP3 ADD DUP1 PUSH1 0x40 MSTORE POP DUP2 ADD SWAP1 PUSH2 0xBD2 SWAP2 SWAP1 PUSH2 0x2170 JUMP JUMPDEST PUSH1 0x6 SLOAD PUSH1 0xA SLOAD PUSH1 0x40 MLOAD PUSH4 0x53DF6E35 PUSH1 0xE0 SHL DUP2 MSTORE SWAP3 SWAP4 POP PUSH0 SWAP3 PUSH1 0x1 PUSH1 0x1 PUSH1 0xA0 SHL SUB SWAP1 SWAP3 AND SWAP2 PUSH4 0x53DF6E35 SWAP2 PUSH2 0xC24 SWAP2 DUP8 SWAP2 PUSH1 0x1 PUSH1 0x80 SHL SWAP1 DIV PUSH1 0x1 PUSH1 0x1 PUSH1 0x40 SHL SUB AND SWAP1 PUSH7 0x3632C8EB5AF3B SWAP1 PUSH1 0x4 ADD PUSH2 0x214D JUMP JUMPDEST PUSH1 0x20 PUSH1 0x40 MLOAD DUP1 DUP4 SUB DUP2 PUSH0 DUP8 GAS CALL ISZERO DUP1 ISZERO PUSH2 0xC40 JUMPI RETURNDATASIZE PUSH0 PUSH0 RETURNDATACOPY RETURNDATASIZE PUSH0 REVERT JUMPDEST POP POP POP POP PUSH1 0x40 MLOAD RETURNDATASIZE PUSH1 0x1F NOT PUSH1 0x1F DUP3 ADD AND DUP3 ADD DUP1 PUSH1 0x40 MSTORE POP DUP2 ADD SWAP1 PUSH2 0xC64 SWAP2 SWAP1 PUSH2 0x2170 JUMP JUMPDEST PUSH1 0x6 SLOAD PUSH1 0x9 SLOAD PUSH1 0x40 MLOAD PUSH4 0x53DF6E35 PUSH1 0xE0 SHL DUP2 MSTORE SWAP3 SWAP4 POP PUSH0 SWAP3 PUSH1 0x1 PUSH1 0x1 PUSH1 0xA0 SHL SUB SWAP1 SWAP3 AND SWAP2 PUSH4 0x53DF6E35 SWAP2 PUSH2 0xCB6 SWAP2 DUP10 SWAP2 PUSH1 0x1 PUSH1 0x80 SHL SWAP1 DIV PUSH1 0x1 PUSH1 0x1 PUSH1 0x40 SHL SUB AND SWAP1 PUSH7 0x3632C8EB5AF3B SWAP1 PUSH1 0x4 ADD PUSH2 0x214D JUMP JUMPDEST PUSH1 0x20 PUSH1 0x40 MLOAD DUP1 DUP4 SUB DUP2 PUSH0 DUP8 GAS CALL ISZERO DUP1 ISZERO PUSH2 0xCD2 JUMPI RETURNDATASIZE PUSH0 PUSH0 RETURNDATACOPY RETURNDATASIZE PUSH0 REVERT JUMPDEST POP POP POP POP PUSH1 0x40 MLOAD RETURNDATASIZE PUSH1 0x1F NOT PUSH1 0x1F DUP3 ADD AND DUP3 ADD DUP1 PUSH1 0x40 MSTORE POP DUP2 ADD SWAP1 PUSH2 0xCF6 SWAP2 SWAP1 PUSH2 0x2170 JUMP JUMPDEST SWAP1 POP PUSH2 0xD02 DUP2 DUP4 PUSH2 0x218B JUMP JUMPDEST PUSH1 0xB DUP1 SLOAD PUSH1 0x1 PUSH1 0x1 PUSH1 0x40 SHL SUB SWAP3 SWAP1 SWAP3 AND PUSH1 0x1 PUSH1 0x80 SHL MUL PUSH8 0xFFFFFFFFFFFFFFFF PUSH1 0x80 SHL NOT SWAP1 SWAP3 AND SWAP2 SWAP1 SWAP2 OR SWAP1 SSTORE PUSH2 0xD38 DUP2 DUP5 PUSH2 0x218B JUMP JUMPDEST PUSH1 0xB DUP1 SLOAD PUSH1 0x1 PUSH1 0x1 PUSH1 0xC0 SHL SUB AND PUSH1 0x1 PUSH1 0xC0 SHL PUSH1 0x1 PUSH1 0x1 PUSH1 0x40 SHL SUB SWAP4 DUP5 AND MUL OR SWAP1 DUP2 SWAP1 SSTORE PUSH2 0xD6E SWAP2 PUSH1 0x1 PUSH1 0x80 SHL SWAP1 SWAP2 DIV AND DUP5 PUSH2 0x218B JUMP JUMPDEST PUSH1 0xB DUP1 SLOAD PUSH8 0xFFFFFFFFFFFFFFFF NOT AND PUSH1 0x1 PUSH1 0x1 PUSH1 0x40 SHL SUB SWAP3 DUP4 AND OR SWAP1 SSTORE PUSH1 0x6 SLOAD PUSH1 0x9 SLOAD PUSH1 0x40 MLOAD PUSH4 0x53DF6E35 PUSH1 0xE0 SHL DUP2 MSTORE PUSH1 0x1 PUSH1 0x1 PUSH1 0xA0 SHL SUB SWAP1 SWAP3 AND SWAP3 PUSH4 0x53DF6E35 SWAP3 PUSH2 0xDD1 SWAP3 DUP10 SWAP3 PUSH1 0x1 PUSH1 0x80 SHL SWAP1 SWAP2 DIV AND SWAP1 PUSH7 0x3632C8EB5AF3B SWAP1 PUSH1 0x4 ADD PUSH2 0x214D JUMP JUMPDEST PUSH1 0x20 PUSH1 0x40 MLOAD DUP1 DUP4 SUB DUP2 PUSH0 DUP8 GAS CALL ISZERO DUP1 ISZERO PUSH2 0xDED JUMPI RETURNDATASIZE PUSH0 PUSH0 RETURNDATACOPY RETURNDATASIZE PUSH0 REVERT JUMPDEST POP POP POP POP PUSH1 0x40 MLOAD RETURNDATASIZE PUSH1 0x1F NOT PUSH1 0x1F DUP3 ADD AND DUP3 ADD DUP1 PUSH1 0x40 MSTORE POP DUP2 ADD SWAP1 PUSH2 0xE11 SWAP2 SWAP1 PUSH2 0x2170 JUMP JUMPDEST PUSH1 0xD DUP1 SLOAD PUSH8 0xFFFFFFFFFFFFFFFF NOT AND PUSH1 0x1 PUSH1 0x1 PUSH1 0x40 SHL SUB SWAP3 DUP4 AND OR SWAP1 SSTORE PUSH1 0x6 SLOAD PUSH1 0xB SLOAD PUSH1 0xA SLOAD PUSH1 0x40 MLOAD PUSH4 0x53DF6E35 PUSH1 0xE0 SHL DUP2 MSTORE PUSH1 0x1 PUSH1 0x1 PUSH1 0xA0 SHL SUB SWAP1 SWAP4 AND SWAP4 PUSH4 0x53DF6E35 SWAP4 PUSH2 0xE80 SWAP4 PUSH1 0x1 PUSH1 0xC0 SHL SWAP1 DIV DUP3 AND SWAP3 PUSH1 0x1 PUSH1 0x80 SHL SWAP1 DIV SWAP1 SWAP2 AND SWAP1 PUSH7 0x3632C8EB5AF3B SWAP1 PUSH1 0x4 ADD PUSH2 0x214D JUMP JUMPDEST PUSH1 0x20 PUSH1 0x40 MLOAD DUP1 DUP4 SUB DUP2 PUSH0 DUP8 GAS CALL ISZERO DUP1 ISZERO PUSH2 0xE9C JUMPI RETURNDATASIZE PUSH0 PUSH0 RETURNDATACOPY RETURNDATASIZE PUSH0 REVERT JUMPDEST POP POP POP POP PUSH1 0x40 MLOAD RETURNDATASIZE PUSH1 0x1F NOT PUSH1 0x1F DUP3 ADD AND DUP3 ADD DUP1 PUSH1 0x40 MSTORE POP DUP2 ADD SWAP1 PUSH2 0xEC0 SWAP2 SWAP1 PUSH2 0x2170 JUMP JUMPDEST PUSH1 0xC DUP1 SLOAD PUSH8 0xFFFFFFFFFFFFFFFF NOT AND PUSH1 0x1 PUSH1 0x1 PUSH1 0x40 SHL SUB SWAP3 SWAP1 SWAP3 AND SWAP2 SWAP1 SWAP2 OR SWAP1 SSTORE PUSH2 0x851 PUSH2 0x17FF JUMP JUMPDEST PUSH2 0xEF1 PUSH2 0x176C JUMP JUMPDEST PUSH1 0xA DUP1 SLOAD PUSH8 0xFFFFFFFFFFFFFFFF PUSH1 0x80 SHL NOT AND PUSH1 0x1 PUSH1 0x80 SHL PUSH1 0x1 PUSH1 0x1 PUSH1 0x40 SHL SUB DUP5 DUP2 AND DUP3 MUL SWAP3 SWAP1 SWAP3 OR SWAP3 DUP4 SWAP1 SSTORE PUSH1 0x6 SLOAD PUSH1 0x9 SLOAD PUSH1 0x40 MLOAD PUSH4 0x53DF6E35 PUSH1 0xE0 SHL DUP2 MSTORE PUSH1 0x1 PUSH1 0x1 PUSH1 0xA0 SHL SUB SWAP1 SWAP3 AND SWAP5 PUSH4 0x53DF6E35 SWAP5 PUSH2 0xF61 SWAP5 SWAP3 DUP2 AND SWAP4 SWAP3 SWAP1 SWAP2 DIV AND SWAP1 PUSH7 0x3632C8EB5AF3B SWAP1 PUSH1 0x4 ADD PUSH2 0x214D JUMP JUMPDEST PUSH1 0x20 PUSH1 0x40 MLOAD DUP1 DUP4 SUB DUP2 PUSH0 DUP8 GAS CALL ISZERO DUP1 ISZERO PUSH2 0xF7D JUMPI RETURNDATASIZE PUSH0 PUSH0 RETURNDATACOPY RETURNDATASIZE PUSH0 REVERT JUMPDEST POP POP POP POP PUSH1 0x40 MLOAD RETURNDATASIZE PUSH1 0x1F NOT PUSH1 0x1F DUP3 ADD AND DUP3 ADD DUP1 PUSH1 0x40 MSTORE POP DUP2 ADD SWAP1 PUSH2 0xFA1 SWAP2 SWAP1 PUSH2 0x2170 JUMP JUMPDEST PUSH1 0xA DUP1 SLOAD PUSH1 0x1 PUSH1 0x1 PUSH1 0x40 SHL SUB SWAP3 SWAP1 SWAP3 AND PUSH1 0x1 PUSH1 0xC0 SHL MUL PUSH1 0x1 PUSH1 0x1 PUSH1 0xC0 SHL SUB SWAP1 SWAP3 AND SWAP2 SWAP1 SWAP2 OR SWAP1 SSTORE PUSH2 0xA41 PUSH2 0x17FF JUMP JUMPDEST PUSH2 0xFD8 PUSH2 0x176C JUMP JUMPDEST PUSH1 0x6 SLOAD PUSH1 0x9 SLOAD PUSH1 0xB SLOAD PUSH1 0x40 MLOAD PUSH4 0x53DF6E35 PUSH1 0xE0 SHL DUP2 MSTORE PUSH1 0x1 PUSH1 0x1 PUSH1 0xA0 SHL SUB SWAP1 SWAP4 AND SWAP3 PUSH4 0x53DF6E35 SWAP3 PUSH2 0x1026 SWAP3 PUSH1 0x1 PUSH1 0x1 PUSH1 0x40 SHL SUB DUP1 DUP4 AND SWAP4 PUSH1 0x1 PUSH1 0x80 SHL SWAP1 SWAP4 DIV DUP2 AND SWAP3 SWAP2 AND SWAP1 PUSH1 0x4 ADD PUSH2 0x214D JUMP JUMPDEST PUSH1 0x20 PUSH1 0x40 MLOAD DUP1 DUP4 SUB DUP2 PUSH0 DUP8 GAS CALL ISZERO DUP1 ISZERO PUSH2 0x1042 JUMPI RETURNDATASIZE PUSH0 PUSH0 RETURNDATACOPY RETURNDATASIZE PUSH0 REVERT JUMPDEST POP POP POP POP PUSH1 0x40 MLOAD RETURNDATASIZE PUSH1 0x1F NOT PUSH1 0x1F DUP3 ADD AND DUP3 ADD DUP1 PUSH1 0x40 MSTORE POP DUP2 ADD SWAP1 PUSH2 0x1066 SWAP2 SWAP1 PUSH2 0x2170 JUMP JUMPDEST PUSH1 0xD DUP1 SLOAD PUSH8 0xFFFFFFFFFFFFFFFF NOT AND PUSH1 0x1 PUSH1 0x1 PUSH1 0x40 SHL SUB SWAP3 SWAP1 SWAP3 AND SWAP2 SWAP1 SWAP2 OR SWAP1 SSTORE PUSH1 0xA DUP1 SLOAD PUSH8 0xFFFFFFFFFFFFFFFF PUSH1 0x40 SHL NOT AND SWAP1 SSTORE PUSH2 0x10A3 PUSH2 0x17FF JUMP JUMPDEST JUMP JUMPDEST PUSH1 0x1 PUSH1 0x1 PUSH1 0xA0 SHL SUB AND PUSH0 SWAP1 DUP2 MSTORE PUSH1 0x20 DUP2 SWAP1 MSTORE PUSH1 0x40 SWAP1 KECCAK256 SLOAD PUSH1 0xFF AND SWAP1 JUMP JUMPDEST PUSH2 0x10CA PUSH2 0x176C JUMP JUMPDEST PUSH1 0x1 PUSH1 0x1 PUSH1 0xA0 SHL SUB DUP2 AND PUSH2 0x10F7 JUMPI ORIGIN PUSH0 ADDRESS PUSH1 0x40 MLOAD PUSH4 0x36030219 PUSH1 0xE2 SHL DUP2 MSTORE PUSH1 0x4 ADD PUSH2 0x690 SWAP4 SWAP3 SWAP2 SWAP1 PUSH2 0x21AA JUMP JUMPDEST PUSH2 0xA41 DUP2 PUSH1 0x1 PUSH2 0x17AC JUMP JUMPDEST PUSH2 0x110A PUSH2 0x176C JUMP JUMPDEST PUSH1 0x6 SLOAD PUSH1 0x9 SLOAD PUSH1 0x40 MLOAD PUSH4 0x53DF6E35 PUSH1 0xE0 SHL DUP2 MSTORE PUSH1 0x1 PUSH1 0x1 PUSH1 0xA0 SHL SUB SWAP1 SWAP3 AND SWAP2 PUSH4 0x53DF6E35 SWAP2 PUSH2 0x1157 SWAP2 DUP6 SWAP2 PUSH1 0x1 PUSH1 0x40 SHL SWAP1 DIV PUSH1 0x1 PUSH1 0x1 PUSH1 0x40 SHL SUB AND SWAP1 PUSH7 0x3632C8EB5AF3B SWAP1 PUSH1 0x4 ADD PUSH2 0x214D JUMP JUMPDEST PUSH1 0x20 PUSH1 0x40 MLOAD DUP1 DUP4 SUB DUP2 PUSH0 DUP8 GAS CALL ISZERO DUP1 ISZERO PUSH2 0x1173 JUMPI RETURNDATASIZE PUSH0 PUSH0 RETURNDATACOPY RETURNDATASIZE PUSH0 REVERT JUMPDEST POP POP POP POP PUSH1 0x40 MLOAD RETURNDATASIZE PUSH1 0x1F NOT PUSH1 0x1F DUP3 ADD AND DUP3 ADD DUP1 PUSH1 0x40 MSTORE POP DUP2 ADD SWAP1 PUSH2 0x1197 SWAP2 SWAP1 PUSH2 0x2170 JUMP JUMPDEST PUSH1 0xB DUP1 SLOAD PUSH1 0x1 PUSH1 0x1 PUSH1 0x40 SHL SUB SWAP3 SWAP1 SWAP3 AND PUSH1 0x1 PUSH1 0x40 SHL MUL PUSH8 0xFFFFFFFFFFFFFFFF PUSH1 0x40 SHL NOT SWAP1 SWAP3 AND SWAP2 SWAP1 SWAP2 OR SWAP1 SSTORE PUSH2 0xA41 PUSH2 0x17FF JUMP JUMPDEST PUSH2 0x11D3 PUSH2 0x176C JUMP JUMPDEST PUSH1 0x6 SLOAD PUSH1 0x9 SLOAD PUSH1 0x40 MLOAD PUSH4 0x53DF6E35 PUSH1 0xE0 SHL DUP2 MSTORE PUSH1 0x1 PUSH1 0x1 PUSH1 0xA0 SHL SUB SWAP1 SWAP3 AND SWAP2 PUSH4 0x53DF6E35 SWAP2 PUSH2 0x1222 SWAP2 PUSH1 0x1 PUSH1 0x1 PUSH1 0x40 SHL SUB DUP1 DUP4 AND SWAP3 PUSH1 0x1 PUSH1 0x40 SHL SWAP1 DIV AND SWAP1 PUSH7 0x3632C8EB5AF3B SWAP1 PUSH1 0x4 ADD PUSH2 0x214D JUMP JUMPDEST PUSH1 0x20 PUSH1 0x40 MLOAD DUP1 DUP4 SUB DUP2 PUSH0 DUP8 GAS CALL ISZERO DUP1 ISZERO PUSH2 0x123E JUMPI RETURNDATASIZE PUSH0 PUSH0 RETURNDATACOPY RETURNDATASIZE PUSH0 REVERT JUMPDEST POP POP POP POP PUSH1 0x40 MLOAD RETURNDATASIZE PUSH1 0x1F NOT PUSH1 0x1F DUP3 ADD AND DUP3 ADD DUP1 PUSH1 0x40 MSTORE POP DUP2 ADD SWAP1 PUSH2 0x1262 SWAP2 SWAP1 PUSH2 0x2170 JUMP JUMPDEST PUSH1 0xA DUP1 SLOAD PUSH1 0x1 PUSH1 0x1 PUSH1 0x40 SHL SUB SWAP3 SWAP1 SWAP3 AND PUSH1 0x1 PUSH1 0x40 SHL MUL PUSH8 0xFFFFFFFFFFFFFFFF PUSH1 0x40 SHL NOT SWAP1 SWAP3 AND SWAP2 SWAP1 SWAP2 OR SWAP1 SSTORE PUSH2 0x10A3 PUSH2 0x17FF JUMP JUMPDEST PUSH2 0x129E PUSH2 0x176C JUMP JUMPDEST PUSH1 0x9 DUP1 SLOAD PUSH1 0x1 PUSH1 0x1 PUSH1 0x40 SHL SUB DUP6 DUP2 AND PUSH1 0x1 PUSH1 0x80 SHL MUL PUSH8 0xFFFFFFFFFFFFFFFF PUSH1 0x80 SHL NOT DUP6 DUP4 AND PUSH1 0x1 PUSH1 0x40 SHL MUL PUSH1 0x1 PUSH1 0x1 PUSH1 0x80 SHL SUB NOT SWAP1 SWAP5 AND SWAP3 DUP8 AND SWAP3 SWAP1 SWAP3 OR SWAP3 SWAP1 SWAP3 OR AND OR SWAP1 SSTORE PUSH2 0x12EC PUSH2 0x17FF JUMP JUMPDEST POP POP POP JUMP JUMPDEST PUSH1 0x60 PUSH1 0x5 DUP1 SLOAD PUSH2 0x5BD SWAP1 PUSH2 0x1EF3 JUMP JUMPDEST PUSH2 0x1308 PUSH2 0x176C JUMP JUMPDEST PUSH1 0x4 PUSH2 0x1314 DUP4 DUP3 PUSH2 0x2218 JUMP JUMPDEST POP PUSH1 0x5 PUSH2 0x12EC DUP3 DUP3 PUSH2 0x2218 JUMP JUMPDEST PUSH0 CALLER PUSH2 0x64B DUP2 DUP6 DUP6 PUSH2 0x1761 JUMP JUMPDEST PUSH2 0x1336 PUSH2 0x176C JUMP JUMPDEST PUSH1 0x6 SLOAD PUSH1 0x9 SLOAD PUSH1 0x40 MLOAD PUSH4 0x53DF6E35 PUSH1 0xE0 SHL DUP2 MSTORE PUSH1 0x1 PUSH1 0x1 PUSH1 0xA0 SHL SUB SWAP1 SWAP3 AND SWAP2 PUSH4 0x53DF6E35 SWAP2 PUSH2 0x1383 SWAP2 DUP6 SWAP2 PUSH1 0x1 PUSH1 0x40 SHL SWAP1 DIV PUSH1 0x1 PUSH1 0x1 PUSH1 0x40 SHL SUB AND SWAP1 PUSH7 0x3632C8EB5AF3B SWAP1 PUSH1 0x4 ADD PUSH2 0x214D JUMP JUMPDEST PUSH1 0x20 PUSH1 0x40 MLOAD DUP1 DUP4 SUB DUP2 PUSH0 DUP8 GAS CALL ISZERO DUP1 ISZERO PUSH2 0x139F JUMPI RETURNDATASIZE PUSH0 PUSH0 RETURNDATACOPY RETURNDATASIZE PUSH0 REVERT JUMPDEST POP POP POP POP PUSH1 0x40 MLOAD RETURNDATASIZE PUSH1 0x1F NOT PUSH1 0x1F DUP3 ADD AND DUP3 ADD DUP1 PUSH1 0x40 MSTORE POP DUP2 ADD SWAP1 PUSH2 0x13C3 SWAP2 SWAP1 PUSH2 0x2170 JUMP JUMPDEST PUSH1 0x9 DUP1 SLOAD PUSH8 0xFFFFFFFFFFFFFFFF NOT AND PUSH1 0x1 PUSH1 0x1 PUSH1 0x40 SHL SUB SWAP3 SWAP1 SWAP3 AND SWAP2 SWAP1 SWAP2 OR SWAP1 SSTORE PUSH2 0x13EC PUSH2 0x1841 JUMP JUMPDEST PUSH2 0xA41 PUSH2 0x17FF JUMP JUMPDEST PUSH2 0x13FC PUSH2 0x176C JUMP JUMPDEST PUSH1 0x6 SLOAD PUSH1 0x9 SLOAD PUSH1 0x40 MLOAD PUSH4 0x53DF6E35 PUSH1 0xE0 SHL DUP2 MSTORE PUSH1 0x1 PUSH1 0x1 PUSH1 0xA0 SHL SUB SWAP1 SWAP3 AND SWAP2 PUSH4 0x53DF6E35 SWAP2 PUSH2 0x1449 SWAP2 DUP6 SWAP2 PUSH1 0x1 PUSH1 0x40 SHL SWAP1 DIV PUSH1 0x1 PUSH1 0x1 PUSH1 0x40 SHL SUB AND SWAP1 PUSH7 0x3632C8EB5AF3B SWAP1 PUSH1 0x4 ADD PUSH2 0x214D JUMP JUMPDEST PUSH1 0x20 PUSH1 0x40 MLOAD DUP1 DUP4 SUB DUP2 PUSH0 DUP8 GAS CALL ISZERO DUP1 ISZERO PUSH2 0x1465 JUMPI RETURNDATASIZE PUSH0 PUSH0 RETURNDATACOPY RETURNDATASIZE PUSH0 REVERT JUMPDEST POP POP POP POP PUSH1 0x40 MLOAD RETURNDATASIZE PUSH1 0x1F NOT PUSH1 0x1F DUP3 ADD AND DUP3 ADD DUP1 PUSH1 0x40 MSTORE POP DUP2 ADD SWAP1 PUSH2 0x1489 SWAP2 SWAP1 PUSH2 0x2170 JUMP JUMPDEST PUSH1 0xA DUP1 SLOAD PUSH8 0xFFFFFFFFFFFFFFFF NOT AND PUSH1 0x1 PUSH1 0x1 PUSH1 0x40 SHL SUB SWAP3 SWAP1 SWAP3 AND SWAP2 SWAP1 SWAP2 OR SWAP1 SSTORE PUSH2 0xA41 PUSH2 0x17FF JUMP JUMPDEST PUSH1 0x1 PUSH1 0x1 PUSH1 0xA0 SHL SUB SWAP2 DUP3 AND PUSH0 SWAP1 DUP2 MSTORE PUSH1 0x2 PUSH1 0x20 SWAP1 DUP2 MSTORE PUSH1 0x40 DUP1 DUP4 KECCAK256 SWAP4 SWAP1 SWAP5 AND DUP3 MSTORE SWAP2 SWAP1 SWAP2 MSTORE KECCAK256 SLOAD SWAP1 JUMP JUMPDEST PUSH1 0x6 SLOAD PUSH1 0x9 SLOAD PUSH1 0x40 MLOAD PUSH4 0x53DF6E35 PUSH1 0xE0 SHL DUP2 MSTORE PUSH0 SWAP3 DUP4 SWAP3 DUP4 SWAP3 PUSH1 0x1 PUSH1 0x1 PUSH1 0xA0 SHL SUB SWAP1 SWAP3 AND SWAP2 PUSH4 0x53DF6E35 SWAP2 PUSH2 0x1528 SWAP2 DUP10 SWAP2 PUSH1 0x1 PUSH1 0xC0 SHL SWAP1 DIV PUSH1 0x1 PUSH1 0x1 PUSH1 0x40 SHL SUB AND SWAP1 DUP10 SWAP1 PUSH1 0x4 ADD PUSH2 0x214D JUMP JUMPDEST PUSH1 0x20 PUSH1 0x40 MLOAD DUP1 DUP4 SUB DUP2 PUSH0 DUP8 GAS CALL ISZERO DUP1 ISZERO PUSH2 0x1544 JUMPI RETURNDATASIZE PUSH0 PUSH0 RETURNDATACOPY RETURNDATASIZE PUSH0 REVERT JUMPDEST POP POP POP POP PUSH1 0x40 MLOAD RETURNDATASIZE PUSH1 0x1F NOT PUSH1 0x1F DUP3 ADD AND DUP3 ADD DUP1 PUSH1 0x40 MSTORE POP DUP2 ADD SWAP1 PUSH2 0x1568 SWAP2 SWAP1 PUSH2 0x2170 JUMP JUMPDEST PUSH1 0x6 SLOAD PUSH1 0x9 SLOAD PUSH1 0x40 MLOAD PUSH4 0x53DF6E35 PUSH1 0xE0 SHL DUP2 MSTORE SWAP3 SWAP4 POP PUSH0 SWAP3 PUSH1 0x1 PUSH1 0x1 PUSH1 0xA0 SHL SUB SWAP1 SWAP3 AND SWAP2 PUSH4 0x53DF6E35 SWAP2 PUSH2 0x15B4 SWAP2 DUP11 SWAP2 DUP11 SWAP2 PUSH1 0x1 PUSH1 0xC0 SHL SWAP1 SWAP2 DIV PUSH1 0x1 PUSH1 0x1 PUSH1 0x40 SHL SUB AND SWAP1 PUSH1 0x4 ADD PUSH2 0x214D JUMP JUMPDEST PUSH1 0x20 PUSH1 0x40 MLOAD DUP1 DUP4 SUB DUP2 PUSH0 DUP8 GAS CALL ISZERO DUP1 ISZERO PUSH2 0x15D0 JUMPI RETURNDATASIZE PUSH0 PUSH0 RETURNDATACOPY RETURNDATASIZE PUSH0 REVERT JUMPDEST POP POP POP POP PUSH1 0x40 MLOAD RETURNDATASIZE PUSH1 0x1F NOT PUSH1 0x1F DUP3 ADD AND DUP3 ADD DUP1 PUSH1 0x40 MSTORE POP DUP2 ADD SWAP1 PUSH2 0x15F4 SWAP2 SWAP1 PUSH2 0x2170 JUMP JUMPDEST SWAP1 POP PUSH1 0x1 PUSH1 0x1 PUSH1 0x40 SHL SUB DUP3 AND ISZERO DUP1 PUSH2 0x1613 JUMPI POP PUSH1 0x1 PUSH1 0x1 PUSH1 0x40 SHL SUB DUP2 AND ISZERO JUMPDEST ISZERO PUSH2 0x1644 JUMPI PUSH1 0x40 MLOAD PUSH4 0xB5067C27 PUSH1 0xE0 SHL DUP2 MSTORE PUSH1 0x1 PUSH1 0x1 PUSH1 0x40 SHL SUB DUP1 DUP5 AND PUSH1 0x4 DUP4 ADD MSTORE DUP3 AND PUSH1 0x24 DUP3 ADD MSTORE PUSH1 0x44 ADD PUSH2 0x690 JUMP JUMPDEST PUSH2 0x164C PUSH2 0x17FF JUMP JUMPDEST SWAP1 SWAP6 SWAP1 SWAP5 POP SWAP3 POP POP POP JUMP JUMPDEST PUSH2 0x165F PUSH2 0x176C JUMP JUMPDEST PUSH2 0x10A3 PUSH2 0x17FF JUMP JUMPDEST PUSH0 PUSH2 0x1670 PUSH2 0x17FF JUMP JUMPDEST PUSH1 0x6 SLOAD PUSH1 0x9 SLOAD PUSH1 0xB SLOAD PUSH1 0x40 MLOAD PUSH4 0x53DF6E35 PUSH1 0xE0 SHL DUP2 MSTORE PUSH1 0x1 PUSH1 0x1 PUSH1 0xA0 SHL SUB SWAP1 SWAP4 AND SWAP3 PUSH4 0x53DF6E35 SWAP3 PUSH2 0x16BD SWAP3 DUP8 SWAP3 PUSH1 0x1 PUSH1 0x80 SHL SWAP1 SWAP3 DIV PUSH1 0x1 PUSH1 0x1 PUSH1 0x40 SHL SUB SWAP1 DUP2 AND SWAP3 SWAP2 AND SWAP1 PUSH1 0x4 ADD PUSH2 0x214D JUMP JUMPDEST PUSH1 0x20 PUSH1 0x40 MLOAD DUP1 DUP4 SUB DUP2 PUSH0 DUP8 GAS CALL ISZERO DUP1 ISZERO PUSH2 0x16D9 JUMPI RETURNDATASIZE PUSH0 PUSH0 RETURNDATACOPY RETURNDATASIZE PUSH0 REVERT JUMPDEST POP POP POP POP PUSH1 0x40 MLOAD RETURNDATASIZE PUSH1 0x1F NOT PUSH1 0x1F DUP3 ADD AND DUP3 ADD DUP1 PUSH1 0x40 MSTORE POP DUP2 ADD SWAP1 PUSH2 0x651 SWAP2 SWAP1 PUSH2 0x2170 JUMP JUMPDEST PUSH2 0x12EC DUP4 DUP4 DUP4 PUSH1 0x1 PUSH2 0x18FF JUMP JUMPDEST PUSH0 PUSH2 0x1715 DUP5 DUP5 PUSH2 0x14B2 JUMP JUMPDEST SWAP1 POP PUSH0 NOT DUP2 EQ PUSH2 0x175B JUMPI DUP2 DUP2 LT ISZERO PUSH2 0x174D JUMPI ORIGIN CALLER DUP6 DUP6 ADDRESS DUP6 DUP8 PUSH1 0x40 MLOAD PUSH3 0xB83D19 PUSH1 0xE2 SHL DUP2 MSTORE PUSH1 0x4 ADD PUSH2 0x690 SWAP8 SWAP7 SWAP6 SWAP5 SWAP4 SWAP3 SWAP2 SWAP1 PUSH2 0x22D2 JUMP JUMPDEST PUSH2 0x175B DUP5 DUP5 DUP5 DUP5 SUB PUSH0 PUSH2 0x18FF JUMP JUMPDEST POP POP POP POP JUMP JUMPDEST PUSH2 0x12EC DUP4 DUP4 DUP4 PUSH2 0x197F JUMP JUMPDEST PUSH2 0x1775 CALLER PUSH2 0x10A5 JUMP JUMPDEST ISZERO DUP1 ISZERO PUSH2 0x1788 JUMPI POP PUSH2 0x1786 ORIGIN PUSH2 0x10A5 JUMP JUMPDEST ISZERO JUMPDEST ISZERO PUSH2 0x10A3 JUMPI ORIGIN CALLER ADDRESS PUSH1 0x40 MLOAD PUSH4 0xBE6BAB5 PUSH1 0xE0 SHL DUP2 MSTORE PUSH1 0x4 ADD PUSH2 0x690 SWAP4 SWAP3 SWAP2 SWAP1 PUSH2 0x21AA JUMP JUMPDEST PUSH1 0x1 PUSH1 0x1 PUSH1 0xA0 SHL SUB DUP3 AND PUSH0 DUP2 DUP2 MSTORE PUSH1 0x20 DUP2 SWAP1 MSTORE PUSH1 0x40 DUP1 DUP3 KECCAK256 DUP1 SLOAD PUSH1 0xFF NOT AND DUP6 ISZERO ISZERO SWAP1 DUP2 OR SWAP1 SWAP2 SSTORE SWAP1 MLOAD SWAP1 SWAP3 SWAP2 PUSH32 0x6BFA7E860C3E9BF67B810CB88276B19B27C972812BAC04793D369B59A1183A83 SWAP2 LOG3 POP POP JUMP JUMPDEST PUSH2 0x180B PUSH1 0x12 PUSH1 0xA PUSH2 0x2022 JUMP JUMPDEST PUSH1 0x7 SLOAD PUSH2 0x1818 SWAP2 SWAP1 PUSH2 0x2030 JUMP JUMPDEST PUSH1 0x3 SLOAD LT ISZERO PUSH2 0x10A3 JUMPI PUSH2 0x10A3 ADDRESS PUSH2 0x1831 PUSH1 0x12 PUSH1 0xA PUSH2 0x2022 JUMP JUMPDEST PUSH2 0x183C SWAP1 PUSH1 0x1 PUSH2 0x2030 JUMP JUMPDEST PUSH2 0x1A9A JUMP JUMPDEST PUSH1 0x6 SLOAD PUSH1 0x9 SLOAD PUSH1 0x40 MLOAD PUSH4 0x53DF6E35 PUSH1 0xE0 SHL DUP2 MSTORE PUSH1 0x1 PUSH1 0x1 PUSH1 0xA0 SHL SUB SWAP1 SWAP3 AND SWAP2 PUSH4 0x53DF6E35 SWAP2 PUSH2 0x1890 SWAP2 PUSH1 0x1 PUSH1 0x1 PUSH1 0x40 SHL SUB DUP1 DUP4 AND SWAP3 PUSH1 0x1 PUSH1 0x80 SHL SWAP1 DIV AND SWAP1 PUSH7 0x3632C8EB5AF3B SWAP1 PUSH1 0x4 ADD PUSH2 0x214D JUMP JUMPDEST PUSH1 0x20 PUSH1 0x40 MLOAD DUP1 DUP4 SUB DUP2 PUSH0 DUP8 GAS CALL ISZERO DUP1 ISZERO PUSH2 0x18AC JUMPI RETURNDATASIZE PUSH0 PUSH0 RETURNDATACOPY RETURNDATASIZE PUSH0 REVERT JUMPDEST POP POP POP POP PUSH1 0x40 MLOAD RETURNDATASIZE PUSH1 0x1F NOT PUSH1 0x1F DUP3 ADD AND DUP3 ADD DUP1 PUSH1 0x40 MSTORE POP DUP2 ADD SWAP1 PUSH2 0x18D0 SWAP2 SWAP1 PUSH2 0x2170 JUMP JUMPDEST PUSH1 0x9 DUP1 SLOAD PUSH1 0x1 PUSH1 0x1 PUSH1 0x40 SHL SUB SWAP3 SWAP1 SWAP3 AND PUSH1 0x1 PUSH1 0xC0 SHL MUL PUSH1 0x1 PUSH1 0x1 PUSH1 0xC0 SHL SUB SWAP1 SWAP3 AND SWAP2 SWAP1 SWAP2 OR SWAP1 SSTORE PUSH2 0x10A3 PUSH2 0x17FF JUMP JUMPDEST PUSH1 0x1 PUSH1 0x1 PUSH1 0xA0 SHL SUB DUP1 DUP6 AND PUSH0 SWAP1 DUP2 MSTORE PUSH1 0x2 PUSH1 0x20 SWAP1 DUP2 MSTORE PUSH1 0x40 DUP1 DUP4 KECCAK256 SWAP4 DUP8 AND DUP4 MSTORE SWAP3 SWAP1 MSTORE KECCAK256 DUP3 SWAP1 SSTORE DUP1 ISZERO PUSH2 0x175B JUMPI DUP3 PUSH1 0x1 PUSH1 0x1 PUSH1 0xA0 SHL SUB AND DUP5 PUSH1 0x1 PUSH1 0x1 PUSH1 0xA0 SHL SUB AND PUSH32 0x8C5BE1E5EBEC7D5BD14F71427D1E84F3DD0314C0F7B2291E5B200AC8C7C3B925 DUP5 PUSH1 0x40 MLOAD PUSH2 0x1971 SWAP2 DUP2 MSTORE PUSH1 0x20 ADD SWAP1 JUMP JUMPDEST PUSH1 0x40 MLOAD DUP1 SWAP2 SUB SWAP1 LOG3 POP POP POP POP JUMP JUMPDEST PUSH1 0x1 PUSH1 0x1 PUSH1 0xA0 SHL SUB DUP4 AND PUSH2 0x19A9 JUMPI DUP1 PUSH1 0x3 PUSH0 DUP3 DUP3 SLOAD PUSH2 0x199E SWAP2 SWAP1 PUSH2 0x2315 JUMP JUMPDEST SWAP1 SWAP2 SSTORE POP PUSH2 0x1A0E SWAP1 POP JUMP JUMPDEST PUSH1 0x1 PUSH1 0x1 PUSH1 0xA0 SHL SUB DUP4 AND PUSH0 SWAP1 DUP2 MSTORE PUSH1 0x1 PUSH1 0x20 MSTORE PUSH1 0x40 SWAP1 KECCAK256 SLOAD DUP2 DUP2 LT ISZERO PUSH2 0x19F0 JUMPI ORIGIN CALLER DUP6 DUP6 ADDRESS DUP6 DUP8 PUSH1 0x40 MLOAD PUSH4 0xF7D0BBD PUSH1 0xE2 SHL DUP2 MSTORE PUSH1 0x4 ADD PUSH2 0x690 SWAP8 SWAP7 SWAP6 SWAP5 SWAP4 SWAP3 SWAP2 SWAP1 PUSH2 0x22D2 JUMP JUMPDEST PUSH1 0x1 PUSH1 0x1 PUSH1 0xA0 SHL SUB DUP5 AND PUSH0 SWAP1 DUP2 MSTORE PUSH1 0x1 PUSH1 0x20 MSTORE PUSH1 0x40 SWAP1 KECCAK256 SWAP1 DUP3 SWAP1 SUB SWAP1 SSTORE JUMPDEST PUSH1 0x1 PUSH1 0x1 PUSH1 0xA0 SHL SUB DUP3 AND PUSH2 0x1A2A JUMPI PUSH1 0x3 DUP1 SLOAD DUP3 SWAP1 SUB SWAP1 SSTORE PUSH2 0x1A48 JUMP JUMPDEST PUSH1 0x1 PUSH1 0x1 PUSH1 0xA0 SHL SUB DUP3 AND PUSH0 SWAP1 DUP2 MSTORE PUSH1 0x1 PUSH1 0x20 MSTORE PUSH1 0x40 SWAP1 KECCAK256 DUP1 SLOAD DUP3 ADD SWAP1 SSTORE JUMPDEST DUP2 PUSH1 0x1 PUSH1 0x1 PUSH1 0xA0 SHL SUB AND DUP4 PUSH1 0x1 PUSH1 0x1 PUSH1 0xA0 SHL SUB AND PUSH32 0xDDF252AD1BE2C89B69C2B068FC378DAA952BA7F163C4A11628F55A4DF523B3EF DUP4 PUSH1 0x40 MLOAD PUSH2 0x1A8D SWAP2 DUP2 MSTORE PUSH1 0x20 ADD SWAP1 JUMP JUMPDEST PUSH1 0x40 MLOAD DUP1 SWAP2 SUB SWAP1 LOG3 POP POP POP JUMP JUMPDEST PUSH2 0x1AA5 PUSH0 DUP4 DUP4 PUSH2 0x197F JUMP JUMPDEST POP POP JUMP JUMPDEST PUSH1 0x20 DUP2 MSTORE PUSH0 DUP3 MLOAD DUP1 PUSH1 0x20 DUP5 ADD MSTORE DUP1 PUSH1 0x20 DUP6 ADD PUSH1 0x40 DUP6 ADD MCOPY PUSH0 PUSH1 0x40 DUP3 DUP6 ADD ADD MSTORE PUSH1 0x40 PUSH1 0x1F NOT PUSH1 0x1F DUP4 ADD AND DUP5 ADD ADD SWAP2 POP POP SWAP3 SWAP2 POP POP JUMP JUMPDEST DUP1 CALLDATALOAD PUSH1 0x1 PUSH1 0x1 PUSH1 0xA0 SHL SUB DUP2 AND DUP2 EQ PUSH2 0x1AF4 JUMPI PUSH0 PUSH0 REVERT JUMPDEST SWAP2 SWAP1 POP JUMP JUMPDEST PUSH0 PUSH0 PUSH1 0x40 DUP4 DUP6 SUB SLT ISZERO PUSH2 0x1B0A JUMPI PUSH0 PUSH0 REVERT JUMPDEST PUSH2 0x1B13 DUP4 PUSH2 0x1ADE JUMP JUMPDEST SWAP5 PUSH1 0x20 SWAP4 SWAP1 SWAP4 ADD CALLDATALOAD SWAP4 POP POP POP JUMP JUMPDEST DUP2 MLOAD PUSH1 0x1 PUSH1 0x1 PUSH1 0x40 SHL SUB AND DUP2 MSTORE PUSH2 0x1A0 DUP2 ADD PUSH1 0x20 DUP4 ADD MLOAD PUSH2 0x1B4D PUSH1 0x20 DUP5 ADD DUP3 PUSH1 0x1 PUSH1 0x1 PUSH1 0x40 SHL SUB AND SWAP1 MSTORE JUMP JUMPDEST POP PUSH1 0x40 DUP4 ADD MLOAD PUSH2 0x1B68 PUSH1 0x40 DUP5 ADD DUP3 PUSH1 0x1 PUSH1 0x1 PUSH1 0x40 SHL SUB AND SWAP1 MSTORE JUMP JUMPDEST POP PUSH1 0x60 DUP4 ADD MLOAD PUSH2 0x1B83 PUSH1 0x60 DUP5 ADD DUP3 PUSH1 0x1 PUSH1 0x1 PUSH1 0x40 SHL SUB AND SWAP1 MSTORE JUMP JUMPDEST POP PUSH1 0x80 DUP4 ADD MLOAD PUSH2 0x1B9E PUSH1 0x80 DUP5 ADD DUP3 PUSH1 0x1 PUSH1 0x1 PUSH1 0x40 SHL SUB AND SWAP1 MSTORE JUMP JUMPDEST POP PUSH1 0xA0 DUP4 ADD MLOAD PUSH2 0x1BB9 PUSH1 0xA0 DUP5 ADD DUP3 PUSH1 0x1 PUSH1 0x1 PUSH1 0x40 SHL SUB AND SWAP1 MSTORE JUMP JUMPDEST POP PUSH1 0xC0 DUP4 ADD MLOAD PUSH2 0x1BD4 PUSH1 0xC0 DUP5 ADD DUP3 PUSH1 0x1 PUSH1 0x1 PUSH1 0x40 SHL SUB AND SWAP1 MSTORE JUMP JUMPDEST POP PUSH1 0xE0 DUP4 ADD MLOAD PUSH2 0x1BEF PUSH1 0xE0 DUP5 ADD DUP3 PUSH1 0x1 PUSH1 0x1 PUSH1 0x40 SHL SUB AND SWAP1 MSTORE JUMP JUMPDEST POP PUSH2 0x100 DUP4 ADD MLOAD PUSH2 0x1C0C PUSH2 0x100 DUP5 ADD DUP3 PUSH1 0x1 PUSH1 0x1 PUSH1 0x40 SHL SUB AND SWAP1 MSTORE JUMP JUMPDEST POP PUSH2 0x120 DUP4 ADD MLOAD PUSH2 0x1C29 PUSH2 0x120 DUP5 ADD DUP3 PUSH1 0x1 PUSH1 0x1 PUSH1 0x40 SHL SUB AND SWAP1 MSTORE JUMP JUMPDEST POP PUSH2 0x140 DUP4 ADD MLOAD PUSH2 0x1C46 PUSH2 0x140 DUP5 ADD DUP3 PUSH1 0x1 PUSH1 0x1 PUSH1 0x40 SHL SUB AND SWAP1 MSTORE JUMP JUMPDEST POP PUSH2 0x160 DUP4 ADD MLOAD PUSH2 0x1C63 PUSH2 0x160 DUP5 ADD DUP3 PUSH1 0x1 PUSH1 0x1 PUSH1 0x40 SHL SUB AND SWAP1 MSTORE JUMP JUMPDEST POP PUSH2 0x180 DUP4 ADD MLOAD PUSH2 0x1C80 PUSH2 0x180 DUP5 ADD DUP3 PUSH1 0x1 PUSH1 0x1 PUSH1 0x40 SHL SUB AND SWAP1 MSTORE JUMP JUMPDEST POP SWAP3 SWAP2 POP POP JUMP JUMPDEST PUSH0 PUSH0 PUSH0 PUSH1 0x60 DUP5 DUP7 SUB SLT ISZERO PUSH2 0x1C99 JUMPI PUSH0 PUSH0 REVERT JUMPDEST PUSH2 0x1CA2 DUP5 PUSH2 0x1ADE JUMP JUMPDEST SWAP3 POP PUSH2 0x1CB0 PUSH1 0x20 DUP6 ADD PUSH2 0x1ADE JUMP JUMPDEST SWAP3 SWAP6 SWAP3 SWAP5 POP POP POP PUSH1 0x40 SWAP2 SWAP1 SWAP2 ADD CALLDATALOAD SWAP1 JUMP JUMPDEST PUSH0 PUSH1 0x20 DUP3 DUP5 SUB SLT ISZERO PUSH2 0x1CD1 JUMPI PUSH0 PUSH0 REVERT JUMPDEST PUSH2 0x1CDA DUP3 PUSH2 0x1ADE JUMP JUMPDEST SWAP4 SWAP3 POP POP POP JUMP JUMPDEST PUSH1 0x1 PUSH1 0x1 PUSH1 0x40 SHL SUB DUP2 AND DUP2 EQ PUSH2 0xA41 JUMPI PUSH0 PUSH0 REVERT JUMPDEST PUSH0 PUSH0 PUSH0 PUSH1 0x60 DUP5 DUP7 SUB SLT ISZERO PUSH2 0x1D07 JUMPI PUSH0 PUSH0 REVERT JUMPDEST DUP4 CALLDATALOAD PUSH2 0x1D12 DUP2 PUSH2 0x1CE1 JUMP JUMPDEST SWAP3 POP PUSH1 0x20 DUP5 ADD CALLDATALOAD PUSH2 0x1D22 DUP2 PUSH2 0x1CE1 JUMP JUMPDEST SWAP2 POP PUSH1 0x40 DUP5 ADD CALLDATALOAD PUSH2 0x1D32 DUP2 PUSH2 0x1CE1 JUMP JUMPDEST DUP1 SWAP2 POP POP SWAP3 POP SWAP3 POP SWAP3 JUMP JUMPDEST PUSH0 PUSH1 0x20 DUP3 DUP5 SUB SLT ISZERO PUSH2 0x1D4D JUMPI PUSH0 PUSH0 REVERT JUMPDEST DUP2 CALLDATALOAD PUSH2 0x1CDA DUP2 PUSH2 0x1CE1 JUMP JUMPDEST PUSH1 0x1 PUSH1 0x1 PUSH1 0xA0 SHL SUB SWAP2 SWAP1 SWAP2 AND DUP2 MSTORE PUSH1 0x20 ADD SWAP1 JUMP JUMPDEST PUSH4 0x4E487B71 PUSH1 0xE0 SHL PUSH0 MSTORE PUSH1 0x41 PUSH1 0x4 MSTORE PUSH1 0x24 PUSH0 REVERT JUMPDEST PUSH1 0x40 MLOAD PUSH1 0x1F DUP3 ADD PUSH1 0x1F NOT AND DUP2 ADD PUSH1 0x1 PUSH1 0x1 PUSH1 0x40 SHL SUB DUP2 GT DUP3 DUP3 LT OR ISZERO PUSH2 0x1DA8 JUMPI PUSH2 0x1DA8 PUSH2 0x1D6C JUMP JUMPDEST PUSH1 0x40 MSTORE SWAP2 SWAP1 POP JUMP JUMPDEST PUSH0 PUSH1 0x1 PUSH1 0x1 PUSH1 0x40 SHL SUB DUP3 GT ISZERO PUSH2 0x1DC8 JUMPI PUSH2 0x1DC8 PUSH2 0x1D6C JUMP JUMPDEST POP PUSH1 0x1F ADD PUSH1 0x1F NOT AND PUSH1 0x20 ADD SWAP1 JUMP JUMPDEST PUSH0 DUP3 PUSH1 0x1F DUP4 ADD SLT PUSH2 0x1DE5 JUMPI PUSH0 PUSH0 REVERT JUMPDEST DUP2 CALLDATALOAD PUSH2 0x1DF8 PUSH2 0x1DF3 DUP3 PUSH2 0x1DB0 JUMP JUMPDEST PUSH2 0x1D80 JUMP JUMPDEST DUP2 DUP2 MSTORE DUP5 PUSH1 0x20 DUP4 DUP7 ADD ADD GT ISZERO PUSH2 0x1E0C JUMPI PUSH0 PUSH0 REVERT JUMPDEST DUP2 PUSH1 0x20 DUP6 ADD PUSH1 0x20 DUP4 ADD CALLDATACOPY PUSH0 SWAP2 DUP2 ADD PUSH1 0x20 ADD SWAP2 SWAP1 SWAP2 MSTORE SWAP4 SWAP3 POP POP POP JUMP JUMPDEST PUSH0 PUSH0 PUSH1 0x40 DUP4 DUP6 SUB SLT ISZERO PUSH2 0x1E39 JUMPI PUSH0 PUSH0 REVERT JUMPDEST DUP3 CALLDATALOAD PUSH1 0x1 PUSH1 0x1 PUSH1 0x40 SHL SUB DUP2 GT ISZERO PUSH2 0x1E4E JUMPI PUSH0 PUSH0 REVERT JUMPDEST PUSH2 0x1E5A DUP6 DUP3 DUP7 ADD PUSH2 0x1DD6 JUMP JUMPDEST SWAP3 POP POP PUSH1 0x20 DUP4 ADD CALLDATALOAD PUSH1 0x1 PUSH1 0x1 PUSH1 0x40 SHL SUB DUP2 GT ISZERO PUSH2 0x1E75 JUMPI PUSH0 PUSH0 REVERT JUMPDEST PUSH2 0x1E81 DUP6 DUP3 DUP7 ADD PUSH2 0x1DD6 JUMP JUMPDEST SWAP2 POP POP SWAP3 POP SWAP3 SWAP1 POP JUMP JUMPDEST PUSH0 PUSH0 PUSH1 0x40 DUP4 DUP6 SUB SLT ISZERO PUSH2 0x1E9C JUMPI PUSH0 PUSH0 REVERT JUMPDEST PUSH2 0x1EA5 DUP4 PUSH2 0x1ADE JUMP JUMPDEST SWAP2 POP PUSH2 0x1EB3 PUSH1 0x20 DUP5 ADD PUSH2 0x1ADE JUMP JUMPDEST SWAP1 POP SWAP3 POP SWAP3 SWAP1 POP JUMP JUMPDEST PUSH0 PUSH0 PUSH1 0x40 DUP4 DUP6 SUB SLT ISZERO PUSH2 0x1ECD JUMPI PUSH0 PUSH0 REVERT JUMPDEST DUP3 CALLDATALOAD PUSH2 0x1ED8 DUP2 PUSH2 0x1CE1 JUMP JUMPDEST SWAP2 POP PUSH1 0x20 DUP4 ADD CALLDATALOAD PUSH2 0x1EE8 DUP2 PUSH2 0x1CE1 JUMP JUMPDEST DUP1 SWAP2 POP POP SWAP3 POP SWAP3 SWAP1 POP JUMP JUMPDEST PUSH1 0x1 DUP2 DUP2 SHR SWAP1 DUP3 AND DUP1 PUSH2 0x1F07 JUMPI PUSH1 0x7F DUP3 AND SWAP2 POP JUMPDEST PUSH1 0x20 DUP3 LT DUP2 SUB PUSH2 0x1F25 JUMPI PUSH4 0x4E487B71 PUSH1 0xE0 SHL PUSH0 MSTORE PUSH1 0x22 PUSH1 0x4 MSTORE PUSH1 0x24 PUSH0 REVERT JUMPDEST POP SWAP2 SWAP1 POP JUMP JUMPDEST PUSH4 0x4E487B71 PUSH1 0xE0 SHL PUSH0 MSTORE PUSH1 0x11 PUSH1 0x4 MSTORE PUSH1 0x24 PUSH0 REVERT JUMPDEST PUSH1 0x1 DUP2 JUMPDEST PUSH1 0x1 DUP5 GT ISZERO PUSH2 0x1F7A JUMPI DUP1 DUP6 DIV DUP2 GT ISZERO PUSH2 0x1F5E JUMPI PUSH2 0x1F5E PUSH2 0x1F2B JUMP JUMPDEST PUSH1 0x1 DUP5 AND ISZERO PUSH2 0x1F6C JUMPI SWAP1 DUP2 MUL SWAP1 JUMPDEST PUSH1 0x1 SWAP4 SWAP1 SWAP4 SHR SWAP3 DUP1 MUL PUSH2 0x1F43 JUMP JUMPDEST SWAP4 POP SWAP4 SWAP2 POP POP JUMP JUMPDEST PUSH0 DUP3 PUSH2 0x1F90 JUMPI POP PUSH1 0x1 PUSH2 0x651 JUMP JUMPDEST DUP2 PUSH2 0x1F9C JUMPI POP PUSH0 PUSH2 0x651 JUMP JUMPDEST DUP2 PUSH1 0x1 DUP2 EQ PUSH2 0x1FB2 JUMPI PUSH1 0x2 DUP2 EQ PUSH2 0x1FBC JUMPI PUSH2 0x1FD8 JUMP JUMPDEST PUSH1 0x1 SWAP2 POP POP PUSH2 0x651 JUMP JUMPDEST PUSH1 0xFF DUP5 GT ISZERO PUSH2 0x1FCD JUMPI PUSH2 0x1FCD PUSH2 0x1F2B JUMP JUMPDEST POP POP PUSH1 0x1 DUP3 SHL PUSH2 0x651 JUMP JUMPDEST POP PUSH1 0x20 DUP4 LT PUSH2 0x133 DUP4 LT AND PUSH1 0x4E DUP5 LT PUSH1 0xB DUP5 LT AND OR ISZERO PUSH2 0x1FFB JUMPI POP DUP2 DUP2 EXP PUSH2 0x651 JUMP JUMPDEST PUSH2 0x2007 PUSH0 NOT DUP5 DUP5 PUSH2 0x1F3F JUMP JUMPDEST DUP1 PUSH0 NOT DIV DUP3 GT ISZERO PUSH2 0x201A JUMPI PUSH2 0x201A PUSH2 0x1F2B JUMP JUMPDEST MUL SWAP4 SWAP3 POP POP POP JUMP JUMPDEST PUSH0 PUSH2 0x1CDA PUSH1 0xFF DUP5 AND DUP4 PUSH2 0x1F82 JUMP JUMPDEST DUP1 DUP3 MUL DUP2 ISZERO DUP3 DUP3 DIV DUP5 EQ OR PUSH2 0x651 JUMPI PUSH2 0x651 PUSH2 0x1F2B JUMP JUMPDEST PUSH0 DUP3 PUSH2 0x2061 JUMPI PUSH4 0x4E487B71 PUSH1 0xE0 SHL PUSH0 MSTORE PUSH1 0x12 PUSH1 0x4 MSTORE PUSH1 0x24 PUSH0 REVERT JUMPDEST POP DIV SWAP1 JUMP JUMPDEST PUSH1 0x1 PUSH1 0x1 PUSH1 0xA0 SHL SUB SWAP4 DUP5 AND DUP2 MSTORE SWAP2 SWAP1 SWAP3 AND PUSH1 0x20 DUP3 ADD MSTORE PUSH1 0x40 DUP2 ADD SWAP2 SWAP1 SWAP2 MSTORE PUSH1 0x60 ADD SWAP1 JUMP JUMPDEST PUSH0 PUSH1 0x20 DUP3 DUP5 SUB SLT ISZERO PUSH2 0x209A JUMPI PUSH0 PUSH0 REVERT JUMPDEST DUP2 MLOAD DUP1 ISZERO ISZERO DUP2 EQ PUSH2 0x1CDA JUMPI PUSH0 PUSH0 REVERT JUMPDEST PUSH0 PUSH1 0x20 DUP3 DUP5 SUB SLT ISZERO PUSH2 0x20B9 JUMPI PUSH0 PUSH0 REVERT JUMPDEST DUP2 MLOAD PUSH1 0x1 PUSH1 0x1 PUSH1 0x40 SHL SUB DUP2 GT ISZERO PUSH2 0x20CE JUMPI PUSH0 PUSH0 REVERT JUMPDEST DUP3 ADD PUSH1 0x1F DUP2 ADD DUP5 SGT PUSH2 0x20DE JUMPI PUSH0 PUSH0 REVERT JUMPDEST DUP1 MLOAD PUSH2 0x20EC PUSH2 0x1DF3 DUP3 PUSH2 0x1DB0 JUMP JUMPDEST DUP2 DUP2 MSTORE DUP6 PUSH1 0x20 DUP4 DUP6 ADD ADD GT ISZERO PUSH2 0x2100 JUMPI PUSH0 PUSH0 REVERT JUMPDEST DUP2 PUSH1 0x20 DUP5 ADD PUSH1 0x20 DUP4 ADD MCOPY PUSH0 SWAP2 DUP2 ADD PUSH1 0x20 ADD SWAP2 SWAP1 SWAP2 MSTORE SWAP5 SWAP4 POP POP POP POP JUMP JUMPDEST PUSH14 0x2732B2B21020B8383937BB32B21 PUSH1 0x95 SHL DUP2 MSTORE PUSH0 DUP3 MLOAD DUP1 PUSH1 0x20 DUP6 ADD PUSH1 0xE DUP6 ADD MCOPY PUSH0 SWAP3 ADD PUSH1 0xE ADD SWAP2 DUP3 MSTORE POP SWAP2 SWAP1 POP JUMP JUMPDEST PUSH1 0x1 PUSH1 0x1 PUSH1 0x40 SHL SUB SWAP4 DUP5 AND DUP2 MSTORE SWAP2 DUP4 AND PUSH1 0x20 DUP4 ADD MSTORE SWAP1 SWAP2 AND PUSH1 0x40 DUP3 ADD MSTORE PUSH1 0x60 ADD SWAP1 JUMP JUMPDEST PUSH0 PUSH1 0x20 DUP3 DUP5 SUB SLT ISZERO PUSH2 0x2180 JUMPI PUSH0 PUSH0 REVERT JUMPDEST DUP2 MLOAD PUSH2 0x1CDA DUP2 PUSH2 0x1CE1 JUMP JUMPDEST PUSH1 0x1 PUSH1 0x1 PUSH1 0x40 SHL SUB DUP2 DUP2 AND DUP4 DUP3 AND ADD SWAP1 DUP2 GT ISZERO PUSH2 0x651 JUMPI PUSH2 0x651 PUSH2 0x1F2B JUMP JUMPDEST PUSH1 0x1 PUSH1 0x1 PUSH1 0xA0 SHL SUB SWAP4 DUP5 AND DUP2 MSTORE SWAP2 DUP4 AND PUSH1 0x20 DUP4 ADD MSTORE SWAP1 SWAP2 AND PUSH1 0x40 DUP3 ADD MSTORE PUSH1 0x60 ADD SWAP1 JUMP JUMPDEST PUSH1 0x1F DUP3 GT ISZERO PUSH2 0x12EC JUMPI DUP1 PUSH0 MSTORE PUSH1 0x20 PUSH0 KECCAK256 PUSH1 0x1F DUP5 ADD PUSH1 0x5 SHR DUP2 ADD PUSH1 0x20 DUP6 LT ISZERO PUSH2 0x21F2 JUMPI POP DUP1 JUMPDEST PUSH1 0x1F DUP5 ADD PUSH1 0x5 SHR DUP3 ADD SWAP2 POP JUMPDEST DUP2 DUP2 LT ISZERO PUSH2 0x2211 JUMPI PUSH0 DUP2 SSTORE PUSH1 0x1 ADD PUSH2 0x21FE JUMP JUMPDEST POP POP POP POP POP JUMP JUMPDEST DUP2 MLOAD PUSH1 0x1 PUSH1 0x1 PUSH1 0x40 SHL SUB DUP2 GT ISZERO PUSH2 0x2231 JUMPI PUSH2 0x2231 PUSH2 0x1D6C JUMP JUMPDEST PUSH2 0x2245 DUP2 PUSH2 0x223F DUP5 SLOAD PUSH2 0x1EF3 JUMP JUMPDEST DUP5 PUSH2 0x21CD JUMP JUMPDEST PUSH1 0x20 PUSH1 0x1F DUP3 GT PUSH1 0x1 DUP2 EQ PUSH2 0x2277 JUMPI PUSH0 DUP4 ISZERO PUSH2 0x2260 JUMPI POP DUP5 DUP3 ADD MLOAD JUMPDEST PUSH0 NOT PUSH1 0x3 DUP6 SWAP1 SHL SHR NOT AND PUSH1 0x1 DUP5 SWAP1 SHL OR DUP5 SSTORE PUSH2 0x2211 JUMP JUMPDEST PUSH0 DUP5 DUP2 MSTORE PUSH1 0x20 DUP2 KECCAK256 PUSH1 0x1F NOT DUP6 AND SWAP2 JUMPDEST DUP3 DUP2 LT ISZERO PUSH2 0x22A6 JUMPI DUP8 DUP6 ADD MLOAD DUP3 SSTORE PUSH1 0x20 SWAP5 DUP6 ADD SWAP5 PUSH1 0x1 SWAP1 SWAP3 ADD SWAP2 ADD PUSH2 0x2286 JUMP JUMPDEST POP DUP5 DUP3 LT ISZERO PUSH2 0x22C3 JUMPI DUP7 DUP5 ADD MLOAD PUSH0 NOT PUSH1 0x3 DUP8 SWAP1 SHL PUSH1 0xF8 AND SHR NOT AND DUP2 SSTORE JUMPDEST POP POP POP POP PUSH1 0x1 SWAP1 DUP2 SHL ADD SWAP1 SSTORE POP JUMP JUMPDEST PUSH1 0x1 PUSH1 0x1 PUSH1 0xA0 SHL SUB SWAP8 DUP9 AND DUP2 MSTORE SWAP6 DUP8 AND PUSH1 0x20 DUP8 ADD MSTORE SWAP4 DUP7 AND PUSH1 0x40 DUP7 ADD MSTORE SWAP2 DUP6 AND PUSH1 0x60 DUP6 ADD MSTORE SWAP1 SWAP4 AND PUSH1 0x80 DUP4 ADD MSTORE PUSH1 0xA0 DUP3 ADD SWAP3 SWAP1 SWAP3 MSTORE PUSH1 0xC0 DUP2 ADD SWAP2 SWAP1 SWAP2 MSTORE PUSH1 0xE0 ADD SWAP1 JUMP JUMPDEST DUP1 DUP3 ADD DUP1 DUP3 GT ISZERO PUSH2 0x651 JUMPI PUSH2 0x651 PUSH2 0x1F2B JUMP INVALID LOG2 PUSH5 0x6970667358 0x22 SLT KECCAK256 CREATE DUP9 RETURNDATASIZE 0xB2 0xEA 0xDF 0xBE 0x28 BYTE DUP2 PUSH15 0x162F4E176CC71B1F95BBB9DE8344A2 0xE4 SDIV 0xEA 0xCA SWAP1 0xD6 PUSH5 0x736F6C6343 STOP ADDMOD SHL STOP CALLER "
		},
		"gasEstimates": {
			"creation": {
				"codeDepositCost": "1810800",
				"executionCost": "infinite",
				"totalCost": "infinite"
			},
			"external": {
				"Adduct(uint64)": "infinite",
				"Avail(uint64)": "infinite",
				"Bond()": "infinite",
				"Conify(uint64)": "infinite",
				"Conjugate(uint64)": "infinite",
				"Dynamo()": "2469",
				"Form(uint64)": "infinite",
				"Fuse(uint64,uint64,uint64)": "infinite",
				"GetMarketRate(address)": "2712",
				"MotzkinPrime()": "281",
				"Polarize()": "infinite",
				"Purchase(address,uint256)": "infinite",
				"React(uint64,uint64)": "infinite",
				"Redeem(address,uint256)": "infinite",
				"Rename(string,string)": "infinite",
				"Saturate(uint64,uint64,uint64)": "infinite",
				"Type()": "infinite",
				"View()": "10254",
				"Xiao()": "2515",
				"addOwner(address)": "infinite",
				"allowance(address,address)": "infinite",
				"approve(address,uint256)": "24687",
				"balanceOf(address)": "2733",
				"decimals()": "199",
				"maxSupply()": "2382",
				"mintToCap()": "infinite",
				"name()": "infinite",
				"owner()": "324",
				"owner(address)": "2694",
				"renounceOwnership(address)": "infinite",
				"symbol()": "infinite",
				"totalSupply()": "2370",
				"transfer(address,uint256)": "51313",
				"transferFrom(address,address,uint256)": "infinite"
			},
			"internal": {
				"Augment()": "infinite",
				"Seed()": "infinite",
				"Tune()": "infinite"
			}
		},
		"methodIdentifiers": {
			"Adduct(uint64)": "f6671de4",
			"Avail(uint64)": "c2bea95f",
			"Bond()": "46dd4401",
			"Conify(uint64)": "467e251f",
			"Conjugate(uint64)": "72d229fd",
			"Dynamo()": "9b3d54e4",
			"Form(uint64)": "b40619de",
			"Fuse(uint64,uint64,uint64)": "834e9480",
			"GetMarketRate(address)": "2b83b1fc",
			"MotzkinPrime()": "d3dc2a0f",
			"Polarize()": "7db9510e",
			"Purchase(address,uint256)": "2499a533",
			"React(uint64,uint64)": "f302d97f",
			"Redeem(address,uint256)": "222838db",
			"Rename(string,string)": "9dcbf7ea",
			"Saturate(uint64,uint64,uint64)": "3e9f6444",
			"Type()": "ff762044",
			"View()": "1686f265",
			"Xiao()": "6fb7329c",
			"addOwner(address)": "7065cb48",
			"allowance(address,address)": "dd62ed3e",
			"approve(address,uint256)": "095ea7b3",
			"balanceOf(address)": "70a08231",
			"decimals()": "313ce567",
			"maxSupply()": "d5abeb01",
			"mintToCap()": "f4e6c93f",
			"name()": "06fdde03",
			"owner()": "8da5cb5b",
			"owner(address)": "666e1b39",
			"renounceOwnership(address)": "38bf3cfa",
			"symbol()": "95d89b41",
			"totalSupply()": "18160ddd",
			"transfer(address,uint256)": "a9059cbb",
			"transferFrom(address,address,uint256)": "23b872dd"
		}
	},
	"abi": [
		{
			"inputs": [
				{
					"internalType": "string",
					"name": "name",
					"type": "string"
				},
				{
					"internalType": "string",
					"name": "symbol",
					"type": "string"
				},
				{
					"internalType": "address",
					"name": "MathLib",
					"type": "address"
				}
			],
			"stateMutability": "nonpayable",
			"type": "constructor"
		},
		{
			"inputs": [
				{
					"internalType": "address",
					"name": "origin",
					"type": "address"
				},
				{
					"internalType": "address",
					"name": "sender",
					"type": "address"
				},
				{
					"internalType": "address",
					"name": "owner",
					"type": "address"
				},
				{
					"internalType": "address",
					"name": "spender",
					"type": "address"
				},
				{
					"internalType": "address",
					"name": "what",
					"type": "address"
				},
				{
					"internalType": "uint256",
					"name": "allowance",
					"type": "uint256"
				},
				{
					"internalType": "uint256",
					"name": "needed",
					"type": "uint256"
				}
			],
			"name": "DysnomiaInsufficientAllowance",
			"type": "error"
		},
		{
			"inputs": [
				{
					"internalType": "address",
					"name": "origin",
					"type": "address"
				},
				{
					"internalType": "address",
					"name": "sender",
					"type": "address"
				},
				{
					"internalType": "address",
					"name": "from",
					"type": "address"
				},
				{
					"internalType": "address",
					"name": "to",
					"type": "address"
				},
				{
					"internalType": "address",
					"name": "what",
					"type": "address"
				},
				{
					"internalType": "uint256",
					"name": "balance",
					"type": "uint256"
				},
				{
					"internalType": "uint256",
					"name": "needed",
					"type": "uint256"
				}
			],
			"name": "DysnomiaInsufficientBalance",
			"type": "error"
		},
		{
			"inputs": [
				{
					"internalType": "address",
					"name": "asset",
					"type": "address"
				}
			],
			"name": "MarketRateNotFound",
			"type": "error"
		},
		{
			"inputs": [
				{
					"internalType": "address",
					"name": "origin",
					"type": "address"
				},
				{
					"internalType": "address",
					"name": "owner",
					"type": "address"
				},
				{
					"internalType": "address",
					"name": "what",
					"type": "address"
				}
			],
			"name": "OwnableInvalidOwner",
			"type": "error"
		},
		{
			"inputs": [
				{
					"internalType": "address",
					"name": "origin",
					"type": "address"
				},
				{
					"internalType": "address",
					"name": "account",
					"type": "address"
				},
				{
					"internalType": "address",
					"name": "what",
					"type": "address"
				}
			],
			"name": "OwnableUnauthorizedAccount",
			"type": "error"
		},
		{
			"inputs": [
				{
					"internalType": "uint64",
					"name": "Eta",
					"type": "uint64"
				},
				{
					"internalType": "uint64",
					"name": "Kappa",
					"type": "uint64"
				}
			],
			"name": "ReactionZeroError",
			"type": "error"
		},
		{
			"anonymous": false,
			"inputs": [
				{
					"indexed": true,
					"internalType": "address",
					"name": "owner",
					"type": "address"
				},
				{
					"indexed": true,
					"internalType": "address",
					"name": "spender",
					"type": "address"
				},
				{
					"indexed": false,
					"internalType": "uint256",
					"name": "value",
					"type": "uint256"
				}
			],
			"name": "Approval",
			"type": "event"
		},
		{
			"anonymous": false,
			"inputs": [
				{
					"indexed": true,
					"internalType": "address",
					"name": "newOwner",
					"type": "address"
				},
				{
					"indexed": true,
					"internalType": "bool",
					"name": "state",
					"type": "bool"
				}
			],
			"name": "OwnershipUpdate",
			"type": "event"
		},
		{
			"anonymous": false,
			"inputs": [
				{
					"indexed": true,
					"internalType": "address",
					"name": "from",
					"type": "address"
				},
				{
					"indexed": true,
					"internalType": "address",
					"name": "to",
					"type": "address"
				},
				{
					"indexed": false,
					"internalType": "uint256",
					"name": "value",
					"type": "uint256"
				}
			],
			"name": "Transfer",
			"type": "event"
		},
		{
			"inputs": [
				{
					"internalType": "uint64",
					"name": "_Phi",
					"type": "uint64"
				}
			],
			"name": "Adduct",
			"outputs": [
				{
					"internalType": "uint64",
					"name": "",
					"type": "uint64"
				}
			],
			"stateMutability": "nonpayable",
			"type": "function"
		},
		{
			"inputs": [
				{
					"internalType": "uint64",
					"name": "Xi",
					"type": "uint64"
				}
			],
			"name": "Avail",
			"outputs": [],
			"stateMutability": "nonpayable",
			"type": "function"
		},
		{
			"inputs": [],
			"name": "Bond",
			"outputs": [],
			"stateMutability": "nonpayable",
			"type": "function"
		},
		{
			"inputs": [
				{
					"internalType": "uint64",
					"name": "_Beta",
					"type": "uint64"
				}
			],
			"name": "Conify",
			"outputs": [],
			"stateMutability": "nonpayable",
			"type": "function"
		},
		{
			"inputs": [
				{
					"internalType": "uint64",
					"name": "Chi",
					"type": "uint64"
				}
			],
			"name": "Conjugate",
			"outputs": [],
			"stateMutability": "nonpayable",
			"type": "function"
		},
		{
			"inputs": [],
			"name": "Dynamo",
			"outputs": [
				{
					"internalType": "uint64",
					"name": "",
					"type": "uint64"
				}
			],
			"stateMutability": "view",
			"type": "function"
		},
		{
			"inputs": [
				{
					"internalType": "uint64",
					"name": "Chi",
					"type": "uint64"
				}
			],
			"name": "Form",
			"outputs": [],
			"stateMutability": "nonpayable",
			"type": "function"
		},
		{
			"inputs": [
				{
					"internalType": "uint64",
					"name": "_rho",
					"type": "uint64"
				},
				{
					"internalType": "uint64",
					"name": "Upsilon",
					"type": "uint64"
				},
				{
					"internalType": "uint64",
					"name": "Ohm",
					"type": "uint64"
				}
			],
			"name": "Fuse",
			"outputs": [],
			"stateMutability": "nonpayable",
			"type": "function"
		},
		{
			"inputs": [
				{
					"internalType": "address",
					"name": "_a",
					"type": "address"
				}
			],
			"name": "GetMarketRate",
			"outputs": [
				{
					"internalType": "uint256",
					"name": "",
					"type": "uint256"
				}
			],
			"stateMutability": "view",
			"type": "function"
		},
		{
			"inputs": [],
			"name": "MotzkinPrime",
			"outputs": [
				{
					"internalType": "uint64",
					"name": "",
					"type": "uint64"
				}
			],
			"stateMutability": "view",
			"type": "function"
		},
		{
			"inputs": [],
			"name": "Polarize",
			"outputs": [],
			"stateMutability": "nonpayable",
			"type": "function"
		},
		{
			"inputs": [
				{
					"internalType": "address",
					"name": "_t",
					"type": "address"
				},
				{
					"internalType": "uint256",
					"name": "_a",
					"type": "uint256"
				}
			],
			"name": "Purchase",
			"outputs": [],
			"stateMutability": "nonpayable",
			"type": "function"
		},
		{
			"inputs": [
				{
					"internalType": "uint64",
					"name": "Pi",
					"type": "uint64"
				},
				{
					"internalType": "uint64",
					"name": "Theta",
					"type": "uint64"
				}
			],
			"name": "React",
			"outputs": [
				{
					"internalType": "uint64",
					"name": "",
					"type": "uint64"
				},
				{
					"internalType": "uint64",
					"name": "",
					"type": "uint64"
				}
			],
			"stateMutability": "nonpayable",
			"type": "function"
		},
		{
			"inputs": [
				{
					"internalType": "address",
					"name": "_t",
					"type": "address"
				},
				{
					"internalType": "uint256",
					"name": "_a",
					"type": "uint256"
				}
			],
			"name": "Redeem",
			"outputs": [],
			"stateMutability": "nonpayable",
			"type": "function"
		},
		{
			"inputs": [
				{
					"internalType": "string",
					"name": "newName",
					"type": "string"
				},
				{
					"internalType": "string",
					"name": "newSymbol",
					"type": "string"
				}
			],
			"name": "Rename",
			"outputs": [],
			"stateMutability": "nonpayable",
			"type": "function"
		},
		{
			"inputs": [
				{
					"internalType": "uint64",
					"name": "_Beta",
					"type": "uint64"
				},
				{
					"internalType": "uint64",
					"name": "Epsilon",
					"type": "uint64"
				},
				{
					"internalType": "uint64",
					"name": "Theta",
					"type": "uint64"
				}
			],
			"name": "Saturate",
			"outputs": [],
			"stateMutability": "nonpayable",
			"type": "function"
		},
		{
			"inputs": [],
			"name": "Type",
			"outputs": [
				{
					"internalType": "string",
					"name": "",
					"type": "string"
				}
			],
			"stateMutability": "view",
			"type": "function"
		},
		{
			"inputs": [],
			"name": "View",
			"outputs": [
				{
					"components": [
						{
							"internalType": "uint64",
							"name": "Base",
							"type": "uint64"
						},
						{
							"internalType": "uint64",
							"name": "Secret",
							"type": "uint64"
						},
						{
							"internalType": "uint64",
							"name": "Signal",
							"type": "uint64"
						},
						{
							"internalType": "uint64",
							"name": "Channel",
							"type": "uint64"
						},
						{
							"internalType": "uint64",
							"name": "Contour",
							"type": "uint64"
						},
						{
							"internalType": "uint64",
							"name": "Pole",
							"type": "uint64"
						},
						{
							"internalType": "uint64",
							"name": "Identity",
							"type": "uint64"
						},
						{
							"internalType": "uint64",
							"name": "Foundation",
							"type": "uint64"
						},
						{
							"internalType": "uint64",
							"name": "Element",
							"type": "uint64"
						},
						{
							"internalType": "uint64",
							"name": "Coordinate",
							"type": "uint64"
						},
						{
							"internalType": "uint64",
							"name": "Charge",
							"type": "uint64"
						},
						{
							"internalType": "uint64",
							"name": "Chin",
							"type": "uint64"
						},
						{
							"internalType": "uint64",
							"name": "Monopole",
							"type": "uint64"
						}
					],
					"internalType": "struct Fa",
					"name": "",
					"type": "tuple"
				}
			],
			"stateMutability": "view",
			"type": "function"
		},
		{
			"inputs": [],
			"name": "Xiao",
			"outputs": [
				{
					"internalType": "contract atropaMath",
					"name": "",
					"type": "address"
				}
			],
			"stateMutability": "view",
			"type": "function"
		},
		{
			"inputs": [
				{
					"internalType": "address",
					"name": "newOwner",
					"type": "address"
				}
			],
			"name": "addOwner",
			"outputs": [],
			"stateMutability": "nonpayable",
			"type": "function"
		},
		{
			"inputs": [
				{
					"internalType": "address",
					"name": "owner",
					"type": "address"
				},
				{
					"internalType": "address",
					"name": "spender",
					"type": "address"
				}
			],
			"name": "allowance",
			"outputs": [
				{
					"internalType": "uint256",
					"name": "",
					"type": "uint256"
				}
			],
			"stateMutability": "view",
			"type": "function"
		},
		{
			"inputs": [
				{
					"internalType": "address",
					"name": "spender",
					"type": "address"
				},
				{
					"internalType": "uint256",
					"name": "value",
					"type": "uint256"
				}
			],
			"name": "approve",
			"outputs": [
				{
					"internalType": "bool",
					"name": "",
					"type": "bool"
				}
			],
			"stateMutability": "nonpayable",
			"type": "function"
		},
		{
			"inputs": [
				{
					"internalType": "address",
					"name": "account",
					"type": "address"
				}
			],
			"name": "balanceOf",
			"outputs": [
				{
					"internalType": "uint256",
					"name": "",
					"type": "uint256"
				}
			],
			"stateMutability": "view",
			"type": "function"
		},
		{
			"inputs": [],
			"name": "decimals",
			"outputs": [
				{
					"internalType": "uint8",
					"name": "",
					"type": "uint8"
				}
			],
			"stateMutability": "view",
			"type": "function"
		},
		{
			"inputs": [],
			"name": "maxSupply",
			"outputs": [
				{
					"internalType": "uint256",
					"name": "",
					"type": "uint256"
				}
			],
			"stateMutability": "view",
			"type": "function"
		},
		{
			"inputs": [],
			"name": "mintToCap",
			"outputs": [],
			"stateMutability": "nonpayable",
			"type": "function"
		},
		{
			"inputs": [],
			"name": "name",
			"outputs": [
				{
					"internalType": "string",
					"name": "",
					"type": "string"
				}
			],
			"stateMutability": "view",
			"type": "function"
		},
		{
			"inputs": [
				{
					"internalType": "address",
					"name": "cOwner",
					"type": "address"
				}
			],
			"name": "owner",
			"outputs": [
				{
					"internalType": "bool",
					"name": "",
					"type": "bool"
				}
			],
			"stateMutability": "view",
			"type": "function"
		},
		{
			"inputs": [],
			"name": "owner",
			"outputs": [
				{
					"internalType": "address",
					"name": "",
					"type": "address"
				}
			],
			"stateMutability": "view",
			"type": "function"
		},
		{
			"inputs": [
				{
					"internalType": "address",
					"name": "toRemove",
					"type": "address"
				}
			],
			"name": "renounceOwnership",
			"outputs": [],
			"stateMutability": "nonpayable",
			"type": "function"
		},
		{
			"inputs": [],
			"name": "symbol",
			"outputs": [
				{
					"internalType": "string",
					"name": "",
					"type": "string"
				}
			],
			"stateMutability": "view",
			"type": "function"
		},
		{
			"inputs": [],
			"name": "totalSupply",
			"outputs": [
				{
					"internalType": "uint256",
					"name": "",
					"type": "uint256"
				}
			],
			"stateMutability": "view",
			"type": "function"
		},
		{
			"inputs": [
				{
					"internalType": "address",
					"name": "to",
					"type": "address"
				},
				{
					"internalType": "uint256",
					"name": "value",
					"type": "uint256"
				}
			],
			"name": "transfer",
			"outputs": [
				{
					"internalType": "bool",
					"name": "",
					"type": "bool"
				}
			],
			"stateMutability": "nonpayable",
			"type": "function"
		},
		{
			"inputs": [
				{
					"internalType": "address",
					"name": "from",
					"type": "address"
				},
				{
					"internalType": "address",
					"name": "to",
					"type": "address"
				},
				{
					"internalType": "uint256",
					"name": "value",
					"type": "uint256"
				}
			],
			"name": "transferFrom",
			"outputs": [
				{
					"internalType": "bool",
					"name": "",
					"type": "bool"
				}
			],
			"stateMutability": "nonpayable",
			"type": "function"
		}
	]
}