{
	"data": {
		"bytecode": {
			"linkReferences": {},
			"object": "608060405234801561000f575f5ffd5b5060405161322938038061322983398101604081905261002e91610471565b6040518060400160405280600881526020016721b430b6b834b7b760c11b8152506040518060400160405280600e81526020016d54726164696e675265776172647360901b815250826001600160a01b0316636fb7329c6040518163ffffffff1660e01b8152600401602060405180830381865afa1580156100b2573d5f5f3e3d5ffd5b505050506040513d601f19601f820116820180604052508101906100d69190610471565b338061010857604051633603021960e21b81523260048201525f60248201523060448201526064015b60405180910390fd5b610113816001610343565b506004610120848261052b565b50600561012d838261052b565b50600680546001600160a01b0319166001600160a01b0383169081179091556040805163604a6fa960e01b815290516201b207929163604a6fa991600480830192602092919082900301815f875af115801561018b573d5f5f3e3d5ffd5b505050506040513d601f19601f820116820180604052508101906101af91906105e5565b6101b9919061060b565b6001600160401b031660075561020f7324f0154c1dce548adf15da2098fdd8b8a3b8151d6101e96012600a61073e565b6101f490600161074c565b6001600160a01b039091165f90815260086020526040902055565b5050600980546001600160a01b0319166001600160a01b0384169081179091556040805163110c7ef160e21b81529051919250634431fbc491600480830192602092919082900301815f875af115801561026b573d5f5f3e3d5ffd5b505050506040513d601f19601f8201168201806040525081019061028f9190610763565b600a55600954604051630e0cb96960e31b81523060048201526001600160a01b0390911690637065cb48906024015f604051808303815f87803b1580156102d4575f5ffd5b505af11580156102e6573d5f5f3e3d5ffd5b5050679a3298afb5ac71c760075550506012805460ff19169055600b80546001600160401b0319169055600d805461ffff19166103e8179055610329600a610396565b61033360056103ba565b61033d60036103d8565b5061077a565b6001600160a01b0382165f81815260208190526040808220805460ff191685151590811790915590519092917f6bfa7e860c3e9bf67b810cb88276b19b27c972812bac04793d369b59a1183a8391a35050565b61039e6103fe565b600f805460ff9092166101000261ff0019909216919091179055565b6103c26103fe565b600f805460ff191660ff92909216919091179055565b6103e06103fe565b600f805460ff909216620100000262ff000019909216919091179055565b335f9081526020819052604090205460ff1615801561042c5750325f9081526020819052604090205460ff16155b1561045857604051630be6bab560e01b81523260048201523360248201523060448201526064016100ff565b565b6001600160a01b038116811461046e575f5ffd5b50565b5f60208284031215610481575f5ffd5b815161048c8161045a565b9392505050565b634e487b7160e01b5f52604160045260245ffd5b600181811c908216806104bb57607f821691505b6020821081036104d957634e487b7160e01b5f52602260045260245ffd5b50919050565b601f82111561052657805f5260205f20601f840160051c810160208510156105045750805b601f840160051c820191505b81811015610523575f8155600101610510565b50505b505050565b81516001600160401b0381111561054457610544610493565b6105588161055284546104a7565b846104df565b6020601f82116001811461058a575f83156105735750848201515b5f19600385901b1c1916600184901b178455610523565b5f84815260208120601f198516915b828110156105b95787850151825560209485019460019092019101610599565b50848210156105d657868401515f19600387901b60f8161c191681555b50505050600190811b01905550565b5f602082840312156105f5575f5ffd5b81516001600160401b038116811461048c575f5ffd5b5f6001600160401b0383168061062f57634e487b7160e01b5f52601260045260245ffd5b6001600160401b03929092169190910692915050565b634e487b7160e01b5f52601160045260245ffd5b6001815b60018411156106945780850481111561067857610678610645565b600184161561068657908102905b60019390931c92800261065d565b935093915050565b5f826106aa57506001610738565b816106b657505f610738565b81600181146106cc57600281146106d6576106f2565b6001915050610738565b60ff8411156106e7576106e7610645565b50506001821b610738565b5060208310610133831016604e8410600b8410161715610715575081810a610738565b6107215f198484610659565b805f190482111561073457610734610645565b0290505b92915050565b5f61048c60ff84168361069c565b808202811582820484141761073857610738610645565b5f60208284031215610773575f5ffd5b5051919050565b612aa2806107875f395ff3fe608060405234801561000f575f5ffd5b5060043610610225575f3560e01c80637065cb4811610135578063a9059cbb116100b4578063dd62ed3e11610079578063dd62ed3e146104e2578063dff55141146104f5578063f4e6c93f14610533578063f5cf7eeb1461053b578063ff7620441461054e575f5ffd5b8063a9059cbb146104a3578063ac8f5ead146104b6578063c9b0a2a7146104be578063d3dc2a0f146104cb578063d5abeb01146104d9575f5ffd5b806395d89b41116100fa57806395d89b41146104595780639c3eb892146104615780639dcbf7ea146104745780639f7051f514610487578063a138da0b1461049a575f5ffd5b80637065cb48146103e557806370a08231146103f857806379372f9a146104205780637ac5d8a9146104285780638da5cb5b14610453575f5ffd5b8063313ce567116101c1578063666e1b3911610186578063666e1b39146103795780636872fc3c1461038c5780636a61344b146103ac5780636f55e4fc146103bf5780636fb7329c146103d2575f5ffd5b8063313ce5671461031357806338bf3cfa146103225780634fa0289f146103355780635a9def041461033d5780635c9302c914610370575f5ffd5b806306fdde03146102295780630764c80c14610247578063095ea7b31461025c57806311cfd2b21461027f57806318160ddd146102a0578063222838db146102b257806323b872dd146102c55780632499a533146102d85780632b83b1fc146102eb575b5f5ffd5b61023161057c565b60405161023e9190611fe4565b60405180910390f35b61025a610255366004612011565b61060c565b005b61026f61026a36600461202c565b610a09565b604051901515815260200161023e565b600d5461028d9061ffff1681565b60405161ffff909116815260200161023e565b6003545b60405190815260200161023e565b61025a6102c036600461202c565b610a22565b61026f6102d3366004612056565b610c24565b61025a6102e636600461202c565b610c47565b6102a46102f9366004612011565b6001600160a01b03165f9081526008602052604090205490565b6040516012815260200161023e565b61025a610330366004612011565b610dfa565b6011546102a4565b61035061034b3660046120a8565b610e0f565b604080516001600160401b0393841681529290911660208301520161023e565b6102a4600e5481565b61026f610387366004612011565b61122b565b60095461039f906001600160a01b031681565b60405161023e91906120df565b61025a6103ba3660046120f3565b611248565b61025a6103cd366004612215565b611335565b60065461039f906001600160a01b031681565b61025a6103f3366004612011565b611485565b6102a4610406366004612011565b6001600160a01b03165f9081526001602052604090205490565b61025a6114c5565b600b5461043b906001600160401b031681565b6040516001600160401b03909116815260200161023e565b3061039f565b610231611668565b61025a61046f366004612246565b611677565b61025a610482366004612266565b61169d565b61025a610495366004612246565b6116c3565b6102a4600a5481565b61026f6104b136600461202c565b6116e7565b61025a6116f4565b60125461026f9060ff1681565b61043b6603632c8eb5af3b81565b6102a460075481565b6102a46104f03660046122c9565b61178b565b6105086105033660046120f3565b6117b5565b6040805182516001600160401b0316815260208084015190820152918101519082015260600161023e565b61025a611822565b61025a610549366004612246565b611834565b6102316040518060400160405280600f81526020016e54726164696e67205265776172647360881b81525081565b60606004805461058b906122f5565b80601f01602080910402602001604051908101604052809291908181526020018280546105b7906122f5565b80156106025780601f106105d957610100808354040283529160200191610602565b820191905f5260205f20905b8154815290600101906020018083116105e557829003601f168201915b5050505050905090565b600954604051631bd173a960e11b81525f916001600160a01b0316906337a2e7529061063c9085906004016120df565b5f604051808303815f875af1158015610657573d5f5f3e3d5ffd5b505050506040513d5f823e601f3d908101601f1916820160405261067e9190810190612395565b80516001600160401b039081165f818152601060205260409020549293509116036106a7575050565b8051601180546001810182555f919091527f31ecc21a745e3968a04e9570e4425bc18fa8019c68028196b546d1669c200c686004820401805460039092166008026101000a6001600160401b03818102199093169290931692909202179055805160408083015190517fd528be9a363520a26d88293a7043157de151d2745a3ddbb353a0caa71bbc18b49261073d9290916124d3565b60405180910390a1805160095460408051633d3db08b60e21b8152905161089d93926001600160a01b03169163f4f6c22c9160048083019260209291908290030181865afa158015610791573d5f5f3e3d5ffd5b505050506040513d601f19601f820116820180604052508101906107b591906124f4565b6001600160a01b0316639ff430016040518163ffffffff1660e01b81526004016020604051808303815f875af11580156107f1573d5f5f3e3d5ffd5b505050506040513d601f19601f8201168201806040525081019061081591906124f4565b6001600160a01b03166327bacc406040518163ffffffff1660e01b8152600401602060405180830381865afa158015610850573d5f5f3e3d5ffd5b505050506040513d601f19601f82011682018060405250810190610874919061250f565b83604001516040516020016108899190612541565b604051602081830303815290604052611852565b80516001600160401b039081165f908152601060209081526040918290208451815467ffffffffffffffff19169085161781558185015180516001830180546001600160a01b0319166001600160a01b0392831617905592810151600283018054838701519286166001600160e01b031991821617600160a01b9389169390930292909217905560608201516003840180546080850151928916931692909217600160401b91909516810294909417905560a081015160048301805460c084015160e0909401519288166001600160801b0319909116179287169094029190911767ffffffffffffffff60801b1916600160801b919095160293909317905582015182919060058201906109b190826125b5565b50606091909101516006909101805467ffffffffffffffff19166001600160401b0390921691909117905560125460ff161580156109f85750600f5460115460ff90911611155b15610a0557610a05611896565b5050565b5f33610a1681858561191f565b60019150505b92915050565b6001600160a01b0382165f908152600860205260408120549003610a6457816040516390b2344160e01b8152600401610a5b91906120df565b60405180910390fd5b815f610a726012600a612766565b6001600160a01b0385165f90815260086020526040902054610a949085612774565b610a9e919061278b565b6040516323b872dd60e01b81529091505f9030906323b872dd90610aca903390849089906004016127aa565b6020604051808303815f875af1158015610ae6573d5f5f3e3d5ffd5b505050506040513d601f19601f82011682018060405250810190610b0a91906127ce565b905080306001600160a01b03166306fdde036040518163ffffffff1660e01b81526004015f60405180830381865afa158015610b48573d5f5f3e3d5ffd5b505050506040513d5f823e601f3d908101601f19168201604052610b6f91908101906127ed565b604051602001610b7f919061281e565b60405160208183030381529060405290610bac5760405162461bcd60e51b8152600401610a5b9190611fe4565b5060405163a9059cbb60e01b8152336004820152602481018390526001600160a01b0384169063a9059cbb906044015b6020604051808303815f875af1158015610bf8573d5f5f3e3d5ffd5b505050506040513d601f19601f82011682018060405250810190610c1c91906127ce565b505050505050565b5f33610c3185828561192c565b610c3c858585611983565b506001949350505050565b6001600160a01b0382165f908152600860205260408120549003610c8057816040516390b2344160e01b8152600401610a5b91906120df565b815f610c8e6012600a612766565b6001600160a01b0385165f90815260086020526040902054610cb09085612774565b610cba919061278b565b90505f826001600160a01b03166323b872dd3330856040518463ffffffff1660e01b8152600401610ced939291906127aa565b6020604051808303815f875af1158015610d09573d5f5f3e3d5ffd5b505050506040513d601f19601f82011682018060405250810190610d2d91906127ce565b905080836001600160a01b03166306fdde036040518163ffffffff1660e01b81526004015f60405180830381865afa158015610d6b573d5f5f3e3d5ffd5b505050506040513d5f823e601f3d908101601f19168201604052610d9291908101906127ed565b604051602001610da2919061281e565b60405160208183030381529060405290610dcf5760405162461bcd60e51b8152600401610a5b9190611fe4565b5060405163a9059cbb60e01b815233600482015260248101859052309063a9059cbb90604401610bdc565b610e0261198e565b610e0c815f6119ce565b50565b6001600160401b038083165f9081526010602052604081205490918291168103610e69576001600160401b038481165f908152601060205260409081902054905163a27710c160e01b815291166004820152602401610a5b565b60095f9054906101000a90046001600160a01b03166001600160a01b031663929c6ca96040518163ffffffff1660e01b8152600401602060405180830381865afa158015610eb9573d5f5f3e3d5ffd5b505050506040513d601f19601f82011682018060405250810190610edd91906124f4565b6001600160a01b031663679b953860095f9054906101000a90046001600160a01b03166001600160a01b031663c0ff53286040518163ffffffff1660e01b8152600401602060405180830381865afa158015610f3b573d5f5f3e3d5ffd5b505050506040513d601f19601f82011682018060405250810190610f5f91906124f4565b6001600160401b038088165f908152601060205260409081902060049081015491516001600160e01b031960e087901b168152610fab9493600160401b90930490921689189101612840565b60408051808303815f875af1158015610fc6573d5f5f3e3d5ffd5b505050506040513d601f19601f82011682018060405250810190610fea9190612862565b6001600160401b038087165f9081526010602090815260409182902060049081018054968516600160401b0267ffffffffffffffff60401b1996909516600160801b0295909516600160401b600160c01b03199096169590951792909217909255600954825163929c6ca960e01b815292516001600160a01b039091169363929c6ca993808201939291908290030181865afa15801561108c573d5f5f3e3d5ffd5b505050506040513d601f19601f820116820180604052508101906110b091906124f4565b6001600160a01b031663679b953860095f9054906101000a90046001600160a01b03166001600160a01b031663c0ff53286040518163ffffffff1660e01b8152600401602060405180830381865afa15801561110e573d5f5f3e3d5ffd5b505050506040513d601f19601f8201168201806040525081019061113291906124f4565b6001600160401b038088165f908152601060209081526040918290206004908101546009548451630e61c05d60e31b81529451600160801b909204909516946001600160a01b03169363730e02e893818401939092918290030181865afa15801561119f573d5f5f3e3d5ffd5b505050506040513d601f19601f820116820180604052508101906111c3919061250f565b186040518363ffffffff1660e01b81526004016111e1929190612840565b60408051808303815f875af11580156111fc573d5f5f3e3d5ffd5b505050506040513d601f19601f820116820180604052508101906112209190612862565b915091509250929050565b6001600160a01b03165f9081526020819052604090205460ff1690565b60125460ff1661128c5760405162461bcd60e51b815260206004820152600f60248201526e139bc81858dd1a5d99481c9bdd5b99608a1b6044820152606401610a5b565b6001600160401b0381165f90815260136020526040812060018082018054929391929091906112bc90849061288f565b90915550506001600160401b0382165f908152601060205260409081902090517ff3187cb5f8b4173ea18ff51bbbf13c7dfb63c63d5f9b3c2423339d9b148ce5289161130f9185916005019042906128a2565b60405180910390a1600c54611327906201518061288f565b4210610a0557610a05611a21565b61133d61198e565b610e0c5f60095f9054906101000a90046001600160a01b03166001600160a01b031663f4f6c22c6040518163ffffffff1660e01b8152600401602060405180830381865afa158015611391573d5f5f3e3d5ffd5b505050506040513d601f19601f820116820180604052508101906113b591906124f4565b6001600160a01b0316639ff430016040518163ffffffff1660e01b81526004016020604051808303815f875af11580156113f1573d5f5f3e3d5ffd5b505050506040513d601f19601f8201168201806040525081019061141591906124f4565b6001600160a01b03166327bacc406040518163ffffffff1660e01b8152600401602060405180830381865afa158015611450573d5f5f3e3d5ffd5b505050506040513d601f19601f82011682018060405250810190611474919061250f565b836040516020016108899190612941565b61148d61198e565b6001600160a01b0381166114ba57325f30604051633603021960e21b8152600401610a5b9392919061294c565b610e0c8160016119ce565b600954604080516370f6b73960e11b815290515f926001600160a01b03169163e1ed6e729160048083019260209291908290030181865afa15801561150c573d5f5f3e3d5ffd5b505050506040513d601f19601f82011682018060405250810190611530919061250f565b6001600160401b0381165f9081526013602052604090206001015490915061158b5760405162461bcd60e51b815260206004820152600e60248201526d4e6f20747261646573206d61646560901b6044820152606401610a5b565b5f61159582611a9e565b6001600160401b0383165f908152601060205260409020600101549091506115c6906001600160a01b031682611b0a565b6001600160401b0382165f908152601060205260409081902090517fe29330cf3dba7a7dc8d32cba0a0a536b164752b56838b6ffd22fa26fcc932ccf916116149185916005019085906128a2565b60405180910390a16001600160401b0382165f908152601360205260408120600201805483929061164690849061288f565b9091555050506001600160401b03165f90815260136020526040812060010155565b60606005805461058b906122f5565b61167f61198e565b600f805460ff909216620100000262ff000019909216919091179055565b6116a561198e565b60046116b183826125b5565b5060056116be82826125b5565b505050565b6116cb61198e565b600f805460ff9092166101000261ff0019909216919091179055565b5f33610a16818585611983565b600954604080516370f6b73960e11b815290515f926001600160a01b03169163e1ed6e729160048083019260209291908290030181865afa15801561173b573d5f5f3e3d5ffd5b505050506040513d601f19601f8201168201806040525081019061175f919061250f565b6001600160401b038082165f81815260106020526040902054929350911603610e0c57610e0c81611b15565b6001600160a01b039182165f90815260026020908152604080832093909416825291909152205490565b6117df60405180606001604052805f6001600160401b031681526020015f81526020015f81525090565b506001600160401b039081165f90815260136020908152604091829020825160608101845281549094168452600181015491840191909152600201549082015290565b61182a61198e565b611832611d8f565b565b61183c61198e565b600f805460ff191660ff92909216919091179055565b7f7e614620a5d3dbe1eeff25f7edf8d9e7d287833597a645caaf7f6434d92cc3f7600a54848484604051611889949392919061296f565b60405180910390a1505050565b600b8054600191905f906118b49084906001600160401b03166129af565b82546101009290920a6001600160401b0381810219909316918316021790915542600c556012805460ff19166001179055600b54604051911681527fc842d12f129ab7f2f0dcba6c9580e1ee787edf9ff664f7636bdfa4cac23ad745915060200160405180910390a1565b6116be8383836001611dd1565b5f611937848461178b565b90505f19811461197d578181101561196f573233858530858760405162b83d1960e21b8152600401610a5b97969594939291906129ce565b61197d84848484035f611dd1565b50505050565b6116be838383611e51565b6119973361122b565b1580156119aa57506119a83261122b565b155b1561183257323330604051630be6bab560e01b8152600401610a5b9392919061294c565b6001600160a01b0382165f81815260208190526040808220805460ff191685151590811790915590519092917f6bfa7e860c3e9bf67b810cb88276b19b27c972812bac04793d369b59a1183a8391a35050565b6012805460ff19169055600b546040516001600160401b0390911681527ff7f9b4c0b169383e4d8e922ea26db28c681b4ec351b19c23de6ecbde43f242a89060200160405180910390a15f5b60115461ffff82161015611a9557611a836114c5565b80611a8d81612a11565b915050611a6d565b50611832611896565b6001600160401b0381165f908152601360205260408120600f5460018201546201000090910460ff1611611b0257600f546001820154600d545f9262010000900460ff1691611af09161ffff16612774565b611afa919061278b565b949350505050565b505f92915050565b610a055f8383611e51565b5f5b60115461ffff82161015610a0557816001600160401b031660118261ffff1681548110611b4657611b46612a31565b5f918252602090912060048204015460039091166008026101000a90046001600160401b031603611d7d5760135f60118361ffff1681548110611b8b57611b8b612a31565b5f918252602080832060048304015460039092166008026101000a9091046001600160401b031683528201929092526040018120805467ffffffffffffffff191681556001810182905560020181905560118054601092919061ffff8516908110611bf857611bf8612a31565b5f918252602080832060048084049091015460039384166008026101000a90046001600160401b031685529084019490945260409092018120805467ffffffffffffffff191681556001810180546001600160a01b03191690556002810180546001600160e01b0319908116909155928101805490931690925591810180546001600160c01b031916905590611c916005830182611f6c565b50600601805467ffffffffffffffff1916905560118054611cb490600190612a45565b81548110611cc457611cc4612a31565b905f5260205f2090600491828204019190066008029054906101000a90046001600160401b031660118261ffff1681548110611d0257611d02612a31565b905f5260205f2090600491828204019190066008026101000a8154816001600160401b0302191690836001600160401b031602179055506011805480611d4a57611d4a612a58565b5f8281526020902060045f199092019182040180546001600160401b03600860038516026101000a021916905590555050565b80611d8781612a11565b915050611b17565b611d9b6012600a612766565b600754611da89190612774565b60035410156118325761183230611dc16012600a612766565b611dcc906001612774565b611b0a565b6001600160a01b038085165f908152600260209081526040808320938716835292905220829055801561197d57826001600160a01b0316846001600160a01b03167f8c5be1e5ebec7d5bd14f71427d1e84f3dd0314c0f7b2291e5b200ac8c7c3b92584604051611e4391815260200190565b60405180910390a350505050565b6001600160a01b038316611e7b578060035f828254611e70919061288f565b90915550611ee09050565b6001600160a01b0383165f9081526001602052604090205481811015611ec25732338585308587604051630f7d0bbd60e21b8152600401610a5b97969594939291906129ce565b6001600160a01b0384165f9081526001602052604090209082900390555b6001600160a01b038216611efc57600380548290039055611f1a565b6001600160a01b0382165f9081526001602052604090208054820190555b816001600160a01b0316836001600160a01b03167fddf252ad1be2c89b69c2b068fc378daa952ba7f163c4a11628f55a4df523b3ef83604051611f5f91815260200190565b60405180910390a3505050565b508054611f78906122f5565b5f825580601f10611f87575050565b601f0160209004905f5260205f2090810190610e0c91905b80821115611fb2575f8155600101611f9f565b5090565b5f81518084528060208401602086015e5f602082860101526020601f19601f83011685010191505092915050565b602081525f611ff66020830184611fb6565b9392505050565b6001600160a01b0381168114610e0c575f5ffd5b5f60208284031215612021575f5ffd5b8135611ff681611ffd565b5f5f6040838503121561203d575f5ffd5b823561204881611ffd565b946020939093013593505050565b5f5f5f60608486031215612068575f5ffd5b833561207381611ffd565b9250602084013561208381611ffd565b929592945050506040919091013590565b6001600160401b0381168114610e0c575f5ffd5b5f5f604083850312156120b9575f5ffd5b82356120c481612094565b915060208301356120d481612094565b809150509250929050565b6001600160a01b0391909116815260200190565b5f60208284031215612103575f5ffd5b8135611ff681612094565b634e487b7160e01b5f52604160045260245ffd5b604051608081016001600160401b03811182821017156121445761214461210e565b60405290565b60405161010081016001600160401b03811182821017156121445761214461210e565b604051601f8201601f191681016001600160401b03811182821017156121955761219561210e565b604052919050565b5f6001600160401b038211156121b5576121b561210e565b50601f01601f191660200190565b5f82601f8301126121d2575f5ffd5b81356121e56121e08261219d565b61216d565b8181528460208386010111156121f9575f5ffd5b816020850160208301375f918101602001919091529392505050565b5f60208284031215612225575f5ffd5b81356001600160401b0381111561223a575f5ffd5b611afa848285016121c3565b5f60208284031215612256575f5ffd5b813560ff81168114611ff6575f5ffd5b5f5f60408385031215612277575f5ffd5b82356001600160401b0381111561228c575f5ffd5b612298858286016121c3565b92505060208301356001600160401b038111156122b3575f5ffd5b6122bf858286016121c3565b9150509250929050565b5f5f604083850312156122da575f5ffd5b82356122e581611ffd565b915060208301356120d481611ffd565b600181811c9082168061230957607f821691505b60208210810361232757634e487b7160e01b5f52602260045260245ffd5b50919050565b805161233881612094565b919050565b805161233881611ffd565b5f82601f830112612357575f5ffd5b81516123656121e08261219d565b818152846020838601011115612379575f5ffd5b8160208501602083015e5f918101602001919091529392505050565b5f602082840312156123a5575f5ffd5b81516001600160401b038111156123ba575f5ffd5b82018084036101608112156123cd575f5ffd5b6123d5612122565b82516123e081612094565b8152610100601f19830112156123f4575f5ffd5b6123fc61214a565b9150602083015161240c81611ffd565b825261241a6040840161233d565b602083015261242b6060840161232d565b604083015261243c6080840161232d565b606083015261244d60a0840161233d565b608083015261245e60c0840161232d565b60a083015261246f60e0840161232d565b60c0830152612481610100840161232d565b60e083015281602082015261012083015191506001600160401b038211156124a7575f5ffd5b6124b386838501612348565b60408201526124c5610140840161232d565b606082015295945050505050565b6001600160401b0383168152604060208201525f611afa6040830184611fb6565b5f60208284031215612504575f5ffd5b8151611ff681611ffd565b5f6020828403121561251f575f5ffd5b8151611ff681612094565b5f81518060208401855e5f93019283525090919050565b7402732bb902a3930b232b9102537b4b732b2101d1d1605d1b81525f611ff6601583018461252a565b601f8211156116be57805f5260205f20601f840160051c8101602085101561258f5750805b601f840160051c820191505b818110156125ae575f815560010161259b565b5050505050565b81516001600160401b038111156125ce576125ce61210e565b6125e2816125dc84546122f5565b8461256a565b6020601f821160018114612614575f83156125fd5750848201515b5f19600385901b1c1916600184901b1784556125ae565b5f84815260208120601f198516915b828110156126435787850151825560209485019460019092019101612623565b508482101561266057868401515f19600387901b60f8161c191681555b50505050600190811b01905550565b634e487b7160e01b5f52601160045260245ffd5b6001815b60018411156126be578085048111156126a2576126a261266f565b60018416156126b057908102905b60019390931c928002612687565b935093915050565b5f826126d457506001610a1c565b816126e057505f610a1c565b81600181146126f657600281146127005761271c565b6001915050610a1c565b60ff8411156127115761271161266f565b50506001821b610a1c565b5060208310610133831016604e8410600b841016171561273f575081810a610a1c565b61274b5f198484612683565b805f190482111561275e5761275e61266f565b029392505050565b5f611ff660ff8416836126c6565b8082028115828204841417610a1c57610a1c61266f565b5f826127a557634e487b7160e01b5f52601260045260245ffd5b500490565b6001600160a01b039384168152919092166020820152604081019190915260600190565b5f602082840312156127de575f5ffd5b81518015158114611ff6575f5ffd5b5f602082840312156127fd575f5ffd5b81516001600160401b03811115612812575f5ffd5b611afa84828501612348565b6d02732b2b21020b8383937bb32b2160951b81525f611ff6600e83018461252a565b6001600160a01b039290921682526001600160401b0316602082015260400190565b5f5f60408385031215612873575f5ffd5b825161287e81612094565b60208401519092506120d481612094565b80820180821115610a1c57610a1c61266f565b6001600160401b0384168152606060208201525f5f84546128c2816122f5565b806060860152600182165f81146128e057600181146128fc5761292d565b60ff1983166080870152608082151560051b870101935061292d565b875f5260205f205f5b8381101561292457815488820160800152600190910190602001612905565b87016080019450505b505050604092909201929092529392505050565b5f611ff6828461252a565b6001600160a01b0393841681529183166020830152909116604082015260600190565b8481526001600160401b03841660208201526001600160401b0383166040820152608060608201525f6129a56080830184611fb6565b9695505050505050565b6001600160401b038181168382160190811115610a1c57610a1c61266f565b6001600160a01b039788168152958716602087015293861660408601529185166060850152909316608083015260a082019290925260c081019190915260e00190565b5f61ffff821661ffff8103612a2857612a2861266f565b60010192915050565b634e487b7160e01b5f52603260045260245ffd5b81810381811115610a1c57610a1c61266f565b634e487b7160e01b5f52603160045260245ffdfea2646970667358221220ed4a714a92c84f85efb213905e23550ee588fa0e3dd6f1f75cf9112256b5c92464736f6c634300081b0033",
			"opcodes": "PUSH1 0x80 PUSH1 0x40 MSTORE CALLVALUE DUP1 ISZERO PUSH2 0xF JUMPI PUSH0 PUSH0 REVERT JUMPDEST POP PUSH1 0x40 MLOAD PUSH2 0x3229 CODESIZE SUB DUP1 PUSH2 0x3229 DUP4 CODECOPY DUP2 ADD PUSH1 0x40 DUP2 SWAP1 MSTORE PUSH2 0x2E SWAP2 PUSH2 0x471 JUMP JUMPDEST PUSH1 0x40 MLOAD DUP1 PUSH1 0x40 ADD PUSH1 0x40 MSTORE DUP1 PUSH1 0x8 DUP2 MSTORE PUSH1 0x20 ADD PUSH8 0x21B430B6B834B7B7 PUSH1 0xC1 SHL DUP2 MSTORE POP PUSH1 0x40 MLOAD DUP1 PUSH1 0x40 ADD PUSH1 0x40 MSTORE DUP1 PUSH1 0xE DUP2 MSTORE PUSH1 0x20 ADD PUSH14 0x54726164696E6752657761726473 PUSH1 0x90 SHL DUP2 MSTORE POP DUP3 PUSH1 0x1 PUSH1 0x1 PUSH1 0xA0 SHL SUB AND PUSH4 0x6FB7329C PUSH1 0x40 MLOAD DUP2 PUSH4 0xFFFFFFFF AND PUSH1 0xE0 SHL DUP2 MSTORE PUSH1 0x4 ADD PUSH1 0x20 PUSH1 0x40 MLOAD DUP1 DUP4 SUB DUP2 DUP7 GAS STATICCALL ISZERO DUP1 ISZERO PUSH2 0xB2 JUMPI RETURNDATASIZE PUSH0 PUSH0 RETURNDATACOPY RETURNDATASIZE PUSH0 REVERT JUMPDEST POP POP POP POP PUSH1 0x40 MLOAD RETURNDATASIZE PUSH1 0x1F NOT PUSH1 0x1F DUP3 ADD AND DUP3 ADD DUP1 PUSH1 0x40 MSTORE POP DUP2 ADD SWAP1 PUSH2 0xD6 SWAP2 SWAP1 PUSH2 0x471 JUMP JUMPDEST CALLER DUP1 PUSH2 0x108 JUMPI PUSH1 0x40 MLOAD PUSH4 0x36030219 PUSH1 0xE2 SHL DUP2 MSTORE ORIGIN PUSH1 0x4 DUP3 ADD MSTORE PUSH0 PUSH1 0x24 DUP3 ADD MSTORE ADDRESS PUSH1 0x44 DUP3 ADD MSTORE PUSH1 0x64 ADD JUMPDEST PUSH1 0x40 MLOAD DUP1 SWAP2 SUB SWAP1 REVERT JUMPDEST PUSH2 0x113 DUP2 PUSH1 0x1 PUSH2 0x343 JUMP JUMPDEST POP PUSH1 0x4 PUSH2 0x120 DUP5 DUP3 PUSH2 0x52B JUMP JUMPDEST POP PUSH1 0x5 PUSH2 0x12D DUP4 DUP3 PUSH2 0x52B JUMP JUMPDEST POP PUSH1 0x6 DUP1 SLOAD PUSH1 0x1 PUSH1 0x1 PUSH1 0xA0 SHL SUB NOT AND PUSH1 0x1 PUSH1 0x1 PUSH1 0xA0 SHL SUB DUP4 AND SWAP1 DUP2 OR SWAP1 SWAP2 SSTORE PUSH1 0x40 DUP1 MLOAD PUSH4 0x604A6FA9 PUSH1 0xE0 SHL DUP2 MSTORE SWAP1 MLOAD PUSH3 0x1B207 SWAP3 SWAP2 PUSH4 0x604A6FA9 SWAP2 PUSH1 0x4 DUP1 DUP4 ADD SWAP3 PUSH1 0x20 SWAP3 SWAP2 SWAP1 DUP3 SWAP1 SUB ADD DUP2 PUSH0 DUP8 GAS CALL ISZERO DUP1 ISZERO PUSH2 0x18B JUMPI RETURNDATASIZE PUSH0 PUSH0 RETURNDATACOPY RETURNDATASIZE PUSH0 REVERT JUMPDEST POP POP POP POP PUSH1 0x40 MLOAD RETURNDATASIZE PUSH1 0x1F NOT PUSH1 0x1F DUP3 ADD AND DUP3 ADD DUP1 PUSH1 0x40 MSTORE POP DUP2 ADD SWAP1 PUSH2 0x1AF SWAP2 SWAP1 PUSH2 0x5E5 JUMP JUMPDEST PUSH2 0x1B9 SWAP2 SWAP1 PUSH2 0x60B JUMP JUMPDEST PUSH1 0x1 PUSH1 0x1 PUSH1 0x40 SHL SUB AND PUSH1 0x7 SSTORE PUSH2 0x20F PUSH20 0x24F0154C1DCE548ADF15DA2098FDD8B8A3B8151D PUSH2 0x1E9 PUSH1 0x12 PUSH1 0xA PUSH2 0x73E JUMP JUMPDEST PUSH2 0x1F4 SWAP1 PUSH1 0x1 PUSH2 0x74C JUMP JUMPDEST PUSH1 0x1 PUSH1 0x1 PUSH1 0xA0 SHL SUB SWAP1 SWAP2 AND PUSH0 SWAP1 DUP2 MSTORE PUSH1 0x8 PUSH1 0x20 MSTORE PUSH1 0x40 SWAP1 KECCAK256 SSTORE JUMP JUMPDEST POP POP PUSH1 0x9 DUP1 SLOAD PUSH1 0x1 PUSH1 0x1 PUSH1 0xA0 SHL SUB NOT AND PUSH1 0x1 PUSH1 0x1 PUSH1 0xA0 SHL SUB DUP5 AND SWAP1 DUP2 OR SWAP1 SWAP2 SSTORE PUSH1 0x40 DUP1 MLOAD PUSH4 0x110C7EF1 PUSH1 0xE2 SHL DUP2 MSTORE SWAP1 MLOAD SWAP2 SWAP3 POP PUSH4 0x4431FBC4 SWAP2 PUSH1 0x4 DUP1 DUP4 ADD SWAP3 PUSH1 0x20 SWAP3 SWAP2 SWAP1 DUP3 SWAP1 SUB ADD DUP2 PUSH0 DUP8 GAS CALL ISZERO DUP1 ISZERO PUSH2 0x26B JUMPI RETURNDATASIZE PUSH0 PUSH0 RETURNDATACOPY RETURNDATASIZE PUSH0 REVERT JUMPDEST POP POP POP POP PUSH1 0x40 MLOAD RETURNDATASIZE PUSH1 0x1F NOT PUSH1 0x1F DUP3 ADD AND DUP3 ADD DUP1 PUSH1 0x40 MSTORE POP DUP2 ADD SWAP1 PUSH2 0x28F SWAP2 SWAP1 PUSH2 0x763 JUMP JUMPDEST PUSH1 0xA SSTORE PUSH1 0x9 SLOAD PUSH1 0x40 MLOAD PUSH4 0xE0CB969 PUSH1 0xE3 SHL DUP2 MSTORE ADDRESS PUSH1 0x4 DUP3 ADD MSTORE PUSH1 0x1 PUSH1 0x1 PUSH1 0xA0 SHL SUB SWAP1 SWAP2 AND SWAP1 PUSH4 0x7065CB48 SWAP1 PUSH1 0x24 ADD PUSH0 PUSH1 0x40 MLOAD DUP1 DUP4 SUB DUP2 PUSH0 DUP8 DUP1 EXTCODESIZE ISZERO DUP1 ISZERO PUSH2 0x2D4 JUMPI PUSH0 PUSH0 REVERT JUMPDEST POP GAS CALL ISZERO DUP1 ISZERO PUSH2 0x2E6 JUMPI RETURNDATASIZE PUSH0 PUSH0 RETURNDATACOPY RETURNDATASIZE PUSH0 REVERT JUMPDEST POP POP PUSH8 0x9A3298AFB5AC71C7 PUSH1 0x7 SSTORE POP POP PUSH1 0x12 DUP1 SLOAD PUSH1 0xFF NOT AND SWAP1 SSTORE PUSH1 0xB DUP1 SLOAD PUSH1 0x1 PUSH1 0x1 PUSH1 0x40 SHL SUB NOT AND SWAP1 SSTORE PUSH1 0xD DUP1 SLOAD PUSH2 0xFFFF NOT AND PUSH2 0x3E8 OR SWAP1 SSTORE PUSH2 0x329 PUSH1 0xA PUSH2 0x396 JUMP JUMPDEST PUSH2 0x333 PUSH1 0x5 PUSH2 0x3BA JUMP JUMPDEST PUSH2 0x33D PUSH1 0x3 PUSH2 0x3D8 JUMP JUMPDEST POP PUSH2 0x77A JUMP JUMPDEST PUSH1 0x1 PUSH1 0x1 PUSH1 0xA0 SHL SUB DUP3 AND PUSH0 DUP2 DUP2 MSTORE PUSH1 0x20 DUP2 SWAP1 MSTORE PUSH1 0x40 DUP1 DUP3 KECCAK256 DUP1 SLOAD PUSH1 0xFF NOT AND DUP6 ISZERO ISZERO SWAP1 DUP2 OR SWAP1 SWAP2 SSTORE SWAP1 MLOAD SWAP1 SWAP3 SWAP2 PUSH32 0x6BFA7E860C3E9BF67B810CB88276B19B27C972812BAC04793D369B59A1183A83 SWAP2 LOG3 POP POP JUMP JUMPDEST PUSH2 0x39E PUSH2 0x3FE JUMP JUMPDEST PUSH1 0xF DUP1 SLOAD PUSH1 0xFF SWAP1 SWAP3 AND PUSH2 0x100 MUL PUSH2 0xFF00 NOT SWAP1 SWAP3 AND SWAP2 SWAP1 SWAP2 OR SWAP1 SSTORE JUMP JUMPDEST PUSH2 0x3C2 PUSH2 0x3FE JUMP JUMPDEST PUSH1 0xF DUP1 SLOAD PUSH1 0xFF NOT AND PUSH1 0xFF SWAP3 SWAP1 SWAP3 AND SWAP2 SWAP1 SWAP2 OR SWAP1 SSTORE JUMP JUMPDEST PUSH2 0x3E0 PUSH2 0x3FE JUMP JUMPDEST PUSH1 0xF DUP1 SLOAD PUSH1 0xFF SWAP1 SWAP3 AND PUSH3 0x10000 MUL PUSH3 0xFF0000 NOT SWAP1 SWAP3 AND SWAP2 SWAP1 SWAP2 OR SWAP1 SSTORE JUMP JUMPDEST CALLER PUSH0 SWAP1 DUP2 MSTORE PUSH1 0x20 DUP2 SWAP1 MSTORE PUSH1 0x40 SWAP1 KECCAK256 SLOAD PUSH1 0xFF AND ISZERO DUP1 ISZERO PUSH2 0x42C JUMPI POP ORIGIN PUSH0 SWAP1 DUP2 MSTORE PUSH1 0x20 DUP2 SWAP1 MSTORE PUSH1 0x40 SWAP1 KECCAK256 SLOAD PUSH1 0xFF AND ISZERO JUMPDEST ISZERO PUSH2 0x458 JUMPI PUSH1 0x40 MLOAD PUSH4 0xBE6BAB5 PUSH1 0xE0 SHL DUP2 MSTORE ORIGIN PUSH1 0x4 DUP3 ADD MSTORE CALLER PUSH1 0x24 DUP3 ADD MSTORE ADDRESS PUSH1 0x44 DUP3 ADD MSTORE PUSH1 0x64 ADD PUSH2 0xFF JUMP JUMPDEST JUMP JUMPDEST PUSH1 0x1 PUSH1 0x1 PUSH1 0xA0 SHL SUB DUP2 AND DUP2 EQ PUSH2 0x46E JUMPI PUSH0 PUSH0 REVERT JUMPDEST POP JUMP JUMPDEST PUSH0 PUSH1 0x20 DUP3 DUP5 SUB SLT ISZERO PUSH2 0x481 JUMPI PUSH0 PUSH0 REVERT JUMPDEST DUP2 MLOAD PUSH2 0x48C DUP2 PUSH2 0x45A JUMP JUMPDEST SWAP4 SWAP3 POP POP POP JUMP JUMPDEST PUSH4 0x4E487B71 PUSH1 0xE0 SHL PUSH0 MSTORE PUSH1 0x41 PUSH1 0x4 MSTORE PUSH1 0x24 PUSH0 REVERT JUMPDEST PUSH1 0x1 DUP2 DUP2 SHR SWAP1 DUP3 AND DUP1 PUSH2 0x4BB JUMPI PUSH1 0x7F DUP3 AND SWAP2 POP JUMPDEST PUSH1 0x20 DUP3 LT DUP2 SUB PUSH2 0x4D9 JUMPI PUSH4 0x4E487B71 PUSH1 0xE0 SHL PUSH0 MSTORE PUSH1 0x22 PUSH1 0x4 MSTORE PUSH1 0x24 PUSH0 REVERT JUMPDEST POP SWAP2 SWAP1 POP JUMP JUMPDEST PUSH1 0x1F DUP3 GT ISZERO PUSH2 0x526 JUMPI DUP1 PUSH0 MSTORE PUSH1 0x20 PUSH0 KECCAK256 PUSH1 0x1F DUP5 ADD PUSH1 0x5 SHR DUP2 ADD PUSH1 0x20 DUP6 LT ISZERO PUSH2 0x504 JUMPI POP DUP1 JUMPDEST PUSH1 0x1F DUP5 ADD PUSH1 0x5 SHR DUP3 ADD SWAP2 POP JUMPDEST DUP2 DUP2 LT ISZERO PUSH2 0x523 JUMPI PUSH0 DUP2 SSTORE PUSH1 0x1 ADD PUSH2 0x510 JUMP JUMPDEST POP POP JUMPDEST POP POP POP JUMP JUMPDEST DUP2 MLOAD PUSH1 0x1 PUSH1 0x1 PUSH1 0x40 SHL SUB DUP2 GT ISZERO PUSH2 0x544 JUMPI PUSH2 0x544 PUSH2 0x493 JUMP JUMPDEST PUSH2 0x558 DUP2 PUSH2 0x552 DUP5 SLOAD PUSH2 0x4A7 JUMP JUMPDEST DUP5 PUSH2 0x4DF JUMP JUMPDEST PUSH1 0x20 PUSH1 0x1F DUP3 GT PUSH1 0x1 DUP2 EQ PUSH2 0x58A JUMPI PUSH0 DUP4 ISZERO PUSH2 0x573 JUMPI POP DUP5 DUP3 ADD MLOAD JUMPDEST PUSH0 NOT PUSH1 0x3 DUP6 SWAP1 SHL SHR NOT AND PUSH1 0x1 DUP5 SWAP1 SHL OR DUP5 SSTORE PUSH2 0x523 JUMP JUMPDEST PUSH0 DUP5 DUP2 MSTORE PUSH1 0x20 DUP2 KECCAK256 PUSH1 0x1F NOT DUP6 AND SWAP2 JUMPDEST DUP3 DUP2 LT ISZERO PUSH2 0x5B9 JUMPI DUP8 DUP6 ADD MLOAD DUP3 SSTORE PUSH1 0x20 SWAP5 DUP6 ADD SWAP5 PUSH1 0x1 SWAP1 SWAP3 ADD SWAP2 ADD PUSH2 0x599 JUMP JUMPDEST POP DUP5 DUP3 LT ISZERO PUSH2 0x5D6 JUMPI DUP7 DUP5 ADD MLOAD PUSH0 NOT PUSH1 0x3 DUP8 SWAP1 SHL PUSH1 0xF8 AND SHR NOT AND DUP2 SSTORE JUMPDEST POP POP POP POP PUSH1 0x1 SWAP1 DUP2 SHL ADD SWAP1 SSTORE POP JUMP JUMPDEST PUSH0 PUSH1 0x20 DUP3 DUP5 SUB SLT ISZERO PUSH2 0x5F5 JUMPI PUSH0 PUSH0 REVERT JUMPDEST DUP2 MLOAD PUSH1 0x1 PUSH1 0x1 PUSH1 0x40 SHL SUB DUP2 AND DUP2 EQ PUSH2 0x48C JUMPI PUSH0 PUSH0 REVERT JUMPDEST PUSH0 PUSH1 0x1 PUSH1 0x1 PUSH1 0x40 SHL SUB DUP4 AND DUP1 PUSH2 0x62F JUMPI PUSH4 0x4E487B71 PUSH1 0xE0 SHL PUSH0 MSTORE PUSH1 0x12 PUSH1 0x4 MSTORE PUSH1 0x24 PUSH0 REVERT JUMPDEST PUSH1 0x1 PUSH1 0x1 PUSH1 0x40 SHL SUB SWAP3 SWAP1 SWAP3 AND SWAP2 SWAP1 SWAP2 MOD SWAP3 SWAP2 POP POP JUMP JUMPDEST PUSH4 0x4E487B71 PUSH1 0xE0 SHL PUSH0 MSTORE PUSH1 0x11 PUSH1 0x4 MSTORE PUSH1 0x24 PUSH0 REVERT JUMPDEST PUSH1 0x1 DUP2 JUMPDEST PUSH1 0x1 DUP5 GT ISZERO PUSH2 0x694 JUMPI DUP1 DUP6 DIV DUP2 GT ISZERO PUSH2 0x678 JUMPI PUSH2 0x678 PUSH2 0x645 JUMP JUMPDEST PUSH1 0x1 DUP5 AND ISZERO PUSH2 0x686 JUMPI SWAP1 DUP2 MUL SWAP1 JUMPDEST PUSH1 0x1 SWAP4 SWAP1 SWAP4 SHR SWAP3 DUP1 MUL PUSH2 0x65D JUMP JUMPDEST SWAP4 POP SWAP4 SWAP2 POP POP JUMP JUMPDEST PUSH0 DUP3 PUSH2 0x6AA JUMPI POP PUSH1 0x1 PUSH2 0x738 JUMP JUMPDEST DUP2 PUSH2 0x6B6 JUMPI POP PUSH0 PUSH2 0x738 JUMP JUMPDEST DUP2 PUSH1 0x1 DUP2 EQ PUSH2 0x6CC JUMPI PUSH1 0x2 DUP2 EQ PUSH2 0x6D6 JUMPI PUSH2 0x6F2 JUMP JUMPDEST PUSH1 0x1 SWAP2 POP POP PUSH2 0x738 JUMP JUMPDEST PUSH1 0xFF DUP5 GT ISZERO PUSH2 0x6E7 JUMPI PUSH2 0x6E7 PUSH2 0x645 JUMP JUMPDEST POP POP PUSH1 0x1 DUP3 SHL PUSH2 0x738 JUMP JUMPDEST POP PUSH1 0x20 DUP4 LT PUSH2 0x133 DUP4 LT AND PUSH1 0x4E DUP5 LT PUSH1 0xB DUP5 LT AND OR ISZERO PUSH2 0x715 JUMPI POP DUP2 DUP2 EXP PUSH2 0x738 JUMP JUMPDEST PUSH2 0x721 PUSH0 NOT DUP5 DUP5 PUSH2 0x659 JUMP JUMPDEST DUP1 PUSH0 NOT DIV DUP3 GT ISZERO PUSH2 0x734 JUMPI PUSH2 0x734 PUSH2 0x645 JUMP JUMPDEST MUL SWAP1 POP JUMPDEST SWAP3 SWAP2 POP POP JUMP JUMPDEST PUSH0 PUSH2 0x48C PUSH1 0xFF DUP5 AND DUP4 PUSH2 0x69C JUMP JUMPDEST DUP1 DUP3 MUL DUP2 ISZERO DUP3 DUP3 DIV DUP5 EQ OR PUSH2 0x738 JUMPI PUSH2 0x738 PUSH2 0x645 JUMP JUMPDEST PUSH0 PUSH1 0x20 DUP3 DUP5 SUB SLT ISZERO PUSH2 0x773 JUMPI PUSH0 PUSH0 REVERT JUMPDEST POP MLOAD SWAP2 SWAP1 POP JUMP JUMPDEST PUSH2 0x2AA2 DUP1 PUSH2 0x787 PUSH0 CODECOPY PUSH0 RETURN INVALID PUSH1 0x80 PUSH1 0x40 MSTORE CALLVALUE DUP1 ISZERO PUSH2 0xF JUMPI PUSH0 PUSH0 REVERT JUMPDEST POP PUSH1 0x4 CALLDATASIZE LT PUSH2 0x225 JUMPI PUSH0 CALLDATALOAD PUSH1 0xE0 SHR DUP1 PUSH4 0x7065CB48 GT PUSH2 0x135 JUMPI DUP1 PUSH4 0xA9059CBB GT PUSH2 0xB4 JUMPI DUP1 PUSH4 0xDD62ED3E GT PUSH2 0x79 JUMPI DUP1 PUSH4 0xDD62ED3E EQ PUSH2 0x4E2 JUMPI DUP1 PUSH4 0xDFF55141 EQ PUSH2 0x4F5 JUMPI DUP1 PUSH4 0xF4E6C93F EQ PUSH2 0x533 JUMPI DUP1 PUSH4 0xF5CF7EEB EQ PUSH2 0x53B JUMPI DUP1 PUSH4 0xFF762044 EQ PUSH2 0x54E JUMPI PUSH0 PUSH0 REVERT JUMPDEST DUP1 PUSH4 0xA9059CBB EQ PUSH2 0x4A3 JUMPI DUP1 PUSH4 0xAC8F5EAD EQ PUSH2 0x4B6 JUMPI DUP1 PUSH4 0xC9B0A2A7 EQ PUSH2 0x4BE JUMPI DUP1 PUSH4 0xD3DC2A0F EQ PUSH2 0x4CB JUMPI DUP1 PUSH4 0xD5ABEB01 EQ PUSH2 0x4D9 JUMPI PUSH0 PUSH0 REVERT JUMPDEST DUP1 PUSH4 0x95D89B41 GT PUSH2 0xFA JUMPI DUP1 PUSH4 0x95D89B41 EQ PUSH2 0x459 JUMPI DUP1 PUSH4 0x9C3EB892 EQ PUSH2 0x461 JUMPI DUP1 PUSH4 0x9DCBF7EA EQ PUSH2 0x474 JUMPI DUP1 PUSH4 0x9F7051F5 EQ PUSH2 0x487 JUMPI DUP1 PUSH4 0xA138DA0B EQ PUSH2 0x49A JUMPI PUSH0 PUSH0 REVERT JUMPDEST DUP1 PUSH4 0x7065CB48 EQ PUSH2 0x3E5 JUMPI DUP1 PUSH4 0x70A08231 EQ PUSH2 0x3F8 JUMPI DUP1 PUSH4 0x79372F9A EQ PUSH2 0x420 JUMPI DUP1 PUSH4 0x7AC5D8A9 EQ PUSH2 0x428 JUMPI DUP1 PUSH4 0x8DA5CB5B EQ PUSH2 0x453 JUMPI PUSH0 PUSH0 REVERT JUMPDEST DUP1 PUSH4 0x313CE567 GT PUSH2 0x1C1 JUMPI DUP1 PUSH4 0x666E1B39 GT PUSH2 0x186 JUMPI DUP1 PUSH4 0x666E1B39 EQ PUSH2 0x379 JUMPI DUP1 PUSH4 0x6872FC3C EQ PUSH2 0x38C JUMPI DUP1 PUSH4 0x6A61344B EQ PUSH2 0x3AC JUMPI DUP1 PUSH4 0x6F55E4FC EQ PUSH2 0x3BF JUMPI DUP1 PUSH4 0x6FB7329C EQ PUSH2 0x3D2 JUMPI PUSH0 PUSH0 REVERT JUMPDEST DUP1 PUSH4 0x313CE567 EQ PUSH2 0x313 JUMPI DUP1 PUSH4 0x38BF3CFA EQ PUSH2 0x322 JUMPI DUP1 PUSH4 0x4FA0289F EQ PUSH2 0x335 JUMPI DUP1 PUSH4 0x5A9DEF04 EQ PUSH2 0x33D JUMPI DUP1 PUSH4 0x5C9302C9 EQ PUSH2 0x370 JUMPI PUSH0 PUSH0 REVERT JUMPDEST DUP1 PUSH4 0x6FDDE03 EQ PUSH2 0x229 JUMPI DUP1 PUSH4 0x764C80C EQ PUSH2 0x247 JUMPI DUP1 PUSH4 0x95EA7B3 EQ PUSH2 0x25C JUMPI DUP1 PUSH4 0x11CFD2B2 EQ PUSH2 0x27F JUMPI DUP1 PUSH4 0x18160DDD EQ PUSH2 0x2A0 JUMPI DUP1 PUSH4 0x222838DB EQ PUSH2 0x2B2 JUMPI DUP1 PUSH4 0x23B872DD EQ PUSH2 0x2C5 JUMPI DUP1 PUSH4 0x2499A533 EQ PUSH2 0x2D8 JUMPI DUP1 PUSH4 0x2B83B1FC EQ PUSH2 0x2EB JUMPI JUMPDEST PUSH0 PUSH0 REVERT JUMPDEST PUSH2 0x231 PUSH2 0x57C JUMP JUMPDEST PUSH1 0x40 MLOAD PUSH2 0x23E SWAP2 SWAP1 PUSH2 0x1FE4 JUMP JUMPDEST PUSH1 0x40 MLOAD DUP1 SWAP2 SUB SWAP1 RETURN JUMPDEST PUSH2 0x25A PUSH2 0x255 CALLDATASIZE PUSH1 0x4 PUSH2 0x2011 JUMP JUMPDEST PUSH2 0x60C JUMP JUMPDEST STOP JUMPDEST PUSH2 0x26F PUSH2 0x26A CALLDATASIZE PUSH1 0x4 PUSH2 0x202C JUMP JUMPDEST PUSH2 0xA09 JUMP JUMPDEST PUSH1 0x40 MLOAD SWAP1 ISZERO ISZERO DUP2 MSTORE PUSH1 0x20 ADD PUSH2 0x23E JUMP JUMPDEST PUSH1 0xD SLOAD PUSH2 0x28D SWAP1 PUSH2 0xFFFF AND DUP2 JUMP JUMPDEST PUSH1 0x40 MLOAD PUSH2 0xFFFF SWAP1 SWAP2 AND DUP2 MSTORE PUSH1 0x20 ADD PUSH2 0x23E JUMP JUMPDEST PUSH1 0x3 SLOAD JUMPDEST PUSH1 0x40 MLOAD SWAP1 DUP2 MSTORE PUSH1 0x20 ADD PUSH2 0x23E JUMP JUMPDEST PUSH2 0x25A PUSH2 0x2C0 CALLDATASIZE PUSH1 0x4 PUSH2 0x202C JUMP JUMPDEST PUSH2 0xA22 JUMP JUMPDEST PUSH2 0x26F PUSH2 0x2D3 CALLDATASIZE PUSH1 0x4 PUSH2 0x2056 JUMP JUMPDEST PUSH2 0xC24 JUMP JUMPDEST PUSH2 0x25A PUSH2 0x2E6 CALLDATASIZE PUSH1 0x4 PUSH2 0x202C JUMP JUMPDEST PUSH2 0xC47 JUMP JUMPDEST PUSH2 0x2A4 PUSH2 0x2F9 CALLDATASIZE PUSH1 0x4 PUSH2 0x2011 JUMP JUMPDEST PUSH1 0x1 PUSH1 0x1 PUSH1 0xA0 SHL SUB AND PUSH0 SWAP1 DUP2 MSTORE PUSH1 0x8 PUSH1 0x20 MSTORE PUSH1 0x40 SWAP1 KECCAK256 SLOAD SWAP1 JUMP JUMPDEST PUSH1 0x40 MLOAD PUSH1 0x12 DUP2 MSTORE PUSH1 0x20 ADD PUSH2 0x23E JUMP JUMPDEST PUSH2 0x25A PUSH2 0x330 CALLDATASIZE PUSH1 0x4 PUSH2 0x2011 JUMP JUMPDEST PUSH2 0xDFA JUMP JUMPDEST PUSH1 0x11 SLOAD PUSH2 0x2A4 JUMP JUMPDEST PUSH2 0x350 PUSH2 0x34B CALLDATASIZE PUSH1 0x4 PUSH2 0x20A8 JUMP JUMPDEST PUSH2 0xE0F JUMP JUMPDEST PUSH1 0x40 DUP1 MLOAD PUSH1 0x1 PUSH1 0x1 PUSH1 0x40 SHL SUB SWAP4 DUP5 AND DUP2 MSTORE SWAP3 SWAP1 SWAP2 AND PUSH1 0x20 DUP4 ADD MSTORE ADD PUSH2 0x23E JUMP JUMPDEST PUSH2 0x2A4 PUSH1 0xE SLOAD DUP2 JUMP JUMPDEST PUSH2 0x26F PUSH2 0x387 CALLDATASIZE PUSH1 0x4 PUSH2 0x2011 JUMP JUMPDEST PUSH2 0x122B JUMP JUMPDEST PUSH1 0x9 SLOAD PUSH2 0x39F SWAP1 PUSH1 0x1 PUSH1 0x1 PUSH1 0xA0 SHL SUB AND DUP2 JUMP JUMPDEST PUSH1 0x40 MLOAD PUSH2 0x23E SWAP2 SWAP1 PUSH2 0x20DF JUMP JUMPDEST PUSH2 0x25A PUSH2 0x3BA CALLDATASIZE PUSH1 0x4 PUSH2 0x20F3 JUMP JUMPDEST PUSH2 0x1248 JUMP JUMPDEST PUSH2 0x25A PUSH2 0x3CD CALLDATASIZE PUSH1 0x4 PUSH2 0x2215 JUMP JUMPDEST PUSH2 0x1335 JUMP JUMPDEST PUSH1 0x6 SLOAD PUSH2 0x39F SWAP1 PUSH1 0x1 PUSH1 0x1 PUSH1 0xA0 SHL SUB AND DUP2 JUMP JUMPDEST PUSH2 0x25A PUSH2 0x3F3 CALLDATASIZE PUSH1 0x4 PUSH2 0x2011 JUMP JUMPDEST PUSH2 0x1485 JUMP JUMPDEST PUSH2 0x2A4 PUSH2 0x406 CALLDATASIZE PUSH1 0x4 PUSH2 0x2011 JUMP JUMPDEST PUSH1 0x1 PUSH1 0x1 PUSH1 0xA0 SHL SUB AND PUSH0 SWAP1 DUP2 MSTORE PUSH1 0x1 PUSH1 0x20 MSTORE PUSH1 0x40 SWAP1 KECCAK256 SLOAD SWAP1 JUMP JUMPDEST PUSH2 0x25A PUSH2 0x14C5 JUMP JUMPDEST PUSH1 0xB SLOAD PUSH2 0x43B SWAP1 PUSH1 0x1 PUSH1 0x1 PUSH1 0x40 SHL SUB AND DUP2 JUMP JUMPDEST PUSH1 0x40 MLOAD PUSH1 0x1 PUSH1 0x1 PUSH1 0x40 SHL SUB SWAP1 SWAP2 AND DUP2 MSTORE PUSH1 0x20 ADD PUSH2 0x23E JUMP JUMPDEST ADDRESS PUSH2 0x39F JUMP JUMPDEST PUSH2 0x231 PUSH2 0x1668 JUMP JUMPDEST PUSH2 0x25A PUSH2 0x46F CALLDATASIZE PUSH1 0x4 PUSH2 0x2246 JUMP JUMPDEST PUSH2 0x1677 JUMP JUMPDEST PUSH2 0x25A PUSH2 0x482 CALLDATASIZE PUSH1 0x4 PUSH2 0x2266 JUMP JUMPDEST PUSH2 0x169D JUMP JUMPDEST PUSH2 0x25A PUSH2 0x495 CALLDATASIZE PUSH1 0x4 PUSH2 0x2246 JUMP JUMPDEST PUSH2 0x16C3 JUMP JUMPDEST PUSH2 0x2A4 PUSH1 0xA SLOAD DUP2 JUMP JUMPDEST PUSH2 0x26F PUSH2 0x4B1 CALLDATASIZE PUSH1 0x4 PUSH2 0x202C JUMP JUMPDEST PUSH2 0x16E7 JUMP JUMPDEST PUSH2 0x25A PUSH2 0x16F4 JUMP JUMPDEST PUSH1 0x12 SLOAD PUSH2 0x26F SWAP1 PUSH1 0xFF AND DUP2 JUMP JUMPDEST PUSH2 0x43B PUSH7 0x3632C8EB5AF3B DUP2 JUMP JUMPDEST PUSH2 0x2A4 PUSH1 0x7 SLOAD DUP2 JUMP JUMPDEST PUSH2 0x2A4 PUSH2 0x4F0 CALLDATASIZE PUSH1 0x4 PUSH2 0x22C9 JUMP JUMPDEST PUSH2 0x178B JUMP JUMPDEST PUSH2 0x508 PUSH2 0x503 CALLDATASIZE PUSH1 0x4 PUSH2 0x20F3 JUMP JUMPDEST PUSH2 0x17B5 JUMP JUMPDEST PUSH1 0x40 DUP1 MLOAD DUP3 MLOAD PUSH1 0x1 PUSH1 0x1 PUSH1 0x40 SHL SUB AND DUP2 MSTORE PUSH1 0x20 DUP1 DUP5 ADD MLOAD SWAP1 DUP3 ADD MSTORE SWAP2 DUP2 ADD MLOAD SWAP1 DUP3 ADD MSTORE PUSH1 0x60 ADD PUSH2 0x23E JUMP JUMPDEST PUSH2 0x25A PUSH2 0x1822 JUMP JUMPDEST PUSH2 0x25A PUSH2 0x549 CALLDATASIZE PUSH1 0x4 PUSH2 0x2246 JUMP JUMPDEST PUSH2 0x1834 JUMP JUMPDEST PUSH2 0x231 PUSH1 0x40 MLOAD DUP1 PUSH1 0x40 ADD PUSH1 0x40 MSTORE DUP1 PUSH1 0xF DUP2 MSTORE PUSH1 0x20 ADD PUSH15 0x54726164696E672052657761726473 PUSH1 0x88 SHL DUP2 MSTORE POP DUP2 JUMP JUMPDEST PUSH1 0x60 PUSH1 0x4 DUP1 SLOAD PUSH2 0x58B SWAP1 PUSH2 0x22F5 JUMP JUMPDEST DUP1 PUSH1 0x1F ADD PUSH1 0x20 DUP1 SWAP2 DIV MUL PUSH1 0x20 ADD PUSH1 0x40 MLOAD SWAP1 DUP2 ADD PUSH1 0x40 MSTORE DUP1 SWAP3 SWAP2 SWAP1 DUP2 DUP2 MSTORE PUSH1 0x20 ADD DUP3 DUP1 SLOAD PUSH2 0x5B7 SWAP1 PUSH2 0x22F5 JUMP JUMPDEST DUP1 ISZERO PUSH2 0x602 JUMPI DUP1 PUSH1 0x1F LT PUSH2 0x5D9 JUMPI PUSH2 0x100 DUP1 DUP4 SLOAD DIV MUL DUP4 MSTORE SWAP2 PUSH1 0x20 ADD SWAP2 PUSH2 0x602 JUMP JUMPDEST DUP3 ADD SWAP2 SWAP1 PUSH0 MSTORE PUSH1 0x20 PUSH0 KECCAK256 SWAP1 JUMPDEST DUP2 SLOAD DUP2 MSTORE SWAP1 PUSH1 0x1 ADD SWAP1 PUSH1 0x20 ADD DUP1 DUP4 GT PUSH2 0x5E5 JUMPI DUP3 SWAP1 SUB PUSH1 0x1F AND DUP3 ADD SWAP2 JUMPDEST POP POP POP POP POP SWAP1 POP SWAP1 JUMP JUMPDEST PUSH1 0x9 SLOAD PUSH1 0x40 MLOAD PUSH4 0x1BD173A9 PUSH1 0xE1 SHL DUP2 MSTORE PUSH0 SWAP2 PUSH1 0x1 PUSH1 0x1 PUSH1 0xA0 SHL SUB AND SWAP1 PUSH4 0x37A2E752 SWAP1 PUSH2 0x63C SWAP1 DUP6 SWAP1 PUSH1 0x4 ADD PUSH2 0x20DF JUMP JUMPDEST PUSH0 PUSH1 0x40 MLOAD DUP1 DUP4 SUB DUP2 PUSH0 DUP8 GAS CALL ISZERO DUP1 ISZERO PUSH2 0x657 JUMPI RETURNDATASIZE PUSH0 PUSH0 RETURNDATACOPY RETURNDATASIZE PUSH0 REVERT JUMPDEST POP POP POP POP PUSH1 0x40 MLOAD RETURNDATASIZE PUSH0 DUP3 RETURNDATACOPY PUSH1 0x1F RETURNDATASIZE SWAP1 DUP2 ADD PUSH1 0x1F NOT AND DUP3 ADD PUSH1 0x40 MSTORE PUSH2 0x67E SWAP2 SWAP1 DUP2 ADD SWAP1 PUSH2 0x2395 JUMP JUMPDEST DUP1 MLOAD PUSH1 0x1 PUSH1 0x1 PUSH1 0x40 SHL SUB SWAP1 DUP2 AND PUSH0 DUP2 DUP2 MSTORE PUSH1 0x10 PUSH1 0x20 MSTORE PUSH1 0x40 SWAP1 KECCAK256 SLOAD SWAP3 SWAP4 POP SWAP2 AND SUB PUSH2 0x6A7 JUMPI POP POP JUMP JUMPDEST DUP1 MLOAD PUSH1 0x11 DUP1 SLOAD PUSH1 0x1 DUP2 ADD DUP3 SSTORE PUSH0 SWAP2 SWAP1 SWAP2 MSTORE PUSH32 0x31ECC21A745E3968A04E9570E4425BC18FA8019C68028196B546D1669C200C68 PUSH1 0x4 DUP3 DIV ADD DUP1 SLOAD PUSH1 0x3 SWAP1 SWAP3 AND PUSH1 0x8 MUL PUSH2 0x100 EXP PUSH1 0x1 PUSH1 0x1 PUSH1 0x40 SHL SUB DUP2 DUP2 MUL NOT SWAP1 SWAP4 AND SWAP3 SWAP1 SWAP4 AND SWAP3 SWAP1 SWAP3 MUL OR SWAP1 SSTORE DUP1 MLOAD PUSH1 0x40 DUP1 DUP4 ADD MLOAD SWAP1 MLOAD PUSH32 0xD528BE9A363520A26D88293A7043157DE151D2745A3DDBB353A0CAA71BBC18B4 SWAP3 PUSH2 0x73D SWAP3 SWAP1 SWAP2 PUSH2 0x24D3 JUMP JUMPDEST PUSH1 0x40 MLOAD DUP1 SWAP2 SUB SWAP1 LOG1 DUP1 MLOAD PUSH1 0x9 SLOAD PUSH1 0x40 DUP1 MLOAD PUSH4 0x3D3DB08B PUSH1 0xE2 SHL DUP2 MSTORE SWAP1 MLOAD PUSH2 0x89D SWAP4 SWAP3 PUSH1 0x1 PUSH1 0x1 PUSH1 0xA0 SHL SUB AND SWAP2 PUSH4 0xF4F6C22C SWAP2 PUSH1 0x4 DUP1 DUP4 ADD SWAP3 PUSH1 0x20 SWAP3 SWAP2 SWAP1 DUP3 SWAP1 SUB ADD DUP2 DUP7 GAS STATICCALL ISZERO DUP1 ISZERO PUSH2 0x791 JUMPI RETURNDATASIZE PUSH0 PUSH0 RETURNDATACOPY RETURNDATASIZE PUSH0 REVERT JUMPDEST POP POP POP POP PUSH1 0x40 MLOAD RETURNDATASIZE PUSH1 0x1F NOT PUSH1 0x1F DUP3 ADD AND DUP3 ADD DUP1 PUSH1 0x40 MSTORE POP DUP2 ADD SWAP1 PUSH2 0x7B5 SWAP2 SWAP1 PUSH2 0x24F4 JUMP JUMPDEST PUSH1 0x1 PUSH1 0x1 PUSH1 0xA0 SHL SUB AND PUSH4 0x9FF43001 PUSH1 0x40 MLOAD DUP2 PUSH4 0xFFFFFFFF AND PUSH1 0xE0 SHL DUP2 MSTORE PUSH1 0x4 ADD PUSH1 0x20 PUSH1 0x40 MLOAD DUP1 DUP4 SUB DUP2 PUSH0 DUP8 GAS CALL ISZERO DUP1 ISZERO PUSH2 0x7F1 JUMPI RETURNDATASIZE PUSH0 PUSH0 RETURNDATACOPY RETURNDATASIZE PUSH0 REVERT JUMPDEST POP POP POP POP PUSH1 0x40 MLOAD RETURNDATASIZE PUSH1 0x1F NOT PUSH1 0x1F DUP3 ADD AND DUP3 ADD DUP1 PUSH1 0x40 MSTORE POP DUP2 ADD SWAP1 PUSH2 0x815 SWAP2 SWAP1 PUSH2 0x24F4 JUMP JUMPDEST PUSH1 0x1 PUSH1 0x1 PUSH1 0xA0 SHL SUB AND PUSH4 0x27BACC40 PUSH1 0x40 MLOAD DUP2 PUSH4 0xFFFFFFFF AND PUSH1 0xE0 SHL DUP2 MSTORE PUSH1 0x4 ADD PUSH1 0x20 PUSH1 0x40 MLOAD DUP1 DUP4 SUB DUP2 DUP7 GAS STATICCALL ISZERO DUP1 ISZERO PUSH2 0x850 JUMPI RETURNDATASIZE PUSH0 PUSH0 RETURNDATACOPY RETURNDATASIZE PUSH0 REVERT JUMPDEST POP POP POP POP PUSH1 0x40 MLOAD RETURNDATASIZE PUSH1 0x1F NOT PUSH1 0x1F DUP3 ADD AND DUP3 ADD DUP1 PUSH1 0x40 MSTORE POP DUP2 ADD SWAP1 PUSH2 0x874 SWAP2 SWAP1 PUSH2 0x250F JUMP JUMPDEST DUP4 PUSH1 0x40 ADD MLOAD PUSH1 0x40 MLOAD PUSH1 0x20 ADD PUSH2 0x889 SWAP2 SWAP1 PUSH2 0x2541 JUMP JUMPDEST PUSH1 0x40 MLOAD PUSH1 0x20 DUP2 DUP4 SUB SUB DUP2 MSTORE SWAP1 PUSH1 0x40 MSTORE PUSH2 0x1852 JUMP JUMPDEST DUP1 MLOAD PUSH1 0x1 PUSH1 0x1 PUSH1 0x40 SHL SUB SWAP1 DUP2 AND PUSH0 SWAP1 DUP2 MSTORE PUSH1 0x10 PUSH1 0x20 SWAP1 DUP2 MSTORE PUSH1 0x40 SWAP2 DUP3 SWAP1 KECCAK256 DUP5 MLOAD DUP2 SLOAD PUSH8 0xFFFFFFFFFFFFFFFF NOT AND SWAP1 DUP6 AND OR DUP2 SSTORE DUP2 DUP6 ADD MLOAD DUP1 MLOAD PUSH1 0x1 DUP4 ADD DUP1 SLOAD PUSH1 0x1 PUSH1 0x1 PUSH1 0xA0 SHL SUB NOT AND PUSH1 0x1 PUSH1 0x1 PUSH1 0xA0 SHL SUB SWAP3 DUP4 AND OR SWAP1 SSTORE SWAP3 DUP2 ADD MLOAD PUSH1 0x2 DUP4 ADD DUP1 SLOAD DUP4 DUP8 ADD MLOAD SWAP3 DUP7 AND PUSH1 0x1 PUSH1 0x1 PUSH1 0xE0 SHL SUB NOT SWAP2 DUP3 AND OR PUSH1 0x1 PUSH1 0xA0 SHL SWAP4 DUP10 AND SWAP4 SWAP1 SWAP4 MUL SWAP3 SWAP1 SWAP3 OR SWAP1 SSTORE PUSH1 0x60 DUP3 ADD MLOAD PUSH1 0x3 DUP5 ADD DUP1 SLOAD PUSH1 0x80 DUP6 ADD MLOAD SWAP3 DUP10 AND SWAP4 AND SWAP3 SWAP1 SWAP3 OR PUSH1 0x1 PUSH1 0x40 SHL SWAP2 SWAP1 SWAP6 AND DUP2 MUL SWAP5 SWAP1 SWAP5 OR SWAP1 SSTORE PUSH1 0xA0 DUP2 ADD MLOAD PUSH1 0x4 DUP4 ADD DUP1 SLOAD PUSH1 0xC0 DUP5 ADD MLOAD PUSH1 0xE0 SWAP1 SWAP5 ADD MLOAD SWAP3 DUP9 AND PUSH1 0x1 PUSH1 0x1 PUSH1 0x80 SHL SUB NOT SWAP1 SWAP2 AND OR SWAP3 DUP8 AND SWAP1 SWAP5 MUL SWAP2 SWAP1 SWAP2 OR PUSH8 0xFFFFFFFFFFFFFFFF PUSH1 0x80 SHL NOT AND PUSH1 0x1 PUSH1 0x80 SHL SWAP2 SWAP1 SWAP6 AND MUL SWAP4 SWAP1 SWAP4 OR SWAP1 SSTORE DUP3 ADD MLOAD DUP3 SWAP2 SWAP1 PUSH1 0x5 DUP3 ADD SWAP1 PUSH2 0x9B1 SWAP1 DUP3 PUSH2 0x25B5 JUMP JUMPDEST POP PUSH1 0x60 SWAP2 SWAP1 SWAP2 ADD MLOAD PUSH1 0x6 SWAP1 SWAP2 ADD DUP1 SLOAD PUSH8 0xFFFFFFFFFFFFFFFF NOT AND PUSH1 0x1 PUSH1 0x1 PUSH1 0x40 SHL SUB SWAP1 SWAP3 AND SWAP2 SWAP1 SWAP2 OR SWAP1 SSTORE PUSH1 0x12 SLOAD PUSH1 0xFF AND ISZERO DUP1 ISZERO PUSH2 0x9F8 JUMPI POP PUSH1 0xF SLOAD PUSH1 0x11 SLOAD PUSH1 0xFF SWAP1 SWAP2 AND GT ISZERO JUMPDEST ISZERO PUSH2 0xA05 JUMPI PUSH2 0xA05 PUSH2 0x1896 JUMP JUMPDEST POP POP JUMP JUMPDEST PUSH0 CALLER PUSH2 0xA16 DUP2 DUP6 DUP6 PUSH2 0x191F JUMP JUMPDEST PUSH1 0x1 SWAP2 POP POP JUMPDEST SWAP3 SWAP2 POP POP JUMP JUMPDEST PUSH1 0x1 PUSH1 0x1 PUSH1 0xA0 SHL SUB DUP3 AND PUSH0 SWAP1 DUP2 MSTORE PUSH1 0x8 PUSH1 0x20 MSTORE PUSH1 0x40 DUP2 KECCAK256 SLOAD SWAP1 SUB PUSH2 0xA64 JUMPI DUP2 PUSH1 0x40 MLOAD PUSH4 0x90B23441 PUSH1 0xE0 SHL DUP2 MSTORE PUSH1 0x4 ADD PUSH2 0xA5B SWAP2 SWAP1 PUSH2 0x20DF JUMP JUMPDEST PUSH1 0x40 MLOAD DUP1 SWAP2 SUB SWAP1 REVERT JUMPDEST DUP2 PUSH0 PUSH2 0xA72 PUSH1 0x12 PUSH1 0xA PUSH2 0x2766 JUMP JUMPDEST PUSH1 0x1 PUSH1 0x1 PUSH1 0xA0 SHL SUB DUP6 AND PUSH0 SWAP1 DUP2 MSTORE PUSH1 0x8 PUSH1 0x20 MSTORE PUSH1 0x40 SWAP1 KECCAK256 SLOAD PUSH2 0xA94 SWAP1 DUP6 PUSH2 0x2774 JUMP JUMPDEST PUSH2 0xA9E SWAP2 SWAP1 PUSH2 0x278B JUMP JUMPDEST PUSH1 0x40 MLOAD PUSH4 0x23B872DD PUSH1 0xE0 SHL DUP2 MSTORE SWAP1 SWAP2 POP PUSH0 SWAP1 ADDRESS SWAP1 PUSH4 0x23B872DD SWAP1 PUSH2 0xACA SWAP1 CALLER SWAP1 DUP5 SWAP1 DUP10 SWAP1 PUSH1 0x4 ADD PUSH2 0x27AA JUMP JUMPDEST PUSH1 0x20 PUSH1 0x40 MLOAD DUP1 DUP4 SUB DUP2 PUSH0 DUP8 GAS CALL ISZERO DUP1 ISZERO PUSH2 0xAE6 JUMPI RETURNDATASIZE PUSH0 PUSH0 RETURNDATACOPY RETURNDATASIZE PUSH0 REVERT JUMPDEST POP POP POP POP PUSH1 0x40 MLOAD RETURNDATASIZE PUSH1 0x1F NOT PUSH1 0x1F DUP3 ADD AND DUP3 ADD DUP1 PUSH1 0x40 MSTORE POP DUP2 ADD SWAP1 PUSH2 0xB0A SWAP2 SWAP1 PUSH2 0x27CE JUMP JUMPDEST SWAP1 POP DUP1 ADDRESS PUSH1 0x1 PUSH1 0x1 PUSH1 0xA0 SHL SUB AND PUSH4 0x6FDDE03 PUSH1 0x40 MLOAD DUP2 PUSH4 0xFFFFFFFF AND PUSH1 0xE0 SHL DUP2 MSTORE PUSH1 0x4 ADD PUSH0 PUSH1 0x40 MLOAD DUP1 DUP4 SUB DUP2 DUP7 GAS STATICCALL ISZERO DUP1 ISZERO PUSH2 0xB48 JUMPI RETURNDATASIZE PUSH0 PUSH0 RETURNDATACOPY RETURNDATASIZE PUSH0 REVERT JUMPDEST POP POP POP POP PUSH1 0x40 MLOAD RETURNDATASIZE PUSH0 DUP3 RETURNDATACOPY PUSH1 0x1F RETURNDATASIZE SWAP1 DUP2 ADD PUSH1 0x1F NOT AND DUP3 ADD PUSH1 0x40 MSTORE PUSH2 0xB6F SWAP2 SWAP1 DUP2 ADD SWAP1 PUSH2 0x27ED JUMP JUMPDEST PUSH1 0x40 MLOAD PUSH1 0x20 ADD PUSH2 0xB7F SWAP2 SWAP1 PUSH2 0x281E JUMP JUMPDEST PUSH1 0x40 MLOAD PUSH1 0x20 DUP2 DUP4 SUB SUB DUP2 MSTORE SWAP1 PUSH1 0x40 MSTORE SWAP1 PUSH2 0xBAC JUMPI PUSH1 0x40 MLOAD PUSH3 0x461BCD PUSH1 0xE5 SHL DUP2 MSTORE PUSH1 0x4 ADD PUSH2 0xA5B SWAP2 SWAP1 PUSH2 0x1FE4 JUMP JUMPDEST POP PUSH1 0x40 MLOAD PUSH4 0xA9059CBB PUSH1 0xE0 SHL DUP2 MSTORE CALLER PUSH1 0x4 DUP3 ADD MSTORE PUSH1 0x24 DUP2 ADD DUP4 SWAP1 MSTORE PUSH1 0x1 PUSH1 0x1 PUSH1 0xA0 SHL SUB DUP5 AND SWAP1 PUSH4 0xA9059CBB SWAP1 PUSH1 0x44 ADD JUMPDEST PUSH1 0x20 PUSH1 0x40 MLOAD DUP1 DUP4 SUB DUP2 PUSH0 DUP8 GAS CALL ISZERO DUP1 ISZERO PUSH2 0xBF8 JUMPI RETURNDATASIZE PUSH0 PUSH0 RETURNDATACOPY RETURNDATASIZE PUSH0 REVERT JUMPDEST POP POP POP POP PUSH1 0x40 MLOAD RETURNDATASIZE PUSH1 0x1F NOT PUSH1 0x1F DUP3 ADD AND DUP3 ADD DUP1 PUSH1 0x40 MSTORE POP DUP2 ADD SWAP1 PUSH2 0xC1C SWAP2 SWAP1 PUSH2 0x27CE JUMP JUMPDEST POP POP POP POP POP POP JUMP JUMPDEST PUSH0 CALLER PUSH2 0xC31 DUP6 DUP3 DUP6 PUSH2 0x192C JUMP JUMPDEST PUSH2 0xC3C DUP6 DUP6 DUP6 PUSH2 0x1983 JUMP JUMPDEST POP PUSH1 0x1 SWAP5 SWAP4 POP POP POP POP JUMP JUMPDEST PUSH1 0x1 PUSH1 0x1 PUSH1 0xA0 SHL SUB DUP3 AND PUSH0 SWAP1 DUP2 MSTORE PUSH1 0x8 PUSH1 0x20 MSTORE PUSH1 0x40 DUP2 KECCAK256 SLOAD SWAP1 SUB PUSH2 0xC80 JUMPI DUP2 PUSH1 0x40 MLOAD PUSH4 0x90B23441 PUSH1 0xE0 SHL DUP2 MSTORE PUSH1 0x4 ADD PUSH2 0xA5B SWAP2 SWAP1 PUSH2 0x20DF JUMP JUMPDEST DUP2 PUSH0 PUSH2 0xC8E PUSH1 0x12 PUSH1 0xA PUSH2 0x2766 JUMP JUMPDEST PUSH1 0x1 PUSH1 0x1 PUSH1 0xA0 SHL SUB DUP6 AND PUSH0 SWAP1 DUP2 MSTORE PUSH1 0x8 PUSH1 0x20 MSTORE PUSH1 0x40 SWAP1 KECCAK256 SLOAD PUSH2 0xCB0 SWAP1 DUP6 PUSH2 0x2774 JUMP JUMPDEST PUSH2 0xCBA SWAP2 SWAP1 PUSH2 0x278B JUMP JUMPDEST SWAP1 POP PUSH0 DUP3 PUSH1 0x1 PUSH1 0x1 PUSH1 0xA0 SHL SUB AND PUSH4 0x23B872DD CALLER ADDRESS DUP6 PUSH1 0x40 MLOAD DUP5 PUSH4 0xFFFFFFFF AND PUSH1 0xE0 SHL DUP2 MSTORE PUSH1 0x4 ADD PUSH2 0xCED SWAP4 SWAP3 SWAP2 SWAP1 PUSH2 0x27AA JUMP JUMPDEST PUSH1 0x20 PUSH1 0x40 MLOAD DUP1 DUP4 SUB DUP2 PUSH0 DUP8 GAS CALL ISZERO DUP1 ISZERO PUSH2 0xD09 JUMPI RETURNDATASIZE PUSH0 PUSH0 RETURNDATACOPY RETURNDATASIZE PUSH0 REVERT JUMPDEST POP POP POP POP PUSH1 0x40 MLOAD RETURNDATASIZE PUSH1 0x1F NOT PUSH1 0x1F DUP3 ADD AND DUP3 ADD DUP1 PUSH1 0x40 MSTORE POP DUP2 ADD SWAP1 PUSH2 0xD2D SWAP2 SWAP1 PUSH2 0x27CE JUMP JUMPDEST SWAP1 POP DUP1 DUP4 PUSH1 0x1 PUSH1 0x1 PUSH1 0xA0 SHL SUB AND PUSH4 0x6FDDE03 PUSH1 0x40 MLOAD DUP2 PUSH4 0xFFFFFFFF AND PUSH1 0xE0 SHL DUP2 MSTORE PUSH1 0x4 ADD PUSH0 PUSH1 0x40 MLOAD DUP1 DUP4 SUB DUP2 DUP7 GAS STATICCALL ISZERO DUP1 ISZERO PUSH2 0xD6B JUMPI RETURNDATASIZE PUSH0 PUSH0 RETURNDATACOPY RETURNDATASIZE PUSH0 REVERT JUMPDEST POP POP POP POP PUSH1 0x40 MLOAD RETURNDATASIZE PUSH0 DUP3 RETURNDATACOPY PUSH1 0x1F RETURNDATASIZE SWAP1 DUP2 ADD PUSH1 0x1F NOT AND DUP3 ADD PUSH1 0x40 MSTORE PUSH2 0xD92 SWAP2 SWAP1 DUP2 ADD SWAP1 PUSH2 0x27ED JUMP JUMPDEST PUSH1 0x40 MLOAD PUSH1 0x20 ADD PUSH2 0xDA2 SWAP2 SWAP1 PUSH2 0x281E JUMP JUMPDEST PUSH1 0x40 MLOAD PUSH1 0x20 DUP2 DUP4 SUB SUB DUP2 MSTORE SWAP1 PUSH1 0x40 MSTORE SWAP1 PUSH2 0xDCF JUMPI PUSH1 0x40 MLOAD PUSH3 0x461BCD PUSH1 0xE5 SHL DUP2 MSTORE PUSH1 0x4 ADD PUSH2 0xA5B SWAP2 SWAP1 PUSH2 0x1FE4 JUMP JUMPDEST POP PUSH1 0x40 MLOAD PUSH4 0xA9059CBB PUSH1 0xE0 SHL DUP2 MSTORE CALLER PUSH1 0x4 DUP3 ADD MSTORE PUSH1 0x24 DUP2 ADD DUP6 SWAP1 MSTORE ADDRESS SWAP1 PUSH4 0xA9059CBB SWAP1 PUSH1 0x44 ADD PUSH2 0xBDC JUMP JUMPDEST PUSH2 0xE02 PUSH2 0x198E JUMP JUMPDEST PUSH2 0xE0C DUP2 PUSH0 PUSH2 0x19CE JUMP JUMPDEST POP JUMP JUMPDEST PUSH1 0x1 PUSH1 0x1 PUSH1 0x40 SHL SUB DUP1 DUP4 AND PUSH0 SWAP1 DUP2 MSTORE PUSH1 0x10 PUSH1 0x20 MSTORE PUSH1 0x40 DUP2 KECCAK256 SLOAD SWAP1 SWAP2 DUP3 SWAP2 AND DUP2 SUB PUSH2 0xE69 JUMPI PUSH1 0x1 PUSH1 0x1 PUSH1 0x40 SHL SUB DUP5 DUP2 AND PUSH0 SWAP1 DUP2 MSTORE PUSH1 0x10 PUSH1 0x20 MSTORE PUSH1 0x40 SWAP1 DUP2 SWAP1 KECCAK256 SLOAD SWAP1 MLOAD PUSH4 0xA27710C1 PUSH1 0xE0 SHL DUP2 MSTORE SWAP2 AND PUSH1 0x4 DUP3 ADD MSTORE PUSH1 0x24 ADD PUSH2 0xA5B JUMP JUMPDEST PUSH1 0x9 PUSH0 SWAP1 SLOAD SWAP1 PUSH2 0x100 EXP SWAP1 DIV PUSH1 0x1 PUSH1 0x1 PUSH1 0xA0 SHL SUB AND PUSH1 0x1 PUSH1 0x1 PUSH1 0xA0 SHL SUB AND PUSH4 0x929C6CA9 PUSH1 0x40 MLOAD DUP2 PUSH4 0xFFFFFFFF AND PUSH1 0xE0 SHL DUP2 MSTORE PUSH1 0x4 ADD PUSH1 0x20 PUSH1 0x40 MLOAD DUP1 DUP4 SUB DUP2 DUP7 GAS STATICCALL ISZERO DUP1 ISZERO PUSH2 0xEB9 JUMPI RETURNDATASIZE PUSH0 PUSH0 RETURNDATACOPY RETURNDATASIZE PUSH0 REVERT JUMPDEST POP POP POP POP PUSH1 0x40 MLOAD RETURNDATASIZE PUSH1 0x1F NOT PUSH1 0x1F DUP3 ADD AND DUP3 ADD DUP1 PUSH1 0x40 MSTORE POP DUP2 ADD SWAP1 PUSH2 0xEDD SWAP2 SWAP1 PUSH2 0x24F4 JUMP JUMPDEST PUSH1 0x1 PUSH1 0x1 PUSH1 0xA0 SHL SUB AND PUSH4 0x679B9538 PUSH1 0x9 PUSH0 SWAP1 SLOAD SWAP1 PUSH2 0x100 EXP SWAP1 DIV PUSH1 0x1 PUSH1 0x1 PUSH1 0xA0 SHL SUB AND PUSH1 0x1 PUSH1 0x1 PUSH1 0xA0 SHL SUB AND PUSH4 0xC0FF5328 PUSH1 0x40 MLOAD DUP2 PUSH4 0xFFFFFFFF AND PUSH1 0xE0 SHL DUP2 MSTORE PUSH1 0x4 ADD PUSH1 0x20 PUSH1 0x40 MLOAD DUP1 DUP4 SUB DUP2 DUP7 GAS STATICCALL ISZERO DUP1 ISZERO PUSH2 0xF3B JUMPI RETURNDATASIZE PUSH0 PUSH0 RETURNDATACOPY RETURNDATASIZE PUSH0 REVERT JUMPDEST POP POP POP POP PUSH1 0x40 MLOAD RETURNDATASIZE PUSH1 0x1F NOT PUSH1 0x1F DUP3 ADD AND DUP3 ADD DUP1 PUSH1 0x40 MSTORE POP DUP2 ADD SWAP1 PUSH2 0xF5F SWAP2 SWAP1 PUSH2 0x24F4 JUMP JUMPDEST PUSH1 0x1 PUSH1 0x1 PUSH1 0x40 SHL SUB DUP1 DUP9 AND PUSH0 SWAP1 DUP2 MSTORE PUSH1 0x10 PUSH1 0x20 MSTORE PUSH1 0x40 SWAP1 DUP2 SWAP1 KECCAK256 PUSH1 0x4 SWAP1 DUP2 ADD SLOAD SWAP2 MLOAD PUSH1 0x1 PUSH1 0x1 PUSH1 0xE0 SHL SUB NOT PUSH1 0xE0 DUP8 SWAP1 SHL AND DUP2 MSTORE PUSH2 0xFAB SWAP5 SWAP4 PUSH1 0x1 PUSH1 0x40 SHL SWAP1 SWAP4 DIV SWAP1 SWAP3 AND DUP10 XOR SWAP2 ADD PUSH2 0x2840 JUMP JUMPDEST PUSH1 0x40 DUP1 MLOAD DUP1 DUP4 SUB DUP2 PUSH0 DUP8 GAS CALL ISZERO DUP1 ISZERO PUSH2 0xFC6 JUMPI RETURNDATASIZE PUSH0 PUSH0 RETURNDATACOPY RETURNDATASIZE PUSH0 REVERT JUMPDEST POP POP POP POP PUSH1 0x40 MLOAD RETURNDATASIZE PUSH1 0x1F NOT PUSH1 0x1F DUP3 ADD AND DUP3 ADD DUP1 PUSH1 0x40 MSTORE POP DUP2 ADD SWAP1 PUSH2 0xFEA SWAP2 SWAP1 PUSH2 0x2862 JUMP JUMPDEST PUSH1 0x1 PUSH1 0x1 PUSH1 0x40 SHL SUB DUP1 DUP8 AND PUSH0 SWAP1 DUP2 MSTORE PUSH1 0x10 PUSH1 0x20 SWAP1 DUP2 MSTORE PUSH1 0x40 SWAP2 DUP3 SWAP1 KECCAK256 PUSH1 0x4 SWAP1 DUP2 ADD DUP1 SLOAD SWAP7 DUP6 AND PUSH1 0x1 PUSH1 0x40 SHL MUL PUSH8 0xFFFFFFFFFFFFFFFF PUSH1 0x40 SHL NOT SWAP7 SWAP1 SWAP6 AND PUSH1 0x1 PUSH1 0x80 SHL MUL SWAP6 SWAP1 SWAP6 AND PUSH1 0x1 PUSH1 0x40 SHL PUSH1 0x1 PUSH1 0xC0 SHL SUB NOT SWAP1 SWAP7 AND SWAP6 SWAP1 SWAP6 OR SWAP3 SWAP1 SWAP3 OR SWAP1 SWAP3 SSTORE PUSH1 0x9 SLOAD DUP3 MLOAD PUSH4 0x929C6CA9 PUSH1 0xE0 SHL DUP2 MSTORE SWAP3 MLOAD PUSH1 0x1 PUSH1 0x1 PUSH1 0xA0 SHL SUB SWAP1 SWAP2 AND SWAP4 PUSH4 0x929C6CA9 SWAP4 DUP1 DUP3 ADD SWAP4 SWAP3 SWAP2 SWAP1 DUP3 SWAP1 SUB ADD DUP2 DUP7 GAS STATICCALL ISZERO DUP1 ISZERO PUSH2 0x108C JUMPI RETURNDATASIZE PUSH0 PUSH0 RETURNDATACOPY RETURNDATASIZE PUSH0 REVERT JUMPDEST POP POP POP POP PUSH1 0x40 MLOAD RETURNDATASIZE PUSH1 0x1F NOT PUSH1 0x1F DUP3 ADD AND DUP3 ADD DUP1 PUSH1 0x40 MSTORE POP DUP2 ADD SWAP1 PUSH2 0x10B0 SWAP2 SWAP1 PUSH2 0x24F4 JUMP JUMPDEST PUSH1 0x1 PUSH1 0x1 PUSH1 0xA0 SHL SUB AND PUSH4 0x679B9538 PUSH1 0x9 PUSH0 SWAP1 SLOAD SWAP1 PUSH2 0x100 EXP SWAP1 DIV PUSH1 0x1 PUSH1 0x1 PUSH1 0xA0 SHL SUB AND PUSH1 0x1 PUSH1 0x1 PUSH1 0xA0 SHL SUB AND PUSH4 0xC0FF5328 PUSH1 0x40 MLOAD DUP2 PUSH4 0xFFFFFFFF AND PUSH1 0xE0 SHL DUP2 MSTORE PUSH1 0x4 ADD PUSH1 0x20 PUSH1 0x40 MLOAD DUP1 DUP4 SUB DUP2 DUP7 GAS STATICCALL ISZERO DUP1 ISZERO PUSH2 0x110E JUMPI RETURNDATASIZE PUSH0 PUSH0 RETURNDATACOPY RETURNDATASIZE PUSH0 REVERT JUMPDEST POP POP POP POP PUSH1 0x40 MLOAD RETURNDATASIZE PUSH1 0x1F NOT PUSH1 0x1F DUP3 ADD AND DUP3 ADD DUP1 PUSH1 0x40 MSTORE POP DUP2 ADD SWAP1 PUSH2 0x1132 SWAP2 SWAP1 PUSH2 0x24F4 JUMP JUMPDEST PUSH1 0x1 PUSH1 0x1 PUSH1 0x40 SHL SUB DUP1 DUP9 AND PUSH0 SWAP1 DUP2 MSTORE PUSH1 0x10 PUSH1 0x20 SWAP1 DUP2 MSTORE PUSH1 0x40 SWAP2 DUP3 SWAP1 KECCAK256 PUSH1 0x4 SWAP1 DUP2 ADD SLOAD PUSH1 0x9 SLOAD DUP5 MLOAD PUSH4 0xE61C05D PUSH1 0xE3 SHL DUP2 MSTORE SWAP5 MLOAD PUSH1 0x1 PUSH1 0x80 SHL SWAP1 SWAP3 DIV SWAP1 SWAP6 AND SWAP5 PUSH1 0x1 PUSH1 0x1 PUSH1 0xA0 SHL SUB AND SWAP4 PUSH4 0x730E02E8 SWAP4 DUP2 DUP5 ADD SWAP4 SWAP1 SWAP3 SWAP2 DUP3 SWAP1 SUB ADD DUP2 DUP7 GAS STATICCALL ISZERO DUP1 ISZERO PUSH2 0x119F JUMPI RETURNDATASIZE PUSH0 PUSH0 RETURNDATACOPY RETURNDATASIZE PUSH0 REVERT JUMPDEST POP POP POP POP PUSH1 0x40 MLOAD RETURNDATASIZE PUSH1 0x1F NOT PUSH1 0x1F DUP3 ADD AND DUP3 ADD DUP1 PUSH1 0x40 MSTORE POP DUP2 ADD SWAP1 PUSH2 0x11C3 SWAP2 SWAP1 PUSH2 0x250F JUMP JUMPDEST XOR PUSH1 0x40 MLOAD DUP4 PUSH4 0xFFFFFFFF AND PUSH1 0xE0 SHL DUP2 MSTORE PUSH1 0x4 ADD PUSH2 0x11E1 SWAP3 SWAP2 SWAP1 PUSH2 0x2840 JUMP JUMPDEST PUSH1 0x40 DUP1 MLOAD DUP1 DUP4 SUB DUP2 PUSH0 DUP8 GAS CALL ISZERO DUP1 ISZERO PUSH2 0x11FC JUMPI RETURNDATASIZE PUSH0 PUSH0 RETURNDATACOPY RETURNDATASIZE PUSH0 REVERT JUMPDEST POP POP POP POP PUSH1 0x40 MLOAD RETURNDATASIZE PUSH1 0x1F NOT PUSH1 0x1F DUP3 ADD AND DUP3 ADD DUP1 PUSH1 0x40 MSTORE POP DUP2 ADD SWAP1 PUSH2 0x1220 SWAP2 SWAP1 PUSH2 0x2862 JUMP JUMPDEST SWAP2 POP SWAP2 POP SWAP3 POP SWAP3 SWAP1 POP JUMP JUMPDEST PUSH1 0x1 PUSH1 0x1 PUSH1 0xA0 SHL SUB AND PUSH0 SWAP1 DUP2 MSTORE PUSH1 0x20 DUP2 SWAP1 MSTORE PUSH1 0x40 SWAP1 KECCAK256 SLOAD PUSH1 0xFF AND SWAP1 JUMP JUMPDEST PUSH1 0x12 SLOAD PUSH1 0xFF AND PUSH2 0x128C JUMPI PUSH1 0x40 MLOAD PUSH3 0x461BCD PUSH1 0xE5 SHL DUP2 MSTORE PUSH1 0x20 PUSH1 0x4 DUP3 ADD MSTORE PUSH1 0xF PUSH1 0x24 DUP3 ADD MSTORE PUSH15 0x139BC81858DD1A5D99481C9BDD5B99 PUSH1 0x8A SHL PUSH1 0x44 DUP3 ADD MSTORE PUSH1 0x64 ADD PUSH2 0xA5B JUMP JUMPDEST PUSH1 0x1 PUSH1 0x1 PUSH1 0x40 SHL SUB DUP2 AND PUSH0 SWAP1 DUP2 MSTORE PUSH1 0x13 PUSH1 0x20 MSTORE PUSH1 0x40 DUP2 KECCAK256 PUSH1 0x1 DUP1 DUP3 ADD DUP1 SLOAD SWAP3 SWAP4 SWAP2 SWAP3 SWAP1 SWAP2 SWAP1 PUSH2 0x12BC SWAP1 DUP5 SWAP1 PUSH2 0x288F JUMP JUMPDEST SWAP1 SWAP2 SSTORE POP POP PUSH1 0x1 PUSH1 0x1 PUSH1 0x40 SHL SUB DUP3 AND PUSH0 SWAP1 DUP2 MSTORE PUSH1 0x10 PUSH1 0x20 MSTORE PUSH1 0x40 SWAP1 DUP2 SWAP1 KECCAK256 SWAP1 MLOAD PUSH32 0xF3187CB5F8B4173EA18FF51BBBF13C7DFB63C63D5F9B3C2423339D9B148CE528 SWAP2 PUSH2 0x130F SWAP2 DUP6 SWAP2 PUSH1 0x5 ADD SWAP1 TIMESTAMP SWAP1 PUSH2 0x28A2 JUMP JUMPDEST PUSH1 0x40 MLOAD DUP1 SWAP2 SUB SWAP1 LOG1 PUSH1 0xC SLOAD PUSH2 0x1327 SWAP1 PUSH3 0x15180 PUSH2 0x288F JUMP JUMPDEST TIMESTAMP LT PUSH2 0xA05 JUMPI PUSH2 0xA05 PUSH2 0x1A21 JUMP JUMPDEST PUSH2 0x133D PUSH2 0x198E JUMP JUMPDEST PUSH2 0xE0C PUSH0 PUSH1 0x9 PUSH0 SWAP1 SLOAD SWAP1 PUSH2 0x100 EXP SWAP1 DIV PUSH1 0x1 PUSH1 0x1 PUSH1 0xA0 SHL SUB AND PUSH1 0x1 PUSH1 0x1 PUSH1 0xA0 SHL SUB AND PUSH4 0xF4F6C22C PUSH1 0x40 MLOAD DUP2 PUSH4 0xFFFFFFFF AND PUSH1 0xE0 SHL DUP2 MSTORE PUSH1 0x4 ADD PUSH1 0x20 PUSH1 0x40 MLOAD DUP1 DUP4 SUB DUP2 DUP7 GAS STATICCALL ISZERO DUP1 ISZERO PUSH2 0x1391 JUMPI RETURNDATASIZE PUSH0 PUSH0 RETURNDATACOPY RETURNDATASIZE PUSH0 REVERT JUMPDEST POP POP POP POP PUSH1 0x40 MLOAD RETURNDATASIZE PUSH1 0x1F NOT PUSH1 0x1F DUP3 ADD AND DUP3 ADD DUP1 PUSH1 0x40 MSTORE POP DUP2 ADD SWAP1 PUSH2 0x13B5 SWAP2 SWAP1 PUSH2 0x24F4 JUMP JUMPDEST PUSH1 0x1 PUSH1 0x1 PUSH1 0xA0 SHL SUB AND PUSH4 0x9FF43001 PUSH1 0x40 MLOAD DUP2 PUSH4 0xFFFFFFFF AND PUSH1 0xE0 SHL DUP2 MSTORE PUSH1 0x4 ADD PUSH1 0x20 PUSH1 0x40 MLOAD DUP1 DUP4 SUB DUP2 PUSH0 DUP8 GAS CALL ISZERO DUP1 ISZERO PUSH2 0x13F1 JUMPI RETURNDATASIZE PUSH0 PUSH0 RETURNDATACOPY RETURNDATASIZE PUSH0 REVERT JUMPDEST POP POP POP POP PUSH1 0x40 MLOAD RETURNDATASIZE PUSH1 0x1F NOT PUSH1 0x1F DUP3 ADD AND DUP3 ADD DUP1 PUSH1 0x40 MSTORE POP DUP2 ADD SWAP1 PUSH2 0x1415 SWAP2 SWAP1 PUSH2 0x24F4 JUMP JUMPDEST PUSH1 0x1 PUSH1 0x1 PUSH1 0xA0 SHL SUB AND PUSH4 0x27BACC40 PUSH1 0x40 MLOAD DUP2 PUSH4 0xFFFFFFFF AND PUSH1 0xE0 SHL DUP2 MSTORE PUSH1 0x4 ADD PUSH1 0x20 PUSH1 0x40 MLOAD DUP1 DUP4 SUB DUP2 DUP7 GAS STATICCALL ISZERO DUP1 ISZERO PUSH2 0x1450 JUMPI RETURNDATASIZE PUSH0 PUSH0 RETURNDATACOPY RETURNDATASIZE PUSH0 REVERT JUMPDEST POP POP POP POP PUSH1 0x40 MLOAD RETURNDATASIZE PUSH1 0x1F NOT PUSH1 0x1F DUP3 ADD AND DUP3 ADD DUP1 PUSH1 0x40 MSTORE POP DUP2 ADD SWAP1 PUSH2 0x1474 SWAP2 SWAP1 PUSH2 0x250F JUMP JUMPDEST DUP4 PUSH1 0x40 MLOAD PUSH1 0x20 ADD PUSH2 0x889 SWAP2 SWAP1 PUSH2 0x2941 JUMP JUMPDEST PUSH2 0x148D PUSH2 0x198E JUMP JUMPDEST PUSH1 0x1 PUSH1 0x1 PUSH1 0xA0 SHL SUB DUP2 AND PUSH2 0x14BA JUMPI ORIGIN PUSH0 ADDRESS PUSH1 0x40 MLOAD PUSH4 0x36030219 PUSH1 0xE2 SHL DUP2 MSTORE PUSH1 0x4 ADD PUSH2 0xA5B SWAP4 SWAP3 SWAP2 SWAP1 PUSH2 0x294C JUMP JUMPDEST PUSH2 0xE0C DUP2 PUSH1 0x1 PUSH2 0x19CE JUMP JUMPDEST PUSH1 0x9 SLOAD PUSH1 0x40 DUP1 MLOAD PUSH4 0x70F6B739 PUSH1 0xE1 SHL DUP2 MSTORE SWAP1 MLOAD PUSH0 SWAP3 PUSH1 0x1 PUSH1 0x1 PUSH1 0xA0 SHL SUB AND SWAP2 PUSH4 0xE1ED6E72 SWAP2 PUSH1 0x4 DUP1 DUP4 ADD SWAP3 PUSH1 0x20 SWAP3 SWAP2 SWAP1 DUP3 SWAP1 SUB ADD DUP2 DUP7 GAS STATICCALL ISZERO DUP1 ISZERO PUSH2 0x150C JUMPI RETURNDATASIZE PUSH0 PUSH0 RETURNDATACOPY RETURNDATASIZE PUSH0 REVERT JUMPDEST POP POP POP POP PUSH1 0x40 MLOAD RETURNDATASIZE PUSH1 0x1F NOT PUSH1 0x1F DUP3 ADD AND DUP3 ADD DUP1 PUSH1 0x40 MSTORE POP DUP2 ADD SWAP1 PUSH2 0x1530 SWAP2 SWAP1 PUSH2 0x250F JUMP JUMPDEST PUSH1 0x1 PUSH1 0x1 PUSH1 0x40 SHL SUB DUP2 AND PUSH0 SWAP1 DUP2 MSTORE PUSH1 0x13 PUSH1 0x20 MSTORE PUSH1 0x40 SWAP1 KECCAK256 PUSH1 0x1 ADD SLOAD SWAP1 SWAP2 POP PUSH2 0x158B JUMPI PUSH1 0x40 MLOAD PUSH3 0x461BCD PUSH1 0xE5 SHL DUP2 MSTORE PUSH1 0x20 PUSH1 0x4 DUP3 ADD MSTORE PUSH1 0xE PUSH1 0x24 DUP3 ADD MSTORE PUSH14 0x4E6F20747261646573206D616465 PUSH1 0x90 SHL PUSH1 0x44 DUP3 ADD MSTORE PUSH1 0x64 ADD PUSH2 0xA5B JUMP JUMPDEST PUSH0 PUSH2 0x1595 DUP3 PUSH2 0x1A9E JUMP JUMPDEST PUSH1 0x1 PUSH1 0x1 PUSH1 0x40 SHL SUB DUP4 AND PUSH0 SWAP1 DUP2 MSTORE PUSH1 0x10 PUSH1 0x20 MSTORE PUSH1 0x40 SWAP1 KECCAK256 PUSH1 0x1 ADD SLOAD SWAP1 SWAP2 POP PUSH2 0x15C6 SWAP1 PUSH1 0x1 PUSH1 0x1 PUSH1 0xA0 SHL SUB AND DUP3 PUSH2 0x1B0A JUMP JUMPDEST PUSH1 0x1 PUSH1 0x1 PUSH1 0x40 SHL SUB DUP3 AND PUSH0 SWAP1 DUP2 MSTORE PUSH1 0x10 PUSH1 0x20 MSTORE PUSH1 0x40 SWAP1 DUP2 SWAP1 KECCAK256 SWAP1 MLOAD PUSH32 0xE29330CF3DBA7A7DC8D32CBA0A0A536B164752B56838B6FFD22FA26FCC932CCF SWAP2 PUSH2 0x1614 SWAP2 DUP6 SWAP2 PUSH1 0x5 ADD SWAP1 DUP6 SWAP1 PUSH2 0x28A2 JUMP JUMPDEST PUSH1 0x40 MLOAD DUP1 SWAP2 SUB SWAP1 LOG1 PUSH1 0x1 PUSH1 0x1 PUSH1 0x40 SHL SUB DUP3 AND PUSH0 SWAP1 DUP2 MSTORE PUSH1 0x13 PUSH1 0x20 MSTORE PUSH1 0x40 DUP2 KECCAK256 PUSH1 0x2 ADD DUP1 SLOAD DUP4 SWAP3 SWAP1 PUSH2 0x1646 SWAP1 DUP5 SWAP1 PUSH2 0x288F JUMP JUMPDEST SWAP1 SWAP2 SSTORE POP POP POP PUSH1 0x1 PUSH1 0x1 PUSH1 0x40 SHL SUB AND PUSH0 SWAP1 DUP2 MSTORE PUSH1 0x13 PUSH1 0x20 MSTORE PUSH1 0x40 DUP2 KECCAK256 PUSH1 0x1 ADD SSTORE JUMP JUMPDEST PUSH1 0x60 PUSH1 0x5 DUP1 SLOAD PUSH2 0x58B SWAP1 PUSH2 0x22F5 JUMP JUMPDEST PUSH2 0x167F PUSH2 0x198E JUMP JUMPDEST PUSH1 0xF DUP1 SLOAD PUSH1 0xFF SWAP1 SWAP3 AND PUSH3 0x10000 MUL PUSH3 0xFF0000 NOT SWAP1 SWAP3 AND SWAP2 SWAP1 SWAP2 OR SWAP1 SSTORE JUMP JUMPDEST PUSH2 0x16A5 PUSH2 0x198E JUMP JUMPDEST PUSH1 0x4 PUSH2 0x16B1 DUP4 DUP3 PUSH2 0x25B5 JUMP JUMPDEST POP PUSH1 0x5 PUSH2 0x16BE DUP3 DUP3 PUSH2 0x25B5 JUMP JUMPDEST POP POP POP JUMP JUMPDEST PUSH2 0x16CB PUSH2 0x198E JUMP JUMPDEST PUSH1 0xF DUP1 SLOAD PUSH1 0xFF SWAP1 SWAP3 AND PUSH2 0x100 MUL PUSH2 0xFF00 NOT SWAP1 SWAP3 AND SWAP2 SWAP1 SWAP2 OR SWAP1 SSTORE JUMP JUMPDEST PUSH0 CALLER PUSH2 0xA16 DUP2 DUP6 DUP6 PUSH2 0x1983 JUMP JUMPDEST PUSH1 0x9 SLOAD PUSH1 0x40 DUP1 MLOAD PUSH4 0x70F6B739 PUSH1 0xE1 SHL DUP2 MSTORE SWAP1 MLOAD PUSH0 SWAP3 PUSH1 0x1 PUSH1 0x1 PUSH1 0xA0 SHL SUB AND SWAP2 PUSH4 0xE1ED6E72 SWAP2 PUSH1 0x4 DUP1 DUP4 ADD SWAP3 PUSH1 0x20 SWAP3 SWAP2 SWAP1 DUP3 SWAP1 SUB ADD DUP2 DUP7 GAS STATICCALL ISZERO DUP1 ISZERO PUSH2 0x173B JUMPI RETURNDATASIZE PUSH0 PUSH0 RETURNDATACOPY RETURNDATASIZE PUSH0 REVERT JUMPDEST POP POP POP POP PUSH1 0x40 MLOAD RETURNDATASIZE PUSH1 0x1F NOT PUSH1 0x1F DUP3 ADD AND DUP3 ADD DUP1 PUSH1 0x40 MSTORE POP DUP2 ADD SWAP1 PUSH2 0x175F SWAP2 SWAP1 PUSH2 0x250F JUMP JUMPDEST PUSH1 0x1 PUSH1 0x1 PUSH1 0x40 SHL SUB DUP1 DUP3 AND PUSH0 DUP2 DUP2 MSTORE PUSH1 0x10 PUSH1 0x20 MSTORE PUSH1 0x40 SWAP1 KECCAK256 SLOAD SWAP3 SWAP4 POP SWAP2 AND SUB PUSH2 0xE0C JUMPI PUSH2 0xE0C DUP2 PUSH2 0x1B15 JUMP JUMPDEST PUSH1 0x1 PUSH1 0x1 PUSH1 0xA0 SHL SUB SWAP2 DUP3 AND PUSH0 SWAP1 DUP2 MSTORE PUSH1 0x2 PUSH1 0x20 SWAP1 DUP2 MSTORE PUSH1 0x40 DUP1 DUP4 KECCAK256 SWAP4 SWAP1 SWAP5 AND DUP3 MSTORE SWAP2 SWAP1 SWAP2 MSTORE KECCAK256 SLOAD SWAP1 JUMP JUMPDEST PUSH2 0x17DF PUSH1 0x40 MLOAD DUP1 PUSH1 0x60 ADD PUSH1 0x40 MSTORE DUP1 PUSH0 PUSH1 0x1 PUSH1 0x1 PUSH1 0x40 SHL SUB AND DUP2 MSTORE PUSH1 0x20 ADD PUSH0 DUP2 MSTORE PUSH1 0x20 ADD PUSH0 DUP2 MSTORE POP SWAP1 JUMP JUMPDEST POP PUSH1 0x1 PUSH1 0x1 PUSH1 0x40 SHL SUB SWAP1 DUP2 AND PUSH0 SWAP1 DUP2 MSTORE PUSH1 0x13 PUSH1 0x20 SWAP1 DUP2 MSTORE PUSH1 0x40 SWAP2 DUP3 SWAP1 KECCAK256 DUP3 MLOAD PUSH1 0x60 DUP2 ADD DUP5 MSTORE DUP2 SLOAD SWAP1 SWAP5 AND DUP5 MSTORE PUSH1 0x1 DUP2 ADD SLOAD SWAP2 DUP5 ADD SWAP2 SWAP1 SWAP2 MSTORE PUSH1 0x2 ADD SLOAD SWAP1 DUP3 ADD MSTORE SWAP1 JUMP JUMPDEST PUSH2 0x182A PUSH2 0x198E JUMP JUMPDEST PUSH2 0x1832 PUSH2 0x1D8F JUMP JUMPDEST JUMP JUMPDEST PUSH2 0x183C PUSH2 0x198E JUMP JUMPDEST PUSH1 0xF DUP1 SLOAD PUSH1 0xFF NOT AND PUSH1 0xFF SWAP3 SWAP1 SWAP3 AND SWAP2 SWAP1 SWAP2 OR SWAP1 SSTORE JUMP JUMPDEST PUSH32 0x7E614620A5D3DBE1EEFF25F7EDF8D9E7D287833597A645CAAF7F6434D92CC3F7 PUSH1 0xA SLOAD DUP5 DUP5 DUP5 PUSH1 0x40 MLOAD PUSH2 0x1889 SWAP5 SWAP4 SWAP3 SWAP2 SWAP1 PUSH2 0x296F JUMP JUMPDEST PUSH1 0x40 MLOAD DUP1 SWAP2 SUB SWAP1 LOG1 POP POP POP JUMP JUMPDEST PUSH1 0xB DUP1 SLOAD PUSH1 0x1 SWAP2 SWAP1 PUSH0 SWAP1 PUSH2 0x18B4 SWAP1 DUP5 SWAP1 PUSH1 0x1 PUSH1 0x1 PUSH1 0x40 SHL SUB AND PUSH2 0x29AF JUMP JUMPDEST DUP3 SLOAD PUSH2 0x100 SWAP3 SWAP1 SWAP3 EXP PUSH1 0x1 PUSH1 0x1 PUSH1 0x40 SHL SUB DUP2 DUP2 MUL NOT SWAP1 SWAP4 AND SWAP2 DUP4 AND MUL OR SWAP1 SWAP2 SSTORE TIMESTAMP PUSH1 0xC SSTORE PUSH1 0x12 DUP1 SLOAD PUSH1 0xFF NOT AND PUSH1 0x1 OR SWAP1 SSTORE PUSH1 0xB SLOAD PUSH1 0x40 MLOAD SWAP2 AND DUP2 MSTORE PUSH32 0xC842D12F129AB7F2F0DCBA6C9580E1EE787EDF9FF664F7636BDFA4CAC23AD745 SWAP2 POP PUSH1 0x20 ADD PUSH1 0x40 MLOAD DUP1 SWAP2 SUB SWAP1 LOG1 JUMP JUMPDEST PUSH2 0x16BE DUP4 DUP4 DUP4 PUSH1 0x1 PUSH2 0x1DD1 JUMP JUMPDEST PUSH0 PUSH2 0x1937 DUP5 DUP5 PUSH2 0x178B JUMP JUMPDEST SWAP1 POP PUSH0 NOT DUP2 EQ PUSH2 0x197D JUMPI DUP2 DUP2 LT ISZERO PUSH2 0x196F JUMPI ORIGIN CALLER DUP6 DUP6 ADDRESS DUP6 DUP8 PUSH1 0x40 MLOAD PUSH3 0xB83D19 PUSH1 0xE2 SHL DUP2 MSTORE PUSH1 0x4 ADD PUSH2 0xA5B SWAP8 SWAP7 SWAP6 SWAP5 SWAP4 SWAP3 SWAP2 SWAP1 PUSH2 0x29CE JUMP JUMPDEST PUSH2 0x197D DUP5 DUP5 DUP5 DUP5 SUB PUSH0 PUSH2 0x1DD1 JUMP JUMPDEST POP POP POP POP JUMP JUMPDEST PUSH2 0x16BE DUP4 DUP4 DUP4 PUSH2 0x1E51 JUMP JUMPDEST PUSH2 0x1997 CALLER PUSH2 0x122B JUMP JUMPDEST ISZERO DUP1 ISZERO PUSH2 0x19AA JUMPI POP PUSH2 0x19A8 ORIGIN PUSH2 0x122B JUMP JUMPDEST ISZERO JUMPDEST ISZERO PUSH2 0x1832 JUMPI ORIGIN CALLER ADDRESS PUSH1 0x40 MLOAD PUSH4 0xBE6BAB5 PUSH1 0xE0 SHL DUP2 MSTORE PUSH1 0x4 ADD PUSH2 0xA5B SWAP4 SWAP3 SWAP2 SWAP1 PUSH2 0x294C JUMP JUMPDEST PUSH1 0x1 PUSH1 0x1 PUSH1 0xA0 SHL SUB DUP3 AND PUSH0 DUP2 DUP2 MSTORE PUSH1 0x20 DUP2 SWAP1 MSTORE PUSH1 0x40 DUP1 DUP3 KECCAK256 DUP1 SLOAD PUSH1 0xFF NOT AND DUP6 ISZERO ISZERO SWAP1 DUP2 OR SWAP1 SWAP2 SSTORE SWAP1 MLOAD SWAP1 SWAP3 SWAP2 PUSH32 0x6BFA7E860C3E9BF67B810CB88276B19B27C972812BAC04793D369B59A1183A83 SWAP2 LOG3 POP POP JUMP JUMPDEST PUSH1 0x12 DUP1 SLOAD PUSH1 0xFF NOT AND SWAP1 SSTORE PUSH1 0xB SLOAD PUSH1 0x40 MLOAD PUSH1 0x1 PUSH1 0x1 PUSH1 0x40 SHL SUB SWAP1 SWAP2 AND DUP2 MSTORE PUSH32 0xF7F9B4C0B169383E4D8E922EA26DB28C681B4EC351B19C23DE6ECBDE43F242A8 SWAP1 PUSH1 0x20 ADD PUSH1 0x40 MLOAD DUP1 SWAP2 SUB SWAP1 LOG1 PUSH0 JUMPDEST PUSH1 0x11 SLOAD PUSH2 0xFFFF DUP3 AND LT ISZERO PUSH2 0x1A95 JUMPI PUSH2 0x1A83 PUSH2 0x14C5 JUMP JUMPDEST DUP1 PUSH2 0x1A8D DUP2 PUSH2 0x2A11 JUMP JUMPDEST SWAP2 POP POP PUSH2 0x1A6D JUMP JUMPDEST POP PUSH2 0x1832 PUSH2 0x1896 JUMP JUMPDEST PUSH1 0x1 PUSH1 0x1 PUSH1 0x40 SHL SUB DUP2 AND PUSH0 SWAP1 DUP2 MSTORE PUSH1 0x13 PUSH1 0x20 MSTORE PUSH1 0x40 DUP2 KECCAK256 PUSH1 0xF SLOAD PUSH1 0x1 DUP3 ADD SLOAD PUSH3 0x10000 SWAP1 SWAP2 DIV PUSH1 0xFF AND GT PUSH2 0x1B02 JUMPI PUSH1 0xF SLOAD PUSH1 0x1 DUP3 ADD SLOAD PUSH1 0xD SLOAD PUSH0 SWAP3 PUSH3 0x10000 SWAP1 DIV PUSH1 0xFF AND SWAP2 PUSH2 0x1AF0 SWAP2 PUSH2 0xFFFF AND PUSH2 0x2774 JUMP JUMPDEST PUSH2 0x1AFA SWAP2 SWAP1 PUSH2 0x278B JUMP JUMPDEST SWAP5 SWAP4 POP POP POP POP JUMP JUMPDEST POP PUSH0 SWAP3 SWAP2 POP POP JUMP JUMPDEST PUSH2 0xA05 PUSH0 DUP4 DUP4 PUSH2 0x1E51 JUMP JUMPDEST PUSH0 JUMPDEST PUSH1 0x11 SLOAD PUSH2 0xFFFF DUP3 AND LT ISZERO PUSH2 0xA05 JUMPI DUP2 PUSH1 0x1 PUSH1 0x1 PUSH1 0x40 SHL SUB AND PUSH1 0x11 DUP3 PUSH2 0xFFFF AND DUP2 SLOAD DUP2 LT PUSH2 0x1B46 JUMPI PUSH2 0x1B46 PUSH2 0x2A31 JUMP JUMPDEST PUSH0 SWAP2 DUP3 MSTORE PUSH1 0x20 SWAP1 SWAP2 KECCAK256 PUSH1 0x4 DUP3 DIV ADD SLOAD PUSH1 0x3 SWAP1 SWAP2 AND PUSH1 0x8 MUL PUSH2 0x100 EXP SWAP1 DIV PUSH1 0x1 PUSH1 0x1 PUSH1 0x40 SHL SUB AND SUB PUSH2 0x1D7D JUMPI PUSH1 0x13 PUSH0 PUSH1 0x11 DUP4 PUSH2 0xFFFF AND DUP2 SLOAD DUP2 LT PUSH2 0x1B8B JUMPI PUSH2 0x1B8B PUSH2 0x2A31 JUMP JUMPDEST PUSH0 SWAP2 DUP3 MSTORE PUSH1 0x20 DUP1 DUP4 KECCAK256 PUSH1 0x4 DUP4 DIV ADD SLOAD PUSH1 0x3 SWAP1 SWAP3 AND PUSH1 0x8 MUL PUSH2 0x100 EXP SWAP1 SWAP2 DIV PUSH1 0x1 PUSH1 0x1 PUSH1 0x40 SHL SUB AND DUP4 MSTORE DUP3 ADD SWAP3 SWAP1 SWAP3 MSTORE PUSH1 0x40 ADD DUP2 KECCAK256 DUP1 SLOAD PUSH8 0xFFFFFFFFFFFFFFFF NOT AND DUP2 SSTORE PUSH1 0x1 DUP2 ADD DUP3 SWAP1 SSTORE PUSH1 0x2 ADD DUP2 SWAP1 SSTORE PUSH1 0x11 DUP1 SLOAD PUSH1 0x10 SWAP3 SWAP2 SWAP1 PUSH2 0xFFFF DUP6 AND SWAP1 DUP2 LT PUSH2 0x1BF8 JUMPI PUSH2 0x1BF8 PUSH2 0x2A31 JUMP JUMPDEST PUSH0 SWAP2 DUP3 MSTORE PUSH1 0x20 DUP1 DUP4 KECCAK256 PUSH1 0x4 DUP1 DUP5 DIV SWAP1 SWAP2 ADD SLOAD PUSH1 0x3 SWAP4 DUP5 AND PUSH1 0x8 MUL PUSH2 0x100 EXP SWAP1 DIV PUSH1 0x1 PUSH1 0x1 PUSH1 0x40 SHL SUB AND DUP6 MSTORE SWAP1 DUP5 ADD SWAP5 SWAP1 SWAP5 MSTORE PUSH1 0x40 SWAP1 SWAP3 ADD DUP2 KECCAK256 DUP1 SLOAD PUSH8 0xFFFFFFFFFFFFFFFF NOT AND DUP2 SSTORE PUSH1 0x1 DUP2 ADD DUP1 SLOAD PUSH1 0x1 PUSH1 0x1 PUSH1 0xA0 SHL SUB NOT AND SWAP1 SSTORE PUSH1 0x2 DUP2 ADD DUP1 SLOAD PUSH1 0x1 PUSH1 0x1 PUSH1 0xE0 SHL SUB NOT SWAP1 DUP2 AND SWAP1 SWAP2 SSTORE SWAP3 DUP2 ADD DUP1 SLOAD SWAP1 SWAP4 AND SWAP1 SWAP3 SSTORE SWAP2 DUP2 ADD DUP1 SLOAD PUSH1 0x1 PUSH1 0x1 PUSH1 0xC0 SHL SUB NOT AND SWAP1 SSTORE SWAP1 PUSH2 0x1C91 PUSH1 0x5 DUP4 ADD DUP3 PUSH2 0x1F6C JUMP JUMPDEST POP PUSH1 0x6 ADD DUP1 SLOAD PUSH8 0xFFFFFFFFFFFFFFFF NOT AND SWAP1 SSTORE PUSH1 0x11 DUP1 SLOAD PUSH2 0x1CB4 SWAP1 PUSH1 0x1 SWAP1 PUSH2 0x2A45 JUMP JUMPDEST DUP2 SLOAD DUP2 LT PUSH2 0x1CC4 JUMPI PUSH2 0x1CC4 PUSH2 0x2A31 JUMP JUMPDEST SWAP1 PUSH0 MSTORE PUSH1 0x20 PUSH0 KECCAK256 SWAP1 PUSH1 0x4 SWAP2 DUP3 DUP3 DIV ADD SWAP2 SWAP1 MOD PUSH1 0x8 MUL SWAP1 SLOAD SWAP1 PUSH2 0x100 EXP SWAP1 DIV PUSH1 0x1 PUSH1 0x1 PUSH1 0x40 SHL SUB AND PUSH1 0x11 DUP3 PUSH2 0xFFFF AND DUP2 SLOAD DUP2 LT PUSH2 0x1D02 JUMPI PUSH2 0x1D02 PUSH2 0x2A31 JUMP JUMPDEST SWAP1 PUSH0 MSTORE PUSH1 0x20 PUSH0 KECCAK256 SWAP1 PUSH1 0x4 SWAP2 DUP3 DUP3 DIV ADD SWAP2 SWAP1 MOD PUSH1 0x8 MUL PUSH2 0x100 EXP DUP2 SLOAD DUP2 PUSH1 0x1 PUSH1 0x1 PUSH1 0x40 SHL SUB MUL NOT AND SWAP1 DUP4 PUSH1 0x1 PUSH1 0x1 PUSH1 0x40 SHL SUB AND MUL OR SWAP1 SSTORE POP PUSH1 0x11 DUP1 SLOAD DUP1 PUSH2 0x1D4A JUMPI PUSH2 0x1D4A PUSH2 0x2A58 JUMP JUMPDEST PUSH0 DUP3 DUP2 MSTORE PUSH1 0x20 SWAP1 KECCAK256 PUSH1 0x4 PUSH0 NOT SWAP1 SWAP3 ADD SWAP2 DUP3 DIV ADD DUP1 SLOAD PUSH1 0x1 PUSH1 0x1 PUSH1 0x40 SHL SUB PUSH1 0x8 PUSH1 0x3 DUP6 AND MUL PUSH2 0x100 EXP MUL NOT AND SWAP1 SSTORE SWAP1 SSTORE POP POP JUMP JUMPDEST DUP1 PUSH2 0x1D87 DUP2 PUSH2 0x2A11 JUMP JUMPDEST SWAP2 POP POP PUSH2 0x1B17 JUMP JUMPDEST PUSH2 0x1D9B PUSH1 0x12 PUSH1 0xA PUSH2 0x2766 JUMP JUMPDEST PUSH1 0x7 SLOAD PUSH2 0x1DA8 SWAP2 SWAP1 PUSH2 0x2774 JUMP JUMPDEST PUSH1 0x3 SLOAD LT ISZERO PUSH2 0x1832 JUMPI PUSH2 0x1832 ADDRESS PUSH2 0x1DC1 PUSH1 0x12 PUSH1 0xA PUSH2 0x2766 JUMP JUMPDEST PUSH2 0x1DCC SWAP1 PUSH1 0x1 PUSH2 0x2774 JUMP JUMPDEST PUSH2 0x1B0A JUMP JUMPDEST PUSH1 0x1 PUSH1 0x1 PUSH1 0xA0 SHL SUB DUP1 DUP6 AND PUSH0 SWAP1 DUP2 MSTORE PUSH1 0x2 PUSH1 0x20 SWAP1 DUP2 MSTORE PUSH1 0x40 DUP1 DUP4 KECCAK256 SWAP4 DUP8 AND DUP4 MSTORE SWAP3 SWAP1 MSTORE KECCAK256 DUP3 SWAP1 SSTORE DUP1 ISZERO PUSH2 0x197D JUMPI DUP3 PUSH1 0x1 PUSH1 0x1 PUSH1 0xA0 SHL SUB AND DUP5 PUSH1 0x1 PUSH1 0x1 PUSH1 0xA0 SHL SUB AND PUSH32 0x8C5BE1E5EBEC7D5BD14F71427D1E84F3DD0314C0F7B2291E5B200AC8C7C3B925 DUP5 PUSH1 0x40 MLOAD PUSH2 0x1E43 SWAP2 DUP2 MSTORE PUSH1 0x20 ADD SWAP1 JUMP JUMPDEST PUSH1 0x40 MLOAD DUP1 SWAP2 SUB SWAP1 LOG3 POP POP POP POP JUMP JUMPDEST PUSH1 0x1 PUSH1 0x1 PUSH1 0xA0 SHL SUB DUP4 AND PUSH2 0x1E7B JUMPI DUP1 PUSH1 0x3 PUSH0 DUP3 DUP3 SLOAD PUSH2 0x1E70 SWAP2 SWAP1 PUSH2 0x288F JUMP JUMPDEST SWAP1 SWAP2 SSTORE POP PUSH2 0x1EE0 SWAP1 POP JUMP JUMPDEST PUSH1 0x1 PUSH1 0x1 PUSH1 0xA0 SHL SUB DUP4 AND PUSH0 SWAP1 DUP2 MSTORE PUSH1 0x1 PUSH1 0x20 MSTORE PUSH1 0x40 SWAP1 KECCAK256 SLOAD DUP2 DUP2 LT ISZERO PUSH2 0x1EC2 JUMPI ORIGIN CALLER DUP6 DUP6 ADDRESS DUP6 DUP8 PUSH1 0x40 MLOAD PUSH4 0xF7D0BBD PUSH1 0xE2 SHL DUP2 MSTORE PUSH1 0x4 ADD PUSH2 0xA5B SWAP8 SWAP7 SWAP6 SWAP5 SWAP4 SWAP3 SWAP2 SWAP1 PUSH2 0x29CE JUMP JUMPDEST PUSH1 0x1 PUSH1 0x1 PUSH1 0xA0 SHL SUB DUP5 AND PUSH0 SWAP1 DUP2 MSTORE PUSH1 0x1 PUSH1 0x20 MSTORE PUSH1 0x40 SWAP1 KECCAK256 SWAP1 DUP3 SWAP1 SUB SWAP1 SSTORE JUMPDEST PUSH1 0x1 PUSH1 0x1 PUSH1 0xA0 SHL SUB DUP3 AND PUSH2 0x1EFC JUMPI PUSH1 0x3 DUP1 SLOAD DUP3 SWAP1 SUB SWAP1 SSTORE PUSH2 0x1F1A JUMP JUMPDEST PUSH1 0x1 PUSH1 0x1 PUSH1 0xA0 SHL SUB DUP3 AND PUSH0 SWAP1 DUP2 MSTORE PUSH1 0x1 PUSH1 0x20 MSTORE PUSH1 0x40 SWAP1 KECCAK256 DUP1 SLOAD DUP3 ADD SWAP1 SSTORE JUMPDEST DUP2 PUSH1 0x1 PUSH1 0x1 PUSH1 0xA0 SHL SUB AND DUP4 PUSH1 0x1 PUSH1 0x1 PUSH1 0xA0 SHL SUB AND PUSH32 0xDDF252AD1BE2C89B69C2B068FC378DAA952BA7F163C4A11628F55A4DF523B3EF DUP4 PUSH1 0x40 MLOAD PUSH2 0x1F5F SWAP2 DUP2 MSTORE PUSH1 0x20 ADD SWAP1 JUMP JUMPDEST PUSH1 0x40 MLOAD DUP1 SWAP2 SUB SWAP1 LOG3 POP POP POP JUMP JUMPDEST POP DUP1 SLOAD PUSH2 0x1F78 SWAP1 PUSH2 0x22F5 JUMP JUMPDEST PUSH0 DUP3 SSTORE DUP1 PUSH1 0x1F LT PUSH2 0x1F87 JUMPI POP POP JUMP JUMPDEST PUSH1 0x1F ADD PUSH1 0x20 SWAP1 DIV SWAP1 PUSH0 MSTORE PUSH1 0x20 PUSH0 KECCAK256 SWAP1 DUP2 ADD SWAP1 PUSH2 0xE0C SWAP2 SWAP1 JUMPDEST DUP1 DUP3 GT ISZERO PUSH2 0x1FB2 JUMPI PUSH0 DUP2 SSTORE PUSH1 0x1 ADD PUSH2 0x1F9F JUMP JUMPDEST POP SWAP1 JUMP JUMPDEST PUSH0 DUP2 MLOAD DUP1 DUP5 MSTORE DUP1 PUSH1 0x20 DUP5 ADD PUSH1 0x20 DUP7 ADD MCOPY PUSH0 PUSH1 0x20 DUP3 DUP7 ADD ADD MSTORE PUSH1 0x20 PUSH1 0x1F NOT PUSH1 0x1F DUP4 ADD AND DUP6 ADD ADD SWAP2 POP POP SWAP3 SWAP2 POP POP JUMP JUMPDEST PUSH1 0x20 DUP2 MSTORE PUSH0 PUSH2 0x1FF6 PUSH1 0x20 DUP4 ADD DUP5 PUSH2 0x1FB6 JUMP JUMPDEST SWAP4 SWAP3 POP POP POP JUMP JUMPDEST PUSH1 0x1 PUSH1 0x1 PUSH1 0xA0 SHL SUB DUP2 AND DUP2 EQ PUSH2 0xE0C JUMPI PUSH0 PUSH0 REVERT JUMPDEST PUSH0 PUSH1 0x20 DUP3 DUP5 SUB SLT ISZERO PUSH2 0x2021 JUMPI PUSH0 PUSH0 REVERT JUMPDEST DUP2 CALLDATALOAD PUSH2 0x1FF6 DUP2 PUSH2 0x1FFD JUMP JUMPDEST PUSH0 PUSH0 PUSH1 0x40 DUP4 DUP6 SUB SLT ISZERO PUSH2 0x203D JUMPI PUSH0 PUSH0 REVERT JUMPDEST DUP3 CALLDATALOAD PUSH2 0x2048 DUP2 PUSH2 0x1FFD JUMP JUMPDEST SWAP5 PUSH1 0x20 SWAP4 SWAP1 SWAP4 ADD CALLDATALOAD SWAP4 POP POP POP JUMP JUMPDEST PUSH0 PUSH0 PUSH0 PUSH1 0x60 DUP5 DUP7 SUB SLT ISZERO PUSH2 0x2068 JUMPI PUSH0 PUSH0 REVERT JUMPDEST DUP4 CALLDATALOAD PUSH2 0x2073 DUP2 PUSH2 0x1FFD JUMP JUMPDEST SWAP3 POP PUSH1 0x20 DUP5 ADD CALLDATALOAD PUSH2 0x2083 DUP2 PUSH2 0x1FFD JUMP JUMPDEST SWAP3 SWAP6 SWAP3 SWAP5 POP POP POP PUSH1 0x40 SWAP2 SWAP1 SWAP2 ADD CALLDATALOAD SWAP1 JUMP JUMPDEST PUSH1 0x1 PUSH1 0x1 PUSH1 0x40 SHL SUB DUP2 AND DUP2 EQ PUSH2 0xE0C JUMPI PUSH0 PUSH0 REVERT JUMPDEST PUSH0 PUSH0 PUSH1 0x40 DUP4 DUP6 SUB SLT ISZERO PUSH2 0x20B9 JUMPI PUSH0 PUSH0 REVERT JUMPDEST DUP3 CALLDATALOAD PUSH2 0x20C4 DUP2 PUSH2 0x2094 JUMP JUMPDEST SWAP2 POP PUSH1 0x20 DUP4 ADD CALLDATALOAD PUSH2 0x20D4 DUP2 PUSH2 0x2094 JUMP JUMPDEST DUP1 SWAP2 POP POP SWAP3 POP SWAP3 SWAP1 POP JUMP JUMPDEST PUSH1 0x1 PUSH1 0x1 PUSH1 0xA0 SHL SUB SWAP2 SWAP1 SWAP2 AND DUP2 MSTORE PUSH1 0x20 ADD SWAP1 JUMP JUMPDEST PUSH0 PUSH1 0x20 DUP3 DUP5 SUB SLT ISZERO PUSH2 0x2103 JUMPI PUSH0 PUSH0 REVERT JUMPDEST DUP2 CALLDATALOAD PUSH2 0x1FF6 DUP2 PUSH2 0x2094 JUMP JUMPDEST PUSH4 0x4E487B71 PUSH1 0xE0 SHL PUSH0 MSTORE PUSH1 0x41 PUSH1 0x4 MSTORE PUSH1 0x24 PUSH0 REVERT JUMPDEST PUSH1 0x40 MLOAD PUSH1 0x80 DUP2 ADD PUSH1 0x1 PUSH1 0x1 PUSH1 0x40 SHL SUB DUP2 GT DUP3 DUP3 LT OR ISZERO PUSH2 0x2144 JUMPI PUSH2 0x2144 PUSH2 0x210E JUMP JUMPDEST PUSH1 0x40 MSTORE SWAP1 JUMP JUMPDEST PUSH1 0x40 MLOAD PUSH2 0x100 DUP2 ADD PUSH1 0x1 PUSH1 0x1 PUSH1 0x40 SHL SUB DUP2 GT DUP3 DUP3 LT OR ISZERO PUSH2 0x2144 JUMPI PUSH2 0x2144 PUSH2 0x210E JUMP JUMPDEST PUSH1 0x40 MLOAD PUSH1 0x1F DUP3 ADD PUSH1 0x1F NOT AND DUP2 ADD PUSH1 0x1 PUSH1 0x1 PUSH1 0x40 SHL SUB DUP2 GT DUP3 DUP3 LT OR ISZERO PUSH2 0x2195 JUMPI PUSH2 0x2195 PUSH2 0x210E JUMP JUMPDEST PUSH1 0x40 MSTORE SWAP2 SWAP1 POP JUMP JUMPDEST PUSH0 PUSH1 0x1 PUSH1 0x1 PUSH1 0x40 SHL SUB DUP3 GT ISZERO PUSH2 0x21B5 JUMPI PUSH2 0x21B5 PUSH2 0x210E JUMP JUMPDEST POP PUSH1 0x1F ADD PUSH1 0x1F NOT AND PUSH1 0x20 ADD SWAP1 JUMP JUMPDEST PUSH0 DUP3 PUSH1 0x1F DUP4 ADD SLT PUSH2 0x21D2 JUMPI PUSH0 PUSH0 REVERT JUMPDEST DUP2 CALLDATALOAD PUSH2 0x21E5 PUSH2 0x21E0 DUP3 PUSH2 0x219D JUMP JUMPDEST PUSH2 0x216D JUMP JUMPDEST DUP2 DUP2 MSTORE DUP5 PUSH1 0x20 DUP4 DUP7 ADD ADD GT ISZERO PUSH2 0x21F9 JUMPI PUSH0 PUSH0 REVERT JUMPDEST DUP2 PUSH1 0x20 DUP6 ADD PUSH1 0x20 DUP4 ADD CALLDATACOPY PUSH0 SWAP2 DUP2 ADD PUSH1 0x20 ADD SWAP2 SWAP1 SWAP2 MSTORE SWAP4 SWAP3 POP POP POP JUMP JUMPDEST PUSH0 PUSH1 0x20 DUP3 DUP5 SUB SLT ISZERO PUSH2 0x2225 JUMPI PUSH0 PUSH0 REVERT JUMPDEST DUP2 CALLDATALOAD PUSH1 0x1 PUSH1 0x1 PUSH1 0x40 SHL SUB DUP2 GT ISZERO PUSH2 0x223A JUMPI PUSH0 PUSH0 REVERT JUMPDEST PUSH2 0x1AFA DUP5 DUP3 DUP6 ADD PUSH2 0x21C3 JUMP JUMPDEST PUSH0 PUSH1 0x20 DUP3 DUP5 SUB SLT ISZERO PUSH2 0x2256 JUMPI PUSH0 PUSH0 REVERT JUMPDEST DUP2 CALLDATALOAD PUSH1 0xFF DUP2 AND DUP2 EQ PUSH2 0x1FF6 JUMPI PUSH0 PUSH0 REVERT JUMPDEST PUSH0 PUSH0 PUSH1 0x40 DUP4 DUP6 SUB SLT ISZERO PUSH2 0x2277 JUMPI PUSH0 PUSH0 REVERT JUMPDEST DUP3 CALLDATALOAD PUSH1 0x1 PUSH1 0x1 PUSH1 0x40 SHL SUB DUP2 GT ISZERO PUSH2 0x228C JUMPI PUSH0 PUSH0 REVERT JUMPDEST PUSH2 0x2298 DUP6 DUP3 DUP7 ADD PUSH2 0x21C3 JUMP JUMPDEST SWAP3 POP POP PUSH1 0x20 DUP4 ADD CALLDATALOAD PUSH1 0x1 PUSH1 0x1 PUSH1 0x40 SHL SUB DUP2 GT ISZERO PUSH2 0x22B3 JUMPI PUSH0 PUSH0 REVERT JUMPDEST PUSH2 0x22BF DUP6 DUP3 DUP7 ADD PUSH2 0x21C3 JUMP JUMPDEST SWAP2 POP POP SWAP3 POP SWAP3 SWAP1 POP JUMP JUMPDEST PUSH0 PUSH0 PUSH1 0x40 DUP4 DUP6 SUB SLT ISZERO PUSH2 0x22DA JUMPI PUSH0 PUSH0 REVERT JUMPDEST DUP3 CALLDATALOAD PUSH2 0x22E5 DUP2 PUSH2 0x1FFD JUMP JUMPDEST SWAP2 POP PUSH1 0x20 DUP4 ADD CALLDATALOAD PUSH2 0x20D4 DUP2 PUSH2 0x1FFD JUMP JUMPDEST PUSH1 0x1 DUP2 DUP2 SHR SWAP1 DUP3 AND DUP1 PUSH2 0x2309 JUMPI PUSH1 0x7F DUP3 AND SWAP2 POP JUMPDEST PUSH1 0x20 DUP3 LT DUP2 SUB PUSH2 0x2327 JUMPI PUSH4 0x4E487B71 PUSH1 0xE0 SHL PUSH0 MSTORE PUSH1 0x22 PUSH1 0x4 MSTORE PUSH1 0x24 PUSH0 REVERT JUMPDEST POP SWAP2 SWAP1 POP JUMP JUMPDEST DUP1 MLOAD PUSH2 0x2338 DUP2 PUSH2 0x2094 JUMP JUMPDEST SWAP2 SWAP1 POP JUMP JUMPDEST DUP1 MLOAD PUSH2 0x2338 DUP2 PUSH2 0x1FFD JUMP JUMPDEST PUSH0 DUP3 PUSH1 0x1F DUP4 ADD SLT PUSH2 0x2357 JUMPI PUSH0 PUSH0 REVERT JUMPDEST DUP2 MLOAD PUSH2 0x2365 PUSH2 0x21E0 DUP3 PUSH2 0x219D JUMP JUMPDEST DUP2 DUP2 MSTORE DUP5 PUSH1 0x20 DUP4 DUP7 ADD ADD GT ISZERO PUSH2 0x2379 JUMPI PUSH0 PUSH0 REVERT JUMPDEST DUP2 PUSH1 0x20 DUP6 ADD PUSH1 0x20 DUP4 ADD MCOPY PUSH0 SWAP2 DUP2 ADD PUSH1 0x20 ADD SWAP2 SWAP1 SWAP2 MSTORE SWAP4 SWAP3 POP POP POP JUMP JUMPDEST PUSH0 PUSH1 0x20 DUP3 DUP5 SUB SLT ISZERO PUSH2 0x23A5 JUMPI PUSH0 PUSH0 REVERT JUMPDEST DUP2 MLOAD PUSH1 0x1 PUSH1 0x1 PUSH1 0x40 SHL SUB DUP2 GT ISZERO PUSH2 0x23BA JUMPI PUSH0 PUSH0 REVERT JUMPDEST DUP3 ADD DUP1 DUP5 SUB PUSH2 0x160 DUP2 SLT ISZERO PUSH2 0x23CD JUMPI PUSH0 PUSH0 REVERT JUMPDEST PUSH2 0x23D5 PUSH2 0x2122 JUMP JUMPDEST DUP3 MLOAD PUSH2 0x23E0 DUP2 PUSH2 0x2094 JUMP JUMPDEST DUP2 MSTORE PUSH2 0x100 PUSH1 0x1F NOT DUP4 ADD SLT ISZERO PUSH2 0x23F4 JUMPI PUSH0 PUSH0 REVERT JUMPDEST PUSH2 0x23FC PUSH2 0x214A JUMP JUMPDEST SWAP2 POP PUSH1 0x20 DUP4 ADD MLOAD PUSH2 0x240C DUP2 PUSH2 0x1FFD JUMP JUMPDEST DUP3 MSTORE PUSH2 0x241A PUSH1 0x40 DUP5 ADD PUSH2 0x233D JUMP JUMPDEST PUSH1 0x20 DUP4 ADD MSTORE PUSH2 0x242B PUSH1 0x60 DUP5 ADD PUSH2 0x232D JUMP JUMPDEST PUSH1 0x40 DUP4 ADD MSTORE PUSH2 0x243C PUSH1 0x80 DUP5 ADD PUSH2 0x232D JUMP JUMPDEST PUSH1 0x60 DUP4 ADD MSTORE PUSH2 0x244D PUSH1 0xA0 DUP5 ADD PUSH2 0x233D JUMP JUMPDEST PUSH1 0x80 DUP4 ADD MSTORE PUSH2 0x245E PUSH1 0xC0 DUP5 ADD PUSH2 0x232D JUMP JUMPDEST PUSH1 0xA0 DUP4 ADD MSTORE PUSH2 0x246F PUSH1 0xE0 DUP5 ADD PUSH2 0x232D JUMP JUMPDEST PUSH1 0xC0 DUP4 ADD MSTORE PUSH2 0x2481 PUSH2 0x100 DUP5 ADD PUSH2 0x232D JUMP JUMPDEST PUSH1 0xE0 DUP4 ADD MSTORE DUP2 PUSH1 0x20 DUP3 ADD MSTORE PUSH2 0x120 DUP4 ADD MLOAD SWAP2 POP PUSH1 0x1 PUSH1 0x1 PUSH1 0x40 SHL SUB DUP3 GT ISZERO PUSH2 0x24A7 JUMPI PUSH0 PUSH0 REVERT JUMPDEST PUSH2 0x24B3 DUP7 DUP4 DUP6 ADD PUSH2 0x2348 JUMP JUMPDEST PUSH1 0x40 DUP3 ADD MSTORE PUSH2 0x24C5 PUSH2 0x140 DUP5 ADD PUSH2 0x232D JUMP JUMPDEST PUSH1 0x60 DUP3 ADD MSTORE SWAP6 SWAP5 POP POP POP POP POP JUMP JUMPDEST PUSH1 0x1 PUSH1 0x1 PUSH1 0x40 SHL SUB DUP4 AND DUP2 MSTORE PUSH1 0x40 PUSH1 0x20 DUP3 ADD MSTORE PUSH0 PUSH2 0x1AFA PUSH1 0x40 DUP4 ADD DUP5 PUSH2 0x1FB6 JUMP JUMPDEST PUSH0 PUSH1 0x20 DUP3 DUP5 SUB SLT ISZERO PUSH2 0x2504 JUMPI PUSH0 PUSH0 REVERT JUMPDEST DUP2 MLOAD PUSH2 0x1FF6 DUP2 PUSH2 0x1FFD JUMP JUMPDEST PUSH0 PUSH1 0x20 DUP3 DUP5 SUB SLT ISZERO PUSH2 0x251F JUMPI PUSH0 PUSH0 REVERT JUMPDEST DUP2 MLOAD PUSH2 0x1FF6 DUP2 PUSH2 0x2094 JUMP JUMPDEST PUSH0 DUP2 MLOAD DUP1 PUSH1 0x20 DUP5 ADD DUP6 MCOPY PUSH0 SWAP4 ADD SWAP3 DUP4 MSTORE POP SWAP1 SWAP2 SWAP1 POP JUMP JUMPDEST PUSH21 0x2732BB902A3930B232B9102537B4B732B2101D1D1 PUSH1 0x5D SHL DUP2 MSTORE PUSH0 PUSH2 0x1FF6 PUSH1 0x15 DUP4 ADD DUP5 PUSH2 0x252A JUMP JUMPDEST PUSH1 0x1F DUP3 GT ISZERO PUSH2 0x16BE JUMPI DUP1 PUSH0 MSTORE PUSH1 0x20 PUSH0 KECCAK256 PUSH1 0x1F DUP5 ADD PUSH1 0x5 SHR DUP2 ADD PUSH1 0x20 DUP6 LT ISZERO PUSH2 0x258F JUMPI POP DUP1 JUMPDEST PUSH1 0x1F DUP5 ADD PUSH1 0x5 SHR DUP3 ADD SWAP2 POP JUMPDEST DUP2 DUP2 LT ISZERO PUSH2 0x25AE JUMPI PUSH0 DUP2 SSTORE PUSH1 0x1 ADD PUSH2 0x259B JUMP JUMPDEST POP POP POP POP POP JUMP JUMPDEST DUP2 MLOAD PUSH1 0x1 PUSH1 0x1 PUSH1 0x40 SHL SUB DUP2 GT ISZERO PUSH2 0x25CE JUMPI PUSH2 0x25CE PUSH2 0x210E JUMP JUMPDEST PUSH2 0x25E2 DUP2 PUSH2 0x25DC DUP5 SLOAD PUSH2 0x22F5 JUMP JUMPDEST DUP5 PUSH2 0x256A JUMP JUMPDEST PUSH1 0x20 PUSH1 0x1F DUP3 GT PUSH1 0x1 DUP2 EQ PUSH2 0x2614 JUMPI PUSH0 DUP4 ISZERO PUSH2 0x25FD JUMPI POP DUP5 DUP3 ADD MLOAD JUMPDEST PUSH0 NOT PUSH1 0x3 DUP6 SWAP1 SHL SHR NOT AND PUSH1 0x1 DUP5 SWAP1 SHL OR DUP5 SSTORE PUSH2 0x25AE JUMP JUMPDEST PUSH0 DUP5 DUP2 MSTORE PUSH1 0x20 DUP2 KECCAK256 PUSH1 0x1F NOT DUP6 AND SWAP2 JUMPDEST DUP3 DUP2 LT ISZERO PUSH2 0x2643 JUMPI DUP8 DUP6 ADD MLOAD DUP3 SSTORE PUSH1 0x20 SWAP5 DUP6 ADD SWAP5 PUSH1 0x1 SWAP1 SWAP3 ADD SWAP2 ADD PUSH2 0x2623 JUMP JUMPDEST POP DUP5 DUP3 LT ISZERO PUSH2 0x2660 JUMPI DUP7 DUP5 ADD MLOAD PUSH0 NOT PUSH1 0x3 DUP8 SWAP1 SHL PUSH1 0xF8 AND SHR NOT AND DUP2 SSTORE JUMPDEST POP POP POP POP PUSH1 0x1 SWAP1 DUP2 SHL ADD SWAP1 SSTORE POP JUMP JUMPDEST PUSH4 0x4E487B71 PUSH1 0xE0 SHL PUSH0 MSTORE PUSH1 0x11 PUSH1 0x4 MSTORE PUSH1 0x24 PUSH0 REVERT JUMPDEST PUSH1 0x1 DUP2 JUMPDEST PUSH1 0x1 DUP5 GT ISZERO PUSH2 0x26BE JUMPI DUP1 DUP6 DIV DUP2 GT ISZERO PUSH2 0x26A2 JUMPI PUSH2 0x26A2 PUSH2 0x266F JUMP JUMPDEST PUSH1 0x1 DUP5 AND ISZERO PUSH2 0x26B0 JUMPI SWAP1 DUP2 MUL SWAP1 JUMPDEST PUSH1 0x1 SWAP4 SWAP1 SWAP4 SHR SWAP3 DUP1 MUL PUSH2 0x2687 JUMP JUMPDEST SWAP4 POP SWAP4 SWAP2 POP POP JUMP JUMPDEST PUSH0 DUP3 PUSH2 0x26D4 JUMPI POP PUSH1 0x1 PUSH2 0xA1C JUMP JUMPDEST DUP2 PUSH2 0x26E0 JUMPI POP PUSH0 PUSH2 0xA1C JUMP JUMPDEST DUP2 PUSH1 0x1 DUP2 EQ PUSH2 0x26F6 JUMPI PUSH1 0x2 DUP2 EQ PUSH2 0x2700 JUMPI PUSH2 0x271C JUMP JUMPDEST PUSH1 0x1 SWAP2 POP POP PUSH2 0xA1C JUMP JUMPDEST PUSH1 0xFF DUP5 GT ISZERO PUSH2 0x2711 JUMPI PUSH2 0x2711 PUSH2 0x266F JUMP JUMPDEST POP POP PUSH1 0x1 DUP3 SHL PUSH2 0xA1C JUMP JUMPDEST POP PUSH1 0x20 DUP4 LT PUSH2 0x133 DUP4 LT AND PUSH1 0x4E DUP5 LT PUSH1 0xB DUP5 LT AND OR ISZERO PUSH2 0x273F JUMPI POP DUP2 DUP2 EXP PUSH2 0xA1C JUMP JUMPDEST PUSH2 0x274B PUSH0 NOT DUP5 DUP5 PUSH2 0x2683 JUMP JUMPDEST DUP1 PUSH0 NOT DIV DUP3 GT ISZERO PUSH2 0x275E JUMPI PUSH2 0x275E PUSH2 0x266F JUMP JUMPDEST MUL SWAP4 SWAP3 POP POP POP JUMP JUMPDEST PUSH0 PUSH2 0x1FF6 PUSH1 0xFF DUP5 AND DUP4 PUSH2 0x26C6 JUMP JUMPDEST DUP1 DUP3 MUL DUP2 ISZERO DUP3 DUP3 DIV DUP5 EQ OR PUSH2 0xA1C JUMPI PUSH2 0xA1C PUSH2 0x266F JUMP JUMPDEST PUSH0 DUP3 PUSH2 0x27A5 JUMPI PUSH4 0x4E487B71 PUSH1 0xE0 SHL PUSH0 MSTORE PUSH1 0x12 PUSH1 0x4 MSTORE PUSH1 0x24 PUSH0 REVERT JUMPDEST POP DIV SWAP1 JUMP JUMPDEST PUSH1 0x1 PUSH1 0x1 PUSH1 0xA0 SHL SUB SWAP4 DUP5 AND DUP2 MSTORE SWAP2 SWAP1 SWAP3 AND PUSH1 0x20 DUP3 ADD MSTORE PUSH1 0x40 DUP2 ADD SWAP2 SWAP1 SWAP2 MSTORE PUSH1 0x60 ADD SWAP1 JUMP JUMPDEST PUSH0 PUSH1 0x20 DUP3 DUP5 SUB SLT ISZERO PUSH2 0x27DE JUMPI PUSH0 PUSH0 REVERT JUMPDEST DUP2 MLOAD DUP1 ISZERO ISZERO DUP2 EQ PUSH2 0x1FF6 JUMPI PUSH0 PUSH0 REVERT JUMPDEST PUSH0 PUSH1 0x20 DUP3 DUP5 SUB SLT ISZERO PUSH2 0x27FD JUMPI PUSH0 PUSH0 REVERT JUMPDEST DUP2 MLOAD PUSH1 0x1 PUSH1 0x1 PUSH1 0x40 SHL SUB DUP2 GT ISZERO PUSH2 0x2812 JUMPI PUSH0 PUSH0 REVERT JUMPDEST PUSH2 0x1AFA DUP5 DUP3 DUP6 ADD PUSH2 0x2348 JUMP JUMPDEST PUSH14 0x2732B2B21020B8383937BB32B21 PUSH1 0x95 SHL DUP2 MSTORE PUSH0 PUSH2 0x1FF6 PUSH1 0xE DUP4 ADD DUP5 PUSH2 0x252A JUMP JUMPDEST PUSH1 0x1 PUSH1 0x1 PUSH1 0xA0 SHL SUB SWAP3 SWAP1 SWAP3 AND DUP3 MSTORE PUSH1 0x1 PUSH1 0x1 PUSH1 0x40 SHL SUB AND PUSH1 0x20 DUP3 ADD MSTORE PUSH1 0x40 ADD SWAP1 JUMP JUMPDEST PUSH0 PUSH0 PUSH1 0x40 DUP4 DUP6 SUB SLT ISZERO PUSH2 0x2873 JUMPI PUSH0 PUSH0 REVERT JUMPDEST DUP3 MLOAD PUSH2 0x287E DUP2 PUSH2 0x2094 JUMP JUMPDEST PUSH1 0x20 DUP5 ADD MLOAD SWAP1 SWAP3 POP PUSH2 0x20D4 DUP2 PUSH2 0x2094 JUMP JUMPDEST DUP1 DUP3 ADD DUP1 DUP3 GT ISZERO PUSH2 0xA1C JUMPI PUSH2 0xA1C PUSH2 0x266F JUMP JUMPDEST PUSH1 0x1 PUSH1 0x1 PUSH1 0x40 SHL SUB DUP5 AND DUP2 MSTORE PUSH1 0x60 PUSH1 0x20 DUP3 ADD MSTORE PUSH0 PUSH0 DUP5 SLOAD PUSH2 0x28C2 DUP2 PUSH2 0x22F5 JUMP JUMPDEST DUP1 PUSH1 0x60 DUP7 ADD MSTORE PUSH1 0x1 DUP3 AND PUSH0 DUP2 EQ PUSH2 0x28E0 JUMPI PUSH1 0x1 DUP2 EQ PUSH2 0x28FC JUMPI PUSH2 0x292D JUMP JUMPDEST PUSH1 0xFF NOT DUP4 AND PUSH1 0x80 DUP8 ADD MSTORE PUSH1 0x80 DUP3 ISZERO ISZERO PUSH1 0x5 SHL DUP8 ADD ADD SWAP4 POP PUSH2 0x292D JUMP JUMPDEST DUP8 PUSH0 MSTORE PUSH1 0x20 PUSH0 KECCAK256 PUSH0 JUMPDEST DUP4 DUP2 LT ISZERO PUSH2 0x2924 JUMPI DUP2 SLOAD DUP9 DUP3 ADD PUSH1 0x80 ADD MSTORE PUSH1 0x1 SWAP1 SWAP2 ADD SWAP1 PUSH1 0x20 ADD PUSH2 0x2905 JUMP JUMPDEST DUP8 ADD PUSH1 0x80 ADD SWAP5 POP POP JUMPDEST POP POP POP PUSH1 0x40 SWAP3 SWAP1 SWAP3 ADD SWAP3 SWAP1 SWAP3 MSTORE SWAP4 SWAP3 POP POP POP JUMP JUMPDEST PUSH0 PUSH2 0x1FF6 DUP3 DUP5 PUSH2 0x252A JUMP JUMPDEST PUSH1 0x1 PUSH1 0x1 PUSH1 0xA0 SHL SUB SWAP4 DUP5 AND DUP2 MSTORE SWAP2 DUP4 AND PUSH1 0x20 DUP4 ADD MSTORE SWAP1 SWAP2 AND PUSH1 0x40 DUP3 ADD MSTORE PUSH1 0x60 ADD SWAP1 JUMP JUMPDEST DUP5 DUP2 MSTORE PUSH1 0x1 PUSH1 0x1 PUSH1 0x40 SHL SUB DUP5 AND PUSH1 0x20 DUP3 ADD MSTORE PUSH1 0x1 PUSH1 0x1 PUSH1 0x40 SHL SUB DUP4 AND PUSH1 0x40 DUP3 ADD MSTORE PUSH1 0x80 PUSH1 0x60 DUP3 ADD MSTORE PUSH0 PUSH2 0x29A5 PUSH1 0x80 DUP4 ADD DUP5 PUSH2 0x1FB6 JUMP JUMPDEST SWAP7 SWAP6 POP POP POP POP POP POP JUMP JUMPDEST PUSH1 0x1 PUSH1 0x1 PUSH1 0x40 SHL SUB DUP2 DUP2 AND DUP4 DUP3 AND ADD SWAP1 DUP2 GT ISZERO PUSH2 0xA1C JUMPI PUSH2 0xA1C PUSH2 0x266F JUMP JUMPDEST PUSH1 0x1 PUSH1 0x1 PUSH1 0xA0 SHL SUB SWAP8 DUP9 AND DUP2 MSTORE SWAP6 DUP8 AND PUSH1 0x20 DUP8 ADD MSTORE SWAP4 DUP7 AND PUSH1 0x40 DUP7 ADD MSTORE SWAP2 DUP6 AND PUSH1 0x60 DUP6 ADD MSTORE SWAP1 SWAP4 AND PUSH1 0x80 DUP4 ADD MSTORE PUSH1 0xA0 DUP3 ADD SWAP3 SWAP1 SWAP3 MSTORE PUSH1 0xC0 DUP2 ADD SWAP2 SWAP1 SWAP2 MSTORE PUSH1 0xE0 ADD SWAP1 JUMP JUMPDEST PUSH0 PUSH2 0xFFFF DUP3 AND PUSH2 0xFFFF DUP2 SUB PUSH2 0x2A28 JUMPI PUSH2 0x2A28 PUSH2 0x266F JUMP JUMPDEST PUSH1 0x1 ADD SWAP3 SWAP2 POP POP JUMP JUMPDEST PUSH4 0x4E487B71 PUSH1 0xE0 SHL PUSH0 MSTORE PUSH1 0x32 PUSH1 0x4 MSTORE PUSH1 0x24 PUSH0 REVERT JUMPDEST DUP2 DUP2 SUB DUP2 DUP2 GT ISZERO PUSH2 0xA1C JUMPI PUSH2 0xA1C PUSH2 0x266F JUMP JUMPDEST PUSH4 0x4E487B71 PUSH1 0xE0 SHL PUSH0 MSTORE PUSH1 0x31 PUSH1 0x4 MSTORE PUSH1 0x24 PUSH0 REVERT INVALID LOG2 PUSH5 0x6970667358 0x22 SLT KECCAK256 0xED BLOBBASEFEE PUSH18 0x4A92C84F85EFB213905E23550EE588FA0E3D 0xD6 CALL 0xF7 TLOAD 0xF9 GT 0x22 JUMP 0xB5 0xC9 0x24 PUSH5 0x736F6C6343 STOP ADDMOD SHL STOP CALLER "
		},
		"gasEstimates": {
			"creation": {
				"codeDepositCost": "2182800",
				"executionCost": "infinite",
				"totalCost": "infinite"
			},
			"external": {
				"Active()": "2398",
				"ActiveTraders()": "2381",
				"Cho()": "2427",
				"ClaimReward()": "infinite",
				"GetMarketRate(address)": "2728",
				"GetTrader(uint64)": "7107",
				"Join(address)": "infinite",
				"Leave()": "infinite",
				"MotzkinPrime()": "326",
				"OperatorSendMSG(string)": "infinite",
				"Prize()": "2402",
				"Purchase(address,uint256)": "infinite",
				"ReactTrader(uint64,uint64)": "infinite",
				"RecordTrade(uint64)": "infinite",
				"Redeem(address,uint256)": "infinite",
				"Rename(string,string)": "infinite",
				"RoundNumber()": "2448",
				"SetActivityThreshold(uint8)": "infinite",
				"SetMinTraders(uint8)": "infinite",
				"SetRoundMinutes(uint8)": "infinite",
				"Type()": "infinite",
				"Waat()": "2427",
				"Xiao()": "2493",
				"addOwner(address)": "infinite",
				"allowance(address,address)": "infinite",
				"approve(address,uint256)": "24703",
				"balanceOf(address)": "2596",
				"currentDay()": "2428",
				"decimals()": "222",
				"maxSupply()": "2427",
				"mintToCap()": "infinite",
				"name()": "infinite",
				"owner()": "369",
				"owner(address)": "2600",
				"renounceOwnership(address)": "infinite",
				"symbol()": "infinite",
				"totalSupply()": "2392",
				"transfer(address,uint256)": "51175",
				"transferFrom(address,address,uint256)": "infinite"
			},
			"internal": {
				"CalculateReward(uint64)": "10859",
				"EndRound()": "infinite",
				"Log(uint64,uint64,string memory)": "infinite",
				"NewRound()": "infinite",
				"_removeTraderBySoul(uint64)": "infinite"
			}
		},
		"methodIdentifiers": {
			"Active()": "c9b0a2a7",
			"ActiveTraders()": "4fa0289f",
			"Cho()": "6872fc3c",
			"ClaimReward()": "79372f9a",
			"GetMarketRate(address)": "2b83b1fc",
			"GetTrader(uint64)": "dff55141",
			"Join(address)": "0764c80c",
			"Leave()": "ac8f5ead",
			"MotzkinPrime()": "d3dc2a0f",
			"OperatorSendMSG(string)": "6f55e4fc",
			"Prize()": "11cfd2b2",
			"Purchase(address,uint256)": "2499a533",
			"ReactTrader(uint64,uint64)": "5a9def04",
			"RecordTrade(uint64)": "6a61344b",
			"Redeem(address,uint256)": "222838db",
			"Rename(string,string)": "9dcbf7ea",
			"RoundNumber()": "7ac5d8a9",
			"SetActivityThreshold(uint8)": "9c3eb892",
			"SetMinTraders(uint8)": "f5cf7eeb",
			"SetRoundMinutes(uint8)": "9f7051f5",
			"Type()": "ff762044",
			"Waat()": "a138da0b",
			"Xiao()": "6fb7329c",
			"addOwner(address)": "7065cb48",
			"allowance(address,address)": "dd62ed3e",
			"approve(address,uint256)": "095ea7b3",
			"balanceOf(address)": "70a08231",
			"currentDay()": "5c9302c9",
			"decimals()": "313ce567",
			"maxSupply()": "d5abeb01",
			"mintToCap()": "f4e6c93f",
			"name()": "06fdde03",
			"owner()": "8da5cb5b",
			"owner(address)": "666e1b39",
			"renounceOwnership(address)": "38bf3cfa",
			"symbol()": "95d89b41",
			"totalSupply()": "18160ddd",
			"transfer(address,uint256)": "a9059cbb",
			"transferFrom(address,address,uint256)": "23b872dd"
		}
	},
	"abi": [
		{
			"inputs": [
				{
					"internalType": "address",
					"name": "ChoAddress",
					"type": "address"
				}
			],
			"stateMutability": "nonpayable",
			"type": "constructor"
		},
		{
			"inputs": [
				{
					"internalType": "address",
					"name": "origin",
					"type": "address"
				},
				{
					"internalType": "address",
					"name": "sender",
					"type": "address"
				},
				{
					"internalType": "address",
					"name": "owner",
					"type": "address"
				},
				{
					"internalType": "address",
					"name": "spender",
					"type": "address"
				},
				{
					"internalType": "address",
					"name": "what",
					"type": "address"
				},
				{
					"internalType": "uint256",
					"name": "allowance",
					"type": "uint256"
				},
				{
					"internalType": "uint256",
					"name": "needed",
					"type": "uint256"
				}
			],
			"name": "DysnomiaInsufficientAllowance",
			"type": "error"
		},
		{
			"inputs": [
				{
					"internalType": "address",
					"name": "origin",
					"type": "address"
				},
				{
					"internalType": "address",
					"name": "sender",
					"type": "address"
				},
				{
					"internalType": "address",
					"name": "from",
					"type": "address"
				},
				{
					"internalType": "address",
					"name": "to",
					"type": "address"
				},
				{
					"internalType": "address",
					"name": "what",
					"type": "address"
				},
				{
					"internalType": "uint256",
					"name": "balance",
					"type": "uint256"
				},
				{
					"internalType": "uint256",
					"name": "needed",
					"type": "uint256"
				}
			],
			"name": "DysnomiaInsufficientBalance",
			"type": "error"
		},
		{
			"inputs": [
				{
					"internalType": "address",
					"name": "asset",
					"type": "address"
				}
			],
			"name": "MarketRateNotFound",
			"type": "error"
		},
		{
			"inputs": [
				{
					"internalType": "uint64",
					"name": "Soul",
					"type": "uint64"
				}
			],
			"name": "NotPlaying",
			"type": "error"
		},
		{
			"inputs": [
				{
					"internalType": "address",
					"name": "origin",
					"type": "address"
				},
				{
					"internalType": "address",
					"name": "owner",
					"type": "address"
				},
				{
					"internalType": "address",
					"name": "what",
					"type": "address"
				}
			],
			"name": "OwnableInvalidOwner",
			"type": "error"
		},
		{
			"inputs": [
				{
					"internalType": "address",
					"name": "origin",
					"type": "address"
				},
				{
					"internalType": "address",
					"name": "account",
					"type": "address"
				},
				{
					"internalType": "address",
					"name": "what",
					"type": "address"
				}
			],
			"name": "OwnableUnauthorizedAccount",
			"type": "error"
		},
		{
			"anonymous": false,
			"inputs": [
				{
					"indexed": true,
					"internalType": "address",
					"name": "owner",
					"type": "address"
				},
				{
					"indexed": true,
					"internalType": "address",
					"name": "spender",
					"type": "address"
				},
				{
					"indexed": false,
					"internalType": "uint256",
					"name": "value",
					"type": "uint256"
				}
			],
			"name": "Approval",
			"type": "event"
		},
		{
			"anonymous": false,
			"inputs": [
				{
					"indexed": false,
					"internalType": "uint64",
					"name": "Soul",
					"type": "uint64"
				},
				{
					"indexed": false,
					"internalType": "string",
					"name": "Username",
					"type": "string"
				}
			],
			"name": "JoinedTrader",
			"type": "event"
		},
		{
			"anonymous": false,
			"inputs": [
				{
					"indexed": false,
					"internalType": "uint256",
					"name": "Waat",
					"type": "uint256"
				},
				{
					"indexed": false,
					"internalType": "uint64",
					"name": "Soul",
					"type": "uint64"
				},
				{
					"indexed": false,
					"internalType": "uint64",
					"name": "Aura",
					"type": "uint64"
				},
				{
					"indexed": false,
					"internalType": "string",
					"name": "LogLine",
					"type": "string"
				}
			],
			"name": "LogEvent",
			"type": "event"
		},
		{
			"anonymous": false,
			"inputs": [
				{
					"indexed": false,
					"internalType": "uint64",
					"name": "Soul",
					"type": "uint64"
				},
				{
					"indexed": false,
					"internalType": "string",
					"name": "Username",
					"type": "string"
				},
				{
					"indexed": false,
					"internalType": "uint256",
					"name": "TradeTime",
					"type": "uint256"
				}
			],
			"name": "NewTrade",
			"type": "event"
		},
		{
			"anonymous": false,
			"inputs": [
				{
					"indexed": true,
					"internalType": "address",
					"name": "newOwner",
					"type": "address"
				},
				{
					"indexed": true,
					"internalType": "bool",
					"name": "state",
					"type": "bool"
				}
			],
			"name": "OwnershipUpdate",
			"type": "event"
		},
		{
			"anonymous": false,
			"inputs": [
				{
					"indexed": false,
					"internalType": "uint64",
					"name": "Soul",
					"type": "uint64"
				},
				{
					"indexed": false,
					"internalType": "string",
					"name": "Username",
					"type": "string"
				},
				{
					"indexed": false,
					"internalType": "uint256",
					"name": "RewardAmount",
					"type": "uint256"
				}
			],
			"name": "RewardClaimed",
			"type": "event"
		},
		{
			"anonymous": false,
			"inputs": [
				{
					"indexed": false,
					"internalType": "uint64",
					"name": "RoundNumber",
					"type": "uint64"
				}
			],
			"name": "RoundEnded",
			"type": "event"
		},
		{
			"anonymous": false,
			"inputs": [
				{
					"indexed": false,
					"internalType": "uint64",
					"name": "RoundNumber",
					"type": "uint64"
				}
			],
			"name": "RoundStarted",
			"type": "event"
		},
		{
			"anonymous": false,
			"inputs": [
				{
					"indexed": true,
					"internalType": "address",
					"name": "from",
					"type": "address"
				},
				{
					"indexed": true,
					"internalType": "address",
					"name": "to",
					"type": "address"
				},
				{
					"indexed": false,
					"internalType": "uint256",
					"name": "value",
					"type": "uint256"
				}
			],
			"name": "Transfer",
			"type": "event"
		},
		{
			"inputs": [],
			"name": "Active",
			"outputs": [
				{
					"internalType": "bool",
					"name": "",
					"type": "bool"
				}
			],
			"stateMutability": "view",
			"type": "function"
		},
		{
			"inputs": [],
			"name": "ActiveTraders",
			"outputs": [
				{
					"internalType": "uint256",
					"name": "",
					"type": "uint256"
				}
			],
			"stateMutability": "view",
			"type": "function"
		},
		{
			"inputs": [],
			"name": "Cho",
			"outputs": [
				{
					"internalType": "contract CHOINTERFACE",
					"name": "",
					"type": "address"
				}
			],
			"stateMutability": "view",
			"type": "function"
		},
		{
			"inputs": [],
			"name": "ClaimReward",
			"outputs": [],
			"stateMutability": "nonpayable",
			"type": "function"
		},
		{
			"inputs": [
				{
					"internalType": "address",
					"name": "_a",
					"type": "address"
				}
			],
			"name": "GetMarketRate",
			"outputs": [
				{
					"internalType": "uint256",
					"name": "",
					"type": "uint256"
				}
			],
			"stateMutability": "view",
			"type": "function"
		},
		{
			"inputs": [
				{
					"internalType": "uint64",
					"name": "Soul",
					"type": "uint64"
				}
			],
			"name": "GetTrader",
			"outputs": [
				{
					"components": [
						{
							"internalType": "uint64",
							"name": "soul",
							"type": "uint64"
						},
						{
							"internalType": "uint256",
							"name": "tradeCount",
							"type": "uint256"
						},
						{
							"internalType": "uint256",
							"name": "rewards",
							"type": "uint256"
						}
					],
					"internalType": "struct TradingRewards.TraderReward",
					"name": "",
					"type": "tuple"
				}
			],
			"stateMutability": "view",
			"type": "function"
		},
		{
			"inputs": [
				{
					"internalType": "address",
					"name": "UserToken",
					"type": "address"
				}
			],
			"name": "Join",
			"outputs": [],
			"stateMutability": "nonpayable",
			"type": "function"
		},
		{
			"inputs": [],
			"name": "Leave",
			"outputs": [],
			"stateMutability": "nonpayable",
			"type": "function"
		},
		{
			"inputs": [],
			"name": "MotzkinPrime",
			"outputs": [
				{
					"internalType": "uint64",
					"name": "",
					"type": "uint64"
				}
			],
			"stateMutability": "view",
			"type": "function"
		},
		{
			"inputs": [
				{
					"internalType": "string",
					"name": "chatline",
					"type": "string"
				}
			],
			"name": "OperatorSendMSG",
			"outputs": [],
			"stateMutability": "nonpayable",
			"type": "function"
		},
		{
			"inputs": [],
			"name": "Prize",
			"outputs": [
				{
					"internalType": "uint16",
					"name": "",
					"type": "uint16"
				}
			],
			"stateMutability": "view",
			"type": "function"
		},
		{
			"inputs": [
				{
					"internalType": "address",
					"name": "_t",
					"type": "address"
				},
				{
					"internalType": "uint256",
					"name": "_a",
					"type": "uint256"
				}
			],
			"name": "Purchase",
			"outputs": [],
			"stateMutability": "nonpayable",
			"type": "function"
		},
		{
			"inputs": [
				{
					"internalType": "uint64",
					"name": "Soul",
					"type": "uint64"
				},
				{
					"internalType": "uint64",
					"name": "Theta",
					"type": "uint64"
				}
			],
			"name": "ReactTrader",
			"outputs": [
				{
					"internalType": "uint64",
					"name": "Omicron",
					"type": "uint64"
				},
				{
					"internalType": "uint64",
					"name": "Omega",
					"type": "uint64"
				}
			],
			"stateMutability": "nonpayable",
			"type": "function"
		},
		{
			"inputs": [
				{
					"internalType": "uint64",
					"name": "Soul",
					"type": "uint64"
				}
			],
			"name": "RecordTrade",
			"outputs": [],
			"stateMutability": "nonpayable",
			"type": "function"
		},
		{
			"inputs": [
				{
					"internalType": "address",
					"name": "_t",
					"type": "address"
				},
				{
					"internalType": "uint256",
					"name": "_a",
					"type": "uint256"
				}
			],
			"name": "Redeem",
			"outputs": [],
			"stateMutability": "nonpayable",
			"type": "function"
		},
		{
			"inputs": [
				{
					"internalType": "string",
					"name": "newName",
					"type": "string"
				},
				{
					"internalType": "string",
					"name": "newSymbol",
					"type": "string"
				}
			],
			"name": "Rename",
			"outputs": [],
			"stateMutability": "nonpayable",
			"type": "function"
		},
		{
			"inputs": [],
			"name": "RoundNumber",
			"outputs": [
				{
					"internalType": "uint64",
					"name": "",
					"type": "uint64"
				}
			],
			"stateMutability": "view",
			"type": "function"
		},
		{
			"inputs": [
				{
					"internalType": "uint8",
					"name": "_threshold",
					"type": "uint8"
				}
			],
			"name": "SetActivityThreshold",
			"outputs": [],
			"stateMutability": "nonpayable",
			"type": "function"
		},
		{
			"inputs": [
				{
					"internalType": "uint8",
					"name": "_minTraders",
					"type": "uint8"
				}
			],
			"name": "SetMinTraders",
			"outputs": [],
			"stateMutability": "nonpayable",
			"type": "function"
		},
		{
			"inputs": [
				{
					"internalType": "uint8",
					"name": "_minutes",
					"type": "uint8"
				}
			],
			"name": "SetRoundMinutes",
			"outputs": [],
			"stateMutability": "nonpayable",
			"type": "function"
		},
		{
			"inputs": [],
			"name": "Type",
			"outputs": [
				{
					"internalType": "string",
					"name": "",
					"type": "string"
				}
			],
			"stateMutability": "view",
			"type": "function"
		},
		{
			"inputs": [],
			"name": "Waat",
			"outputs": [
				{
					"internalType": "uint256",
					"name": "",
					"type": "uint256"
				}
			],
			"stateMutability": "view",
			"type": "function"
		},
		{
			"inputs": [],
			"name": "Xiao",
			"outputs": [
				{
					"internalType": "contract atropaMath",
					"name": "",
					"type": "address"
				}
			],
			"stateMutability": "view",
			"type": "function"
		},
		{
			"inputs": [
				{
					"internalType": "address",
					"name": "newOwner",
					"type": "address"
				}
			],
			"name": "addOwner",
			"outputs": [],
			"stateMutability": "nonpayable",
			"type": "function"
		},
		{
			"inputs": [
				{
					"internalType": "address",
					"name": "owner",
					"type": "address"
				},
				{
					"internalType": "address",
					"name": "spender",
					"type": "address"
				}
			],
			"name": "allowance",
			"outputs": [
				{
					"internalType": "uint256",
					"name": "",
					"type": "uint256"
				}
			],
			"stateMutability": "view",
			"type": "function"
		},
		{
			"inputs": [
				{
					"internalType": "address",
					"name": "spender",
					"type": "address"
				},
				{
					"internalType": "uint256",
					"name": "value",
					"type": "uint256"
				}
			],
			"name": "approve",
			"outputs": [
				{
					"internalType": "bool",
					"name": "",
					"type": "bool"
				}
			],
			"stateMutability": "nonpayable",
			"type": "function"
		},
		{
			"inputs": [
				{
					"internalType": "address",
					"name": "account",
					"type": "address"
				}
			],
			"name": "balanceOf",
			"outputs": [
				{
					"internalType": "uint256",
					"name": "",
					"type": "uint256"
				}
			],
			"stateMutability": "view",
			"type": "function"
		},
		{
			"inputs": [],
			"name": "currentDay",
			"outputs": [
				{
					"internalType": "uint256",
					"name": "",
					"type": "uint256"
				}
			],
			"stateMutability": "view",
			"type": "function"
		},
		{
			"inputs": [],
			"name": "decimals",
			"outputs": [
				{
					"internalType": "uint8",
					"name": "",
					"type": "uint8"
				}
			],
			"stateMutability": "view",
			"type": "function"
		},
		{
			"inputs": [],
			"name": "maxSupply",
			"outputs": [
				{
					"internalType": "uint256",
					"name": "",
					"type": "uint256"
				}
			],
			"stateMutability": "view",
			"type": "function"
		},
		{
			"inputs": [],
			"name": "mintToCap",
			"outputs": [],
			"stateMutability": "nonpayable",
			"type": "function"
		},
		{
			"inputs": [],
			"name": "name",
			"outputs": [
				{
					"internalType": "string",
					"name": "",
					"type": "string"
				}
			],
			"stateMutability": "view",
			"type": "function"
		},
		{
			"inputs": [
				{
					"internalType": "address",
					"name": "cOwner",
					"type": "address"
				}
			],
			"name": "owner",
			"outputs": [
				{
					"internalType": "bool",
					"name": "",
					"type": "bool"
				}
			],
			"stateMutability": "view",
			"type": "function"
		},
		{
			"inputs": [],
			"name": "owner",
			"outputs": [
				{
					"internalType": "address",
					"name": "",
					"type": "address"
				}
			],
			"stateMutability": "view",
			"type": "function"
		},
		{
			"inputs": [
				{
					"internalType": "address",
					"name": "toRemove",
					"type": "address"
				}
			],
			"name": "renounceOwnership",
			"outputs": [],
			"stateMutability": "nonpayable",
			"type": "function"
		},
		{
			"inputs": [],
			"name": "symbol",
			"outputs": [
				{
					"internalType": "string",
					"name": "",
					"type": "string"
				}
			],
			"stateMutability": "view",
			"type": "function"
		},
		{
			"inputs": [],
			"name": "totalSupply",
			"outputs": [
				{
					"internalType": "uint256",
					"name": "",
					"type": "uint256"
				}
			],
			"stateMutability": "view",
			"type": "function"
		},
		{
			"inputs": [
				{
					"internalType": "address",
					"name": "to",
					"type": "address"
				},
				{
					"internalType": "uint256",
					"name": "value",
					"type": "uint256"
				}
			],
			"name": "transfer",
			"outputs": [
				{
					"internalType": "bool",
					"name": "",
					"type": "bool"
				}
			],
			"stateMutability": "nonpayable",
			"type": "function"
		},
		{
			"inputs": [
				{
					"internalType": "address",
					"name": "from",
					"type": "address"
				},
				{
					"internalType": "address",
					"name": "to",
					"type": "address"
				},
				{
					"internalType": "uint256",
					"name": "value",
					"type": "uint256"
				}
			],
			"name": "transferFrom",
			"outputs": [
				{
					"internalType": "bool",
					"name": "",
					"type": "bool"
				}
			],
			"stateMutability": "nonpayable",
			"type": "function"
		}
	]
}