{
	"data": {
		"bytecode": {
			"linkReferences": {},
			"object": "608060405234801561000f575f5ffd5b5060405180604001604052806006815260200165564d20524e4760d01b81525060405180604001604052806005815260200164564d524e4760d81b815250816003908161005c919061029e565b506004610069828261029e565b50507e01fae4570e6a3c0001eea60f0479020002ee53d1d08d2b000227025d8e13ca600555507e07e5e4f4c6d7510002dbdcd3778c6d000110e309ee0984000000000000000060068190557e02ffd06dbf2d9b00063c93e835361b00027b83e305ed18000043984fdf50d46007557e013a9dcccbbecd0000234cdd6795d9000000000000000000034add185625d8600855600980546001600160481b031990811666011fc59dd353c4179091557e01d582f24850510000aac3dc86188800028246aec62b3d000227025d8e13ca600a55600b919091557e02ffd06dbf2d9b00063c93e835361b00027b83e305ed1800059591956c8269600c557e01bf8f849a1db8000187bc56a5a81a00009b5daf8bfe0400034add185625d8600d55600e805468010000832915784aed92169190911790557e04386ba397d9d100011dd325062a390002877439321ef20000000000000000600f557d832915784aed00002998a7cb1db60000889846490db0000380fd806ce16e601055601180546001600160881b0319166e01bf8f849a1db80000bf8b42eefc83179055610358565b634e487b7160e01b5f52604160045260245ffd5b600181811c9082168061022e57607f821691505b60208210810361024c57634e487b7160e01b5f52602260045260245ffd5b50919050565b601f82111561029957805f5260205f20601f840160051c810160208510156102775750805b601f840160051c820191505b81811015610296575f8155600101610283565b50505b505050565b81516001600160401b038111156102b7576102b7610206565b6102cb816102c5845461021a565b84610252565b6020601f8211600181146102fd575f83156102e65750848201515b5f19600385901b1c1916600184901b178455610296565b5f84815260208120601f198516915b8281101561032c578785015182556020948501946001909201910161030c565b508482101561034957868401515f19600387901b60f8161c191681555b50505050600190811b01905550565b611906806103655f395ff3fe608060405234801561000f575f5ffd5b50600436106100e8575f3560e01c806353df6e351161008f57806353df6e351461019e578063604a6fa9146101c957806370a08231146101d157806379cc6790146101f957806395d89b411461020c578063a9059cbb14610214578063d3dc2a0f14610227578063dd62ed3e14610235578063fa6bcfec14610248575f5ffd5b806306fdde03146100ec578063095ea7b31461010a5780631686f2651461012d57806318160ddd1461014257806323b872dd14610154578063313ce567146101675780633148f14f1461017657806342966c6814610189575b5f5ffd5b6100f461025b565b604051610101919061139b565b60405180910390f35b61011d6101183660046113eb565b6102eb565b6040519015158152602001610101565b610135610304565b60405161010191906115f8565b6002545b604051908152602001610101565b61011d6101623660046116c1565b610b9e565b60405160128152602001610101565b6101466101843660046116fb565b610bc1565b61019c610197366004611724565b610c09565b005b6101b16101ac366004611751565b610c16565b6040516001600160401b039091168152602001610101565b6101b1610c4e565b6101466101df366004611791565b6001600160a01b03165f9081526020819052604090205490565b61019c6102073660046113eb565b610dab565b6100f4610dc4565b61011d6102223660046113eb565b610dd3565b6101b16603632c8eb5af3b81565b6101466102433660046117aa565b610de0565b6101466102563660046117aa565b610e0a565b60606003805461026a906117db565b80601f0160208091040260200160405190810160405280929190818152602001828054610296906117db565b80156102e15780601f106102b8576101008083540402835291602001916102e1565b820191905f5260205f20905b8154815290600101906020018083116102c457829003601f168201915b5050505050905090565b5f336102f8818585610e8e565b60019150505b92915050565b61030c611291565b6005604051806101a00160405290815f8201604051806102400160405290815f82015f9054906101000a90046001600160401b03166001600160401b03166001600160401b031681526020015f820160089054906101000a90046001600160401b03166001600160401b03166001600160401b031681526020015f820160109054906101000a90046001600160401b03166001600160401b03166001600160401b031681526020015f820160189054906101000a90046001600160401b03166001600160401b03166001600160401b03168152602001600182015f9054906101000a90046001600160401b03166001600160401b03166001600160401b031681526020016001820160089054906101000a90046001600160401b03166001600160401b03166001600160401b031681526020016001820160109054906101000a90046001600160401b03166001600160401b03166001600160401b031681526020016001820160189054906101000a90046001600160401b03166001600160401b03166001600160401b03168152602001600282015f9054906101000a90046001600160401b03166001600160401b03166001600160401b031681526020016002820160089054906101000a90046001600160401b03166001600160401b03166001600160401b031681526020016002820160109054906101000a90046001600160401b03166001600160401b03166001600160401b031681526020016002820160189054906101000a90046001600160401b03166001600160401b03166001600160401b03168152602001600382015f9054906101000a90046001600160401b03166001600160401b03166001600160401b031681526020016003820160089054906101000a90046001600160401b03166001600160401b03166001600160401b031681526020016003820160109054906101000a90046001600160401b03166001600160401b03166001600160401b031681526020016003820160189054906101000a90046001600160401b03166001600160401b03166001600160401b03168152602001600482015f9054906101000a90046001600160401b03166001600160401b03166001600160401b031681526020016004820160089054906101000a900460ff1660ff1660ff1681525050815260200160058201604051806102400160405290815f82015f9054906101000a90046001600160401b03166001600160401b03166001600160401b031681526020015f820160089054906101000a90046001600160401b03166001600160401b03166001600160401b031681526020015f820160109054906101000a90046001600160401b03166001600160401b03166001600160401b031681526020015f820160189054906101000a90046001600160401b03166001600160401b03166001600160401b03168152602001600182015f9054906101000a90046001600160401b03166001600160401b03166001600160401b031681526020016001820160089054906101000a90046001600160401b03166001600160401b03166001600160401b031681526020016001820160109054906101000a90046001600160401b03166001600160401b03166001600160401b031681526020016001820160189054906101000a90046001600160401b03166001600160401b03166001600160401b03168152602001600282015f9054906101000a90046001600160401b03166001600160401b03166001600160401b031681526020016002820160089054906101000a90046001600160401b03166001600160401b03166001600160401b031681526020016002820160109054906101000a90046001600160401b03166001600160401b03166001600160401b031681526020016002820160189054906101000a90046001600160401b03166001600160401b03166001600160401b03168152602001600382015f9054906101000a90046001600160401b03166001600160401b03166001600160401b031681526020016003820160089054906101000a90046001600160401b03166001600160401b03166001600160401b031681526020016003820160109054906101000a90046001600160401b03166001600160401b03166001600160401b031681526020016003820160189054906101000a90046001600160401b03166001600160401b03166001600160401b03168152602001600482015f9054906101000a90046001600160401b03166001600160401b03166001600160401b031681526020016004820160089054906101000a900460ff1660ff1660ff16815250508152602001600a82015f9054906101000a90046001600160401b03166001600160401b03166001600160401b03168152602001600a820160089054906101000a90046001600160401b03166001600160401b03166001600160401b03168152602001600a820160109054906101000a90046001600160401b03166001600160401b03166001600160401b03168152602001600a820160189054906101000a90046001600160401b03166001600160401b03166001600160401b03168152602001600b82015f9054906101000a90046001600160401b03166001600160401b03166001600160401b03168152602001600b820160089054906101000a90046001600160401b03166001600160401b03166001600160401b03168152602001600b820160109054906101000a90046001600160401b03166001600160401b03166001600160401b03168152602001600b820160189054906101000a90046001600160401b03166001600160401b03166001600160401b03168152602001600c82015f9054906101000a90046001600160401b03166001600160401b03166001600160401b03168152602001600c820160089054906101000a90046001600160401b03166001600160401b03166001600160401b03168152602001600c820160109054906101000a900460ff1660ff1660ff1681525050905090565b5f33610bab858285610ea0565b610bb6858585610ef9565b506001949350505050565b5f60405160208152602080820152602060408201528460608201528360808201528260a082015260c05160208160c0845f60055f19f1610bff575f5ffd5b5195945050505050565b610c133382610f56565b50565b5f6001600160401b038085169084811690848116908490610c38858585610bc1565b610c429190611827565b98975050505050505050565b6010545f90610c6f90600a90600160401b90046001600160401b0316610f8a565b50600e546010805467ffffffffffffffff60801b19166001600160401b03928316600160801b9081029190911791829055610cb192600a929190910416610f8a565b50600e54601080546001600160c01b03166001600160401b03928316600160c01b9081029190911791829055600c54610cf493600a939290920482169116610f9c565b600d546011805467ffffffffffffffff19166001600160401b03600160c01b93849004811691909117909155601054600754610d3893600593920482169116610f9c565b5060085460118054600160401b8082046001600160401b03908116600160c01b958690048216188116820267ffffffffffffffff60401b1993841617909355601080548281048516600160801b820486161895810485169590951884168202949092169390931790819055919091041690565b610db6823383610ea0565b610dc08282610f56565b5050565b60606004805461026a906117db565b5f336102f8818585610ef9565b6001600160a01b039182165f90815260016020908152604080832093909416825291909152205490565b5f8281610e18600f8561183a565b90505b825f03610e67576603632c8eb5af3b6001600160a01b038083168482160a16066001600160a01b031692506002816001600160a01b031681610e5f57610e5f611813565b049050610e1b565b610e856001600160a01b038087169086166603632c8eb5af3b610bc1565b95945050505050565b610e9b8383836001611054565b505050565b5f610eab8484610de0565b90505f198114610ef35781811015610ee557828183604051637dc7a0d960e11b8152600401610edc93929190611868565b60405180910390fd5b610ef384848484035f611054565b50505050565b6001600160a01b038316610f22575f604051634b637e8f60e11b8152600401610edc9190611889565b6001600160a01b038216610f4b575f60405163ec442f0560e01b8152600401610edc9190611889565b610e9b838383611126565b6001600160a01b038216610f7f575f604051634b637e8f60e11b8152600401610edc9190611889565b610dc0825f83611126565b5f610f958383611239565b9392505050565b8254610fba908390600160c01b90046001600160401b031683610c16565b60038401805467ffffffffffffffff60801b1916600160801b6001600160401b03938416021790558354610ffa9184918491600160c01b90910416610c16565b6003840180546001600160c01b0316600160c01b6001600160401b03938416021790819055600160801b9004161580159061104857506003830154600160c01b90046001600160401b031615155b610e9b57610e9b61189d565b6001600160a01b03841661107d575f60405163e602df0560e01b8152600401610edc9190611889565b6001600160a01b0383166110a6575f604051634a1406b160e11b8152600401610edc9190611889565b6001600160a01b038085165f9081526001602090815260408083209387168352929052208290558015610ef357826001600160a01b0316846001600160a01b03167f8c5be1e5ebec7d5bd14f71427d1e84f3dd0314c0f7b2291e5b200ac8c7c3b9258460405161111891815260200190565b60405180910390a350505050565b6001600160a01b038316611150578060025f82825461114591906118b1565b909155506111ad9050565b6001600160a01b0383165f908152602081905260409020548181101561118f5783818360405163391434e360e21b8152600401610edc93929190611868565b6001600160a01b0384165f9081526020819052604090209082900390555b6001600160a01b0382166111c9576002805482900390556111e7565b6001600160a01b0382165f9081526020819052604090208054820190555b816001600160a01b0316836001600160a01b03167fddf252ad1be2c89b69c2b068fc378daa952ba7f163c4a11628f55a4df523b3ef8360405161122c91815260200190565b60405180910390a3505050565b600182015482545f916112669184916001600160401b03600160c01b918290048116929190910416610c16565b6004840180546001600160401b039290921667ffffffffffffffff1990921682179055905092915050565b604051806101a001604052806112a5611308565b81526020016112b2611308565b81525f6020820181905260408201819052606082018190526080820181905260a0820181905260c0820181905260e082018190526101008201819052610120820181905261014082018190526101609091015290565b60408051610240810182525f80825260208201819052918101829052606081018290526080810182905260a0810182905260c0810182905260e08101829052610100810182905261012081018290526101408101829052610160810182905261018081018290526101a081018290526101c081018290526101e08101829052610200810182905261022081019190915290565b602081525f82518060208401528060208501604085015e5f604082850101526040601f19601f83011684010191505092915050565b80356001600160a01b03811681146113e6575f5ffd5b919050565b5f5f604083850312156113fc575f5ffd5b611405836113d0565b946020939093013593505050565b80516001600160401b03168252602081015161143a60208401826001600160401b03169052565b50604081015161145560408401826001600160401b03169052565b50606081015161147060608401826001600160401b03169052565b50608081015161148b60808401826001600160401b03169052565b5060a08101516114a660a08401826001600160401b03169052565b5060c08101516114c160c08401826001600160401b03169052565b5060e08101516114dc60e08401826001600160401b03169052565b506101008101516114f96101008401826001600160401b03169052565b506101208101516115166101208401826001600160401b03169052565b506101408101516115336101408401826001600160401b03169052565b506101608101516115506101608401826001600160401b03169052565b5061018081015161156d6101808401826001600160401b03169052565b506101a081015161158a6101a08401826001600160401b03169052565b506101c08101516115a76101c08401826001600160401b03169052565b506101e08101516115c46101e08401826001600160401b03169052565b506102008101516115e16102008401826001600160401b03169052565b50610220810151610e9b61022084018260ff169052565b5f6105e08201905061160b828451611413565b602083015161161e610240840182611413565b5060408301516001600160401b03908116610480840152606084015181166104a0840152608084015181166104c084015260a084015181166104e084015260c0840151811661050084015260e08401518116610520840152610100840151811661054084015261012084015181166105608401526101408401518116610580840152610160840151166105a08301526101809092015160ff166105c09091015290565b5f5f5f606084860312156116d3575f5ffd5b6116dc846113d0565b92506116ea602085016113d0565b929592945050506040919091013590565b5f5f5f6060848603121561170d575f5ffd5b505081359360208301359350604090920135919050565b5f60208284031215611734575f5ffd5b5035919050565b80356001600160401b03811681146113e6575f5ffd5b5f5f5f60608486031215611763575f5ffd5b61176c8461173b565b925061177a6020850161173b565b91506117886040850161173b565b90509250925092565b5f602082840312156117a1575f5ffd5b610f95826113d0565b5f5f604083850312156117bb575f5ffd5b6117c4836113d0565b91506117d2602084016113d0565b90509250929050565b600181811c908216806117ef57607f821691505b60208210810361180d57634e487b7160e01b5f52602260045260245ffd5b50919050565b634e487b7160e01b5f52601260045260245ffd5b5f8261183557611835611813565b500690565b5f6001600160a01b0383168061185257611852611813565b6001600160a01b03929092169190910492915050565b6001600160a01b039390931683526020830191909152604082015260600190565b6001600160a01b0391909116815260200190565b634e487b7160e01b5f52600160045260245ffd5b808201808211156102fe57634e487b7160e01b5f52601160045260245ffdfea2646970667358221220725792d724027208497110626c83bb9f0c672002b7fb796b7931c788aa027f9a64736f6c634300081b0033",
			"opcodes": "PUSH1 0x80 PUSH1 0x40 MSTORE CALLVALUE DUP1 ISZERO PUSH2 0xF JUMPI PUSH0 PUSH0 REVERT JUMPDEST POP PUSH1 0x40 MLOAD DUP1 PUSH1 0x40 ADD PUSH1 0x40 MSTORE DUP1 PUSH1 0x6 DUP2 MSTORE PUSH1 0x20 ADD PUSH6 0x564D20524E47 PUSH1 0xD0 SHL DUP2 MSTORE POP PUSH1 0x40 MLOAD DUP1 PUSH1 0x40 ADD PUSH1 0x40 MSTORE DUP1 PUSH1 0x5 DUP2 MSTORE PUSH1 0x20 ADD PUSH5 0x564D524E47 PUSH1 0xD8 SHL DUP2 MSTORE POP DUP2 PUSH1 0x3 SWAP1 DUP2 PUSH2 0x5C SWAP2 SWAP1 PUSH2 0x29E JUMP JUMPDEST POP PUSH1 0x4 PUSH2 0x69 DUP3 DUP3 PUSH2 0x29E JUMP JUMPDEST POP POP PUSH31 0x1FAE4570E6A3C0001EEA60F0479020002EE53D1D08D2B000227025D8E13CA PUSH1 0x5 SSTORE POP PUSH31 0x7E5E4F4C6D7510002DBDCD3778C6D000110E309EE09840000000000000000 PUSH1 0x6 DUP2 SWAP1 SSTORE PUSH31 0x2FFD06DBF2D9B00063C93E835361B00027B83E305ED18000043984FDF50D4 PUSH1 0x7 SSTORE PUSH31 0x13A9DCCCBBECD0000234CDD6795D9000000000000000000034ADD185625D8 PUSH1 0x8 SSTORE PUSH1 0x9 DUP1 SLOAD PUSH1 0x1 PUSH1 0x1 PUSH1 0x48 SHL SUB NOT SWAP1 DUP2 AND PUSH7 0x11FC59DD353C4 OR SWAP1 SWAP2 SSTORE PUSH31 0x1D582F24850510000AAC3DC86188800028246AEC62B3D000227025D8E13CA PUSH1 0xA SSTORE PUSH1 0xB SWAP2 SWAP1 SWAP2 SSTORE PUSH31 0x2FFD06DBF2D9B00063C93E835361B00027B83E305ED1800059591956C8269 PUSH1 0xC SSTORE PUSH31 0x1BF8F849A1DB8000187BC56A5A81A00009B5DAF8BFE0400034ADD185625D8 PUSH1 0xD SSTORE PUSH1 0xE DUP1 SLOAD PUSH9 0x10000832915784AED SWAP3 AND SWAP2 SWAP1 SWAP2 OR SWAP1 SSTORE PUSH31 0x4386BA397D9D100011DD325062A390002877439321EF20000000000000000 PUSH1 0xF SSTORE PUSH30 0x832915784AED00002998A7CB1DB60000889846490DB0000380FD806CE16E PUSH1 0x10 SSTORE PUSH1 0x11 DUP1 SLOAD PUSH1 0x1 PUSH1 0x1 PUSH1 0x88 SHL SUB NOT AND PUSH15 0x1BF8F849A1DB80000BF8B42EEFC83 OR SWAP1 SSTORE PUSH2 0x358 JUMP JUMPDEST PUSH4 0x4E487B71 PUSH1 0xE0 SHL PUSH0 MSTORE PUSH1 0x41 PUSH1 0x4 MSTORE PUSH1 0x24 PUSH0 REVERT JUMPDEST PUSH1 0x1 DUP2 DUP2 SHR SWAP1 DUP3 AND DUP1 PUSH2 0x22E JUMPI PUSH1 0x7F DUP3 AND SWAP2 POP JUMPDEST PUSH1 0x20 DUP3 LT DUP2 SUB PUSH2 0x24C JUMPI PUSH4 0x4E487B71 PUSH1 0xE0 SHL PUSH0 MSTORE PUSH1 0x22 PUSH1 0x4 MSTORE PUSH1 0x24 PUSH0 REVERT JUMPDEST POP SWAP2 SWAP1 POP JUMP JUMPDEST PUSH1 0x1F DUP3 GT ISZERO PUSH2 0x299 JUMPI DUP1 PUSH0 MSTORE PUSH1 0x20 PUSH0 KECCAK256 PUSH1 0x1F DUP5 ADD PUSH1 0x5 SHR DUP2 ADD PUSH1 0x20 DUP6 LT ISZERO PUSH2 0x277 JUMPI POP DUP1 JUMPDEST PUSH1 0x1F DUP5 ADD PUSH1 0x5 SHR DUP3 ADD SWAP2 POP JUMPDEST DUP2 DUP2 LT ISZERO PUSH2 0x296 JUMPI PUSH0 DUP2 SSTORE PUSH1 0x1 ADD PUSH2 0x283 JUMP JUMPDEST POP POP JUMPDEST POP POP POP JUMP JUMPDEST DUP2 MLOAD PUSH1 0x1 PUSH1 0x1 PUSH1 0x40 SHL SUB DUP2 GT ISZERO PUSH2 0x2B7 JUMPI PUSH2 0x2B7 PUSH2 0x206 JUMP JUMPDEST PUSH2 0x2CB DUP2 PUSH2 0x2C5 DUP5 SLOAD PUSH2 0x21A JUMP JUMPDEST DUP5 PUSH2 0x252 JUMP JUMPDEST PUSH1 0x20 PUSH1 0x1F DUP3 GT PUSH1 0x1 DUP2 EQ PUSH2 0x2FD JUMPI PUSH0 DUP4 ISZERO PUSH2 0x2E6 JUMPI POP DUP5 DUP3 ADD MLOAD JUMPDEST PUSH0 NOT PUSH1 0x3 DUP6 SWAP1 SHL SHR NOT AND PUSH1 0x1 DUP5 SWAP1 SHL OR DUP5 SSTORE PUSH2 0x296 JUMP JUMPDEST PUSH0 DUP5 DUP2 MSTORE PUSH1 0x20 DUP2 KECCAK256 PUSH1 0x1F NOT DUP6 AND SWAP2 JUMPDEST DUP3 DUP2 LT ISZERO PUSH2 0x32C JUMPI DUP8 DUP6 ADD MLOAD DUP3 SSTORE PUSH1 0x20 SWAP5 DUP6 ADD SWAP5 PUSH1 0x1 SWAP1 SWAP3 ADD SWAP2 ADD PUSH2 0x30C JUMP JUMPDEST POP DUP5 DUP3 LT ISZERO PUSH2 0x349 JUMPI DUP7 DUP5 ADD MLOAD PUSH0 NOT PUSH1 0x3 DUP8 SWAP1 SHL PUSH1 0xF8 AND SHR NOT AND DUP2 SSTORE JUMPDEST POP POP POP POP PUSH1 0x1 SWAP1 DUP2 SHL ADD SWAP1 SSTORE POP JUMP JUMPDEST PUSH2 0x1906 DUP1 PUSH2 0x365 PUSH0 CODECOPY PUSH0 RETURN INVALID PUSH1 0x80 PUSH1 0x40 MSTORE CALLVALUE DUP1 ISZERO PUSH2 0xF JUMPI PUSH0 PUSH0 REVERT JUMPDEST POP PUSH1 0x4 CALLDATASIZE LT PUSH2 0xE8 JUMPI PUSH0 CALLDATALOAD PUSH1 0xE0 SHR DUP1 PUSH4 0x53DF6E35 GT PUSH2 0x8F JUMPI DUP1 PUSH4 0x53DF6E35 EQ PUSH2 0x19E JUMPI DUP1 PUSH4 0x604A6FA9 EQ PUSH2 0x1C9 JUMPI DUP1 PUSH4 0x70A08231 EQ PUSH2 0x1D1 JUMPI DUP1 PUSH4 0x79CC6790 EQ PUSH2 0x1F9 JUMPI DUP1 PUSH4 0x95D89B41 EQ PUSH2 0x20C JUMPI DUP1 PUSH4 0xA9059CBB EQ PUSH2 0x214 JUMPI DUP1 PUSH4 0xD3DC2A0F EQ PUSH2 0x227 JUMPI DUP1 PUSH4 0xDD62ED3E EQ PUSH2 0x235 JUMPI DUP1 PUSH4 0xFA6BCFEC EQ PUSH2 0x248 JUMPI PUSH0 PUSH0 REVERT JUMPDEST DUP1 PUSH4 0x6FDDE03 EQ PUSH2 0xEC JUMPI DUP1 PUSH4 0x95EA7B3 EQ PUSH2 0x10A JUMPI DUP1 PUSH4 0x1686F265 EQ PUSH2 0x12D JUMPI DUP1 PUSH4 0x18160DDD EQ PUSH2 0x142 JUMPI DUP1 PUSH4 0x23B872DD EQ PUSH2 0x154 JUMPI DUP1 PUSH4 0x313CE567 EQ PUSH2 0x167 JUMPI DUP1 PUSH4 0x3148F14F EQ PUSH2 0x176 JUMPI DUP1 PUSH4 0x42966C68 EQ PUSH2 0x189 JUMPI JUMPDEST PUSH0 PUSH0 REVERT JUMPDEST PUSH2 0xF4 PUSH2 0x25B JUMP JUMPDEST PUSH1 0x40 MLOAD PUSH2 0x101 SWAP2 SWAP1 PUSH2 0x139B JUMP JUMPDEST PUSH1 0x40 MLOAD DUP1 SWAP2 SUB SWAP1 RETURN JUMPDEST PUSH2 0x11D PUSH2 0x118 CALLDATASIZE PUSH1 0x4 PUSH2 0x13EB JUMP JUMPDEST PUSH2 0x2EB JUMP JUMPDEST PUSH1 0x40 MLOAD SWAP1 ISZERO ISZERO DUP2 MSTORE PUSH1 0x20 ADD PUSH2 0x101 JUMP JUMPDEST PUSH2 0x135 PUSH2 0x304 JUMP JUMPDEST PUSH1 0x40 MLOAD PUSH2 0x101 SWAP2 SWAP1 PUSH2 0x15F8 JUMP JUMPDEST PUSH1 0x2 SLOAD JUMPDEST PUSH1 0x40 MLOAD SWAP1 DUP2 MSTORE PUSH1 0x20 ADD PUSH2 0x101 JUMP JUMPDEST PUSH2 0x11D PUSH2 0x162 CALLDATASIZE PUSH1 0x4 PUSH2 0x16C1 JUMP JUMPDEST PUSH2 0xB9E JUMP JUMPDEST PUSH1 0x40 MLOAD PUSH1 0x12 DUP2 MSTORE PUSH1 0x20 ADD PUSH2 0x101 JUMP JUMPDEST PUSH2 0x146 PUSH2 0x184 CALLDATASIZE PUSH1 0x4 PUSH2 0x16FB JUMP JUMPDEST PUSH2 0xBC1 JUMP JUMPDEST PUSH2 0x19C PUSH2 0x197 CALLDATASIZE PUSH1 0x4 PUSH2 0x1724 JUMP JUMPDEST PUSH2 0xC09 JUMP JUMPDEST STOP JUMPDEST PUSH2 0x1B1 PUSH2 0x1AC CALLDATASIZE PUSH1 0x4 PUSH2 0x1751 JUMP JUMPDEST PUSH2 0xC16 JUMP JUMPDEST PUSH1 0x40 MLOAD PUSH1 0x1 PUSH1 0x1 PUSH1 0x40 SHL SUB SWAP1 SWAP2 AND DUP2 MSTORE PUSH1 0x20 ADD PUSH2 0x101 JUMP JUMPDEST PUSH2 0x1B1 PUSH2 0xC4E JUMP JUMPDEST PUSH2 0x146 PUSH2 0x1DF CALLDATASIZE PUSH1 0x4 PUSH2 0x1791 JUMP JUMPDEST PUSH1 0x1 PUSH1 0x1 PUSH1 0xA0 SHL SUB AND PUSH0 SWAP1 DUP2 MSTORE PUSH1 0x20 DUP2 SWAP1 MSTORE PUSH1 0x40 SWAP1 KECCAK256 SLOAD SWAP1 JUMP JUMPDEST PUSH2 0x19C PUSH2 0x207 CALLDATASIZE PUSH1 0x4 PUSH2 0x13EB JUMP JUMPDEST PUSH2 0xDAB JUMP JUMPDEST PUSH2 0xF4 PUSH2 0xDC4 JUMP JUMPDEST PUSH2 0x11D PUSH2 0x222 CALLDATASIZE PUSH1 0x4 PUSH2 0x13EB JUMP JUMPDEST PUSH2 0xDD3 JUMP JUMPDEST PUSH2 0x1B1 PUSH7 0x3632C8EB5AF3B DUP2 JUMP JUMPDEST PUSH2 0x146 PUSH2 0x243 CALLDATASIZE PUSH1 0x4 PUSH2 0x17AA JUMP JUMPDEST PUSH2 0xDE0 JUMP JUMPDEST PUSH2 0x146 PUSH2 0x256 CALLDATASIZE PUSH1 0x4 PUSH2 0x17AA JUMP JUMPDEST PUSH2 0xE0A JUMP JUMPDEST PUSH1 0x60 PUSH1 0x3 DUP1 SLOAD PUSH2 0x26A SWAP1 PUSH2 0x17DB JUMP JUMPDEST DUP1 PUSH1 0x1F ADD PUSH1 0x20 DUP1 SWAP2 DIV MUL PUSH1 0x20 ADD PUSH1 0x40 MLOAD SWAP1 DUP2 ADD PUSH1 0x40 MSTORE DUP1 SWAP3 SWAP2 SWAP1 DUP2 DUP2 MSTORE PUSH1 0x20 ADD DUP3 DUP1 SLOAD PUSH2 0x296 SWAP1 PUSH2 0x17DB JUMP JUMPDEST DUP1 ISZERO PUSH2 0x2E1 JUMPI DUP1 PUSH1 0x1F LT PUSH2 0x2B8 JUMPI PUSH2 0x100 DUP1 DUP4 SLOAD DIV MUL DUP4 MSTORE SWAP2 PUSH1 0x20 ADD SWAP2 PUSH2 0x2E1 JUMP JUMPDEST DUP3 ADD SWAP2 SWAP1 PUSH0 MSTORE PUSH1 0x20 PUSH0 KECCAK256 SWAP1 JUMPDEST DUP2 SLOAD DUP2 MSTORE SWAP1 PUSH1 0x1 ADD SWAP1 PUSH1 0x20 ADD DUP1 DUP4 GT PUSH2 0x2C4 JUMPI DUP3 SWAP1 SUB PUSH1 0x1F AND DUP3 ADD SWAP2 JUMPDEST POP POP POP POP POP SWAP1 POP SWAP1 JUMP JUMPDEST PUSH0 CALLER PUSH2 0x2F8 DUP2 DUP6 DUP6 PUSH2 0xE8E JUMP JUMPDEST PUSH1 0x1 SWAP2 POP POP JUMPDEST SWAP3 SWAP2 POP POP JUMP JUMPDEST PUSH2 0x30C PUSH2 0x1291 JUMP JUMPDEST PUSH1 0x5 PUSH1 0x40 MLOAD DUP1 PUSH2 0x1A0 ADD PUSH1 0x40 MSTORE SWAP1 DUP2 PUSH0 DUP3 ADD PUSH1 0x40 MLOAD DUP1 PUSH2 0x240 ADD PUSH1 0x40 MSTORE SWAP1 DUP2 PUSH0 DUP3 ADD PUSH0 SWAP1 SLOAD SWAP1 PUSH2 0x100 EXP SWAP1 DIV PUSH1 0x1 PUSH1 0x1 PUSH1 0x40 SHL SUB AND PUSH1 0x1 PUSH1 0x1 PUSH1 0x40 SHL SUB AND PUSH1 0x1 PUSH1 0x1 PUSH1 0x40 SHL SUB AND DUP2 MSTORE PUSH1 0x20 ADD PUSH0 DUP3 ADD PUSH1 0x8 SWAP1 SLOAD SWAP1 PUSH2 0x100 EXP SWAP1 DIV PUSH1 0x1 PUSH1 0x1 PUSH1 0x40 SHL SUB AND PUSH1 0x1 PUSH1 0x1 PUSH1 0x40 SHL SUB AND PUSH1 0x1 PUSH1 0x1 PUSH1 0x40 SHL SUB AND DUP2 MSTORE PUSH1 0x20 ADD PUSH0 DUP3 ADD PUSH1 0x10 SWAP1 SLOAD SWAP1 PUSH2 0x100 EXP SWAP1 DIV PUSH1 0x1 PUSH1 0x1 PUSH1 0x40 SHL SUB AND PUSH1 0x1 PUSH1 0x1 PUSH1 0x40 SHL SUB AND PUSH1 0x1 PUSH1 0x1 PUSH1 0x40 SHL SUB AND DUP2 MSTORE PUSH1 0x20 ADD PUSH0 DUP3 ADD PUSH1 0x18 SWAP1 SLOAD SWAP1 PUSH2 0x100 EXP SWAP1 DIV PUSH1 0x1 PUSH1 0x1 PUSH1 0x40 SHL SUB AND PUSH1 0x1 PUSH1 0x1 PUSH1 0x40 SHL SUB AND PUSH1 0x1 PUSH1 0x1 PUSH1 0x40 SHL SUB AND DUP2 MSTORE PUSH1 0x20 ADD PUSH1 0x1 DUP3 ADD PUSH0 SWAP1 SLOAD SWAP1 PUSH2 0x100 EXP SWAP1 DIV PUSH1 0x1 PUSH1 0x1 PUSH1 0x40 SHL SUB AND PUSH1 0x1 PUSH1 0x1 PUSH1 0x40 SHL SUB AND PUSH1 0x1 PUSH1 0x1 PUSH1 0x40 SHL SUB AND DUP2 MSTORE PUSH1 0x20 ADD PUSH1 0x1 DUP3 ADD PUSH1 0x8 SWAP1 SLOAD SWAP1 PUSH2 0x100 EXP SWAP1 DIV PUSH1 0x1 PUSH1 0x1 PUSH1 0x40 SHL SUB AND PUSH1 0x1 PUSH1 0x1 PUSH1 0x40 SHL SUB AND PUSH1 0x1 PUSH1 0x1 PUSH1 0x40 SHL SUB AND DUP2 MSTORE PUSH1 0x20 ADD PUSH1 0x1 DUP3 ADD PUSH1 0x10 SWAP1 SLOAD SWAP1 PUSH2 0x100 EXP SWAP1 DIV PUSH1 0x1 PUSH1 0x1 PUSH1 0x40 SHL SUB AND PUSH1 0x1 PUSH1 0x1 PUSH1 0x40 SHL SUB AND PUSH1 0x1 PUSH1 0x1 PUSH1 0x40 SHL SUB AND DUP2 MSTORE PUSH1 0x20 ADD PUSH1 0x1 DUP3 ADD PUSH1 0x18 SWAP1 SLOAD SWAP1 PUSH2 0x100 EXP SWAP1 DIV PUSH1 0x1 PUSH1 0x1 PUSH1 0x40 SHL SUB AND PUSH1 0x1 PUSH1 0x1 PUSH1 0x40 SHL SUB AND PUSH1 0x1 PUSH1 0x1 PUSH1 0x40 SHL SUB AND DUP2 MSTORE PUSH1 0x20 ADD PUSH1 0x2 DUP3 ADD PUSH0 SWAP1 SLOAD SWAP1 PUSH2 0x100 EXP SWAP1 DIV PUSH1 0x1 PUSH1 0x1 PUSH1 0x40 SHL SUB AND PUSH1 0x1 PUSH1 0x1 PUSH1 0x40 SHL SUB AND PUSH1 0x1 PUSH1 0x1 PUSH1 0x40 SHL SUB AND DUP2 MSTORE PUSH1 0x20 ADD PUSH1 0x2 DUP3 ADD PUSH1 0x8 SWAP1 SLOAD SWAP1 PUSH2 0x100 EXP SWAP1 DIV PUSH1 0x1 PUSH1 0x1 PUSH1 0x40 SHL SUB AND PUSH1 0x1 PUSH1 0x1 PUSH1 0x40 SHL SUB AND PUSH1 0x1 PUSH1 0x1 PUSH1 0x40 SHL SUB AND DUP2 MSTORE PUSH1 0x20 ADD PUSH1 0x2 DUP3 ADD PUSH1 0x10 SWAP1 SLOAD SWAP1 PUSH2 0x100 EXP SWAP1 DIV PUSH1 0x1 PUSH1 0x1 PUSH1 0x40 SHL SUB AND PUSH1 0x1 PUSH1 0x1 PUSH1 0x40 SHL SUB AND PUSH1 0x1 PUSH1 0x1 PUSH1 0x40 SHL SUB AND DUP2 MSTORE PUSH1 0x20 ADD PUSH1 0x2 DUP3 ADD PUSH1 0x18 SWAP1 SLOAD SWAP1 PUSH2 0x100 EXP SWAP1 DIV PUSH1 0x1 PUSH1 0x1 PUSH1 0x40 SHL SUB AND PUSH1 0x1 PUSH1 0x1 PUSH1 0x40 SHL SUB AND PUSH1 0x1 PUSH1 0x1 PUSH1 0x40 SHL SUB AND DUP2 MSTORE PUSH1 0x20 ADD PUSH1 0x3 DUP3 ADD PUSH0 SWAP1 SLOAD SWAP1 PUSH2 0x100 EXP SWAP1 DIV PUSH1 0x1 PUSH1 0x1 PUSH1 0x40 SHL SUB AND PUSH1 0x1 PUSH1 0x1 PUSH1 0x40 SHL SUB AND PUSH1 0x1 PUSH1 0x1 PUSH1 0x40 SHL SUB AND DUP2 MSTORE PUSH1 0x20 ADD PUSH1 0x3 DUP3 ADD PUSH1 0x8 SWAP1 SLOAD SWAP1 PUSH2 0x100 EXP SWAP1 DIV PUSH1 0x1 PUSH1 0x1 PUSH1 0x40 SHL SUB AND PUSH1 0x1 PUSH1 0x1 PUSH1 0x40 SHL SUB AND PUSH1 0x1 PUSH1 0x1 PUSH1 0x40 SHL SUB AND DUP2 MSTORE PUSH1 0x20 ADD PUSH1 0x3 DUP3 ADD PUSH1 0x10 SWAP1 SLOAD SWAP1 PUSH2 0x100 EXP SWAP1 DIV PUSH1 0x1 PUSH1 0x1 PUSH1 0x40 SHL SUB AND PUSH1 0x1 PUSH1 0x1 PUSH1 0x40 SHL SUB AND PUSH1 0x1 PUSH1 0x1 PUSH1 0x40 SHL SUB AND DUP2 MSTORE PUSH1 0x20 ADD PUSH1 0x3 DUP3 ADD PUSH1 0x18 SWAP1 SLOAD SWAP1 PUSH2 0x100 EXP SWAP1 DIV PUSH1 0x1 PUSH1 0x1 PUSH1 0x40 SHL SUB AND PUSH1 0x1 PUSH1 0x1 PUSH1 0x40 SHL SUB AND PUSH1 0x1 PUSH1 0x1 PUSH1 0x40 SHL SUB AND DUP2 MSTORE PUSH1 0x20 ADD PUSH1 0x4 DUP3 ADD PUSH0 SWAP1 SLOAD SWAP1 PUSH2 0x100 EXP SWAP1 DIV PUSH1 0x1 PUSH1 0x1 PUSH1 0x40 SHL SUB AND PUSH1 0x1 PUSH1 0x1 PUSH1 0x40 SHL SUB AND PUSH1 0x1 PUSH1 0x1 PUSH1 0x40 SHL SUB AND DUP2 MSTORE PUSH1 0x20 ADD PUSH1 0x4 DUP3 ADD PUSH1 0x8 SWAP1 SLOAD SWAP1 PUSH2 0x100 EXP SWAP1 DIV PUSH1 0xFF AND PUSH1 0xFF AND PUSH1 0xFF AND DUP2 MSTORE POP POP DUP2 MSTORE PUSH1 0x20 ADD PUSH1 0x5 DUP3 ADD PUSH1 0x40 MLOAD DUP1 PUSH2 0x240 ADD PUSH1 0x40 MSTORE SWAP1 DUP2 PUSH0 DUP3 ADD PUSH0 SWAP1 SLOAD SWAP1 PUSH2 0x100 EXP SWAP1 DIV PUSH1 0x1 PUSH1 0x1 PUSH1 0x40 SHL SUB AND PUSH1 0x1 PUSH1 0x1 PUSH1 0x40 SHL SUB AND PUSH1 0x1 PUSH1 0x1 PUSH1 0x40 SHL SUB AND DUP2 MSTORE PUSH1 0x20 ADD PUSH0 DUP3 ADD PUSH1 0x8 SWAP1 SLOAD SWAP1 PUSH2 0x100 EXP SWAP1 DIV PUSH1 0x1 PUSH1 0x1 PUSH1 0x40 SHL SUB AND PUSH1 0x1 PUSH1 0x1 PUSH1 0x40 SHL SUB AND PUSH1 0x1 PUSH1 0x1 PUSH1 0x40 SHL SUB AND DUP2 MSTORE PUSH1 0x20 ADD PUSH0 DUP3 ADD PUSH1 0x10 SWAP1 SLOAD SWAP1 PUSH2 0x100 EXP SWAP1 DIV PUSH1 0x1 PUSH1 0x1 PUSH1 0x40 SHL SUB AND PUSH1 0x1 PUSH1 0x1 PUSH1 0x40 SHL SUB AND PUSH1 0x1 PUSH1 0x1 PUSH1 0x40 SHL SUB AND DUP2 MSTORE PUSH1 0x20 ADD PUSH0 DUP3 ADD PUSH1 0x18 SWAP1 SLOAD SWAP1 PUSH2 0x100 EXP SWAP1 DIV PUSH1 0x1 PUSH1 0x1 PUSH1 0x40 SHL SUB AND PUSH1 0x1 PUSH1 0x1 PUSH1 0x40 SHL SUB AND PUSH1 0x1 PUSH1 0x1 PUSH1 0x40 SHL SUB AND DUP2 MSTORE PUSH1 0x20 ADD PUSH1 0x1 DUP3 ADD PUSH0 SWAP1 SLOAD SWAP1 PUSH2 0x100 EXP SWAP1 DIV PUSH1 0x1 PUSH1 0x1 PUSH1 0x40 SHL SUB AND PUSH1 0x1 PUSH1 0x1 PUSH1 0x40 SHL SUB AND PUSH1 0x1 PUSH1 0x1 PUSH1 0x40 SHL SUB AND DUP2 MSTORE PUSH1 0x20 ADD PUSH1 0x1 DUP3 ADD PUSH1 0x8 SWAP1 SLOAD SWAP1 PUSH2 0x100 EXP SWAP1 DIV PUSH1 0x1 PUSH1 0x1 PUSH1 0x40 SHL SUB AND PUSH1 0x1 PUSH1 0x1 PUSH1 0x40 SHL SUB AND PUSH1 0x1 PUSH1 0x1 PUSH1 0x40 SHL SUB AND DUP2 MSTORE PUSH1 0x20 ADD PUSH1 0x1 DUP3 ADD PUSH1 0x10 SWAP1 SLOAD SWAP1 PUSH2 0x100 EXP SWAP1 DIV PUSH1 0x1 PUSH1 0x1 PUSH1 0x40 SHL SUB AND PUSH1 0x1 PUSH1 0x1 PUSH1 0x40 SHL SUB AND PUSH1 0x1 PUSH1 0x1 PUSH1 0x40 SHL SUB AND DUP2 MSTORE PUSH1 0x20 ADD PUSH1 0x1 DUP3 ADD PUSH1 0x18 SWAP1 SLOAD SWAP1 PUSH2 0x100 EXP SWAP1 DIV PUSH1 0x1 PUSH1 0x1 PUSH1 0x40 SHL SUB AND PUSH1 0x1 PUSH1 0x1 PUSH1 0x40 SHL SUB AND PUSH1 0x1 PUSH1 0x1 PUSH1 0x40 SHL SUB AND DUP2 MSTORE PUSH1 0x20 ADD PUSH1 0x2 DUP3 ADD PUSH0 SWAP1 SLOAD SWAP1 PUSH2 0x100 EXP SWAP1 DIV PUSH1 0x1 PUSH1 0x1 PUSH1 0x40 SHL SUB AND PUSH1 0x1 PUSH1 0x1 PUSH1 0x40 SHL SUB AND PUSH1 0x1 PUSH1 0x1 PUSH1 0x40 SHL SUB AND DUP2 MSTORE PUSH1 0x20 ADD PUSH1 0x2 DUP3 ADD PUSH1 0x8 SWAP1 SLOAD SWAP1 PUSH2 0x100 EXP SWAP1 DIV PUSH1 0x1 PUSH1 0x1 PUSH1 0x40 SHL SUB AND PUSH1 0x1 PUSH1 0x1 PUSH1 0x40 SHL SUB AND PUSH1 0x1 PUSH1 0x1 PUSH1 0x40 SHL SUB AND DUP2 MSTORE PUSH1 0x20 ADD PUSH1 0x2 DUP3 ADD PUSH1 0x10 SWAP1 SLOAD SWAP1 PUSH2 0x100 EXP SWAP1 DIV PUSH1 0x1 PUSH1 0x1 PUSH1 0x40 SHL SUB AND PUSH1 0x1 PUSH1 0x1 PUSH1 0x40 SHL SUB AND PUSH1 0x1 PUSH1 0x1 PUSH1 0x40 SHL SUB AND DUP2 MSTORE PUSH1 0x20 ADD PUSH1 0x2 DUP3 ADD PUSH1 0x18 SWAP1 SLOAD SWAP1 PUSH2 0x100 EXP SWAP1 DIV PUSH1 0x1 PUSH1 0x1 PUSH1 0x40 SHL SUB AND PUSH1 0x1 PUSH1 0x1 PUSH1 0x40 SHL SUB AND PUSH1 0x1 PUSH1 0x1 PUSH1 0x40 SHL SUB AND DUP2 MSTORE PUSH1 0x20 ADD PUSH1 0x3 DUP3 ADD PUSH0 SWAP1 SLOAD SWAP1 PUSH2 0x100 EXP SWAP1 DIV PUSH1 0x1 PUSH1 0x1 PUSH1 0x40 SHL SUB AND PUSH1 0x1 PUSH1 0x1 PUSH1 0x40 SHL SUB AND PUSH1 0x1 PUSH1 0x1 PUSH1 0x40 SHL SUB AND DUP2 MSTORE PUSH1 0x20 ADD PUSH1 0x3 DUP3 ADD PUSH1 0x8 SWAP1 SLOAD SWAP1 PUSH2 0x100 EXP SWAP1 DIV PUSH1 0x1 PUSH1 0x1 PUSH1 0x40 SHL SUB AND PUSH1 0x1 PUSH1 0x1 PUSH1 0x40 SHL SUB AND PUSH1 0x1 PUSH1 0x1 PUSH1 0x40 SHL SUB AND DUP2 MSTORE PUSH1 0x20 ADD PUSH1 0x3 DUP3 ADD PUSH1 0x10 SWAP1 SLOAD SWAP1 PUSH2 0x100 EXP SWAP1 DIV PUSH1 0x1 PUSH1 0x1 PUSH1 0x40 SHL SUB AND PUSH1 0x1 PUSH1 0x1 PUSH1 0x40 SHL SUB AND PUSH1 0x1 PUSH1 0x1 PUSH1 0x40 SHL SUB AND DUP2 MSTORE PUSH1 0x20 ADD PUSH1 0x3 DUP3 ADD PUSH1 0x18 SWAP1 SLOAD SWAP1 PUSH2 0x100 EXP SWAP1 DIV PUSH1 0x1 PUSH1 0x1 PUSH1 0x40 SHL SUB AND PUSH1 0x1 PUSH1 0x1 PUSH1 0x40 SHL SUB AND PUSH1 0x1 PUSH1 0x1 PUSH1 0x40 SHL SUB AND DUP2 MSTORE PUSH1 0x20 ADD PUSH1 0x4 DUP3 ADD PUSH0 SWAP1 SLOAD SWAP1 PUSH2 0x100 EXP SWAP1 DIV PUSH1 0x1 PUSH1 0x1 PUSH1 0x40 SHL SUB AND PUSH1 0x1 PUSH1 0x1 PUSH1 0x40 SHL SUB AND PUSH1 0x1 PUSH1 0x1 PUSH1 0x40 SHL SUB AND DUP2 MSTORE PUSH1 0x20 ADD PUSH1 0x4 DUP3 ADD PUSH1 0x8 SWAP1 SLOAD SWAP1 PUSH2 0x100 EXP SWAP1 DIV PUSH1 0xFF AND PUSH1 0xFF AND PUSH1 0xFF AND DUP2 MSTORE POP POP DUP2 MSTORE PUSH1 0x20 ADD PUSH1 0xA DUP3 ADD PUSH0 SWAP1 SLOAD SWAP1 PUSH2 0x100 EXP SWAP1 DIV PUSH1 0x1 PUSH1 0x1 PUSH1 0x40 SHL SUB AND PUSH1 0x1 PUSH1 0x1 PUSH1 0x40 SHL SUB AND PUSH1 0x1 PUSH1 0x1 PUSH1 0x40 SHL SUB AND DUP2 MSTORE PUSH1 0x20 ADD PUSH1 0xA DUP3 ADD PUSH1 0x8 SWAP1 SLOAD SWAP1 PUSH2 0x100 EXP SWAP1 DIV PUSH1 0x1 PUSH1 0x1 PUSH1 0x40 SHL SUB AND PUSH1 0x1 PUSH1 0x1 PUSH1 0x40 SHL SUB AND PUSH1 0x1 PUSH1 0x1 PUSH1 0x40 SHL SUB AND DUP2 MSTORE PUSH1 0x20 ADD PUSH1 0xA DUP3 ADD PUSH1 0x10 SWAP1 SLOAD SWAP1 PUSH2 0x100 EXP SWAP1 DIV PUSH1 0x1 PUSH1 0x1 PUSH1 0x40 SHL SUB AND PUSH1 0x1 PUSH1 0x1 PUSH1 0x40 SHL SUB AND PUSH1 0x1 PUSH1 0x1 PUSH1 0x40 SHL SUB AND DUP2 MSTORE PUSH1 0x20 ADD PUSH1 0xA DUP3 ADD PUSH1 0x18 SWAP1 SLOAD SWAP1 PUSH2 0x100 EXP SWAP1 DIV PUSH1 0x1 PUSH1 0x1 PUSH1 0x40 SHL SUB AND PUSH1 0x1 PUSH1 0x1 PUSH1 0x40 SHL SUB AND PUSH1 0x1 PUSH1 0x1 PUSH1 0x40 SHL SUB AND DUP2 MSTORE PUSH1 0x20 ADD PUSH1 0xB DUP3 ADD PUSH0 SWAP1 SLOAD SWAP1 PUSH2 0x100 EXP SWAP1 DIV PUSH1 0x1 PUSH1 0x1 PUSH1 0x40 SHL SUB AND PUSH1 0x1 PUSH1 0x1 PUSH1 0x40 SHL SUB AND PUSH1 0x1 PUSH1 0x1 PUSH1 0x40 SHL SUB AND DUP2 MSTORE PUSH1 0x20 ADD PUSH1 0xB DUP3 ADD PUSH1 0x8 SWAP1 SLOAD SWAP1 PUSH2 0x100 EXP SWAP1 DIV PUSH1 0x1 PUSH1 0x1 PUSH1 0x40 SHL SUB AND PUSH1 0x1 PUSH1 0x1 PUSH1 0x40 SHL SUB AND PUSH1 0x1 PUSH1 0x1 PUSH1 0x40 SHL SUB AND DUP2 MSTORE PUSH1 0x20 ADD PUSH1 0xB DUP3 ADD PUSH1 0x10 SWAP1 SLOAD SWAP1 PUSH2 0x100 EXP SWAP1 DIV PUSH1 0x1 PUSH1 0x1 PUSH1 0x40 SHL SUB AND PUSH1 0x1 PUSH1 0x1 PUSH1 0x40 SHL SUB AND PUSH1 0x1 PUSH1 0x1 PUSH1 0x40 SHL SUB AND DUP2 MSTORE PUSH1 0x20 ADD PUSH1 0xB DUP3 ADD PUSH1 0x18 SWAP1 SLOAD SWAP1 PUSH2 0x100 EXP SWAP1 DIV PUSH1 0x1 PUSH1 0x1 PUSH1 0x40 SHL SUB AND PUSH1 0x1 PUSH1 0x1 PUSH1 0x40 SHL SUB AND PUSH1 0x1 PUSH1 0x1 PUSH1 0x40 SHL SUB AND DUP2 MSTORE PUSH1 0x20 ADD PUSH1 0xC DUP3 ADD PUSH0 SWAP1 SLOAD SWAP1 PUSH2 0x100 EXP SWAP1 DIV PUSH1 0x1 PUSH1 0x1 PUSH1 0x40 SHL SUB AND PUSH1 0x1 PUSH1 0x1 PUSH1 0x40 SHL SUB AND PUSH1 0x1 PUSH1 0x1 PUSH1 0x40 SHL SUB AND DUP2 MSTORE PUSH1 0x20 ADD PUSH1 0xC DUP3 ADD PUSH1 0x8 SWAP1 SLOAD SWAP1 PUSH2 0x100 EXP SWAP1 DIV PUSH1 0x1 PUSH1 0x1 PUSH1 0x40 SHL SUB AND PUSH1 0x1 PUSH1 0x1 PUSH1 0x40 SHL SUB AND PUSH1 0x1 PUSH1 0x1 PUSH1 0x40 SHL SUB AND DUP2 MSTORE PUSH1 0x20 ADD PUSH1 0xC DUP3 ADD PUSH1 0x10 SWAP1 SLOAD SWAP1 PUSH2 0x100 EXP SWAP1 DIV PUSH1 0xFF AND PUSH1 0xFF AND PUSH1 0xFF AND DUP2 MSTORE POP POP SWAP1 POP SWAP1 JUMP JUMPDEST PUSH0 CALLER PUSH2 0xBAB DUP6 DUP3 DUP6 PUSH2 0xEA0 JUMP JUMPDEST PUSH2 0xBB6 DUP6 DUP6 DUP6 PUSH2 0xEF9 JUMP JUMPDEST POP PUSH1 0x1 SWAP5 SWAP4 POP POP POP POP JUMP JUMPDEST PUSH0 PUSH1 0x40 MLOAD PUSH1 0x20 DUP2 MSTORE PUSH1 0x20 DUP1 DUP3 ADD MSTORE PUSH1 0x20 PUSH1 0x40 DUP3 ADD MSTORE DUP5 PUSH1 0x60 DUP3 ADD MSTORE DUP4 PUSH1 0x80 DUP3 ADD MSTORE DUP3 PUSH1 0xA0 DUP3 ADD MSTORE PUSH1 0xC0 MLOAD PUSH1 0x20 DUP2 PUSH1 0xC0 DUP5 PUSH0 PUSH1 0x5 PUSH0 NOT CALL PUSH2 0xBFF JUMPI PUSH0 PUSH0 REVERT JUMPDEST MLOAD SWAP6 SWAP5 POP POP POP POP POP JUMP JUMPDEST PUSH2 0xC13 CALLER DUP3 PUSH2 0xF56 JUMP JUMPDEST POP JUMP JUMPDEST PUSH0 PUSH1 0x1 PUSH1 0x1 PUSH1 0x40 SHL SUB DUP1 DUP6 AND SWAP1 DUP5 DUP2 AND SWAP1 DUP5 DUP2 AND SWAP1 DUP5 SWAP1 PUSH2 0xC38 DUP6 DUP6 DUP6 PUSH2 0xBC1 JUMP JUMPDEST PUSH2 0xC42 SWAP2 SWAP1 PUSH2 0x1827 JUMP JUMPDEST SWAP9 SWAP8 POP POP POP POP POP POP POP POP JUMP JUMPDEST PUSH1 0x10 SLOAD PUSH0 SWAP1 PUSH2 0xC6F SWAP1 PUSH1 0xA SWAP1 PUSH1 0x1 PUSH1 0x40 SHL SWAP1 DIV PUSH1 0x1 PUSH1 0x1 PUSH1 0x40 SHL SUB AND PUSH2 0xF8A JUMP JUMPDEST POP PUSH1 0xE SLOAD PUSH1 0x10 DUP1 SLOAD PUSH8 0xFFFFFFFFFFFFFFFF PUSH1 0x80 SHL NOT AND PUSH1 0x1 PUSH1 0x1 PUSH1 0x40 SHL SUB SWAP3 DUP4 AND PUSH1 0x1 PUSH1 0x80 SHL SWAP1 DUP2 MUL SWAP2 SWAP1 SWAP2 OR SWAP2 DUP3 SWAP1 SSTORE PUSH2 0xCB1 SWAP3 PUSH1 0xA SWAP3 SWAP2 SWAP1 SWAP2 DIV AND PUSH2 0xF8A JUMP JUMPDEST POP PUSH1 0xE SLOAD PUSH1 0x10 DUP1 SLOAD PUSH1 0x1 PUSH1 0x1 PUSH1 0xC0 SHL SUB AND PUSH1 0x1 PUSH1 0x1 PUSH1 0x40 SHL SUB SWAP3 DUP4 AND PUSH1 0x1 PUSH1 0xC0 SHL SWAP1 DUP2 MUL SWAP2 SWAP1 SWAP2 OR SWAP2 DUP3 SWAP1 SSTORE PUSH1 0xC SLOAD PUSH2 0xCF4 SWAP4 PUSH1 0xA SWAP4 SWAP3 SWAP1 SWAP3 DIV DUP3 AND SWAP2 AND PUSH2 0xF9C JUMP JUMPDEST PUSH1 0xD SLOAD PUSH1 0x11 DUP1 SLOAD PUSH8 0xFFFFFFFFFFFFFFFF NOT AND PUSH1 0x1 PUSH1 0x1 PUSH1 0x40 SHL SUB PUSH1 0x1 PUSH1 0xC0 SHL SWAP4 DUP5 SWAP1 DIV DUP2 AND SWAP2 SWAP1 SWAP2 OR SWAP1 SWAP2 SSTORE PUSH1 0x10 SLOAD PUSH1 0x7 SLOAD PUSH2 0xD38 SWAP4 PUSH1 0x5 SWAP4 SWAP3 DIV DUP3 AND SWAP2 AND PUSH2 0xF9C JUMP JUMPDEST POP PUSH1 0x8 SLOAD PUSH1 0x11 DUP1 SLOAD PUSH1 0x1 PUSH1 0x40 SHL DUP1 DUP3 DIV PUSH1 0x1 PUSH1 0x1 PUSH1 0x40 SHL SUB SWAP1 DUP2 AND PUSH1 0x1 PUSH1 0xC0 SHL SWAP6 DUP7 SWAP1 DIV DUP3 AND XOR DUP2 AND DUP3 MUL PUSH8 0xFFFFFFFFFFFFFFFF PUSH1 0x40 SHL NOT SWAP4 DUP5 AND OR SWAP1 SWAP4 SSTORE PUSH1 0x10 DUP1 SLOAD DUP3 DUP2 DIV DUP6 AND PUSH1 0x1 PUSH1 0x80 SHL DUP3 DIV DUP7 AND XOR SWAP6 DUP2 DIV DUP6 AND SWAP6 SWAP1 SWAP6 XOR DUP5 AND DUP3 MUL SWAP5 SWAP1 SWAP3 AND SWAP4 SWAP1 SWAP4 OR SWAP1 DUP2 SWAP1 SSTORE SWAP2 SWAP1 SWAP2 DIV AND SWAP1 JUMP JUMPDEST PUSH2 0xDB6 DUP3 CALLER DUP4 PUSH2 0xEA0 JUMP JUMPDEST PUSH2 0xDC0 DUP3 DUP3 PUSH2 0xF56 JUMP JUMPDEST POP POP JUMP JUMPDEST PUSH1 0x60 PUSH1 0x4 DUP1 SLOAD PUSH2 0x26A SWAP1 PUSH2 0x17DB JUMP JUMPDEST PUSH0 CALLER PUSH2 0x2F8 DUP2 DUP6 DUP6 PUSH2 0xEF9 JUMP JUMPDEST PUSH1 0x1 PUSH1 0x1 PUSH1 0xA0 SHL SUB SWAP2 DUP3 AND PUSH0 SWAP1 DUP2 MSTORE PUSH1 0x1 PUSH1 0x20 SWAP1 DUP2 MSTORE PUSH1 0x40 DUP1 DUP4 KECCAK256 SWAP4 SWAP1 SWAP5 AND DUP3 MSTORE SWAP2 SWAP1 SWAP2 MSTORE KECCAK256 SLOAD SWAP1 JUMP JUMPDEST PUSH0 DUP3 DUP2 PUSH2 0xE18 PUSH1 0xF DUP6 PUSH2 0x183A JUMP JUMPDEST SWAP1 POP JUMPDEST DUP3 PUSH0 SUB PUSH2 0xE67 JUMPI PUSH7 0x3632C8EB5AF3B PUSH1 0x1 PUSH1 0x1 PUSH1 0xA0 SHL SUB DUP1 DUP4 AND DUP5 DUP3 AND EXP AND MOD PUSH1 0x1 PUSH1 0x1 PUSH1 0xA0 SHL SUB AND SWAP3 POP PUSH1 0x2 DUP2 PUSH1 0x1 PUSH1 0x1 PUSH1 0xA0 SHL SUB AND DUP2 PUSH2 0xE5F JUMPI PUSH2 0xE5F PUSH2 0x1813 JUMP JUMPDEST DIV SWAP1 POP PUSH2 0xE1B JUMP JUMPDEST PUSH2 0xE85 PUSH1 0x1 PUSH1 0x1 PUSH1 0xA0 SHL SUB DUP1 DUP8 AND SWAP1 DUP7 AND PUSH7 0x3632C8EB5AF3B PUSH2 0xBC1 JUMP JUMPDEST SWAP6 SWAP5 POP POP POP POP POP JUMP JUMPDEST PUSH2 0xE9B DUP4 DUP4 DUP4 PUSH1 0x1 PUSH2 0x1054 JUMP JUMPDEST POP POP POP JUMP JUMPDEST PUSH0 PUSH2 0xEAB DUP5 DUP5 PUSH2 0xDE0 JUMP JUMPDEST SWAP1 POP PUSH0 NOT DUP2 EQ PUSH2 0xEF3 JUMPI DUP2 DUP2 LT ISZERO PUSH2 0xEE5 JUMPI DUP3 DUP2 DUP4 PUSH1 0x40 MLOAD PUSH4 0x7DC7A0D9 PUSH1 0xE1 SHL DUP2 MSTORE PUSH1 0x4 ADD PUSH2 0xEDC SWAP4 SWAP3 SWAP2 SWAP1 PUSH2 0x1868 JUMP JUMPDEST PUSH1 0x40 MLOAD DUP1 SWAP2 SUB SWAP1 REVERT JUMPDEST PUSH2 0xEF3 DUP5 DUP5 DUP5 DUP5 SUB PUSH0 PUSH2 0x1054 JUMP JUMPDEST POP POP POP POP JUMP JUMPDEST PUSH1 0x1 PUSH1 0x1 PUSH1 0xA0 SHL SUB DUP4 AND PUSH2 0xF22 JUMPI PUSH0 PUSH1 0x40 MLOAD PUSH4 0x4B637E8F PUSH1 0xE1 SHL DUP2 MSTORE PUSH1 0x4 ADD PUSH2 0xEDC SWAP2 SWAP1 PUSH2 0x1889 JUMP JUMPDEST PUSH1 0x1 PUSH1 0x1 PUSH1 0xA0 SHL SUB DUP3 AND PUSH2 0xF4B JUMPI PUSH0 PUSH1 0x40 MLOAD PUSH4 0xEC442F05 PUSH1 0xE0 SHL DUP2 MSTORE PUSH1 0x4 ADD PUSH2 0xEDC SWAP2 SWAP1 PUSH2 0x1889 JUMP JUMPDEST PUSH2 0xE9B DUP4 DUP4 DUP4 PUSH2 0x1126 JUMP JUMPDEST PUSH1 0x1 PUSH1 0x1 PUSH1 0xA0 SHL SUB DUP3 AND PUSH2 0xF7F JUMPI PUSH0 PUSH1 0x40 MLOAD PUSH4 0x4B637E8F PUSH1 0xE1 SHL DUP2 MSTORE PUSH1 0x4 ADD PUSH2 0xEDC SWAP2 SWAP1 PUSH2 0x1889 JUMP JUMPDEST PUSH2 0xDC0 DUP3 PUSH0 DUP4 PUSH2 0x1126 JUMP JUMPDEST PUSH0 PUSH2 0xF95 DUP4 DUP4 PUSH2 0x1239 JUMP JUMPDEST SWAP4 SWAP3 POP POP POP JUMP JUMPDEST DUP3 SLOAD PUSH2 0xFBA SWAP1 DUP4 SWAP1 PUSH1 0x1 PUSH1 0xC0 SHL SWAP1 DIV PUSH1 0x1 PUSH1 0x1 PUSH1 0x40 SHL SUB AND DUP4 PUSH2 0xC16 JUMP JUMPDEST PUSH1 0x3 DUP5 ADD DUP1 SLOAD PUSH8 0xFFFFFFFFFFFFFFFF PUSH1 0x80 SHL NOT AND PUSH1 0x1 PUSH1 0x80 SHL PUSH1 0x1 PUSH1 0x1 PUSH1 0x40 SHL SUB SWAP4 DUP5 AND MUL OR SWAP1 SSTORE DUP4 SLOAD PUSH2 0xFFA SWAP2 DUP5 SWAP2 DUP5 SWAP2 PUSH1 0x1 PUSH1 0xC0 SHL SWAP1 SWAP2 DIV AND PUSH2 0xC16 JUMP JUMPDEST PUSH1 0x3 DUP5 ADD DUP1 SLOAD PUSH1 0x1 PUSH1 0x1 PUSH1 0xC0 SHL SUB AND PUSH1 0x1 PUSH1 0xC0 SHL PUSH1 0x1 PUSH1 0x1 PUSH1 0x40 SHL SUB SWAP4 DUP5 AND MUL OR SWAP1 DUP2 SWAP1 SSTORE PUSH1 0x1 PUSH1 0x80 SHL SWAP1 DIV AND ISZERO DUP1 ISZERO SWAP1 PUSH2 0x1048 JUMPI POP PUSH1 0x3 DUP4 ADD SLOAD PUSH1 0x1 PUSH1 0xC0 SHL SWAP1 DIV PUSH1 0x1 PUSH1 0x1 PUSH1 0x40 SHL SUB AND ISZERO ISZERO JUMPDEST PUSH2 0xE9B JUMPI PUSH2 0xE9B PUSH2 0x189D JUMP JUMPDEST PUSH1 0x1 PUSH1 0x1 PUSH1 0xA0 SHL SUB DUP5 AND PUSH2 0x107D JUMPI PUSH0 PUSH1 0x40 MLOAD PUSH4 0xE602DF05 PUSH1 0xE0 SHL DUP2 MSTORE PUSH1 0x4 ADD PUSH2 0xEDC SWAP2 SWAP1 PUSH2 0x1889 JUMP JUMPDEST PUSH1 0x1 PUSH1 0x1 PUSH1 0xA0 SHL SUB DUP4 AND PUSH2 0x10A6 JUMPI PUSH0 PUSH1 0x40 MLOAD PUSH4 0x4A1406B1 PUSH1 0xE1 SHL DUP2 MSTORE PUSH1 0x4 ADD PUSH2 0xEDC SWAP2 SWAP1 PUSH2 0x1889 JUMP JUMPDEST PUSH1 0x1 PUSH1 0x1 PUSH1 0xA0 SHL SUB DUP1 DUP6 AND PUSH0 SWAP1 DUP2 MSTORE PUSH1 0x1 PUSH1 0x20 SWAP1 DUP2 MSTORE PUSH1 0x40 DUP1 DUP4 KECCAK256 SWAP4 DUP8 AND DUP4 MSTORE SWAP3 SWAP1 MSTORE KECCAK256 DUP3 SWAP1 SSTORE DUP1 ISZERO PUSH2 0xEF3 JUMPI DUP3 PUSH1 0x1 PUSH1 0x1 PUSH1 0xA0 SHL SUB AND DUP5 PUSH1 0x1 PUSH1 0x1 PUSH1 0xA0 SHL SUB AND PUSH32 0x8C5BE1E5EBEC7D5BD14F71427D1E84F3DD0314C0F7B2291E5B200AC8C7C3B925 DUP5 PUSH1 0x40 MLOAD PUSH2 0x1118 SWAP2 DUP2 MSTORE PUSH1 0x20 ADD SWAP1 JUMP JUMPDEST PUSH1 0x40 MLOAD DUP1 SWAP2 SUB SWAP1 LOG3 POP POP POP POP JUMP JUMPDEST PUSH1 0x1 PUSH1 0x1 PUSH1 0xA0 SHL SUB DUP4 AND PUSH2 0x1150 JUMPI DUP1 PUSH1 0x2 PUSH0 DUP3 DUP3 SLOAD PUSH2 0x1145 SWAP2 SWAP1 PUSH2 0x18B1 JUMP JUMPDEST SWAP1 SWAP2 SSTORE POP PUSH2 0x11AD SWAP1 POP JUMP JUMPDEST PUSH1 0x1 PUSH1 0x1 PUSH1 0xA0 SHL SUB DUP4 AND PUSH0 SWAP1 DUP2 MSTORE PUSH1 0x20 DUP2 SWAP1 MSTORE PUSH1 0x40 SWAP1 KECCAK256 SLOAD DUP2 DUP2 LT ISZERO PUSH2 0x118F JUMPI DUP4 DUP2 DUP4 PUSH1 0x40 MLOAD PUSH4 0x391434E3 PUSH1 0xE2 SHL DUP2 MSTORE PUSH1 0x4 ADD PUSH2 0xEDC SWAP4 SWAP3 SWAP2 SWAP1 PUSH2 0x1868 JUMP JUMPDEST PUSH1 0x1 PUSH1 0x1 PUSH1 0xA0 SHL SUB DUP5 AND PUSH0 SWAP1 DUP2 MSTORE PUSH1 0x20 DUP2 SWAP1 MSTORE PUSH1 0x40 SWAP1 KECCAK256 SWAP1 DUP3 SWAP1 SUB SWAP1 SSTORE JUMPDEST PUSH1 0x1 PUSH1 0x1 PUSH1 0xA0 SHL SUB DUP3 AND PUSH2 0x11C9 JUMPI PUSH1 0x2 DUP1 SLOAD DUP3 SWAP1 SUB SWAP1 SSTORE PUSH2 0x11E7 JUMP JUMPDEST PUSH1 0x1 PUSH1 0x1 PUSH1 0xA0 SHL SUB DUP3 AND PUSH0 SWAP1 DUP2 MSTORE PUSH1 0x20 DUP2 SWAP1 MSTORE PUSH1 0x40 SWAP1 KECCAK256 DUP1 SLOAD DUP3 ADD SWAP1 SSTORE JUMPDEST DUP2 PUSH1 0x1 PUSH1 0x1 PUSH1 0xA0 SHL SUB AND DUP4 PUSH1 0x1 PUSH1 0x1 PUSH1 0xA0 SHL SUB AND PUSH32 0xDDF252AD1BE2C89B69C2B068FC378DAA952BA7F163C4A11628F55A4DF523B3EF DUP4 PUSH1 0x40 MLOAD PUSH2 0x122C SWAP2 DUP2 MSTORE PUSH1 0x20 ADD SWAP1 JUMP JUMPDEST PUSH1 0x40 MLOAD DUP1 SWAP2 SUB SWAP1 LOG3 POP POP POP JUMP JUMPDEST PUSH1 0x1 DUP3 ADD SLOAD DUP3 SLOAD PUSH0 SWAP2 PUSH2 0x1266 SWAP2 DUP5 SWAP2 PUSH1 0x1 PUSH1 0x1 PUSH1 0x40 SHL SUB PUSH1 0x1 PUSH1 0xC0 SHL SWAP2 DUP3 SWAP1 DIV DUP2 AND SWAP3 SWAP2 SWAP1 SWAP2 DIV AND PUSH2 0xC16 JUMP JUMPDEST PUSH1 0x4 DUP5 ADD DUP1 SLOAD PUSH1 0x1 PUSH1 0x1 PUSH1 0x40 SHL SUB SWAP3 SWAP1 SWAP3 AND PUSH8 0xFFFFFFFFFFFFFFFF NOT SWAP1 SWAP3 AND DUP3 OR SWAP1 SSTORE SWAP1 POP SWAP3 SWAP2 POP POP JUMP JUMPDEST PUSH1 0x40 MLOAD DUP1 PUSH2 0x1A0 ADD PUSH1 0x40 MSTORE DUP1 PUSH2 0x12A5 PUSH2 0x1308 JUMP JUMPDEST DUP2 MSTORE PUSH1 0x20 ADD PUSH2 0x12B2 PUSH2 0x1308 JUMP JUMPDEST DUP2 MSTORE PUSH0 PUSH1 0x20 DUP3 ADD DUP2 SWAP1 MSTORE PUSH1 0x40 DUP3 ADD DUP2 SWAP1 MSTORE PUSH1 0x60 DUP3 ADD DUP2 SWAP1 MSTORE PUSH1 0x80 DUP3 ADD DUP2 SWAP1 MSTORE PUSH1 0xA0 DUP3 ADD DUP2 SWAP1 MSTORE PUSH1 0xC0 DUP3 ADD DUP2 SWAP1 MSTORE PUSH1 0xE0 DUP3 ADD DUP2 SWAP1 MSTORE PUSH2 0x100 DUP3 ADD DUP2 SWAP1 MSTORE PUSH2 0x120 DUP3 ADD DUP2 SWAP1 MSTORE PUSH2 0x140 DUP3 ADD DUP2 SWAP1 MSTORE PUSH2 0x160 SWAP1 SWAP2 ADD MSTORE SWAP1 JUMP JUMPDEST PUSH1 0x40 DUP1 MLOAD PUSH2 0x240 DUP2 ADD DUP3 MSTORE PUSH0 DUP1 DUP3 MSTORE PUSH1 0x20 DUP3 ADD DUP2 SWAP1 MSTORE SWAP2 DUP2 ADD DUP3 SWAP1 MSTORE PUSH1 0x60 DUP2 ADD DUP3 SWAP1 MSTORE PUSH1 0x80 DUP2 ADD DUP3 SWAP1 MSTORE PUSH1 0xA0 DUP2 ADD DUP3 SWAP1 MSTORE PUSH1 0xC0 DUP2 ADD DUP3 SWAP1 MSTORE PUSH1 0xE0 DUP2 ADD DUP3 SWAP1 MSTORE PUSH2 0x100 DUP2 ADD DUP3 SWAP1 MSTORE PUSH2 0x120 DUP2 ADD DUP3 SWAP1 MSTORE PUSH2 0x140 DUP2 ADD DUP3 SWAP1 MSTORE PUSH2 0x160 DUP2 ADD DUP3 SWAP1 MSTORE PUSH2 0x180 DUP2 ADD DUP3 SWAP1 MSTORE PUSH2 0x1A0 DUP2 ADD DUP3 SWAP1 MSTORE PUSH2 0x1C0 DUP2 ADD DUP3 SWAP1 MSTORE PUSH2 0x1E0 DUP2 ADD DUP3 SWAP1 MSTORE PUSH2 0x200 DUP2 ADD DUP3 SWAP1 MSTORE PUSH2 0x220 DUP2 ADD SWAP2 SWAP1 SWAP2 MSTORE SWAP1 JUMP JUMPDEST PUSH1 0x20 DUP2 MSTORE PUSH0 DUP3 MLOAD DUP1 PUSH1 0x20 DUP5 ADD MSTORE DUP1 PUSH1 0x20 DUP6 ADD PUSH1 0x40 DUP6 ADD MCOPY PUSH0 PUSH1 0x40 DUP3 DUP6 ADD ADD MSTORE PUSH1 0x40 PUSH1 0x1F NOT PUSH1 0x1F DUP4 ADD AND DUP5 ADD ADD SWAP2 POP POP SWAP3 SWAP2 POP POP JUMP JUMPDEST DUP1 CALLDATALOAD PUSH1 0x1 PUSH1 0x1 PUSH1 0xA0 SHL SUB DUP2 AND DUP2 EQ PUSH2 0x13E6 JUMPI PUSH0 PUSH0 REVERT JUMPDEST SWAP2 SWAP1 POP JUMP JUMPDEST PUSH0 PUSH0 PUSH1 0x40 DUP4 DUP6 SUB SLT ISZERO PUSH2 0x13FC JUMPI PUSH0 PUSH0 REVERT JUMPDEST PUSH2 0x1405 DUP4 PUSH2 0x13D0 JUMP JUMPDEST SWAP5 PUSH1 0x20 SWAP4 SWAP1 SWAP4 ADD CALLDATALOAD SWAP4 POP POP POP JUMP JUMPDEST DUP1 MLOAD PUSH1 0x1 PUSH1 0x1 PUSH1 0x40 SHL SUB AND DUP3 MSTORE PUSH1 0x20 DUP2 ADD MLOAD PUSH2 0x143A PUSH1 0x20 DUP5 ADD DUP3 PUSH1 0x1 PUSH1 0x1 PUSH1 0x40 SHL SUB AND SWAP1 MSTORE JUMP JUMPDEST POP PUSH1 0x40 DUP2 ADD MLOAD PUSH2 0x1455 PUSH1 0x40 DUP5 ADD DUP3 PUSH1 0x1 PUSH1 0x1 PUSH1 0x40 SHL SUB AND SWAP1 MSTORE JUMP JUMPDEST POP PUSH1 0x60 DUP2 ADD MLOAD PUSH2 0x1470 PUSH1 0x60 DUP5 ADD DUP3 PUSH1 0x1 PUSH1 0x1 PUSH1 0x40 SHL SUB AND SWAP1 MSTORE JUMP JUMPDEST POP PUSH1 0x80 DUP2 ADD MLOAD PUSH2 0x148B PUSH1 0x80 DUP5 ADD DUP3 PUSH1 0x1 PUSH1 0x1 PUSH1 0x40 SHL SUB AND SWAP1 MSTORE JUMP JUMPDEST POP PUSH1 0xA0 DUP2 ADD MLOAD PUSH2 0x14A6 PUSH1 0xA0 DUP5 ADD DUP3 PUSH1 0x1 PUSH1 0x1 PUSH1 0x40 SHL SUB AND SWAP1 MSTORE JUMP JUMPDEST POP PUSH1 0xC0 DUP2 ADD MLOAD PUSH2 0x14C1 PUSH1 0xC0 DUP5 ADD DUP3 PUSH1 0x1 PUSH1 0x1 PUSH1 0x40 SHL SUB AND SWAP1 MSTORE JUMP JUMPDEST POP PUSH1 0xE0 DUP2 ADD MLOAD PUSH2 0x14DC PUSH1 0xE0 DUP5 ADD DUP3 PUSH1 0x1 PUSH1 0x1 PUSH1 0x40 SHL SUB AND SWAP1 MSTORE JUMP JUMPDEST POP PUSH2 0x100 DUP2 ADD MLOAD PUSH2 0x14F9 PUSH2 0x100 DUP5 ADD DUP3 PUSH1 0x1 PUSH1 0x1 PUSH1 0x40 SHL SUB AND SWAP1 MSTORE JUMP JUMPDEST POP PUSH2 0x120 DUP2 ADD MLOAD PUSH2 0x1516 PUSH2 0x120 DUP5 ADD DUP3 PUSH1 0x1 PUSH1 0x1 PUSH1 0x40 SHL SUB AND SWAP1 MSTORE JUMP JUMPDEST POP PUSH2 0x140 DUP2 ADD MLOAD PUSH2 0x1533 PUSH2 0x140 DUP5 ADD DUP3 PUSH1 0x1 PUSH1 0x1 PUSH1 0x40 SHL SUB AND SWAP1 MSTORE JUMP JUMPDEST POP PUSH2 0x160 DUP2 ADD MLOAD PUSH2 0x1550 PUSH2 0x160 DUP5 ADD DUP3 PUSH1 0x1 PUSH1 0x1 PUSH1 0x40 SHL SUB AND SWAP1 MSTORE JUMP JUMPDEST POP PUSH2 0x180 DUP2 ADD MLOAD PUSH2 0x156D PUSH2 0x180 DUP5 ADD DUP3 PUSH1 0x1 PUSH1 0x1 PUSH1 0x40 SHL SUB AND SWAP1 MSTORE JUMP JUMPDEST POP PUSH2 0x1A0 DUP2 ADD MLOAD PUSH2 0x158A PUSH2 0x1A0 DUP5 ADD DUP3 PUSH1 0x1 PUSH1 0x1 PUSH1 0x40 SHL SUB AND SWAP1 MSTORE JUMP JUMPDEST POP PUSH2 0x1C0 DUP2 ADD MLOAD PUSH2 0x15A7 PUSH2 0x1C0 DUP5 ADD DUP3 PUSH1 0x1 PUSH1 0x1 PUSH1 0x40 SHL SUB AND SWAP1 MSTORE JUMP JUMPDEST POP PUSH2 0x1E0 DUP2 ADD MLOAD PUSH2 0x15C4 PUSH2 0x1E0 DUP5 ADD DUP3 PUSH1 0x1 PUSH1 0x1 PUSH1 0x40 SHL SUB AND SWAP1 MSTORE JUMP JUMPDEST POP PUSH2 0x200 DUP2 ADD MLOAD PUSH2 0x15E1 PUSH2 0x200 DUP5 ADD DUP3 PUSH1 0x1 PUSH1 0x1 PUSH1 0x40 SHL SUB AND SWAP1 MSTORE JUMP JUMPDEST POP PUSH2 0x220 DUP2 ADD MLOAD PUSH2 0xE9B PUSH2 0x220 DUP5 ADD DUP3 PUSH1 0xFF AND SWAP1 MSTORE JUMP JUMPDEST PUSH0 PUSH2 0x5E0 DUP3 ADD SWAP1 POP PUSH2 0x160B DUP3 DUP5 MLOAD PUSH2 0x1413 JUMP JUMPDEST PUSH1 0x20 DUP4 ADD MLOAD PUSH2 0x161E PUSH2 0x240 DUP5 ADD DUP3 PUSH2 0x1413 JUMP JUMPDEST POP PUSH1 0x40 DUP4 ADD MLOAD PUSH1 0x1 PUSH1 0x1 PUSH1 0x40 SHL SUB SWAP1 DUP2 AND PUSH2 0x480 DUP5 ADD MSTORE PUSH1 0x60 DUP5 ADD MLOAD DUP2 AND PUSH2 0x4A0 DUP5 ADD MSTORE PUSH1 0x80 DUP5 ADD MLOAD DUP2 AND PUSH2 0x4C0 DUP5 ADD MSTORE PUSH1 0xA0 DUP5 ADD MLOAD DUP2 AND PUSH2 0x4E0 DUP5 ADD MSTORE PUSH1 0xC0 DUP5 ADD MLOAD DUP2 AND PUSH2 0x500 DUP5 ADD MSTORE PUSH1 0xE0 DUP5 ADD MLOAD DUP2 AND PUSH2 0x520 DUP5 ADD MSTORE PUSH2 0x100 DUP5 ADD MLOAD DUP2 AND PUSH2 0x540 DUP5 ADD MSTORE PUSH2 0x120 DUP5 ADD MLOAD DUP2 AND PUSH2 0x560 DUP5 ADD MSTORE PUSH2 0x140 DUP5 ADD MLOAD DUP2 AND PUSH2 0x580 DUP5 ADD MSTORE PUSH2 0x160 DUP5 ADD MLOAD AND PUSH2 0x5A0 DUP4 ADD MSTORE PUSH2 0x180 SWAP1 SWAP3 ADD MLOAD PUSH1 0xFF AND PUSH2 0x5C0 SWAP1 SWAP2 ADD MSTORE SWAP1 JUMP JUMPDEST PUSH0 PUSH0 PUSH0 PUSH1 0x60 DUP5 DUP7 SUB SLT ISZERO PUSH2 0x16D3 JUMPI PUSH0 PUSH0 REVERT JUMPDEST PUSH2 0x16DC DUP5 PUSH2 0x13D0 JUMP JUMPDEST SWAP3 POP PUSH2 0x16EA PUSH1 0x20 DUP6 ADD PUSH2 0x13D0 JUMP JUMPDEST SWAP3 SWAP6 SWAP3 SWAP5 POP POP POP PUSH1 0x40 SWAP2 SWAP1 SWAP2 ADD CALLDATALOAD SWAP1 JUMP JUMPDEST PUSH0 PUSH0 PUSH0 PUSH1 0x60 DUP5 DUP7 SUB SLT ISZERO PUSH2 0x170D JUMPI PUSH0 PUSH0 REVERT JUMPDEST POP POP DUP2 CALLDATALOAD SWAP4 PUSH1 0x20 DUP4 ADD CALLDATALOAD SWAP4 POP PUSH1 0x40 SWAP1 SWAP3 ADD CALLDATALOAD SWAP2 SWAP1 POP JUMP JUMPDEST PUSH0 PUSH1 0x20 DUP3 DUP5 SUB SLT ISZERO PUSH2 0x1734 JUMPI PUSH0 PUSH0 REVERT JUMPDEST POP CALLDATALOAD SWAP2 SWAP1 POP JUMP JUMPDEST DUP1 CALLDATALOAD PUSH1 0x1 PUSH1 0x1 PUSH1 0x40 SHL SUB DUP2 AND DUP2 EQ PUSH2 0x13E6 JUMPI PUSH0 PUSH0 REVERT JUMPDEST PUSH0 PUSH0 PUSH0 PUSH1 0x60 DUP5 DUP7 SUB SLT ISZERO PUSH2 0x1763 JUMPI PUSH0 PUSH0 REVERT JUMPDEST PUSH2 0x176C DUP5 PUSH2 0x173B JUMP JUMPDEST SWAP3 POP PUSH2 0x177A PUSH1 0x20 DUP6 ADD PUSH2 0x173B JUMP JUMPDEST SWAP2 POP PUSH2 0x1788 PUSH1 0x40 DUP6 ADD PUSH2 0x173B JUMP JUMPDEST SWAP1 POP SWAP3 POP SWAP3 POP SWAP3 JUMP JUMPDEST PUSH0 PUSH1 0x20 DUP3 DUP5 SUB SLT ISZERO PUSH2 0x17A1 JUMPI PUSH0 PUSH0 REVERT JUMPDEST PUSH2 0xF95 DUP3 PUSH2 0x13D0 JUMP JUMPDEST PUSH0 PUSH0 PUSH1 0x40 DUP4 DUP6 SUB SLT ISZERO PUSH2 0x17BB JUMPI PUSH0 PUSH0 REVERT JUMPDEST PUSH2 0x17C4 DUP4 PUSH2 0x13D0 JUMP JUMPDEST SWAP2 POP PUSH2 0x17D2 PUSH1 0x20 DUP5 ADD PUSH2 0x13D0 JUMP JUMPDEST SWAP1 POP SWAP3 POP SWAP3 SWAP1 POP JUMP JUMPDEST PUSH1 0x1 DUP2 DUP2 SHR SWAP1 DUP3 AND DUP1 PUSH2 0x17EF JUMPI PUSH1 0x7F DUP3 AND SWAP2 POP JUMPDEST PUSH1 0x20 DUP3 LT DUP2 SUB PUSH2 0x180D JUMPI PUSH4 0x4E487B71 PUSH1 0xE0 SHL PUSH0 MSTORE PUSH1 0x22 PUSH1 0x4 MSTORE PUSH1 0x24 PUSH0 REVERT JUMPDEST POP SWAP2 SWAP1 POP JUMP JUMPDEST PUSH4 0x4E487B71 PUSH1 0xE0 SHL PUSH0 MSTORE PUSH1 0x12 PUSH1 0x4 MSTORE PUSH1 0x24 PUSH0 REVERT JUMPDEST PUSH0 DUP3 PUSH2 0x1835 JUMPI PUSH2 0x1835 PUSH2 0x1813 JUMP JUMPDEST POP MOD SWAP1 JUMP JUMPDEST PUSH0 PUSH1 0x1 PUSH1 0x1 PUSH1 0xA0 SHL SUB DUP4 AND DUP1 PUSH2 0x1852 JUMPI PUSH2 0x1852 PUSH2 0x1813 JUMP JUMPDEST PUSH1 0x1 PUSH1 0x1 PUSH1 0xA0 SHL SUB SWAP3 SWAP1 SWAP3 AND SWAP2 SWAP1 SWAP2 DIV SWAP3 SWAP2 POP POP JUMP JUMPDEST PUSH1 0x1 PUSH1 0x1 PUSH1 0xA0 SHL SUB SWAP4 SWAP1 SWAP4 AND DUP4 MSTORE PUSH1 0x20 DUP4 ADD SWAP2 SWAP1 SWAP2 MSTORE PUSH1 0x40 DUP3 ADD MSTORE PUSH1 0x60 ADD SWAP1 JUMP JUMPDEST PUSH1 0x1 PUSH1 0x1 PUSH1 0xA0 SHL SUB SWAP2 SWAP1 SWAP2 AND DUP2 MSTORE PUSH1 0x20 ADD SWAP1 JUMP JUMPDEST PUSH4 0x4E487B71 PUSH1 0xE0 SHL PUSH0 MSTORE PUSH1 0x1 PUSH1 0x4 MSTORE PUSH1 0x24 PUSH0 REVERT JUMPDEST DUP1 DUP3 ADD DUP1 DUP3 GT ISZERO PUSH2 0x2FE JUMPI PUSH4 0x4E487B71 PUSH1 0xE0 SHL PUSH0 MSTORE PUSH1 0x11 PUSH1 0x4 MSTORE PUSH1 0x24 PUSH0 REVERT INVALID LOG2 PUSH5 0x6970667358 0x22 SLT KECCAK256 PUSH19 0x5792D724027208497110626C83BB9F0C672002 0xB7 0xFB PUSH26 0x6B7931C788AA027F9A64736F6C634300081B0033000000000000 "
		},
		"gasEstimates": {
			"creation": {
				"codeDepositCost": "1281200",
				"executionCost": "infinite",
				"totalCost": "infinite"
			},
			"external": {
				"MotzkinPrime()": "347",
				"Random()": "infinite",
				"View()": "infinite",
				"allowance(address,address)": "infinite",
				"approve(address,uint256)": "24734",
				"balanceOf(address)": "2581",
				"burn(uint256)": "51071",
				"burnFrom(address,uint256)": "infinite",
				"decimals()": "287",
				"hashWith(address,address)": "infinite",
				"modExp(uint256,uint256,uint256)": "infinite",
				"modExp64(uint64,uint64,uint64)": "infinite",
				"name()": "infinite",
				"symbol()": "infinite",
				"totalSupply()": "2347",
				"transfer(address,uint256)": "51325",
				"transferFrom(address,address,uint256)": "infinite"
			},
			"internal": {
				"Amplify(struct Fa storage pointer,uint64)": "infinite",
				"React(struct Fa storage pointer,uint64,uint64)": "infinite",
				"Sustain(struct Fa storage pointer,uint64)": "infinite",
				"Torque(struct Fa storage pointer,uint64)": "infinite"
			}
		},
		"methodIdentifiers": {
			"MotzkinPrime()": "d3dc2a0f",
			"Random()": "604a6fa9",
			"View()": "1686f265",
			"allowance(address,address)": "dd62ed3e",
			"approve(address,uint256)": "095ea7b3",
			"balanceOf(address)": "70a08231",
			"burn(uint256)": "42966c68",
			"burnFrom(address,uint256)": "79cc6790",
			"decimals()": "313ce567",
			"hashWith(address,address)": "fa6bcfec",
			"modExp(uint256,uint256,uint256)": "3148f14f",
			"modExp64(uint64,uint64,uint64)": "53df6e35",
			"name()": "06fdde03",
			"symbol()": "95d89b41",
			"totalSupply()": "18160ddd",
			"transfer(address,uint256)": "a9059cbb",
			"transferFrom(address,address,uint256)": "23b872dd"
		}
	},
	"abi": [
		{
			"inputs": [],
			"stateMutability": "nonpayable",
			"type": "constructor"
		},
		{
			"inputs": [
				{
					"internalType": "address",
					"name": "spender",
					"type": "address"
				},
				{
					"internalType": "uint256",
					"name": "allowance",
					"type": "uint256"
				},
				{
					"internalType": "uint256",
					"name": "needed",
					"type": "uint256"
				}
			],
			"name": "ERC20InsufficientAllowance",
			"type": "error"
		},
		{
			"inputs": [
				{
					"internalType": "address",
					"name": "sender",
					"type": "address"
				},
				{
					"internalType": "uint256",
					"name": "balance",
					"type": "uint256"
				},
				{
					"internalType": "uint256",
					"name": "needed",
					"type": "uint256"
				}
			],
			"name": "ERC20InsufficientBalance",
			"type": "error"
		},
		{
			"inputs": [
				{
					"internalType": "address",
					"name": "approver",
					"type": "address"
				}
			],
			"name": "ERC20InvalidApprover",
			"type": "error"
		},
		{
			"inputs": [
				{
					"internalType": "address",
					"name": "receiver",
					"type": "address"
				}
			],
			"name": "ERC20InvalidReceiver",
			"type": "error"
		},
		{
			"inputs": [
				{
					"internalType": "address",
					"name": "sender",
					"type": "address"
				}
			],
			"name": "ERC20InvalidSender",
			"type": "error"
		},
		{
			"inputs": [
				{
					"internalType": "address",
					"name": "spender",
					"type": "address"
				}
			],
			"name": "ERC20InvalidSpender",
			"type": "error"
		},
		{
			"anonymous": false,
			"inputs": [
				{
					"indexed": true,
					"internalType": "address",
					"name": "owner",
					"type": "address"
				},
				{
					"indexed": true,
					"internalType": "address",
					"name": "spender",
					"type": "address"
				},
				{
					"indexed": false,
					"internalType": "uint256",
					"name": "value",
					"type": "uint256"
				}
			],
			"name": "Approval",
			"type": "event"
		},
		{
			"anonymous": false,
			"inputs": [
				{
					"indexed": true,
					"internalType": "address",
					"name": "from",
					"type": "address"
				},
				{
					"indexed": true,
					"internalType": "address",
					"name": "to",
					"type": "address"
				},
				{
					"indexed": false,
					"internalType": "uint256",
					"name": "value",
					"type": "uint256"
				}
			],
			"name": "Transfer",
			"type": "event"
		},
		{
			"inputs": [],
			"name": "MotzkinPrime",
			"outputs": [
				{
					"internalType": "uint64",
					"name": "",
					"type": "uint64"
				}
			],
			"stateMutability": "view",
			"type": "function"
		},
		{
			"inputs": [],
			"name": "Random",
			"outputs": [
				{
					"internalType": "uint64",
					"name": "",
					"type": "uint64"
				}
			],
			"stateMutability": "nonpayable",
			"type": "function"
		},
		{
			"inputs": [],
			"name": "View",
			"outputs": [
				{
					"components": [
						{
							"components": [
								{
									"internalType": "uint64",
									"name": "Base",
									"type": "uint64"
								},
								{
									"internalType": "uint64",
									"name": "Secret",
									"type": "uint64"
								},
								{
									"internalType": "uint64",
									"name": "Signal",
									"type": "uint64"
								},
								{
									"internalType": "uint64",
									"name": "Channel",
									"type": "uint64"
								},
								{
									"internalType": "uint64",
									"name": "Pole",
									"type": "uint64"
								},
								{
									"internalType": "uint64",
									"name": "Identity",
									"type": "uint64"
								},
								{
									"internalType": "uint64",
									"name": "Foundation",
									"type": "uint64"
								},
								{
									"internalType": "uint64",
									"name": "Element",
									"type": "uint64"
								},
								{
									"internalType": "uint64",
									"name": "Dynamo",
									"type": "uint64"
								},
								{
									"internalType": "uint64",
									"name": "Manifold",
									"type": "uint64"
								},
								{
									"internalType": "uint64",
									"name": "Ring",
									"type": "uint64"
								},
								{
									"internalType": "uint64",
									"name": "Barn",
									"type": "uint64"
								},
								{
									"internalType": "uint64",
									"name": "Coordinate",
									"type": "uint64"
								},
								{
									"internalType": "uint64",
									"name": "Tau",
									"type": "uint64"
								},
								{
									"internalType": "uint64",
									"name": "Eta",
									"type": "uint64"
								},
								{
									"internalType": "uint64",
									"name": "Kappa",
									"type": "uint64"
								},
								{
									"internalType": "uint64",
									"name": "Alpha",
									"type": "uint64"
								},
								{
									"internalType": "uint8",
									"name": "Nu",
									"type": "uint8"
								}
							],
							"internalType": "struct Fa",
							"name": "Rod",
							"type": "tuple"
						},
						{
							"components": [
								{
									"internalType": "uint64",
									"name": "Base",
									"type": "uint64"
								},
								{
									"internalType": "uint64",
									"name": "Secret",
									"type": "uint64"
								},
								{
									"internalType": "uint64",
									"name": "Signal",
									"type": "uint64"
								},
								{
									"internalType": "uint64",
									"name": "Channel",
									"type": "uint64"
								},
								{
									"internalType": "uint64",
									"name": "Pole",
									"type": "uint64"
								},
								{
									"internalType": "uint64",
									"name": "Identity",
									"type": "uint64"
								},
								{
									"internalType": "uint64",
									"name": "Foundation",
									"type": "uint64"
								},
								{
									"internalType": "uint64",
									"name": "Element",
									"type": "uint64"
								},
								{
									"internalType": "uint64",
									"name": "Dynamo",
									"type": "uint64"
								},
								{
									"internalType": "uint64",
									"name": "Manifold",
									"type": "uint64"
								},
								{
									"internalType": "uint64",
									"name": "Ring",
									"type": "uint64"
								},
								{
									"internalType": "uint64",
									"name": "Barn",
									"type": "uint64"
								},
								{
									"internalType": "uint64",
									"name": "Coordinate",
									"type": "uint64"
								},
								{
									"internalType": "uint64",
									"name": "Tau",
									"type": "uint64"
								},
								{
									"internalType": "uint64",
									"name": "Eta",
									"type": "uint64"
								},
								{
									"internalType": "uint64",
									"name": "Kappa",
									"type": "uint64"
								},
								{
									"internalType": "uint64",
									"name": "Alpha",
									"type": "uint64"
								},
								{
									"internalType": "uint8",
									"name": "Nu",
									"type": "uint8"
								}
							],
							"internalType": "struct Fa",
							"name": "Cone",
							"type": "tuple"
						},
						{
							"internalType": "uint64",
							"name": "Phi",
							"type": "uint64"
						},
						{
							"internalType": "uint64",
							"name": "Eta",
							"type": "uint64"
						},
						{
							"internalType": "uint64",
							"name": "Xi",
							"type": "uint64"
						},
						{
							"internalType": "uint64",
							"name": "Sigma",
							"type": "uint64"
						},
						{
							"internalType": "uint64",
							"name": "Rho",
							"type": "uint64"
						},
						{
							"internalType": "uint64",
							"name": "Upsilon",
							"type": "uint64"
						},
						{
							"internalType": "uint64",
							"name": "Ohm",
							"type": "uint64"
						},
						{
							"internalType": "uint64",
							"name": "Pi",
							"type": "uint64"
						},
						{
							"internalType": "uint64",
							"name": "Omicron",
							"type": "uint64"
						},
						{
							"internalType": "uint64",
							"name": "Omega",
							"type": "uint64"
						},
						{
							"internalType": "uint8",
							"name": "Chi",
							"type": "uint8"
						}
					],
					"internalType": "struct Faung",
					"name": "",
					"type": "tuple"
				}
			],
			"stateMutability": "view",
			"type": "function"
		},
		{
			"inputs": [
				{
					"internalType": "address",
					"name": "owner",
					"type": "address"
				},
				{
					"internalType": "address",
					"name": "spender",
					"type": "address"
				}
			],
			"name": "allowance",
			"outputs": [
				{
					"internalType": "uint256",
					"name": "",
					"type": "uint256"
				}
			],
			"stateMutability": "view",
			"type": "function"
		},
		{
			"inputs": [
				{
					"internalType": "address",
					"name": "spender",
					"type": "address"
				},
				{
					"internalType": "uint256",
					"name": "value",
					"type": "uint256"
				}
			],
			"name": "approve",
			"outputs": [
				{
					"internalType": "bool",
					"name": "",
					"type": "bool"
				}
			],
			"stateMutability": "nonpayable",
			"type": "function"
		},
		{
			"inputs": [
				{
					"internalType": "address",
					"name": "account",
					"type": "address"
				}
			],
			"name": "balanceOf",
			"outputs": [
				{
					"internalType": "uint256",
					"name": "",
					"type": "uint256"
				}
			],
			"stateMutability": "view",
			"type": "function"
		},
		{
			"inputs": [
				{
					"internalType": "uint256",
					"name": "value",
					"type": "uint256"
				}
			],
			"name": "burn",
			"outputs": [],
			"stateMutability": "nonpayable",
			"type": "function"
		},
		{
			"inputs": [
				{
					"internalType": "address",
					"name": "account",
					"type": "address"
				},
				{
					"internalType": "uint256",
					"name": "value",
					"type": "uint256"
				}
			],
			"name": "burnFrom",
			"outputs": [],
			"stateMutability": "nonpayable",
			"type": "function"
		},
		{
			"inputs": [],
			"name": "decimals",
			"outputs": [
				{
					"internalType": "uint8",
					"name": "",
					"type": "uint8"
				}
			],
			"stateMutability": "view",
			"type": "function"
		},
		{
			"inputs": [
				{
					"internalType": "address",
					"name": "a",
					"type": "address"
				},
				{
					"internalType": "address",
					"name": "b",
					"type": "address"
				}
			],
			"name": "hashWith",
			"outputs": [
				{
					"internalType": "uint256",
					"name": "hash",
					"type": "uint256"
				}
			],
			"stateMutability": "nonpayable",
			"type": "function"
		},
		{
			"inputs": [
				{
					"internalType": "uint256",
					"name": "_b",
					"type": "uint256"
				},
				{
					"internalType": "uint256",
					"name": "_e",
					"type": "uint256"
				},
				{
					"internalType": "uint256",
					"name": "_m",
					"type": "uint256"
				}
			],
			"name": "modExp",
			"outputs": [
				{
					"internalType": "uint256",
					"name": "result",
					"type": "uint256"
				}
			],
			"stateMutability": "nonpayable",
			"type": "function"
		},
		{
			"inputs": [
				{
					"internalType": "uint64",
					"name": "_b",
					"type": "uint64"
				},
				{
					"internalType": "uint64",
					"name": "_e",
					"type": "uint64"
				},
				{
					"internalType": "uint64",
					"name": "_m",
					"type": "uint64"
				}
			],
			"name": "modExp64",
			"outputs": [
				{
					"internalType": "uint64",
					"name": "result",
					"type": "uint64"
				}
			],
			"stateMutability": "nonpayable",
			"type": "function"
		},
		{
			"inputs": [],
			"name": "name",
			"outputs": [
				{
					"internalType": "string",
					"name": "",
					"type": "string"
				}
			],
			"stateMutability": "view",
			"type": "function"
		},
		{
			"inputs": [],
			"name": "symbol",
			"outputs": [
				{
					"internalType": "string",
					"name": "",
					"type": "string"
				}
			],
			"stateMutability": "view",
			"type": "function"
		},
		{
			"inputs": [],
			"name": "totalSupply",
			"outputs": [
				{
					"internalType": "uint256",
					"name": "",
					"type": "uint256"
				}
			],
			"stateMutability": "view",
			"type": "function"
		},
		{
			"inputs": [
				{
					"internalType": "address",
					"name": "to",
					"type": "address"
				},
				{
					"internalType": "uint256",
					"name": "value",
					"type": "uint256"
				}
			],
			"name": "transfer",
			"outputs": [
				{
					"internalType": "bool",
					"name": "",
					"type": "bool"
				}
			],
			"stateMutability": "nonpayable",
			"type": "function"
		},
		{
			"inputs": [
				{
					"internalType": "address",
					"name": "from",
					"type": "address"
				},
				{
					"internalType": "address",
					"name": "to",
					"type": "address"
				},
				{
					"internalType": "uint256",
					"name": "value",
					"type": "uint256"
				}
			],
			"name": "transferFrom",
			"outputs": [
				{
					"internalType": "bool",
					"name": "",
					"type": "bool"
				}
			],
			"stateMutability": "nonpayable",
			"type": "function"
		}
	]
}