{
	"data": {
		"bytecode": {
			"linkReferences": {},
			"object": "608060405234801561000f575f5ffd5b5060405161444d38038061444d83398101604081905261002e91611316565b6040518060400160405280600c81526020016b10d210551313d1c8159bda5960a21b815250604051806040016040528060048152602001631593d25160e21b815250826001600160a01b0316636fb7329c6040518163ffffffff1660e01b8152600401602060405180830381865afa1580156100ac573d5f5f3e3d5ffd5b505050506040513d601f19601f820116820180604052508101906100d09190611316565b338061010257604051633603021960e21b81523260048201525f60248201523060448201526064015b60405180910390fd5b61010d816001610ebd565b50600461011a84826113d0565b50600561012783826113d0565b50600680546001600160a01b0319166001600160a01b0383169081179091556040805163604a6fa960e01b815290516201b207929163604a6fa991600480830192602092919082900301815f875af1158015610185573d5f5f3e3d5ffd5b505050506040513d601f19601f820116820180604052508101906101a991906114a5565b6101b391906114d2565b6001600160401b03166007819055505f600a60075460065f9054906101000a90046001600160a01b03166001600160a01b031663604a6fa96040518163ffffffff1660e01b81526004016020604051808303815f875af1158015610219573d5f5f3e3d5ffd5b505050506040513d601f19601f8201168201806040525081019061023d91906114a5565b6001600160401b03166102509190611500565b61025a9190611527565b905061027b3261026c6012600a61161d565b610276908461162b565b610f10565b6102c77324f0154c1dce548adf15da2098fdd8b8a3b8151d60125b6102a190600a61161d565b6102ac90600161162b565b6001600160a01b039091165f90815260086020526040902055565b5050600980546001600160a01b0319166001600160a01b038516908117909155604051630e0cb96960e31b8152306004820152909250637065cb4891506024015f604051808303815f87803b15801561031e575f5ffd5b505af1158015610330573d5f5f3e3d5ffd5b5050505060095f9054906101000a90046001600160a01b03166001600160a01b03166376fade906040518163ffffffff1660e01b81526004016020604051808303815f875af1158015610385573d5f5f3e3d5ffd5b505050506040513d601f19601f820116820180604052508101906103a99190611316565b604051630e0cb96960e31b81523060048201526001600160a01b039190911690637065cb48906024015f604051808303815f87803b1580156103e9575f5ffd5b505af11580156103fb573d5f5f3e3d5ffd5b5050505060095f9054906101000a90046001600160a01b03166001600160a01b03166376fade906040518163ffffffff1660e01b81526004016020604051808303815f875af1158015610450573d5f5f3e3d5ffd5b505050506040513d601f19601f820116820180604052508101906104749190611316565b6001600160a01b031663b50951686040518163ffffffff1660e01b81526004016020604051808303815f875af11580156104b0573d5f5f3e3d5ffd5b505050506040513d601f19601f820116820180604052508101906104d49190611316565b604051630e0cb96960e31b81523060048201526001600160a01b039190911690637065cb48906024015f604051808303815f87803b158015610514575f5ffd5b505af1158015610526573d5f5f3e3d5ffd5b5050505060095f9054906101000a90046001600160a01b03166001600160a01b03166376fade906040518163ffffffff1660e01b81526004016020604051808303815f875af115801561057b573d5f5f3e3d5ffd5b505050506040513d601f19601f8201168201806040525081019061059f9190611316565b6001600160a01b031663b50951686040518163ffffffff1660e01b81526004016020604051808303815f875af11580156105db573d5f5f3e3d5ffd5b505050506040513d601f19601f820116820180604052508101906105ff9190611316565b6001600160a01b0316634cde872d6040518163ffffffff1660e01b81526004016020604051808303815f875af115801561063b573d5f5f3e3d5ffd5b505050506040513d601f19601f8201168201806040525081019061065f9190611316565b604051630e0cb96960e31b81523060048201526001600160a01b039190911690637065cb48906024015f604051808303815f87803b15801561069f575f5ffd5b505af11580156106b1573d5f5f3e3d5ffd5b5050505060095f9054906101000a90046001600160a01b03166001600160a01b03166376fade906040518163ffffffff1660e01b81526004016020604051808303815f875af1158015610706573d5f5f3e3d5ffd5b505050506040513d601f19601f8201168201806040525081019061072a9190611316565b6001600160a01b031663b50951686040518163ffffffff1660e01b81526004016020604051808303815f875af1158015610766573d5f5f3e3d5ffd5b505050506040513d601f19601f8201168201806040525081019061078a9190611316565b6001600160a01b0316634cde872d6040518163ffffffff1660e01b81526004016020604051808303815f875af11580156107c6573d5f5f3e3d5ffd5b505050506040513d601f19601f820116820180604052508101906107ea9190611316565b6001600160a01b031663140c2fb56040518163ffffffff1660e01b81526004016020604051808303815f875af1158015610826573d5f5f3e3d5ffd5b505050506040513d601f19601f8201168201806040525081019061084a9190611316565b604051630e0cb96960e31b81523060048201526001600160a01b039190911690637065cb48906024015f604051808303815f87803b15801561088a575f5ffd5b505af115801561089c573d5f5f3e3d5ffd5b5050505060095f9054906101000a90046001600160a01b03166001600160a01b03166376fade906040518163ffffffff1660e01b81526004016020604051808303815f875af11580156108f1573d5f5f3e3d5ffd5b505050506040513d601f19601f820116820180604052508101906109159190611316565b6001600160a01b031663b50951686040518163ffffffff1660e01b81526004016020604051808303815f875af1158015610951573d5f5f3e3d5ffd5b505050506040513d601f19601f820116820180604052508101906109759190611316565b6001600160a01b0316634cde872d6040518163ffffffff1660e01b81526004016020604051808303815f875af11580156109b1573d5f5f3e3d5ffd5b505050506040513d601f19601f820116820180604052508101906109d59190611316565b6001600160a01b031663140c2fb56040518163ffffffff1660e01b81526004016020604051808303815f875af1158015610a11573d5f5f3e3d5ffd5b505050506040513d601f19601f82011682018060405250810190610a359190611316565b6001600160a01b0316634209b07c6040518163ffffffff1660e01b81526004016020604051808303815f875af1158015610a71573d5f5f3e3d5ffd5b505050506040513d601f19601f82011682018060405250810190610a959190611316565b604051630e0cb96960e31b81523060048201526001600160a01b039190911690637065cb48906024015f604051808303815f87803b158015610ad5575f5ffd5b505af1158015610ae7573d5f5f3e3d5ffd5b50505050610c8860095f9054906101000a90046001600160a01b03166001600160a01b03166376fade906040518163ffffffff1660e01b81526004016020604051808303815f875af1158015610b3f573d5f5f3e3d5ffd5b505050506040513d601f19601f82011682018060405250810190610b639190611316565b6001600160a01b031663b50951686040518163ffffffff1660e01b81526004016020604051808303815f875af1158015610b9f573d5f5f3e3d5ffd5b505050506040513d601f19601f82011682018060405250810190610bc39190611316565b6001600160a01b0316634cde872d6040518163ffffffff1660e01b81526004016020604051808303815f875af1158015610bff573d5f5f3e3d5ffd5b505050506040513d601f19601f82011682018060405250810190610c239190611316565b6001600160a01b031663a12204b06040518163ffffffff1660e01b81526004016020604051808303815f875af1158015610c5f573d5f5f3e3d5ffd5b505050506040513d601f19601f82011682018060405250810190610c8391906114a5565b610f1f565b60800151604051630e0cb96960e31b81523060048201526001600160a01b0390911690637065cb48906024015f604051808303815f87803b158015610ccb575f5ffd5b505af1158015610cdd573d5f5f3e3d5ffd5b50505050610dc760095f9054906101000a90046001600160a01b03166001600160a01b03166376fade906040518163ffffffff1660e01b81526004016020604051808303815f875af1158015610d35573d5f5f3e3d5ffd5b505050506040513d601f19601f82011682018060405250810190610d599190611316565b6001600160a01b031663a45669506040518163ffffffff1660e01b8152600401610300604051808303815f875af1158015610d96573d5f5f3e3d5ffd5b505050506040513d601f19601f82011682018060405250810190610dba919061171b565b6020015160400151610f1f565b60800151604051630e0cb96960e31b81523060048201526001600160a01b0390911690637065cb48906024015f604051808303815f87803b158015610e0a575f5ffd5b505af1158015610e1c573d5f5f3e3d5ffd5b505050507f629fbf248b237ed272f090387c7fad659d4b6fe471c14374fbc5343118c5ed81600b604051610e5a90635a484f5560e01b815260040190565b908152604051908190036020018120919091556359414e4760e01b81527ffbe7058adb3b3008faa615ef5538da603517853adef0b41ab9be1b6e23410eca90600b9060040190815260405190819003602001902055610eb7611161565b506117ba565b6001600160a01b0382165f81815260208190526040808220805460ff191685151590811790915590519092917f6bfa7e860c3e9bf67b810cb88276b19b27c972812bac04793d369b59a1183a8391a35050565b610f1b5f8383611182565b5050565b60408051610100810182525f8082526020808301829052828401829052606083018290526080830182905260a0830182905260c0830182905260e08301829052600954845163076fade960e41b8152945193946001600160a01b03909116936376fade90936004808401949383900301908290875af1158015610fa4573d5f5f3e3d5ffd5b505050506040513d601f19601f82011682018060405250810190610fc89190611316565b6001600160a01b031663b50951686040518163ffffffff1660e01b81526004016020604051808303815f875af1158015611004573d5f5f3e3d5ffd5b505050506040513d601f19601f820116820180604052508101906110289190611316565b6001600160a01b0316634cde872d6040518163ffffffff1660e01b81526004016020604051808303815f875af1158015611064573d5f5f3e3d5ffd5b505050506040513d601f19601f820116820180604052508101906110889190611316565b6001600160a01b031663140c2fb56040518163ffffffff1660e01b81526004016020604051808303815f875af11580156110c4573d5f5f3e3d5ffd5b505050506040513d601f19601f820116820180604052508101906110e89190611316565b6040516302213c7d60e11b81526001600160401b03841660048201526001600160a01b03919091169063044278fa90602401610100604051808303815f875af1158015611137573d5f5f3e3d5ffd5b505050506040513d601f19601f8201168201806040525081019061115b919061178c565b92915050565b600954611178906001600160a01b03166012610296565b6111806112c2565b565b6001600160a01b0383166111ac578060035f8282546111a191906117a7565b909155506112369050565b6001600160a01b0383165f908152600160205260409020548181101561121857604051630f7d0bbd60e21b81523260048201523360248201526001600160a01b0380861660448301528416606482015230608482015260a4810182905260c4810183905260e4016100f9565b6001600160a01b0384165f9081526001602052604090209082900390555b6001600160a01b03821661125257600380548290039055611270565b6001600160a01b0382165f9081526001602052604090208054820190555b816001600160a01b0316836001600160a01b03167fddf252ad1be2c89b69c2b068fc378daa952ba7f163c4a11628f55a4df523b3ef836040516112b591815260200190565b60405180910390a3505050565b6112ce6012600a61161d565b6007546112db919061162b565b600354101561118057611180306112f46012600a61161d565b61027690600161162b565b6001600160a01b0381168114611313575f5ffd5b50565b5f60208284031215611326575f5ffd5b8151611331816112ff565b9392505050565b634e487b7160e01b5f52604160045260245ffd5b600181811c9082168061136057607f821691505b60208210810361137e57634e487b7160e01b5f52602260045260245ffd5b50919050565b601f8211156113cb57805f5260205f20601f840160051c810160208510156113a95750805b601f840160051c820191505b818110156113c8575f81556001016113b5565b50505b505050565b81516001600160401b038111156113e9576113e9611338565b6113fd816113f7845461134c565b84611384565b6020601f82116001811461142f575f83156114185750848201515b5f19600385901b1c1916600184901b1784556113c8565b5f84815260208120601f198516915b8281101561145e578785015182556020948501946001909201910161143e565b508482101561147b57868401515f19600387901b60f8161c191681555b50505050600190811b01905550565b80516001600160401b03811681146114a0575f5ffd5b919050565b5f602082840312156114b5575f5ffd5b6113318261148a565b634e487b7160e01b5f52601260045260245ffd5b5f6001600160401b038316806114ea576114ea6114be565b6001600160401b03929092169190910692915050565b5f8261150e5761150e6114be565b500690565b634e487b7160e01b5f52601160045260245ffd5b5f82611535576115356114be565b500490565b6001815b60018411156115755780850481111561155957611559611513565b600184161561156757908102905b60019390931c92800261153e565b935093915050565b5f8261158b5750600161115b565b8161159757505f61115b565b81600181146115ad57600281146115b7576115d3565b600191505061115b565b60ff8411156115c8576115c8611513565b50506001821b61115b565b5060208310610133831016604e8410600b84101617156115f6575081810a61115b565b6116025f19848461153a565b805f190482111561161557611615611513565b029392505050565b5f61133160ff84168361157d565b808202811582820484141761115b5761115b611513565b60405161010081016001600160401b038111828210171561166557611665611338565b60405290565b80516114a0816112ff565b5f6101008284031215611687575f5ffd5b61168f611642565b9050815161169c816112ff565b81526116aa6020830161166b565b60208201526116bb6040830161148a565b60408201526116cc6060830161148a565b60608201526116dd6080830161166b565b60808201526116ee60a0830161148a565b60a08201526116ff60c0830161148a565b60c082015261171060e0830161148a565b60e082015292915050565b5f61030082840312801561172d575f5ffd5b50604051606081016001600160401b038111828210171561175057611750611338565b60405261175d8484611676565b815261176d846101008501611676565b6020820152611780846102008501611676565b60408201529392505050565b5f610100828403121561179d575f5ffd5b6113318383611676565b8082018082111561115b5761115b611513565b612c86806117c75f395ff3fe608060405234801561000f575f5ffd5b50600436106101f0575f3560e01c806370a082311161011b578063d3dc2a0f116100b4578063e774b3a411610079578063e774b3a414610497578063e7c4b151146104aa578063ed70e46c146104bd578063f4e6c93f146104d0578063ff762044146104d8575f5ffd5b8063d3dc2a0f1461042f578063d5abeb0114610455578063d9270a5a1461045e578063dd62ed3e14610471578063df5cb7b414610484575f5ffd5b806370a08231146103875780638da5cb5b146103af57806395d89b41146103b55780639dcbf7ea146103bd5780639ff43001146103d0578063a9059cbb146103e3578063b502e567146103f6578063c34686e514610409578063cf34ef531461041c575f5ffd5b80632499a5331161018d5780632499a533146102be5780632b83b1fc146102d1578063313ce567146102f957806338bf3cfa14610308578063393a35a51461031b578063666e1b391461032e57806368f9c787146103415780636fb7329c146103545780637065cb4814610374575f5ffd5b8062b660ef146101f457806306fdde03146102095780630738f4da14610227578063095ea7b31461023a5780631097e5791461025d57806318160ddd1461027357806321516fc414610285578063222838db1461029857806323b872dd146102ab575b5f5ffd5b6102076102023660046120bf565b6104fb565b005b6102116105dd565b60405161021e9190612139565b60405180910390f35b6102076102353660046120bf565b61066d565b61024d61024836600461214b565b61077f565b604051901515815260200161021e565b610265610798565b60405161021e92919061222b565b6003545b60405190815260200161021e565b61020761029336600461226c565b610a19565b6102076102a636600461214b565b610af2565b61024d6102b93660046122a5565b610ceb565b6102076102cc36600461214b565b610d10565b6102776102df3660046122e3565b6001600160a01b03165f9081526008602052604090205490565b6040516012815260200161021e565b6102076103163660046122e3565b610ec3565b6102116103293660046123d2565b610ed8565b61024d61033c3660046122e3565b610f80565b61026561034f3660046123ed565b610f9d565b600654610367906001600160a01b031681565b60405161021e919061243a565b6102076103823660046122e3565b6111a0565b6102776103953660046122e3565b6001600160a01b03165f9081526001602052604090205490565b30610367565b6102116111e0565b6102076103cb3660046123ed565b6111ef565b600954610367906001600160a01b031681565b61024d6103f136600461214b565b611210565b61021161040436600461226c565b61121d565b61020761041736600461244e565b611284565b61020761042a36600461226c565b611324565b61043d6603632c8eb5af3b81565b6040516001600160401b03909116815260200161021e565b61027760075481565b61036761046c36600461226c565b6113eb565b61027761047f366004612485565b61141b565b6102076104923660046123ed565b611445565b6102076104a53660046124bc565b6114e5565b6102076104b83660046124ff565b611535565b6102116104cb3660046122e3565b6115ec565b610207611655565b610211604051806040016040528060048152602001631593d25160e21b81525081565b335f908152600a60205260408120546001600160401b0316900361053d5733604051636c4d110b60e01b8152600401610534919061243a565b60405180910390fd5b600c60405161054b9061251b565b90815260408051918290036020908101832054335f908152600a9092529190205463d25f5a5d60e01b83526001600160a01b039091169163d25f5a5d916105a4916001600160401b039091169086908690600401612533565b5f604051808303815f87803b1580156105bb575f5ffd5b505af11580156105cd573d5f5f3e3d5ffd5b505050506105d9611667565b5050565b6060600480546105ec9061256e565b80601f01602080910402602001604051908101604052809291908181526020018280546106189061256e565b80156106635780601f1061063a57610100808354040283529160200191610663565b820191905f5260205f20905b81548152906001019060200180831161064657829003601f168201915b5050505050905090565b6106756116a9565b6001600160a01b0382165f908152600a60205260409020546001600160401b031661069f816116e9565b608001516001600160a01b031663daeee4828260095f9054906101000a90046001600160a01b03166001600160a01b03166327bacc406040518163ffffffff1660e01b8152600401602060405180830381865afa158015610702573d5f5f3e3d5ffd5b505050506040513d601f19601f8201168201806040525081019061072691906125b1565b856040518463ffffffff1660e01b8152600401610745939291906125cc565b5f604051808303815f87803b15801561075c575f5ffd5b505af115801561076e573d5f5f3e3d5ffd5b5050505061077a611667565b505050565b5f3361078c8185856118f9565b60019150505b92915050565b6107a0611f43565b6107a8611f61565b335f908152600a60205260408120546001600160401b031690036107e15733604051636c4d110b60e01b8152600401610534919061243a565b60095f9054906101000a90046001600160a01b03166001600160a01b03166376fade906040518163ffffffff1660e01b81526004016020604051808303815f875af1158015610832573d5f5f3e3d5ffd5b505050506040513d601f19601f8201168201806040525081019061085691906125fc565b60405163591257c560e01b8152600260048201526001600160a01b03919091169063591257c5906024016020604051808303815f875af115801561089c573d5f5f3e3d5ffd5b505050506040513d601f19601f820116820180604052508101906108c091906125b1565b6001600160401b039081168352335f908152600a602090815260409182902054909216828501526009548151629eeb3160e61b815291516001600160a01b03909116926327bacc4092600480820193918290030181865afa158015610927573d5f5f3e3d5ffd5b505050506040513d601f19601f8201168201806040525081019061094b91906125b1565b6001600160401b031660408301526020820151610967906116e9565b608081015160405163666e1b3960e01b81529192506001600160a01b03169063666e1b399061099a90339060040161243a565b602060405180830381865afa1580156109b5573d5f5f3e3d5ffd5b505050506040513d601f19601f820116820180604052508101906109d99190612617565b610a0d576080810151604051630715816360e31b81526001600160a01b039091166004820152336024820152604401610534565b610a15611667565b9091565b335f908152600a60205260408120546001600160401b03169003610a525733604051636c4d110b60e01b8152600401610534919061243a565b5f610a7c60405180604001604052806008815260200167557365726e616d6560c01b81525061121d565b9050600181511015610aa3573360405163435fe61960e11b8152600401610534919061243a565b610aea604051806040016040528060048152602001635a484f5560e01b8152508284604051602001610ad692919061264d565b604051602081830303815290604052611906565b6105d9611667565b6001600160a01b0382165f908152600860205260408120549003610b2b57816040516390b2344160e01b8152600401610534919061243a565b815f610b396012600a61276e565b6001600160a01b0385165f90815260086020526040902054610b5b908561277c565b610b659190612793565b6040516323b872dd60e01b81529091505f9030906323b872dd90610b91903390849089906004016127b2565b6020604051808303815f875af1158015610bad573d5f5f3e3d5ffd5b505050506040513d601f19601f82011682018060405250810190610bd19190612617565b905080306001600160a01b03166306fdde036040518163ffffffff1660e01b81526004015f60405180830381865afa158015610c0f573d5f5f3e3d5ffd5b505050506040513d5f823e601f3d908101601f19168201604052610c3691908101906127d6565b604051602001610c46919061284a565b60405160208183030381529060405290610c735760405162461bcd60e51b81526004016105349190612139565b5060405163a9059cbb60e01b8152336004820152602481018390526001600160a01b0384169063a9059cbb906044015b6020604051808303815f875af1158015610cbf573d5f5f3e3d5ffd5b505050506040513d601f19601f82011682018060405250810190610ce39190612617565b505050505050565b5f33610cf8858285611cee565b610d03858585611d3f565b60019150505b9392505050565b6001600160a01b0382165f908152600860205260408120549003610d4957816040516390b2344160e01b8152600401610534919061243a565b815f610d576012600a61276e565b6001600160a01b0385165f90815260086020526040902054610d79908561277c565b610d839190612793565b90505f826001600160a01b03166323b872dd3330856040518463ffffffff1660e01b8152600401610db6939291906127b2565b6020604051808303815f875af1158015610dd2573d5f5f3e3d5ffd5b505050506040513d601f19601f82011682018060405250810190610df69190612617565b905080836001600160a01b03166306fdde036040518163ffffffff1660e01b81526004015f60405180830381865afa158015610e34573d5f5f3e3d5ffd5b505050506040513d5f823e601f3d908101601f19168201604052610e5b91908101906127d6565b604051602001610e6b919061284a565b60405160208183030381529060405290610e985760405162461bcd60e51b81526004016105349190612139565b5060405163a9059cbb60e01b815233600482015260248101859052309063a9059cbb90604401610ca3565b610ecb6116a9565b610ed5815f611d4a565b50565b6060600c604051610ee89061251b565b90815260408051918290036020908101832054335f908152600a909252919020546306be413360e01b83526001600160a01b03909116916306be413391610f3f916001600160401b0390911690869060040161286c565b5f60405180830381865afa158015610f59573d5f5f3e3d5ffd5b505050506040513d5f823e601f3d908101601f1916820160405261079291908101906127d6565b6001600160a01b03165f9081526020819052604090205460ff1690565b610fa5611f43565b610fad611f61565b335f908152600a60205260409020546001600160401b031615610fe557336040516393052d6d60e01b8152600401610534919061243a565b6009546040516301d0307160e01b81526001600160a01b03909116906301d0307190611017908790879060040161288a565b610160604051808303815f875af1158015611034573d5f5f3e3d5ffd5b505050506040513d601f19601f820116820180604052508101906110589190612953565b6080810151604051630e0cb96960e31b81529294509092506001600160a01b031690637065cb489061108e90339060040161243a565b5f604051808303815f87803b1580156110a5575f5ffd5b505af11580156110b7573d5f5f3e3d5ffd5b5050505080608001516001600160a01b031663666e1b39336040518263ffffffff1660e01b81526004016110eb919061243a565b602060405180830381865afa158015611106573d5f5f3e3d5ffd5b505050506040513d601f19601f8201168201806040525081019061112a9190612617565b61115e576080810151604051630715816360e31b81526001600160a01b039091166004820152336024820152604401610534565b602082810151335f908152600a9092526040909120805467ffffffffffffffff19166001600160401b03909216919091179055611199611667565b9250929050565b6111a86116a9565b6001600160a01b0381166111d557325f30604051633603021960e21b8152600401610534939291906129c9565b610ed5816001611d4a565b6060600580546105ec9061256e565b6111f76116a9565b60046112038382612a37565b50600561077a8282612a37565b5f3361078c818585611d3f565b6060600c60405161122d9061251b565b90815260408051918290036020908101832054335f908152600a9092529190205463ec25422360e01b83526001600160a01b039091169163ec25422391610f3f916001600160401b03909116908690600401612af1565b335f908152600a60205260408120546001600160401b031690036112bd5733604051636c4d110b60e01b8152600401610534919061243a565b600c6040516112cb9061251b565b90815260408051918290036020908101832054335f908152600a9092529190205463aafd31cf60e01b83526001600160a01b039091169163aafd31cf916105a4916001600160401b039091169086908690600401612b12565b335f908152600a60205260409020546001600160401b0316611345816116e9565b608001516001600160a01b031663daeee4828260095f9054906101000a90046001600160a01b03166001600160a01b03166327bacc406040518163ffffffff1660e01b8152600401602060405180830381865afa1580156113a8573d5f5f3e3d5ffd5b505050506040513d601f19601f820116820180604052508101906113cc91906125b1565b856040518463ffffffff1660e01b81526004016105a4939291906125cc565b5f600c826040516113fc9190612b43565b908152604051908190036020019020546001600160a01b031692915050565b6001600160a01b039182165f90815260026020908152604080832093909416825291909152205490565b335f908152600a60205260408120546001600160401b0316900361147e5733604051636c4d110b60e01b8152600401610534919061243a565b600c60405161148c9061251b565b90815260408051918290036020908101832054335f908152600a90925291902054637bde874360e01b83526001600160a01b0390911691637bde8743916105a4916001600160401b039091169086908690600401612b4e565b6114ed6116a9565b80600c836040516114fe9190612b43565b90815260405190819003602001902080546001600160a01b03929092166001600160a01b03199092169190911790556105d9611667565b61153d6116a9565b611546826116e9565b608001516001600160a01b031663daeee4828360095f9054906101000a90046001600160a01b03166001600160a01b03166327bacc406040518163ffffffff1660e01b8152600401602060405180830381865afa1580156115a9573d5f5f3e3d5ffd5b505050506040513d601f19601f820116820180604052508101906115cd91906125b1565b846040518463ffffffff1660e01b81526004016105a4939291906125cc565b6060600c6040516115fc9061251b565b908152604080516020928190038301812054335f908152600a909452919092205463244e6acb60e21b83526001600160401b031660048301526001600160a01b0384811660248401521690639139ab2c90604401610f3f565b61165d6116a9565b611665611667565b565b6116736012600a61276e565b600754611680919061277c565b600354101561166557611665306116996012600a61276e565b6116a490600161277c565b611d9d565b6116b233610f80565b1580156116c557506116c332610f80565b155b1561166557323330604051630be6bab560e01b8152600401610534939291906129c9565b6116f1611f61565b60095f9054906101000a90046001600160a01b03166001600160a01b03166376fade906040518163ffffffff1660e01b81526004016020604051808303815f875af1158015611742573d5f5f3e3d5ffd5b505050506040513d601f19601f8201168201806040525081019061176691906125fc565b6001600160a01b031663b50951686040518163ffffffff1660e01b81526004016020604051808303815f875af11580156117a2573d5f5f3e3d5ffd5b505050506040513d601f19601f820116820180604052508101906117c691906125fc565b6001600160a01b0316634cde872d6040518163ffffffff1660e01b81526004016020604051808303815f875af1158015611802573d5f5f3e3d5ffd5b505050506040513d601f19601f8201168201806040525081019061182691906125fc565b6001600160a01b031663140c2fb56040518163ffffffff1660e01b81526004016020604051808303815f875af1158015611862573d5f5f3e3d5ffd5b505050506040513d601f19601f8201168201806040525081019061188691906125fc565b6040516302213c7d60e11b81526001600160401b03841660048201526001600160a01b03919091169063044278fa90602401610100604051808303815f875af11580156118d5573d5f5f3e3d5ffd5b505050506040513d601f19601f820116820180604052508101906107929190612b8b565b61077a8383836001611da8565b335f908152600a6020908152604091829020548451918501919091209151635a484f5560e01b81526001600160401b039091169190600b906004019081526020016040518091039020548103611bc1576009546040805163076fade960e41b81529051611ae9926001600160a01b0316916376fade9091600480830192602092919082900301815f875af11580156119a0573d5f5f3e3d5ffd5b505050506040513d601f19601f820116820180604052508101906119c491906125fc565b6001600160a01b031663b50951686040518163ffffffff1660e01b81526004016020604051808303815f875af1158015611a00573d5f5f3e3d5ffd5b505050506040513d601f19601f82011682018060405250810190611a2491906125fc565b6001600160a01b0316634cde872d6040518163ffffffff1660e01b81526004016020604051808303815f875af1158015611a60573d5f5f3e3d5ffd5b505050506040513d601f19601f82011682018060405250810190611a8491906125fc565b6001600160a01b031663a12204b06040518163ffffffff1660e01b81526004016020604051808303815f875af1158015611ac0573d5f5f3e3d5ffd5b505050506040513d601f19601f82011682018060405250810190611ae491906125b1565b6116e9565b608001516001600160a01b031663daeee4828360095f9054906101000a90046001600160a01b03166001600160a01b03166327bacc406040518163ffffffff1660e01b8152600401602060405180830381865afa158015611b4c573d5f5f3e3d5ffd5b505050506040513d601f19601f82011682018060405250810190611b7091906125b1565b866040518463ffffffff1660e01b8152600401611b8f939291906125cc565b5f604051808303815f87803b158015611ba6575f5ffd5b505af1158015611bb8573d5f5f3e3d5ffd5b50505050611ce0565b6040516359414e4760e01b8152600b906004019081526020016040518091039020548103611cc5576009546040805163076fade960e41b81529051611ae9926001600160a01b0316916376fade9091600480830192602092919082900301815f875af1158015611c33573d5f5f3e3d5ffd5b505050506040513d601f19601f82011682018060405250810190611c5791906125fc565b6001600160a01b031663a45669506040518163ffffffff1660e01b8152600401610300604051808303815f875af1158015611c94573d5f5f3e3d5ffd5b505050506040513d601f19601f82011682018060405250810190611cb89190612ba6565b60200151604001516116e9565b8360405163198e0dbf60e01b81526004016105349190612139565b611ce8611667565b50505050565b5f611cf9848461141b565b90505f198114611ce85781811015611d31573233858530858760405162b83d1960e21b81526004016105349796959493929190612bfa565b611ce884848484035f611da8565b61077a838383611e28565b6001600160a01b0382165f81815260208190526040808220805460ff191685151590811790915590519092917f6bfa7e860c3e9bf67b810cb88276b19b27c972812bac04793d369b59a1183a8391a35050565b6105d95f8383611e28565b6001600160a01b038085165f9081526002602090815260408083209387168352929052208290558015611ce857826001600160a01b0316846001600160a01b03167f8c5be1e5ebec7d5bd14f71427d1e84f3dd0314c0f7b2291e5b200ac8c7c3b92584604051611e1a91815260200190565b60405180910390a350505050565b6001600160a01b038316611e52578060035f828254611e479190612c3d565b90915550611eb79050565b6001600160a01b0383165f9081526001602052604090205481811015611e995732338585308587604051630f7d0bbd60e21b81526004016105349796959493929190612bfa565b6001600160a01b0384165f9081526001602052604090209082900390555b6001600160a01b038216611ed357600380548290039055611ef1565b6001600160a01b0382165f9081526001602052604090208054820190555b816001600160a01b0316836001600160a01b03167fddf252ad1be2c89b69c2b068fc378daa952ba7f163c4a11628f55a4df523b3ef83604051611f3691815260200190565b60405180910390a3505050565b60405180606001604052806003906020820280368337509192915050565b60408051610100810182525f80825260208201819052918101829052606081018290526080810182905260a0810182905260c0810182905260e081019190915290565b6001600160a01b0381168114610ed5575f5ffd5b634e487b7160e01b5f52604160045260245ffd5b60405161010081016001600160401b0381118282101715611fef57611fef611fb8565b60405290565b604051606081016001600160401b0381118282101715611fef57611fef611fb8565b604051601f8201601f191681016001600160401b038111828210171561203f5761203f611fb8565b604052919050565b5f6001600160401b0382111561205f5761205f611fb8565b50601f01601f191660200190565b5f82601f83011261207c575f5ffd5b813561208f61208a82612047565b612017565b8181528460208386010111156120a3575f5ffd5b816020850160208301375f918101602001919091529392505050565b5f5f604083850312156120d0575f5ffd5b82356120db81611fa4565b915060208301356001600160401b038111156120f5575f5ffd5b6121018582860161206d565b9150509250929050565b5f81518084528060208401602086015e5f602082860101526020601f19601f83011685010191505092915050565b602081525f610d09602083018461210b565b5f5f6040838503121561215c575f5ffd5b823561216781611fa4565b946020939093013593505050565b80516001600160a01b039081168352602080830151909116908301526040808201516001600160401b031690830152606080820151906121bf908401826001600160401b03169052565b5060808101516121da60808401826001600160a01b03169052565b5060a08101516121f560a08401826001600160401b03169052565b5060c081015161221060c08401826001600160401b03169052565b5060e081015161077a60e08401826001600160401b03169052565b610160810181845f5b600381101561225c5781516001600160401b0316835260209283019290910190600101612234565b505050610d096060830184612175565b5f6020828403121561227c575f5ffd5b81356001600160401b03811115612291575f5ffd5b61229d8482850161206d565b949350505050565b5f5f5f606084860312156122b7575f5ffd5b83356122c281611fa4565b925060208401356122d281611fa4565b929592945050506040919091013590565b5f602082840312156122f3575f5ffd5b8135610d0981611fa4565b803561230981611fa4565b919050565b6001600160401b0381168114610ed5575f5ffd5b80356123098161230e565b5f610100828403121561233e575f5ffd5b612346611fcc565b9050813561235381611fa4565b8152612361602083016122fe565b602082015261237260408301612322565b604082015261238360608301612322565b6060820152612394608083016122fe565b60808201526123a560a08301612322565b60a08201526123b660c08301612322565b60c08201526123c760e08301612322565b60e082015292915050565b5f61010082840312156123e3575f5ffd5b610d09838361232d565b5f5f604083850312156123fe575f5ffd5b82356001600160401b03811115612413575f5ffd5b61241f8582860161206d565b92505060208301356001600160401b038111156120f5575f5ffd5b6001600160a01b0391909116815260200190565b5f5f6101208385031215612460575f5ffd5b61246a848461232d565b91506101008301356001600160401b038111156120f5575f5ffd5b5f5f60408385031215612496575f5ffd5b82356124a181611fa4565b915060208301356124b181611fa4565b809150509250929050565b5f5f604083850312156124cd575f5ffd5b82356001600160401b038111156124e2575f5ffd5b6124ee8582860161206d565b92505060208301356124b181611fa4565b5f5f60408385031215612510575f5ffd5b82356120db8161230e565b6b6c696261747472696275746560a01b8152600c0190565b6001600160401b03841681526001600160a01b03831660208201526060604082018190525f906125659083018461210b565b95945050505050565b600181811c9082168061258257607f821691505b6020821081036125a057634e487b7160e01b5f52602260045260245ffd5b50919050565b80516123098161230e565b5f602082840312156125c1575f5ffd5b8151610d098161230e565b6001600160401b03841681526001600160401b0383166020820152606060408201525f612565606083018461210b565b5f6020828403121561260c575f5ffd5b8151610d0981611fa4565b5f60208284031215612627575f5ffd5b81518015158114610d09575f5ffd5b5f81518060208401855e5f93019283525090919050565b600f60fa1b81525f6126626001830185612636565b6101f160f51b81526125656002820185612636565b634e487b7160e01b5f52601160045260245ffd5b6001815b60018411156126c6578085048111156126aa576126aa612677565b60018416156126b857908102905b60019390931c92800261268f565b935093915050565b5f826126dc57506001610792565b816126e857505f610792565b81600181146126fe576002811461270857612724565b6001915050610792565b60ff84111561271957612719612677565b50506001821b610792565b5060208310610133831016604e8410600b8410161715612747575081810a610792565b6127535f19848461268b565b805f190482111561276657612766612677565b029392505050565b5f610d0960ff8416836126ce565b808202811582820484141761079257610792612677565b5f826127ad57634e487b7160e01b5f52601260045260245ffd5b500490565b6001600160a01b039384168152919092166020820152604081019190915260600190565b5f602082840312156127e6575f5ffd5b81516001600160401b038111156127fb575f5ffd5b8201601f8101841361280b575f5ffd5b805161281961208a82612047565b81815285602083850101111561282d575f5ffd5b8160208401602083015e5f91810160200191909152949350505050565b6d02732b2b21020b8383937bb32b2160951b81525f610d09600e830184612636565b6001600160401b03831681526101208101610d096020830184612175565b604081525f61289c604083018561210b565b8281036020840152612565818561210b565b805161230981611fa4565b5f61010082840312156128ca575f5ffd5b6128d2611fcc565b905081516128df81611fa4565b81526128ed602083016128ae565b60208201526128fe604083016125a6565b604082015261290f606083016125a6565b6060820152612920608083016128ae565b608082015261293160a083016125a6565b60a082015261294260c083016125a6565b60c08201526123c760e083016125a6565b5f5f6101608385031215612965575f5ffd5b83601f840112612973575f5ffd5b61297b611ff5565b80606085018681111561298c575f5ffd5b855b818110156129af5780516129a18161230e565b84526020938401930161298e565b508194506129bd87826128b9565b93505050509250929050565b6001600160a01b0393841681529183166020830152909116604082015260600190565b601f82111561077a57805f5260205f20601f840160051c81016020851015612a115750805b601f840160051c820191505b81811015612a30575f8155600101612a1d565b5050505050565b81516001600160401b03811115612a5057612a50611fb8565b612a6481612a5e845461256e565b846129ec565b6020601f821160018114612a96575f8315612a7f5750848201515b5f19600385901b1c1916600184901b178455612a30565b5f84815260208120601f198516915b82811015612ac55787850151825560209485019460019092019101612aa5565b5084821015612ae257868401515f19600387901b60f8161c191681555b50505050600190811b01905550565b6001600160401b0383168152604060208201525f61229d604083018461210b565b6001600160401b0384168152612b2b6020820184612175565b6101406101208201525f61256561014083018461210b565b5f610d098284612636565b6001600160401b0384168152606060208201525f612b6f606083018561210b565b8281036040840152612b81818561210b565b9695505050505050565b5f6101008284031215612b9c575f5ffd5b610d0983836128b9565b5f610300828403128015612bb8575f5ffd5b50612bc1611ff5565b612bcb84846128b9565b8152612bdb8461010085016128b9565b6020820152612bee8461020085016128b9565b60408201529392505050565b6001600160a01b039788168152958716602087015293861660408601529185166060850152909316608083015260a082019290925260c081019190915260e00190565b808201808211156107925761079261267756fea264697066735822122016da2a2b1c44db9ac629425f0cd6eb9211c0ac7940b7a4355894927bae0788db64736f6c634300081b0033",
			"opcodes": "PUSH1 0x80 PUSH1 0x40 MSTORE CALLVALUE DUP1 ISZERO PUSH2 0xF JUMPI PUSH0 PUSH0 REVERT JUMPDEST POP PUSH1 0x40 MLOAD PUSH2 0x444D CODESIZE SUB DUP1 PUSH2 0x444D DUP4 CODECOPY DUP2 ADD PUSH1 0x40 DUP2 SWAP1 MSTORE PUSH2 0x2E SWAP2 PUSH2 0x1316 JUMP JUMPDEST PUSH1 0x40 MLOAD DUP1 PUSH1 0x40 ADD PUSH1 0x40 MSTORE DUP1 PUSH1 0xC DUP2 MSTORE PUSH1 0x20 ADD PUSH12 0x10D210551313D1C8159BDA59 PUSH1 0xA2 SHL DUP2 MSTORE POP PUSH1 0x40 MLOAD DUP1 PUSH1 0x40 ADD PUSH1 0x40 MSTORE DUP1 PUSH1 0x4 DUP2 MSTORE PUSH1 0x20 ADD PUSH4 0x1593D251 PUSH1 0xE2 SHL DUP2 MSTORE POP DUP3 PUSH1 0x1 PUSH1 0x1 PUSH1 0xA0 SHL SUB AND PUSH4 0x6FB7329C PUSH1 0x40 MLOAD DUP2 PUSH4 0xFFFFFFFF AND PUSH1 0xE0 SHL DUP2 MSTORE PUSH1 0x4 ADD PUSH1 0x20 PUSH1 0x40 MLOAD DUP1 DUP4 SUB DUP2 DUP7 GAS STATICCALL ISZERO DUP1 ISZERO PUSH2 0xAC JUMPI RETURNDATASIZE PUSH0 PUSH0 RETURNDATACOPY RETURNDATASIZE PUSH0 REVERT JUMPDEST POP POP POP POP PUSH1 0x40 MLOAD RETURNDATASIZE PUSH1 0x1F NOT PUSH1 0x1F DUP3 ADD AND DUP3 ADD DUP1 PUSH1 0x40 MSTORE POP DUP2 ADD SWAP1 PUSH2 0xD0 SWAP2 SWAP1 PUSH2 0x1316 JUMP JUMPDEST CALLER DUP1 PUSH2 0x102 JUMPI PUSH1 0x40 MLOAD PUSH4 0x36030219 PUSH1 0xE2 SHL DUP2 MSTORE ORIGIN PUSH1 0x4 DUP3 ADD MSTORE PUSH0 PUSH1 0x24 DUP3 ADD MSTORE ADDRESS PUSH1 0x44 DUP3 ADD MSTORE PUSH1 0x64 ADD JUMPDEST PUSH1 0x40 MLOAD DUP1 SWAP2 SUB SWAP1 REVERT JUMPDEST PUSH2 0x10D DUP2 PUSH1 0x1 PUSH2 0xEBD JUMP JUMPDEST POP PUSH1 0x4 PUSH2 0x11A DUP5 DUP3 PUSH2 0x13D0 JUMP JUMPDEST POP PUSH1 0x5 PUSH2 0x127 DUP4 DUP3 PUSH2 0x13D0 JUMP JUMPDEST POP PUSH1 0x6 DUP1 SLOAD PUSH1 0x1 PUSH1 0x1 PUSH1 0xA0 SHL SUB NOT AND PUSH1 0x1 PUSH1 0x1 PUSH1 0xA0 SHL SUB DUP4 AND SWAP1 DUP2 OR SWAP1 SWAP2 SSTORE PUSH1 0x40 DUP1 MLOAD PUSH4 0x604A6FA9 PUSH1 0xE0 SHL DUP2 MSTORE SWAP1 MLOAD PUSH3 0x1B207 SWAP3 SWAP2 PUSH4 0x604A6FA9 SWAP2 PUSH1 0x4 DUP1 DUP4 ADD SWAP3 PUSH1 0x20 SWAP3 SWAP2 SWAP1 DUP3 SWAP1 SUB ADD DUP2 PUSH0 DUP8 GAS CALL ISZERO DUP1 ISZERO PUSH2 0x185 JUMPI RETURNDATASIZE PUSH0 PUSH0 RETURNDATACOPY RETURNDATASIZE PUSH0 REVERT JUMPDEST POP POP POP POP PUSH1 0x40 MLOAD RETURNDATASIZE PUSH1 0x1F NOT PUSH1 0x1F DUP3 ADD AND DUP3 ADD DUP1 PUSH1 0x40 MSTORE POP DUP2 ADD SWAP1 PUSH2 0x1A9 SWAP2 SWAP1 PUSH2 0x14A5 JUMP JUMPDEST PUSH2 0x1B3 SWAP2 SWAP1 PUSH2 0x14D2 JUMP JUMPDEST PUSH1 0x1 PUSH1 0x1 PUSH1 0x40 SHL SUB AND PUSH1 0x7 DUP2 SWAP1 SSTORE POP PUSH0 PUSH1 0xA PUSH1 0x7 SLOAD PUSH1 0x6 PUSH0 SWAP1 SLOAD SWAP1 PUSH2 0x100 EXP SWAP1 DIV PUSH1 0x1 PUSH1 0x1 PUSH1 0xA0 SHL SUB AND PUSH1 0x1 PUSH1 0x1 PUSH1 0xA0 SHL SUB AND PUSH4 0x604A6FA9 PUSH1 0x40 MLOAD DUP2 PUSH4 0xFFFFFFFF AND PUSH1 0xE0 SHL DUP2 MSTORE PUSH1 0x4 ADD PUSH1 0x20 PUSH1 0x40 MLOAD DUP1 DUP4 SUB DUP2 PUSH0 DUP8 GAS CALL ISZERO DUP1 ISZERO PUSH2 0x219 JUMPI RETURNDATASIZE PUSH0 PUSH0 RETURNDATACOPY RETURNDATASIZE PUSH0 REVERT JUMPDEST POP POP POP POP PUSH1 0x40 MLOAD RETURNDATASIZE PUSH1 0x1F NOT PUSH1 0x1F DUP3 ADD AND DUP3 ADD DUP1 PUSH1 0x40 MSTORE POP DUP2 ADD SWAP1 PUSH2 0x23D SWAP2 SWAP1 PUSH2 0x14A5 JUMP JUMPDEST PUSH1 0x1 PUSH1 0x1 PUSH1 0x40 SHL SUB AND PUSH2 0x250 SWAP2 SWAP1 PUSH2 0x1500 JUMP JUMPDEST PUSH2 0x25A SWAP2 SWAP1 PUSH2 0x1527 JUMP JUMPDEST SWAP1 POP PUSH2 0x27B ORIGIN PUSH2 0x26C PUSH1 0x12 PUSH1 0xA PUSH2 0x161D JUMP JUMPDEST PUSH2 0x276 SWAP1 DUP5 PUSH2 0x162B JUMP JUMPDEST PUSH2 0xF10 JUMP JUMPDEST PUSH2 0x2C7 PUSH20 0x24F0154C1DCE548ADF15DA2098FDD8B8A3B8151D PUSH1 0x12 JUMPDEST PUSH2 0x2A1 SWAP1 PUSH1 0xA PUSH2 0x161D JUMP JUMPDEST PUSH2 0x2AC SWAP1 PUSH1 0x1 PUSH2 0x162B JUMP JUMPDEST PUSH1 0x1 PUSH1 0x1 PUSH1 0xA0 SHL SUB SWAP1 SWAP2 AND PUSH0 SWAP1 DUP2 MSTORE PUSH1 0x8 PUSH1 0x20 MSTORE PUSH1 0x40 SWAP1 KECCAK256 SSTORE JUMP JUMPDEST POP POP PUSH1 0x9 DUP1 SLOAD PUSH1 0x1 PUSH1 0x1 PUSH1 0xA0 SHL SUB NOT AND PUSH1 0x1 PUSH1 0x1 PUSH1 0xA0 SHL SUB DUP6 AND SWAP1 DUP2 OR SWAP1 SWAP2 SSTORE PUSH1 0x40 MLOAD PUSH4 0xE0CB969 PUSH1 0xE3 SHL DUP2 MSTORE ADDRESS PUSH1 0x4 DUP3 ADD MSTORE SWAP1 SWAP3 POP PUSH4 0x7065CB48 SWAP2 POP PUSH1 0x24 ADD PUSH0 PUSH1 0x40 MLOAD DUP1 DUP4 SUB DUP2 PUSH0 DUP8 DUP1 EXTCODESIZE ISZERO DUP1 ISZERO PUSH2 0x31E JUMPI PUSH0 PUSH0 REVERT JUMPDEST POP GAS CALL ISZERO DUP1 ISZERO PUSH2 0x330 JUMPI RETURNDATASIZE PUSH0 PUSH0 RETURNDATACOPY RETURNDATASIZE PUSH0 REVERT JUMPDEST POP POP POP POP PUSH1 0x9 PUSH0 SWAP1 SLOAD SWAP1 PUSH2 0x100 EXP SWAP1 DIV PUSH1 0x1 PUSH1 0x1 PUSH1 0xA0 SHL SUB AND PUSH1 0x1 PUSH1 0x1 PUSH1 0xA0 SHL SUB AND PUSH4 0x76FADE90 PUSH1 0x40 MLOAD DUP2 PUSH4 0xFFFFFFFF AND PUSH1 0xE0 SHL DUP2 MSTORE PUSH1 0x4 ADD PUSH1 0x20 PUSH1 0x40 MLOAD DUP1 DUP4 SUB DUP2 PUSH0 DUP8 GAS CALL ISZERO DUP1 ISZERO PUSH2 0x385 JUMPI RETURNDATASIZE PUSH0 PUSH0 RETURNDATACOPY RETURNDATASIZE PUSH0 REVERT JUMPDEST POP POP POP POP PUSH1 0x40 MLOAD RETURNDATASIZE PUSH1 0x1F NOT PUSH1 0x1F DUP3 ADD AND DUP3 ADD DUP1 PUSH1 0x40 MSTORE POP DUP2 ADD SWAP1 PUSH2 0x3A9 SWAP2 SWAP1 PUSH2 0x1316 JUMP JUMPDEST PUSH1 0x40 MLOAD PUSH4 0xE0CB969 PUSH1 0xE3 SHL DUP2 MSTORE ADDRESS PUSH1 0x4 DUP3 ADD MSTORE PUSH1 0x1 PUSH1 0x1 PUSH1 0xA0 SHL SUB SWAP2 SWAP1 SWAP2 AND SWAP1 PUSH4 0x7065CB48 SWAP1 PUSH1 0x24 ADD PUSH0 PUSH1 0x40 MLOAD DUP1 DUP4 SUB DUP2 PUSH0 DUP8 DUP1 EXTCODESIZE ISZERO DUP1 ISZERO PUSH2 0x3E9 JUMPI PUSH0 PUSH0 REVERT JUMPDEST POP GAS CALL ISZERO DUP1 ISZERO PUSH2 0x3FB JUMPI RETURNDATASIZE PUSH0 PUSH0 RETURNDATACOPY RETURNDATASIZE PUSH0 REVERT JUMPDEST POP POP POP POP PUSH1 0x9 PUSH0 SWAP1 SLOAD SWAP1 PUSH2 0x100 EXP SWAP1 DIV PUSH1 0x1 PUSH1 0x1 PUSH1 0xA0 SHL SUB AND PUSH1 0x1 PUSH1 0x1 PUSH1 0xA0 SHL SUB AND PUSH4 0x76FADE90 PUSH1 0x40 MLOAD DUP2 PUSH4 0xFFFFFFFF AND PUSH1 0xE0 SHL DUP2 MSTORE PUSH1 0x4 ADD PUSH1 0x20 PUSH1 0x40 MLOAD DUP1 DUP4 SUB DUP2 PUSH0 DUP8 GAS CALL ISZERO DUP1 ISZERO PUSH2 0x450 JUMPI RETURNDATASIZE PUSH0 PUSH0 RETURNDATACOPY RETURNDATASIZE PUSH0 REVERT JUMPDEST POP POP POP POP PUSH1 0x40 MLOAD RETURNDATASIZE PUSH1 0x1F NOT PUSH1 0x1F DUP3 ADD AND DUP3 ADD DUP1 PUSH1 0x40 MSTORE POP DUP2 ADD SWAP1 PUSH2 0x474 SWAP2 SWAP1 PUSH2 0x1316 JUMP JUMPDEST PUSH1 0x1 PUSH1 0x1 PUSH1 0xA0 SHL SUB AND PUSH4 0xB5095168 PUSH1 0x40 MLOAD DUP2 PUSH4 0xFFFFFFFF AND PUSH1 0xE0 SHL DUP2 MSTORE PUSH1 0x4 ADD PUSH1 0x20 PUSH1 0x40 MLOAD DUP1 DUP4 SUB DUP2 PUSH0 DUP8 GAS CALL ISZERO DUP1 ISZERO PUSH2 0x4B0 JUMPI RETURNDATASIZE PUSH0 PUSH0 RETURNDATACOPY RETURNDATASIZE PUSH0 REVERT JUMPDEST POP POP POP POP PUSH1 0x40 MLOAD RETURNDATASIZE PUSH1 0x1F NOT PUSH1 0x1F DUP3 ADD AND DUP3 ADD DUP1 PUSH1 0x40 MSTORE POP DUP2 ADD SWAP1 PUSH2 0x4D4 SWAP2 SWAP1 PUSH2 0x1316 JUMP JUMPDEST PUSH1 0x40 MLOAD PUSH4 0xE0CB969 PUSH1 0xE3 SHL DUP2 MSTORE ADDRESS PUSH1 0x4 DUP3 ADD MSTORE PUSH1 0x1 PUSH1 0x1 PUSH1 0xA0 SHL SUB SWAP2 SWAP1 SWAP2 AND SWAP1 PUSH4 0x7065CB48 SWAP1 PUSH1 0x24 ADD PUSH0 PUSH1 0x40 MLOAD DUP1 DUP4 SUB DUP2 PUSH0 DUP8 DUP1 EXTCODESIZE ISZERO DUP1 ISZERO PUSH2 0x514 JUMPI PUSH0 PUSH0 REVERT JUMPDEST POP GAS CALL ISZERO DUP1 ISZERO PUSH2 0x526 JUMPI RETURNDATASIZE PUSH0 PUSH0 RETURNDATACOPY RETURNDATASIZE PUSH0 REVERT JUMPDEST POP POP POP POP PUSH1 0x9 PUSH0 SWAP1 SLOAD SWAP1 PUSH2 0x100 EXP SWAP1 DIV PUSH1 0x1 PUSH1 0x1 PUSH1 0xA0 SHL SUB AND PUSH1 0x1 PUSH1 0x1 PUSH1 0xA0 SHL SUB AND PUSH4 0x76FADE90 PUSH1 0x40 MLOAD DUP2 PUSH4 0xFFFFFFFF AND PUSH1 0xE0 SHL DUP2 MSTORE PUSH1 0x4 ADD PUSH1 0x20 PUSH1 0x40 MLOAD DUP1 DUP4 SUB DUP2 PUSH0 DUP8 GAS CALL ISZERO DUP1 ISZERO PUSH2 0x57B JUMPI RETURNDATASIZE PUSH0 PUSH0 RETURNDATACOPY RETURNDATASIZE PUSH0 REVERT JUMPDEST POP POP POP POP PUSH1 0x40 MLOAD RETURNDATASIZE PUSH1 0x1F NOT PUSH1 0x1F DUP3 ADD AND DUP3 ADD DUP1 PUSH1 0x40 MSTORE POP DUP2 ADD SWAP1 PUSH2 0x59F SWAP2 SWAP1 PUSH2 0x1316 JUMP JUMPDEST PUSH1 0x1 PUSH1 0x1 PUSH1 0xA0 SHL SUB AND PUSH4 0xB5095168 PUSH1 0x40 MLOAD DUP2 PUSH4 0xFFFFFFFF AND PUSH1 0xE0 SHL DUP2 MSTORE PUSH1 0x4 ADD PUSH1 0x20 PUSH1 0x40 MLOAD DUP1 DUP4 SUB DUP2 PUSH0 DUP8 GAS CALL ISZERO DUP1 ISZERO PUSH2 0x5DB JUMPI RETURNDATASIZE PUSH0 PUSH0 RETURNDATACOPY RETURNDATASIZE PUSH0 REVERT JUMPDEST POP POP POP POP PUSH1 0x40 MLOAD RETURNDATASIZE PUSH1 0x1F NOT PUSH1 0x1F DUP3 ADD AND DUP3 ADD DUP1 PUSH1 0x40 MSTORE POP DUP2 ADD SWAP1 PUSH2 0x5FF SWAP2 SWAP1 PUSH2 0x1316 JUMP JUMPDEST PUSH1 0x1 PUSH1 0x1 PUSH1 0xA0 SHL SUB AND PUSH4 0x4CDE872D PUSH1 0x40 MLOAD DUP2 PUSH4 0xFFFFFFFF AND PUSH1 0xE0 SHL DUP2 MSTORE PUSH1 0x4 ADD PUSH1 0x20 PUSH1 0x40 MLOAD DUP1 DUP4 SUB DUP2 PUSH0 DUP8 GAS CALL ISZERO DUP1 ISZERO PUSH2 0x63B JUMPI RETURNDATASIZE PUSH0 PUSH0 RETURNDATACOPY RETURNDATASIZE PUSH0 REVERT JUMPDEST POP POP POP POP PUSH1 0x40 MLOAD RETURNDATASIZE PUSH1 0x1F NOT PUSH1 0x1F DUP3 ADD AND DUP3 ADD DUP1 PUSH1 0x40 MSTORE POP DUP2 ADD SWAP1 PUSH2 0x65F SWAP2 SWAP1 PUSH2 0x1316 JUMP JUMPDEST PUSH1 0x40 MLOAD PUSH4 0xE0CB969 PUSH1 0xE3 SHL DUP2 MSTORE ADDRESS PUSH1 0x4 DUP3 ADD MSTORE PUSH1 0x1 PUSH1 0x1 PUSH1 0xA0 SHL SUB SWAP2 SWAP1 SWAP2 AND SWAP1 PUSH4 0x7065CB48 SWAP1 PUSH1 0x24 ADD PUSH0 PUSH1 0x40 MLOAD DUP1 DUP4 SUB DUP2 PUSH0 DUP8 DUP1 EXTCODESIZE ISZERO DUP1 ISZERO PUSH2 0x69F JUMPI PUSH0 PUSH0 REVERT JUMPDEST POP GAS CALL ISZERO DUP1 ISZERO PUSH2 0x6B1 JUMPI RETURNDATASIZE PUSH0 PUSH0 RETURNDATACOPY RETURNDATASIZE PUSH0 REVERT JUMPDEST POP POP POP POP PUSH1 0x9 PUSH0 SWAP1 SLOAD SWAP1 PUSH2 0x100 EXP SWAP1 DIV PUSH1 0x1 PUSH1 0x1 PUSH1 0xA0 SHL SUB AND PUSH1 0x1 PUSH1 0x1 PUSH1 0xA0 SHL SUB AND PUSH4 0x76FADE90 PUSH1 0x40 MLOAD DUP2 PUSH4 0xFFFFFFFF AND PUSH1 0xE0 SHL DUP2 MSTORE PUSH1 0x4 ADD PUSH1 0x20 PUSH1 0x40 MLOAD DUP1 DUP4 SUB DUP2 PUSH0 DUP8 GAS CALL ISZERO DUP1 ISZERO PUSH2 0x706 JUMPI RETURNDATASIZE PUSH0 PUSH0 RETURNDATACOPY RETURNDATASIZE PUSH0 REVERT JUMPDEST POP POP POP POP PUSH1 0x40 MLOAD RETURNDATASIZE PUSH1 0x1F NOT PUSH1 0x1F DUP3 ADD AND DUP3 ADD DUP1 PUSH1 0x40 MSTORE POP DUP2 ADD SWAP1 PUSH2 0x72A SWAP2 SWAP1 PUSH2 0x1316 JUMP JUMPDEST PUSH1 0x1 PUSH1 0x1 PUSH1 0xA0 SHL SUB AND PUSH4 0xB5095168 PUSH1 0x40 MLOAD DUP2 PUSH4 0xFFFFFFFF AND PUSH1 0xE0 SHL DUP2 MSTORE PUSH1 0x4 ADD PUSH1 0x20 PUSH1 0x40 MLOAD DUP1 DUP4 SUB DUP2 PUSH0 DUP8 GAS CALL ISZERO DUP1 ISZERO PUSH2 0x766 JUMPI RETURNDATASIZE PUSH0 PUSH0 RETURNDATACOPY RETURNDATASIZE PUSH0 REVERT JUMPDEST POP POP POP POP PUSH1 0x40 MLOAD RETURNDATASIZE PUSH1 0x1F NOT PUSH1 0x1F DUP3 ADD AND DUP3 ADD DUP1 PUSH1 0x40 MSTORE POP DUP2 ADD SWAP1 PUSH2 0x78A SWAP2 SWAP1 PUSH2 0x1316 JUMP JUMPDEST PUSH1 0x1 PUSH1 0x1 PUSH1 0xA0 SHL SUB AND PUSH4 0x4CDE872D PUSH1 0x40 MLOAD DUP2 PUSH4 0xFFFFFFFF AND PUSH1 0xE0 SHL DUP2 MSTORE PUSH1 0x4 ADD PUSH1 0x20 PUSH1 0x40 MLOAD DUP1 DUP4 SUB DUP2 PUSH0 DUP8 GAS CALL ISZERO DUP1 ISZERO PUSH2 0x7C6 JUMPI RETURNDATASIZE PUSH0 PUSH0 RETURNDATACOPY RETURNDATASIZE PUSH0 REVERT JUMPDEST POP POP POP POP PUSH1 0x40 MLOAD RETURNDATASIZE PUSH1 0x1F NOT PUSH1 0x1F DUP3 ADD AND DUP3 ADD DUP1 PUSH1 0x40 MSTORE POP DUP2 ADD SWAP1 PUSH2 0x7EA SWAP2 SWAP1 PUSH2 0x1316 JUMP JUMPDEST PUSH1 0x1 PUSH1 0x1 PUSH1 0xA0 SHL SUB AND PUSH4 0x140C2FB5 PUSH1 0x40 MLOAD DUP2 PUSH4 0xFFFFFFFF AND PUSH1 0xE0 SHL DUP2 MSTORE PUSH1 0x4 ADD PUSH1 0x20 PUSH1 0x40 MLOAD DUP1 DUP4 SUB DUP2 PUSH0 DUP8 GAS CALL ISZERO DUP1 ISZERO PUSH2 0x826 JUMPI RETURNDATASIZE PUSH0 PUSH0 RETURNDATACOPY RETURNDATASIZE PUSH0 REVERT JUMPDEST POP POP POP POP PUSH1 0x40 MLOAD RETURNDATASIZE PUSH1 0x1F NOT PUSH1 0x1F DUP3 ADD AND DUP3 ADD DUP1 PUSH1 0x40 MSTORE POP DUP2 ADD SWAP1 PUSH2 0x84A SWAP2 SWAP1 PUSH2 0x1316 JUMP JUMPDEST PUSH1 0x40 MLOAD PUSH4 0xE0CB969 PUSH1 0xE3 SHL DUP2 MSTORE ADDRESS PUSH1 0x4 DUP3 ADD MSTORE PUSH1 0x1 PUSH1 0x1 PUSH1 0xA0 SHL SUB SWAP2 SWAP1 SWAP2 AND SWAP1 PUSH4 0x7065CB48 SWAP1 PUSH1 0x24 ADD PUSH0 PUSH1 0x40 MLOAD DUP1 DUP4 SUB DUP2 PUSH0 DUP8 DUP1 EXTCODESIZE ISZERO DUP1 ISZERO PUSH2 0x88A JUMPI PUSH0 PUSH0 REVERT JUMPDEST POP GAS CALL ISZERO DUP1 ISZERO PUSH2 0x89C JUMPI RETURNDATASIZE PUSH0 PUSH0 RETURNDATACOPY RETURNDATASIZE PUSH0 REVERT JUMPDEST POP POP POP POP PUSH1 0x9 PUSH0 SWAP1 SLOAD SWAP1 PUSH2 0x100 EXP SWAP1 DIV PUSH1 0x1 PUSH1 0x1 PUSH1 0xA0 SHL SUB AND PUSH1 0x1 PUSH1 0x1 PUSH1 0xA0 SHL SUB AND PUSH4 0x76FADE90 PUSH1 0x40 MLOAD DUP2 PUSH4 0xFFFFFFFF AND PUSH1 0xE0 SHL DUP2 MSTORE PUSH1 0x4 ADD PUSH1 0x20 PUSH1 0x40 MLOAD DUP1 DUP4 SUB DUP2 PUSH0 DUP8 GAS CALL ISZERO DUP1 ISZERO PUSH2 0x8F1 JUMPI RETURNDATASIZE PUSH0 PUSH0 RETURNDATACOPY RETURNDATASIZE PUSH0 REVERT JUMPDEST POP POP POP POP PUSH1 0x40 MLOAD RETURNDATASIZE PUSH1 0x1F NOT PUSH1 0x1F DUP3 ADD AND DUP3 ADD DUP1 PUSH1 0x40 MSTORE POP DUP2 ADD SWAP1 PUSH2 0x915 SWAP2 SWAP1 PUSH2 0x1316 JUMP JUMPDEST PUSH1 0x1 PUSH1 0x1 PUSH1 0xA0 SHL SUB AND PUSH4 0xB5095168 PUSH1 0x40 MLOAD DUP2 PUSH4 0xFFFFFFFF AND PUSH1 0xE0 SHL DUP2 MSTORE PUSH1 0x4 ADD PUSH1 0x20 PUSH1 0x40 MLOAD DUP1 DUP4 SUB DUP2 PUSH0 DUP8 GAS CALL ISZERO DUP1 ISZERO PUSH2 0x951 JUMPI RETURNDATASIZE PUSH0 PUSH0 RETURNDATACOPY RETURNDATASIZE PUSH0 REVERT JUMPDEST POP POP POP POP PUSH1 0x40 MLOAD RETURNDATASIZE PUSH1 0x1F NOT PUSH1 0x1F DUP3 ADD AND DUP3 ADD DUP1 PUSH1 0x40 MSTORE POP DUP2 ADD SWAP1 PUSH2 0x975 SWAP2 SWAP1 PUSH2 0x1316 JUMP JUMPDEST PUSH1 0x1 PUSH1 0x1 PUSH1 0xA0 SHL SUB AND PUSH4 0x4CDE872D PUSH1 0x40 MLOAD DUP2 PUSH4 0xFFFFFFFF AND PUSH1 0xE0 SHL DUP2 MSTORE PUSH1 0x4 ADD PUSH1 0x20 PUSH1 0x40 MLOAD DUP1 DUP4 SUB DUP2 PUSH0 DUP8 GAS CALL ISZERO DUP1 ISZERO PUSH2 0x9B1 JUMPI RETURNDATASIZE PUSH0 PUSH0 RETURNDATACOPY RETURNDATASIZE PUSH0 REVERT JUMPDEST POP POP POP POP PUSH1 0x40 MLOAD RETURNDATASIZE PUSH1 0x1F NOT PUSH1 0x1F DUP3 ADD AND DUP3 ADD DUP1 PUSH1 0x40 MSTORE POP DUP2 ADD SWAP1 PUSH2 0x9D5 SWAP2 SWAP1 PUSH2 0x1316 JUMP JUMPDEST PUSH1 0x1 PUSH1 0x1 PUSH1 0xA0 SHL SUB AND PUSH4 0x140C2FB5 PUSH1 0x40 MLOAD DUP2 PUSH4 0xFFFFFFFF AND PUSH1 0xE0 SHL DUP2 MSTORE PUSH1 0x4 ADD PUSH1 0x20 PUSH1 0x40 MLOAD DUP1 DUP4 SUB DUP2 PUSH0 DUP8 GAS CALL ISZERO DUP1 ISZERO PUSH2 0xA11 JUMPI RETURNDATASIZE PUSH0 PUSH0 RETURNDATACOPY RETURNDATASIZE PUSH0 REVERT JUMPDEST POP POP POP POP PUSH1 0x40 MLOAD RETURNDATASIZE PUSH1 0x1F NOT PUSH1 0x1F DUP3 ADD AND DUP3 ADD DUP1 PUSH1 0x40 MSTORE POP DUP2 ADD SWAP1 PUSH2 0xA35 SWAP2 SWAP1 PUSH2 0x1316 JUMP JUMPDEST PUSH1 0x1 PUSH1 0x1 PUSH1 0xA0 SHL SUB AND PUSH4 0x4209B07C PUSH1 0x40 MLOAD DUP2 PUSH4 0xFFFFFFFF AND PUSH1 0xE0 SHL DUP2 MSTORE PUSH1 0x4 ADD PUSH1 0x20 PUSH1 0x40 MLOAD DUP1 DUP4 SUB DUP2 PUSH0 DUP8 GAS CALL ISZERO DUP1 ISZERO PUSH2 0xA71 JUMPI RETURNDATASIZE PUSH0 PUSH0 RETURNDATACOPY RETURNDATASIZE PUSH0 REVERT JUMPDEST POP POP POP POP PUSH1 0x40 MLOAD RETURNDATASIZE PUSH1 0x1F NOT PUSH1 0x1F DUP3 ADD AND DUP3 ADD DUP1 PUSH1 0x40 MSTORE POP DUP2 ADD SWAP1 PUSH2 0xA95 SWAP2 SWAP1 PUSH2 0x1316 JUMP JUMPDEST PUSH1 0x40 MLOAD PUSH4 0xE0CB969 PUSH1 0xE3 SHL DUP2 MSTORE ADDRESS PUSH1 0x4 DUP3 ADD MSTORE PUSH1 0x1 PUSH1 0x1 PUSH1 0xA0 SHL SUB SWAP2 SWAP1 SWAP2 AND SWAP1 PUSH4 0x7065CB48 SWAP1 PUSH1 0x24 ADD PUSH0 PUSH1 0x40 MLOAD DUP1 DUP4 SUB DUP2 PUSH0 DUP8 DUP1 EXTCODESIZE ISZERO DUP1 ISZERO PUSH2 0xAD5 JUMPI PUSH0 PUSH0 REVERT JUMPDEST POP GAS CALL ISZERO DUP1 ISZERO PUSH2 0xAE7 JUMPI RETURNDATASIZE PUSH0 PUSH0 RETURNDATACOPY RETURNDATASIZE PUSH0 REVERT JUMPDEST POP POP POP POP PUSH2 0xC88 PUSH1 0x9 PUSH0 SWAP1 SLOAD SWAP1 PUSH2 0x100 EXP SWAP1 DIV PUSH1 0x1 PUSH1 0x1 PUSH1 0xA0 SHL SUB AND PUSH1 0x1 PUSH1 0x1 PUSH1 0xA0 SHL SUB AND PUSH4 0x76FADE90 PUSH1 0x40 MLOAD DUP2 PUSH4 0xFFFFFFFF AND PUSH1 0xE0 SHL DUP2 MSTORE PUSH1 0x4 ADD PUSH1 0x20 PUSH1 0x40 MLOAD DUP1 DUP4 SUB DUP2 PUSH0 DUP8 GAS CALL ISZERO DUP1 ISZERO PUSH2 0xB3F JUMPI RETURNDATASIZE PUSH0 PUSH0 RETURNDATACOPY RETURNDATASIZE PUSH0 REVERT JUMPDEST POP POP POP POP PUSH1 0x40 MLOAD RETURNDATASIZE PUSH1 0x1F NOT PUSH1 0x1F DUP3 ADD AND DUP3 ADD DUP1 PUSH1 0x40 MSTORE POP DUP2 ADD SWAP1 PUSH2 0xB63 SWAP2 SWAP1 PUSH2 0x1316 JUMP JUMPDEST PUSH1 0x1 PUSH1 0x1 PUSH1 0xA0 SHL SUB AND PUSH4 0xB5095168 PUSH1 0x40 MLOAD DUP2 PUSH4 0xFFFFFFFF AND PUSH1 0xE0 SHL DUP2 MSTORE PUSH1 0x4 ADD PUSH1 0x20 PUSH1 0x40 MLOAD DUP1 DUP4 SUB DUP2 PUSH0 DUP8 GAS CALL ISZERO DUP1 ISZERO PUSH2 0xB9F JUMPI RETURNDATASIZE PUSH0 PUSH0 RETURNDATACOPY RETURNDATASIZE PUSH0 REVERT JUMPDEST POP POP POP POP PUSH1 0x40 MLOAD RETURNDATASIZE PUSH1 0x1F NOT PUSH1 0x1F DUP3 ADD AND DUP3 ADD DUP1 PUSH1 0x40 MSTORE POP DUP2 ADD SWAP1 PUSH2 0xBC3 SWAP2 SWAP1 PUSH2 0x1316 JUMP JUMPDEST PUSH1 0x1 PUSH1 0x1 PUSH1 0xA0 SHL SUB AND PUSH4 0x4CDE872D PUSH1 0x40 MLOAD DUP2 PUSH4 0xFFFFFFFF AND PUSH1 0xE0 SHL DUP2 MSTORE PUSH1 0x4 ADD PUSH1 0x20 PUSH1 0x40 MLOAD DUP1 DUP4 SUB DUP2 PUSH0 DUP8 GAS CALL ISZERO DUP1 ISZERO PUSH2 0xBFF JUMPI RETURNDATASIZE PUSH0 PUSH0 RETURNDATACOPY RETURNDATASIZE PUSH0 REVERT JUMPDEST POP POP POP POP PUSH1 0x40 MLOAD RETURNDATASIZE PUSH1 0x1F NOT PUSH1 0x1F DUP3 ADD AND DUP3 ADD DUP1 PUSH1 0x40 MSTORE POP DUP2 ADD SWAP1 PUSH2 0xC23 SWAP2 SWAP1 PUSH2 0x1316 JUMP JUMPDEST PUSH1 0x1 PUSH1 0x1 PUSH1 0xA0 SHL SUB AND PUSH4 0xA12204B0 PUSH1 0x40 MLOAD DUP2 PUSH4 0xFFFFFFFF AND PUSH1 0xE0 SHL DUP2 MSTORE PUSH1 0x4 ADD PUSH1 0x20 PUSH1 0x40 MLOAD DUP1 DUP4 SUB DUP2 PUSH0 DUP8 GAS CALL ISZERO DUP1 ISZERO PUSH2 0xC5F JUMPI RETURNDATASIZE PUSH0 PUSH0 RETURNDATACOPY RETURNDATASIZE PUSH0 REVERT JUMPDEST POP POP POP POP PUSH1 0x40 MLOAD RETURNDATASIZE PUSH1 0x1F NOT PUSH1 0x1F DUP3 ADD AND DUP3 ADD DUP1 PUSH1 0x40 MSTORE POP DUP2 ADD SWAP1 PUSH2 0xC83 SWAP2 SWAP1 PUSH2 0x14A5 JUMP JUMPDEST PUSH2 0xF1F JUMP JUMPDEST PUSH1 0x80 ADD MLOAD PUSH1 0x40 MLOAD PUSH4 0xE0CB969 PUSH1 0xE3 SHL DUP2 MSTORE ADDRESS PUSH1 0x4 DUP3 ADD MSTORE PUSH1 0x1 PUSH1 0x1 PUSH1 0xA0 SHL SUB SWAP1 SWAP2 AND SWAP1 PUSH4 0x7065CB48 SWAP1 PUSH1 0x24 ADD PUSH0 PUSH1 0x40 MLOAD DUP1 DUP4 SUB DUP2 PUSH0 DUP8 DUP1 EXTCODESIZE ISZERO DUP1 ISZERO PUSH2 0xCCB JUMPI PUSH0 PUSH0 REVERT JUMPDEST POP GAS CALL ISZERO DUP1 ISZERO PUSH2 0xCDD JUMPI RETURNDATASIZE PUSH0 PUSH0 RETURNDATACOPY RETURNDATASIZE PUSH0 REVERT JUMPDEST POP POP POP POP PUSH2 0xDC7 PUSH1 0x9 PUSH0 SWAP1 SLOAD SWAP1 PUSH2 0x100 EXP SWAP1 DIV PUSH1 0x1 PUSH1 0x1 PUSH1 0xA0 SHL SUB AND PUSH1 0x1 PUSH1 0x1 PUSH1 0xA0 SHL SUB AND PUSH4 0x76FADE90 PUSH1 0x40 MLOAD DUP2 PUSH4 0xFFFFFFFF AND PUSH1 0xE0 SHL DUP2 MSTORE PUSH1 0x4 ADD PUSH1 0x20 PUSH1 0x40 MLOAD DUP1 DUP4 SUB DUP2 PUSH0 DUP8 GAS CALL ISZERO DUP1 ISZERO PUSH2 0xD35 JUMPI RETURNDATASIZE PUSH0 PUSH0 RETURNDATACOPY RETURNDATASIZE PUSH0 REVERT JUMPDEST POP POP POP POP PUSH1 0x40 MLOAD RETURNDATASIZE PUSH1 0x1F NOT PUSH1 0x1F DUP3 ADD AND DUP3 ADD DUP1 PUSH1 0x40 MSTORE POP DUP2 ADD SWAP1 PUSH2 0xD59 SWAP2 SWAP1 PUSH2 0x1316 JUMP JUMPDEST PUSH1 0x1 PUSH1 0x1 PUSH1 0xA0 SHL SUB AND PUSH4 0xA4566950 PUSH1 0x40 MLOAD DUP2 PUSH4 0xFFFFFFFF AND PUSH1 0xE0 SHL DUP2 MSTORE PUSH1 0x4 ADD PUSH2 0x300 PUSH1 0x40 MLOAD DUP1 DUP4 SUB DUP2 PUSH0 DUP8 GAS CALL ISZERO DUP1 ISZERO PUSH2 0xD96 JUMPI RETURNDATASIZE PUSH0 PUSH0 RETURNDATACOPY RETURNDATASIZE PUSH0 REVERT JUMPDEST POP POP POP POP PUSH1 0x40 MLOAD RETURNDATASIZE PUSH1 0x1F NOT PUSH1 0x1F DUP3 ADD AND DUP3 ADD DUP1 PUSH1 0x40 MSTORE POP DUP2 ADD SWAP1 PUSH2 0xDBA SWAP2 SWAP1 PUSH2 0x171B JUMP JUMPDEST PUSH1 0x20 ADD MLOAD PUSH1 0x40 ADD MLOAD PUSH2 0xF1F JUMP JUMPDEST PUSH1 0x80 ADD MLOAD PUSH1 0x40 MLOAD PUSH4 0xE0CB969 PUSH1 0xE3 SHL DUP2 MSTORE ADDRESS PUSH1 0x4 DUP3 ADD MSTORE PUSH1 0x1 PUSH1 0x1 PUSH1 0xA0 SHL SUB SWAP1 SWAP2 AND SWAP1 PUSH4 0x7065CB48 SWAP1 PUSH1 0x24 ADD PUSH0 PUSH1 0x40 MLOAD DUP1 DUP4 SUB DUP2 PUSH0 DUP8 DUP1 EXTCODESIZE ISZERO DUP1 ISZERO PUSH2 0xE0A JUMPI PUSH0 PUSH0 REVERT JUMPDEST POP GAS CALL ISZERO DUP1 ISZERO PUSH2 0xE1C JUMPI RETURNDATASIZE PUSH0 PUSH0 RETURNDATACOPY RETURNDATASIZE PUSH0 REVERT JUMPDEST POP POP POP POP PUSH32 0x629FBF248B237ED272F090387C7FAD659D4B6FE471C14374FBC5343118C5ED81 PUSH1 0xB PUSH1 0x40 MLOAD PUSH2 0xE5A SWAP1 PUSH4 0x5A484F55 PUSH1 0xE0 SHL DUP2 MSTORE PUSH1 0x4 ADD SWAP1 JUMP JUMPDEST SWAP1 DUP2 MSTORE PUSH1 0x40 MLOAD SWAP1 DUP2 SWAP1 SUB PUSH1 0x20 ADD DUP2 KECCAK256 SWAP2 SWAP1 SWAP2 SSTORE PUSH4 0x59414E47 PUSH1 0xE0 SHL DUP2 MSTORE PUSH32 0xFBE7058ADB3B3008FAA615EF5538DA603517853ADEF0B41AB9BE1B6E23410ECA SWAP1 PUSH1 0xB SWAP1 PUSH1 0x4 ADD SWAP1 DUP2 MSTORE PUSH1 0x40 MLOAD SWAP1 DUP2 SWAP1 SUB PUSH1 0x20 ADD SWAP1 KECCAK256 SSTORE PUSH2 0xEB7 PUSH2 0x1161 JUMP JUMPDEST POP PUSH2 0x17BA JUMP JUMPDEST PUSH1 0x1 PUSH1 0x1 PUSH1 0xA0 SHL SUB DUP3 AND PUSH0 DUP2 DUP2 MSTORE PUSH1 0x20 DUP2 SWAP1 MSTORE PUSH1 0x40 DUP1 DUP3 KECCAK256 DUP1 SLOAD PUSH1 0xFF NOT AND DUP6 ISZERO ISZERO SWAP1 DUP2 OR SWAP1 SWAP2 SSTORE SWAP1 MLOAD SWAP1 SWAP3 SWAP2 PUSH32 0x6BFA7E860C3E9BF67B810CB88276B19B27C972812BAC04793D369B59A1183A83 SWAP2 LOG3 POP POP JUMP JUMPDEST PUSH2 0xF1B PUSH0 DUP4 DUP4 PUSH2 0x1182 JUMP JUMPDEST POP POP JUMP JUMPDEST PUSH1 0x40 DUP1 MLOAD PUSH2 0x100 DUP2 ADD DUP3 MSTORE PUSH0 DUP1 DUP3 MSTORE PUSH1 0x20 DUP1 DUP4 ADD DUP3 SWAP1 MSTORE DUP3 DUP5 ADD DUP3 SWAP1 MSTORE PUSH1 0x60 DUP4 ADD DUP3 SWAP1 MSTORE PUSH1 0x80 DUP4 ADD DUP3 SWAP1 MSTORE PUSH1 0xA0 DUP4 ADD DUP3 SWAP1 MSTORE PUSH1 0xC0 DUP4 ADD DUP3 SWAP1 MSTORE PUSH1 0xE0 DUP4 ADD DUP3 SWAP1 MSTORE PUSH1 0x9 SLOAD DUP5 MLOAD PUSH4 0x76FADE9 PUSH1 0xE4 SHL DUP2 MSTORE SWAP5 MLOAD SWAP4 SWAP5 PUSH1 0x1 PUSH1 0x1 PUSH1 0xA0 SHL SUB SWAP1 SWAP2 AND SWAP4 PUSH4 0x76FADE90 SWAP4 PUSH1 0x4 DUP1 DUP5 ADD SWAP5 SWAP4 DUP4 SWAP1 SUB ADD SWAP1 DUP3 SWAP1 DUP8 GAS CALL ISZERO DUP1 ISZERO PUSH2 0xFA4 JUMPI RETURNDATASIZE PUSH0 PUSH0 RETURNDATACOPY RETURNDATASIZE PUSH0 REVERT JUMPDEST POP POP POP POP PUSH1 0x40 MLOAD RETURNDATASIZE PUSH1 0x1F NOT PUSH1 0x1F DUP3 ADD AND DUP3 ADD DUP1 PUSH1 0x40 MSTORE POP DUP2 ADD SWAP1 PUSH2 0xFC8 SWAP2 SWAP1 PUSH2 0x1316 JUMP JUMPDEST PUSH1 0x1 PUSH1 0x1 PUSH1 0xA0 SHL SUB AND PUSH4 0xB5095168 PUSH1 0x40 MLOAD DUP2 PUSH4 0xFFFFFFFF AND PUSH1 0xE0 SHL DUP2 MSTORE PUSH1 0x4 ADD PUSH1 0x20 PUSH1 0x40 MLOAD DUP1 DUP4 SUB DUP2 PUSH0 DUP8 GAS CALL ISZERO DUP1 ISZERO PUSH2 0x1004 JUMPI RETURNDATASIZE PUSH0 PUSH0 RETURNDATACOPY RETURNDATASIZE PUSH0 REVERT JUMPDEST POP POP POP POP PUSH1 0x40 MLOAD RETURNDATASIZE PUSH1 0x1F NOT PUSH1 0x1F DUP3 ADD AND DUP3 ADD DUP1 PUSH1 0x40 MSTORE POP DUP2 ADD SWAP1 PUSH2 0x1028 SWAP2 SWAP1 PUSH2 0x1316 JUMP JUMPDEST PUSH1 0x1 PUSH1 0x1 PUSH1 0xA0 SHL SUB AND PUSH4 0x4CDE872D PUSH1 0x40 MLOAD DUP2 PUSH4 0xFFFFFFFF AND PUSH1 0xE0 SHL DUP2 MSTORE PUSH1 0x4 ADD PUSH1 0x20 PUSH1 0x40 MLOAD DUP1 DUP4 SUB DUP2 PUSH0 DUP8 GAS CALL ISZERO DUP1 ISZERO PUSH2 0x1064 JUMPI RETURNDATASIZE PUSH0 PUSH0 RETURNDATACOPY RETURNDATASIZE PUSH0 REVERT JUMPDEST POP POP POP POP PUSH1 0x40 MLOAD RETURNDATASIZE PUSH1 0x1F NOT PUSH1 0x1F DUP3 ADD AND DUP3 ADD DUP1 PUSH1 0x40 MSTORE POP DUP2 ADD SWAP1 PUSH2 0x1088 SWAP2 SWAP1 PUSH2 0x1316 JUMP JUMPDEST PUSH1 0x1 PUSH1 0x1 PUSH1 0xA0 SHL SUB AND PUSH4 0x140C2FB5 PUSH1 0x40 MLOAD DUP2 PUSH4 0xFFFFFFFF AND PUSH1 0xE0 SHL DUP2 MSTORE PUSH1 0x4 ADD PUSH1 0x20 PUSH1 0x40 MLOAD DUP1 DUP4 SUB DUP2 PUSH0 DUP8 GAS CALL ISZERO DUP1 ISZERO PUSH2 0x10C4 JUMPI RETURNDATASIZE PUSH0 PUSH0 RETURNDATACOPY RETURNDATASIZE PUSH0 REVERT JUMPDEST POP POP POP POP PUSH1 0x40 MLOAD RETURNDATASIZE PUSH1 0x1F NOT PUSH1 0x1F DUP3 ADD AND DUP3 ADD DUP1 PUSH1 0x40 MSTORE POP DUP2 ADD SWAP1 PUSH2 0x10E8 SWAP2 SWAP1 PUSH2 0x1316 JUMP JUMPDEST PUSH1 0x40 MLOAD PUSH4 0x2213C7D PUSH1 0xE1 SHL DUP2 MSTORE PUSH1 0x1 PUSH1 0x1 PUSH1 0x40 SHL SUB DUP5 AND PUSH1 0x4 DUP3 ADD MSTORE PUSH1 0x1 PUSH1 0x1 PUSH1 0xA0 SHL SUB SWAP2 SWAP1 SWAP2 AND SWAP1 PUSH4 0x44278FA SWAP1 PUSH1 0x24 ADD PUSH2 0x100 PUSH1 0x40 MLOAD DUP1 DUP4 SUB DUP2 PUSH0 DUP8 GAS CALL ISZERO DUP1 ISZERO PUSH2 0x1137 JUMPI RETURNDATASIZE PUSH0 PUSH0 RETURNDATACOPY RETURNDATASIZE PUSH0 REVERT JUMPDEST POP POP POP POP PUSH1 0x40 MLOAD RETURNDATASIZE PUSH1 0x1F NOT PUSH1 0x1F DUP3 ADD AND DUP3 ADD DUP1 PUSH1 0x40 MSTORE POP DUP2 ADD SWAP1 PUSH2 0x115B SWAP2 SWAP1 PUSH2 0x178C JUMP JUMPDEST SWAP3 SWAP2 POP POP JUMP JUMPDEST PUSH1 0x9 SLOAD PUSH2 0x1178 SWAP1 PUSH1 0x1 PUSH1 0x1 PUSH1 0xA0 SHL SUB AND PUSH1 0x12 PUSH2 0x296 JUMP JUMPDEST PUSH2 0x1180 PUSH2 0x12C2 JUMP JUMPDEST JUMP JUMPDEST PUSH1 0x1 PUSH1 0x1 PUSH1 0xA0 SHL SUB DUP4 AND PUSH2 0x11AC JUMPI DUP1 PUSH1 0x3 PUSH0 DUP3 DUP3 SLOAD PUSH2 0x11A1 SWAP2 SWAP1 PUSH2 0x17A7 JUMP JUMPDEST SWAP1 SWAP2 SSTORE POP PUSH2 0x1236 SWAP1 POP JUMP JUMPDEST PUSH1 0x1 PUSH1 0x1 PUSH1 0xA0 SHL SUB DUP4 AND PUSH0 SWAP1 DUP2 MSTORE PUSH1 0x1 PUSH1 0x20 MSTORE PUSH1 0x40 SWAP1 KECCAK256 SLOAD DUP2 DUP2 LT ISZERO PUSH2 0x1218 JUMPI PUSH1 0x40 MLOAD PUSH4 0xF7D0BBD PUSH1 0xE2 SHL DUP2 MSTORE ORIGIN PUSH1 0x4 DUP3 ADD MSTORE CALLER PUSH1 0x24 DUP3 ADD MSTORE PUSH1 0x1 PUSH1 0x1 PUSH1 0xA0 SHL SUB DUP1 DUP7 AND PUSH1 0x44 DUP4 ADD MSTORE DUP5 AND PUSH1 0x64 DUP3 ADD MSTORE ADDRESS PUSH1 0x84 DUP3 ADD MSTORE PUSH1 0xA4 DUP2 ADD DUP3 SWAP1 MSTORE PUSH1 0xC4 DUP2 ADD DUP4 SWAP1 MSTORE PUSH1 0xE4 ADD PUSH2 0xF9 JUMP JUMPDEST PUSH1 0x1 PUSH1 0x1 PUSH1 0xA0 SHL SUB DUP5 AND PUSH0 SWAP1 DUP2 MSTORE PUSH1 0x1 PUSH1 0x20 MSTORE PUSH1 0x40 SWAP1 KECCAK256 SWAP1 DUP3 SWAP1 SUB SWAP1 SSTORE JUMPDEST PUSH1 0x1 PUSH1 0x1 PUSH1 0xA0 SHL SUB DUP3 AND PUSH2 0x1252 JUMPI PUSH1 0x3 DUP1 SLOAD DUP3 SWAP1 SUB SWAP1 SSTORE PUSH2 0x1270 JUMP JUMPDEST PUSH1 0x1 PUSH1 0x1 PUSH1 0xA0 SHL SUB DUP3 AND PUSH0 SWAP1 DUP2 MSTORE PUSH1 0x1 PUSH1 0x20 MSTORE PUSH1 0x40 SWAP1 KECCAK256 DUP1 SLOAD DUP3 ADD SWAP1 SSTORE JUMPDEST DUP2 PUSH1 0x1 PUSH1 0x1 PUSH1 0xA0 SHL SUB AND DUP4 PUSH1 0x1 PUSH1 0x1 PUSH1 0xA0 SHL SUB AND PUSH32 0xDDF252AD1BE2C89B69C2B068FC378DAA952BA7F163C4A11628F55A4DF523B3EF DUP4 PUSH1 0x40 MLOAD PUSH2 0x12B5 SWAP2 DUP2 MSTORE PUSH1 0x20 ADD SWAP1 JUMP JUMPDEST PUSH1 0x40 MLOAD DUP1 SWAP2 SUB SWAP1 LOG3 POP POP POP JUMP JUMPDEST PUSH2 0x12CE PUSH1 0x12 PUSH1 0xA PUSH2 0x161D JUMP JUMPDEST PUSH1 0x7 SLOAD PUSH2 0x12DB SWAP2 SWAP1 PUSH2 0x162B JUMP JUMPDEST PUSH1 0x3 SLOAD LT ISZERO PUSH2 0x1180 JUMPI PUSH2 0x1180 ADDRESS PUSH2 0x12F4 PUSH1 0x12 PUSH1 0xA PUSH2 0x161D JUMP JUMPDEST PUSH2 0x276 SWAP1 PUSH1 0x1 PUSH2 0x162B JUMP JUMPDEST PUSH1 0x1 PUSH1 0x1 PUSH1 0xA0 SHL SUB DUP2 AND DUP2 EQ PUSH2 0x1313 JUMPI PUSH0 PUSH0 REVERT JUMPDEST POP JUMP JUMPDEST PUSH0 PUSH1 0x20 DUP3 DUP5 SUB SLT ISZERO PUSH2 0x1326 JUMPI PUSH0 PUSH0 REVERT JUMPDEST DUP2 MLOAD PUSH2 0x1331 DUP2 PUSH2 0x12FF JUMP JUMPDEST SWAP4 SWAP3 POP POP POP JUMP JUMPDEST PUSH4 0x4E487B71 PUSH1 0xE0 SHL PUSH0 MSTORE PUSH1 0x41 PUSH1 0x4 MSTORE PUSH1 0x24 PUSH0 REVERT JUMPDEST PUSH1 0x1 DUP2 DUP2 SHR SWAP1 DUP3 AND DUP1 PUSH2 0x1360 JUMPI PUSH1 0x7F DUP3 AND SWAP2 POP JUMPDEST PUSH1 0x20 DUP3 LT DUP2 SUB PUSH2 0x137E JUMPI PUSH4 0x4E487B71 PUSH1 0xE0 SHL PUSH0 MSTORE PUSH1 0x22 PUSH1 0x4 MSTORE PUSH1 0x24 PUSH0 REVERT JUMPDEST POP SWAP2 SWAP1 POP JUMP JUMPDEST PUSH1 0x1F DUP3 GT ISZERO PUSH2 0x13CB JUMPI DUP1 PUSH0 MSTORE PUSH1 0x20 PUSH0 KECCAK256 PUSH1 0x1F DUP5 ADD PUSH1 0x5 SHR DUP2 ADD PUSH1 0x20 DUP6 LT ISZERO PUSH2 0x13A9 JUMPI POP DUP1 JUMPDEST PUSH1 0x1F DUP5 ADD PUSH1 0x5 SHR DUP3 ADD SWAP2 POP JUMPDEST DUP2 DUP2 LT ISZERO PUSH2 0x13C8 JUMPI PUSH0 DUP2 SSTORE PUSH1 0x1 ADD PUSH2 0x13B5 JUMP JUMPDEST POP POP JUMPDEST POP POP POP JUMP JUMPDEST DUP2 MLOAD PUSH1 0x1 PUSH1 0x1 PUSH1 0x40 SHL SUB DUP2 GT ISZERO PUSH2 0x13E9 JUMPI PUSH2 0x13E9 PUSH2 0x1338 JUMP JUMPDEST PUSH2 0x13FD DUP2 PUSH2 0x13F7 DUP5 SLOAD PUSH2 0x134C JUMP JUMPDEST DUP5 PUSH2 0x1384 JUMP JUMPDEST PUSH1 0x20 PUSH1 0x1F DUP3 GT PUSH1 0x1 DUP2 EQ PUSH2 0x142F JUMPI PUSH0 DUP4 ISZERO PUSH2 0x1418 JUMPI POP DUP5 DUP3 ADD MLOAD JUMPDEST PUSH0 NOT PUSH1 0x3 DUP6 SWAP1 SHL SHR NOT AND PUSH1 0x1 DUP5 SWAP1 SHL OR DUP5 SSTORE PUSH2 0x13C8 JUMP JUMPDEST PUSH0 DUP5 DUP2 MSTORE PUSH1 0x20 DUP2 KECCAK256 PUSH1 0x1F NOT DUP6 AND SWAP2 JUMPDEST DUP3 DUP2 LT ISZERO PUSH2 0x145E JUMPI DUP8 DUP6 ADD MLOAD DUP3 SSTORE PUSH1 0x20 SWAP5 DUP6 ADD SWAP5 PUSH1 0x1 SWAP1 SWAP3 ADD SWAP2 ADD PUSH2 0x143E JUMP JUMPDEST POP DUP5 DUP3 LT ISZERO PUSH2 0x147B JUMPI DUP7 DUP5 ADD MLOAD PUSH0 NOT PUSH1 0x3 DUP8 SWAP1 SHL PUSH1 0xF8 AND SHR NOT AND DUP2 SSTORE JUMPDEST POP POP POP POP PUSH1 0x1 SWAP1 DUP2 SHL ADD SWAP1 SSTORE POP JUMP JUMPDEST DUP1 MLOAD PUSH1 0x1 PUSH1 0x1 PUSH1 0x40 SHL SUB DUP2 AND DUP2 EQ PUSH2 0x14A0 JUMPI PUSH0 PUSH0 REVERT JUMPDEST SWAP2 SWAP1 POP JUMP JUMPDEST PUSH0 PUSH1 0x20 DUP3 DUP5 SUB SLT ISZERO PUSH2 0x14B5 JUMPI PUSH0 PUSH0 REVERT JUMPDEST PUSH2 0x1331 DUP3 PUSH2 0x148A JUMP JUMPDEST PUSH4 0x4E487B71 PUSH1 0xE0 SHL PUSH0 MSTORE PUSH1 0x12 PUSH1 0x4 MSTORE PUSH1 0x24 PUSH0 REVERT JUMPDEST PUSH0 PUSH1 0x1 PUSH1 0x1 PUSH1 0x40 SHL SUB DUP4 AND DUP1 PUSH2 0x14EA JUMPI PUSH2 0x14EA PUSH2 0x14BE JUMP JUMPDEST PUSH1 0x1 PUSH1 0x1 PUSH1 0x40 SHL SUB SWAP3 SWAP1 SWAP3 AND SWAP2 SWAP1 SWAP2 MOD SWAP3 SWAP2 POP POP JUMP JUMPDEST PUSH0 DUP3 PUSH2 0x150E JUMPI PUSH2 0x150E PUSH2 0x14BE JUMP JUMPDEST POP MOD SWAP1 JUMP JUMPDEST PUSH4 0x4E487B71 PUSH1 0xE0 SHL PUSH0 MSTORE PUSH1 0x11 PUSH1 0x4 MSTORE PUSH1 0x24 PUSH0 REVERT JUMPDEST PUSH0 DUP3 PUSH2 0x1535 JUMPI PUSH2 0x1535 PUSH2 0x14BE JUMP JUMPDEST POP DIV SWAP1 JUMP JUMPDEST PUSH1 0x1 DUP2 JUMPDEST PUSH1 0x1 DUP5 GT ISZERO PUSH2 0x1575 JUMPI DUP1 DUP6 DIV DUP2 GT ISZERO PUSH2 0x1559 JUMPI PUSH2 0x1559 PUSH2 0x1513 JUMP JUMPDEST PUSH1 0x1 DUP5 AND ISZERO PUSH2 0x1567 JUMPI SWAP1 DUP2 MUL SWAP1 JUMPDEST PUSH1 0x1 SWAP4 SWAP1 SWAP4 SHR SWAP3 DUP1 MUL PUSH2 0x153E JUMP JUMPDEST SWAP4 POP SWAP4 SWAP2 POP POP JUMP JUMPDEST PUSH0 DUP3 PUSH2 0x158B JUMPI POP PUSH1 0x1 PUSH2 0x115B JUMP JUMPDEST DUP2 PUSH2 0x1597 JUMPI POP PUSH0 PUSH2 0x115B JUMP JUMPDEST DUP2 PUSH1 0x1 DUP2 EQ PUSH2 0x15AD JUMPI PUSH1 0x2 DUP2 EQ PUSH2 0x15B7 JUMPI PUSH2 0x15D3 JUMP JUMPDEST PUSH1 0x1 SWAP2 POP POP PUSH2 0x115B JUMP JUMPDEST PUSH1 0xFF DUP5 GT ISZERO PUSH2 0x15C8 JUMPI PUSH2 0x15C8 PUSH2 0x1513 JUMP JUMPDEST POP POP PUSH1 0x1 DUP3 SHL PUSH2 0x115B JUMP JUMPDEST POP PUSH1 0x20 DUP4 LT PUSH2 0x133 DUP4 LT AND PUSH1 0x4E DUP5 LT PUSH1 0xB DUP5 LT AND OR ISZERO PUSH2 0x15F6 JUMPI POP DUP2 DUP2 EXP PUSH2 0x115B JUMP JUMPDEST PUSH2 0x1602 PUSH0 NOT DUP5 DUP5 PUSH2 0x153A JUMP JUMPDEST DUP1 PUSH0 NOT DIV DUP3 GT ISZERO PUSH2 0x1615 JUMPI PUSH2 0x1615 PUSH2 0x1513 JUMP JUMPDEST MUL SWAP4 SWAP3 POP POP POP JUMP JUMPDEST PUSH0 PUSH2 0x1331 PUSH1 0xFF DUP5 AND DUP4 PUSH2 0x157D JUMP JUMPDEST DUP1 DUP3 MUL DUP2 ISZERO DUP3 DUP3 DIV DUP5 EQ OR PUSH2 0x115B JUMPI PUSH2 0x115B PUSH2 0x1513 JUMP JUMPDEST PUSH1 0x40 MLOAD PUSH2 0x100 DUP2 ADD PUSH1 0x1 PUSH1 0x1 PUSH1 0x40 SHL SUB DUP2 GT DUP3 DUP3 LT OR ISZERO PUSH2 0x1665 JUMPI PUSH2 0x1665 PUSH2 0x1338 JUMP JUMPDEST PUSH1 0x40 MSTORE SWAP1 JUMP JUMPDEST DUP1 MLOAD PUSH2 0x14A0 DUP2 PUSH2 0x12FF JUMP JUMPDEST PUSH0 PUSH2 0x100 DUP3 DUP5 SUB SLT ISZERO PUSH2 0x1687 JUMPI PUSH0 PUSH0 REVERT JUMPDEST PUSH2 0x168F PUSH2 0x1642 JUMP JUMPDEST SWAP1 POP DUP2 MLOAD PUSH2 0x169C DUP2 PUSH2 0x12FF JUMP JUMPDEST DUP2 MSTORE PUSH2 0x16AA PUSH1 0x20 DUP4 ADD PUSH2 0x166B JUMP JUMPDEST PUSH1 0x20 DUP3 ADD MSTORE PUSH2 0x16BB PUSH1 0x40 DUP4 ADD PUSH2 0x148A JUMP JUMPDEST PUSH1 0x40 DUP3 ADD MSTORE PUSH2 0x16CC PUSH1 0x60 DUP4 ADD PUSH2 0x148A JUMP JUMPDEST PUSH1 0x60 DUP3 ADD MSTORE PUSH2 0x16DD PUSH1 0x80 DUP4 ADD PUSH2 0x166B JUMP JUMPDEST PUSH1 0x80 DUP3 ADD MSTORE PUSH2 0x16EE PUSH1 0xA0 DUP4 ADD PUSH2 0x148A JUMP JUMPDEST PUSH1 0xA0 DUP3 ADD MSTORE PUSH2 0x16FF PUSH1 0xC0 DUP4 ADD PUSH2 0x148A JUMP JUMPDEST PUSH1 0xC0 DUP3 ADD MSTORE PUSH2 0x1710 PUSH1 0xE0 DUP4 ADD PUSH2 0x148A JUMP JUMPDEST PUSH1 0xE0 DUP3 ADD MSTORE SWAP3 SWAP2 POP POP JUMP JUMPDEST PUSH0 PUSH2 0x300 DUP3 DUP5 SUB SLT DUP1 ISZERO PUSH2 0x172D JUMPI PUSH0 PUSH0 REVERT JUMPDEST POP PUSH1 0x40 MLOAD PUSH1 0x60 DUP2 ADD PUSH1 0x1 PUSH1 0x1 PUSH1 0x40 SHL SUB DUP2 GT DUP3 DUP3 LT OR ISZERO PUSH2 0x1750 JUMPI PUSH2 0x1750 PUSH2 0x1338 JUMP JUMPDEST PUSH1 0x40 MSTORE PUSH2 0x175D DUP5 DUP5 PUSH2 0x1676 JUMP JUMPDEST DUP2 MSTORE PUSH2 0x176D DUP5 PUSH2 0x100 DUP6 ADD PUSH2 0x1676 JUMP JUMPDEST PUSH1 0x20 DUP3 ADD MSTORE PUSH2 0x1780 DUP5 PUSH2 0x200 DUP6 ADD PUSH2 0x1676 JUMP JUMPDEST PUSH1 0x40 DUP3 ADD MSTORE SWAP4 SWAP3 POP POP POP JUMP JUMPDEST PUSH0 PUSH2 0x100 DUP3 DUP5 SUB SLT ISZERO PUSH2 0x179D JUMPI PUSH0 PUSH0 REVERT JUMPDEST PUSH2 0x1331 DUP4 DUP4 PUSH2 0x1676 JUMP JUMPDEST DUP1 DUP3 ADD DUP1 DUP3 GT ISZERO PUSH2 0x115B JUMPI PUSH2 0x115B PUSH2 0x1513 JUMP JUMPDEST PUSH2 0x2C86 DUP1 PUSH2 0x17C7 PUSH0 CODECOPY PUSH0 RETURN INVALID PUSH1 0x80 PUSH1 0x40 MSTORE CALLVALUE DUP1 ISZERO PUSH2 0xF JUMPI PUSH0 PUSH0 REVERT JUMPDEST POP PUSH1 0x4 CALLDATASIZE LT PUSH2 0x1F0 JUMPI PUSH0 CALLDATALOAD PUSH1 0xE0 SHR DUP1 PUSH4 0x70A08231 GT PUSH2 0x11B JUMPI DUP1 PUSH4 0xD3DC2A0F GT PUSH2 0xB4 JUMPI DUP1 PUSH4 0xE774B3A4 GT PUSH2 0x79 JUMPI DUP1 PUSH4 0xE774B3A4 EQ PUSH2 0x497 JUMPI DUP1 PUSH4 0xE7C4B151 EQ PUSH2 0x4AA JUMPI DUP1 PUSH4 0xED70E46C EQ PUSH2 0x4BD JUMPI DUP1 PUSH4 0xF4E6C93F EQ PUSH2 0x4D0 JUMPI DUP1 PUSH4 0xFF762044 EQ PUSH2 0x4D8 JUMPI PUSH0 PUSH0 REVERT JUMPDEST DUP1 PUSH4 0xD3DC2A0F EQ PUSH2 0x42F JUMPI DUP1 PUSH4 0xD5ABEB01 EQ PUSH2 0x455 JUMPI DUP1 PUSH4 0xD9270A5A EQ PUSH2 0x45E JUMPI DUP1 PUSH4 0xDD62ED3E EQ PUSH2 0x471 JUMPI DUP1 PUSH4 0xDF5CB7B4 EQ PUSH2 0x484 JUMPI PUSH0 PUSH0 REVERT JUMPDEST DUP1 PUSH4 0x70A08231 EQ PUSH2 0x387 JUMPI DUP1 PUSH4 0x8DA5CB5B EQ PUSH2 0x3AF JUMPI DUP1 PUSH4 0x95D89B41 EQ PUSH2 0x3B5 JUMPI DUP1 PUSH4 0x9DCBF7EA EQ PUSH2 0x3BD JUMPI DUP1 PUSH4 0x9FF43001 EQ PUSH2 0x3D0 JUMPI DUP1 PUSH4 0xA9059CBB EQ PUSH2 0x3E3 JUMPI DUP1 PUSH4 0xB502E567 EQ PUSH2 0x3F6 JUMPI DUP1 PUSH4 0xC34686E5 EQ PUSH2 0x409 JUMPI DUP1 PUSH4 0xCF34EF53 EQ PUSH2 0x41C JUMPI PUSH0 PUSH0 REVERT JUMPDEST DUP1 PUSH4 0x2499A533 GT PUSH2 0x18D JUMPI DUP1 PUSH4 0x2499A533 EQ PUSH2 0x2BE JUMPI DUP1 PUSH4 0x2B83B1FC EQ PUSH2 0x2D1 JUMPI DUP1 PUSH4 0x313CE567 EQ PUSH2 0x2F9 JUMPI DUP1 PUSH4 0x38BF3CFA EQ PUSH2 0x308 JUMPI DUP1 PUSH4 0x393A35A5 EQ PUSH2 0x31B JUMPI DUP1 PUSH4 0x666E1B39 EQ PUSH2 0x32E JUMPI DUP1 PUSH4 0x68F9C787 EQ PUSH2 0x341 JUMPI DUP1 PUSH4 0x6FB7329C EQ PUSH2 0x354 JUMPI DUP1 PUSH4 0x7065CB48 EQ PUSH2 0x374 JUMPI PUSH0 PUSH0 REVERT JUMPDEST DUP1 PUSH3 0xB660EF EQ PUSH2 0x1F4 JUMPI DUP1 PUSH4 0x6FDDE03 EQ PUSH2 0x209 JUMPI DUP1 PUSH4 0x738F4DA EQ PUSH2 0x227 JUMPI DUP1 PUSH4 0x95EA7B3 EQ PUSH2 0x23A JUMPI DUP1 PUSH4 0x1097E579 EQ PUSH2 0x25D JUMPI DUP1 PUSH4 0x18160DDD EQ PUSH2 0x273 JUMPI DUP1 PUSH4 0x21516FC4 EQ PUSH2 0x285 JUMPI DUP1 PUSH4 0x222838DB EQ PUSH2 0x298 JUMPI DUP1 PUSH4 0x23B872DD EQ PUSH2 0x2AB JUMPI JUMPDEST PUSH0 PUSH0 REVERT JUMPDEST PUSH2 0x207 PUSH2 0x202 CALLDATASIZE PUSH1 0x4 PUSH2 0x20BF JUMP JUMPDEST PUSH2 0x4FB JUMP JUMPDEST STOP JUMPDEST PUSH2 0x211 PUSH2 0x5DD JUMP JUMPDEST PUSH1 0x40 MLOAD PUSH2 0x21E SWAP2 SWAP1 PUSH2 0x2139 JUMP JUMPDEST PUSH1 0x40 MLOAD DUP1 SWAP2 SUB SWAP1 RETURN JUMPDEST PUSH2 0x207 PUSH2 0x235 CALLDATASIZE PUSH1 0x4 PUSH2 0x20BF JUMP JUMPDEST PUSH2 0x66D JUMP JUMPDEST PUSH2 0x24D PUSH2 0x248 CALLDATASIZE PUSH1 0x4 PUSH2 0x214B JUMP JUMPDEST PUSH2 0x77F JUMP JUMPDEST PUSH1 0x40 MLOAD SWAP1 ISZERO ISZERO DUP2 MSTORE PUSH1 0x20 ADD PUSH2 0x21E JUMP JUMPDEST PUSH2 0x265 PUSH2 0x798 JUMP JUMPDEST PUSH1 0x40 MLOAD PUSH2 0x21E SWAP3 SWAP2 SWAP1 PUSH2 0x222B JUMP JUMPDEST PUSH1 0x3 SLOAD JUMPDEST PUSH1 0x40 MLOAD SWAP1 DUP2 MSTORE PUSH1 0x20 ADD PUSH2 0x21E JUMP JUMPDEST PUSH2 0x207 PUSH2 0x293 CALLDATASIZE PUSH1 0x4 PUSH2 0x226C JUMP JUMPDEST PUSH2 0xA19 JUMP JUMPDEST PUSH2 0x207 PUSH2 0x2A6 CALLDATASIZE PUSH1 0x4 PUSH2 0x214B JUMP JUMPDEST PUSH2 0xAF2 JUMP JUMPDEST PUSH2 0x24D PUSH2 0x2B9 CALLDATASIZE PUSH1 0x4 PUSH2 0x22A5 JUMP JUMPDEST PUSH2 0xCEB JUMP JUMPDEST PUSH2 0x207 PUSH2 0x2CC CALLDATASIZE PUSH1 0x4 PUSH2 0x214B JUMP JUMPDEST PUSH2 0xD10 JUMP JUMPDEST PUSH2 0x277 PUSH2 0x2DF CALLDATASIZE PUSH1 0x4 PUSH2 0x22E3 JUMP JUMPDEST PUSH1 0x1 PUSH1 0x1 PUSH1 0xA0 SHL SUB AND PUSH0 SWAP1 DUP2 MSTORE PUSH1 0x8 PUSH1 0x20 MSTORE PUSH1 0x40 SWAP1 KECCAK256 SLOAD SWAP1 JUMP JUMPDEST PUSH1 0x40 MLOAD PUSH1 0x12 DUP2 MSTORE PUSH1 0x20 ADD PUSH2 0x21E JUMP JUMPDEST PUSH2 0x207 PUSH2 0x316 CALLDATASIZE PUSH1 0x4 PUSH2 0x22E3 JUMP JUMPDEST PUSH2 0xEC3 JUMP JUMPDEST PUSH2 0x211 PUSH2 0x329 CALLDATASIZE PUSH1 0x4 PUSH2 0x23D2 JUMP JUMPDEST PUSH2 0xED8 JUMP JUMPDEST PUSH2 0x24D PUSH2 0x33C CALLDATASIZE PUSH1 0x4 PUSH2 0x22E3 JUMP JUMPDEST PUSH2 0xF80 JUMP JUMPDEST PUSH2 0x265 PUSH2 0x34F CALLDATASIZE PUSH1 0x4 PUSH2 0x23ED JUMP JUMPDEST PUSH2 0xF9D JUMP JUMPDEST PUSH1 0x6 SLOAD PUSH2 0x367 SWAP1 PUSH1 0x1 PUSH1 0x1 PUSH1 0xA0 SHL SUB AND DUP2 JUMP JUMPDEST PUSH1 0x40 MLOAD PUSH2 0x21E SWAP2 SWAP1 PUSH2 0x243A JUMP JUMPDEST PUSH2 0x207 PUSH2 0x382 CALLDATASIZE PUSH1 0x4 PUSH2 0x22E3 JUMP JUMPDEST PUSH2 0x11A0 JUMP JUMPDEST PUSH2 0x277 PUSH2 0x395 CALLDATASIZE PUSH1 0x4 PUSH2 0x22E3 JUMP JUMPDEST PUSH1 0x1 PUSH1 0x1 PUSH1 0xA0 SHL SUB AND PUSH0 SWAP1 DUP2 MSTORE PUSH1 0x1 PUSH1 0x20 MSTORE PUSH1 0x40 SWAP1 KECCAK256 SLOAD SWAP1 JUMP JUMPDEST ADDRESS PUSH2 0x367 JUMP JUMPDEST PUSH2 0x211 PUSH2 0x11E0 JUMP JUMPDEST PUSH2 0x207 PUSH2 0x3CB CALLDATASIZE PUSH1 0x4 PUSH2 0x23ED JUMP JUMPDEST PUSH2 0x11EF JUMP JUMPDEST PUSH1 0x9 SLOAD PUSH2 0x367 SWAP1 PUSH1 0x1 PUSH1 0x1 PUSH1 0xA0 SHL SUB AND DUP2 JUMP JUMPDEST PUSH2 0x24D PUSH2 0x3F1 CALLDATASIZE PUSH1 0x4 PUSH2 0x214B JUMP JUMPDEST PUSH2 0x1210 JUMP JUMPDEST PUSH2 0x211 PUSH2 0x404 CALLDATASIZE PUSH1 0x4 PUSH2 0x226C JUMP JUMPDEST PUSH2 0x121D JUMP JUMPDEST PUSH2 0x207 PUSH2 0x417 CALLDATASIZE PUSH1 0x4 PUSH2 0x244E JUMP JUMPDEST PUSH2 0x1284 JUMP JUMPDEST PUSH2 0x207 PUSH2 0x42A CALLDATASIZE PUSH1 0x4 PUSH2 0x226C JUMP JUMPDEST PUSH2 0x1324 JUMP JUMPDEST PUSH2 0x43D PUSH7 0x3632C8EB5AF3B DUP2 JUMP JUMPDEST PUSH1 0x40 MLOAD PUSH1 0x1 PUSH1 0x1 PUSH1 0x40 SHL SUB SWAP1 SWAP2 AND DUP2 MSTORE PUSH1 0x20 ADD PUSH2 0x21E JUMP JUMPDEST PUSH2 0x277 PUSH1 0x7 SLOAD DUP2 JUMP JUMPDEST PUSH2 0x367 PUSH2 0x46C CALLDATASIZE PUSH1 0x4 PUSH2 0x226C JUMP JUMPDEST PUSH2 0x13EB JUMP JUMPDEST PUSH2 0x277 PUSH2 0x47F CALLDATASIZE PUSH1 0x4 PUSH2 0x2485 JUMP JUMPDEST PUSH2 0x141B JUMP JUMPDEST PUSH2 0x207 PUSH2 0x492 CALLDATASIZE PUSH1 0x4 PUSH2 0x23ED JUMP JUMPDEST PUSH2 0x1445 JUMP JUMPDEST PUSH2 0x207 PUSH2 0x4A5 CALLDATASIZE PUSH1 0x4 PUSH2 0x24BC JUMP JUMPDEST PUSH2 0x14E5 JUMP JUMPDEST PUSH2 0x207 PUSH2 0x4B8 CALLDATASIZE PUSH1 0x4 PUSH2 0x24FF JUMP JUMPDEST PUSH2 0x1535 JUMP JUMPDEST PUSH2 0x211 PUSH2 0x4CB CALLDATASIZE PUSH1 0x4 PUSH2 0x22E3 JUMP JUMPDEST PUSH2 0x15EC JUMP JUMPDEST PUSH2 0x207 PUSH2 0x1655 JUMP JUMPDEST PUSH2 0x211 PUSH1 0x40 MLOAD DUP1 PUSH1 0x40 ADD PUSH1 0x40 MSTORE DUP1 PUSH1 0x4 DUP2 MSTORE PUSH1 0x20 ADD PUSH4 0x1593D251 PUSH1 0xE2 SHL DUP2 MSTORE POP DUP2 JUMP JUMPDEST CALLER PUSH0 SWAP1 DUP2 MSTORE PUSH1 0xA PUSH1 0x20 MSTORE PUSH1 0x40 DUP2 KECCAK256 SLOAD PUSH1 0x1 PUSH1 0x1 PUSH1 0x40 SHL SUB AND SWAP1 SUB PUSH2 0x53D JUMPI CALLER PUSH1 0x40 MLOAD PUSH4 0x6C4D110B PUSH1 0xE0 SHL DUP2 MSTORE PUSH1 0x4 ADD PUSH2 0x534 SWAP2 SWAP1 PUSH2 0x243A JUMP JUMPDEST PUSH1 0x40 MLOAD DUP1 SWAP2 SUB SWAP1 REVERT JUMPDEST PUSH1 0xC PUSH1 0x40 MLOAD PUSH2 0x54B SWAP1 PUSH2 0x251B JUMP JUMPDEST SWAP1 DUP2 MSTORE PUSH1 0x40 DUP1 MLOAD SWAP2 DUP3 SWAP1 SUB PUSH1 0x20 SWAP1 DUP2 ADD DUP4 KECCAK256 SLOAD CALLER PUSH0 SWAP1 DUP2 MSTORE PUSH1 0xA SWAP1 SWAP3 MSTORE SWAP2 SWAP1 KECCAK256 SLOAD PUSH4 0xD25F5A5D PUSH1 0xE0 SHL DUP4 MSTORE PUSH1 0x1 PUSH1 0x1 PUSH1 0xA0 SHL SUB SWAP1 SWAP2 AND SWAP2 PUSH4 0xD25F5A5D SWAP2 PUSH2 0x5A4 SWAP2 PUSH1 0x1 PUSH1 0x1 PUSH1 0x40 SHL SUB SWAP1 SWAP2 AND SWAP1 DUP7 SWAP1 DUP7 SWAP1 PUSH1 0x4 ADD PUSH2 0x2533 JUMP JUMPDEST PUSH0 PUSH1 0x40 MLOAD DUP1 DUP4 SUB DUP2 PUSH0 DUP8 DUP1 EXTCODESIZE ISZERO DUP1 ISZERO PUSH2 0x5BB JUMPI PUSH0 PUSH0 REVERT JUMPDEST POP GAS CALL ISZERO DUP1 ISZERO PUSH2 0x5CD JUMPI RETURNDATASIZE PUSH0 PUSH0 RETURNDATACOPY RETURNDATASIZE PUSH0 REVERT JUMPDEST POP POP POP POP PUSH2 0x5D9 PUSH2 0x1667 JUMP JUMPDEST POP POP JUMP JUMPDEST PUSH1 0x60 PUSH1 0x4 DUP1 SLOAD PUSH2 0x5EC SWAP1 PUSH2 0x256E JUMP JUMPDEST DUP1 PUSH1 0x1F ADD PUSH1 0x20 DUP1 SWAP2 DIV MUL PUSH1 0x20 ADD PUSH1 0x40 MLOAD SWAP1 DUP2 ADD PUSH1 0x40 MSTORE DUP1 SWAP3 SWAP2 SWAP1 DUP2 DUP2 MSTORE PUSH1 0x20 ADD DUP3 DUP1 SLOAD PUSH2 0x618 SWAP1 PUSH2 0x256E JUMP JUMPDEST DUP1 ISZERO PUSH2 0x663 JUMPI DUP1 PUSH1 0x1F LT PUSH2 0x63A JUMPI PUSH2 0x100 DUP1 DUP4 SLOAD DIV MUL DUP4 MSTORE SWAP2 PUSH1 0x20 ADD SWAP2 PUSH2 0x663 JUMP JUMPDEST DUP3 ADD SWAP2 SWAP1 PUSH0 MSTORE PUSH1 0x20 PUSH0 KECCAK256 SWAP1 JUMPDEST DUP2 SLOAD DUP2 MSTORE SWAP1 PUSH1 0x1 ADD SWAP1 PUSH1 0x20 ADD DUP1 DUP4 GT PUSH2 0x646 JUMPI DUP3 SWAP1 SUB PUSH1 0x1F AND DUP3 ADD SWAP2 JUMPDEST POP POP POP POP POP SWAP1 POP SWAP1 JUMP JUMPDEST PUSH2 0x675 PUSH2 0x16A9 JUMP JUMPDEST PUSH1 0x1 PUSH1 0x1 PUSH1 0xA0 SHL SUB DUP3 AND PUSH0 SWAP1 DUP2 MSTORE PUSH1 0xA PUSH1 0x20 MSTORE PUSH1 0x40 SWAP1 KECCAK256 SLOAD PUSH1 0x1 PUSH1 0x1 PUSH1 0x40 SHL SUB AND PUSH2 0x69F DUP2 PUSH2 0x16E9 JUMP JUMPDEST PUSH1 0x80 ADD MLOAD PUSH1 0x1 PUSH1 0x1 PUSH1 0xA0 SHL SUB AND PUSH4 0xDAEEE482 DUP3 PUSH1 0x9 PUSH0 SWAP1 SLOAD SWAP1 PUSH2 0x100 EXP SWAP1 DIV PUSH1 0x1 PUSH1 0x1 PUSH1 0xA0 SHL SUB AND PUSH1 0x1 PUSH1 0x1 PUSH1 0xA0 SHL SUB AND PUSH4 0x27BACC40 PUSH1 0x40 MLOAD DUP2 PUSH4 0xFFFFFFFF AND PUSH1 0xE0 SHL DUP2 MSTORE PUSH1 0x4 ADD PUSH1 0x20 PUSH1 0x40 MLOAD DUP1 DUP4 SUB DUP2 DUP7 GAS STATICCALL ISZERO DUP1 ISZERO PUSH2 0x702 JUMPI RETURNDATASIZE PUSH0 PUSH0 RETURNDATACOPY RETURNDATASIZE PUSH0 REVERT JUMPDEST POP POP POP POP PUSH1 0x40 MLOAD RETURNDATASIZE PUSH1 0x1F NOT PUSH1 0x1F DUP3 ADD AND DUP3 ADD DUP1 PUSH1 0x40 MSTORE POP DUP2 ADD SWAP1 PUSH2 0x726 SWAP2 SWAP1 PUSH2 0x25B1 JUMP JUMPDEST DUP6 PUSH1 0x40 MLOAD DUP5 PUSH4 0xFFFFFFFF AND PUSH1 0xE0 SHL DUP2 MSTORE PUSH1 0x4 ADD PUSH2 0x745 SWAP4 SWAP3 SWAP2 SWAP1 PUSH2 0x25CC JUMP JUMPDEST PUSH0 PUSH1 0x40 MLOAD DUP1 DUP4 SUB DUP2 PUSH0 DUP8 DUP1 EXTCODESIZE ISZERO DUP1 ISZERO PUSH2 0x75C JUMPI PUSH0 PUSH0 REVERT JUMPDEST POP GAS CALL ISZERO DUP1 ISZERO PUSH2 0x76E JUMPI RETURNDATASIZE PUSH0 PUSH0 RETURNDATACOPY RETURNDATASIZE PUSH0 REVERT JUMPDEST POP POP POP POP PUSH2 0x77A PUSH2 0x1667 JUMP JUMPDEST POP POP POP JUMP JUMPDEST PUSH0 CALLER PUSH2 0x78C DUP2 DUP6 DUP6 PUSH2 0x18F9 JUMP JUMPDEST PUSH1 0x1 SWAP2 POP POP JUMPDEST SWAP3 SWAP2 POP POP JUMP JUMPDEST PUSH2 0x7A0 PUSH2 0x1F43 JUMP JUMPDEST PUSH2 0x7A8 PUSH2 0x1F61 JUMP JUMPDEST CALLER PUSH0 SWAP1 DUP2 MSTORE PUSH1 0xA PUSH1 0x20 MSTORE PUSH1 0x40 DUP2 KECCAK256 SLOAD PUSH1 0x1 PUSH1 0x1 PUSH1 0x40 SHL SUB AND SWAP1 SUB PUSH2 0x7E1 JUMPI CALLER PUSH1 0x40 MLOAD PUSH4 0x6C4D110B PUSH1 0xE0 SHL DUP2 MSTORE PUSH1 0x4 ADD PUSH2 0x534 SWAP2 SWAP1 PUSH2 0x243A JUMP JUMPDEST PUSH1 0x9 PUSH0 SWAP1 SLOAD SWAP1 PUSH2 0x100 EXP SWAP1 DIV PUSH1 0x1 PUSH1 0x1 PUSH1 0xA0 SHL SUB AND PUSH1 0x1 PUSH1 0x1 PUSH1 0xA0 SHL SUB AND PUSH4 0x76FADE90 PUSH1 0x40 MLOAD DUP2 PUSH4 0xFFFFFFFF AND PUSH1 0xE0 SHL DUP2 MSTORE PUSH1 0x4 ADD PUSH1 0x20 PUSH1 0x40 MLOAD DUP1 DUP4 SUB DUP2 PUSH0 DUP8 GAS CALL ISZERO DUP1 ISZERO PUSH2 0x832 JUMPI RETURNDATASIZE PUSH0 PUSH0 RETURNDATACOPY RETURNDATASIZE PUSH0 REVERT JUMPDEST POP POP POP POP PUSH1 0x40 MLOAD RETURNDATASIZE PUSH1 0x1F NOT PUSH1 0x1F DUP3 ADD AND DUP3 ADD DUP1 PUSH1 0x40 MSTORE POP DUP2 ADD SWAP1 PUSH2 0x856 SWAP2 SWAP1 PUSH2 0x25FC JUMP JUMPDEST PUSH1 0x40 MLOAD PUSH4 0x591257C5 PUSH1 0xE0 SHL DUP2 MSTORE PUSH1 0x2 PUSH1 0x4 DUP3 ADD MSTORE PUSH1 0x1 PUSH1 0x1 PUSH1 0xA0 SHL SUB SWAP2 SWAP1 SWAP2 AND SWAP1 PUSH4 0x591257C5 SWAP1 PUSH1 0x24 ADD PUSH1 0x20 PUSH1 0x40 MLOAD DUP1 DUP4 SUB DUP2 PUSH0 DUP8 GAS CALL ISZERO DUP1 ISZERO PUSH2 0x89C JUMPI RETURNDATASIZE PUSH0 PUSH0 RETURNDATACOPY RETURNDATASIZE PUSH0 REVERT JUMPDEST POP POP POP POP PUSH1 0x40 MLOAD RETURNDATASIZE PUSH1 0x1F NOT PUSH1 0x1F DUP3 ADD AND DUP3 ADD DUP1 PUSH1 0x40 MSTORE POP DUP2 ADD SWAP1 PUSH2 0x8C0 SWAP2 SWAP1 PUSH2 0x25B1 JUMP JUMPDEST PUSH1 0x1 PUSH1 0x1 PUSH1 0x40 SHL SUB SWAP1 DUP2 AND DUP4 MSTORE CALLER PUSH0 SWAP1 DUP2 MSTORE PUSH1 0xA PUSH1 0x20 SWAP1 DUP2 MSTORE PUSH1 0x40 SWAP2 DUP3 SWAP1 KECCAK256 SLOAD SWAP1 SWAP3 AND DUP3 DUP6 ADD MSTORE PUSH1 0x9 SLOAD DUP2 MLOAD PUSH3 0x9EEB31 PUSH1 0xE6 SHL DUP2 MSTORE SWAP2 MLOAD PUSH1 0x1 PUSH1 0x1 PUSH1 0xA0 SHL SUB SWAP1 SWAP2 AND SWAP3 PUSH4 0x27BACC40 SWAP3 PUSH1 0x4 DUP1 DUP3 ADD SWAP4 SWAP2 DUP3 SWAP1 SUB ADD DUP2 DUP7 GAS STATICCALL ISZERO DUP1 ISZERO PUSH2 0x927 JUMPI RETURNDATASIZE PUSH0 PUSH0 RETURNDATACOPY RETURNDATASIZE PUSH0 REVERT JUMPDEST POP POP POP POP PUSH1 0x40 MLOAD RETURNDATASIZE PUSH1 0x1F NOT PUSH1 0x1F DUP3 ADD AND DUP3 ADD DUP1 PUSH1 0x40 MSTORE POP DUP2 ADD SWAP1 PUSH2 0x94B SWAP2 SWAP1 PUSH2 0x25B1 JUMP JUMPDEST PUSH1 0x1 PUSH1 0x1 PUSH1 0x40 SHL SUB AND PUSH1 0x40 DUP4 ADD MSTORE PUSH1 0x20 DUP3 ADD MLOAD PUSH2 0x967 SWAP1 PUSH2 0x16E9 JUMP JUMPDEST PUSH1 0x80 DUP2 ADD MLOAD PUSH1 0x40 MLOAD PUSH4 0x666E1B39 PUSH1 0xE0 SHL DUP2 MSTORE SWAP2 SWAP3 POP PUSH1 0x1 PUSH1 0x1 PUSH1 0xA0 SHL SUB AND SWAP1 PUSH4 0x666E1B39 SWAP1 PUSH2 0x99A SWAP1 CALLER SWAP1 PUSH1 0x4 ADD PUSH2 0x243A JUMP JUMPDEST PUSH1 0x20 PUSH1 0x40 MLOAD DUP1 DUP4 SUB DUP2 DUP7 GAS STATICCALL ISZERO DUP1 ISZERO PUSH2 0x9B5 JUMPI RETURNDATASIZE PUSH0 PUSH0 RETURNDATACOPY RETURNDATASIZE PUSH0 REVERT JUMPDEST POP POP POP POP PUSH1 0x40 MLOAD RETURNDATASIZE PUSH1 0x1F NOT PUSH1 0x1F DUP3 ADD AND DUP3 ADD DUP1 PUSH1 0x40 MSTORE POP DUP2 ADD SWAP1 PUSH2 0x9D9 SWAP2 SWAP1 PUSH2 0x2617 JUMP JUMPDEST PUSH2 0xA0D JUMPI PUSH1 0x80 DUP2 ADD MLOAD PUSH1 0x40 MLOAD PUSH4 0x7158163 PUSH1 0xE3 SHL DUP2 MSTORE PUSH1 0x1 PUSH1 0x1 PUSH1 0xA0 SHL SUB SWAP1 SWAP2 AND PUSH1 0x4 DUP3 ADD MSTORE CALLER PUSH1 0x24 DUP3 ADD MSTORE PUSH1 0x44 ADD PUSH2 0x534 JUMP JUMPDEST PUSH2 0xA15 PUSH2 0x1667 JUMP JUMPDEST SWAP1 SWAP2 JUMP JUMPDEST CALLER PUSH0 SWAP1 DUP2 MSTORE PUSH1 0xA PUSH1 0x20 MSTORE PUSH1 0x40 DUP2 KECCAK256 SLOAD PUSH1 0x1 PUSH1 0x1 PUSH1 0x40 SHL SUB AND SWAP1 SUB PUSH2 0xA52 JUMPI CALLER PUSH1 0x40 MLOAD PUSH4 0x6C4D110B PUSH1 0xE0 SHL DUP2 MSTORE PUSH1 0x4 ADD PUSH2 0x534 SWAP2 SWAP1 PUSH2 0x243A JUMP JUMPDEST PUSH0 PUSH2 0xA7C PUSH1 0x40 MLOAD DUP1 PUSH1 0x40 ADD PUSH1 0x40 MSTORE DUP1 PUSH1 0x8 DUP2 MSTORE PUSH1 0x20 ADD PUSH8 0x557365726E616D65 PUSH1 0xC0 SHL DUP2 MSTORE POP PUSH2 0x121D JUMP JUMPDEST SWAP1 POP PUSH1 0x1 DUP2 MLOAD LT ISZERO PUSH2 0xAA3 JUMPI CALLER PUSH1 0x40 MLOAD PUSH4 0x435FE619 PUSH1 0xE1 SHL DUP2 MSTORE PUSH1 0x4 ADD PUSH2 0x534 SWAP2 SWAP1 PUSH2 0x243A JUMP JUMPDEST PUSH2 0xAEA PUSH1 0x40 MLOAD DUP1 PUSH1 0x40 ADD PUSH1 0x40 MSTORE DUP1 PUSH1 0x4 DUP2 MSTORE PUSH1 0x20 ADD PUSH4 0x5A484F55 PUSH1 0xE0 SHL DUP2 MSTORE POP DUP3 DUP5 PUSH1 0x40 MLOAD PUSH1 0x20 ADD PUSH2 0xAD6 SWAP3 SWAP2 SWAP1 PUSH2 0x264D JUMP JUMPDEST PUSH1 0x40 MLOAD PUSH1 0x20 DUP2 DUP4 SUB SUB DUP2 MSTORE SWAP1 PUSH1 0x40 MSTORE PUSH2 0x1906 JUMP JUMPDEST PUSH2 0x5D9 PUSH2 0x1667 JUMP JUMPDEST PUSH1 0x1 PUSH1 0x1 PUSH1 0xA0 SHL SUB DUP3 AND PUSH0 SWAP1 DUP2 MSTORE PUSH1 0x8 PUSH1 0x20 MSTORE PUSH1 0x40 DUP2 KECCAK256 SLOAD SWAP1 SUB PUSH2 0xB2B JUMPI DUP2 PUSH1 0x40 MLOAD PUSH4 0x90B23441 PUSH1 0xE0 SHL DUP2 MSTORE PUSH1 0x4 ADD PUSH2 0x534 SWAP2 SWAP1 PUSH2 0x243A JUMP JUMPDEST DUP2 PUSH0 PUSH2 0xB39 PUSH1 0x12 PUSH1 0xA PUSH2 0x276E JUMP JUMPDEST PUSH1 0x1 PUSH1 0x1 PUSH1 0xA0 SHL SUB DUP6 AND PUSH0 SWAP1 DUP2 MSTORE PUSH1 0x8 PUSH1 0x20 MSTORE PUSH1 0x40 SWAP1 KECCAK256 SLOAD PUSH2 0xB5B SWAP1 DUP6 PUSH2 0x277C JUMP JUMPDEST PUSH2 0xB65 SWAP2 SWAP1 PUSH2 0x2793 JUMP JUMPDEST PUSH1 0x40 MLOAD PUSH4 0x23B872DD PUSH1 0xE0 SHL DUP2 MSTORE SWAP1 SWAP2 POP PUSH0 SWAP1 ADDRESS SWAP1 PUSH4 0x23B872DD SWAP1 PUSH2 0xB91 SWAP1 CALLER SWAP1 DUP5 SWAP1 DUP10 SWAP1 PUSH1 0x4 ADD PUSH2 0x27B2 JUMP JUMPDEST PUSH1 0x20 PUSH1 0x40 MLOAD DUP1 DUP4 SUB DUP2 PUSH0 DUP8 GAS CALL ISZERO DUP1 ISZERO PUSH2 0xBAD JUMPI RETURNDATASIZE PUSH0 PUSH0 RETURNDATACOPY RETURNDATASIZE PUSH0 REVERT JUMPDEST POP POP POP POP PUSH1 0x40 MLOAD RETURNDATASIZE PUSH1 0x1F NOT PUSH1 0x1F DUP3 ADD AND DUP3 ADD DUP1 PUSH1 0x40 MSTORE POP DUP2 ADD SWAP1 PUSH2 0xBD1 SWAP2 SWAP1 PUSH2 0x2617 JUMP JUMPDEST SWAP1 POP DUP1 ADDRESS PUSH1 0x1 PUSH1 0x1 PUSH1 0xA0 SHL SUB AND PUSH4 0x6FDDE03 PUSH1 0x40 MLOAD DUP2 PUSH4 0xFFFFFFFF AND PUSH1 0xE0 SHL DUP2 MSTORE PUSH1 0x4 ADD PUSH0 PUSH1 0x40 MLOAD DUP1 DUP4 SUB DUP2 DUP7 GAS STATICCALL ISZERO DUP1 ISZERO PUSH2 0xC0F JUMPI RETURNDATASIZE PUSH0 PUSH0 RETURNDATACOPY RETURNDATASIZE PUSH0 REVERT JUMPDEST POP POP POP POP PUSH1 0x40 MLOAD RETURNDATASIZE PUSH0 DUP3 RETURNDATACOPY PUSH1 0x1F RETURNDATASIZE SWAP1 DUP2 ADD PUSH1 0x1F NOT AND DUP3 ADD PUSH1 0x40 MSTORE PUSH2 0xC36 SWAP2 SWAP1 DUP2 ADD SWAP1 PUSH2 0x27D6 JUMP JUMPDEST PUSH1 0x40 MLOAD PUSH1 0x20 ADD PUSH2 0xC46 SWAP2 SWAP1 PUSH2 0x284A JUMP JUMPDEST PUSH1 0x40 MLOAD PUSH1 0x20 DUP2 DUP4 SUB SUB DUP2 MSTORE SWAP1 PUSH1 0x40 MSTORE SWAP1 PUSH2 0xC73 JUMPI PUSH1 0x40 MLOAD PUSH3 0x461BCD PUSH1 0xE5 SHL DUP2 MSTORE PUSH1 0x4 ADD PUSH2 0x534 SWAP2 SWAP1 PUSH2 0x2139 JUMP JUMPDEST POP PUSH1 0x40 MLOAD PUSH4 0xA9059CBB PUSH1 0xE0 SHL DUP2 MSTORE CALLER PUSH1 0x4 DUP3 ADD MSTORE PUSH1 0x24 DUP2 ADD DUP4 SWAP1 MSTORE PUSH1 0x1 PUSH1 0x1 PUSH1 0xA0 SHL SUB DUP5 AND SWAP1 PUSH4 0xA9059CBB SWAP1 PUSH1 0x44 ADD JUMPDEST PUSH1 0x20 PUSH1 0x40 MLOAD DUP1 DUP4 SUB DUP2 PUSH0 DUP8 GAS CALL ISZERO DUP1 ISZERO PUSH2 0xCBF JUMPI RETURNDATASIZE PUSH0 PUSH0 RETURNDATACOPY RETURNDATASIZE PUSH0 REVERT JUMPDEST POP POP POP POP PUSH1 0x40 MLOAD RETURNDATASIZE PUSH1 0x1F NOT PUSH1 0x1F DUP3 ADD AND DUP3 ADD DUP1 PUSH1 0x40 MSTORE POP DUP2 ADD SWAP1 PUSH2 0xCE3 SWAP2 SWAP1 PUSH2 0x2617 JUMP JUMPDEST POP POP POP POP POP POP JUMP JUMPDEST PUSH0 CALLER PUSH2 0xCF8 DUP6 DUP3 DUP6 PUSH2 0x1CEE JUMP JUMPDEST PUSH2 0xD03 DUP6 DUP6 DUP6 PUSH2 0x1D3F JUMP JUMPDEST PUSH1 0x1 SWAP2 POP POP JUMPDEST SWAP4 SWAP3 POP POP POP JUMP JUMPDEST PUSH1 0x1 PUSH1 0x1 PUSH1 0xA0 SHL SUB DUP3 AND PUSH0 SWAP1 DUP2 MSTORE PUSH1 0x8 PUSH1 0x20 MSTORE PUSH1 0x40 DUP2 KECCAK256 SLOAD SWAP1 SUB PUSH2 0xD49 JUMPI DUP2 PUSH1 0x40 MLOAD PUSH4 0x90B23441 PUSH1 0xE0 SHL DUP2 MSTORE PUSH1 0x4 ADD PUSH2 0x534 SWAP2 SWAP1 PUSH2 0x243A JUMP JUMPDEST DUP2 PUSH0 PUSH2 0xD57 PUSH1 0x12 PUSH1 0xA PUSH2 0x276E JUMP JUMPDEST PUSH1 0x1 PUSH1 0x1 PUSH1 0xA0 SHL SUB DUP6 AND PUSH0 SWAP1 DUP2 MSTORE PUSH1 0x8 PUSH1 0x20 MSTORE PUSH1 0x40 SWAP1 KECCAK256 SLOAD PUSH2 0xD79 SWAP1 DUP6 PUSH2 0x277C JUMP JUMPDEST PUSH2 0xD83 SWAP2 SWAP1 PUSH2 0x2793 JUMP JUMPDEST SWAP1 POP PUSH0 DUP3 PUSH1 0x1 PUSH1 0x1 PUSH1 0xA0 SHL SUB AND PUSH4 0x23B872DD CALLER ADDRESS DUP6 PUSH1 0x40 MLOAD DUP5 PUSH4 0xFFFFFFFF AND PUSH1 0xE0 SHL DUP2 MSTORE PUSH1 0x4 ADD PUSH2 0xDB6 SWAP4 SWAP3 SWAP2 SWAP1 PUSH2 0x27B2 JUMP JUMPDEST PUSH1 0x20 PUSH1 0x40 MLOAD DUP1 DUP4 SUB DUP2 PUSH0 DUP8 GAS CALL ISZERO DUP1 ISZERO PUSH2 0xDD2 JUMPI RETURNDATASIZE PUSH0 PUSH0 RETURNDATACOPY RETURNDATASIZE PUSH0 REVERT JUMPDEST POP POP POP POP PUSH1 0x40 MLOAD RETURNDATASIZE PUSH1 0x1F NOT PUSH1 0x1F DUP3 ADD AND DUP3 ADD DUP1 PUSH1 0x40 MSTORE POP DUP2 ADD SWAP1 PUSH2 0xDF6 SWAP2 SWAP1 PUSH2 0x2617 JUMP JUMPDEST SWAP1 POP DUP1 DUP4 PUSH1 0x1 PUSH1 0x1 PUSH1 0xA0 SHL SUB AND PUSH4 0x6FDDE03 PUSH1 0x40 MLOAD DUP2 PUSH4 0xFFFFFFFF AND PUSH1 0xE0 SHL DUP2 MSTORE PUSH1 0x4 ADD PUSH0 PUSH1 0x40 MLOAD DUP1 DUP4 SUB DUP2 DUP7 GAS STATICCALL ISZERO DUP1 ISZERO PUSH2 0xE34 JUMPI RETURNDATASIZE PUSH0 PUSH0 RETURNDATACOPY RETURNDATASIZE PUSH0 REVERT JUMPDEST POP POP POP POP PUSH1 0x40 MLOAD RETURNDATASIZE PUSH0 DUP3 RETURNDATACOPY PUSH1 0x1F RETURNDATASIZE SWAP1 DUP2 ADD PUSH1 0x1F NOT AND DUP3 ADD PUSH1 0x40 MSTORE PUSH2 0xE5B SWAP2 SWAP1 DUP2 ADD SWAP1 PUSH2 0x27D6 JUMP JUMPDEST PUSH1 0x40 MLOAD PUSH1 0x20 ADD PUSH2 0xE6B SWAP2 SWAP1 PUSH2 0x284A JUMP JUMPDEST PUSH1 0x40 MLOAD PUSH1 0x20 DUP2 DUP4 SUB SUB DUP2 MSTORE SWAP1 PUSH1 0x40 MSTORE SWAP1 PUSH2 0xE98 JUMPI PUSH1 0x40 MLOAD PUSH3 0x461BCD PUSH1 0xE5 SHL DUP2 MSTORE PUSH1 0x4 ADD PUSH2 0x534 SWAP2 SWAP1 PUSH2 0x2139 JUMP JUMPDEST POP PUSH1 0x40 MLOAD PUSH4 0xA9059CBB PUSH1 0xE0 SHL DUP2 MSTORE CALLER PUSH1 0x4 DUP3 ADD MSTORE PUSH1 0x24 DUP2 ADD DUP6 SWAP1 MSTORE ADDRESS SWAP1 PUSH4 0xA9059CBB SWAP1 PUSH1 0x44 ADD PUSH2 0xCA3 JUMP JUMPDEST PUSH2 0xECB PUSH2 0x16A9 JUMP JUMPDEST PUSH2 0xED5 DUP2 PUSH0 PUSH2 0x1D4A JUMP JUMPDEST POP JUMP JUMPDEST PUSH1 0x60 PUSH1 0xC PUSH1 0x40 MLOAD PUSH2 0xEE8 SWAP1 PUSH2 0x251B JUMP JUMPDEST SWAP1 DUP2 MSTORE PUSH1 0x40 DUP1 MLOAD SWAP2 DUP3 SWAP1 SUB PUSH1 0x20 SWAP1 DUP2 ADD DUP4 KECCAK256 SLOAD CALLER PUSH0 SWAP1 DUP2 MSTORE PUSH1 0xA SWAP1 SWAP3 MSTORE SWAP2 SWAP1 KECCAK256 SLOAD PUSH4 0x6BE4133 PUSH1 0xE0 SHL DUP4 MSTORE PUSH1 0x1 PUSH1 0x1 PUSH1 0xA0 SHL SUB SWAP1 SWAP2 AND SWAP2 PUSH4 0x6BE4133 SWAP2 PUSH2 0xF3F SWAP2 PUSH1 0x1 PUSH1 0x1 PUSH1 0x40 SHL SUB SWAP1 SWAP2 AND SWAP1 DUP7 SWAP1 PUSH1 0x4 ADD PUSH2 0x286C JUMP JUMPDEST PUSH0 PUSH1 0x40 MLOAD DUP1 DUP4 SUB DUP2 DUP7 GAS STATICCALL ISZERO DUP1 ISZERO PUSH2 0xF59 JUMPI RETURNDATASIZE PUSH0 PUSH0 RETURNDATACOPY RETURNDATASIZE PUSH0 REVERT JUMPDEST POP POP POP POP PUSH1 0x40 MLOAD RETURNDATASIZE PUSH0 DUP3 RETURNDATACOPY PUSH1 0x1F RETURNDATASIZE SWAP1 DUP2 ADD PUSH1 0x1F NOT AND DUP3 ADD PUSH1 0x40 MSTORE PUSH2 0x792 SWAP2 SWAP1 DUP2 ADD SWAP1 PUSH2 0x27D6 JUMP JUMPDEST PUSH1 0x1 PUSH1 0x1 PUSH1 0xA0 SHL SUB AND PUSH0 SWAP1 DUP2 MSTORE PUSH1 0x20 DUP2 SWAP1 MSTORE PUSH1 0x40 SWAP1 KECCAK256 SLOAD PUSH1 0xFF AND SWAP1 JUMP JUMPDEST PUSH2 0xFA5 PUSH2 0x1F43 JUMP JUMPDEST PUSH2 0xFAD PUSH2 0x1F61 JUMP JUMPDEST CALLER PUSH0 SWAP1 DUP2 MSTORE PUSH1 0xA PUSH1 0x20 MSTORE PUSH1 0x40 SWAP1 KECCAK256 SLOAD PUSH1 0x1 PUSH1 0x1 PUSH1 0x40 SHL SUB AND ISZERO PUSH2 0xFE5 JUMPI CALLER PUSH1 0x40 MLOAD PUSH4 0x93052D6D PUSH1 0xE0 SHL DUP2 MSTORE PUSH1 0x4 ADD PUSH2 0x534 SWAP2 SWAP1 PUSH2 0x243A JUMP JUMPDEST PUSH1 0x9 SLOAD PUSH1 0x40 MLOAD PUSH4 0x1D03071 PUSH1 0xE0 SHL DUP2 MSTORE PUSH1 0x1 PUSH1 0x1 PUSH1 0xA0 SHL SUB SWAP1 SWAP2 AND SWAP1 PUSH4 0x1D03071 SWAP1 PUSH2 0x1017 SWAP1 DUP8 SWAP1 DUP8 SWAP1 PUSH1 0x4 ADD PUSH2 0x288A JUMP JUMPDEST PUSH2 0x160 PUSH1 0x40 MLOAD DUP1 DUP4 SUB DUP2 PUSH0 DUP8 GAS CALL ISZERO DUP1 ISZERO PUSH2 0x1034 JUMPI RETURNDATASIZE PUSH0 PUSH0 RETURNDATACOPY RETURNDATASIZE PUSH0 REVERT JUMPDEST POP POP POP POP PUSH1 0x40 MLOAD RETURNDATASIZE PUSH1 0x1F NOT PUSH1 0x1F DUP3 ADD AND DUP3 ADD DUP1 PUSH1 0x40 MSTORE POP DUP2 ADD SWAP1 PUSH2 0x1058 SWAP2 SWAP1 PUSH2 0x2953 JUMP JUMPDEST PUSH1 0x80 DUP2 ADD MLOAD PUSH1 0x40 MLOAD PUSH4 0xE0CB969 PUSH1 0xE3 SHL DUP2 MSTORE SWAP3 SWAP5 POP SWAP1 SWAP3 POP PUSH1 0x1 PUSH1 0x1 PUSH1 0xA0 SHL SUB AND SWAP1 PUSH4 0x7065CB48 SWAP1 PUSH2 0x108E SWAP1 CALLER SWAP1 PUSH1 0x4 ADD PUSH2 0x243A JUMP JUMPDEST PUSH0 PUSH1 0x40 MLOAD DUP1 DUP4 SUB DUP2 PUSH0 DUP8 DUP1 EXTCODESIZE ISZERO DUP1 ISZERO PUSH2 0x10A5 JUMPI PUSH0 PUSH0 REVERT JUMPDEST POP GAS CALL ISZERO DUP1 ISZERO PUSH2 0x10B7 JUMPI RETURNDATASIZE PUSH0 PUSH0 RETURNDATACOPY RETURNDATASIZE PUSH0 REVERT JUMPDEST POP POP POP POP DUP1 PUSH1 0x80 ADD MLOAD PUSH1 0x1 PUSH1 0x1 PUSH1 0xA0 SHL SUB AND PUSH4 0x666E1B39 CALLER PUSH1 0x40 MLOAD DUP3 PUSH4 0xFFFFFFFF AND PUSH1 0xE0 SHL DUP2 MSTORE PUSH1 0x4 ADD PUSH2 0x10EB SWAP2 SWAP1 PUSH2 0x243A JUMP JUMPDEST PUSH1 0x20 PUSH1 0x40 MLOAD DUP1 DUP4 SUB DUP2 DUP7 GAS STATICCALL ISZERO DUP1 ISZERO PUSH2 0x1106 JUMPI RETURNDATASIZE PUSH0 PUSH0 RETURNDATACOPY RETURNDATASIZE PUSH0 REVERT JUMPDEST POP POP POP POP PUSH1 0x40 MLOAD RETURNDATASIZE PUSH1 0x1F NOT PUSH1 0x1F DUP3 ADD AND DUP3 ADD DUP1 PUSH1 0x40 MSTORE POP DUP2 ADD SWAP1 PUSH2 0x112A SWAP2 SWAP1 PUSH2 0x2617 JUMP JUMPDEST PUSH2 0x115E JUMPI PUSH1 0x80 DUP2 ADD MLOAD PUSH1 0x40 MLOAD PUSH4 0x7158163 PUSH1 0xE3 SHL DUP2 MSTORE PUSH1 0x1 PUSH1 0x1 PUSH1 0xA0 SHL SUB SWAP1 SWAP2 AND PUSH1 0x4 DUP3 ADD MSTORE CALLER PUSH1 0x24 DUP3 ADD MSTORE PUSH1 0x44 ADD PUSH2 0x534 JUMP JUMPDEST PUSH1 0x20 DUP3 DUP2 ADD MLOAD CALLER PUSH0 SWAP1 DUP2 MSTORE PUSH1 0xA SWAP1 SWAP3 MSTORE PUSH1 0x40 SWAP1 SWAP2 KECCAK256 DUP1 SLOAD PUSH8 0xFFFFFFFFFFFFFFFF NOT AND PUSH1 0x1 PUSH1 0x1 PUSH1 0x40 SHL SUB SWAP1 SWAP3 AND SWAP2 SWAP1 SWAP2 OR SWAP1 SSTORE PUSH2 0x1199 PUSH2 0x1667 JUMP JUMPDEST SWAP3 POP SWAP3 SWAP1 POP JUMP JUMPDEST PUSH2 0x11A8 PUSH2 0x16A9 JUMP JUMPDEST PUSH1 0x1 PUSH1 0x1 PUSH1 0xA0 SHL SUB DUP2 AND PUSH2 0x11D5 JUMPI ORIGIN PUSH0 ADDRESS PUSH1 0x40 MLOAD PUSH4 0x36030219 PUSH1 0xE2 SHL DUP2 MSTORE PUSH1 0x4 ADD PUSH2 0x534 SWAP4 SWAP3 SWAP2 SWAP1 PUSH2 0x29C9 JUMP JUMPDEST PUSH2 0xED5 DUP2 PUSH1 0x1 PUSH2 0x1D4A JUMP JUMPDEST PUSH1 0x60 PUSH1 0x5 DUP1 SLOAD PUSH2 0x5EC SWAP1 PUSH2 0x256E JUMP JUMPDEST PUSH2 0x11F7 PUSH2 0x16A9 JUMP JUMPDEST PUSH1 0x4 PUSH2 0x1203 DUP4 DUP3 PUSH2 0x2A37 JUMP JUMPDEST POP PUSH1 0x5 PUSH2 0x77A DUP3 DUP3 PUSH2 0x2A37 JUMP JUMPDEST PUSH0 CALLER PUSH2 0x78C DUP2 DUP6 DUP6 PUSH2 0x1D3F JUMP JUMPDEST PUSH1 0x60 PUSH1 0xC PUSH1 0x40 MLOAD PUSH2 0x122D SWAP1 PUSH2 0x251B JUMP JUMPDEST SWAP1 DUP2 MSTORE PUSH1 0x40 DUP1 MLOAD SWAP2 DUP3 SWAP1 SUB PUSH1 0x20 SWAP1 DUP2 ADD DUP4 KECCAK256 SLOAD CALLER PUSH0 SWAP1 DUP2 MSTORE PUSH1 0xA SWAP1 SWAP3 MSTORE SWAP2 SWAP1 KECCAK256 SLOAD PUSH4 0xEC254223 PUSH1 0xE0 SHL DUP4 MSTORE PUSH1 0x1 PUSH1 0x1 PUSH1 0xA0 SHL SUB SWAP1 SWAP2 AND SWAP2 PUSH4 0xEC254223 SWAP2 PUSH2 0xF3F SWAP2 PUSH1 0x1 PUSH1 0x1 PUSH1 0x40 SHL SUB SWAP1 SWAP2 AND SWAP1 DUP7 SWAP1 PUSH1 0x4 ADD PUSH2 0x2AF1 JUMP JUMPDEST CALLER PUSH0 SWAP1 DUP2 MSTORE PUSH1 0xA PUSH1 0x20 MSTORE PUSH1 0x40 DUP2 KECCAK256 SLOAD PUSH1 0x1 PUSH1 0x1 PUSH1 0x40 SHL SUB AND SWAP1 SUB PUSH2 0x12BD JUMPI CALLER PUSH1 0x40 MLOAD PUSH4 0x6C4D110B PUSH1 0xE0 SHL DUP2 MSTORE PUSH1 0x4 ADD PUSH2 0x534 SWAP2 SWAP1 PUSH2 0x243A JUMP JUMPDEST PUSH1 0xC PUSH1 0x40 MLOAD PUSH2 0x12CB SWAP1 PUSH2 0x251B JUMP JUMPDEST SWAP1 DUP2 MSTORE PUSH1 0x40 DUP1 MLOAD SWAP2 DUP3 SWAP1 SUB PUSH1 0x20 SWAP1 DUP2 ADD DUP4 KECCAK256 SLOAD CALLER PUSH0 SWAP1 DUP2 MSTORE PUSH1 0xA SWAP1 SWAP3 MSTORE SWAP2 SWAP1 KECCAK256 SLOAD PUSH4 0xAAFD31CF PUSH1 0xE0 SHL DUP4 MSTORE PUSH1 0x1 PUSH1 0x1 PUSH1 0xA0 SHL SUB SWAP1 SWAP2 AND SWAP2 PUSH4 0xAAFD31CF SWAP2 PUSH2 0x5A4 SWAP2 PUSH1 0x1 PUSH1 0x1 PUSH1 0x40 SHL SUB SWAP1 SWAP2 AND SWAP1 DUP7 SWAP1 DUP7 SWAP1 PUSH1 0x4 ADD PUSH2 0x2B12 JUMP JUMPDEST CALLER PUSH0 SWAP1 DUP2 MSTORE PUSH1 0xA PUSH1 0x20 MSTORE PUSH1 0x40 SWAP1 KECCAK256 SLOAD PUSH1 0x1 PUSH1 0x1 PUSH1 0x40 SHL SUB AND PUSH2 0x1345 DUP2 PUSH2 0x16E9 JUMP JUMPDEST PUSH1 0x80 ADD MLOAD PUSH1 0x1 PUSH1 0x1 PUSH1 0xA0 SHL SUB AND PUSH4 0xDAEEE482 DUP3 PUSH1 0x9 PUSH0 SWAP1 SLOAD SWAP1 PUSH2 0x100 EXP SWAP1 DIV PUSH1 0x1 PUSH1 0x1 PUSH1 0xA0 SHL SUB AND PUSH1 0x1 PUSH1 0x1 PUSH1 0xA0 SHL SUB AND PUSH4 0x27BACC40 PUSH1 0x40 MLOAD DUP2 PUSH4 0xFFFFFFFF AND PUSH1 0xE0 SHL DUP2 MSTORE PUSH1 0x4 ADD PUSH1 0x20 PUSH1 0x40 MLOAD DUP1 DUP4 SUB DUP2 DUP7 GAS STATICCALL ISZERO DUP1 ISZERO PUSH2 0x13A8 JUMPI RETURNDATASIZE PUSH0 PUSH0 RETURNDATACOPY RETURNDATASIZE PUSH0 REVERT JUMPDEST POP POP POP POP PUSH1 0x40 MLOAD RETURNDATASIZE PUSH1 0x1F NOT PUSH1 0x1F DUP3 ADD AND DUP3 ADD DUP1 PUSH1 0x40 MSTORE POP DUP2 ADD SWAP1 PUSH2 0x13CC SWAP2 SWAP1 PUSH2 0x25B1 JUMP JUMPDEST DUP6 PUSH1 0x40 MLOAD DUP5 PUSH4 0xFFFFFFFF AND PUSH1 0xE0 SHL DUP2 MSTORE PUSH1 0x4 ADD PUSH2 0x5A4 SWAP4 SWAP3 SWAP2 SWAP1 PUSH2 0x25CC JUMP JUMPDEST PUSH0 PUSH1 0xC DUP3 PUSH1 0x40 MLOAD PUSH2 0x13FC SWAP2 SWAP1 PUSH2 0x2B43 JUMP JUMPDEST SWAP1 DUP2 MSTORE PUSH1 0x40 MLOAD SWAP1 DUP2 SWAP1 SUB PUSH1 0x20 ADD SWAP1 KECCAK256 SLOAD PUSH1 0x1 PUSH1 0x1 PUSH1 0xA0 SHL SUB AND SWAP3 SWAP2 POP POP JUMP JUMPDEST PUSH1 0x1 PUSH1 0x1 PUSH1 0xA0 SHL SUB SWAP2 DUP3 AND PUSH0 SWAP1 DUP2 MSTORE PUSH1 0x2 PUSH1 0x20 SWAP1 DUP2 MSTORE PUSH1 0x40 DUP1 DUP4 KECCAK256 SWAP4 SWAP1 SWAP5 AND DUP3 MSTORE SWAP2 SWAP1 SWAP2 MSTORE KECCAK256 SLOAD SWAP1 JUMP JUMPDEST CALLER PUSH0 SWAP1 DUP2 MSTORE PUSH1 0xA PUSH1 0x20 MSTORE PUSH1 0x40 DUP2 KECCAK256 SLOAD PUSH1 0x1 PUSH1 0x1 PUSH1 0x40 SHL SUB AND SWAP1 SUB PUSH2 0x147E JUMPI CALLER PUSH1 0x40 MLOAD PUSH4 0x6C4D110B PUSH1 0xE0 SHL DUP2 MSTORE PUSH1 0x4 ADD PUSH2 0x534 SWAP2 SWAP1 PUSH2 0x243A JUMP JUMPDEST PUSH1 0xC PUSH1 0x40 MLOAD PUSH2 0x148C SWAP1 PUSH2 0x251B JUMP JUMPDEST SWAP1 DUP2 MSTORE PUSH1 0x40 DUP1 MLOAD SWAP2 DUP3 SWAP1 SUB PUSH1 0x20 SWAP1 DUP2 ADD DUP4 KECCAK256 SLOAD CALLER PUSH0 SWAP1 DUP2 MSTORE PUSH1 0xA SWAP1 SWAP3 MSTORE SWAP2 SWAP1 KECCAK256 SLOAD PUSH4 0x7BDE8743 PUSH1 0xE0 SHL DUP4 MSTORE PUSH1 0x1 PUSH1 0x1 PUSH1 0xA0 SHL SUB SWAP1 SWAP2 AND SWAP2 PUSH4 0x7BDE8743 SWAP2 PUSH2 0x5A4 SWAP2 PUSH1 0x1 PUSH1 0x1 PUSH1 0x40 SHL SUB SWAP1 SWAP2 AND SWAP1 DUP7 SWAP1 DUP7 SWAP1 PUSH1 0x4 ADD PUSH2 0x2B4E JUMP JUMPDEST PUSH2 0x14ED PUSH2 0x16A9 JUMP JUMPDEST DUP1 PUSH1 0xC DUP4 PUSH1 0x40 MLOAD PUSH2 0x14FE SWAP2 SWAP1 PUSH2 0x2B43 JUMP JUMPDEST SWAP1 DUP2 MSTORE PUSH1 0x40 MLOAD SWAP1 DUP2 SWAP1 SUB PUSH1 0x20 ADD SWAP1 KECCAK256 DUP1 SLOAD PUSH1 0x1 PUSH1 0x1 PUSH1 0xA0 SHL SUB SWAP3 SWAP1 SWAP3 AND PUSH1 0x1 PUSH1 0x1 PUSH1 0xA0 SHL SUB NOT SWAP1 SWAP3 AND SWAP2 SWAP1 SWAP2 OR SWAP1 SSTORE PUSH2 0x5D9 PUSH2 0x1667 JUMP JUMPDEST PUSH2 0x153D PUSH2 0x16A9 JUMP JUMPDEST PUSH2 0x1546 DUP3 PUSH2 0x16E9 JUMP JUMPDEST PUSH1 0x80 ADD MLOAD PUSH1 0x1 PUSH1 0x1 PUSH1 0xA0 SHL SUB AND PUSH4 0xDAEEE482 DUP4 PUSH1 0x9 PUSH0 SWAP1 SLOAD SWAP1 PUSH2 0x100 EXP SWAP1 DIV PUSH1 0x1 PUSH1 0x1 PUSH1 0xA0 SHL SUB AND PUSH1 0x1 PUSH1 0x1 PUSH1 0xA0 SHL SUB AND PUSH4 0x27BACC40 PUSH1 0x40 MLOAD DUP2 PUSH4 0xFFFFFFFF AND PUSH1 0xE0 SHL DUP2 MSTORE PUSH1 0x4 ADD PUSH1 0x20 PUSH1 0x40 MLOAD DUP1 DUP4 SUB DUP2 DUP7 GAS STATICCALL ISZERO DUP1 ISZERO PUSH2 0x15A9 JUMPI RETURNDATASIZE PUSH0 PUSH0 RETURNDATACOPY RETURNDATASIZE PUSH0 REVERT JUMPDEST POP POP POP POP PUSH1 0x40 MLOAD RETURNDATASIZE PUSH1 0x1F NOT PUSH1 0x1F DUP3 ADD AND DUP3 ADD DUP1 PUSH1 0x40 MSTORE POP DUP2 ADD SWAP1 PUSH2 0x15CD SWAP2 SWAP1 PUSH2 0x25B1 JUMP JUMPDEST DUP5 PUSH1 0x40 MLOAD DUP5 PUSH4 0xFFFFFFFF AND PUSH1 0xE0 SHL DUP2 MSTORE PUSH1 0x4 ADD PUSH2 0x5A4 SWAP4 SWAP3 SWAP2 SWAP1 PUSH2 0x25CC JUMP JUMPDEST PUSH1 0x60 PUSH1 0xC PUSH1 0x40 MLOAD PUSH2 0x15FC SWAP1 PUSH2 0x251B JUMP JUMPDEST SWAP1 DUP2 MSTORE PUSH1 0x40 DUP1 MLOAD PUSH1 0x20 SWAP3 DUP2 SWAP1 SUB DUP4 ADD DUP2 KECCAK256 SLOAD CALLER PUSH0 SWAP1 DUP2 MSTORE PUSH1 0xA SWAP1 SWAP5 MSTORE SWAP2 SWAP1 SWAP3 KECCAK256 SLOAD PUSH4 0x244E6ACB PUSH1 0xE2 SHL DUP4 MSTORE PUSH1 0x1 PUSH1 0x1 PUSH1 0x40 SHL SUB AND PUSH1 0x4 DUP4 ADD MSTORE PUSH1 0x1 PUSH1 0x1 PUSH1 0xA0 SHL SUB DUP5 DUP2 AND PUSH1 0x24 DUP5 ADD MSTORE AND SWAP1 PUSH4 0x9139AB2C SWAP1 PUSH1 0x44 ADD PUSH2 0xF3F JUMP JUMPDEST PUSH2 0x165D PUSH2 0x16A9 JUMP JUMPDEST PUSH2 0x1665 PUSH2 0x1667 JUMP JUMPDEST JUMP JUMPDEST PUSH2 0x1673 PUSH1 0x12 PUSH1 0xA PUSH2 0x276E JUMP JUMPDEST PUSH1 0x7 SLOAD PUSH2 0x1680 SWAP2 SWAP1 PUSH2 0x277C JUMP JUMPDEST PUSH1 0x3 SLOAD LT ISZERO PUSH2 0x1665 JUMPI PUSH2 0x1665 ADDRESS PUSH2 0x1699 PUSH1 0x12 PUSH1 0xA PUSH2 0x276E JUMP JUMPDEST PUSH2 0x16A4 SWAP1 PUSH1 0x1 PUSH2 0x277C JUMP JUMPDEST PUSH2 0x1D9D JUMP JUMPDEST PUSH2 0x16B2 CALLER PUSH2 0xF80 JUMP JUMPDEST ISZERO DUP1 ISZERO PUSH2 0x16C5 JUMPI POP PUSH2 0x16C3 ORIGIN PUSH2 0xF80 JUMP JUMPDEST ISZERO JUMPDEST ISZERO PUSH2 0x1665 JUMPI ORIGIN CALLER ADDRESS PUSH1 0x40 MLOAD PUSH4 0xBE6BAB5 PUSH1 0xE0 SHL DUP2 MSTORE PUSH1 0x4 ADD PUSH2 0x534 SWAP4 SWAP3 SWAP2 SWAP1 PUSH2 0x29C9 JUMP JUMPDEST PUSH2 0x16F1 PUSH2 0x1F61 JUMP JUMPDEST PUSH1 0x9 PUSH0 SWAP1 SLOAD SWAP1 PUSH2 0x100 EXP SWAP1 DIV PUSH1 0x1 PUSH1 0x1 PUSH1 0xA0 SHL SUB AND PUSH1 0x1 PUSH1 0x1 PUSH1 0xA0 SHL SUB AND PUSH4 0x76FADE90 PUSH1 0x40 MLOAD DUP2 PUSH4 0xFFFFFFFF AND PUSH1 0xE0 SHL DUP2 MSTORE PUSH1 0x4 ADD PUSH1 0x20 PUSH1 0x40 MLOAD DUP1 DUP4 SUB DUP2 PUSH0 DUP8 GAS CALL ISZERO DUP1 ISZERO PUSH2 0x1742 JUMPI RETURNDATASIZE PUSH0 PUSH0 RETURNDATACOPY RETURNDATASIZE PUSH0 REVERT JUMPDEST POP POP POP POP PUSH1 0x40 MLOAD RETURNDATASIZE PUSH1 0x1F NOT PUSH1 0x1F DUP3 ADD AND DUP3 ADD DUP1 PUSH1 0x40 MSTORE POP DUP2 ADD SWAP1 PUSH2 0x1766 SWAP2 SWAP1 PUSH2 0x25FC JUMP JUMPDEST PUSH1 0x1 PUSH1 0x1 PUSH1 0xA0 SHL SUB AND PUSH4 0xB5095168 PUSH1 0x40 MLOAD DUP2 PUSH4 0xFFFFFFFF AND PUSH1 0xE0 SHL DUP2 MSTORE PUSH1 0x4 ADD PUSH1 0x20 PUSH1 0x40 MLOAD DUP1 DUP4 SUB DUP2 PUSH0 DUP8 GAS CALL ISZERO DUP1 ISZERO PUSH2 0x17A2 JUMPI RETURNDATASIZE PUSH0 PUSH0 RETURNDATACOPY RETURNDATASIZE PUSH0 REVERT JUMPDEST POP POP POP POP PUSH1 0x40 MLOAD RETURNDATASIZE PUSH1 0x1F NOT PUSH1 0x1F DUP3 ADD AND DUP3 ADD DUP1 PUSH1 0x40 MSTORE POP DUP2 ADD SWAP1 PUSH2 0x17C6 SWAP2 SWAP1 PUSH2 0x25FC JUMP JUMPDEST PUSH1 0x1 PUSH1 0x1 PUSH1 0xA0 SHL SUB AND PUSH4 0x4CDE872D PUSH1 0x40 MLOAD DUP2 PUSH4 0xFFFFFFFF AND PUSH1 0xE0 SHL DUP2 MSTORE PUSH1 0x4 ADD PUSH1 0x20 PUSH1 0x40 MLOAD DUP1 DUP4 SUB DUP2 PUSH0 DUP8 GAS CALL ISZERO DUP1 ISZERO PUSH2 0x1802 JUMPI RETURNDATASIZE PUSH0 PUSH0 RETURNDATACOPY RETURNDATASIZE PUSH0 REVERT JUMPDEST POP POP POP POP PUSH1 0x40 MLOAD RETURNDATASIZE PUSH1 0x1F NOT PUSH1 0x1F DUP3 ADD AND DUP3 ADD DUP1 PUSH1 0x40 MSTORE POP DUP2 ADD SWAP1 PUSH2 0x1826 SWAP2 SWAP1 PUSH2 0x25FC JUMP JUMPDEST PUSH1 0x1 PUSH1 0x1 PUSH1 0xA0 SHL SUB AND PUSH4 0x140C2FB5 PUSH1 0x40 MLOAD DUP2 PUSH4 0xFFFFFFFF AND PUSH1 0xE0 SHL DUP2 MSTORE PUSH1 0x4 ADD PUSH1 0x20 PUSH1 0x40 MLOAD DUP1 DUP4 SUB DUP2 PUSH0 DUP8 GAS CALL ISZERO DUP1 ISZERO PUSH2 0x1862 JUMPI RETURNDATASIZE PUSH0 PUSH0 RETURNDATACOPY RETURNDATASIZE PUSH0 REVERT JUMPDEST POP POP POP POP PUSH1 0x40 MLOAD RETURNDATASIZE PUSH1 0x1F NOT PUSH1 0x1F DUP3 ADD AND DUP3 ADD DUP1 PUSH1 0x40 MSTORE POP DUP2 ADD SWAP1 PUSH2 0x1886 SWAP2 SWAP1 PUSH2 0x25FC JUMP JUMPDEST PUSH1 0x40 MLOAD PUSH4 0x2213C7D PUSH1 0xE1 SHL DUP2 MSTORE PUSH1 0x1 PUSH1 0x1 PUSH1 0x40 SHL SUB DUP5 AND PUSH1 0x4 DUP3 ADD MSTORE PUSH1 0x1 PUSH1 0x1 PUSH1 0xA0 SHL SUB SWAP2 SWAP1 SWAP2 AND SWAP1 PUSH4 0x44278FA SWAP1 PUSH1 0x24 ADD PUSH2 0x100 PUSH1 0x40 MLOAD DUP1 DUP4 SUB DUP2 PUSH0 DUP8 GAS CALL ISZERO DUP1 ISZERO PUSH2 0x18D5 JUMPI RETURNDATASIZE PUSH0 PUSH0 RETURNDATACOPY RETURNDATASIZE PUSH0 REVERT JUMPDEST POP POP POP POP PUSH1 0x40 MLOAD RETURNDATASIZE PUSH1 0x1F NOT PUSH1 0x1F DUP3 ADD AND DUP3 ADD DUP1 PUSH1 0x40 MSTORE POP DUP2 ADD SWAP1 PUSH2 0x792 SWAP2 SWAP1 PUSH2 0x2B8B JUMP JUMPDEST PUSH2 0x77A DUP4 DUP4 DUP4 PUSH1 0x1 PUSH2 0x1DA8 JUMP JUMPDEST CALLER PUSH0 SWAP1 DUP2 MSTORE PUSH1 0xA PUSH1 0x20 SWAP1 DUP2 MSTORE PUSH1 0x40 SWAP2 DUP3 SWAP1 KECCAK256 SLOAD DUP5 MLOAD SWAP2 DUP6 ADD SWAP2 SWAP1 SWAP2 KECCAK256 SWAP2 MLOAD PUSH4 0x5A484F55 PUSH1 0xE0 SHL DUP2 MSTORE PUSH1 0x1 PUSH1 0x1 PUSH1 0x40 SHL SUB SWAP1 SWAP2 AND SWAP2 SWAP1 PUSH1 0xB SWAP1 PUSH1 0x4 ADD SWAP1 DUP2 MSTORE PUSH1 0x20 ADD PUSH1 0x40 MLOAD DUP1 SWAP2 SUB SWAP1 KECCAK256 SLOAD DUP2 SUB PUSH2 0x1BC1 JUMPI PUSH1 0x9 SLOAD PUSH1 0x40 DUP1 MLOAD PUSH4 0x76FADE9 PUSH1 0xE4 SHL DUP2 MSTORE SWAP1 MLOAD PUSH2 0x1AE9 SWAP3 PUSH1 0x1 PUSH1 0x1 PUSH1 0xA0 SHL SUB AND SWAP2 PUSH4 0x76FADE90 SWAP2 PUSH1 0x4 DUP1 DUP4 ADD SWAP3 PUSH1 0x20 SWAP3 SWAP2 SWAP1 DUP3 SWAP1 SUB ADD DUP2 PUSH0 DUP8 GAS CALL ISZERO DUP1 ISZERO PUSH2 0x19A0 JUMPI RETURNDATASIZE PUSH0 PUSH0 RETURNDATACOPY RETURNDATASIZE PUSH0 REVERT JUMPDEST POP POP POP POP PUSH1 0x40 MLOAD RETURNDATASIZE PUSH1 0x1F NOT PUSH1 0x1F DUP3 ADD AND DUP3 ADD DUP1 PUSH1 0x40 MSTORE POP DUP2 ADD SWAP1 PUSH2 0x19C4 SWAP2 SWAP1 PUSH2 0x25FC JUMP JUMPDEST PUSH1 0x1 PUSH1 0x1 PUSH1 0xA0 SHL SUB AND PUSH4 0xB5095168 PUSH1 0x40 MLOAD DUP2 PUSH4 0xFFFFFFFF AND PUSH1 0xE0 SHL DUP2 MSTORE PUSH1 0x4 ADD PUSH1 0x20 PUSH1 0x40 MLOAD DUP1 DUP4 SUB DUP2 PUSH0 DUP8 GAS CALL ISZERO DUP1 ISZERO PUSH2 0x1A00 JUMPI RETURNDATASIZE PUSH0 PUSH0 RETURNDATACOPY RETURNDATASIZE PUSH0 REVERT JUMPDEST POP POP POP POP PUSH1 0x40 MLOAD RETURNDATASIZE PUSH1 0x1F NOT PUSH1 0x1F DUP3 ADD AND DUP3 ADD DUP1 PUSH1 0x40 MSTORE POP DUP2 ADD SWAP1 PUSH2 0x1A24 SWAP2 SWAP1 PUSH2 0x25FC JUMP JUMPDEST PUSH1 0x1 PUSH1 0x1 PUSH1 0xA0 SHL SUB AND PUSH4 0x4CDE872D PUSH1 0x40 MLOAD DUP2 PUSH4 0xFFFFFFFF AND PUSH1 0xE0 SHL DUP2 MSTORE PUSH1 0x4 ADD PUSH1 0x20 PUSH1 0x40 MLOAD DUP1 DUP4 SUB DUP2 PUSH0 DUP8 GAS CALL ISZERO DUP1 ISZERO PUSH2 0x1A60 JUMPI RETURNDATASIZE PUSH0 PUSH0 RETURNDATACOPY RETURNDATASIZE PUSH0 REVERT JUMPDEST POP POP POP POP PUSH1 0x40 MLOAD RETURNDATASIZE PUSH1 0x1F NOT PUSH1 0x1F DUP3 ADD AND DUP3 ADD DUP1 PUSH1 0x40 MSTORE POP DUP2 ADD SWAP1 PUSH2 0x1A84 SWAP2 SWAP1 PUSH2 0x25FC JUMP JUMPDEST PUSH1 0x1 PUSH1 0x1 PUSH1 0xA0 SHL SUB AND PUSH4 0xA12204B0 PUSH1 0x40 MLOAD DUP2 PUSH4 0xFFFFFFFF AND PUSH1 0xE0 SHL DUP2 MSTORE PUSH1 0x4 ADD PUSH1 0x20 PUSH1 0x40 MLOAD DUP1 DUP4 SUB DUP2 PUSH0 DUP8 GAS CALL ISZERO DUP1 ISZERO PUSH2 0x1AC0 JUMPI RETURNDATASIZE PUSH0 PUSH0 RETURNDATACOPY RETURNDATASIZE PUSH0 REVERT JUMPDEST POP POP POP POP PUSH1 0x40 MLOAD RETURNDATASIZE PUSH1 0x1F NOT PUSH1 0x1F DUP3 ADD AND DUP3 ADD DUP1 PUSH1 0x40 MSTORE POP DUP2 ADD SWAP1 PUSH2 0x1AE4 SWAP2 SWAP1 PUSH2 0x25B1 JUMP JUMPDEST PUSH2 0x16E9 JUMP JUMPDEST PUSH1 0x80 ADD MLOAD PUSH1 0x1 PUSH1 0x1 PUSH1 0xA0 SHL SUB AND PUSH4 0xDAEEE482 DUP4 PUSH1 0x9 PUSH0 SWAP1 SLOAD SWAP1 PUSH2 0x100 EXP SWAP1 DIV PUSH1 0x1 PUSH1 0x1 PUSH1 0xA0 SHL SUB AND PUSH1 0x1 PUSH1 0x1 PUSH1 0xA0 SHL SUB AND PUSH4 0x27BACC40 PUSH1 0x40 MLOAD DUP2 PUSH4 0xFFFFFFFF AND PUSH1 0xE0 SHL DUP2 MSTORE PUSH1 0x4 ADD PUSH1 0x20 PUSH1 0x40 MLOAD DUP1 DUP4 SUB DUP2 DUP7 GAS STATICCALL ISZERO DUP1 ISZERO PUSH2 0x1B4C JUMPI RETURNDATASIZE PUSH0 PUSH0 RETURNDATACOPY RETURNDATASIZE PUSH0 REVERT JUMPDEST POP POP POP POP PUSH1 0x40 MLOAD RETURNDATASIZE PUSH1 0x1F NOT PUSH1 0x1F DUP3 ADD AND DUP3 ADD DUP1 PUSH1 0x40 MSTORE POP DUP2 ADD SWAP1 PUSH2 0x1B70 SWAP2 SWAP1 PUSH2 0x25B1 JUMP JUMPDEST DUP7 PUSH1 0x40 MLOAD DUP5 PUSH4 0xFFFFFFFF AND PUSH1 0xE0 SHL DUP2 MSTORE PUSH1 0x4 ADD PUSH2 0x1B8F SWAP4 SWAP3 SWAP2 SWAP1 PUSH2 0x25CC JUMP JUMPDEST PUSH0 PUSH1 0x40 MLOAD DUP1 DUP4 SUB DUP2 PUSH0 DUP8 DUP1 EXTCODESIZE ISZERO DUP1 ISZERO PUSH2 0x1BA6 JUMPI PUSH0 PUSH0 REVERT JUMPDEST POP GAS CALL ISZERO DUP1 ISZERO PUSH2 0x1BB8 JUMPI RETURNDATASIZE PUSH0 PUSH0 RETURNDATACOPY RETURNDATASIZE PUSH0 REVERT JUMPDEST POP POP POP POP PUSH2 0x1CE0 JUMP JUMPDEST PUSH1 0x40 MLOAD PUSH4 0x59414E47 PUSH1 0xE0 SHL DUP2 MSTORE PUSH1 0xB SWAP1 PUSH1 0x4 ADD SWAP1 DUP2 MSTORE PUSH1 0x20 ADD PUSH1 0x40 MLOAD DUP1 SWAP2 SUB SWAP1 KECCAK256 SLOAD DUP2 SUB PUSH2 0x1CC5 JUMPI PUSH1 0x9 SLOAD PUSH1 0x40 DUP1 MLOAD PUSH4 0x76FADE9 PUSH1 0xE4 SHL DUP2 MSTORE SWAP1 MLOAD PUSH2 0x1AE9 SWAP3 PUSH1 0x1 PUSH1 0x1 PUSH1 0xA0 SHL SUB AND SWAP2 PUSH4 0x76FADE90 SWAP2 PUSH1 0x4 DUP1 DUP4 ADD SWAP3 PUSH1 0x20 SWAP3 SWAP2 SWAP1 DUP3 SWAP1 SUB ADD DUP2 PUSH0 DUP8 GAS CALL ISZERO DUP1 ISZERO PUSH2 0x1C33 JUMPI RETURNDATASIZE PUSH0 PUSH0 RETURNDATACOPY RETURNDATASIZE PUSH0 REVERT JUMPDEST POP POP POP POP PUSH1 0x40 MLOAD RETURNDATASIZE PUSH1 0x1F NOT PUSH1 0x1F DUP3 ADD AND DUP3 ADD DUP1 PUSH1 0x40 MSTORE POP DUP2 ADD SWAP1 PUSH2 0x1C57 SWAP2 SWAP1 PUSH2 0x25FC JUMP JUMPDEST PUSH1 0x1 PUSH1 0x1 PUSH1 0xA0 SHL SUB AND PUSH4 0xA4566950 PUSH1 0x40 MLOAD DUP2 PUSH4 0xFFFFFFFF AND PUSH1 0xE0 SHL DUP2 MSTORE PUSH1 0x4 ADD PUSH2 0x300 PUSH1 0x40 MLOAD DUP1 DUP4 SUB DUP2 PUSH0 DUP8 GAS CALL ISZERO DUP1 ISZERO PUSH2 0x1C94 JUMPI RETURNDATASIZE PUSH0 PUSH0 RETURNDATACOPY RETURNDATASIZE PUSH0 REVERT JUMPDEST POP POP POP POP PUSH1 0x40 MLOAD RETURNDATASIZE PUSH1 0x1F NOT PUSH1 0x1F DUP3 ADD AND DUP3 ADD DUP1 PUSH1 0x40 MSTORE POP DUP2 ADD SWAP1 PUSH2 0x1CB8 SWAP2 SWAP1 PUSH2 0x2BA6 JUMP JUMPDEST PUSH1 0x20 ADD MLOAD PUSH1 0x40 ADD MLOAD PUSH2 0x16E9 JUMP JUMPDEST DUP4 PUSH1 0x40 MLOAD PUSH4 0x198E0DBF PUSH1 0xE0 SHL DUP2 MSTORE PUSH1 0x4 ADD PUSH2 0x534 SWAP2 SWAP1 PUSH2 0x2139 JUMP JUMPDEST PUSH2 0x1CE8 PUSH2 0x1667 JUMP JUMPDEST POP POP POP POP JUMP JUMPDEST PUSH0 PUSH2 0x1CF9 DUP5 DUP5 PUSH2 0x141B JUMP JUMPDEST SWAP1 POP PUSH0 NOT DUP2 EQ PUSH2 0x1CE8 JUMPI DUP2 DUP2 LT ISZERO PUSH2 0x1D31 JUMPI ORIGIN CALLER DUP6 DUP6 ADDRESS DUP6 DUP8 PUSH1 0x40 MLOAD PUSH3 0xB83D19 PUSH1 0xE2 SHL DUP2 MSTORE PUSH1 0x4 ADD PUSH2 0x534 SWAP8 SWAP7 SWAP6 SWAP5 SWAP4 SWAP3 SWAP2 SWAP1 PUSH2 0x2BFA JUMP JUMPDEST PUSH2 0x1CE8 DUP5 DUP5 DUP5 DUP5 SUB PUSH0 PUSH2 0x1DA8 JUMP JUMPDEST PUSH2 0x77A DUP4 DUP4 DUP4 PUSH2 0x1E28 JUMP JUMPDEST PUSH1 0x1 PUSH1 0x1 PUSH1 0xA0 SHL SUB DUP3 AND PUSH0 DUP2 DUP2 MSTORE PUSH1 0x20 DUP2 SWAP1 MSTORE PUSH1 0x40 DUP1 DUP3 KECCAK256 DUP1 SLOAD PUSH1 0xFF NOT AND DUP6 ISZERO ISZERO SWAP1 DUP2 OR SWAP1 SWAP2 SSTORE SWAP1 MLOAD SWAP1 SWAP3 SWAP2 PUSH32 0x6BFA7E860C3E9BF67B810CB88276B19B27C972812BAC04793D369B59A1183A83 SWAP2 LOG3 POP POP JUMP JUMPDEST PUSH2 0x5D9 PUSH0 DUP4 DUP4 PUSH2 0x1E28 JUMP JUMPDEST PUSH1 0x1 PUSH1 0x1 PUSH1 0xA0 SHL SUB DUP1 DUP6 AND PUSH0 SWAP1 DUP2 MSTORE PUSH1 0x2 PUSH1 0x20 SWAP1 DUP2 MSTORE PUSH1 0x40 DUP1 DUP4 KECCAK256 SWAP4 DUP8 AND DUP4 MSTORE SWAP3 SWAP1 MSTORE KECCAK256 DUP3 SWAP1 SSTORE DUP1 ISZERO PUSH2 0x1CE8 JUMPI DUP3 PUSH1 0x1 PUSH1 0x1 PUSH1 0xA0 SHL SUB AND DUP5 PUSH1 0x1 PUSH1 0x1 PUSH1 0xA0 SHL SUB AND PUSH32 0x8C5BE1E5EBEC7D5BD14F71427D1E84F3DD0314C0F7B2291E5B200AC8C7C3B925 DUP5 PUSH1 0x40 MLOAD PUSH2 0x1E1A SWAP2 DUP2 MSTORE PUSH1 0x20 ADD SWAP1 JUMP JUMPDEST PUSH1 0x40 MLOAD DUP1 SWAP2 SUB SWAP1 LOG3 POP POP POP POP JUMP JUMPDEST PUSH1 0x1 PUSH1 0x1 PUSH1 0xA0 SHL SUB DUP4 AND PUSH2 0x1E52 JUMPI DUP1 PUSH1 0x3 PUSH0 DUP3 DUP3 SLOAD PUSH2 0x1E47 SWAP2 SWAP1 PUSH2 0x2C3D JUMP JUMPDEST SWAP1 SWAP2 SSTORE POP PUSH2 0x1EB7 SWAP1 POP JUMP JUMPDEST PUSH1 0x1 PUSH1 0x1 PUSH1 0xA0 SHL SUB DUP4 AND PUSH0 SWAP1 DUP2 MSTORE PUSH1 0x1 PUSH1 0x20 MSTORE PUSH1 0x40 SWAP1 KECCAK256 SLOAD DUP2 DUP2 LT ISZERO PUSH2 0x1E99 JUMPI ORIGIN CALLER DUP6 DUP6 ADDRESS DUP6 DUP8 PUSH1 0x40 MLOAD PUSH4 0xF7D0BBD PUSH1 0xE2 SHL DUP2 MSTORE PUSH1 0x4 ADD PUSH2 0x534 SWAP8 SWAP7 SWAP6 SWAP5 SWAP4 SWAP3 SWAP2 SWAP1 PUSH2 0x2BFA JUMP JUMPDEST PUSH1 0x1 PUSH1 0x1 PUSH1 0xA0 SHL SUB DUP5 AND PUSH0 SWAP1 DUP2 MSTORE PUSH1 0x1 PUSH1 0x20 MSTORE PUSH1 0x40 SWAP1 KECCAK256 SWAP1 DUP3 SWAP1 SUB SWAP1 SSTORE JUMPDEST PUSH1 0x1 PUSH1 0x1 PUSH1 0xA0 SHL SUB DUP3 AND PUSH2 0x1ED3 JUMPI PUSH1 0x3 DUP1 SLOAD DUP3 SWAP1 SUB SWAP1 SSTORE PUSH2 0x1EF1 JUMP JUMPDEST PUSH1 0x1 PUSH1 0x1 PUSH1 0xA0 SHL SUB DUP3 AND PUSH0 SWAP1 DUP2 MSTORE PUSH1 0x1 PUSH1 0x20 MSTORE PUSH1 0x40 SWAP1 KECCAK256 DUP1 SLOAD DUP3 ADD SWAP1 SSTORE JUMPDEST DUP2 PUSH1 0x1 PUSH1 0x1 PUSH1 0xA0 SHL SUB AND DUP4 PUSH1 0x1 PUSH1 0x1 PUSH1 0xA0 SHL SUB AND PUSH32 0xDDF252AD1BE2C89B69C2B068FC378DAA952BA7F163C4A11628F55A4DF523B3EF DUP4 PUSH1 0x40 MLOAD PUSH2 0x1F36 SWAP2 DUP2 MSTORE PUSH1 0x20 ADD SWAP1 JUMP JUMPDEST PUSH1 0x40 MLOAD DUP1 SWAP2 SUB SWAP1 LOG3 POP POP POP JUMP JUMPDEST PUSH1 0x40 MLOAD DUP1 PUSH1 0x60 ADD PUSH1 0x40 MSTORE DUP1 PUSH1 0x3 SWAP1 PUSH1 0x20 DUP3 MUL DUP1 CALLDATASIZE DUP4 CALLDATACOPY POP SWAP2 SWAP3 SWAP2 POP POP JUMP JUMPDEST PUSH1 0x40 DUP1 MLOAD PUSH2 0x100 DUP2 ADD DUP3 MSTORE PUSH0 DUP1 DUP3 MSTORE PUSH1 0x20 DUP3 ADD DUP2 SWAP1 MSTORE SWAP2 DUP2 ADD DUP3 SWAP1 MSTORE PUSH1 0x60 DUP2 ADD DUP3 SWAP1 MSTORE PUSH1 0x80 DUP2 ADD DUP3 SWAP1 MSTORE PUSH1 0xA0 DUP2 ADD DUP3 SWAP1 MSTORE PUSH1 0xC0 DUP2 ADD DUP3 SWAP1 MSTORE PUSH1 0xE0 DUP2 ADD SWAP2 SWAP1 SWAP2 MSTORE SWAP1 JUMP JUMPDEST PUSH1 0x1 PUSH1 0x1 PUSH1 0xA0 SHL SUB DUP2 AND DUP2 EQ PUSH2 0xED5 JUMPI PUSH0 PUSH0 REVERT JUMPDEST PUSH4 0x4E487B71 PUSH1 0xE0 SHL PUSH0 MSTORE PUSH1 0x41 PUSH1 0x4 MSTORE PUSH1 0x24 PUSH0 REVERT JUMPDEST PUSH1 0x40 MLOAD PUSH2 0x100 DUP2 ADD PUSH1 0x1 PUSH1 0x1 PUSH1 0x40 SHL SUB DUP2 GT DUP3 DUP3 LT OR ISZERO PUSH2 0x1FEF JUMPI PUSH2 0x1FEF PUSH2 0x1FB8 JUMP JUMPDEST PUSH1 0x40 MSTORE SWAP1 JUMP JUMPDEST PUSH1 0x40 MLOAD PUSH1 0x60 DUP2 ADD PUSH1 0x1 PUSH1 0x1 PUSH1 0x40 SHL SUB DUP2 GT DUP3 DUP3 LT OR ISZERO PUSH2 0x1FEF JUMPI PUSH2 0x1FEF PUSH2 0x1FB8 JUMP JUMPDEST PUSH1 0x40 MLOAD PUSH1 0x1F DUP3 ADD PUSH1 0x1F NOT AND DUP2 ADD PUSH1 0x1 PUSH1 0x1 PUSH1 0x40 SHL SUB DUP2 GT DUP3 DUP3 LT OR ISZERO PUSH2 0x203F JUMPI PUSH2 0x203F PUSH2 0x1FB8 JUMP JUMPDEST PUSH1 0x40 MSTORE SWAP2 SWAP1 POP JUMP JUMPDEST PUSH0 PUSH1 0x1 PUSH1 0x1 PUSH1 0x40 SHL SUB DUP3 GT ISZERO PUSH2 0x205F JUMPI PUSH2 0x205F PUSH2 0x1FB8 JUMP JUMPDEST POP PUSH1 0x1F ADD PUSH1 0x1F NOT AND PUSH1 0x20 ADD SWAP1 JUMP JUMPDEST PUSH0 DUP3 PUSH1 0x1F DUP4 ADD SLT PUSH2 0x207C JUMPI PUSH0 PUSH0 REVERT JUMPDEST DUP2 CALLDATALOAD PUSH2 0x208F PUSH2 0x208A DUP3 PUSH2 0x2047 JUMP JUMPDEST PUSH2 0x2017 JUMP JUMPDEST DUP2 DUP2 MSTORE DUP5 PUSH1 0x20 DUP4 DUP7 ADD ADD GT ISZERO PUSH2 0x20A3 JUMPI PUSH0 PUSH0 REVERT JUMPDEST DUP2 PUSH1 0x20 DUP6 ADD PUSH1 0x20 DUP4 ADD CALLDATACOPY PUSH0 SWAP2 DUP2 ADD PUSH1 0x20 ADD SWAP2 SWAP1 SWAP2 MSTORE SWAP4 SWAP3 POP POP POP JUMP JUMPDEST PUSH0 PUSH0 PUSH1 0x40 DUP4 DUP6 SUB SLT ISZERO PUSH2 0x20D0 JUMPI PUSH0 PUSH0 REVERT JUMPDEST DUP3 CALLDATALOAD PUSH2 0x20DB DUP2 PUSH2 0x1FA4 JUMP JUMPDEST SWAP2 POP PUSH1 0x20 DUP4 ADD CALLDATALOAD PUSH1 0x1 PUSH1 0x1 PUSH1 0x40 SHL SUB DUP2 GT ISZERO PUSH2 0x20F5 JUMPI PUSH0 PUSH0 REVERT JUMPDEST PUSH2 0x2101 DUP6 DUP3 DUP7 ADD PUSH2 0x206D JUMP JUMPDEST SWAP2 POP POP SWAP3 POP SWAP3 SWAP1 POP JUMP JUMPDEST PUSH0 DUP2 MLOAD DUP1 DUP5 MSTORE DUP1 PUSH1 0x20 DUP5 ADD PUSH1 0x20 DUP7 ADD MCOPY PUSH0 PUSH1 0x20 DUP3 DUP7 ADD ADD MSTORE PUSH1 0x20 PUSH1 0x1F NOT PUSH1 0x1F DUP4 ADD AND DUP6 ADD ADD SWAP2 POP POP SWAP3 SWAP2 POP POP JUMP JUMPDEST PUSH1 0x20 DUP2 MSTORE PUSH0 PUSH2 0xD09 PUSH1 0x20 DUP4 ADD DUP5 PUSH2 0x210B JUMP JUMPDEST PUSH0 PUSH0 PUSH1 0x40 DUP4 DUP6 SUB SLT ISZERO PUSH2 0x215C JUMPI PUSH0 PUSH0 REVERT JUMPDEST DUP3 CALLDATALOAD PUSH2 0x2167 DUP2 PUSH2 0x1FA4 JUMP JUMPDEST SWAP5 PUSH1 0x20 SWAP4 SWAP1 SWAP4 ADD CALLDATALOAD SWAP4 POP POP POP JUMP JUMPDEST DUP1 MLOAD PUSH1 0x1 PUSH1 0x1 PUSH1 0xA0 SHL SUB SWAP1 DUP2 AND DUP4 MSTORE PUSH1 0x20 DUP1 DUP4 ADD MLOAD SWAP1 SWAP2 AND SWAP1 DUP4 ADD MSTORE PUSH1 0x40 DUP1 DUP3 ADD MLOAD PUSH1 0x1 PUSH1 0x1 PUSH1 0x40 SHL SUB AND SWAP1 DUP4 ADD MSTORE PUSH1 0x60 DUP1 DUP3 ADD MLOAD SWAP1 PUSH2 0x21BF SWAP1 DUP5 ADD DUP3 PUSH1 0x1 PUSH1 0x1 PUSH1 0x40 SHL SUB AND SWAP1 MSTORE JUMP JUMPDEST POP PUSH1 0x80 DUP2 ADD MLOAD PUSH2 0x21DA PUSH1 0x80 DUP5 ADD DUP3 PUSH1 0x1 PUSH1 0x1 PUSH1 0xA0 SHL SUB AND SWAP1 MSTORE JUMP JUMPDEST POP PUSH1 0xA0 DUP2 ADD MLOAD PUSH2 0x21F5 PUSH1 0xA0 DUP5 ADD DUP3 PUSH1 0x1 PUSH1 0x1 PUSH1 0x40 SHL SUB AND SWAP1 MSTORE JUMP JUMPDEST POP PUSH1 0xC0 DUP2 ADD MLOAD PUSH2 0x2210 PUSH1 0xC0 DUP5 ADD DUP3 PUSH1 0x1 PUSH1 0x1 PUSH1 0x40 SHL SUB AND SWAP1 MSTORE JUMP JUMPDEST POP PUSH1 0xE0 DUP2 ADD MLOAD PUSH2 0x77A PUSH1 0xE0 DUP5 ADD DUP3 PUSH1 0x1 PUSH1 0x1 PUSH1 0x40 SHL SUB AND SWAP1 MSTORE JUMP JUMPDEST PUSH2 0x160 DUP2 ADD DUP2 DUP5 PUSH0 JUMPDEST PUSH1 0x3 DUP2 LT ISZERO PUSH2 0x225C JUMPI DUP2 MLOAD PUSH1 0x1 PUSH1 0x1 PUSH1 0x40 SHL SUB AND DUP4 MSTORE PUSH1 0x20 SWAP3 DUP4 ADD SWAP3 SWAP1 SWAP2 ADD SWAP1 PUSH1 0x1 ADD PUSH2 0x2234 JUMP JUMPDEST POP POP POP PUSH2 0xD09 PUSH1 0x60 DUP4 ADD DUP5 PUSH2 0x2175 JUMP JUMPDEST PUSH0 PUSH1 0x20 DUP3 DUP5 SUB SLT ISZERO PUSH2 0x227C JUMPI PUSH0 PUSH0 REVERT JUMPDEST DUP2 CALLDATALOAD PUSH1 0x1 PUSH1 0x1 PUSH1 0x40 SHL SUB DUP2 GT ISZERO PUSH2 0x2291 JUMPI PUSH0 PUSH0 REVERT JUMPDEST PUSH2 0x229D DUP5 DUP3 DUP6 ADD PUSH2 0x206D JUMP JUMPDEST SWAP5 SWAP4 POP POP POP POP JUMP JUMPDEST PUSH0 PUSH0 PUSH0 PUSH1 0x60 DUP5 DUP7 SUB SLT ISZERO PUSH2 0x22B7 JUMPI PUSH0 PUSH0 REVERT JUMPDEST DUP4 CALLDATALOAD PUSH2 0x22C2 DUP2 PUSH2 0x1FA4 JUMP JUMPDEST SWAP3 POP PUSH1 0x20 DUP5 ADD CALLDATALOAD PUSH2 0x22D2 DUP2 PUSH2 0x1FA4 JUMP JUMPDEST SWAP3 SWAP6 SWAP3 SWAP5 POP POP POP PUSH1 0x40 SWAP2 SWAP1 SWAP2 ADD CALLDATALOAD SWAP1 JUMP JUMPDEST PUSH0 PUSH1 0x20 DUP3 DUP5 SUB SLT ISZERO PUSH2 0x22F3 JUMPI PUSH0 PUSH0 REVERT JUMPDEST DUP2 CALLDATALOAD PUSH2 0xD09 DUP2 PUSH2 0x1FA4 JUMP JUMPDEST DUP1 CALLDATALOAD PUSH2 0x2309 DUP2 PUSH2 0x1FA4 JUMP JUMPDEST SWAP2 SWAP1 POP JUMP JUMPDEST PUSH1 0x1 PUSH1 0x1 PUSH1 0x40 SHL SUB DUP2 AND DUP2 EQ PUSH2 0xED5 JUMPI PUSH0 PUSH0 REVERT JUMPDEST DUP1 CALLDATALOAD PUSH2 0x2309 DUP2 PUSH2 0x230E JUMP JUMPDEST PUSH0 PUSH2 0x100 DUP3 DUP5 SUB SLT ISZERO PUSH2 0x233E JUMPI PUSH0 PUSH0 REVERT JUMPDEST PUSH2 0x2346 PUSH2 0x1FCC JUMP JUMPDEST SWAP1 POP DUP2 CALLDATALOAD PUSH2 0x2353 DUP2 PUSH2 0x1FA4 JUMP JUMPDEST DUP2 MSTORE PUSH2 0x2361 PUSH1 0x20 DUP4 ADD PUSH2 0x22FE JUMP JUMPDEST PUSH1 0x20 DUP3 ADD MSTORE PUSH2 0x2372 PUSH1 0x40 DUP4 ADD PUSH2 0x2322 JUMP JUMPDEST PUSH1 0x40 DUP3 ADD MSTORE PUSH2 0x2383 PUSH1 0x60 DUP4 ADD PUSH2 0x2322 JUMP JUMPDEST PUSH1 0x60 DUP3 ADD MSTORE PUSH2 0x2394 PUSH1 0x80 DUP4 ADD PUSH2 0x22FE JUMP JUMPDEST PUSH1 0x80 DUP3 ADD MSTORE PUSH2 0x23A5 PUSH1 0xA0 DUP4 ADD PUSH2 0x2322 JUMP JUMPDEST PUSH1 0xA0 DUP3 ADD MSTORE PUSH2 0x23B6 PUSH1 0xC0 DUP4 ADD PUSH2 0x2322 JUMP JUMPDEST PUSH1 0xC0 DUP3 ADD MSTORE PUSH2 0x23C7 PUSH1 0xE0 DUP4 ADD PUSH2 0x2322 JUMP JUMPDEST PUSH1 0xE0 DUP3 ADD MSTORE SWAP3 SWAP2 POP POP JUMP JUMPDEST PUSH0 PUSH2 0x100 DUP3 DUP5 SUB SLT ISZERO PUSH2 0x23E3 JUMPI PUSH0 PUSH0 REVERT JUMPDEST PUSH2 0xD09 DUP4 DUP4 PUSH2 0x232D JUMP JUMPDEST PUSH0 PUSH0 PUSH1 0x40 DUP4 DUP6 SUB SLT ISZERO PUSH2 0x23FE JUMPI PUSH0 PUSH0 REVERT JUMPDEST DUP3 CALLDATALOAD PUSH1 0x1 PUSH1 0x1 PUSH1 0x40 SHL SUB DUP2 GT ISZERO PUSH2 0x2413 JUMPI PUSH0 PUSH0 REVERT JUMPDEST PUSH2 0x241F DUP6 DUP3 DUP7 ADD PUSH2 0x206D JUMP JUMPDEST SWAP3 POP POP PUSH1 0x20 DUP4 ADD CALLDATALOAD PUSH1 0x1 PUSH1 0x1 PUSH1 0x40 SHL SUB DUP2 GT ISZERO PUSH2 0x20F5 JUMPI PUSH0 PUSH0 REVERT JUMPDEST PUSH1 0x1 PUSH1 0x1 PUSH1 0xA0 SHL SUB SWAP2 SWAP1 SWAP2 AND DUP2 MSTORE PUSH1 0x20 ADD SWAP1 JUMP JUMPDEST PUSH0 PUSH0 PUSH2 0x120 DUP4 DUP6 SUB SLT ISZERO PUSH2 0x2460 JUMPI PUSH0 PUSH0 REVERT JUMPDEST PUSH2 0x246A DUP5 DUP5 PUSH2 0x232D JUMP JUMPDEST SWAP2 POP PUSH2 0x100 DUP4 ADD CALLDATALOAD PUSH1 0x1 PUSH1 0x1 PUSH1 0x40 SHL SUB DUP2 GT ISZERO PUSH2 0x20F5 JUMPI PUSH0 PUSH0 REVERT JUMPDEST PUSH0 PUSH0 PUSH1 0x40 DUP4 DUP6 SUB SLT ISZERO PUSH2 0x2496 JUMPI PUSH0 PUSH0 REVERT JUMPDEST DUP3 CALLDATALOAD PUSH2 0x24A1 DUP2 PUSH2 0x1FA4 JUMP JUMPDEST SWAP2 POP PUSH1 0x20 DUP4 ADD CALLDATALOAD PUSH2 0x24B1 DUP2 PUSH2 0x1FA4 JUMP JUMPDEST DUP1 SWAP2 POP POP SWAP3 POP SWAP3 SWAP1 POP JUMP JUMPDEST PUSH0 PUSH0 PUSH1 0x40 DUP4 DUP6 SUB SLT ISZERO PUSH2 0x24CD JUMPI PUSH0 PUSH0 REVERT JUMPDEST DUP3 CALLDATALOAD PUSH1 0x1 PUSH1 0x1 PUSH1 0x40 SHL SUB DUP2 GT ISZERO PUSH2 0x24E2 JUMPI PUSH0 PUSH0 REVERT JUMPDEST PUSH2 0x24EE DUP6 DUP3 DUP7 ADD PUSH2 0x206D JUMP JUMPDEST SWAP3 POP POP PUSH1 0x20 DUP4 ADD CALLDATALOAD PUSH2 0x24B1 DUP2 PUSH2 0x1FA4 JUMP JUMPDEST PUSH0 PUSH0 PUSH1 0x40 DUP4 DUP6 SUB SLT ISZERO PUSH2 0x2510 JUMPI PUSH0 PUSH0 REVERT JUMPDEST DUP3 CALLDATALOAD PUSH2 0x20DB DUP2 PUSH2 0x230E JUMP JUMPDEST PUSH12 0x6C6962617474726962757465 PUSH1 0xA0 SHL DUP2 MSTORE PUSH1 0xC ADD SWAP1 JUMP JUMPDEST PUSH1 0x1 PUSH1 0x1 PUSH1 0x40 SHL SUB DUP5 AND DUP2 MSTORE PUSH1 0x1 PUSH1 0x1 PUSH1 0xA0 SHL SUB DUP4 AND PUSH1 0x20 DUP3 ADD MSTORE PUSH1 0x60 PUSH1 0x40 DUP3 ADD DUP2 SWAP1 MSTORE PUSH0 SWAP1 PUSH2 0x2565 SWAP1 DUP4 ADD DUP5 PUSH2 0x210B JUMP JUMPDEST SWAP6 SWAP5 POP POP POP POP POP JUMP JUMPDEST PUSH1 0x1 DUP2 DUP2 SHR SWAP1 DUP3 AND DUP1 PUSH2 0x2582 JUMPI PUSH1 0x7F DUP3 AND SWAP2 POP JUMPDEST PUSH1 0x20 DUP3 LT DUP2 SUB PUSH2 0x25A0 JUMPI PUSH4 0x4E487B71 PUSH1 0xE0 SHL PUSH0 MSTORE PUSH1 0x22 PUSH1 0x4 MSTORE PUSH1 0x24 PUSH0 REVERT JUMPDEST POP SWAP2 SWAP1 POP JUMP JUMPDEST DUP1 MLOAD PUSH2 0x2309 DUP2 PUSH2 0x230E JUMP JUMPDEST PUSH0 PUSH1 0x20 DUP3 DUP5 SUB SLT ISZERO PUSH2 0x25C1 JUMPI PUSH0 PUSH0 REVERT JUMPDEST DUP2 MLOAD PUSH2 0xD09 DUP2 PUSH2 0x230E JUMP JUMPDEST PUSH1 0x1 PUSH1 0x1 PUSH1 0x40 SHL SUB DUP5 AND DUP2 MSTORE PUSH1 0x1 PUSH1 0x1 PUSH1 0x40 SHL SUB DUP4 AND PUSH1 0x20 DUP3 ADD MSTORE PUSH1 0x60 PUSH1 0x40 DUP3 ADD MSTORE PUSH0 PUSH2 0x2565 PUSH1 0x60 DUP4 ADD DUP5 PUSH2 0x210B JUMP JUMPDEST PUSH0 PUSH1 0x20 DUP3 DUP5 SUB SLT ISZERO PUSH2 0x260C JUMPI PUSH0 PUSH0 REVERT JUMPDEST DUP2 MLOAD PUSH2 0xD09 DUP2 PUSH2 0x1FA4 JUMP JUMPDEST PUSH0 PUSH1 0x20 DUP3 DUP5 SUB SLT ISZERO PUSH2 0x2627 JUMPI PUSH0 PUSH0 REVERT JUMPDEST DUP2 MLOAD DUP1 ISZERO ISZERO DUP2 EQ PUSH2 0xD09 JUMPI PUSH0 PUSH0 REVERT JUMPDEST PUSH0 DUP2 MLOAD DUP1 PUSH1 0x20 DUP5 ADD DUP6 MCOPY PUSH0 SWAP4 ADD SWAP3 DUP4 MSTORE POP SWAP1 SWAP2 SWAP1 POP JUMP JUMPDEST PUSH1 0xF PUSH1 0xFA SHL DUP2 MSTORE PUSH0 PUSH2 0x2662 PUSH1 0x1 DUP4 ADD DUP6 PUSH2 0x2636 JUMP JUMPDEST PUSH2 0x1F1 PUSH1 0xF5 SHL DUP2 MSTORE PUSH2 0x2565 PUSH1 0x2 DUP3 ADD DUP6 PUSH2 0x2636 JUMP JUMPDEST PUSH4 0x4E487B71 PUSH1 0xE0 SHL PUSH0 MSTORE PUSH1 0x11 PUSH1 0x4 MSTORE PUSH1 0x24 PUSH0 REVERT JUMPDEST PUSH1 0x1 DUP2 JUMPDEST PUSH1 0x1 DUP5 GT ISZERO PUSH2 0x26C6 JUMPI DUP1 DUP6 DIV DUP2 GT ISZERO PUSH2 0x26AA JUMPI PUSH2 0x26AA PUSH2 0x2677 JUMP JUMPDEST PUSH1 0x1 DUP5 AND ISZERO PUSH2 0x26B8 JUMPI SWAP1 DUP2 MUL SWAP1 JUMPDEST PUSH1 0x1 SWAP4 SWAP1 SWAP4 SHR SWAP3 DUP1 MUL PUSH2 0x268F JUMP JUMPDEST SWAP4 POP SWAP4 SWAP2 POP POP JUMP JUMPDEST PUSH0 DUP3 PUSH2 0x26DC JUMPI POP PUSH1 0x1 PUSH2 0x792 JUMP JUMPDEST DUP2 PUSH2 0x26E8 JUMPI POP PUSH0 PUSH2 0x792 JUMP JUMPDEST DUP2 PUSH1 0x1 DUP2 EQ PUSH2 0x26FE JUMPI PUSH1 0x2 DUP2 EQ PUSH2 0x2708 JUMPI PUSH2 0x2724 JUMP JUMPDEST PUSH1 0x1 SWAP2 POP POP PUSH2 0x792 JUMP JUMPDEST PUSH1 0xFF DUP5 GT ISZERO PUSH2 0x2719 JUMPI PUSH2 0x2719 PUSH2 0x2677 JUMP JUMPDEST POP POP PUSH1 0x1 DUP3 SHL PUSH2 0x792 JUMP JUMPDEST POP PUSH1 0x20 DUP4 LT PUSH2 0x133 DUP4 LT AND PUSH1 0x4E DUP5 LT PUSH1 0xB DUP5 LT AND OR ISZERO PUSH2 0x2747 JUMPI POP DUP2 DUP2 EXP PUSH2 0x792 JUMP JUMPDEST PUSH2 0x2753 PUSH0 NOT DUP5 DUP5 PUSH2 0x268B JUMP JUMPDEST DUP1 PUSH0 NOT DIV DUP3 GT ISZERO PUSH2 0x2766 JUMPI PUSH2 0x2766 PUSH2 0x2677 JUMP JUMPDEST MUL SWAP4 SWAP3 POP POP POP JUMP JUMPDEST PUSH0 PUSH2 0xD09 PUSH1 0xFF DUP5 AND DUP4 PUSH2 0x26CE JUMP JUMPDEST DUP1 DUP3 MUL DUP2 ISZERO DUP3 DUP3 DIV DUP5 EQ OR PUSH2 0x792 JUMPI PUSH2 0x792 PUSH2 0x2677 JUMP JUMPDEST PUSH0 DUP3 PUSH2 0x27AD JUMPI PUSH4 0x4E487B71 PUSH1 0xE0 SHL PUSH0 MSTORE PUSH1 0x12 PUSH1 0x4 MSTORE PUSH1 0x24 PUSH0 REVERT JUMPDEST POP DIV SWAP1 JUMP JUMPDEST PUSH1 0x1 PUSH1 0x1 PUSH1 0xA0 SHL SUB SWAP4 DUP5 AND DUP2 MSTORE SWAP2 SWAP1 SWAP3 AND PUSH1 0x20 DUP3 ADD MSTORE PUSH1 0x40 DUP2 ADD SWAP2 SWAP1 SWAP2 MSTORE PUSH1 0x60 ADD SWAP1 JUMP JUMPDEST PUSH0 PUSH1 0x20 DUP3 DUP5 SUB SLT ISZERO PUSH2 0x27E6 JUMPI PUSH0 PUSH0 REVERT JUMPDEST DUP2 MLOAD PUSH1 0x1 PUSH1 0x1 PUSH1 0x40 SHL SUB DUP2 GT ISZERO PUSH2 0x27FB JUMPI PUSH0 PUSH0 REVERT JUMPDEST DUP3 ADD PUSH1 0x1F DUP2 ADD DUP5 SGT PUSH2 0x280B JUMPI PUSH0 PUSH0 REVERT JUMPDEST DUP1 MLOAD PUSH2 0x2819 PUSH2 0x208A DUP3 PUSH2 0x2047 JUMP JUMPDEST DUP2 DUP2 MSTORE DUP6 PUSH1 0x20 DUP4 DUP6 ADD ADD GT ISZERO PUSH2 0x282D JUMPI PUSH0 PUSH0 REVERT JUMPDEST DUP2 PUSH1 0x20 DUP5 ADD PUSH1 0x20 DUP4 ADD MCOPY PUSH0 SWAP2 DUP2 ADD PUSH1 0x20 ADD SWAP2 SWAP1 SWAP2 MSTORE SWAP5 SWAP4 POP POP POP POP JUMP JUMPDEST PUSH14 0x2732B2B21020B8383937BB32B21 PUSH1 0x95 SHL DUP2 MSTORE PUSH0 PUSH2 0xD09 PUSH1 0xE DUP4 ADD DUP5 PUSH2 0x2636 JUMP JUMPDEST PUSH1 0x1 PUSH1 0x1 PUSH1 0x40 SHL SUB DUP4 AND DUP2 MSTORE PUSH2 0x120 DUP2 ADD PUSH2 0xD09 PUSH1 0x20 DUP4 ADD DUP5 PUSH2 0x2175 JUMP JUMPDEST PUSH1 0x40 DUP2 MSTORE PUSH0 PUSH2 0x289C PUSH1 0x40 DUP4 ADD DUP6 PUSH2 0x210B JUMP JUMPDEST DUP3 DUP2 SUB PUSH1 0x20 DUP5 ADD MSTORE PUSH2 0x2565 DUP2 DUP6 PUSH2 0x210B JUMP JUMPDEST DUP1 MLOAD PUSH2 0x2309 DUP2 PUSH2 0x1FA4 JUMP JUMPDEST PUSH0 PUSH2 0x100 DUP3 DUP5 SUB SLT ISZERO PUSH2 0x28CA JUMPI PUSH0 PUSH0 REVERT JUMPDEST PUSH2 0x28D2 PUSH2 0x1FCC JUMP JUMPDEST SWAP1 POP DUP2 MLOAD PUSH2 0x28DF DUP2 PUSH2 0x1FA4 JUMP JUMPDEST DUP2 MSTORE PUSH2 0x28ED PUSH1 0x20 DUP4 ADD PUSH2 0x28AE JUMP JUMPDEST PUSH1 0x20 DUP3 ADD MSTORE PUSH2 0x28FE PUSH1 0x40 DUP4 ADD PUSH2 0x25A6 JUMP JUMPDEST PUSH1 0x40 DUP3 ADD MSTORE PUSH2 0x290F PUSH1 0x60 DUP4 ADD PUSH2 0x25A6 JUMP JUMPDEST PUSH1 0x60 DUP3 ADD MSTORE PUSH2 0x2920 PUSH1 0x80 DUP4 ADD PUSH2 0x28AE JUMP JUMPDEST PUSH1 0x80 DUP3 ADD MSTORE PUSH2 0x2931 PUSH1 0xA0 DUP4 ADD PUSH2 0x25A6 JUMP JUMPDEST PUSH1 0xA0 DUP3 ADD MSTORE PUSH2 0x2942 PUSH1 0xC0 DUP4 ADD PUSH2 0x25A6 JUMP JUMPDEST PUSH1 0xC0 DUP3 ADD MSTORE PUSH2 0x23C7 PUSH1 0xE0 DUP4 ADD PUSH2 0x25A6 JUMP JUMPDEST PUSH0 PUSH0 PUSH2 0x160 DUP4 DUP6 SUB SLT ISZERO PUSH2 0x2965 JUMPI PUSH0 PUSH0 REVERT JUMPDEST DUP4 PUSH1 0x1F DUP5 ADD SLT PUSH2 0x2973 JUMPI PUSH0 PUSH0 REVERT JUMPDEST PUSH2 0x297B PUSH2 0x1FF5 JUMP JUMPDEST DUP1 PUSH1 0x60 DUP6 ADD DUP7 DUP2 GT ISZERO PUSH2 0x298C JUMPI PUSH0 PUSH0 REVERT JUMPDEST DUP6 JUMPDEST DUP2 DUP2 LT ISZERO PUSH2 0x29AF JUMPI DUP1 MLOAD PUSH2 0x29A1 DUP2 PUSH2 0x230E JUMP JUMPDEST DUP5 MSTORE PUSH1 0x20 SWAP4 DUP5 ADD SWAP4 ADD PUSH2 0x298E JUMP JUMPDEST POP DUP2 SWAP5 POP PUSH2 0x29BD DUP8 DUP3 PUSH2 0x28B9 JUMP JUMPDEST SWAP4 POP POP POP POP SWAP3 POP SWAP3 SWAP1 POP JUMP JUMPDEST PUSH1 0x1 PUSH1 0x1 PUSH1 0xA0 SHL SUB SWAP4 DUP5 AND DUP2 MSTORE SWAP2 DUP4 AND PUSH1 0x20 DUP4 ADD MSTORE SWAP1 SWAP2 AND PUSH1 0x40 DUP3 ADD MSTORE PUSH1 0x60 ADD SWAP1 JUMP JUMPDEST PUSH1 0x1F DUP3 GT ISZERO PUSH2 0x77A JUMPI DUP1 PUSH0 MSTORE PUSH1 0x20 PUSH0 KECCAK256 PUSH1 0x1F DUP5 ADD PUSH1 0x5 SHR DUP2 ADD PUSH1 0x20 DUP6 LT ISZERO PUSH2 0x2A11 JUMPI POP DUP1 JUMPDEST PUSH1 0x1F DUP5 ADD PUSH1 0x5 SHR DUP3 ADD SWAP2 POP JUMPDEST DUP2 DUP2 LT ISZERO PUSH2 0x2A30 JUMPI PUSH0 DUP2 SSTORE PUSH1 0x1 ADD PUSH2 0x2A1D JUMP JUMPDEST POP POP POP POP POP JUMP JUMPDEST DUP2 MLOAD PUSH1 0x1 PUSH1 0x1 PUSH1 0x40 SHL SUB DUP2 GT ISZERO PUSH2 0x2A50 JUMPI PUSH2 0x2A50 PUSH2 0x1FB8 JUMP JUMPDEST PUSH2 0x2A64 DUP2 PUSH2 0x2A5E DUP5 SLOAD PUSH2 0x256E JUMP JUMPDEST DUP5 PUSH2 0x29EC JUMP JUMPDEST PUSH1 0x20 PUSH1 0x1F DUP3 GT PUSH1 0x1 DUP2 EQ PUSH2 0x2A96 JUMPI PUSH0 DUP4 ISZERO PUSH2 0x2A7F JUMPI POP DUP5 DUP3 ADD MLOAD JUMPDEST PUSH0 NOT PUSH1 0x3 DUP6 SWAP1 SHL SHR NOT AND PUSH1 0x1 DUP5 SWAP1 SHL OR DUP5 SSTORE PUSH2 0x2A30 JUMP JUMPDEST PUSH0 DUP5 DUP2 MSTORE PUSH1 0x20 DUP2 KECCAK256 PUSH1 0x1F NOT DUP6 AND SWAP2 JUMPDEST DUP3 DUP2 LT ISZERO PUSH2 0x2AC5 JUMPI DUP8 DUP6 ADD MLOAD DUP3 SSTORE PUSH1 0x20 SWAP5 DUP6 ADD SWAP5 PUSH1 0x1 SWAP1 SWAP3 ADD SWAP2 ADD PUSH2 0x2AA5 JUMP JUMPDEST POP DUP5 DUP3 LT ISZERO PUSH2 0x2AE2 JUMPI DUP7 DUP5 ADD MLOAD PUSH0 NOT PUSH1 0x3 DUP8 SWAP1 SHL PUSH1 0xF8 AND SHR NOT AND DUP2 SSTORE JUMPDEST POP POP POP POP PUSH1 0x1 SWAP1 DUP2 SHL ADD SWAP1 SSTORE POP JUMP JUMPDEST PUSH1 0x1 PUSH1 0x1 PUSH1 0x40 SHL SUB DUP4 AND DUP2 MSTORE PUSH1 0x40 PUSH1 0x20 DUP3 ADD MSTORE PUSH0 PUSH2 0x229D PUSH1 0x40 DUP4 ADD DUP5 PUSH2 0x210B JUMP JUMPDEST PUSH1 0x1 PUSH1 0x1 PUSH1 0x40 SHL SUB DUP5 AND DUP2 MSTORE PUSH2 0x2B2B PUSH1 0x20 DUP3 ADD DUP5 PUSH2 0x2175 JUMP JUMPDEST PUSH2 0x140 PUSH2 0x120 DUP3 ADD MSTORE PUSH0 PUSH2 0x2565 PUSH2 0x140 DUP4 ADD DUP5 PUSH2 0x210B JUMP JUMPDEST PUSH0 PUSH2 0xD09 DUP3 DUP5 PUSH2 0x2636 JUMP JUMPDEST PUSH1 0x1 PUSH1 0x1 PUSH1 0x40 SHL SUB DUP5 AND DUP2 MSTORE PUSH1 0x60 PUSH1 0x20 DUP3 ADD MSTORE PUSH0 PUSH2 0x2B6F PUSH1 0x60 DUP4 ADD DUP6 PUSH2 0x210B JUMP JUMPDEST DUP3 DUP2 SUB PUSH1 0x40 DUP5 ADD MSTORE PUSH2 0x2B81 DUP2 DUP6 PUSH2 0x210B JUMP JUMPDEST SWAP7 SWAP6 POP POP POP POP POP POP JUMP JUMPDEST PUSH0 PUSH2 0x100 DUP3 DUP5 SUB SLT ISZERO PUSH2 0x2B9C JUMPI PUSH0 PUSH0 REVERT JUMPDEST PUSH2 0xD09 DUP4 DUP4 PUSH2 0x28B9 JUMP JUMPDEST PUSH0 PUSH2 0x300 DUP3 DUP5 SUB SLT DUP1 ISZERO PUSH2 0x2BB8 JUMPI PUSH0 PUSH0 REVERT JUMPDEST POP PUSH2 0x2BC1 PUSH2 0x1FF5 JUMP JUMPDEST PUSH2 0x2BCB DUP5 DUP5 PUSH2 0x28B9 JUMP JUMPDEST DUP2 MSTORE PUSH2 0x2BDB DUP5 PUSH2 0x100 DUP6 ADD PUSH2 0x28B9 JUMP JUMPDEST PUSH1 0x20 DUP3 ADD MSTORE PUSH2 0x2BEE DUP5 PUSH2 0x200 DUP6 ADD PUSH2 0x28B9 JUMP JUMPDEST PUSH1 0x40 DUP3 ADD MSTORE SWAP4 SWAP3 POP POP POP JUMP JUMPDEST PUSH1 0x1 PUSH1 0x1 PUSH1 0xA0 SHL SUB SWAP8 DUP9 AND DUP2 MSTORE SWAP6 DUP8 AND PUSH1 0x20 DUP8 ADD MSTORE SWAP4 DUP7 AND PUSH1 0x40 DUP7 ADD MSTORE SWAP2 DUP6 AND PUSH1 0x60 DUP6 ADD MSTORE SWAP1 SWAP4 AND PUSH1 0x80 DUP4 ADD MSTORE PUSH1 0xA0 DUP3 ADD SWAP3 SWAP1 SWAP3 MSTORE PUSH1 0xC0 DUP2 ADD SWAP2 SWAP1 SWAP2 MSTORE PUSH1 0xE0 ADD SWAP1 JUMP JUMPDEST DUP1 DUP3 ADD DUP1 DUP3 GT ISZERO PUSH2 0x792 JUMPI PUSH2 0x792 PUSH2 0x2677 JUMP INVALID LOG2 PUSH5 0x6970667358 0x22 SLT KECCAK256 AND 0xDA 0x2A 0x2B SHR PREVRANDAO 0xDB SWAP11 0xC6 0x29 TIMESTAMP PUSH0 0xC 0xD6 0xEB SWAP3 GT 0xC0 0xAC PUSH26 0x40B7A4355894927BAE0788DB64736F6C634300081B0033000000 "
		},
		"gasEstimates": {
			"creation": {
				"codeDepositCost": "2279600",
				"executionCost": "infinite",
				"totalCost": "infinite"
			},
			"external": {
				"AddLibrary(string,address)": "infinite",
				"Alias((address,address,uint64,uint64,address,uint64,uint64,uint64))": "infinite",
				"Alias((address,address,uint64,uint64,address,uint64,uint64,uint64),string)": "infinite",
				"Alias(address)": "infinite",
				"Alias(address,string)": "infinite",
				"Chat(string)": "infinite",
				"Enter()": "infinite",
				"Enter(string,string)": "infinite",
				"GetAttribute(string)": "infinite",
				"GetLibraryAddress(string)": "infinite",
				"GetMarketRate(address)": "2573",
				"Log(address,string)": "infinite",
				"Log(string)": "infinite",
				"Log(uint64,string)": "infinite",
				"MotzkinPrime()": "260",
				"Nu()": "2471",
				"Purchase(address,uint256)": "infinite",
				"Redeem(address,uint256)": "infinite",
				"Rename(string,string)": "infinite",
				"SetAttribute(string,string)": "infinite",
				"Type()": "infinite",
				"Xiao()": "2537",
				"addOwner(address)": "infinite",
				"allowance(address,address)": "infinite",
				"approve(address,uint256)": "24725",
				"balanceOf(address)": "2551",
				"decimals()": "243",
				"maxSupply()": "2361",
				"mintToCap()": "infinite",
				"name()": "infinite",
				"owner()": "280",
				"owner(address)": "2688",
				"renounceOwnership(address)": "infinite",
				"symbol()": "infinite",
				"totalSupply()": "2414",
				"transfer(address,uint256)": "51263",
				"transferFrom(address,address,uint256)": "infinite"
			},
			"internal": {
				"Augment()": "infinite",
				"GetBySoul(uint64)": "infinite",
				"Log(string memory,string memory)": "infinite"
			}
		},
		"methodIdentifiers": {
			"AddLibrary(string,address)": "e774b3a4",
			"Alias((address,address,uint64,uint64,address,uint64,uint64,uint64))": "393a35a5",
			"Alias((address,address,uint64,uint64,address,uint64,uint64,uint64),string)": "c34686e5",
			"Alias(address)": "ed70e46c",
			"Alias(address,string)": "00b660ef",
			"Chat(string)": "21516fc4",
			"Enter()": "1097e579",
			"Enter(string,string)": "68f9c787",
			"GetAttribute(string)": "b502e567",
			"GetLibraryAddress(string)": "d9270a5a",
			"GetMarketRate(address)": "2b83b1fc",
			"Log(address,string)": "0738f4da",
			"Log(string)": "cf34ef53",
			"Log(uint64,string)": "e7c4b151",
			"MotzkinPrime()": "d3dc2a0f",
			"Nu()": "9ff43001",
			"Purchase(address,uint256)": "2499a533",
			"Redeem(address,uint256)": "222838db",
			"Rename(string,string)": "9dcbf7ea",
			"SetAttribute(string,string)": "df5cb7b4",
			"Type()": "ff762044",
			"Xiao()": "6fb7329c",
			"addOwner(address)": "7065cb48",
			"allowance(address,address)": "dd62ed3e",
			"approve(address,uint256)": "095ea7b3",
			"balanceOf(address)": "70a08231",
			"decimals()": "313ce567",
			"maxSupply()": "d5abeb01",
			"mintToCap()": "f4e6c93f",
			"name()": "06fdde03",
			"owner()": "8da5cb5b",
			"owner(address)": "666e1b39",
			"renounceOwnership(address)": "38bf3cfa",
			"symbol()": "95d89b41",
			"totalSupply()": "18160ddd",
			"transfer(address,uint256)": "a9059cbb",
			"transferFrom(address,address,uint256)": "23b872dd"
		}
	},
	"abi": [
		{
			"inputs": [
				{
					"internalType": "address",
					"name": "SiuAddress",
					"type": "address"
				}
			],
			"stateMutability": "nonpayable",
			"type": "constructor"
		},
		{
			"inputs": [
				{
					"internalType": "address",
					"name": "origin",
					"type": "address"
				},
				{
					"internalType": "address",
					"name": "sender",
					"type": "address"
				},
				{
					"internalType": "address",
					"name": "owner",
					"type": "address"
				},
				{
					"internalType": "address",
					"name": "spender",
					"type": "address"
				},
				{
					"internalType": "address",
					"name": "what",
					"type": "address"
				},
				{
					"internalType": "uint256",
					"name": "allowance",
					"type": "uint256"
				},
				{
					"internalType": "uint256",
					"name": "needed",
					"type": "uint256"
				}
			],
			"name": "DysnomiaInsufficientAllowance",
			"type": "error"
		},
		{
			"inputs": [
				{
					"internalType": "address",
					"name": "origin",
					"type": "address"
				},
				{
					"internalType": "address",
					"name": "sender",
					"type": "address"
				},
				{
					"internalType": "address",
					"name": "from",
					"type": "address"
				},
				{
					"internalType": "address",
					"name": "to",
					"type": "address"
				},
				{
					"internalType": "address",
					"name": "what",
					"type": "address"
				},
				{
					"internalType": "uint256",
					"name": "balance",
					"type": "uint256"
				},
				{
					"internalType": "uint256",
					"name": "needed",
					"type": "uint256"
				}
			],
			"name": "DysnomiaInsufficientBalance",
			"type": "error"
		},
		{
			"inputs": [
				{
					"internalType": "string",
					"name": "Xi",
					"type": "string"
				}
			],
			"name": "InvalidLogXi",
			"type": "error"
		},
		{
			"inputs": [
				{
					"internalType": "address",
					"name": "asset",
					"type": "address"
				}
			],
			"name": "MarketRateNotFound",
			"type": "error"
		},
		{
			"inputs": [
				{
					"internalType": "address",
					"name": "User",
					"type": "address"
				}
			],
			"name": "NoUserEntry",
			"type": "error"
		},
		{
			"inputs": [
				{
					"internalType": "address",
					"name": "User",
					"type": "address"
				}
			],
			"name": "NoUserName",
			"type": "error"
		},
		{
			"inputs": [
				{
					"internalType": "address",
					"name": "Shio",
					"type": "address"
				},
				{
					"internalType": "address",
					"name": "Requestor",
					"type": "address"
				}
			],
			"name": "NotShioOwner",
			"type": "error"
		},
		{
			"inputs": [
				{
					"internalType": "address",
					"name": "origin",
					"type": "address"
				},
				{
					"internalType": "address",
					"name": "owner",
					"type": "address"
				},
				{
					"internalType": "address",
					"name": "what",
					"type": "address"
				}
			],
			"name": "OwnableInvalidOwner",
			"type": "error"
		},
		{
			"inputs": [
				{
					"internalType": "address",
					"name": "origin",
					"type": "address"
				},
				{
					"internalType": "address",
					"name": "account",
					"type": "address"
				},
				{
					"internalType": "address",
					"name": "what",
					"type": "address"
				}
			],
			"name": "OwnableUnauthorizedAccount",
			"type": "error"
		},
		{
			"inputs": [
				{
					"internalType": "address",
					"name": "User",
					"type": "address"
				}
			],
			"name": "UserAlreadyCreated",
			"type": "error"
		},
		{
			"anonymous": false,
			"inputs": [
				{
					"indexed": true,
					"internalType": "address",
					"name": "owner",
					"type": "address"
				},
				{
					"indexed": true,
					"internalType": "address",
					"name": "spender",
					"type": "address"
				},
				{
					"indexed": false,
					"internalType": "uint256",
					"name": "value",
					"type": "uint256"
				}
			],
			"name": "Approval",
			"type": "event"
		},
		{
			"anonymous": false,
			"inputs": [
				{
					"indexed": true,
					"internalType": "address",
					"name": "newOwner",
					"type": "address"
				},
				{
					"indexed": true,
					"internalType": "bool",
					"name": "state",
					"type": "bool"
				}
			],
			"name": "OwnershipUpdate",
			"type": "event"
		},
		{
			"anonymous": false,
			"inputs": [
				{
					"indexed": true,
					"internalType": "address",
					"name": "from",
					"type": "address"
				},
				{
					"indexed": true,
					"internalType": "address",
					"name": "to",
					"type": "address"
				},
				{
					"indexed": false,
					"internalType": "uint256",
					"name": "value",
					"type": "uint256"
				}
			],
			"name": "Transfer",
			"type": "event"
		},
		{
			"inputs": [
				{
					"internalType": "string",
					"name": "name",
					"type": "string"
				},
				{
					"internalType": "address",
					"name": "_a",
					"type": "address"
				}
			],
			"name": "AddLibrary",
			"outputs": [],
			"stateMutability": "nonpayable",
			"type": "function"
		},
		{
			"inputs": [
				{
					"internalType": "address",
					"name": "name",
					"type": "address"
				},
				{
					"internalType": "string",
					"name": "value",
					"type": "string"
				}
			],
			"name": "Alias",
			"outputs": [],
			"stateMutability": "nonpayable",
			"type": "function"
		},
		{
			"inputs": [
				{
					"components": [
						{
							"internalType": "address",
							"name": "Phi",
							"type": "address"
						},
						{
							"internalType": "contract SHA",
							"name": "Mu",
							"type": "address"
						},
						{
							"internalType": "uint64",
							"name": "Xi",
							"type": "uint64"
						},
						{
							"internalType": "uint64",
							"name": "Pi",
							"type": "uint64"
						},
						{
							"internalType": "contract SHIO",
							"name": "Shio",
							"type": "address"
						},
						{
							"internalType": "uint64",
							"name": "Ring",
							"type": "uint64"
						},
						{
							"internalType": "uint64",
							"name": "Omicron",
							"type": "uint64"
						},
						{
							"internalType": "uint64",
							"name": "Omega",
							"type": "uint64"
						}
					],
					"internalType": "struct Bao",
					"name": "Theta",
					"type": "tuple"
				}
			],
			"name": "Alias",
			"outputs": [
				{
					"internalType": "string",
					"name": "",
					"type": "string"
				}
			],
			"stateMutability": "view",
			"type": "function"
		},
		{
			"inputs": [
				{
					"components": [
						{
							"internalType": "address",
							"name": "Phi",
							"type": "address"
						},
						{
							"internalType": "contract SHA",
							"name": "Mu",
							"type": "address"
						},
						{
							"internalType": "uint64",
							"name": "Xi",
							"type": "uint64"
						},
						{
							"internalType": "uint64",
							"name": "Pi",
							"type": "uint64"
						},
						{
							"internalType": "contract SHIO",
							"name": "Shio",
							"type": "address"
						},
						{
							"internalType": "uint64",
							"name": "Ring",
							"type": "uint64"
						},
						{
							"internalType": "uint64",
							"name": "Omicron",
							"type": "uint64"
						},
						{
							"internalType": "uint64",
							"name": "Omega",
							"type": "uint64"
						}
					],
					"internalType": "struct Bao",
					"name": "Theta",
					"type": "tuple"
				},
				{
					"internalType": "string",
					"name": "value",
					"type": "string"
				}
			],
			"name": "Alias",
			"outputs": [],
			"stateMutability": "nonpayable",
			"type": "function"
		},
		{
			"inputs": [
				{
					"internalType": "address",
					"name": "name",
					"type": "address"
				}
			],
			"name": "Alias",
			"outputs": [
				{
					"internalType": "string",
					"name": "",
					"type": "string"
				}
			],
			"stateMutability": "view",
			"type": "function"
		},
		{
			"inputs": [
				{
					"internalType": "string",
					"name": "chatline",
					"type": "string"
				}
			],
			"name": "Chat",
			"outputs": [],
			"stateMutability": "nonpayable",
			"type": "function"
		},
		{
			"inputs": [],
			"name": "Enter",
			"outputs": [
				{
					"internalType": "uint64[3]",
					"name": "Saat",
					"type": "uint64[3]"
				},
				{
					"components": [
						{
							"internalType": "address",
							"name": "Phi",
							"type": "address"
						},
						{
							"internalType": "contract SHA",
							"name": "Mu",
							"type": "address"
						},
						{
							"internalType": "uint64",
							"name": "Xi",
							"type": "uint64"
						},
						{
							"internalType": "uint64",
							"name": "Pi",
							"type": "uint64"
						},
						{
							"internalType": "contract SHIO",
							"name": "Shio",
							"type": "address"
						},
						{
							"internalType": "uint64",
							"name": "Ring",
							"type": "uint64"
						},
						{
							"internalType": "uint64",
							"name": "Omicron",
							"type": "uint64"
						},
						{
							"internalType": "uint64",
							"name": "Omega",
							"type": "uint64"
						}
					],
					"internalType": "struct Bao",
					"name": "On",
					"type": "tuple"
				}
			],
			"stateMutability": "nonpayable",
			"type": "function"
		},
		{
			"inputs": [
				{
					"internalType": "string",
					"name": "name",
					"type": "string"
				},
				{
					"internalType": "string",
					"name": "symbol",
					"type": "string"
				}
			],
			"name": "Enter",
			"outputs": [
				{
					"internalType": "uint64[3]",
					"name": "Saat",
					"type": "uint64[3]"
				},
				{
					"components": [
						{
							"internalType": "address",
							"name": "Phi",
							"type": "address"
						},
						{
							"internalType": "contract SHA",
							"name": "Mu",
							"type": "address"
						},
						{
							"internalType": "uint64",
							"name": "Xi",
							"type": "uint64"
						},
						{
							"internalType": "uint64",
							"name": "Pi",
							"type": "uint64"
						},
						{
							"internalType": "contract SHIO",
							"name": "Shio",
							"type": "address"
						},
						{
							"internalType": "uint64",
							"name": "Ring",
							"type": "uint64"
						},
						{
							"internalType": "uint64",
							"name": "Omicron",
							"type": "uint64"
						},
						{
							"internalType": "uint64",
							"name": "Omega",
							"type": "uint64"
						}
					],
					"internalType": "struct Bao",
					"name": "On",
					"type": "tuple"
				}
			],
			"stateMutability": "nonpayable",
			"type": "function"
		},
		{
			"inputs": [
				{
					"internalType": "string",
					"name": "name",
					"type": "string"
				}
			],
			"name": "GetAttribute",
			"outputs": [
				{
					"internalType": "string",
					"name": "",
					"type": "string"
				}
			],
			"stateMutability": "view",
			"type": "function"
		},
		{
			"inputs": [
				{
					"internalType": "string",
					"name": "name",
					"type": "string"
				}
			],
			"name": "GetLibraryAddress",
			"outputs": [
				{
					"internalType": "address",
					"name": "",
					"type": "address"
				}
			],
			"stateMutability": "view",
			"type": "function"
		},
		{
			"inputs": [
				{
					"internalType": "address",
					"name": "_a",
					"type": "address"
				}
			],
			"name": "GetMarketRate",
			"outputs": [
				{
					"internalType": "uint256",
					"name": "",
					"type": "uint256"
				}
			],
			"stateMutability": "view",
			"type": "function"
		},
		{
			"inputs": [
				{
					"internalType": "address",
					"name": "Sigma",
					"type": "address"
				},
				{
					"internalType": "string",
					"name": "LogLine",
					"type": "string"
				}
			],
			"name": "Log",
			"outputs": [],
			"stateMutability": "nonpayable",
			"type": "function"
		},
		{
			"inputs": [
				{
					"internalType": "string",
					"name": "LogLine",
					"type": "string"
				}
			],
			"name": "Log",
			"outputs": [],
			"stateMutability": "nonpayable",
			"type": "function"
		},
		{
			"inputs": [
				{
					"internalType": "uint64",
					"name": "Sigma",
					"type": "uint64"
				},
				{
					"internalType": "string",
					"name": "LogLine",
					"type": "string"
				}
			],
			"name": "Log",
			"outputs": [],
			"stateMutability": "nonpayable",
			"type": "function"
		},
		{
			"inputs": [],
			"name": "MotzkinPrime",
			"outputs": [
				{
					"internalType": "uint64",
					"name": "",
					"type": "uint64"
				}
			],
			"stateMutability": "view",
			"type": "function"
		},
		{
			"inputs": [],
			"name": "Nu",
			"outputs": [
				{
					"internalType": "contract SIU",
					"name": "",
					"type": "address"
				}
			],
			"stateMutability": "view",
			"type": "function"
		},
		{
			"inputs": [
				{
					"internalType": "address",
					"name": "_t",
					"type": "address"
				},
				{
					"internalType": "uint256",
					"name": "_a",
					"type": "uint256"
				}
			],
			"name": "Purchase",
			"outputs": [],
			"stateMutability": "nonpayable",
			"type": "function"
		},
		{
			"inputs": [
				{
					"internalType": "address",
					"name": "_t",
					"type": "address"
				},
				{
					"internalType": "uint256",
					"name": "_a",
					"type": "uint256"
				}
			],
			"name": "Redeem",
			"outputs": [],
			"stateMutability": "nonpayable",
			"type": "function"
		},
		{
			"inputs": [
				{
					"internalType": "string",
					"name": "newName",
					"type": "string"
				},
				{
					"internalType": "string",
					"name": "newSymbol",
					"type": "string"
				}
			],
			"name": "Rename",
			"outputs": [],
			"stateMutability": "nonpayable",
			"type": "function"
		},
		{
			"inputs": [
				{
					"internalType": "string",
					"name": "name",
					"type": "string"
				},
				{
					"internalType": "string",
					"name": "value",
					"type": "string"
				}
			],
			"name": "SetAttribute",
			"outputs": [],
			"stateMutability": "nonpayable",
			"type": "function"
		},
		{
			"inputs": [],
			"name": "Type",
			"outputs": [
				{
					"internalType": "string",
					"name": "",
					"type": "string"
				}
			],
			"stateMutability": "view",
			"type": "function"
		},
		{
			"inputs": [],
			"name": "Xiao",
			"outputs": [
				{
					"internalType": "contract atropaMath",
					"name": "",
					"type": "address"
				}
			],
			"stateMutability": "view",
			"type": "function"
		},
		{
			"inputs": [
				{
					"internalType": "address",
					"name": "newOwner",
					"type": "address"
				}
			],
			"name": "addOwner",
			"outputs": [],
			"stateMutability": "nonpayable",
			"type": "function"
		},
		{
			"inputs": [
				{
					"internalType": "address",
					"name": "owner",
					"type": "address"
				},
				{
					"internalType": "address",
					"name": "spender",
					"type": "address"
				}
			],
			"name": "allowance",
			"outputs": [
				{
					"internalType": "uint256",
					"name": "",
					"type": "uint256"
				}
			],
			"stateMutability": "view",
			"type": "function"
		},
		{
			"inputs": [
				{
					"internalType": "address",
					"name": "spender",
					"type": "address"
				},
				{
					"internalType": "uint256",
					"name": "value",
					"type": "uint256"
				}
			],
			"name": "approve",
			"outputs": [
				{
					"internalType": "bool",
					"name": "",
					"type": "bool"
				}
			],
			"stateMutability": "nonpayable",
			"type": "function"
		},
		{
			"inputs": [
				{
					"internalType": "address",
					"name": "account",
					"type": "address"
				}
			],
			"name": "balanceOf",
			"outputs": [
				{
					"internalType": "uint256",
					"name": "",
					"type": "uint256"
				}
			],
			"stateMutability": "view",
			"type": "function"
		},
		{
			"inputs": [],
			"name": "decimals",
			"outputs": [
				{
					"internalType": "uint8",
					"name": "",
					"type": "uint8"
				}
			],
			"stateMutability": "view",
			"type": "function"
		},
		{
			"inputs": [],
			"name": "maxSupply",
			"outputs": [
				{
					"internalType": "uint256",
					"name": "",
					"type": "uint256"
				}
			],
			"stateMutability": "view",
			"type": "function"
		},
		{
			"inputs": [],
			"name": "mintToCap",
			"outputs": [],
			"stateMutability": "nonpayable",
			"type": "function"
		},
		{
			"inputs": [],
			"name": "name",
			"outputs": [
				{
					"internalType": "string",
					"name": "",
					"type": "string"
				}
			],
			"stateMutability": "view",
			"type": "function"
		},
		{
			"inputs": [
				{
					"internalType": "address",
					"name": "cOwner",
					"type": "address"
				}
			],
			"name": "owner",
			"outputs": [
				{
					"internalType": "bool",
					"name": "",
					"type": "bool"
				}
			],
			"stateMutability": "view",
			"type": "function"
		},
		{
			"inputs": [],
			"name": "owner",
			"outputs": [
				{
					"internalType": "address",
					"name": "",
					"type": "address"
				}
			],
			"stateMutability": "view",
			"type": "function"
		},
		{
			"inputs": [
				{
					"internalType": "address",
					"name": "toRemove",
					"type": "address"
				}
			],
			"name": "renounceOwnership",
			"outputs": [],
			"stateMutability": "nonpayable",
			"type": "function"
		},
		{
			"inputs": [],
			"name": "symbol",
			"outputs": [
				{
					"internalType": "string",
					"name": "",
					"type": "string"
				}
			],
			"stateMutability": "view",
			"type": "function"
		},
		{
			"inputs": [],
			"name": "totalSupply",
			"outputs": [
				{
					"internalType": "uint256",
					"name": "",
					"type": "uint256"
				}
			],
			"stateMutability": "view",
			"type": "function"
		},
		{
			"inputs": [
				{
					"internalType": "address",
					"name": "to",
					"type": "address"
				},
				{
					"internalType": "uint256",
					"name": "value",
					"type": "uint256"
				}
			],
			"name": "transfer",
			"outputs": [
				{
					"internalType": "bool",
					"name": "",
					"type": "bool"
				}
			],
			"stateMutability": "nonpayable",
			"type": "function"
		},
		{
			"inputs": [
				{
					"internalType": "address",
					"name": "from",
					"type": "address"
				},
				{
					"internalType": "address",
					"name": "to",
					"type": "address"
				},
				{
					"internalType": "uint256",
					"name": "value",
					"type": "uint256"
				}
			],
			"name": "transferFrom",
			"outputs": [
				{
					"internalType": "bool",
					"name": "",
					"type": "bool"
				}
			],
			"stateMutability": "nonpayable",
			"type": "function"
		}
	]
}