{
	"data": {
		"bytecode": {
			"linkReferences": {},
			"object": "608060405234801561000f575f5ffd5b5060405161361538038061361583398101604081905261002e916104e0565b6040518060400160405280600c81526020016b4479736e6f6d69612058696560a01b8152506040518060400160405280600381526020016258494560e81b815250826001600160a01b0316636fb7329c6040518163ffffffff1660e01b8152600401602060405180830381865afa1580156100ab573d5f5f3e3d5ffd5b505050506040513d601f19601f820116820180604052508101906100cf91906104e0565b338061010157604051633603021960e21b81523260048201525f60248201523060448201526064015b60405180910390fd5b61010c816001610241565b506004610119848261059a565b506005610126838261059a565b50600680546001600160a01b0319166001600160a01b0383169081179091556040805163604a6fa960e01b815290516201b207929163604a6fa991600480830192602092919082900301815f875af1158015610184573d5f5f3e3d5ffd5b505050506040513d601f19601f820116820180604052508101906101a89190610654565b6101b2919061067a565b6001600160401b03166007556102087324f0154c1dce548adf15da2098fdd8b8a3b8151d6101e26012600a6107ad565b6101ed9060016107bb565b6001600160a01b039091165f90815260086020526040902055565b5050600980546001600160a01b0319166001600160a01b0384161790555061022f32610294565b43600d5561023b6102df565b506107e5565b6001600160a01b0382165f81815260208190526040808220805460ff191685151590811790915590519092917f6bfa7e860c3e9bf67b810cb88276b19b27c972812bac04793d369b59a1183a8391a35050565b61029c610323565b6001600160a01b0381166102d157604051633603021960e21b81523260048201525f60248201523060448201526064016100f8565b6102dc816001610241565b50565b6102eb6012600a6107ad565b6007546102f891906107bb565b600354101561032157610321306103116012600a6107ad565b61031c9060016107bb565b61037d565b565b335f9081526020819052604090205460ff161580156103515750325f9081526020819052604090205460ff16155b1561032157604051630be6bab560e01b81523260048201523360248201523060448201526064016100f8565b6103885f838361038c565b5050565b6001600160a01b0383166103b6578060035f8282546103ab91906107d2565b909155506104409050565b6001600160a01b0383165f908152600160205260409020548181101561042257604051630f7d0bbd60e21b81523260048201523360248201526001600160a01b0380861660448301528416606482015230608482015260a4810182905260c4810183905260e4016100f8565b6001600160a01b0384165f9081526001602052604090209082900390555b6001600160a01b03821661045c5760038054829003905561047a565b6001600160a01b0382165f9081526001602052604090208054820190555b816001600160a01b0316836001600160a01b03167fddf252ad1be2c89b69c2b068fc378daa952ba7f163c4a11628f55a4df523b3ef836040516104bf91815260200190565b60405180910390a3505050565b6001600160a01b03811681146102dc575f5ffd5b5f602082840312156104f0575f5ffd5b81516104fb816104cc565b9392505050565b634e487b7160e01b5f52604160045260245ffd5b600181811c9082168061052a57607f821691505b60208210810361054857634e487b7160e01b5f52602260045260245ffd5b50919050565b601f82111561059557805f5260205f20601f840160051c810160208510156105735750805b601f840160051c820191505b81811015610592575f815560010161057f565b50505b505050565b81516001600160401b038111156105b3576105b3610502565b6105c7816105c18454610516565b8461054e565b6020601f8211600181146105f9575f83156105e25750848201515b5f19600385901b1c1916600184901b178455610592565b5f84815260208120601f198516915b828110156106285787850151825560209485019460019092019101610608565b508482101561064557868401515f19600387901b60f8161c191681555b50505050600190811b01905550565b5f60208284031215610664575f5ffd5b81516001600160401b03811681146104fb575f5ffd5b5f6001600160401b0383168061069e57634e487b7160e01b5f52601260045260245ffd5b6001600160401b03929092169190910692915050565b634e487b7160e01b5f52601160045260245ffd5b6001815b6001841115610703578085048111156106e7576106e76106b4565b60018416156106f557908102905b60019390931c9280026106cc565b935093915050565b5f82610719575060016107a7565b8161072557505f6107a7565b816001811461073b576002811461074557610761565b60019150506107a7565b60ff841115610756576107566106b4565b50506001821b6107a7565b5060208310610133831016604e8410600b8410161715610784575081810a6107a7565b6107905f1984846106c8565b805f19048211156107a3576107a36106b4565b0290505b92915050565b5f6104fb60ff84168361070b565b80820281158282048414176107a7576107a76106b4565b808201808211156107a7576107a76106b4565b612e23806107f25f395ff3fe608060405234801561000f575f5ffd5b50600436106101ca575f3560e01c8063666e1b3911610101578063c42564ea1161009a578063c42564ea14610400578063d3dc2a0f14610413578063d5abeb0114610439578063d9fe351d14610442578063dd62ed3e1461046a578063e1b2f78c1461047d578063f4e6c93f146104a7578063f5c590f8146104af578063ff762044146104c2575f5ffd5b8063666e1b391461035e5780636fb7329c146103715780637065cb481461039157806370a08231146103a4578063846a80c0146101d65780638da5cb5b146103cc57806395d89b41146103d25780639dcbf7ea146103da578063a9059cbb146103ed575f5ffd5b80632499a533116101735780632499a5331461026357806327d74dee146102765780632b83b1fc1461027e5780632d4b5979146102a6578063313ce567146102b957806338bf3cfa146102c85780633aac9d70146102db5780634e334b7c1461033857806356ca301a1461034b575f5ffd5b80624cf424146101ce5780627dc6ab146101d857806305a667e7146101d657806306fdde03146101ea578063095ea7b31461020857806318160ddd1461022b578063222838db1461023d57806323b872dd14610250575b5f5ffd5b6101d66104e4565b005b6101d66101e6366004612517565b5050565b6101f2610ae8565b6040516101ff919061256f565b60405180910390f35b61021b610216366004612517565b610b78565b60405190151581526020016101ff565b6003545b6040519081526020016101ff565b6101d661024b366004612517565b610b91565b61021b61025e366004612581565b610d92565b6101d6610271366004612517565b610db5565b600e5461022f565b61022f61028c3660046125bf565b6001600160a01b03165f9081526008602052604090205490565b6101d66102b43660046126be565b610f63565b604051601281526020016101ff565b6101d66102d63660046125bf565b61189d565b6102ee6102e9366004612713565b6118b2565b6040516101ff91905f60a082019050825182526001600160401b03602084015116602083015260408301516040830152606083015160608301526080830151608083015292915050565b6102ee61034636600461273e565b611926565b6101d661035936600461275a565b611971565b61021b61036c3660046125bf565b611ed0565b600654610384906001600160a01b031681565b6040516101ff919061277a565b6101d661039f3660046125bf565b611eed565b61022f6103b23660046125bf565b6001600160a01b03165f9081526001602052604090205490565b30610384565b6101f2611f2d565b6101d66103e836600461278e565b611f3c565b61021b6103fb366004612517565b611f62565b600954610384906001600160a01b031681565b6104216603632c8eb5af3b81565b6040516001600160401b0390911681526020016101ff565b61022f60075481565b61022f6104503660046127f1565b6001600160401b03165f908152600f602052604090205490565b61022f61047836600461280c565b611f6f565b61049261048b366004612843565b5f5f915091565b604080519283526020830191909152016101ff565b6101d6611f99565b6102ee6104bd366004612874565b611fa9565b6101f26040518060400160405280600381526020016258494560e81b81525081565b6104ec6124d0565b60605f5f5b43600d541015610ae05760095f9054906101000a90046001600160a01b03166001600160a01b031663bebbe7bb6040518163ffffffff1660e01b8152600401602060405180830381865afa15801561054b573d5f5f3e3d5ffd5b505050506040513d601f19601f8201168201806040525081019061056f91906128a1565b6001600160a01b03166384d0643e6040518163ffffffff1660e01b8152600401602060405180830381865afa1580156105aa573d5f5f3e3d5ffd5b505050506040513d601f19601f820116820180604052508101906105ce91906128a1565b6001600160a01b03166327d74dee6040518163ffffffff1660e01b8152600401602060405180830381865afa158015610609573d5f5f3e3d5ffd5b505050506040513d601f19601f8201168201806040525081019061062d91906128bc565b90505f5b81811015610ac65760095f9054906101000a90046001600160a01b03166001600160a01b031663bebbe7bb6040518163ffffffff1660e01b8152600401602060405180830381865afa158015610689573d5f5f3e3d5ffd5b505050506040513d601f19601f820116820180604052508101906106ad91906128a1565b6001600160a01b03166384d0643e6040518163ffffffff1660e01b8152600401602060405180830381865afa1580156106e8573d5f5f3e3d5ffd5b505050506040513d601f19601f8201168201806040525081019061070c91906128a1565b6001600160a01b0316633aac9d70826040518263ffffffff1660e01b815260040161073991815260200190565b5f60405180830381865afa158015610753573d5f5f3e3d5ffd5b505050506040513d5f823e601f3d908101601f1916820160405261077a9190810190612920565b6040519196509450600b906107909086906129bb565b9081526020016040518091039020600101545f036107cd5743600b856040516107b991906129bb565b908152604051908190036020019020600101555b84515f908152600c602052604081206001015490036107fd5784515f908152600c60205260409020436001909101555b606085015115610abe576009548551604051632496631960e21b81526001600160a01b03909216916392598c64916108399188906004016129c6565b6020604051808303815f875af1158015610855573d5f5f3e3d5ffd5b505050506040513d601f19601f8201168201806040525081019061087991906128bc565b92505b43600b8560405161088d91906129bb565b9081526020016040518091039020600101541015610995576009546040516001600160a01b03909116906344c113f490600b906108cb9088906129bb565b908152604051908190036020018120546001600160e01b031960e084901b1682526108fc9160040190815260200190565b602060405180830381865afa158015610917573d5f5f3e3d5ffd5b505050506040513d601f19601f8201168201806040525081019061093b91906128bc565b600b8560405161094b91906129bb565b90815260405190819003602001812091909155600b9061096c9086906129bb565b9081526040519081900360200190206001018054905f61098b836129f2565b919050555061087c565b84515f908152600c6020526040902060010154431115610a655760095485515f908152600c60205260409081902054905163113044fd60e21b81526001600160a01b03909216916344c113f4916109f29160040190815260200190565b602060405180830381865afa158015610a0d573d5f5f3e3d5ffd5b505050506040513d601f19601f82011682018060405250810190610a3191906128bc565b85515f908152600c60205260408082209290925586518152908120600101805491610a5b836129f2565b9190505550610995565b82600b85604051610a7691906129bb565b90815260200160405180910390205f015f828254610a949190612a0a565b909155505084515f908152600c602052604081208054859290610ab8908490612a0a565b90915550505b600101610631565b50600d8054905f610ad6836129f2565b91905055506104f1565b50505050565b565b606060048054610af790612a1d565b80601f0160208091040260200160405190810160405280929190818152602001828054610b2390612a1d565b8015610b6e5780601f10610b4557610100808354040283529160200191610b6e565b820191905f5260205f20905b815481529060010190602001808311610b5157829003601f168201915b5050505050905090565b5f33610b858185856121ec565b60019150505b92915050565b6001600160a01b0382165f908152600860205260408120549003610bd357816040516390b2344160e01b8152600401610bca919061277a565b60405180910390fd5b815f610be16012600a612b38565b6001600160a01b0385165f90815260086020526040902054610c039085612b46565b610c0d9190612b5d565b6040516323b872dd60e01b81529091505f9030906323b872dd90610c3990339084908990600401612b7c565b6020604051808303815f875af1158015610c55573d5f5f3e3d5ffd5b505050506040513d601f19601f82011682018060405250810190610c799190612ba0565b905080306001600160a01b03166306fdde036040518163ffffffff1660e01b81526004015f60405180830381865afa158015610cb7573d5f5f3e3d5ffd5b505050506040513d5f823e601f3d908101601f19168201604052610cde9190810190612bbf565b604051602001610cee9190612bf0565b60405160208183030381529060405290610d1b5760405162461bcd60e51b8152600401610bca919061256f565b5060405163a9059cbb60e01b81526001600160a01b0384169063a9059cbb90610d4a9033908690600401612c12565b6020604051808303815f875af1158015610d66573d5f5f3e3d5ffd5b505050506040513d601f19601f82011682018060405250810190610d8a9190612ba0565b505050505050565b5f33610d9f8582856121f9565b610daa85858561224a565b506001949350505050565b6001600160a01b0382165f908152600860205260408120549003610dee57816040516390b2344160e01b8152600401610bca919061277a565b815f610dfc6012600a612b38565b6001600160a01b0385165f90815260086020526040902054610e1e9085612b46565b610e289190612b5d565b90505f826001600160a01b03166323b872dd3330856040518463ffffffff1660e01b8152600401610e5b93929190612b7c565b6020604051808303815f875af1158015610e77573d5f5f3e3d5ffd5b505050506040513d601f19601f82011682018060405250810190610e9b9190612ba0565b905080836001600160a01b03166306fdde036040518163ffffffff1660e01b81526004015f60405180830381865afa158015610ed9573d5f5f3e3d5ffd5b505050506040513d5f823e601f3d908101601f19168201604052610f009190810190612bbf565b604051602001610f109190612bf0565b60405160208183030381529060405290610f3d5760405162461bcd60e51b8152600401610bca919061256f565b5060405163a9059cbb60e01b8152309063a9059cbb90610d4a9033908890600401612c12565b610f6b6124d0565b836001600160a01b031663a138da0b6040518163ffffffff1660e01b8152600401602060405180830381865afa158015610fa7573d5f5f3e3d5ffd5b505050506040513d601f19601f82011682018060405250810190610fcb91906128bc565b8082525f03610fef578360405163038c318f60e41b8152600401610bca919061277a565b6009546040805163bebbe7bb60e01b815290515f926001600160a01b03169163bebbe7bb9160048083019260209291908290030181865afa158015611036573d5f5f3e3d5ffd5b505050506040513d601f19601f8201168201806040525081019061105a91906128a1565b6001600160a01b03166384d0643e6040518163ffffffff1660e01b8152600401602060405180830381865afa158015611095573d5f5f3e3d5ffd5b505050506040513d601f19601f820116820180604052508101906110b991906128a1565b6001600160a01b031663bafd8d4a6040518163ffffffff1660e01b8152600401602060405180830381865afa1580156110f4573d5f5f3e3d5ffd5b505050506040513d601f19601f8201168201806040525081019061111891906128a1565b6001600160a01b0316636872fc3c6040518163ffffffff1660e01b8152600401602060405180830381865afa158015611153573d5f5f3e3d5ffd5b505050506040513d601f19601f8201168201806040525081019061117791906128a1565b8251604051630dc8849d60e41b81526001600160a01b03929092169163dc8849d0916111a99160040190815260200190565b602060405180830381865afa1580156111c4573d5f5f3e3d5ffd5b505050506040513d601f19601f820116820180604052508101906111e891906128a1565b9050846001600160a01b0316816001600160a01b031614611220578151604051631643751560e11b8152610bca918791600401612c12565b6009546040805163bebbe7bb60e01b815290515f926001600160a01b03169163bebbe7bb9160048083019260209291908290030181865afa158015611267573d5f5f3e3d5ffd5b505050506040513d601f19601f8201168201806040525081019061128b91906128a1565b6001600160a01b03166384d0643e6040518163ffffffff1660e01b8152600401602060405180830381865afa1580156112c6573d5f5f3e3d5ffd5b505050506040513d601f19601f820116820180604052508101906112ea91906128a1565b6001600160a01b031663bafd8d4a6040518163ffffffff1660e01b8152600401602060405180830381865afa158015611325573d5f5f3e3d5ffd5b505050506040513d601f19601f8201168201806040525081019061134991906128a1565b6001600160a01b0316636872fc3c6040518163ffffffff1660e01b8152600401602060405180830381865afa158015611384573d5f5f3e3d5ffd5b505050506040513d601f19601f820116820180604052508101906113a891906128a1565b6001600160a01b031663e1ed6e726040518163ffffffff1660e01b8152600401602060405180830381865afa1580156113e3573d5f5f3e3d5ffd5b505050506040513d601f19601f820116820180604052508101906114079190612c2b565b90505f60095f9054906101000a90046001600160a01b03166001600160a01b031663bebbe7bb6040518163ffffffff1660e01b8152600401602060405180830381865afa15801561145a573d5f5f3e3d5ffd5b505050506040513d601f19601f8201168201806040525081019061147e91906128a1565b6001600160a01b03166384d0643e6040518163ffffffff1660e01b8152600401602060405180830381865afa1580156114b9573d5f5f3e3d5ffd5b505050506040513d601f19601f820116820180604052508101906114dd91906128a1565b6001600160a01b031663bafd8d4a6040518163ffffffff1660e01b8152600401602060405180830381865afa158015611518573d5f5f3e3d5ffd5b505050506040513d601f19601f8201168201806040525081019061153c91906128a1565b6001600160a01b0316636872fc3c6040518163ffffffff1660e01b8152600401602060405180830381865afa158015611577573d5f5f3e3d5ffd5b505050506040513d601f19601f8201168201806040525081019061159b91906128a1565b6001600160a01b031663ac5bd44f6040518163ffffffff1660e01b81526004016115c490612c46565b602060405180830381865afa1580156115df573d5f5f3e3d5ffd5b505050506040513d601f19601f8201168201806040525081019061160391906128a1565b6040516323b872dd60e01b815290915081906001600160a01b038216906323b872dd9061163890339030908b90600401612b7c565b6020604051808303815f875af1158015611654573d5f5f3e3d5ffd5b505050506040513d601f19601f820116820180604052508101906116789190612ba0565b506001600160401b03831660208087018290525f918252601081526040808320885184529091529081902090516116b09089906129bb565b9081526020016040518091039020545f036116d257600e54604086015261171b565b6001600160401b0383165f908152601060209081526040808320885184529091529081902090516117049089906129bb565b908152604080519182900360200190912054908601525b858560600181815161172d9190612a0a565b9052504260808601908152600e8054600180820183555f92835288517fbb7b4a454dc3493923482f07822329ed19e8244eff582cc204f8554c3620c3fd6005909302928301556020808a01517fbb7b4a454dc3493923482f07822329ed19e8244eff582cc204f8554c3620c3fe8401805467ffffffffffffffff19166001600160401b039283161790556040808c0180517fbb7b4a454dc3493923482f07822329ed19e8244eff582cc204f8554c3620c3ff87015560608d01517fbb7b4a454dc3493923482f07822329ed19e8244eff582cc204f8554c3620c40087015596517fbb7b4a454dc3493923482f07822329ed19e8244eff582cc204f8554c3620c401909501949094558816808552600f8252838520865181549485018255908652828620909301929092559351908352601084528183208951845290935290819020905161187b908a906129bb565b90815260405190819003602001902055611893612255565b5050505050505050565b6118a5612297565b6118af815f6122d7565b50565b6118ba6124d0565b600e82815481106118cd576118cd612c62565b5f9182526020918290206040805160a08101825260059093029091018054835260018101546001600160401b03169383019390935260028301549082015260038201546060820152600490910154608082015292915050565b61192e6124d0565b6001600160401b0383165f908152600f60205260409020805461196a91908490811061195c5761195c612c62565b905f5260205f2001546118b2565b9392505050565b6009546040805163bebbe7bb60e01b815290515f926001600160a01b03169163bebbe7bb9160048083019260209291908290030181865afa1580156119b8573d5f5f3e3d5ffd5b505050506040513d601f19601f820116820180604052508101906119dc91906128a1565b6001600160a01b03166384d0643e6040518163ffffffff1660e01b8152600401602060405180830381865afa158015611a17573d5f5f3e3d5ffd5b505050506040513d601f19601f82011682018060405250810190611a3b91906128a1565b6001600160a01b031663bafd8d4a6040518163ffffffff1660e01b8152600401602060405180830381865afa158015611a76573d5f5f3e3d5ffd5b505050506040513d601f19601f82011682018060405250810190611a9a91906128a1565b6001600160a01b0316636872fc3c6040518163ffffffff1660e01b8152600401602060405180830381865afa158015611ad5573d5f5f3e3d5ffd5b505050506040513d601f19601f82011682018060405250810190611af991906128a1565b6001600160a01b031663e1ed6e726040518163ffffffff1660e01b8152600401602060405180830381865afa158015611b34573d5f5f3e3d5ffd5b505050506040513d601f19601f82011682018060405250810190611b589190612c2b565b9050806001600160401b0316600e8481548110611b7757611b77612c62565b5f9182526020909120600160059092020101546001600160401b031614611bb4576040516309acb99760e31b815260048101849052602401610bca565b600e8381548110611bc757611bc7612c62565b905f5260205f20906005020160030154821115611c265782600e8481548110611bf257611bf2612c62565b905f5260205f2090600502016003015460405163d8bf65b560e01b8152600401610bca929190918252602082015260400190565b6009546040805163bebbe7bb60e01b815290515f926001600160a01b03169163bebbe7bb9160048083019260209291908290030181865afa158015611c6d573d5f5f3e3d5ffd5b505050506040513d601f19601f82011682018060405250810190611c9191906128a1565b6001600160a01b03166384d0643e6040518163ffffffff1660e01b8152600401602060405180830381865afa158015611ccc573d5f5f3e3d5ffd5b505050506040513d601f19601f82011682018060405250810190611cf091906128a1565b6001600160a01b031663bafd8d4a6040518163ffffffff1660e01b8152600401602060405180830381865afa158015611d2b573d5f5f3e3d5ffd5b505050506040513d601f19601f82011682018060405250810190611d4f91906128a1565b6001600160a01b0316636872fc3c6040518163ffffffff1660e01b8152600401602060405180830381865afa158015611d8a573d5f5f3e3d5ffd5b505050506040513d601f19601f82011682018060405250810190611dae91906128a1565b6001600160a01b031663ac5bd44f6040518163ffffffff1660e01b8152600401611dd790612c46565b602060405180830381865afa158015611df2573d5f5f3e3d5ffd5b505050506040513d601f19601f82011682018060405250810190611e1691906128a1565b60405163a9059cbb60e01b815290915081906001600160a01b0382169063a9059cbb90611e499033908890600401612c12565b6020604051808303815f875af1158015611e65573d5f5f3e3d5ffd5b505050506040513d601f19601f82011682018060405250810190611e899190612ba0565b5083600e8681548110611e9e57611e9e612c62565b905f5260205f2090600502016003015f828254611ebb9190612c76565b90915550611ec99050612255565b5050505050565b6001600160a01b03165f9081526020819052604090205460ff1690565b611ef5612297565b6001600160a01b038116611f2257325f30604051633603021960e21b8152600401610bca93929190612c89565b6118af8160016122d7565b606060058054610af790612a1d565b611f44612297565b6004611f508382612cf0565b506005611f5d8282612cf0565b505050565b5f33610b8581858561224a565b6001600160a01b039182165f90815260026020908152604080832093909416825291909152205490565b611fa1612297565b610ae6612255565b611fb16124d0565b6009546040805163bebbe7bb60e01b815290515f926001600160a01b03169163bebbe7bb9160048083019260209291908290030181865afa158015611ff8573d5f5f3e3d5ffd5b505050506040513d601f19601f8201168201806040525081019061201c91906128a1565b6001600160a01b03166384d0643e6040518163ffffffff1660e01b8152600401602060405180830381865afa158015612057573d5f5f3e3d5ffd5b505050506040513d601f19601f8201168201806040525081019061207b91906128a1565b6001600160a01b031663bafd8d4a6040518163ffffffff1660e01b8152600401602060405180830381865afa1580156120b6573d5f5f3e3d5ffd5b505050506040513d601f19601f820116820180604052508101906120da91906128a1565b6001600160a01b0316636872fc3c6040518163ffffffff1660e01b8152600401602060405180830381865afa158015612115573d5f5f3e3d5ffd5b505050506040513d601f19601f8201168201806040525081019061213991906128a1565b6001600160a01b031663e1ed6e726040518163ffffffff1660e01b8152600401602060405180830381865afa158015612174573d5f5f3e3d5ffd5b505050506040513d601f19601f820116820180604052508101906121989190612c2b565b6001600160401b0381165f9081526010602090815260408083208884529091529081902090519192506121e4916121d09086906129bb565b9081526020016040518091039020546118b2565b949350505050565b611f5d838383600161232a565b5f6122048484611f6f565b90505f198114610ae0578181101561223c573233858530858760405162b83d1960e21b8152600401610bca9796959493929190612daa565b610ae084848484035f61232a565b611f5d8383836123aa565b6122616012600a612b38565b60075461226e9190612b46565b6003541015610ae657610ae6306122876012600a612b38565b612292906001612b46565b6124c5565b6122a033611ed0565b1580156122b357506122b132611ed0565b155b15610ae657323330604051630be6bab560e01b8152600401610bca93929190612c89565b6001600160a01b0382165f81815260208190526040808220805460ff191685151590811790915590519092917f6bfa7e860c3e9bf67b810cb88276b19b27c972812bac04793d369b59a1183a8391a35050565b6001600160a01b038085165f9081526002602090815260408083209387168352929052208290558015610ae057826001600160a01b0316846001600160a01b03167f8c5be1e5ebec7d5bd14f71427d1e84f3dd0314c0f7b2291e5b200ac8c7c3b9258460405161239c91815260200190565b60405180910390a350505050565b6001600160a01b0383166123d4578060035f8282546123c99190612a0a565b909155506124399050565b6001600160a01b0383165f908152600160205260409020548181101561241b5732338585308587604051630f7d0bbd60e21b8152600401610bca9796959493929190612daa565b6001600160a01b0384165f9081526001602052604090209082900390555b6001600160a01b03821661245557600380548290039055612473565b6001600160a01b0382165f9081526001602052604090208054820190555b816001600160a01b0316836001600160a01b03167fddf252ad1be2c89b69c2b068fc378daa952ba7f163c4a11628f55a4df523b3ef836040516124b891815260200190565b60405180910390a3505050565b6101e65f83836123aa565b6040518060a001604052805f81526020015f6001600160401b031681526020015f81526020015f81526020015f81525090565b6001600160a01b03811681146118af575f5ffd5b5f5f60408385031215612528575f5ffd5b823561253381612503565b946020939093013593505050565b5f81518084528060208401602086015e5f602082860101526020601f19601f83011685010191505092915050565b602081525f61196a6020830184612541565b5f5f5f60608486031215612593575f5ffd5b833561259e81612503565b925060208401356125ae81612503565b929592945050506040919091013590565b5f602082840312156125cf575f5ffd5b813561196a81612503565b634e487b7160e01b5f52604160045260245ffd5b60405160a081016001600160401b0381118282101715612610576126106125da565b60405290565b604051601f8201601f191681016001600160401b038111828210171561263e5761263e6125da565b604052919050565b5f6001600160401b0382111561265e5761265e6125da565b50601f01601f191660200190565b5f82601f83011261267b575f5ffd5b813561268e61268982612646565b612616565b8181528460208386010111156126a2575f5ffd5b816020850160208301375f918101602001919091529392505050565b5f5f5f606084860312156126d0575f5ffd5b83356126db81612503565b925060208401356001600160401b038111156126f5575f5ffd5b6127018682870161266c565b93969395505050506040919091013590565b5f60208284031215612723575f5ffd5b5035919050565b6001600160401b03811681146118af575f5ffd5b5f5f6040838503121561274f575f5ffd5b82356125338161272a565b5f5f6040838503121561276b575f5ffd5b50508035926020909101359150565b6001600160a01b0391909116815260200190565b5f5f6040838503121561279f575f5ffd5b82356001600160401b038111156127b4575f5ffd5b6127c08582860161266c565b92505060208301356001600160401b038111156127db575f5ffd5b6127e78582860161266c565b9150509250929050565b5f60208284031215612801575f5ffd5b813561196a8161272a565b5f5f6040838503121561281d575f5ffd5b823561282881612503565b9150602083013561283881612503565b809150509250929050565b5f60208284031215612853575f5ffd5b81356001600160401b03811115612868575f5ffd5b6121e48482850161266c565b5f5f60408385031215612885575f5ffd5b8235915060208301356001600160401b038111156127db575f5ffd5b5f602082840312156128b1575f5ffd5b815161196a81612503565b5f602082840312156128cc575f5ffd5b5051919050565b5f82601f8301126128e2575f5ffd5b81516128f061268982612646565b818152846020838601011115612904575f5ffd5b8160208501602083015e5f918101602001919091529392505050565b5f5f82840360c0811215612932575f5ffd5b60a081121561293f575f5ffd5b506129486125ee565b83518152602084015161295a8161272a565b602082015260408481015190820152606080850151908201526080808501519082015260a08401519092506001600160401b03811115612998575f5ffd5b6127e7858286016128d3565b5f81518060208401855e5f93019283525090919050565b5f61196a82846129a4565b828152604060208201525f6121e46040830184612541565b634e487b7160e01b5f52601160045260245ffd5b5f60018201612a0357612a036129de565b5060010190565b80820180821115610b8b57610b8b6129de565b600181811c90821680612a3157607f821691505b602082108103612a4f57634e487b7160e01b5f52602260045260245ffd5b50919050565b6001815b6001841115612a9057808504811115612a7457612a746129de565b6001841615612a8257908102905b60019390931c928002612a59565b935093915050565b5f82612aa657506001610b8b565b81612ab257505f610b8b565b8160018114612ac85760028114612ad257612aee565b6001915050610b8b565b60ff841115612ae357612ae36129de565b50506001821b610b8b565b5060208310610133831016604e8410600b8410161715612b11575081810a610b8b565b612b1d5f198484612a55565b805f1904821115612b3057612b306129de565b029392505050565b5f61196a60ff841683612a98565b8082028115828204841417610b8b57610b8b6129de565b5f82612b7757634e487b7160e01b5f52601260045260245ffd5b500490565b6001600160a01b039384168152919092166020820152604081019190915260600190565b5f60208284031215612bb0575f5ffd5b8151801515811461196a575f5ffd5b5f60208284031215612bcf575f5ffd5b81516001600160401b03811115612be4575f5ffd5b6121e4848285016128d3565b6d02732b2b21020b8383937bb32b2160951b81525f61196a600e8301846129a4565b6001600160a01b03929092168252602082015260400190565b5f60208284031215612c3b575f5ffd5b815161196a8161272a565b602080825260029082015261574d60f01b604082015260600190565b634e487b7160e01b5f52603260045260245ffd5b81810381811115610b8b57610b8b6129de565b6001600160a01b0393841681529183166020830152909116604082015260600190565b601f821115611f5d57805f5260205f20601f840160051c81016020851015612cd15750805b601f840160051c820191505b81811015611ec9575f8155600101612cdd565b81516001600160401b03811115612d0957612d096125da565b612d1d81612d178454612a1d565b84612cac565b6020601f821160018114612d4f575f8315612d385750848201515b5f19600385901b1c1916600184901b178455611ec9565b5f84815260208120601f198516915b82811015612d7e5787850151825560209485019460019092019101612d5e565b5084821015612d9b57868401515f19600387901b60f8161c191681555b50505050600190811b01905550565b6001600160a01b039788168152958716602087015293861660408601529185166060850152909316608083015260a082019290925260c081019190915260e0019056fea264697066735822122031f561191e6741712f732894aad20f0821769aa8b679597c5e4e90ae9240041a64736f6c634300081b0033",
			"opcodes": "PUSH1 0x80 PUSH1 0x40 MSTORE CALLVALUE DUP1 ISZERO PUSH2 0xF JUMPI PUSH0 PUSH0 REVERT JUMPDEST POP PUSH1 0x40 MLOAD PUSH2 0x3615 CODESIZE SUB DUP1 PUSH2 0x3615 DUP4 CODECOPY DUP2 ADD PUSH1 0x40 DUP2 SWAP1 MSTORE PUSH2 0x2E SWAP2 PUSH2 0x4E0 JUMP JUMPDEST PUSH1 0x40 MLOAD DUP1 PUSH1 0x40 ADD PUSH1 0x40 MSTORE DUP1 PUSH1 0xC DUP2 MSTORE PUSH1 0x20 ADD PUSH12 0x4479736E6F6D696120586965 PUSH1 0xA0 SHL DUP2 MSTORE POP PUSH1 0x40 MLOAD DUP1 PUSH1 0x40 ADD PUSH1 0x40 MSTORE DUP1 PUSH1 0x3 DUP2 MSTORE PUSH1 0x20 ADD PUSH3 0x584945 PUSH1 0xE8 SHL DUP2 MSTORE POP DUP3 PUSH1 0x1 PUSH1 0x1 PUSH1 0xA0 SHL SUB AND PUSH4 0x6FB7329C PUSH1 0x40 MLOAD DUP2 PUSH4 0xFFFFFFFF AND PUSH1 0xE0 SHL DUP2 MSTORE PUSH1 0x4 ADD PUSH1 0x20 PUSH1 0x40 MLOAD DUP1 DUP4 SUB DUP2 DUP7 GAS STATICCALL ISZERO DUP1 ISZERO PUSH2 0xAB JUMPI RETURNDATASIZE PUSH0 PUSH0 RETURNDATACOPY RETURNDATASIZE PUSH0 REVERT JUMPDEST POP POP POP POP PUSH1 0x40 MLOAD RETURNDATASIZE PUSH1 0x1F NOT PUSH1 0x1F DUP3 ADD AND DUP3 ADD DUP1 PUSH1 0x40 MSTORE POP DUP2 ADD SWAP1 PUSH2 0xCF SWAP2 SWAP1 PUSH2 0x4E0 JUMP JUMPDEST CALLER DUP1 PUSH2 0x101 JUMPI PUSH1 0x40 MLOAD PUSH4 0x36030219 PUSH1 0xE2 SHL DUP2 MSTORE ORIGIN PUSH1 0x4 DUP3 ADD MSTORE PUSH0 PUSH1 0x24 DUP3 ADD MSTORE ADDRESS PUSH1 0x44 DUP3 ADD MSTORE PUSH1 0x64 ADD JUMPDEST PUSH1 0x40 MLOAD DUP1 SWAP2 SUB SWAP1 REVERT JUMPDEST PUSH2 0x10C DUP2 PUSH1 0x1 PUSH2 0x241 JUMP JUMPDEST POP PUSH1 0x4 PUSH2 0x119 DUP5 DUP3 PUSH2 0x59A JUMP JUMPDEST POP PUSH1 0x5 PUSH2 0x126 DUP4 DUP3 PUSH2 0x59A JUMP JUMPDEST POP PUSH1 0x6 DUP1 SLOAD PUSH1 0x1 PUSH1 0x1 PUSH1 0xA0 SHL SUB NOT AND PUSH1 0x1 PUSH1 0x1 PUSH1 0xA0 SHL SUB DUP4 AND SWAP1 DUP2 OR SWAP1 SWAP2 SSTORE PUSH1 0x40 DUP1 MLOAD PUSH4 0x604A6FA9 PUSH1 0xE0 SHL DUP2 MSTORE SWAP1 MLOAD PUSH3 0x1B207 SWAP3 SWAP2 PUSH4 0x604A6FA9 SWAP2 PUSH1 0x4 DUP1 DUP4 ADD SWAP3 PUSH1 0x20 SWAP3 SWAP2 SWAP1 DUP3 SWAP1 SUB ADD DUP2 PUSH0 DUP8 GAS CALL ISZERO DUP1 ISZERO PUSH2 0x184 JUMPI RETURNDATASIZE PUSH0 PUSH0 RETURNDATACOPY RETURNDATASIZE PUSH0 REVERT JUMPDEST POP POP POP POP PUSH1 0x40 MLOAD RETURNDATASIZE PUSH1 0x1F NOT PUSH1 0x1F DUP3 ADD AND DUP3 ADD DUP1 PUSH1 0x40 MSTORE POP DUP2 ADD SWAP1 PUSH2 0x1A8 SWAP2 SWAP1 PUSH2 0x654 JUMP JUMPDEST PUSH2 0x1B2 SWAP2 SWAP1 PUSH2 0x67A JUMP JUMPDEST PUSH1 0x1 PUSH1 0x1 PUSH1 0x40 SHL SUB AND PUSH1 0x7 SSTORE PUSH2 0x208 PUSH20 0x24F0154C1DCE548ADF15DA2098FDD8B8A3B8151D PUSH2 0x1E2 PUSH1 0x12 PUSH1 0xA PUSH2 0x7AD JUMP JUMPDEST PUSH2 0x1ED SWAP1 PUSH1 0x1 PUSH2 0x7BB JUMP JUMPDEST PUSH1 0x1 PUSH1 0x1 PUSH1 0xA0 SHL SUB SWAP1 SWAP2 AND PUSH0 SWAP1 DUP2 MSTORE PUSH1 0x8 PUSH1 0x20 MSTORE PUSH1 0x40 SWAP1 KECCAK256 SSTORE JUMP JUMPDEST POP POP PUSH1 0x9 DUP1 SLOAD PUSH1 0x1 PUSH1 0x1 PUSH1 0xA0 SHL SUB NOT AND PUSH1 0x1 PUSH1 0x1 PUSH1 0xA0 SHL SUB DUP5 AND OR SWAP1 SSTORE POP PUSH2 0x22F ORIGIN PUSH2 0x294 JUMP JUMPDEST NUMBER PUSH1 0xD SSTORE PUSH2 0x23B PUSH2 0x2DF JUMP JUMPDEST POP PUSH2 0x7E5 JUMP JUMPDEST PUSH1 0x1 PUSH1 0x1 PUSH1 0xA0 SHL SUB DUP3 AND PUSH0 DUP2 DUP2 MSTORE PUSH1 0x20 DUP2 SWAP1 MSTORE PUSH1 0x40 DUP1 DUP3 KECCAK256 DUP1 SLOAD PUSH1 0xFF NOT AND DUP6 ISZERO ISZERO SWAP1 DUP2 OR SWAP1 SWAP2 SSTORE SWAP1 MLOAD SWAP1 SWAP3 SWAP2 PUSH32 0x6BFA7E860C3E9BF67B810CB88276B19B27C972812BAC04793D369B59A1183A83 SWAP2 LOG3 POP POP JUMP JUMPDEST PUSH2 0x29C PUSH2 0x323 JUMP JUMPDEST PUSH1 0x1 PUSH1 0x1 PUSH1 0xA0 SHL SUB DUP2 AND PUSH2 0x2D1 JUMPI PUSH1 0x40 MLOAD PUSH4 0x36030219 PUSH1 0xE2 SHL DUP2 MSTORE ORIGIN PUSH1 0x4 DUP3 ADD MSTORE PUSH0 PUSH1 0x24 DUP3 ADD MSTORE ADDRESS PUSH1 0x44 DUP3 ADD MSTORE PUSH1 0x64 ADD PUSH2 0xF8 JUMP JUMPDEST PUSH2 0x2DC DUP2 PUSH1 0x1 PUSH2 0x241 JUMP JUMPDEST POP JUMP JUMPDEST PUSH2 0x2EB PUSH1 0x12 PUSH1 0xA PUSH2 0x7AD JUMP JUMPDEST PUSH1 0x7 SLOAD PUSH2 0x2F8 SWAP2 SWAP1 PUSH2 0x7BB JUMP JUMPDEST PUSH1 0x3 SLOAD LT ISZERO PUSH2 0x321 JUMPI PUSH2 0x321 ADDRESS PUSH2 0x311 PUSH1 0x12 PUSH1 0xA PUSH2 0x7AD JUMP JUMPDEST PUSH2 0x31C SWAP1 PUSH1 0x1 PUSH2 0x7BB JUMP JUMPDEST PUSH2 0x37D JUMP JUMPDEST JUMP JUMPDEST CALLER PUSH0 SWAP1 DUP2 MSTORE PUSH1 0x20 DUP2 SWAP1 MSTORE PUSH1 0x40 SWAP1 KECCAK256 SLOAD PUSH1 0xFF AND ISZERO DUP1 ISZERO PUSH2 0x351 JUMPI POP ORIGIN PUSH0 SWAP1 DUP2 MSTORE PUSH1 0x20 DUP2 SWAP1 MSTORE PUSH1 0x40 SWAP1 KECCAK256 SLOAD PUSH1 0xFF AND ISZERO JUMPDEST ISZERO PUSH2 0x321 JUMPI PUSH1 0x40 MLOAD PUSH4 0xBE6BAB5 PUSH1 0xE0 SHL DUP2 MSTORE ORIGIN PUSH1 0x4 DUP3 ADD MSTORE CALLER PUSH1 0x24 DUP3 ADD MSTORE ADDRESS PUSH1 0x44 DUP3 ADD MSTORE PUSH1 0x64 ADD PUSH2 0xF8 JUMP JUMPDEST PUSH2 0x388 PUSH0 DUP4 DUP4 PUSH2 0x38C JUMP JUMPDEST POP POP JUMP JUMPDEST PUSH1 0x1 PUSH1 0x1 PUSH1 0xA0 SHL SUB DUP4 AND PUSH2 0x3B6 JUMPI DUP1 PUSH1 0x3 PUSH0 DUP3 DUP3 SLOAD PUSH2 0x3AB SWAP2 SWAP1 PUSH2 0x7D2 JUMP JUMPDEST SWAP1 SWAP2 SSTORE POP PUSH2 0x440 SWAP1 POP JUMP JUMPDEST PUSH1 0x1 PUSH1 0x1 PUSH1 0xA0 SHL SUB DUP4 AND PUSH0 SWAP1 DUP2 MSTORE PUSH1 0x1 PUSH1 0x20 MSTORE PUSH1 0x40 SWAP1 KECCAK256 SLOAD DUP2 DUP2 LT ISZERO PUSH2 0x422 JUMPI PUSH1 0x40 MLOAD PUSH4 0xF7D0BBD PUSH1 0xE2 SHL DUP2 MSTORE ORIGIN PUSH1 0x4 DUP3 ADD MSTORE CALLER PUSH1 0x24 DUP3 ADD MSTORE PUSH1 0x1 PUSH1 0x1 PUSH1 0xA0 SHL SUB DUP1 DUP7 AND PUSH1 0x44 DUP4 ADD MSTORE DUP5 AND PUSH1 0x64 DUP3 ADD MSTORE ADDRESS PUSH1 0x84 DUP3 ADD MSTORE PUSH1 0xA4 DUP2 ADD DUP3 SWAP1 MSTORE PUSH1 0xC4 DUP2 ADD DUP4 SWAP1 MSTORE PUSH1 0xE4 ADD PUSH2 0xF8 JUMP JUMPDEST PUSH1 0x1 PUSH1 0x1 PUSH1 0xA0 SHL SUB DUP5 AND PUSH0 SWAP1 DUP2 MSTORE PUSH1 0x1 PUSH1 0x20 MSTORE PUSH1 0x40 SWAP1 KECCAK256 SWAP1 DUP3 SWAP1 SUB SWAP1 SSTORE JUMPDEST PUSH1 0x1 PUSH1 0x1 PUSH1 0xA0 SHL SUB DUP3 AND PUSH2 0x45C JUMPI PUSH1 0x3 DUP1 SLOAD DUP3 SWAP1 SUB SWAP1 SSTORE PUSH2 0x47A JUMP JUMPDEST PUSH1 0x1 PUSH1 0x1 PUSH1 0xA0 SHL SUB DUP3 AND PUSH0 SWAP1 DUP2 MSTORE PUSH1 0x1 PUSH1 0x20 MSTORE PUSH1 0x40 SWAP1 KECCAK256 DUP1 SLOAD DUP3 ADD SWAP1 SSTORE JUMPDEST DUP2 PUSH1 0x1 PUSH1 0x1 PUSH1 0xA0 SHL SUB AND DUP4 PUSH1 0x1 PUSH1 0x1 PUSH1 0xA0 SHL SUB AND PUSH32 0xDDF252AD1BE2C89B69C2B068FC378DAA952BA7F163C4A11628F55A4DF523B3EF DUP4 PUSH1 0x40 MLOAD PUSH2 0x4BF SWAP2 DUP2 MSTORE PUSH1 0x20 ADD SWAP1 JUMP JUMPDEST PUSH1 0x40 MLOAD DUP1 SWAP2 SUB SWAP1 LOG3 POP POP POP JUMP JUMPDEST PUSH1 0x1 PUSH1 0x1 PUSH1 0xA0 SHL SUB DUP2 AND DUP2 EQ PUSH2 0x2DC JUMPI PUSH0 PUSH0 REVERT JUMPDEST PUSH0 PUSH1 0x20 DUP3 DUP5 SUB SLT ISZERO PUSH2 0x4F0 JUMPI PUSH0 PUSH0 REVERT JUMPDEST DUP2 MLOAD PUSH2 0x4FB DUP2 PUSH2 0x4CC JUMP JUMPDEST SWAP4 SWAP3 POP POP POP JUMP JUMPDEST PUSH4 0x4E487B71 PUSH1 0xE0 SHL PUSH0 MSTORE PUSH1 0x41 PUSH1 0x4 MSTORE PUSH1 0x24 PUSH0 REVERT JUMPDEST PUSH1 0x1 DUP2 DUP2 SHR SWAP1 DUP3 AND DUP1 PUSH2 0x52A JUMPI PUSH1 0x7F DUP3 AND SWAP2 POP JUMPDEST PUSH1 0x20 DUP3 LT DUP2 SUB PUSH2 0x548 JUMPI PUSH4 0x4E487B71 PUSH1 0xE0 SHL PUSH0 MSTORE PUSH1 0x22 PUSH1 0x4 MSTORE PUSH1 0x24 PUSH0 REVERT JUMPDEST POP SWAP2 SWAP1 POP JUMP JUMPDEST PUSH1 0x1F DUP3 GT ISZERO PUSH2 0x595 JUMPI DUP1 PUSH0 MSTORE PUSH1 0x20 PUSH0 KECCAK256 PUSH1 0x1F DUP5 ADD PUSH1 0x5 SHR DUP2 ADD PUSH1 0x20 DUP6 LT ISZERO PUSH2 0x573 JUMPI POP DUP1 JUMPDEST PUSH1 0x1F DUP5 ADD PUSH1 0x5 SHR DUP3 ADD SWAP2 POP JUMPDEST DUP2 DUP2 LT ISZERO PUSH2 0x592 JUMPI PUSH0 DUP2 SSTORE PUSH1 0x1 ADD PUSH2 0x57F JUMP JUMPDEST POP POP JUMPDEST POP POP POP JUMP JUMPDEST DUP2 MLOAD PUSH1 0x1 PUSH1 0x1 PUSH1 0x40 SHL SUB DUP2 GT ISZERO PUSH2 0x5B3 JUMPI PUSH2 0x5B3 PUSH2 0x502 JUMP JUMPDEST PUSH2 0x5C7 DUP2 PUSH2 0x5C1 DUP5 SLOAD PUSH2 0x516 JUMP JUMPDEST DUP5 PUSH2 0x54E JUMP JUMPDEST PUSH1 0x20 PUSH1 0x1F DUP3 GT PUSH1 0x1 DUP2 EQ PUSH2 0x5F9 JUMPI PUSH0 DUP4 ISZERO PUSH2 0x5E2 JUMPI POP DUP5 DUP3 ADD MLOAD JUMPDEST PUSH0 NOT PUSH1 0x3 DUP6 SWAP1 SHL SHR NOT AND PUSH1 0x1 DUP5 SWAP1 SHL OR DUP5 SSTORE PUSH2 0x592 JUMP JUMPDEST PUSH0 DUP5 DUP2 MSTORE PUSH1 0x20 DUP2 KECCAK256 PUSH1 0x1F NOT DUP6 AND SWAP2 JUMPDEST DUP3 DUP2 LT ISZERO PUSH2 0x628 JUMPI DUP8 DUP6 ADD MLOAD DUP3 SSTORE PUSH1 0x20 SWAP5 DUP6 ADD SWAP5 PUSH1 0x1 SWAP1 SWAP3 ADD SWAP2 ADD PUSH2 0x608 JUMP JUMPDEST POP DUP5 DUP3 LT ISZERO PUSH2 0x645 JUMPI DUP7 DUP5 ADD MLOAD PUSH0 NOT PUSH1 0x3 DUP8 SWAP1 SHL PUSH1 0xF8 AND SHR NOT AND DUP2 SSTORE JUMPDEST POP POP POP POP PUSH1 0x1 SWAP1 DUP2 SHL ADD SWAP1 SSTORE POP JUMP JUMPDEST PUSH0 PUSH1 0x20 DUP3 DUP5 SUB SLT ISZERO PUSH2 0x664 JUMPI PUSH0 PUSH0 REVERT JUMPDEST DUP2 MLOAD PUSH1 0x1 PUSH1 0x1 PUSH1 0x40 SHL SUB DUP2 AND DUP2 EQ PUSH2 0x4FB JUMPI PUSH0 PUSH0 REVERT JUMPDEST PUSH0 PUSH1 0x1 PUSH1 0x1 PUSH1 0x40 SHL SUB DUP4 AND DUP1 PUSH2 0x69E JUMPI PUSH4 0x4E487B71 PUSH1 0xE0 SHL PUSH0 MSTORE PUSH1 0x12 PUSH1 0x4 MSTORE PUSH1 0x24 PUSH0 REVERT JUMPDEST PUSH1 0x1 PUSH1 0x1 PUSH1 0x40 SHL SUB SWAP3 SWAP1 SWAP3 AND SWAP2 SWAP1 SWAP2 MOD SWAP3 SWAP2 POP POP JUMP JUMPDEST PUSH4 0x4E487B71 PUSH1 0xE0 SHL PUSH0 MSTORE PUSH1 0x11 PUSH1 0x4 MSTORE PUSH1 0x24 PUSH0 REVERT JUMPDEST PUSH1 0x1 DUP2 JUMPDEST PUSH1 0x1 DUP5 GT ISZERO PUSH2 0x703 JUMPI DUP1 DUP6 DIV DUP2 GT ISZERO PUSH2 0x6E7 JUMPI PUSH2 0x6E7 PUSH2 0x6B4 JUMP JUMPDEST PUSH1 0x1 DUP5 AND ISZERO PUSH2 0x6F5 JUMPI SWAP1 DUP2 MUL SWAP1 JUMPDEST PUSH1 0x1 SWAP4 SWAP1 SWAP4 SHR SWAP3 DUP1 MUL PUSH2 0x6CC JUMP JUMPDEST SWAP4 POP SWAP4 SWAP2 POP POP JUMP JUMPDEST PUSH0 DUP3 PUSH2 0x719 JUMPI POP PUSH1 0x1 PUSH2 0x7A7 JUMP JUMPDEST DUP2 PUSH2 0x725 JUMPI POP PUSH0 PUSH2 0x7A7 JUMP JUMPDEST DUP2 PUSH1 0x1 DUP2 EQ PUSH2 0x73B JUMPI PUSH1 0x2 DUP2 EQ PUSH2 0x745 JUMPI PUSH2 0x761 JUMP JUMPDEST PUSH1 0x1 SWAP2 POP POP PUSH2 0x7A7 JUMP JUMPDEST PUSH1 0xFF DUP5 GT ISZERO PUSH2 0x756 JUMPI PUSH2 0x756 PUSH2 0x6B4 JUMP JUMPDEST POP POP PUSH1 0x1 DUP3 SHL PUSH2 0x7A7 JUMP JUMPDEST POP PUSH1 0x20 DUP4 LT PUSH2 0x133 DUP4 LT AND PUSH1 0x4E DUP5 LT PUSH1 0xB DUP5 LT AND OR ISZERO PUSH2 0x784 JUMPI POP DUP2 DUP2 EXP PUSH2 0x7A7 JUMP JUMPDEST PUSH2 0x790 PUSH0 NOT DUP5 DUP5 PUSH2 0x6C8 JUMP JUMPDEST DUP1 PUSH0 NOT DIV DUP3 GT ISZERO PUSH2 0x7A3 JUMPI PUSH2 0x7A3 PUSH2 0x6B4 JUMP JUMPDEST MUL SWAP1 POP JUMPDEST SWAP3 SWAP2 POP POP JUMP JUMPDEST PUSH0 PUSH2 0x4FB PUSH1 0xFF DUP5 AND DUP4 PUSH2 0x70B JUMP JUMPDEST DUP1 DUP3 MUL DUP2 ISZERO DUP3 DUP3 DIV DUP5 EQ OR PUSH2 0x7A7 JUMPI PUSH2 0x7A7 PUSH2 0x6B4 JUMP JUMPDEST DUP1 DUP3 ADD DUP1 DUP3 GT ISZERO PUSH2 0x7A7 JUMPI PUSH2 0x7A7 PUSH2 0x6B4 JUMP JUMPDEST PUSH2 0x2E23 DUP1 PUSH2 0x7F2 PUSH0 CODECOPY PUSH0 RETURN INVALID PUSH1 0x80 PUSH1 0x40 MSTORE CALLVALUE DUP1 ISZERO PUSH2 0xF JUMPI PUSH0 PUSH0 REVERT JUMPDEST POP PUSH1 0x4 CALLDATASIZE LT PUSH2 0x1CA JUMPI PUSH0 CALLDATALOAD PUSH1 0xE0 SHR DUP1 PUSH4 0x666E1B39 GT PUSH2 0x101 JUMPI DUP1 PUSH4 0xC42564EA GT PUSH2 0x9A JUMPI DUP1 PUSH4 0xC42564EA EQ PUSH2 0x400 JUMPI DUP1 PUSH4 0xD3DC2A0F EQ PUSH2 0x413 JUMPI DUP1 PUSH4 0xD5ABEB01 EQ PUSH2 0x439 JUMPI DUP1 PUSH4 0xD9FE351D EQ PUSH2 0x442 JUMPI DUP1 PUSH4 0xDD62ED3E EQ PUSH2 0x46A JUMPI DUP1 PUSH4 0xE1B2F78C EQ PUSH2 0x47D JUMPI DUP1 PUSH4 0xF4E6C93F EQ PUSH2 0x4A7 JUMPI DUP1 PUSH4 0xF5C590F8 EQ PUSH2 0x4AF JUMPI DUP1 PUSH4 0xFF762044 EQ PUSH2 0x4C2 JUMPI PUSH0 PUSH0 REVERT JUMPDEST DUP1 PUSH4 0x666E1B39 EQ PUSH2 0x35E JUMPI DUP1 PUSH4 0x6FB7329C EQ PUSH2 0x371 JUMPI DUP1 PUSH4 0x7065CB48 EQ PUSH2 0x391 JUMPI DUP1 PUSH4 0x70A08231 EQ PUSH2 0x3A4 JUMPI DUP1 PUSH4 0x846A80C0 EQ PUSH2 0x1D6 JUMPI DUP1 PUSH4 0x8DA5CB5B EQ PUSH2 0x3CC JUMPI DUP1 PUSH4 0x95D89B41 EQ PUSH2 0x3D2 JUMPI DUP1 PUSH4 0x9DCBF7EA EQ PUSH2 0x3DA JUMPI DUP1 PUSH4 0xA9059CBB EQ PUSH2 0x3ED JUMPI PUSH0 PUSH0 REVERT JUMPDEST DUP1 PUSH4 0x2499A533 GT PUSH2 0x173 JUMPI DUP1 PUSH4 0x2499A533 EQ PUSH2 0x263 JUMPI DUP1 PUSH4 0x27D74DEE EQ PUSH2 0x276 JUMPI DUP1 PUSH4 0x2B83B1FC EQ PUSH2 0x27E JUMPI DUP1 PUSH4 0x2D4B5979 EQ PUSH2 0x2A6 JUMPI DUP1 PUSH4 0x313CE567 EQ PUSH2 0x2B9 JUMPI DUP1 PUSH4 0x38BF3CFA EQ PUSH2 0x2C8 JUMPI DUP1 PUSH4 0x3AAC9D70 EQ PUSH2 0x2DB JUMPI DUP1 PUSH4 0x4E334B7C EQ PUSH2 0x338 JUMPI DUP1 PUSH4 0x56CA301A EQ PUSH2 0x34B JUMPI PUSH0 PUSH0 REVERT JUMPDEST DUP1 PUSH3 0x4CF424 EQ PUSH2 0x1CE JUMPI DUP1 PUSH3 0x7DC6AB EQ PUSH2 0x1D8 JUMPI DUP1 PUSH4 0x5A667E7 EQ PUSH2 0x1D6 JUMPI DUP1 PUSH4 0x6FDDE03 EQ PUSH2 0x1EA JUMPI DUP1 PUSH4 0x95EA7B3 EQ PUSH2 0x208 JUMPI DUP1 PUSH4 0x18160DDD EQ PUSH2 0x22B JUMPI DUP1 PUSH4 0x222838DB EQ PUSH2 0x23D JUMPI DUP1 PUSH4 0x23B872DD EQ PUSH2 0x250 JUMPI JUMPDEST PUSH0 PUSH0 REVERT JUMPDEST PUSH2 0x1D6 PUSH2 0x4E4 JUMP JUMPDEST STOP JUMPDEST PUSH2 0x1D6 PUSH2 0x1E6 CALLDATASIZE PUSH1 0x4 PUSH2 0x2517 JUMP JUMPDEST POP POP JUMP JUMPDEST PUSH2 0x1F2 PUSH2 0xAE8 JUMP JUMPDEST PUSH1 0x40 MLOAD PUSH2 0x1FF SWAP2 SWAP1 PUSH2 0x256F JUMP JUMPDEST PUSH1 0x40 MLOAD DUP1 SWAP2 SUB SWAP1 RETURN JUMPDEST PUSH2 0x21B PUSH2 0x216 CALLDATASIZE PUSH1 0x4 PUSH2 0x2517 JUMP JUMPDEST PUSH2 0xB78 JUMP JUMPDEST PUSH1 0x40 MLOAD SWAP1 ISZERO ISZERO DUP2 MSTORE PUSH1 0x20 ADD PUSH2 0x1FF JUMP JUMPDEST PUSH1 0x3 SLOAD JUMPDEST PUSH1 0x40 MLOAD SWAP1 DUP2 MSTORE PUSH1 0x20 ADD PUSH2 0x1FF JUMP JUMPDEST PUSH2 0x1D6 PUSH2 0x24B CALLDATASIZE PUSH1 0x4 PUSH2 0x2517 JUMP JUMPDEST PUSH2 0xB91 JUMP JUMPDEST PUSH2 0x21B PUSH2 0x25E CALLDATASIZE PUSH1 0x4 PUSH2 0x2581 JUMP JUMPDEST PUSH2 0xD92 JUMP JUMPDEST PUSH2 0x1D6 PUSH2 0x271 CALLDATASIZE PUSH1 0x4 PUSH2 0x2517 JUMP JUMPDEST PUSH2 0xDB5 JUMP JUMPDEST PUSH1 0xE SLOAD PUSH2 0x22F JUMP JUMPDEST PUSH2 0x22F PUSH2 0x28C CALLDATASIZE PUSH1 0x4 PUSH2 0x25BF JUMP JUMPDEST PUSH1 0x1 PUSH1 0x1 PUSH1 0xA0 SHL SUB AND PUSH0 SWAP1 DUP2 MSTORE PUSH1 0x8 PUSH1 0x20 MSTORE PUSH1 0x40 SWAP1 KECCAK256 SLOAD SWAP1 JUMP JUMPDEST PUSH2 0x1D6 PUSH2 0x2B4 CALLDATASIZE PUSH1 0x4 PUSH2 0x26BE JUMP JUMPDEST PUSH2 0xF63 JUMP JUMPDEST PUSH1 0x40 MLOAD PUSH1 0x12 DUP2 MSTORE PUSH1 0x20 ADD PUSH2 0x1FF JUMP JUMPDEST PUSH2 0x1D6 PUSH2 0x2D6 CALLDATASIZE PUSH1 0x4 PUSH2 0x25BF JUMP JUMPDEST PUSH2 0x189D JUMP JUMPDEST PUSH2 0x2EE PUSH2 0x2E9 CALLDATASIZE PUSH1 0x4 PUSH2 0x2713 JUMP JUMPDEST PUSH2 0x18B2 JUMP JUMPDEST PUSH1 0x40 MLOAD PUSH2 0x1FF SWAP2 SWAP1 PUSH0 PUSH1 0xA0 DUP3 ADD SWAP1 POP DUP3 MLOAD DUP3 MSTORE PUSH1 0x1 PUSH1 0x1 PUSH1 0x40 SHL SUB PUSH1 0x20 DUP5 ADD MLOAD AND PUSH1 0x20 DUP4 ADD MSTORE PUSH1 0x40 DUP4 ADD MLOAD PUSH1 0x40 DUP4 ADD MSTORE PUSH1 0x60 DUP4 ADD MLOAD PUSH1 0x60 DUP4 ADD MSTORE PUSH1 0x80 DUP4 ADD MLOAD PUSH1 0x80 DUP4 ADD MSTORE SWAP3 SWAP2 POP POP JUMP JUMPDEST PUSH2 0x2EE PUSH2 0x346 CALLDATASIZE PUSH1 0x4 PUSH2 0x273E JUMP JUMPDEST PUSH2 0x1926 JUMP JUMPDEST PUSH2 0x1D6 PUSH2 0x359 CALLDATASIZE PUSH1 0x4 PUSH2 0x275A JUMP JUMPDEST PUSH2 0x1971 JUMP JUMPDEST PUSH2 0x21B PUSH2 0x36C CALLDATASIZE PUSH1 0x4 PUSH2 0x25BF JUMP JUMPDEST PUSH2 0x1ED0 JUMP JUMPDEST PUSH1 0x6 SLOAD PUSH2 0x384 SWAP1 PUSH1 0x1 PUSH1 0x1 PUSH1 0xA0 SHL SUB AND DUP2 JUMP JUMPDEST PUSH1 0x40 MLOAD PUSH2 0x1FF SWAP2 SWAP1 PUSH2 0x277A JUMP JUMPDEST PUSH2 0x1D6 PUSH2 0x39F CALLDATASIZE PUSH1 0x4 PUSH2 0x25BF JUMP JUMPDEST PUSH2 0x1EED JUMP JUMPDEST PUSH2 0x22F PUSH2 0x3B2 CALLDATASIZE PUSH1 0x4 PUSH2 0x25BF JUMP JUMPDEST PUSH1 0x1 PUSH1 0x1 PUSH1 0xA0 SHL SUB AND PUSH0 SWAP1 DUP2 MSTORE PUSH1 0x1 PUSH1 0x20 MSTORE PUSH1 0x40 SWAP1 KECCAK256 SLOAD SWAP1 JUMP JUMPDEST ADDRESS PUSH2 0x384 JUMP JUMPDEST PUSH2 0x1F2 PUSH2 0x1F2D JUMP JUMPDEST PUSH2 0x1D6 PUSH2 0x3E8 CALLDATASIZE PUSH1 0x4 PUSH2 0x278E JUMP JUMPDEST PUSH2 0x1F3C JUMP JUMPDEST PUSH2 0x21B PUSH2 0x3FB CALLDATASIZE PUSH1 0x4 PUSH2 0x2517 JUMP JUMPDEST PUSH2 0x1F62 JUMP JUMPDEST PUSH1 0x9 SLOAD PUSH2 0x384 SWAP1 PUSH1 0x1 PUSH1 0x1 PUSH1 0xA0 SHL SUB AND DUP2 JUMP JUMPDEST PUSH2 0x421 PUSH7 0x3632C8EB5AF3B DUP2 JUMP JUMPDEST PUSH1 0x40 MLOAD PUSH1 0x1 PUSH1 0x1 PUSH1 0x40 SHL SUB SWAP1 SWAP2 AND DUP2 MSTORE PUSH1 0x20 ADD PUSH2 0x1FF JUMP JUMPDEST PUSH2 0x22F PUSH1 0x7 SLOAD DUP2 JUMP JUMPDEST PUSH2 0x22F PUSH2 0x450 CALLDATASIZE PUSH1 0x4 PUSH2 0x27F1 JUMP JUMPDEST PUSH1 0x1 PUSH1 0x1 PUSH1 0x40 SHL SUB AND PUSH0 SWAP1 DUP2 MSTORE PUSH1 0xF PUSH1 0x20 MSTORE PUSH1 0x40 SWAP1 KECCAK256 SLOAD SWAP1 JUMP JUMPDEST PUSH2 0x22F PUSH2 0x478 CALLDATASIZE PUSH1 0x4 PUSH2 0x280C JUMP JUMPDEST PUSH2 0x1F6F JUMP JUMPDEST PUSH2 0x492 PUSH2 0x48B CALLDATASIZE PUSH1 0x4 PUSH2 0x2843 JUMP JUMPDEST PUSH0 PUSH0 SWAP2 POP SWAP2 JUMP JUMPDEST PUSH1 0x40 DUP1 MLOAD SWAP3 DUP4 MSTORE PUSH1 0x20 DUP4 ADD SWAP2 SWAP1 SWAP2 MSTORE ADD PUSH2 0x1FF JUMP JUMPDEST PUSH2 0x1D6 PUSH2 0x1F99 JUMP JUMPDEST PUSH2 0x2EE PUSH2 0x4BD CALLDATASIZE PUSH1 0x4 PUSH2 0x2874 JUMP JUMPDEST PUSH2 0x1FA9 JUMP JUMPDEST PUSH2 0x1F2 PUSH1 0x40 MLOAD DUP1 PUSH1 0x40 ADD PUSH1 0x40 MSTORE DUP1 PUSH1 0x3 DUP2 MSTORE PUSH1 0x20 ADD PUSH3 0x584945 PUSH1 0xE8 SHL DUP2 MSTORE POP DUP2 JUMP JUMPDEST PUSH2 0x4EC PUSH2 0x24D0 JUMP JUMPDEST PUSH1 0x60 PUSH0 PUSH0 JUMPDEST NUMBER PUSH1 0xD SLOAD LT ISZERO PUSH2 0xAE0 JUMPI PUSH1 0x9 PUSH0 SWAP1 SLOAD SWAP1 PUSH2 0x100 EXP SWAP1 DIV PUSH1 0x1 PUSH1 0x1 PUSH1 0xA0 SHL SUB AND PUSH1 0x1 PUSH1 0x1 PUSH1 0xA0 SHL SUB AND PUSH4 0xBEBBE7BB PUSH1 0x40 MLOAD DUP2 PUSH4 0xFFFFFFFF AND PUSH1 0xE0 SHL DUP2 MSTORE PUSH1 0x4 ADD PUSH1 0x20 PUSH1 0x40 MLOAD DUP1 DUP4 SUB DUP2 DUP7 GAS STATICCALL ISZERO DUP1 ISZERO PUSH2 0x54B JUMPI RETURNDATASIZE PUSH0 PUSH0 RETURNDATACOPY RETURNDATASIZE PUSH0 REVERT JUMPDEST POP POP POP POP PUSH1 0x40 MLOAD RETURNDATASIZE PUSH1 0x1F NOT PUSH1 0x1F DUP3 ADD AND DUP3 ADD DUP1 PUSH1 0x40 MSTORE POP DUP2 ADD SWAP1 PUSH2 0x56F SWAP2 SWAP1 PUSH2 0x28A1 JUMP JUMPDEST PUSH1 0x1 PUSH1 0x1 PUSH1 0xA0 SHL SUB AND PUSH4 0x84D0643E PUSH1 0x40 MLOAD DUP2 PUSH4 0xFFFFFFFF AND PUSH1 0xE0 SHL DUP2 MSTORE PUSH1 0x4 ADD PUSH1 0x20 PUSH1 0x40 MLOAD DUP1 DUP4 SUB DUP2 DUP7 GAS STATICCALL ISZERO DUP1 ISZERO PUSH2 0x5AA JUMPI RETURNDATASIZE PUSH0 PUSH0 RETURNDATACOPY RETURNDATASIZE PUSH0 REVERT JUMPDEST POP POP POP POP PUSH1 0x40 MLOAD RETURNDATASIZE PUSH1 0x1F NOT PUSH1 0x1F DUP3 ADD AND DUP3 ADD DUP1 PUSH1 0x40 MSTORE POP DUP2 ADD SWAP1 PUSH2 0x5CE SWAP2 SWAP1 PUSH2 0x28A1 JUMP JUMPDEST PUSH1 0x1 PUSH1 0x1 PUSH1 0xA0 SHL SUB AND PUSH4 0x27D74DEE PUSH1 0x40 MLOAD DUP2 PUSH4 0xFFFFFFFF AND PUSH1 0xE0 SHL DUP2 MSTORE PUSH1 0x4 ADD PUSH1 0x20 PUSH1 0x40 MLOAD DUP1 DUP4 SUB DUP2 DUP7 GAS STATICCALL ISZERO DUP1 ISZERO PUSH2 0x609 JUMPI RETURNDATASIZE PUSH0 PUSH0 RETURNDATACOPY RETURNDATASIZE PUSH0 REVERT JUMPDEST POP POP POP POP PUSH1 0x40 MLOAD RETURNDATASIZE PUSH1 0x1F NOT PUSH1 0x1F DUP3 ADD AND DUP3 ADD DUP1 PUSH1 0x40 MSTORE POP DUP2 ADD SWAP1 PUSH2 0x62D SWAP2 SWAP1 PUSH2 0x28BC JUMP JUMPDEST SWAP1 POP PUSH0 JUMPDEST DUP2 DUP2 LT ISZERO PUSH2 0xAC6 JUMPI PUSH1 0x9 PUSH0 SWAP1 SLOAD SWAP1 PUSH2 0x100 EXP SWAP1 DIV PUSH1 0x1 PUSH1 0x1 PUSH1 0xA0 SHL SUB AND PUSH1 0x1 PUSH1 0x1 PUSH1 0xA0 SHL SUB AND PUSH4 0xBEBBE7BB PUSH1 0x40 MLOAD DUP2 PUSH4 0xFFFFFFFF AND PUSH1 0xE0 SHL DUP2 MSTORE PUSH1 0x4 ADD PUSH1 0x20 PUSH1 0x40 MLOAD DUP1 DUP4 SUB DUP2 DUP7 GAS STATICCALL ISZERO DUP1 ISZERO PUSH2 0x689 JUMPI RETURNDATASIZE PUSH0 PUSH0 RETURNDATACOPY RETURNDATASIZE PUSH0 REVERT JUMPDEST POP POP POP POP PUSH1 0x40 MLOAD RETURNDATASIZE PUSH1 0x1F NOT PUSH1 0x1F DUP3 ADD AND DUP3 ADD DUP1 PUSH1 0x40 MSTORE POP DUP2 ADD SWAP1 PUSH2 0x6AD SWAP2 SWAP1 PUSH2 0x28A1 JUMP JUMPDEST PUSH1 0x1 PUSH1 0x1 PUSH1 0xA0 SHL SUB AND PUSH4 0x84D0643E PUSH1 0x40 MLOAD DUP2 PUSH4 0xFFFFFFFF AND PUSH1 0xE0 SHL DUP2 MSTORE PUSH1 0x4 ADD PUSH1 0x20 PUSH1 0x40 MLOAD DUP1 DUP4 SUB DUP2 DUP7 GAS STATICCALL ISZERO DUP1 ISZERO PUSH2 0x6E8 JUMPI RETURNDATASIZE PUSH0 PUSH0 RETURNDATACOPY RETURNDATASIZE PUSH0 REVERT JUMPDEST POP POP POP POP PUSH1 0x40 MLOAD RETURNDATASIZE PUSH1 0x1F NOT PUSH1 0x1F DUP3 ADD AND DUP3 ADD DUP1 PUSH1 0x40 MSTORE POP DUP2 ADD SWAP1 PUSH2 0x70C SWAP2 SWAP1 PUSH2 0x28A1 JUMP JUMPDEST PUSH1 0x1 PUSH1 0x1 PUSH1 0xA0 SHL SUB AND PUSH4 0x3AAC9D70 DUP3 PUSH1 0x40 MLOAD DUP3 PUSH4 0xFFFFFFFF AND PUSH1 0xE0 SHL DUP2 MSTORE PUSH1 0x4 ADD PUSH2 0x739 SWAP2 DUP2 MSTORE PUSH1 0x20 ADD SWAP1 JUMP JUMPDEST PUSH0 PUSH1 0x40 MLOAD DUP1 DUP4 SUB DUP2 DUP7 GAS STATICCALL ISZERO DUP1 ISZERO PUSH2 0x753 JUMPI RETURNDATASIZE PUSH0 PUSH0 RETURNDATACOPY RETURNDATASIZE PUSH0 REVERT JUMPDEST POP POP POP POP PUSH1 0x40 MLOAD RETURNDATASIZE PUSH0 DUP3 RETURNDATACOPY PUSH1 0x1F RETURNDATASIZE SWAP1 DUP2 ADD PUSH1 0x1F NOT AND DUP3 ADD PUSH1 0x40 MSTORE PUSH2 0x77A SWAP2 SWAP1 DUP2 ADD SWAP1 PUSH2 0x2920 JUMP JUMPDEST PUSH1 0x40 MLOAD SWAP2 SWAP7 POP SWAP5 POP PUSH1 0xB SWAP1 PUSH2 0x790 SWAP1 DUP7 SWAP1 PUSH2 0x29BB JUMP JUMPDEST SWAP1 DUP2 MSTORE PUSH1 0x20 ADD PUSH1 0x40 MLOAD DUP1 SWAP2 SUB SWAP1 KECCAK256 PUSH1 0x1 ADD SLOAD PUSH0 SUB PUSH2 0x7CD JUMPI NUMBER PUSH1 0xB DUP6 PUSH1 0x40 MLOAD PUSH2 0x7B9 SWAP2 SWAP1 PUSH2 0x29BB JUMP JUMPDEST SWAP1 DUP2 MSTORE PUSH1 0x40 MLOAD SWAP1 DUP2 SWAP1 SUB PUSH1 0x20 ADD SWAP1 KECCAK256 PUSH1 0x1 ADD SSTORE JUMPDEST DUP5 MLOAD PUSH0 SWAP1 DUP2 MSTORE PUSH1 0xC PUSH1 0x20 MSTORE PUSH1 0x40 DUP2 KECCAK256 PUSH1 0x1 ADD SLOAD SWAP1 SUB PUSH2 0x7FD JUMPI DUP5 MLOAD PUSH0 SWAP1 DUP2 MSTORE PUSH1 0xC PUSH1 0x20 MSTORE PUSH1 0x40 SWAP1 KECCAK256 NUMBER PUSH1 0x1 SWAP1 SWAP2 ADD SSTORE JUMPDEST PUSH1 0x60 DUP6 ADD MLOAD ISZERO PUSH2 0xABE JUMPI PUSH1 0x9 SLOAD DUP6 MLOAD PUSH1 0x40 MLOAD PUSH4 0x24966319 PUSH1 0xE2 SHL DUP2 MSTORE PUSH1 0x1 PUSH1 0x1 PUSH1 0xA0 SHL SUB SWAP1 SWAP3 AND SWAP2 PUSH4 0x92598C64 SWAP2 PUSH2 0x839 SWAP2 DUP9 SWAP1 PUSH1 0x4 ADD PUSH2 0x29C6 JUMP JUMPDEST PUSH1 0x20 PUSH1 0x40 MLOAD DUP1 DUP4 SUB DUP2 PUSH0 DUP8 GAS CALL ISZERO DUP1 ISZERO PUSH2 0x855 JUMPI RETURNDATASIZE PUSH0 PUSH0 RETURNDATACOPY RETURNDATASIZE PUSH0 REVERT JUMPDEST POP POP POP POP PUSH1 0x40 MLOAD RETURNDATASIZE PUSH1 0x1F NOT PUSH1 0x1F DUP3 ADD AND DUP3 ADD DUP1 PUSH1 0x40 MSTORE POP DUP2 ADD SWAP1 PUSH2 0x879 SWAP2 SWAP1 PUSH2 0x28BC JUMP JUMPDEST SWAP3 POP JUMPDEST NUMBER PUSH1 0xB DUP6 PUSH1 0x40 MLOAD PUSH2 0x88D SWAP2 SWAP1 PUSH2 0x29BB JUMP JUMPDEST SWAP1 DUP2 MSTORE PUSH1 0x20 ADD PUSH1 0x40 MLOAD DUP1 SWAP2 SUB SWAP1 KECCAK256 PUSH1 0x1 ADD SLOAD LT ISZERO PUSH2 0x995 JUMPI PUSH1 0x9 SLOAD PUSH1 0x40 MLOAD PUSH1 0x1 PUSH1 0x1 PUSH1 0xA0 SHL SUB SWAP1 SWAP2 AND SWAP1 PUSH4 0x44C113F4 SWAP1 PUSH1 0xB SWAP1 PUSH2 0x8CB SWAP1 DUP9 SWAP1 PUSH2 0x29BB JUMP JUMPDEST SWAP1 DUP2 MSTORE PUSH1 0x40 MLOAD SWAP1 DUP2 SWAP1 SUB PUSH1 0x20 ADD DUP2 KECCAK256 SLOAD PUSH1 0x1 PUSH1 0x1 PUSH1 0xE0 SHL SUB NOT PUSH1 0xE0 DUP5 SWAP1 SHL AND DUP3 MSTORE PUSH2 0x8FC SWAP2 PUSH1 0x4 ADD SWAP1 DUP2 MSTORE PUSH1 0x20 ADD SWAP1 JUMP JUMPDEST PUSH1 0x20 PUSH1 0x40 MLOAD DUP1 DUP4 SUB DUP2 DUP7 GAS STATICCALL ISZERO DUP1 ISZERO PUSH2 0x917 JUMPI RETURNDATASIZE PUSH0 PUSH0 RETURNDATACOPY RETURNDATASIZE PUSH0 REVERT JUMPDEST POP POP POP POP PUSH1 0x40 MLOAD RETURNDATASIZE PUSH1 0x1F NOT PUSH1 0x1F DUP3 ADD AND DUP3 ADD DUP1 PUSH1 0x40 MSTORE POP DUP2 ADD SWAP1 PUSH2 0x93B SWAP2 SWAP1 PUSH2 0x28BC JUMP JUMPDEST PUSH1 0xB DUP6 PUSH1 0x40 MLOAD PUSH2 0x94B SWAP2 SWAP1 PUSH2 0x29BB JUMP JUMPDEST SWAP1 DUP2 MSTORE PUSH1 0x40 MLOAD SWAP1 DUP2 SWAP1 SUB PUSH1 0x20 ADD DUP2 KECCAK256 SWAP2 SWAP1 SWAP2 SSTORE PUSH1 0xB SWAP1 PUSH2 0x96C SWAP1 DUP7 SWAP1 PUSH2 0x29BB JUMP JUMPDEST SWAP1 DUP2 MSTORE PUSH1 0x40 MLOAD SWAP1 DUP2 SWAP1 SUB PUSH1 0x20 ADD SWAP1 KECCAK256 PUSH1 0x1 ADD DUP1 SLOAD SWAP1 PUSH0 PUSH2 0x98B DUP4 PUSH2 0x29F2 JUMP JUMPDEST SWAP2 SWAP1 POP SSTORE POP PUSH2 0x87C JUMP JUMPDEST DUP5 MLOAD PUSH0 SWAP1 DUP2 MSTORE PUSH1 0xC PUSH1 0x20 MSTORE PUSH1 0x40 SWAP1 KECCAK256 PUSH1 0x1 ADD SLOAD NUMBER GT ISZERO PUSH2 0xA65 JUMPI PUSH1 0x9 SLOAD DUP6 MLOAD PUSH0 SWAP1 DUP2 MSTORE PUSH1 0xC PUSH1 0x20 MSTORE PUSH1 0x40 SWAP1 DUP2 SWAP1 KECCAK256 SLOAD SWAP1 MLOAD PUSH4 0x113044FD PUSH1 0xE2 SHL DUP2 MSTORE PUSH1 0x1 PUSH1 0x1 PUSH1 0xA0 SHL SUB SWAP1 SWAP3 AND SWAP2 PUSH4 0x44C113F4 SWAP2 PUSH2 0x9F2 SWAP2 PUSH1 0x4 ADD SWAP1 DUP2 MSTORE PUSH1 0x20 ADD SWAP1 JUMP JUMPDEST PUSH1 0x20 PUSH1 0x40 MLOAD DUP1 DUP4 SUB DUP2 DUP7 GAS STATICCALL ISZERO DUP1 ISZERO PUSH2 0xA0D JUMPI RETURNDATASIZE PUSH0 PUSH0 RETURNDATACOPY RETURNDATASIZE PUSH0 REVERT JUMPDEST POP POP POP POP PUSH1 0x40 MLOAD RETURNDATASIZE PUSH1 0x1F NOT PUSH1 0x1F DUP3 ADD AND DUP3 ADD DUP1 PUSH1 0x40 MSTORE POP DUP2 ADD SWAP1 PUSH2 0xA31 SWAP2 SWAP1 PUSH2 0x28BC JUMP JUMPDEST DUP6 MLOAD PUSH0 SWAP1 DUP2 MSTORE PUSH1 0xC PUSH1 0x20 MSTORE PUSH1 0x40 DUP1 DUP3 KECCAK256 SWAP3 SWAP1 SWAP3 SSTORE DUP7 MLOAD DUP2 MSTORE SWAP1 DUP2 KECCAK256 PUSH1 0x1 ADD DUP1 SLOAD SWAP2 PUSH2 0xA5B DUP4 PUSH2 0x29F2 JUMP JUMPDEST SWAP2 SWAP1 POP SSTORE POP PUSH2 0x995 JUMP JUMPDEST DUP3 PUSH1 0xB DUP6 PUSH1 0x40 MLOAD PUSH2 0xA76 SWAP2 SWAP1 PUSH2 0x29BB JUMP JUMPDEST SWAP1 DUP2 MSTORE PUSH1 0x20 ADD PUSH1 0x40 MLOAD DUP1 SWAP2 SUB SWAP1 KECCAK256 PUSH0 ADD PUSH0 DUP3 DUP3 SLOAD PUSH2 0xA94 SWAP2 SWAP1 PUSH2 0x2A0A JUMP JUMPDEST SWAP1 SWAP2 SSTORE POP POP DUP5 MLOAD PUSH0 SWAP1 DUP2 MSTORE PUSH1 0xC PUSH1 0x20 MSTORE PUSH1 0x40 DUP2 KECCAK256 DUP1 SLOAD DUP6 SWAP3 SWAP1 PUSH2 0xAB8 SWAP1 DUP5 SWAP1 PUSH2 0x2A0A JUMP JUMPDEST SWAP1 SWAP2 SSTORE POP POP JUMPDEST PUSH1 0x1 ADD PUSH2 0x631 JUMP JUMPDEST POP PUSH1 0xD DUP1 SLOAD SWAP1 PUSH0 PUSH2 0xAD6 DUP4 PUSH2 0x29F2 JUMP JUMPDEST SWAP2 SWAP1 POP SSTORE POP PUSH2 0x4F1 JUMP JUMPDEST POP POP POP POP JUMP JUMPDEST JUMP JUMPDEST PUSH1 0x60 PUSH1 0x4 DUP1 SLOAD PUSH2 0xAF7 SWAP1 PUSH2 0x2A1D JUMP JUMPDEST DUP1 PUSH1 0x1F ADD PUSH1 0x20 DUP1 SWAP2 DIV MUL PUSH1 0x20 ADD PUSH1 0x40 MLOAD SWAP1 DUP2 ADD PUSH1 0x40 MSTORE DUP1 SWAP3 SWAP2 SWAP1 DUP2 DUP2 MSTORE PUSH1 0x20 ADD DUP3 DUP1 SLOAD PUSH2 0xB23 SWAP1 PUSH2 0x2A1D JUMP JUMPDEST DUP1 ISZERO PUSH2 0xB6E JUMPI DUP1 PUSH1 0x1F LT PUSH2 0xB45 JUMPI PUSH2 0x100 DUP1 DUP4 SLOAD DIV MUL DUP4 MSTORE SWAP2 PUSH1 0x20 ADD SWAP2 PUSH2 0xB6E JUMP JUMPDEST DUP3 ADD SWAP2 SWAP1 PUSH0 MSTORE PUSH1 0x20 PUSH0 KECCAK256 SWAP1 JUMPDEST DUP2 SLOAD DUP2 MSTORE SWAP1 PUSH1 0x1 ADD SWAP1 PUSH1 0x20 ADD DUP1 DUP4 GT PUSH2 0xB51 JUMPI DUP3 SWAP1 SUB PUSH1 0x1F AND DUP3 ADD SWAP2 JUMPDEST POP POP POP POP POP SWAP1 POP SWAP1 JUMP JUMPDEST PUSH0 CALLER PUSH2 0xB85 DUP2 DUP6 DUP6 PUSH2 0x21EC JUMP JUMPDEST PUSH1 0x1 SWAP2 POP POP JUMPDEST SWAP3 SWAP2 POP POP JUMP JUMPDEST PUSH1 0x1 PUSH1 0x1 PUSH1 0xA0 SHL SUB DUP3 AND PUSH0 SWAP1 DUP2 MSTORE PUSH1 0x8 PUSH1 0x20 MSTORE PUSH1 0x40 DUP2 KECCAK256 SLOAD SWAP1 SUB PUSH2 0xBD3 JUMPI DUP2 PUSH1 0x40 MLOAD PUSH4 0x90B23441 PUSH1 0xE0 SHL DUP2 MSTORE PUSH1 0x4 ADD PUSH2 0xBCA SWAP2 SWAP1 PUSH2 0x277A JUMP JUMPDEST PUSH1 0x40 MLOAD DUP1 SWAP2 SUB SWAP1 REVERT JUMPDEST DUP2 PUSH0 PUSH2 0xBE1 PUSH1 0x12 PUSH1 0xA PUSH2 0x2B38 JUMP JUMPDEST PUSH1 0x1 PUSH1 0x1 PUSH1 0xA0 SHL SUB DUP6 AND PUSH0 SWAP1 DUP2 MSTORE PUSH1 0x8 PUSH1 0x20 MSTORE PUSH1 0x40 SWAP1 KECCAK256 SLOAD PUSH2 0xC03 SWAP1 DUP6 PUSH2 0x2B46 JUMP JUMPDEST PUSH2 0xC0D SWAP2 SWAP1 PUSH2 0x2B5D JUMP JUMPDEST PUSH1 0x40 MLOAD PUSH4 0x23B872DD PUSH1 0xE0 SHL DUP2 MSTORE SWAP1 SWAP2 POP PUSH0 SWAP1 ADDRESS SWAP1 PUSH4 0x23B872DD SWAP1 PUSH2 0xC39 SWAP1 CALLER SWAP1 DUP5 SWAP1 DUP10 SWAP1 PUSH1 0x4 ADD PUSH2 0x2B7C JUMP JUMPDEST PUSH1 0x20 PUSH1 0x40 MLOAD DUP1 DUP4 SUB DUP2 PUSH0 DUP8 GAS CALL ISZERO DUP1 ISZERO PUSH2 0xC55 JUMPI RETURNDATASIZE PUSH0 PUSH0 RETURNDATACOPY RETURNDATASIZE PUSH0 REVERT JUMPDEST POP POP POP POP PUSH1 0x40 MLOAD RETURNDATASIZE PUSH1 0x1F NOT PUSH1 0x1F DUP3 ADD AND DUP3 ADD DUP1 PUSH1 0x40 MSTORE POP DUP2 ADD SWAP1 PUSH2 0xC79 SWAP2 SWAP1 PUSH2 0x2BA0 JUMP JUMPDEST SWAP1 POP DUP1 ADDRESS PUSH1 0x1 PUSH1 0x1 PUSH1 0xA0 SHL SUB AND PUSH4 0x6FDDE03 PUSH1 0x40 MLOAD DUP2 PUSH4 0xFFFFFFFF AND PUSH1 0xE0 SHL DUP2 MSTORE PUSH1 0x4 ADD PUSH0 PUSH1 0x40 MLOAD DUP1 DUP4 SUB DUP2 DUP7 GAS STATICCALL ISZERO DUP1 ISZERO PUSH2 0xCB7 JUMPI RETURNDATASIZE PUSH0 PUSH0 RETURNDATACOPY RETURNDATASIZE PUSH0 REVERT JUMPDEST POP POP POP POP PUSH1 0x40 MLOAD RETURNDATASIZE PUSH0 DUP3 RETURNDATACOPY PUSH1 0x1F RETURNDATASIZE SWAP1 DUP2 ADD PUSH1 0x1F NOT AND DUP3 ADD PUSH1 0x40 MSTORE PUSH2 0xCDE SWAP2 SWAP1 DUP2 ADD SWAP1 PUSH2 0x2BBF JUMP JUMPDEST PUSH1 0x40 MLOAD PUSH1 0x20 ADD PUSH2 0xCEE SWAP2 SWAP1 PUSH2 0x2BF0 JUMP JUMPDEST PUSH1 0x40 MLOAD PUSH1 0x20 DUP2 DUP4 SUB SUB DUP2 MSTORE SWAP1 PUSH1 0x40 MSTORE SWAP1 PUSH2 0xD1B JUMPI PUSH1 0x40 MLOAD PUSH3 0x461BCD PUSH1 0xE5 SHL DUP2 MSTORE PUSH1 0x4 ADD PUSH2 0xBCA SWAP2 SWAP1 PUSH2 0x256F JUMP JUMPDEST POP PUSH1 0x40 MLOAD PUSH4 0xA9059CBB PUSH1 0xE0 SHL DUP2 MSTORE PUSH1 0x1 PUSH1 0x1 PUSH1 0xA0 SHL SUB DUP5 AND SWAP1 PUSH4 0xA9059CBB SWAP1 PUSH2 0xD4A SWAP1 CALLER SWAP1 DUP7 SWAP1 PUSH1 0x4 ADD PUSH2 0x2C12 JUMP JUMPDEST PUSH1 0x20 PUSH1 0x40 MLOAD DUP1 DUP4 SUB DUP2 PUSH0 DUP8 GAS CALL ISZERO DUP1 ISZERO PUSH2 0xD66 JUMPI RETURNDATASIZE PUSH0 PUSH0 RETURNDATACOPY RETURNDATASIZE PUSH0 REVERT JUMPDEST POP POP POP POP PUSH1 0x40 MLOAD RETURNDATASIZE PUSH1 0x1F NOT PUSH1 0x1F DUP3 ADD AND DUP3 ADD DUP1 PUSH1 0x40 MSTORE POP DUP2 ADD SWAP1 PUSH2 0xD8A SWAP2 SWAP1 PUSH2 0x2BA0 JUMP JUMPDEST POP POP POP POP POP POP JUMP JUMPDEST PUSH0 CALLER PUSH2 0xD9F DUP6 DUP3 DUP6 PUSH2 0x21F9 JUMP JUMPDEST PUSH2 0xDAA DUP6 DUP6 DUP6 PUSH2 0x224A JUMP JUMPDEST POP PUSH1 0x1 SWAP5 SWAP4 POP POP POP POP JUMP JUMPDEST PUSH1 0x1 PUSH1 0x1 PUSH1 0xA0 SHL SUB DUP3 AND PUSH0 SWAP1 DUP2 MSTORE PUSH1 0x8 PUSH1 0x20 MSTORE PUSH1 0x40 DUP2 KECCAK256 SLOAD SWAP1 SUB PUSH2 0xDEE JUMPI DUP2 PUSH1 0x40 MLOAD PUSH4 0x90B23441 PUSH1 0xE0 SHL DUP2 MSTORE PUSH1 0x4 ADD PUSH2 0xBCA SWAP2 SWAP1 PUSH2 0x277A JUMP JUMPDEST DUP2 PUSH0 PUSH2 0xDFC PUSH1 0x12 PUSH1 0xA PUSH2 0x2B38 JUMP JUMPDEST PUSH1 0x1 PUSH1 0x1 PUSH1 0xA0 SHL SUB DUP6 AND PUSH0 SWAP1 DUP2 MSTORE PUSH1 0x8 PUSH1 0x20 MSTORE PUSH1 0x40 SWAP1 KECCAK256 SLOAD PUSH2 0xE1E SWAP1 DUP6 PUSH2 0x2B46 JUMP JUMPDEST PUSH2 0xE28 SWAP2 SWAP1 PUSH2 0x2B5D JUMP JUMPDEST SWAP1 POP PUSH0 DUP3 PUSH1 0x1 PUSH1 0x1 PUSH1 0xA0 SHL SUB AND PUSH4 0x23B872DD CALLER ADDRESS DUP6 PUSH1 0x40 MLOAD DUP5 PUSH4 0xFFFFFFFF AND PUSH1 0xE0 SHL DUP2 MSTORE PUSH1 0x4 ADD PUSH2 0xE5B SWAP4 SWAP3 SWAP2 SWAP1 PUSH2 0x2B7C JUMP JUMPDEST PUSH1 0x20 PUSH1 0x40 MLOAD DUP1 DUP4 SUB DUP2 PUSH0 DUP8 GAS CALL ISZERO DUP1 ISZERO PUSH2 0xE77 JUMPI RETURNDATASIZE PUSH0 PUSH0 RETURNDATACOPY RETURNDATASIZE PUSH0 REVERT JUMPDEST POP POP POP POP PUSH1 0x40 MLOAD RETURNDATASIZE PUSH1 0x1F NOT PUSH1 0x1F DUP3 ADD AND DUP3 ADD DUP1 PUSH1 0x40 MSTORE POP DUP2 ADD SWAP1 PUSH2 0xE9B SWAP2 SWAP1 PUSH2 0x2BA0 JUMP JUMPDEST SWAP1 POP DUP1 DUP4 PUSH1 0x1 PUSH1 0x1 PUSH1 0xA0 SHL SUB AND PUSH4 0x6FDDE03 PUSH1 0x40 MLOAD DUP2 PUSH4 0xFFFFFFFF AND PUSH1 0xE0 SHL DUP2 MSTORE PUSH1 0x4 ADD PUSH0 PUSH1 0x40 MLOAD DUP1 DUP4 SUB DUP2 DUP7 GAS STATICCALL ISZERO DUP1 ISZERO PUSH2 0xED9 JUMPI RETURNDATASIZE PUSH0 PUSH0 RETURNDATACOPY RETURNDATASIZE PUSH0 REVERT JUMPDEST POP POP POP POP PUSH1 0x40 MLOAD RETURNDATASIZE PUSH0 DUP3 RETURNDATACOPY PUSH1 0x1F RETURNDATASIZE SWAP1 DUP2 ADD PUSH1 0x1F NOT AND DUP3 ADD PUSH1 0x40 MSTORE PUSH2 0xF00 SWAP2 SWAP1 DUP2 ADD SWAP1 PUSH2 0x2BBF JUMP JUMPDEST PUSH1 0x40 MLOAD PUSH1 0x20 ADD PUSH2 0xF10 SWAP2 SWAP1 PUSH2 0x2BF0 JUMP JUMPDEST PUSH1 0x40 MLOAD PUSH1 0x20 DUP2 DUP4 SUB SUB DUP2 MSTORE SWAP1 PUSH1 0x40 MSTORE SWAP1 PUSH2 0xF3D JUMPI PUSH1 0x40 MLOAD PUSH3 0x461BCD PUSH1 0xE5 SHL DUP2 MSTORE PUSH1 0x4 ADD PUSH2 0xBCA SWAP2 SWAP1 PUSH2 0x256F JUMP JUMPDEST POP PUSH1 0x40 MLOAD PUSH4 0xA9059CBB PUSH1 0xE0 SHL DUP2 MSTORE ADDRESS SWAP1 PUSH4 0xA9059CBB SWAP1 PUSH2 0xD4A SWAP1 CALLER SWAP1 DUP9 SWAP1 PUSH1 0x4 ADD PUSH2 0x2C12 JUMP JUMPDEST PUSH2 0xF6B PUSH2 0x24D0 JUMP JUMPDEST DUP4 PUSH1 0x1 PUSH1 0x1 PUSH1 0xA0 SHL SUB AND PUSH4 0xA138DA0B PUSH1 0x40 MLOAD DUP2 PUSH4 0xFFFFFFFF AND PUSH1 0xE0 SHL DUP2 MSTORE PUSH1 0x4 ADD PUSH1 0x20 PUSH1 0x40 MLOAD DUP1 DUP4 SUB DUP2 DUP7 GAS STATICCALL ISZERO DUP1 ISZERO PUSH2 0xFA7 JUMPI RETURNDATASIZE PUSH0 PUSH0 RETURNDATACOPY RETURNDATASIZE PUSH0 REVERT JUMPDEST POP POP POP POP PUSH1 0x40 MLOAD RETURNDATASIZE PUSH1 0x1F NOT PUSH1 0x1F DUP3 ADD AND DUP3 ADD DUP1 PUSH1 0x40 MSTORE POP DUP2 ADD SWAP1 PUSH2 0xFCB SWAP2 SWAP1 PUSH2 0x28BC JUMP JUMPDEST DUP1 DUP3 MSTORE PUSH0 SUB PUSH2 0xFEF JUMPI DUP4 PUSH1 0x40 MLOAD PUSH4 0x38C318F PUSH1 0xE4 SHL DUP2 MSTORE PUSH1 0x4 ADD PUSH2 0xBCA SWAP2 SWAP1 PUSH2 0x277A JUMP JUMPDEST PUSH1 0x9 SLOAD PUSH1 0x40 DUP1 MLOAD PUSH4 0xBEBBE7BB PUSH1 0xE0 SHL DUP2 MSTORE SWAP1 MLOAD PUSH0 SWAP3 PUSH1 0x1 PUSH1 0x1 PUSH1 0xA0 SHL SUB AND SWAP2 PUSH4 0xBEBBE7BB SWAP2 PUSH1 0x4 DUP1 DUP4 ADD SWAP3 PUSH1 0x20 SWAP3 SWAP2 SWAP1 DUP3 SWAP1 SUB ADD DUP2 DUP7 GAS STATICCALL ISZERO DUP1 ISZERO PUSH2 0x1036 JUMPI RETURNDATASIZE PUSH0 PUSH0 RETURNDATACOPY RETURNDATASIZE PUSH0 REVERT JUMPDEST POP POP POP POP PUSH1 0x40 MLOAD RETURNDATASIZE PUSH1 0x1F NOT PUSH1 0x1F DUP3 ADD AND DUP3 ADD DUP1 PUSH1 0x40 MSTORE POP DUP2 ADD SWAP1 PUSH2 0x105A SWAP2 SWAP1 PUSH2 0x28A1 JUMP JUMPDEST PUSH1 0x1 PUSH1 0x1 PUSH1 0xA0 SHL SUB AND PUSH4 0x84D0643E PUSH1 0x40 MLOAD DUP2 PUSH4 0xFFFFFFFF AND PUSH1 0xE0 SHL DUP2 MSTORE PUSH1 0x4 ADD PUSH1 0x20 PUSH1 0x40 MLOAD DUP1 DUP4 SUB DUP2 DUP7 GAS STATICCALL ISZERO DUP1 ISZERO PUSH2 0x1095 JUMPI RETURNDATASIZE PUSH0 PUSH0 RETURNDATACOPY RETURNDATASIZE PUSH0 REVERT JUMPDEST POP POP POP POP PUSH1 0x40 MLOAD RETURNDATASIZE PUSH1 0x1F NOT PUSH1 0x1F DUP3 ADD AND DUP3 ADD DUP1 PUSH1 0x40 MSTORE POP DUP2 ADD SWAP1 PUSH2 0x10B9 SWAP2 SWAP1 PUSH2 0x28A1 JUMP JUMPDEST PUSH1 0x1 PUSH1 0x1 PUSH1 0xA0 SHL SUB AND PUSH4 0xBAFD8D4A PUSH1 0x40 MLOAD DUP2 PUSH4 0xFFFFFFFF AND PUSH1 0xE0 SHL DUP2 MSTORE PUSH1 0x4 ADD PUSH1 0x20 PUSH1 0x40 MLOAD DUP1 DUP4 SUB DUP2 DUP7 GAS STATICCALL ISZERO DUP1 ISZERO PUSH2 0x10F4 JUMPI RETURNDATASIZE PUSH0 PUSH0 RETURNDATACOPY RETURNDATASIZE PUSH0 REVERT JUMPDEST POP POP POP POP PUSH1 0x40 MLOAD RETURNDATASIZE PUSH1 0x1F NOT PUSH1 0x1F DUP3 ADD AND DUP3 ADD DUP1 PUSH1 0x40 MSTORE POP DUP2 ADD SWAP1 PUSH2 0x1118 SWAP2 SWAP1 PUSH2 0x28A1 JUMP JUMPDEST PUSH1 0x1 PUSH1 0x1 PUSH1 0xA0 SHL SUB AND PUSH4 0x6872FC3C PUSH1 0x40 MLOAD DUP2 PUSH4 0xFFFFFFFF AND PUSH1 0xE0 SHL DUP2 MSTORE PUSH1 0x4 ADD PUSH1 0x20 PUSH1 0x40 MLOAD DUP1 DUP4 SUB DUP2 DUP7 GAS STATICCALL ISZERO DUP1 ISZERO PUSH2 0x1153 JUMPI RETURNDATASIZE PUSH0 PUSH0 RETURNDATACOPY RETURNDATASIZE PUSH0 REVERT JUMPDEST POP POP POP POP PUSH1 0x40 MLOAD RETURNDATASIZE PUSH1 0x1F NOT PUSH1 0x1F DUP3 ADD AND DUP3 ADD DUP1 PUSH1 0x40 MSTORE POP DUP2 ADD SWAP1 PUSH2 0x1177 SWAP2 SWAP1 PUSH2 0x28A1 JUMP JUMPDEST DUP3 MLOAD PUSH1 0x40 MLOAD PUSH4 0xDC8849D PUSH1 0xE4 SHL DUP2 MSTORE PUSH1 0x1 PUSH1 0x1 PUSH1 0xA0 SHL SUB SWAP3 SWAP1 SWAP3 AND SWAP2 PUSH4 0xDC8849D0 SWAP2 PUSH2 0x11A9 SWAP2 PUSH1 0x4 ADD SWAP1 DUP2 MSTORE PUSH1 0x20 ADD SWAP1 JUMP JUMPDEST PUSH1 0x20 PUSH1 0x40 MLOAD DUP1 DUP4 SUB DUP2 DUP7 GAS STATICCALL ISZERO DUP1 ISZERO PUSH2 0x11C4 JUMPI RETURNDATASIZE PUSH0 PUSH0 RETURNDATACOPY RETURNDATASIZE PUSH0 REVERT JUMPDEST POP POP POP POP PUSH1 0x40 MLOAD RETURNDATASIZE PUSH1 0x1F NOT PUSH1 0x1F DUP3 ADD AND DUP3 ADD DUP1 PUSH1 0x40 MSTORE POP DUP2 ADD SWAP1 PUSH2 0x11E8 SWAP2 SWAP1 PUSH2 0x28A1 JUMP JUMPDEST SWAP1 POP DUP5 PUSH1 0x1 PUSH1 0x1 PUSH1 0xA0 SHL SUB AND DUP2 PUSH1 0x1 PUSH1 0x1 PUSH1 0xA0 SHL SUB AND EQ PUSH2 0x1220 JUMPI DUP2 MLOAD PUSH1 0x40 MLOAD PUSH4 0x16437515 PUSH1 0xE1 SHL DUP2 MSTORE PUSH2 0xBCA SWAP2 DUP8 SWAP2 PUSH1 0x4 ADD PUSH2 0x2C12 JUMP JUMPDEST PUSH1 0x9 SLOAD PUSH1 0x40 DUP1 MLOAD PUSH4 0xBEBBE7BB PUSH1 0xE0 SHL DUP2 MSTORE SWAP1 MLOAD PUSH0 SWAP3 PUSH1 0x1 PUSH1 0x1 PUSH1 0xA0 SHL SUB AND SWAP2 PUSH4 0xBEBBE7BB SWAP2 PUSH1 0x4 DUP1 DUP4 ADD SWAP3 PUSH1 0x20 SWAP3 SWAP2 SWAP1 DUP3 SWAP1 SUB ADD DUP2 DUP7 GAS STATICCALL ISZERO DUP1 ISZERO PUSH2 0x1267 JUMPI RETURNDATASIZE PUSH0 PUSH0 RETURNDATACOPY RETURNDATASIZE PUSH0 REVERT JUMPDEST POP POP POP POP PUSH1 0x40 MLOAD RETURNDATASIZE PUSH1 0x1F NOT PUSH1 0x1F DUP3 ADD AND DUP3 ADD DUP1 PUSH1 0x40 MSTORE POP DUP2 ADD SWAP1 PUSH2 0x128B SWAP2 SWAP1 PUSH2 0x28A1 JUMP JUMPDEST PUSH1 0x1 PUSH1 0x1 PUSH1 0xA0 SHL SUB AND PUSH4 0x84D0643E PUSH1 0x40 MLOAD DUP2 PUSH4 0xFFFFFFFF AND PUSH1 0xE0 SHL DUP2 MSTORE PUSH1 0x4 ADD PUSH1 0x20 PUSH1 0x40 MLOAD DUP1 DUP4 SUB DUP2 DUP7 GAS STATICCALL ISZERO DUP1 ISZERO PUSH2 0x12C6 JUMPI RETURNDATASIZE PUSH0 PUSH0 RETURNDATACOPY RETURNDATASIZE PUSH0 REVERT JUMPDEST POP POP POP POP PUSH1 0x40 MLOAD RETURNDATASIZE PUSH1 0x1F NOT PUSH1 0x1F DUP3 ADD AND DUP3 ADD DUP1 PUSH1 0x40 MSTORE POP DUP2 ADD SWAP1 PUSH2 0x12EA SWAP2 SWAP1 PUSH2 0x28A1 JUMP JUMPDEST PUSH1 0x1 PUSH1 0x1 PUSH1 0xA0 SHL SUB AND PUSH4 0xBAFD8D4A PUSH1 0x40 MLOAD DUP2 PUSH4 0xFFFFFFFF AND PUSH1 0xE0 SHL DUP2 MSTORE PUSH1 0x4 ADD PUSH1 0x20 PUSH1 0x40 MLOAD DUP1 DUP4 SUB DUP2 DUP7 GAS STATICCALL ISZERO DUP1 ISZERO PUSH2 0x1325 JUMPI RETURNDATASIZE PUSH0 PUSH0 RETURNDATACOPY RETURNDATASIZE PUSH0 REVERT JUMPDEST POP POP POP POP PUSH1 0x40 MLOAD RETURNDATASIZE PUSH1 0x1F NOT PUSH1 0x1F DUP3 ADD AND DUP3 ADD DUP1 PUSH1 0x40 MSTORE POP DUP2 ADD SWAP1 PUSH2 0x1349 SWAP2 SWAP1 PUSH2 0x28A1 JUMP JUMPDEST PUSH1 0x1 PUSH1 0x1 PUSH1 0xA0 SHL SUB AND PUSH4 0x6872FC3C PUSH1 0x40 MLOAD DUP2 PUSH4 0xFFFFFFFF AND PUSH1 0xE0 SHL DUP2 MSTORE PUSH1 0x4 ADD PUSH1 0x20 PUSH1 0x40 MLOAD DUP1 DUP4 SUB DUP2 DUP7 GAS STATICCALL ISZERO DUP1 ISZERO PUSH2 0x1384 JUMPI RETURNDATASIZE PUSH0 PUSH0 RETURNDATACOPY RETURNDATASIZE PUSH0 REVERT JUMPDEST POP POP POP POP PUSH1 0x40 MLOAD RETURNDATASIZE PUSH1 0x1F NOT PUSH1 0x1F DUP3 ADD AND DUP3 ADD DUP1 PUSH1 0x40 MSTORE POP DUP2 ADD SWAP1 PUSH2 0x13A8 SWAP2 SWAP1 PUSH2 0x28A1 JUMP JUMPDEST PUSH1 0x1 PUSH1 0x1 PUSH1 0xA0 SHL SUB AND PUSH4 0xE1ED6E72 PUSH1 0x40 MLOAD DUP2 PUSH4 0xFFFFFFFF AND PUSH1 0xE0 SHL DUP2 MSTORE PUSH1 0x4 ADD PUSH1 0x20 PUSH1 0x40 MLOAD DUP1 DUP4 SUB DUP2 DUP7 GAS STATICCALL ISZERO DUP1 ISZERO PUSH2 0x13E3 JUMPI RETURNDATASIZE PUSH0 PUSH0 RETURNDATACOPY RETURNDATASIZE PUSH0 REVERT JUMPDEST POP POP POP POP PUSH1 0x40 MLOAD RETURNDATASIZE PUSH1 0x1F NOT PUSH1 0x1F DUP3 ADD AND DUP3 ADD DUP1 PUSH1 0x40 MSTORE POP DUP2 ADD SWAP1 PUSH2 0x1407 SWAP2 SWAP1 PUSH2 0x2C2B JUMP JUMPDEST SWAP1 POP PUSH0 PUSH1 0x9 PUSH0 SWAP1 SLOAD SWAP1 PUSH2 0x100 EXP SWAP1 DIV PUSH1 0x1 PUSH1 0x1 PUSH1 0xA0 SHL SUB AND PUSH1 0x1 PUSH1 0x1 PUSH1 0xA0 SHL SUB AND PUSH4 0xBEBBE7BB PUSH1 0x40 MLOAD DUP2 PUSH4 0xFFFFFFFF AND PUSH1 0xE0 SHL DUP2 MSTORE PUSH1 0x4 ADD PUSH1 0x20 PUSH1 0x40 MLOAD DUP1 DUP4 SUB DUP2 DUP7 GAS STATICCALL ISZERO DUP1 ISZERO PUSH2 0x145A JUMPI RETURNDATASIZE PUSH0 PUSH0 RETURNDATACOPY RETURNDATASIZE PUSH0 REVERT JUMPDEST POP POP POP POP PUSH1 0x40 MLOAD RETURNDATASIZE PUSH1 0x1F NOT PUSH1 0x1F DUP3 ADD AND DUP3 ADD DUP1 PUSH1 0x40 MSTORE POP DUP2 ADD SWAP1 PUSH2 0x147E SWAP2 SWAP1 PUSH2 0x28A1 JUMP JUMPDEST PUSH1 0x1 PUSH1 0x1 PUSH1 0xA0 SHL SUB AND PUSH4 0x84D0643E PUSH1 0x40 MLOAD DUP2 PUSH4 0xFFFFFFFF AND PUSH1 0xE0 SHL DUP2 MSTORE PUSH1 0x4 ADD PUSH1 0x20 PUSH1 0x40 MLOAD DUP1 DUP4 SUB DUP2 DUP7 GAS STATICCALL ISZERO DUP1 ISZERO PUSH2 0x14B9 JUMPI RETURNDATASIZE PUSH0 PUSH0 RETURNDATACOPY RETURNDATASIZE PUSH0 REVERT JUMPDEST POP POP POP POP PUSH1 0x40 MLOAD RETURNDATASIZE PUSH1 0x1F NOT PUSH1 0x1F DUP3 ADD AND DUP3 ADD DUP1 PUSH1 0x40 MSTORE POP DUP2 ADD SWAP1 PUSH2 0x14DD SWAP2 SWAP1 PUSH2 0x28A1 JUMP JUMPDEST PUSH1 0x1 PUSH1 0x1 PUSH1 0xA0 SHL SUB AND PUSH4 0xBAFD8D4A PUSH1 0x40 MLOAD DUP2 PUSH4 0xFFFFFFFF AND PUSH1 0xE0 SHL DUP2 MSTORE PUSH1 0x4 ADD PUSH1 0x20 PUSH1 0x40 MLOAD DUP1 DUP4 SUB DUP2 DUP7 GAS STATICCALL ISZERO DUP1 ISZERO PUSH2 0x1518 JUMPI RETURNDATASIZE PUSH0 PUSH0 RETURNDATACOPY RETURNDATASIZE PUSH0 REVERT JUMPDEST POP POP POP POP PUSH1 0x40 MLOAD RETURNDATASIZE PUSH1 0x1F NOT PUSH1 0x1F DUP3 ADD AND DUP3 ADD DUP1 PUSH1 0x40 MSTORE POP DUP2 ADD SWAP1 PUSH2 0x153C SWAP2 SWAP1 PUSH2 0x28A1 JUMP JUMPDEST PUSH1 0x1 PUSH1 0x1 PUSH1 0xA0 SHL SUB AND PUSH4 0x6872FC3C PUSH1 0x40 MLOAD DUP2 PUSH4 0xFFFFFFFF AND PUSH1 0xE0 SHL DUP2 MSTORE PUSH1 0x4 ADD PUSH1 0x20 PUSH1 0x40 MLOAD DUP1 DUP4 SUB DUP2 DUP7 GAS STATICCALL ISZERO DUP1 ISZERO PUSH2 0x1577 JUMPI RETURNDATASIZE PUSH0 PUSH0 RETURNDATACOPY RETURNDATASIZE PUSH0 REVERT JUMPDEST POP POP POP POP PUSH1 0x40 MLOAD RETURNDATASIZE PUSH1 0x1F NOT PUSH1 0x1F DUP3 ADD AND DUP3 ADD DUP1 PUSH1 0x40 MSTORE POP DUP2 ADD SWAP1 PUSH2 0x159B SWAP2 SWAP1 PUSH2 0x28A1 JUMP JUMPDEST PUSH1 0x1 PUSH1 0x1 PUSH1 0xA0 SHL SUB AND PUSH4 0xAC5BD44F PUSH1 0x40 MLOAD DUP2 PUSH4 0xFFFFFFFF AND PUSH1 0xE0 SHL DUP2 MSTORE PUSH1 0x4 ADD PUSH2 0x15C4 SWAP1 PUSH2 0x2C46 JUMP JUMPDEST PUSH1 0x20 PUSH1 0x40 MLOAD DUP1 DUP4 SUB DUP2 DUP7 GAS STATICCALL ISZERO DUP1 ISZERO PUSH2 0x15DF JUMPI RETURNDATASIZE PUSH0 PUSH0 RETURNDATACOPY RETURNDATASIZE PUSH0 REVERT JUMPDEST POP POP POP POP PUSH1 0x40 MLOAD RETURNDATASIZE PUSH1 0x1F NOT PUSH1 0x1F DUP3 ADD AND DUP3 ADD DUP1 PUSH1 0x40 MSTORE POP DUP2 ADD SWAP1 PUSH2 0x1603 SWAP2 SWAP1 PUSH2 0x28A1 JUMP JUMPDEST PUSH1 0x40 MLOAD PUSH4 0x23B872DD PUSH1 0xE0 SHL DUP2 MSTORE SWAP1 SWAP2 POP DUP2 SWAP1 PUSH1 0x1 PUSH1 0x1 PUSH1 0xA0 SHL SUB DUP3 AND SWAP1 PUSH4 0x23B872DD SWAP1 PUSH2 0x1638 SWAP1 CALLER SWAP1 ADDRESS SWAP1 DUP12 SWAP1 PUSH1 0x4 ADD PUSH2 0x2B7C JUMP JUMPDEST PUSH1 0x20 PUSH1 0x40 MLOAD DUP1 DUP4 SUB DUP2 PUSH0 DUP8 GAS CALL ISZERO DUP1 ISZERO PUSH2 0x1654 JUMPI RETURNDATASIZE PUSH0 PUSH0 RETURNDATACOPY RETURNDATASIZE PUSH0 REVERT JUMPDEST POP POP POP POP PUSH1 0x40 MLOAD RETURNDATASIZE PUSH1 0x1F NOT PUSH1 0x1F DUP3 ADD AND DUP3 ADD DUP1 PUSH1 0x40 MSTORE POP DUP2 ADD SWAP1 PUSH2 0x1678 SWAP2 SWAP1 PUSH2 0x2BA0 JUMP JUMPDEST POP PUSH1 0x1 PUSH1 0x1 PUSH1 0x40 SHL SUB DUP4 AND PUSH1 0x20 DUP1 DUP8 ADD DUP3 SWAP1 MSTORE PUSH0 SWAP2 DUP3 MSTORE PUSH1 0x10 DUP2 MSTORE PUSH1 0x40 DUP1 DUP4 KECCAK256 DUP9 MLOAD DUP5 MSTORE SWAP1 SWAP2 MSTORE SWAP1 DUP2 SWAP1 KECCAK256 SWAP1 MLOAD PUSH2 0x16B0 SWAP1 DUP10 SWAP1 PUSH2 0x29BB JUMP JUMPDEST SWAP1 DUP2 MSTORE PUSH1 0x20 ADD PUSH1 0x40 MLOAD DUP1 SWAP2 SUB SWAP1 KECCAK256 SLOAD PUSH0 SUB PUSH2 0x16D2 JUMPI PUSH1 0xE SLOAD PUSH1 0x40 DUP7 ADD MSTORE PUSH2 0x171B JUMP JUMPDEST PUSH1 0x1 PUSH1 0x1 PUSH1 0x40 SHL SUB DUP4 AND PUSH0 SWAP1 DUP2 MSTORE PUSH1 0x10 PUSH1 0x20 SWAP1 DUP2 MSTORE PUSH1 0x40 DUP1 DUP4 KECCAK256 DUP9 MLOAD DUP5 MSTORE SWAP1 SWAP2 MSTORE SWAP1 DUP2 SWAP1 KECCAK256 SWAP1 MLOAD PUSH2 0x1704 SWAP1 DUP10 SWAP1 PUSH2 0x29BB JUMP JUMPDEST SWAP1 DUP2 MSTORE PUSH1 0x40 DUP1 MLOAD SWAP2 DUP3 SWAP1 SUB PUSH1 0x20 ADD SWAP1 SWAP2 KECCAK256 SLOAD SWAP1 DUP7 ADD MSTORE JUMPDEST DUP6 DUP6 PUSH1 0x60 ADD DUP2 DUP2 MLOAD PUSH2 0x172D SWAP2 SWAP1 PUSH2 0x2A0A JUMP JUMPDEST SWAP1 MSTORE POP TIMESTAMP PUSH1 0x80 DUP7 ADD SWAP1 DUP2 MSTORE PUSH1 0xE DUP1 SLOAD PUSH1 0x1 DUP1 DUP3 ADD DUP4 SSTORE PUSH0 SWAP3 DUP4 MSTORE DUP9 MLOAD PUSH32 0xBB7B4A454DC3493923482F07822329ED19E8244EFF582CC204F8554C3620C3FD PUSH1 0x5 SWAP1 SWAP4 MUL SWAP3 DUP4 ADD SSTORE PUSH1 0x20 DUP1 DUP11 ADD MLOAD PUSH32 0xBB7B4A454DC3493923482F07822329ED19E8244EFF582CC204F8554C3620C3FE DUP5 ADD DUP1 SLOAD PUSH8 0xFFFFFFFFFFFFFFFF NOT AND PUSH1 0x1 PUSH1 0x1 PUSH1 0x40 SHL SUB SWAP3 DUP4 AND OR SWAP1 SSTORE PUSH1 0x40 DUP1 DUP13 ADD DUP1 MLOAD PUSH32 0xBB7B4A454DC3493923482F07822329ED19E8244EFF582CC204F8554C3620C3FF DUP8 ADD SSTORE PUSH1 0x60 DUP14 ADD MLOAD PUSH32 0xBB7B4A454DC3493923482F07822329ED19E8244EFF582CC204F8554C3620C400 DUP8 ADD SSTORE SWAP7 MLOAD PUSH32 0xBB7B4A454DC3493923482F07822329ED19E8244EFF582CC204F8554C3620C401 SWAP1 SWAP6 ADD SWAP5 SWAP1 SWAP5 SSTORE DUP9 AND DUP1 DUP6 MSTORE PUSH1 0xF DUP3 MSTORE DUP4 DUP6 KECCAK256 DUP7 MLOAD DUP2 SLOAD SWAP5 DUP6 ADD DUP3 SSTORE SWAP1 DUP7 MSTORE DUP3 DUP7 KECCAK256 SWAP1 SWAP4 ADD SWAP3 SWAP1 SWAP3 SSTORE SWAP4 MLOAD SWAP1 DUP4 MSTORE PUSH1 0x10 DUP5 MSTORE DUP2 DUP4 KECCAK256 DUP10 MLOAD DUP5 MSTORE SWAP1 SWAP4 MSTORE SWAP1 DUP2 SWAP1 KECCAK256 SWAP1 MLOAD PUSH2 0x187B SWAP1 DUP11 SWAP1 PUSH2 0x29BB JUMP JUMPDEST SWAP1 DUP2 MSTORE PUSH1 0x40 MLOAD SWAP1 DUP2 SWAP1 SUB PUSH1 0x20 ADD SWAP1 KECCAK256 SSTORE PUSH2 0x1893 PUSH2 0x2255 JUMP JUMPDEST POP POP POP POP POP POP POP POP JUMP JUMPDEST PUSH2 0x18A5 PUSH2 0x2297 JUMP JUMPDEST PUSH2 0x18AF DUP2 PUSH0 PUSH2 0x22D7 JUMP JUMPDEST POP JUMP JUMPDEST PUSH2 0x18BA PUSH2 0x24D0 JUMP JUMPDEST PUSH1 0xE DUP3 DUP2 SLOAD DUP2 LT PUSH2 0x18CD JUMPI PUSH2 0x18CD PUSH2 0x2C62 JUMP JUMPDEST PUSH0 SWAP2 DUP3 MSTORE PUSH1 0x20 SWAP2 DUP3 SWAP1 KECCAK256 PUSH1 0x40 DUP1 MLOAD PUSH1 0xA0 DUP2 ADD DUP3 MSTORE PUSH1 0x5 SWAP1 SWAP4 MUL SWAP1 SWAP2 ADD DUP1 SLOAD DUP4 MSTORE PUSH1 0x1 DUP2 ADD SLOAD PUSH1 0x1 PUSH1 0x1 PUSH1 0x40 SHL SUB AND SWAP4 DUP4 ADD SWAP4 SWAP1 SWAP4 MSTORE PUSH1 0x2 DUP4 ADD SLOAD SWAP1 DUP3 ADD MSTORE PUSH1 0x3 DUP3 ADD SLOAD PUSH1 0x60 DUP3 ADD MSTORE PUSH1 0x4 SWAP1 SWAP2 ADD SLOAD PUSH1 0x80 DUP3 ADD MSTORE SWAP3 SWAP2 POP POP JUMP JUMPDEST PUSH2 0x192E PUSH2 0x24D0 JUMP JUMPDEST PUSH1 0x1 PUSH1 0x1 PUSH1 0x40 SHL SUB DUP4 AND PUSH0 SWAP1 DUP2 MSTORE PUSH1 0xF PUSH1 0x20 MSTORE PUSH1 0x40 SWAP1 KECCAK256 DUP1 SLOAD PUSH2 0x196A SWAP2 SWAP1 DUP5 SWAP1 DUP2 LT PUSH2 0x195C JUMPI PUSH2 0x195C PUSH2 0x2C62 JUMP JUMPDEST SWAP1 PUSH0 MSTORE PUSH1 0x20 PUSH0 KECCAK256 ADD SLOAD PUSH2 0x18B2 JUMP JUMPDEST SWAP4 SWAP3 POP POP POP JUMP JUMPDEST PUSH1 0x9 SLOAD PUSH1 0x40 DUP1 MLOAD PUSH4 0xBEBBE7BB PUSH1 0xE0 SHL DUP2 MSTORE SWAP1 MLOAD PUSH0 SWAP3 PUSH1 0x1 PUSH1 0x1 PUSH1 0xA0 SHL SUB AND SWAP2 PUSH4 0xBEBBE7BB SWAP2 PUSH1 0x4 DUP1 DUP4 ADD SWAP3 PUSH1 0x20 SWAP3 SWAP2 SWAP1 DUP3 SWAP1 SUB ADD DUP2 DUP7 GAS STATICCALL ISZERO DUP1 ISZERO PUSH2 0x19B8 JUMPI RETURNDATASIZE PUSH0 PUSH0 RETURNDATACOPY RETURNDATASIZE PUSH0 REVERT JUMPDEST POP POP POP POP PUSH1 0x40 MLOAD RETURNDATASIZE PUSH1 0x1F NOT PUSH1 0x1F DUP3 ADD AND DUP3 ADD DUP1 PUSH1 0x40 MSTORE POP DUP2 ADD SWAP1 PUSH2 0x19DC SWAP2 SWAP1 PUSH2 0x28A1 JUMP JUMPDEST PUSH1 0x1 PUSH1 0x1 PUSH1 0xA0 SHL SUB AND PUSH4 0x84D0643E PUSH1 0x40 MLOAD DUP2 PUSH4 0xFFFFFFFF AND PUSH1 0xE0 SHL DUP2 MSTORE PUSH1 0x4 ADD PUSH1 0x20 PUSH1 0x40 MLOAD DUP1 DUP4 SUB DUP2 DUP7 GAS STATICCALL ISZERO DUP1 ISZERO PUSH2 0x1A17 JUMPI RETURNDATASIZE PUSH0 PUSH0 RETURNDATACOPY RETURNDATASIZE PUSH0 REVERT JUMPDEST POP POP POP POP PUSH1 0x40 MLOAD RETURNDATASIZE PUSH1 0x1F NOT PUSH1 0x1F DUP3 ADD AND DUP3 ADD DUP1 PUSH1 0x40 MSTORE POP DUP2 ADD SWAP1 PUSH2 0x1A3B SWAP2 SWAP1 PUSH2 0x28A1 JUMP JUMPDEST PUSH1 0x1 PUSH1 0x1 PUSH1 0xA0 SHL SUB AND PUSH4 0xBAFD8D4A PUSH1 0x40 MLOAD DUP2 PUSH4 0xFFFFFFFF AND PUSH1 0xE0 SHL DUP2 MSTORE PUSH1 0x4 ADD PUSH1 0x20 PUSH1 0x40 MLOAD DUP1 DUP4 SUB DUP2 DUP7 GAS STATICCALL ISZERO DUP1 ISZERO PUSH2 0x1A76 JUMPI RETURNDATASIZE PUSH0 PUSH0 RETURNDATACOPY RETURNDATASIZE PUSH0 REVERT JUMPDEST POP POP POP POP PUSH1 0x40 MLOAD RETURNDATASIZE PUSH1 0x1F NOT PUSH1 0x1F DUP3 ADD AND DUP3 ADD DUP1 PUSH1 0x40 MSTORE POP DUP2 ADD SWAP1 PUSH2 0x1A9A SWAP2 SWAP1 PUSH2 0x28A1 JUMP JUMPDEST PUSH1 0x1 PUSH1 0x1 PUSH1 0xA0 SHL SUB AND PUSH4 0x6872FC3C PUSH1 0x40 MLOAD DUP2 PUSH4 0xFFFFFFFF AND PUSH1 0xE0 SHL DUP2 MSTORE PUSH1 0x4 ADD PUSH1 0x20 PUSH1 0x40 MLOAD DUP1 DUP4 SUB DUP2 DUP7 GAS STATICCALL ISZERO DUP1 ISZERO PUSH2 0x1AD5 JUMPI RETURNDATASIZE PUSH0 PUSH0 RETURNDATACOPY RETURNDATASIZE PUSH0 REVERT JUMPDEST POP POP POP POP PUSH1 0x40 MLOAD RETURNDATASIZE PUSH1 0x1F NOT PUSH1 0x1F DUP3 ADD AND DUP3 ADD DUP1 PUSH1 0x40 MSTORE POP DUP2 ADD SWAP1 PUSH2 0x1AF9 SWAP2 SWAP1 PUSH2 0x28A1 JUMP JUMPDEST PUSH1 0x1 PUSH1 0x1 PUSH1 0xA0 SHL SUB AND PUSH4 0xE1ED6E72 PUSH1 0x40 MLOAD DUP2 PUSH4 0xFFFFFFFF AND PUSH1 0xE0 SHL DUP2 MSTORE PUSH1 0x4 ADD PUSH1 0x20 PUSH1 0x40 MLOAD DUP1 DUP4 SUB DUP2 DUP7 GAS STATICCALL ISZERO DUP1 ISZERO PUSH2 0x1B34 JUMPI RETURNDATASIZE PUSH0 PUSH0 RETURNDATACOPY RETURNDATASIZE PUSH0 REVERT JUMPDEST POP POP POP POP PUSH1 0x40 MLOAD RETURNDATASIZE PUSH1 0x1F NOT PUSH1 0x1F DUP3 ADD AND DUP3 ADD DUP1 PUSH1 0x40 MSTORE POP DUP2 ADD SWAP1 PUSH2 0x1B58 SWAP2 SWAP1 PUSH2 0x2C2B JUMP JUMPDEST SWAP1 POP DUP1 PUSH1 0x1 PUSH1 0x1 PUSH1 0x40 SHL SUB AND PUSH1 0xE DUP5 DUP2 SLOAD DUP2 LT PUSH2 0x1B77 JUMPI PUSH2 0x1B77 PUSH2 0x2C62 JUMP JUMPDEST PUSH0 SWAP2 DUP3 MSTORE PUSH1 0x20 SWAP1 SWAP2 KECCAK256 PUSH1 0x1 PUSH1 0x5 SWAP1 SWAP3 MUL ADD ADD SLOAD PUSH1 0x1 PUSH1 0x1 PUSH1 0x40 SHL SUB AND EQ PUSH2 0x1BB4 JUMPI PUSH1 0x40 MLOAD PUSH4 0x9ACB997 PUSH1 0xE3 SHL DUP2 MSTORE PUSH1 0x4 DUP2 ADD DUP5 SWAP1 MSTORE PUSH1 0x24 ADD PUSH2 0xBCA JUMP JUMPDEST PUSH1 0xE DUP4 DUP2 SLOAD DUP2 LT PUSH2 0x1BC7 JUMPI PUSH2 0x1BC7 PUSH2 0x2C62 JUMP JUMPDEST SWAP1 PUSH0 MSTORE PUSH1 0x20 PUSH0 KECCAK256 SWAP1 PUSH1 0x5 MUL ADD PUSH1 0x3 ADD SLOAD DUP3 GT ISZERO PUSH2 0x1C26 JUMPI DUP3 PUSH1 0xE DUP5 DUP2 SLOAD DUP2 LT PUSH2 0x1BF2 JUMPI PUSH2 0x1BF2 PUSH2 0x2C62 JUMP JUMPDEST SWAP1 PUSH0 MSTORE PUSH1 0x20 PUSH0 KECCAK256 SWAP1 PUSH1 0x5 MUL ADD PUSH1 0x3 ADD SLOAD PUSH1 0x40 MLOAD PUSH4 0xD8BF65B5 PUSH1 0xE0 SHL DUP2 MSTORE PUSH1 0x4 ADD PUSH2 0xBCA SWAP3 SWAP2 SWAP1 SWAP2 DUP3 MSTORE PUSH1 0x20 DUP3 ADD MSTORE PUSH1 0x40 ADD SWAP1 JUMP JUMPDEST PUSH1 0x9 SLOAD PUSH1 0x40 DUP1 MLOAD PUSH4 0xBEBBE7BB PUSH1 0xE0 SHL DUP2 MSTORE SWAP1 MLOAD PUSH0 SWAP3 PUSH1 0x1 PUSH1 0x1 PUSH1 0xA0 SHL SUB AND SWAP2 PUSH4 0xBEBBE7BB SWAP2 PUSH1 0x4 DUP1 DUP4 ADD SWAP3 PUSH1 0x20 SWAP3 SWAP2 SWAP1 DUP3 SWAP1 SUB ADD DUP2 DUP7 GAS STATICCALL ISZERO DUP1 ISZERO PUSH2 0x1C6D JUMPI RETURNDATASIZE PUSH0 PUSH0 RETURNDATACOPY RETURNDATASIZE PUSH0 REVERT JUMPDEST POP POP POP POP PUSH1 0x40 MLOAD RETURNDATASIZE PUSH1 0x1F NOT PUSH1 0x1F DUP3 ADD AND DUP3 ADD DUP1 PUSH1 0x40 MSTORE POP DUP2 ADD SWAP1 PUSH2 0x1C91 SWAP2 SWAP1 PUSH2 0x28A1 JUMP JUMPDEST PUSH1 0x1 PUSH1 0x1 PUSH1 0xA0 SHL SUB AND PUSH4 0x84D0643E PUSH1 0x40 MLOAD DUP2 PUSH4 0xFFFFFFFF AND PUSH1 0xE0 SHL DUP2 MSTORE PUSH1 0x4 ADD PUSH1 0x20 PUSH1 0x40 MLOAD DUP1 DUP4 SUB DUP2 DUP7 GAS STATICCALL ISZERO DUP1 ISZERO PUSH2 0x1CCC JUMPI RETURNDATASIZE PUSH0 PUSH0 RETURNDATACOPY RETURNDATASIZE PUSH0 REVERT JUMPDEST POP POP POP POP PUSH1 0x40 MLOAD RETURNDATASIZE PUSH1 0x1F NOT PUSH1 0x1F DUP3 ADD AND DUP3 ADD DUP1 PUSH1 0x40 MSTORE POP DUP2 ADD SWAP1 PUSH2 0x1CF0 SWAP2 SWAP1 PUSH2 0x28A1 JUMP JUMPDEST PUSH1 0x1 PUSH1 0x1 PUSH1 0xA0 SHL SUB AND PUSH4 0xBAFD8D4A PUSH1 0x40 MLOAD DUP2 PUSH4 0xFFFFFFFF AND PUSH1 0xE0 SHL DUP2 MSTORE PUSH1 0x4 ADD PUSH1 0x20 PUSH1 0x40 MLOAD DUP1 DUP4 SUB DUP2 DUP7 GAS STATICCALL ISZERO DUP1 ISZERO PUSH2 0x1D2B JUMPI RETURNDATASIZE PUSH0 PUSH0 RETURNDATACOPY RETURNDATASIZE PUSH0 REVERT JUMPDEST POP POP POP POP PUSH1 0x40 MLOAD RETURNDATASIZE PUSH1 0x1F NOT PUSH1 0x1F DUP3 ADD AND DUP3 ADD DUP1 PUSH1 0x40 MSTORE POP DUP2 ADD SWAP1 PUSH2 0x1D4F SWAP2 SWAP1 PUSH2 0x28A1 JUMP JUMPDEST PUSH1 0x1 PUSH1 0x1 PUSH1 0xA0 SHL SUB AND PUSH4 0x6872FC3C PUSH1 0x40 MLOAD DUP2 PUSH4 0xFFFFFFFF AND PUSH1 0xE0 SHL DUP2 MSTORE PUSH1 0x4 ADD PUSH1 0x20 PUSH1 0x40 MLOAD DUP1 DUP4 SUB DUP2 DUP7 GAS STATICCALL ISZERO DUP1 ISZERO PUSH2 0x1D8A JUMPI RETURNDATASIZE PUSH0 PUSH0 RETURNDATACOPY RETURNDATASIZE PUSH0 REVERT JUMPDEST POP POP POP POP PUSH1 0x40 MLOAD RETURNDATASIZE PUSH1 0x1F NOT PUSH1 0x1F DUP3 ADD AND DUP3 ADD DUP1 PUSH1 0x40 MSTORE POP DUP2 ADD SWAP1 PUSH2 0x1DAE SWAP2 SWAP1 PUSH2 0x28A1 JUMP JUMPDEST PUSH1 0x1 PUSH1 0x1 PUSH1 0xA0 SHL SUB AND PUSH4 0xAC5BD44F PUSH1 0x40 MLOAD DUP2 PUSH4 0xFFFFFFFF AND PUSH1 0xE0 SHL DUP2 MSTORE PUSH1 0x4 ADD PUSH2 0x1DD7 SWAP1 PUSH2 0x2C46 JUMP JUMPDEST PUSH1 0x20 PUSH1 0x40 MLOAD DUP1 DUP4 SUB DUP2 DUP7 GAS STATICCALL ISZERO DUP1 ISZERO PUSH2 0x1DF2 JUMPI RETURNDATASIZE PUSH0 PUSH0 RETURNDATACOPY RETURNDATASIZE PUSH0 REVERT JUMPDEST POP POP POP POP PUSH1 0x40 MLOAD RETURNDATASIZE PUSH1 0x1F NOT PUSH1 0x1F DUP3 ADD AND DUP3 ADD DUP1 PUSH1 0x40 MSTORE POP DUP2 ADD SWAP1 PUSH2 0x1E16 SWAP2 SWAP1 PUSH2 0x28A1 JUMP JUMPDEST PUSH1 0x40 MLOAD PUSH4 0xA9059CBB PUSH1 0xE0 SHL DUP2 MSTORE SWAP1 SWAP2 POP DUP2 SWAP1 PUSH1 0x1 PUSH1 0x1 PUSH1 0xA0 SHL SUB DUP3 AND SWAP1 PUSH4 0xA9059CBB SWAP1 PUSH2 0x1E49 SWAP1 CALLER SWAP1 DUP9 SWAP1 PUSH1 0x4 ADD PUSH2 0x2C12 JUMP JUMPDEST PUSH1 0x20 PUSH1 0x40 MLOAD DUP1 DUP4 SUB DUP2 PUSH0 DUP8 GAS CALL ISZERO DUP1 ISZERO PUSH2 0x1E65 JUMPI RETURNDATASIZE PUSH0 PUSH0 RETURNDATACOPY RETURNDATASIZE PUSH0 REVERT JUMPDEST POP POP POP POP PUSH1 0x40 MLOAD RETURNDATASIZE PUSH1 0x1F NOT PUSH1 0x1F DUP3 ADD AND DUP3 ADD DUP1 PUSH1 0x40 MSTORE POP DUP2 ADD SWAP1 PUSH2 0x1E89 SWAP2 SWAP1 PUSH2 0x2BA0 JUMP JUMPDEST POP DUP4 PUSH1 0xE DUP7 DUP2 SLOAD DUP2 LT PUSH2 0x1E9E JUMPI PUSH2 0x1E9E PUSH2 0x2C62 JUMP JUMPDEST SWAP1 PUSH0 MSTORE PUSH1 0x20 PUSH0 KECCAK256 SWAP1 PUSH1 0x5 MUL ADD PUSH1 0x3 ADD PUSH0 DUP3 DUP3 SLOAD PUSH2 0x1EBB SWAP2 SWAP1 PUSH2 0x2C76 JUMP JUMPDEST SWAP1 SWAP2 SSTORE POP PUSH2 0x1EC9 SWAP1 POP PUSH2 0x2255 JUMP JUMPDEST POP POP POP POP POP JUMP JUMPDEST PUSH1 0x1 PUSH1 0x1 PUSH1 0xA0 SHL SUB AND PUSH0 SWAP1 DUP2 MSTORE PUSH1 0x20 DUP2 SWAP1 MSTORE PUSH1 0x40 SWAP1 KECCAK256 SLOAD PUSH1 0xFF AND SWAP1 JUMP JUMPDEST PUSH2 0x1EF5 PUSH2 0x2297 JUMP JUMPDEST PUSH1 0x1 PUSH1 0x1 PUSH1 0xA0 SHL SUB DUP2 AND PUSH2 0x1F22 JUMPI ORIGIN PUSH0 ADDRESS PUSH1 0x40 MLOAD PUSH4 0x36030219 PUSH1 0xE2 SHL DUP2 MSTORE PUSH1 0x4 ADD PUSH2 0xBCA SWAP4 SWAP3 SWAP2 SWAP1 PUSH2 0x2C89 JUMP JUMPDEST PUSH2 0x18AF DUP2 PUSH1 0x1 PUSH2 0x22D7 JUMP JUMPDEST PUSH1 0x60 PUSH1 0x5 DUP1 SLOAD PUSH2 0xAF7 SWAP1 PUSH2 0x2A1D JUMP JUMPDEST PUSH2 0x1F44 PUSH2 0x2297 JUMP JUMPDEST PUSH1 0x4 PUSH2 0x1F50 DUP4 DUP3 PUSH2 0x2CF0 JUMP JUMPDEST POP PUSH1 0x5 PUSH2 0x1F5D DUP3 DUP3 PUSH2 0x2CF0 JUMP JUMPDEST POP POP POP JUMP JUMPDEST PUSH0 CALLER PUSH2 0xB85 DUP2 DUP6 DUP6 PUSH2 0x224A JUMP JUMPDEST PUSH1 0x1 PUSH1 0x1 PUSH1 0xA0 SHL SUB SWAP2 DUP3 AND PUSH0 SWAP1 DUP2 MSTORE PUSH1 0x2 PUSH1 0x20 SWAP1 DUP2 MSTORE PUSH1 0x40 DUP1 DUP4 KECCAK256 SWAP4 SWAP1 SWAP5 AND DUP3 MSTORE SWAP2 SWAP1 SWAP2 MSTORE KECCAK256 SLOAD SWAP1 JUMP JUMPDEST PUSH2 0x1FA1 PUSH2 0x2297 JUMP JUMPDEST PUSH2 0xAE6 PUSH2 0x2255 JUMP JUMPDEST PUSH2 0x1FB1 PUSH2 0x24D0 JUMP JUMPDEST PUSH1 0x9 SLOAD PUSH1 0x40 DUP1 MLOAD PUSH4 0xBEBBE7BB PUSH1 0xE0 SHL DUP2 MSTORE SWAP1 MLOAD PUSH0 SWAP3 PUSH1 0x1 PUSH1 0x1 PUSH1 0xA0 SHL SUB AND SWAP2 PUSH4 0xBEBBE7BB SWAP2 PUSH1 0x4 DUP1 DUP4 ADD SWAP3 PUSH1 0x20 SWAP3 SWAP2 SWAP1 DUP3 SWAP1 SUB ADD DUP2 DUP7 GAS STATICCALL ISZERO DUP1 ISZERO PUSH2 0x1FF8 JUMPI RETURNDATASIZE PUSH0 PUSH0 RETURNDATACOPY RETURNDATASIZE PUSH0 REVERT JUMPDEST POP POP POP POP PUSH1 0x40 MLOAD RETURNDATASIZE PUSH1 0x1F NOT PUSH1 0x1F DUP3 ADD AND DUP3 ADD DUP1 PUSH1 0x40 MSTORE POP DUP2 ADD SWAP1 PUSH2 0x201C SWAP2 SWAP1 PUSH2 0x28A1 JUMP JUMPDEST PUSH1 0x1 PUSH1 0x1 PUSH1 0xA0 SHL SUB AND PUSH4 0x84D0643E PUSH1 0x40 MLOAD DUP2 PUSH4 0xFFFFFFFF AND PUSH1 0xE0 SHL DUP2 MSTORE PUSH1 0x4 ADD PUSH1 0x20 PUSH1 0x40 MLOAD DUP1 DUP4 SUB DUP2 DUP7 GAS STATICCALL ISZERO DUP1 ISZERO PUSH2 0x2057 JUMPI RETURNDATASIZE PUSH0 PUSH0 RETURNDATACOPY RETURNDATASIZE PUSH0 REVERT JUMPDEST POP POP POP POP PUSH1 0x40 MLOAD RETURNDATASIZE PUSH1 0x1F NOT PUSH1 0x1F DUP3 ADD AND DUP3 ADD DUP1 PUSH1 0x40 MSTORE POP DUP2 ADD SWAP1 PUSH2 0x207B SWAP2 SWAP1 PUSH2 0x28A1 JUMP JUMPDEST PUSH1 0x1 PUSH1 0x1 PUSH1 0xA0 SHL SUB AND PUSH4 0xBAFD8D4A PUSH1 0x40 MLOAD DUP2 PUSH4 0xFFFFFFFF AND PUSH1 0xE0 SHL DUP2 MSTORE PUSH1 0x4 ADD PUSH1 0x20 PUSH1 0x40 MLOAD DUP1 DUP4 SUB DUP2 DUP7 GAS STATICCALL ISZERO DUP1 ISZERO PUSH2 0x20B6 JUMPI RETURNDATASIZE PUSH0 PUSH0 RETURNDATACOPY RETURNDATASIZE PUSH0 REVERT JUMPDEST POP POP POP POP PUSH1 0x40 MLOAD RETURNDATASIZE PUSH1 0x1F NOT PUSH1 0x1F DUP3 ADD AND DUP3 ADD DUP1 PUSH1 0x40 MSTORE POP DUP2 ADD SWAP1 PUSH2 0x20DA SWAP2 SWAP1 PUSH2 0x28A1 JUMP JUMPDEST PUSH1 0x1 PUSH1 0x1 PUSH1 0xA0 SHL SUB AND PUSH4 0x6872FC3C PUSH1 0x40 MLOAD DUP2 PUSH4 0xFFFFFFFF AND PUSH1 0xE0 SHL DUP2 MSTORE PUSH1 0x4 ADD PUSH1 0x20 PUSH1 0x40 MLOAD DUP1 DUP4 SUB DUP2 DUP7 GAS STATICCALL ISZERO DUP1 ISZERO PUSH2 0x2115 JUMPI RETURNDATASIZE PUSH0 PUSH0 RETURNDATACOPY RETURNDATASIZE PUSH0 REVERT JUMPDEST POP POP POP POP PUSH1 0x40 MLOAD RETURNDATASIZE PUSH1 0x1F NOT PUSH1 0x1F DUP3 ADD AND DUP3 ADD DUP1 PUSH1 0x40 MSTORE POP DUP2 ADD SWAP1 PUSH2 0x2139 SWAP2 SWAP1 PUSH2 0x28A1 JUMP JUMPDEST PUSH1 0x1 PUSH1 0x1 PUSH1 0xA0 SHL SUB AND PUSH4 0xE1ED6E72 PUSH1 0x40 MLOAD DUP2 PUSH4 0xFFFFFFFF AND PUSH1 0xE0 SHL DUP2 MSTORE PUSH1 0x4 ADD PUSH1 0x20 PUSH1 0x40 MLOAD DUP1 DUP4 SUB DUP2 DUP7 GAS STATICCALL ISZERO DUP1 ISZERO PUSH2 0x2174 JUMPI RETURNDATASIZE PUSH0 PUSH0 RETURNDATACOPY RETURNDATASIZE PUSH0 REVERT JUMPDEST POP POP POP POP PUSH1 0x40 MLOAD RETURNDATASIZE PUSH1 0x1F NOT PUSH1 0x1F DUP3 ADD AND DUP3 ADD DUP1 PUSH1 0x40 MSTORE POP DUP2 ADD SWAP1 PUSH2 0x2198 SWAP2 SWAP1 PUSH2 0x2C2B JUMP JUMPDEST PUSH1 0x1 PUSH1 0x1 PUSH1 0x40 SHL SUB DUP2 AND PUSH0 SWAP1 DUP2 MSTORE PUSH1 0x10 PUSH1 0x20 SWAP1 DUP2 MSTORE PUSH1 0x40 DUP1 DUP4 KECCAK256 DUP9 DUP5 MSTORE SWAP1 SWAP2 MSTORE SWAP1 DUP2 SWAP1 KECCAK256 SWAP1 MLOAD SWAP2 SWAP3 POP PUSH2 0x21E4 SWAP2 PUSH2 0x21D0 SWAP1 DUP7 SWAP1 PUSH2 0x29BB JUMP JUMPDEST SWAP1 DUP2 MSTORE PUSH1 0x20 ADD PUSH1 0x40 MLOAD DUP1 SWAP2 SUB SWAP1 KECCAK256 SLOAD PUSH2 0x18B2 JUMP JUMPDEST SWAP5 SWAP4 POP POP POP POP JUMP JUMPDEST PUSH2 0x1F5D DUP4 DUP4 DUP4 PUSH1 0x1 PUSH2 0x232A JUMP JUMPDEST PUSH0 PUSH2 0x2204 DUP5 DUP5 PUSH2 0x1F6F JUMP JUMPDEST SWAP1 POP PUSH0 NOT DUP2 EQ PUSH2 0xAE0 JUMPI DUP2 DUP2 LT ISZERO PUSH2 0x223C JUMPI ORIGIN CALLER DUP6 DUP6 ADDRESS DUP6 DUP8 PUSH1 0x40 MLOAD PUSH3 0xB83D19 PUSH1 0xE2 SHL DUP2 MSTORE PUSH1 0x4 ADD PUSH2 0xBCA SWAP8 SWAP7 SWAP6 SWAP5 SWAP4 SWAP3 SWAP2 SWAP1 PUSH2 0x2DAA JUMP JUMPDEST PUSH2 0xAE0 DUP5 DUP5 DUP5 DUP5 SUB PUSH0 PUSH2 0x232A JUMP JUMPDEST PUSH2 0x1F5D DUP4 DUP4 DUP4 PUSH2 0x23AA JUMP JUMPDEST PUSH2 0x2261 PUSH1 0x12 PUSH1 0xA PUSH2 0x2B38 JUMP JUMPDEST PUSH1 0x7 SLOAD PUSH2 0x226E SWAP2 SWAP1 PUSH2 0x2B46 JUMP JUMPDEST PUSH1 0x3 SLOAD LT ISZERO PUSH2 0xAE6 JUMPI PUSH2 0xAE6 ADDRESS PUSH2 0x2287 PUSH1 0x12 PUSH1 0xA PUSH2 0x2B38 JUMP JUMPDEST PUSH2 0x2292 SWAP1 PUSH1 0x1 PUSH2 0x2B46 JUMP JUMPDEST PUSH2 0x24C5 JUMP JUMPDEST PUSH2 0x22A0 CALLER PUSH2 0x1ED0 JUMP JUMPDEST ISZERO DUP1 ISZERO PUSH2 0x22B3 JUMPI POP PUSH2 0x22B1 ORIGIN PUSH2 0x1ED0 JUMP JUMPDEST ISZERO JUMPDEST ISZERO PUSH2 0xAE6 JUMPI ORIGIN CALLER ADDRESS PUSH1 0x40 MLOAD PUSH4 0xBE6BAB5 PUSH1 0xE0 SHL DUP2 MSTORE PUSH1 0x4 ADD PUSH2 0xBCA SWAP4 SWAP3 SWAP2 SWAP1 PUSH2 0x2C89 JUMP JUMPDEST PUSH1 0x1 PUSH1 0x1 PUSH1 0xA0 SHL SUB DUP3 AND PUSH0 DUP2 DUP2 MSTORE PUSH1 0x20 DUP2 SWAP1 MSTORE PUSH1 0x40 DUP1 DUP3 KECCAK256 DUP1 SLOAD PUSH1 0xFF NOT AND DUP6 ISZERO ISZERO SWAP1 DUP2 OR SWAP1 SWAP2 SSTORE SWAP1 MLOAD SWAP1 SWAP3 SWAP2 PUSH32 0x6BFA7E860C3E9BF67B810CB88276B19B27C972812BAC04793D369B59A1183A83 SWAP2 LOG3 POP POP JUMP JUMPDEST PUSH1 0x1 PUSH1 0x1 PUSH1 0xA0 SHL SUB DUP1 DUP6 AND PUSH0 SWAP1 DUP2 MSTORE PUSH1 0x2 PUSH1 0x20 SWAP1 DUP2 MSTORE PUSH1 0x40 DUP1 DUP4 KECCAK256 SWAP4 DUP8 AND DUP4 MSTORE SWAP3 SWAP1 MSTORE KECCAK256 DUP3 SWAP1 SSTORE DUP1 ISZERO PUSH2 0xAE0 JUMPI DUP3 PUSH1 0x1 PUSH1 0x1 PUSH1 0xA0 SHL SUB AND DUP5 PUSH1 0x1 PUSH1 0x1 PUSH1 0xA0 SHL SUB AND PUSH32 0x8C5BE1E5EBEC7D5BD14F71427D1E84F3DD0314C0F7B2291E5B200AC8C7C3B925 DUP5 PUSH1 0x40 MLOAD PUSH2 0x239C SWAP2 DUP2 MSTORE PUSH1 0x20 ADD SWAP1 JUMP JUMPDEST PUSH1 0x40 MLOAD DUP1 SWAP2 SUB SWAP1 LOG3 POP POP POP POP JUMP JUMPDEST PUSH1 0x1 PUSH1 0x1 PUSH1 0xA0 SHL SUB DUP4 AND PUSH2 0x23D4 JUMPI DUP1 PUSH1 0x3 PUSH0 DUP3 DUP3 SLOAD PUSH2 0x23C9 SWAP2 SWAP1 PUSH2 0x2A0A JUMP JUMPDEST SWAP1 SWAP2 SSTORE POP PUSH2 0x2439 SWAP1 POP JUMP JUMPDEST PUSH1 0x1 PUSH1 0x1 PUSH1 0xA0 SHL SUB DUP4 AND PUSH0 SWAP1 DUP2 MSTORE PUSH1 0x1 PUSH1 0x20 MSTORE PUSH1 0x40 SWAP1 KECCAK256 SLOAD DUP2 DUP2 LT ISZERO PUSH2 0x241B JUMPI ORIGIN CALLER DUP6 DUP6 ADDRESS DUP6 DUP8 PUSH1 0x40 MLOAD PUSH4 0xF7D0BBD PUSH1 0xE2 SHL DUP2 MSTORE PUSH1 0x4 ADD PUSH2 0xBCA SWAP8 SWAP7 SWAP6 SWAP5 SWAP4 SWAP3 SWAP2 SWAP1 PUSH2 0x2DAA JUMP JUMPDEST PUSH1 0x1 PUSH1 0x1 PUSH1 0xA0 SHL SUB DUP5 AND PUSH0 SWAP1 DUP2 MSTORE PUSH1 0x1 PUSH1 0x20 MSTORE PUSH1 0x40 SWAP1 KECCAK256 SWAP1 DUP3 SWAP1 SUB SWAP1 SSTORE JUMPDEST PUSH1 0x1 PUSH1 0x1 PUSH1 0xA0 SHL SUB DUP3 AND PUSH2 0x2455 JUMPI PUSH1 0x3 DUP1 SLOAD DUP3 SWAP1 SUB SWAP1 SSTORE PUSH2 0x2473 JUMP JUMPDEST PUSH1 0x1 PUSH1 0x1 PUSH1 0xA0 SHL SUB DUP3 AND PUSH0 SWAP1 DUP2 MSTORE PUSH1 0x1 PUSH1 0x20 MSTORE PUSH1 0x40 SWAP1 KECCAK256 DUP1 SLOAD DUP3 ADD SWAP1 SSTORE JUMPDEST DUP2 PUSH1 0x1 PUSH1 0x1 PUSH1 0xA0 SHL SUB AND DUP4 PUSH1 0x1 PUSH1 0x1 PUSH1 0xA0 SHL SUB AND PUSH32 0xDDF252AD1BE2C89B69C2B068FC378DAA952BA7F163C4A11628F55A4DF523B3EF DUP4 PUSH1 0x40 MLOAD PUSH2 0x24B8 SWAP2 DUP2 MSTORE PUSH1 0x20 ADD SWAP1 JUMP JUMPDEST PUSH1 0x40 MLOAD DUP1 SWAP2 SUB SWAP1 LOG3 POP POP POP JUMP JUMPDEST PUSH2 0x1E6 PUSH0 DUP4 DUP4 PUSH2 0x23AA JUMP JUMPDEST PUSH1 0x40 MLOAD DUP1 PUSH1 0xA0 ADD PUSH1 0x40 MSTORE DUP1 PUSH0 DUP2 MSTORE PUSH1 0x20 ADD PUSH0 PUSH1 0x1 PUSH1 0x1 PUSH1 0x40 SHL SUB AND DUP2 MSTORE PUSH1 0x20 ADD PUSH0 DUP2 MSTORE PUSH1 0x20 ADD PUSH0 DUP2 MSTORE PUSH1 0x20 ADD PUSH0 DUP2 MSTORE POP SWAP1 JUMP JUMPDEST PUSH1 0x1 PUSH1 0x1 PUSH1 0xA0 SHL SUB DUP2 AND DUP2 EQ PUSH2 0x18AF JUMPI PUSH0 PUSH0 REVERT JUMPDEST PUSH0 PUSH0 PUSH1 0x40 DUP4 DUP6 SUB SLT ISZERO PUSH2 0x2528 JUMPI PUSH0 PUSH0 REVERT JUMPDEST DUP3 CALLDATALOAD PUSH2 0x2533 DUP2 PUSH2 0x2503 JUMP JUMPDEST SWAP5 PUSH1 0x20 SWAP4 SWAP1 SWAP4 ADD CALLDATALOAD SWAP4 POP POP POP JUMP JUMPDEST PUSH0 DUP2 MLOAD DUP1 DUP5 MSTORE DUP1 PUSH1 0x20 DUP5 ADD PUSH1 0x20 DUP7 ADD MCOPY PUSH0 PUSH1 0x20 DUP3 DUP7 ADD ADD MSTORE PUSH1 0x20 PUSH1 0x1F NOT PUSH1 0x1F DUP4 ADD AND DUP6 ADD ADD SWAP2 POP POP SWAP3 SWAP2 POP POP JUMP JUMPDEST PUSH1 0x20 DUP2 MSTORE PUSH0 PUSH2 0x196A PUSH1 0x20 DUP4 ADD DUP5 PUSH2 0x2541 JUMP JUMPDEST PUSH0 PUSH0 PUSH0 PUSH1 0x60 DUP5 DUP7 SUB SLT ISZERO PUSH2 0x2593 JUMPI PUSH0 PUSH0 REVERT JUMPDEST DUP4 CALLDATALOAD PUSH2 0x259E DUP2 PUSH2 0x2503 JUMP JUMPDEST SWAP3 POP PUSH1 0x20 DUP5 ADD CALLDATALOAD PUSH2 0x25AE DUP2 PUSH2 0x2503 JUMP JUMPDEST SWAP3 SWAP6 SWAP3 SWAP5 POP POP POP PUSH1 0x40 SWAP2 SWAP1 SWAP2 ADD CALLDATALOAD SWAP1 JUMP JUMPDEST PUSH0 PUSH1 0x20 DUP3 DUP5 SUB SLT ISZERO PUSH2 0x25CF JUMPI PUSH0 PUSH0 REVERT JUMPDEST DUP2 CALLDATALOAD PUSH2 0x196A DUP2 PUSH2 0x2503 JUMP JUMPDEST PUSH4 0x4E487B71 PUSH1 0xE0 SHL PUSH0 MSTORE PUSH1 0x41 PUSH1 0x4 MSTORE PUSH1 0x24 PUSH0 REVERT JUMPDEST PUSH1 0x40 MLOAD PUSH1 0xA0 DUP2 ADD PUSH1 0x1 PUSH1 0x1 PUSH1 0x40 SHL SUB DUP2 GT DUP3 DUP3 LT OR ISZERO PUSH2 0x2610 JUMPI PUSH2 0x2610 PUSH2 0x25DA JUMP JUMPDEST PUSH1 0x40 MSTORE SWAP1 JUMP JUMPDEST PUSH1 0x40 MLOAD PUSH1 0x1F DUP3 ADD PUSH1 0x1F NOT AND DUP2 ADD PUSH1 0x1 PUSH1 0x1 PUSH1 0x40 SHL SUB DUP2 GT DUP3 DUP3 LT OR ISZERO PUSH2 0x263E JUMPI PUSH2 0x263E PUSH2 0x25DA JUMP JUMPDEST PUSH1 0x40 MSTORE SWAP2 SWAP1 POP JUMP JUMPDEST PUSH0 PUSH1 0x1 PUSH1 0x1 PUSH1 0x40 SHL SUB DUP3 GT ISZERO PUSH2 0x265E JUMPI PUSH2 0x265E PUSH2 0x25DA JUMP JUMPDEST POP PUSH1 0x1F ADD PUSH1 0x1F NOT AND PUSH1 0x20 ADD SWAP1 JUMP JUMPDEST PUSH0 DUP3 PUSH1 0x1F DUP4 ADD SLT PUSH2 0x267B JUMPI PUSH0 PUSH0 REVERT JUMPDEST DUP2 CALLDATALOAD PUSH2 0x268E PUSH2 0x2689 DUP3 PUSH2 0x2646 JUMP JUMPDEST PUSH2 0x2616 JUMP JUMPDEST DUP2 DUP2 MSTORE DUP5 PUSH1 0x20 DUP4 DUP7 ADD ADD GT ISZERO PUSH2 0x26A2 JUMPI PUSH0 PUSH0 REVERT JUMPDEST DUP2 PUSH1 0x20 DUP6 ADD PUSH1 0x20 DUP4 ADD CALLDATACOPY PUSH0 SWAP2 DUP2 ADD PUSH1 0x20 ADD SWAP2 SWAP1 SWAP2 MSTORE SWAP4 SWAP3 POP POP POP JUMP JUMPDEST PUSH0 PUSH0 PUSH0 PUSH1 0x60 DUP5 DUP7 SUB SLT ISZERO PUSH2 0x26D0 JUMPI PUSH0 PUSH0 REVERT JUMPDEST DUP4 CALLDATALOAD PUSH2 0x26DB DUP2 PUSH2 0x2503 JUMP JUMPDEST SWAP3 POP PUSH1 0x20 DUP5 ADD CALLDATALOAD PUSH1 0x1 PUSH1 0x1 PUSH1 0x40 SHL SUB DUP2 GT ISZERO PUSH2 0x26F5 JUMPI PUSH0 PUSH0 REVERT JUMPDEST PUSH2 0x2701 DUP7 DUP3 DUP8 ADD PUSH2 0x266C JUMP JUMPDEST SWAP4 SWAP7 SWAP4 SWAP6 POP POP POP POP PUSH1 0x40 SWAP2 SWAP1 SWAP2 ADD CALLDATALOAD SWAP1 JUMP JUMPDEST PUSH0 PUSH1 0x20 DUP3 DUP5 SUB SLT ISZERO PUSH2 0x2723 JUMPI PUSH0 PUSH0 REVERT JUMPDEST POP CALLDATALOAD SWAP2 SWAP1 POP JUMP JUMPDEST PUSH1 0x1 PUSH1 0x1 PUSH1 0x40 SHL SUB DUP2 AND DUP2 EQ PUSH2 0x18AF JUMPI PUSH0 PUSH0 REVERT JUMPDEST PUSH0 PUSH0 PUSH1 0x40 DUP4 DUP6 SUB SLT ISZERO PUSH2 0x274F JUMPI PUSH0 PUSH0 REVERT JUMPDEST DUP3 CALLDATALOAD PUSH2 0x2533 DUP2 PUSH2 0x272A JUMP JUMPDEST PUSH0 PUSH0 PUSH1 0x40 DUP4 DUP6 SUB SLT ISZERO PUSH2 0x276B JUMPI PUSH0 PUSH0 REVERT JUMPDEST POP POP DUP1 CALLDATALOAD SWAP3 PUSH1 0x20 SWAP1 SWAP2 ADD CALLDATALOAD SWAP2 POP JUMP JUMPDEST PUSH1 0x1 PUSH1 0x1 PUSH1 0xA0 SHL SUB SWAP2 SWAP1 SWAP2 AND DUP2 MSTORE PUSH1 0x20 ADD SWAP1 JUMP JUMPDEST PUSH0 PUSH0 PUSH1 0x40 DUP4 DUP6 SUB SLT ISZERO PUSH2 0x279F JUMPI PUSH0 PUSH0 REVERT JUMPDEST DUP3 CALLDATALOAD PUSH1 0x1 PUSH1 0x1 PUSH1 0x40 SHL SUB DUP2 GT ISZERO PUSH2 0x27B4 JUMPI PUSH0 PUSH0 REVERT JUMPDEST PUSH2 0x27C0 DUP6 DUP3 DUP7 ADD PUSH2 0x266C JUMP JUMPDEST SWAP3 POP POP PUSH1 0x20 DUP4 ADD CALLDATALOAD PUSH1 0x1 PUSH1 0x1 PUSH1 0x40 SHL SUB DUP2 GT ISZERO PUSH2 0x27DB JUMPI PUSH0 PUSH0 REVERT JUMPDEST PUSH2 0x27E7 DUP6 DUP3 DUP7 ADD PUSH2 0x266C JUMP JUMPDEST SWAP2 POP POP SWAP3 POP SWAP3 SWAP1 POP JUMP JUMPDEST PUSH0 PUSH1 0x20 DUP3 DUP5 SUB SLT ISZERO PUSH2 0x2801 JUMPI PUSH0 PUSH0 REVERT JUMPDEST DUP2 CALLDATALOAD PUSH2 0x196A DUP2 PUSH2 0x272A JUMP JUMPDEST PUSH0 PUSH0 PUSH1 0x40 DUP4 DUP6 SUB SLT ISZERO PUSH2 0x281D JUMPI PUSH0 PUSH0 REVERT JUMPDEST DUP3 CALLDATALOAD PUSH2 0x2828 DUP2 PUSH2 0x2503 JUMP JUMPDEST SWAP2 POP PUSH1 0x20 DUP4 ADD CALLDATALOAD PUSH2 0x2838 DUP2 PUSH2 0x2503 JUMP JUMPDEST DUP1 SWAP2 POP POP SWAP3 POP SWAP3 SWAP1 POP JUMP JUMPDEST PUSH0 PUSH1 0x20 DUP3 DUP5 SUB SLT ISZERO PUSH2 0x2853 JUMPI PUSH0 PUSH0 REVERT JUMPDEST DUP2 CALLDATALOAD PUSH1 0x1 PUSH1 0x1 PUSH1 0x40 SHL SUB DUP2 GT ISZERO PUSH2 0x2868 JUMPI PUSH0 PUSH0 REVERT JUMPDEST PUSH2 0x21E4 DUP5 DUP3 DUP6 ADD PUSH2 0x266C JUMP JUMPDEST PUSH0 PUSH0 PUSH1 0x40 DUP4 DUP6 SUB SLT ISZERO PUSH2 0x2885 JUMPI PUSH0 PUSH0 REVERT JUMPDEST DUP3 CALLDATALOAD SWAP2 POP PUSH1 0x20 DUP4 ADD CALLDATALOAD PUSH1 0x1 PUSH1 0x1 PUSH1 0x40 SHL SUB DUP2 GT ISZERO PUSH2 0x27DB JUMPI PUSH0 PUSH0 REVERT JUMPDEST PUSH0 PUSH1 0x20 DUP3 DUP5 SUB SLT ISZERO PUSH2 0x28B1 JUMPI PUSH0 PUSH0 REVERT JUMPDEST DUP2 MLOAD PUSH2 0x196A DUP2 PUSH2 0x2503 JUMP JUMPDEST PUSH0 PUSH1 0x20 DUP3 DUP5 SUB SLT ISZERO PUSH2 0x28CC JUMPI PUSH0 PUSH0 REVERT JUMPDEST POP MLOAD SWAP2 SWAP1 POP JUMP JUMPDEST PUSH0 DUP3 PUSH1 0x1F DUP4 ADD SLT PUSH2 0x28E2 JUMPI PUSH0 PUSH0 REVERT JUMPDEST DUP2 MLOAD PUSH2 0x28F0 PUSH2 0x2689 DUP3 PUSH2 0x2646 JUMP JUMPDEST DUP2 DUP2 MSTORE DUP5 PUSH1 0x20 DUP4 DUP7 ADD ADD GT ISZERO PUSH2 0x2904 JUMPI PUSH0 PUSH0 REVERT JUMPDEST DUP2 PUSH1 0x20 DUP6 ADD PUSH1 0x20 DUP4 ADD MCOPY PUSH0 SWAP2 DUP2 ADD PUSH1 0x20 ADD SWAP2 SWAP1 SWAP2 MSTORE SWAP4 SWAP3 POP POP POP JUMP JUMPDEST PUSH0 PUSH0 DUP3 DUP5 SUB PUSH1 0xC0 DUP2 SLT ISZERO PUSH2 0x2932 JUMPI PUSH0 PUSH0 REVERT JUMPDEST PUSH1 0xA0 DUP2 SLT ISZERO PUSH2 0x293F JUMPI PUSH0 PUSH0 REVERT JUMPDEST POP PUSH2 0x2948 PUSH2 0x25EE JUMP JUMPDEST DUP4 MLOAD DUP2 MSTORE PUSH1 0x20 DUP5 ADD MLOAD PUSH2 0x295A DUP2 PUSH2 0x272A JUMP JUMPDEST PUSH1 0x20 DUP3 ADD MSTORE PUSH1 0x40 DUP5 DUP2 ADD MLOAD SWAP1 DUP3 ADD MSTORE PUSH1 0x60 DUP1 DUP6 ADD MLOAD SWAP1 DUP3 ADD MSTORE PUSH1 0x80 DUP1 DUP6 ADD MLOAD SWAP1 DUP3 ADD MSTORE PUSH1 0xA0 DUP5 ADD MLOAD SWAP1 SWAP3 POP PUSH1 0x1 PUSH1 0x1 PUSH1 0x40 SHL SUB DUP2 GT ISZERO PUSH2 0x2998 JUMPI PUSH0 PUSH0 REVERT JUMPDEST PUSH2 0x27E7 DUP6 DUP3 DUP7 ADD PUSH2 0x28D3 JUMP JUMPDEST PUSH0 DUP2 MLOAD DUP1 PUSH1 0x20 DUP5 ADD DUP6 MCOPY PUSH0 SWAP4 ADD SWAP3 DUP4 MSTORE POP SWAP1 SWAP2 SWAP1 POP JUMP JUMPDEST PUSH0 PUSH2 0x196A DUP3 DUP5 PUSH2 0x29A4 JUMP JUMPDEST DUP3 DUP2 MSTORE PUSH1 0x40 PUSH1 0x20 DUP3 ADD MSTORE PUSH0 PUSH2 0x21E4 PUSH1 0x40 DUP4 ADD DUP5 PUSH2 0x2541 JUMP JUMPDEST PUSH4 0x4E487B71 PUSH1 0xE0 SHL PUSH0 MSTORE PUSH1 0x11 PUSH1 0x4 MSTORE PUSH1 0x24 PUSH0 REVERT JUMPDEST PUSH0 PUSH1 0x1 DUP3 ADD PUSH2 0x2A03 JUMPI PUSH2 0x2A03 PUSH2 0x29DE JUMP JUMPDEST POP PUSH1 0x1 ADD SWAP1 JUMP JUMPDEST DUP1 DUP3 ADD DUP1 DUP3 GT ISZERO PUSH2 0xB8B JUMPI PUSH2 0xB8B PUSH2 0x29DE JUMP JUMPDEST PUSH1 0x1 DUP2 DUP2 SHR SWAP1 DUP3 AND DUP1 PUSH2 0x2A31 JUMPI PUSH1 0x7F DUP3 AND SWAP2 POP JUMPDEST PUSH1 0x20 DUP3 LT DUP2 SUB PUSH2 0x2A4F JUMPI PUSH4 0x4E487B71 PUSH1 0xE0 SHL PUSH0 MSTORE PUSH1 0x22 PUSH1 0x4 MSTORE PUSH1 0x24 PUSH0 REVERT JUMPDEST POP SWAP2 SWAP1 POP JUMP JUMPDEST PUSH1 0x1 DUP2 JUMPDEST PUSH1 0x1 DUP5 GT ISZERO PUSH2 0x2A90 JUMPI DUP1 DUP6 DIV DUP2 GT ISZERO PUSH2 0x2A74 JUMPI PUSH2 0x2A74 PUSH2 0x29DE JUMP JUMPDEST PUSH1 0x1 DUP5 AND ISZERO PUSH2 0x2A82 JUMPI SWAP1 DUP2 MUL SWAP1 JUMPDEST PUSH1 0x1 SWAP4 SWAP1 SWAP4 SHR SWAP3 DUP1 MUL PUSH2 0x2A59 JUMP JUMPDEST SWAP4 POP SWAP4 SWAP2 POP POP JUMP JUMPDEST PUSH0 DUP3 PUSH2 0x2AA6 JUMPI POP PUSH1 0x1 PUSH2 0xB8B JUMP JUMPDEST DUP2 PUSH2 0x2AB2 JUMPI POP PUSH0 PUSH2 0xB8B JUMP JUMPDEST DUP2 PUSH1 0x1 DUP2 EQ PUSH2 0x2AC8 JUMPI PUSH1 0x2 DUP2 EQ PUSH2 0x2AD2 JUMPI PUSH2 0x2AEE JUMP JUMPDEST PUSH1 0x1 SWAP2 POP POP PUSH2 0xB8B JUMP JUMPDEST PUSH1 0xFF DUP5 GT ISZERO PUSH2 0x2AE3 JUMPI PUSH2 0x2AE3 PUSH2 0x29DE JUMP JUMPDEST POP POP PUSH1 0x1 DUP3 SHL PUSH2 0xB8B JUMP JUMPDEST POP PUSH1 0x20 DUP4 LT PUSH2 0x133 DUP4 LT AND PUSH1 0x4E DUP5 LT PUSH1 0xB DUP5 LT AND OR ISZERO PUSH2 0x2B11 JUMPI POP DUP2 DUP2 EXP PUSH2 0xB8B JUMP JUMPDEST PUSH2 0x2B1D PUSH0 NOT DUP5 DUP5 PUSH2 0x2A55 JUMP JUMPDEST DUP1 PUSH0 NOT DIV DUP3 GT ISZERO PUSH2 0x2B30 JUMPI PUSH2 0x2B30 PUSH2 0x29DE JUMP JUMPDEST MUL SWAP4 SWAP3 POP POP POP JUMP JUMPDEST PUSH0 PUSH2 0x196A PUSH1 0xFF DUP5 AND DUP4 PUSH2 0x2A98 JUMP JUMPDEST DUP1 DUP3 MUL DUP2 ISZERO DUP3 DUP3 DIV DUP5 EQ OR PUSH2 0xB8B JUMPI PUSH2 0xB8B PUSH2 0x29DE JUMP JUMPDEST PUSH0 DUP3 PUSH2 0x2B77 JUMPI PUSH4 0x4E487B71 PUSH1 0xE0 SHL PUSH0 MSTORE PUSH1 0x12 PUSH1 0x4 MSTORE PUSH1 0x24 PUSH0 REVERT JUMPDEST POP DIV SWAP1 JUMP JUMPDEST PUSH1 0x1 PUSH1 0x1 PUSH1 0xA0 SHL SUB SWAP4 DUP5 AND DUP2 MSTORE SWAP2 SWAP1 SWAP3 AND PUSH1 0x20 DUP3 ADD MSTORE PUSH1 0x40 DUP2 ADD SWAP2 SWAP1 SWAP2 MSTORE PUSH1 0x60 ADD SWAP1 JUMP JUMPDEST PUSH0 PUSH1 0x20 DUP3 DUP5 SUB SLT ISZERO PUSH2 0x2BB0 JUMPI PUSH0 PUSH0 REVERT JUMPDEST DUP2 MLOAD DUP1 ISZERO ISZERO DUP2 EQ PUSH2 0x196A JUMPI PUSH0 PUSH0 REVERT JUMPDEST PUSH0 PUSH1 0x20 DUP3 DUP5 SUB SLT ISZERO PUSH2 0x2BCF JUMPI PUSH0 PUSH0 REVERT JUMPDEST DUP2 MLOAD PUSH1 0x1 PUSH1 0x1 PUSH1 0x40 SHL SUB DUP2 GT ISZERO PUSH2 0x2BE4 JUMPI PUSH0 PUSH0 REVERT JUMPDEST PUSH2 0x21E4 DUP5 DUP3 DUP6 ADD PUSH2 0x28D3 JUMP JUMPDEST PUSH14 0x2732B2B21020B8383937BB32B21 PUSH1 0x95 SHL DUP2 MSTORE PUSH0 PUSH2 0x196A PUSH1 0xE DUP4 ADD DUP5 PUSH2 0x29A4 JUMP JUMPDEST PUSH1 0x1 PUSH1 0x1 PUSH1 0xA0 SHL SUB SWAP3 SWAP1 SWAP3 AND DUP3 MSTORE PUSH1 0x20 DUP3 ADD MSTORE PUSH1 0x40 ADD SWAP1 JUMP JUMPDEST PUSH0 PUSH1 0x20 DUP3 DUP5 SUB SLT ISZERO PUSH2 0x2C3B JUMPI PUSH0 PUSH0 REVERT JUMPDEST DUP2 MLOAD PUSH2 0x196A DUP2 PUSH2 0x272A JUMP JUMPDEST PUSH1 0x20 DUP1 DUP3 MSTORE PUSH1 0x2 SWAP1 DUP3 ADD MSTORE PUSH2 0x574D PUSH1 0xF0 SHL PUSH1 0x40 DUP3 ADD MSTORE PUSH1 0x60 ADD SWAP1 JUMP JUMPDEST PUSH4 0x4E487B71 PUSH1 0xE0 SHL PUSH0 MSTORE PUSH1 0x32 PUSH1 0x4 MSTORE PUSH1 0x24 PUSH0 REVERT JUMPDEST DUP2 DUP2 SUB DUP2 DUP2 GT ISZERO PUSH2 0xB8B JUMPI PUSH2 0xB8B PUSH2 0x29DE JUMP JUMPDEST PUSH1 0x1 PUSH1 0x1 PUSH1 0xA0 SHL SUB SWAP4 DUP5 AND DUP2 MSTORE SWAP2 DUP4 AND PUSH1 0x20 DUP4 ADD MSTORE SWAP1 SWAP2 AND PUSH1 0x40 DUP3 ADD MSTORE PUSH1 0x60 ADD SWAP1 JUMP JUMPDEST PUSH1 0x1F DUP3 GT ISZERO PUSH2 0x1F5D JUMPI DUP1 PUSH0 MSTORE PUSH1 0x20 PUSH0 KECCAK256 PUSH1 0x1F DUP5 ADD PUSH1 0x5 SHR DUP2 ADD PUSH1 0x20 DUP6 LT ISZERO PUSH2 0x2CD1 JUMPI POP DUP1 JUMPDEST PUSH1 0x1F DUP5 ADD PUSH1 0x5 SHR DUP3 ADD SWAP2 POP JUMPDEST DUP2 DUP2 LT ISZERO PUSH2 0x1EC9 JUMPI PUSH0 DUP2 SSTORE PUSH1 0x1 ADD PUSH2 0x2CDD JUMP JUMPDEST DUP2 MLOAD PUSH1 0x1 PUSH1 0x1 PUSH1 0x40 SHL SUB DUP2 GT ISZERO PUSH2 0x2D09 JUMPI PUSH2 0x2D09 PUSH2 0x25DA JUMP JUMPDEST PUSH2 0x2D1D DUP2 PUSH2 0x2D17 DUP5 SLOAD PUSH2 0x2A1D JUMP JUMPDEST DUP5 PUSH2 0x2CAC JUMP JUMPDEST PUSH1 0x20 PUSH1 0x1F DUP3 GT PUSH1 0x1 DUP2 EQ PUSH2 0x2D4F JUMPI PUSH0 DUP4 ISZERO PUSH2 0x2D38 JUMPI POP DUP5 DUP3 ADD MLOAD JUMPDEST PUSH0 NOT PUSH1 0x3 DUP6 SWAP1 SHL SHR NOT AND PUSH1 0x1 DUP5 SWAP1 SHL OR DUP5 SSTORE PUSH2 0x1EC9 JUMP JUMPDEST PUSH0 DUP5 DUP2 MSTORE PUSH1 0x20 DUP2 KECCAK256 PUSH1 0x1F NOT DUP6 AND SWAP2 JUMPDEST DUP3 DUP2 LT ISZERO PUSH2 0x2D7E JUMPI DUP8 DUP6 ADD MLOAD DUP3 SSTORE PUSH1 0x20 SWAP5 DUP6 ADD SWAP5 PUSH1 0x1 SWAP1 SWAP3 ADD SWAP2 ADD PUSH2 0x2D5E JUMP JUMPDEST POP DUP5 DUP3 LT ISZERO PUSH2 0x2D9B JUMPI DUP7 DUP5 ADD MLOAD PUSH0 NOT PUSH1 0x3 DUP8 SWAP1 SHL PUSH1 0xF8 AND SHR NOT AND DUP2 SSTORE JUMPDEST POP POP POP POP PUSH1 0x1 SWAP1 DUP2 SHL ADD SWAP1 SSTORE POP JUMP JUMPDEST PUSH1 0x1 PUSH1 0x1 PUSH1 0xA0 SHL SUB SWAP8 DUP9 AND DUP2 MSTORE SWAP6 DUP8 AND PUSH1 0x20 DUP8 ADD MSTORE SWAP4 DUP7 AND PUSH1 0x40 DUP7 ADD MSTORE SWAP2 DUP6 AND PUSH1 0x60 DUP6 ADD MSTORE SWAP1 SWAP4 AND PUSH1 0x80 DUP4 ADD MSTORE PUSH1 0xA0 DUP3 ADD SWAP3 SWAP1 SWAP3 MSTORE PUSH1 0xC0 DUP2 ADD SWAP2 SWAP1 SWAP2 MSTORE PUSH1 0xE0 ADD SWAP1 JUMP INVALID LOG2 PUSH5 0x6970667358 0x22 SLT KECCAK256 BALANCE CREATE2 PUSH2 0x191E PUSH8 0x41712F732894AAD2 0xF ADDMOD 0x21 PUSH23 0x9AA8B679597C5E4E90AE9240041A64736F6C634300081B STOP CALLER "
		},
		"gasEstimates": {
			"creation": {
				"codeDepositCost": "2362200",
				"executionCost": "infinite",
				"totalCost": "infinite"
			},
			"external": {
				"Chat()": "187",
				"Deposit(address,string,uint256)": "infinite",
				"GetDeposit(uint256)": "13619",
				"GetDepositCount()": "2336",
				"GetMarketRate(address)": "2595",
				"GetQingAdjectiveDeposit(uint256,string)": "infinite",
				"GetUserDepositByIndex(uint64,uint256)": "infinite",
				"GetUserDepositCount(uint64)": "2616",
				"MotzkinPrime()": "259",
				"Move()": "230",
				"Purchase(address,uint256)": "infinite",
				"React(string)": "infinite",
				"Redeem(address,uint256)": "infinite",
				"Register(address,uint256)": "352",
				"Rename(string,string)": "infinite",
				"Tso()": "infinite",
				"Type()": "infinite",
				"Withdraw(uint256,uint256)": "infinite",
				"Xia()": "2382",
				"Xiao()": "2405",
				"addOwner(address)": "infinite",
				"allowance(address,address)": "infinite",
				"approve(address,uint256)": "24747",
				"balanceOf(address)": "2617",
				"decimals()": "287",
				"maxSupply()": "2360",
				"mintToCap()": "infinite",
				"name()": "infinite",
				"owner()": "368",
				"owner(address)": "2578",
				"renounceOwnership(address)": "infinite",
				"symbol()": "infinite",
				"totalSupply()": "2414",
				"transfer(address,uint256)": "51329",
				"transferFrom(address,address,uint256)": "infinite"
			}
		},
		"methodIdentifiers": {
			"Chat()": "05a667e7",
			"Deposit(address,string,uint256)": "2d4b5979",
			"GetDeposit(uint256)": "3aac9d70",
			"GetDepositCount()": "27d74dee",
			"GetMarketRate(address)": "2b83b1fc",
			"GetQingAdjectiveDeposit(uint256,string)": "f5c590f8",
			"GetUserDepositByIndex(uint64,uint256)": "4e334b7c",
			"GetUserDepositCount(uint64)": "d9fe351d",
			"MotzkinPrime()": "d3dc2a0f",
			"Move()": "846a80c0",
			"Purchase(address,uint256)": "2499a533",
			"React(string)": "e1b2f78c",
			"Redeem(address,uint256)": "222838db",
			"Register(address,uint256)": "007dc6ab",
			"Rename(string,string)": "9dcbf7ea",
			"Tso()": "004cf424",
			"Type()": "ff762044",
			"Withdraw(uint256,uint256)": "56ca301a",
			"Xia()": "c42564ea",
			"Xiao()": "6fb7329c",
			"addOwner(address)": "7065cb48",
			"allowance(address,address)": "dd62ed3e",
			"approve(address,uint256)": "095ea7b3",
			"balanceOf(address)": "70a08231",
			"decimals()": "313ce567",
			"maxSupply()": "d5abeb01",
			"mintToCap()": "f4e6c93f",
			"name()": "06fdde03",
			"owner()": "8da5cb5b",
			"owner(address)": "666e1b39",
			"renounceOwnership(address)": "38bf3cfa",
			"symbol()": "95d89b41",
			"totalSupply()": "18160ddd",
			"transfer(address,uint256)": "a9059cbb",
			"transferFrom(address,address,uint256)": "23b872dd"
		}
	},
	"abi": [
		{
			"inputs": [
				{
					"internalType": "address",
					"name": "XiaAddress",
					"type": "address"
				}
			],
			"stateMutability": "nonpayable",
			"type": "constructor"
		},
		{
			"inputs": [
				{
					"internalType": "address",
					"name": "origin",
					"type": "address"
				},
				{
					"internalType": "address",
					"name": "sender",
					"type": "address"
				},
				{
					"internalType": "address",
					"name": "owner",
					"type": "address"
				},
				{
					"internalType": "address",
					"name": "spender",
					"type": "address"
				},
				{
					"internalType": "address",
					"name": "what",
					"type": "address"
				},
				{
					"internalType": "uint256",
					"name": "allowance",
					"type": "uint256"
				},
				{
					"internalType": "uint256",
					"name": "needed",
					"type": "uint256"
				}
			],
			"name": "DysnomiaInsufficientAllowance",
			"type": "error"
		},
		{
			"inputs": [
				{
					"internalType": "address",
					"name": "origin",
					"type": "address"
				},
				{
					"internalType": "address",
					"name": "sender",
					"type": "address"
				},
				{
					"internalType": "address",
					"name": "from",
					"type": "address"
				},
				{
					"internalType": "address",
					"name": "to",
					"type": "address"
				},
				{
					"internalType": "address",
					"name": "what",
					"type": "address"
				},
				{
					"internalType": "uint256",
					"name": "balance",
					"type": "uint256"
				},
				{
					"internalType": "uint256",
					"name": "needed",
					"type": "uint256"
				}
			],
			"name": "DysnomiaInsufficientBalance",
			"type": "error"
		},
		{
			"inputs": [
				{
					"internalType": "uint256",
					"name": "DepositId",
					"type": "uint256"
				},
				{
					"internalType": "uint256",
					"name": "Balance",
					"type": "uint256"
				}
			],
			"name": "ExceedsBalance",
			"type": "error"
		},
		{
			"inputs": [
				{
					"internalType": "uint256",
					"name": "MaxDepositRemaining",
					"type": "uint256"
				},
				{
					"internalType": "uint256",
					"name": "RequestedDeposit",
					"type": "uint256"
				}
			],
			"name": "ExceedsMaxSystemDeposit",
			"type": "error"
		},
		{
			"inputs": [
				{
					"internalType": "address",
					"name": "asset",
					"type": "address"
				}
			],
			"name": "MarketRateNotFound",
			"type": "error"
		},
		{
			"inputs": [
				{
					"internalType": "uint256",
					"name": "DepositId",
					"type": "uint256"
				}
			],
			"name": "NotOwner",
			"type": "error"
		},
		{
			"inputs": [
				{
					"internalType": "address",
					"name": "origin",
					"type": "address"
				},
				{
					"internalType": "address",
					"name": "owner",
					"type": "address"
				},
				{
					"internalType": "address",
					"name": "what",
					"type": "address"
				}
			],
			"name": "OwnableInvalidOwner",
			"type": "error"
		},
		{
			"inputs": [
				{
					"internalType": "address",
					"name": "origin",
					"type": "address"
				},
				{
					"internalType": "address",
					"name": "account",
					"type": "address"
				},
				{
					"internalType": "address",
					"name": "what",
					"type": "address"
				}
			],
			"name": "OwnableUnauthorizedAccount",
			"type": "error"
		},
		{
			"inputs": [
				{
					"internalType": "address",
					"name": "Qing",
					"type": "address"
				}
			],
			"name": "UnknownQing",
			"type": "error"
		},
		{
			"inputs": [
				{
					"internalType": "address",
					"name": "Qing",
					"type": "address"
				},
				{
					"internalType": "uint256",
					"name": "Waat",
					"type": "uint256"
				}
			],
			"name": "WaatMismatch",
			"type": "error"
		},
		{
			"anonymous": false,
			"inputs": [
				{
					"indexed": true,
					"internalType": "address",
					"name": "owner",
					"type": "address"
				},
				{
					"indexed": true,
					"internalType": "address",
					"name": "spender",
					"type": "address"
				},
				{
					"indexed": false,
					"internalType": "uint256",
					"name": "value",
					"type": "uint256"
				}
			],
			"name": "Approval",
			"type": "event"
		},
		{
			"anonymous": false,
			"inputs": [
				{
					"indexed": true,
					"internalType": "address",
					"name": "newOwner",
					"type": "address"
				},
				{
					"indexed": true,
					"internalType": "bool",
					"name": "state",
					"type": "bool"
				}
			],
			"name": "OwnershipUpdate",
			"type": "event"
		},
		{
			"anonymous": false,
			"inputs": [
				{
					"indexed": true,
					"internalType": "address",
					"name": "from",
					"type": "address"
				},
				{
					"indexed": true,
					"internalType": "address",
					"name": "to",
					"type": "address"
				},
				{
					"indexed": false,
					"internalType": "uint256",
					"name": "value",
					"type": "uint256"
				}
			],
			"name": "Transfer",
			"type": "event"
		},
		{
			"inputs": [],
			"name": "Chat",
			"outputs": [],
			"stateMutability": "nonpayable",
			"type": "function"
		},
		{
			"inputs": [
				{
					"internalType": "address",
					"name": "Qing",
					"type": "address"
				},
				{
					"internalType": "string",
					"name": "Adjective",
					"type": "string"
				},
				{
					"internalType": "uint256",
					"name": "amount",
					"type": "uint256"
				}
			],
			"name": "Deposit",
			"outputs": [],
			"stateMutability": "nonpayable",
			"type": "function"
		},
		{
			"inputs": [
				{
					"internalType": "uint256",
					"name": "Id",
					"type": "uint256"
				}
			],
			"name": "GetDeposit",
			"outputs": [
				{
					"components": [
						{
							"internalType": "uint256",
							"name": "waat",
							"type": "uint256"
						},
						{
							"internalType": "uint64",
							"name": "soul",
							"type": "uint64"
						},
						{
							"internalType": "uint256",
							"name": "depositId",
							"type": "uint256"
						},
						{
							"internalType": "uint256",
							"name": "amount",
							"type": "uint256"
						},
						{
							"internalType": "uint256",
							"name": "timestamp",
							"type": "uint256"
						}
					],
					"internalType": "struct TimeDeposit",
					"name": "",
					"type": "tuple"
				}
			],
			"stateMutability": "view",
			"type": "function"
		},
		{
			"inputs": [],
			"name": "GetDepositCount",
			"outputs": [
				{
					"internalType": "uint256",
					"name": "",
					"type": "uint256"
				}
			],
			"stateMutability": "view",
			"type": "function"
		},
		{
			"inputs": [
				{
					"internalType": "address",
					"name": "_a",
					"type": "address"
				}
			],
			"name": "GetMarketRate",
			"outputs": [
				{
					"internalType": "uint256",
					"name": "",
					"type": "uint256"
				}
			],
			"stateMutability": "view",
			"type": "function"
		},
		{
			"inputs": [
				{
					"internalType": "uint256",
					"name": "QingWaat",
					"type": "uint256"
				},
				{
					"internalType": "string",
					"name": "Adjective",
					"type": "string"
				}
			],
			"name": "GetQingAdjectiveDeposit",
			"outputs": [
				{
					"components": [
						{
							"internalType": "uint256",
							"name": "waat",
							"type": "uint256"
						},
						{
							"internalType": "uint64",
							"name": "soul",
							"type": "uint64"
						},
						{
							"internalType": "uint256",
							"name": "depositId",
							"type": "uint256"
						},
						{
							"internalType": "uint256",
							"name": "amount",
							"type": "uint256"
						},
						{
							"internalType": "uint256",
							"name": "timestamp",
							"type": "uint256"
						}
					],
					"internalType": "struct TimeDeposit",
					"name": "",
					"type": "tuple"
				}
			],
			"stateMutability": "view",
			"type": "function"
		},
		{
			"inputs": [
				{
					"internalType": "uint64",
					"name": "UserSoul",
					"type": "uint64"
				},
				{
					"internalType": "uint256",
					"name": "Index",
					"type": "uint256"
				}
			],
			"name": "GetUserDepositByIndex",
			"outputs": [
				{
					"components": [
						{
							"internalType": "uint256",
							"name": "waat",
							"type": "uint256"
						},
						{
							"internalType": "uint64",
							"name": "soul",
							"type": "uint64"
						},
						{
							"internalType": "uint256",
							"name": "depositId",
							"type": "uint256"
						},
						{
							"internalType": "uint256",
							"name": "amount",
							"type": "uint256"
						},
						{
							"internalType": "uint256",
							"name": "timestamp",
							"type": "uint256"
						}
					],
					"internalType": "struct TimeDeposit",
					"name": "Stake",
					"type": "tuple"
				}
			],
			"stateMutability": "view",
			"type": "function"
		},
		{
			"inputs": [
				{
					"internalType": "uint64",
					"name": "UserSoul",
					"type": "uint64"
				}
			],
			"name": "GetUserDepositCount",
			"outputs": [
				{
					"internalType": "uint256",
					"name": "",
					"type": "uint256"
				}
			],
			"stateMutability": "view",
			"type": "function"
		},
		{
			"inputs": [],
			"name": "MotzkinPrime",
			"outputs": [
				{
					"internalType": "uint64",
					"name": "",
					"type": "uint64"
				}
			],
			"stateMutability": "view",
			"type": "function"
		},
		{
			"inputs": [],
			"name": "Move",
			"outputs": [],
			"stateMutability": "nonpayable",
			"type": "function"
		},
		{
			"inputs": [
				{
					"internalType": "address",
					"name": "_t",
					"type": "address"
				},
				{
					"internalType": "uint256",
					"name": "_a",
					"type": "uint256"
				}
			],
			"name": "Purchase",
			"outputs": [],
			"stateMutability": "nonpayable",
			"type": "function"
		},
		{
			"inputs": [
				{
					"internalType": "string",
					"name": "Adjective",
					"type": "string"
				}
			],
			"name": "React",
			"outputs": [
				{
					"internalType": "uint256",
					"name": "Omicron",
					"type": "uint256"
				},
				{
					"internalType": "uint256",
					"name": "Omega",
					"type": "uint256"
				}
			],
			"stateMutability": "nonpayable",
			"type": "function"
		},
		{
			"inputs": [
				{
					"internalType": "address",
					"name": "_t",
					"type": "address"
				},
				{
					"internalType": "uint256",
					"name": "_a",
					"type": "uint256"
				}
			],
			"name": "Redeem",
			"outputs": [],
			"stateMutability": "nonpayable",
			"type": "function"
		},
		{
			"inputs": [
				{
					"internalType": "address",
					"name": "ChanAddress",
					"type": "address"
				},
				{
					"internalType": "uint256",
					"name": "QingWaat",
					"type": "uint256"
				}
			],
			"name": "Register",
			"outputs": [],
			"stateMutability": "nonpayable",
			"type": "function"
		},
		{
			"inputs": [
				{
					"internalType": "string",
					"name": "newName",
					"type": "string"
				},
				{
					"internalType": "string",
					"name": "newSymbol",
					"type": "string"
				}
			],
			"name": "Rename",
			"outputs": [],
			"stateMutability": "nonpayable",
			"type": "function"
		},
		{
			"inputs": [],
			"name": "Tso",
			"outputs": [],
			"stateMutability": "nonpayable",
			"type": "function"
		},
		{
			"inputs": [],
			"name": "Type",
			"outputs": [
				{
					"internalType": "string",
					"name": "",
					"type": "string"
				}
			],
			"stateMutability": "view",
			"type": "function"
		},
		{
			"inputs": [
				{
					"internalType": "uint256",
					"name": "Id",
					"type": "uint256"
				},
				{
					"internalType": "uint256",
					"name": "Amount",
					"type": "uint256"
				}
			],
			"name": "Withdraw",
			"outputs": [],
			"stateMutability": "nonpayable",
			"type": "function"
		},
		{
			"inputs": [],
			"name": "Xia",
			"outputs": [
				{
					"internalType": "contract XIA",
					"name": "",
					"type": "address"
				}
			],
			"stateMutability": "view",
			"type": "function"
		},
		{
			"inputs": [],
			"name": "Xiao",
			"outputs": [
				{
					"internalType": "contract atropaMath",
					"name": "",
					"type": "address"
				}
			],
			"stateMutability": "view",
			"type": "function"
		},
		{
			"inputs": [
				{
					"internalType": "address",
					"name": "newOwner",
					"type": "address"
				}
			],
			"name": "addOwner",
			"outputs": [],
			"stateMutability": "nonpayable",
			"type": "function"
		},
		{
			"inputs": [
				{
					"internalType": "address",
					"name": "owner",
					"type": "address"
				},
				{
					"internalType": "address",
					"name": "spender",
					"type": "address"
				}
			],
			"name": "allowance",
			"outputs": [
				{
					"internalType": "uint256",
					"name": "",
					"type": "uint256"
				}
			],
			"stateMutability": "view",
			"type": "function"
		},
		{
			"inputs": [
				{
					"internalType": "address",
					"name": "spender",
					"type": "address"
				},
				{
					"internalType": "uint256",
					"name": "value",
					"type": "uint256"
				}
			],
			"name": "approve",
			"outputs": [
				{
					"internalType": "bool",
					"name": "",
					"type": "bool"
				}
			],
			"stateMutability": "nonpayable",
			"type": "function"
		},
		{
			"inputs": [
				{
					"internalType": "address",
					"name": "account",
					"type": "address"
				}
			],
			"name": "balanceOf",
			"outputs": [
				{
					"internalType": "uint256",
					"name": "",
					"type": "uint256"
				}
			],
			"stateMutability": "view",
			"type": "function"
		},
		{
			"inputs": [],
			"name": "decimals",
			"outputs": [
				{
					"internalType": "uint8",
					"name": "",
					"type": "uint8"
				}
			],
			"stateMutability": "view",
			"type": "function"
		},
		{
			"inputs": [],
			"name": "maxSupply",
			"outputs": [
				{
					"internalType": "uint256",
					"name": "",
					"type": "uint256"
				}
			],
			"stateMutability": "view",
			"type": "function"
		},
		{
			"inputs": [],
			"name": "mintToCap",
			"outputs": [],
			"stateMutability": "nonpayable",
			"type": "function"
		},
		{
			"inputs": [],
			"name": "name",
			"outputs": [
				{
					"internalType": "string",
					"name": "",
					"type": "string"
				}
			],
			"stateMutability": "view",
			"type": "function"
		},
		{
			"inputs": [
				{
					"internalType": "address",
					"name": "cOwner",
					"type": "address"
				}
			],
			"name": "owner",
			"outputs": [
				{
					"internalType": "bool",
					"name": "",
					"type": "bool"
				}
			],
			"stateMutability": "view",
			"type": "function"
		},
		{
			"inputs": [],
			"name": "owner",
			"outputs": [
				{
					"internalType": "address",
					"name": "",
					"type": "address"
				}
			],
			"stateMutability": "view",
			"type": "function"
		},
		{
			"inputs": [
				{
					"internalType": "address",
					"name": "toRemove",
					"type": "address"
				}
			],
			"name": "renounceOwnership",
			"outputs": [],
			"stateMutability": "nonpayable",
			"type": "function"
		},
		{
			"inputs": [],
			"name": "symbol",
			"outputs": [
				{
					"internalType": "string",
					"name": "",
					"type": "string"
				}
			],
			"stateMutability": "view",
			"type": "function"
		},
		{
			"inputs": [],
			"name": "totalSupply",
			"outputs": [
				{
					"internalType": "uint256",
					"name": "",
					"type": "uint256"
				}
			],
			"stateMutability": "view",
			"type": "function"
		},
		{
			"inputs": [
				{
					"internalType": "address",
					"name": "to",
					"type": "address"
				},
				{
					"internalType": "uint256",
					"name": "value",
					"type": "uint256"
				}
			],
			"name": "transfer",
			"outputs": [
				{
					"internalType": "bool",
					"name": "",
					"type": "bool"
				}
			],
			"stateMutability": "nonpayable",
			"type": "function"
		},
		{
			"inputs": [
				{
					"internalType": "address",
					"name": "from",
					"type": "address"
				},
				{
					"internalType": "address",
					"name": "to",
					"type": "address"
				},
				{
					"internalType": "uint256",
					"name": "value",
					"type": "uint256"
				}
			],
			"name": "transferFrom",
			"outputs": [
				{
					"internalType": "bool",
					"name": "",
					"type": "bool"
				}
			],
			"stateMutability": "nonpayable",
			"type": "function"
		}
	]
}