{
	"data": {
		"bytecode": {
			"linkReferences": {},
			"object": "608060405234801561000f575f5ffd5b5060405161298438038061298483398101604081905261002e91610abb565b604080518082018252600a815269434841544c4f4720596960b01b60208083019190915282518084019093526002835261594960f01b908301529082338061009c57604051633603021960e21b81523260048201525f60248201523060448201526064015b60405180910390fd5b6100a7816001610715565b5060046100b48482610b9d565b5060056100c18382610b9d565b50600680546001600160a01b0319166001600160a01b0383169081179091556040805163604a6fa960e01b815290516201b207929163604a6fa991600480830192602092919082900301815f875af115801561011f573d5f5f3e3d5ffd5b505050506040513d601f19601f820116820180604052508101906101439190610c57565b61014d9190610c98565b6001600160401b03166007819055505f600a60075460065f9054906101000a90046001600160a01b03166001600160a01b031663604a6fa96040518163ffffffff1660e01b81526004016020604051808303815f875af11580156101b3573d5f5f3e3d5ffd5b505050506040513d601f19601f820116820180604052508101906101d79190610c57565b6001600160401b03166101ea9190610cc6565b6101f49190610ced565b9050610215326102066012600a610de5565b6102109084610df3565b610768565b6102617324f0154c1dce548adf15da2098fdd8b8a3b8151d60125b61023b90600a610de5565b610246906001610df3565b6001600160a01b039091165f90815260086020526040902055565b5050600c80546001600160a01b03199081166001600160a01b03888116918217909355600d805490921687841617909155604051631085350f60e11b81526060600480830191909152600860648301526714da1a5bc8149bd960c21b608483015260a0602483015260a48201526314d493d160e21b60c482015291851660448301525f9350915063210a6a1e9060e4016020604051808303815f875af115801561030d573d5f5f3e3d5ffd5b505050506040513d601f19601f820116820180604052508101906103319190610e0a565b600c54604051631085350f60e11b81526060600482015260096064820152685368696f20436f6e6560b81b608482015260a06024820152600560a48201526453434f4e4560d81b60c48201526001600160a01b0385811660448301529293505f929091169063210a6a1e9060e4016020604051808303815f875af11580156103bb573d5f5f3e3d5ffd5b505050506040513d601f19601f820116820180604052508101906103df9190610e0a565b600d5460405163242c185760e11b81526001600160a01b0385811660048301528084166024830152868116604483015292935091169063485830ae906064016020604051808303815f875af115801561043a573d5f5f3e3d5ffd5b505050506040513d601f19601f8201168201806040525081019061045e9190610e0a565b600980546001600160a01b0319166001600160a01b039283161790556006546040805163604a6fa960e01b81529051919092169163604a6fa991600480830192602092919082900301815f875af11580156104bb573d5f5f3e3d5ffd5b505050506040513d601f19601f820116820180604052508101906104df9190610c57565b600b80546001600160401b0319166001600160401b039290921691821790556009546006546040805163604a6fa960e01b815290516001600160a01b03938416946385da8ff8949093169163604a6fa991600480830192602092919082900301815f875af1158015610553573d5f5f3e3d5ffd5b505050506040513d601f19601f820116820180604052508101906105779190610c57565b60065f9054906101000a90046001600160a01b03166001600160a01b031663604a6fa96040518163ffffffff1660e01b81526004016020604051808303815f875af11580156105c8573d5f5f3e3d5ffd5b505050506040513d601f19601f820116820180604052508101906105ec9190610c57565b60405160e085901b6001600160e01b03191681526001600160401b039384166004820152918316602483015290911660448201526064015f604051808303815f87803b15801561063a575f5ffd5b505af115801561064c573d5f5f3e3d5ffd5b5050505061065e61077760201b60201c565b60095f9054906101000a90046001600160a01b03166001600160a01b03166395fb81906040518163ffffffff1660e01b81526004016020604051808303815f875af11580156106af573d5f5f3e3d5ffd5b505050506040513d601f19601f820116820180604052508101906106d39190610c57565b600b80546001600160401b03929092166801000000000000000002600160401b600160801b031990921691909117905561070b61084b565b5050505050610e38565b6001600160a01b0382165f81815260208190526040808220805460ff191685151590811790915590519092917f6bfa7e860c3e9bf67b810cb88276b19b27c972812bac04793d369b59a1183a8391a35050565b6107735f8383610927565b5050565b60095f9054906101000a90046001600160a01b03166001600160a01b031663ece1af6b6040518163ffffffff1660e01b81526004015f604051808303815f87803b1580156107c3575f5ffd5b505af11580156107d5573d5f5f3e3d5ffd5b5050505060095f9054906101000a90046001600160a01b03166001600160a01b031663089c10b06040518163ffffffff1660e01b81526004015f604051808303815f87803b158015610825575f5ffd5b505af1158015610837573d5f5f3e3d5ffd5b50505050610849610a6760201b60201c565b565b600954610862906001600160a01b03166012610230565b600954604080516325a28a8f60e01b815290516108d6926001600160a01b0316916325a28a8f9160048083019260209291908290030181865afa1580156108ab573d5f5f3e3d5ffd5b505050506040513d601f19601f820116820180604052508101906108cf9190610e0a565b6012610230565b60095460408051634970204f60e01b8152905161091f926001600160a01b031691634970204f9160048083019260209291908290030181865afa1580156108ab573d5f5f3e3d5ffd5b610849610a67565b6001600160a01b038316610951578060035f8282546109469190610e25565b909155506109db9050565b6001600160a01b0383165f90815260016020526040902054818110156109bd57604051630f7d0bbd60e21b81523260048201523360248201526001600160a01b0380861660448301528416606482015230608482015260a4810182905260c4810183905260e401610093565b6001600160a01b0384165f9081526001602052604090209082900390555b6001600160a01b0382166109f757600380548290039055610a15565b6001600160a01b0382165f9081526001602052604090208054820190555b816001600160a01b0316836001600160a01b03167fddf252ad1be2c89b69c2b068fc378daa952ba7f163c4a11628f55a4df523b3ef83604051610a5a91815260200190565b60405180910390a3505050565b610a736012600a610de5565b600754610a809190610df3565b60035410156108495761084930610a996012600a610de5565b610210906001610df3565b6001600160a01b0381168114610ab8575f5ffd5b50565b5f5f5f60608486031215610acd575f5ffd5b8351610ad881610aa4565b6020850151909350610ae981610aa4565b6040850151909250610afa81610aa4565b809150509250925092565b634e487b7160e01b5f52604160045260245ffd5b600181811c90821680610b2d57607f821691505b602082108103610b4b57634e487b7160e01b5f52602260045260245ffd5b50919050565b601f821115610b9857805f5260205f20601f840160051c81016020851015610b765750805b601f840160051c820191505b81811015610b95575f8155600101610b82565b50505b505050565b81516001600160401b03811115610bb657610bb6610b05565b610bca81610bc48454610b19565b84610b51565b6020601f821160018114610bfc575f8315610be55750848201515b5f19600385901b1c1916600184901b178455610b95565b5f84815260208120601f198516915b82811015610c2b5787850151825560209485019460019092019101610c0b565b5084821015610c4857868401515f19600387901b60f8161c191681555b50505050600190811b01905550565b5f60208284031215610c67575f5ffd5b81516001600160401b0381168114610c7d575f5ffd5b9392505050565b634e487b7160e01b5f52601260045260245ffd5b5f6001600160401b03831680610cb057610cb0610c84565b6001600160401b03929092169190910692915050565b5f82610cd457610cd4610c84565b500690565b634e487b7160e01b5f52601160045260245ffd5b5f82610cfb57610cfb610c84565b500490565b6001815b6001841115610d3b57808504811115610d1f57610d1f610cd9565b6001841615610d2d57908102905b60019390931c928002610d04565b935093915050565b5f82610d5157506001610ddf565b81610d5d57505f610ddf565b8160018114610d735760028114610d7d57610d99565b6001915050610ddf565b60ff841115610d8e57610d8e610cd9565b50506001821b610ddf565b5060208310610133831016604e8410600b8410161715610dbc575081810a610ddf565b610dc85f198484610d00565b805f1904821115610ddb57610ddb610cd9565b0290505b92915050565b5f610c7d60ff841683610d43565b8082028115828204841417610ddf57610ddf610cd9565b5f60208284031215610e1a575f5ffd5b8151610c7d81610aa4565b80820180821115610ddf57610ddf610cd9565b611b3f80610e455f395ff3fe608060405234801561000f575f5ffd5b50600436106101ab575f3560e01c806376fade90116100eb578063cb4157bd1161008f578063cb4157bd146103cd578063ce42ee48146103ed578063d3dc2a0f14610400578063d5abeb011461040e578063dd62ed3e14610417578063ea673dd21461042a578063f4e6c93f1461043d578063ff76204414610445575f5ffd5b806376fade901461032e57806387b3be7d146103415780638da5cb5b1461037357806395d89b41146103795780639dcbf7ea14610381578063a12204b014610394578063a5c2ec1c146103a7578063a9059cbb146103ba575f5ffd5b80632e426d34116101525780632e426d3414610285578063313ce5671461029857806338bf3cfa146102a75780634d3a5b71146102ba578063666e1b39146102cd5780636fb7329c146102e05780637065cb48146102f357806370a0823114610306575f5ffd5b806306fdde03146101af578063095ea7b3146101cd5780630dd13230146101f057806318160ddd14610210578063222838db1461022257806323b872dd146102375780632499a5331461024a5780632b83b1fc1461025d575b5f5ffd5b6101b7610466565b6040516101c49190611195565b60405180910390f35b6101e06101db3660046111de565b6104f6565b60405190151581526020016101c4565b600d54610203906001600160a01b031681565b6040516101c49190611208565b6003545b6040519081526020016101c4565b6102356102303660046111de565b61050f565b005b6101e061024536600461121c565b610711565b6102356102583660046111de565b610734565b61021461026b36600461125a565b6001600160a01b03165f9081526008602052604090205490565b600c54610203906001600160a01b031681565b604051601281526020016101c4565b6102356102b536600461125a565b6108e7565b6102036102c8366004611285565b6108fc565b6101e06102db36600461125a565b6109ea565b600654610203906001600160a01b031681565b61023561030136600461125a565b610a07565b61021461031436600461125a565b6001600160a01b03165f9081526001602052604090205490565b600954610203906001600160a01b031681565b600b5461035b90600160401b90046001600160401b031681565b6040516001600160401b0390911681526020016101c4565b30610203565b6101b7610a47565b61023561038f3660046113a1565b610a56565b600b5461035b906001600160401b031681565b6102036103b5366004611448565b610a7c565b6101e06103c83660046111de565b610b6f565b6103e06103db366004611576565b610b7c565b6040516101c491906115a3565b6102356103fb366004611665565b610c1e565b61035b6603632c8eb5af3b81565b61021460075481565b610214610425366004611285565b610d86565b6103e061043836600461125a565b610db0565b610235610e52565b6101b760405180604001604052806002815260200161594960f01b81525081565b60606004805461047590611680565b80601f01602080910402602001604051908101604052809291908181526020018280546104a190611680565b80156104ec5780601f106104c3576101008083540402835291602001916104ec565b820191905f5260205f20905b8154815290600101906020018083116104cf57829003601f168201915b5050505050905090565b5f33610503818585610e64565b60019150505b92915050565b6001600160a01b0382165f90815260086020526040812054900361055157816040516390b2344160e01b81526004016105489190611208565b60405180910390fd5b815f61055f6012600a6117af565b6001600160a01b0385165f9081526008602052604090205461058190856117bd565b61058b91906117d4565b6040516323b872dd60e01b81529091505f9030906323b872dd906105b7903390849089906004016117f3565b6020604051808303815f875af11580156105d3573d5f5f3e3d5ffd5b505050506040513d601f19601f820116820180604052508101906105f79190611817565b905080306001600160a01b03166306fdde036040518163ffffffff1660e01b81526004015f60405180830381865afa158015610635573d5f5f3e3d5ffd5b505050506040513d5f823e601f3d908101601f1916820160405261065c9190810190611836565b60405160200161066c91906118aa565b604051602081830303815290604052906106995760405162461bcd60e51b81526004016105489190611195565b5060405163a9059cbb60e01b8152336004820152602481018390526001600160a01b0384169063a9059cbb906044015b6020604051808303815f875af11580156106e5573d5f5f3e3d5ffd5b505050506040513d601f19601f820116820180604052508101906107099190611817565b505050505050565b5f3361071e858285610e71565b610729858585610ec8565b506001949350505050565b6001600160a01b0382165f90815260086020526040812054900361076d57816040516390b2344160e01b81526004016105489190611208565b815f61077b6012600a6117af565b6001600160a01b0385165f9081526008602052604090205461079d90856117bd565b6107a791906117d4565b90505f826001600160a01b03166323b872dd3330856040518463ffffffff1660e01b81526004016107da939291906117f3565b6020604051808303815f875af11580156107f6573d5f5f3e3d5ffd5b505050506040513d601f19601f8201168201806040525081019061081a9190611817565b905080836001600160a01b03166306fdde036040518163ffffffff1660e01b81526004015f60405180830381865afa158015610858573d5f5f3e3d5ffd5b505050506040513d5f823e601f3d908101601f1916820160405261087f9190810190611836565b60405160200161088f91906118aa565b604051602081830303815290604052906108bc5760405162461bcd60e51b81526004016105489190611195565b5060405163a9059cbb60e01b815233600482015260248101859052309063a9059cbb906044016106c9565b6108ef610ed3565b6108f9815f610f13565b50565b5f610905610ed3565b600d5460065460405163242c185760e11b81525f926001600160a01b039081169263485830ae9261093f92899289929116906004016118da565b6020604051808303815f875af115801561095b573d5f5f3e3d5ffd5b505050506040513d601f19601f8201168201806040525081019061097f91906118fd565b604051630e0cb96960e31b81529091506001600160a01b03821690637065cb48906109ae903390600401611208565b5f604051808303815f87803b1580156109c5575f5ffd5b505af11580156109d7573d5f5f3e3d5ffd5b505050506109e3610f66565b9392505050565b6001600160a01b03165f9081526020819052604090205460ff1690565b610a0f610ed3565b6001600160a01b038116610a3c57325f30604051633603021960e21b8152600401610548939291906118da565b6108f9816001610f13565b60606005805461047590611680565b610a5e610ed3565b6004610a6a8382611963565b506005610a778282611963565b505050565b5f610a85610ed3565b600c54600654604051631085350f60e11b81525f926001600160a01b039081169263210a6a1e92610ac2928b928b928b928b921690600401611a45565b6020604051808303815f875af1158015610ade573d5f5f3e3d5ffd5b505050506040513d601f19601f82011682018060405250810190610b0291906118fd565b604051630e0cb96960e31b81529091506001600160a01b03821690637065cb4890610b31903390600401611208565b5f604051808303815f87803b158015610b48575f5ffd5b505af1158015610b5a573d5f5f3e3d5ffd5b50505050610b66610f66565b95945050505050565b5f33610503818585610ec8565b610b84611152565b6080830151604051633b8052c960e01b81526001600160401b03841660048201526001600160a01b0390911690633b8052c99060240160408051808303815f875af1158015610bd5573d5f5f3e3d5ffd5b505050506040513d601f19601f82011682018060405250810190610bf99190611a86565b6001600160401b0390811660e08601521660c0840152610c17610f66565b5090919050565b610c26610ed3565b80516001600160a01b039081165f908152600a60209081526040808320855181546001600160a01b03191690861617815591850151600183018054838801519287166001600160e01b031991821617600160a01b6001600160401b03948516021790915560608088015160028601805460808b0151928616941693909317600160401b919098168181029890981790925560a08801516003909501805460c08a015160e08b01519786166001600160801b0319909216919091179085169093029290921767ffffffffffffffff60801b1916600160801b959093169490940291909117905551636d77724160e11b81526004810183905260248101929092526044820152600e60648201526d416464656420746f2059692e4e7560901b608482015263daeee4829060a4015f604051808303815f87803b158015610d68575f5ffd5b505af1158015610d7a573d5f5f3e3d5ffd5b505050506108f9610f66565b6001600160a01b039182165f90815260026020908152604080832093909416825291909152205490565b610db8611152565b506001600160a01b039081165f908152600a6020908152604091829020825161010081018452815485168152600182015480861693820193909352600160a01b9092046001600160401b039081169383019390935260028101548084166060840152600160401b9081900490941660808301526003015480831660a0830152928304821660c0820152600160801b9092041660e082015290565b610e5a610ed3565b610e62610f66565b565b610a778383836001610fa8565b5f610e7c8484610d86565b90505f198114610ec25781811015610eb4573233858530858760405162b83d1960e21b81526004016105489796959493929190611ab3565b610ec284848484035f610fa8565b50505050565b610a77838383611028565b610edc336109ea565b158015610eef5750610eed326109ea565b155b15610e6257323330604051630be6bab560e01b8152600401610548939291906118da565b6001600160a01b0382165f81815260208190526040808220805460ff191685151590811790915590519092917f6bfa7e860c3e9bf67b810cb88276b19b27c972812bac04793d369b59a1183a8391a35050565b610f726012600a6117af565b600754610f7f91906117bd565b6003541015610e6257610e6230610f986012600a6117af565b610fa39060016117bd565b611143565b6001600160a01b038085165f9081526002602090815260408083209387168352929052208290558015610ec257826001600160a01b0316846001600160a01b03167f8c5be1e5ebec7d5bd14f71427d1e84f3dd0314c0f7b2291e5b200ac8c7c3b9258460405161101a91815260200190565b60405180910390a350505050565b6001600160a01b038316611052578060035f8282546110479190611af6565b909155506110b79050565b6001600160a01b0383165f90815260016020526040902054818110156110995732338585308587604051630f7d0bbd60e21b81526004016105489796959493929190611ab3565b6001600160a01b0384165f9081526001602052604090209082900390555b6001600160a01b0382166110d3576003805482900390556110f1565b6001600160a01b0382165f9081526001602052604090208054820190555b816001600160a01b0316836001600160a01b03167fddf252ad1be2c89b69c2b068fc378daa952ba7f163c4a11628f55a4df523b3ef8360405161113691815260200190565b60405180910390a3505050565b61114e5f8383611028565b5050565b60408051610100810182525f80825260208201819052918101829052606081018290526080810182905260a0810182905260c0810182905260e081019190915290565b602081525f82518060208401528060208501604085015e5f604082850101526040601f19601f83011684010191505092915050565b6001600160a01b03811681146108f9575f5ffd5b5f5f604083850312156111ef575f5ffd5b82356111fa816111ca565b946020939093013593505050565b6001600160a01b0391909116815260200190565b5f5f5f6060848603121561122e575f5ffd5b8335611239816111ca565b92506020840135611249816111ca565b929592945050506040919091013590565b5f6020828403121561126a575f5ffd5b81356109e3816111ca565b8035611280816111ca565b919050565b5f5f60408385031215611296575f5ffd5b82356112a1816111ca565b915060208301356112b1816111ca565b809150509250929050565b634e487b7160e01b5f52604160045260245ffd5b60405161010081016001600160401b03811182821017156112f3576112f36112bc565b60405290565b604051601f8201601f191681016001600160401b0381118282101715611321576113216112bc565b604052919050565b5f6001600160401b03821115611341576113416112bc565b50601f01601f191660200190565b5f82601f83011261135e575f5ffd5b813561137161136c82611329565b6112f9565b818152846020838601011115611385575f5ffd5b816020850160208301375f918101602001919091529392505050565b5f5f604083850312156113b2575f5ffd5b82356001600160401b038111156113c7575f5ffd5b6113d38582860161134f565b92505060208301356001600160401b038111156113ee575f5ffd5b6113fa8582860161134f565b9150509250929050565b5f5f83601f840112611414575f5ffd5b5081356001600160401b0381111561142a575f5ffd5b602083019150836020828501011115611441575f5ffd5b9250929050565b5f5f5f5f6040858703121561145b575f5ffd5b84356001600160401b03811115611470575f5ffd5b61147c87828801611404565b90955093505060208501356001600160401b0381111561149a575f5ffd5b6114a687828801611404565b95989497509550505050565b6001600160401b03811681146108f9575f5ffd5b8035611280816114b2565b5f61010082840312156114e2575f5ffd5b6114ea6112d0565b905081356114f7816111ca565b815261150560208301611275565b6020820152611516604083016114c6565b6040820152611527606083016114c6565b606082015261153860808301611275565b608082015261154960a083016114c6565b60a082015261155a60c083016114c6565b60c082015261156b60e083016114c6565b60e082015292915050565b5f5f6101208385031215611588575f5ffd5b61159284846114d1565b91506101008301356112b1816114b2565b81516001600160a01b039081168252602080840151909116908201526040808301516001600160401b0316908201526060808301516101008301916115f2908401826001600160401b03169052565b50608083015161160d60808401826001600160a01b03169052565b5060a083015161162860a08401826001600160401b03169052565b5060c083015161164360c08401826001600160401b03169052565b5060e083015161165e60e08401826001600160401b03169052565b5092915050565b5f6101008284031215611676575f5ffd5b6109e383836114d1565b600181811c9082168061169457607f821691505b6020821081036116b257634e487b7160e01b5f52602260045260245ffd5b50919050565b634e487b7160e01b5f52601160045260245ffd5b6001815b6001841115611707578085048111156116eb576116eb6116b8565b60018416156116f957908102905b60019390931c9280026116d0565b935093915050565b5f8261171d57506001610509565b8161172957505f610509565b816001811461173f576002811461174957611765565b6001915050610509565b60ff84111561175a5761175a6116b8565b50506001821b610509565b5060208310610133831016604e8410600b8410161715611788575081810a610509565b6117945f1984846116cc565b805f19048211156117a7576117a76116b8565b029392505050565b5f6109e360ff84168361170f565b8082028115828204841417610509576105096116b8565b5f826117ee57634e487b7160e01b5f52601260045260245ffd5b500490565b6001600160a01b039384168152919092166020820152604081019190915260600190565b5f60208284031215611827575f5ffd5b815180151581146109e3575f5ffd5b5f60208284031215611846575f5ffd5b81516001600160401b0381111561185b575f5ffd5b8201601f8101841361186b575f5ffd5b805161187961136c82611329565b81815285602083850101111561188d575f5ffd5b8160208401602083015e5f91810160200191909152949350505050565b6d02732b2b21020b8383937bb32b2160951b81525f82518060208501600e85015e5f9201600e0191825250919050565b6001600160a01b0393841681529183166020830152909116604082015260600190565b5f6020828403121561190d575f5ffd5b81516109e3816111ca565b601f821115610a7757805f5260205f20601f840160051c8101602085101561193d5750805b601f840160051c820191505b8181101561195c575f8155600101611949565b5050505050565b81516001600160401b0381111561197c5761197c6112bc565b6119908161198a8454611680565b84611918565b6020601f8211600181146119c2575f83156119ab5750848201515b5f19600385901b1c1916600184901b17845561195c565b5f84815260208120601f198516915b828110156119f157878501518255602094850194600190920191016119d1565b5084821015611a0e57868401515f19600387901b60f8161c191681555b50505050600190811b01905550565b81835281816020850137505f828201602090810191909152601f909101601f19169091010190565b606081525f611a58606083018789611a1d565b8281036020840152611a6b818688611a1d565b91505060018060a01b03831660408301529695505050505050565b5f5f60408385031215611a97575f5ffd5b8251611aa2816114b2565b60208401519092506112b1816114b2565b6001600160a01b039788168152958716602087015293861660408601529185166060850152909316608083015260a082019290925260c081019190915260e00190565b80820180821115610509576105096116b856fea2646970667358221220bde617b021c334454188a9c6583acd2d0e34b08d4d136b668b26c49dd6b45b1264736f6c634300081b0033",
			"opcodes": "PUSH1 0x80 PUSH1 0x40 MSTORE CALLVALUE DUP1 ISZERO PUSH2 0xF JUMPI PUSH0 PUSH0 REVERT JUMPDEST POP PUSH1 0x40 MLOAD PUSH2 0x2984 CODESIZE SUB DUP1 PUSH2 0x2984 DUP4 CODECOPY DUP2 ADD PUSH1 0x40 DUP2 SWAP1 MSTORE PUSH2 0x2E SWAP2 PUSH2 0xABB JUMP JUMPDEST PUSH1 0x40 DUP1 MLOAD DUP1 DUP3 ADD DUP3 MSTORE PUSH1 0xA DUP2 MSTORE PUSH10 0x434841544C4F47205969 PUSH1 0xB0 SHL PUSH1 0x20 DUP1 DUP4 ADD SWAP2 SWAP1 SWAP2 MSTORE DUP3 MLOAD DUP1 DUP5 ADD SWAP1 SWAP4 MSTORE PUSH1 0x2 DUP4 MSTORE PUSH2 0x5949 PUSH1 0xF0 SHL SWAP1 DUP4 ADD MSTORE SWAP1 DUP3 CALLER DUP1 PUSH2 0x9C JUMPI PUSH1 0x40 MLOAD PUSH4 0x36030219 PUSH1 0xE2 SHL DUP2 MSTORE ORIGIN PUSH1 0x4 DUP3 ADD MSTORE PUSH0 PUSH1 0x24 DUP3 ADD MSTORE ADDRESS PUSH1 0x44 DUP3 ADD MSTORE PUSH1 0x64 ADD JUMPDEST PUSH1 0x40 MLOAD DUP1 SWAP2 SUB SWAP1 REVERT JUMPDEST PUSH2 0xA7 DUP2 PUSH1 0x1 PUSH2 0x715 JUMP JUMPDEST POP PUSH1 0x4 PUSH2 0xB4 DUP5 DUP3 PUSH2 0xB9D JUMP JUMPDEST POP PUSH1 0x5 PUSH2 0xC1 DUP4 DUP3 PUSH2 0xB9D JUMP JUMPDEST POP PUSH1 0x6 DUP1 SLOAD PUSH1 0x1 PUSH1 0x1 PUSH1 0xA0 SHL SUB NOT AND PUSH1 0x1 PUSH1 0x1 PUSH1 0xA0 SHL SUB DUP4 AND SWAP1 DUP2 OR SWAP1 SWAP2 SSTORE PUSH1 0x40 DUP1 MLOAD PUSH4 0x604A6FA9 PUSH1 0xE0 SHL DUP2 MSTORE SWAP1 MLOAD PUSH3 0x1B207 SWAP3 SWAP2 PUSH4 0x604A6FA9 SWAP2 PUSH1 0x4 DUP1 DUP4 ADD SWAP3 PUSH1 0x20 SWAP3 SWAP2 SWAP1 DUP3 SWAP1 SUB ADD DUP2 PUSH0 DUP8 GAS CALL ISZERO DUP1 ISZERO PUSH2 0x11F JUMPI RETURNDATASIZE PUSH0 PUSH0 RETURNDATACOPY RETURNDATASIZE PUSH0 REVERT JUMPDEST POP POP POP POP PUSH1 0x40 MLOAD RETURNDATASIZE PUSH1 0x1F NOT PUSH1 0x1F DUP3 ADD AND DUP3 ADD DUP1 PUSH1 0x40 MSTORE POP DUP2 ADD SWAP1 PUSH2 0x143 SWAP2 SWAP1 PUSH2 0xC57 JUMP JUMPDEST PUSH2 0x14D SWAP2 SWAP1 PUSH2 0xC98 JUMP JUMPDEST PUSH1 0x1 PUSH1 0x1 PUSH1 0x40 SHL SUB AND PUSH1 0x7 DUP2 SWAP1 SSTORE POP PUSH0 PUSH1 0xA PUSH1 0x7 SLOAD PUSH1 0x6 PUSH0 SWAP1 SLOAD SWAP1 PUSH2 0x100 EXP SWAP1 DIV PUSH1 0x1 PUSH1 0x1 PUSH1 0xA0 SHL SUB AND PUSH1 0x1 PUSH1 0x1 PUSH1 0xA0 SHL SUB AND PUSH4 0x604A6FA9 PUSH1 0x40 MLOAD DUP2 PUSH4 0xFFFFFFFF AND PUSH1 0xE0 SHL DUP2 MSTORE PUSH1 0x4 ADD PUSH1 0x20 PUSH1 0x40 MLOAD DUP1 DUP4 SUB DUP2 PUSH0 DUP8 GAS CALL ISZERO DUP1 ISZERO PUSH2 0x1B3 JUMPI RETURNDATASIZE PUSH0 PUSH0 RETURNDATACOPY RETURNDATASIZE PUSH0 REVERT JUMPDEST POP POP POP POP PUSH1 0x40 MLOAD RETURNDATASIZE PUSH1 0x1F NOT PUSH1 0x1F DUP3 ADD AND DUP3 ADD DUP1 PUSH1 0x40 MSTORE POP DUP2 ADD SWAP1 PUSH2 0x1D7 SWAP2 SWAP1 PUSH2 0xC57 JUMP JUMPDEST PUSH1 0x1 PUSH1 0x1 PUSH1 0x40 SHL SUB AND PUSH2 0x1EA SWAP2 SWAP1 PUSH2 0xCC6 JUMP JUMPDEST PUSH2 0x1F4 SWAP2 SWAP1 PUSH2 0xCED JUMP JUMPDEST SWAP1 POP PUSH2 0x215 ORIGIN PUSH2 0x206 PUSH1 0x12 PUSH1 0xA PUSH2 0xDE5 JUMP JUMPDEST PUSH2 0x210 SWAP1 DUP5 PUSH2 0xDF3 JUMP JUMPDEST PUSH2 0x768 JUMP JUMPDEST PUSH2 0x261 PUSH20 0x24F0154C1DCE548ADF15DA2098FDD8B8A3B8151D PUSH1 0x12 JUMPDEST PUSH2 0x23B SWAP1 PUSH1 0xA PUSH2 0xDE5 JUMP JUMPDEST PUSH2 0x246 SWAP1 PUSH1 0x1 PUSH2 0xDF3 JUMP JUMPDEST PUSH1 0x1 PUSH1 0x1 PUSH1 0xA0 SHL SUB SWAP1 SWAP2 AND PUSH0 SWAP1 DUP2 MSTORE PUSH1 0x8 PUSH1 0x20 MSTORE PUSH1 0x40 SWAP1 KECCAK256 SSTORE JUMP JUMPDEST POP POP PUSH1 0xC DUP1 SLOAD PUSH1 0x1 PUSH1 0x1 PUSH1 0xA0 SHL SUB NOT SWAP1 DUP2 AND PUSH1 0x1 PUSH1 0x1 PUSH1 0xA0 SHL SUB DUP9 DUP2 AND SWAP2 DUP3 OR SWAP1 SWAP4 SSTORE PUSH1 0xD DUP1 SLOAD SWAP1 SWAP3 AND DUP8 DUP5 AND OR SWAP1 SWAP2 SSTORE PUSH1 0x40 MLOAD PUSH4 0x1085350F PUSH1 0xE1 SHL DUP2 MSTORE PUSH1 0x60 PUSH1 0x4 DUP1 DUP4 ADD SWAP2 SWAP1 SWAP2 MSTORE PUSH1 0x8 PUSH1 0x64 DUP4 ADD MSTORE PUSH8 0x14DA1A5BC8149BD9 PUSH1 0xC2 SHL PUSH1 0x84 DUP4 ADD MSTORE PUSH1 0xA0 PUSH1 0x24 DUP4 ADD MSTORE PUSH1 0xA4 DUP3 ADD MSTORE PUSH4 0x14D493D1 PUSH1 0xE2 SHL PUSH1 0xC4 DUP3 ADD MSTORE SWAP2 DUP6 AND PUSH1 0x44 DUP4 ADD MSTORE PUSH0 SWAP4 POP SWAP2 POP PUSH4 0x210A6A1E SWAP1 PUSH1 0xE4 ADD PUSH1 0x20 PUSH1 0x40 MLOAD DUP1 DUP4 SUB DUP2 PUSH0 DUP8 GAS CALL ISZERO DUP1 ISZERO PUSH2 0x30D JUMPI RETURNDATASIZE PUSH0 PUSH0 RETURNDATACOPY RETURNDATASIZE PUSH0 REVERT JUMPDEST POP POP POP POP PUSH1 0x40 MLOAD RETURNDATASIZE PUSH1 0x1F NOT PUSH1 0x1F DUP3 ADD AND DUP3 ADD DUP1 PUSH1 0x40 MSTORE POP DUP2 ADD SWAP1 PUSH2 0x331 SWAP2 SWAP1 PUSH2 0xE0A JUMP JUMPDEST PUSH1 0xC SLOAD PUSH1 0x40 MLOAD PUSH4 0x1085350F PUSH1 0xE1 SHL DUP2 MSTORE PUSH1 0x60 PUSH1 0x4 DUP3 ADD MSTORE PUSH1 0x9 PUSH1 0x64 DUP3 ADD MSTORE PUSH9 0x5368696F20436F6E65 PUSH1 0xB8 SHL PUSH1 0x84 DUP3 ADD MSTORE PUSH1 0xA0 PUSH1 0x24 DUP3 ADD MSTORE PUSH1 0x5 PUSH1 0xA4 DUP3 ADD MSTORE PUSH5 0x53434F4E45 PUSH1 0xD8 SHL PUSH1 0xC4 DUP3 ADD MSTORE PUSH1 0x1 PUSH1 0x1 PUSH1 0xA0 SHL SUB DUP6 DUP2 AND PUSH1 0x44 DUP4 ADD MSTORE SWAP3 SWAP4 POP PUSH0 SWAP3 SWAP1 SWAP2 AND SWAP1 PUSH4 0x210A6A1E SWAP1 PUSH1 0xE4 ADD PUSH1 0x20 PUSH1 0x40 MLOAD DUP1 DUP4 SUB DUP2 PUSH0 DUP8 GAS CALL ISZERO DUP1 ISZERO PUSH2 0x3BB JUMPI RETURNDATASIZE PUSH0 PUSH0 RETURNDATACOPY RETURNDATASIZE PUSH0 REVERT JUMPDEST POP POP POP POP PUSH1 0x40 MLOAD RETURNDATASIZE PUSH1 0x1F NOT PUSH1 0x1F DUP3 ADD AND DUP3 ADD DUP1 PUSH1 0x40 MSTORE POP DUP2 ADD SWAP1 PUSH2 0x3DF SWAP2 SWAP1 PUSH2 0xE0A JUMP JUMPDEST PUSH1 0xD SLOAD PUSH1 0x40 MLOAD PUSH4 0x242C1857 PUSH1 0xE1 SHL DUP2 MSTORE PUSH1 0x1 PUSH1 0x1 PUSH1 0xA0 SHL SUB DUP6 DUP2 AND PUSH1 0x4 DUP4 ADD MSTORE DUP1 DUP5 AND PUSH1 0x24 DUP4 ADD MSTORE DUP7 DUP2 AND PUSH1 0x44 DUP4 ADD MSTORE SWAP3 SWAP4 POP SWAP2 AND SWAP1 PUSH4 0x485830AE SWAP1 PUSH1 0x64 ADD PUSH1 0x20 PUSH1 0x40 MLOAD DUP1 DUP4 SUB DUP2 PUSH0 DUP8 GAS CALL ISZERO DUP1 ISZERO PUSH2 0x43A JUMPI RETURNDATASIZE PUSH0 PUSH0 RETURNDATACOPY RETURNDATASIZE PUSH0 REVERT JUMPDEST POP POP POP POP PUSH1 0x40 MLOAD RETURNDATASIZE PUSH1 0x1F NOT PUSH1 0x1F DUP3 ADD AND DUP3 ADD DUP1 PUSH1 0x40 MSTORE POP DUP2 ADD SWAP1 PUSH2 0x45E SWAP2 SWAP1 PUSH2 0xE0A JUMP JUMPDEST PUSH1 0x9 DUP1 SLOAD PUSH1 0x1 PUSH1 0x1 PUSH1 0xA0 SHL SUB NOT AND PUSH1 0x1 PUSH1 0x1 PUSH1 0xA0 SHL SUB SWAP3 DUP4 AND OR SWAP1 SSTORE PUSH1 0x6 SLOAD PUSH1 0x40 DUP1 MLOAD PUSH4 0x604A6FA9 PUSH1 0xE0 SHL DUP2 MSTORE SWAP1 MLOAD SWAP2 SWAP1 SWAP3 AND SWAP2 PUSH4 0x604A6FA9 SWAP2 PUSH1 0x4 DUP1 DUP4 ADD SWAP3 PUSH1 0x20 SWAP3 SWAP2 SWAP1 DUP3 SWAP1 SUB ADD DUP2 PUSH0 DUP8 GAS CALL ISZERO DUP1 ISZERO PUSH2 0x4BB JUMPI RETURNDATASIZE PUSH0 PUSH0 RETURNDATACOPY RETURNDATASIZE PUSH0 REVERT JUMPDEST POP POP POP POP PUSH1 0x40 MLOAD RETURNDATASIZE PUSH1 0x1F NOT PUSH1 0x1F DUP3 ADD AND DUP3 ADD DUP1 PUSH1 0x40 MSTORE POP DUP2 ADD SWAP1 PUSH2 0x4DF SWAP2 SWAP1 PUSH2 0xC57 JUMP JUMPDEST PUSH1 0xB DUP1 SLOAD PUSH1 0x1 PUSH1 0x1 PUSH1 0x40 SHL SUB NOT AND PUSH1 0x1 PUSH1 0x1 PUSH1 0x40 SHL SUB SWAP3 SWAP1 SWAP3 AND SWAP2 DUP3 OR SWAP1 SSTORE PUSH1 0x9 SLOAD PUSH1 0x6 SLOAD PUSH1 0x40 DUP1 MLOAD PUSH4 0x604A6FA9 PUSH1 0xE0 SHL DUP2 MSTORE SWAP1 MLOAD PUSH1 0x1 PUSH1 0x1 PUSH1 0xA0 SHL SUB SWAP4 DUP5 AND SWAP5 PUSH4 0x85DA8FF8 SWAP5 SWAP1 SWAP4 AND SWAP2 PUSH4 0x604A6FA9 SWAP2 PUSH1 0x4 DUP1 DUP4 ADD SWAP3 PUSH1 0x20 SWAP3 SWAP2 SWAP1 DUP3 SWAP1 SUB ADD DUP2 PUSH0 DUP8 GAS CALL ISZERO DUP1 ISZERO PUSH2 0x553 JUMPI RETURNDATASIZE PUSH0 PUSH0 RETURNDATACOPY RETURNDATASIZE PUSH0 REVERT JUMPDEST POP POP POP POP PUSH1 0x40 MLOAD RETURNDATASIZE PUSH1 0x1F NOT PUSH1 0x1F DUP3 ADD AND DUP3 ADD DUP1 PUSH1 0x40 MSTORE POP DUP2 ADD SWAP1 PUSH2 0x577 SWAP2 SWAP1 PUSH2 0xC57 JUMP JUMPDEST PUSH1 0x6 PUSH0 SWAP1 SLOAD SWAP1 PUSH2 0x100 EXP SWAP1 DIV PUSH1 0x1 PUSH1 0x1 PUSH1 0xA0 SHL SUB AND PUSH1 0x1 PUSH1 0x1 PUSH1 0xA0 SHL SUB AND PUSH4 0x604A6FA9 PUSH1 0x40 MLOAD DUP2 PUSH4 0xFFFFFFFF AND PUSH1 0xE0 SHL DUP2 MSTORE PUSH1 0x4 ADD PUSH1 0x20 PUSH1 0x40 MLOAD DUP1 DUP4 SUB DUP2 PUSH0 DUP8 GAS CALL ISZERO DUP1 ISZERO PUSH2 0x5C8 JUMPI RETURNDATASIZE PUSH0 PUSH0 RETURNDATACOPY RETURNDATASIZE PUSH0 REVERT JUMPDEST POP POP POP POP PUSH1 0x40 MLOAD RETURNDATASIZE PUSH1 0x1F NOT PUSH1 0x1F DUP3 ADD AND DUP3 ADD DUP1 PUSH1 0x40 MSTORE POP DUP2 ADD SWAP1 PUSH2 0x5EC SWAP2 SWAP1 PUSH2 0xC57 JUMP JUMPDEST PUSH1 0x40 MLOAD PUSH1 0xE0 DUP6 SWAP1 SHL PUSH1 0x1 PUSH1 0x1 PUSH1 0xE0 SHL SUB NOT AND DUP2 MSTORE PUSH1 0x1 PUSH1 0x1 PUSH1 0x40 SHL SUB SWAP4 DUP5 AND PUSH1 0x4 DUP3 ADD MSTORE SWAP2 DUP4 AND PUSH1 0x24 DUP4 ADD MSTORE SWAP1 SWAP2 AND PUSH1 0x44 DUP3 ADD MSTORE PUSH1 0x64 ADD PUSH0 PUSH1 0x40 MLOAD DUP1 DUP4 SUB DUP2 PUSH0 DUP8 DUP1 EXTCODESIZE ISZERO DUP1 ISZERO PUSH2 0x63A JUMPI PUSH0 PUSH0 REVERT JUMPDEST POP GAS CALL ISZERO DUP1 ISZERO PUSH2 0x64C JUMPI RETURNDATASIZE PUSH0 PUSH0 RETURNDATACOPY RETURNDATASIZE PUSH0 REVERT JUMPDEST POP POP POP POP PUSH2 0x65E PUSH2 0x777 PUSH1 0x20 SHL PUSH1 0x20 SHR JUMP JUMPDEST PUSH1 0x9 PUSH0 SWAP1 SLOAD SWAP1 PUSH2 0x100 EXP SWAP1 DIV PUSH1 0x1 PUSH1 0x1 PUSH1 0xA0 SHL SUB AND PUSH1 0x1 PUSH1 0x1 PUSH1 0xA0 SHL SUB AND PUSH4 0x95FB8190 PUSH1 0x40 MLOAD DUP2 PUSH4 0xFFFFFFFF AND PUSH1 0xE0 SHL DUP2 MSTORE PUSH1 0x4 ADD PUSH1 0x20 PUSH1 0x40 MLOAD DUP1 DUP4 SUB DUP2 PUSH0 DUP8 GAS CALL ISZERO DUP1 ISZERO PUSH2 0x6AF JUMPI RETURNDATASIZE PUSH0 PUSH0 RETURNDATACOPY RETURNDATASIZE PUSH0 REVERT JUMPDEST POP POP POP POP PUSH1 0x40 MLOAD RETURNDATASIZE PUSH1 0x1F NOT PUSH1 0x1F DUP3 ADD AND DUP3 ADD DUP1 PUSH1 0x40 MSTORE POP DUP2 ADD SWAP1 PUSH2 0x6D3 SWAP2 SWAP1 PUSH2 0xC57 JUMP JUMPDEST PUSH1 0xB DUP1 SLOAD PUSH1 0x1 PUSH1 0x1 PUSH1 0x40 SHL SUB SWAP3 SWAP1 SWAP3 AND PUSH9 0x10000000000000000 MUL PUSH1 0x1 PUSH1 0x40 SHL PUSH1 0x1 PUSH1 0x80 SHL SUB NOT SWAP1 SWAP3 AND SWAP2 SWAP1 SWAP2 OR SWAP1 SSTORE PUSH2 0x70B PUSH2 0x84B JUMP JUMPDEST POP POP POP POP POP PUSH2 0xE38 JUMP JUMPDEST PUSH1 0x1 PUSH1 0x1 PUSH1 0xA0 SHL SUB DUP3 AND PUSH0 DUP2 DUP2 MSTORE PUSH1 0x20 DUP2 SWAP1 MSTORE PUSH1 0x40 DUP1 DUP3 KECCAK256 DUP1 SLOAD PUSH1 0xFF NOT AND DUP6 ISZERO ISZERO SWAP1 DUP2 OR SWAP1 SWAP2 SSTORE SWAP1 MLOAD SWAP1 SWAP3 SWAP2 PUSH32 0x6BFA7E860C3E9BF67B810CB88276B19B27C972812BAC04793D369B59A1183A83 SWAP2 LOG3 POP POP JUMP JUMPDEST PUSH2 0x773 PUSH0 DUP4 DUP4 PUSH2 0x927 JUMP JUMPDEST POP POP JUMP JUMPDEST PUSH1 0x9 PUSH0 SWAP1 SLOAD SWAP1 PUSH2 0x100 EXP SWAP1 DIV PUSH1 0x1 PUSH1 0x1 PUSH1 0xA0 SHL SUB AND PUSH1 0x1 PUSH1 0x1 PUSH1 0xA0 SHL SUB AND PUSH4 0xECE1AF6B PUSH1 0x40 MLOAD DUP2 PUSH4 0xFFFFFFFF AND PUSH1 0xE0 SHL DUP2 MSTORE PUSH1 0x4 ADD PUSH0 PUSH1 0x40 MLOAD DUP1 DUP4 SUB DUP2 PUSH0 DUP8 DUP1 EXTCODESIZE ISZERO DUP1 ISZERO PUSH2 0x7C3 JUMPI PUSH0 PUSH0 REVERT JUMPDEST POP GAS CALL ISZERO DUP1 ISZERO PUSH2 0x7D5 JUMPI RETURNDATASIZE PUSH0 PUSH0 RETURNDATACOPY RETURNDATASIZE PUSH0 REVERT JUMPDEST POP POP POP POP PUSH1 0x9 PUSH0 SWAP1 SLOAD SWAP1 PUSH2 0x100 EXP SWAP1 DIV PUSH1 0x1 PUSH1 0x1 PUSH1 0xA0 SHL SUB AND PUSH1 0x1 PUSH1 0x1 PUSH1 0xA0 SHL SUB AND PUSH4 0x89C10B0 PUSH1 0x40 MLOAD DUP2 PUSH4 0xFFFFFFFF AND PUSH1 0xE0 SHL DUP2 MSTORE PUSH1 0x4 ADD PUSH0 PUSH1 0x40 MLOAD DUP1 DUP4 SUB DUP2 PUSH0 DUP8 DUP1 EXTCODESIZE ISZERO DUP1 ISZERO PUSH2 0x825 JUMPI PUSH0 PUSH0 REVERT JUMPDEST POP GAS CALL ISZERO DUP1 ISZERO PUSH2 0x837 JUMPI RETURNDATASIZE PUSH0 PUSH0 RETURNDATACOPY RETURNDATASIZE PUSH0 REVERT JUMPDEST POP POP POP POP PUSH2 0x849 PUSH2 0xA67 PUSH1 0x20 SHL PUSH1 0x20 SHR JUMP JUMPDEST JUMP JUMPDEST PUSH1 0x9 SLOAD PUSH2 0x862 SWAP1 PUSH1 0x1 PUSH1 0x1 PUSH1 0xA0 SHL SUB AND PUSH1 0x12 PUSH2 0x230 JUMP JUMPDEST PUSH1 0x9 SLOAD PUSH1 0x40 DUP1 MLOAD PUSH4 0x25A28A8F PUSH1 0xE0 SHL DUP2 MSTORE SWAP1 MLOAD PUSH2 0x8D6 SWAP3 PUSH1 0x1 PUSH1 0x1 PUSH1 0xA0 SHL SUB AND SWAP2 PUSH4 0x25A28A8F SWAP2 PUSH1 0x4 DUP1 DUP4 ADD SWAP3 PUSH1 0x20 SWAP3 SWAP2 SWAP1 DUP3 SWAP1 SUB ADD DUP2 DUP7 GAS STATICCALL ISZERO DUP1 ISZERO PUSH2 0x8AB JUMPI RETURNDATASIZE PUSH0 PUSH0 RETURNDATACOPY RETURNDATASIZE PUSH0 REVERT JUMPDEST POP POP POP POP PUSH1 0x40 MLOAD RETURNDATASIZE PUSH1 0x1F NOT PUSH1 0x1F DUP3 ADD AND DUP3 ADD DUP1 PUSH1 0x40 MSTORE POP DUP2 ADD SWAP1 PUSH2 0x8CF SWAP2 SWAP1 PUSH2 0xE0A JUMP JUMPDEST PUSH1 0x12 PUSH2 0x230 JUMP JUMPDEST PUSH1 0x9 SLOAD PUSH1 0x40 DUP1 MLOAD PUSH4 0x4970204F PUSH1 0xE0 SHL DUP2 MSTORE SWAP1 MLOAD PUSH2 0x91F SWAP3 PUSH1 0x1 PUSH1 0x1 PUSH1 0xA0 SHL SUB AND SWAP2 PUSH4 0x4970204F SWAP2 PUSH1 0x4 DUP1 DUP4 ADD SWAP3 PUSH1 0x20 SWAP3 SWAP2 SWAP1 DUP3 SWAP1 SUB ADD DUP2 DUP7 GAS STATICCALL ISZERO DUP1 ISZERO PUSH2 0x8AB JUMPI RETURNDATASIZE PUSH0 PUSH0 RETURNDATACOPY RETURNDATASIZE PUSH0 REVERT JUMPDEST PUSH2 0x849 PUSH2 0xA67 JUMP JUMPDEST PUSH1 0x1 PUSH1 0x1 PUSH1 0xA0 SHL SUB DUP4 AND PUSH2 0x951 JUMPI DUP1 PUSH1 0x3 PUSH0 DUP3 DUP3 SLOAD PUSH2 0x946 SWAP2 SWAP1 PUSH2 0xE25 JUMP JUMPDEST SWAP1 SWAP2 SSTORE POP PUSH2 0x9DB SWAP1 POP JUMP JUMPDEST PUSH1 0x1 PUSH1 0x1 PUSH1 0xA0 SHL SUB DUP4 AND PUSH0 SWAP1 DUP2 MSTORE PUSH1 0x1 PUSH1 0x20 MSTORE PUSH1 0x40 SWAP1 KECCAK256 SLOAD DUP2 DUP2 LT ISZERO PUSH2 0x9BD JUMPI PUSH1 0x40 MLOAD PUSH4 0xF7D0BBD PUSH1 0xE2 SHL DUP2 MSTORE ORIGIN PUSH1 0x4 DUP3 ADD MSTORE CALLER PUSH1 0x24 DUP3 ADD MSTORE PUSH1 0x1 PUSH1 0x1 PUSH1 0xA0 SHL SUB DUP1 DUP7 AND PUSH1 0x44 DUP4 ADD MSTORE DUP5 AND PUSH1 0x64 DUP3 ADD MSTORE ADDRESS PUSH1 0x84 DUP3 ADD MSTORE PUSH1 0xA4 DUP2 ADD DUP3 SWAP1 MSTORE PUSH1 0xC4 DUP2 ADD DUP4 SWAP1 MSTORE PUSH1 0xE4 ADD PUSH2 0x93 JUMP JUMPDEST PUSH1 0x1 PUSH1 0x1 PUSH1 0xA0 SHL SUB DUP5 AND PUSH0 SWAP1 DUP2 MSTORE PUSH1 0x1 PUSH1 0x20 MSTORE PUSH1 0x40 SWAP1 KECCAK256 SWAP1 DUP3 SWAP1 SUB SWAP1 SSTORE JUMPDEST PUSH1 0x1 PUSH1 0x1 PUSH1 0xA0 SHL SUB DUP3 AND PUSH2 0x9F7 JUMPI PUSH1 0x3 DUP1 SLOAD DUP3 SWAP1 SUB SWAP1 SSTORE PUSH2 0xA15 JUMP JUMPDEST PUSH1 0x1 PUSH1 0x1 PUSH1 0xA0 SHL SUB DUP3 AND PUSH0 SWAP1 DUP2 MSTORE PUSH1 0x1 PUSH1 0x20 MSTORE PUSH1 0x40 SWAP1 KECCAK256 DUP1 SLOAD DUP3 ADD SWAP1 SSTORE JUMPDEST DUP2 PUSH1 0x1 PUSH1 0x1 PUSH1 0xA0 SHL SUB AND DUP4 PUSH1 0x1 PUSH1 0x1 PUSH1 0xA0 SHL SUB AND PUSH32 0xDDF252AD1BE2C89B69C2B068FC378DAA952BA7F163C4A11628F55A4DF523B3EF DUP4 PUSH1 0x40 MLOAD PUSH2 0xA5A SWAP2 DUP2 MSTORE PUSH1 0x20 ADD SWAP1 JUMP JUMPDEST PUSH1 0x40 MLOAD DUP1 SWAP2 SUB SWAP1 LOG3 POP POP POP JUMP JUMPDEST PUSH2 0xA73 PUSH1 0x12 PUSH1 0xA PUSH2 0xDE5 JUMP JUMPDEST PUSH1 0x7 SLOAD PUSH2 0xA80 SWAP2 SWAP1 PUSH2 0xDF3 JUMP JUMPDEST PUSH1 0x3 SLOAD LT ISZERO PUSH2 0x849 JUMPI PUSH2 0x849 ADDRESS PUSH2 0xA99 PUSH1 0x12 PUSH1 0xA PUSH2 0xDE5 JUMP JUMPDEST PUSH2 0x210 SWAP1 PUSH1 0x1 PUSH2 0xDF3 JUMP JUMPDEST PUSH1 0x1 PUSH1 0x1 PUSH1 0xA0 SHL SUB DUP2 AND DUP2 EQ PUSH2 0xAB8 JUMPI PUSH0 PUSH0 REVERT JUMPDEST POP JUMP JUMPDEST PUSH0 PUSH0 PUSH0 PUSH1 0x60 DUP5 DUP7 SUB SLT ISZERO PUSH2 0xACD JUMPI PUSH0 PUSH0 REVERT JUMPDEST DUP4 MLOAD PUSH2 0xAD8 DUP2 PUSH2 0xAA4 JUMP JUMPDEST PUSH1 0x20 DUP6 ADD MLOAD SWAP1 SWAP4 POP PUSH2 0xAE9 DUP2 PUSH2 0xAA4 JUMP JUMPDEST PUSH1 0x40 DUP6 ADD MLOAD SWAP1 SWAP3 POP PUSH2 0xAFA DUP2 PUSH2 0xAA4 JUMP JUMPDEST DUP1 SWAP2 POP POP SWAP3 POP SWAP3 POP SWAP3 JUMP JUMPDEST PUSH4 0x4E487B71 PUSH1 0xE0 SHL PUSH0 MSTORE PUSH1 0x41 PUSH1 0x4 MSTORE PUSH1 0x24 PUSH0 REVERT JUMPDEST PUSH1 0x1 DUP2 DUP2 SHR SWAP1 DUP3 AND DUP1 PUSH2 0xB2D JUMPI PUSH1 0x7F DUP3 AND SWAP2 POP JUMPDEST PUSH1 0x20 DUP3 LT DUP2 SUB PUSH2 0xB4B JUMPI PUSH4 0x4E487B71 PUSH1 0xE0 SHL PUSH0 MSTORE PUSH1 0x22 PUSH1 0x4 MSTORE PUSH1 0x24 PUSH0 REVERT JUMPDEST POP SWAP2 SWAP1 POP JUMP JUMPDEST PUSH1 0x1F DUP3 GT ISZERO PUSH2 0xB98 JUMPI DUP1 PUSH0 MSTORE PUSH1 0x20 PUSH0 KECCAK256 PUSH1 0x1F DUP5 ADD PUSH1 0x5 SHR DUP2 ADD PUSH1 0x20 DUP6 LT ISZERO PUSH2 0xB76 JUMPI POP DUP1 JUMPDEST PUSH1 0x1F DUP5 ADD PUSH1 0x5 SHR DUP3 ADD SWAP2 POP JUMPDEST DUP2 DUP2 LT ISZERO PUSH2 0xB95 JUMPI PUSH0 DUP2 SSTORE PUSH1 0x1 ADD PUSH2 0xB82 JUMP JUMPDEST POP POP JUMPDEST POP POP POP JUMP JUMPDEST DUP2 MLOAD PUSH1 0x1 PUSH1 0x1 PUSH1 0x40 SHL SUB DUP2 GT ISZERO PUSH2 0xBB6 JUMPI PUSH2 0xBB6 PUSH2 0xB05 JUMP JUMPDEST PUSH2 0xBCA DUP2 PUSH2 0xBC4 DUP5 SLOAD PUSH2 0xB19 JUMP JUMPDEST DUP5 PUSH2 0xB51 JUMP JUMPDEST PUSH1 0x20 PUSH1 0x1F DUP3 GT PUSH1 0x1 DUP2 EQ PUSH2 0xBFC JUMPI PUSH0 DUP4 ISZERO PUSH2 0xBE5 JUMPI POP DUP5 DUP3 ADD MLOAD JUMPDEST PUSH0 NOT PUSH1 0x3 DUP6 SWAP1 SHL SHR NOT AND PUSH1 0x1 DUP5 SWAP1 SHL OR DUP5 SSTORE PUSH2 0xB95 JUMP JUMPDEST PUSH0 DUP5 DUP2 MSTORE PUSH1 0x20 DUP2 KECCAK256 PUSH1 0x1F NOT DUP6 AND SWAP2 JUMPDEST DUP3 DUP2 LT ISZERO PUSH2 0xC2B JUMPI DUP8 DUP6 ADD MLOAD DUP3 SSTORE PUSH1 0x20 SWAP5 DUP6 ADD SWAP5 PUSH1 0x1 SWAP1 SWAP3 ADD SWAP2 ADD PUSH2 0xC0B JUMP JUMPDEST POP DUP5 DUP3 LT ISZERO PUSH2 0xC48 JUMPI DUP7 DUP5 ADD MLOAD PUSH0 NOT PUSH1 0x3 DUP8 SWAP1 SHL PUSH1 0xF8 AND SHR NOT AND DUP2 SSTORE JUMPDEST POP POP POP POP PUSH1 0x1 SWAP1 DUP2 SHL ADD SWAP1 SSTORE POP JUMP JUMPDEST PUSH0 PUSH1 0x20 DUP3 DUP5 SUB SLT ISZERO PUSH2 0xC67 JUMPI PUSH0 PUSH0 REVERT JUMPDEST DUP2 MLOAD PUSH1 0x1 PUSH1 0x1 PUSH1 0x40 SHL SUB DUP2 AND DUP2 EQ PUSH2 0xC7D JUMPI PUSH0 PUSH0 REVERT JUMPDEST SWAP4 SWAP3 POP POP POP JUMP JUMPDEST PUSH4 0x4E487B71 PUSH1 0xE0 SHL PUSH0 MSTORE PUSH1 0x12 PUSH1 0x4 MSTORE PUSH1 0x24 PUSH0 REVERT JUMPDEST PUSH0 PUSH1 0x1 PUSH1 0x1 PUSH1 0x40 SHL SUB DUP4 AND DUP1 PUSH2 0xCB0 JUMPI PUSH2 0xCB0 PUSH2 0xC84 JUMP JUMPDEST PUSH1 0x1 PUSH1 0x1 PUSH1 0x40 SHL SUB SWAP3 SWAP1 SWAP3 AND SWAP2 SWAP1 SWAP2 MOD SWAP3 SWAP2 POP POP JUMP JUMPDEST PUSH0 DUP3 PUSH2 0xCD4 JUMPI PUSH2 0xCD4 PUSH2 0xC84 JUMP JUMPDEST POP MOD SWAP1 JUMP JUMPDEST PUSH4 0x4E487B71 PUSH1 0xE0 SHL PUSH0 MSTORE PUSH1 0x11 PUSH1 0x4 MSTORE PUSH1 0x24 PUSH0 REVERT JUMPDEST PUSH0 DUP3 PUSH2 0xCFB JUMPI PUSH2 0xCFB PUSH2 0xC84 JUMP JUMPDEST POP DIV SWAP1 JUMP JUMPDEST PUSH1 0x1 DUP2 JUMPDEST PUSH1 0x1 DUP5 GT ISZERO PUSH2 0xD3B JUMPI DUP1 DUP6 DIV DUP2 GT ISZERO PUSH2 0xD1F JUMPI PUSH2 0xD1F PUSH2 0xCD9 JUMP JUMPDEST PUSH1 0x1 DUP5 AND ISZERO PUSH2 0xD2D JUMPI SWAP1 DUP2 MUL SWAP1 JUMPDEST PUSH1 0x1 SWAP4 SWAP1 SWAP4 SHR SWAP3 DUP1 MUL PUSH2 0xD04 JUMP JUMPDEST SWAP4 POP SWAP4 SWAP2 POP POP JUMP JUMPDEST PUSH0 DUP3 PUSH2 0xD51 JUMPI POP PUSH1 0x1 PUSH2 0xDDF JUMP JUMPDEST DUP2 PUSH2 0xD5D JUMPI POP PUSH0 PUSH2 0xDDF JUMP JUMPDEST DUP2 PUSH1 0x1 DUP2 EQ PUSH2 0xD73 JUMPI PUSH1 0x2 DUP2 EQ PUSH2 0xD7D JUMPI PUSH2 0xD99 JUMP JUMPDEST PUSH1 0x1 SWAP2 POP POP PUSH2 0xDDF JUMP JUMPDEST PUSH1 0xFF DUP5 GT ISZERO PUSH2 0xD8E JUMPI PUSH2 0xD8E PUSH2 0xCD9 JUMP JUMPDEST POP POP PUSH1 0x1 DUP3 SHL PUSH2 0xDDF JUMP JUMPDEST POP PUSH1 0x20 DUP4 LT PUSH2 0x133 DUP4 LT AND PUSH1 0x4E DUP5 LT PUSH1 0xB DUP5 LT AND OR ISZERO PUSH2 0xDBC JUMPI POP DUP2 DUP2 EXP PUSH2 0xDDF JUMP JUMPDEST PUSH2 0xDC8 PUSH0 NOT DUP5 DUP5 PUSH2 0xD00 JUMP JUMPDEST DUP1 PUSH0 NOT DIV DUP3 GT ISZERO PUSH2 0xDDB JUMPI PUSH2 0xDDB PUSH2 0xCD9 JUMP JUMPDEST MUL SWAP1 POP JUMPDEST SWAP3 SWAP2 POP POP JUMP JUMPDEST PUSH0 PUSH2 0xC7D PUSH1 0xFF DUP5 AND DUP4 PUSH2 0xD43 JUMP JUMPDEST DUP1 DUP3 MUL DUP2 ISZERO DUP3 DUP3 DIV DUP5 EQ OR PUSH2 0xDDF JUMPI PUSH2 0xDDF PUSH2 0xCD9 JUMP JUMPDEST PUSH0 PUSH1 0x20 DUP3 DUP5 SUB SLT ISZERO PUSH2 0xE1A JUMPI PUSH0 PUSH0 REVERT JUMPDEST DUP2 MLOAD PUSH2 0xC7D DUP2 PUSH2 0xAA4 JUMP JUMPDEST DUP1 DUP3 ADD DUP1 DUP3 GT ISZERO PUSH2 0xDDF JUMPI PUSH2 0xDDF PUSH2 0xCD9 JUMP JUMPDEST PUSH2 0x1B3F DUP1 PUSH2 0xE45 PUSH0 CODECOPY PUSH0 RETURN INVALID PUSH1 0x80 PUSH1 0x40 MSTORE CALLVALUE DUP1 ISZERO PUSH2 0xF JUMPI PUSH0 PUSH0 REVERT JUMPDEST POP PUSH1 0x4 CALLDATASIZE LT PUSH2 0x1AB JUMPI PUSH0 CALLDATALOAD PUSH1 0xE0 SHR DUP1 PUSH4 0x76FADE90 GT PUSH2 0xEB JUMPI DUP1 PUSH4 0xCB4157BD GT PUSH2 0x8F JUMPI DUP1 PUSH4 0xCB4157BD EQ PUSH2 0x3CD JUMPI DUP1 PUSH4 0xCE42EE48 EQ PUSH2 0x3ED JUMPI DUP1 PUSH4 0xD3DC2A0F EQ PUSH2 0x400 JUMPI DUP1 PUSH4 0xD5ABEB01 EQ PUSH2 0x40E JUMPI DUP1 PUSH4 0xDD62ED3E EQ PUSH2 0x417 JUMPI DUP1 PUSH4 0xEA673DD2 EQ PUSH2 0x42A JUMPI DUP1 PUSH4 0xF4E6C93F EQ PUSH2 0x43D JUMPI DUP1 PUSH4 0xFF762044 EQ PUSH2 0x445 JUMPI PUSH0 PUSH0 REVERT JUMPDEST DUP1 PUSH4 0x76FADE90 EQ PUSH2 0x32E JUMPI DUP1 PUSH4 0x87B3BE7D EQ PUSH2 0x341 JUMPI DUP1 PUSH4 0x8DA5CB5B EQ PUSH2 0x373 JUMPI DUP1 PUSH4 0x95D89B41 EQ PUSH2 0x379 JUMPI DUP1 PUSH4 0x9DCBF7EA EQ PUSH2 0x381 JUMPI DUP1 PUSH4 0xA12204B0 EQ PUSH2 0x394 JUMPI DUP1 PUSH4 0xA5C2EC1C EQ PUSH2 0x3A7 JUMPI DUP1 PUSH4 0xA9059CBB EQ PUSH2 0x3BA JUMPI PUSH0 PUSH0 REVERT JUMPDEST DUP1 PUSH4 0x2E426D34 GT PUSH2 0x152 JUMPI DUP1 PUSH4 0x2E426D34 EQ PUSH2 0x285 JUMPI DUP1 PUSH4 0x313CE567 EQ PUSH2 0x298 JUMPI DUP1 PUSH4 0x38BF3CFA EQ PUSH2 0x2A7 JUMPI DUP1 PUSH4 0x4D3A5B71 EQ PUSH2 0x2BA JUMPI DUP1 PUSH4 0x666E1B39 EQ PUSH2 0x2CD JUMPI DUP1 PUSH4 0x6FB7329C EQ PUSH2 0x2E0 JUMPI DUP1 PUSH4 0x7065CB48 EQ PUSH2 0x2F3 JUMPI DUP1 PUSH4 0x70A08231 EQ PUSH2 0x306 JUMPI PUSH0 PUSH0 REVERT JUMPDEST DUP1 PUSH4 0x6FDDE03 EQ PUSH2 0x1AF JUMPI DUP1 PUSH4 0x95EA7B3 EQ PUSH2 0x1CD JUMPI DUP1 PUSH4 0xDD13230 EQ PUSH2 0x1F0 JUMPI DUP1 PUSH4 0x18160DDD EQ PUSH2 0x210 JUMPI DUP1 PUSH4 0x222838DB EQ PUSH2 0x222 JUMPI DUP1 PUSH4 0x23B872DD EQ PUSH2 0x237 JUMPI DUP1 PUSH4 0x2499A533 EQ PUSH2 0x24A JUMPI DUP1 PUSH4 0x2B83B1FC EQ PUSH2 0x25D JUMPI JUMPDEST PUSH0 PUSH0 REVERT JUMPDEST PUSH2 0x1B7 PUSH2 0x466 JUMP JUMPDEST PUSH1 0x40 MLOAD PUSH2 0x1C4 SWAP2 SWAP1 PUSH2 0x1195 JUMP JUMPDEST PUSH1 0x40 MLOAD DUP1 SWAP2 SUB SWAP1 RETURN JUMPDEST PUSH2 0x1E0 PUSH2 0x1DB CALLDATASIZE PUSH1 0x4 PUSH2 0x11DE JUMP JUMPDEST PUSH2 0x4F6 JUMP JUMPDEST PUSH1 0x40 MLOAD SWAP1 ISZERO ISZERO DUP2 MSTORE PUSH1 0x20 ADD PUSH2 0x1C4 JUMP JUMPDEST PUSH1 0xD SLOAD PUSH2 0x203 SWAP1 PUSH1 0x1 PUSH1 0x1 PUSH1 0xA0 SHL SUB AND DUP2 JUMP JUMPDEST PUSH1 0x40 MLOAD PUSH2 0x1C4 SWAP2 SWAP1 PUSH2 0x1208 JUMP JUMPDEST PUSH1 0x3 SLOAD JUMPDEST PUSH1 0x40 MLOAD SWAP1 DUP2 MSTORE PUSH1 0x20 ADD PUSH2 0x1C4 JUMP JUMPDEST PUSH2 0x235 PUSH2 0x230 CALLDATASIZE PUSH1 0x4 PUSH2 0x11DE JUMP JUMPDEST PUSH2 0x50F JUMP JUMPDEST STOP JUMPDEST PUSH2 0x1E0 PUSH2 0x245 CALLDATASIZE PUSH1 0x4 PUSH2 0x121C JUMP JUMPDEST PUSH2 0x711 JUMP JUMPDEST PUSH2 0x235 PUSH2 0x258 CALLDATASIZE PUSH1 0x4 PUSH2 0x11DE JUMP JUMPDEST PUSH2 0x734 JUMP JUMPDEST PUSH2 0x214 PUSH2 0x26B CALLDATASIZE PUSH1 0x4 PUSH2 0x125A JUMP JUMPDEST PUSH1 0x1 PUSH1 0x1 PUSH1 0xA0 SHL SUB AND PUSH0 SWAP1 DUP2 MSTORE PUSH1 0x8 PUSH1 0x20 MSTORE PUSH1 0x40 SWAP1 KECCAK256 SLOAD SWAP1 JUMP JUMPDEST PUSH1 0xC SLOAD PUSH2 0x203 SWAP1 PUSH1 0x1 PUSH1 0x1 PUSH1 0xA0 SHL SUB AND DUP2 JUMP JUMPDEST PUSH1 0x40 MLOAD PUSH1 0x12 DUP2 MSTORE PUSH1 0x20 ADD PUSH2 0x1C4 JUMP JUMPDEST PUSH2 0x235 PUSH2 0x2B5 CALLDATASIZE PUSH1 0x4 PUSH2 0x125A JUMP JUMPDEST PUSH2 0x8E7 JUMP JUMPDEST PUSH2 0x203 PUSH2 0x2C8 CALLDATASIZE PUSH1 0x4 PUSH2 0x1285 JUMP JUMPDEST PUSH2 0x8FC JUMP JUMPDEST PUSH2 0x1E0 PUSH2 0x2DB CALLDATASIZE PUSH1 0x4 PUSH2 0x125A JUMP JUMPDEST PUSH2 0x9EA JUMP JUMPDEST PUSH1 0x6 SLOAD PUSH2 0x203 SWAP1 PUSH1 0x1 PUSH1 0x1 PUSH1 0xA0 SHL SUB AND DUP2 JUMP JUMPDEST PUSH2 0x235 PUSH2 0x301 CALLDATASIZE PUSH1 0x4 PUSH2 0x125A JUMP JUMPDEST PUSH2 0xA07 JUMP JUMPDEST PUSH2 0x214 PUSH2 0x314 CALLDATASIZE PUSH1 0x4 PUSH2 0x125A JUMP JUMPDEST PUSH1 0x1 PUSH1 0x1 PUSH1 0xA0 SHL SUB AND PUSH0 SWAP1 DUP2 MSTORE PUSH1 0x1 PUSH1 0x20 MSTORE PUSH1 0x40 SWAP1 KECCAK256 SLOAD SWAP1 JUMP JUMPDEST PUSH1 0x9 SLOAD PUSH2 0x203 SWAP1 PUSH1 0x1 PUSH1 0x1 PUSH1 0xA0 SHL SUB AND DUP2 JUMP JUMPDEST PUSH1 0xB SLOAD PUSH2 0x35B SWAP1 PUSH1 0x1 PUSH1 0x40 SHL SWAP1 DIV PUSH1 0x1 PUSH1 0x1 PUSH1 0x40 SHL SUB AND DUP2 JUMP JUMPDEST PUSH1 0x40 MLOAD PUSH1 0x1 PUSH1 0x1 PUSH1 0x40 SHL SUB SWAP1 SWAP2 AND DUP2 MSTORE PUSH1 0x20 ADD PUSH2 0x1C4 JUMP JUMPDEST ADDRESS PUSH2 0x203 JUMP JUMPDEST PUSH2 0x1B7 PUSH2 0xA47 JUMP JUMPDEST PUSH2 0x235 PUSH2 0x38F CALLDATASIZE PUSH1 0x4 PUSH2 0x13A1 JUMP JUMPDEST PUSH2 0xA56 JUMP JUMPDEST PUSH1 0xB SLOAD PUSH2 0x35B SWAP1 PUSH1 0x1 PUSH1 0x1 PUSH1 0x40 SHL SUB AND DUP2 JUMP JUMPDEST PUSH2 0x203 PUSH2 0x3B5 CALLDATASIZE PUSH1 0x4 PUSH2 0x1448 JUMP JUMPDEST PUSH2 0xA7C JUMP JUMPDEST PUSH2 0x1E0 PUSH2 0x3C8 CALLDATASIZE PUSH1 0x4 PUSH2 0x11DE JUMP JUMPDEST PUSH2 0xB6F JUMP JUMPDEST PUSH2 0x3E0 PUSH2 0x3DB CALLDATASIZE PUSH1 0x4 PUSH2 0x1576 JUMP JUMPDEST PUSH2 0xB7C JUMP JUMPDEST PUSH1 0x40 MLOAD PUSH2 0x1C4 SWAP2 SWAP1 PUSH2 0x15A3 JUMP JUMPDEST PUSH2 0x235 PUSH2 0x3FB CALLDATASIZE PUSH1 0x4 PUSH2 0x1665 JUMP JUMPDEST PUSH2 0xC1E JUMP JUMPDEST PUSH2 0x35B PUSH7 0x3632C8EB5AF3B DUP2 JUMP JUMPDEST PUSH2 0x214 PUSH1 0x7 SLOAD DUP2 JUMP JUMPDEST PUSH2 0x214 PUSH2 0x425 CALLDATASIZE PUSH1 0x4 PUSH2 0x1285 JUMP JUMPDEST PUSH2 0xD86 JUMP JUMPDEST PUSH2 0x3E0 PUSH2 0x438 CALLDATASIZE PUSH1 0x4 PUSH2 0x125A JUMP JUMPDEST PUSH2 0xDB0 JUMP JUMPDEST PUSH2 0x235 PUSH2 0xE52 JUMP JUMPDEST PUSH2 0x1B7 PUSH1 0x40 MLOAD DUP1 PUSH1 0x40 ADD PUSH1 0x40 MSTORE DUP1 PUSH1 0x2 DUP2 MSTORE PUSH1 0x20 ADD PUSH2 0x5949 PUSH1 0xF0 SHL DUP2 MSTORE POP DUP2 JUMP JUMPDEST PUSH1 0x60 PUSH1 0x4 DUP1 SLOAD PUSH2 0x475 SWAP1 PUSH2 0x1680 JUMP JUMPDEST DUP1 PUSH1 0x1F ADD PUSH1 0x20 DUP1 SWAP2 DIV MUL PUSH1 0x20 ADD PUSH1 0x40 MLOAD SWAP1 DUP2 ADD PUSH1 0x40 MSTORE DUP1 SWAP3 SWAP2 SWAP1 DUP2 DUP2 MSTORE PUSH1 0x20 ADD DUP3 DUP1 SLOAD PUSH2 0x4A1 SWAP1 PUSH2 0x1680 JUMP JUMPDEST DUP1 ISZERO PUSH2 0x4EC JUMPI DUP1 PUSH1 0x1F LT PUSH2 0x4C3 JUMPI PUSH2 0x100 DUP1 DUP4 SLOAD DIV MUL DUP4 MSTORE SWAP2 PUSH1 0x20 ADD SWAP2 PUSH2 0x4EC JUMP JUMPDEST DUP3 ADD SWAP2 SWAP1 PUSH0 MSTORE PUSH1 0x20 PUSH0 KECCAK256 SWAP1 JUMPDEST DUP2 SLOAD DUP2 MSTORE SWAP1 PUSH1 0x1 ADD SWAP1 PUSH1 0x20 ADD DUP1 DUP4 GT PUSH2 0x4CF JUMPI DUP3 SWAP1 SUB PUSH1 0x1F AND DUP3 ADD SWAP2 JUMPDEST POP POP POP POP POP SWAP1 POP SWAP1 JUMP JUMPDEST PUSH0 CALLER PUSH2 0x503 DUP2 DUP6 DUP6 PUSH2 0xE64 JUMP JUMPDEST PUSH1 0x1 SWAP2 POP POP JUMPDEST SWAP3 SWAP2 POP POP JUMP JUMPDEST PUSH1 0x1 PUSH1 0x1 PUSH1 0xA0 SHL SUB DUP3 AND PUSH0 SWAP1 DUP2 MSTORE PUSH1 0x8 PUSH1 0x20 MSTORE PUSH1 0x40 DUP2 KECCAK256 SLOAD SWAP1 SUB PUSH2 0x551 JUMPI DUP2 PUSH1 0x40 MLOAD PUSH4 0x90B23441 PUSH1 0xE0 SHL DUP2 MSTORE PUSH1 0x4 ADD PUSH2 0x548 SWAP2 SWAP1 PUSH2 0x1208 JUMP JUMPDEST PUSH1 0x40 MLOAD DUP1 SWAP2 SUB SWAP1 REVERT JUMPDEST DUP2 PUSH0 PUSH2 0x55F PUSH1 0x12 PUSH1 0xA PUSH2 0x17AF JUMP JUMPDEST PUSH1 0x1 PUSH1 0x1 PUSH1 0xA0 SHL SUB DUP6 AND PUSH0 SWAP1 DUP2 MSTORE PUSH1 0x8 PUSH1 0x20 MSTORE PUSH1 0x40 SWAP1 KECCAK256 SLOAD PUSH2 0x581 SWAP1 DUP6 PUSH2 0x17BD JUMP JUMPDEST PUSH2 0x58B SWAP2 SWAP1 PUSH2 0x17D4 JUMP JUMPDEST PUSH1 0x40 MLOAD PUSH4 0x23B872DD PUSH1 0xE0 SHL DUP2 MSTORE SWAP1 SWAP2 POP PUSH0 SWAP1 ADDRESS SWAP1 PUSH4 0x23B872DD SWAP1 PUSH2 0x5B7 SWAP1 CALLER SWAP1 DUP5 SWAP1 DUP10 SWAP1 PUSH1 0x4 ADD PUSH2 0x17F3 JUMP JUMPDEST PUSH1 0x20 PUSH1 0x40 MLOAD DUP1 DUP4 SUB DUP2 PUSH0 DUP8 GAS CALL ISZERO DUP1 ISZERO PUSH2 0x5D3 JUMPI RETURNDATASIZE PUSH0 PUSH0 RETURNDATACOPY RETURNDATASIZE PUSH0 REVERT JUMPDEST POP POP POP POP PUSH1 0x40 MLOAD RETURNDATASIZE PUSH1 0x1F NOT PUSH1 0x1F DUP3 ADD AND DUP3 ADD DUP1 PUSH1 0x40 MSTORE POP DUP2 ADD SWAP1 PUSH2 0x5F7 SWAP2 SWAP1 PUSH2 0x1817 JUMP JUMPDEST SWAP1 POP DUP1 ADDRESS PUSH1 0x1 PUSH1 0x1 PUSH1 0xA0 SHL SUB AND PUSH4 0x6FDDE03 PUSH1 0x40 MLOAD DUP2 PUSH4 0xFFFFFFFF AND PUSH1 0xE0 SHL DUP2 MSTORE PUSH1 0x4 ADD PUSH0 PUSH1 0x40 MLOAD DUP1 DUP4 SUB DUP2 DUP7 GAS STATICCALL ISZERO DUP1 ISZERO PUSH2 0x635 JUMPI RETURNDATASIZE PUSH0 PUSH0 RETURNDATACOPY RETURNDATASIZE PUSH0 REVERT JUMPDEST POP POP POP POP PUSH1 0x40 MLOAD RETURNDATASIZE PUSH0 DUP3 RETURNDATACOPY PUSH1 0x1F RETURNDATASIZE SWAP1 DUP2 ADD PUSH1 0x1F NOT AND DUP3 ADD PUSH1 0x40 MSTORE PUSH2 0x65C SWAP2 SWAP1 DUP2 ADD SWAP1 PUSH2 0x1836 JUMP JUMPDEST PUSH1 0x40 MLOAD PUSH1 0x20 ADD PUSH2 0x66C SWAP2 SWAP1 PUSH2 0x18AA JUMP JUMPDEST PUSH1 0x40 MLOAD PUSH1 0x20 DUP2 DUP4 SUB SUB DUP2 MSTORE SWAP1 PUSH1 0x40 MSTORE SWAP1 PUSH2 0x699 JUMPI PUSH1 0x40 MLOAD PUSH3 0x461BCD PUSH1 0xE5 SHL DUP2 MSTORE PUSH1 0x4 ADD PUSH2 0x548 SWAP2 SWAP1 PUSH2 0x1195 JUMP JUMPDEST POP PUSH1 0x40 MLOAD PUSH4 0xA9059CBB PUSH1 0xE0 SHL DUP2 MSTORE CALLER PUSH1 0x4 DUP3 ADD MSTORE PUSH1 0x24 DUP2 ADD DUP4 SWAP1 MSTORE PUSH1 0x1 PUSH1 0x1 PUSH1 0xA0 SHL SUB DUP5 AND SWAP1 PUSH4 0xA9059CBB SWAP1 PUSH1 0x44 ADD JUMPDEST PUSH1 0x20 PUSH1 0x40 MLOAD DUP1 DUP4 SUB DUP2 PUSH0 DUP8 GAS CALL ISZERO DUP1 ISZERO PUSH2 0x6E5 JUMPI RETURNDATASIZE PUSH0 PUSH0 RETURNDATACOPY RETURNDATASIZE PUSH0 REVERT JUMPDEST POP POP POP POP PUSH1 0x40 MLOAD RETURNDATASIZE PUSH1 0x1F NOT PUSH1 0x1F DUP3 ADD AND DUP3 ADD DUP1 PUSH1 0x40 MSTORE POP DUP2 ADD SWAP1 PUSH2 0x709 SWAP2 SWAP1 PUSH2 0x1817 JUMP JUMPDEST POP POP POP POP POP POP JUMP JUMPDEST PUSH0 CALLER PUSH2 0x71E DUP6 DUP3 DUP6 PUSH2 0xE71 JUMP JUMPDEST PUSH2 0x729 DUP6 DUP6 DUP6 PUSH2 0xEC8 JUMP JUMPDEST POP PUSH1 0x1 SWAP5 SWAP4 POP POP POP POP JUMP JUMPDEST PUSH1 0x1 PUSH1 0x1 PUSH1 0xA0 SHL SUB DUP3 AND PUSH0 SWAP1 DUP2 MSTORE PUSH1 0x8 PUSH1 0x20 MSTORE PUSH1 0x40 DUP2 KECCAK256 SLOAD SWAP1 SUB PUSH2 0x76D JUMPI DUP2 PUSH1 0x40 MLOAD PUSH4 0x90B23441 PUSH1 0xE0 SHL DUP2 MSTORE PUSH1 0x4 ADD PUSH2 0x548 SWAP2 SWAP1 PUSH2 0x1208 JUMP JUMPDEST DUP2 PUSH0 PUSH2 0x77B PUSH1 0x12 PUSH1 0xA PUSH2 0x17AF JUMP JUMPDEST PUSH1 0x1 PUSH1 0x1 PUSH1 0xA0 SHL SUB DUP6 AND PUSH0 SWAP1 DUP2 MSTORE PUSH1 0x8 PUSH1 0x20 MSTORE PUSH1 0x40 SWAP1 KECCAK256 SLOAD PUSH2 0x79D SWAP1 DUP6 PUSH2 0x17BD JUMP JUMPDEST PUSH2 0x7A7 SWAP2 SWAP1 PUSH2 0x17D4 JUMP JUMPDEST SWAP1 POP PUSH0 DUP3 PUSH1 0x1 PUSH1 0x1 PUSH1 0xA0 SHL SUB AND PUSH4 0x23B872DD CALLER ADDRESS DUP6 PUSH1 0x40 MLOAD DUP5 PUSH4 0xFFFFFFFF AND PUSH1 0xE0 SHL DUP2 MSTORE PUSH1 0x4 ADD PUSH2 0x7DA SWAP4 SWAP3 SWAP2 SWAP1 PUSH2 0x17F3 JUMP JUMPDEST PUSH1 0x20 PUSH1 0x40 MLOAD DUP1 DUP4 SUB DUP2 PUSH0 DUP8 GAS CALL ISZERO DUP1 ISZERO PUSH2 0x7F6 JUMPI RETURNDATASIZE PUSH0 PUSH0 RETURNDATACOPY RETURNDATASIZE PUSH0 REVERT JUMPDEST POP POP POP POP PUSH1 0x40 MLOAD RETURNDATASIZE PUSH1 0x1F NOT PUSH1 0x1F DUP3 ADD AND DUP3 ADD DUP1 PUSH1 0x40 MSTORE POP DUP2 ADD SWAP1 PUSH2 0x81A SWAP2 SWAP1 PUSH2 0x1817 JUMP JUMPDEST SWAP1 POP DUP1 DUP4 PUSH1 0x1 PUSH1 0x1 PUSH1 0xA0 SHL SUB AND PUSH4 0x6FDDE03 PUSH1 0x40 MLOAD DUP2 PUSH4 0xFFFFFFFF AND PUSH1 0xE0 SHL DUP2 MSTORE PUSH1 0x4 ADD PUSH0 PUSH1 0x40 MLOAD DUP1 DUP4 SUB DUP2 DUP7 GAS STATICCALL ISZERO DUP1 ISZERO PUSH2 0x858 JUMPI RETURNDATASIZE PUSH0 PUSH0 RETURNDATACOPY RETURNDATASIZE PUSH0 REVERT JUMPDEST POP POP POP POP PUSH1 0x40 MLOAD RETURNDATASIZE PUSH0 DUP3 RETURNDATACOPY PUSH1 0x1F RETURNDATASIZE SWAP1 DUP2 ADD PUSH1 0x1F NOT AND DUP3 ADD PUSH1 0x40 MSTORE PUSH2 0x87F SWAP2 SWAP1 DUP2 ADD SWAP1 PUSH2 0x1836 JUMP JUMPDEST PUSH1 0x40 MLOAD PUSH1 0x20 ADD PUSH2 0x88F SWAP2 SWAP1 PUSH2 0x18AA JUMP JUMPDEST PUSH1 0x40 MLOAD PUSH1 0x20 DUP2 DUP4 SUB SUB DUP2 MSTORE SWAP1 PUSH1 0x40 MSTORE SWAP1 PUSH2 0x8BC JUMPI PUSH1 0x40 MLOAD PUSH3 0x461BCD PUSH1 0xE5 SHL DUP2 MSTORE PUSH1 0x4 ADD PUSH2 0x548 SWAP2 SWAP1 PUSH2 0x1195 JUMP JUMPDEST POP PUSH1 0x40 MLOAD PUSH4 0xA9059CBB PUSH1 0xE0 SHL DUP2 MSTORE CALLER PUSH1 0x4 DUP3 ADD MSTORE PUSH1 0x24 DUP2 ADD DUP6 SWAP1 MSTORE ADDRESS SWAP1 PUSH4 0xA9059CBB SWAP1 PUSH1 0x44 ADD PUSH2 0x6C9 JUMP JUMPDEST PUSH2 0x8EF PUSH2 0xED3 JUMP JUMPDEST PUSH2 0x8F9 DUP2 PUSH0 PUSH2 0xF13 JUMP JUMPDEST POP JUMP JUMPDEST PUSH0 PUSH2 0x905 PUSH2 0xED3 JUMP JUMPDEST PUSH1 0xD SLOAD PUSH1 0x6 SLOAD PUSH1 0x40 MLOAD PUSH4 0x242C1857 PUSH1 0xE1 SHL DUP2 MSTORE PUSH0 SWAP3 PUSH1 0x1 PUSH1 0x1 PUSH1 0xA0 SHL SUB SWAP1 DUP2 AND SWAP3 PUSH4 0x485830AE SWAP3 PUSH2 0x93F SWAP3 DUP10 SWAP3 DUP10 SWAP3 SWAP2 AND SWAP1 PUSH1 0x4 ADD PUSH2 0x18DA JUMP JUMPDEST PUSH1 0x20 PUSH1 0x40 MLOAD DUP1 DUP4 SUB DUP2 PUSH0 DUP8 GAS CALL ISZERO DUP1 ISZERO PUSH2 0x95B JUMPI RETURNDATASIZE PUSH0 PUSH0 RETURNDATACOPY RETURNDATASIZE PUSH0 REVERT JUMPDEST POP POP POP POP PUSH1 0x40 MLOAD RETURNDATASIZE PUSH1 0x1F NOT PUSH1 0x1F DUP3 ADD AND DUP3 ADD DUP1 PUSH1 0x40 MSTORE POP DUP2 ADD SWAP1 PUSH2 0x97F SWAP2 SWAP1 PUSH2 0x18FD JUMP JUMPDEST PUSH1 0x40 MLOAD PUSH4 0xE0CB969 PUSH1 0xE3 SHL DUP2 MSTORE SWAP1 SWAP2 POP PUSH1 0x1 PUSH1 0x1 PUSH1 0xA0 SHL SUB DUP3 AND SWAP1 PUSH4 0x7065CB48 SWAP1 PUSH2 0x9AE SWAP1 CALLER SWAP1 PUSH1 0x4 ADD PUSH2 0x1208 JUMP JUMPDEST PUSH0 PUSH1 0x40 MLOAD DUP1 DUP4 SUB DUP2 PUSH0 DUP8 DUP1 EXTCODESIZE ISZERO DUP1 ISZERO PUSH2 0x9C5 JUMPI PUSH0 PUSH0 REVERT JUMPDEST POP GAS CALL ISZERO DUP1 ISZERO PUSH2 0x9D7 JUMPI RETURNDATASIZE PUSH0 PUSH0 RETURNDATACOPY RETURNDATASIZE PUSH0 REVERT JUMPDEST POP POP POP POP PUSH2 0x9E3 PUSH2 0xF66 JUMP JUMPDEST SWAP4 SWAP3 POP POP POP JUMP JUMPDEST PUSH1 0x1 PUSH1 0x1 PUSH1 0xA0 SHL SUB AND PUSH0 SWAP1 DUP2 MSTORE PUSH1 0x20 DUP2 SWAP1 MSTORE PUSH1 0x40 SWAP1 KECCAK256 SLOAD PUSH1 0xFF AND SWAP1 JUMP JUMPDEST PUSH2 0xA0F PUSH2 0xED3 JUMP JUMPDEST PUSH1 0x1 PUSH1 0x1 PUSH1 0xA0 SHL SUB DUP2 AND PUSH2 0xA3C JUMPI ORIGIN PUSH0 ADDRESS PUSH1 0x40 MLOAD PUSH4 0x36030219 PUSH1 0xE2 SHL DUP2 MSTORE PUSH1 0x4 ADD PUSH2 0x548 SWAP4 SWAP3 SWAP2 SWAP1 PUSH2 0x18DA JUMP JUMPDEST PUSH2 0x8F9 DUP2 PUSH1 0x1 PUSH2 0xF13 JUMP JUMPDEST PUSH1 0x60 PUSH1 0x5 DUP1 SLOAD PUSH2 0x475 SWAP1 PUSH2 0x1680 JUMP JUMPDEST PUSH2 0xA5E PUSH2 0xED3 JUMP JUMPDEST PUSH1 0x4 PUSH2 0xA6A DUP4 DUP3 PUSH2 0x1963 JUMP JUMPDEST POP PUSH1 0x5 PUSH2 0xA77 DUP3 DUP3 PUSH2 0x1963 JUMP JUMPDEST POP POP POP JUMP JUMPDEST PUSH0 PUSH2 0xA85 PUSH2 0xED3 JUMP JUMPDEST PUSH1 0xC SLOAD PUSH1 0x6 SLOAD PUSH1 0x40 MLOAD PUSH4 0x1085350F PUSH1 0xE1 SHL DUP2 MSTORE PUSH0 SWAP3 PUSH1 0x1 PUSH1 0x1 PUSH1 0xA0 SHL SUB SWAP1 DUP2 AND SWAP3 PUSH4 0x210A6A1E SWAP3 PUSH2 0xAC2 SWAP3 DUP12 SWAP3 DUP12 SWAP3 DUP12 SWAP3 DUP12 SWAP3 AND SWAP1 PUSH1 0x4 ADD PUSH2 0x1A45 JUMP JUMPDEST PUSH1 0x20 PUSH1 0x40 MLOAD DUP1 DUP4 SUB DUP2 PUSH0 DUP8 GAS CALL ISZERO DUP1 ISZERO PUSH2 0xADE JUMPI RETURNDATASIZE PUSH0 PUSH0 RETURNDATACOPY RETURNDATASIZE PUSH0 REVERT JUMPDEST POP POP POP POP PUSH1 0x40 MLOAD RETURNDATASIZE PUSH1 0x1F NOT PUSH1 0x1F DUP3 ADD AND DUP3 ADD DUP1 PUSH1 0x40 MSTORE POP DUP2 ADD SWAP1 PUSH2 0xB02 SWAP2 SWAP1 PUSH2 0x18FD JUMP JUMPDEST PUSH1 0x40 MLOAD PUSH4 0xE0CB969 PUSH1 0xE3 SHL DUP2 MSTORE SWAP1 SWAP2 POP PUSH1 0x1 PUSH1 0x1 PUSH1 0xA0 SHL SUB DUP3 AND SWAP1 PUSH4 0x7065CB48 SWAP1 PUSH2 0xB31 SWAP1 CALLER SWAP1 PUSH1 0x4 ADD PUSH2 0x1208 JUMP JUMPDEST PUSH0 PUSH1 0x40 MLOAD DUP1 DUP4 SUB DUP2 PUSH0 DUP8 DUP1 EXTCODESIZE ISZERO DUP1 ISZERO PUSH2 0xB48 JUMPI PUSH0 PUSH0 REVERT JUMPDEST POP GAS CALL ISZERO DUP1 ISZERO PUSH2 0xB5A JUMPI RETURNDATASIZE PUSH0 PUSH0 RETURNDATACOPY RETURNDATASIZE PUSH0 REVERT JUMPDEST POP POP POP POP PUSH2 0xB66 PUSH2 0xF66 JUMP JUMPDEST SWAP6 SWAP5 POP POP POP POP POP JUMP JUMPDEST PUSH0 CALLER PUSH2 0x503 DUP2 DUP6 DUP6 PUSH2 0xEC8 JUMP JUMPDEST PUSH2 0xB84 PUSH2 0x1152 JUMP JUMPDEST PUSH1 0x80 DUP4 ADD MLOAD PUSH1 0x40 MLOAD PUSH4 0x3B8052C9 PUSH1 0xE0 SHL DUP2 MSTORE PUSH1 0x1 PUSH1 0x1 PUSH1 0x40 SHL SUB DUP5 AND PUSH1 0x4 DUP3 ADD MSTORE PUSH1 0x1 PUSH1 0x1 PUSH1 0xA0 SHL SUB SWAP1 SWAP2 AND SWAP1 PUSH4 0x3B8052C9 SWAP1 PUSH1 0x24 ADD PUSH1 0x40 DUP1 MLOAD DUP1 DUP4 SUB DUP2 PUSH0 DUP8 GAS CALL ISZERO DUP1 ISZERO PUSH2 0xBD5 JUMPI RETURNDATASIZE PUSH0 PUSH0 RETURNDATACOPY RETURNDATASIZE PUSH0 REVERT JUMPDEST POP POP POP POP PUSH1 0x40 MLOAD RETURNDATASIZE PUSH1 0x1F NOT PUSH1 0x1F DUP3 ADD AND DUP3 ADD DUP1 PUSH1 0x40 MSTORE POP DUP2 ADD SWAP1 PUSH2 0xBF9 SWAP2 SWAP1 PUSH2 0x1A86 JUMP JUMPDEST PUSH1 0x1 PUSH1 0x1 PUSH1 0x40 SHL SUB SWAP1 DUP2 AND PUSH1 0xE0 DUP7 ADD MSTORE AND PUSH1 0xC0 DUP5 ADD MSTORE PUSH2 0xC17 PUSH2 0xF66 JUMP JUMPDEST POP SWAP1 SWAP2 SWAP1 POP JUMP JUMPDEST PUSH2 0xC26 PUSH2 0xED3 JUMP JUMPDEST DUP1 MLOAD PUSH1 0x1 PUSH1 0x1 PUSH1 0xA0 SHL SUB SWAP1 DUP2 AND PUSH0 SWAP1 DUP2 MSTORE PUSH1 0xA PUSH1 0x20 SWAP1 DUP2 MSTORE PUSH1 0x40 DUP1 DUP4 KECCAK256 DUP6 MLOAD DUP2 SLOAD PUSH1 0x1 PUSH1 0x1 PUSH1 0xA0 SHL SUB NOT AND SWAP1 DUP7 AND OR DUP2 SSTORE SWAP2 DUP6 ADD MLOAD PUSH1 0x1 DUP4 ADD DUP1 SLOAD DUP4 DUP9 ADD MLOAD SWAP3 DUP8 AND PUSH1 0x1 PUSH1 0x1 PUSH1 0xE0 SHL SUB NOT SWAP2 DUP3 AND OR PUSH1 0x1 PUSH1 0xA0 SHL PUSH1 0x1 PUSH1 0x1 PUSH1 0x40 SHL SUB SWAP5 DUP6 AND MUL OR SWAP1 SWAP2 SSTORE PUSH1 0x60 DUP1 DUP9 ADD MLOAD PUSH1 0x2 DUP7 ADD DUP1 SLOAD PUSH1 0x80 DUP12 ADD MLOAD SWAP3 DUP7 AND SWAP5 AND SWAP4 SWAP1 SWAP4 OR PUSH1 0x1 PUSH1 0x40 SHL SWAP2 SWAP1 SWAP9 AND DUP2 DUP2 MUL SWAP9 SWAP1 SWAP9 OR SWAP1 SWAP3 SSTORE PUSH1 0xA0 DUP9 ADD MLOAD PUSH1 0x3 SWAP1 SWAP6 ADD DUP1 SLOAD PUSH1 0xC0 DUP11 ADD MLOAD PUSH1 0xE0 DUP12 ADD MLOAD SWAP8 DUP7 AND PUSH1 0x1 PUSH1 0x1 PUSH1 0x80 SHL SUB NOT SWAP1 SWAP3 AND SWAP2 SWAP1 SWAP2 OR SWAP1 DUP6 AND SWAP1 SWAP4 MUL SWAP3 SWAP1 SWAP3 OR PUSH8 0xFFFFFFFFFFFFFFFF PUSH1 0x80 SHL NOT AND PUSH1 0x1 PUSH1 0x80 SHL SWAP6 SWAP1 SWAP4 AND SWAP5 SWAP1 SWAP5 MUL SWAP2 SWAP1 SWAP2 OR SWAP1 SSTORE MLOAD PUSH4 0x6D777241 PUSH1 0xE1 SHL DUP2 MSTORE PUSH1 0x4 DUP2 ADD DUP4 SWAP1 MSTORE PUSH1 0x24 DUP2 ADD SWAP3 SWAP1 SWAP3 MSTORE PUSH1 0x44 DUP3 ADD MSTORE PUSH1 0xE PUSH1 0x64 DUP3 ADD MSTORE PUSH14 0x416464656420746F2059692E4E75 PUSH1 0x90 SHL PUSH1 0x84 DUP3 ADD MSTORE PUSH4 0xDAEEE482 SWAP1 PUSH1 0xA4 ADD PUSH0 PUSH1 0x40 MLOAD DUP1 DUP4 SUB DUP2 PUSH0 DUP8 DUP1 EXTCODESIZE ISZERO DUP1 ISZERO PUSH2 0xD68 JUMPI PUSH0 PUSH0 REVERT JUMPDEST POP GAS CALL ISZERO DUP1 ISZERO PUSH2 0xD7A JUMPI RETURNDATASIZE PUSH0 PUSH0 RETURNDATACOPY RETURNDATASIZE PUSH0 REVERT JUMPDEST POP POP POP POP PUSH2 0x8F9 PUSH2 0xF66 JUMP JUMPDEST PUSH1 0x1 PUSH1 0x1 PUSH1 0xA0 SHL SUB SWAP2 DUP3 AND PUSH0 SWAP1 DUP2 MSTORE PUSH1 0x2 PUSH1 0x20 SWAP1 DUP2 MSTORE PUSH1 0x40 DUP1 DUP4 KECCAK256 SWAP4 SWAP1 SWAP5 AND DUP3 MSTORE SWAP2 SWAP1 SWAP2 MSTORE KECCAK256 SLOAD SWAP1 JUMP JUMPDEST PUSH2 0xDB8 PUSH2 0x1152 JUMP JUMPDEST POP PUSH1 0x1 PUSH1 0x1 PUSH1 0xA0 SHL SUB SWAP1 DUP2 AND PUSH0 SWAP1 DUP2 MSTORE PUSH1 0xA PUSH1 0x20 SWAP1 DUP2 MSTORE PUSH1 0x40 SWAP2 DUP3 SWAP1 KECCAK256 DUP3 MLOAD PUSH2 0x100 DUP2 ADD DUP5 MSTORE DUP2 SLOAD DUP6 AND DUP2 MSTORE PUSH1 0x1 DUP3 ADD SLOAD DUP1 DUP7 AND SWAP4 DUP3 ADD SWAP4 SWAP1 SWAP4 MSTORE PUSH1 0x1 PUSH1 0xA0 SHL SWAP1 SWAP3 DIV PUSH1 0x1 PUSH1 0x1 PUSH1 0x40 SHL SUB SWAP1 DUP2 AND SWAP4 DUP4 ADD SWAP4 SWAP1 SWAP4 MSTORE PUSH1 0x2 DUP2 ADD SLOAD DUP1 DUP5 AND PUSH1 0x60 DUP5 ADD MSTORE PUSH1 0x1 PUSH1 0x40 SHL SWAP1 DUP2 SWAP1 DIV SWAP1 SWAP5 AND PUSH1 0x80 DUP4 ADD MSTORE PUSH1 0x3 ADD SLOAD DUP1 DUP4 AND PUSH1 0xA0 DUP4 ADD MSTORE SWAP3 DUP4 DIV DUP3 AND PUSH1 0xC0 DUP3 ADD MSTORE PUSH1 0x1 PUSH1 0x80 SHL SWAP1 SWAP3 DIV AND PUSH1 0xE0 DUP3 ADD MSTORE SWAP1 JUMP JUMPDEST PUSH2 0xE5A PUSH2 0xED3 JUMP JUMPDEST PUSH2 0xE62 PUSH2 0xF66 JUMP JUMPDEST JUMP JUMPDEST PUSH2 0xA77 DUP4 DUP4 DUP4 PUSH1 0x1 PUSH2 0xFA8 JUMP JUMPDEST PUSH0 PUSH2 0xE7C DUP5 DUP5 PUSH2 0xD86 JUMP JUMPDEST SWAP1 POP PUSH0 NOT DUP2 EQ PUSH2 0xEC2 JUMPI DUP2 DUP2 LT ISZERO PUSH2 0xEB4 JUMPI ORIGIN CALLER DUP6 DUP6 ADDRESS DUP6 DUP8 PUSH1 0x40 MLOAD PUSH3 0xB83D19 PUSH1 0xE2 SHL DUP2 MSTORE PUSH1 0x4 ADD PUSH2 0x548 SWAP8 SWAP7 SWAP6 SWAP5 SWAP4 SWAP3 SWAP2 SWAP1 PUSH2 0x1AB3 JUMP JUMPDEST PUSH2 0xEC2 DUP5 DUP5 DUP5 DUP5 SUB PUSH0 PUSH2 0xFA8 JUMP JUMPDEST POP POP POP POP JUMP JUMPDEST PUSH2 0xA77 DUP4 DUP4 DUP4 PUSH2 0x1028 JUMP JUMPDEST PUSH2 0xEDC CALLER PUSH2 0x9EA JUMP JUMPDEST ISZERO DUP1 ISZERO PUSH2 0xEEF JUMPI POP PUSH2 0xEED ORIGIN PUSH2 0x9EA JUMP JUMPDEST ISZERO JUMPDEST ISZERO PUSH2 0xE62 JUMPI ORIGIN CALLER ADDRESS PUSH1 0x40 MLOAD PUSH4 0xBE6BAB5 PUSH1 0xE0 SHL DUP2 MSTORE PUSH1 0x4 ADD PUSH2 0x548 SWAP4 SWAP3 SWAP2 SWAP1 PUSH2 0x18DA JUMP JUMPDEST PUSH1 0x1 PUSH1 0x1 PUSH1 0xA0 SHL SUB DUP3 AND PUSH0 DUP2 DUP2 MSTORE PUSH1 0x20 DUP2 SWAP1 MSTORE PUSH1 0x40 DUP1 DUP3 KECCAK256 DUP1 SLOAD PUSH1 0xFF NOT AND DUP6 ISZERO ISZERO SWAP1 DUP2 OR SWAP1 SWAP2 SSTORE SWAP1 MLOAD SWAP1 SWAP3 SWAP2 PUSH32 0x6BFA7E860C3E9BF67B810CB88276B19B27C972812BAC04793D369B59A1183A83 SWAP2 LOG3 POP POP JUMP JUMPDEST PUSH2 0xF72 PUSH1 0x12 PUSH1 0xA PUSH2 0x17AF JUMP JUMPDEST PUSH1 0x7 SLOAD PUSH2 0xF7F SWAP2 SWAP1 PUSH2 0x17BD JUMP JUMPDEST PUSH1 0x3 SLOAD LT ISZERO PUSH2 0xE62 JUMPI PUSH2 0xE62 ADDRESS PUSH2 0xF98 PUSH1 0x12 PUSH1 0xA PUSH2 0x17AF JUMP JUMPDEST PUSH2 0xFA3 SWAP1 PUSH1 0x1 PUSH2 0x17BD JUMP JUMPDEST PUSH2 0x1143 JUMP JUMPDEST PUSH1 0x1 PUSH1 0x1 PUSH1 0xA0 SHL SUB DUP1 DUP6 AND PUSH0 SWAP1 DUP2 MSTORE PUSH1 0x2 PUSH1 0x20 SWAP1 DUP2 MSTORE PUSH1 0x40 DUP1 DUP4 KECCAK256 SWAP4 DUP8 AND DUP4 MSTORE SWAP3 SWAP1 MSTORE KECCAK256 DUP3 SWAP1 SSTORE DUP1 ISZERO PUSH2 0xEC2 JUMPI DUP3 PUSH1 0x1 PUSH1 0x1 PUSH1 0xA0 SHL SUB AND DUP5 PUSH1 0x1 PUSH1 0x1 PUSH1 0xA0 SHL SUB AND PUSH32 0x8C5BE1E5EBEC7D5BD14F71427D1E84F3DD0314C0F7B2291E5B200AC8C7C3B925 DUP5 PUSH1 0x40 MLOAD PUSH2 0x101A SWAP2 DUP2 MSTORE PUSH1 0x20 ADD SWAP1 JUMP JUMPDEST PUSH1 0x40 MLOAD DUP1 SWAP2 SUB SWAP1 LOG3 POP POP POP POP JUMP JUMPDEST PUSH1 0x1 PUSH1 0x1 PUSH1 0xA0 SHL SUB DUP4 AND PUSH2 0x1052 JUMPI DUP1 PUSH1 0x3 PUSH0 DUP3 DUP3 SLOAD PUSH2 0x1047 SWAP2 SWAP1 PUSH2 0x1AF6 JUMP JUMPDEST SWAP1 SWAP2 SSTORE POP PUSH2 0x10B7 SWAP1 POP JUMP JUMPDEST PUSH1 0x1 PUSH1 0x1 PUSH1 0xA0 SHL SUB DUP4 AND PUSH0 SWAP1 DUP2 MSTORE PUSH1 0x1 PUSH1 0x20 MSTORE PUSH1 0x40 SWAP1 KECCAK256 SLOAD DUP2 DUP2 LT ISZERO PUSH2 0x1099 JUMPI ORIGIN CALLER DUP6 DUP6 ADDRESS DUP6 DUP8 PUSH1 0x40 MLOAD PUSH4 0xF7D0BBD PUSH1 0xE2 SHL DUP2 MSTORE PUSH1 0x4 ADD PUSH2 0x548 SWAP8 SWAP7 SWAP6 SWAP5 SWAP4 SWAP3 SWAP2 SWAP1 PUSH2 0x1AB3 JUMP JUMPDEST PUSH1 0x1 PUSH1 0x1 PUSH1 0xA0 SHL SUB DUP5 AND PUSH0 SWAP1 DUP2 MSTORE PUSH1 0x1 PUSH1 0x20 MSTORE PUSH1 0x40 SWAP1 KECCAK256 SWAP1 DUP3 SWAP1 SUB SWAP1 SSTORE JUMPDEST PUSH1 0x1 PUSH1 0x1 PUSH1 0xA0 SHL SUB DUP3 AND PUSH2 0x10D3 JUMPI PUSH1 0x3 DUP1 SLOAD DUP3 SWAP1 SUB SWAP1 SSTORE PUSH2 0x10F1 JUMP JUMPDEST PUSH1 0x1 PUSH1 0x1 PUSH1 0xA0 SHL SUB DUP3 AND PUSH0 SWAP1 DUP2 MSTORE PUSH1 0x1 PUSH1 0x20 MSTORE PUSH1 0x40 SWAP1 KECCAK256 DUP1 SLOAD DUP3 ADD SWAP1 SSTORE JUMPDEST DUP2 PUSH1 0x1 PUSH1 0x1 PUSH1 0xA0 SHL SUB AND DUP4 PUSH1 0x1 PUSH1 0x1 PUSH1 0xA0 SHL SUB AND PUSH32 0xDDF252AD1BE2C89B69C2B068FC378DAA952BA7F163C4A11628F55A4DF523B3EF DUP4 PUSH1 0x40 MLOAD PUSH2 0x1136 SWAP2 DUP2 MSTORE PUSH1 0x20 ADD SWAP1 JUMP JUMPDEST PUSH1 0x40 MLOAD DUP1 SWAP2 SUB SWAP1 LOG3 POP POP POP JUMP JUMPDEST PUSH2 0x114E PUSH0 DUP4 DUP4 PUSH2 0x1028 JUMP JUMPDEST POP POP JUMP JUMPDEST PUSH1 0x40 DUP1 MLOAD PUSH2 0x100 DUP2 ADD DUP3 MSTORE PUSH0 DUP1 DUP3 MSTORE PUSH1 0x20 DUP3 ADD DUP2 SWAP1 MSTORE SWAP2 DUP2 ADD DUP3 SWAP1 MSTORE PUSH1 0x60 DUP2 ADD DUP3 SWAP1 MSTORE PUSH1 0x80 DUP2 ADD DUP3 SWAP1 MSTORE PUSH1 0xA0 DUP2 ADD DUP3 SWAP1 MSTORE PUSH1 0xC0 DUP2 ADD DUP3 SWAP1 MSTORE PUSH1 0xE0 DUP2 ADD SWAP2 SWAP1 SWAP2 MSTORE SWAP1 JUMP JUMPDEST PUSH1 0x20 DUP2 MSTORE PUSH0 DUP3 MLOAD DUP1 PUSH1 0x20 DUP5 ADD MSTORE DUP1 PUSH1 0x20 DUP6 ADD PUSH1 0x40 DUP6 ADD MCOPY PUSH0 PUSH1 0x40 DUP3 DUP6 ADD ADD MSTORE PUSH1 0x40 PUSH1 0x1F NOT PUSH1 0x1F DUP4 ADD AND DUP5 ADD ADD SWAP2 POP POP SWAP3 SWAP2 POP POP JUMP JUMPDEST PUSH1 0x1 PUSH1 0x1 PUSH1 0xA0 SHL SUB DUP2 AND DUP2 EQ PUSH2 0x8F9 JUMPI PUSH0 PUSH0 REVERT JUMPDEST PUSH0 PUSH0 PUSH1 0x40 DUP4 DUP6 SUB SLT ISZERO PUSH2 0x11EF JUMPI PUSH0 PUSH0 REVERT JUMPDEST DUP3 CALLDATALOAD PUSH2 0x11FA DUP2 PUSH2 0x11CA JUMP JUMPDEST SWAP5 PUSH1 0x20 SWAP4 SWAP1 SWAP4 ADD CALLDATALOAD SWAP4 POP POP POP JUMP JUMPDEST PUSH1 0x1 PUSH1 0x1 PUSH1 0xA0 SHL SUB SWAP2 SWAP1 SWAP2 AND DUP2 MSTORE PUSH1 0x20 ADD SWAP1 JUMP JUMPDEST PUSH0 PUSH0 PUSH0 PUSH1 0x60 DUP5 DUP7 SUB SLT ISZERO PUSH2 0x122E JUMPI PUSH0 PUSH0 REVERT JUMPDEST DUP4 CALLDATALOAD PUSH2 0x1239 DUP2 PUSH2 0x11CA JUMP JUMPDEST SWAP3 POP PUSH1 0x20 DUP5 ADD CALLDATALOAD PUSH2 0x1249 DUP2 PUSH2 0x11CA JUMP JUMPDEST SWAP3 SWAP6 SWAP3 SWAP5 POP POP POP PUSH1 0x40 SWAP2 SWAP1 SWAP2 ADD CALLDATALOAD SWAP1 JUMP JUMPDEST PUSH0 PUSH1 0x20 DUP3 DUP5 SUB SLT ISZERO PUSH2 0x126A JUMPI PUSH0 PUSH0 REVERT JUMPDEST DUP2 CALLDATALOAD PUSH2 0x9E3 DUP2 PUSH2 0x11CA JUMP JUMPDEST DUP1 CALLDATALOAD PUSH2 0x1280 DUP2 PUSH2 0x11CA JUMP JUMPDEST SWAP2 SWAP1 POP JUMP JUMPDEST PUSH0 PUSH0 PUSH1 0x40 DUP4 DUP6 SUB SLT ISZERO PUSH2 0x1296 JUMPI PUSH0 PUSH0 REVERT JUMPDEST DUP3 CALLDATALOAD PUSH2 0x12A1 DUP2 PUSH2 0x11CA JUMP JUMPDEST SWAP2 POP PUSH1 0x20 DUP4 ADD CALLDATALOAD PUSH2 0x12B1 DUP2 PUSH2 0x11CA JUMP JUMPDEST DUP1 SWAP2 POP POP SWAP3 POP SWAP3 SWAP1 POP JUMP JUMPDEST PUSH4 0x4E487B71 PUSH1 0xE0 SHL PUSH0 MSTORE PUSH1 0x41 PUSH1 0x4 MSTORE PUSH1 0x24 PUSH0 REVERT JUMPDEST PUSH1 0x40 MLOAD PUSH2 0x100 DUP2 ADD PUSH1 0x1 PUSH1 0x1 PUSH1 0x40 SHL SUB DUP2 GT DUP3 DUP3 LT OR ISZERO PUSH2 0x12F3 JUMPI PUSH2 0x12F3 PUSH2 0x12BC JUMP JUMPDEST PUSH1 0x40 MSTORE SWAP1 JUMP JUMPDEST PUSH1 0x40 MLOAD PUSH1 0x1F DUP3 ADD PUSH1 0x1F NOT AND DUP2 ADD PUSH1 0x1 PUSH1 0x1 PUSH1 0x40 SHL SUB DUP2 GT DUP3 DUP3 LT OR ISZERO PUSH2 0x1321 JUMPI PUSH2 0x1321 PUSH2 0x12BC JUMP JUMPDEST PUSH1 0x40 MSTORE SWAP2 SWAP1 POP JUMP JUMPDEST PUSH0 PUSH1 0x1 PUSH1 0x1 PUSH1 0x40 SHL SUB DUP3 GT ISZERO PUSH2 0x1341 JUMPI PUSH2 0x1341 PUSH2 0x12BC JUMP JUMPDEST POP PUSH1 0x1F ADD PUSH1 0x1F NOT AND PUSH1 0x20 ADD SWAP1 JUMP JUMPDEST PUSH0 DUP3 PUSH1 0x1F DUP4 ADD SLT PUSH2 0x135E JUMPI PUSH0 PUSH0 REVERT JUMPDEST DUP2 CALLDATALOAD PUSH2 0x1371 PUSH2 0x136C DUP3 PUSH2 0x1329 JUMP JUMPDEST PUSH2 0x12F9 JUMP JUMPDEST DUP2 DUP2 MSTORE DUP5 PUSH1 0x20 DUP4 DUP7 ADD ADD GT ISZERO PUSH2 0x1385 JUMPI PUSH0 PUSH0 REVERT JUMPDEST DUP2 PUSH1 0x20 DUP6 ADD PUSH1 0x20 DUP4 ADD CALLDATACOPY PUSH0 SWAP2 DUP2 ADD PUSH1 0x20 ADD SWAP2 SWAP1 SWAP2 MSTORE SWAP4 SWAP3 POP POP POP JUMP JUMPDEST PUSH0 PUSH0 PUSH1 0x40 DUP4 DUP6 SUB SLT ISZERO PUSH2 0x13B2 JUMPI PUSH0 PUSH0 REVERT JUMPDEST DUP3 CALLDATALOAD PUSH1 0x1 PUSH1 0x1 PUSH1 0x40 SHL SUB DUP2 GT ISZERO PUSH2 0x13C7 JUMPI PUSH0 PUSH0 REVERT JUMPDEST PUSH2 0x13D3 DUP6 DUP3 DUP7 ADD PUSH2 0x134F JUMP JUMPDEST SWAP3 POP POP PUSH1 0x20 DUP4 ADD CALLDATALOAD PUSH1 0x1 PUSH1 0x1 PUSH1 0x40 SHL SUB DUP2 GT ISZERO PUSH2 0x13EE JUMPI PUSH0 PUSH0 REVERT JUMPDEST PUSH2 0x13FA DUP6 DUP3 DUP7 ADD PUSH2 0x134F JUMP JUMPDEST SWAP2 POP POP SWAP3 POP SWAP3 SWAP1 POP JUMP JUMPDEST PUSH0 PUSH0 DUP4 PUSH1 0x1F DUP5 ADD SLT PUSH2 0x1414 JUMPI PUSH0 PUSH0 REVERT JUMPDEST POP DUP2 CALLDATALOAD PUSH1 0x1 PUSH1 0x1 PUSH1 0x40 SHL SUB DUP2 GT ISZERO PUSH2 0x142A JUMPI PUSH0 PUSH0 REVERT JUMPDEST PUSH1 0x20 DUP4 ADD SWAP2 POP DUP4 PUSH1 0x20 DUP3 DUP6 ADD ADD GT ISZERO PUSH2 0x1441 JUMPI PUSH0 PUSH0 REVERT JUMPDEST SWAP3 POP SWAP3 SWAP1 POP JUMP JUMPDEST PUSH0 PUSH0 PUSH0 PUSH0 PUSH1 0x40 DUP6 DUP8 SUB SLT ISZERO PUSH2 0x145B JUMPI PUSH0 PUSH0 REVERT JUMPDEST DUP5 CALLDATALOAD PUSH1 0x1 PUSH1 0x1 PUSH1 0x40 SHL SUB DUP2 GT ISZERO PUSH2 0x1470 JUMPI PUSH0 PUSH0 REVERT JUMPDEST PUSH2 0x147C DUP8 DUP3 DUP9 ADD PUSH2 0x1404 JUMP JUMPDEST SWAP1 SWAP6 POP SWAP4 POP POP PUSH1 0x20 DUP6 ADD CALLDATALOAD PUSH1 0x1 PUSH1 0x1 PUSH1 0x40 SHL SUB DUP2 GT ISZERO PUSH2 0x149A JUMPI PUSH0 PUSH0 REVERT JUMPDEST PUSH2 0x14A6 DUP8 DUP3 DUP9 ADD PUSH2 0x1404 JUMP JUMPDEST SWAP6 SWAP9 SWAP5 SWAP8 POP SWAP6 POP POP POP POP JUMP JUMPDEST PUSH1 0x1 PUSH1 0x1 PUSH1 0x40 SHL SUB DUP2 AND DUP2 EQ PUSH2 0x8F9 JUMPI PUSH0 PUSH0 REVERT JUMPDEST DUP1 CALLDATALOAD PUSH2 0x1280 DUP2 PUSH2 0x14B2 JUMP JUMPDEST PUSH0 PUSH2 0x100 DUP3 DUP5 SUB SLT ISZERO PUSH2 0x14E2 JUMPI PUSH0 PUSH0 REVERT JUMPDEST PUSH2 0x14EA PUSH2 0x12D0 JUMP JUMPDEST SWAP1 POP DUP2 CALLDATALOAD PUSH2 0x14F7 DUP2 PUSH2 0x11CA JUMP JUMPDEST DUP2 MSTORE PUSH2 0x1505 PUSH1 0x20 DUP4 ADD PUSH2 0x1275 JUMP JUMPDEST PUSH1 0x20 DUP3 ADD MSTORE PUSH2 0x1516 PUSH1 0x40 DUP4 ADD PUSH2 0x14C6 JUMP JUMPDEST PUSH1 0x40 DUP3 ADD MSTORE PUSH2 0x1527 PUSH1 0x60 DUP4 ADD PUSH2 0x14C6 JUMP JUMPDEST PUSH1 0x60 DUP3 ADD MSTORE PUSH2 0x1538 PUSH1 0x80 DUP4 ADD PUSH2 0x1275 JUMP JUMPDEST PUSH1 0x80 DUP3 ADD MSTORE PUSH2 0x1549 PUSH1 0xA0 DUP4 ADD PUSH2 0x14C6 JUMP JUMPDEST PUSH1 0xA0 DUP3 ADD MSTORE PUSH2 0x155A PUSH1 0xC0 DUP4 ADD PUSH2 0x14C6 JUMP JUMPDEST PUSH1 0xC0 DUP3 ADD MSTORE PUSH2 0x156B PUSH1 0xE0 DUP4 ADD PUSH2 0x14C6 JUMP JUMPDEST PUSH1 0xE0 DUP3 ADD MSTORE SWAP3 SWAP2 POP POP JUMP JUMPDEST PUSH0 PUSH0 PUSH2 0x120 DUP4 DUP6 SUB SLT ISZERO PUSH2 0x1588 JUMPI PUSH0 PUSH0 REVERT JUMPDEST PUSH2 0x1592 DUP5 DUP5 PUSH2 0x14D1 JUMP JUMPDEST SWAP2 POP PUSH2 0x100 DUP4 ADD CALLDATALOAD PUSH2 0x12B1 DUP2 PUSH2 0x14B2 JUMP JUMPDEST DUP2 MLOAD PUSH1 0x1 PUSH1 0x1 PUSH1 0xA0 SHL SUB SWAP1 DUP2 AND DUP3 MSTORE PUSH1 0x20 DUP1 DUP5 ADD MLOAD SWAP1 SWAP2 AND SWAP1 DUP3 ADD MSTORE PUSH1 0x40 DUP1 DUP4 ADD MLOAD PUSH1 0x1 PUSH1 0x1 PUSH1 0x40 SHL SUB AND SWAP1 DUP3 ADD MSTORE PUSH1 0x60 DUP1 DUP4 ADD MLOAD PUSH2 0x100 DUP4 ADD SWAP2 PUSH2 0x15F2 SWAP1 DUP5 ADD DUP3 PUSH1 0x1 PUSH1 0x1 PUSH1 0x40 SHL SUB AND SWAP1 MSTORE JUMP JUMPDEST POP PUSH1 0x80 DUP4 ADD MLOAD PUSH2 0x160D PUSH1 0x80 DUP5 ADD DUP3 PUSH1 0x1 PUSH1 0x1 PUSH1 0xA0 SHL SUB AND SWAP1 MSTORE JUMP JUMPDEST POP PUSH1 0xA0 DUP4 ADD MLOAD PUSH2 0x1628 PUSH1 0xA0 DUP5 ADD DUP3 PUSH1 0x1 PUSH1 0x1 PUSH1 0x40 SHL SUB AND SWAP1 MSTORE JUMP JUMPDEST POP PUSH1 0xC0 DUP4 ADD MLOAD PUSH2 0x1643 PUSH1 0xC0 DUP5 ADD DUP3 PUSH1 0x1 PUSH1 0x1 PUSH1 0x40 SHL SUB AND SWAP1 MSTORE JUMP JUMPDEST POP PUSH1 0xE0 DUP4 ADD MLOAD PUSH2 0x165E PUSH1 0xE0 DUP5 ADD DUP3 PUSH1 0x1 PUSH1 0x1 PUSH1 0x40 SHL SUB AND SWAP1 MSTORE JUMP JUMPDEST POP SWAP3 SWAP2 POP POP JUMP JUMPDEST PUSH0 PUSH2 0x100 DUP3 DUP5 SUB SLT ISZERO PUSH2 0x1676 JUMPI PUSH0 PUSH0 REVERT JUMPDEST PUSH2 0x9E3 DUP4 DUP4 PUSH2 0x14D1 JUMP JUMPDEST PUSH1 0x1 DUP2 DUP2 SHR SWAP1 DUP3 AND DUP1 PUSH2 0x1694 JUMPI PUSH1 0x7F DUP3 AND SWAP2 POP JUMPDEST PUSH1 0x20 DUP3 LT DUP2 SUB PUSH2 0x16B2 JUMPI PUSH4 0x4E487B71 PUSH1 0xE0 SHL PUSH0 MSTORE PUSH1 0x22 PUSH1 0x4 MSTORE PUSH1 0x24 PUSH0 REVERT JUMPDEST POP SWAP2 SWAP1 POP JUMP JUMPDEST PUSH4 0x4E487B71 PUSH1 0xE0 SHL PUSH0 MSTORE PUSH1 0x11 PUSH1 0x4 MSTORE PUSH1 0x24 PUSH0 REVERT JUMPDEST PUSH1 0x1 DUP2 JUMPDEST PUSH1 0x1 DUP5 GT ISZERO PUSH2 0x1707 JUMPI DUP1 DUP6 DIV DUP2 GT ISZERO PUSH2 0x16EB JUMPI PUSH2 0x16EB PUSH2 0x16B8 JUMP JUMPDEST PUSH1 0x1 DUP5 AND ISZERO PUSH2 0x16F9 JUMPI SWAP1 DUP2 MUL SWAP1 JUMPDEST PUSH1 0x1 SWAP4 SWAP1 SWAP4 SHR SWAP3 DUP1 MUL PUSH2 0x16D0 JUMP JUMPDEST SWAP4 POP SWAP4 SWAP2 POP POP JUMP JUMPDEST PUSH0 DUP3 PUSH2 0x171D JUMPI POP PUSH1 0x1 PUSH2 0x509 JUMP JUMPDEST DUP2 PUSH2 0x1729 JUMPI POP PUSH0 PUSH2 0x509 JUMP JUMPDEST DUP2 PUSH1 0x1 DUP2 EQ PUSH2 0x173F JUMPI PUSH1 0x2 DUP2 EQ PUSH2 0x1749 JUMPI PUSH2 0x1765 JUMP JUMPDEST PUSH1 0x1 SWAP2 POP POP PUSH2 0x509 JUMP JUMPDEST PUSH1 0xFF DUP5 GT ISZERO PUSH2 0x175A JUMPI PUSH2 0x175A PUSH2 0x16B8 JUMP JUMPDEST POP POP PUSH1 0x1 DUP3 SHL PUSH2 0x509 JUMP JUMPDEST POP PUSH1 0x20 DUP4 LT PUSH2 0x133 DUP4 LT AND PUSH1 0x4E DUP5 LT PUSH1 0xB DUP5 LT AND OR ISZERO PUSH2 0x1788 JUMPI POP DUP2 DUP2 EXP PUSH2 0x509 JUMP JUMPDEST PUSH2 0x1794 PUSH0 NOT DUP5 DUP5 PUSH2 0x16CC JUMP JUMPDEST DUP1 PUSH0 NOT DIV DUP3 GT ISZERO PUSH2 0x17A7 JUMPI PUSH2 0x17A7 PUSH2 0x16B8 JUMP JUMPDEST MUL SWAP4 SWAP3 POP POP POP JUMP JUMPDEST PUSH0 PUSH2 0x9E3 PUSH1 0xFF DUP5 AND DUP4 PUSH2 0x170F JUMP JUMPDEST DUP1 DUP3 MUL DUP2 ISZERO DUP3 DUP3 DIV DUP5 EQ OR PUSH2 0x509 JUMPI PUSH2 0x509 PUSH2 0x16B8 JUMP JUMPDEST PUSH0 DUP3 PUSH2 0x17EE JUMPI PUSH4 0x4E487B71 PUSH1 0xE0 SHL PUSH0 MSTORE PUSH1 0x12 PUSH1 0x4 MSTORE PUSH1 0x24 PUSH0 REVERT JUMPDEST POP DIV SWAP1 JUMP JUMPDEST PUSH1 0x1 PUSH1 0x1 PUSH1 0xA0 SHL SUB SWAP4 DUP5 AND DUP2 MSTORE SWAP2 SWAP1 SWAP3 AND PUSH1 0x20 DUP3 ADD MSTORE PUSH1 0x40 DUP2 ADD SWAP2 SWAP1 SWAP2 MSTORE PUSH1 0x60 ADD SWAP1 JUMP JUMPDEST PUSH0 PUSH1 0x20 DUP3 DUP5 SUB SLT ISZERO PUSH2 0x1827 JUMPI PUSH0 PUSH0 REVERT JUMPDEST DUP2 MLOAD DUP1 ISZERO ISZERO DUP2 EQ PUSH2 0x9E3 JUMPI PUSH0 PUSH0 REVERT JUMPDEST PUSH0 PUSH1 0x20 DUP3 DUP5 SUB SLT ISZERO PUSH2 0x1846 JUMPI PUSH0 PUSH0 REVERT JUMPDEST DUP2 MLOAD PUSH1 0x1 PUSH1 0x1 PUSH1 0x40 SHL SUB DUP2 GT ISZERO PUSH2 0x185B JUMPI PUSH0 PUSH0 REVERT JUMPDEST DUP3 ADD PUSH1 0x1F DUP2 ADD DUP5 SGT PUSH2 0x186B JUMPI PUSH0 PUSH0 REVERT JUMPDEST DUP1 MLOAD PUSH2 0x1879 PUSH2 0x136C DUP3 PUSH2 0x1329 JUMP JUMPDEST DUP2 DUP2 MSTORE DUP6 PUSH1 0x20 DUP4 DUP6 ADD ADD GT ISZERO PUSH2 0x188D JUMPI PUSH0 PUSH0 REVERT JUMPDEST DUP2 PUSH1 0x20 DUP5 ADD PUSH1 0x20 DUP4 ADD MCOPY PUSH0 SWAP2 DUP2 ADD PUSH1 0x20 ADD SWAP2 SWAP1 SWAP2 MSTORE SWAP5 SWAP4 POP POP POP POP JUMP JUMPDEST PUSH14 0x2732B2B21020B8383937BB32B21 PUSH1 0x95 SHL DUP2 MSTORE PUSH0 DUP3 MLOAD DUP1 PUSH1 0x20 DUP6 ADD PUSH1 0xE DUP6 ADD MCOPY PUSH0 SWAP3 ADD PUSH1 0xE ADD SWAP2 DUP3 MSTORE POP SWAP2 SWAP1 POP JUMP JUMPDEST PUSH1 0x1 PUSH1 0x1 PUSH1 0xA0 SHL SUB SWAP4 DUP5 AND DUP2 MSTORE SWAP2 DUP4 AND PUSH1 0x20 DUP4 ADD MSTORE SWAP1 SWAP2 AND PUSH1 0x40 DUP3 ADD MSTORE PUSH1 0x60 ADD SWAP1 JUMP JUMPDEST PUSH0 PUSH1 0x20 DUP3 DUP5 SUB SLT ISZERO PUSH2 0x190D JUMPI PUSH0 PUSH0 REVERT JUMPDEST DUP2 MLOAD PUSH2 0x9E3 DUP2 PUSH2 0x11CA JUMP JUMPDEST PUSH1 0x1F DUP3 GT ISZERO PUSH2 0xA77 JUMPI DUP1 PUSH0 MSTORE PUSH1 0x20 PUSH0 KECCAK256 PUSH1 0x1F DUP5 ADD PUSH1 0x5 SHR DUP2 ADD PUSH1 0x20 DUP6 LT ISZERO PUSH2 0x193D JUMPI POP DUP1 JUMPDEST PUSH1 0x1F DUP5 ADD PUSH1 0x5 SHR DUP3 ADD SWAP2 POP JUMPDEST DUP2 DUP2 LT ISZERO PUSH2 0x195C JUMPI PUSH0 DUP2 SSTORE PUSH1 0x1 ADD PUSH2 0x1949 JUMP JUMPDEST POP POP POP POP POP JUMP JUMPDEST DUP2 MLOAD PUSH1 0x1 PUSH1 0x1 PUSH1 0x40 SHL SUB DUP2 GT ISZERO PUSH2 0x197C JUMPI PUSH2 0x197C PUSH2 0x12BC JUMP JUMPDEST PUSH2 0x1990 DUP2 PUSH2 0x198A DUP5 SLOAD PUSH2 0x1680 JUMP JUMPDEST DUP5 PUSH2 0x1918 JUMP JUMPDEST PUSH1 0x20 PUSH1 0x1F DUP3 GT PUSH1 0x1 DUP2 EQ PUSH2 0x19C2 JUMPI PUSH0 DUP4 ISZERO PUSH2 0x19AB JUMPI POP DUP5 DUP3 ADD MLOAD JUMPDEST PUSH0 NOT PUSH1 0x3 DUP6 SWAP1 SHL SHR NOT AND PUSH1 0x1 DUP5 SWAP1 SHL OR DUP5 SSTORE PUSH2 0x195C JUMP JUMPDEST PUSH0 DUP5 DUP2 MSTORE PUSH1 0x20 DUP2 KECCAK256 PUSH1 0x1F NOT DUP6 AND SWAP2 JUMPDEST DUP3 DUP2 LT ISZERO PUSH2 0x19F1 JUMPI DUP8 DUP6 ADD MLOAD DUP3 SSTORE PUSH1 0x20 SWAP5 DUP6 ADD SWAP5 PUSH1 0x1 SWAP1 SWAP3 ADD SWAP2 ADD PUSH2 0x19D1 JUMP JUMPDEST POP DUP5 DUP3 LT ISZERO PUSH2 0x1A0E JUMPI DUP7 DUP5 ADD MLOAD PUSH0 NOT PUSH1 0x3 DUP8 SWAP1 SHL PUSH1 0xF8 AND SHR NOT AND DUP2 SSTORE JUMPDEST POP POP POP POP PUSH1 0x1 SWAP1 DUP2 SHL ADD SWAP1 SSTORE POP JUMP JUMPDEST DUP2 DUP4 MSTORE DUP2 DUP2 PUSH1 0x20 DUP6 ADD CALLDATACOPY POP PUSH0 DUP3 DUP3 ADD PUSH1 0x20 SWAP1 DUP2 ADD SWAP2 SWAP1 SWAP2 MSTORE PUSH1 0x1F SWAP1 SWAP2 ADD PUSH1 0x1F NOT AND SWAP1 SWAP2 ADD ADD SWAP1 JUMP JUMPDEST PUSH1 0x60 DUP2 MSTORE PUSH0 PUSH2 0x1A58 PUSH1 0x60 DUP4 ADD DUP8 DUP10 PUSH2 0x1A1D JUMP JUMPDEST DUP3 DUP2 SUB PUSH1 0x20 DUP5 ADD MSTORE PUSH2 0x1A6B DUP2 DUP7 DUP9 PUSH2 0x1A1D JUMP JUMPDEST SWAP2 POP POP PUSH1 0x1 DUP1 PUSH1 0xA0 SHL SUB DUP4 AND PUSH1 0x40 DUP4 ADD MSTORE SWAP7 SWAP6 POP POP POP POP POP POP JUMP JUMPDEST PUSH0 PUSH0 PUSH1 0x40 DUP4 DUP6 SUB SLT ISZERO PUSH2 0x1A97 JUMPI PUSH0 PUSH0 REVERT JUMPDEST DUP3 MLOAD PUSH2 0x1AA2 DUP2 PUSH2 0x14B2 JUMP JUMPDEST PUSH1 0x20 DUP5 ADD MLOAD SWAP1 SWAP3 POP PUSH2 0x12B1 DUP2 PUSH2 0x14B2 JUMP JUMPDEST PUSH1 0x1 PUSH1 0x1 PUSH1 0xA0 SHL SUB SWAP8 DUP9 AND DUP2 MSTORE SWAP6 DUP8 AND PUSH1 0x20 DUP8 ADD MSTORE SWAP4 DUP7 AND PUSH1 0x40 DUP7 ADD MSTORE SWAP2 DUP6 AND PUSH1 0x60 DUP6 ADD MSTORE SWAP1 SWAP4 AND PUSH1 0x80 DUP4 ADD MSTORE PUSH1 0xA0 DUP3 ADD SWAP3 SWAP1 SWAP3 MSTORE PUSH1 0xC0 DUP2 ADD SWAP2 SWAP1 SWAP2 MSTORE PUSH1 0xE0 ADD SWAP1 JUMP JUMPDEST DUP1 DUP3 ADD DUP1 DUP3 GT ISZERO PUSH2 0x509 JUMPI PUSH2 0x509 PUSH2 0x16B8 JUMP INVALID LOG2 PUSH5 0x6970667358 0x22 SLT KECCAK256 0xBD 0xE6 OR 0xB0 0x21 0xC3 CALLVALUE GASLIMIT COINBASE DUP9 0xA9 0xC6 PC GASPRICE 0xCD 0x2D 0xE CALLVALUE 0xB0 DUP14 0x4D SGT PUSH12 0x668B26C49DD6B45B1264736F PUSH13 0x634300081B0033000000000000 "
		},
		"gasEstimates": {
			"creation": {
				"codeDepositCost": "1395000",
				"executionCost": "infinite",
				"totalCost": "infinite"
			},
			"external": {
				"Bang(address)": "10013",
				"Beta(string,string)": "infinite",
				"Bing((address,address,uint64,uint64,address,uint64,uint64,uint64))": "infinite",
				"GetMarketRate(address)": "2706",
				"Kappa(address,address)": "infinite",
				"MotzkinPrime()": "281",
				"Psi()": "2383",
				"Purchase(address,uint256)": "infinite",
				"React((address,address,uint64,uint64,address,uint64,uint64,uint64),uint64)": "infinite",
				"Redeem(address,uint256)": "infinite",
				"Rename(string,string)": "infinite",
				"Ring()": "2398",
				"SHAFactoryInterface()": "2383",
				"SHIOFactoryInterface()": "2428",
				"Type()": "infinite",
				"Xi()": "2469",
				"Xiao()": "2493",
				"addOwner(address)": "infinite",
				"allowance(address,address)": "infinite",
				"approve(address,uint256)": "24681",
				"balanceOf(address)": "2705",
				"decimals()": "221",
				"maxSupply()": "2382",
				"mintToCap()": "infinite",
				"name()": "infinite",
				"owner()": "302",
				"owner(address)": "2666",
				"renounceOwnership(address)": "infinite",
				"symbol()": "infinite",
				"totalSupply()": "2370",
				"transfer(address,uint256)": "51307",
				"transferFrom(address,address,uint256)": "infinite"
			},
			"internal": {
				"Augment()": "infinite",
				"Ionize()": "infinite"
			}
		},
		"methodIdentifiers": {
			"Bang(address)": "ea673dd2",
			"Beta(string,string)": "a5c2ec1c",
			"Bing((address,address,uint64,uint64,address,uint64,uint64,uint64))": "ce42ee48",
			"GetMarketRate(address)": "2b83b1fc",
			"Kappa(address,address)": "4d3a5b71",
			"MotzkinPrime()": "d3dc2a0f",
			"Psi()": "76fade90",
			"Purchase(address,uint256)": "2499a533",
			"React((address,address,uint64,uint64,address,uint64,uint64,uint64),uint64)": "cb4157bd",
			"Redeem(address,uint256)": "222838db",
			"Rename(string,string)": "9dcbf7ea",
			"Ring()": "87b3be7d",
			"SHAFactoryInterface()": "2e426d34",
			"SHIOFactoryInterface()": "0dd13230",
			"Type()": "ff762044",
			"Xi()": "a12204b0",
			"Xiao()": "6fb7329c",
			"addOwner(address)": "7065cb48",
			"allowance(address,address)": "dd62ed3e",
			"approve(address,uint256)": "095ea7b3",
			"balanceOf(address)": "70a08231",
			"decimals()": "313ce567",
			"maxSupply()": "d5abeb01",
			"mintToCap()": "f4e6c93f",
			"name()": "06fdde03",
			"owner()": "8da5cb5b",
			"owner(address)": "666e1b39",
			"renounceOwnership(address)": "38bf3cfa",
			"symbol()": "95d89b41",
			"totalSupply()": "18160ddd",
			"transfer(address,uint256)": "a9059cbb",
			"transferFrom(address,address,uint256)": "23b872dd"
		}
	},
	"abi": [
		{
			"inputs": [
				{
					"internalType": "address",
					"name": "_shaFactory",
					"type": "address"
				},
				{
					"internalType": "address",
					"name": "_shioFactory",
					"type": "address"
				},
				{
					"internalType": "address",
					"name": "MathLib",
					"type": "address"
				}
			],
			"stateMutability": "nonpayable",
			"type": "constructor"
		},
		{
			"inputs": [
				{
					"internalType": "address",
					"name": "origin",
					"type": "address"
				},
				{
					"internalType": "address",
					"name": "sender",
					"type": "address"
				},
				{
					"internalType": "address",
					"name": "owner",
					"type": "address"
				},
				{
					"internalType": "address",
					"name": "spender",
					"type": "address"
				},
				{
					"internalType": "address",
					"name": "what",
					"type": "address"
				},
				{
					"internalType": "uint256",
					"name": "allowance",
					"type": "uint256"
				},
				{
					"internalType": "uint256",
					"name": "needed",
					"type": "uint256"
				}
			],
			"name": "DysnomiaInsufficientAllowance",
			"type": "error"
		},
		{
			"inputs": [
				{
					"internalType": "address",
					"name": "origin",
					"type": "address"
				},
				{
					"internalType": "address",
					"name": "sender",
					"type": "address"
				},
				{
					"internalType": "address",
					"name": "from",
					"type": "address"
				},
				{
					"internalType": "address",
					"name": "to",
					"type": "address"
				},
				{
					"internalType": "address",
					"name": "what",
					"type": "address"
				},
				{
					"internalType": "uint256",
					"name": "balance",
					"type": "uint256"
				},
				{
					"internalType": "uint256",
					"name": "needed",
					"type": "uint256"
				}
			],
			"name": "DysnomiaInsufficientBalance",
			"type": "error"
		},
		{
			"inputs": [
				{
					"internalType": "address",
					"name": "asset",
					"type": "address"
				}
			],
			"name": "MarketRateNotFound",
			"type": "error"
		},
		{
			"inputs": [
				{
					"internalType": "address",
					"name": "origin",
					"type": "address"
				},
				{
					"internalType": "address",
					"name": "owner",
					"type": "address"
				},
				{
					"internalType": "address",
					"name": "what",
					"type": "address"
				}
			],
			"name": "OwnableInvalidOwner",
			"type": "error"
		},
		{
			"inputs": [
				{
					"internalType": "address",
					"name": "origin",
					"type": "address"
				},
				{
					"internalType": "address",
					"name": "account",
					"type": "address"
				},
				{
					"internalType": "address",
					"name": "what",
					"type": "address"
				}
			],
			"name": "OwnableUnauthorizedAccount",
			"type": "error"
		},
		{
			"anonymous": false,
			"inputs": [
				{
					"indexed": true,
					"internalType": "address",
					"name": "owner",
					"type": "address"
				},
				{
					"indexed": true,
					"internalType": "address",
					"name": "spender",
					"type": "address"
				},
				{
					"indexed": false,
					"internalType": "uint256",
					"name": "value",
					"type": "uint256"
				}
			],
			"name": "Approval",
			"type": "event"
		},
		{
			"anonymous": false,
			"inputs": [
				{
					"indexed": true,
					"internalType": "address",
					"name": "newOwner",
					"type": "address"
				},
				{
					"indexed": true,
					"internalType": "bool",
					"name": "state",
					"type": "bool"
				}
			],
			"name": "OwnershipUpdate",
			"type": "event"
		},
		{
			"anonymous": false,
			"inputs": [
				{
					"indexed": true,
					"internalType": "address",
					"name": "from",
					"type": "address"
				},
				{
					"indexed": true,
					"internalType": "address",
					"name": "to",
					"type": "address"
				},
				{
					"indexed": false,
					"internalType": "uint256",
					"name": "value",
					"type": "uint256"
				}
			],
			"name": "Transfer",
			"type": "event"
		},
		{
			"inputs": [
				{
					"internalType": "address",
					"name": "_a",
					"type": "address"
				}
			],
			"name": "Bang",
			"outputs": [
				{
					"components": [
						{
							"internalType": "address",
							"name": "Phi",
							"type": "address"
						},
						{
							"internalType": "contract SHA",
							"name": "Mu",
							"type": "address"
						},
						{
							"internalType": "uint64",
							"name": "Xi",
							"type": "uint64"
						},
						{
							"internalType": "uint64",
							"name": "Pi",
							"type": "uint64"
						},
						{
							"internalType": "contract SHIO",
							"name": "Shio",
							"type": "address"
						},
						{
							"internalType": "uint64",
							"name": "Ring",
							"type": "uint64"
						},
						{
							"internalType": "uint64",
							"name": "Omicron",
							"type": "uint64"
						},
						{
							"internalType": "uint64",
							"name": "Omega",
							"type": "uint64"
						}
					],
					"internalType": "struct Bao",
					"name": "",
					"type": "tuple"
				}
			],
			"stateMutability": "view",
			"type": "function"
		},
		{
			"inputs": [
				{
					"internalType": "string",
					"name": "Name",
					"type": "string"
				},
				{
					"internalType": "string",
					"name": "Symbol",
					"type": "string"
				}
			],
			"name": "Beta",
			"outputs": [
				{
					"internalType": "contract SHA",
					"name": "",
					"type": "address"
				}
			],
			"stateMutability": "nonpayable",
			"type": "function"
		},
		{
			"inputs": [
				{
					"components": [
						{
							"internalType": "address",
							"name": "Phi",
							"type": "address"
						},
						{
							"internalType": "contract SHA",
							"name": "Mu",
							"type": "address"
						},
						{
							"internalType": "uint64",
							"name": "Xi",
							"type": "uint64"
						},
						{
							"internalType": "uint64",
							"name": "Pi",
							"type": "uint64"
						},
						{
							"internalType": "contract SHIO",
							"name": "Shio",
							"type": "address"
						},
						{
							"internalType": "uint64",
							"name": "Ring",
							"type": "uint64"
						},
						{
							"internalType": "uint64",
							"name": "Omicron",
							"type": "uint64"
						},
						{
							"internalType": "uint64",
							"name": "Omega",
							"type": "uint64"
						}
					],
					"internalType": "struct Bao",
					"name": "_b",
					"type": "tuple"
				}
			],
			"name": "Bing",
			"outputs": [],
			"stateMutability": "nonpayable",
			"type": "function"
		},
		{
			"inputs": [
				{
					"internalType": "address",
					"name": "_a",
					"type": "address"
				}
			],
			"name": "GetMarketRate",
			"outputs": [
				{
					"internalType": "uint256",
					"name": "",
					"type": "uint256"
				}
			],
			"stateMutability": "view",
			"type": "function"
		},
		{
			"inputs": [
				{
					"internalType": "contract SHA",
					"name": "Rod",
					"type": "address"
				},
				{
					"internalType": "contract SHA",
					"name": "Cone",
					"type": "address"
				}
			],
			"name": "Kappa",
			"outputs": [
				{
					"internalType": "contract SHIO",
					"name": "",
					"type": "address"
				}
			],
			"stateMutability": "nonpayable",
			"type": "function"
		},
		{
			"inputs": [],
			"name": "MotzkinPrime",
			"outputs": [
				{
					"internalType": "uint64",
					"name": "",
					"type": "uint64"
				}
			],
			"stateMutability": "view",
			"type": "function"
		},
		{
			"inputs": [],
			"name": "Psi",
			"outputs": [
				{
					"internalType": "contract SHIO",
					"name": "",
					"type": "address"
				}
			],
			"stateMutability": "view",
			"type": "function"
		},
		{
			"inputs": [
				{
					"internalType": "address",
					"name": "_t",
					"type": "address"
				},
				{
					"internalType": "uint256",
					"name": "_a",
					"type": "uint256"
				}
			],
			"name": "Purchase",
			"outputs": [],
			"stateMutability": "nonpayable",
			"type": "function"
		},
		{
			"inputs": [
				{
					"components": [
						{
							"internalType": "address",
							"name": "Phi",
							"type": "address"
						},
						{
							"internalType": "contract SHA",
							"name": "Mu",
							"type": "address"
						},
						{
							"internalType": "uint64",
							"name": "Xi",
							"type": "uint64"
						},
						{
							"internalType": "uint64",
							"name": "Pi",
							"type": "uint64"
						},
						{
							"internalType": "contract SHIO",
							"name": "Shio",
							"type": "address"
						},
						{
							"internalType": "uint64",
							"name": "Ring",
							"type": "uint64"
						},
						{
							"internalType": "uint64",
							"name": "Omicron",
							"type": "uint64"
						},
						{
							"internalType": "uint64",
							"name": "Omega",
							"type": "uint64"
						}
					],
					"internalType": "struct Bao",
					"name": "Gamma",
					"type": "tuple"
				},
				{
					"internalType": "uint64",
					"name": "Pi",
					"type": "uint64"
				}
			],
			"name": "React",
			"outputs": [
				{
					"components": [
						{
							"internalType": "address",
							"name": "Phi",
							"type": "address"
						},
						{
							"internalType": "contract SHA",
							"name": "Mu",
							"type": "address"
						},
						{
							"internalType": "uint64",
							"name": "Xi",
							"type": "uint64"
						},
						{
							"internalType": "uint64",
							"name": "Pi",
							"type": "uint64"
						},
						{
							"internalType": "contract SHIO",
							"name": "Shio",
							"type": "address"
						},
						{
							"internalType": "uint64",
							"name": "Ring",
							"type": "uint64"
						},
						{
							"internalType": "uint64",
							"name": "Omicron",
							"type": "uint64"
						},
						{
							"internalType": "uint64",
							"name": "Omega",
							"type": "uint64"
						}
					],
					"internalType": "struct Bao",
					"name": "",
					"type": "tuple"
				}
			],
			"stateMutability": "nonpayable",
			"type": "function"
		},
		{
			"inputs": [
				{
					"internalType": "address",
					"name": "_t",
					"type": "address"
				},
				{
					"internalType": "uint256",
					"name": "_a",
					"type": "uint256"
				}
			],
			"name": "Redeem",
			"outputs": [],
			"stateMutability": "nonpayable",
			"type": "function"
		},
		{
			"inputs": [
				{
					"internalType": "string",
					"name": "newName",
					"type": "string"
				},
				{
					"internalType": "string",
					"name": "newSymbol",
					"type": "string"
				}
			],
			"name": "Rename",
			"outputs": [],
			"stateMutability": "nonpayable",
			"type": "function"
		},
		{
			"inputs": [],
			"name": "Ring",
			"outputs": [
				{
					"internalType": "uint64",
					"name": "",
					"type": "uint64"
				}
			],
			"stateMutability": "view",
			"type": "function"
		},
		{
			"inputs": [],
			"name": "SHAFactoryInterface",
			"outputs": [
				{
					"internalType": "contract SHAFactory",
					"name": "",
					"type": "address"
				}
			],
			"stateMutability": "view",
			"type": "function"
		},
		{
			"inputs": [],
			"name": "SHIOFactoryInterface",
			"outputs": [
				{
					"internalType": "contract SHIOFactory",
					"name": "",
					"type": "address"
				}
			],
			"stateMutability": "view",
			"type": "function"
		},
		{
			"inputs": [],
			"name": "Type",
			"outputs": [
				{
					"internalType": "string",
					"name": "",
					"type": "string"
				}
			],
			"stateMutability": "view",
			"type": "function"
		},
		{
			"inputs": [],
			"name": "Xi",
			"outputs": [
				{
					"internalType": "uint64",
					"name": "",
					"type": "uint64"
				}
			],
			"stateMutability": "view",
			"type": "function"
		},
		{
			"inputs": [],
			"name": "Xiao",
			"outputs": [
				{
					"internalType": "contract atropaMath",
					"name": "",
					"type": "address"
				}
			],
			"stateMutability": "view",
			"type": "function"
		},
		{
			"inputs": [
				{
					"internalType": "address",
					"name": "newOwner",
					"type": "address"
				}
			],
			"name": "addOwner",
			"outputs": [],
			"stateMutability": "nonpayable",
			"type": "function"
		},
		{
			"inputs": [
				{
					"internalType": "address",
					"name": "owner",
					"type": "address"
				},
				{
					"internalType": "address",
					"name": "spender",
					"type": "address"
				}
			],
			"name": "allowance",
			"outputs": [
				{
					"internalType": "uint256",
					"name": "",
					"type": "uint256"
				}
			],
			"stateMutability": "view",
			"type": "function"
		},
		{
			"inputs": [
				{
					"internalType": "address",
					"name": "spender",
					"type": "address"
				},
				{
					"internalType": "uint256",
					"name": "value",
					"type": "uint256"
				}
			],
			"name": "approve",
			"outputs": [
				{
					"internalType": "bool",
					"name": "",
					"type": "bool"
				}
			],
			"stateMutability": "nonpayable",
			"type": "function"
		},
		{
			"inputs": [
				{
					"internalType": "address",
					"name": "account",
					"type": "address"
				}
			],
			"name": "balanceOf",
			"outputs": [
				{
					"internalType": "uint256",
					"name": "",
					"type": "uint256"
				}
			],
			"stateMutability": "view",
			"type": "function"
		},
		{
			"inputs": [],
			"name": "decimals",
			"outputs": [
				{
					"internalType": "uint8",
					"name": "",
					"type": "uint8"
				}
			],
			"stateMutability": "view",
			"type": "function"
		},
		{
			"inputs": [],
			"name": "maxSupply",
			"outputs": [
				{
					"internalType": "uint256",
					"name": "",
					"type": "uint256"
				}
			],
			"stateMutability": "view",
			"type": "function"
		},
		{
			"inputs": [],
			"name": "mintToCap",
			"outputs": [],
			"stateMutability": "nonpayable",
			"type": "function"
		},
		{
			"inputs": [],
			"name": "name",
			"outputs": [
				{
					"internalType": "string",
					"name": "",
					"type": "string"
				}
			],
			"stateMutability": "view",
			"type": "function"
		},
		{
			"inputs": [
				{
					"internalType": "address",
					"name": "cOwner",
					"type": "address"
				}
			],
			"name": "owner",
			"outputs": [
				{
					"internalType": "bool",
					"name": "",
					"type": "bool"
				}
			],
			"stateMutability": "view",
			"type": "function"
		},
		{
			"inputs": [],
			"name": "owner",
			"outputs": [
				{
					"internalType": "address",
					"name": "",
					"type": "address"
				}
			],
			"stateMutability": "view",
			"type": "function"
		},
		{
			"inputs": [
				{
					"internalType": "address",
					"name": "toRemove",
					"type": "address"
				}
			],
			"name": "renounceOwnership",
			"outputs": [],
			"stateMutability": "nonpayable",
			"type": "function"
		},
		{
			"inputs": [],
			"name": "symbol",
			"outputs": [
				{
					"internalType": "string",
					"name": "",
					"type": "string"
				}
			],
			"stateMutability": "view",
			"type": "function"
		},
		{
			"inputs": [],
			"name": "totalSupply",
			"outputs": [
				{
					"internalType": "uint256",
					"name": "",
					"type": "uint256"
				}
			],
			"stateMutability": "view",
			"type": "function"
		},
		{
			"inputs": [
				{
					"internalType": "address",
					"name": "to",
					"type": "address"
				},
				{
					"internalType": "uint256",
					"name": "value",
					"type": "uint256"
				}
			],
			"name": "transfer",
			"outputs": [
				{
					"internalType": "bool",
					"name": "",
					"type": "bool"
				}
			],
			"stateMutability": "nonpayable",
			"type": "function"
		},
		{
			"inputs": [
				{
					"internalType": "address",
					"name": "from",
					"type": "address"
				},
				{
					"internalType": "address",
					"name": "to",
					"type": "address"
				},
				{
					"internalType": "uint256",
					"name": "value",
					"type": "uint256"
				}
			],
			"name": "transferFrom",
			"outputs": [
				{
					"internalType": "bool",
					"name": "",
					"type": "bool"
				}
			],
			"stateMutability": "nonpayable",
			"type": "function"
		}
	]
}