{
	"data": {
		"bytecode": {
			"linkReferences": {
				"contracts/AddressReg.sol": {
					"LibRegistryAdd": [
						{
							"length": 20,
							"start": 2053
						},
						{
							"length": 20,
							"start": 2314
						},
						{
							"length": 20,
							"start": 3038
						},
						{
							"length": 20,
							"start": 3236
						},
						{
							"length": 20,
							"start": 3930
						},
						{
							"length": 20,
							"start": 4057
						},
						{
							"length": 20,
							"start": 4184
						},
						{
							"length": 20,
							"start": 4311
						},
						{
							"length": 20,
							"start": 5550
						}
					]
				}
			},
			"object": "6080604052600160065569010f0cf064dd59200000600855683635c9adc5dea0000060095534801561002f575f5ffd5b50604051611b37380380611b3783398101604081905261004e916101a8565b600180546001600160a01b038087166001600160a01b0319928316179092558251600380549190931691161781556020820151829186918391906004906100959082610343565b506040820151816002015f6101000a81548160ff021916908360028111156100bf576100bf6103fd565b021790555050601080546001600160a01b03199081166001600160a01b03998a1617909155600f80548216978916979097179096555050600e80549094169290941691909117909155505042600755610411565b80516001600160a01b0381168114610129575f5ffd5b919050565b634e487b7160e01b5f52604160045260245ffd5b604051606081016001600160401b03811182821017156101645761016461012e565b60405290565b604051601f8201601f191681016001600160401b03811182821017156101925761019261012e565b604052919050565b805160038110610129575f5ffd5b5f5f5f5f608085870312156101bb575f5ffd5b6101c485610113565b93506101d260208601610113565b92506101e060408601610113565b60608601519092506001600160401b038111156101fb575f5ffd5b85016060818803121561020c575f5ffd5b610214610142565b61021d82610113565b815260208201516001600160401b03811115610237575f5ffd5b8201601f81018913610247575f5ffd5b80516001600160401b038111156102605761026061012e565b610273601f8201601f191660200161016a565b8181528a6020838501011115610287575f5ffd5b8160208401602083015e5f602083830101528060208501525050506102ae6040830161019a565b604082015294979396509194505050565b600181811c908216806102d357607f821691505b6020821081036102f157634e487b7160e01b5f52602260045260245ffd5b50919050565b601f82111561033e57805f5260205f20601f840160051c8101602085101561031c5750805b601f840160051c820191505b8181101561033b575f8155600101610328565b50505b505050565b81516001600160401b0381111561035c5761035c61012e565b6103708161036a84546102bf565b846102f7565b6020601f8211600181146103a2575f831561038b5750848201515b5f19600385901b1c1916600184901b17845561033b565b5f84815260208120601f198516915b828110156103d157878501518255602094850194600190920191016103b1565b50848210156103ee57868401515f19600387901b60f8161c191681555b50505050600190811b01905550565b634e487b7160e01b5f52602160045260245ffd5b6117198061041e5f395ff3fe608060405234801561000f575f5ffd5b5060043610610174575f3560e01c80638bb730b1116100d5578063b88a802f11610084578063b88a802f14610313578063bdf7acce1461031b578063c2f8498d14610324578063c4fbbe5414610344578063d40dc87014610357578063ea4a110414610360578063edf3b6ca1461039b575f5ffd5b80638bb730b11461026b5780639ee7c9931461027e578063a1a418a414610291578063a5985e8c146102a4578063a66b02c2146102b7578063af640d0f146102ca578063b7b7fac7146102e1575f5ffd5b8063384b463611610131578063384b4636146101f957806347ee03941461020c57806360df8a1f146102215780636558954f146102345780636ea69d621461023d5780637284e416146102505780638ac59f7f14610258575f5ffd5b8063086146d214610178578063123f2a551461019357806313007d551461019b5780631a092541146101c6578063248ec326146101db5780632d7f74f2146101e4575b5f5ffd5b6101806103ae565b6040519081526020015b60405180910390f35b6101806103cf565b6010546101ae906001600160a01b031681565b6040516001600160a01b03909116815260200161018a565b6101ce610443565b60405161018a91906112e6565b61018060085481565b6101ec6104d3565b60405161018a91906112f8565b61018061020736600461135a565b6105a3565b61021f61021a36600461135a565b6105df565b005b61021f61022f366004611375565b6108e0565b610180610e1081565b600e546101ae906001600160a01b031681565b6101ce610972565b61021f61026636600461135a565b610877565b61018061027936600461135a565b6109fe565b61021f61028c36600461138c565b610a3a565b600f546101ae906001600160a01b031681565b60055460ff1660405161018a91906113d2565b61021f6102c53660046113e6565b610b2d565b6102d2610d48565b60405161018a93929190611450565b6103036102ef366004611375565b5f6020819052908152604090205460ff1681565b604051901515815260200161018a565b61021f610df0565b61018060075481565b61033761033236600461135a565b610f8c565b60405161018a919061148a565b6101806103523660046114c1565b611040565b61018060095481565b61038661036e366004611375565b600a6020525f90815260409020805460019091015482565b6040805192835260208301919091520161018a565b61021f6103a9366004611375565b61106e565b5f610e10600754426103c091906114ff565b6103ca9190611512565b905090565b60405163bc7fb2b560e01b8152600b60048201525f9073__$e1f060530584cbd9762c33710bf2fcee28$__9063bc7fb2b590602401602060405180830381865af415801561041f573d5f5f3e3d5ffd5b505050506040513d601f19601f820116820180604052508101906103ca9190611531565b60606002805461045290611548565b80601f016020809104026020016040519081016040528092919081815260200182805461047e90611548565b80156104c95780601f106104a0576101008083540402835291602001916104c9565b820191905f5260205f20905b8154815290600101906020018083116104ac57829003601f168201915b5050505050905090565b6040516319687fd360e01b8152600b600482015260609073__$e1f060530584cbd9762c33710bf2fcee28$__906319687fd390602401602060405180830381865af4158015610524573d5f5f3e3d5ffd5b505050506040513d601f19601f820116820180604052508101906105489190611531565b8054806020026020016040519081016040528092919081815260200182805480156104c957602002820191905f5260205f20905b81546001600160a01b0316815260019091019060200180831161057c575050505050905090565b5f5f6105ad6103ae565b5f908152600a602090815260408083206001600160a01b03909616835260039095019052929092206001015492915050565b6010546040516311d1d6b960e11b81526001600160a01b03909116906323a3ad72906106119033906004908101611590565b602060405180830381865afa15801561062c573d5f5f3e3d5ffd5b505050506040513d601f19601f8201168201806040525081019061065091906115b6565b6106755760405162461bcd60e51b815260040161066c906115d5565b60405180910390fd5b600f5460408051630dfe168160e01b815290516001600160a01b0392831692841691630dfe16819160048083019260209291908290030181865afa1580156106bf573d5f5f3e3d5ffd5b505050506040513d601f19601f820116820180604052508101906106e39190611600565b6001600160a01b0316148061076c5750600f546040805163d21220a760e01b815290516001600160a01b039283169284169163d21220a79160048083019260209291908290030181865afa15801561073d573d5f5f3e3d5ffd5b505050506040513d601f19601f820116820180604052508101906107619190611600565b6001600160a01b0316145b6107b15760405162461bcd60e51b8152602060048201526016602482015275058555344206973206e6f7420696e2074686174204c560541b604482015260640161066c565b604051633879ffd560e01b815273__$e1f060530584cbd9762c33710bf2fcee28$__90633879ffd5906107eb90600b90329060040161161b565b602060405180830381865af4158015610806573d5f5f3e3d5ffd5b505050506040513d601f19601f8201168201806040525081019061082a91906115b6565b156108775760405162461bcd60e51b815260206004820152601b60248201527f4f6e6c7920616c6c6f77656420746f207375626d6974206f6e63650000000000604482015260640161066c565b60405163d6f44de960e01b815273__$e1f060530584cbd9762c33710bf2fcee28$__9063d6f44de9906108b190600b90859060040161161b565b5f6040518083038186803b1580156108c7575f5ffd5b505af41580156108d9573d5f5f3e3d5ffd5b5050505050565b6010546040516311d1d6b960e11b81526001600160a01b03909116906323a3ad72906109129033906004908101611590565b602060405180830381865afa15801561092d573d5f5f3e3d5ffd5b505050506040513d601f19601f8201168201806040525081019061095191906115b6565b61096d5760405162461bcd60e51b815260040161066c906115d5565b600855565b6002805461097f90611548565b80601f01602080910402602001604051908101604052809291908181526020018280546109ab90611548565b80156109f65780601f106109cd576101008083540402835291602001916109f6565b820191905f5260205f20905b8154815290600101906020018083116109d957829003601f168201915b505050505081565b5f5f610a086103ae565b5f908152600a602090815260408083206001600160a01b03909616835260029095019052929092206001015492915050565b600154604051631035dec960e31b81526001600160a01b03909116906381aef64890610a6c9060049033908201611632565b602060405180830381865afa158015610a87573d5f5f3e3d5ffd5b505050506040513d601f19601f82011682018060405250810190610aab91906115b6565b610b065760405162461bcd60e51b815260206004820152602660248201527f43616c6c657220646f6573206e6f742068617665207468652072657175697265604482015265642072616e6b60d01b606482015260840161066c565b6005805482919060ff19166001836002811115610b2557610b256113aa565b021790555050565b604051633879ffd560e01b815273__$e1f060530584cbd9762c33710bf2fcee28$__90633879ffd590610b6790600b908a9060040161161b565b602060405180830381865af4158015610b82573d5f5f3e3d5ffd5b505050506040513d601f19601f82011682018060405250810190610ba691906115b6565b80610c255750604051633879ffd560e01b815273__$e1f060530584cbd9762c33710bf2fcee28$__90633879ffd590610be690600b90899060040161161b565b602060405180830381865af4158015610c01573d5f5f3e3d5ffd5b505050506040513d601f19601f82011682018060405250810190610c2591906115b6565b80610ca45750604051633879ffd560e01b815273__$e1f060530584cbd9762c33710bf2fcee28$__90633879ffd590610c6590600b90889060040161161b565b602060405180830381865af4158015610c80573d5f5f3e3d5ffd5b505050506040513d601f19601f82011682018060405250810190610ca491906115b6565b80610d235750604051633879ffd560e01b815273__$e1f060530584cbd9762c33710bf2fcee28$__90633879ffd590610ce490600b90879060040161161b565b602060405180830381865af4158015610cff573d5f5f3e3d5ffd5b505050506040513d601f19601f82011682018060405250810190610d2391906115b6565b8015610d3157506107d08113155b15610d4057610d408285611100565b505050505050565b60038054600480546001600160a01b039092169291610d6690611548565b80601f0160208091040260200160405190810160405280929190818152602001828054610d9290611548565b8015610ddd5780601f10610db457610100808354040283529160200191610ddd565b820191905f5260205f20905b815481529060010190602001808311610dc057829003601f168201915b5050506002909301549192505060ff1683565b600654600114610e125760405162461bcd60e51b815260040161066c90611657565b60026006555f610e206103ae565b5f818152600a60209081526040808320328085526002820190935292206001810154939450919290919080610e8e5760405162461bcd60e51b81526020600482015260146024820152734e6f207265776172647320617661696c61626c6560601b604482015260640161066c565b5f60018301819055600e54604080516001600160a01b038781166024830152604480830187905283518084039091018152606490920183526020820180516001600160e01b03166307b22ee360e21b17905291519190921691610ef09161167b565b5f604051808303815f865af19150503d805f8114610f29576040519150601f19603f3d011682016040523d82523d5f602084013e610f2e565b606091505b5050905080610f7f5760405162461bcd60e51b815260206004820152601a60248201527f52657761726420646973747269627574696f6e206661696c6564000000000000604482015260640161066c565b5050600160065550505050565b60605f610f976103ae565b90505f8167ffffffffffffffff811115610fb357610fb3611691565b604051908082528060200260200182016040528015610fdc578160200160208202803683370190505b5090505f5b82811015611038575f818152600a602090815260408083206001600160a01b03891684526002019091529020600101548251839083908110611025576110256116a5565b6020908102919091010152600101610fe1565b509392505050565b5f6006546001146110635760405162461bcd60e51b815260040161066c90611657565b600160065592915050565b6010546040516311d1d6b960e11b81526001600160a01b03909116906323a3ad72906110a09033906004908101611590565b602060405180830381865afa1580156110bb573d5f5f3e3d5ffd5b505050506040513d601f19601f820116820180604052508101906110df91906115b6565b6110fb5760405162461bcd60e51b815260040161066c906115d5565b600955565b5f6111096103ae565b5f818152600a6020908152604080832032808552600282019093529083208054949550909391929091879183916111419084906116b9565b90915550506001600160a01b0385165f90815260038401602052604081208054909188918391906111739084906116b9565b909155505060405163bc7fb2b560e01b8152600b60048201525f9073__$e1f060530584cbd9762c33710bf2fcee28$__9063bc7fb2b590602401602060405180830381865af41580156111c8573d5f5f3e3d5ffd5b505050506040513d601f19601f820116820180604052508101906111ec9190611531565b6008546111f99190611512565b90505f61120a8983885f015461128a565b905060095481111561121b57506009545b80846001015f82825461122e91906116b9565b9250508190555080836001015f82825461124891906116b9565b90915550508554899087905f906112609084906116b9565b9250508190555080866001015f82825461127a91906116b9565b9091555050505050505050505050565b5f815f0361129957505f6112b1565b816112a484866116cc565b6112ae9190611512565b90505b9392505050565b5f81518084528060208401602086015e5f602082860101526020601f19601f83011685010191505092915050565b602081525f6112b160208301846112b8565b602080825282518282018190525f918401906040840190835b818110156113385783516001600160a01b0316835260209384019390920191600101611311565b509095945050505050565b6001600160a01b0381168114611357575f5ffd5b50565b5f6020828403121561136a575f5ffd5b81356112b181611343565b5f60208284031215611385575f5ffd5b5035919050565b5f6020828403121561139c575f5ffd5b8135600381106112b1575f5ffd5b634e487b7160e01b5f52602160045260245ffd5b600381106113ce576113ce6113aa565b9052565b602081016113e082846113be565b92915050565b5f5f5f5f5f5f60c087890312156113fb575f5ffd5b863561140681611343565b9550602087013561141681611343565b9450604087013561142681611343565b9350606087013561143681611343565b9598949750929560808101359460a0909101359350915050565b6001600160a01b03841681526060602082018190525f90611473908301856112b8565b905061148260408301846113be565b949350505050565b602080825282518282018190525f918401906040840190835b818110156113385783518352602093840193909201916001016114a3565b5f5f604083850312156114d2575f5ffd5b82356114dd81611343565b946020939093013593505050565b634e487b7160e01b5f52601160045260245ffd5b818103818111156113e0576113e06114eb565b5f8261152c57634e487b7160e01b5f52601260045260245ffd5b500490565b5f60208284031215611541575f5ffd5b5051919050565b600181811c9082168061155c57607f821691505b60208210810361157a57634e487b7160e01b5f52602260045260245ffd5b50919050565b60068110611357576113576113aa565b6001600160a01b0383168152604081016115a983611580565b8260208301529392505050565b5f602082840312156115c6575f5ffd5b815180151581146112b1575f5ffd5b6020808252601190820152701058d8d95cdcc814995cdd1c9a58dd1959607a1b604082015260600190565b5f60208284031215611610575f5ffd5b81516112b181611343565b9182526001600160a01b0316602082015260400190565b6040810161163f84611580565b9281526001600160a01b039190911660209091015290565b6020808252600a90820152695245454e5452414e435960b01b604082015260600190565b5f82518060208501845e5f920191825250919050565b634e487b7160e01b5f52604160045260245ffd5b634e487b7160e01b5f52603260045260245ffd5b808201808211156113e0576113e06114eb565b80820281158282048414176113e0576113e06114eb56fea26469706673582212203241f1a4883e68afc8f47a2192638a9c635414400b8aee6872fef53d0c88066364736f6c634300081b0033",
			"opcodes": "PUSH1 0x80 PUSH1 0x40 MSTORE PUSH1 0x1 PUSH1 0x6 SSTORE PUSH10 0x10F0CF064DD59200000 PUSH1 0x8 SSTORE PUSH9 0x3635C9ADC5DEA00000 PUSH1 0x9 SSTORE CALLVALUE DUP1 ISZERO PUSH2 0x2F JUMPI PUSH0 PUSH0 REVERT JUMPDEST POP PUSH1 0x40 MLOAD PUSH2 0x1B37 CODESIZE SUB DUP1 PUSH2 0x1B37 DUP4 CODECOPY DUP2 ADD PUSH1 0x40 DUP2 SWAP1 MSTORE PUSH2 0x4E SWAP2 PUSH2 0x1A8 JUMP JUMPDEST PUSH1 0x1 DUP1 SLOAD PUSH1 0x1 PUSH1 0x1 PUSH1 0xA0 SHL SUB DUP1 DUP8 AND PUSH1 0x1 PUSH1 0x1 PUSH1 0xA0 SHL SUB NOT SWAP3 DUP4 AND OR SWAP1 SWAP3 SSTORE DUP3 MLOAD PUSH1 0x3 DUP1 SLOAD SWAP2 SWAP1 SWAP4 AND SWAP2 AND OR DUP2 SSTORE PUSH1 0x20 DUP3 ADD MLOAD DUP3 SWAP2 DUP7 SWAP2 DUP4 SWAP2 SWAP1 PUSH1 0x4 SWAP1 PUSH2 0x95 SWAP1 DUP3 PUSH2 0x343 JUMP JUMPDEST POP PUSH1 0x40 DUP3 ADD MLOAD DUP2 PUSH1 0x2 ADD PUSH0 PUSH2 0x100 EXP DUP2 SLOAD DUP2 PUSH1 0xFF MUL NOT AND SWAP1 DUP4 PUSH1 0x2 DUP2 GT ISZERO PUSH2 0xBF JUMPI PUSH2 0xBF PUSH2 0x3FD JUMP JUMPDEST MUL OR SWAP1 SSTORE POP POP PUSH1 0x10 DUP1 SLOAD PUSH1 0x1 PUSH1 0x1 PUSH1 0xA0 SHL SUB NOT SWAP1 DUP2 AND PUSH1 0x1 PUSH1 0x1 PUSH1 0xA0 SHL SUB SWAP10 DUP11 AND OR SWAP1 SWAP2 SSTORE PUSH1 0xF DUP1 SLOAD DUP3 AND SWAP8 DUP10 AND SWAP8 SWAP1 SWAP8 OR SWAP1 SWAP7 SSTORE POP POP PUSH1 0xE DUP1 SLOAD SWAP1 SWAP5 AND SWAP3 SWAP1 SWAP5 AND SWAP2 SWAP1 SWAP2 OR SWAP1 SWAP2 SSTORE POP POP TIMESTAMP PUSH1 0x7 SSTORE PUSH2 0x411 JUMP JUMPDEST DUP1 MLOAD PUSH1 0x1 PUSH1 0x1 PUSH1 0xA0 SHL SUB DUP2 AND DUP2 EQ PUSH2 0x129 JUMPI PUSH0 PUSH0 REVERT JUMPDEST SWAP2 SWAP1 POP JUMP JUMPDEST PUSH4 0x4E487B71 PUSH1 0xE0 SHL PUSH0 MSTORE PUSH1 0x41 PUSH1 0x4 MSTORE PUSH1 0x24 PUSH0 REVERT JUMPDEST PUSH1 0x40 MLOAD PUSH1 0x60 DUP2 ADD PUSH1 0x1 PUSH1 0x1 PUSH1 0x40 SHL SUB DUP2 GT DUP3 DUP3 LT OR ISZERO PUSH2 0x164 JUMPI PUSH2 0x164 PUSH2 0x12E JUMP JUMPDEST PUSH1 0x40 MSTORE SWAP1 JUMP JUMPDEST PUSH1 0x40 MLOAD PUSH1 0x1F DUP3 ADD PUSH1 0x1F NOT AND DUP2 ADD PUSH1 0x1 PUSH1 0x1 PUSH1 0x40 SHL SUB DUP2 GT DUP3 DUP3 LT OR ISZERO PUSH2 0x192 JUMPI PUSH2 0x192 PUSH2 0x12E JUMP JUMPDEST PUSH1 0x40 MSTORE SWAP2 SWAP1 POP JUMP JUMPDEST DUP1 MLOAD PUSH1 0x3 DUP2 LT PUSH2 0x129 JUMPI PUSH0 PUSH0 REVERT JUMPDEST PUSH0 PUSH0 PUSH0 PUSH0 PUSH1 0x80 DUP6 DUP8 SUB SLT ISZERO PUSH2 0x1BB JUMPI PUSH0 PUSH0 REVERT JUMPDEST PUSH2 0x1C4 DUP6 PUSH2 0x113 JUMP JUMPDEST SWAP4 POP PUSH2 0x1D2 PUSH1 0x20 DUP7 ADD PUSH2 0x113 JUMP JUMPDEST SWAP3 POP PUSH2 0x1E0 PUSH1 0x40 DUP7 ADD PUSH2 0x113 JUMP JUMPDEST PUSH1 0x60 DUP7 ADD MLOAD SWAP1 SWAP3 POP PUSH1 0x1 PUSH1 0x1 PUSH1 0x40 SHL SUB DUP2 GT ISZERO PUSH2 0x1FB JUMPI PUSH0 PUSH0 REVERT JUMPDEST DUP6 ADD PUSH1 0x60 DUP2 DUP9 SUB SLT ISZERO PUSH2 0x20C JUMPI PUSH0 PUSH0 REVERT JUMPDEST PUSH2 0x214 PUSH2 0x142 JUMP JUMPDEST PUSH2 0x21D DUP3 PUSH2 0x113 JUMP JUMPDEST DUP2 MSTORE PUSH1 0x20 DUP3 ADD MLOAD PUSH1 0x1 PUSH1 0x1 PUSH1 0x40 SHL SUB DUP2 GT ISZERO PUSH2 0x237 JUMPI PUSH0 PUSH0 REVERT JUMPDEST DUP3 ADD PUSH1 0x1F DUP2 ADD DUP10 SGT PUSH2 0x247 JUMPI PUSH0 PUSH0 REVERT JUMPDEST DUP1 MLOAD PUSH1 0x1 PUSH1 0x1 PUSH1 0x40 SHL SUB DUP2 GT ISZERO PUSH2 0x260 JUMPI PUSH2 0x260 PUSH2 0x12E JUMP JUMPDEST PUSH2 0x273 PUSH1 0x1F DUP3 ADD PUSH1 0x1F NOT AND PUSH1 0x20 ADD PUSH2 0x16A JUMP JUMPDEST DUP2 DUP2 MSTORE DUP11 PUSH1 0x20 DUP4 DUP6 ADD ADD GT ISZERO PUSH2 0x287 JUMPI PUSH0 PUSH0 REVERT JUMPDEST DUP2 PUSH1 0x20 DUP5 ADD PUSH1 0x20 DUP4 ADD MCOPY PUSH0 PUSH1 0x20 DUP4 DUP4 ADD ADD MSTORE DUP1 PUSH1 0x20 DUP6 ADD MSTORE POP POP POP PUSH2 0x2AE PUSH1 0x40 DUP4 ADD PUSH2 0x19A JUMP JUMPDEST PUSH1 0x40 DUP3 ADD MSTORE SWAP5 SWAP8 SWAP4 SWAP7 POP SWAP2 SWAP5 POP POP POP JUMP JUMPDEST PUSH1 0x1 DUP2 DUP2 SHR SWAP1 DUP3 AND DUP1 PUSH2 0x2D3 JUMPI PUSH1 0x7F DUP3 AND SWAP2 POP JUMPDEST PUSH1 0x20 DUP3 LT DUP2 SUB PUSH2 0x2F1 JUMPI PUSH4 0x4E487B71 PUSH1 0xE0 SHL PUSH0 MSTORE PUSH1 0x22 PUSH1 0x4 MSTORE PUSH1 0x24 PUSH0 REVERT JUMPDEST POP SWAP2 SWAP1 POP JUMP JUMPDEST PUSH1 0x1F DUP3 GT ISZERO PUSH2 0x33E JUMPI DUP1 PUSH0 MSTORE PUSH1 0x20 PUSH0 KECCAK256 PUSH1 0x1F DUP5 ADD PUSH1 0x5 SHR DUP2 ADD PUSH1 0x20 DUP6 LT ISZERO PUSH2 0x31C JUMPI POP DUP1 JUMPDEST PUSH1 0x1F DUP5 ADD PUSH1 0x5 SHR DUP3 ADD SWAP2 POP JUMPDEST DUP2 DUP2 LT ISZERO PUSH2 0x33B JUMPI PUSH0 DUP2 SSTORE PUSH1 0x1 ADD PUSH2 0x328 JUMP JUMPDEST POP POP JUMPDEST POP POP POP JUMP JUMPDEST DUP2 MLOAD PUSH1 0x1 PUSH1 0x1 PUSH1 0x40 SHL SUB DUP2 GT ISZERO PUSH2 0x35C JUMPI PUSH2 0x35C PUSH2 0x12E JUMP JUMPDEST PUSH2 0x370 DUP2 PUSH2 0x36A DUP5 SLOAD PUSH2 0x2BF JUMP JUMPDEST DUP5 PUSH2 0x2F7 JUMP JUMPDEST PUSH1 0x20 PUSH1 0x1F DUP3 GT PUSH1 0x1 DUP2 EQ PUSH2 0x3A2 JUMPI PUSH0 DUP4 ISZERO PUSH2 0x38B JUMPI POP DUP5 DUP3 ADD MLOAD JUMPDEST PUSH0 NOT PUSH1 0x3 DUP6 SWAP1 SHL SHR NOT AND PUSH1 0x1 DUP5 SWAP1 SHL OR DUP5 SSTORE PUSH2 0x33B JUMP JUMPDEST PUSH0 DUP5 DUP2 MSTORE PUSH1 0x20 DUP2 KECCAK256 PUSH1 0x1F NOT DUP6 AND SWAP2 JUMPDEST DUP3 DUP2 LT ISZERO PUSH2 0x3D1 JUMPI DUP8 DUP6 ADD MLOAD DUP3 SSTORE PUSH1 0x20 SWAP5 DUP6 ADD SWAP5 PUSH1 0x1 SWAP1 SWAP3 ADD SWAP2 ADD PUSH2 0x3B1 JUMP JUMPDEST POP DUP5 DUP3 LT ISZERO PUSH2 0x3EE JUMPI DUP7 DUP5 ADD MLOAD PUSH0 NOT PUSH1 0x3 DUP8 SWAP1 SHL PUSH1 0xF8 AND SHR NOT AND DUP2 SSTORE JUMPDEST POP POP POP POP PUSH1 0x1 SWAP1 DUP2 SHL ADD SWAP1 SSTORE POP JUMP JUMPDEST PUSH4 0x4E487B71 PUSH1 0xE0 SHL PUSH0 MSTORE PUSH1 0x21 PUSH1 0x4 MSTORE PUSH1 0x24 PUSH0 REVERT JUMPDEST PUSH2 0x1719 DUP1 PUSH2 0x41E PUSH0 CODECOPY PUSH0 RETURN INVALID PUSH1 0x80 PUSH1 0x40 MSTORE CALLVALUE DUP1 ISZERO PUSH2 0xF JUMPI PUSH0 PUSH0 REVERT JUMPDEST POP PUSH1 0x4 CALLDATASIZE LT PUSH2 0x174 JUMPI PUSH0 CALLDATALOAD PUSH1 0xE0 SHR DUP1 PUSH4 0x8BB730B1 GT PUSH2 0xD5 JUMPI DUP1 PUSH4 0xB88A802F GT PUSH2 0x84 JUMPI DUP1 PUSH4 0xB88A802F EQ PUSH2 0x313 JUMPI DUP1 PUSH4 0xBDF7ACCE EQ PUSH2 0x31B JUMPI DUP1 PUSH4 0xC2F8498D EQ PUSH2 0x324 JUMPI DUP1 PUSH4 0xC4FBBE54 EQ PUSH2 0x344 JUMPI DUP1 PUSH4 0xD40DC870 EQ PUSH2 0x357 JUMPI DUP1 PUSH4 0xEA4A1104 EQ PUSH2 0x360 JUMPI DUP1 PUSH4 0xEDF3B6CA EQ PUSH2 0x39B JUMPI PUSH0 PUSH0 REVERT JUMPDEST DUP1 PUSH4 0x8BB730B1 EQ PUSH2 0x26B JUMPI DUP1 PUSH4 0x9EE7C993 EQ PUSH2 0x27E JUMPI DUP1 PUSH4 0xA1A418A4 EQ PUSH2 0x291 JUMPI DUP1 PUSH4 0xA5985E8C EQ PUSH2 0x2A4 JUMPI DUP1 PUSH4 0xA66B02C2 EQ PUSH2 0x2B7 JUMPI DUP1 PUSH4 0xAF640D0F EQ PUSH2 0x2CA JUMPI DUP1 PUSH4 0xB7B7FAC7 EQ PUSH2 0x2E1 JUMPI PUSH0 PUSH0 REVERT JUMPDEST DUP1 PUSH4 0x384B4636 GT PUSH2 0x131 JUMPI DUP1 PUSH4 0x384B4636 EQ PUSH2 0x1F9 JUMPI DUP1 PUSH4 0x47EE0394 EQ PUSH2 0x20C JUMPI DUP1 PUSH4 0x60DF8A1F EQ PUSH2 0x221 JUMPI DUP1 PUSH4 0x6558954F EQ PUSH2 0x234 JUMPI DUP1 PUSH4 0x6EA69D62 EQ PUSH2 0x23D JUMPI DUP1 PUSH4 0x7284E416 EQ PUSH2 0x250 JUMPI DUP1 PUSH4 0x8AC59F7F EQ PUSH2 0x258 JUMPI PUSH0 PUSH0 REVERT JUMPDEST DUP1 PUSH4 0x86146D2 EQ PUSH2 0x178 JUMPI DUP1 PUSH4 0x123F2A55 EQ PUSH2 0x193 JUMPI DUP1 PUSH4 0x13007D55 EQ PUSH2 0x19B JUMPI DUP1 PUSH4 0x1A092541 EQ PUSH2 0x1C6 JUMPI DUP1 PUSH4 0x248EC326 EQ PUSH2 0x1DB JUMPI DUP1 PUSH4 0x2D7F74F2 EQ PUSH2 0x1E4 JUMPI JUMPDEST PUSH0 PUSH0 REVERT JUMPDEST PUSH2 0x180 PUSH2 0x3AE JUMP JUMPDEST PUSH1 0x40 MLOAD SWAP1 DUP2 MSTORE PUSH1 0x20 ADD JUMPDEST PUSH1 0x40 MLOAD DUP1 SWAP2 SUB SWAP1 RETURN JUMPDEST PUSH2 0x180 PUSH2 0x3CF JUMP JUMPDEST PUSH1 0x10 SLOAD PUSH2 0x1AE SWAP1 PUSH1 0x1 PUSH1 0x1 PUSH1 0xA0 SHL SUB AND DUP2 JUMP JUMPDEST PUSH1 0x40 MLOAD PUSH1 0x1 PUSH1 0x1 PUSH1 0xA0 SHL SUB SWAP1 SWAP2 AND DUP2 MSTORE PUSH1 0x20 ADD PUSH2 0x18A JUMP JUMPDEST PUSH2 0x1CE PUSH2 0x443 JUMP JUMPDEST PUSH1 0x40 MLOAD PUSH2 0x18A SWAP2 SWAP1 PUSH2 0x12E6 JUMP JUMPDEST PUSH2 0x180 PUSH1 0x8 SLOAD DUP2 JUMP JUMPDEST PUSH2 0x1EC PUSH2 0x4D3 JUMP JUMPDEST PUSH1 0x40 MLOAD PUSH2 0x18A SWAP2 SWAP1 PUSH2 0x12F8 JUMP JUMPDEST PUSH2 0x180 PUSH2 0x207 CALLDATASIZE PUSH1 0x4 PUSH2 0x135A JUMP JUMPDEST PUSH2 0x5A3 JUMP JUMPDEST PUSH2 0x21F PUSH2 0x21A CALLDATASIZE PUSH1 0x4 PUSH2 0x135A JUMP JUMPDEST PUSH2 0x5DF JUMP JUMPDEST STOP JUMPDEST PUSH2 0x21F PUSH2 0x22F CALLDATASIZE PUSH1 0x4 PUSH2 0x1375 JUMP JUMPDEST PUSH2 0x8E0 JUMP JUMPDEST PUSH2 0x180 PUSH2 0xE10 DUP2 JUMP JUMPDEST PUSH1 0xE SLOAD PUSH2 0x1AE SWAP1 PUSH1 0x1 PUSH1 0x1 PUSH1 0xA0 SHL SUB AND DUP2 JUMP JUMPDEST PUSH2 0x1CE PUSH2 0x972 JUMP JUMPDEST PUSH2 0x21F PUSH2 0x266 CALLDATASIZE PUSH1 0x4 PUSH2 0x135A JUMP JUMPDEST PUSH2 0x877 JUMP JUMPDEST PUSH2 0x180 PUSH2 0x279 CALLDATASIZE PUSH1 0x4 PUSH2 0x135A JUMP JUMPDEST PUSH2 0x9FE JUMP JUMPDEST PUSH2 0x21F PUSH2 0x28C CALLDATASIZE PUSH1 0x4 PUSH2 0x138C JUMP JUMPDEST PUSH2 0xA3A JUMP JUMPDEST PUSH1 0xF SLOAD PUSH2 0x1AE SWAP1 PUSH1 0x1 PUSH1 0x1 PUSH1 0xA0 SHL SUB AND DUP2 JUMP JUMPDEST PUSH1 0x5 SLOAD PUSH1 0xFF AND PUSH1 0x40 MLOAD PUSH2 0x18A SWAP2 SWAP1 PUSH2 0x13D2 JUMP JUMPDEST PUSH2 0x21F PUSH2 0x2C5 CALLDATASIZE PUSH1 0x4 PUSH2 0x13E6 JUMP JUMPDEST PUSH2 0xB2D JUMP JUMPDEST PUSH2 0x2D2 PUSH2 0xD48 JUMP JUMPDEST PUSH1 0x40 MLOAD PUSH2 0x18A SWAP4 SWAP3 SWAP2 SWAP1 PUSH2 0x1450 JUMP JUMPDEST PUSH2 0x303 PUSH2 0x2EF CALLDATASIZE PUSH1 0x4 PUSH2 0x1375 JUMP JUMPDEST PUSH0 PUSH1 0x20 DUP2 SWAP1 MSTORE SWAP1 DUP2 MSTORE PUSH1 0x40 SWAP1 KECCAK256 SLOAD PUSH1 0xFF AND DUP2 JUMP JUMPDEST PUSH1 0x40 MLOAD SWAP1 ISZERO ISZERO DUP2 MSTORE PUSH1 0x20 ADD PUSH2 0x18A JUMP JUMPDEST PUSH2 0x21F PUSH2 0xDF0 JUMP JUMPDEST PUSH2 0x180 PUSH1 0x7 SLOAD DUP2 JUMP JUMPDEST PUSH2 0x337 PUSH2 0x332 CALLDATASIZE PUSH1 0x4 PUSH2 0x135A JUMP JUMPDEST PUSH2 0xF8C JUMP JUMPDEST PUSH1 0x40 MLOAD PUSH2 0x18A SWAP2 SWAP1 PUSH2 0x148A JUMP JUMPDEST PUSH2 0x180 PUSH2 0x352 CALLDATASIZE PUSH1 0x4 PUSH2 0x14C1 JUMP JUMPDEST PUSH2 0x1040 JUMP JUMPDEST PUSH2 0x180 PUSH1 0x9 SLOAD DUP2 JUMP JUMPDEST PUSH2 0x386 PUSH2 0x36E CALLDATASIZE PUSH1 0x4 PUSH2 0x1375 JUMP JUMPDEST PUSH1 0xA PUSH1 0x20 MSTORE PUSH0 SWAP1 DUP2 MSTORE PUSH1 0x40 SWAP1 KECCAK256 DUP1 SLOAD PUSH1 0x1 SWAP1 SWAP2 ADD SLOAD DUP3 JUMP JUMPDEST PUSH1 0x40 DUP1 MLOAD SWAP3 DUP4 MSTORE PUSH1 0x20 DUP4 ADD SWAP2 SWAP1 SWAP2 MSTORE ADD PUSH2 0x18A JUMP JUMPDEST PUSH2 0x21F PUSH2 0x3A9 CALLDATASIZE PUSH1 0x4 PUSH2 0x1375 JUMP JUMPDEST PUSH2 0x106E JUMP JUMPDEST PUSH0 PUSH2 0xE10 PUSH1 0x7 SLOAD TIMESTAMP PUSH2 0x3C0 SWAP2 SWAP1 PUSH2 0x14FF JUMP JUMPDEST PUSH2 0x3CA SWAP2 SWAP1 PUSH2 0x1512 JUMP JUMPDEST SWAP1 POP SWAP1 JUMP JUMPDEST PUSH1 0x40 MLOAD PUSH4 0xBC7FB2B5 PUSH1 0xE0 SHL DUP2 MSTORE PUSH1 0xB PUSH1 0x4 DUP3 ADD MSTORE PUSH0 SWAP1 PUSH20 0x0 SWAP1 PUSH4 0xBC7FB2B5 SWAP1 PUSH1 0x24 ADD PUSH1 0x20 PUSH1 0x40 MLOAD DUP1 DUP4 SUB DUP2 DUP7 GAS DELEGATECALL ISZERO DUP1 ISZERO PUSH2 0x41F JUMPI RETURNDATASIZE PUSH0 PUSH0 RETURNDATACOPY RETURNDATASIZE PUSH0 REVERT JUMPDEST POP POP POP POP PUSH1 0x40 MLOAD RETURNDATASIZE PUSH1 0x1F NOT PUSH1 0x1F DUP3 ADD AND DUP3 ADD DUP1 PUSH1 0x40 MSTORE POP DUP2 ADD SWAP1 PUSH2 0x3CA SWAP2 SWAP1 PUSH2 0x1531 JUMP JUMPDEST PUSH1 0x60 PUSH1 0x2 DUP1 SLOAD PUSH2 0x452 SWAP1 PUSH2 0x1548 JUMP JUMPDEST DUP1 PUSH1 0x1F ADD PUSH1 0x20 DUP1 SWAP2 DIV MUL PUSH1 0x20 ADD PUSH1 0x40 MLOAD SWAP1 DUP2 ADD PUSH1 0x40 MSTORE DUP1 SWAP3 SWAP2 SWAP1 DUP2 DUP2 MSTORE PUSH1 0x20 ADD DUP3 DUP1 SLOAD PUSH2 0x47E SWAP1 PUSH2 0x1548 JUMP JUMPDEST DUP1 ISZERO PUSH2 0x4C9 JUMPI DUP1 PUSH1 0x1F LT PUSH2 0x4A0 JUMPI PUSH2 0x100 DUP1 DUP4 SLOAD DIV MUL DUP4 MSTORE SWAP2 PUSH1 0x20 ADD SWAP2 PUSH2 0x4C9 JUMP JUMPDEST DUP3 ADD SWAP2 SWAP1 PUSH0 MSTORE PUSH1 0x20 PUSH0 KECCAK256 SWAP1 JUMPDEST DUP2 SLOAD DUP2 MSTORE SWAP1 PUSH1 0x1 ADD SWAP1 PUSH1 0x20 ADD DUP1 DUP4 GT PUSH2 0x4AC JUMPI DUP3 SWAP1 SUB PUSH1 0x1F AND DUP3 ADD SWAP2 JUMPDEST POP POP POP POP POP SWAP1 POP SWAP1 JUMP JUMPDEST PUSH1 0x40 MLOAD PUSH4 0x19687FD3 PUSH1 0xE0 SHL DUP2 MSTORE PUSH1 0xB PUSH1 0x4 DUP3 ADD MSTORE PUSH1 0x60 SWAP1 PUSH20 0x0 SWAP1 PUSH4 0x19687FD3 SWAP1 PUSH1 0x24 ADD PUSH1 0x20 PUSH1 0x40 MLOAD DUP1 DUP4 SUB DUP2 DUP7 GAS DELEGATECALL ISZERO DUP1 ISZERO PUSH2 0x524 JUMPI RETURNDATASIZE PUSH0 PUSH0 RETURNDATACOPY RETURNDATASIZE PUSH0 REVERT JUMPDEST POP POP POP POP PUSH1 0x40 MLOAD RETURNDATASIZE PUSH1 0x1F NOT PUSH1 0x1F DUP3 ADD AND DUP3 ADD DUP1 PUSH1 0x40 MSTORE POP DUP2 ADD SWAP1 PUSH2 0x548 SWAP2 SWAP1 PUSH2 0x1531 JUMP JUMPDEST DUP1 SLOAD DUP1 PUSH1 0x20 MUL PUSH1 0x20 ADD PUSH1 0x40 MLOAD SWAP1 DUP2 ADD PUSH1 0x40 MSTORE DUP1 SWAP3 SWAP2 SWAP1 DUP2 DUP2 MSTORE PUSH1 0x20 ADD DUP3 DUP1 SLOAD DUP1 ISZERO PUSH2 0x4C9 JUMPI PUSH1 0x20 MUL DUP3 ADD SWAP2 SWAP1 PUSH0 MSTORE PUSH1 0x20 PUSH0 KECCAK256 SWAP1 JUMPDEST DUP2 SLOAD PUSH1 0x1 PUSH1 0x1 PUSH1 0xA0 SHL SUB AND DUP2 MSTORE PUSH1 0x1 SWAP1 SWAP2 ADD SWAP1 PUSH1 0x20 ADD DUP1 DUP4 GT PUSH2 0x57C JUMPI POP POP POP POP POP SWAP1 POP SWAP1 JUMP JUMPDEST PUSH0 PUSH0 PUSH2 0x5AD PUSH2 0x3AE JUMP JUMPDEST PUSH0 SWAP1 DUP2 MSTORE PUSH1 0xA PUSH1 0x20 SWAP1 DUP2 MSTORE PUSH1 0x40 DUP1 DUP4 KECCAK256 PUSH1 0x1 PUSH1 0x1 PUSH1 0xA0 SHL SUB SWAP1 SWAP7 AND DUP4 MSTORE PUSH1 0x3 SWAP1 SWAP6 ADD SWAP1 MSTORE SWAP3 SWAP1 SWAP3 KECCAK256 PUSH1 0x1 ADD SLOAD SWAP3 SWAP2 POP POP JUMP JUMPDEST PUSH1 0x10 SLOAD PUSH1 0x40 MLOAD PUSH4 0x11D1D6B9 PUSH1 0xE1 SHL DUP2 MSTORE PUSH1 0x1 PUSH1 0x1 PUSH1 0xA0 SHL SUB SWAP1 SWAP2 AND SWAP1 PUSH4 0x23A3AD72 SWAP1 PUSH2 0x611 SWAP1 CALLER SWAP1 PUSH1 0x4 SWAP1 DUP2 ADD PUSH2 0x1590 JUMP JUMPDEST PUSH1 0x20 PUSH1 0x40 MLOAD DUP1 DUP4 SUB DUP2 DUP7 GAS STATICCALL ISZERO DUP1 ISZERO PUSH2 0x62C JUMPI RETURNDATASIZE PUSH0 PUSH0 RETURNDATACOPY RETURNDATASIZE PUSH0 REVERT JUMPDEST POP POP POP POP PUSH1 0x40 MLOAD RETURNDATASIZE PUSH1 0x1F NOT PUSH1 0x1F DUP3 ADD AND DUP3 ADD DUP1 PUSH1 0x40 MSTORE POP DUP2 ADD SWAP1 PUSH2 0x650 SWAP2 SWAP1 PUSH2 0x15B6 JUMP JUMPDEST PUSH2 0x675 JUMPI PUSH1 0x40 MLOAD PUSH3 0x461BCD PUSH1 0xE5 SHL DUP2 MSTORE PUSH1 0x4 ADD PUSH2 0x66C SWAP1 PUSH2 0x15D5 JUMP JUMPDEST PUSH1 0x40 MLOAD DUP1 SWAP2 SUB SWAP1 REVERT JUMPDEST PUSH1 0xF SLOAD PUSH1 0x40 DUP1 MLOAD PUSH4 0xDFE1681 PUSH1 0xE0 SHL DUP2 MSTORE SWAP1 MLOAD PUSH1 0x1 PUSH1 0x1 PUSH1 0xA0 SHL SUB SWAP3 DUP4 AND SWAP3 DUP5 AND SWAP2 PUSH4 0xDFE1681 SWAP2 PUSH1 0x4 DUP1 DUP4 ADD SWAP3 PUSH1 0x20 SWAP3 SWAP2 SWAP1 DUP3 SWAP1 SUB ADD DUP2 DUP7 GAS STATICCALL ISZERO DUP1 ISZERO PUSH2 0x6BF JUMPI RETURNDATASIZE PUSH0 PUSH0 RETURNDATACOPY RETURNDATASIZE PUSH0 REVERT JUMPDEST POP POP POP POP PUSH1 0x40 MLOAD RETURNDATASIZE PUSH1 0x1F NOT PUSH1 0x1F DUP3 ADD AND DUP3 ADD DUP1 PUSH1 0x40 MSTORE POP DUP2 ADD SWAP1 PUSH2 0x6E3 SWAP2 SWAP1 PUSH2 0x1600 JUMP JUMPDEST PUSH1 0x1 PUSH1 0x1 PUSH1 0xA0 SHL SUB AND EQ DUP1 PUSH2 0x76C JUMPI POP PUSH1 0xF SLOAD PUSH1 0x40 DUP1 MLOAD PUSH4 0xD21220A7 PUSH1 0xE0 SHL DUP2 MSTORE SWAP1 MLOAD PUSH1 0x1 PUSH1 0x1 PUSH1 0xA0 SHL SUB SWAP3 DUP4 AND SWAP3 DUP5 AND SWAP2 PUSH4 0xD21220A7 SWAP2 PUSH1 0x4 DUP1 DUP4 ADD SWAP3 PUSH1 0x20 SWAP3 SWAP2 SWAP1 DUP3 SWAP1 SUB ADD DUP2 DUP7 GAS STATICCALL ISZERO DUP1 ISZERO PUSH2 0x73D JUMPI RETURNDATASIZE PUSH0 PUSH0 RETURNDATACOPY RETURNDATASIZE PUSH0 REVERT JUMPDEST POP POP POP POP PUSH1 0x40 MLOAD RETURNDATASIZE PUSH1 0x1F NOT PUSH1 0x1F DUP3 ADD AND DUP3 ADD DUP1 PUSH1 0x40 MSTORE POP DUP2 ADD SWAP1 PUSH2 0x761 SWAP2 SWAP1 PUSH2 0x1600 JUMP JUMPDEST PUSH1 0x1 PUSH1 0x1 PUSH1 0xA0 SHL SUB AND EQ JUMPDEST PUSH2 0x7B1 JUMPI PUSH1 0x40 MLOAD PUSH3 0x461BCD PUSH1 0xE5 SHL DUP2 MSTORE PUSH1 0x20 PUSH1 0x4 DUP3 ADD MSTORE PUSH1 0x16 PUSH1 0x24 DUP3 ADD MSTORE PUSH22 0x58555344206973206E6F7420696E2074686174204C5 PUSH1 0x54 SHL PUSH1 0x44 DUP3 ADD MSTORE PUSH1 0x64 ADD PUSH2 0x66C JUMP JUMPDEST PUSH1 0x40 MLOAD PUSH4 0x3879FFD5 PUSH1 0xE0 SHL DUP2 MSTORE PUSH20 0x0 SWAP1 PUSH4 0x3879FFD5 SWAP1 PUSH2 0x7EB SWAP1 PUSH1 0xB SWAP1 ORIGIN SWAP1 PUSH1 0x4 ADD PUSH2 0x161B JUMP JUMPDEST PUSH1 0x20 PUSH1 0x40 MLOAD DUP1 DUP4 SUB DUP2 DUP7 GAS DELEGATECALL ISZERO DUP1 ISZERO PUSH2 0x806 JUMPI RETURNDATASIZE PUSH0 PUSH0 RETURNDATACOPY RETURNDATASIZE PUSH0 REVERT JUMPDEST POP POP POP POP PUSH1 0x40 MLOAD RETURNDATASIZE PUSH1 0x1F NOT PUSH1 0x1F DUP3 ADD AND DUP3 ADD DUP1 PUSH1 0x40 MSTORE POP DUP2 ADD SWAP1 PUSH2 0x82A SWAP2 SWAP1 PUSH2 0x15B6 JUMP JUMPDEST ISZERO PUSH2 0x877 JUMPI PUSH1 0x40 MLOAD PUSH3 0x461BCD PUSH1 0xE5 SHL DUP2 MSTORE PUSH1 0x20 PUSH1 0x4 DUP3 ADD MSTORE PUSH1 0x1B PUSH1 0x24 DUP3 ADD MSTORE PUSH32 0x4F6E6C7920616C6C6F77656420746F207375626D6974206F6E63650000000000 PUSH1 0x44 DUP3 ADD MSTORE PUSH1 0x64 ADD PUSH2 0x66C JUMP JUMPDEST PUSH1 0x40 MLOAD PUSH4 0xD6F44DE9 PUSH1 0xE0 SHL DUP2 MSTORE PUSH20 0x0 SWAP1 PUSH4 0xD6F44DE9 SWAP1 PUSH2 0x8B1 SWAP1 PUSH1 0xB SWAP1 DUP6 SWAP1 PUSH1 0x4 ADD PUSH2 0x161B JUMP JUMPDEST PUSH0 PUSH1 0x40 MLOAD DUP1 DUP4 SUB DUP2 DUP7 DUP1 EXTCODESIZE ISZERO DUP1 ISZERO PUSH2 0x8C7 JUMPI PUSH0 PUSH0 REVERT JUMPDEST POP GAS DELEGATECALL ISZERO DUP1 ISZERO PUSH2 0x8D9 JUMPI RETURNDATASIZE PUSH0 PUSH0 RETURNDATACOPY RETURNDATASIZE PUSH0 REVERT JUMPDEST POP POP POP POP POP JUMP JUMPDEST PUSH1 0x10 SLOAD PUSH1 0x40 MLOAD PUSH4 0x11D1D6B9 PUSH1 0xE1 SHL DUP2 MSTORE PUSH1 0x1 PUSH1 0x1 PUSH1 0xA0 SHL SUB SWAP1 SWAP2 AND SWAP1 PUSH4 0x23A3AD72 SWAP1 PUSH2 0x912 SWAP1 CALLER SWAP1 PUSH1 0x4 SWAP1 DUP2 ADD PUSH2 0x1590 JUMP JUMPDEST PUSH1 0x20 PUSH1 0x40 MLOAD DUP1 DUP4 SUB DUP2 DUP7 GAS STATICCALL ISZERO DUP1 ISZERO PUSH2 0x92D JUMPI RETURNDATASIZE PUSH0 PUSH0 RETURNDATACOPY RETURNDATASIZE PUSH0 REVERT JUMPDEST POP POP POP POP PUSH1 0x40 MLOAD RETURNDATASIZE PUSH1 0x1F NOT PUSH1 0x1F DUP3 ADD AND DUP3 ADD DUP1 PUSH1 0x40 MSTORE POP DUP2 ADD SWAP1 PUSH2 0x951 SWAP2 SWAP1 PUSH2 0x15B6 JUMP JUMPDEST PUSH2 0x96D JUMPI PUSH1 0x40 MLOAD PUSH3 0x461BCD PUSH1 0xE5 SHL DUP2 MSTORE PUSH1 0x4 ADD PUSH2 0x66C SWAP1 PUSH2 0x15D5 JUMP JUMPDEST PUSH1 0x8 SSTORE JUMP JUMPDEST PUSH1 0x2 DUP1 SLOAD PUSH2 0x97F SWAP1 PUSH2 0x1548 JUMP JUMPDEST DUP1 PUSH1 0x1F ADD PUSH1 0x20 DUP1 SWAP2 DIV MUL PUSH1 0x20 ADD PUSH1 0x40 MLOAD SWAP1 DUP2 ADD PUSH1 0x40 MSTORE DUP1 SWAP3 SWAP2 SWAP1 DUP2 DUP2 MSTORE PUSH1 0x20 ADD DUP3 DUP1 SLOAD PUSH2 0x9AB SWAP1 PUSH2 0x1548 JUMP JUMPDEST DUP1 ISZERO PUSH2 0x9F6 JUMPI DUP1 PUSH1 0x1F LT PUSH2 0x9CD JUMPI PUSH2 0x100 DUP1 DUP4 SLOAD DIV MUL DUP4 MSTORE SWAP2 PUSH1 0x20 ADD SWAP2 PUSH2 0x9F6 JUMP JUMPDEST DUP3 ADD SWAP2 SWAP1 PUSH0 MSTORE PUSH1 0x20 PUSH0 KECCAK256 SWAP1 JUMPDEST DUP2 SLOAD DUP2 MSTORE SWAP1 PUSH1 0x1 ADD SWAP1 PUSH1 0x20 ADD DUP1 DUP4 GT PUSH2 0x9D9 JUMPI DUP3 SWAP1 SUB PUSH1 0x1F AND DUP3 ADD SWAP2 JUMPDEST POP POP POP POP POP DUP2 JUMP JUMPDEST PUSH0 PUSH0 PUSH2 0xA08 PUSH2 0x3AE JUMP JUMPDEST PUSH0 SWAP1 DUP2 MSTORE PUSH1 0xA PUSH1 0x20 SWAP1 DUP2 MSTORE PUSH1 0x40 DUP1 DUP4 KECCAK256 PUSH1 0x1 PUSH1 0x1 PUSH1 0xA0 SHL SUB SWAP1 SWAP7 AND DUP4 MSTORE PUSH1 0x2 SWAP1 SWAP6 ADD SWAP1 MSTORE SWAP3 SWAP1 SWAP3 KECCAK256 PUSH1 0x1 ADD SLOAD SWAP3 SWAP2 POP POP JUMP JUMPDEST PUSH1 0x1 SLOAD PUSH1 0x40 MLOAD PUSH4 0x1035DEC9 PUSH1 0xE3 SHL DUP2 MSTORE PUSH1 0x1 PUSH1 0x1 PUSH1 0xA0 SHL SUB SWAP1 SWAP2 AND SWAP1 PUSH4 0x81AEF648 SWAP1 PUSH2 0xA6C SWAP1 PUSH1 0x4 SWAP1 CALLER SWAP1 DUP3 ADD PUSH2 0x1632 JUMP JUMPDEST PUSH1 0x20 PUSH1 0x40 MLOAD DUP1 DUP4 SUB DUP2 DUP7 GAS STATICCALL ISZERO DUP1 ISZERO PUSH2 0xA87 JUMPI RETURNDATASIZE PUSH0 PUSH0 RETURNDATACOPY RETURNDATASIZE PUSH0 REVERT JUMPDEST POP POP POP POP PUSH1 0x40 MLOAD RETURNDATASIZE PUSH1 0x1F NOT PUSH1 0x1F DUP3 ADD AND DUP3 ADD DUP1 PUSH1 0x40 MSTORE POP DUP2 ADD SWAP1 PUSH2 0xAAB SWAP2 SWAP1 PUSH2 0x15B6 JUMP JUMPDEST PUSH2 0xB06 JUMPI PUSH1 0x40 MLOAD PUSH3 0x461BCD PUSH1 0xE5 SHL DUP2 MSTORE PUSH1 0x20 PUSH1 0x4 DUP3 ADD MSTORE PUSH1 0x26 PUSH1 0x24 DUP3 ADD MSTORE PUSH32 0x43616C6C657220646F6573206E6F742068617665207468652072657175697265 PUSH1 0x44 DUP3 ADD MSTORE PUSH6 0x642072616E6B PUSH1 0xD0 SHL PUSH1 0x64 DUP3 ADD MSTORE PUSH1 0x84 ADD PUSH2 0x66C JUMP JUMPDEST PUSH1 0x5 DUP1 SLOAD DUP3 SWAP2 SWAP1 PUSH1 0xFF NOT AND PUSH1 0x1 DUP4 PUSH1 0x2 DUP2 GT ISZERO PUSH2 0xB25 JUMPI PUSH2 0xB25 PUSH2 0x13AA JUMP JUMPDEST MUL OR SWAP1 SSTORE POP POP JUMP JUMPDEST PUSH1 0x40 MLOAD PUSH4 0x3879FFD5 PUSH1 0xE0 SHL DUP2 MSTORE PUSH20 0x0 SWAP1 PUSH4 0x3879FFD5 SWAP1 PUSH2 0xB67 SWAP1 PUSH1 0xB SWAP1 DUP11 SWAP1 PUSH1 0x4 ADD PUSH2 0x161B JUMP JUMPDEST PUSH1 0x20 PUSH1 0x40 MLOAD DUP1 DUP4 SUB DUP2 DUP7 GAS DELEGATECALL ISZERO DUP1 ISZERO PUSH2 0xB82 JUMPI RETURNDATASIZE PUSH0 PUSH0 RETURNDATACOPY RETURNDATASIZE PUSH0 REVERT JUMPDEST POP POP POP POP PUSH1 0x40 MLOAD RETURNDATASIZE PUSH1 0x1F NOT PUSH1 0x1F DUP3 ADD AND DUP3 ADD DUP1 PUSH1 0x40 MSTORE POP DUP2 ADD SWAP1 PUSH2 0xBA6 SWAP2 SWAP1 PUSH2 0x15B6 JUMP JUMPDEST DUP1 PUSH2 0xC25 JUMPI POP PUSH1 0x40 MLOAD PUSH4 0x3879FFD5 PUSH1 0xE0 SHL DUP2 MSTORE PUSH20 0x0 SWAP1 PUSH4 0x3879FFD5 SWAP1 PUSH2 0xBE6 SWAP1 PUSH1 0xB SWAP1 DUP10 SWAP1 PUSH1 0x4 ADD PUSH2 0x161B JUMP JUMPDEST PUSH1 0x20 PUSH1 0x40 MLOAD DUP1 DUP4 SUB DUP2 DUP7 GAS DELEGATECALL ISZERO DUP1 ISZERO PUSH2 0xC01 JUMPI RETURNDATASIZE PUSH0 PUSH0 RETURNDATACOPY RETURNDATASIZE PUSH0 REVERT JUMPDEST POP POP POP POP PUSH1 0x40 MLOAD RETURNDATASIZE PUSH1 0x1F NOT PUSH1 0x1F DUP3 ADD AND DUP3 ADD DUP1 PUSH1 0x40 MSTORE POP DUP2 ADD SWAP1 PUSH2 0xC25 SWAP2 SWAP1 PUSH2 0x15B6 JUMP JUMPDEST DUP1 PUSH2 0xCA4 JUMPI POP PUSH1 0x40 MLOAD PUSH4 0x3879FFD5 PUSH1 0xE0 SHL DUP2 MSTORE PUSH20 0x0 SWAP1 PUSH4 0x3879FFD5 SWAP1 PUSH2 0xC65 SWAP1 PUSH1 0xB SWAP1 DUP9 SWAP1 PUSH1 0x4 ADD PUSH2 0x161B JUMP JUMPDEST PUSH1 0x20 PUSH1 0x40 MLOAD DUP1 DUP4 SUB DUP2 DUP7 GAS DELEGATECALL ISZERO DUP1 ISZERO PUSH2 0xC80 JUMPI RETURNDATASIZE PUSH0 PUSH0 RETURNDATACOPY RETURNDATASIZE PUSH0 REVERT JUMPDEST POP POP POP POP PUSH1 0x40 MLOAD RETURNDATASIZE PUSH1 0x1F NOT PUSH1 0x1F DUP3 ADD AND DUP3 ADD DUP1 PUSH1 0x40 MSTORE POP DUP2 ADD SWAP1 PUSH2 0xCA4 SWAP2 SWAP1 PUSH2 0x15B6 JUMP JUMPDEST DUP1 PUSH2 0xD23 JUMPI POP PUSH1 0x40 MLOAD PUSH4 0x3879FFD5 PUSH1 0xE0 SHL DUP2 MSTORE PUSH20 0x0 SWAP1 PUSH4 0x3879FFD5 SWAP1 PUSH2 0xCE4 SWAP1 PUSH1 0xB SWAP1 DUP8 SWAP1 PUSH1 0x4 ADD PUSH2 0x161B JUMP JUMPDEST PUSH1 0x20 PUSH1 0x40 MLOAD DUP1 DUP4 SUB DUP2 DUP7 GAS DELEGATECALL ISZERO DUP1 ISZERO PUSH2 0xCFF JUMPI RETURNDATASIZE PUSH0 PUSH0 RETURNDATACOPY RETURNDATASIZE PUSH0 REVERT JUMPDEST POP POP POP POP PUSH1 0x40 MLOAD RETURNDATASIZE PUSH1 0x1F NOT PUSH1 0x1F DUP3 ADD AND DUP3 ADD DUP1 PUSH1 0x40 MSTORE POP DUP2 ADD SWAP1 PUSH2 0xD23 SWAP2 SWAP1 PUSH2 0x15B6 JUMP JUMPDEST DUP1 ISZERO PUSH2 0xD31 JUMPI POP PUSH2 0x7D0 DUP2 SGT ISZERO JUMPDEST ISZERO PUSH2 0xD40 JUMPI PUSH2 0xD40 DUP3 DUP6 PUSH2 0x1100 JUMP JUMPDEST POP POP POP POP POP POP JUMP JUMPDEST PUSH1 0x3 DUP1 SLOAD PUSH1 0x4 DUP1 SLOAD PUSH1 0x1 PUSH1 0x1 PUSH1 0xA0 SHL SUB SWAP1 SWAP3 AND SWAP3 SWAP2 PUSH2 0xD66 SWAP1 PUSH2 0x1548 JUMP JUMPDEST DUP1 PUSH1 0x1F ADD PUSH1 0x20 DUP1 SWAP2 DIV MUL PUSH1 0x20 ADD PUSH1 0x40 MLOAD SWAP1 DUP2 ADD PUSH1 0x40 MSTORE DUP1 SWAP3 SWAP2 SWAP1 DUP2 DUP2 MSTORE PUSH1 0x20 ADD DUP3 DUP1 SLOAD PUSH2 0xD92 SWAP1 PUSH2 0x1548 JUMP JUMPDEST DUP1 ISZERO PUSH2 0xDDD JUMPI DUP1 PUSH1 0x1F LT PUSH2 0xDB4 JUMPI PUSH2 0x100 DUP1 DUP4 SLOAD DIV MUL DUP4 MSTORE SWAP2 PUSH1 0x20 ADD SWAP2 PUSH2 0xDDD JUMP JUMPDEST DUP3 ADD SWAP2 SWAP1 PUSH0 MSTORE PUSH1 0x20 PUSH0 KECCAK256 SWAP1 JUMPDEST DUP2 SLOAD DUP2 MSTORE SWAP1 PUSH1 0x1 ADD SWAP1 PUSH1 0x20 ADD DUP1 DUP4 GT PUSH2 0xDC0 JUMPI DUP3 SWAP1 SUB PUSH1 0x1F AND DUP3 ADD SWAP2 JUMPDEST POP POP POP PUSH1 0x2 SWAP1 SWAP4 ADD SLOAD SWAP2 SWAP3 POP POP PUSH1 0xFF AND DUP4 JUMP JUMPDEST PUSH1 0x6 SLOAD PUSH1 0x1 EQ PUSH2 0xE12 JUMPI PUSH1 0x40 MLOAD PUSH3 0x461BCD PUSH1 0xE5 SHL DUP2 MSTORE PUSH1 0x4 ADD PUSH2 0x66C SWAP1 PUSH2 0x1657 JUMP JUMPDEST PUSH1 0x2 PUSH1 0x6 SSTORE PUSH0 PUSH2 0xE20 PUSH2 0x3AE JUMP JUMPDEST PUSH0 DUP2 DUP2 MSTORE PUSH1 0xA PUSH1 0x20 SWAP1 DUP2 MSTORE PUSH1 0x40 DUP1 DUP4 KECCAK256 ORIGIN DUP1 DUP6 MSTORE PUSH1 0x2 DUP3 ADD SWAP1 SWAP4 MSTORE SWAP3 KECCAK256 PUSH1 0x1 DUP2 ADD SLOAD SWAP4 SWAP5 POP SWAP2 SWAP3 SWAP1 SWAP2 SWAP1 DUP1 PUSH2 0xE8E JUMPI PUSH1 0x40 MLOAD PUSH3 0x461BCD PUSH1 0xE5 SHL DUP2 MSTORE PUSH1 0x20 PUSH1 0x4 DUP3 ADD MSTORE PUSH1 0x14 PUSH1 0x24 DUP3 ADD MSTORE PUSH20 0x4E6F207265776172647320617661696C61626C65 PUSH1 0x60 SHL PUSH1 0x44 DUP3 ADD MSTORE PUSH1 0x64 ADD PUSH2 0x66C JUMP JUMPDEST PUSH0 PUSH1 0x1 DUP4 ADD DUP2 SWAP1 SSTORE PUSH1 0xE SLOAD PUSH1 0x40 DUP1 MLOAD PUSH1 0x1 PUSH1 0x1 PUSH1 0xA0 SHL SUB DUP8 DUP2 AND PUSH1 0x24 DUP4 ADD MSTORE PUSH1 0x44 DUP1 DUP4 ADD DUP8 SWAP1 MSTORE DUP4 MLOAD DUP1 DUP5 SUB SWAP1 SWAP2 ADD DUP2 MSTORE PUSH1 0x64 SWAP1 SWAP3 ADD DUP4 MSTORE PUSH1 0x20 DUP3 ADD DUP1 MLOAD PUSH1 0x1 PUSH1 0x1 PUSH1 0xE0 SHL SUB AND PUSH4 0x7B22EE3 PUSH1 0xE2 SHL OR SWAP1 MSTORE SWAP2 MLOAD SWAP2 SWAP1 SWAP3 AND SWAP2 PUSH2 0xEF0 SWAP2 PUSH2 0x167B JUMP JUMPDEST PUSH0 PUSH1 0x40 MLOAD DUP1 DUP4 SUB DUP2 PUSH0 DUP7 GAS CALL SWAP2 POP POP RETURNDATASIZE DUP1 PUSH0 DUP2 EQ PUSH2 0xF29 JUMPI PUSH1 0x40 MLOAD SWAP2 POP PUSH1 0x1F NOT PUSH1 0x3F RETURNDATASIZE ADD AND DUP3 ADD PUSH1 0x40 MSTORE RETURNDATASIZE DUP3 MSTORE RETURNDATASIZE PUSH0 PUSH1 0x20 DUP5 ADD RETURNDATACOPY PUSH2 0xF2E JUMP JUMPDEST PUSH1 0x60 SWAP2 POP JUMPDEST POP POP SWAP1 POP DUP1 PUSH2 0xF7F JUMPI PUSH1 0x40 MLOAD PUSH3 0x461BCD PUSH1 0xE5 SHL DUP2 MSTORE PUSH1 0x20 PUSH1 0x4 DUP3 ADD MSTORE PUSH1 0x1A PUSH1 0x24 DUP3 ADD MSTORE PUSH32 0x52657761726420646973747269627574696F6E206661696C6564000000000000 PUSH1 0x44 DUP3 ADD MSTORE PUSH1 0x64 ADD PUSH2 0x66C JUMP JUMPDEST POP POP PUSH1 0x1 PUSH1 0x6 SSTORE POP POP POP POP JUMP JUMPDEST PUSH1 0x60 PUSH0 PUSH2 0xF97 PUSH2 0x3AE JUMP JUMPDEST SWAP1 POP PUSH0 DUP2 PUSH8 0xFFFFFFFFFFFFFFFF DUP2 GT ISZERO PUSH2 0xFB3 JUMPI PUSH2 0xFB3 PUSH2 0x1691 JUMP JUMPDEST PUSH1 0x40 MLOAD SWAP1 DUP1 DUP3 MSTORE DUP1 PUSH1 0x20 MUL PUSH1 0x20 ADD DUP3 ADD PUSH1 0x40 MSTORE DUP1 ISZERO PUSH2 0xFDC JUMPI DUP2 PUSH1 0x20 ADD PUSH1 0x20 DUP3 MUL DUP1 CALLDATASIZE DUP4 CALLDATACOPY ADD SWAP1 POP JUMPDEST POP SWAP1 POP PUSH0 JUMPDEST DUP3 DUP2 LT ISZERO PUSH2 0x1038 JUMPI PUSH0 DUP2 DUP2 MSTORE PUSH1 0xA PUSH1 0x20 SWAP1 DUP2 MSTORE PUSH1 0x40 DUP1 DUP4 KECCAK256 PUSH1 0x1 PUSH1 0x1 PUSH1 0xA0 SHL SUB DUP10 AND DUP5 MSTORE PUSH1 0x2 ADD SWAP1 SWAP2 MSTORE SWAP1 KECCAK256 PUSH1 0x1 ADD SLOAD DUP3 MLOAD DUP4 SWAP1 DUP4 SWAP1 DUP2 LT PUSH2 0x1025 JUMPI PUSH2 0x1025 PUSH2 0x16A5 JUMP JUMPDEST PUSH1 0x20 SWAP1 DUP2 MUL SWAP2 SWAP1 SWAP2 ADD ADD MSTORE PUSH1 0x1 ADD PUSH2 0xFE1 JUMP JUMPDEST POP SWAP4 SWAP3 POP POP POP JUMP JUMPDEST PUSH0 PUSH1 0x6 SLOAD PUSH1 0x1 EQ PUSH2 0x1063 JUMPI PUSH1 0x40 MLOAD PUSH3 0x461BCD PUSH1 0xE5 SHL DUP2 MSTORE PUSH1 0x4 ADD PUSH2 0x66C SWAP1 PUSH2 0x1657 JUMP JUMPDEST PUSH1 0x1 PUSH1 0x6 SSTORE SWAP3 SWAP2 POP POP JUMP JUMPDEST PUSH1 0x10 SLOAD PUSH1 0x40 MLOAD PUSH4 0x11D1D6B9 PUSH1 0xE1 SHL DUP2 MSTORE PUSH1 0x1 PUSH1 0x1 PUSH1 0xA0 SHL SUB SWAP1 SWAP2 AND SWAP1 PUSH4 0x23A3AD72 SWAP1 PUSH2 0x10A0 SWAP1 CALLER SWAP1 PUSH1 0x4 SWAP1 DUP2 ADD PUSH2 0x1590 JUMP JUMPDEST PUSH1 0x20 PUSH1 0x40 MLOAD DUP1 DUP4 SUB DUP2 DUP7 GAS STATICCALL ISZERO DUP1 ISZERO PUSH2 0x10BB JUMPI RETURNDATASIZE PUSH0 PUSH0 RETURNDATACOPY RETURNDATASIZE PUSH0 REVERT JUMPDEST POP POP POP POP PUSH1 0x40 MLOAD RETURNDATASIZE PUSH1 0x1F NOT PUSH1 0x1F DUP3 ADD AND DUP3 ADD DUP1 PUSH1 0x40 MSTORE POP DUP2 ADD SWAP1 PUSH2 0x10DF SWAP2 SWAP1 PUSH2 0x15B6 JUMP JUMPDEST PUSH2 0x10FB JUMPI PUSH1 0x40 MLOAD PUSH3 0x461BCD PUSH1 0xE5 SHL DUP2 MSTORE PUSH1 0x4 ADD PUSH2 0x66C SWAP1 PUSH2 0x15D5 JUMP JUMPDEST PUSH1 0x9 SSTORE JUMP JUMPDEST PUSH0 PUSH2 0x1109 PUSH2 0x3AE JUMP JUMPDEST PUSH0 DUP2 DUP2 MSTORE PUSH1 0xA PUSH1 0x20 SWAP1 DUP2 MSTORE PUSH1 0x40 DUP1 DUP4 KECCAK256 ORIGIN DUP1 DUP6 MSTORE PUSH1 0x2 DUP3 ADD SWAP1 SWAP4 MSTORE SWAP1 DUP4 KECCAK256 DUP1 SLOAD SWAP5 SWAP6 POP SWAP1 SWAP4 SWAP2 SWAP3 SWAP1 SWAP2 DUP8 SWAP2 DUP4 SWAP2 PUSH2 0x1141 SWAP1 DUP5 SWAP1 PUSH2 0x16B9 JUMP JUMPDEST SWAP1 SWAP2 SSTORE POP POP PUSH1 0x1 PUSH1 0x1 PUSH1 0xA0 SHL SUB DUP6 AND PUSH0 SWAP1 DUP2 MSTORE PUSH1 0x3 DUP5 ADD PUSH1 0x20 MSTORE PUSH1 0x40 DUP2 KECCAK256 DUP1 SLOAD SWAP1 SWAP2 DUP9 SWAP2 DUP4 SWAP2 SWAP1 PUSH2 0x1173 SWAP1 DUP5 SWAP1 PUSH2 0x16B9 JUMP JUMPDEST SWAP1 SWAP2 SSTORE POP POP PUSH1 0x40 MLOAD PUSH4 0xBC7FB2B5 PUSH1 0xE0 SHL DUP2 MSTORE PUSH1 0xB PUSH1 0x4 DUP3 ADD MSTORE PUSH0 SWAP1 PUSH20 0x0 SWAP1 PUSH4 0xBC7FB2B5 SWAP1 PUSH1 0x24 ADD PUSH1 0x20 PUSH1 0x40 MLOAD DUP1 DUP4 SUB DUP2 DUP7 GAS DELEGATECALL ISZERO DUP1 ISZERO PUSH2 0x11C8 JUMPI RETURNDATASIZE PUSH0 PUSH0 RETURNDATACOPY RETURNDATASIZE PUSH0 REVERT JUMPDEST POP POP POP POP PUSH1 0x40 MLOAD RETURNDATASIZE PUSH1 0x1F NOT PUSH1 0x1F DUP3 ADD AND DUP3 ADD DUP1 PUSH1 0x40 MSTORE POP DUP2 ADD SWAP1 PUSH2 0x11EC SWAP2 SWAP1 PUSH2 0x1531 JUMP JUMPDEST PUSH1 0x8 SLOAD PUSH2 0x11F9 SWAP2 SWAP1 PUSH2 0x1512 JUMP JUMPDEST SWAP1 POP PUSH0 PUSH2 0x120A DUP10 DUP4 DUP9 PUSH0 ADD SLOAD PUSH2 0x128A JUMP JUMPDEST SWAP1 POP PUSH1 0x9 SLOAD DUP2 GT ISZERO PUSH2 0x121B JUMPI POP PUSH1 0x9 SLOAD JUMPDEST DUP1 DUP5 PUSH1 0x1 ADD PUSH0 DUP3 DUP3 SLOAD PUSH2 0x122E SWAP2 SWAP1 PUSH2 0x16B9 JUMP JUMPDEST SWAP3 POP POP DUP2 SWAP1 SSTORE POP DUP1 DUP4 PUSH1 0x1 ADD PUSH0 DUP3 DUP3 SLOAD PUSH2 0x1248 SWAP2 SWAP1 PUSH2 0x16B9 JUMP JUMPDEST SWAP1 SWAP2 SSTORE POP POP DUP6 SLOAD DUP10 SWAP1 DUP8 SWAP1 PUSH0 SWAP1 PUSH2 0x1260 SWAP1 DUP5 SWAP1 PUSH2 0x16B9 JUMP JUMPDEST SWAP3 POP POP DUP2 SWAP1 SSTORE POP DUP1 DUP7 PUSH1 0x1 ADD PUSH0 DUP3 DUP3 SLOAD PUSH2 0x127A SWAP2 SWAP1 PUSH2 0x16B9 JUMP JUMPDEST SWAP1 SWAP2 SSTORE POP POP POP POP POP POP POP POP POP POP POP JUMP JUMPDEST PUSH0 DUP2 PUSH0 SUB PUSH2 0x1299 JUMPI POP PUSH0 PUSH2 0x12B1 JUMP JUMPDEST DUP2 PUSH2 0x12A4 DUP5 DUP7 PUSH2 0x16CC JUMP JUMPDEST PUSH2 0x12AE SWAP2 SWAP1 PUSH2 0x1512 JUMP JUMPDEST SWAP1 POP JUMPDEST SWAP4 SWAP3 POP POP POP JUMP JUMPDEST PUSH0 DUP2 MLOAD DUP1 DUP5 MSTORE DUP1 PUSH1 0x20 DUP5 ADD PUSH1 0x20 DUP7 ADD MCOPY PUSH0 PUSH1 0x20 DUP3 DUP7 ADD ADD MSTORE PUSH1 0x20 PUSH1 0x1F NOT PUSH1 0x1F DUP4 ADD AND DUP6 ADD ADD SWAP2 POP POP SWAP3 SWAP2 POP POP JUMP JUMPDEST PUSH1 0x20 DUP2 MSTORE PUSH0 PUSH2 0x12B1 PUSH1 0x20 DUP4 ADD DUP5 PUSH2 0x12B8 JUMP JUMPDEST PUSH1 0x20 DUP1 DUP3 MSTORE DUP3 MLOAD DUP3 DUP3 ADD DUP2 SWAP1 MSTORE PUSH0 SWAP2 DUP5 ADD SWAP1 PUSH1 0x40 DUP5 ADD SWAP1 DUP4 JUMPDEST DUP2 DUP2 LT ISZERO PUSH2 0x1338 JUMPI DUP4 MLOAD PUSH1 0x1 PUSH1 0x1 PUSH1 0xA0 SHL SUB AND DUP4 MSTORE PUSH1 0x20 SWAP4 DUP5 ADD SWAP4 SWAP1 SWAP3 ADD SWAP2 PUSH1 0x1 ADD PUSH2 0x1311 JUMP JUMPDEST POP SWAP1 SWAP6 SWAP5 POP POP POP POP POP JUMP JUMPDEST PUSH1 0x1 PUSH1 0x1 PUSH1 0xA0 SHL SUB DUP2 AND DUP2 EQ PUSH2 0x1357 JUMPI PUSH0 PUSH0 REVERT JUMPDEST POP JUMP JUMPDEST PUSH0 PUSH1 0x20 DUP3 DUP5 SUB SLT ISZERO PUSH2 0x136A JUMPI PUSH0 PUSH0 REVERT JUMPDEST DUP2 CALLDATALOAD PUSH2 0x12B1 DUP2 PUSH2 0x1343 JUMP JUMPDEST PUSH0 PUSH1 0x20 DUP3 DUP5 SUB SLT ISZERO PUSH2 0x1385 JUMPI PUSH0 PUSH0 REVERT JUMPDEST POP CALLDATALOAD SWAP2 SWAP1 POP JUMP JUMPDEST PUSH0 PUSH1 0x20 DUP3 DUP5 SUB SLT ISZERO PUSH2 0x139C JUMPI PUSH0 PUSH0 REVERT JUMPDEST DUP2 CALLDATALOAD PUSH1 0x3 DUP2 LT PUSH2 0x12B1 JUMPI PUSH0 PUSH0 REVERT JUMPDEST PUSH4 0x4E487B71 PUSH1 0xE0 SHL PUSH0 MSTORE PUSH1 0x21 PUSH1 0x4 MSTORE PUSH1 0x24 PUSH0 REVERT JUMPDEST PUSH1 0x3 DUP2 LT PUSH2 0x13CE JUMPI PUSH2 0x13CE PUSH2 0x13AA JUMP JUMPDEST SWAP1 MSTORE JUMP JUMPDEST PUSH1 0x20 DUP2 ADD PUSH2 0x13E0 DUP3 DUP5 PUSH2 0x13BE JUMP JUMPDEST SWAP3 SWAP2 POP POP JUMP JUMPDEST PUSH0 PUSH0 PUSH0 PUSH0 PUSH0 PUSH0 PUSH1 0xC0 DUP8 DUP10 SUB SLT ISZERO PUSH2 0x13FB JUMPI PUSH0 PUSH0 REVERT JUMPDEST DUP7 CALLDATALOAD PUSH2 0x1406 DUP2 PUSH2 0x1343 JUMP JUMPDEST SWAP6 POP PUSH1 0x20 DUP8 ADD CALLDATALOAD PUSH2 0x1416 DUP2 PUSH2 0x1343 JUMP JUMPDEST SWAP5 POP PUSH1 0x40 DUP8 ADD CALLDATALOAD PUSH2 0x1426 DUP2 PUSH2 0x1343 JUMP JUMPDEST SWAP4 POP PUSH1 0x60 DUP8 ADD CALLDATALOAD PUSH2 0x1436 DUP2 PUSH2 0x1343 JUMP JUMPDEST SWAP6 SWAP9 SWAP5 SWAP8 POP SWAP3 SWAP6 PUSH1 0x80 DUP2 ADD CALLDATALOAD SWAP5 PUSH1 0xA0 SWAP1 SWAP2 ADD CALLDATALOAD SWAP4 POP SWAP2 POP POP JUMP JUMPDEST PUSH1 0x1 PUSH1 0x1 PUSH1 0xA0 SHL SUB DUP5 AND DUP2 MSTORE PUSH1 0x60 PUSH1 0x20 DUP3 ADD DUP2 SWAP1 MSTORE PUSH0 SWAP1 PUSH2 0x1473 SWAP1 DUP4 ADD DUP6 PUSH2 0x12B8 JUMP JUMPDEST SWAP1 POP PUSH2 0x1482 PUSH1 0x40 DUP4 ADD DUP5 PUSH2 0x13BE JUMP JUMPDEST SWAP5 SWAP4 POP POP POP POP JUMP JUMPDEST PUSH1 0x20 DUP1 DUP3 MSTORE DUP3 MLOAD DUP3 DUP3 ADD DUP2 SWAP1 MSTORE PUSH0 SWAP2 DUP5 ADD SWAP1 PUSH1 0x40 DUP5 ADD SWAP1 DUP4 JUMPDEST DUP2 DUP2 LT ISZERO PUSH2 0x1338 JUMPI DUP4 MLOAD DUP4 MSTORE PUSH1 0x20 SWAP4 DUP5 ADD SWAP4 SWAP1 SWAP3 ADD SWAP2 PUSH1 0x1 ADD PUSH2 0x14A3 JUMP JUMPDEST PUSH0 PUSH0 PUSH1 0x40 DUP4 DUP6 SUB SLT ISZERO PUSH2 0x14D2 JUMPI PUSH0 PUSH0 REVERT JUMPDEST DUP3 CALLDATALOAD PUSH2 0x14DD DUP2 PUSH2 0x1343 JUMP JUMPDEST SWAP5 PUSH1 0x20 SWAP4 SWAP1 SWAP4 ADD CALLDATALOAD SWAP4 POP POP POP JUMP JUMPDEST PUSH4 0x4E487B71 PUSH1 0xE0 SHL PUSH0 MSTORE PUSH1 0x11 PUSH1 0x4 MSTORE PUSH1 0x24 PUSH0 REVERT JUMPDEST DUP2 DUP2 SUB DUP2 DUP2 GT ISZERO PUSH2 0x13E0 JUMPI PUSH2 0x13E0 PUSH2 0x14EB JUMP JUMPDEST PUSH0 DUP3 PUSH2 0x152C JUMPI PUSH4 0x4E487B71 PUSH1 0xE0 SHL PUSH0 MSTORE PUSH1 0x12 PUSH1 0x4 MSTORE PUSH1 0x24 PUSH0 REVERT JUMPDEST POP DIV SWAP1 JUMP JUMPDEST PUSH0 PUSH1 0x20 DUP3 DUP5 SUB SLT ISZERO PUSH2 0x1541 JUMPI PUSH0 PUSH0 REVERT JUMPDEST POP MLOAD SWAP2 SWAP1 POP JUMP JUMPDEST PUSH1 0x1 DUP2 DUP2 SHR SWAP1 DUP3 AND DUP1 PUSH2 0x155C JUMPI PUSH1 0x7F DUP3 AND SWAP2 POP JUMPDEST PUSH1 0x20 DUP3 LT DUP2 SUB PUSH2 0x157A JUMPI PUSH4 0x4E487B71 PUSH1 0xE0 SHL PUSH0 MSTORE PUSH1 0x22 PUSH1 0x4 MSTORE PUSH1 0x24 PUSH0 REVERT JUMPDEST POP SWAP2 SWAP1 POP JUMP JUMPDEST PUSH1 0x6 DUP2 LT PUSH2 0x1357 JUMPI PUSH2 0x1357 PUSH2 0x13AA JUMP JUMPDEST PUSH1 0x1 PUSH1 0x1 PUSH1 0xA0 SHL SUB DUP4 AND DUP2 MSTORE PUSH1 0x40 DUP2 ADD PUSH2 0x15A9 DUP4 PUSH2 0x1580 JUMP JUMPDEST DUP3 PUSH1 0x20 DUP4 ADD MSTORE SWAP4 SWAP3 POP POP POP JUMP JUMPDEST PUSH0 PUSH1 0x20 DUP3 DUP5 SUB SLT ISZERO PUSH2 0x15C6 JUMPI PUSH0 PUSH0 REVERT JUMPDEST DUP2 MLOAD DUP1 ISZERO ISZERO DUP2 EQ PUSH2 0x12B1 JUMPI PUSH0 PUSH0 REVERT JUMPDEST PUSH1 0x20 DUP1 DUP3 MSTORE PUSH1 0x11 SWAP1 DUP3 ADD MSTORE PUSH17 0x1058D8D95CDCC814995CDD1C9A58DD1959 PUSH1 0x7A SHL PUSH1 0x40 DUP3 ADD MSTORE PUSH1 0x60 ADD SWAP1 JUMP JUMPDEST PUSH0 PUSH1 0x20 DUP3 DUP5 SUB SLT ISZERO PUSH2 0x1610 JUMPI PUSH0 PUSH0 REVERT JUMPDEST DUP2 MLOAD PUSH2 0x12B1 DUP2 PUSH2 0x1343 JUMP JUMPDEST SWAP2 DUP3 MSTORE PUSH1 0x1 PUSH1 0x1 PUSH1 0xA0 SHL SUB AND PUSH1 0x20 DUP3 ADD MSTORE PUSH1 0x40 ADD SWAP1 JUMP JUMPDEST PUSH1 0x40 DUP2 ADD PUSH2 0x163F DUP5 PUSH2 0x1580 JUMP JUMPDEST SWAP3 DUP2 MSTORE PUSH1 0x1 PUSH1 0x1 PUSH1 0xA0 SHL SUB SWAP2 SWAP1 SWAP2 AND PUSH1 0x20 SWAP1 SWAP2 ADD MSTORE SWAP1 JUMP JUMPDEST PUSH1 0x20 DUP1 DUP3 MSTORE PUSH1 0xA SWAP1 DUP3 ADD MSTORE PUSH10 0x5245454E5452414E4359 PUSH1 0xB0 SHL PUSH1 0x40 DUP3 ADD MSTORE PUSH1 0x60 ADD SWAP1 JUMP JUMPDEST PUSH0 DUP3 MLOAD DUP1 PUSH1 0x20 DUP6 ADD DUP5 MCOPY PUSH0 SWAP3 ADD SWAP2 DUP3 MSTORE POP SWAP2 SWAP1 POP JUMP JUMPDEST PUSH4 0x4E487B71 PUSH1 0xE0 SHL PUSH0 MSTORE PUSH1 0x41 PUSH1 0x4 MSTORE PUSH1 0x24 PUSH0 REVERT JUMPDEST PUSH4 0x4E487B71 PUSH1 0xE0 SHL PUSH0 MSTORE PUSH1 0x32 PUSH1 0x4 MSTORE PUSH1 0x24 PUSH0 REVERT JUMPDEST DUP1 DUP3 ADD DUP1 DUP3 GT ISZERO PUSH2 0x13E0 JUMPI PUSH2 0x13E0 PUSH2 0x14EB JUMP JUMPDEST DUP1 DUP3 MUL DUP2 ISZERO DUP3 DUP3 DIV DUP5 EQ OR PUSH2 0x13E0 JUMPI PUSH2 0x13E0 PUSH2 0x14EB JUMP INVALID LOG2 PUSH5 0x6970667358 0x22 SLT KECCAK256 ORIGIN COINBASE CALL LOG4 DUP9 RETURNDATACOPY PUSH9 0xAFC8F47A2192638A9C PUSH4 0x5414400B DUP11 0xEE PUSH9 0x72FEF53D0C88066364 PUSH20 0x6F6C634300081B00330000000000000000000000 "
		},
		"gasEstimates": {
			"creation": {
				"codeDepositCost": "1182600",
				"executionCost": "infinite",
				"totalCost": "infinite"
			},
			"external": {
				"DAILY_LIMIT()": "2395",
				"MAX_AMOUNT()": "2393",
				"PERIOD_DURATION()": "272",
				"UserActiveList(uint256)": "2605",
				"accessControl()": "2404",
				"addToWhiteList(address)": "infinite",
				"addToWhiteListAdmin(address)": "infinite",
				"calculateRewards(address,address,address,address,uint256,int256)": "infinite",
				"calculateTotalBasisFee(address,uint256)": "24689",
				"claimReward()": "infinite",
				"description()": "infinite",
				"getCurrentPeriod()": "2465",
				"getDescription()": "infinite",
				"getLevel()": "2455",
				"getLpCurrentPeriodRewards(address)": "4935",
				"getNumberOfWhitelistedLp()": "infinite",
				"getTraderCurrentPeriodRewards(address)": "4935",
				"getUsersRewards(address)": "infinite",
				"getWhiteListedLpList()": "infinite",
				"id()": "infinite",
				"periodStartTime()": "2327",
				"periods(uint256)": "4706",
				"rewardContract()": "2447",
				"setBaseImportance(uint8)": "infinite",
				"setTotalAmount(uint256)": "infinite",
				"setUserAmounts(uint256)": "infinite",
				"xusd()": "2403"
			},
			"internal": {
				"_msgSender()": "infinite",
				"calculateTotalRewards(uint256,uint256,uint256)": "204",
				"handleOpenPosition(uint256,address)": "infinite"
			}
		},
		"methodIdentifiers": {
			"DAILY_LIMIT()": "248ec326",
			"MAX_AMOUNT()": "d40dc870",
			"PERIOD_DURATION()": "6558954f",
			"UserActiveList(uint256)": "b7b7fac7",
			"accessControl()": "13007d55",
			"addToWhiteList(address)": "47ee0394",
			"addToWhiteListAdmin(address)": "8ac59f7f",
			"calculateRewards(address,address,address,address,uint256,int256)": "a66b02c2",
			"calculateTotalBasisFee(address,uint256)": "c4fbbe54",
			"claimReward()": "b88a802f",
			"description()": "7284e416",
			"getCurrentPeriod()": "086146d2",
			"getDescription()": "1a092541",
			"getLevel()": "a5985e8c",
			"getLpCurrentPeriodRewards(address)": "384b4636",
			"getNumberOfWhitelistedLp()": "123f2a55",
			"getTraderCurrentPeriodRewards(address)": "8bb730b1",
			"getUsersRewards(address)": "c2f8498d",
			"getWhiteListedLpList()": "2d7f74f2",
			"id()": "af640d0f",
			"periodStartTime()": "bdf7acce",
			"periods(uint256)": "ea4a1104",
			"rewardContract()": "6ea69d62",
			"setBaseImportance(uint8)": "9ee7c993",
			"setTotalAmount(uint256)": "60df8a1f",
			"setUserAmounts(uint256)": "edf3b6ca",
			"xusd()": "a1a418a4"
		}
	},
	"abi": [
		{
			"inputs": [
				{
					"internalType": "address",
					"name": "_access",
					"type": "address"
				},
				{
					"internalType": "address",
					"name": "_xusd",
					"type": "address"
				},
				{
					"internalType": "address",
					"name": "_rewardContract",
					"type": "address"
				},
				{
					"components": [
						{
							"internalType": "address",
							"name": "creatorAddress",
							"type": "address"
						},
						{
							"internalType": "string",
							"name": "info",
							"type": "string"
						},
						{
							"internalType": "enum VibeBase.Importance",
							"name": "level",
							"type": "uint8"
						}
					],
					"internalType": "struct VibeBase.VibeInfo",
					"name": "_description",
					"type": "tuple"
				}
			],
			"stateMutability": "nonpayable",
			"type": "constructor"
		},
		{
			"inputs": [
				{
					"internalType": "enum IAccessManager.Rank",
					"name": "roleId",
					"type": "uint8"
				},
				{
					"internalType": "address",
					"name": "addr",
					"type": "address"
				}
			],
			"name": "UnauthorizedAccess",
			"type": "error"
		},
		{
			"inputs": [],
			"name": "DAILY_LIMIT",
			"outputs": [
				{
					"internalType": "uint256",
					"name": "",
					"type": "uint256"
				}
			],
			"stateMutability": "view",
			"type": "function"
		},
		{
			"inputs": [],
			"name": "MAX_AMOUNT",
			"outputs": [
				{
					"internalType": "uint256",
					"name": "",
					"type": "uint256"
				}
			],
			"stateMutability": "view",
			"type": "function"
		},
		{
			"inputs": [],
			"name": "PERIOD_DURATION",
			"outputs": [
				{
					"internalType": "uint256",
					"name": "",
					"type": "uint256"
				}
			],
			"stateMutability": "view",
			"type": "function"
		},
		{
			"inputs": [
				{
					"internalType": "uint256",
					"name": "",
					"type": "uint256"
				}
			],
			"name": "UserActiveList",
			"outputs": [
				{
					"internalType": "bool",
					"name": "",
					"type": "bool"
				}
			],
			"stateMutability": "view",
			"type": "function"
		},
		{
			"inputs": [],
			"name": "accessControl",
			"outputs": [
				{
					"internalType": "contract IAccessManager",
					"name": "",
					"type": "address"
				}
			],
			"stateMutability": "view",
			"type": "function"
		},
		{
			"inputs": [
				{
					"internalType": "address",
					"name": "account",
					"type": "address"
				}
			],
			"name": "addToWhiteList",
			"outputs": [],
			"stateMutability": "nonpayable",
			"type": "function"
		},
		{
			"inputs": [
				{
					"internalType": "address",
					"name": "account",
					"type": "address"
				}
			],
			"name": "addToWhiteListAdmin",
			"outputs": [],
			"stateMutability": "nonpayable",
			"type": "function"
		},
		{
			"inputs": [
				{
					"internalType": "address",
					"name": "to",
					"type": "address"
				},
				{
					"internalType": "address",
					"name": "from",
					"type": "address"
				},
				{
					"internalType": "address",
					"name": "caller",
					"type": "address"
				},
				{
					"internalType": "address",
					"name": "sender",
					"type": "address"
				},
				{
					"internalType": "uint256",
					"name": "amount",
					"type": "uint256"
				},
				{
					"internalType": "int256",
					"name": "vibes",
					"type": "int256"
				}
			],
			"name": "calculateRewards",
			"outputs": [],
			"stateMutability": "nonpayable",
			"type": "function"
		},
		{
			"inputs": [
				{
					"internalType": "address",
					"name": "addy",
					"type": "address"
				},
				{
					"internalType": "uint256",
					"name": "amount",
					"type": "uint256"
				}
			],
			"name": "calculateTotalBasisFee",
			"outputs": [
				{
					"internalType": "int256",
					"name": "",
					"type": "int256"
				}
			],
			"stateMutability": "nonpayable",
			"type": "function"
		},
		{
			"inputs": [],
			"name": "claimReward",
			"outputs": [],
			"stateMutability": "nonpayable",
			"type": "function"
		},
		{
			"inputs": [],
			"name": "description",
			"outputs": [
				{
					"internalType": "string",
					"name": "",
					"type": "string"
				}
			],
			"stateMutability": "view",
			"type": "function"
		},
		{
			"inputs": [],
			"name": "getCurrentPeriod",
			"outputs": [
				{
					"internalType": "uint256",
					"name": "",
					"type": "uint256"
				}
			],
			"stateMutability": "view",
			"type": "function"
		},
		{
			"inputs": [],
			"name": "getDescription",
			"outputs": [
				{
					"internalType": "string",
					"name": "",
					"type": "string"
				}
			],
			"stateMutability": "view",
			"type": "function"
		},
		{
			"inputs": [],
			"name": "getLevel",
			"outputs": [
				{
					"internalType": "enum VibeBase.Importance",
					"name": "",
					"type": "uint8"
				}
			],
			"stateMutability": "view",
			"type": "function"
		},
		{
			"inputs": [
				{
					"internalType": "address",
					"name": "lpAddress",
					"type": "address"
				}
			],
			"name": "getLpCurrentPeriodRewards",
			"outputs": [
				{
					"internalType": "uint256",
					"name": "",
					"type": "uint256"
				}
			],
			"stateMutability": "view",
			"type": "function"
		},
		{
			"inputs": [],
			"name": "getNumberOfWhitelistedLp",
			"outputs": [
				{
					"internalType": "uint256",
					"name": "",
					"type": "uint256"
				}
			],
			"stateMutability": "view",
			"type": "function"
		},
		{
			"inputs": [
				{
					"internalType": "address",
					"name": "traderAddress",
					"type": "address"
				}
			],
			"name": "getTraderCurrentPeriodRewards",
			"outputs": [
				{
					"internalType": "uint256",
					"name": "",
					"type": "uint256"
				}
			],
			"stateMutability": "view",
			"type": "function"
		},
		{
			"inputs": [
				{
					"internalType": "address",
					"name": "user",
					"type": "address"
				}
			],
			"name": "getUsersRewards",
			"outputs": [
				{
					"internalType": "uint256[]",
					"name": "",
					"type": "uint256[]"
				}
			],
			"stateMutability": "view",
			"type": "function"
		},
		{
			"inputs": [],
			"name": "getWhiteListedLpList",
			"outputs": [
				{
					"internalType": "address[]",
					"name": "",
					"type": "address[]"
				}
			],
			"stateMutability": "view",
			"type": "function"
		},
		{
			"inputs": [],
			"name": "id",
			"outputs": [
				{
					"internalType": "address",
					"name": "creatorAddress",
					"type": "address"
				},
				{
					"internalType": "string",
					"name": "info",
					"type": "string"
				},
				{
					"internalType": "enum VibeBase.Importance",
					"name": "level",
					"type": "uint8"
				}
			],
			"stateMutability": "view",
			"type": "function"
		},
		{
			"inputs": [],
			"name": "periodStartTime",
			"outputs": [
				{
					"internalType": "uint256",
					"name": "",
					"type": "uint256"
				}
			],
			"stateMutability": "view",
			"type": "function"
		},
		{
			"inputs": [
				{
					"internalType": "uint256",
					"name": "",
					"type": "uint256"
				}
			],
			"name": "periods",
			"outputs": [
				{
					"internalType": "uint256",
					"name": "totalMarketVolume",
					"type": "uint256"
				},
				{
					"internalType": "uint256",
					"name": "totalRewardsDistributed",
					"type": "uint256"
				}
			],
			"stateMutability": "view",
			"type": "function"
		},
		{
			"inputs": [],
			"name": "rewardContract",
			"outputs": [
				{
					"internalType": "contract IReward",
					"name": "",
					"type": "address"
				}
			],
			"stateMutability": "view",
			"type": "function"
		},
		{
			"inputs": [
				{
					"internalType": "enum VibeBase.Importance",
					"name": "level",
					"type": "uint8"
				}
			],
			"name": "setBaseImportance",
			"outputs": [],
			"stateMutability": "nonpayable",
			"type": "function"
		},
		{
			"inputs": [
				{
					"internalType": "uint256",
					"name": "amounts",
					"type": "uint256"
				}
			],
			"name": "setTotalAmount",
			"outputs": [],
			"stateMutability": "nonpayable",
			"type": "function"
		},
		{
			"inputs": [
				{
					"internalType": "uint256",
					"name": "amounts",
					"type": "uint256"
				}
			],
			"name": "setUserAmounts",
			"outputs": [],
			"stateMutability": "nonpayable",
			"type": "function"
		},
		{
			"inputs": [],
			"name": "xusd",
			"outputs": [
				{
					"internalType": "contract XUSD",
					"name": "",
					"type": "address"
				}
			],
			"stateMutability": "view",
			"type": "function"
		}
	]
}