{
	"solidity/dysnomia/00b_vmreq.sol": {
		"VMREQ": {
			"abi": [
				{
					"inputs": [],
					"stateMutability": "nonpayable",
					"type": "constructor"
				},
				{
					"inputs": [
						{
							"internalType": "address",
							"name": "spender",
							"type": "address"
						},
						{
							"internalType": "uint256",
							"name": "allowance",
							"type": "uint256"
						},
						{
							"internalType": "uint256",
							"name": "needed",
							"type": "uint256"
						}
					],
					"name": "ERC20InsufficientAllowance",
					"type": "error"
				},
				{
					"inputs": [
						{
							"internalType": "address",
							"name": "sender",
							"type": "address"
						},
						{
							"internalType": "uint256",
							"name": "balance",
							"type": "uint256"
						},
						{
							"internalType": "uint256",
							"name": "needed",
							"type": "uint256"
						}
					],
					"name": "ERC20InsufficientBalance",
					"type": "error"
				},
				{
					"inputs": [
						{
							"internalType": "address",
							"name": "approver",
							"type": "address"
						}
					],
					"name": "ERC20InvalidApprover",
					"type": "error"
				},
				{
					"inputs": [
						{
							"internalType": "address",
							"name": "receiver",
							"type": "address"
						}
					],
					"name": "ERC20InvalidReceiver",
					"type": "error"
				},
				{
					"inputs": [
						{
							"internalType": "address",
							"name": "sender",
							"type": "address"
						}
					],
					"name": "ERC20InvalidSender",
					"type": "error"
				},
				{
					"inputs": [
						{
							"internalType": "address",
							"name": "spender",
							"type": "address"
						}
					],
					"name": "ERC20InvalidSpender",
					"type": "error"
				},
				{
					"anonymous": false,
					"inputs": [
						{
							"indexed": true,
							"internalType": "address",
							"name": "owner",
							"type": "address"
						},
						{
							"indexed": true,
							"internalType": "address",
							"name": "spender",
							"type": "address"
						},
						{
							"indexed": false,
							"internalType": "uint256",
							"name": "value",
							"type": "uint256"
						}
					],
					"name": "Approval",
					"type": "event"
				},
				{
					"anonymous": false,
					"inputs": [
						{
							"indexed": true,
							"internalType": "address",
							"name": "from",
							"type": "address"
						},
						{
							"indexed": true,
							"internalType": "address",
							"name": "to",
							"type": "address"
						},
						{
							"indexed": false,
							"internalType": "uint256",
							"name": "value",
							"type": "uint256"
						}
					],
					"name": "Transfer",
					"type": "event"
				},
				{
					"inputs": [],
					"name": "MotzkinPrime",
					"outputs": [
						{
							"internalType": "uint64",
							"name": "",
							"type": "uint64"
						}
					],
					"stateMutability": "view",
					"type": "function"
				},
				{
					"inputs": [],
					"name": "Random",
					"outputs": [
						{
							"internalType": "uint64",
							"name": "",
							"type": "uint64"
						}
					],
					"stateMutability": "nonpayable",
					"type": "function"
				},
				{
					"inputs": [],
					"name": "View",
					"outputs": [
						{
							"components": [
								{
									"components": [
										{
											"internalType": "uint64",
											"name": "Base",
											"type": "uint64"
										},
										{
											"internalType": "uint64",
											"name": "Secret",
											"type": "uint64"
										},
										{
											"internalType": "uint64",
											"name": "Signal",
											"type": "uint64"
										},
										{
											"internalType": "uint64",
											"name": "Channel",
											"type": "uint64"
										},
										{
											"internalType": "uint64",
											"name": "Pole",
											"type": "uint64"
										},
										{
											"internalType": "uint64",
											"name": "Identity",
											"type": "uint64"
										},
										{
											"internalType": "uint64",
											"name": "Foundation",
											"type": "uint64"
										},
										{
											"internalType": "uint64",
											"name": "Element",
											"type": "uint64"
										},
										{
											"internalType": "uint64",
											"name": "Dynamo",
											"type": "uint64"
										},
										{
											"internalType": "uint64",
											"name": "Manifold",
											"type": "uint64"
										},
										{
											"internalType": "uint64",
											"name": "Ring",
											"type": "uint64"
										},
										{
											"internalType": "uint64",
											"name": "Barn",
											"type": "uint64"
										},
										{
											"internalType": "uint64",
											"name": "Coordinate",
											"type": "uint64"
										},
										{
											"internalType": "uint64",
											"name": "Tau",
											"type": "uint64"
										},
										{
											"internalType": "uint64",
											"name": "Eta",
											"type": "uint64"
										},
										{
											"internalType": "uint64",
											"name": "Kappa",
											"type": "uint64"
										},
										{
											"internalType": "uint64",
											"name": "Alpha",
											"type": "uint64"
										},
										{
											"internalType": "uint8",
											"name": "Nu",
											"type": "uint8"
										}
									],
									"internalType": "struct Fa",
									"name": "Rod",
									"type": "tuple"
								},
								{
									"components": [
										{
											"internalType": "uint64",
											"name": "Base",
											"type": "uint64"
										},
										{
											"internalType": "uint64",
											"name": "Secret",
											"type": "uint64"
										},
										{
											"internalType": "uint64",
											"name": "Signal",
											"type": "uint64"
										},
										{
											"internalType": "uint64",
											"name": "Channel",
											"type": "uint64"
										},
										{
											"internalType": "uint64",
											"name": "Pole",
											"type": "uint64"
										},
										{
											"internalType": "uint64",
											"name": "Identity",
											"type": "uint64"
										},
										{
											"internalType": "uint64",
											"name": "Foundation",
											"type": "uint64"
										},
										{
											"internalType": "uint64",
											"name": "Element",
											"type": "uint64"
										},
										{
											"internalType": "uint64",
											"name": "Dynamo",
											"type": "uint64"
										},
										{
											"internalType": "uint64",
											"name": "Manifold",
											"type": "uint64"
										},
										{
											"internalType": "uint64",
											"name": "Ring",
											"type": "uint64"
										},
										{
											"internalType": "uint64",
											"name": "Barn",
											"type": "uint64"
										},
										{
											"internalType": "uint64",
											"name": "Coordinate",
											"type": "uint64"
										},
										{
											"internalType": "uint64",
											"name": "Tau",
											"type": "uint64"
										},
										{
											"internalType": "uint64",
											"name": "Eta",
											"type": "uint64"
										},
										{
											"internalType": "uint64",
											"name": "Kappa",
											"type": "uint64"
										},
										{
											"internalType": "uint64",
											"name": "Alpha",
											"type": "uint64"
										},
										{
											"internalType": "uint8",
											"name": "Nu",
											"type": "uint8"
										}
									],
									"internalType": "struct Fa",
									"name": "Cone",
									"type": "tuple"
								},
								{
									"internalType": "uint64",
									"name": "Phi",
									"type": "uint64"
								},
								{
									"internalType": "uint64",
									"name": "Eta",
									"type": "uint64"
								},
								{
									"internalType": "uint64",
									"name": "Xi",
									"type": "uint64"
								},
								{
									"internalType": "uint64",
									"name": "Sigma",
									"type": "uint64"
								},
								{
									"internalType": "uint64",
									"name": "Rho",
									"type": "uint64"
								},
								{
									"internalType": "uint64",
									"name": "Upsilon",
									"type": "uint64"
								},
								{
									"internalType": "uint64",
									"name": "Ohm",
									"type": "uint64"
								},
								{
									"internalType": "uint64",
									"name": "Pi",
									"type": "uint64"
								},
								{
									"internalType": "uint64",
									"name": "Omicron",
									"type": "uint64"
								},
								{
									"internalType": "uint64",
									"name": "Omega",
									"type": "uint64"
								},
								{
									"internalType": "uint8",
									"name": "Chi",
									"type": "uint8"
								}
							],
							"internalType": "struct Faung",
							"name": "",
							"type": "tuple"
						}
					],
					"stateMutability": "view",
					"type": "function"
				},
				{
					"inputs": [
						{
							"internalType": "address",
							"name": "owner",
							"type": "address"
						},
						{
							"internalType": "address",
							"name": "spender",
							"type": "address"
						}
					],
					"name": "allowance",
					"outputs": [
						{
							"internalType": "uint256",
							"name": "",
							"type": "uint256"
						}
					],
					"stateMutability": "view",
					"type": "function"
				},
				{
					"inputs": [
						{
							"internalType": "address",
							"name": "spender",
							"type": "address"
						},
						{
							"internalType": "uint256",
							"name": "value",
							"type": "uint256"
						}
					],
					"name": "approve",
					"outputs": [
						{
							"internalType": "bool",
							"name": "",
							"type": "bool"
						}
					],
					"stateMutability": "nonpayable",
					"type": "function"
				},
				{
					"inputs": [
						{
							"internalType": "address",
							"name": "account",
							"type": "address"
						}
					],
					"name": "balanceOf",
					"outputs": [
						{
							"internalType": "uint256",
							"name": "",
							"type": "uint256"
						}
					],
					"stateMutability": "view",
					"type": "function"
				},
				{
					"inputs": [
						{
							"internalType": "uint256",
							"name": "value",
							"type": "uint256"
						}
					],
					"name": "burn",
					"outputs": [],
					"stateMutability": "nonpayable",
					"type": "function"
				},
				{
					"inputs": [
						{
							"internalType": "address",
							"name": "account",
							"type": "address"
						},
						{
							"internalType": "uint256",
							"name": "value",
							"type": "uint256"
						}
					],
					"name": "burnFrom",
					"outputs": [],
					"stateMutability": "nonpayable",
					"type": "function"
				},
				{
					"inputs": [],
					"name": "decimals",
					"outputs": [
						{
							"internalType": "uint8",
							"name": "",
							"type": "uint8"
						}
					],
					"stateMutability": "view",
					"type": "function"
				},
				{
					"inputs": [
						{
							"internalType": "address",
							"name": "a",
							"type": "address"
						},
						{
							"internalType": "address",
							"name": "b",
							"type": "address"
						}
					],
					"name": "hashWith",
					"outputs": [
						{
							"internalType": "uint256",
							"name": "hash",
							"type": "uint256"
						}
					],
					"stateMutability": "nonpayable",
					"type": "function"
				},
				{
					"inputs": [
						{
							"internalType": "uint256",
							"name": "_b",
							"type": "uint256"
						},
						{
							"internalType": "uint256",
							"name": "_e",
							"type": "uint256"
						},
						{
							"internalType": "uint256",
							"name": "_m",
							"type": "uint256"
						}
					],
					"name": "modExp",
					"outputs": [
						{
							"internalType": "uint256",
							"name": "result",
							"type": "uint256"
						}
					],
					"stateMutability": "nonpayable",
					"type": "function"
				},
				{
					"inputs": [
						{
							"internalType": "uint64",
							"name": "_b",
							"type": "uint64"
						},
						{
							"internalType": "uint64",
							"name": "_e",
							"type": "uint64"
						},
						{
							"internalType": "uint64",
							"name": "_m",
							"type": "uint64"
						}
					],
					"name": "modExp64",
					"outputs": [
						{
							"internalType": "uint64",
							"name": "result",
							"type": "uint64"
						}
					],
					"stateMutability": "nonpayable",
					"type": "function"
				},
				{
					"inputs": [],
					"name": "name",
					"outputs": [
						{
							"internalType": "string",
							"name": "",
							"type": "string"
						}
					],
					"stateMutability": "view",
					"type": "function"
				},
				{
					"inputs": [],
					"name": "symbol",
					"outputs": [
						{
							"internalType": "string",
							"name": "",
							"type": "string"
						}
					],
					"stateMutability": "view",
					"type": "function"
				},
				{
					"inputs": [],
					"name": "totalSupply",
					"outputs": [
						{
							"internalType": "uint256",
							"name": "",
							"type": "uint256"
						}
					],
					"stateMutability": "view",
					"type": "function"
				},
				{
					"inputs": [
						{
							"internalType": "address",
							"name": "to",
							"type": "address"
						},
						{
							"internalType": "uint256",
							"name": "value",
							"type": "uint256"
						}
					],
					"name": "transfer",
					"outputs": [
						{
							"internalType": "bool",
							"name": "",
							"type": "bool"
						}
					],
					"stateMutability": "nonpayable",
					"type": "function"
				},
				{
					"inputs": [
						{
							"internalType": "address",
							"name": "from",
							"type": "address"
						},
						{
							"internalType": "address",
							"name": "to",
							"type": "address"
						},
						{
							"internalType": "uint256",
							"name": "value",
							"type": "uint256"
						}
					],
					"name": "transferFrom",
					"outputs": [
						{
							"internalType": "bool",
							"name": "",
							"type": "bool"
						}
					],
					"stateMutability": "nonpayable",
					"type": "function"
				}
			],
			"devdoc": {
				"errors": {
					"ERC20InsufficientAllowance(address,uint256,uint256)": [
						{
							"details": "Indicates a failure with the `spender`â€™s `allowance`. Used in transfers.",
							"params": {
								"allowance": "Amount of tokens a `spender` is allowed to operate with.",
								"needed": "Minimum amount required to perform a transfer.",
								"spender": "Address that may be allowed to operate on tokens without being their owner."
							}
						}
					],
					"ERC20InsufficientBalance(address,uint256,uint256)": [
						{
							"details": "Indicates an error related to the current `balance` of a `sender`. Used in transfers.",
							"params": {
								"balance": "Current balance for the interacting account.",
								"needed": "Minimum amount required to perform a transfer.",
								"sender": "Address whose tokens are being transferred."
							}
						}
					],
					"ERC20InvalidApprover(address)": [
						{
							"details": "Indicates a failure with the `approver` of a token to be approved. Used in approvals.",
							"params": {
								"approver": "Address initiating an approval operation."
							}
						}
					],
					"ERC20InvalidReceiver(address)": [
						{
							"details": "Indicates a failure with the token `receiver`. Used in transfers.",
							"params": {
								"receiver": "Address to which tokens are being transferred."
							}
						}
					],
					"ERC20InvalidSender(address)": [
						{
							"details": "Indicates a failure with the token `sender`. Used in transfers.",
							"params": {
								"sender": "Address whose tokens are being transferred."
							}
						}
					],
					"ERC20InvalidSpender(address)": [
						{
							"details": "Indicates a failure with the `spender` to be approved. Used in approvals.",
							"params": {
								"spender": "Address that may be allowed to operate on tokens without being their owner."
							}
						}
					]
				},
				"events": {
					"Approval(address,address,uint256)": {
						"details": "Emitted when the allowance of a `spender` for an `owner` is set by a call to {approve}. `value` is the new allowance."
					},
					"Transfer(address,address,uint256)": {
						"details": "Emitted when `value` tokens are moved from one account (`from`) to another (`to`). Note that `value` may be zero."
					}
				},
				"kind": "dev",
				"methods": {
					"allowance(address,address)": {
						"details": "See {IERC20-allowance}."
					},
					"approve(address,uint256)": {
						"details": "See {IERC20-approve}. NOTE: If `value` is the maximum `uint256`, the allowance is not updated on `transferFrom`. This is semantically equivalent to an infinite approval. Requirements: - `spender` cannot be the zero address."
					},
					"balanceOf(address)": {
						"details": "See {IERC20-balanceOf}."
					},
					"burn(uint256)": {
						"details": "Destroys a `value` amount of tokens from the caller. See {ERC20-_burn}."
					},
					"burnFrom(address,uint256)": {
						"details": "Destroys a `value` amount of tokens from `account`, deducting from the caller's allowance. See {ERC20-_burn} and {ERC20-allowance}. Requirements: - the caller must have allowance for ``accounts``'s tokens of at least `value`."
					},
					"decimals()": {
						"details": "Returns the number of decimals used to get its user representation. For example, if `decimals` equals `2`, a balance of `505` tokens should be displayed to a user as `5.05` (`505 / 10 ** 2`). Tokens usually opt for a value of 18, imitating the relationship between Ether and Wei. This is the default value returned by this function, unless it's overridden. NOTE: This information is only used for _display_ purposes: it in no way affects any of the arithmetic of the contract, including {IERC20-balanceOf} and {IERC20-transfer}."
					},
					"name()": {
						"details": "Returns the name of the token."
					},
					"symbol()": {
						"details": "Returns the symbol of the token, usually a shorter version of the name."
					},
					"totalSupply()": {
						"details": "See {IERC20-totalSupply}."
					},
					"transfer(address,uint256)": {
						"details": "See {IERC20-transfer}. Requirements: - `to` cannot be the zero address. - the caller must have a balance of at least `value`."
					},
					"transferFrom(address,address,uint256)": {
						"details": "See {IERC20-transferFrom}. Emits an {Approval} event indicating the updated allowance. This is not required by the EIP. See the note at the beginning of {ERC20}. NOTE: Does not update the allowance if the current allowance is the maximum `uint256`. Requirements: - `from` and `to` cannot be the zero address. - `from` must have a balance of at least `value`. - the caller must have allowance for ``from``'s tokens of at least `value`."
					}
				},
				"version": 1
			},
			"evm": {
				"assembly": "    /* \"solidity/dysnomia/00b_vmreq.sol\":246:4928  contract VMREQ is ERC20, ERC20Burnable {... */\n  mstore(0x40, 0x80)\n    /* \"solidity/dysnomia/00b_vmreq.sol\":374:2207  constructor() ERC20(unicode\"VM RNG\", unicode\"VMRNG\") {... */\n  callvalue\n  dup1\n  iszero\n  tag_1\n  jumpi\n  revert(0x00, 0x00)\ntag_1:\n  pop\n    /* \"@openzeppelin/contracts/token/ERC20/ERC20.sol\":1896:2009  constructor(string memory name_, string memory symbol_) {... */\n  mload(0x40)\n  dup1\n  0x40\n  add\n  0x40\n  mstore\n  dup1\n  0x06\n  dup2\n  mstore\n  0x20\n  add\n  shl(0xd0, 0x564d20524e47)\n  dup2\n  mstore\n  pop\n  mload(0x40)\n  dup1\n  0x40\n  add\n  0x40\n  mstore\n  dup1\n  0x05\n  dup2\n  mstore\n  0x20\n  add\n  shl(0xd8, 0x564d524e47)\n  dup2\n  mstore\n  pop\n    /* \"@openzeppelin/contracts/token/ERC20/ERC20.sol\":1970:1975  name_ */\n  dup2\n    /* \"@openzeppelin/contracts/token/ERC20/ERC20.sol\":1962:1967  _name */\n  0x03\n    /* \"@openzeppelin/contracts/token/ERC20/ERC20.sol\":1962:1975  _name = name_ */\n  swap1\n  dup2\n  tag_5\n  swap2\n  swap1\n  tag_6\n  jump\t// in\ntag_5:\n  pop\n    /* \"@openzeppelin/contracts/token/ERC20/ERC20.sol\":1985:1992  _symbol */\n  0x04\n    /* \"@openzeppelin/contracts/token/ERC20/ERC20.sol\":1985:2002  _symbol = symbol_ */\n  tag_7\n    /* \"@openzeppelin/contracts/token/ERC20/ERC20.sol\":1995:2002  symbol_ */\n  dup3\n    /* \"@openzeppelin/contracts/token/ERC20/ERC20.sol\":1985:1992  _symbol */\n  dup3\n    /* \"@openzeppelin/contracts/token/ERC20/ERC20.sol\":1985:2002  _symbol = symbol_ */\n  tag_6\n  jump\t// in\ntag_7:\n  pop\n  pop\n    /* \"solidity/dysnomia/00b_vmreq.sol\":558:590  Mu.Rod.Channel = 557333596760636 */\n  0x01fae4570e6a3c0001eea60f0479020002ee53d1d08d2b000227025d8e13ca\n    /* \"solidity/dysnomia/00b_vmreq.sol\":437:439  Mu */\n  0x05\n    /* \"solidity/dysnomia/00b_vmreq.sol\":558:590  Mu.Rod.Channel = 557333596760636 */\n  sstore\n  pop\n    /* \"solidity/dysnomia/00b_vmreq.sol\":713:746  Mu.Rod.Element = 2223096358950737 */\n  0x07e5e4f4c6d7510002dbdcd3778c6d000110e309ee09840000000000000000\n    /* \"solidity/dysnomia/00b_vmreq.sol\":600:611  Mu.Rod.Pole */\n  0x06\n    /* \"solidity/dysnomia/00b_vmreq.sol\":713:746  Mu.Rod.Element = 2223096358950737 */\n  dup2\n  swap1\n  sstore\n    /* \"solidity/dysnomia/00b_vmreq.sol\":879:908  Mu.Rod.Barn = 844220612947355 */\n  0x02ffd06dbf2d9b00063c93e835361b00027b83e305ed18000043984fdf50d4\n    /* \"solidity/dysnomia/00b_vmreq.sol\":756:769  Mu.Rod.Dynamo */\n  0x07\n    /* \"solidity/dysnomia/00b_vmreq.sol\":879:908  Mu.Rod.Barn = 844220612947355 */\n  sstore\n    /* \"solidity/dysnomia/00b_vmreq.sol\":1024:1054  Mu.Rod.Kappa = 345924396891853 */\n  0x013a9dcccbbecd0000234cdd6795d9000000000000000000034add185625d8\n    /* \"solidity/dysnomia/00b_vmreq.sol\":476:489  Mu.Rod.Secret */\n  0x08\n    /* \"solidity/dysnomia/00b_vmreq.sol\":1024:1054  Mu.Rod.Kappa = 345924396891853 */\n  sstore\n    /* \"solidity/dysnomia/00b_vmreq.sol\":1064:1076  Mu.Rod.Alpha */\n  0x09\n    /* \"solidity/dysnomia/00b_vmreq.sol\":1064:1094  Mu.Rod.Alpha = 316408593601476 */\n  dup1\n  sload\n  not(sub(shl(0x48, 0x01), 0x01))\n    /* \"solidity/dysnomia/00b_vmreq.sol\":1104:1117  Mu.Rod.Nu = 0 */\n  swap1\n  dup2\n  and\n    /* \"solidity/dysnomia/00b_vmreq.sol\":1079:1094  316408593601476 */\n  0x011fc59dd353c4\n    /* \"solidity/dysnomia/00b_vmreq.sol\":1104:1117  Mu.Rod.Nu = 0 */\n  or\n  swap1\n  swap2\n  sstore\n    /* \"solidity/dysnomia/00b_vmreq.sol\":1252:1285  Mu.Cone.Channel = 516233364000849 */\n  0x01d582f24850510000aac3dc86188800028246aec62b3d000227025d8e13ca\n    /* \"solidity/dysnomia/00b_vmreq.sol\":1128:1135  Mu.Cone */\n  0x0a\n    /* \"solidity/dysnomia/00b_vmreq.sol\":1252:1285  Mu.Cone.Channel = 516233364000849 */\n  sstore\n    /* \"solidity/dysnomia/00b_vmreq.sol\":1295:1307  Mu.Cone.Pole */\n  0x0b\n    /* \"solidity/dysnomia/00b_vmreq.sol\":1411:1445  Mu.Cone.Element = 2223096358950737 */\n  swap2\n  swap1\n  swap2\n  sstore\n    /* \"solidity/dysnomia/00b_vmreq.sol\":1583:1613  Mu.Cone.Barn = 844220612947355 */\n  0x02ffd06dbf2d9b00063c93e835361b00027b83e305ed1800059591956c8269\n    /* \"solidity/dysnomia/00b_vmreq.sol\":1455:1469  Mu.Cone.Dynamo */\n  0x0c\n    /* \"solidity/dysnomia/00b_vmreq.sol\":1583:1613  Mu.Cone.Barn = 844220612947355 */\n  sstore\n    /* \"solidity/dysnomia/00b_vmreq.sol\":1747:1778  Mu.Cone.Kappa = 492098102631864 */\n  0x01bf8f849a1db8000187bc56a5a81a00009b5daf8bfe0400034add185625d8\n    /* \"solidity/dysnomia/00b_vmreq.sol\":1623:1641  Mu.Cone.Coordinate */\n  0x0d\n    /* \"solidity/dysnomia/00b_vmreq.sol\":1747:1778  Mu.Cone.Kappa = 492098102631864 */\n  sstore\n    /* \"solidity/dysnomia/00b_vmreq.sol\":1788:1801  Mu.Cone.Alpha */\n  0x0e\n    /* \"solidity/dysnomia/00b_vmreq.sol\":1788:1819  Mu.Cone.Alpha = 144212477102829 */\n  dup1\n  sload\n    /* \"solidity/dysnomia/00b_vmreq.sol\":1829:1843  Mu.Cone.Nu = 1 */\n  0x010000832915784aed\n  swap3\n  and\n  swap2\n  swap1\n  swap2\n  or\n  swap1\n  sstore\n    /* \"solidity/dysnomia/00b_vmreq.sol\":1941:1968  Mu.Sigma = 1187934864136657 */\n  0x04386ba397d9d100011dd325062a390002877439321ef20000000000000000\n    /* \"solidity/dysnomia/00b_vmreq.sol\":1854:1860  Mu.Phi */\n  0x0f\n    /* \"solidity/dysnomia/00b_vmreq.sol\":1941:1968  Mu.Sigma = 1187934864136657 */\n  sstore\n    /* \"solidity/dysnomia/00b_vmreq.sol\":2083:2106  Mu.Pi = 144212477102829 */\n  0x832915784aed00002998a7cb1db60000889846490db0000380fd806ce16e\n    /* \"solidity/dysnomia/00b_vmreq.sol\":517:530  Mu.Rod.Signal */\n  0x10\n    /* \"solidity/dysnomia/00b_vmreq.sol\":2083:2106  Mu.Pi = 144212477102829 */\n  sstore\n    /* \"solidity/dysnomia/00b_vmreq.sol\":2116:2124  Mu.Omega */\n  0x11\n    /* \"solidity/dysnomia/00b_vmreq.sol\":2116:2142  Mu.Omega = 492098102631864 */\n  dup1\n  sload\n  not(sub(shl(0x88, 0x01), 0x01))\n    /* \"solidity/dysnomia/00b_vmreq.sol\":2190:2200  Mu.Chi = 0 */\n  and\n    /* \"solidity/dysnomia/00b_vmreq.sol\":2152:2180  Mu.Omicron = 210604844317827 */\n  0x01bf8f849a1db80000bf8b42eefc83\n    /* \"solidity/dysnomia/00b_vmreq.sol\":2190:2200  Mu.Chi = 0 */\n  or\n  swap1\n  sstore\n    /* \"solidity/dysnomia/00b_vmreq.sol\":246:4928  contract VMREQ is ERC20, ERC20Burnable {... */\n  jump(tag_15)\n    /* \"#utility.yul\":14:141   */\ntag_10:\n    /* \"#utility.yul\":75:85   */\n  0x4e487b71\n    /* \"#utility.yul\":70:73   */\n  0xe0\n    /* \"#utility.yul\":66:86   */\n  shl\n    /* \"#utility.yul\":63:64   */\n  0x00\n    /* \"#utility.yul\":56:87   */\n  mstore\n    /* \"#utility.yul\":106:110   */\n  0x41\n    /* \"#utility.yul\":103:104   */\n  0x04\n    /* \"#utility.yul\":96:111   */\n  mstore\n    /* \"#utility.yul\":130:134   */\n  0x24\n    /* \"#utility.yul\":127:128   */\n  0x00\n    /* \"#utility.yul\":120:135   */\n  revert\n    /* \"#utility.yul\":146:526   */\ntag_11:\n    /* \"#utility.yul\":225:226   */\n  0x01\n    /* \"#utility.yul\":221:233   */\n  dup2\n  dup2\n  shr\n  swap1\n    /* \"#utility.yul\":268:280   */\n  dup3\n  and\n  dup1\n    /* \"#utility.yul\":289:350   */\n  tag_18\n  jumpi\n    /* \"#utility.yul\":343:347   */\n  0x7f\n    /* \"#utility.yul\":335:341   */\n  dup3\n    /* \"#utility.yul\":331:348   */\n  and\n    /* \"#utility.yul\":321:348   */\n  swap2\n  pop\n    /* \"#utility.yul\":289:350   */\ntag_18:\n    /* \"#utility.yul\":396:398   */\n  0x20\n    /* \"#utility.yul\":388:394   */\n  dup3\n    /* \"#utility.yul\":385:399   */\n  lt\n    /* \"#utility.yul\":365:383   */\n  dup2\n    /* \"#utility.yul\":362:400   */\n  sub\n    /* \"#utility.yul\":359:520   */\n  tag_19\n  jumpi\n    /* \"#utility.yul\":442:452   */\n  0x4e487b71\n    /* \"#utility.yul\":437:440   */\n  0xe0\n    /* \"#utility.yul\":433:453   */\n  shl\n    /* \"#utility.yul\":430:431   */\n  0x00\n    /* \"#utility.yul\":423:454   */\n  mstore\n    /* \"#utility.yul\":477:481   */\n  0x22\n    /* \"#utility.yul\":474:475   */\n  0x04\n    /* \"#utility.yul\":467:482   */\n  mstore\n    /* \"#utility.yul\":505:509   */\n  0x24\n    /* \"#utility.yul\":502:503   */\n  0x00\n    /* \"#utility.yul\":495:510   */\n  revert\n    /* \"#utility.yul\":359:520   */\ntag_19:\n  pop\n    /* \"#utility.yul\":146:526   */\n  swap2\n  swap1\n  pop\n  jump\t// out\n    /* \"#utility.yul\":657:1175   */\ntag_13:\n    /* \"#utility.yul\":759:761   */\n  0x1f\n    /* \"#utility.yul\":754:757   */\n  dup3\n    /* \"#utility.yul\":751:762   */\n  gt\n    /* \"#utility.yul\":748:1169   */\n  iszero\n  tag_22\n  jumpi\n    /* \"#utility.yul\":795:800   */\n  dup1\n    /* \"#utility.yul\":792:793   */\n  0x00\n    /* \"#utility.yul\":785:801   */\n  mstore\n    /* \"#utility.yul\":839:843   */\n  0x20\n    /* \"#utility.yul\":836:837   */\n  0x00\n    /* \"#utility.yul\":826:844   */\n  keccak256\n    /* \"#utility.yul\":909:911   */\n  0x1f\n    /* \"#utility.yul\":897:907   */\n  dup5\n    /* \"#utility.yul\":893:912   */\n  add\n    /* \"#utility.yul\":890:891   */\n  0x05\n    /* \"#utility.yul\":886:913   */\n  shr\n    /* \"#utility.yul\":880:884   */\n  dup2\n    /* \"#utility.yul\":876:914   */\n  add\n    /* \"#utility.yul\":945:949   */\n  0x20\n    /* \"#utility.yul\":933:943   */\n  dup6\n    /* \"#utility.yul\":930:950   */\n  lt\n    /* \"#utility.yul\":927:974   */\n  iszero\n  tag_23\n  jumpi\n  pop\n    /* \"#utility.yul\":968:972   */\n  dup1\n    /* \"#utility.yul\":927:974   */\ntag_23:\n    /* \"#utility.yul\":1023:1025   */\n  0x1f\n    /* \"#utility.yul\":1018:1021   */\n  dup5\n    /* \"#utility.yul\":1014:1026   */\n  add\n    /* \"#utility.yul\":1011:1012   */\n  0x05\n    /* \"#utility.yul\":1007:1027   */\n  shr\n    /* \"#utility.yul\":1001:1005   */\n  dup3\n    /* \"#utility.yul\":997:1028   */\n  add\n    /* \"#utility.yul\":987:1028   */\n  swap2\n  pop\n    /* \"#utility.yul\":1078:1159   */\ntag_24:\n    /* \"#utility.yul\":1096:1098   */\n  dup2\n    /* \"#utility.yul\":1089:1094   */\n  dup2\n    /* \"#utility.yul\":1086:1099   */\n  lt\n    /* \"#utility.yul\":1078:1159   */\n  iszero\n  tag_26\n  jumpi\n    /* \"#utility.yul\":1155:1156   */\n  0x00\n    /* \"#utility.yul\":1141:1157   */\n  dup2\n  sstore\n    /* \"#utility.yul\":1122:1123   */\n  0x01\n    /* \"#utility.yul\":1111:1124   */\n  add\n    /* \"#utility.yul\":1078:1159   */\n  jump(tag_24)\ntag_26:\n    /* \"#utility.yul\":1082:1085   */\n  pop\n  pop\n    /* \"#utility.yul\":748:1169   */\ntag_22:\n    /* \"#utility.yul\":657:1175   */\n  pop\n  pop\n  pop\n  jump\t// out\n    /* \"#utility.yul\":1351:2650   */\ntag_6:\n    /* \"#utility.yul\":1471:1481   */\n  dup2\n  mload\n  sub(shl(0x40, 0x01), 0x01)\n    /* \"#utility.yul\":1493:1523   */\n  dup2\n  gt\n    /* \"#utility.yul\":1490:1546   */\n  iszero\n  tag_30\n  jumpi\n    /* \"#utility.yul\":1526:1544   */\n  tag_30\n  tag_10\n  jump\t// in\ntag_30:\n    /* \"#utility.yul\":1555:1652   */\n  tag_31\n    /* \"#utility.yul\":1645:1651   */\n  dup2\n    /* \"#utility.yul\":1605:1643   */\n  tag_32\n    /* \"#utility.yul\":1637:1641   */\n  dup5\n    /* \"#utility.yul\":1631:1642   */\n  sload\n    /* \"#utility.yul\":1605:1643   */\n  tag_11\n  jump\t// in\ntag_32:\n    /* \"#utility.yul\":1599:1603   */\n  dup5\n    /* \"#utility.yul\":1555:1652   */\n  tag_13\n  jump\t// in\ntag_31:\n    /* \"#utility.yul\":1701:1705   */\n  0x20\n    /* \"#utility.yul\":1732:1734   */\n  0x1f\n    /* \"#utility.yul\":1721:1735   */\n  dup3\n  gt\n    /* \"#utility.yul\":1749:1750   */\n  0x01\n    /* \"#utility.yul\":1744:2393   */\n  dup2\n  eq\n  tag_34\n  jumpi\n    /* \"#utility.yul\":2437:2438   */\n  0x00\n    /* \"#utility.yul\":2454:2460   */\n  dup4\n    /* \"#utility.yul\":2451:2540   */\n  iszero\n  tag_35\n  jumpi\n  pop\n    /* \"#utility.yul\":2506:2525   */\n  dup5\n  dup3\n  add\n    /* \"#utility.yul\":2500:2526   */\n  mload\n    /* \"#utility.yul\":2451:2540   */\ntag_35:\n  not(0x00)\n    /* \"#utility.yul\":1308:1309   */\n  0x03\n    /* \"#utility.yul\":1304:1315   */\n  dup6\n  swap1\n  shl\n    /* \"#utility.yul\":1300:1324   */\n  shr\n    /* \"#utility.yul\":1296:1325   */\n  not\n    /* \"#utility.yul\":1286:1326   */\n  and\n    /* \"#utility.yul\":1332:1333   */\n  0x01\n    /* \"#utility.yul\":1328:1339   */\n  dup5\n  swap1\n  shl\n    /* \"#utility.yul\":1283:1340   */\n  or\n    /* \"#utility.yul\":2553:2634   */\n  dup5\n  sstore\n    /* \"#utility.yul\":1714:2644   */\n  jump(tag_26)\n    /* \"#utility.yul\":1744:2393   */\ntag_34:\n    /* \"#utility.yul\":604:605   */\n  0x00\n    /* \"#utility.yul\":597:611   */\n  dup5\n  dup2\n  mstore\n    /* \"#utility.yul\":641:645   */\n  0x20\n    /* \"#utility.yul\":628:646   */\n  dup2\n  keccak256\n  not(0x1f)\n    /* \"#utility.yul\":1780:1800   */\n  dup6\n  and\n  swap2\n    /* \"#utility.yul\":1898:2120   */\ntag_38:\n    /* \"#utility.yul\":1912:1919   */\n  dup3\n    /* \"#utility.yul\":1909:1910   */\n  dup2\n    /* \"#utility.yul\":1906:1920   */\n  lt\n    /* \"#utility.yul\":1898:2120   */\n  iszero\n  tag_40\n  jumpi\n    /* \"#utility.yul\":1994:2013   */\n  dup8\n  dup6\n  add\n    /* \"#utility.yul\":1988:2014   */\n  mload\n    /* \"#utility.yul\":1973:2015   */\n  dup3\n  sstore\n    /* \"#utility.yul\":2101:2105   */\n  0x20\n    /* \"#utility.yul\":2086:2106   */\n  swap5\n  dup6\n  add\n  swap5\n    /* \"#utility.yul\":2054:2055   */\n  0x01\n    /* \"#utility.yul\":2042:2056   */\n  swap1\n  swap3\n  add\n  swap2\n    /* \"#utility.yul\":1928:1940   */\n  add\n    /* \"#utility.yul\":1898:2120   */\n  jump(tag_38)\ntag_40:\n    /* \"#utility.yul\":1902:1905   */\n  pop\n    /* \"#utility.yul\":2148:2154   */\n  dup5\n    /* \"#utility.yul\":2139:2146   */\n  dup3\n    /* \"#utility.yul\":2136:2155   */\n  lt\n    /* \"#utility.yul\":2133:2334   */\n  iszero\n  tag_41\n  jumpi\n    /* \"#utility.yul\":2209:2228   */\n  dup7\n  dup5\n  add\n    /* \"#utility.yul\":2203:2229   */\n  mload\n  not(0x00)\n    /* \"#utility.yul\":2292:2293   */\n  0x03\n    /* \"#utility.yul\":2288:2302   */\n  dup8\n  swap1\n  shl\n    /* \"#utility.yul\":2304:2307   */\n  0xf8\n    /* \"#utility.yul\":2284:2308   */\n  and\n    /* \"#utility.yul\":2280:2317   */\n  shr\n    /* \"#utility.yul\":2276:2318   */\n  not\n    /* \"#utility.yul\":2261:2319   */\n  and\n    /* \"#utility.yul\":2246:2320   */\n  dup2\n  sstore\n    /* \"#utility.yul\":2133:2334   */\ntag_41:\n  pop\n  pop\n  pop\n  pop\n    /* \"#utility.yul\":2380:2381   */\n  0x01\n    /* \"#utility.yul\":2364:2378   */\n  swap1\n  dup2\n  shl\n    /* \"#utility.yul\":2360:2382   */\n  add\n    /* \"#utility.yul\":2347:2383   */\n  swap1\n  sstore\n  pop\n    /* \"#utility.yul\":1351:2650   */\n  jump\t// out\ntag_15:\n    /* \"solidity/dysnomia/00b_vmreq.sol\":246:4928  contract VMREQ is ERC20, ERC20Burnable {... */\n  dataSize(sub_0)\n  dup1\n  dataOffset(sub_0)\n  0x00\n  codecopy\n  0x00\n  return\nstop\n\nsub_0: assembly {\n        /* \"solidity/dysnomia/00b_vmreq.sol\":246:4928  contract VMREQ is ERC20, ERC20Burnable {... */\n      mstore(0x40, 0x80)\n      callvalue\n      dup1\n      iszero\n      tag_1\n      jumpi\n      revert(0x00, 0x00)\n    tag_1:\n      pop\n      jumpi(tag_2, lt(calldatasize, 0x04))\n      shr(0xe0, calldataload(0x00))\n      dup1\n      0x53df6e35\n      gt\n      tag_20\n      jumpi\n      dup1\n      0x53df6e35\n      eq\n      tag_11\n      jumpi\n      dup1\n      0x604a6fa9\n      eq\n      tag_12\n      jumpi\n      dup1\n      0x70a08231\n      eq\n      tag_13\n      jumpi\n      dup1\n      0x79cc6790\n      eq\n      tag_14\n      jumpi\n      dup1\n      0x95d89b41\n      eq\n      tag_15\n      jumpi\n      dup1\n      0xa9059cbb\n      eq\n      tag_16\n      jumpi\n      dup1\n      0xd3dc2a0f\n      eq\n      tag_17\n      jumpi\n      dup1\n      0xdd62ed3e\n      eq\n      tag_18\n      jumpi\n      dup1\n      0xfa6bcfec\n      eq\n      tag_19\n      jumpi\n      revert(0x00, 0x00)\n    tag_20:\n      dup1\n      0x06fdde03\n      eq\n      tag_3\n      jumpi\n      dup1\n      0x095ea7b3\n      eq\n      tag_4\n      jumpi\n      dup1\n      0x1686f265\n      eq\n      tag_5\n      jumpi\n      dup1\n      0x18160ddd\n      eq\n      tag_6\n      jumpi\n      dup1\n      0x23b872dd\n      eq\n      tag_7\n      jumpi\n      dup1\n      0x313ce567\n      eq\n      tag_8\n      jumpi\n      dup1\n      0x3148f14f\n      eq\n      tag_9\n      jumpi\n      dup1\n      0x42966c68\n      eq\n      tag_10\n      jumpi\n    tag_2:\n      revert(0x00, 0x00)\n        /* \"@openzeppelin/contracts/token/ERC20/ERC20.sol\":2074:2163  function name() public view virtual returns (string memory) {... */\n    tag_3:\n      tag_21\n      tag_22\n      jump\t// in\n    tag_21:\n      mload(0x40)\n      tag_23\n      swap2\n      swap1\n      tag_24\n      jump\t// in\n    tag_23:\n      mload(0x40)\n      dup1\n      swap2\n      sub\n      swap1\n      return\n        /* \"@openzeppelin/contracts/token/ERC20/ERC20.sol\":4293:4479  function approve(address spender, uint256 value) public virtual returns (bool) {... */\n    tag_4:\n      tag_25\n      tag_26\n      calldatasize\n      0x04\n      tag_27\n      jump\t// in\n    tag_26:\n      tag_28\n      jump\t// in\n    tag_25:\n      mload(0x40)\n        /* \"#utility.yul\":1085:1099   */\n      swap1\n      iszero\n        /* \"#utility.yul\":1078:1100   */\n      iszero\n        /* \"#utility.yul\":1060:1101   */\n      dup2\n      mstore\n        /* \"#utility.yul\":1048:1050   */\n      0x20\n        /* \"#utility.yul\":1033:1051   */\n      add\n        /* \"@openzeppelin/contracts/token/ERC20/ERC20.sol\":4293:4479  function approve(address spender, uint256 value) public virtual returns (bool) {... */\n      tag_23\n        /* \"#utility.yul\":920:1107   */\n      jump\n        /* \"solidity/dysnomia/00b_vmreq.sol\":2213:2289  function View() public view returns(Faung memory) {... */\n    tag_5:\n      tag_31\n      tag_32\n      jump\t// in\n    tag_31:\n      mload(0x40)\n      tag_23\n      swap2\n      swap1\n      tag_34\n      jump\t// in\n        /* \"@openzeppelin/contracts/token/ERC20/ERC20.sol\":3144:3241  function totalSupply() public view virtual returns (uint256) {... */\n    tag_6:\n        /* \"@openzeppelin/contracts/token/ERC20/ERC20.sol\":3222:3234  _totalSupply */\n      sload(0x02)\n        /* \"@openzeppelin/contracts/token/ERC20/ERC20.sol\":3144:3241  function totalSupply() public view virtual returns (uint256) {... */\n    tag_35:\n      mload(0x40)\n        /* \"#utility.yul\":5216:5241   */\n      swap1\n      dup2\n      mstore\n        /* \"#utility.yul\":5204:5206   */\n      0x20\n        /* \"#utility.yul\":5189:5207   */\n      add\n        /* \"@openzeppelin/contracts/token/ERC20/ERC20.sol\":3144:3241  function totalSupply() public view virtual returns (uint256) {... */\n      tag_23\n        /* \"#utility.yul\":5070:5247   */\n      jump\n        /* \"@openzeppelin/contracts/token/ERC20/ERC20.sol\":5039:5283  function transferFrom(address from, address to, uint256 value) public virtual returns (bool) {... */\n    tag_7:\n      tag_25\n      tag_40\n      calldatasize\n      0x04\n      tag_41\n      jump\t// in\n    tag_40:\n      tag_42\n      jump\t// in\n        /* \"@openzeppelin/contracts/token/ERC20/ERC20.sol\":3002:3084  function decimals() public view virtual returns (uint8) {... */\n    tag_8:\n      mload(0x40)\n        /* \"@openzeppelin/contracts/token/ERC20/ERC20.sol\":3075:3077  18 */\n      0x12\n        /* \"#utility.yul\":5773:5809   */\n      dup2\n      mstore\n        /* \"#utility.yul\":5761:5763   */\n      0x20\n        /* \"#utility.yul\":5746:5764   */\n      add\n        /* \"@openzeppelin/contracts/token/ERC20/ERC20.sol\":3002:3084  function decimals() public view virtual returns (uint8) {... */\n      tag_23\n        /* \"#utility.yul\":5631:5815   */\n      jump\n        /* \"solidity/dysnomia/00b_vmreq.sol\":4054:4926  function modExp(uint256 _b, uint256 _e, uint256 _m) public returns (uint256 result) {... */\n    tag_9:\n      tag_35\n      tag_49\n      calldatasize\n      0x04\n      tag_50\n      jump\t// in\n    tag_49:\n      tag_51\n      jump\t// in\n        /* \"@openzeppelin/contracts/token/ERC20/extensions/ERC20Burnable.sol\":618:705  function burn(uint256 value) public virtual {... */\n    tag_10:\n      tag_53\n      tag_54\n      calldatasize\n      0x04\n      tag_55\n      jump\t// in\n    tag_54:\n      tag_56\n      jump\t// in\n    tag_53:\n      stop\n        /* \"solidity/dysnomia/00b_vmreq.sol\":3803:4048  function modExp64(uint64 _b, uint64 _e, uint64 _m) public returns(uint64 result) {... */\n    tag_11:\n      tag_57\n      tag_58\n      calldatasize\n      0x04\n      tag_59\n      jump\t// in\n    tag_58:\n      tag_60\n      jump\t// in\n    tag_57:\n      mload(0x40)\n      sub(shl(0x40, 0x01), 0x01)\n        /* \"#utility.yul\":7193:7224   */\n      swap1\n      swap2\n      and\n        /* \"#utility.yul\":7175:7225   */\n      dup2\n      mstore\n        /* \"#utility.yul\":7163:7165   */\n      0x20\n        /* \"#utility.yul\":7148:7166   */\n      add\n        /* \"solidity/dysnomia/00b_vmreq.sol\":3803:4048  function modExp64(uint64 _b, uint64 _e, uint64 _m) public returns(uint64 result) {... */\n      tag_23\n        /* \"#utility.yul\":7031:7231   */\n      jump\n        /* \"solidity/dysnomia/00b_vmreq.sol\":2940:3390  function Random() public returns(uint64) {... */\n    tag_12:\n      tag_57\n      tag_64\n      jump\t// in\n        /* \"@openzeppelin/contracts/token/ERC20/ERC20.sol\":3299:3415  function balanceOf(address account) public view virtual returns (uint256) {... */\n    tag_13:\n      tag_35\n      tag_67\n      calldatasize\n      0x04\n      tag_68\n      jump\t// in\n    tag_67:\n      sub(shl(0xa0, 0x01), 0x01)\n        /* \"@openzeppelin/contracts/token/ERC20/ERC20.sol\":3390:3408  _balances[account] */\n      and\n        /* \"@openzeppelin/contracts/token/ERC20/ERC20.sol\":3364:3371  uint256 */\n      0x00\n        /* \"@openzeppelin/contracts/token/ERC20/ERC20.sol\":3390:3408  _balances[account] */\n      swap1\n      dup2\n      mstore\n      0x20\n      dup2\n      swap1\n      mstore\n      0x40\n      swap1\n      keccak256\n      sload\n      swap1\n        /* \"@openzeppelin/contracts/token/ERC20/ERC20.sol\":3299:3415  function balanceOf(address account) public view virtual returns (uint256) {... */\n      jump\n        /* \"@openzeppelin/contracts/token/ERC20/extensions/ERC20Burnable.sol\":1021:1179  function burnFrom(address account, uint256 value) public virtual {... */\n    tag_14:\n      tag_53\n      tag_72\n      calldatasize\n      0x04\n      tag_27\n      jump\t// in\n    tag_72:\n      tag_73\n      jump\t// in\n        /* \"@openzeppelin/contracts/token/ERC20/ERC20.sol\":2276:2369  function symbol() public view virtual returns (string memory) {... */\n    tag_15:\n      tag_21\n      tag_75\n      jump\t// in\n        /* \"@openzeppelin/contracts/token/ERC20/ERC20.sol\":3610:3788  function transfer(address to, uint256 value) public virtual returns (bool) {... */\n    tag_16:\n      tag_25\n      tag_78\n      calldatasize\n      0x04\n      tag_27\n      jump\t// in\n    tag_78:\n      tag_79\n      jump\t// in\n        /* \"solidity/dysnomia/00b_vmreq.sol\":291:344  uint64 constant public MotzkinPrime = 953467954114363 */\n    tag_17:\n      tag_57\n        /* \"solidity/dysnomia/00b_vmreq.sol\":329:344  953467954114363 */\n      0x03632c8eb5af3b\n        /* \"solidity/dysnomia/00b_vmreq.sol\":291:344  uint64 constant public MotzkinPrime = 953467954114363 */\n      dup2\n      jump\n        /* \"@openzeppelin/contracts/token/ERC20/ERC20.sol\":3846:3986  function allowance(address owner, address spender) public view virtual returns (uint256) {... */\n    tag_18:\n      tag_35\n      tag_85\n      calldatasize\n      0x04\n      tag_86\n      jump\t// in\n    tag_85:\n      tag_87\n      jump\t// in\n        /* \"solidity/dysnomia/00b_vmreq.sol\":3396:3797  function hashWith(address a, address b) public returns (uint256 hash) {        ... */\n    tag_19:\n      tag_35\n      tag_90\n      calldatasize\n      0x04\n      tag_86\n      jump\t// in\n    tag_90:\n      tag_91\n      jump\t// in\n        /* \"@openzeppelin/contracts/token/ERC20/ERC20.sol\":2074:2163  function name() public view virtual returns (string memory) {... */\n    tag_22:\n        /* \"@openzeppelin/contracts/token/ERC20/ERC20.sol\":2119:2132  string memory */\n      0x60\n        /* \"@openzeppelin/contracts/token/ERC20/ERC20.sol\":2151:2156  _name */\n      0x03\n        /* \"@openzeppelin/contracts/token/ERC20/ERC20.sol\":2144:2156  return _name */\n      dup1\n      sload\n      tag_94\n      swap1\n      tag_95\n      jump\t// in\n    tag_94:\n      dup1\n      0x1f\n      add\n      0x20\n      dup1\n      swap2\n      div\n      mul\n      0x20\n      add\n      mload(0x40)\n      swap1\n      dup2\n      add\n      0x40\n      mstore\n      dup1\n      swap3\n      swap2\n      swap1\n      dup2\n      dup2\n      mstore\n      0x20\n      add\n      dup3\n      dup1\n      sload\n      tag_96\n      swap1\n      tag_95\n      jump\t// in\n    tag_96:\n      dup1\n      iszero\n      tag_97\n      jumpi\n      dup1\n      0x1f\n      lt\n      tag_98\n      jumpi\n      0x0100\n      dup1\n      dup4\n      sload\n      div\n      mul\n      dup4\n      mstore\n      swap2\n      0x20\n      add\n      swap2\n      jump(tag_97)\n    tag_98:\n      dup3\n      add\n      swap2\n      swap1\n      0x00\n      mstore\n      keccak256(0x00, 0x20)\n      swap1\n    tag_99:\n      dup2\n      sload\n      dup2\n      mstore\n      swap1\n      0x01\n      add\n      swap1\n      0x20\n      add\n      dup1\n      dup4\n      gt\n      tag_99\n      jumpi\n      dup3\n      swap1\n      sub\n      0x1f\n      and\n      dup3\n      add\n      swap2\n    tag_97:\n      pop\n      pop\n      pop\n      pop\n      pop\n      swap1\n      pop\n        /* \"@openzeppelin/contracts/token/ERC20/ERC20.sol\":2074:2163  function name() public view virtual returns (string memory) {... */\n      swap1\n      jump\t// out\n        /* \"@openzeppelin/contracts/token/ERC20/ERC20.sol\":4293:4479  function approve(address spender, uint256 value) public virtual returns (bool) {... */\n    tag_28:\n        /* \"@openzeppelin/contracts/token/ERC20/ERC20.sol\":4366:4370  bool */\n      0x00\n        /* \"@openzeppelin/contracts/utils/Context.sol\":735:745  msg.sender */\n      caller\n        /* \"@openzeppelin/contracts/token/ERC20/ERC20.sol\":4420:4451  _approve(owner, spender, value) */\n      tag_103\n        /* \"@openzeppelin/contracts/utils/Context.sol\":735:745  msg.sender */\n      dup2\n        /* \"@openzeppelin/contracts/token/ERC20/ERC20.sol\":4436:4443  spender */\n      dup6\n        /* \"@openzeppelin/contracts/token/ERC20/ERC20.sol\":4445:4450  value */\n      dup6\n        /* \"@openzeppelin/contracts/token/ERC20/ERC20.sol\":4420:4428  _approve */\n      tag_104\n        /* \"@openzeppelin/contracts/token/ERC20/ERC20.sol\":4420:4451  _approve(owner, spender, value) */\n      jump\t// in\n    tag_103:\n        /* \"@openzeppelin/contracts/token/ERC20/ERC20.sol\":4468:4472  true */\n      0x01\n        /* \"@openzeppelin/contracts/token/ERC20/ERC20.sol\":4461:4472  return true */\n      swap2\n      pop\n      pop\n        /* \"@openzeppelin/contracts/token/ERC20/ERC20.sol\":4293:4479  function approve(address spender, uint256 value) public virtual returns (bool) {... */\n    tag_100:\n      swap3\n      swap2\n      pop\n      pop\n      jump\t// out\n        /* \"solidity/dysnomia/00b_vmreq.sol\":2213:2289  function View() public view returns(Faung memory) {... */\n    tag_32:\n        /* \"solidity/dysnomia/00b_vmreq.sol\":2249:2261  Faung memory */\n      tag_105\n      tag_106\n      jump\t// in\n    tag_105:\n        /* \"solidity/dysnomia/00b_vmreq.sol\":2280:2282  Mu */\n      0x05\n        /* \"solidity/dysnomia/00b_vmreq.sol\":2273:2282  return Mu */\n      mload(0x40)\n      dup1\n      0x01a0\n      add\n      0x40\n      mstore\n      swap1\n      dup2\n      0x00\n      dup3\n      add\n      mload(0x40)\n      dup1\n      0x0240\n      add\n      0x40\n      mstore\n      swap1\n      dup2\n      0x00\n      dup3\n      add\n      0x00\n      swap1\n      sload\n      swap1\n      0x0100\n      exp\n      swap1\n      div\n      sub(shl(0x40, 0x01), 0x01)\n      and\n      sub(shl(0x40, 0x01), 0x01)\n      and\n      sub(shl(0x40, 0x01), 0x01)\n      and\n      dup2\n      mstore\n      0x20\n      add\n      0x00\n      dup3\n      add\n      0x08\n      swap1\n      sload\n      swap1\n      0x0100\n      exp\n      swap1\n      div\n      sub(shl(0x40, 0x01), 0x01)\n      and\n      sub(shl(0x40, 0x01), 0x01)\n      and\n      sub(shl(0x40, 0x01), 0x01)\n      and\n      dup2\n      mstore\n      0x20\n      add\n      0x00\n      dup3\n      add\n      0x10\n      swap1\n      sload\n      swap1\n      0x0100\n      exp\n      swap1\n      div\n      sub(shl(0x40, 0x01), 0x01)\n      and\n      sub(shl(0x40, 0x01), 0x01)\n      and\n      sub(shl(0x40, 0x01), 0x01)\n      and\n      dup2\n      mstore\n      0x20\n      add\n      0x00\n      dup3\n      add\n      0x18\n      swap1\n      sload\n      swap1\n      0x0100\n      exp\n      swap1\n      div\n      sub(shl(0x40, 0x01), 0x01)\n      and\n      sub(shl(0x40, 0x01), 0x01)\n      and\n      sub(shl(0x40, 0x01), 0x01)\n      and\n      dup2\n      mstore\n      0x20\n      add\n      0x01\n      dup3\n      add\n      0x00\n      swap1\n      sload\n      swap1\n      0x0100\n      exp\n      swap1\n      div\n      sub(shl(0x40, 0x01), 0x01)\n      and\n      sub(shl(0x40, 0x01), 0x01)\n      and\n      sub(shl(0x40, 0x01), 0x01)\n      and\n      dup2\n      mstore\n      0x20\n      add\n      0x01\n      dup3\n      add\n      0x08\n      swap1\n      sload\n      swap1\n      0x0100\n      exp\n      swap1\n      div\n      sub(shl(0x40, 0x01), 0x01)\n      and\n      sub(shl(0x40, 0x01), 0x01)\n      and\n      sub(shl(0x40, 0x01), 0x01)\n      and\n      dup2\n      mstore\n      0x20\n      add\n      0x01\n      dup3\n      add\n      0x10\n      swap1\n      sload\n      swap1\n      0x0100\n      exp\n      swap1\n      div\n      sub(shl(0x40, 0x01), 0x01)\n      and\n      sub(shl(0x40, 0x01), 0x01)\n      and\n      sub(shl(0x40, 0x01), 0x01)\n      and\n      dup2\n      mstore\n      0x20\n      add\n      0x01\n      dup3\n      add\n      0x18\n      swap1\n      sload\n      swap1\n      0x0100\n      exp\n      swap1\n      div\n      sub(shl(0x40, 0x01), 0x01)\n      and\n      sub(shl(0x40, 0x01), 0x01)\n      and\n      sub(shl(0x40, 0x01), 0x01)\n      and\n      dup2\n      mstore\n      0x20\n      add\n      0x02\n      dup3\n      add\n      0x00\n      swap1\n      sload\n      swap1\n      0x0100\n      exp\n      swap1\n      div\n      sub(shl(0x40, 0x01), 0x01)\n      and\n      sub(shl(0x40, 0x01), 0x01)\n      and\n      sub(shl(0x40, 0x01), 0x01)\n      and\n      dup2\n      mstore\n      0x20\n      add\n      0x02\n      dup3\n      add\n      0x08\n      swap1\n      sload\n      swap1\n      0x0100\n      exp\n      swap1\n      div\n      sub(shl(0x40, 0x01), 0x01)\n      and\n      sub(shl(0x40, 0x01), 0x01)\n      and\n      sub(shl(0x40, 0x01), 0x01)\n      and\n      dup2\n      mstore\n      0x20\n      add\n      0x02\n      dup3\n      add\n      0x10\n      swap1\n      sload\n      swap1\n      0x0100\n      exp\n      swap1\n      div\n      sub(shl(0x40, 0x01), 0x01)\n      and\n      sub(shl(0x40, 0x01), 0x01)\n      and\n      sub(shl(0x40, 0x01), 0x01)\n      and\n      dup2\n      mstore\n      0x20\n      add\n      0x02\n      dup3\n      add\n      0x18\n      swap1\n      sload\n      swap1\n      0x0100\n      exp\n      swap1\n      div\n      sub(shl(0x40, 0x01), 0x01)\n      and\n      sub(shl(0x40, 0x01), 0x01)\n      and\n      sub(shl(0x40, 0x01), 0x01)\n      and\n      dup2\n      mstore\n      0x20\n      add\n      0x03\n      dup3\n      add\n      0x00\n      swap1\n      sload\n      swap1\n      0x0100\n      exp\n      swap1\n      div\n      sub(shl(0x40, 0x01), 0x01)\n      and\n      sub(shl(0x40, 0x01), 0x01)\n      and\n      sub(shl(0x40, 0x01), 0x01)\n      and\n      dup2\n      mstore\n      0x20\n      add\n      0x03\n      dup3\n      add\n      0x08\n      swap1\n      sload\n      swap1\n      0x0100\n      exp\n      swap1\n      div\n      sub(shl(0x40, 0x01), 0x01)\n      and\n      sub(shl(0x40, 0x01), 0x01)\n      and\n      sub(shl(0x40, 0x01), 0x01)\n      and\n      dup2\n      mstore\n      0x20\n      add\n      0x03\n      dup3\n      add\n      0x10\n      swap1\n      sload\n      swap1\n      0x0100\n      exp\n      swap1\n      div\n      sub(shl(0x40, 0x01), 0x01)\n      and\n      sub(shl(0x40, 0x01), 0x01)\n      and\n      sub(shl(0x40, 0x01), 0x01)\n      and\n      dup2\n      mstore\n      0x20\n      add\n      0x03\n      dup3\n      add\n      0x18\n      swap1\n      sload\n      swap1\n      0x0100\n      exp\n      swap1\n      div\n      sub(shl(0x40, 0x01), 0x01)\n      and\n      sub(shl(0x40, 0x01), 0x01)\n      and\n      sub(shl(0x40, 0x01), 0x01)\n      and\n      dup2\n      mstore\n      0x20\n      add\n      0x04\n      dup3\n      add\n      0x00\n      swap1\n      sload\n      swap1\n      0x0100\n      exp\n      swap1\n      div\n      sub(shl(0x40, 0x01), 0x01)\n      and\n      sub(shl(0x40, 0x01), 0x01)\n      and\n      sub(shl(0x40, 0x01), 0x01)\n      and\n      dup2\n      mstore\n      0x20\n      add\n      0x04\n      dup3\n      add\n      0x08\n      swap1\n      sload\n      swap1\n      0x0100\n      exp\n      swap1\n      div\n      0xff\n      and\n      0xff\n      and\n      0xff\n      and\n      dup2\n      mstore\n      pop\n      pop\n      dup2\n      mstore\n      0x20\n      add\n      0x05\n      dup3\n      add\n      mload(0x40)\n      dup1\n      0x0240\n      add\n      0x40\n      mstore\n      swap1\n      dup2\n      0x00\n      dup3\n      add\n      0x00\n      swap1\n      sload\n      swap1\n      0x0100\n      exp\n      swap1\n      div\n      sub(shl(0x40, 0x01), 0x01)\n      and\n      sub(shl(0x40, 0x01), 0x01)\n      and\n      sub(shl(0x40, 0x01), 0x01)\n      and\n      dup2\n      mstore\n      0x20\n      add\n      0x00\n      dup3\n      add\n      0x08\n      swap1\n      sload\n      swap1\n      0x0100\n      exp\n      swap1\n      div\n      sub(shl(0x40, 0x01), 0x01)\n      and\n      sub(shl(0x40, 0x01), 0x01)\n      and\n      sub(shl(0x40, 0x01), 0x01)\n      and\n      dup2\n      mstore\n      0x20\n      add\n      0x00\n      dup3\n      add\n      0x10\n      swap1\n      sload\n      swap1\n      0x0100\n      exp\n      swap1\n      div\n      sub(shl(0x40, 0x01), 0x01)\n      and\n      sub(shl(0x40, 0x01), 0x01)\n      and\n      sub(shl(0x40, 0x01), 0x01)\n      and\n      dup2\n      mstore\n      0x20\n      add\n      0x00\n      dup3\n      add\n      0x18\n      swap1\n      sload\n      swap1\n      0x0100\n      exp\n      swap1\n      div\n      sub(shl(0x40, 0x01), 0x01)\n      and\n      sub(shl(0x40, 0x01), 0x01)\n      and\n      sub(shl(0x40, 0x01), 0x01)\n      and\n      dup2\n      mstore\n      0x20\n      add\n      0x01\n      dup3\n      add\n      0x00\n      swap1\n      sload\n      swap1\n      0x0100\n      exp\n      swap1\n      div\n      sub(shl(0x40, 0x01), 0x01)\n      and\n      sub(shl(0x40, 0x01), 0x01)\n      and\n      sub(shl(0x40, 0x01), 0x01)\n      and\n      dup2\n      mstore\n      0x20\n      add\n      0x01\n      dup3\n      add\n      0x08\n      swap1\n      sload\n      swap1\n      0x0100\n      exp\n      swap1\n      div\n      sub(shl(0x40, 0x01), 0x01)\n      and\n      sub(shl(0x40, 0x01), 0x01)\n      and\n      sub(shl(0x40, 0x01), 0x01)\n      and\n      dup2\n      mstore\n      0x20\n      add\n      0x01\n      dup3\n      add\n      0x10\n      swap1\n      sload\n      swap1\n      0x0100\n      exp\n      swap1\n      div\n      sub(shl(0x40, 0x01), 0x01)\n      and\n      sub(shl(0x40, 0x01), 0x01)\n      and\n      sub(shl(0x40, 0x01), 0x01)\n      and\n      dup2\n      mstore\n      0x20\n      add\n      0x01\n      dup3\n      add\n      0x18\n      swap1\n      sload\n      swap1\n      0x0100\n      exp\n      swap1\n      div\n      sub(shl(0x40, 0x01), 0x01)\n      and\n      sub(shl(0x40, 0x01), 0x01)\n      and\n      sub(shl(0x40, 0x01), 0x01)\n      and\n      dup2\n      mstore\n      0x20\n      add\n      0x02\n      dup3\n      add\n      0x00\n      swap1\n      sload\n      swap1\n      0x0100\n      exp\n      swap1\n      div\n      sub(shl(0x40, 0x01), 0x01)\n      and\n      sub(shl(0x40, 0x01), 0x01)\n      and\n      sub(shl(0x40, 0x01), 0x01)\n      and\n      dup2\n      mstore\n      0x20\n      add\n      0x02\n      dup3\n      add\n      0x08\n      swap1\n      sload\n      swap1\n      0x0100\n      exp\n      swap1\n      div\n      sub(shl(0x40, 0x01), 0x01)\n      and\n      sub(shl(0x40, 0x01), 0x01)\n      and\n      sub(shl(0x40, 0x01), 0x01)\n      and\n      dup2\n      mstore\n      0x20\n      add\n      0x02\n      dup3\n      add\n      0x10\n      swap1\n      sload\n      swap1\n      0x0100\n      exp\n      swap1\n      div\n      sub(shl(0x40, 0x01), 0x01)\n      and\n      sub(shl(0x40, 0x01), 0x01)\n      and\n      sub(shl(0x40, 0x01), 0x01)\n      and\n      dup2\n      mstore\n      0x20\n      add\n      0x02\n      dup3\n      add\n      0x18\n      swap1\n      sload\n      swap1\n      0x0100\n      exp\n      swap1\n      div\n      sub(shl(0x40, 0x01), 0x01)\n      and\n      sub(shl(0x40, 0x01), 0x01)\n      and\n      sub(shl(0x40, 0x01), 0x01)\n      and\n      dup2\n      mstore\n      0x20\n      add\n      0x03\n      dup3\n      add\n      0x00\n      swap1\n      sload\n      swap1\n      0x0100\n      exp\n      swap1\n      div\n      sub(shl(0x40, 0x01), 0x01)\n      and\n      sub(shl(0x40, 0x01), 0x01)\n      and\n      sub(shl(0x40, 0x01), 0x01)\n      and\n      dup2\n      mstore\n      0x20\n      add\n      0x03\n      dup3\n      add\n      0x08\n      swap1\n      sload\n      swap1\n      0x0100\n      exp\n      swap1\n      div\n      sub(shl(0x40, 0x01), 0x01)\n      and\n      sub(shl(0x40, 0x01), 0x01)\n      and\n      sub(shl(0x40, 0x01), 0x01)\n      and\n      dup2\n      mstore\n      0x20\n      add\n      0x03\n      dup3\n      add\n      0x10\n      swap1\n      sload\n      swap1\n      0x0100\n      exp\n      swap1\n      div\n      sub(shl(0x40, 0x01), 0x01)\n      and\n      sub(shl(0x40, 0x01), 0x01)\n      and\n      sub(shl(0x40, 0x01), 0x01)\n      and\n      dup2\n      mstore\n      0x20\n      add\n      0x03\n      dup3\n      add\n      0x18\n      swap1\n      sload\n      swap1\n      0x0100\n      exp\n      swap1\n      div\n      sub(shl(0x40, 0x01), 0x01)\n      and\n      sub(shl(0x40, 0x01), 0x01)\n      and\n      sub(shl(0x40, 0x01), 0x01)\n      and\n      dup2\n      mstore\n      0x20\n      add\n      0x04\n      dup3\n      add\n      0x00\n      swap1\n      sload\n      swap1\n      0x0100\n      exp\n      swap1\n      div\n      sub(shl(0x40, 0x01), 0x01)\n      and\n      sub(shl(0x40, 0x01), 0x01)\n      and\n      sub(shl(0x40, 0x01), 0x01)\n      and\n      dup2\n      mstore\n      0x20\n      add\n      0x04\n      dup3\n      add\n      0x08\n      swap1\n      sload\n      swap1\n      0x0100\n      exp\n      swap1\n      div\n      0xff\n      and\n      0xff\n      and\n      0xff\n      and\n      dup2\n      mstore\n      pop\n      pop\n      dup2\n      mstore\n      0x20\n      add\n      0x0a\n      dup3\n      add\n      0x00\n      swap1\n      sload\n      swap1\n      0x0100\n      exp\n      swap1\n      div\n      sub(shl(0x40, 0x01), 0x01)\n      and\n      sub(shl(0x40, 0x01), 0x01)\n      and\n      sub(shl(0x40, 0x01), 0x01)\n      and\n      dup2\n      mstore\n      0x20\n      add\n      0x0a\n      dup3\n      add\n      0x08\n      swap1\n      sload\n      swap1\n      0x0100\n      exp\n      swap1\n      div\n      sub(shl(0x40, 0x01), 0x01)\n      and\n      sub(shl(0x40, 0x01), 0x01)\n      and\n      sub(shl(0x40, 0x01), 0x01)\n      and\n      dup2\n      mstore\n      0x20\n      add\n      0x0a\n      dup3\n      add\n      0x10\n      swap1\n      sload\n      swap1\n      0x0100\n      exp\n      swap1\n      div\n      sub(shl(0x40, 0x01), 0x01)\n      and\n      sub(shl(0x40, 0x01), 0x01)\n      and\n      sub(shl(0x40, 0x01), 0x01)\n      and\n      dup2\n      mstore\n      0x20\n      add\n      0x0a\n      dup3\n      add\n      0x18\n      swap1\n      sload\n      swap1\n      0x0100\n      exp\n      swap1\n      div\n      sub(shl(0x40, 0x01), 0x01)\n      and\n      sub(shl(0x40, 0x01), 0x01)\n      and\n      sub(shl(0x40, 0x01), 0x01)\n      and\n      dup2\n      mstore\n      0x20\n      add\n      0x0b\n      dup3\n      add\n      0x00\n      swap1\n      sload\n      swap1\n      0x0100\n      exp\n      swap1\n      div\n      sub(shl(0x40, 0x01), 0x01)\n      and\n      sub(shl(0x40, 0x01), 0x01)\n      and\n      sub(shl(0x40, 0x01), 0x01)\n      and\n      dup2\n      mstore\n      0x20\n      add\n      0x0b\n      dup3\n      add\n      0x08\n      swap1\n      sload\n      swap1\n      0x0100\n      exp\n      swap1\n      div\n      sub(shl(0x40, 0x01), 0x01)\n      and\n      sub(shl(0x40, 0x01), 0x01)\n      and\n      sub(shl(0x40, 0x01), 0x01)\n      and\n      dup2\n      mstore\n      0x20\n      add\n      0x0b\n      dup3\n      add\n      0x10\n      swap1\n      sload\n      swap1\n      0x0100\n      exp\n      swap1\n      div\n      sub(shl(0x40, 0x01), 0x01)\n      and\n      sub(shl(0x40, 0x01), 0x01)\n      and\n      sub(shl(0x40, 0x01), 0x01)\n      and\n      dup2\n      mstore\n      0x20\n      add\n      0x0b\n      dup3\n      add\n      0x18\n      swap1\n      sload\n      swap1\n      0x0100\n      exp\n      swap1\n      div\n      sub(shl(0x40, 0x01), 0x01)\n      and\n      sub(shl(0x40, 0x01), 0x01)\n      and\n      sub(shl(0x40, 0x01), 0x01)\n      and\n      dup2\n      mstore\n      0x20\n      add\n      0x0c\n      dup3\n      add\n      0x00\n      swap1\n      sload\n      swap1\n      0x0100\n      exp\n      swap1\n      div\n      sub(shl(0x40, 0x01), 0x01)\n      and\n      sub(shl(0x40, 0x01), 0x01)\n      and\n      sub(shl(0x40, 0x01), 0x01)\n      and\n      dup2\n      mstore\n      0x20\n      add\n      0x0c\n      dup3\n      add\n      0x08\n      swap1\n      sload\n      swap1\n      0x0100\n      exp\n      swap1\n      div\n      sub(shl(0x40, 0x01), 0x01)\n      and\n      sub(shl(0x40, 0x01), 0x01)\n      and\n      sub(shl(0x40, 0x01), 0x01)\n      and\n      dup2\n      mstore\n      0x20\n      add\n      0x0c\n      dup3\n      add\n      0x10\n      swap1\n      sload\n      swap1\n      0x0100\n      exp\n      swap1\n      div\n      0xff\n      and\n      0xff\n      and\n      0xff\n      and\n      dup2\n      mstore\n      pop\n      pop\n      swap1\n      pop\n        /* \"solidity/dysnomia/00b_vmreq.sol\":2213:2289  function View() public view returns(Faung memory) {... */\n      swap1\n      jump\t// out\n        /* \"@openzeppelin/contracts/token/ERC20/ERC20.sol\":5039:5283  function transferFrom(address from, address to, uint256 value) public virtual returns (bool) {... */\n    tag_42:\n        /* \"@openzeppelin/contracts/token/ERC20/ERC20.sol\":5126:5130  bool */\n      0x00\n        /* \"@openzeppelin/contracts/utils/Context.sol\":735:745  msg.sender */\n      caller\n        /* \"@openzeppelin/contracts/token/ERC20/ERC20.sol\":5182:5219  _spendAllowance(from, spender, value) */\n      tag_111\n        /* \"@openzeppelin/contracts/token/ERC20/ERC20.sol\":5198:5202  from */\n      dup6\n        /* \"@openzeppelin/contracts/utils/Context.sol\":735:745  msg.sender */\n      dup3\n        /* \"@openzeppelin/contracts/token/ERC20/ERC20.sol\":5213:5218  value */\n      dup6\n        /* \"@openzeppelin/contracts/token/ERC20/ERC20.sol\":5182:5197  _spendAllowance */\n      tag_112\n        /* \"@openzeppelin/contracts/token/ERC20/ERC20.sol\":5182:5219  _spendAllowance(from, spender, value) */\n      jump\t// in\n    tag_111:\n        /* \"@openzeppelin/contracts/token/ERC20/ERC20.sol\":5229:5255  _transfer(from, to, value) */\n      tag_113\n        /* \"@openzeppelin/contracts/token/ERC20/ERC20.sol\":5239:5243  from */\n      dup6\n        /* \"@openzeppelin/contracts/token/ERC20/ERC20.sol\":5245:5247  to */\n      dup6\n        /* \"@openzeppelin/contracts/token/ERC20/ERC20.sol\":5249:5254  value */\n      dup6\n        /* \"@openzeppelin/contracts/token/ERC20/ERC20.sol\":5229:5238  _transfer */\n      tag_114\n        /* \"@openzeppelin/contracts/token/ERC20/ERC20.sol\":5229:5255  _transfer(from, to, value) */\n      jump\t// in\n    tag_113:\n      pop\n        /* \"@openzeppelin/contracts/token/ERC20/ERC20.sol\":5272:5276  true */\n      0x01\n      swap5\n        /* \"@openzeppelin/contracts/token/ERC20/ERC20.sol\":5039:5283  function transferFrom(address from, address to, uint256 value) public virtual returns (bool) {... */\n      swap4\n      pop\n      pop\n      pop\n      pop\n      jump\t// out\n        /* \"solidity/dysnomia/00b_vmreq.sol\":4054:4926  function modExp(uint256 _b, uint256 _e, uint256 _m) public returns (uint256 result) {... */\n    tag_51:\n        /* \"solidity/dysnomia/00b_vmreq.sol\":4122:4136  uint256 result */\n      0x00\n        /* \"solidity/dysnomia/00b_vmreq.sol\":4227:4231  0x40 */\n      0x40\n        /* \"solidity/dysnomia/00b_vmreq.sol\":4221:4232  mload(0x40) */\n      mload\n        /* \"solidity/dysnomia/00b_vmreq.sol\":4339:4343  0x20 */\n      0x20\n        /* \"solidity/dysnomia/00b_vmreq.sol\":4330:4337  pointer */\n      dup2\n        /* \"solidity/dysnomia/00b_vmreq.sol\":4323:4344  mstore(pointer, 0x20) */\n      mstore\n        /* \"solidity/dysnomia/00b_vmreq.sol\":4384:4388  0x20 */\n      0x20\n        /* \"solidity/dysnomia/00b_vmreq.sol\":4377:4381  0x20 */\n      dup1\n        /* \"solidity/dysnomia/00b_vmreq.sol\":4368:4375  pointer */\n      dup3\n        /* \"solidity/dysnomia/00b_vmreq.sol\":4364:4382  add(pointer, 0x20) */\n      add\n        /* \"solidity/dysnomia/00b_vmreq.sol\":4357:4389  mstore(add(pointer, 0x20), 0x20) */\n      mstore\n        /* \"solidity/dysnomia/00b_vmreq.sol\":4429:4433  0x20 */\n      0x20\n        /* \"solidity/dysnomia/00b_vmreq.sol\":4422:4426  0x40 */\n      0x40\n        /* \"solidity/dysnomia/00b_vmreq.sol\":4413:4420  pointer */\n      dup3\n        /* \"solidity/dysnomia/00b_vmreq.sol\":4409:4427  add(pointer, 0x40) */\n      add\n        /* \"solidity/dysnomia/00b_vmreq.sol\":4402:4434  mstore(add(pointer, 0x40), 0x20) */\n      mstore\n        /* \"solidity/dysnomia/00b_vmreq.sol\":4534:4536  _b */\n      dup5\n        /* \"solidity/dysnomia/00b_vmreq.sol\":4527:4531  0x60 */\n      0x60\n        /* \"solidity/dysnomia/00b_vmreq.sol\":4518:4525  pointer */\n      dup3\n        /* \"solidity/dysnomia/00b_vmreq.sol\":4514:4532  add(pointer, 0x60) */\n      add\n        /* \"solidity/dysnomia/00b_vmreq.sol\":4507:4537  mstore(add(pointer, 0x60), _b) */\n      mstore\n        /* \"solidity/dysnomia/00b_vmreq.sol\":4577:4579  _e */\n      dup4\n        /* \"solidity/dysnomia/00b_vmreq.sol\":4570:4574  0x80 */\n      0x80\n        /* \"solidity/dysnomia/00b_vmreq.sol\":4561:4568  pointer */\n      dup3\n        /* \"solidity/dysnomia/00b_vmreq.sol\":4557:4575  add(pointer, 0x80) */\n      add\n        /* \"solidity/dysnomia/00b_vmreq.sol\":4550:4580  mstore(add(pointer, 0x80), _e) */\n      mstore\n        /* \"solidity/dysnomia/00b_vmreq.sol\":4620:4622  _m */\n      dup3\n        /* \"solidity/dysnomia/00b_vmreq.sol\":4613:4617  0xa0 */\n      0xa0\n        /* \"solidity/dysnomia/00b_vmreq.sol\":4604:4611  pointer */\n      dup3\n        /* \"solidity/dysnomia/00b_vmreq.sol\":4600:4618  add(pointer, 0xa0) */\n      add\n        /* \"solidity/dysnomia/00b_vmreq.sol\":4593:4623  mstore(add(pointer, 0xa0), _m) */\n      mstore\n        /* \"solidity/dysnomia/00b_vmreq.sol\":4688:4692  0xc0 */\n      0xc0\n        /* \"solidity/dysnomia/00b_vmreq.sol\":4682:4693  mload(0xc0) */\n      mload\n        /* \"solidity/dysnomia/00b_vmreq.sol\":4823:4827  0x20 */\n      0x20\n        /* \"solidity/dysnomia/00b_vmreq.sol\":4816:4821  value */\n      dup2\n        /* \"solidity/dysnomia/00b_vmreq.sol\":4810:4814  0xc0 */\n      0xc0\n        /* \"solidity/dysnomia/00b_vmreq.sol\":4801:4808  pointer */\n      dup5\n        /* \"solidity/dysnomia/00b_vmreq.sol\":4798:4799  0 */\n      0x00\n        /* \"solidity/dysnomia/00b_vmreq.sol\":4792:4796  0x05 */\n      0x05\n        /* \"solidity/dysnomia/00b_vmreq.sol\":4788:4789  0 */\n      0x00\n        /* \"solidity/dysnomia/00b_vmreq.sol\":4784:4790  not(0) */\n      not\n        /* \"solidity/dysnomia/00b_vmreq.sol\":4779:4828  call(not(0), 0x05, 0, pointer, 0xc0, value, 0x20) */\n      call\n        /* \"solidity/dysnomia/00b_vmreq.sol\":4769:4874  if iszero(call(not(0), 0x05, 0, pointer, 0xc0, value, 0x20)) {... */\n      tag_117\n      jumpi\n        /* \"solidity/dysnomia/00b_vmreq.sol\":4858:4859  0 */\n      0x00\n        /* \"solidity/dysnomia/00b_vmreq.sol\":4855:4856  0 */\n      0x00\n        /* \"solidity/dysnomia/00b_vmreq.sol\":4848:4860  revert(0, 0) */\n      revert\n        /* \"solidity/dysnomia/00b_vmreq.sol\":4769:4874  if iszero(call(not(0), 0x05, 0, pointer, 0xc0, value, 0x20)) {... */\n    tag_117:\n        /* \"solidity/dysnomia/00b_vmreq.sol\":4898:4910  mload(value) */\n      mload\n      swap6\n        /* \"solidity/dysnomia/00b_vmreq.sol\":4054:4926  function modExp(uint256 _b, uint256 _e, uint256 _m) public returns (uint256 result) {... */\n      swap5\n      pop\n      pop\n      pop\n      pop\n      pop\n      jump\t// out\n        /* \"@openzeppelin/contracts/token/ERC20/extensions/ERC20Burnable.sol\":618:705  function burn(uint256 value) public virtual {... */\n    tag_56:\n        /* \"@openzeppelin/contracts/token/ERC20/extensions/ERC20Burnable.sol\":672:698  _burn(_msgSender(), value) */\n      tag_119\n        /* \"@openzeppelin/contracts/utils/Context.sol\":735:745  msg.sender */\n      caller\n        /* \"@openzeppelin/contracts/token/ERC20/extensions/ERC20Burnable.sol\":692:697  value */\n      dup3\n        /* \"@openzeppelin/contracts/token/ERC20/extensions/ERC20Burnable.sol\":672:677  _burn */\n      tag_121\n        /* \"@openzeppelin/contracts/token/ERC20/extensions/ERC20Burnable.sol\":672:698  _burn(_msgSender(), value) */\n      jump\t// in\n    tag_119:\n        /* \"@openzeppelin/contracts/token/ERC20/extensions/ERC20Burnable.sol\":618:705  function burn(uint256 value) public virtual {... */\n      pop\n      jump\t// out\n        /* \"solidity/dysnomia/00b_vmreq.sol\":3803:4048  function modExp64(uint64 _b, uint64 _e, uint64 _m) public returns(uint64 result) {... */\n    tag_60:\n        /* \"solidity/dysnomia/00b_vmreq.sol\":3869:3882  uint64 result */\n      0x00\n      sub(shl(0x40, 0x01), 0x01)\n        /* \"solidity/dysnomia/00b_vmreq.sol\":3894:3908  uint256 B = _b */\n      dup1\n      dup6\n      and\n      swap1\n        /* \"solidity/dysnomia/00b_vmreq.sol\":3918:3932  uint256 E = _e */\n      dup5\n      dup2\n      and\n      swap1\n        /* \"solidity/dysnomia/00b_vmreq.sol\":3942:3956  uint256 M = _m */\n      dup5\n      dup2\n      and\n      swap1\n        /* \"solidity/dysnomia/00b_vmreq.sol\":3869:3882  uint64 result */\n      dup5\n      swap1\n        /* \"solidity/dysnomia/00b_vmreq.sol\":3984:3999  modExp(B, E, M) */\n      tag_123\n        /* \"solidity/dysnomia/00b_vmreq.sol\":3894:3908  uint256 B = _b */\n      dup6\n        /* \"solidity/dysnomia/00b_vmreq.sol\":3918:3932  uint256 E = _e */\n      dup6\n        /* \"solidity/dysnomia/00b_vmreq.sol\":3942:3956  uint256 M = _m */\n      dup6\n        /* \"solidity/dysnomia/00b_vmreq.sol\":3984:3990  modExp */\n      tag_51\n        /* \"solidity/dysnomia/00b_vmreq.sol\":3984:3999  modExp(B, E, M) */\n      jump\t// in\n    tag_123:\n        /* \"solidity/dysnomia/00b_vmreq.sol\":3984:4022  modExp(B, E, M) % 18446744073709551615 */\n      tag_124\n      swap2\n      swap1\n      tag_125\n      jump\t// in\n    tag_124:\n        /* \"solidity/dysnomia/00b_vmreq.sol\":3966:4023  uint64 R = uint64(modExp(B, E, M) % 18446744073709551615) */\n      swap9\n        /* \"solidity/dysnomia/00b_vmreq.sol\":3803:4048  function modExp64(uint64 _b, uint64 _e, uint64 _m) public returns(uint64 result) {... */\n      swap8\n      pop\n      pop\n      pop\n      pop\n      pop\n      pop\n      pop\n      pop\n      jump\t// out\n        /* \"solidity/dysnomia/00b_vmreq.sol\":2940:3390  function Random() public returns(uint64) {... */\n    tag_64:\n        /* \"solidity/dysnomia/00b_vmreq.sol\":3008:3018  Mu.Upsilon */\n      sload(0x10)\n        /* \"solidity/dysnomia/00b_vmreq.sol\":2973:2979  uint64 */\n      0x00\n      swap1\n        /* \"solidity/dysnomia/00b_vmreq.sol\":2991:3019  Amplify(Mu.Cone, Mu.Upsilon) */\n      tag_127\n      swap1\n        /* \"solidity/dysnomia/00b_vmreq.sol\":2999:3006  Mu.Cone */\n      0x0a\n      swap1\n      shl(0x40, 0x01)\n        /* \"solidity/dysnomia/00b_vmreq.sol\":3008:3018  Mu.Upsilon */\n      swap1\n      div\n      sub(shl(0x40, 0x01), 0x01)\n      and\n        /* \"solidity/dysnomia/00b_vmreq.sol\":2991:2998  Amplify */\n      tag_128\n        /* \"solidity/dysnomia/00b_vmreq.sol\":2991:3019  Amplify(Mu.Cone, Mu.Upsilon) */\n      jump\t// in\n    tag_127:\n      pop\n        /* \"solidity/dysnomia/00b_vmreq.sol\":3038:3051  Mu.Cone.Alpha */\n      sload(0x0e)\n        /* \"solidity/dysnomia/00b_vmreq.sol\":3029:3035  Mu.Ohm */\n      0x10\n        /* \"solidity/dysnomia/00b_vmreq.sol\":3029:3051  Mu.Ohm = Mu.Cone.Alpha */\n      dup1\n      sload\n      not(shl(0x80, 0xffffffffffffffff))\n      and\n      sub(shl(0x40, 0x01), 0x01)\n        /* \"solidity/dysnomia/00b_vmreq.sol\":3038:3051  Mu.Cone.Alpha */\n      swap3\n      dup4\n      and\n      shl(0x80, 0x01)\n        /* \"solidity/dysnomia/00b_vmreq.sol\":3029:3051  Mu.Ohm = Mu.Cone.Alpha */\n      swap1\n      dup2\n      mul\n      swap2\n      swap1\n      swap2\n      or\n      swap2\n      dup3\n      swap1\n      sstore\n        /* \"solidity/dysnomia/00b_vmreq.sol\":3061:3085  Sustain(Mu.Cone, Mu.Ohm) */\n      tag_129\n      swap3\n        /* \"solidity/dysnomia/00b_vmreq.sol\":3038:3045  Mu.Cone */\n      0x0a\n      swap3\n        /* \"solidity/dysnomia/00b_vmreq.sol\":3078:3084  Mu.Ohm */\n      swap2\n      swap1\n      swap2\n      div\n      and\n        /* \"solidity/dysnomia/00b_vmreq.sol\":3061:3068  Sustain */\n      tag_128\n        /* \"solidity/dysnomia/00b_vmreq.sol\":3061:3085  Sustain(Mu.Cone, Mu.Ohm) */\n      jump\t// in\n    tag_129:\n      pop\n        /* \"solidity/dysnomia/00b_vmreq.sol\":3103:3116  Mu.Cone.Alpha */\n      sload(0x0e)\n        /* \"solidity/dysnomia/00b_vmreq.sol\":3095:3100  Mu.Pi */\n      0x10\n        /* \"solidity/dysnomia/00b_vmreq.sol\":3095:3116  Mu.Pi = Mu.Cone.Alpha */\n      dup1\n      sload\n      sub(shl(0xc0, 0x01), 0x01)\n      and\n      sub(shl(0x40, 0x01), 0x01)\n        /* \"solidity/dysnomia/00b_vmreq.sol\":3103:3116  Mu.Cone.Alpha */\n      swap3\n      dup4\n      and\n      shl(0xc0, 0x01)\n        /* \"solidity/dysnomia/00b_vmreq.sol\":3095:3116  Mu.Pi = Mu.Cone.Alpha */\n      swap1\n      dup2\n      mul\n      swap2\n      swap1\n      swap2\n      or\n      swap2\n      dup3\n      swap1\n      sstore\n        /* \"solidity/dysnomia/00b_vmreq.sol\":3148:3162  Mu.Cone.Dynamo */\n      sload(0x0c)\n        /* \"solidity/dysnomia/00b_vmreq.sol\":3126:3163  React(Mu.Cone, Mu.Pi, Mu.Cone.Dynamo) */\n      tag_131\n      swap4\n        /* \"solidity/dysnomia/00b_vmreq.sol\":3103:3110  Mu.Cone */\n      0x0a\n      swap4\n        /* \"solidity/dysnomia/00b_vmreq.sol\":3141:3146  Mu.Pi */\n      swap3\n      swap1\n      swap3\n      div\n      dup3\n      and\n      swap2\n        /* \"solidity/dysnomia/00b_vmreq.sol\":3148:3162  Mu.Cone.Dynamo */\n      and\n        /* \"solidity/dysnomia/00b_vmreq.sol\":3126:3131  React */\n      tag_132\n        /* \"solidity/dysnomia/00b_vmreq.sol\":3126:3163  React(Mu.Cone, Mu.Pi, Mu.Cone.Dynamo) */\n      jump\t// in\n    tag_131:\n        /* \"solidity/dysnomia/00b_vmreq.sol\":3186:3199  Mu.Cone.Kappa */\n      sload(0x0d)\n        /* \"solidity/dysnomia/00b_vmreq.sol\":3173:3183  Mu.Omicron */\n      0x11\n        /* \"solidity/dysnomia/00b_vmreq.sol\":3173:3199  Mu.Omicron = Mu.Cone.Kappa */\n      dup1\n      sload\n      not(0xffffffffffffffff)\n      and\n      sub(shl(0x40, 0x01), 0x01)\n      shl(0xc0, 0x01)\n        /* \"solidity/dysnomia/00b_vmreq.sol\":3186:3199  Mu.Cone.Kappa */\n      swap4\n      dup5\n      swap1\n      div\n      dup2\n      and\n        /* \"solidity/dysnomia/00b_vmreq.sol\":3173:3199  Mu.Omicron = Mu.Cone.Kappa */\n      swap2\n      swap1\n      swap2\n      or\n      swap1\n      swap2\n      sstore\n        /* \"solidity/dysnomia/00b_vmreq.sol\":3223:3228  Mu.Pi */\n      sload(0x10)\n        /* \"solidity/dysnomia/00b_vmreq.sol\":3230:3243  Mu.Rod.Dynamo */\n      sload(0x07)\n        /* \"solidity/dysnomia/00b_vmreq.sol\":3209:3244  React(Mu.Rod, Mu.Pi, Mu.Rod.Dynamo) */\n      tag_133\n      swap4\n        /* \"solidity/dysnomia/00b_vmreq.sol\":3186:3188  Mu */\n      0x05\n      swap4\n        /* \"solidity/dysnomia/00b_vmreq.sol\":3223:3228  Mu.Pi */\n      swap3\n      div\n      dup3\n      and\n      swap2\n        /* \"solidity/dysnomia/00b_vmreq.sol\":3230:3243  Mu.Rod.Dynamo */\n      and\n        /* \"solidity/dysnomia/00b_vmreq.sol\":3209:3214  React */\n      tag_132\n        /* \"solidity/dysnomia/00b_vmreq.sol\":3209:3244  React(Mu.Rod, Mu.Pi, Mu.Rod.Dynamo) */\n      jump\t// in\n    tag_133:\n      pop\n        /* \"solidity/dysnomia/00b_vmreq.sol\":3276:3288  Mu.Rod.Kappa */\n      sload(0x08)\n        /* \"solidity/dysnomia/00b_vmreq.sol\":3265:3273  Mu.Omega */\n      0x11\n      dup1\n      sload\n      shl(0x40, 0x01)\n      dup1\n      dup3\n      div\n      sub(shl(0x40, 0x01), 0x01)\n      swap1\n      dup2\n      and\n      shl(0xc0, 0x01)\n        /* \"solidity/dysnomia/00b_vmreq.sol\":3276:3288  Mu.Rod.Kappa */\n      swap6\n      dup7\n      swap1\n      div\n      dup3\n      and\n        /* \"solidity/dysnomia/00b_vmreq.sol\":3265:3288  Mu.Omega ^ Mu.Rod.Kappa */\n      xor\n        /* \"solidity/dysnomia/00b_vmreq.sol\":3254:3288  Mu.Omega = Mu.Omega ^ Mu.Rod.Kappa */\n      dup2\n      and\n      dup3\n      mul\n      not(shl(0x40, 0xffffffffffffffff))\n      swap4\n      dup5\n      and\n      or\n      swap1\n      swap4\n      sstore\n        /* \"solidity/dysnomia/00b_vmreq.sol\":3342:3347  Mu.Pi */\n      0x10\n      dup1\n      sload\n        /* \"solidity/dysnomia/00b_vmreq.sol\":3320:3330  Mu.Upsilon */\n      dup3\n      dup2\n      div\n      dup6\n      and\n      shl(0x80, 0x01)\n        /* \"solidity/dysnomia/00b_vmreq.sol\":3333:3339  Mu.Ohm */\n      dup3\n      div\n      dup7\n      and\n        /* \"solidity/dysnomia/00b_vmreq.sol\":3320:3339  Mu.Upsilon ^ Mu.Ohm */\n      xor\n        /* \"solidity/dysnomia/00b_vmreq.sol\":3342:3347  Mu.Pi */\n      swap6\n      dup2\n      div\n      dup6\n      and\n        /* \"solidity/dysnomia/00b_vmreq.sol\":3320:3347  Mu.Upsilon ^ Mu.Ohm ^ Mu.Pi */\n      swap6\n      swap1\n      swap6\n      xor\n        /* \"solidity/dysnomia/00b_vmreq.sol\":3307:3347  Mu.Upsilon = Mu.Upsilon ^ Mu.Ohm ^ Mu.Pi */\n      dup5\n      and\n      dup3\n      mul\n      swap5\n      swap1\n      swap3\n      and\n      swap4\n      swap1\n      swap4\n      or\n      swap1\n      dup2\n      swap1\n      sstore\n        /* \"solidity/dysnomia/00b_vmreq.sol\":3373:3383  Mu.Upsilon */\n      swap2\n      swap1\n      swap2\n      div\n      and\n      swap1\n        /* \"solidity/dysnomia/00b_vmreq.sol\":2940:3390  function Random() public returns(uint64) {... */\n      jump\t// out\n        /* \"@openzeppelin/contracts/token/ERC20/extensions/ERC20Burnable.sol\":1021:1179  function burnFrom(address account, uint256 value) public virtual {... */\n    tag_73:\n        /* \"@openzeppelin/contracts/token/ERC20/extensions/ERC20Burnable.sol\":1096:1141  _spendAllowance(account, _msgSender(), value) */\n      tag_136\n        /* \"@openzeppelin/contracts/token/ERC20/extensions/ERC20Burnable.sol\":1112:1119  account */\n      dup3\n        /* \"@openzeppelin/contracts/utils/Context.sol\":735:745  msg.sender */\n      caller\n        /* \"@openzeppelin/contracts/token/ERC20/extensions/ERC20Burnable.sol\":1135:1140  value */\n      dup4\n        /* \"@openzeppelin/contracts/token/ERC20/extensions/ERC20Burnable.sol\":1096:1111  _spendAllowance */\n      tag_112\n        /* \"@openzeppelin/contracts/token/ERC20/extensions/ERC20Burnable.sol\":1096:1141  _spendAllowance(account, _msgSender(), value) */\n      jump\t// in\n    tag_136:\n        /* \"@openzeppelin/contracts/token/ERC20/extensions/ERC20Burnable.sol\":1151:1172  _burn(account, value) */\n      tag_138\n        /* \"@openzeppelin/contracts/token/ERC20/extensions/ERC20Burnable.sol\":1157:1164  account */\n      dup3\n        /* \"@openzeppelin/contracts/token/ERC20/extensions/ERC20Burnable.sol\":1166:1171  value */\n      dup3\n        /* \"@openzeppelin/contracts/token/ERC20/extensions/ERC20Burnable.sol\":1151:1156  _burn */\n      tag_121\n        /* \"@openzeppelin/contracts/token/ERC20/extensions/ERC20Burnable.sol\":1151:1172  _burn(account, value) */\n      jump\t// in\n    tag_138:\n        /* \"@openzeppelin/contracts/token/ERC20/extensions/ERC20Burnable.sol\":1021:1179  function burnFrom(address account, uint256 value) public virtual {... */\n      pop\n      pop\n      jump\t// out\n        /* \"@openzeppelin/contracts/token/ERC20/ERC20.sol\":2276:2369  function symbol() public view virtual returns (string memory) {... */\n    tag_75:\n        /* \"@openzeppelin/contracts/token/ERC20/ERC20.sol\":2323:2336  string memory */\n      0x60\n        /* \"@openzeppelin/contracts/token/ERC20/ERC20.sol\":2355:2362  _symbol */\n      0x04\n        /* \"@openzeppelin/contracts/token/ERC20/ERC20.sol\":2348:2362  return _symbol */\n      dup1\n      sload\n      tag_94\n      swap1\n      tag_95\n      jump\t// in\n        /* \"@openzeppelin/contracts/token/ERC20/ERC20.sol\":3610:3788  function transfer(address to, uint256 value) public virtual returns (bool) {... */\n    tag_79:\n        /* \"@openzeppelin/contracts/token/ERC20/ERC20.sol\":3679:3683  bool */\n      0x00\n        /* \"@openzeppelin/contracts/utils/Context.sol\":735:745  msg.sender */\n      caller\n        /* \"@openzeppelin/contracts/token/ERC20/ERC20.sol\":3733:3760  _transfer(owner, to, value) */\n      tag_103\n        /* \"@openzeppelin/contracts/utils/Context.sol\":735:745  msg.sender */\n      dup2\n        /* \"@openzeppelin/contracts/token/ERC20/ERC20.sol\":3750:3752  to */\n      dup6\n        /* \"@openzeppelin/contracts/token/ERC20/ERC20.sol\":3754:3759  value */\n      dup6\n        /* \"@openzeppelin/contracts/token/ERC20/ERC20.sol\":3733:3742  _transfer */\n      tag_114\n        /* \"@openzeppelin/contracts/token/ERC20/ERC20.sol\":3733:3760  _transfer(owner, to, value) */\n      jump\t// in\n        /* \"@openzeppelin/contracts/token/ERC20/ERC20.sol\":3846:3986  function allowance(address owner, address spender) public view virtual returns (uint256) {... */\n    tag_87:\n      sub(shl(0xa0, 0x01), 0x01)\n        /* \"@openzeppelin/contracts/token/ERC20/ERC20.sol\":3952:3970  _allowances[owner] */\n      swap2\n      dup3\n      and\n        /* \"@openzeppelin/contracts/token/ERC20/ERC20.sol\":3926:3933  uint256 */\n      0x00\n        /* \"@openzeppelin/contracts/token/ERC20/ERC20.sol\":3952:3970  _allowances[owner] */\n      swap1\n      dup2\n      mstore\n        /* \"@openzeppelin/contracts/token/ERC20/ERC20.sol\":3952:3963  _allowances */\n      0x01\n        /* \"@openzeppelin/contracts/token/ERC20/ERC20.sol\":3952:3970  _allowances[owner] */\n      0x20\n      swap1\n      dup2\n      mstore\n      0x40\n      dup1\n      dup4\n      keccak256\n        /* \"@openzeppelin/contracts/token/ERC20/ERC20.sol\":3952:3979  _allowances[owner][spender] */\n      swap4\n      swap1\n      swap5\n      and\n      dup3\n      mstore\n      swap2\n      swap1\n      swap2\n      mstore\n      keccak256\n      sload\n      swap1\n        /* \"@openzeppelin/contracts/token/ERC20/ERC20.sol\":3846:3986  function allowance(address owner, address spender) public view virtual returns (uint256) {... */\n      jump\t// out\n        /* \"solidity/dysnomia/00b_vmreq.sol\":3396:3797  function hashWith(address a, address b) public returns (uint256 hash) {        ... */\n    tag_91:\n        /* \"solidity/dysnomia/00b_vmreq.sol\":3452:3464  uint256 hash */\n      0x00\n        /* \"solidity/dysnomia/00b_vmreq.sol\":3523:3524  a */\n      dup3\n        /* \"solidity/dysnomia/00b_vmreq.sol\":3452:3464  uint256 hash */\n      dup2\n        /* \"solidity/dysnomia/00b_vmreq.sol\":3548:3563  uint160(b) / 15 */\n      tag_150\n        /* \"solidity/dysnomia/00b_vmreq.sol\":3561:3563  15 */\n      0x0f\n        /* \"solidity/dysnomia/00b_vmreq.sol\":3556:3557  b */\n      dup6\n        /* \"solidity/dysnomia/00b_vmreq.sol\":3548:3563  uint160(b) / 15 */\n      tag_151\n      jump\t// in\n    tag_150:\n        /* \"solidity/dysnomia/00b_vmreq.sol\":3535:3563  uint160 _b = uint160(b) / 15 */\n      swap1\n      pop\n        /* \"solidity/dysnomia/00b_vmreq.sol\":3597:3702  while(hash == 0) {... */\n    tag_152:\n        /* \"solidity/dysnomia/00b_vmreq.sol\":3603:3607  hash */\n      dup3\n        /* \"solidity/dysnomia/00b_vmreq.sol\":3611:3612  0 */\n      0x00\n        /* \"solidity/dysnomia/00b_vmreq.sol\":3603:3612  hash == 0 */\n      sub\n        /* \"solidity/dysnomia/00b_vmreq.sol\":3597:3702  while(hash == 0) {... */\n      tag_153\n      jumpi\n        /* \"solidity/dysnomia/00b_vmreq.sol\":329:344  953467954114363 */\n      0x03632c8eb5af3b\n      sub(shl(0xa0, 0x01), 0x01)\n        /* \"solidity/dysnomia/00b_vmreq.sol\":3640:3646  _a**_b */\n      dup1\n      dup4\n      and\n      dup5\n      dup3\n      and\n      exp\n        /* \"solidity/dysnomia/00b_vmreq.sol\":3639:3660  (_a**_b)%MotzkinPrime */\n      and\n      mod\n      sub(shl(0xa0, 0x01), 0x01)\n        /* \"solidity/dysnomia/00b_vmreq.sol\":3632:3660  hash = (_a**_b)%MotzkinPrime */\n      and\n      swap3\n      pop\n        /* \"solidity/dysnomia/00b_vmreq.sol\":3686:3687  2 */\n      0x02\n        /* \"solidity/dysnomia/00b_vmreq.sol\":3683:3685  _b */\n      dup2\n      sub(shl(0xa0, 0x01), 0x01)\n        /* \"solidity/dysnomia/00b_vmreq.sol\":3683:3687  _b/2 */\n      and\n      dup2\n      tag_158\n      jumpi\n      tag_158\n      tag_156\n      jump\t// in\n    tag_158:\n      div\n        /* \"solidity/dysnomia/00b_vmreq.sol\":3678:3687  _b = _b/2 */\n      swap1\n      pop\n        /* \"solidity/dysnomia/00b_vmreq.sol\":3597:3702  while(hash == 0) {... */\n      jump(tag_152)\n    tag_153:\n        /* \"solidity/dysnomia/00b_vmreq.sol\":3728:3790  modExp(uint256(uint160(a)), uint256(uint160(b)), MotzkinPrime) */\n      tag_159\n      sub(shl(0xa0, 0x01), 0x01)\n        /* \"solidity/dysnomia/00b_vmreq.sol\":3735:3754  uint256(uint160(a)) */\n      dup1\n      dup8\n      and\n      swap1\n        /* \"solidity/dysnomia/00b_vmreq.sol\":3756:3775  uint256(uint160(b)) */\n      dup7\n      and\n        /* \"solidity/dysnomia/00b_vmreq.sol\":329:344  953467954114363 */\n      0x03632c8eb5af3b\n        /* \"solidity/dysnomia/00b_vmreq.sol\":3728:3734  modExp */\n      tag_51\n        /* \"solidity/dysnomia/00b_vmreq.sol\":3728:3790  modExp(uint256(uint160(a)), uint256(uint160(b)), MotzkinPrime) */\n      jump\t// in\n    tag_159:\n        /* \"solidity/dysnomia/00b_vmreq.sol\":3721:3790  return modExp(uint256(uint160(a)), uint256(uint160(b)), MotzkinPrime) */\n      swap6\n        /* \"solidity/dysnomia/00b_vmreq.sol\":3396:3797  function hashWith(address a, address b) public returns (uint256 hash) {        ... */\n      swap5\n      pop\n      pop\n      pop\n      pop\n      pop\n      jump\t// out\n        /* \"@openzeppelin/contracts/token/ERC20/ERC20.sol\":8989:9117  function _approve(address owner, address spender, uint256 value) internal {... */\n    tag_104:\n        /* \"@openzeppelin/contracts/token/ERC20/ERC20.sol\":9073:9110  _approve(owner, spender, value, true) */\n      tag_162\n        /* \"@openzeppelin/contracts/token/ERC20/ERC20.sol\":9082:9087  owner */\n      dup4\n        /* \"@openzeppelin/contracts/token/ERC20/ERC20.sol\":9089:9096  spender */\n      dup4\n        /* \"@openzeppelin/contracts/token/ERC20/ERC20.sol\":9098:9103  value */\n      dup4\n        /* \"@openzeppelin/contracts/token/ERC20/ERC20.sol\":9105:9109  true */\n      0x01\n        /* \"@openzeppelin/contracts/token/ERC20/ERC20.sol\":9073:9081  _approve */\n      tag_163\n        /* \"@openzeppelin/contracts/token/ERC20/ERC20.sol\":9073:9110  _approve(owner, spender, value, true) */\n      jump\t// in\n    tag_162:\n        /* \"@openzeppelin/contracts/token/ERC20/ERC20.sol\":8989:9117  function _approve(address owner, address spender, uint256 value) internal {... */\n      pop\n      pop\n      pop\n      jump\t// out\n        /* \"@openzeppelin/contracts/token/ERC20/ERC20.sol\":10663:11140  function _spendAllowance(address owner, address spender, uint256 value) internal virtual {... */\n    tag_112:\n        /* \"@openzeppelin/contracts/token/ERC20/ERC20.sol\":10762:10786  uint256 currentAllowance */\n      0x00\n        /* \"@openzeppelin/contracts/token/ERC20/ERC20.sol\":10789:10814  allowance(owner, spender) */\n      tag_165\n        /* \"@openzeppelin/contracts/token/ERC20/ERC20.sol\":10799:10804  owner */\n      dup5\n        /* \"@openzeppelin/contracts/token/ERC20/ERC20.sol\":10806:10813  spender */\n      dup5\n        /* \"@openzeppelin/contracts/token/ERC20/ERC20.sol\":10789:10798  allowance */\n      tag_87\n        /* \"@openzeppelin/contracts/token/ERC20/ERC20.sol\":10789:10814  allowance(owner, spender) */\n      jump\t// in\n    tag_165:\n        /* \"@openzeppelin/contracts/token/ERC20/ERC20.sol\":10762:10814  uint256 currentAllowance = allowance(owner, spender) */\n      swap1\n      pop\n      not(0x00)\n        /* \"@openzeppelin/contracts/token/ERC20/ERC20.sol\":10828:10844  currentAllowance */\n      dup2\n        /* \"@openzeppelin/contracts/token/ERC20/ERC20.sol\":10828:10865  currentAllowance != type(uint256).max */\n      eq\n        /* \"@openzeppelin/contracts/token/ERC20/ERC20.sol\":10824:11134  if (currentAllowance != type(uint256).max) {... */\n      tag_170\n      jumpi\n        /* \"@openzeppelin/contracts/token/ERC20/ERC20.sol\":10904:10909  value */\n      dup2\n        /* \"@openzeppelin/contracts/token/ERC20/ERC20.sol\":10885:10901  currentAllowance */\n      dup2\n        /* \"@openzeppelin/contracts/token/ERC20/ERC20.sol\":10885:10909  currentAllowance < value */\n      lt\n        /* \"@openzeppelin/contracts/token/ERC20/ERC20.sol\":10881:11011  if (currentAllowance < value) {... */\n      iszero\n      tag_167\n      jumpi\n        /* \"@openzeppelin/contracts/token/ERC20/ERC20.sol\":10963:10970  spender */\n      dup3\n        /* \"@openzeppelin/contracts/token/ERC20/ERC20.sol\":10972:10988  currentAllowance */\n      dup2\n        /* \"@openzeppelin/contracts/token/ERC20/ERC20.sol\":10990:10995  value */\n      dup4\n        /* \"@openzeppelin/contracts/token/ERC20/ERC20.sol\":10936:10996  ERC20InsufficientAllowance(spender, currentAllowance, value) */\n      mload(0x40)\n      shl(0xe1, 0x7dc7a0d9)\n      dup2\n      mstore\n      0x04\n      add\n      tag_168\n      swap4\n      swap3\n      swap2\n      swap1\n      tag_169\n      jump\t// in\n    tag_168:\n      mload(0x40)\n      dup1\n      swap2\n      sub\n      swap1\n      revert\n        /* \"@openzeppelin/contracts/token/ERC20/ERC20.sol\":10881:11011  if (currentAllowance < value) {... */\n    tag_167:\n        /* \"@openzeppelin/contracts/token/ERC20/ERC20.sol\":11052:11109  _approve(owner, spender, currentAllowance - value, false) */\n      tag_170\n        /* \"@openzeppelin/contracts/token/ERC20/ERC20.sol\":11061:11066  owner */\n      dup5\n        /* \"@openzeppelin/contracts/token/ERC20/ERC20.sol\":11068:11075  spender */\n      dup5\n        /* \"@openzeppelin/contracts/token/ERC20/ERC20.sol\":11096:11101  value */\n      dup5\n        /* \"@openzeppelin/contracts/token/ERC20/ERC20.sol\":11077:11093  currentAllowance */\n      dup5\n        /* \"@openzeppelin/contracts/token/ERC20/ERC20.sol\":11077:11101  currentAllowance - value */\n      sub\n        /* \"@openzeppelin/contracts/token/ERC20/ERC20.sol\":11103:11108  false */\n      0x00\n        /* \"@openzeppelin/contracts/token/ERC20/ERC20.sol\":11052:11060  _approve */\n      tag_163\n        /* \"@openzeppelin/contracts/token/ERC20/ERC20.sol\":11052:11109  _approve(owner, spender, currentAllowance - value, false) */\n      jump\t// in\n    tag_170:\n        /* \"@openzeppelin/contracts/token/ERC20/ERC20.sol\":10752:11140  {... */\n      pop\n        /* \"@openzeppelin/contracts/token/ERC20/ERC20.sol\":10663:11140  function _spendAllowance(address owner, address spender, uint256 value) internal virtual {... */\n      pop\n      pop\n      pop\n      jump\t// out\n        /* \"@openzeppelin/contracts/token/ERC20/ERC20.sol\":5656:5956  function _transfer(address from, address to, uint256 value) internal {... */\n    tag_114:\n      sub(shl(0xa0, 0x01), 0x01)\n        /* \"@openzeppelin/contracts/token/ERC20/ERC20.sol\":5739:5757  from == address(0) */\n      dup4\n      and\n        /* \"@openzeppelin/contracts/token/ERC20/ERC20.sol\":5735:5821  if (from == address(0)) {... */\n      tag_172\n      jumpi\n        /* \"@openzeppelin/contracts/token/ERC20/ERC20.sol\":5807:5808  0 */\n      0x00\n        /* \"@openzeppelin/contracts/token/ERC20/ERC20.sol\":5780:5810  ERC20InvalidSender(address(0)) */\n      mload(0x40)\n      shl(0xe1, 0x4b637e8f)\n      dup2\n      mstore\n      0x04\n      add\n      tag_168\n      swap2\n      swap1\n      tag_174\n      jump\t// in\n        /* \"@openzeppelin/contracts/token/ERC20/ERC20.sol\":5735:5821  if (from == address(0)) {... */\n    tag_172:\n      sub(shl(0xa0, 0x01), 0x01)\n        /* \"@openzeppelin/contracts/token/ERC20/ERC20.sol\":5834:5850  to == address(0) */\n      dup3\n      and\n        /* \"@openzeppelin/contracts/token/ERC20/ERC20.sol\":5830:5916  if (to == address(0)) {... */\n      tag_175\n      jumpi\n        /* \"@openzeppelin/contracts/token/ERC20/ERC20.sol\":5902:5903  0 */\n      0x00\n        /* \"@openzeppelin/contracts/token/ERC20/ERC20.sol\":5873:5905  ERC20InvalidReceiver(address(0)) */\n      mload(0x40)\n      shl(0xe0, 0xec442f05)\n      dup2\n      mstore\n      0x04\n      add\n      tag_168\n      swap2\n      swap1\n      tag_174\n      jump\t// in\n        /* \"@openzeppelin/contracts/token/ERC20/ERC20.sol\":5830:5916  if (to == address(0)) {... */\n    tag_175:\n        /* \"@openzeppelin/contracts/token/ERC20/ERC20.sol\":5925:5949  _update(from, to, value) */\n      tag_162\n        /* \"@openzeppelin/contracts/token/ERC20/ERC20.sol\":5933:5937  from */\n      dup4\n        /* \"@openzeppelin/contracts/token/ERC20/ERC20.sol\":5939:5941  to */\n      dup4\n        /* \"@openzeppelin/contracts/token/ERC20/ERC20.sol\":5943:5948  value */\n      dup4\n        /* \"@openzeppelin/contracts/token/ERC20/ERC20.sol\":5925:5932  _update */\n      tag_178\n        /* \"@openzeppelin/contracts/token/ERC20/ERC20.sol\":5925:5949  _update(from, to, value) */\n      jump\t// in\n        /* \"@openzeppelin/contracts/token/ERC20/ERC20.sol\":8247:8453  function _burn(address account, uint256 value) internal {... */\n    tag_121:\n      sub(shl(0xa0, 0x01), 0x01)\n        /* \"@openzeppelin/contracts/token/ERC20/ERC20.sol\":8317:8338  account == address(0) */\n      dup3\n      and\n        /* \"@openzeppelin/contracts/token/ERC20/ERC20.sol\":8313:8402  if (account == address(0)) {... */\n      tag_180\n      jumpi\n        /* \"@openzeppelin/contracts/token/ERC20/ERC20.sol\":8388:8389  0 */\n      0x00\n        /* \"@openzeppelin/contracts/token/ERC20/ERC20.sol\":8361:8391  ERC20InvalidSender(address(0)) */\n      mload(0x40)\n      shl(0xe1, 0x4b637e8f)\n      dup2\n      mstore\n      0x04\n      add\n      tag_168\n      swap2\n      swap1\n      tag_174\n      jump\t// in\n        /* \"@openzeppelin/contracts/token/ERC20/ERC20.sol\":8313:8402  if (account == address(0)) {... */\n    tag_180:\n        /* \"@openzeppelin/contracts/token/ERC20/ERC20.sol\":8411:8446  _update(account, address(0), value) */\n      tag_138\n        /* \"@openzeppelin/contracts/token/ERC20/ERC20.sol\":8419:8426  account */\n      dup3\n        /* \"@openzeppelin/contracts/token/ERC20/ERC20.sol\":8436:8437  0 */\n      0x00\n        /* \"@openzeppelin/contracts/token/ERC20/ERC20.sol\":8440:8445  value */\n      dup4\n        /* \"@openzeppelin/contracts/token/ERC20/ERC20.sol\":8411:8418  _update */\n      tag_178\n        /* \"@openzeppelin/contracts/token/ERC20/ERC20.sol\":8411:8446  _update(account, address(0), value) */\n      jump\t// in\n        /* \"solidity/dysnomia/00b_vmreq.sol\":2468:2586  function Amplify(Fa storage Rod, uint64 Upsilon) internal returns(uint64) {... */\n    tag_128:\n        /* \"solidity/dysnomia/00b_vmreq.sol\":2534:2540  uint64 */\n      0x00\n        /* \"solidity/dysnomia/00b_vmreq.sol\":2559:2579  Torque(Rod, Upsilon) */\n      tag_184\n        /* \"solidity/dysnomia/00b_vmreq.sol\":2566:2569  Rod */\n      dup4\n        /* \"solidity/dysnomia/00b_vmreq.sol\":2571:2578  Upsilon */\n      dup4\n        /* \"solidity/dysnomia/00b_vmreq.sol\":2559:2565  Torque */\n      tag_185\n        /* \"solidity/dysnomia/00b_vmreq.sol\":2559:2579  Torque(Rod, Upsilon) */\n      jump\t// in\n    tag_184:\n        /* \"solidity/dysnomia/00b_vmreq.sol\":2552:2579  return Torque(Rod, Upsilon) */\n      swap4\n        /* \"solidity/dysnomia/00b_vmreq.sol\":2468:2586  function Amplify(Fa storage Rod, uint64 Upsilon) internal returns(uint64) {... */\n      swap3\n      pop\n      pop\n      pop\n      jump\t// out\n        /* \"solidity/dysnomia/00b_vmreq.sol\":2708:2934  function React(Fa storage Rod, uint64 Pi, uint64 Theta) internal {... */\n    tag_132:\n        /* \"solidity/dysnomia/00b_vmreq.sol\":2806:2817  Rod.Channel */\n      dup3\n      sload\n        /* \"solidity/dysnomia/00b_vmreq.sol\":2793:2825  modExp64(Pi, Rod.Channel, Theta) */\n      tag_189\n      swap1\n        /* \"solidity/dysnomia/00b_vmreq.sol\":2802:2804  Pi */\n      dup4\n      swap1\n      shl(0xc0, 0x01)\n        /* \"solidity/dysnomia/00b_vmreq.sol\":2806:2817  Rod.Channel */\n      swap1\n      div\n      sub(shl(0x40, 0x01), 0x01)\n      and\n        /* \"solidity/dysnomia/00b_vmreq.sol\":2819:2824  Theta */\n      dup4\n        /* \"solidity/dysnomia/00b_vmreq.sol\":2793:2801  modExp64 */\n      tag_60\n        /* \"solidity/dysnomia/00b_vmreq.sol\":2793:2825  modExp64(Pi, Rod.Channel, Theta) */\n      jump\t// in\n    tag_189:\n        /* \"solidity/dysnomia/00b_vmreq.sol\":2783:2790  Rod.Eta */\n      0x03\n      dup5\n      add\n        /* \"solidity/dysnomia/00b_vmreq.sol\":2783:2825  Rod.Eta = modExp64(Pi, Rod.Channel, Theta) */\n      dup1\n      sload\n      not(shl(0x80, 0xffffffffffffffff))\n      and\n      shl(0x80, 0x01)\n      sub(shl(0x40, 0x01), 0x01)\n      swap4\n      dup5\n      and\n      mul\n      or\n      swap1\n      sstore\n        /* \"solidity/dysnomia/00b_vmreq.sol\":2867:2878  Rod.Channel */\n      dup4\n      sload\n        /* \"solidity/dysnomia/00b_vmreq.sol\":2847:2879  modExp64(Pi, Theta, Rod.Channel) */\n      tag_190\n      swap2\n        /* \"solidity/dysnomia/00b_vmreq.sol\":2856:2858  Pi */\n      dup5\n      swap2\n        /* \"solidity/dysnomia/00b_vmreq.sol\":2860:2865  Theta */\n      dup5\n      swap2\n      shl(0xc0, 0x01)\n        /* \"solidity/dysnomia/00b_vmreq.sol\":2867:2878  Rod.Channel */\n      swap1\n      swap2\n      div\n      and\n        /* \"solidity/dysnomia/00b_vmreq.sol\":2847:2855  modExp64 */\n      tag_60\n        /* \"solidity/dysnomia/00b_vmreq.sol\":2847:2879  modExp64(Pi, Theta, Rod.Channel) */\n      jump\t// in\n    tag_190:\n        /* \"solidity/dysnomia/00b_vmreq.sol\":2835:2844  Rod.Kappa */\n      0x03\n      dup5\n      add\n        /* \"solidity/dysnomia/00b_vmreq.sol\":2835:2879  Rod.Kappa = modExp64(Pi, Theta, Rod.Channel) */\n      dup1\n      sload\n      sub(shl(0xc0, 0x01), 0x01)\n      and\n      shl(0xc0, 0x01)\n      sub(shl(0x40, 0x01), 0x01)\n      swap4\n      dup5\n      and\n      mul\n      or\n      swap1\n      dup2\n      swap1\n      sstore\n      shl(0x80, 0x01)\n        /* \"solidity/dysnomia/00b_vmreq.sol\":2896:2903  Rod.Eta */\n      swap1\n      div\n      and\n        /* \"solidity/dysnomia/00b_vmreq.sol\":2896:2908  Rod.Eta != 0 */\n      iszero\n      dup1\n      iszero\n      swap1\n        /* \"solidity/dysnomia/00b_vmreq.sol\":2896:2926  Rod.Eta != 0 && Rod.Kappa != 0 */\n      tag_191\n      jumpi\n      pop\n        /* \"solidity/dysnomia/00b_vmreq.sol\":2912:2921  Rod.Kappa */\n      0x03\n      dup4\n      add\n      sload\n      shl(0xc0, 0x01)\n      swap1\n      div\n      sub(shl(0x40, 0x01), 0x01)\n      and\n        /* \"solidity/dysnomia/00b_vmreq.sol\":2912:2926  Rod.Kappa != 0 */\n      iszero\n      iszero\n        /* \"solidity/dysnomia/00b_vmreq.sol\":2896:2926  Rod.Eta != 0 && Rod.Kappa != 0 */\n    tag_191:\n        /* \"solidity/dysnomia/00b_vmreq.sol\":2889:2927  assert(Rod.Eta != 0 && Rod.Kappa != 0) */\n      tag_162\n      jumpi\n      tag_162\n      tag_194\n      jump\t// in\n        /* \"@openzeppelin/contracts/token/ERC20/ERC20.sol\":9949:10381  function _approve(address owner, address spender, uint256 value, bool emitEvent) internal virtual {... */\n    tag_163:\n      sub(shl(0xa0, 0x01), 0x01)\n        /* \"@openzeppelin/contracts/token/ERC20/ERC20.sol\":10061:10080  owner == address(0) */\n      dup5\n      and\n        /* \"@openzeppelin/contracts/token/ERC20/ERC20.sol\":10057:10146  if (owner == address(0)) {... */\n      tag_196\n      jumpi\n        /* \"@openzeppelin/contracts/token/ERC20/ERC20.sol\":10132:10133  0 */\n      0x00\n        /* \"@openzeppelin/contracts/token/ERC20/ERC20.sol\":10103:10135  ERC20InvalidApprover(address(0)) */\n      mload(0x40)\n      shl(0xe0, 0xe602df05)\n      dup2\n      mstore\n      0x04\n      add\n      tag_168\n      swap2\n      swap1\n      tag_174\n      jump\t// in\n        /* \"@openzeppelin/contracts/token/ERC20/ERC20.sol\":10057:10146  if (owner == address(0)) {... */\n    tag_196:\n      sub(shl(0xa0, 0x01), 0x01)\n        /* \"@openzeppelin/contracts/token/ERC20/ERC20.sol\":10159:10180  spender == address(0) */\n      dup4\n      and\n        /* \"@openzeppelin/contracts/token/ERC20/ERC20.sol\":10155:10245  if (spender == address(0)) {... */\n      tag_198\n      jumpi\n        /* \"@openzeppelin/contracts/token/ERC20/ERC20.sol\":10231:10232  0 */\n      0x00\n        /* \"@openzeppelin/contracts/token/ERC20/ERC20.sol\":10203:10234  ERC20InvalidSpender(address(0)) */\n      mload(0x40)\n      shl(0xe1, 0x4a1406b1)\n      dup2\n      mstore\n      0x04\n      add\n      tag_168\n      swap2\n      swap1\n      tag_174\n      jump\t// in\n        /* \"@openzeppelin/contracts/token/ERC20/ERC20.sol\":10155:10245  if (spender == address(0)) {... */\n    tag_198:\n      sub(shl(0xa0, 0x01), 0x01)\n        /* \"@openzeppelin/contracts/token/ERC20/ERC20.sol\":10254:10272  _allowances[owner] */\n      dup1\n      dup6\n      and\n      0x00\n      swap1\n      dup2\n      mstore\n        /* \"@openzeppelin/contracts/token/ERC20/ERC20.sol\":10254:10265  _allowances */\n      0x01\n        /* \"@openzeppelin/contracts/token/ERC20/ERC20.sol\":10254:10272  _allowances[owner] */\n      0x20\n      swap1\n      dup2\n      mstore\n      0x40\n      dup1\n      dup4\n      keccak256\n        /* \"@openzeppelin/contracts/token/ERC20/ERC20.sol\":10254:10281  _allowances[owner][spender] */\n      swap4\n      dup8\n      and\n      dup4\n      mstore\n      swap3\n      swap1\n      mstore\n      keccak256\n        /* \"@openzeppelin/contracts/token/ERC20/ERC20.sol\":10254:10289  _allowances[owner][spender] = value */\n      dup3\n      swap1\n      sstore\n        /* \"@openzeppelin/contracts/token/ERC20/ERC20.sol\":10299:10375  if (emitEvent) {... */\n      dup1\n      iszero\n      tag_170\n      jumpi\n        /* \"@openzeppelin/contracts/token/ERC20/ERC20.sol\":10349:10356  spender */\n      dup3\n      sub(shl(0xa0, 0x01), 0x01)\n        /* \"@openzeppelin/contracts/token/ERC20/ERC20.sol\":10333:10364  Approval(owner, spender, value) */\n      and\n        /* \"@openzeppelin/contracts/token/ERC20/ERC20.sol\":10342:10347  owner */\n      dup5\n      sub(shl(0xa0, 0x01), 0x01)\n        /* \"@openzeppelin/contracts/token/ERC20/ERC20.sol\":10333:10364  Approval(owner, spender, value) */\n      and\n      0x8c5be1e5ebec7d5bd14f71427d1e84f3dd0314c0f7b2291e5b200ac8c7c3b925\n        /* \"@openzeppelin/contracts/token/ERC20/ERC20.sol\":10358:10363  value */\n      dup5\n        /* \"@openzeppelin/contracts/token/ERC20/ERC20.sol\":10333:10364  Approval(owner, spender, value) */\n      mload(0x40)\n      tag_201\n      swap2\n        /* \"#utility.yul\":5216:5241   */\n      dup2\n      mstore\n        /* \"#utility.yul\":5204:5206   */\n      0x20\n        /* \"#utility.yul\":5189:5207   */\n      add\n      swap1\n        /* \"#utility.yul\":5070:5247   */\n      jump\n        /* \"@openzeppelin/contracts/token/ERC20/ERC20.sol\":10333:10364  Approval(owner, spender, value) */\n    tag_201:\n      mload(0x40)\n      dup1\n      swap2\n      sub\n      swap1\n      log3\n        /* \"@openzeppelin/contracts/token/ERC20/ERC20.sol\":9949:10381  function _approve(address owner, address spender, uint256 value, bool emitEvent) internal virtual {... */\n      pop\n      pop\n      pop\n      pop\n      jump\t// out\n        /* \"@openzeppelin/contracts/token/ERC20/ERC20.sol\":6271:7378  function _update(address from, address to, uint256 value) internal virtual {... */\n    tag_178:\n      sub(shl(0xa0, 0x01), 0x01)\n        /* \"@openzeppelin/contracts/token/ERC20/ERC20.sol\":6360:6378  from == address(0) */\n      dup4\n      and\n        /* \"@openzeppelin/contracts/token/ERC20/ERC20.sol\":6356:6896  if (from == address(0)) {... */\n      tag_203\n      jumpi\n        /* \"@openzeppelin/contracts/token/ERC20/ERC20.sol\":6512:6517  value */\n      dup1\n        /* \"@openzeppelin/contracts/token/ERC20/ERC20.sol\":6496:6508  _totalSupply */\n      0x02\n      0x00\n        /* \"@openzeppelin/contracts/token/ERC20/ERC20.sol\":6496:6517  _totalSupply += value */\n      dup3\n      dup3\n      sload\n      tag_204\n      swap2\n      swap1\n      tag_205\n      jump\t// in\n    tag_204:\n      swap1\n      swap2\n      sstore\n      pop\n        /* \"@openzeppelin/contracts/token/ERC20/ERC20.sol\":6356:6896  if (from == address(0)) {... */\n      tag_206\n      swap1\n      pop\n      jump\n    tag_203:\n      sub(shl(0xa0, 0x01), 0x01)\n        /* \"@openzeppelin/contracts/token/ERC20/ERC20.sol\":6570:6585  _balances[from] */\n      dup4\n      and\n        /* \"@openzeppelin/contracts/token/ERC20/ERC20.sol\":6548:6567  uint256 fromBalance */\n      0x00\n        /* \"@openzeppelin/contracts/token/ERC20/ERC20.sol\":6570:6585  _balances[from] */\n      swap1\n      dup2\n      mstore\n      0x20\n      dup2\n      swap1\n      mstore\n      0x40\n      swap1\n      keccak256\n      sload\n        /* \"@openzeppelin/contracts/token/ERC20/ERC20.sol\":6603:6622  fromBalance < value */\n      dup2\n      dup2\n      lt\n        /* \"@openzeppelin/contracts/token/ERC20/ERC20.sol\":6599:6714  if (fromBalance < value) {... */\n      iszero\n      tag_207\n      jumpi\n        /* \"@openzeppelin/contracts/token/ERC20/ERC20.sol\":6674:6678  from */\n      dup4\n        /* \"@openzeppelin/contracts/token/ERC20/ERC20.sol\":6680:6691  fromBalance */\n      dup2\n        /* \"@openzeppelin/contracts/token/ERC20/ERC20.sol\":6693:6698  value */\n      dup4\n        /* \"@openzeppelin/contracts/token/ERC20/ERC20.sol\":6649:6699  ERC20InsufficientBalance(from, fromBalance, value) */\n      mload(0x40)\n      shl(0xe2, 0x391434e3)\n      dup2\n      mstore\n      0x04\n      add\n      tag_168\n      swap4\n      swap3\n      swap2\n      swap1\n      tag_169\n      jump\t// in\n        /* \"@openzeppelin/contracts/token/ERC20/ERC20.sol\":6599:6714  if (fromBalance < value) {... */\n    tag_207:\n      sub(shl(0xa0, 0x01), 0x01)\n        /* \"@openzeppelin/contracts/token/ERC20/ERC20.sol\":6834:6849  _balances[from] */\n      dup5\n      and\n        /* \"@openzeppelin/contracts/token/ERC20/ERC20.sol\":6834:6843  _balances */\n      0x00\n        /* \"@openzeppelin/contracts/token/ERC20/ERC20.sol\":6834:6849  _balances[from] */\n      swap1\n      dup2\n      mstore\n      0x20\n      dup2\n      swap1\n      mstore\n      0x40\n      swap1\n      keccak256\n        /* \"@openzeppelin/contracts/token/ERC20/ERC20.sol\":6852:6871  fromBalance - value */\n      swap1\n      dup3\n      swap1\n      sub\n        /* \"@openzeppelin/contracts/token/ERC20/ERC20.sol\":6834:6871  _balances[from] = fromBalance - value */\n      swap1\n      sstore\n        /* \"@openzeppelin/contracts/token/ERC20/ERC20.sol\":6356:6896  if (from == address(0)) {... */\n    tag_206:\n      sub(shl(0xa0, 0x01), 0x01)\n        /* \"@openzeppelin/contracts/token/ERC20/ERC20.sol\":6910:6926  to == address(0) */\n      dup3\n      and\n        /* \"@openzeppelin/contracts/token/ERC20/ERC20.sol\":6906:7331  if (to == address(0)) {... */\n      tag_209\n      jumpi\n        /* \"@openzeppelin/contracts/token/ERC20/ERC20.sol\":7073:7085  _totalSupply */\n      0x02\n        /* \"@openzeppelin/contracts/token/ERC20/ERC20.sol\":7073:7094  _totalSupply -= value */\n      dup1\n      sload\n      dup3\n      swap1\n      sub\n      swap1\n      sstore\n        /* \"@openzeppelin/contracts/token/ERC20/ERC20.sol\":6906:7331  if (to == address(0)) {... */\n      jump(tag_210)\n    tag_209:\n      sub(shl(0xa0, 0x01), 0x01)\n        /* \"@openzeppelin/contracts/token/ERC20/ERC20.sol\":7284:7297  _balances[to] */\n      dup3\n      and\n        /* \"@openzeppelin/contracts/token/ERC20/ERC20.sol\":7284:7293  _balances */\n      0x00\n        /* \"@openzeppelin/contracts/token/ERC20/ERC20.sol\":7284:7297  _balances[to] */\n      swap1\n      dup2\n      mstore\n      0x20\n      dup2\n      swap1\n      mstore\n      0x40\n      swap1\n      keccak256\n        /* \"@openzeppelin/contracts/token/ERC20/ERC20.sol\":7284:7306  _balances[to] += value */\n      dup1\n      sload\n      dup3\n      add\n      swap1\n      sstore\n        /* \"@openzeppelin/contracts/token/ERC20/ERC20.sol\":6906:7331  if (to == address(0)) {... */\n    tag_210:\n        /* \"@openzeppelin/contracts/token/ERC20/ERC20.sol\":7361:7363  to */\n      dup2\n      sub(shl(0xa0, 0x01), 0x01)\n        /* \"@openzeppelin/contracts/token/ERC20/ERC20.sol\":7346:7371  Transfer(from, to, value) */\n      and\n        /* \"@openzeppelin/contracts/token/ERC20/ERC20.sol\":7355:7359  from */\n      dup4\n      sub(shl(0xa0, 0x01), 0x01)\n        /* \"@openzeppelin/contracts/token/ERC20/ERC20.sol\":7346:7371  Transfer(from, to, value) */\n      and\n      0xddf252ad1be2c89b69c2b068fc378daa952ba7f163c4a11628f55a4df523b3ef\n        /* \"@openzeppelin/contracts/token/ERC20/ERC20.sol\":7365:7370  value */\n      dup4\n        /* \"@openzeppelin/contracts/token/ERC20/ERC20.sol\":7346:7371  Transfer(from, to, value) */\n      mload(0x40)\n      tag_211\n      swap2\n        /* \"#utility.yul\":5216:5241   */\n      dup2\n      mstore\n        /* \"#utility.yul\":5204:5206   */\n      0x20\n        /* \"#utility.yul\":5189:5207   */\n      add\n      swap1\n        /* \"#utility.yul\":5070:5247   */\n      jump\n        /* \"@openzeppelin/contracts/token/ERC20/ERC20.sol\":7346:7371  Transfer(from, to, value) */\n    tag_211:\n      mload(0x40)\n      dup1\n      swap2\n      sub\n      swap1\n      log3\n        /* \"@openzeppelin/contracts/token/ERC20/ERC20.sol\":6271:7378  function _update(address from, address to, uint256 value) internal virtual {... */\n      pop\n      pop\n      pop\n      jump\t// out\n        /* \"solidity/dysnomia/00b_vmreq.sol\":2295:2462  function Torque(Fa storage Rod, uint64 Sigma) internal returns(uint64) {... */\n    tag_185:\n        /* \"solidity/dysnomia/00b_vmreq.sol\":2404:2415  Rod.Element */\n      0x01\n      dup3\n      add\n      sload\n        /* \"solidity/dysnomia/00b_vmreq.sol\":2417:2428  Rod.Channel */\n      dup3\n      sload\n        /* \"solidity/dysnomia/00b_vmreq.sol\":2358:2364  uint64 */\n      0x00\n      swap2\n        /* \"solidity/dysnomia/00b_vmreq.sol\":2388:2429  modExp64(Sigma, Rod.Element, Rod.Channel) */\n      tag_213\n      swap2\n        /* \"solidity/dysnomia/00b_vmreq.sol\":2397:2402  Sigma */\n      dup5\n      swap2\n      sub(shl(0x40, 0x01), 0x01)\n      shl(0xc0, 0x01)\n        /* \"solidity/dysnomia/00b_vmreq.sol\":2404:2415  Rod.Element */\n      swap2\n      dup3\n      swap1\n      div\n      dup2\n      and\n      swap3\n        /* \"solidity/dysnomia/00b_vmreq.sol\":2417:2428  Rod.Channel */\n      swap2\n      swap1\n      swap2\n      div\n      and\n        /* \"solidity/dysnomia/00b_vmreq.sol\":2388:2396  modExp64 */\n      tag_60\n        /* \"solidity/dysnomia/00b_vmreq.sol\":2388:2429  modExp64(Sigma, Rod.Element, Rod.Channel) */\n      jump\t// in\n    tag_213:\n        /* \"solidity/dysnomia/00b_vmreq.sol\":2376:2385  Rod.Alpha */\n      0x04\n      dup5\n      add\n        /* \"solidity/dysnomia/00b_vmreq.sol\":2376:2429  Rod.Alpha = modExp64(Sigma, Rod.Element, Rod.Channel) */\n      dup1\n      sload\n      sub(shl(0x40, 0x01), 0x01)\n      swap3\n      swap1\n      swap3\n      and\n      not(0xffffffffffffffff)\n      swap1\n      swap3\n      and\n      dup3\n      or\n      swap1\n      sstore\n      swap1\n      pop\n        /* \"solidity/dysnomia/00b_vmreq.sol\":2295:2462  function Torque(Fa storage Rod, uint64 Sigma) internal returns(uint64) {... */\n      swap3\n      swap2\n      pop\n      pop\n      jump\t// out\n    tag_106:\n      mload(0x40)\n      dup1\n      0x01a0\n      add\n      0x40\n      mstore\n      dup1\n      tag_214\n      tag_215\n      jump\t// in\n    tag_214:\n      dup2\n      mstore\n      0x20\n      add\n      tag_216\n      tag_215\n      jump\t// in\n    tag_216:\n      dup2\n      mstore\n      0x00\n      0x20\n      dup3\n      add\n      dup2\n      swap1\n      mstore\n      0x40\n      dup3\n      add\n      dup2\n      swap1\n      mstore\n      0x60\n      dup3\n      add\n      dup2\n      swap1\n      mstore\n      0x80\n      dup3\n      add\n      dup2\n      swap1\n      mstore\n      0xa0\n      dup3\n      add\n      dup2\n      swap1\n      mstore\n      0xc0\n      dup3\n      add\n      dup2\n      swap1\n      mstore\n      0xe0\n      dup3\n      add\n      dup2\n      swap1\n      mstore\n      0x0100\n      dup3\n      add\n      dup2\n      swap1\n      mstore\n      0x0120\n      dup3\n      add\n      dup2\n      swap1\n      mstore\n      0x0140\n      dup3\n      add\n      dup2\n      swap1\n      mstore\n      0x0160\n      swap1\n      swap2\n      add\n      mstore\n      swap1\n      jump\t// out\n    tag_215:\n      0x40\n      dup1\n      mload\n      0x0240\n      dup2\n      add\n      dup3\n      mstore\n      0x00\n      dup1\n      dup3\n      mstore\n      0x20\n      dup3\n      add\n      dup2\n      swap1\n      mstore\n      swap2\n      dup2\n      add\n      dup3\n      swap1\n      mstore\n      0x60\n      dup2\n      add\n      dup3\n      swap1\n      mstore\n      0x80\n      dup2\n      add\n      dup3\n      swap1\n      mstore\n      0xa0\n      dup2\n      add\n      dup3\n      swap1\n      mstore\n      0xc0\n      dup2\n      add\n      dup3\n      swap1\n      mstore\n      0xe0\n      dup2\n      add\n      dup3\n      swap1\n      mstore\n      0x0100\n      dup2\n      add\n      dup3\n      swap1\n      mstore\n      0x0120\n      dup2\n      add\n      dup3\n      swap1\n      mstore\n      0x0140\n      dup2\n      add\n      dup3\n      swap1\n      mstore\n      0x0160\n      dup2\n      add\n      dup3\n      swap1\n      mstore\n      0x0180\n      dup2\n      add\n      dup3\n      swap1\n      mstore\n      0x01a0\n      dup2\n      add\n      dup3\n      swap1\n      mstore\n      0x01c0\n      dup2\n      add\n      dup3\n      swap1\n      mstore\n      0x01e0\n      dup2\n      add\n      dup3\n      swap1\n      mstore\n      0x0200\n      dup2\n      add\n      dup3\n      swap1\n      mstore\n      0x0220\n      dup2\n      add\n      swap2\n      swap1\n      swap2\n      mstore\n      swap1\n      jump\t// out\n        /* \"#utility.yul\":14:432   */\n    tag_24:\n        /* \"#utility.yul\":163:165   */\n      0x20\n        /* \"#utility.yul\":152:161   */\n      dup2\n        /* \"#utility.yul\":145:166   */\n      mstore\n        /* \"#utility.yul\":126:130   */\n      0x00\n        /* \"#utility.yul\":195:201   */\n      dup3\n        /* \"#utility.yul\":189:202   */\n      mload\n        /* \"#utility.yul\":238:244   */\n      dup1\n        /* \"#utility.yul\":233:235   */\n      0x20\n        /* \"#utility.yul\":222:231   */\n      dup5\n        /* \"#utility.yul\":218:236   */\n      add\n        /* \"#utility.yul\":211:245   */\n      mstore\n        /* \"#utility.yul\":297:303   */\n      dup1\n        /* \"#utility.yul\":292:294   */\n      0x20\n        /* \"#utility.yul\":284:290   */\n      dup6\n        /* \"#utility.yul\":280:295   */\n      add\n        /* \"#utility.yul\":275:277   */\n      0x40\n        /* \"#utility.yul\":264:273   */\n      dup6\n        /* \"#utility.yul\":260:278   */\n      add\n        /* \"#utility.yul\":254:304   */\n      mcopy\n        /* \"#utility.yul\":353:354   */\n      0x00\n        /* \"#utility.yul\":348:350   */\n      0x40\n        /* \"#utility.yul\":339:345   */\n      dup3\n        /* \"#utility.yul\":328:337   */\n      dup6\n        /* \"#utility.yul\":324:346   */\n      add\n        /* \"#utility.yul\":320:351   */\n      add\n        /* \"#utility.yul\":313:355   */\n      mstore\n        /* \"#utility.yul\":423:425   */\n      0x40\n        /* \"#utility.yul\":416:418   */\n      0x1f\n        /* \"#utility.yul\":412:419   */\n      not\n        /* \"#utility.yul\":407:409   */\n      0x1f\n        /* \"#utility.yul\":399:405   */\n      dup4\n        /* \"#utility.yul\":395:410   */\n      add\n        /* \"#utility.yul\":391:420   */\n      and\n        /* \"#utility.yul\":380:389   */\n      dup5\n        /* \"#utility.yul\":376:421   */\n      add\n        /* \"#utility.yul\":372:426   */\n      add\n        /* \"#utility.yul\":364:426   */\n      swap2\n      pop\n      pop\n        /* \"#utility.yul\":14:432   */\n      swap3\n      swap2\n      pop\n      pop\n      jump\t// out\n        /* \"#utility.yul\":437:610   */\n    tag_217:\n        /* \"#utility.yul\":505:525   */\n      dup1\n      calldataload\n      sub(shl(0xa0, 0x01), 0x01)\n        /* \"#utility.yul\":554:585   */\n      dup2\n      and\n        /* \"#utility.yul\":544:586   */\n      dup2\n      eq\n        /* \"#utility.yul\":534:604   */\n      tag_225\n      jumpi\n        /* \"#utility.yul\":600:601   */\n      0x00\n        /* \"#utility.yul\":597:598   */\n      0x00\n        /* \"#utility.yul\":590:602   */\n      revert\n        /* \"#utility.yul\":534:604   */\n    tag_225:\n        /* \"#utility.yul\":437:610   */\n      swap2\n      swap1\n      pop\n      jump\t// out\n        /* \"#utility.yul\":615:915   */\n    tag_27:\n        /* \"#utility.yul\":683:689   */\n      0x00\n        /* \"#utility.yul\":691:697   */\n      0x00\n        /* \"#utility.yul\":744:746   */\n      0x40\n        /* \"#utility.yul\":732:741   */\n      dup4\n        /* \"#utility.yul\":723:730   */\n      dup6\n        /* \"#utility.yul\":719:742   */\n      sub\n        /* \"#utility.yul\":715:747   */\n      slt\n        /* \"#utility.yul\":712:764   */\n      iszero\n      tag_227\n      jumpi\n        /* \"#utility.yul\":760:761   */\n      0x00\n        /* \"#utility.yul\":757:758   */\n      0x00\n        /* \"#utility.yul\":750:762   */\n      revert\n        /* \"#utility.yul\":712:764   */\n    tag_227:\n        /* \"#utility.yul\":783:812   */\n      tag_228\n        /* \"#utility.yul\":802:811   */\n      dup4\n        /* \"#utility.yul\":783:812   */\n      tag_217\n      jump\t// in\n    tag_228:\n        /* \"#utility.yul\":773:812   */\n      swap5\n        /* \"#utility.yul\":881:883   */\n      0x20\n        /* \"#utility.yul\":866:884   */\n      swap4\n      swap1\n      swap4\n      add\n        /* \"#utility.yul\":853:885   */\n      calldataload\n      swap4\n      pop\n      pop\n      pop\n        /* \"#utility.yul\":615:915   */\n      jump\t// out\n        /* \"#utility.yul\":1299:3350   */\n    tag_220:\n        /* \"#utility.yul\":1373:1385   */\n      dup1\n      mload\n      sub(shl(0x40, 0x01), 0x01)\n        /* \"#utility.yul\":1177:1207   */\n      and\n        /* \"#utility.yul\":1165:1208   */\n      dup3\n      mstore\n        /* \"#utility.yul\":1437:1441   */\n      0x20\n        /* \"#utility.yul\":1430:1435   */\n      dup2\n        /* \"#utility.yul\":1426:1442   */\n      add\n        /* \"#utility.yul\":1420:1443   */\n      mload\n        /* \"#utility.yul\":1452:1499   */\n      tag_234\n        /* \"#utility.yul\":1493:1497   */\n      0x20\n        /* \"#utility.yul\":1488:1491   */\n      dup5\n        /* \"#utility.yul\":1484:1498   */\n      add\n        /* \"#utility.yul\":1470:1482   */\n      dup3\n      sub(shl(0x40, 0x01), 0x01)\n        /* \"#utility.yul\":1177:1207   */\n      and\n        /* \"#utility.yul\":1165:1208   */\n      swap1\n      mstore\n        /* \"#utility.yul\":1112:1214   */\n      jump\n        /* \"#utility.yul\":1452:1499   */\n    tag_234:\n      pop\n        /* \"#utility.yul\":1547:1551   */\n      0x40\n        /* \"#utility.yul\":1540:1545   */\n      dup2\n        /* \"#utility.yul\":1536:1552   */\n      add\n        /* \"#utility.yul\":1530:1553   */\n      mload\n        /* \"#utility.yul\":1562:1611   */\n      tag_235\n        /* \"#utility.yul\":1605:1609   */\n      0x40\n        /* \"#utility.yul\":1600:1603   */\n      dup5\n        /* \"#utility.yul\":1596:1610   */\n      add\n        /* \"#utility.yul\":1580:1594   */\n      dup3\n      sub(shl(0x40, 0x01), 0x01)\n        /* \"#utility.yul\":1177:1207   */\n      and\n        /* \"#utility.yul\":1165:1208   */\n      swap1\n      mstore\n        /* \"#utility.yul\":1112:1214   */\n      jump\n        /* \"#utility.yul\":1562:1611   */\n    tag_235:\n      pop\n        /* \"#utility.yul\":1659:1663   */\n      0x60\n        /* \"#utility.yul\":1652:1657   */\n      dup2\n        /* \"#utility.yul\":1648:1664   */\n      add\n        /* \"#utility.yul\":1642:1665   */\n      mload\n        /* \"#utility.yul\":1674:1723   */\n      tag_236\n        /* \"#utility.yul\":1717:1721   */\n      0x60\n        /* \"#utility.yul\":1712:1715   */\n      dup5\n        /* \"#utility.yul\":1708:1722   */\n      add\n        /* \"#utility.yul\":1692:1706   */\n      dup3\n      sub(shl(0x40, 0x01), 0x01)\n        /* \"#utility.yul\":1177:1207   */\n      and\n        /* \"#utility.yul\":1165:1208   */\n      swap1\n      mstore\n        /* \"#utility.yul\":1112:1214   */\n      jump\n        /* \"#utility.yul\":1674:1723   */\n    tag_236:\n      pop\n        /* \"#utility.yul\":1771:1775   */\n      0x80\n        /* \"#utility.yul\":1764:1769   */\n      dup2\n        /* \"#utility.yul\":1760:1776   */\n      add\n        /* \"#utility.yul\":1754:1777   */\n      mload\n        /* \"#utility.yul\":1786:1835   */\n      tag_237\n        /* \"#utility.yul\":1829:1833   */\n      0x80\n        /* \"#utility.yul\":1824:1827   */\n      dup5\n        /* \"#utility.yul\":1820:1834   */\n      add\n        /* \"#utility.yul\":1804:1818   */\n      dup3\n      sub(shl(0x40, 0x01), 0x01)\n        /* \"#utility.yul\":1177:1207   */\n      and\n        /* \"#utility.yul\":1165:1208   */\n      swap1\n      mstore\n        /* \"#utility.yul\":1112:1214   */\n      jump\n        /* \"#utility.yul\":1786:1835   */\n    tag_237:\n      pop\n        /* \"#utility.yul\":1883:1887   */\n      0xa0\n        /* \"#utility.yul\":1876:1881   */\n      dup2\n        /* \"#utility.yul\":1872:1888   */\n      add\n        /* \"#utility.yul\":1866:1889   */\n      mload\n        /* \"#utility.yul\":1898:1947   */\n      tag_238\n        /* \"#utility.yul\":1941:1945   */\n      0xa0\n        /* \"#utility.yul\":1936:1939   */\n      dup5\n        /* \"#utility.yul\":1932:1946   */\n      add\n        /* \"#utility.yul\":1916:1930   */\n      dup3\n      sub(shl(0x40, 0x01), 0x01)\n        /* \"#utility.yul\":1177:1207   */\n      and\n        /* \"#utility.yul\":1165:1208   */\n      swap1\n      mstore\n        /* \"#utility.yul\":1112:1214   */\n      jump\n        /* \"#utility.yul\":1898:1947   */\n    tag_238:\n      pop\n        /* \"#utility.yul\":1995:1999   */\n      0xc0\n        /* \"#utility.yul\":1988:1993   */\n      dup2\n        /* \"#utility.yul\":1984:2000   */\n      add\n        /* \"#utility.yul\":1978:2001   */\n      mload\n        /* \"#utility.yul\":2010:2059   */\n      tag_239\n        /* \"#utility.yul\":2053:2057   */\n      0xc0\n        /* \"#utility.yul\":2048:2051   */\n      dup5\n        /* \"#utility.yul\":2044:2058   */\n      add\n        /* \"#utility.yul\":2028:2042   */\n      dup3\n      sub(shl(0x40, 0x01), 0x01)\n        /* \"#utility.yul\":1177:1207   */\n      and\n        /* \"#utility.yul\":1165:1208   */\n      swap1\n      mstore\n        /* \"#utility.yul\":1112:1214   */\n      jump\n        /* \"#utility.yul\":2010:2059   */\n    tag_239:\n      pop\n        /* \"#utility.yul\":2107:2111   */\n      0xe0\n        /* \"#utility.yul\":2100:2105   */\n      dup2\n        /* \"#utility.yul\":2096:2112   */\n      add\n        /* \"#utility.yul\":2090:2113   */\n      mload\n        /* \"#utility.yul\":2122:2171   */\n      tag_240\n        /* \"#utility.yul\":2165:2169   */\n      0xe0\n        /* \"#utility.yul\":2160:2163   */\n      dup5\n        /* \"#utility.yul\":2156:2170   */\n      add\n        /* \"#utility.yul\":2140:2154   */\n      dup3\n      sub(shl(0x40, 0x01), 0x01)\n        /* \"#utility.yul\":1177:1207   */\n      and\n        /* \"#utility.yul\":1165:1208   */\n      swap1\n      mstore\n        /* \"#utility.yul\":1112:1214   */\n      jump\n        /* \"#utility.yul\":2122:2171   */\n    tag_240:\n      pop\n        /* \"#utility.yul\":2219:2225   */\n      0x0100\n        /* \"#utility.yul\":2212:2217   */\n      dup2\n        /* \"#utility.yul\":2208:2226   */\n      add\n        /* \"#utility.yul\":2202:2227   */\n      mload\n        /* \"#utility.yul\":2236:2287   */\n      tag_241\n        /* \"#utility.yul\":2279:2285   */\n      0x0100\n        /* \"#utility.yul\":2274:2277   */\n      dup5\n        /* \"#utility.yul\":2270:2286   */\n      add\n        /* \"#utility.yul\":2254:2268   */\n      dup3\n      sub(shl(0x40, 0x01), 0x01)\n        /* \"#utility.yul\":1177:1207   */\n      and\n        /* \"#utility.yul\":1165:1208   */\n      swap1\n      mstore\n        /* \"#utility.yul\":1112:1214   */\n      jump\n        /* \"#utility.yul\":2236:2287   */\n    tag_241:\n      pop\n        /* \"#utility.yul\":2335:2341   */\n      0x0120\n        /* \"#utility.yul\":2328:2333   */\n      dup2\n        /* \"#utility.yul\":2324:2342   */\n      add\n        /* \"#utility.yul\":2318:2343   */\n      mload\n        /* \"#utility.yul\":2352:2403   */\n      tag_242\n        /* \"#utility.yul\":2395:2401   */\n      0x0120\n        /* \"#utility.yul\":2390:2393   */\n      dup5\n        /* \"#utility.yul\":2386:2402   */\n      add\n        /* \"#utility.yul\":2370:2384   */\n      dup3\n      sub(shl(0x40, 0x01), 0x01)\n        /* \"#utility.yul\":1177:1207   */\n      and\n        /* \"#utility.yul\":1165:1208   */\n      swap1\n      mstore\n        /* \"#utility.yul\":1112:1214   */\n      jump\n        /* \"#utility.yul\":2352:2403   */\n    tag_242:\n      pop\n        /* \"#utility.yul\":2451:2457   */\n      0x0140\n        /* \"#utility.yul\":2444:2449   */\n      dup2\n        /* \"#utility.yul\":2440:2458   */\n      add\n        /* \"#utility.yul\":2434:2459   */\n      mload\n        /* \"#utility.yul\":2468:2519   */\n      tag_243\n        /* \"#utility.yul\":2511:2517   */\n      0x0140\n        /* \"#utility.yul\":2506:2509   */\n      dup5\n        /* \"#utility.yul\":2502:2518   */\n      add\n        /* \"#utility.yul\":2486:2500   */\n      dup3\n      sub(shl(0x40, 0x01), 0x01)\n        /* \"#utility.yul\":1177:1207   */\n      and\n        /* \"#utility.yul\":1165:1208   */\n      swap1\n      mstore\n        /* \"#utility.yul\":1112:1214   */\n      jump\n        /* \"#utility.yul\":2468:2519   */\n    tag_243:\n      pop\n        /* \"#utility.yul\":2568:2574   */\n      0x0160\n        /* \"#utility.yul\":2561:2566   */\n      dup2\n        /* \"#utility.yul\":2557:2575   */\n      add\n        /* \"#utility.yul\":2551:2576   */\n      mload\n        /* \"#utility.yul\":2585:2637   */\n      tag_244\n        /* \"#utility.yul\":2629:2635   */\n      0x0160\n        /* \"#utility.yul\":2624:2627   */\n      dup5\n        /* \"#utility.yul\":2620:2636   */\n      add\n        /* \"#utility.yul\":2603:2618   */\n      dup3\n      sub(shl(0x40, 0x01), 0x01)\n        /* \"#utility.yul\":1177:1207   */\n      and\n        /* \"#utility.yul\":1165:1208   */\n      swap1\n      mstore\n        /* \"#utility.yul\":1112:1214   */\n      jump\n        /* \"#utility.yul\":2585:2637   */\n    tag_244:\n      pop\n        /* \"#utility.yul\":2686:2692   */\n      0x0180\n        /* \"#utility.yul\":2679:2684   */\n      dup2\n        /* \"#utility.yul\":2675:2693   */\n      add\n        /* \"#utility.yul\":2669:2694   */\n      mload\n        /* \"#utility.yul\":2703:2755   */\n      tag_245\n        /* \"#utility.yul\":2747:2753   */\n      0x0180\n        /* \"#utility.yul\":2742:2745   */\n      dup5\n        /* \"#utility.yul\":2738:2754   */\n      add\n        /* \"#utility.yul\":2721:2736   */\n      dup3\n      sub(shl(0x40, 0x01), 0x01)\n        /* \"#utility.yul\":1177:1207   */\n      and\n        /* \"#utility.yul\":1165:1208   */\n      swap1\n      mstore\n        /* \"#utility.yul\":1112:1214   */\n      jump\n        /* \"#utility.yul\":2703:2755   */\n    tag_245:\n      pop\n        /* \"#utility.yul\":2804:2810   */\n      0x01a0\n        /* \"#utility.yul\":2797:2802   */\n      dup2\n        /* \"#utility.yul\":2793:2811   */\n      add\n        /* \"#utility.yul\":2787:2812   */\n      mload\n        /* \"#utility.yul\":2821:2873   */\n      tag_246\n        /* \"#utility.yul\":2865:2871   */\n      0x01a0\n        /* \"#utility.yul\":2860:2863   */\n      dup5\n        /* \"#utility.yul\":2856:2872   */\n      add\n        /* \"#utility.yul\":2839:2854   */\n      dup3\n      sub(shl(0x40, 0x01), 0x01)\n        /* \"#utility.yul\":1177:1207   */\n      and\n        /* \"#utility.yul\":1165:1208   */\n      swap1\n      mstore\n        /* \"#utility.yul\":1112:1214   */\n      jump\n        /* \"#utility.yul\":2821:2873   */\n    tag_246:\n      pop\n        /* \"#utility.yul\":2922:2928   */\n      0x01c0\n        /* \"#utility.yul\":2915:2920   */\n      dup2\n        /* \"#utility.yul\":2911:2929   */\n      add\n        /* \"#utility.yul\":2905:2930   */\n      mload\n        /* \"#utility.yul\":2939:2991   */\n      tag_247\n        /* \"#utility.yul\":2983:2989   */\n      0x01c0\n        /* \"#utility.yul\":2978:2981   */\n      dup5\n        /* \"#utility.yul\":2974:2990   */\n      add\n        /* \"#utility.yul\":2957:2972   */\n      dup3\n      sub(shl(0x40, 0x01), 0x01)\n        /* \"#utility.yul\":1177:1207   */\n      and\n        /* \"#utility.yul\":1165:1208   */\n      swap1\n      mstore\n        /* \"#utility.yul\":1112:1214   */\n      jump\n        /* \"#utility.yul\":2939:2991   */\n    tag_247:\n      pop\n        /* \"#utility.yul\":3040:3046   */\n      0x01e0\n        /* \"#utility.yul\":3033:3038   */\n      dup2\n        /* \"#utility.yul\":3029:3047   */\n      add\n        /* \"#utility.yul\":3023:3048   */\n      mload\n        /* \"#utility.yul\":3057:3109   */\n      tag_248\n        /* \"#utility.yul\":3101:3107   */\n      0x01e0\n        /* \"#utility.yul\":3096:3099   */\n      dup5\n        /* \"#utility.yul\":3092:3108   */\n      add\n        /* \"#utility.yul\":3075:3090   */\n      dup3\n      sub(shl(0x40, 0x01), 0x01)\n        /* \"#utility.yul\":1177:1207   */\n      and\n        /* \"#utility.yul\":1165:1208   */\n      swap1\n      mstore\n        /* \"#utility.yul\":1112:1214   */\n      jump\n        /* \"#utility.yul\":3057:3109   */\n    tag_248:\n      pop\n        /* \"#utility.yul\":3158:3164   */\n      0x0200\n        /* \"#utility.yul\":3151:3156   */\n      dup2\n        /* \"#utility.yul\":3147:3165   */\n      add\n        /* \"#utility.yul\":3141:3166   */\n      mload\n        /* \"#utility.yul\":3175:3227   */\n      tag_249\n        /* \"#utility.yul\":3219:3225   */\n      0x0200\n        /* \"#utility.yul\":3214:3217   */\n      dup5\n        /* \"#utility.yul\":3210:3226   */\n      add\n        /* \"#utility.yul\":3193:3208   */\n      dup3\n      sub(shl(0x40, 0x01), 0x01)\n        /* \"#utility.yul\":1177:1207   */\n      and\n        /* \"#utility.yul\":1165:1208   */\n      swap1\n      mstore\n        /* \"#utility.yul\":1112:1214   */\n      jump\n        /* \"#utility.yul\":3175:3227   */\n    tag_249:\n      pop\n        /* \"#utility.yul\":3276:3282   */\n      0x0220\n        /* \"#utility.yul\":3269:3274   */\n      dup2\n        /* \"#utility.yul\":3265:3283   */\n      add\n        /* \"#utility.yul\":3259:3284   */\n      mload\n        /* \"#utility.yul\":3293:3344   */\n      tag_162\n        /* \"#utility.yul\":3336:3342   */\n      0x0220\n        /* \"#utility.yul\":3331:3334   */\n      dup5\n        /* \"#utility.yul\":3327:3343   */\n      add\n        /* \"#utility.yul\":3310:3325   */\n      dup3\n        /* \"#utility.yul\":1286:1290   */\n      0xff\n        /* \"#utility.yul\":1275:1291   */\n      and\n        /* \"#utility.yul\":1263:1292   */\n      swap1\n      mstore\n        /* \"#utility.yul\":1219:1294   */\n      jump\n        /* \"#utility.yul\":3355:5065   */\n    tag_34:\n        /* \"#utility.yul\":3493:3497   */\n      0x00\n        /* \"#utility.yul\":3535:3539   */\n      0x05e0\n        /* \"#utility.yul\":3524:3533   */\n      dup3\n        /* \"#utility.yul\":3520:3540   */\n      add\n        /* \"#utility.yul\":3512:3540   */\n      swap1\n      pop\n        /* \"#utility.yul\":3549:3595   */\n      tag_252\n        /* \"#utility.yul\":3585:3594   */\n      dup3\n        /* \"#utility.yul\":3576:3582   */\n      dup5\n        /* \"#utility.yul\":3570:3583   */\n      mload\n        /* \"#utility.yul\":3549:3595   */\n      tag_220\n      jump\t// in\n    tag_252:\n        /* \"#utility.yul\":3642:3646   */\n      0x20\n        /* \"#utility.yul\":3634:3640   */\n      dup4\n        /* \"#utility.yul\":3630:3647   */\n      add\n        /* \"#utility.yul\":3624:3648   */\n      mload\n        /* \"#utility.yul\":3657:3715   */\n      tag_253\n        /* \"#utility.yul\":3707:3713   */\n      0x0240\n        /* \"#utility.yul\":3696:3705   */\n      dup5\n        /* \"#utility.yul\":3692:3714   */\n      add\n        /* \"#utility.yul\":3678:3690   */\n      dup3\n        /* \"#utility.yul\":3657:3715   */\n      tag_220\n      jump\t// in\n    tag_253:\n      pop\n        /* \"#utility.yul\":3764:3768   */\n      0x40\n        /* \"#utility.yul\":3752:3769   */\n      dup4\n      add\n        /* \"#utility.yul\":3746:3770   */\n      mload\n      sub(shl(0x40, 0x01), 0x01)\n        /* \"#utility.yul\":1177:1207   */\n      swap1\n      dup2\n      and\n        /* \"#utility.yul\":3828:3834   */\n      0x0480\n        /* \"#utility.yul\":3813:3835   */\n      dup5\n      add\n        /* \"#utility.yul\":1165:1208   */\n      mstore\n        /* \"#utility.yul\":3885:3889   */\n      0x60\n        /* \"#utility.yul\":3873:3890   */\n      dup5\n      add\n        /* \"#utility.yul\":3867:3891   */\n      mload\n        /* \"#utility.yul\":1177:1207   */\n      dup2\n      and\n        /* \"#utility.yul\":3949:3955   */\n      0x04a0\n        /* \"#utility.yul\":3934:3956   */\n      dup5\n      add\n        /* \"#utility.yul\":1165:1208   */\n      mstore\n        /* \"#utility.yul\":4006:4010   */\n      0x80\n        /* \"#utility.yul\":3994:4011   */\n      dup5\n      add\n        /* \"#utility.yul\":3988:4012   */\n      mload\n        /* \"#utility.yul\":1177:1207   */\n      dup2\n      and\n        /* \"#utility.yul\":4070:4076   */\n      0x04c0\n        /* \"#utility.yul\":4055:4077   */\n      dup5\n      add\n        /* \"#utility.yul\":1165:1208   */\n      mstore\n        /* \"#utility.yul\":4127:4131   */\n      0xa0\n        /* \"#utility.yul\":4115:4132   */\n      dup5\n      add\n        /* \"#utility.yul\":4109:4133   */\n      mload\n        /* \"#utility.yul\":1177:1207   */\n      dup2\n      and\n        /* \"#utility.yul\":4191:4197   */\n      0x04e0\n        /* \"#utility.yul\":4176:4198   */\n      dup5\n      add\n        /* \"#utility.yul\":1165:1208   */\n      mstore\n        /* \"#utility.yul\":4248:4252   */\n      0xc0\n        /* \"#utility.yul\":4236:4253   */\n      dup5\n      add\n        /* \"#utility.yul\":4230:4254   */\n      mload\n        /* \"#utility.yul\":1177:1207   */\n      dup2\n      and\n        /* \"#utility.yul\":4312:4318   */\n      0x0500\n        /* \"#utility.yul\":4297:4319   */\n      dup5\n      add\n        /* \"#utility.yul\":1165:1208   */\n      mstore\n        /* \"#utility.yul\":4369:4373   */\n      0xe0\n        /* \"#utility.yul\":4357:4374   */\n      dup5\n      add\n        /* \"#utility.yul\":4351:4375   */\n      mload\n        /* \"#utility.yul\":1177:1207   */\n      dup2\n      and\n        /* \"#utility.yul\":4433:4439   */\n      0x0520\n        /* \"#utility.yul\":4418:4440   */\n      dup5\n      add\n        /* \"#utility.yul\":1165:1208   */\n      mstore\n        /* \"#utility.yul\":4490:4496   */\n      0x0100\n        /* \"#utility.yul\":4478:4497   */\n      dup5\n      add\n        /* \"#utility.yul\":4472:4498   */\n      mload\n        /* \"#utility.yul\":1177:1207   */\n      dup2\n      and\n        /* \"#utility.yul\":4556:4562   */\n      0x0540\n        /* \"#utility.yul\":4541:4563   */\n      dup5\n      add\n        /* \"#utility.yul\":1165:1208   */\n      mstore\n        /* \"#utility.yul\":4613:4619   */\n      0x0120\n        /* \"#utility.yul\":4601:4620   */\n      dup5\n      add\n        /* \"#utility.yul\":4595:4621   */\n      mload\n        /* \"#utility.yul\":1177:1207   */\n      dup2\n      and\n        /* \"#utility.yul\":4679:4685   */\n      0x0560\n        /* \"#utility.yul\":4664:4686   */\n      dup5\n      add\n        /* \"#utility.yul\":1165:1208   */\n      mstore\n        /* \"#utility.yul\":4736:4742   */\n      0x0140\n        /* \"#utility.yul\":4724:4743   */\n      dup5\n      add\n        /* \"#utility.yul\":4718:4744   */\n      mload\n        /* \"#utility.yul\":1177:1207   */\n      dup2\n      and\n        /* \"#utility.yul\":4802:4808   */\n      0x0580\n        /* \"#utility.yul\":4787:4809   */\n      dup5\n      add\n        /* \"#utility.yul\":1165:1208   */\n      mstore\n        /* \"#utility.yul\":4860:4866   */\n      0x0160\n        /* \"#utility.yul\":4848:4867   */\n      dup5\n      add\n        /* \"#utility.yul\":4842:4868   */\n      mload\n        /* \"#utility.yul\":1177:1207   */\n      and\n        /* \"#utility.yul\":4927:4933   */\n      0x05a0\n        /* \"#utility.yul\":4912:4934   */\n      dup4\n      add\n        /* \"#utility.yul\":1165:1208   */\n      mstore\n        /* \"#utility.yul\":4985:4991   */\n      0x0180\n        /* \"#utility.yul\":4973:4992   */\n      swap1\n      swap3\n      add\n        /* \"#utility.yul\":4967:4993   */\n      mload\n        /* \"#utility.yul\":1286:1290   */\n      0xff\n        /* \"#utility.yul\":1275:1291   */\n      and\n        /* \"#utility.yul\":5051:5057   */\n      0x05c0\n        /* \"#utility.yul\":5036:5058   */\n      swap1\n      swap2\n      add\n        /* \"#utility.yul\":1263:1292   */\n      mstore\n        /* \"#utility.yul\":3355:5065   */\n      swap1\n      jump\t// out\n        /* \"#utility.yul\":5252:5626   */\n    tag_41:\n        /* \"#utility.yul\":5329:5335   */\n      0x00\n        /* \"#utility.yul\":5337:5343   */\n      0x00\n        /* \"#utility.yul\":5345:5351   */\n      0x00\n        /* \"#utility.yul\":5398:5400   */\n      0x60\n        /* \"#utility.yul\":5386:5395   */\n      dup5\n        /* \"#utility.yul\":5377:5384   */\n      dup7\n        /* \"#utility.yul\":5373:5396   */\n      sub\n        /* \"#utility.yul\":5369:5401   */\n      slt\n        /* \"#utility.yul\":5366:5418   */\n      iszero\n      tag_267\n      jumpi\n        /* \"#utility.yul\":5414:5415   */\n      0x00\n        /* \"#utility.yul\":5411:5412   */\n      0x00\n        /* \"#utility.yul\":5404:5416   */\n      revert\n        /* \"#utility.yul\":5366:5418   */\n    tag_267:\n        /* \"#utility.yul\":5437:5466   */\n      tag_268\n        /* \"#utility.yul\":5456:5465   */\n      dup5\n        /* \"#utility.yul\":5437:5466   */\n      tag_217\n      jump\t// in\n    tag_268:\n        /* \"#utility.yul\":5427:5466   */\n      swap3\n      pop\n        /* \"#utility.yul\":5485:5523   */\n      tag_269\n        /* \"#utility.yul\":5519:5521   */\n      0x20\n        /* \"#utility.yul\":5508:5517   */\n      dup6\n        /* \"#utility.yul\":5504:5522   */\n      add\n        /* \"#utility.yul\":5485:5523   */\n      tag_217\n      jump\t// in\n    tag_269:\n        /* \"#utility.yul\":5252:5626   */\n      swap3\n      swap6\n        /* \"#utility.yul\":5475:5523   */\n      swap3\n      swap5\n      pop\n      pop\n      pop\n        /* \"#utility.yul\":5592:5594   */\n      0x40\n        /* \"#utility.yul\":5577:5595   */\n      swap2\n      swap1\n      swap2\n      add\n        /* \"#utility.yul\":5564:5596   */\n      calldataload\n      swap1\n        /* \"#utility.yul\":5252:5626   */\n      jump\t// out\n        /* \"#utility.yul\":5820:6286   */\n    tag_50:\n        /* \"#utility.yul\":5897:5903   */\n      0x00\n        /* \"#utility.yul\":5905:5911   */\n      0x00\n        /* \"#utility.yul\":5913:5919   */\n      0x00\n        /* \"#utility.yul\":5966:5968   */\n      0x60\n        /* \"#utility.yul\":5954:5963   */\n      dup5\n        /* \"#utility.yul\":5945:5952   */\n      dup7\n        /* \"#utility.yul\":5941:5964   */\n      sub\n        /* \"#utility.yul\":5937:5969   */\n      slt\n        /* \"#utility.yul\":5934:5986   */\n      iszero\n      tag_272\n      jumpi\n        /* \"#utility.yul\":5982:5983   */\n      0x00\n        /* \"#utility.yul\":5979:5980   */\n      0x00\n        /* \"#utility.yul\":5972:5984   */\n      revert\n        /* \"#utility.yul\":5934:5986   */\n    tag_272:\n      pop\n      pop\n        /* \"#utility.yul\":6027:6050   */\n      dup2\n      calldataload\n      swap4\n        /* \"#utility.yul\":6147:6149   */\n      0x20\n        /* \"#utility.yul\":6132:6150   */\n      dup4\n      add\n        /* \"#utility.yul\":6119:6151   */\n      calldataload\n      swap4\n      pop\n        /* \"#utility.yul\":6250:6252   */\n      0x40\n        /* \"#utility.yul\":6235:6253   */\n      swap1\n      swap3\n      add\n        /* \"#utility.yul\":6222:6254   */\n      calldataload\n      swap2\n        /* \"#utility.yul\":5820:6286   */\n      swap1\n      pop\n      jump\t// out\n        /* \"#utility.yul\":6291:6517   */\n    tag_55:\n        /* \"#utility.yul\":6350:6356   */\n      0x00\n        /* \"#utility.yul\":6403:6405   */\n      0x20\n        /* \"#utility.yul\":6391:6400   */\n      dup3\n        /* \"#utility.yul\":6382:6389   */\n      dup5\n        /* \"#utility.yul\":6378:6401   */\n      sub\n        /* \"#utility.yul\":6374:6406   */\n      slt\n        /* \"#utility.yul\":6371:6423   */\n      iszero\n      tag_274\n      jumpi\n        /* \"#utility.yul\":6419:6420   */\n      0x00\n        /* \"#utility.yul\":6416:6417   */\n      0x00\n        /* \"#utility.yul\":6409:6421   */\n      revert\n        /* \"#utility.yul\":6371:6423   */\n    tag_274:\n      pop\n        /* \"#utility.yul\":6464:6487   */\n      calldataload\n      swap2\n        /* \"#utility.yul\":6291:6517   */\n      swap1\n      pop\n      jump\t// out\n        /* \"#utility.yul\":6522:6693   */\n    tag_221:\n        /* \"#utility.yul\":6589:6609   */\n      dup1\n      calldataload\n      sub(shl(0x40, 0x01), 0x01)\n        /* \"#utility.yul\":6638:6668   */\n      dup2\n      and\n        /* \"#utility.yul\":6628:6669   */\n      dup2\n      eq\n        /* \"#utility.yul\":6618:6687   */\n      tag_225\n      jumpi\n        /* \"#utility.yul\":6683:6684   */\n      0x00\n        /* \"#utility.yul\":6680:6681   */\n      0x00\n        /* \"#utility.yul\":6673:6685   */\n      revert\n        /* \"#utility.yul\":6698:7026   */\n    tag_59:\n        /* \"#utility.yul\":6772:6778   */\n      0x00\n        /* \"#utility.yul\":6780:6786   */\n      0x00\n        /* \"#utility.yul\":6788:6794   */\n      0x00\n        /* \"#utility.yul\":6841:6843   */\n      0x60\n        /* \"#utility.yul\":6829:6838   */\n      dup5\n        /* \"#utility.yul\":6820:6827   */\n      dup7\n        /* \"#utility.yul\":6816:6839   */\n      sub\n        /* \"#utility.yul\":6812:6844   */\n      slt\n        /* \"#utility.yul\":6809:6861   */\n      iszero\n      tag_278\n      jumpi\n        /* \"#utility.yul\":6857:6858   */\n      0x00\n        /* \"#utility.yul\":6854:6855   */\n      0x00\n        /* \"#utility.yul\":6847:6859   */\n      revert\n        /* \"#utility.yul\":6809:6861   */\n    tag_278:\n        /* \"#utility.yul\":6880:6908   */\n      tag_279\n        /* \"#utility.yul\":6898:6907   */\n      dup5\n        /* \"#utility.yul\":6880:6908   */\n      tag_221\n      jump\t// in\n    tag_279:\n        /* \"#utility.yul\":6870:6908   */\n      swap3\n      pop\n        /* \"#utility.yul\":6927:6964   */\n      tag_280\n        /* \"#utility.yul\":6960:6962   */\n      0x20\n        /* \"#utility.yul\":6949:6958   */\n      dup6\n        /* \"#utility.yul\":6945:6963   */\n      add\n        /* \"#utility.yul\":6927:6964   */\n      tag_221\n      jump\t// in\n    tag_280:\n        /* \"#utility.yul\":6917:6964   */\n      swap2\n      pop\n        /* \"#utility.yul\":6983:7020   */\n      tag_281\n        /* \"#utility.yul\":7016:7018   */\n      0x40\n        /* \"#utility.yul\":7005:7014   */\n      dup6\n        /* \"#utility.yul\":7001:7019   */\n      add\n        /* \"#utility.yul\":6983:7020   */\n      tag_221\n      jump\t// in\n    tag_281:\n        /* \"#utility.yul\":6973:7020   */\n      swap1\n      pop\n        /* \"#utility.yul\":6698:7026   */\n      swap3\n      pop\n      swap3\n      pop\n      swap3\n      jump\t// out\n        /* \"#utility.yul\":7236:7422   */\n    tag_68:\n        /* \"#utility.yul\":7295:7301   */\n      0x00\n        /* \"#utility.yul\":7348:7350   */\n      0x20\n        /* \"#utility.yul\":7336:7345   */\n      dup3\n        /* \"#utility.yul\":7327:7334   */\n      dup5\n        /* \"#utility.yul\":7323:7346   */\n      sub\n        /* \"#utility.yul\":7319:7351   */\n      slt\n        /* \"#utility.yul\":7316:7368   */\n      iszero\n      tag_284\n      jumpi\n        /* \"#utility.yul\":7364:7365   */\n      0x00\n        /* \"#utility.yul\":7361:7362   */\n      0x00\n        /* \"#utility.yul\":7354:7366   */\n      revert\n        /* \"#utility.yul\":7316:7368   */\n    tag_284:\n        /* \"#utility.yul\":7387:7416   */\n      tag_184\n        /* \"#utility.yul\":7406:7415   */\n      dup3\n        /* \"#utility.yul\":7387:7416   */\n      tag_217\n      jump\t// in\n        /* \"#utility.yul\":7427:7687   */\n    tag_86:\n        /* \"#utility.yul\":7495:7501   */\n      0x00\n        /* \"#utility.yul\":7503:7509   */\n      0x00\n        /* \"#utility.yul\":7556:7558   */\n      0x40\n        /* \"#utility.yul\":7544:7553   */\n      dup4\n        /* \"#utility.yul\":7535:7542   */\n      dup6\n        /* \"#utility.yul\":7531:7554   */\n      sub\n        /* \"#utility.yul\":7527:7559   */\n      slt\n        /* \"#utility.yul\":7524:7576   */\n      iszero\n      tag_287\n      jumpi\n        /* \"#utility.yul\":7572:7573   */\n      0x00\n        /* \"#utility.yul\":7569:7570   */\n      0x00\n        /* \"#utility.yul\":7562:7574   */\n      revert\n        /* \"#utility.yul\":7524:7576   */\n    tag_287:\n        /* \"#utility.yul\":7595:7624   */\n      tag_288\n        /* \"#utility.yul\":7614:7623   */\n      dup4\n        /* \"#utility.yul\":7595:7624   */\n      tag_217\n      jump\t// in\n    tag_288:\n        /* \"#utility.yul\":7585:7624   */\n      swap2\n      pop\n        /* \"#utility.yul\":7643:7681   */\n      tag_289\n        /* \"#utility.yul\":7677:7679   */\n      0x20\n        /* \"#utility.yul\":7666:7675   */\n      dup5\n        /* \"#utility.yul\":7662:7680   */\n      add\n        /* \"#utility.yul\":7643:7681   */\n      tag_217\n      jump\t// in\n    tag_289:\n        /* \"#utility.yul\":7633:7681   */\n      swap1\n      pop\n        /* \"#utility.yul\":7427:7687   */\n      swap3\n      pop\n      swap3\n      swap1\n      pop\n      jump\t// out\n        /* \"#utility.yul\":7692:8072   */\n    tag_95:\n        /* \"#utility.yul\":7771:7772   */\n      0x01\n        /* \"#utility.yul\":7767:7779   */\n      dup2\n      dup2\n      shr\n      swap1\n        /* \"#utility.yul\":7814:7826   */\n      dup3\n      and\n      dup1\n        /* \"#utility.yul\":7835:7896   */\n      tag_291\n      jumpi\n        /* \"#utility.yul\":7889:7893   */\n      0x7f\n        /* \"#utility.yul\":7881:7887   */\n      dup3\n        /* \"#utility.yul\":7877:7894   */\n      and\n        /* \"#utility.yul\":7867:7894   */\n      swap2\n      pop\n        /* \"#utility.yul\":7835:7896   */\n    tag_291:\n        /* \"#utility.yul\":7942:7944   */\n      0x20\n        /* \"#utility.yul\":7934:7940   */\n      dup3\n        /* \"#utility.yul\":7931:7945   */\n      lt\n        /* \"#utility.yul\":7911:7929   */\n      dup2\n        /* \"#utility.yul\":7908:7946   */\n      sub\n        /* \"#utility.yul\":7905:8066   */\n      tag_292\n      jumpi\n        /* \"#utility.yul\":7988:7998   */\n      0x4e487b71\n        /* \"#utility.yul\":7983:7986   */\n      0xe0\n        /* \"#utility.yul\":7979:7999   */\n      shl\n        /* \"#utility.yul\":7976:7977   */\n      0x00\n        /* \"#utility.yul\":7969:8000   */\n      mstore\n        /* \"#utility.yul\":8023:8027   */\n      0x22\n        /* \"#utility.yul\":8020:8021   */\n      0x04\n        /* \"#utility.yul\":8013:8028   */\n      mstore\n        /* \"#utility.yul\":8051:8055   */\n      0x24\n        /* \"#utility.yul\":8048:8049   */\n      0x00\n        /* \"#utility.yul\":8041:8056   */\n      revert\n        /* \"#utility.yul\":7905:8066   */\n    tag_292:\n      pop\n        /* \"#utility.yul\":7692:8072   */\n      swap2\n      swap1\n      pop\n      jump\t// out\n        /* \"#utility.yul\":8077:8204   */\n    tag_156:\n        /* \"#utility.yul\":8138:8148   */\n      0x4e487b71\n        /* \"#utility.yul\":8133:8136   */\n      0xe0\n        /* \"#utility.yul\":8129:8149   */\n      shl\n        /* \"#utility.yul\":8126:8127   */\n      0x00\n        /* \"#utility.yul\":8119:8150   */\n      mstore\n        /* \"#utility.yul\":8169:8173   */\n      0x12\n        /* \"#utility.yul\":8166:8167   */\n      0x04\n        /* \"#utility.yul\":8159:8174   */\n      mstore\n        /* \"#utility.yul\":8193:8197   */\n      0x24\n        /* \"#utility.yul\":8190:8191   */\n      0x00\n        /* \"#utility.yul\":8183:8198   */\n      revert\n        /* \"#utility.yul\":8209:8321   */\n    tag_125:\n        /* \"#utility.yul\":8241:8242   */\n      0x00\n        /* \"#utility.yul\":8267:8268   */\n      dup3\n        /* \"#utility.yul\":8257:8292   */\n      tag_296\n      jumpi\n        /* \"#utility.yul\":8272:8290   */\n      tag_296\n      tag_156\n      jump\t// in\n    tag_296:\n      pop\n        /* \"#utility.yul\":8306:8315   */\n      mod\n      swap1\n        /* \"#utility.yul\":8209:8321   */\n      jump\t// out\n        /* \"#utility.yul\":8326:8523   */\n    tag_151:\n        /* \"#utility.yul\":8366:8367   */\n      0x00\n      sub(shl(0xa0, 0x01), 0x01)\n        /* \"#utility.yul\":8393:8420   */\n      dup4\n      and\n      dup1\n        /* \"#utility.yul\":8429:8466   */\n      tag_299\n      jumpi\n        /* \"#utility.yul\":8446:8464   */\n      tag_299\n      tag_156\n      jump\t// in\n    tag_299:\n      sub(shl(0xa0, 0x01), 0x01)\n        /* \"#utility.yul\":8484:8511   */\n      swap3\n      swap1\n      swap3\n      and\n        /* \"#utility.yul\":8480:8517   */\n      swap2\n      swap1\n      swap2\n      div\n      swap3\n        /* \"#utility.yul\":8326:8523   */\n      swap2\n      pop\n      pop\n      jump\t// out\n        /* \"#utility.yul\":8528:8873   */\n    tag_169:\n      sub(shl(0xa0, 0x01), 0x01)\n        /* \"#utility.yul\":8748:8780   */\n      swap4\n      swap1\n      swap4\n      and\n        /* \"#utility.yul\":8730:8781   */\n      dup4\n      mstore\n        /* \"#utility.yul\":8812:8814   */\n      0x20\n        /* \"#utility.yul\":8797:8815   */\n      dup4\n      add\n        /* \"#utility.yul\":8790:8824   */\n      swap2\n      swap1\n      swap2\n      mstore\n        /* \"#utility.yul\":8855:8857   */\n      0x40\n        /* \"#utility.yul\":8840:8858   */\n      dup3\n      add\n        /* \"#utility.yul\":8833:8867   */\n      mstore\n        /* \"#utility.yul\":8718:8720   */\n      0x60\n        /* \"#utility.yul\":8703:8721   */\n      add\n      swap1\n        /* \"#utility.yul\":8528:8873   */\n      jump\t// out\n        /* \"#utility.yul\":8878:9081   */\n    tag_174:\n      sub(shl(0xa0, 0x01), 0x01)\n        /* \"#utility.yul\":9042:9074   */\n      swap2\n      swap1\n      swap2\n      and\n        /* \"#utility.yul\":9024:9075   */\n      dup2\n      mstore\n        /* \"#utility.yul\":9012:9014   */\n      0x20\n        /* \"#utility.yul\":8997:9015   */\n      add\n      swap1\n        /* \"#utility.yul\":8878:9081   */\n      jump\t// out\n        /* \"#utility.yul\":9086:9213   */\n    tag_194:\n        /* \"#utility.yul\":9147:9157   */\n      0x4e487b71\n        /* \"#utility.yul\":9142:9145   */\n      0xe0\n        /* \"#utility.yul\":9138:9158   */\n      shl\n        /* \"#utility.yul\":9135:9136   */\n      0x00\n        /* \"#utility.yul\":9128:9159   */\n      mstore\n        /* \"#utility.yul\":9178:9182   */\n      0x01\n        /* \"#utility.yul\":9175:9176   */\n      0x04\n        /* \"#utility.yul\":9168:9183   */\n      mstore\n        /* \"#utility.yul\":9202:9206   */\n      0x24\n        /* \"#utility.yul\":9199:9200   */\n      0x00\n        /* \"#utility.yul\":9192:9207   */\n      revert\n        /* \"#utility.yul\":9218:9440   */\n    tag_205:\n        /* \"#utility.yul\":9283:9292   */\n      dup1\n      dup3\n      add\n        /* \"#utility.yul\":9304:9314   */\n      dup1\n      dup3\n      gt\n        /* \"#utility.yul\":9301:9434   */\n      iszero\n      tag_100\n      jumpi\n        /* \"#utility.yul\":9356:9366   */\n      0x4e487b71\n        /* \"#utility.yul\":9351:9354   */\n      0xe0\n        /* \"#utility.yul\":9347:9367   */\n      shl\n        /* \"#utility.yul\":9344:9345   */\n      0x00\n        /* \"#utility.yul\":9337:9368   */\n      mstore\n        /* \"#utility.yul\":9391:9395   */\n      0x11\n        /* \"#utility.yul\":9388:9389   */\n      0x04\n        /* \"#utility.yul\":9381:9396   */\n      mstore\n        /* \"#utility.yul\":9419:9423   */\n      0x24\n        /* \"#utility.yul\":9416:9417   */\n      0x00\n        /* \"#utility.yul\":9409:9424   */\n      revert\n\n    auxdata: 0xa2646970667358221220725792d724027208497110626c83bb9f0c672002b7fb796b7931c788aa027f9a64736f6c634300081b0033\n}\n",
				"bytecode": {
					"linkReferences": {},
					"object": "608060405234801561000f575f5ffd5b5060405180604001604052806006815260200165564d20524e4760d01b81525060405180604001604052806005815260200164564d524e4760d81b815250816003908161005c919061029e565b506004610069828261029e565b50507e01fae4570e6a3c0001eea60f0479020002ee53d1d08d2b000227025d8e13ca600555507e07e5e4f4c6d7510002dbdcd3778c6d000110e309ee0984000000000000000060068190557e02ffd06dbf2d9b00063c93e835361b00027b83e305ed18000043984fdf50d46007557e013a9dcccbbecd0000234cdd6795d9000000000000000000034add185625d8600855600980546001600160481b031990811666011fc59dd353c4179091557e01d582f24850510000aac3dc86188800028246aec62b3d000227025d8e13ca600a55600b919091557e02ffd06dbf2d9b00063c93e835361b00027b83e305ed1800059591956c8269600c557e01bf8f849a1db8000187bc56a5a81a00009b5daf8bfe0400034add185625d8600d55600e805468010000832915784aed92169190911790557e04386ba397d9d100011dd325062a390002877439321ef20000000000000000600f557d832915784aed00002998a7cb1db60000889846490db0000380fd806ce16e601055601180546001600160881b0319166e01bf8f849a1db80000bf8b42eefc83179055610358565b634e487b7160e01b5f52604160045260245ffd5b600181811c9082168061022e57607f821691505b60208210810361024c57634e487b7160e01b5f52602260045260245ffd5b50919050565b601f82111561029957805f5260205f20601f840160051c810160208510156102775750805b601f840160051c820191505b81811015610296575f8155600101610283565b50505b505050565b81516001600160401b038111156102b7576102b7610206565b6102cb816102c5845461021a565b84610252565b6020601f8211600181146102fd575f83156102e65750848201515b5f19600385901b1c1916600184901b178455610296565b5f84815260208120601f198516915b8281101561032c578785015182556020948501946001909201910161030c565b508482101561034957868401515f19600387901b60f8161c191681555b50505050600190811b01905550565b611906806103655f395ff3fe608060405234801561000f575f5ffd5b50600436106100e8575f3560e01c806353df6e351161008f57806353df6e351461019e578063604a6fa9146101c957806370a08231146101d157806379cc6790146101f957806395d89b411461020c578063a9059cbb14610214578063d3dc2a0f14610227578063dd62ed3e14610235578063fa6bcfec14610248575f5ffd5b806306fdde03146100ec578063095ea7b31461010a5780631686f2651461012d57806318160ddd1461014257806323b872dd14610154578063313ce567146101675780633148f14f1461017657806342966c6814610189575b5f5ffd5b6100f461025b565b604051610101919061139b565b60405180910390f35b61011d6101183660046113eb565b6102eb565b6040519015158152602001610101565b610135610304565b60405161010191906115f8565b6002545b604051908152602001610101565b61011d6101623660046116c1565b610b9e565b60405160128152602001610101565b6101466101843660046116fb565b610bc1565b61019c610197366004611724565b610c09565b005b6101b16101ac366004611751565b610c16565b6040516001600160401b039091168152602001610101565b6101b1610c4e565b6101466101df366004611791565b6001600160a01b03165f9081526020819052604090205490565b61019c6102073660046113eb565b610dab565b6100f4610dc4565b61011d6102223660046113eb565b610dd3565b6101b16603632c8eb5af3b81565b6101466102433660046117aa565b610de0565b6101466102563660046117aa565b610e0a565b60606003805461026a906117db565b80601f0160208091040260200160405190810160405280929190818152602001828054610296906117db565b80156102e15780601f106102b8576101008083540402835291602001916102e1565b820191905f5260205f20905b8154815290600101906020018083116102c457829003601f168201915b5050505050905090565b5f336102f8818585610e8e565b60019150505b92915050565b61030c611291565b6005604051806101a00160405290815f8201604051806102400160405290815f82015f9054906101000a90046001600160401b03166001600160401b03166001600160401b031681526020015f820160089054906101000a90046001600160401b03166001600160401b03166001600160401b031681526020015f820160109054906101000a90046001600160401b03166001600160401b03166001600160401b031681526020015f820160189054906101000a90046001600160401b03166001600160401b03166001600160401b03168152602001600182015f9054906101000a90046001600160401b03166001600160401b03166001600160401b031681526020016001820160089054906101000a90046001600160401b03166001600160401b03166001600160401b031681526020016001820160109054906101000a90046001600160401b03166001600160401b03166001600160401b031681526020016001820160189054906101000a90046001600160401b03166001600160401b03166001600160401b03168152602001600282015f9054906101000a90046001600160401b03166001600160401b03166001600160401b031681526020016002820160089054906101000a90046001600160401b03166001600160401b03166001600160401b031681526020016002820160109054906101000a90046001600160401b03166001600160401b03166001600160401b031681526020016002820160189054906101000a90046001600160401b03166001600160401b03166001600160401b03168152602001600382015f9054906101000a90046001600160401b03166001600160401b03166001600160401b031681526020016003820160089054906101000a90046001600160401b03166001600160401b03166001600160401b031681526020016003820160109054906101000a90046001600160401b03166001600160401b03166001600160401b031681526020016003820160189054906101000a90046001600160401b03166001600160401b03166001600160401b03168152602001600482015f9054906101000a90046001600160401b03166001600160401b03166001600160401b031681526020016004820160089054906101000a900460ff1660ff1660ff1681525050815260200160058201604051806102400160405290815f82015f9054906101000a90046001600160401b03166001600160401b03166001600160401b031681526020015f820160089054906101000a90046001600160401b03166001600160401b03166001600160401b031681526020015f820160109054906101000a90046001600160401b03166001600160401b03166001600160401b031681526020015f820160189054906101000a90046001600160401b03166001600160401b03166001600160401b03168152602001600182015f9054906101000a90046001600160401b03166001600160401b03166001600160401b031681526020016001820160089054906101000a90046001600160401b03166001600160401b03166001600160401b031681526020016001820160109054906101000a90046001600160401b03166001600160401b03166001600160401b031681526020016001820160189054906101000a90046001600160401b03166001600160401b03166001600160401b03168152602001600282015f9054906101000a90046001600160401b03166001600160401b03166001600160401b031681526020016002820160089054906101000a90046001600160401b03166001600160401b03166001600160401b031681526020016002820160109054906101000a90046001600160401b03166001600160401b03166001600160401b031681526020016002820160189054906101000a90046001600160401b03166001600160401b03166001600160401b03168152602001600382015f9054906101000a90046001600160401b03166001600160401b03166001600160401b031681526020016003820160089054906101000a90046001600160401b03166001600160401b03166001600160401b031681526020016003820160109054906101000a90046001600160401b03166001600160401b03166001600160401b031681526020016003820160189054906101000a90046001600160401b03166001600160401b03166001600160401b03168152602001600482015f9054906101000a90046001600160401b03166001600160401b03166001600160401b031681526020016004820160089054906101000a900460ff1660ff1660ff16815250508152602001600a82015f9054906101000a90046001600160401b03166001600160401b03166001600160401b03168152602001600a820160089054906101000a90046001600160401b03166001600160401b03166001600160401b03168152602001600a820160109054906101000a90046001600160401b03166001600160401b03166001600160401b03168152602001600a820160189054906101000a90046001600160401b03166001600160401b03166001600160401b03168152602001600b82015f9054906101000a90046001600160401b03166001600160401b03166001600160401b03168152602001600b820160089054906101000a90046001600160401b03166001600160401b03166001600160401b03168152602001600b820160109054906101000a90046001600160401b03166001600160401b03166001600160401b03168152602001600b820160189054906101000a90046001600160401b03166001600160401b03166001600160401b03168152602001600c82015f9054906101000a90046001600160401b03166001600160401b03166001600160401b03168152602001600c820160089054906101000a90046001600160401b03166001600160401b03166001600160401b03168152602001600c820160109054906101000a900460ff1660ff1660ff1681525050905090565b5f33610bab858285610ea0565b610bb6858585610ef9565b506001949350505050565b5f60405160208152602080820152602060408201528460608201528360808201528260a082015260c05160208160c0845f60055f19f1610bff575f5ffd5b5195945050505050565b610c133382610f56565b50565b5f6001600160401b038085169084811690848116908490610c38858585610bc1565b610c429190611827565b98975050505050505050565b6010545f90610c6f90600a90600160401b90046001600160401b0316610f8a565b50600e546010805467ffffffffffffffff60801b19166001600160401b03928316600160801b9081029190911791829055610cb192600a929190910416610f8a565b50600e54601080546001600160c01b03166001600160401b03928316600160c01b9081029190911791829055600c54610cf493600a939290920482169116610f9c565b600d546011805467ffffffffffffffff19166001600160401b03600160c01b93849004811691909117909155601054600754610d3893600593920482169116610f9c565b5060085460118054600160401b8082046001600160401b03908116600160c01b958690048216188116820267ffffffffffffffff60401b1993841617909355601080548281048516600160801b820486161895810485169590951884168202949092169390931790819055919091041690565b610db6823383610ea0565b610dc08282610f56565b5050565b60606004805461026a906117db565b5f336102f8818585610ef9565b6001600160a01b039182165f90815260016020908152604080832093909416825291909152205490565b5f8281610e18600f8561183a565b90505b825f03610e67576603632c8eb5af3b6001600160a01b038083168482160a16066001600160a01b031692506002816001600160a01b031681610e5f57610e5f611813565b049050610e1b565b610e856001600160a01b038087169086166603632c8eb5af3b610bc1565b95945050505050565b610e9b8383836001611054565b505050565b5f610eab8484610de0565b90505f198114610ef35781811015610ee557828183604051637dc7a0d960e11b8152600401610edc93929190611868565b60405180910390fd5b610ef384848484035f611054565b50505050565b6001600160a01b038316610f22575f604051634b637e8f60e11b8152600401610edc9190611889565b6001600160a01b038216610f4b575f60405163ec442f0560e01b8152600401610edc9190611889565b610e9b838383611126565b6001600160a01b038216610f7f575f604051634b637e8f60e11b8152600401610edc9190611889565b610dc0825f83611126565b5f610f958383611239565b9392505050565b8254610fba908390600160c01b90046001600160401b031683610c16565b60038401805467ffffffffffffffff60801b1916600160801b6001600160401b03938416021790558354610ffa9184918491600160c01b90910416610c16565b6003840180546001600160c01b0316600160c01b6001600160401b03938416021790819055600160801b9004161580159061104857506003830154600160c01b90046001600160401b031615155b610e9b57610e9b61189d565b6001600160a01b03841661107d575f60405163e602df0560e01b8152600401610edc9190611889565b6001600160a01b0383166110a6575f604051634a1406b160e11b8152600401610edc9190611889565b6001600160a01b038085165f9081526001602090815260408083209387168352929052208290558015610ef357826001600160a01b0316846001600160a01b03167f8c5be1e5ebec7d5bd14f71427d1e84f3dd0314c0f7b2291e5b200ac8c7c3b9258460405161111891815260200190565b60405180910390a350505050565b6001600160a01b038316611150578060025f82825461114591906118b1565b909155506111ad9050565b6001600160a01b0383165f908152602081905260409020548181101561118f5783818360405163391434e360e21b8152600401610edc93929190611868565b6001600160a01b0384165f9081526020819052604090209082900390555b6001600160a01b0382166111c9576002805482900390556111e7565b6001600160a01b0382165f9081526020819052604090208054820190555b816001600160a01b0316836001600160a01b03167fddf252ad1be2c89b69c2b068fc378daa952ba7f163c4a11628f55a4df523b3ef8360405161122c91815260200190565b60405180910390a3505050565b600182015482545f916112669184916001600160401b03600160c01b918290048116929190910416610c16565b6004840180546001600160401b039290921667ffffffffffffffff1990921682179055905092915050565b604051806101a001604052806112a5611308565b81526020016112b2611308565b81525f6020820181905260408201819052606082018190526080820181905260a0820181905260c0820181905260e082018190526101008201819052610120820181905261014082018190526101609091015290565b60408051610240810182525f80825260208201819052918101829052606081018290526080810182905260a0810182905260c0810182905260e08101829052610100810182905261012081018290526101408101829052610160810182905261018081018290526101a081018290526101c081018290526101e08101829052610200810182905261022081019190915290565b602081525f82518060208401528060208501604085015e5f604082850101526040601f19601f83011684010191505092915050565b80356001600160a01b03811681146113e6575f5ffd5b919050565b5f5f604083850312156113fc575f5ffd5b611405836113d0565b946020939093013593505050565b80516001600160401b03168252602081015161143a60208401826001600160401b03169052565b50604081015161145560408401826001600160401b03169052565b50606081015161147060608401826001600160401b03169052565b50608081015161148b60808401826001600160401b03169052565b5060a08101516114a660a08401826001600160401b03169052565b5060c08101516114c160c08401826001600160401b03169052565b5060e08101516114dc60e08401826001600160401b03169052565b506101008101516114f96101008401826001600160401b03169052565b506101208101516115166101208401826001600160401b03169052565b506101408101516115336101408401826001600160401b03169052565b506101608101516115506101608401826001600160401b03169052565b5061018081015161156d6101808401826001600160401b03169052565b506101a081015161158a6101a08401826001600160401b03169052565b506101c08101516115a76101c08401826001600160401b03169052565b506101e08101516115c46101e08401826001600160401b03169052565b506102008101516115e16102008401826001600160401b03169052565b50610220810151610e9b61022084018260ff169052565b5f6105e08201905061160b828451611413565b602083015161161e610240840182611413565b5060408301516001600160401b03908116610480840152606084015181166104a0840152608084015181166104c084015260a084015181166104e084015260c0840151811661050084015260e08401518116610520840152610100840151811661054084015261012084015181166105608401526101408401518116610580840152610160840151166105a08301526101809092015160ff166105c09091015290565b5f5f5f606084860312156116d3575f5ffd5b6116dc846113d0565b92506116ea602085016113d0565b929592945050506040919091013590565b5f5f5f6060848603121561170d575f5ffd5b505081359360208301359350604090920135919050565b5f60208284031215611734575f5ffd5b5035919050565b80356001600160401b03811681146113e6575f5ffd5b5f5f5f60608486031215611763575f5ffd5b61176c8461173b565b925061177a6020850161173b565b91506117886040850161173b565b90509250925092565b5f602082840312156117a1575f5ffd5b610f95826113d0565b5f5f604083850312156117bb575f5ffd5b6117c4836113d0565b91506117d2602084016113d0565b90509250929050565b600181811c908216806117ef57607f821691505b60208210810361180d57634e487b7160e01b5f52602260045260245ffd5b50919050565b634e487b7160e01b5f52601260045260245ffd5b5f8261183557611835611813565b500690565b5f6001600160a01b0383168061185257611852611813565b6001600160a01b03929092169190910492915050565b6001600160a01b039390931683526020830191909152604082015260600190565b6001600160a01b0391909116815260200190565b634e487b7160e01b5f52600160045260245ffd5b808201808211156102fe57634e487b7160e01b5f52601160045260245ffdfea2646970667358221220725792d724027208497110626c83bb9f0c672002b7fb796b7931c788aa027f9a64736f6c634300081b0033",
					"opcodes": "PUSH1 0x80 PUSH1 0x40 MSTORE CALLVALUE DUP1 ISZERO PUSH2 0xF JUMPI PUSH0 PUSH0 REVERT JUMPDEST POP PUSH1 0x40 MLOAD DUP1 PUSH1 0x40 ADD PUSH1 0x40 MSTORE DUP1 PUSH1 0x6 DUP2 MSTORE PUSH1 0x20 ADD PUSH6 0x564D20524E47 PUSH1 0xD0 SHL DUP2 MSTORE POP PUSH1 0x40 MLOAD DUP1 PUSH1 0x40 ADD PUSH1 0x40 MSTORE DUP1 PUSH1 0x5 DUP2 MSTORE PUSH1 0x20 ADD PUSH5 0x564D524E47 PUSH1 0xD8 SHL DUP2 MSTORE POP DUP2 PUSH1 0x3 SWAP1 DUP2 PUSH2 0x5C SWAP2 SWAP1 PUSH2 0x29E JUMP JUMPDEST POP PUSH1 0x4 PUSH2 0x69 DUP3 DUP3 PUSH2 0x29E JUMP JUMPDEST POP POP PUSH31 0x1FAE4570E6A3C0001EEA60F0479020002EE53D1D08D2B000227025D8E13CA PUSH1 0x5 SSTORE POP PUSH31 0x7E5E4F4C6D7510002DBDCD3778C6D000110E309EE09840000000000000000 PUSH1 0x6 DUP2 SWAP1 SSTORE PUSH31 0x2FFD06DBF2D9B00063C93E835361B00027B83E305ED18000043984FDF50D4 PUSH1 0x7 SSTORE PUSH31 0x13A9DCCCBBECD0000234CDD6795D9000000000000000000034ADD185625D8 PUSH1 0x8 SSTORE PUSH1 0x9 DUP1 SLOAD PUSH1 0x1 PUSH1 0x1 PUSH1 0x48 SHL SUB NOT SWAP1 DUP2 AND PUSH7 0x11FC59DD353C4 OR SWAP1 SWAP2 SSTORE PUSH31 0x1D582F24850510000AAC3DC86188800028246AEC62B3D000227025D8E13CA PUSH1 0xA SSTORE PUSH1 0xB SWAP2 SWAP1 SWAP2 SSTORE PUSH31 0x2FFD06DBF2D9B00063C93E835361B00027B83E305ED1800059591956C8269 PUSH1 0xC SSTORE PUSH31 0x1BF8F849A1DB8000187BC56A5A81A00009B5DAF8BFE0400034ADD185625D8 PUSH1 0xD SSTORE PUSH1 0xE DUP1 SLOAD PUSH9 0x10000832915784AED SWAP3 AND SWAP2 SWAP1 SWAP2 OR SWAP1 SSTORE PUSH31 0x4386BA397D9D100011DD325062A390002877439321EF20000000000000000 PUSH1 0xF SSTORE PUSH30 0x832915784AED00002998A7CB1DB60000889846490DB0000380FD806CE16E PUSH1 0x10 SSTORE PUSH1 0x11 DUP1 SLOAD PUSH1 0x1 PUSH1 0x1 PUSH1 0x88 SHL SUB NOT AND PUSH15 0x1BF8F849A1DB80000BF8B42EEFC83 OR SWAP1 SSTORE PUSH2 0x358 JUMP JUMPDEST PUSH4 0x4E487B71 PUSH1 0xE0 SHL PUSH0 MSTORE PUSH1 0x41 PUSH1 0x4 MSTORE PUSH1 0x24 PUSH0 REVERT JUMPDEST PUSH1 0x1 DUP2 DUP2 SHR SWAP1 DUP3 AND DUP1 PUSH2 0x22E JUMPI PUSH1 0x7F DUP3 AND SWAP2 POP JUMPDEST PUSH1 0x20 DUP3 LT DUP2 SUB PUSH2 0x24C JUMPI PUSH4 0x4E487B71 PUSH1 0xE0 SHL PUSH0 MSTORE PUSH1 0x22 PUSH1 0x4 MSTORE PUSH1 0x24 PUSH0 REVERT JUMPDEST POP SWAP2 SWAP1 POP JUMP JUMPDEST PUSH1 0x1F DUP3 GT ISZERO PUSH2 0x299 JUMPI DUP1 PUSH0 MSTORE PUSH1 0x20 PUSH0 KECCAK256 PUSH1 0x1F DUP5 ADD PUSH1 0x5 SHR DUP2 ADD PUSH1 0x20 DUP6 LT ISZERO PUSH2 0x277 JUMPI POP DUP1 JUMPDEST PUSH1 0x1F DUP5 ADD PUSH1 0x5 SHR DUP3 ADD SWAP2 POP JUMPDEST DUP2 DUP2 LT ISZERO PUSH2 0x296 JUMPI PUSH0 DUP2 SSTORE PUSH1 0x1 ADD PUSH2 0x283 JUMP JUMPDEST POP POP JUMPDEST POP POP POP JUMP JUMPDEST DUP2 MLOAD PUSH1 0x1 PUSH1 0x1 PUSH1 0x40 SHL SUB DUP2 GT ISZERO PUSH2 0x2B7 JUMPI PUSH2 0x2B7 PUSH2 0x206 JUMP JUMPDEST PUSH2 0x2CB DUP2 PUSH2 0x2C5 DUP5 SLOAD PUSH2 0x21A JUMP JUMPDEST DUP5 PUSH2 0x252 JUMP JUMPDEST PUSH1 0x20 PUSH1 0x1F DUP3 GT PUSH1 0x1 DUP2 EQ PUSH2 0x2FD JUMPI PUSH0 DUP4 ISZERO PUSH2 0x2E6 JUMPI POP DUP5 DUP3 ADD MLOAD JUMPDEST PUSH0 NOT PUSH1 0x3 DUP6 SWAP1 SHL SHR NOT AND PUSH1 0x1 DUP5 SWAP1 SHL OR DUP5 SSTORE PUSH2 0x296 JUMP JUMPDEST PUSH0 DUP5 DUP2 MSTORE PUSH1 0x20 DUP2 KECCAK256 PUSH1 0x1F NOT DUP6 AND SWAP2 JUMPDEST DUP3 DUP2 LT ISZERO PUSH2 0x32C JUMPI DUP8 DUP6 ADD MLOAD DUP3 SSTORE PUSH1 0x20 SWAP5 DUP6 ADD SWAP5 PUSH1 0x1 SWAP1 SWAP3 ADD SWAP2 ADD PUSH2 0x30C JUMP JUMPDEST POP DUP5 DUP3 LT ISZERO PUSH2 0x349 JUMPI DUP7 DUP5 ADD MLOAD PUSH0 NOT PUSH1 0x3 DUP8 SWAP1 SHL PUSH1 0xF8 AND SHR NOT AND DUP2 SSTORE JUMPDEST POP POP POP POP PUSH1 0x1 SWAP1 DUP2 SHL ADD SWAP1 SSTORE POP JUMP JUMPDEST PUSH2 0x1906 DUP1 PUSH2 0x365 PUSH0 CODECOPY PUSH0 RETURN INVALID PUSH1 0x80 PUSH1 0x40 MSTORE CALLVALUE DUP1 ISZERO PUSH2 0xF JUMPI PUSH0 PUSH0 REVERT JUMPDEST POP PUSH1 0x4 CALLDATASIZE LT PUSH2 0xE8 JUMPI PUSH0 CALLDATALOAD PUSH1 0xE0 SHR DUP1 PUSH4 0x53DF6E35 GT PUSH2 0x8F JUMPI DUP1 PUSH4 0x53DF6E35 EQ PUSH2 0x19E JUMPI DUP1 PUSH4 0x604A6FA9 EQ PUSH2 0x1C9 JUMPI DUP1 PUSH4 0x70A08231 EQ PUSH2 0x1D1 JUMPI DUP1 PUSH4 0x79CC6790 EQ PUSH2 0x1F9 JUMPI DUP1 PUSH4 0x95D89B41 EQ PUSH2 0x20C JUMPI DUP1 PUSH4 0xA9059CBB EQ PUSH2 0x214 JUMPI DUP1 PUSH4 0xD3DC2A0F EQ PUSH2 0x227 JUMPI DUP1 PUSH4 0xDD62ED3E EQ PUSH2 0x235 JUMPI DUP1 PUSH4 0xFA6BCFEC EQ PUSH2 0x248 JUMPI PUSH0 PUSH0 REVERT JUMPDEST DUP1 PUSH4 0x6FDDE03 EQ PUSH2 0xEC JUMPI DUP1 PUSH4 0x95EA7B3 EQ PUSH2 0x10A JUMPI DUP1 PUSH4 0x1686F265 EQ PUSH2 0x12D JUMPI DUP1 PUSH4 0x18160DDD EQ PUSH2 0x142 JUMPI DUP1 PUSH4 0x23B872DD EQ PUSH2 0x154 JUMPI DUP1 PUSH4 0x313CE567 EQ PUSH2 0x167 JUMPI DUP1 PUSH4 0x3148F14F EQ PUSH2 0x176 JUMPI DUP1 PUSH4 0x42966C68 EQ PUSH2 0x189 JUMPI JUMPDEST PUSH0 PUSH0 REVERT JUMPDEST PUSH2 0xF4 PUSH2 0x25B JUMP JUMPDEST PUSH1 0x40 MLOAD PUSH2 0x101 SWAP2 SWAP1 PUSH2 0x139B JUMP JUMPDEST PUSH1 0x40 MLOAD DUP1 SWAP2 SUB SWAP1 RETURN JUMPDEST PUSH2 0x11D PUSH2 0x118 CALLDATASIZE PUSH1 0x4 PUSH2 0x13EB JUMP JUMPDEST PUSH2 0x2EB JUMP JUMPDEST PUSH1 0x40 MLOAD SWAP1 ISZERO ISZERO DUP2 MSTORE PUSH1 0x20 ADD PUSH2 0x101 JUMP JUMPDEST PUSH2 0x135 PUSH2 0x304 JUMP JUMPDEST PUSH1 0x40 MLOAD PUSH2 0x101 SWAP2 SWAP1 PUSH2 0x15F8 JUMP JUMPDEST PUSH1 0x2 SLOAD JUMPDEST PUSH1 0x40 MLOAD SWAP1 DUP2 MSTORE PUSH1 0x20 ADD PUSH2 0x101 JUMP JUMPDEST PUSH2 0x11D PUSH2 0x162 CALLDATASIZE PUSH1 0x4 PUSH2 0x16C1 JUMP JUMPDEST PUSH2 0xB9E JUMP JUMPDEST PUSH1 0x40 MLOAD PUSH1 0x12 DUP2 MSTORE PUSH1 0x20 ADD PUSH2 0x101 JUMP JUMPDEST PUSH2 0x146 PUSH2 0x184 CALLDATASIZE PUSH1 0x4 PUSH2 0x16FB JUMP JUMPDEST PUSH2 0xBC1 JUMP JUMPDEST PUSH2 0x19C PUSH2 0x197 CALLDATASIZE PUSH1 0x4 PUSH2 0x1724 JUMP JUMPDEST PUSH2 0xC09 JUMP JUMPDEST STOP JUMPDEST PUSH2 0x1B1 PUSH2 0x1AC CALLDATASIZE PUSH1 0x4 PUSH2 0x1751 JUMP JUMPDEST PUSH2 0xC16 JUMP JUMPDEST PUSH1 0x40 MLOAD PUSH1 0x1 PUSH1 0x1 PUSH1 0x40 SHL SUB SWAP1 SWAP2 AND DUP2 MSTORE PUSH1 0x20 ADD PUSH2 0x101 JUMP JUMPDEST PUSH2 0x1B1 PUSH2 0xC4E JUMP JUMPDEST PUSH2 0x146 PUSH2 0x1DF CALLDATASIZE PUSH1 0x4 PUSH2 0x1791 JUMP JUMPDEST PUSH1 0x1 PUSH1 0x1 PUSH1 0xA0 SHL SUB AND PUSH0 SWAP1 DUP2 MSTORE PUSH1 0x20 DUP2 SWAP1 MSTORE PUSH1 0x40 SWAP1 KECCAK256 SLOAD SWAP1 JUMP JUMPDEST PUSH2 0x19C PUSH2 0x207 CALLDATASIZE PUSH1 0x4 PUSH2 0x13EB JUMP JUMPDEST PUSH2 0xDAB JUMP JUMPDEST PUSH2 0xF4 PUSH2 0xDC4 JUMP JUMPDEST PUSH2 0x11D PUSH2 0x222 CALLDATASIZE PUSH1 0x4 PUSH2 0x13EB JUMP JUMPDEST PUSH2 0xDD3 JUMP JUMPDEST PUSH2 0x1B1 PUSH7 0x3632C8EB5AF3B DUP2 JUMP JUMPDEST PUSH2 0x146 PUSH2 0x243 CALLDATASIZE PUSH1 0x4 PUSH2 0x17AA JUMP JUMPDEST PUSH2 0xDE0 JUMP JUMPDEST PUSH2 0x146 PUSH2 0x256 CALLDATASIZE PUSH1 0x4 PUSH2 0x17AA JUMP JUMPDEST PUSH2 0xE0A JUMP JUMPDEST PUSH1 0x60 PUSH1 0x3 DUP1 SLOAD PUSH2 0x26A SWAP1 PUSH2 0x17DB JUMP JUMPDEST DUP1 PUSH1 0x1F ADD PUSH1 0x20 DUP1 SWAP2 DIV MUL PUSH1 0x20 ADD PUSH1 0x40 MLOAD SWAP1 DUP2 ADD PUSH1 0x40 MSTORE DUP1 SWAP3 SWAP2 SWAP1 DUP2 DUP2 MSTORE PUSH1 0x20 ADD DUP3 DUP1 SLOAD PUSH2 0x296 SWAP1 PUSH2 0x17DB JUMP JUMPDEST DUP1 ISZERO PUSH2 0x2E1 JUMPI DUP1 PUSH1 0x1F LT PUSH2 0x2B8 JUMPI PUSH2 0x100 DUP1 DUP4 SLOAD DIV MUL DUP4 MSTORE SWAP2 PUSH1 0x20 ADD SWAP2 PUSH2 0x2E1 JUMP JUMPDEST DUP3 ADD SWAP2 SWAP1 PUSH0 MSTORE PUSH1 0x20 PUSH0 KECCAK256 SWAP1 JUMPDEST DUP2 SLOAD DUP2 MSTORE SWAP1 PUSH1 0x1 ADD SWAP1 PUSH1 0x20 ADD DUP1 DUP4 GT PUSH2 0x2C4 JUMPI DUP3 SWAP1 SUB PUSH1 0x1F AND DUP3 ADD SWAP2 JUMPDEST POP POP POP POP POP SWAP1 POP SWAP1 JUMP JUMPDEST PUSH0 CALLER PUSH2 0x2F8 DUP2 DUP6 DUP6 PUSH2 0xE8E JUMP JUMPDEST PUSH1 0x1 SWAP2 POP POP JUMPDEST SWAP3 SWAP2 POP POP JUMP JUMPDEST PUSH2 0x30C PUSH2 0x1291 JUMP JUMPDEST PUSH1 0x5 PUSH1 0x40 MLOAD DUP1 PUSH2 0x1A0 ADD PUSH1 0x40 MSTORE SWAP1 DUP2 PUSH0 DUP3 ADD PUSH1 0x40 MLOAD DUP1 PUSH2 0x240 ADD PUSH1 0x40 MSTORE SWAP1 DUP2 PUSH0 DUP3 ADD PUSH0 SWAP1 SLOAD SWAP1 PUSH2 0x100 EXP SWAP1 DIV PUSH1 0x1 PUSH1 0x1 PUSH1 0x40 SHL SUB AND PUSH1 0x1 PUSH1 0x1 PUSH1 0x40 SHL SUB AND PUSH1 0x1 PUSH1 0x1 PUSH1 0x40 SHL SUB AND DUP2 MSTORE PUSH1 0x20 ADD PUSH0 DUP3 ADD PUSH1 0x8 SWAP1 SLOAD SWAP1 PUSH2 0x100 EXP SWAP1 DIV PUSH1 0x1 PUSH1 0x1 PUSH1 0x40 SHL SUB AND PUSH1 0x1 PUSH1 0x1 PUSH1 0x40 SHL SUB AND PUSH1 0x1 PUSH1 0x1 PUSH1 0x40 SHL SUB AND DUP2 MSTORE PUSH1 0x20 ADD PUSH0 DUP3 ADD PUSH1 0x10 SWAP1 SLOAD SWAP1 PUSH2 0x100 EXP SWAP1 DIV PUSH1 0x1 PUSH1 0x1 PUSH1 0x40 SHL SUB AND PUSH1 0x1 PUSH1 0x1 PUSH1 0x40 SHL SUB AND PUSH1 0x1 PUSH1 0x1 PUSH1 0x40 SHL SUB AND DUP2 MSTORE PUSH1 0x20 ADD PUSH0 DUP3 ADD PUSH1 0x18 SWAP1 SLOAD SWAP1 PUSH2 0x100 EXP SWAP1 DIV PUSH1 0x1 PUSH1 0x1 PUSH1 0x40 SHL SUB AND PUSH1 0x1 PUSH1 0x1 PUSH1 0x40 SHL SUB AND PUSH1 0x1 PUSH1 0x1 PUSH1 0x40 SHL SUB AND DUP2 MSTORE PUSH1 0x20 ADD PUSH1 0x1 DUP3 ADD PUSH0 SWAP1 SLOAD SWAP1 PUSH2 0x100 EXP SWAP1 DIV PUSH1 0x1 PUSH1 0x1 PUSH1 0x40 SHL SUB AND PUSH1 0x1 PUSH1 0x1 PUSH1 0x40 SHL SUB AND PUSH1 0x1 PUSH1 0x1 PUSH1 0x40 SHL SUB AND DUP2 MSTORE PUSH1 0x20 ADD PUSH1 0x1 DUP3 ADD PUSH1 0x8 SWAP1 SLOAD SWAP1 PUSH2 0x100 EXP SWAP1 DIV PUSH1 0x1 PUSH1 0x1 PUSH1 0x40 SHL SUB AND PUSH1 0x1 PUSH1 0x1 PUSH1 0x40 SHL SUB AND PUSH1 0x1 PUSH1 0x1 PUSH1 0x40 SHL SUB AND DUP2 MSTORE PUSH1 0x20 ADD PUSH1 0x1 DUP3 ADD PUSH1 0x10 SWAP1 SLOAD SWAP1 PUSH2 0x100 EXP SWAP1 DIV PUSH1 0x1 PUSH1 0x1 PUSH1 0x40 SHL SUB AND PUSH1 0x1 PUSH1 0x1 PUSH1 0x40 SHL SUB AND PUSH1 0x1 PUSH1 0x1 PUSH1 0x40 SHL SUB AND DUP2 MSTORE PUSH1 0x20 ADD PUSH1 0x1 DUP3 ADD PUSH1 0x18 SWAP1 SLOAD SWAP1 PUSH2 0x100 EXP SWAP1 DIV PUSH1 0x1 PUSH1 0x1 PUSH1 0x40 SHL SUB AND PUSH1 0x1 PUSH1 0x1 PUSH1 0x40 SHL SUB AND PUSH1 0x1 PUSH1 0x1 PUSH1 0x40 SHL SUB AND DUP2 MSTORE PUSH1 0x20 ADD PUSH1 0x2 DUP3 ADD PUSH0 SWAP1 SLOAD SWAP1 PUSH2 0x100 EXP SWAP1 DIV PUSH1 0x1 PUSH1 0x1 PUSH1 0x40 SHL SUB AND PUSH1 0x1 PUSH1 0x1 PUSH1 0x40 SHL SUB AND PUSH1 0x1 PUSH1 0x1 PUSH1 0x40 SHL SUB AND DUP2 MSTORE PUSH1 0x20 ADD PUSH1 0x2 DUP3 ADD PUSH1 0x8 SWAP1 SLOAD SWAP1 PUSH2 0x100 EXP SWAP1 DIV PUSH1 0x1 PUSH1 0x1 PUSH1 0x40 SHL SUB AND PUSH1 0x1 PUSH1 0x1 PUSH1 0x40 SHL SUB AND PUSH1 0x1 PUSH1 0x1 PUSH1 0x40 SHL SUB AND DUP2 MSTORE PUSH1 0x20 ADD PUSH1 0x2 DUP3 ADD PUSH1 0x10 SWAP1 SLOAD SWAP1 PUSH2 0x100 EXP SWAP1 DIV PUSH1 0x1 PUSH1 0x1 PUSH1 0x40 SHL SUB AND PUSH1 0x1 PUSH1 0x1 PUSH1 0x40 SHL SUB AND PUSH1 0x1 PUSH1 0x1 PUSH1 0x40 SHL SUB AND DUP2 MSTORE PUSH1 0x20 ADD PUSH1 0x2 DUP3 ADD PUSH1 0x18 SWAP1 SLOAD SWAP1 PUSH2 0x100 EXP SWAP1 DIV PUSH1 0x1 PUSH1 0x1 PUSH1 0x40 SHL SUB AND PUSH1 0x1 PUSH1 0x1 PUSH1 0x40 SHL SUB AND PUSH1 0x1 PUSH1 0x1 PUSH1 0x40 SHL SUB AND DUP2 MSTORE PUSH1 0x20 ADD PUSH1 0x3 DUP3 ADD PUSH0 SWAP1 SLOAD SWAP1 PUSH2 0x100 EXP SWAP1 DIV PUSH1 0x1 PUSH1 0x1 PUSH1 0x40 SHL SUB AND PUSH1 0x1 PUSH1 0x1 PUSH1 0x40 SHL SUB AND PUSH1 0x1 PUSH1 0x1 PUSH1 0x40 SHL SUB AND DUP2 MSTORE PUSH1 0x20 ADD PUSH1 0x3 DUP3 ADD PUSH1 0x8 SWAP1 SLOAD SWAP1 PUSH2 0x100 EXP SWAP1 DIV PUSH1 0x1 PUSH1 0x1 PUSH1 0x40 SHL SUB AND PUSH1 0x1 PUSH1 0x1 PUSH1 0x40 SHL SUB AND PUSH1 0x1 PUSH1 0x1 PUSH1 0x40 SHL SUB AND DUP2 MSTORE PUSH1 0x20 ADD PUSH1 0x3 DUP3 ADD PUSH1 0x10 SWAP1 SLOAD SWAP1 PUSH2 0x100 EXP SWAP1 DIV PUSH1 0x1 PUSH1 0x1 PUSH1 0x40 SHL SUB AND PUSH1 0x1 PUSH1 0x1 PUSH1 0x40 SHL SUB AND PUSH1 0x1 PUSH1 0x1 PUSH1 0x40 SHL SUB AND DUP2 MSTORE PUSH1 0x20 ADD PUSH1 0x3 DUP3 ADD PUSH1 0x18 SWAP1 SLOAD SWAP1 PUSH2 0x100 EXP SWAP1 DIV PUSH1 0x1 PUSH1 0x1 PUSH1 0x40 SHL SUB AND PUSH1 0x1 PUSH1 0x1 PUSH1 0x40 SHL SUB AND PUSH1 0x1 PUSH1 0x1 PUSH1 0x40 SHL SUB AND DUP2 MSTORE PUSH1 0x20 ADD PUSH1 0x4 DUP3 ADD PUSH0 SWAP1 SLOAD SWAP1 PUSH2 0x100 EXP SWAP1 DIV PUSH1 0x1 PUSH1 0x1 PUSH1 0x40 SHL SUB AND PUSH1 0x1 PUSH1 0x1 PUSH1 0x40 SHL SUB AND PUSH1 0x1 PUSH1 0x1 PUSH1 0x40 SHL SUB AND DUP2 MSTORE PUSH1 0x20 ADD PUSH1 0x4 DUP3 ADD PUSH1 0x8 SWAP1 SLOAD SWAP1 PUSH2 0x100 EXP SWAP1 DIV PUSH1 0xFF AND PUSH1 0xFF AND PUSH1 0xFF AND DUP2 MSTORE POP POP DUP2 MSTORE PUSH1 0x20 ADD PUSH1 0x5 DUP3 ADD PUSH1 0x40 MLOAD DUP1 PUSH2 0x240 ADD PUSH1 0x40 MSTORE SWAP1 DUP2 PUSH0 DUP3 ADD PUSH0 SWAP1 SLOAD SWAP1 PUSH2 0x100 EXP SWAP1 DIV PUSH1 0x1 PUSH1 0x1 PUSH1 0x40 SHL SUB AND PUSH1 0x1 PUSH1 0x1 PUSH1 0x40 SHL SUB AND PUSH1 0x1 PUSH1 0x1 PUSH1 0x40 SHL SUB AND DUP2 MSTORE PUSH1 0x20 ADD PUSH0 DUP3 ADD PUSH1 0x8 SWAP1 SLOAD SWAP1 PUSH2 0x100 EXP SWAP1 DIV PUSH1 0x1 PUSH1 0x1 PUSH1 0x40 SHL SUB AND PUSH1 0x1 PUSH1 0x1 PUSH1 0x40 SHL SUB AND PUSH1 0x1 PUSH1 0x1 PUSH1 0x40 SHL SUB AND DUP2 MSTORE PUSH1 0x20 ADD PUSH0 DUP3 ADD PUSH1 0x10 SWAP1 SLOAD SWAP1 PUSH2 0x100 EXP SWAP1 DIV PUSH1 0x1 PUSH1 0x1 PUSH1 0x40 SHL SUB AND PUSH1 0x1 PUSH1 0x1 PUSH1 0x40 SHL SUB AND PUSH1 0x1 PUSH1 0x1 PUSH1 0x40 SHL SUB AND DUP2 MSTORE PUSH1 0x20 ADD PUSH0 DUP3 ADD PUSH1 0x18 SWAP1 SLOAD SWAP1 PUSH2 0x100 EXP SWAP1 DIV PUSH1 0x1 PUSH1 0x1 PUSH1 0x40 SHL SUB AND PUSH1 0x1 PUSH1 0x1 PUSH1 0x40 SHL SUB AND PUSH1 0x1 PUSH1 0x1 PUSH1 0x40 SHL SUB AND DUP2 MSTORE PUSH1 0x20 ADD PUSH1 0x1 DUP3 ADD PUSH0 SWAP1 SLOAD SWAP1 PUSH2 0x100 EXP SWAP1 DIV PUSH1 0x1 PUSH1 0x1 PUSH1 0x40 SHL SUB AND PUSH1 0x1 PUSH1 0x1 PUSH1 0x40 SHL SUB AND PUSH1 0x1 PUSH1 0x1 PUSH1 0x40 SHL SUB AND DUP2 MSTORE PUSH1 0x20 ADD PUSH1 0x1 DUP3 ADD PUSH1 0x8 SWAP1 SLOAD SWAP1 PUSH2 0x100 EXP SWAP1 DIV PUSH1 0x1 PUSH1 0x1 PUSH1 0x40 SHL SUB AND PUSH1 0x1 PUSH1 0x1 PUSH1 0x40 SHL SUB AND PUSH1 0x1 PUSH1 0x1 PUSH1 0x40 SHL SUB AND DUP2 MSTORE PUSH1 0x20 ADD PUSH1 0x1 DUP3 ADD PUSH1 0x10 SWAP1 SLOAD SWAP1 PUSH2 0x100 EXP SWAP1 DIV PUSH1 0x1 PUSH1 0x1 PUSH1 0x40 SHL SUB AND PUSH1 0x1 PUSH1 0x1 PUSH1 0x40 SHL SUB AND PUSH1 0x1 PUSH1 0x1 PUSH1 0x40 SHL SUB AND DUP2 MSTORE PUSH1 0x20 ADD PUSH1 0x1 DUP3 ADD PUSH1 0x18 SWAP1 SLOAD SWAP1 PUSH2 0x100 EXP SWAP1 DIV PUSH1 0x1 PUSH1 0x1 PUSH1 0x40 SHL SUB AND PUSH1 0x1 PUSH1 0x1 PUSH1 0x40 SHL SUB AND PUSH1 0x1 PUSH1 0x1 PUSH1 0x40 SHL SUB AND DUP2 MSTORE PUSH1 0x20 ADD PUSH1 0x2 DUP3 ADD PUSH0 SWAP1 SLOAD SWAP1 PUSH2 0x100 EXP SWAP1 DIV PUSH1 0x1 PUSH1 0x1 PUSH1 0x40 SHL SUB AND PUSH1 0x1 PUSH1 0x1 PUSH1 0x40 SHL SUB AND PUSH1 0x1 PUSH1 0x1 PUSH1 0x40 SHL SUB AND DUP2 MSTORE PUSH1 0x20 ADD PUSH1 0x2 DUP3 ADD PUSH1 0x8 SWAP1 SLOAD SWAP1 PUSH2 0x100 EXP SWAP1 DIV PUSH1 0x1 PUSH1 0x1 PUSH1 0x40 SHL SUB AND PUSH1 0x1 PUSH1 0x1 PUSH1 0x40 SHL SUB AND PUSH1 0x1 PUSH1 0x1 PUSH1 0x40 SHL SUB AND DUP2 MSTORE PUSH1 0x20 ADD PUSH1 0x2 DUP3 ADD PUSH1 0x10 SWAP1 SLOAD SWAP1 PUSH2 0x100 EXP SWAP1 DIV PUSH1 0x1 PUSH1 0x1 PUSH1 0x40 SHL SUB AND PUSH1 0x1 PUSH1 0x1 PUSH1 0x40 SHL SUB AND PUSH1 0x1 PUSH1 0x1 PUSH1 0x40 SHL SUB AND DUP2 MSTORE PUSH1 0x20 ADD PUSH1 0x2 DUP3 ADD PUSH1 0x18 SWAP1 SLOAD SWAP1 PUSH2 0x100 EXP SWAP1 DIV PUSH1 0x1 PUSH1 0x1 PUSH1 0x40 SHL SUB AND PUSH1 0x1 PUSH1 0x1 PUSH1 0x40 SHL SUB AND PUSH1 0x1 PUSH1 0x1 PUSH1 0x40 SHL SUB AND DUP2 MSTORE PUSH1 0x20 ADD PUSH1 0x3 DUP3 ADD PUSH0 SWAP1 SLOAD SWAP1 PUSH2 0x100 EXP SWAP1 DIV PUSH1 0x1 PUSH1 0x1 PUSH1 0x40 SHL SUB AND PUSH1 0x1 PUSH1 0x1 PUSH1 0x40 SHL SUB AND PUSH1 0x1 PUSH1 0x1 PUSH1 0x40 SHL SUB AND DUP2 MSTORE PUSH1 0x20 ADD PUSH1 0x3 DUP3 ADD PUSH1 0x8 SWAP1 SLOAD SWAP1 PUSH2 0x100 EXP SWAP1 DIV PUSH1 0x1 PUSH1 0x1 PUSH1 0x40 SHL SUB AND PUSH1 0x1 PUSH1 0x1 PUSH1 0x40 SHL SUB AND PUSH1 0x1 PUSH1 0x1 PUSH1 0x40 SHL SUB AND DUP2 MSTORE PUSH1 0x20 ADD PUSH1 0x3 DUP3 ADD PUSH1 0x10 SWAP1 SLOAD SWAP1 PUSH2 0x100 EXP SWAP1 DIV PUSH1 0x1 PUSH1 0x1 PUSH1 0x40 SHL SUB AND PUSH1 0x1 PUSH1 0x1 PUSH1 0x40 SHL SUB AND PUSH1 0x1 PUSH1 0x1 PUSH1 0x40 SHL SUB AND DUP2 MSTORE PUSH1 0x20 ADD PUSH1 0x3 DUP3 ADD PUSH1 0x18 SWAP1 SLOAD SWAP1 PUSH2 0x100 EXP SWAP1 DIV PUSH1 0x1 PUSH1 0x1 PUSH1 0x40 SHL SUB AND PUSH1 0x1 PUSH1 0x1 PUSH1 0x40 SHL SUB AND PUSH1 0x1 PUSH1 0x1 PUSH1 0x40 SHL SUB AND DUP2 MSTORE PUSH1 0x20 ADD PUSH1 0x4 DUP3 ADD PUSH0 SWAP1 SLOAD SWAP1 PUSH2 0x100 EXP SWAP1 DIV PUSH1 0x1 PUSH1 0x1 PUSH1 0x40 SHL SUB AND PUSH1 0x1 PUSH1 0x1 PUSH1 0x40 SHL SUB AND PUSH1 0x1 PUSH1 0x1 PUSH1 0x40 SHL SUB AND DUP2 MSTORE PUSH1 0x20 ADD PUSH1 0x4 DUP3 ADD PUSH1 0x8 SWAP1 SLOAD SWAP1 PUSH2 0x100 EXP SWAP1 DIV PUSH1 0xFF AND PUSH1 0xFF AND PUSH1 0xFF AND DUP2 MSTORE POP POP DUP2 MSTORE PUSH1 0x20 ADD PUSH1 0xA DUP3 ADD PUSH0 SWAP1 SLOAD SWAP1 PUSH2 0x100 EXP SWAP1 DIV PUSH1 0x1 PUSH1 0x1 PUSH1 0x40 SHL SUB AND PUSH1 0x1 PUSH1 0x1 PUSH1 0x40 SHL SUB AND PUSH1 0x1 PUSH1 0x1 PUSH1 0x40 SHL SUB AND DUP2 MSTORE PUSH1 0x20 ADD PUSH1 0xA DUP3 ADD PUSH1 0x8 SWAP1 SLOAD SWAP1 PUSH2 0x100 EXP SWAP1 DIV PUSH1 0x1 PUSH1 0x1 PUSH1 0x40 SHL SUB AND PUSH1 0x1 PUSH1 0x1 PUSH1 0x40 SHL SUB AND PUSH1 0x1 PUSH1 0x1 PUSH1 0x40 SHL SUB AND DUP2 MSTORE PUSH1 0x20 ADD PUSH1 0xA DUP3 ADD PUSH1 0x10 SWAP1 SLOAD SWAP1 PUSH2 0x100 EXP SWAP1 DIV PUSH1 0x1 PUSH1 0x1 PUSH1 0x40 SHL SUB AND PUSH1 0x1 PUSH1 0x1 PUSH1 0x40 SHL SUB AND PUSH1 0x1 PUSH1 0x1 PUSH1 0x40 SHL SUB AND DUP2 MSTORE PUSH1 0x20 ADD PUSH1 0xA DUP3 ADD PUSH1 0x18 SWAP1 SLOAD SWAP1 PUSH2 0x100 EXP SWAP1 DIV PUSH1 0x1 PUSH1 0x1 PUSH1 0x40 SHL SUB AND PUSH1 0x1 PUSH1 0x1 PUSH1 0x40 SHL SUB AND PUSH1 0x1 PUSH1 0x1 PUSH1 0x40 SHL SUB AND DUP2 MSTORE PUSH1 0x20 ADD PUSH1 0xB DUP3 ADD PUSH0 SWAP1 SLOAD SWAP1 PUSH2 0x100 EXP SWAP1 DIV PUSH1 0x1 PUSH1 0x1 PUSH1 0x40 SHL SUB AND PUSH1 0x1 PUSH1 0x1 PUSH1 0x40 SHL SUB AND PUSH1 0x1 PUSH1 0x1 PUSH1 0x40 SHL SUB AND DUP2 MSTORE PUSH1 0x20 ADD PUSH1 0xB DUP3 ADD PUSH1 0x8 SWAP1 SLOAD SWAP1 PUSH2 0x100 EXP SWAP1 DIV PUSH1 0x1 PUSH1 0x1 PUSH1 0x40 SHL SUB AND PUSH1 0x1 PUSH1 0x1 PUSH1 0x40 SHL SUB AND PUSH1 0x1 PUSH1 0x1 PUSH1 0x40 SHL SUB AND DUP2 MSTORE PUSH1 0x20 ADD PUSH1 0xB DUP3 ADD PUSH1 0x10 SWAP1 SLOAD SWAP1 PUSH2 0x100 EXP SWAP1 DIV PUSH1 0x1 PUSH1 0x1 PUSH1 0x40 SHL SUB AND PUSH1 0x1 PUSH1 0x1 PUSH1 0x40 SHL SUB AND PUSH1 0x1 PUSH1 0x1 PUSH1 0x40 SHL SUB AND DUP2 MSTORE PUSH1 0x20 ADD PUSH1 0xB DUP3 ADD PUSH1 0x18 SWAP1 SLOAD SWAP1 PUSH2 0x100 EXP SWAP1 DIV PUSH1 0x1 PUSH1 0x1 PUSH1 0x40 SHL SUB AND PUSH1 0x1 PUSH1 0x1 PUSH1 0x40 SHL SUB AND PUSH1 0x1 PUSH1 0x1 PUSH1 0x40 SHL SUB AND DUP2 MSTORE PUSH1 0x20 ADD PUSH1 0xC DUP3 ADD PUSH0 SWAP1 SLOAD SWAP1 PUSH2 0x100 EXP SWAP1 DIV PUSH1 0x1 PUSH1 0x1 PUSH1 0x40 SHL SUB AND PUSH1 0x1 PUSH1 0x1 PUSH1 0x40 SHL SUB AND PUSH1 0x1 PUSH1 0x1 PUSH1 0x40 SHL SUB AND DUP2 MSTORE PUSH1 0x20 ADD PUSH1 0xC DUP3 ADD PUSH1 0x8 SWAP1 SLOAD SWAP1 PUSH2 0x100 EXP SWAP1 DIV PUSH1 0x1 PUSH1 0x1 PUSH1 0x40 SHL SUB AND PUSH1 0x1 PUSH1 0x1 PUSH1 0x40 SHL SUB AND PUSH1 0x1 PUSH1 0x1 PUSH1 0x40 SHL SUB AND DUP2 MSTORE PUSH1 0x20 ADD PUSH1 0xC DUP3 ADD PUSH1 0x10 SWAP1 SLOAD SWAP1 PUSH2 0x100 EXP SWAP1 DIV PUSH1 0xFF AND PUSH1 0xFF AND PUSH1 0xFF AND DUP2 MSTORE POP POP SWAP1 POP SWAP1 JUMP JUMPDEST PUSH0 CALLER PUSH2 0xBAB DUP6 DUP3 DUP6 PUSH2 0xEA0 JUMP JUMPDEST PUSH2 0xBB6 DUP6 DUP6 DUP6 PUSH2 0xEF9 JUMP JUMPDEST POP PUSH1 0x1 SWAP5 SWAP4 POP POP POP POP JUMP JUMPDEST PUSH0 PUSH1 0x40 MLOAD PUSH1 0x20 DUP2 MSTORE PUSH1 0x20 DUP1 DUP3 ADD MSTORE PUSH1 0x20 PUSH1 0x40 DUP3 ADD MSTORE DUP5 PUSH1 0x60 DUP3 ADD MSTORE DUP4 PUSH1 0x80 DUP3 ADD MSTORE DUP3 PUSH1 0xA0 DUP3 ADD MSTORE PUSH1 0xC0 MLOAD PUSH1 0x20 DUP2 PUSH1 0xC0 DUP5 PUSH0 PUSH1 0x5 PUSH0 NOT CALL PUSH2 0xBFF JUMPI PUSH0 PUSH0 REVERT JUMPDEST MLOAD SWAP6 SWAP5 POP POP POP POP POP JUMP JUMPDEST PUSH2 0xC13 CALLER DUP3 PUSH2 0xF56 JUMP JUMPDEST POP JUMP JUMPDEST PUSH0 PUSH1 0x1 PUSH1 0x1 PUSH1 0x40 SHL SUB DUP1 DUP6 AND SWAP1 DUP5 DUP2 AND SWAP1 DUP5 DUP2 AND SWAP1 DUP5 SWAP1 PUSH2 0xC38 DUP6 DUP6 DUP6 PUSH2 0xBC1 JUMP JUMPDEST PUSH2 0xC42 SWAP2 SWAP1 PUSH2 0x1827 JUMP JUMPDEST SWAP9 SWAP8 POP POP POP POP POP POP POP POP JUMP JUMPDEST PUSH1 0x10 SLOAD PUSH0 SWAP1 PUSH2 0xC6F SWAP1 PUSH1 0xA SWAP1 PUSH1 0x1 PUSH1 0x40 SHL SWAP1 DIV PUSH1 0x1 PUSH1 0x1 PUSH1 0x40 SHL SUB AND PUSH2 0xF8A JUMP JUMPDEST POP PUSH1 0xE SLOAD PUSH1 0x10 DUP1 SLOAD PUSH8 0xFFFFFFFFFFFFFFFF PUSH1 0x80 SHL NOT AND PUSH1 0x1 PUSH1 0x1 PUSH1 0x40 SHL SUB SWAP3 DUP4 AND PUSH1 0x1 PUSH1 0x80 SHL SWAP1 DUP2 MUL SWAP2 SWAP1 SWAP2 OR SWAP2 DUP3 SWAP1 SSTORE PUSH2 0xCB1 SWAP3 PUSH1 0xA SWAP3 SWAP2 SWAP1 SWAP2 DIV AND PUSH2 0xF8A JUMP JUMPDEST POP PUSH1 0xE SLOAD PUSH1 0x10 DUP1 SLOAD PUSH1 0x1 PUSH1 0x1 PUSH1 0xC0 SHL SUB AND PUSH1 0x1 PUSH1 0x1 PUSH1 0x40 SHL SUB SWAP3 DUP4 AND PUSH1 0x1 PUSH1 0xC0 SHL SWAP1 DUP2 MUL SWAP2 SWAP1 SWAP2 OR SWAP2 DUP3 SWAP1 SSTORE PUSH1 0xC SLOAD PUSH2 0xCF4 SWAP4 PUSH1 0xA SWAP4 SWAP3 SWAP1 SWAP3 DIV DUP3 AND SWAP2 AND PUSH2 0xF9C JUMP JUMPDEST PUSH1 0xD SLOAD PUSH1 0x11 DUP1 SLOAD PUSH8 0xFFFFFFFFFFFFFFFF NOT AND PUSH1 0x1 PUSH1 0x1 PUSH1 0x40 SHL SUB PUSH1 0x1 PUSH1 0xC0 SHL SWAP4 DUP5 SWAP1 DIV DUP2 AND SWAP2 SWAP1 SWAP2 OR SWAP1 SWAP2 SSTORE PUSH1 0x10 SLOAD PUSH1 0x7 SLOAD PUSH2 0xD38 SWAP4 PUSH1 0x5 SWAP4 SWAP3 DIV DUP3 AND SWAP2 AND PUSH2 0xF9C JUMP JUMPDEST POP PUSH1 0x8 SLOAD PUSH1 0x11 DUP1 SLOAD PUSH1 0x1 PUSH1 0x40 SHL DUP1 DUP3 DIV PUSH1 0x1 PUSH1 0x1 PUSH1 0x40 SHL SUB SWAP1 DUP2 AND PUSH1 0x1 PUSH1 0xC0 SHL SWAP6 DUP7 SWAP1 DIV DUP3 AND XOR DUP2 AND DUP3 MUL PUSH8 0xFFFFFFFFFFFFFFFF PUSH1 0x40 SHL NOT SWAP4 DUP5 AND OR SWAP1 SWAP4 SSTORE PUSH1 0x10 DUP1 SLOAD DUP3 DUP2 DIV DUP6 AND PUSH1 0x1 PUSH1 0x80 SHL DUP3 DIV DUP7 AND XOR SWAP6 DUP2 DIV DUP6 AND SWAP6 SWAP1 SWAP6 XOR DUP5 AND DUP3 MUL SWAP5 SWAP1 SWAP3 AND SWAP4 SWAP1 SWAP4 OR SWAP1 DUP2 SWAP1 SSTORE SWAP2 SWAP1 SWAP2 DIV AND SWAP1 JUMP JUMPDEST PUSH2 0xDB6 DUP3 CALLER DUP4 PUSH2 0xEA0 JUMP JUMPDEST PUSH2 0xDC0 DUP3 DUP3 PUSH2 0xF56 JUMP JUMPDEST POP POP JUMP JUMPDEST PUSH1 0x60 PUSH1 0x4 DUP1 SLOAD PUSH2 0x26A SWAP1 PUSH2 0x17DB JUMP JUMPDEST PUSH0 CALLER PUSH2 0x2F8 DUP2 DUP6 DUP6 PUSH2 0xEF9 JUMP JUMPDEST PUSH1 0x1 PUSH1 0x1 PUSH1 0xA0 SHL SUB SWAP2 DUP3 AND PUSH0 SWAP1 DUP2 MSTORE PUSH1 0x1 PUSH1 0x20 SWAP1 DUP2 MSTORE PUSH1 0x40 DUP1 DUP4 KECCAK256 SWAP4 SWAP1 SWAP5 AND DUP3 MSTORE SWAP2 SWAP1 SWAP2 MSTORE KECCAK256 SLOAD SWAP1 JUMP JUMPDEST PUSH0 DUP3 DUP2 PUSH2 0xE18 PUSH1 0xF DUP6 PUSH2 0x183A JUMP JUMPDEST SWAP1 POP JUMPDEST DUP3 PUSH0 SUB PUSH2 0xE67 JUMPI PUSH7 0x3632C8EB5AF3B PUSH1 0x1 PUSH1 0x1 PUSH1 0xA0 SHL SUB DUP1 DUP4 AND DUP5 DUP3 AND EXP AND MOD PUSH1 0x1 PUSH1 0x1 PUSH1 0xA0 SHL SUB AND SWAP3 POP PUSH1 0x2 DUP2 PUSH1 0x1 PUSH1 0x1 PUSH1 0xA0 SHL SUB AND DUP2 PUSH2 0xE5F JUMPI PUSH2 0xE5F PUSH2 0x1813 JUMP JUMPDEST DIV SWAP1 POP PUSH2 0xE1B JUMP JUMPDEST PUSH2 0xE85 PUSH1 0x1 PUSH1 0x1 PUSH1 0xA0 SHL SUB DUP1 DUP8 AND SWAP1 DUP7 AND PUSH7 0x3632C8EB5AF3B PUSH2 0xBC1 JUMP JUMPDEST SWAP6 SWAP5 POP POP POP POP POP JUMP JUMPDEST PUSH2 0xE9B DUP4 DUP4 DUP4 PUSH1 0x1 PUSH2 0x1054 JUMP JUMPDEST POP POP POP JUMP JUMPDEST PUSH0 PUSH2 0xEAB DUP5 DUP5 PUSH2 0xDE0 JUMP JUMPDEST SWAP1 POP PUSH0 NOT DUP2 EQ PUSH2 0xEF3 JUMPI DUP2 DUP2 LT ISZERO PUSH2 0xEE5 JUMPI DUP3 DUP2 DUP4 PUSH1 0x40 MLOAD PUSH4 0x7DC7A0D9 PUSH1 0xE1 SHL DUP2 MSTORE PUSH1 0x4 ADD PUSH2 0xEDC SWAP4 SWAP3 SWAP2 SWAP1 PUSH2 0x1868 JUMP JUMPDEST PUSH1 0x40 MLOAD DUP1 SWAP2 SUB SWAP1 REVERT JUMPDEST PUSH2 0xEF3 DUP5 DUP5 DUP5 DUP5 SUB PUSH0 PUSH2 0x1054 JUMP JUMPDEST POP POP POP POP JUMP JUMPDEST PUSH1 0x1 PUSH1 0x1 PUSH1 0xA0 SHL SUB DUP4 AND PUSH2 0xF22 JUMPI PUSH0 PUSH1 0x40 MLOAD PUSH4 0x4B637E8F PUSH1 0xE1 SHL DUP2 MSTORE PUSH1 0x4 ADD PUSH2 0xEDC SWAP2 SWAP1 PUSH2 0x1889 JUMP JUMPDEST PUSH1 0x1 PUSH1 0x1 PUSH1 0xA0 SHL SUB DUP3 AND PUSH2 0xF4B JUMPI PUSH0 PUSH1 0x40 MLOAD PUSH4 0xEC442F05 PUSH1 0xE0 SHL DUP2 MSTORE PUSH1 0x4 ADD PUSH2 0xEDC SWAP2 SWAP1 PUSH2 0x1889 JUMP JUMPDEST PUSH2 0xE9B DUP4 DUP4 DUP4 PUSH2 0x1126 JUMP JUMPDEST PUSH1 0x1 PUSH1 0x1 PUSH1 0xA0 SHL SUB DUP3 AND PUSH2 0xF7F JUMPI PUSH0 PUSH1 0x40 MLOAD PUSH4 0x4B637E8F PUSH1 0xE1 SHL DUP2 MSTORE PUSH1 0x4 ADD PUSH2 0xEDC SWAP2 SWAP1 PUSH2 0x1889 JUMP JUMPDEST PUSH2 0xDC0 DUP3 PUSH0 DUP4 PUSH2 0x1126 JUMP JUMPDEST PUSH0 PUSH2 0xF95 DUP4 DUP4 PUSH2 0x1239 JUMP JUMPDEST SWAP4 SWAP3 POP POP POP JUMP JUMPDEST DUP3 SLOAD PUSH2 0xFBA SWAP1 DUP4 SWAP1 PUSH1 0x1 PUSH1 0xC0 SHL SWAP1 DIV PUSH1 0x1 PUSH1 0x1 PUSH1 0x40 SHL SUB AND DUP4 PUSH2 0xC16 JUMP JUMPDEST PUSH1 0x3 DUP5 ADD DUP1 SLOAD PUSH8 0xFFFFFFFFFFFFFFFF PUSH1 0x80 SHL NOT AND PUSH1 0x1 PUSH1 0x80 SHL PUSH1 0x1 PUSH1 0x1 PUSH1 0x40 SHL SUB SWAP4 DUP5 AND MUL OR SWAP1 SSTORE DUP4 SLOAD PUSH2 0xFFA SWAP2 DUP5 SWAP2 DUP5 SWAP2 PUSH1 0x1 PUSH1 0xC0 SHL SWAP1 SWAP2 DIV AND PUSH2 0xC16 JUMP JUMPDEST PUSH1 0x3 DUP5 ADD DUP1 SLOAD PUSH1 0x1 PUSH1 0x1 PUSH1 0xC0 SHL SUB AND PUSH1 0x1 PUSH1 0xC0 SHL PUSH1 0x1 PUSH1 0x1 PUSH1 0x40 SHL SUB SWAP4 DUP5 AND MUL OR SWAP1 DUP2 SWAP1 SSTORE PUSH1 0x1 PUSH1 0x80 SHL SWAP1 DIV AND ISZERO DUP1 ISZERO SWAP1 PUSH2 0x1048 JUMPI POP PUSH1 0x3 DUP4 ADD SLOAD PUSH1 0x1 PUSH1 0xC0 SHL SWAP1 DIV PUSH1 0x1 PUSH1 0x1 PUSH1 0x40 SHL SUB AND ISZERO ISZERO JUMPDEST PUSH2 0xE9B JUMPI PUSH2 0xE9B PUSH2 0x189D JUMP JUMPDEST PUSH1 0x1 PUSH1 0x1 PUSH1 0xA0 SHL SUB DUP5 AND PUSH2 0x107D JUMPI PUSH0 PUSH1 0x40 MLOAD PUSH4 0xE602DF05 PUSH1 0xE0 SHL DUP2 MSTORE PUSH1 0x4 ADD PUSH2 0xEDC SWAP2 SWAP1 PUSH2 0x1889 JUMP JUMPDEST PUSH1 0x1 PUSH1 0x1 PUSH1 0xA0 SHL SUB DUP4 AND PUSH2 0x10A6 JUMPI PUSH0 PUSH1 0x40 MLOAD PUSH4 0x4A1406B1 PUSH1 0xE1 SHL DUP2 MSTORE PUSH1 0x4 ADD PUSH2 0xEDC SWAP2 SWAP1 PUSH2 0x1889 JUMP JUMPDEST PUSH1 0x1 PUSH1 0x1 PUSH1 0xA0 SHL SUB DUP1 DUP6 AND PUSH0 SWAP1 DUP2 MSTORE PUSH1 0x1 PUSH1 0x20 SWAP1 DUP2 MSTORE PUSH1 0x40 DUP1 DUP4 KECCAK256 SWAP4 DUP8 AND DUP4 MSTORE SWAP3 SWAP1 MSTORE KECCAK256 DUP3 SWAP1 SSTORE DUP1 ISZERO PUSH2 0xEF3 JUMPI DUP3 PUSH1 0x1 PUSH1 0x1 PUSH1 0xA0 SHL SUB AND DUP5 PUSH1 0x1 PUSH1 0x1 PUSH1 0xA0 SHL SUB AND PUSH32 0x8C5BE1E5EBEC7D5BD14F71427D1E84F3DD0314C0F7B2291E5B200AC8C7C3B925 DUP5 PUSH1 0x40 MLOAD PUSH2 0x1118 SWAP2 DUP2 MSTORE PUSH1 0x20 ADD SWAP1 JUMP JUMPDEST PUSH1 0x40 MLOAD DUP1 SWAP2 SUB SWAP1 LOG3 POP POP POP POP JUMP JUMPDEST PUSH1 0x1 PUSH1 0x1 PUSH1 0xA0 SHL SUB DUP4 AND PUSH2 0x1150 JUMPI DUP1 PUSH1 0x2 PUSH0 DUP3 DUP3 SLOAD PUSH2 0x1145 SWAP2 SWAP1 PUSH2 0x18B1 JUMP JUMPDEST SWAP1 SWAP2 SSTORE POP PUSH2 0x11AD SWAP1 POP JUMP JUMPDEST PUSH1 0x1 PUSH1 0x1 PUSH1 0xA0 SHL SUB DUP4 AND PUSH0 SWAP1 DUP2 MSTORE PUSH1 0x20 DUP2 SWAP1 MSTORE PUSH1 0x40 SWAP1 KECCAK256 SLOAD DUP2 DUP2 LT ISZERO PUSH2 0x118F JUMPI DUP4 DUP2 DUP4 PUSH1 0x40 MLOAD PUSH4 0x391434E3 PUSH1 0xE2 SHL DUP2 MSTORE PUSH1 0x4 ADD PUSH2 0xEDC SWAP4 SWAP3 SWAP2 SWAP1 PUSH2 0x1868 JUMP JUMPDEST PUSH1 0x1 PUSH1 0x1 PUSH1 0xA0 SHL SUB DUP5 AND PUSH0 SWAP1 DUP2 MSTORE PUSH1 0x20 DUP2 SWAP1 MSTORE PUSH1 0x40 SWAP1 KECCAK256 SWAP1 DUP3 SWAP1 SUB SWAP1 SSTORE JUMPDEST PUSH1 0x1 PUSH1 0x1 PUSH1 0xA0 SHL SUB DUP3 AND PUSH2 0x11C9 JUMPI PUSH1 0x2 DUP1 SLOAD DUP3 SWAP1 SUB SWAP1 SSTORE PUSH2 0x11E7 JUMP JUMPDEST PUSH1 0x1 PUSH1 0x1 PUSH1 0xA0 SHL SUB DUP3 AND PUSH0 SWAP1 DUP2 MSTORE PUSH1 0x20 DUP2 SWAP1 MSTORE PUSH1 0x40 SWAP1 KECCAK256 DUP1 SLOAD DUP3 ADD SWAP1 SSTORE JUMPDEST DUP2 PUSH1 0x1 PUSH1 0x1 PUSH1 0xA0 SHL SUB AND DUP4 PUSH1 0x1 PUSH1 0x1 PUSH1 0xA0 SHL SUB AND PUSH32 0xDDF252AD1BE2C89B69C2B068FC378DAA952BA7F163C4A11628F55A4DF523B3EF DUP4 PUSH1 0x40 MLOAD PUSH2 0x122C SWAP2 DUP2 MSTORE PUSH1 0x20 ADD SWAP1 JUMP JUMPDEST PUSH1 0x40 MLOAD DUP1 SWAP2 SUB SWAP1 LOG3 POP POP POP JUMP JUMPDEST PUSH1 0x1 DUP3 ADD SLOAD DUP3 SLOAD PUSH0 SWAP2 PUSH2 0x1266 SWAP2 DUP5 SWAP2 PUSH1 0x1 PUSH1 0x1 PUSH1 0x40 SHL SUB PUSH1 0x1 PUSH1 0xC0 SHL SWAP2 DUP3 SWAP1 DIV DUP2 AND SWAP3 SWAP2 SWAP1 SWAP2 DIV AND PUSH2 0xC16 JUMP JUMPDEST PUSH1 0x4 DUP5 ADD DUP1 SLOAD PUSH1 0x1 PUSH1 0x1 PUSH1 0x40 SHL SUB SWAP3 SWAP1 SWAP3 AND PUSH8 0xFFFFFFFFFFFFFFFF NOT SWAP1 SWAP3 AND DUP3 OR SWAP1 SSTORE SWAP1 POP SWAP3 SWAP2 POP POP JUMP JUMPDEST PUSH1 0x40 MLOAD DUP1 PUSH2 0x1A0 ADD PUSH1 0x40 MSTORE DUP1 PUSH2 0x12A5 PUSH2 0x1308 JUMP JUMPDEST DUP2 MSTORE PUSH1 0x20 ADD PUSH2 0x12B2 PUSH2 0x1308 JUMP JUMPDEST DUP2 MSTORE PUSH0 PUSH1 0x20 DUP3 ADD DUP2 SWAP1 MSTORE PUSH1 0x40 DUP3 ADD DUP2 SWAP1 MSTORE PUSH1 0x60 DUP3 ADD DUP2 SWAP1 MSTORE PUSH1 0x80 DUP3 ADD DUP2 SWAP1 MSTORE PUSH1 0xA0 DUP3 ADD DUP2 SWAP1 MSTORE PUSH1 0xC0 DUP3 ADD DUP2 SWAP1 MSTORE PUSH1 0xE0 DUP3 ADD DUP2 SWAP1 MSTORE PUSH2 0x100 DUP3 ADD DUP2 SWAP1 MSTORE PUSH2 0x120 DUP3 ADD DUP2 SWAP1 MSTORE PUSH2 0x140 DUP3 ADD DUP2 SWAP1 MSTORE PUSH2 0x160 SWAP1 SWAP2 ADD MSTORE SWAP1 JUMP JUMPDEST PUSH1 0x40 DUP1 MLOAD PUSH2 0x240 DUP2 ADD DUP3 MSTORE PUSH0 DUP1 DUP3 MSTORE PUSH1 0x20 DUP3 ADD DUP2 SWAP1 MSTORE SWAP2 DUP2 ADD DUP3 SWAP1 MSTORE PUSH1 0x60 DUP2 ADD DUP3 SWAP1 MSTORE PUSH1 0x80 DUP2 ADD DUP3 SWAP1 MSTORE PUSH1 0xA0 DUP2 ADD DUP3 SWAP1 MSTORE PUSH1 0xC0 DUP2 ADD DUP3 SWAP1 MSTORE PUSH1 0xE0 DUP2 ADD DUP3 SWAP1 MSTORE PUSH2 0x100 DUP2 ADD DUP3 SWAP1 MSTORE PUSH2 0x120 DUP2 ADD DUP3 SWAP1 MSTORE PUSH2 0x140 DUP2 ADD DUP3 SWAP1 MSTORE PUSH2 0x160 DUP2 ADD DUP3 SWAP1 MSTORE PUSH2 0x180 DUP2 ADD DUP3 SWAP1 MSTORE PUSH2 0x1A0 DUP2 ADD DUP3 SWAP1 MSTORE PUSH2 0x1C0 DUP2 ADD DUP3 SWAP1 MSTORE PUSH2 0x1E0 DUP2 ADD DUP3 SWAP1 MSTORE PUSH2 0x200 DUP2 ADD DUP3 SWAP1 MSTORE PUSH2 0x220 DUP2 ADD SWAP2 SWAP1 SWAP2 MSTORE SWAP1 JUMP JUMPDEST PUSH1 0x20 DUP2 MSTORE PUSH0 DUP3 MLOAD DUP1 PUSH1 0x20 DUP5 ADD MSTORE DUP1 PUSH1 0x20 DUP6 ADD PUSH1 0x40 DUP6 ADD MCOPY PUSH0 PUSH1 0x40 DUP3 DUP6 ADD ADD MSTORE PUSH1 0x40 PUSH1 0x1F NOT PUSH1 0x1F DUP4 ADD AND DUP5 ADD ADD SWAP2 POP POP SWAP3 SWAP2 POP POP JUMP JUMPDEST DUP1 CALLDATALOAD PUSH1 0x1 PUSH1 0x1 PUSH1 0xA0 SHL SUB DUP2 AND DUP2 EQ PUSH2 0x13E6 JUMPI PUSH0 PUSH0 REVERT JUMPDEST SWAP2 SWAP1 POP JUMP JUMPDEST PUSH0 PUSH0 PUSH1 0x40 DUP4 DUP6 SUB SLT ISZERO PUSH2 0x13FC JUMPI PUSH0 PUSH0 REVERT JUMPDEST PUSH2 0x1405 DUP4 PUSH2 0x13D0 JUMP JUMPDEST SWAP5 PUSH1 0x20 SWAP4 SWAP1 SWAP4 ADD CALLDATALOAD SWAP4 POP POP POP JUMP JUMPDEST DUP1 MLOAD PUSH1 0x1 PUSH1 0x1 PUSH1 0x40 SHL SUB AND DUP3 MSTORE PUSH1 0x20 DUP2 ADD MLOAD PUSH2 0x143A PUSH1 0x20 DUP5 ADD DUP3 PUSH1 0x1 PUSH1 0x1 PUSH1 0x40 SHL SUB AND SWAP1 MSTORE JUMP JUMPDEST POP PUSH1 0x40 DUP2 ADD MLOAD PUSH2 0x1455 PUSH1 0x40 DUP5 ADD DUP3 PUSH1 0x1 PUSH1 0x1 PUSH1 0x40 SHL SUB AND SWAP1 MSTORE JUMP JUMPDEST POP PUSH1 0x60 DUP2 ADD MLOAD PUSH2 0x1470 PUSH1 0x60 DUP5 ADD DUP3 PUSH1 0x1 PUSH1 0x1 PUSH1 0x40 SHL SUB AND SWAP1 MSTORE JUMP JUMPDEST POP PUSH1 0x80 DUP2 ADD MLOAD PUSH2 0x148B PUSH1 0x80 DUP5 ADD DUP3 PUSH1 0x1 PUSH1 0x1 PUSH1 0x40 SHL SUB AND SWAP1 MSTORE JUMP JUMPDEST POP PUSH1 0xA0 DUP2 ADD MLOAD PUSH2 0x14A6 PUSH1 0xA0 DUP5 ADD DUP3 PUSH1 0x1 PUSH1 0x1 PUSH1 0x40 SHL SUB AND SWAP1 MSTORE JUMP JUMPDEST POP PUSH1 0xC0 DUP2 ADD MLOAD PUSH2 0x14C1 PUSH1 0xC0 DUP5 ADD DUP3 PUSH1 0x1 PUSH1 0x1 PUSH1 0x40 SHL SUB AND SWAP1 MSTORE JUMP JUMPDEST POP PUSH1 0xE0 DUP2 ADD MLOAD PUSH2 0x14DC PUSH1 0xE0 DUP5 ADD DUP3 PUSH1 0x1 PUSH1 0x1 PUSH1 0x40 SHL SUB AND SWAP1 MSTORE JUMP JUMPDEST POP PUSH2 0x100 DUP2 ADD MLOAD PUSH2 0x14F9 PUSH2 0x100 DUP5 ADD DUP3 PUSH1 0x1 PUSH1 0x1 PUSH1 0x40 SHL SUB AND SWAP1 MSTORE JUMP JUMPDEST POP PUSH2 0x120 DUP2 ADD MLOAD PUSH2 0x1516 PUSH2 0x120 DUP5 ADD DUP3 PUSH1 0x1 PUSH1 0x1 PUSH1 0x40 SHL SUB AND SWAP1 MSTORE JUMP JUMPDEST POP PUSH2 0x140 DUP2 ADD MLOAD PUSH2 0x1533 PUSH2 0x140 DUP5 ADD DUP3 PUSH1 0x1 PUSH1 0x1 PUSH1 0x40 SHL SUB AND SWAP1 MSTORE JUMP JUMPDEST POP PUSH2 0x160 DUP2 ADD MLOAD PUSH2 0x1550 PUSH2 0x160 DUP5 ADD DUP3 PUSH1 0x1 PUSH1 0x1 PUSH1 0x40 SHL SUB AND SWAP1 MSTORE JUMP JUMPDEST POP PUSH2 0x180 DUP2 ADD MLOAD PUSH2 0x156D PUSH2 0x180 DUP5 ADD DUP3 PUSH1 0x1 PUSH1 0x1 PUSH1 0x40 SHL SUB AND SWAP1 MSTORE JUMP JUMPDEST POP PUSH2 0x1A0 DUP2 ADD MLOAD PUSH2 0x158A PUSH2 0x1A0 DUP5 ADD DUP3 PUSH1 0x1 PUSH1 0x1 PUSH1 0x40 SHL SUB AND SWAP1 MSTORE JUMP JUMPDEST POP PUSH2 0x1C0 DUP2 ADD MLOAD PUSH2 0x15A7 PUSH2 0x1C0 DUP5 ADD DUP3 PUSH1 0x1 PUSH1 0x1 PUSH1 0x40 SHL SUB AND SWAP1 MSTORE JUMP JUMPDEST POP PUSH2 0x1E0 DUP2 ADD MLOAD PUSH2 0x15C4 PUSH2 0x1E0 DUP5 ADD DUP3 PUSH1 0x1 PUSH1 0x1 PUSH1 0x40 SHL SUB AND SWAP1 MSTORE JUMP JUMPDEST POP PUSH2 0x200 DUP2 ADD MLOAD PUSH2 0x15E1 PUSH2 0x200 DUP5 ADD DUP3 PUSH1 0x1 PUSH1 0x1 PUSH1 0x40 SHL SUB AND SWAP1 MSTORE JUMP JUMPDEST POP PUSH2 0x220 DUP2 ADD MLOAD PUSH2 0xE9B PUSH2 0x220 DUP5 ADD DUP3 PUSH1 0xFF AND SWAP1 MSTORE JUMP JUMPDEST PUSH0 PUSH2 0x5E0 DUP3 ADD SWAP1 POP PUSH2 0x160B DUP3 DUP5 MLOAD PUSH2 0x1413 JUMP JUMPDEST PUSH1 0x20 DUP4 ADD MLOAD PUSH2 0x161E PUSH2 0x240 DUP5 ADD DUP3 PUSH2 0x1413 JUMP JUMPDEST POP PUSH1 0x40 DUP4 ADD MLOAD PUSH1 0x1 PUSH1 0x1 PUSH1 0x40 SHL SUB SWAP1 DUP2 AND PUSH2 0x480 DUP5 ADD MSTORE PUSH1 0x60 DUP5 ADD MLOAD DUP2 AND PUSH2 0x4A0 DUP5 ADD MSTORE PUSH1 0x80 DUP5 ADD MLOAD DUP2 AND PUSH2 0x4C0 DUP5 ADD MSTORE PUSH1 0xA0 DUP5 ADD MLOAD DUP2 AND PUSH2 0x4E0 DUP5 ADD MSTORE PUSH1 0xC0 DUP5 ADD MLOAD DUP2 AND PUSH2 0x500 DUP5 ADD MSTORE PUSH1 0xE0 DUP5 ADD MLOAD DUP2 AND PUSH2 0x520 DUP5 ADD MSTORE PUSH2 0x100 DUP5 ADD MLOAD DUP2 AND PUSH2 0x540 DUP5 ADD MSTORE PUSH2 0x120 DUP5 ADD MLOAD DUP2 AND PUSH2 0x560 DUP5 ADD MSTORE PUSH2 0x140 DUP5 ADD MLOAD DUP2 AND PUSH2 0x580 DUP5 ADD MSTORE PUSH2 0x160 DUP5 ADD MLOAD AND PUSH2 0x5A0 DUP4 ADD MSTORE PUSH2 0x180 SWAP1 SWAP3 ADD MLOAD PUSH1 0xFF AND PUSH2 0x5C0 SWAP1 SWAP2 ADD MSTORE SWAP1 JUMP JUMPDEST PUSH0 PUSH0 PUSH0 PUSH1 0x60 DUP5 DUP7 SUB SLT ISZERO PUSH2 0x16D3 JUMPI PUSH0 PUSH0 REVERT JUMPDEST PUSH2 0x16DC DUP5 PUSH2 0x13D0 JUMP JUMPDEST SWAP3 POP PUSH2 0x16EA PUSH1 0x20 DUP6 ADD PUSH2 0x13D0 JUMP JUMPDEST SWAP3 SWAP6 SWAP3 SWAP5 POP POP POP PUSH1 0x40 SWAP2 SWAP1 SWAP2 ADD CALLDATALOAD SWAP1 JUMP JUMPDEST PUSH0 PUSH0 PUSH0 PUSH1 0x60 DUP5 DUP7 SUB SLT ISZERO PUSH2 0x170D JUMPI PUSH0 PUSH0 REVERT JUMPDEST POP POP DUP2 CALLDATALOAD SWAP4 PUSH1 0x20 DUP4 ADD CALLDATALOAD SWAP4 POP PUSH1 0x40 SWAP1 SWAP3 ADD CALLDATALOAD SWAP2 SWAP1 POP JUMP JUMPDEST PUSH0 PUSH1 0x20 DUP3 DUP5 SUB SLT ISZERO PUSH2 0x1734 JUMPI PUSH0 PUSH0 REVERT JUMPDEST POP CALLDATALOAD SWAP2 SWAP1 POP JUMP JUMPDEST DUP1 CALLDATALOAD PUSH1 0x1 PUSH1 0x1 PUSH1 0x40 SHL SUB DUP2 AND DUP2 EQ PUSH2 0x13E6 JUMPI PUSH0 PUSH0 REVERT JUMPDEST PUSH0 PUSH0 PUSH0 PUSH1 0x60 DUP5 DUP7 SUB SLT ISZERO PUSH2 0x1763 JUMPI PUSH0 PUSH0 REVERT JUMPDEST PUSH2 0x176C DUP5 PUSH2 0x173B JUMP JUMPDEST SWAP3 POP PUSH2 0x177A PUSH1 0x20 DUP6 ADD PUSH2 0x173B JUMP JUMPDEST SWAP2 POP PUSH2 0x1788 PUSH1 0x40 DUP6 ADD PUSH2 0x173B JUMP JUMPDEST SWAP1 POP SWAP3 POP SWAP3 POP SWAP3 JUMP JUMPDEST PUSH0 PUSH1 0x20 DUP3 DUP5 SUB SLT ISZERO PUSH2 0x17A1 JUMPI PUSH0 PUSH0 REVERT JUMPDEST PUSH2 0xF95 DUP3 PUSH2 0x13D0 JUMP JUMPDEST PUSH0 PUSH0 PUSH1 0x40 DUP4 DUP6 SUB SLT ISZERO PUSH2 0x17BB JUMPI PUSH0 PUSH0 REVERT JUMPDEST PUSH2 0x17C4 DUP4 PUSH2 0x13D0 JUMP JUMPDEST SWAP2 POP PUSH2 0x17D2 PUSH1 0x20 DUP5 ADD PUSH2 0x13D0 JUMP JUMPDEST SWAP1 POP SWAP3 POP SWAP3 SWAP1 POP JUMP JUMPDEST PUSH1 0x1 DUP2 DUP2 SHR SWAP1 DUP3 AND DUP1 PUSH2 0x17EF JUMPI PUSH1 0x7F DUP3 AND SWAP2 POP JUMPDEST PUSH1 0x20 DUP3 LT DUP2 SUB PUSH2 0x180D JUMPI PUSH4 0x4E487B71 PUSH1 0xE0 SHL PUSH0 MSTORE PUSH1 0x22 PUSH1 0x4 MSTORE PUSH1 0x24 PUSH0 REVERT JUMPDEST POP SWAP2 SWAP1 POP JUMP JUMPDEST PUSH4 0x4E487B71 PUSH1 0xE0 SHL PUSH0 MSTORE PUSH1 0x12 PUSH1 0x4 MSTORE PUSH1 0x24 PUSH0 REVERT JUMPDEST PUSH0 DUP3 PUSH2 0x1835 JUMPI PUSH2 0x1835 PUSH2 0x1813 JUMP JUMPDEST POP MOD SWAP1 JUMP JUMPDEST PUSH0 PUSH1 0x1 PUSH1 0x1 PUSH1 0xA0 SHL SUB DUP4 AND DUP1 PUSH2 0x1852 JUMPI PUSH2 0x1852 PUSH2 0x1813 JUMP JUMPDEST PUSH1 0x1 PUSH1 0x1 PUSH1 0xA0 SHL SUB SWAP3 SWAP1 SWAP3 AND SWAP2 SWAP1 SWAP2 DIV SWAP3 SWAP2 POP POP JUMP JUMPDEST PUSH1 0x1 PUSH1 0x1 PUSH1 0xA0 SHL SUB SWAP4 SWAP1 SWAP4 AND DUP4 MSTORE PUSH1 0x20 DUP4 ADD SWAP2 SWAP1 SWAP2 MSTORE PUSH1 0x40 DUP3 ADD MSTORE PUSH1 0x60 ADD SWAP1 JUMP JUMPDEST PUSH1 0x1 PUSH1 0x1 PUSH1 0xA0 SHL SUB SWAP2 SWAP1 SWAP2 AND DUP2 MSTORE PUSH1 0x20 ADD SWAP1 JUMP JUMPDEST PUSH4 0x4E487B71 PUSH1 0xE0 SHL PUSH0 MSTORE PUSH1 0x1 PUSH1 0x4 MSTORE PUSH1 0x24 PUSH0 REVERT JUMPDEST DUP1 DUP3 ADD DUP1 DUP3 GT ISZERO PUSH2 0x2FE JUMPI PUSH4 0x4E487B71 PUSH1 0xE0 SHL PUSH0 MSTORE PUSH1 0x11 PUSH1 0x4 MSTORE PUSH1 0x24 PUSH0 REVERT INVALID LOG2 PUSH5 0x6970667358 0x22 SLT KECCAK256 PUSH19 0x5792D724027208497110626C83BB9F0C672002 0xB7 0xFB PUSH26 0x6B7931C788AA027F9A64736F6C634300081B0033000000000000 "
				},
				"gasEstimates": {
					"creation": {
						"codeDepositCost": "1281200",
						"executionCost": "infinite",
						"totalCost": "infinite"
					},
					"external": {
						"MotzkinPrime()": "347",
						"Random()": "infinite",
						"View()": "infinite",
						"allowance(address,address)": "infinite",
						"approve(address,uint256)": "24734",
						"balanceOf(address)": "2581",
						"burn(uint256)": "51071",
						"burnFrom(address,uint256)": "infinite",
						"decimals()": "287",
						"hashWith(address,address)": "infinite",
						"modExp(uint256,uint256,uint256)": "infinite",
						"modExp64(uint64,uint64,uint64)": "infinite",
						"name()": "infinite",
						"symbol()": "infinite",
						"totalSupply()": "2347",
						"transfer(address,uint256)": "51325",
						"transferFrom(address,address,uint256)": "infinite"
					},
					"internal": {
						"Amplify(struct Fa storage pointer,uint64)": "infinite",
						"React(struct Fa storage pointer,uint64,uint64)": "infinite",
						"Sustain(struct Fa storage pointer,uint64)": "infinite",
						"Torque(struct Fa storage pointer,uint64)": "infinite"
					}
				},
				"methodIdentifiers": {
					"MotzkinPrime()": "d3dc2a0f",
					"Random()": "604a6fa9",
					"View()": "1686f265",
					"allowance(address,address)": "dd62ed3e",
					"approve(address,uint256)": "095ea7b3",
					"balanceOf(address)": "70a08231",
					"burn(uint256)": "42966c68",
					"burnFrom(address,uint256)": "79cc6790",
					"decimals()": "313ce567",
					"hashWith(address,address)": "fa6bcfec",
					"modExp(uint256,uint256,uint256)": "3148f14f",
					"modExp64(uint64,uint64,uint64)": "53df6e35",
					"name()": "06fdde03",
					"symbol()": "95d89b41",
					"totalSupply()": "18160ddd",
					"transfer(address,uint256)": "a9059cbb",
					"transferFrom(address,address,uint256)": "23b872dd"
				}
			},
			"storageLayout": {
				"storage": [
					{
						"astId": 159,
						"contract": "solidity/dysnomia/00b_vmreq.sol:VMREQ",
						"label": "_balances",
						"offset": 0,
						"slot": "0",
						"type": "t_mapping(t_address,t_uint256)"
					},
					{
						"astId": 165,
						"contract": "solidity/dysnomia/00b_vmreq.sol:VMREQ",
						"label": "_allowances",
						"offset": 0,
						"slot": "1",
						"type": "t_mapping(t_address,t_mapping(t_address,t_uint256))"
					},
					{
						"astId": 167,
						"contract": "solidity/dysnomia/00b_vmreq.sol:VMREQ",
						"label": "_totalSupply",
						"offset": 0,
						"slot": "2",
						"type": "t_uint256"
					},
					{
						"astId": 169,
						"contract": "solidity/dysnomia/00b_vmreq.sol:VMREQ",
						"label": "_name",
						"offset": 0,
						"slot": "3",
						"type": "t_string_storage"
					},
					{
						"astId": 171,
						"contract": "solidity/dysnomia/00b_vmreq.sol:VMREQ",
						"label": "_symbol",
						"offset": 0,
						"slot": "4",
						"type": "t_string_storage"
					},
					{
						"astId": 1467,
						"contract": "solidity/dysnomia/00b_vmreq.sol:VMREQ",
						"label": "Mu",
						"offset": 0,
						"slot": "5",
						"type": "t_struct(Faung)2225_storage"
					}
				],
				"types": {
					"t_address": {
						"encoding": "inplace",
						"label": "address",
						"numberOfBytes": "20"
					},
					"t_mapping(t_address,t_mapping(t_address,t_uint256))": {
						"encoding": "mapping",
						"key": "t_address",
						"label": "mapping(address => mapping(address => uint256))",
						"numberOfBytes": "32",
						"value": "t_mapping(t_address,t_uint256)"
					},
					"t_mapping(t_address,t_uint256)": {
						"encoding": "mapping",
						"key": "t_address",
						"label": "mapping(address => uint256)",
						"numberOfBytes": "32",
						"value": "t_uint256"
					},
					"t_string_storage": {
						"encoding": "bytes",
						"label": "string",
						"numberOfBytes": "32"
					},
					"t_struct(Fa)2193_storage": {
						"encoding": "inplace",
						"label": "struct Fa",
						"members": [
							{
								"astId": 2158,
								"contract": "solidity/dysnomia/00b_vmreq.sol:VMREQ",
								"label": "Base",
								"offset": 0,
								"slot": "0",
								"type": "t_uint64"
							},
							{
								"astId": 2160,
								"contract": "solidity/dysnomia/00b_vmreq.sol:VMREQ",
								"label": "Secret",
								"offset": 8,
								"slot": "0",
								"type": "t_uint64"
							},
							{
								"astId": 2162,
								"contract": "solidity/dysnomia/00b_vmreq.sol:VMREQ",
								"label": "Signal",
								"offset": 16,
								"slot": "0",
								"type": "t_uint64"
							},
							{
								"astId": 2164,
								"contract": "solidity/dysnomia/00b_vmreq.sol:VMREQ",
								"label": "Channel",
								"offset": 24,
								"slot": "0",
								"type": "t_uint64"
							},
							{
								"astId": 2166,
								"contract": "solidity/dysnomia/00b_vmreq.sol:VMREQ",
								"label": "Pole",
								"offset": 0,
								"slot": "1",
								"type": "t_uint64"
							},
							{
								"astId": 2168,
								"contract": "solidity/dysnomia/00b_vmreq.sol:VMREQ",
								"label": "Identity",
								"offset": 8,
								"slot": "1",
								"type": "t_uint64"
							},
							{
								"astId": 2170,
								"contract": "solidity/dysnomia/00b_vmreq.sol:VMREQ",
								"label": "Foundation",
								"offset": 16,
								"slot": "1",
								"type": "t_uint64"
							},
							{
								"astId": 2172,
								"contract": "solidity/dysnomia/00b_vmreq.sol:VMREQ",
								"label": "Element",
								"offset": 24,
								"slot": "1",
								"type": "t_uint64"
							},
							{
								"astId": 2174,
								"contract": "solidity/dysnomia/00b_vmreq.sol:VMREQ",
								"label": "Dynamo",
								"offset": 0,
								"slot": "2",
								"type": "t_uint64"
							},
							{
								"astId": 2176,
								"contract": "solidity/dysnomia/00b_vmreq.sol:VMREQ",
								"label": "Manifold",
								"offset": 8,
								"slot": "2",
								"type": "t_uint64"
							},
							{
								"astId": 2178,
								"contract": "solidity/dysnomia/00b_vmreq.sol:VMREQ",
								"label": "Ring",
								"offset": 16,
								"slot": "2",
								"type": "t_uint64"
							},
							{
								"astId": 2180,
								"contract": "solidity/dysnomia/00b_vmreq.sol:VMREQ",
								"label": "Barn",
								"offset": 24,
								"slot": "2",
								"type": "t_uint64"
							},
							{
								"astId": 2182,
								"contract": "solidity/dysnomia/00b_vmreq.sol:VMREQ",
								"label": "Coordinate",
								"offset": 0,
								"slot": "3",
								"type": "t_uint64"
							},
							{
								"astId": 2184,
								"contract": "solidity/dysnomia/00b_vmreq.sol:VMREQ",
								"label": "Tau",
								"offset": 8,
								"slot": "3",
								"type": "t_uint64"
							},
							{
								"astId": 2186,
								"contract": "solidity/dysnomia/00b_vmreq.sol:VMREQ",
								"label": "Eta",
								"offset": 16,
								"slot": "3",
								"type": "t_uint64"
							},
							{
								"astId": 2188,
								"contract": "solidity/dysnomia/00b_vmreq.sol:VMREQ",
								"label": "Kappa",
								"offset": 24,
								"slot": "3",
								"type": "t_uint64"
							},
							{
								"astId": 2190,
								"contract": "solidity/dysnomia/00b_vmreq.sol:VMREQ",
								"label": "Alpha",
								"offset": 0,
								"slot": "4",
								"type": "t_uint64"
							},
							{
								"astId": 2192,
								"contract": "solidity/dysnomia/00b_vmreq.sol:VMREQ",
								"label": "Nu",
								"offset": 8,
								"slot": "4",
								"type": "t_uint8"
							}
						],
						"numberOfBytes": "160"
					},
					"t_struct(Faung)2225_storage": {
						"encoding": "inplace",
						"label": "struct Faung",
						"members": [
							{
								"astId": 2199,
								"contract": "solidity/dysnomia/00b_vmreq.sol:VMREQ",
								"label": "Rod",
								"offset": 0,
								"slot": "0",
								"type": "t_struct(Fa)2193_storage"
							},
							{
								"astId": 2202,
								"contract": "solidity/dysnomia/00b_vmreq.sol:VMREQ",
								"label": "Cone",
								"offset": 0,
								"slot": "5",
								"type": "t_struct(Fa)2193_storage"
							},
							{
								"astId": 2204,
								"contract": "solidity/dysnomia/00b_vmreq.sol:VMREQ",
								"label": "Phi",
								"offset": 0,
								"slot": "10",
								"type": "t_uint64"
							},
							{
								"astId": 2206,
								"contract": "solidity/dysnomia/00b_vmreq.sol:VMREQ",
								"label": "Eta",
								"offset": 8,
								"slot": "10",
								"type": "t_uint64"
							},
							{
								"astId": 2208,
								"contract": "solidity/dysnomia/00b_vmreq.sol:VMREQ",
								"label": "Xi",
								"offset": 16,
								"slot": "10",
								"type": "t_uint64"
							},
							{
								"astId": 2210,
								"contract": "solidity/dysnomia/00b_vmreq.sol:VMREQ",
								"label": "Sigma",
								"offset": 24,
								"slot": "10",
								"type": "t_uint64"
							},
							{
								"astId": 2212,
								"contract": "solidity/dysnomia/00b_vmreq.sol:VMREQ",
								"label": "Rho",
								"offset": 0,
								"slot": "11",
								"type": "t_uint64"
							},
							{
								"astId": 2214,
								"contract": "solidity/dysnomia/00b_vmreq.sol:VMREQ",
								"label": "Upsilon",
								"offset": 8,
								"slot": "11",
								"type": "t_uint64"
							},
							{
								"astId": 2216,
								"contract": "solidity/dysnomia/00b_vmreq.sol:VMREQ",
								"label": "Ohm",
								"offset": 16,
								"slot": "11",
								"type": "t_uint64"
							},
							{
								"astId": 2218,
								"contract": "solidity/dysnomia/00b_vmreq.sol:VMREQ",
								"label": "Pi",
								"offset": 24,
								"slot": "11",
								"type": "t_uint64"
							},
							{
								"astId": 2220,
								"contract": "solidity/dysnomia/00b_vmreq.sol:VMREQ",
								"label": "Omicron",
								"offset": 0,
								"slot": "12",
								"type": "t_uint64"
							},
							{
								"astId": 2222,
								"contract": "solidity/dysnomia/00b_vmreq.sol:VMREQ",
								"label": "Omega",
								"offset": 8,
								"slot": "12",
								"type": "t_uint64"
							},
							{
								"astId": 2224,
								"contract": "solidity/dysnomia/00b_vmreq.sol:VMREQ",
								"label": "Chi",
								"offset": 16,
								"slot": "12",
								"type": "t_uint8"
							}
						],
						"numberOfBytes": "416"
					},
					"t_uint256": {
						"encoding": "inplace",
						"label": "uint256",
						"numberOfBytes": "32"
					},
					"t_uint64": {
						"encoding": "inplace",
						"label": "uint64",
						"numberOfBytes": "8"
					},
					"t_uint8": {
						"encoding": "inplace",
						"label": "uint8",
						"numberOfBytes": "1"
					}
				}
			},
			"userdoc": {
				"kind": "user",
				"methods": {},
				"version": 1
			}
		}
	}
}