{
	"solidity/dysnomia/09_siu.sol": {
		"SIU": {
			"abi": [
				{
					"inputs": [
						{
							"internalType": "address",
							"name": "YangAddress",
							"type": "address"
						}
					],
					"stateMutability": "nonpayable",
					"type": "constructor"
				},
				{
					"inputs": [
						{
							"internalType": "address",
							"name": "origin",
							"type": "address"
						},
						{
							"internalType": "address",
							"name": "sender",
							"type": "address"
						},
						{
							"internalType": "address",
							"name": "owner",
							"type": "address"
						},
						{
							"internalType": "address",
							"name": "spender",
							"type": "address"
						},
						{
							"internalType": "address",
							"name": "what",
							"type": "address"
						},
						{
							"internalType": "uint256",
							"name": "allowance",
							"type": "uint256"
						},
						{
							"internalType": "uint256",
							"name": "needed",
							"type": "uint256"
						}
					],
					"name": "DysnomiaInsufficientAllowance",
					"type": "error"
				},
				{
					"inputs": [
						{
							"internalType": "address",
							"name": "origin",
							"type": "address"
						},
						{
							"internalType": "address",
							"name": "sender",
							"type": "address"
						},
						{
							"internalType": "address",
							"name": "from",
							"type": "address"
						},
						{
							"internalType": "address",
							"name": "to",
							"type": "address"
						},
						{
							"internalType": "address",
							"name": "what",
							"type": "address"
						},
						{
							"internalType": "uint256",
							"name": "balance",
							"type": "uint256"
						},
						{
							"internalType": "uint256",
							"name": "needed",
							"type": "uint256"
						}
					],
					"name": "DysnomiaInsufficientBalance",
					"type": "error"
				},
				{
					"inputs": [
						{
							"internalType": "address",
							"name": "asset",
							"type": "address"
						}
					],
					"name": "MarketRateNotFound",
					"type": "error"
				},
				{
					"inputs": [
						{
							"internalType": "address",
							"name": "origin",
							"type": "address"
						},
						{
							"internalType": "address",
							"name": "owner",
							"type": "address"
						},
						{
							"internalType": "address",
							"name": "what",
							"type": "address"
						}
					],
					"name": "OwnableInvalidOwner",
					"type": "error"
				},
				{
					"inputs": [
						{
							"internalType": "address",
							"name": "origin",
							"type": "address"
						},
						{
							"internalType": "address",
							"name": "account",
							"type": "address"
						},
						{
							"internalType": "address",
							"name": "what",
							"type": "address"
						}
					],
					"name": "OwnableUnauthorizedAccount",
					"type": "error"
				},
				{
					"anonymous": false,
					"inputs": [
						{
							"indexed": true,
							"internalType": "address",
							"name": "owner",
							"type": "address"
						},
						{
							"indexed": true,
							"internalType": "address",
							"name": "spender",
							"type": "address"
						},
						{
							"indexed": false,
							"internalType": "uint256",
							"name": "value",
							"type": "uint256"
						}
					],
					"name": "Approval",
					"type": "event"
				},
				{
					"anonymous": false,
					"inputs": [
						{
							"indexed": true,
							"internalType": "address",
							"name": "newOwner",
							"type": "address"
						},
						{
							"indexed": true,
							"internalType": "bool",
							"name": "state",
							"type": "bool"
						}
					],
					"name": "OwnershipUpdate",
					"type": "event"
				},
				{
					"anonymous": false,
					"inputs": [
						{
							"indexed": true,
							"internalType": "address",
							"name": "from",
							"type": "address"
						},
						{
							"indexed": true,
							"internalType": "address",
							"name": "to",
							"type": "address"
						},
						{
							"indexed": false,
							"internalType": "uint256",
							"name": "value",
							"type": "uint256"
						}
					],
					"name": "Transfer",
					"type": "event"
				},
				{
					"inputs": [],
					"name": "Aura",
					"outputs": [
						{
							"internalType": "uint64",
							"name": "",
							"type": "uint64"
						}
					],
					"stateMutability": "view",
					"type": "function"
				},
				{
					"inputs": [
						{
							"internalType": "address",
							"name": "_a",
							"type": "address"
						}
					],
					"name": "GetMarketRate",
					"outputs": [
						{
							"internalType": "uint256",
							"name": "",
							"type": "uint256"
						}
					],
					"stateMutability": "view",
					"type": "function"
				},
				{
					"inputs": [
						{
							"internalType": "string",
							"name": "name",
							"type": "string"
						},
						{
							"internalType": "string",
							"name": "symbol",
							"type": "string"
						}
					],
					"name": "Miu",
					"outputs": [
						{
							"internalType": "uint64[3]",
							"name": "Saat",
							"type": "uint64[3]"
						},
						{
							"components": [
								{
									"internalType": "address",
									"name": "Phi",
									"type": "address"
								},
								{
									"internalType": "contract SHA",
									"name": "Mu",
									"type": "address"
								},
								{
									"internalType": "uint64",
									"name": "Xi",
									"type": "uint64"
								},
								{
									"internalType": "uint64",
									"name": "Pi",
									"type": "uint64"
								},
								{
									"internalType": "contract SHIO",
									"name": "Shio",
									"type": "address"
								},
								{
									"internalType": "uint64",
									"name": "Ring",
									"type": "uint64"
								},
								{
									"internalType": "uint64",
									"name": "Omicron",
									"type": "uint64"
								},
								{
									"internalType": "uint64",
									"name": "Omega",
									"type": "uint64"
								}
							],
							"internalType": "struct Bao",
							"name": "On",
							"type": "tuple"
						}
					],
					"stateMutability": "nonpayable",
					"type": "function"
				},
				{
					"inputs": [],
					"name": "MotzkinPrime",
					"outputs": [
						{
							"internalType": "uint64",
							"name": "",
							"type": "uint64"
						}
					],
					"stateMutability": "view",
					"type": "function"
				},
				{
					"inputs": [],
					"name": "Psi",
					"outputs": [
						{
							"internalType": "contract YANG",
							"name": "",
							"type": "address"
						}
					],
					"stateMutability": "view",
					"type": "function"
				},
				{
					"inputs": [
						{
							"internalType": "address",
							"name": "_t",
							"type": "address"
						},
						{
							"internalType": "uint256",
							"name": "_a",
							"type": "uint256"
						}
					],
					"name": "Purchase",
					"outputs": [],
					"stateMutability": "nonpayable",
					"type": "function"
				},
				{
					"inputs": [
						{
							"internalType": "address",
							"name": "_t",
							"type": "address"
						},
						{
							"internalType": "uint256",
							"name": "_a",
							"type": "uint256"
						}
					],
					"name": "Redeem",
					"outputs": [],
					"stateMutability": "nonpayable",
					"type": "function"
				},
				{
					"inputs": [
						{
							"internalType": "string",
							"name": "newName",
							"type": "string"
						},
						{
							"internalType": "string",
							"name": "newSymbol",
							"type": "string"
						}
					],
					"name": "Rename",
					"outputs": [],
					"stateMutability": "nonpayable",
					"type": "function"
				},
				{
					"inputs": [],
					"name": "Type",
					"outputs": [
						{
							"internalType": "string",
							"name": "",
							"type": "string"
						}
					],
					"stateMutability": "view",
					"type": "function"
				},
				{
					"inputs": [],
					"name": "Xiao",
					"outputs": [
						{
							"internalType": "contract atropaMath",
							"name": "",
							"type": "address"
						}
					],
					"stateMutability": "view",
					"type": "function"
				},
				{
					"inputs": [
						{
							"internalType": "address",
							"name": "newOwner",
							"type": "address"
						}
					],
					"name": "addOwner",
					"outputs": [],
					"stateMutability": "nonpayable",
					"type": "function"
				},
				{
					"inputs": [
						{
							"internalType": "address",
							"name": "owner",
							"type": "address"
						},
						{
							"internalType": "address",
							"name": "spender",
							"type": "address"
						}
					],
					"name": "allowance",
					"outputs": [
						{
							"internalType": "uint256",
							"name": "",
							"type": "uint256"
						}
					],
					"stateMutability": "view",
					"type": "function"
				},
				{
					"inputs": [
						{
							"internalType": "address",
							"name": "spender",
							"type": "address"
						},
						{
							"internalType": "uint256",
							"name": "value",
							"type": "uint256"
						}
					],
					"name": "approve",
					"outputs": [
						{
							"internalType": "bool",
							"name": "",
							"type": "bool"
						}
					],
					"stateMutability": "nonpayable",
					"type": "function"
				},
				{
					"inputs": [
						{
							"internalType": "address",
							"name": "account",
							"type": "address"
						}
					],
					"name": "balanceOf",
					"outputs": [
						{
							"internalType": "uint256",
							"name": "",
							"type": "uint256"
						}
					],
					"stateMutability": "view",
					"type": "function"
				},
				{
					"inputs": [],
					"name": "decimals",
					"outputs": [
						{
							"internalType": "uint8",
							"name": "",
							"type": "uint8"
						}
					],
					"stateMutability": "view",
					"type": "function"
				},
				{
					"inputs": [],
					"name": "maxSupply",
					"outputs": [
						{
							"internalType": "uint256",
							"name": "",
							"type": "uint256"
						}
					],
					"stateMutability": "view",
					"type": "function"
				},
				{
					"inputs": [],
					"name": "mintToCap",
					"outputs": [],
					"stateMutability": "nonpayable",
					"type": "function"
				},
				{
					"inputs": [],
					"name": "name",
					"outputs": [
						{
							"internalType": "string",
							"name": "",
							"type": "string"
						}
					],
					"stateMutability": "view",
					"type": "function"
				},
				{
					"inputs": [
						{
							"internalType": "address",
							"name": "cOwner",
							"type": "address"
						}
					],
					"name": "owner",
					"outputs": [
						{
							"internalType": "bool",
							"name": "",
							"type": "bool"
						}
					],
					"stateMutability": "view",
					"type": "function"
				},
				{
					"inputs": [],
					"name": "owner",
					"outputs": [
						{
							"internalType": "address",
							"name": "",
							"type": "address"
						}
					],
					"stateMutability": "view",
					"type": "function"
				},
				{
					"inputs": [
						{
							"internalType": "address",
							"name": "toRemove",
							"type": "address"
						}
					],
					"name": "renounceOwnership",
					"outputs": [],
					"stateMutability": "nonpayable",
					"type": "function"
				},
				{
					"inputs": [],
					"name": "symbol",
					"outputs": [
						{
							"internalType": "string",
							"name": "",
							"type": "string"
						}
					],
					"stateMutability": "view",
					"type": "function"
				},
				{
					"inputs": [],
					"name": "totalSupply",
					"outputs": [
						{
							"internalType": "uint256",
							"name": "",
							"type": "uint256"
						}
					],
					"stateMutability": "view",
					"type": "function"
				},
				{
					"inputs": [
						{
							"internalType": "address",
							"name": "to",
							"type": "address"
						},
						{
							"internalType": "uint256",
							"name": "value",
							"type": "uint256"
						}
					],
					"name": "transfer",
					"outputs": [
						{
							"internalType": "bool",
							"name": "",
							"type": "bool"
						}
					],
					"stateMutability": "nonpayable",
					"type": "function"
				},
				{
					"inputs": [
						{
							"internalType": "address",
							"name": "from",
							"type": "address"
						},
						{
							"internalType": "address",
							"name": "to",
							"type": "address"
						},
						{
							"internalType": "uint256",
							"name": "value",
							"type": "uint256"
						}
					],
					"name": "transferFrom",
					"outputs": [
						{
							"internalType": "bool",
							"name": "",
							"type": "bool"
						}
					],
					"stateMutability": "nonpayable",
					"type": "function"
				}
			],
			"devdoc": {
				"kind": "dev",
				"methods": {},
				"version": 1
			},
			"evm": {
				"assembly": "    /* \"solidity/dysnomia/09_siu.sol\":134:1383  contract SIU is DYSNOMIA {... */\n  mstore(0x40, 0x80)\n    /* \"solidity/dysnomia/09_siu.sol\":229:655  constructor(address YangAddress) DYSNOMIA(unicode\"CHATLOG Siu\", unicode\"SIU\", address(DYSNOMIA(YangAddress).Xiao())) {... */\n  callvalue\n  dup1\n  iszero\n  tag_1\n  jumpi\n  revert(0x00, 0x00)\ntag_1:\n  pop\n  mload(0x40)\n  sub(codesize, bytecodeSize)\n  dup1\n  bytecodeSize\n  dup4\n  codecopy\n  dup2\n  add\n  0x40\n  dup2\n  swap1\n  mstore\n  tag_2\n  swap2\n  tag_3\n  jump\t// in\ntag_2:\n    /* \"solidity/dysnomia/01_dysnomia.sol\":952:1381  constructor(string memory name_, string memory symbol_, address mathContract) MultiOwnable(msg.sender) {... */\n  mload(0x40)\n  dup1\n  0x40\n  add\n  0x40\n  mstore\n  dup1\n  0x0b\n  dup2\n  mstore\n  0x20\n  add\n  shl(0xa8, 0x434841544c4f4720536975)\n  dup2\n  mstore\n  pop\n  mload(0x40)\n  dup1\n  0x40\n  add\n  0x40\n  mstore\n  dup1\n  0x03\n  dup2\n  mstore\n  0x20\n  add\n  shl(0xe8, 0x534955)\n  dup2\n  mstore\n  pop\n    /* \"solidity/dysnomia/09_siu.sol\":324:335  YangAddress */\n  dup3\n  sub(shl(0xa0, 0x01), 0x01)\n    /* \"solidity/dysnomia/09_siu.sol\":315:341  DYSNOMIA(YangAddress).Xiao */\n  and\n  0x6fb7329c\n    /* \"solidity/dysnomia/09_siu.sol\":315:343  DYSNOMIA(YangAddress).Xiao() */\n  mload(0x40)\n  dup2\n  0xffffffff\n  and\n  0xe0\n  shl\n  dup2\n  mstore\n  0x04\n  add\n  0x20\n  mload(0x40)\n  dup1\n  dup4\n  sub\n  dup2\n  dup7\n  gas\n  staticcall\n  iszero\n  dup1\n  iszero\n  tag_6\n  jumpi\n  returndatacopy(0x00, 0x00, returndatasize)\n  revert(0x00, returndatasize)\ntag_6:\n  pop\n  pop\n  pop\n  pop\n  mload(0x40)\n  returndatasize\n  not(0x1f)\n  0x1f\n  dup3\n  add\n  and\n  dup3\n  add\n  dup1\n  0x40\n  mstore\n  pop\n  dup2\n  add\n  swap1\n  tag_7\n  swap2\n  swap1\n  tag_3\n  jump\t// in\ntag_7:\n    /* \"solidity/dysnomia/01_dysnomia.sol\":1043:1053  msg.sender */\n  caller\n  dup1\n    /* \"solidity/dysnomia/lib/multiownable.sol\":424:545  if (initialOwner == address(0)) {... */\n  tag_12\n  jumpi\n    /* \"solidity/dysnomia/lib/multiownable.sol\":477:534  OwnableInvalidOwner(tx.origin, address(0), address(this)) */\n  mload(0x40)\n  shl(0xe2, 0x36030219)\n  dup2\n  mstore\n    /* \"solidity/dysnomia/lib/multiownable.sol\":497:506  tx.origin */\n  origin\n    /* \"solidity/dysnomia/lib/multiownable.sol\":477:534  OwnableInvalidOwner(tx.origin, address(0), address(this)) */\n  0x04\n  dup3\n  add\n    /* \"#utility.yul\":882:933   */\n  mstore\n    /* \"solidity/dysnomia/lib/multiownable.sol\":516:517  0 */\n  0x00\n    /* \"#utility.yul\":949:967   */\n  0x24\n  dup3\n  add\n    /* \"#utility.yul\":942:1002   */\n  mstore\n    /* \"solidity/dysnomia/lib/multiownable.sol\":528:532  this */\n  address\n    /* \"#utility.yul\":1018:1036   */\n  0x44\n  dup3\n  add\n    /* \"#utility.yul\":1011:1071   */\n  mstore\n    /* \"#utility.yul\":855:873   */\n  0x64\n  add\n    /* \"solidity/dysnomia/lib/multiownable.sol\":477:534  OwnableInvalidOwner(tx.origin, address(0), address(this)) */\ntag_13:\n  mload(0x40)\n  dup1\n  swap2\n  sub\n  swap1\n  revert\n    /* \"solidity/dysnomia/lib/multiownable.sol\":424:545  if (initialOwner == address(0)) {... */\ntag_12:\n    /* \"solidity/dysnomia/lib/multiownable.sol\":554:590  _changeOwnership(initialOwner, true) */\n  tag_15\n    /* \"solidity/dysnomia/lib/multiownable.sol\":571:583  initialOwner */\n  dup2\n    /* \"solidity/dysnomia/lib/multiownable.sol\":585:589  true */\n  0x01\n    /* \"solidity/dysnomia/lib/multiownable.sol\":554:570  _changeOwnership */\n  tag_16\n    /* \"solidity/dysnomia/lib/multiownable.sol\":554:590  _changeOwnership(initialOwner, true) */\n  jump\t// in\ntag_15:\n  pop\n    /* \"solidity/dysnomia/01_dysnomia.sol\":1065:1071  __name */\n  0x04\n    /* \"solidity/dysnomia/01_dysnomia.sol\":1065:1079  __name = name_ */\n  tag_18\n    /* \"solidity/dysnomia/01_dysnomia.sol\":1074:1079  name_ */\n  dup5\n    /* \"solidity/dysnomia/01_dysnomia.sol\":1065:1071  __name */\n  dup3\n    /* \"solidity/dysnomia/01_dysnomia.sol\":1065:1079  __name = name_ */\n  tag_19\n  jump\t// in\ntag_18:\n  pop\n    /* \"solidity/dysnomia/01_dysnomia.sol\":1089:1097  __symbol */\n  0x05\n    /* \"solidity/dysnomia/01_dysnomia.sol\":1089:1107  __symbol = symbol_ */\n  tag_20\n    /* \"solidity/dysnomia/01_dysnomia.sol\":1100:1107  symbol_ */\n  dup4\n    /* \"solidity/dysnomia/01_dysnomia.sol\":1089:1097  __symbol */\n  dup3\n    /* \"solidity/dysnomia/01_dysnomia.sol\":1089:1107  __symbol = symbol_ */\n  tag_19\n  jump\t// in\ntag_20:\n  pop\n    /* \"solidity/dysnomia/01_dysnomia.sol\":1117:1121  Xiao */\n  0x06\n    /* \"solidity/dysnomia/01_dysnomia.sol\":1117:1148  Xiao = atropaMath(mathContract) */\n  dup1\n  sload\n  not(sub(shl(0xa0, 0x01), 0x01))\n  and\n  sub(shl(0xa0, 0x01), 0x01)\n  dup4\n  and\n  swap1\n  dup2\n  or\n  swap1\n  swap2\n  sstore\n    /* \"solidity/dysnomia/01_dysnomia.sol\":1170:1183  Xiao.Random() */\n  0x40\n  dup1\n  mload\n  shl(0xe0, 0x604a6fa9)\n  dup2\n  mstore\n  swap1\n  mload\n    /* \"solidity/dysnomia/01_dysnomia.sol\":1186:1192  111111 */\n  0x01b207\n  swap3\n    /* \"solidity/dysnomia/01_dysnomia.sol\":1117:1148  Xiao = atropaMath(mathContract) */\n  swap2\n    /* \"solidity/dysnomia/01_dysnomia.sol\":1170:1181  Xiao.Random */\n  0x604a6fa9\n  swap2\n    /* \"solidity/dysnomia/01_dysnomia.sol\":1170:1183  Xiao.Random() */\n  0x04\n  dup1\n  dup4\n  add\n  swap3\n  0x20\n  swap3\n  swap2\n  swap1\n  dup3\n  swap1\n  sub\n  add\n  dup2\n  0x00\n    /* \"solidity/dysnomia/01_dysnomia.sol\":1117:1148  Xiao = atropaMath(mathContract) */\n  dup8\n    /* \"solidity/dysnomia/01_dysnomia.sol\":1170:1183  Xiao.Random() */\n  gas\n  call\n  iszero\n  dup1\n  iszero\n  tag_22\n  jumpi\n  returndatacopy(0x00, 0x00, returndatasize)\n  revert(0x00, returndatasize)\ntag_22:\n  pop\n  pop\n  pop\n  pop\n  mload(0x40)\n  returndatasize\n  not(0x1f)\n  0x1f\n  dup3\n  add\n  and\n  dup3\n  add\n  dup1\n  0x40\n  mstore\n  pop\n  dup2\n  add\n  swap1\n  tag_23\n  swap2\n  swap1\n  tag_24\n  jump\t// in\ntag_23:\n    /* \"solidity/dysnomia/01_dysnomia.sol\":1170:1192  Xiao.Random() % 111111 */\n  tag_25\n  swap2\n  swap1\n  tag_26\n  jump\t// in\ntag_25:\n  sub(shl(0x40, 0x01), 0x01)\n    /* \"solidity/dysnomia/01_dysnomia.sol\":1158:1192  maxSupply = Xiao.Random() % 111111 */\n  and\n    /* \"solidity/dysnomia/01_dysnomia.sol\":1158:1167  maxSupply */\n  0x07\n    /* \"solidity/dysnomia/01_dysnomia.sol\":1158:1192  maxSupply = Xiao.Random() % 111111 */\n  dup2\n  swap1\n  sstore\n  pop\n    /* \"solidity/dysnomia/01_dysnomia.sol\":1202:1220  uint256 originMint */\n  0x00\n    /* \"solidity/dysnomia/01_dysnomia.sol\":1251:1253  10 */\n  0x0a\n    /* \"solidity/dysnomia/01_dysnomia.sol\":1239:1248  maxSupply */\n  sload(0x07)\n    /* \"solidity/dysnomia/01_dysnomia.sol\":1223:1227  Xiao */\n  0x06\n  0x00\n  swap1\n  sload\n  swap1\n  0x0100\n  exp\n  swap1\n  div\n  sub(shl(0xa0, 0x01), 0x01)\n  and\n  sub(shl(0xa0, 0x01), 0x01)\n    /* \"solidity/dysnomia/01_dysnomia.sol\":1223:1234  Xiao.Random */\n  and\n  0x604a6fa9\n    /* \"solidity/dysnomia/01_dysnomia.sol\":1223:1236  Xiao.Random() */\n  mload(0x40)\n  dup2\n  0xffffffff\n  and\n  0xe0\n  shl\n  dup2\n  mstore\n  0x04\n  add\n  0x20\n  mload(0x40)\n  dup1\n  dup4\n  sub\n  dup2\n  0x00\n  dup8\n  gas\n  call\n  iszero\n  dup1\n  iszero\n  tag_28\n  jumpi\n  returndatacopy(0x00, 0x00, returndatasize)\n  revert(0x00, returndatasize)\ntag_28:\n  pop\n  pop\n  pop\n  pop\n  mload(0x40)\n  returndatasize\n  not(0x1f)\n  0x1f\n  dup3\n  add\n  and\n  dup3\n  add\n  dup1\n  0x40\n  mstore\n  pop\n  dup2\n  add\n  swap1\n  tag_29\n  swap2\n  swap1\n  tag_24\n  jump\t// in\ntag_29:\n  sub(shl(0x40, 0x01), 0x01)\n    /* \"solidity/dysnomia/01_dysnomia.sol\":1223:1248  Xiao.Random() % maxSupply */\n  and\n  tag_30\n  swap2\n  swap1\n  tag_31\n  jump\t// in\ntag_30:\n    /* \"solidity/dysnomia/01_dysnomia.sol\":1223:1253  Xiao.Random() % maxSupply / 10 */\n  tag_32\n  swap2\n  swap1\n  tag_33\n  jump\t// in\ntag_32:\n    /* \"solidity/dysnomia/01_dysnomia.sol\":1202:1253  uint256 originMint = Xiao.Random() % maxSupply / 10 */\n  swap1\n  pop\n    /* \"solidity/dysnomia/01_dysnomia.sol\":1263:1310  _mint(tx.origin, originMint * 10 ** decimals()) */\n  tag_34\n    /* \"solidity/dysnomia/01_dysnomia.sol\":1269:1278  tx.origin */\n  origin\n    /* \"solidity/dysnomia/01_dysnomia.sol\":1293:1309  10 ** decimals() */\n  tag_37\n    /* \"solidity/dysnomia/01_dysnomia.sol\":3228:3230  18 */\n  0x12\n    /* \"solidity/dysnomia/01_dysnomia.sol\":1293:1295  10 */\n  0x0a\n    /* \"solidity/dysnomia/01_dysnomia.sol\":1293:1309  10 ** decimals() */\n  tag_38\n  jump\t// in\ntag_37:\n    /* \"solidity/dysnomia/01_dysnomia.sol\":1280:1309  originMint * 10 ** decimals() */\n  tag_39\n  swap1\n    /* \"solidity/dysnomia/01_dysnomia.sol\":1280:1290  originMint */\n  dup5\n    /* \"solidity/dysnomia/01_dysnomia.sol\":1280:1309  originMint * 10 ** decimals() */\n  tag_40\n  jump\t// in\ntag_39:\n    /* \"solidity/dysnomia/01_dysnomia.sol\":1263:1268  _mint */\n  tag_41\n    /* \"solidity/dysnomia/01_dysnomia.sol\":1263:1310  _mint(tx.origin, originMint * 10 ** decimals()) */\n  jump\t// in\ntag_34:\n    /* \"solidity/dysnomia/01_dysnomia.sol\":1320:1374  AddMarketRate(AFFECTIONContract, 1 * 10 ** decimals()) */\n  tag_42\n    /* \"solidity/addresses.sol\":9267:9309  0x24F0154C1dCe548AdF15da2098Fdd8B8A3B8151D */\n  0x24f0154c1dce548adf15da2098fdd8b8a3b8151d\n    /* \"solidity/dysnomia/01_dysnomia.sol\":3228:3230  18 */\n  0x12\n    /* \"solidity/dysnomia/01_dysnomia.sol\":1363:1373  decimals() */\ntag_43:\n    /* \"solidity/dysnomia/01_dysnomia.sol\":1357:1373  10 ** decimals() */\n  tag_44\n  swap1\n    /* \"solidity/dysnomia/01_dysnomia.sol\":1357:1359  10 */\n  0x0a\n    /* \"solidity/dysnomia/01_dysnomia.sol\":1357:1373  10 ** decimals() */\n  tag_38\n  jump\t// in\ntag_44:\n    /* \"solidity/dysnomia/01_dysnomia.sol\":1353:1373  1 * 10 ** decimals() */\n  tag_45\n  swap1\n    /* \"solidity/dysnomia/01_dysnomia.sol\":1353:1354  1 */\n  0x01\n    /* \"solidity/dysnomia/01_dysnomia.sol\":1353:1373  1 * 10 ** decimals() */\n  tag_40\n  jump\t// in\ntag_45:\n  sub(shl(0xa0, 0x01), 0x01)\n    /* \"solidity/dysnomia/01_dysnomia.sol\":1837:1853  _marketRates[_a] */\n  swap1\n  swap2\n  and\n  0x00\n  swap1\n  dup2\n  mstore\n    /* \"solidity/dysnomia/01_dysnomia.sol\":1837:1849  _marketRates */\n  0x08\n    /* \"solidity/dysnomia/01_dysnomia.sol\":1837:1853  _marketRates[_a] */\n  0x20\n  mstore\n  0x40\n  swap1\n  keccak256\n    /* \"solidity/dysnomia/01_dysnomia.sol\":1837:1858  _marketRates[_a] = _r */\n  sstore\n    /* \"solidity/dysnomia/01_dysnomia.sol\":1771:1865  function AddMarketRate(address _a, uint256 _r) internal {... */\n  jump\n    /* \"solidity/dysnomia/01_dysnomia.sol\":1320:1374  AddMarketRate(AFFECTIONContract, 1 * 10 ** decimals()) */\ntag_42:\n  pop\n  pop\n    /* \"solidity/dysnomia/09_siu.sol\":356:359  Psi */\n  0x09\n    /* \"solidity/dysnomia/09_siu.sol\":356:379  Psi = YANG(YangAddress) */\n  dup1\n  sload\n  not(sub(shl(0xa0, 0x01), 0x01))\n  and\n  sub(shl(0xa0, 0x01), 0x01)\n  dup6\n  and\n  swap1\n  dup2\n  or\n  swap1\n  swap2\n  sstore\n    /* \"solidity/dysnomia/09_siu.sol\":389:416  Psi.addOwner(address(this)) */\n  mload(0x40)\n  shl(0xe3, 0x0e0cb969)\n  dup2\n  mstore\n    /* \"solidity/dysnomia/09_siu.sol\":410:414  this */\n  address\n    /* \"solidity/dysnomia/09_siu.sol\":389:416  Psi.addOwner(address(this)) */\n  0x04\n  dup3\n  add\n    /* \"#utility.yul\":6464:6515   */\n  mstore\n    /* \"solidity/dysnomia/09_siu.sol\":356:379  Psi = YANG(YangAddress) */\n  swap1\n  swap3\n  pop\n    /* \"solidity/dysnomia/09_siu.sol\":389:401  Psi.addOwner */\n  0x7065cb48\n  swap2\n  pop\n    /* \"#utility.yul\":6437:6455   */\n  0x24\n  add\n    /* \"solidity/dysnomia/09_siu.sol\":389:416  Psi.addOwner(address(this)) */\n  0x00\n  mload(0x40)\n  dup1\n  dup4\n  sub\n  dup2\n  0x00\n  dup8\n  dup1\n  extcodesize\n  iszero\n  dup1\n  iszero\n  tag_50\n  jumpi\n  revert(0x00, 0x00)\ntag_50:\n  pop\n  gas\n  call\n  iszero\n  dup1\n  iszero\n  tag_52\n  jumpi\n  returndatacopy(0x00, 0x00, returndatasize)\n  revert(0x00, returndatasize)\ntag_52:\n  pop\n  pop\n  pop\n  pop\n    /* \"solidity/dysnomia/09_siu.sol\":426:429  Psi */\n  0x09\n  0x00\n  swap1\n  sload\n  swap1\n  0x0100\n  exp\n  swap1\n  div\n  sub(shl(0xa0, 0x01), 0x01)\n  and\n  sub(shl(0xa0, 0x01), 0x01)\n    /* \"solidity/dysnomia/09_siu.sol\":426:432  Psi.Mu */\n  and\n  0xb5095168\n    /* \"solidity/dysnomia/09_siu.sol\":426:434  Psi.Mu() */\n  mload(0x40)\n  dup2\n  0xffffffff\n  and\n  0xe0\n  shl\n  dup2\n  mstore\n  0x04\n  add\n  0x20\n  mload(0x40)\n  dup1\n  dup4\n  sub\n  dup2\n  0x00\n  dup8\n  gas\n  call\n  iszero\n  dup1\n  iszero\n  tag_54\n  jumpi\n  returndatacopy(0x00, 0x00, returndatasize)\n  revert(0x00, returndatasize)\ntag_54:\n  pop\n  pop\n  pop\n  pop\n  mload(0x40)\n  returndatasize\n  not(0x1f)\n  0x1f\n  dup3\n  add\n  and\n  dup3\n  add\n  dup1\n  0x40\n  mstore\n  pop\n  dup2\n  add\n  swap1\n  tag_55\n  swap2\n  swap1\n  tag_3\n  jump\t// in\ntag_55:\n    /* \"solidity/dysnomia/09_siu.sol\":426:458  Psi.Mu().addOwner(address(this)) */\n  mload(0x40)\n  shl(0xe3, 0x0e0cb969)\n  dup2\n  mstore\n    /* \"solidity/dysnomia/09_siu.sol\":452:456  this */\n  address\n    /* \"solidity/dysnomia/09_siu.sol\":426:458  Psi.Mu().addOwner(address(this)) */\n  0x04\n  dup3\n  add\n    /* \"#utility.yul\":6464:6515   */\n  mstore\n  sub(shl(0xa0, 0x01), 0x01)\n    /* \"solidity/dysnomia/09_siu.sol\":426:443  Psi.Mu().addOwner */\n  swap2\n  swap1\n  swap2\n  and\n  swap1\n  0x7065cb48\n  swap1\n    /* \"#utility.yul\":6437:6455   */\n  0x24\n  add\n    /* \"solidity/dysnomia/09_siu.sol\":426:458  Psi.Mu().addOwner(address(this)) */\n  0x00\n  mload(0x40)\n  dup1\n  dup4\n  sub\n  dup2\n  0x00\n  dup8\n  dup1\n  extcodesize\n  iszero\n  dup1\n  iszero\n  tag_58\n  jumpi\n  revert(0x00, 0x00)\ntag_58:\n  pop\n  gas\n  call\n  iszero\n  dup1\n  iszero\n  tag_60\n  jumpi\n  returndatacopy(0x00, 0x00, returndatasize)\n  revert(0x00, returndatasize)\ntag_60:\n  pop\n  pop\n  pop\n  pop\n    /* \"solidity/dysnomia/09_siu.sol\":468:471  Psi */\n  0x09\n  0x00\n  swap1\n  sload\n  swap1\n  0x0100\n  exp\n  swap1\n  div\n  sub(shl(0xa0, 0x01), 0x01)\n  and\n  sub(shl(0xa0, 0x01), 0x01)\n    /* \"solidity/dysnomia/09_siu.sol\":468:474  Psi.Mu */\n  and\n  0xb5095168\n    /* \"solidity/dysnomia/09_siu.sol\":468:476  Psi.Mu() */\n  mload(0x40)\n  dup2\n  0xffffffff\n  and\n  0xe0\n  shl\n  dup2\n  mstore\n  0x04\n  add\n  0x20\n  mload(0x40)\n  dup1\n  dup4\n  sub\n  dup2\n  0x00\n  dup8\n  gas\n  call\n  iszero\n  dup1\n  iszero\n  tag_62\n  jumpi\n  returndatacopy(0x00, 0x00, returndatasize)\n  revert(0x00, returndatasize)\ntag_62:\n  pop\n  pop\n  pop\n  pop\n  mload(0x40)\n  returndatasize\n  not(0x1f)\n  0x1f\n  dup3\n  add\n  and\n  dup3\n  add\n  dup1\n  0x40\n  mstore\n  pop\n  dup2\n  add\n  swap1\n  tag_63\n  swap2\n  swap1\n  tag_3\n  jump\t// in\ntag_63:\n  sub(shl(0xa0, 0x01), 0x01)\n    /* \"solidity/dysnomia/09_siu.sol\":468:480  Psi.Mu().Tau */\n  and\n  0x4cde872d\n    /* \"solidity/dysnomia/09_siu.sol\":468:482  Psi.Mu().Tau() */\n  mload(0x40)\n  dup2\n  0xffffffff\n  and\n  0xe0\n  shl\n  dup2\n  mstore\n  0x04\n  add\n  0x20\n  mload(0x40)\n  dup1\n  dup4\n  sub\n  dup2\n  0x00\n  dup8\n  gas\n  call\n  iszero\n  dup1\n  iszero\n  tag_65\n  jumpi\n  returndatacopy(0x00, 0x00, returndatasize)\n  revert(0x00, returndatasize)\ntag_65:\n  pop\n  pop\n  pop\n  pop\n  mload(0x40)\n  returndatasize\n  not(0x1f)\n  0x1f\n  dup3\n  add\n  and\n  dup3\n  add\n  dup1\n  0x40\n  mstore\n  pop\n  dup2\n  add\n  swap1\n  tag_66\n  swap2\n  swap1\n  tag_3\n  jump\t// in\ntag_66:\n    /* \"solidity/dysnomia/09_siu.sol\":468:506  Psi.Mu().Tau().addOwner(address(this)) */\n  mload(0x40)\n  shl(0xe3, 0x0e0cb969)\n  dup2\n  mstore\n    /* \"solidity/dysnomia/09_siu.sol\":500:504  this */\n  address\n    /* \"solidity/dysnomia/09_siu.sol\":468:506  Psi.Mu().Tau().addOwner(address(this)) */\n  0x04\n  dup3\n  add\n    /* \"#utility.yul\":6464:6515   */\n  mstore\n  sub(shl(0xa0, 0x01), 0x01)\n    /* \"solidity/dysnomia/09_siu.sol\":468:491  Psi.Mu().Tau().addOwner */\n  swap2\n  swap1\n  swap2\n  and\n  swap1\n  0x7065cb48\n  swap1\n    /* \"#utility.yul\":6437:6455   */\n  0x24\n  add\n    /* \"solidity/dysnomia/09_siu.sol\":468:506  Psi.Mu().Tau().addOwner(address(this)) */\n  0x00\n  mload(0x40)\n  dup1\n  dup4\n  sub\n  dup2\n  0x00\n  dup8\n  dup1\n  extcodesize\n  iszero\n  dup1\n  iszero\n  tag_69\n  jumpi\n  revert(0x00, 0x00)\ntag_69:\n  pop\n  gas\n  call\n  iszero\n  dup1\n  iszero\n  tag_71\n  jumpi\n  returndatacopy(0x00, 0x00, returndatasize)\n  revert(0x00, returndatasize)\ntag_71:\n  pop\n  pop\n  pop\n  pop\n    /* \"solidity/dysnomia/09_siu.sol\":516:519  Psi */\n  0x09\n  0x00\n  swap1\n  sload\n  swap1\n  0x0100\n  exp\n  swap1\n  div\n  sub(shl(0xa0, 0x01), 0x01)\n  and\n  sub(shl(0xa0, 0x01), 0x01)\n    /* \"solidity/dysnomia/09_siu.sol\":516:522  Psi.Mu */\n  and\n  0xb5095168\n    /* \"solidity/dysnomia/09_siu.sol\":516:524  Psi.Mu() */\n  mload(0x40)\n  dup2\n  0xffffffff\n  and\n  0xe0\n  shl\n  dup2\n  mstore\n  0x04\n  add\n  0x20\n  mload(0x40)\n  dup1\n  dup4\n  sub\n  dup2\n  0x00\n  dup8\n  gas\n  call\n  iszero\n  dup1\n  iszero\n  tag_73\n  jumpi\n  returndatacopy(0x00, 0x00, returndatasize)\n  revert(0x00, returndatasize)\ntag_73:\n  pop\n  pop\n  pop\n  pop\n  mload(0x40)\n  returndatasize\n  not(0x1f)\n  0x1f\n  dup3\n  add\n  and\n  dup3\n  add\n  dup1\n  0x40\n  mstore\n  pop\n  dup2\n  add\n  swap1\n  tag_74\n  swap2\n  swap1\n  tag_3\n  jump\t// in\ntag_74:\n  sub(shl(0xa0, 0x01), 0x01)\n    /* \"solidity/dysnomia/09_siu.sol\":516:528  Psi.Mu().Tau */\n  and\n  0x4cde872d\n    /* \"solidity/dysnomia/09_siu.sol\":516:530  Psi.Mu().Tau() */\n  mload(0x40)\n  dup2\n  0xffffffff\n  and\n  0xe0\n  shl\n  dup2\n  mstore\n  0x04\n  add\n  0x20\n  mload(0x40)\n  dup1\n  dup4\n  sub\n  dup2\n  0x00\n  dup8\n  gas\n  call\n  iszero\n  dup1\n  iszero\n  tag_76\n  jumpi\n  returndatacopy(0x00, 0x00, returndatasize)\n  revert(0x00, returndatasize)\ntag_76:\n  pop\n  pop\n  pop\n  pop\n  mload(0x40)\n  returndatasize\n  not(0x1f)\n  0x1f\n  dup3\n  add\n  and\n  dup3\n  add\n  dup1\n  0x40\n  mstore\n  pop\n  dup2\n  add\n  swap1\n  tag_77\n  swap2\n  swap1\n  tag_3\n  jump\t// in\ntag_77:\n  sub(shl(0xa0, 0x01), 0x01)\n    /* \"solidity/dysnomia/09_siu.sol\":516:538  Psi.Mu().Tau().Upsilon */\n  and\n  0x140c2fb5\n    /* \"solidity/dysnomia/09_siu.sol\":516:540  Psi.Mu().Tau().Upsilon() */\n  mload(0x40)\n  dup2\n  0xffffffff\n  and\n  0xe0\n  shl\n  dup2\n  mstore\n  0x04\n  add\n  0x20\n  mload(0x40)\n  dup1\n  dup4\n  sub\n  dup2\n  0x00\n  dup8\n  gas\n  call\n  iszero\n  dup1\n  iszero\n  tag_79\n  jumpi\n  returndatacopy(0x00, 0x00, returndatasize)\n  revert(0x00, returndatasize)\ntag_79:\n  pop\n  pop\n  pop\n  pop\n  mload(0x40)\n  returndatasize\n  not(0x1f)\n  0x1f\n  dup3\n  add\n  and\n  dup3\n  add\n  dup1\n  0x40\n  mstore\n  pop\n  dup2\n  add\n  swap1\n  tag_80\n  swap2\n  swap1\n  tag_3\n  jump\t// in\ntag_80:\n    /* \"solidity/dysnomia/09_siu.sol\":516:564  Psi.Mu().Tau().Upsilon().addOwner(address(this)) */\n  mload(0x40)\n  shl(0xe3, 0x0e0cb969)\n  dup2\n  mstore\n    /* \"solidity/dysnomia/09_siu.sol\":558:562  this */\n  address\n    /* \"solidity/dysnomia/09_siu.sol\":516:564  Psi.Mu().Tau().Upsilon().addOwner(address(this)) */\n  0x04\n  dup3\n  add\n    /* \"#utility.yul\":6464:6515   */\n  mstore\n  sub(shl(0xa0, 0x01), 0x01)\n    /* \"solidity/dysnomia/09_siu.sol\":516:549  Psi.Mu().Tau().Upsilon().addOwner */\n  swap2\n  swap1\n  swap2\n  and\n  swap1\n  0x7065cb48\n  swap1\n    /* \"#utility.yul\":6437:6455   */\n  0x24\n  add\n    /* \"solidity/dysnomia/09_siu.sol\":516:564  Psi.Mu().Tau().Upsilon().addOwner(address(this)) */\n  0x00\n  mload(0x40)\n  dup1\n  dup4\n  sub\n  dup2\n  0x00\n  dup8\n  dup1\n  extcodesize\n  iszero\n  dup1\n  iszero\n  tag_83\n  jumpi\n  revert(0x00, 0x00)\ntag_83:\n  pop\n  gas\n  call\n  iszero\n  dup1\n  iszero\n  tag_85\n  jumpi\n  returndatacopy(0x00, 0x00, returndatasize)\n  revert(0x00, returndatasize)\ntag_85:\n  pop\n  pop\n  pop\n  pop\n    /* \"solidity/dysnomia/09_siu.sol\":574:577  Psi */\n  0x09\n  0x00\n  swap1\n  sload\n  swap1\n  0x0100\n  exp\n  swap1\n  div\n  sub(shl(0xa0, 0x01), 0x01)\n  and\n  sub(shl(0xa0, 0x01), 0x01)\n    /* \"solidity/dysnomia/09_siu.sol\":574:580  Psi.Mu */\n  and\n  0xb5095168\n    /* \"solidity/dysnomia/09_siu.sol\":574:582  Psi.Mu() */\n  mload(0x40)\n  dup2\n  0xffffffff\n  and\n  0xe0\n  shl\n  dup2\n  mstore\n  0x04\n  add\n  0x20\n  mload(0x40)\n  dup1\n  dup4\n  sub\n  dup2\n  0x00\n  dup8\n  gas\n  call\n  iszero\n  dup1\n  iszero\n  tag_87\n  jumpi\n  returndatacopy(0x00, 0x00, returndatasize)\n  revert(0x00, returndatasize)\ntag_87:\n  pop\n  pop\n  pop\n  pop\n  mload(0x40)\n  returndatasize\n  not(0x1f)\n  0x1f\n  dup3\n  add\n  and\n  dup3\n  add\n  dup1\n  0x40\n  mstore\n  pop\n  dup2\n  add\n  swap1\n  tag_88\n  swap2\n  swap1\n  tag_3\n  jump\t// in\ntag_88:\n  sub(shl(0xa0, 0x01), 0x01)\n    /* \"solidity/dysnomia/09_siu.sol\":574:586  Psi.Mu().Tau */\n  and\n  0x4cde872d\n    /* \"solidity/dysnomia/09_siu.sol\":574:588  Psi.Mu().Tau() */\n  mload(0x40)\n  dup2\n  0xffffffff\n  and\n  0xe0\n  shl\n  dup2\n  mstore\n  0x04\n  add\n  0x20\n  mload(0x40)\n  dup1\n  dup4\n  sub\n  dup2\n  0x00\n  dup8\n  gas\n  call\n  iszero\n  dup1\n  iszero\n  tag_90\n  jumpi\n  returndatacopy(0x00, 0x00, returndatasize)\n  revert(0x00, returndatasize)\ntag_90:\n  pop\n  pop\n  pop\n  pop\n  mload(0x40)\n  returndatasize\n  not(0x1f)\n  0x1f\n  dup3\n  add\n  and\n  dup3\n  add\n  dup1\n  0x40\n  mstore\n  pop\n  dup2\n  add\n  swap1\n  tag_91\n  swap2\n  swap1\n  tag_3\n  jump\t// in\ntag_91:\n  sub(shl(0xa0, 0x01), 0x01)\n    /* \"solidity/dysnomia/09_siu.sol\":574:596  Psi.Mu().Tau().Upsilon */\n  and\n  0x140c2fb5\n    /* \"solidity/dysnomia/09_siu.sol\":574:598  Psi.Mu().Tau().Upsilon() */\n  mload(0x40)\n  dup2\n  0xffffffff\n  and\n  0xe0\n  shl\n  dup2\n  mstore\n  0x04\n  add\n  0x20\n  mload(0x40)\n  dup1\n  dup4\n  sub\n  dup2\n  0x00\n  dup8\n  gas\n  call\n  iszero\n  dup1\n  iszero\n  tag_93\n  jumpi\n  returndatacopy(0x00, 0x00, returndatasize)\n  revert(0x00, returndatasize)\ntag_93:\n  pop\n  pop\n  pop\n  pop\n  mload(0x40)\n  returndatasize\n  not(0x1f)\n  0x1f\n  dup3\n  add\n  and\n  dup3\n  add\n  dup1\n  0x40\n  mstore\n  pop\n  dup2\n  add\n  swap1\n  tag_94\n  swap2\n  swap1\n  tag_3\n  jump\t// in\ntag_94:\n  sub(shl(0xa0, 0x01), 0x01)\n    /* \"solidity/dysnomia/09_siu.sol\":574:602  Psi.Mu().Tau().Upsilon().Eta */\n  and\n  0x4209b07c\n    /* \"solidity/dysnomia/09_siu.sol\":574:604  Psi.Mu().Tau().Upsilon().Eta() */\n  mload(0x40)\n  dup2\n  0xffffffff\n  and\n  0xe0\n  shl\n  dup2\n  mstore\n  0x04\n  add\n  0x20\n  mload(0x40)\n  dup1\n  dup4\n  sub\n  dup2\n  0x00\n  dup8\n  gas\n  call\n  iszero\n  dup1\n  iszero\n  tag_96\n  jumpi\n  returndatacopy(0x00, 0x00, returndatasize)\n  revert(0x00, returndatasize)\ntag_96:\n  pop\n  pop\n  pop\n  pop\n  mload(0x40)\n  returndatasize\n  not(0x1f)\n  0x1f\n  dup3\n  add\n  and\n  dup3\n  add\n  dup1\n  0x40\n  mstore\n  pop\n  dup2\n  add\n  swap1\n  tag_97\n  swap2\n  swap1\n  tag_3\n  jump\t// in\ntag_97:\n    /* \"solidity/dysnomia/09_siu.sol\":574:628  Psi.Mu().Tau().Upsilon().Eta().addOwner(address(this)) */\n  mload(0x40)\n  shl(0xe3, 0x0e0cb969)\n  dup2\n  mstore\n    /* \"solidity/dysnomia/09_siu.sol\":622:626  this */\n  address\n    /* \"solidity/dysnomia/09_siu.sol\":574:628  Psi.Mu().Tau().Upsilon().Eta().addOwner(address(this)) */\n  0x04\n  dup3\n  add\n    /* \"#utility.yul\":6464:6515   */\n  mstore\n  sub(shl(0xa0, 0x01), 0x01)\n    /* \"solidity/dysnomia/09_siu.sol\":574:613  Psi.Mu().Tau().Upsilon().Eta().addOwner */\n  swap2\n  swap1\n  swap2\n  and\n  swap1\n  0x7065cb48\n  swap1\n    /* \"#utility.yul\":6437:6455   */\n  0x24\n  add\n    /* \"solidity/dysnomia/09_siu.sol\":574:628  Psi.Mu().Tau().Upsilon().Eta().addOwner(address(this)) */\n  0x00\n  mload(0x40)\n  dup1\n  dup4\n  sub\n  dup2\n  0x00\n  dup8\n  dup1\n  extcodesize\n  iszero\n  dup1\n  iszero\n  tag_100\n  jumpi\n  revert(0x00, 0x00)\ntag_100:\n  pop\n  gas\n  call\n  iszero\n  dup1\n  iszero\n  tag_102\n  jumpi\n  returndatacopy(0x00, 0x00, returndatasize)\n  revert(0x00, returndatasize)\ntag_102:\n  pop\n  pop\n  pop\n  pop\n    /* \"solidity/dysnomia/09_siu.sol\":639:648  Augment() */\n  tag_103\n    /* \"solidity/dysnomia/09_siu.sol\":639:646  Augment */\n  shl(0x20, tag_104)\n    /* \"solidity/dysnomia/09_siu.sol\":639:648  Augment() */\n  0x20\n  shr\n  jump\t// in\ntag_103:\n    /* \"solidity/dysnomia/09_siu.sol\":229:655  constructor(address YangAddress) DYSNOMIA(unicode\"CHATLOG Siu\", unicode\"SIU\", address(DYSNOMIA(YangAddress).Xiao())) {... */\n  pop\n    /* \"solidity/dysnomia/09_siu.sol\":134:1383  contract SIU is DYSNOMIA {... */\n  jump(tag_153)\n    /* \"solidity/dysnomia/lib/multiownable.sol\":1538:1697  function _changeOwnership(address cOwner, bool cState) internal virtual {... */\ntag_16:\n  sub(shl(0xa0, 0x01), 0x01)\n    /* \"solidity/dysnomia/lib/multiownable.sol\":1620:1635  _owners[cOwner] */\n  dup3\n  and\n    /* \"solidity/dysnomia/lib/multiownable.sol\":1620:1627  _owners */\n  0x00\n    /* \"solidity/dysnomia/lib/multiownable.sol\":1620:1635  _owners[cOwner] */\n  dup2\n  dup2\n  mstore\n  0x20\n  dup2\n  swap1\n  mstore\n  0x40\n  dup1\n  dup3\n  keccak256\n    /* \"solidity/dysnomia/lib/multiownable.sol\":1620:1644  _owners[cOwner] = cState */\n  dup1\n  sload\n  not(0xff)\n  and\n  dup6\n  iszero\n  iszero\n  swap1\n  dup2\n  or\n  swap1\n  swap2\n  sstore\n    /* \"solidity/dysnomia/lib/multiownable.sol\":1659:1690  OwnershipUpdate(cOwner, cState) */\n  swap1\n  mload\n    /* \"solidity/dysnomia/lib/multiownable.sol\":1620:1644  _owners[cOwner] = cState */\n  swap1\n  swap3\n    /* \"solidity/dysnomia/lib/multiownable.sol\":1620:1635  _owners[cOwner] */\n  swap2\n    /* \"solidity/dysnomia/lib/multiownable.sol\":1659:1690  OwnershipUpdate(cOwner, cState) */\n  0x6bfa7e860c3e9bf67b810cb88276b19b27c972812bac04793d369b59a1183a83\n  swap2\n  log3\n    /* \"solidity/dysnomia/lib/multiownable.sol\":1538:1697  function _changeOwnership(address cOwner, bool cState) internal virtual {... */\n  pop\n  pop\n  jump\t// out\n    /* \"solidity/dysnomia/01_dysnomia.sol\":5508:5616  function _mint(address account, uint256 value) internal {... */\ntag_41:\n    /* \"solidity/dysnomia/01_dysnomia.sol\":5574:5609  _update(address(0), account, value) */\n  tag_109\n    /* \"solidity/dysnomia/01_dysnomia.sol\":5590:5591  0 */\n  0x00\n    /* \"solidity/dysnomia/01_dysnomia.sol\":5594:5601  account */\n  dup4\n    /* \"solidity/dysnomia/01_dysnomia.sol\":5603:5608  value */\n  dup4\n    /* \"solidity/dysnomia/01_dysnomia.sol\":5574:5581  _update */\n  tag_110\n    /* \"solidity/dysnomia/01_dysnomia.sol\":5574:5609  _update(address(0), account, value) */\n  jump\t// in\ntag_109:\n    /* \"solidity/dysnomia/01_dysnomia.sol\":5508:5616  function _mint(address account, uint256 value) internal {... */\n  pop\n  pop\n  jump\t// out\n    /* \"solidity/dysnomia/09_siu.sol\":661:777  function Augment() internal {... */\ntag_104:\n    /* \"solidity/dysnomia/09_siu.sol\":721:724  Psi */\n  sload(0x09)\n    /* \"solidity/dysnomia/09_siu.sol\":699:748  AddMarketRate(address(Psi), 1 * 10 ** decimals()) */\n  tag_113\n  swap1\n  sub(shl(0xa0, 0x01), 0x01)\n    /* \"solidity/dysnomia/09_siu.sol\":721:724  Psi */\n  and\n    /* \"solidity/dysnomia/01_dysnomia.sol\":3228:3230  18 */\n  0x12\n    /* \"solidity/dysnomia/09_siu.sol\":737:747  decimals() */\n  tag_43\n    /* \"solidity/dysnomia/01_dysnomia.sol\":3155:3237  function decimals() public view virtual returns (uint8) {... */\n  jump\n    /* \"solidity/dysnomia/09_siu.sol\":699:748  AddMarketRate(address(Psi), 1 * 10 ** decimals()) */\ntag_113:\n    /* \"solidity/dysnomia/09_siu.sol\":758:770  _mintToCap() */\n  tag_117\n    /* \"solidity/dysnomia/09_siu.sol\":758:768  _mintToCap */\n  tag_118\n    /* \"solidity/dysnomia/09_siu.sol\":758:770  _mintToCap() */\n  jump\t// in\ntag_117:\n    /* \"solidity/dysnomia/09_siu.sol\":661:777  function Augment() internal {... */\n  jump\t// out\n    /* \"solidity/dysnomia/01_dysnomia.sol\":4350:5502  function _update(address from, address to, uint256 value) internal virtual {... */\ntag_110:\n  sub(shl(0xa0, 0x01), 0x01)\n    /* \"solidity/dysnomia/01_dysnomia.sol\":4439:4457  from == address(0) */\n  dup4\n  and\n    /* \"solidity/dysnomia/01_dysnomia.sol\":4435:5020  if (from == address(0)) {... */\n  tag_120\n  jumpi\n    /* \"solidity/dysnomia/01_dysnomia.sol\":4591:4596  value */\n  dup1\n    /* \"solidity/dysnomia/01_dysnomia.sol\":4575:4587  _totalSupply */\n  0x03\n  0x00\n    /* \"solidity/dysnomia/01_dysnomia.sol\":4575:4596  _totalSupply += value */\n  dup3\n  dup3\n  sload\n  tag_121\n  swap2\n  swap1\n  tag_122\n  jump\t// in\ntag_121:\n  swap1\n  swap2\n  sstore\n  pop\n    /* \"solidity/dysnomia/01_dysnomia.sol\":4435:5020  if (from == address(0)) {... */\n  tag_123\n  swap1\n  pop\n  jump\ntag_120:\n  sub(shl(0xa0, 0x01), 0x01)\n    /* \"solidity/dysnomia/01_dysnomia.sol\":4649:4664  _balances[from] */\n  dup4\n  and\n    /* \"solidity/dysnomia/01_dysnomia.sol\":4627:4646  uint256 fromBalance */\n  0x00\n    /* \"solidity/dysnomia/01_dysnomia.sol\":4649:4664  _balances[from] */\n  swap1\n  dup2\n  mstore\n    /* \"solidity/dysnomia/01_dysnomia.sol\":4649:4658  _balances */\n  0x01\n    /* \"solidity/dysnomia/01_dysnomia.sol\":4649:4664  _balances[from] */\n  0x20\n  mstore\n  0x40\n  swap1\n  keccak256\n  sload\n    /* \"solidity/dysnomia/01_dysnomia.sol\":4682:4701  fromBalance < value */\n  dup2\n  dup2\n  lt\n    /* \"solidity/dysnomia/01_dysnomia.sol\":4678:4838  if (fromBalance < value) {... */\n  iszero\n  tag_124\n  jumpi\n    /* \"solidity/dysnomia/01_dysnomia.sol\":4728:4823  DysnomiaInsufficientBalance(tx.origin, msg.sender, from, to, address(this), fromBalance, value) */\n  mload(0x40)\n  shl(0xe2, 0x0f7d0bbd)\n  dup2\n  mstore\n    /* \"solidity/dysnomia/01_dysnomia.sol\":4756:4765  tx.origin */\n  origin\n    /* \"solidity/dysnomia/01_dysnomia.sol\":4728:4823  DysnomiaInsufficientBalance(tx.origin, msg.sender, from, to, address(this), fromBalance, value) */\n  0x04\n  dup3\n  add\n    /* \"#utility.yul\":8045:8096   */\n  mstore\n    /* \"solidity/dysnomia/01_dysnomia.sol\":4767:4777  msg.sender */\n  caller\n    /* \"#utility.yul\":8112:8130   */\n  0x24\n  dup3\n  add\n    /* \"#utility.yul\":8105:8165   */\n  mstore\n  sub(shl(0xa0, 0x01), 0x01)\n    /* \"#utility.yul\":8201:8233   */\n  dup1\n  dup7\n  and\n    /* \"#utility.yul\":8181:8199   */\n  0x44\n  dup4\n  add\n    /* \"#utility.yul\":8174:8234   */\n  mstore\n    /* \"#utility.yul\":8270:8302   */\n  dup5\n  and\n    /* \"#utility.yul\":8250:8268   */\n  0x64\n  dup3\n  add\n    /* \"#utility.yul\":8243:8303   */\n  mstore\n    /* \"solidity/dysnomia/01_dysnomia.sol\":4797:4801  this */\n  address\n    /* \"#utility.yul\":8319:8338   */\n  0x84\n  dup3\n  add\n    /* \"#utility.yul\":8312:8373   */\n  mstore\n    /* \"#utility.yul\":8389:8408   */\n  0xa4\n  dup2\n  add\n    /* \"#utility.yul\":8382:8417   */\n  dup3\n  swap1\n  mstore\n    /* \"#utility.yul\":8433:8452   */\n  0xc4\n  dup2\n  add\n    /* \"#utility.yul\":8426:8461   */\n  dup4\n  swap1\n  mstore\n    /* \"#utility.yul\":8017:8036   */\n  0xe4\n  add\n    /* \"solidity/dysnomia/01_dysnomia.sol\":4728:4823  DysnomiaInsufficientBalance(tx.origin, msg.sender, from, to, address(this), fromBalance, value) */\n  tag_13\n    /* \"#utility.yul\":7730:8467   */\n  jump\n    /* \"solidity/dysnomia/01_dysnomia.sol\":4678:4838  if (fromBalance < value) {... */\ntag_124:\n  sub(shl(0xa0, 0x01), 0x01)\n    /* \"solidity/dysnomia/01_dysnomia.sol\":4958:4973  _balances[from] */\n  dup5\n  and\n  0x00\n  swap1\n  dup2\n  mstore\n    /* \"solidity/dysnomia/01_dysnomia.sol\":4958:4967  _balances */\n  0x01\n    /* \"solidity/dysnomia/01_dysnomia.sol\":4958:4973  _balances[from] */\n  0x20\n  mstore\n  0x40\n  swap1\n  keccak256\n    /* \"solidity/dysnomia/01_dysnomia.sol\":4976:4995  fromBalance - value */\n  swap1\n  dup3\n  swap1\n  sub\n    /* \"solidity/dysnomia/01_dysnomia.sol\":4958:4995  _balances[from] = fromBalance - value */\n  swap1\n  sstore\n    /* \"solidity/dysnomia/01_dysnomia.sol\":4435:5020  if (from == address(0)) {... */\ntag_123:\n  sub(shl(0xa0, 0x01), 0x01)\n    /* \"solidity/dysnomia/01_dysnomia.sol\":5034:5050  to == address(0) */\n  dup3\n  and\n    /* \"solidity/dysnomia/01_dysnomia.sol\":5030:5455  if (to == address(0)) {... */\n  tag_127\n  jumpi\n    /* \"solidity/dysnomia/01_dysnomia.sol\":5197:5209  _totalSupply */\n  0x03\n    /* \"solidity/dysnomia/01_dysnomia.sol\":5197:5218  _totalSupply -= value */\n  dup1\n  sload\n  dup3\n  swap1\n  sub\n  swap1\n  sstore\n    /* \"solidity/dysnomia/01_dysnomia.sol\":5030:5455  if (to == address(0)) {... */\n  jump(tag_128)\ntag_127:\n  sub(shl(0xa0, 0x01), 0x01)\n    /* \"solidity/dysnomia/01_dysnomia.sol\":5408:5421  _balances[to] */\n  dup3\n  and\n  0x00\n  swap1\n  dup2\n  mstore\n    /* \"solidity/dysnomia/01_dysnomia.sol\":5408:5417  _balances */\n  0x01\n    /* \"solidity/dysnomia/01_dysnomia.sol\":5408:5421  _balances[to] */\n  0x20\n  mstore\n  0x40\n  swap1\n  keccak256\n    /* \"solidity/dysnomia/01_dysnomia.sol\":5408:5430  _balances[to] += value */\n  dup1\n  sload\n  dup3\n  add\n  swap1\n  sstore\n    /* \"solidity/dysnomia/01_dysnomia.sol\":5030:5455  if (to == address(0)) {... */\ntag_128:\n    /* \"solidity/dysnomia/01_dysnomia.sol\":5485:5487  to */\n  dup2\n  sub(shl(0xa0, 0x01), 0x01)\n    /* \"solidity/dysnomia/01_dysnomia.sol\":5470:5495  Transfer(from, to, value) */\n  and\n    /* \"solidity/dysnomia/01_dysnomia.sol\":5479:5483  from */\n  dup4\n  sub(shl(0xa0, 0x01), 0x01)\n    /* \"solidity/dysnomia/01_dysnomia.sol\":5470:5495  Transfer(from, to, value) */\n  and\n  0xddf252ad1be2c89b69c2b068fc378daa952ba7f163c4a11628f55a4df523b3ef\n    /* \"solidity/dysnomia/01_dysnomia.sol\":5489:5494  value */\n  dup4\n    /* \"solidity/dysnomia/01_dysnomia.sol\":5470:5495  Transfer(from, to, value) */\n  mload(0x40)\n  tag_129\n  swap2\n    /* \"#utility.yul\":8618:8643   */\n  dup2\n  mstore\n    /* \"#utility.yul\":8606:8608   */\n  0x20\n    /* \"#utility.yul\":8591:8609   */\n  add\n  swap1\n    /* \"#utility.yul\":8472:8649   */\n  jump\n    /* \"solidity/dysnomia/01_dysnomia.sol\":5470:5495  Transfer(from, to, value) */\ntag_129:\n  mload(0x40)\n  dup1\n  swap2\n  sub\n  swap1\n  log3\n    /* \"solidity/dysnomia/01_dysnomia.sol\":4350:5502  function _update(address from, address to, uint256 value) internal virtual {... */\n  pop\n  pop\n  pop\n  jump\t// out\n    /* \"solidity/dysnomia/01_dysnomia.sol\":1612:1765  function _mintToCap() internal {... */\ntag_118:\n    /* \"solidity/dysnomia/01_dysnomia.sol\":1685:1701  10 ** decimals() */\n  tag_133\n    /* \"solidity/dysnomia/01_dysnomia.sol\":3228:3230  18 */\n  0x12\n    /* \"solidity/dysnomia/01_dysnomia.sol\":1685:1687  10 */\n  0x0a\n    /* \"solidity/dysnomia/01_dysnomia.sol\":1685:1701  10 ** decimals() */\n  tag_38\n  jump\t// in\ntag_133:\n    /* \"solidity/dysnomia/01_dysnomia.sol\":1673:1682  maxSupply */\n  sload(0x07)\n    /* \"solidity/dysnomia/01_dysnomia.sol\":1673:1701  maxSupply * 10 ** decimals() */\n  tag_134\n  swap2\n  swap1\n  tag_40\n  jump\t// in\ntag_134:\n    /* \"solidity/dysnomia/01_dysnomia.sol\":3321:3333  _totalSupply */\n  sload(0x03)\n    /* \"solidity/dysnomia/01_dysnomia.sol\":1656:1702  totalSupply() < (maxSupply * 10 ** decimals()) */\n  lt\n    /* \"solidity/dysnomia/01_dysnomia.sol\":1653:1758  if(totalSupply() < (maxSupply * 10 ** decimals()))... */\n  iszero\n  tag_117\n  jumpi\n    /* \"solidity/dysnomia/01_dysnomia.sol\":1716:1758  _mint(address(this), 1 * 10 ** decimals()) */\n  tag_117\n    /* \"solidity/dysnomia/01_dysnomia.sol\":1730:1734  this */\n  address\n    /* \"solidity/dysnomia/01_dysnomia.sol\":1741:1757  10 ** decimals() */\n  tag_140\n    /* \"solidity/dysnomia/01_dysnomia.sol\":3228:3230  18 */\n  0x12\n    /* \"solidity/dysnomia/01_dysnomia.sol\":1741:1743  10 */\n  0x0a\n    /* \"solidity/dysnomia/01_dysnomia.sol\":1741:1757  10 ** decimals() */\n  tag_38\n  jump\t// in\ntag_140:\n    /* \"solidity/dysnomia/01_dysnomia.sol\":1737:1757  1 * 10 ** decimals() */\n  tag_39\n  swap1\n    /* \"solidity/dysnomia/01_dysnomia.sol\":1737:1738  1 */\n  0x01\n    /* \"solidity/dysnomia/01_dysnomia.sol\":1737:1757  1 * 10 ** decimals() */\n  tag_40\n  jump\t// in\n    /* \"#utility.yul\":14:145   */\ntag_143:\n  sub(shl(0xa0, 0x01), 0x01)\n    /* \"#utility.yul\":89:120   */\n  dup2\n  and\n    /* \"#utility.yul\":79:121   */\n  dup2\n  eq\n    /* \"#utility.yul\":69:139   */\n  tag_155\n  jumpi\n    /* \"#utility.yul\":135:136   */\n  0x00\n    /* \"#utility.yul\":132:133   */\n  0x00\n    /* \"#utility.yul\":125:137   */\n  revert\n    /* \"#utility.yul\":69:139   */\ntag_155:\n    /* \"#utility.yul\":14:145   */\n  pop\n  jump\t// out\n    /* \"#utility.yul\":150:401   */\ntag_3:\n    /* \"#utility.yul\":220:226   */\n  0x00\n    /* \"#utility.yul\":273:275   */\n  0x20\n    /* \"#utility.yul\":261:270   */\n  dup3\n    /* \"#utility.yul\":252:259   */\n  dup5\n    /* \"#utility.yul\":248:271   */\n  sub\n    /* \"#utility.yul\":244:276   */\n  slt\n    /* \"#utility.yul\":241:293   */\n  iszero\n  tag_157\n  jumpi\n    /* \"#utility.yul\":289:290   */\n  0x00\n    /* \"#utility.yul\":286:287   */\n  0x00\n    /* \"#utility.yul\":279:291   */\n  revert\n    /* \"#utility.yul\":241:293   */\ntag_157:\n    /* \"#utility.yul\":321:330   */\n  dup2\n    /* \"#utility.yul\":315:331   */\n  mload\n    /* \"#utility.yul\":340:371   */\n  tag_158\n    /* \"#utility.yul\":365:370   */\n  dup2\n    /* \"#utility.yul\":340:371   */\n  tag_143\n  jump\t// in\ntag_158:\n    /* \"#utility.yul\":390:395   */\n  swap4\n    /* \"#utility.yul\":150:401   */\n  swap3\n  pop\n  pop\n  pop\n  jump\t// out\n    /* \"#utility.yul\":1082:1209   */\ntag_144:\n    /* \"#utility.yul\":1143:1153   */\n  0x4e487b71\n    /* \"#utility.yul\":1138:1141   */\n  0xe0\n    /* \"#utility.yul\":1134:1154   */\n  shl\n    /* \"#utility.yul\":1131:1132   */\n  0x00\n    /* \"#utility.yul\":1124:1155   */\n  mstore\n    /* \"#utility.yul\":1174:1178   */\n  0x41\n    /* \"#utility.yul\":1171:1172   */\n  0x04\n    /* \"#utility.yul\":1164:1179   */\n  mstore\n    /* \"#utility.yul\":1198:1202   */\n  0x24\n    /* \"#utility.yul\":1195:1196   */\n  0x00\n    /* \"#utility.yul\":1188:1203   */\n  revert\n    /* \"#utility.yul\":1214:1594   */\ntag_145:\n    /* \"#utility.yul\":1293:1294   */\n  0x01\n    /* \"#utility.yul\":1289:1301   */\n  dup2\n  dup2\n  shr\n  swap1\n    /* \"#utility.yul\":1336:1348   */\n  dup3\n  and\n  dup1\n    /* \"#utility.yul\":1357:1418   */\n  tag_165\n  jumpi\n    /* \"#utility.yul\":1411:1415   */\n  0x7f\n    /* \"#utility.yul\":1403:1409   */\n  dup3\n    /* \"#utility.yul\":1399:1416   */\n  and\n    /* \"#utility.yul\":1389:1416   */\n  swap2\n  pop\n    /* \"#utility.yul\":1357:1418   */\ntag_165:\n    /* \"#utility.yul\":1464:1466   */\n  0x20\n    /* \"#utility.yul\":1456:1462   */\n  dup3\n    /* \"#utility.yul\":1453:1467   */\n  lt\n    /* \"#utility.yul\":1433:1451   */\n  dup2\n    /* \"#utility.yul\":1430:1468   */\n  sub\n    /* \"#utility.yul\":1427:1588   */\n  tag_166\n  jumpi\n    /* \"#utility.yul\":1510:1520   */\n  0x4e487b71\n    /* \"#utility.yul\":1505:1508   */\n  0xe0\n    /* \"#utility.yul\":1501:1521   */\n  shl\n    /* \"#utility.yul\":1498:1499   */\n  0x00\n    /* \"#utility.yul\":1491:1522   */\n  mstore\n    /* \"#utility.yul\":1545:1549   */\n  0x22\n    /* \"#utility.yul\":1542:1543   */\n  0x04\n    /* \"#utility.yul\":1535:1550   */\n  mstore\n    /* \"#utility.yul\":1573:1577   */\n  0x24\n    /* \"#utility.yul\":1570:1571   */\n  0x00\n    /* \"#utility.yul\":1563:1578   */\n  revert\n    /* \"#utility.yul\":1427:1588   */\ntag_166:\n  pop\n    /* \"#utility.yul\":1214:1594   */\n  swap2\n  swap1\n  pop\n  jump\t// out\n    /* \"#utility.yul\":1725:2243   */\ntag_147:\n    /* \"#utility.yul\":1827:1829   */\n  0x1f\n    /* \"#utility.yul\":1822:1825   */\n  dup3\n    /* \"#utility.yul\":1819:1830   */\n  gt\n    /* \"#utility.yul\":1816:2237   */\n  iszero\n  tag_169\n  jumpi\n    /* \"#utility.yul\":1863:1868   */\n  dup1\n    /* \"#utility.yul\":1860:1861   */\n  0x00\n    /* \"#utility.yul\":1853:1869   */\n  mstore\n    /* \"#utility.yul\":1907:1911   */\n  0x20\n    /* \"#utility.yul\":1904:1905   */\n  0x00\n    /* \"#utility.yul\":1894:1912   */\n  keccak256\n    /* \"#utility.yul\":1977:1979   */\n  0x1f\n    /* \"#utility.yul\":1965:1975   */\n  dup5\n    /* \"#utility.yul\":1961:1980   */\n  add\n    /* \"#utility.yul\":1958:1959   */\n  0x05\n    /* \"#utility.yul\":1954:1981   */\n  shr\n    /* \"#utility.yul\":1948:1952   */\n  dup2\n    /* \"#utility.yul\":1944:1982   */\n  add\n    /* \"#utility.yul\":2013:2017   */\n  0x20\n    /* \"#utility.yul\":2001:2011   */\n  dup6\n    /* \"#utility.yul\":1998:2018   */\n  lt\n    /* \"#utility.yul\":1995:2042   */\n  iszero\n  tag_170\n  jumpi\n  pop\n    /* \"#utility.yul\":2036:2040   */\n  dup1\n    /* \"#utility.yul\":1995:2042   */\ntag_170:\n    /* \"#utility.yul\":2091:2093   */\n  0x1f\n    /* \"#utility.yul\":2086:2089   */\n  dup5\n    /* \"#utility.yul\":2082:2094   */\n  add\n    /* \"#utility.yul\":2079:2080   */\n  0x05\n    /* \"#utility.yul\":2075:2095   */\n  shr\n    /* \"#utility.yul\":2069:2073   */\n  dup3\n    /* \"#utility.yul\":2065:2096   */\n  add\n    /* \"#utility.yul\":2055:2096   */\n  swap2\n  pop\n    /* \"#utility.yul\":2146:2227   */\ntag_171:\n    /* \"#utility.yul\":2164:2166   */\n  dup2\n    /* \"#utility.yul\":2157:2162   */\n  dup2\n    /* \"#utility.yul\":2154:2167   */\n  lt\n    /* \"#utility.yul\":2146:2227   */\n  iszero\n  tag_173\n  jumpi\n    /* \"#utility.yul\":2223:2224   */\n  0x00\n    /* \"#utility.yul\":2209:2225   */\n  dup2\n  sstore\n    /* \"#utility.yul\":2190:2191   */\n  0x01\n    /* \"#utility.yul\":2179:2192   */\n  add\n    /* \"#utility.yul\":2146:2227   */\n  jump(tag_171)\ntag_173:\n    /* \"#utility.yul\":2150:2153   */\n  pop\n  pop\n    /* \"#utility.yul\":1816:2237   */\ntag_169:\n    /* \"#utility.yul\":1725:2243   */\n  pop\n  pop\n  pop\n  jump\t// out\n    /* \"#utility.yul\":2419:3718   */\ntag_19:\n    /* \"#utility.yul\":2539:2549   */\n  dup2\n  mload\n  sub(shl(0x40, 0x01), 0x01)\n    /* \"#utility.yul\":2561:2591   */\n  dup2\n  gt\n    /* \"#utility.yul\":2558:2614   */\n  iszero\n  tag_177\n  jumpi\n    /* \"#utility.yul\":2594:2612   */\n  tag_177\n  tag_144\n  jump\t// in\ntag_177:\n    /* \"#utility.yul\":2623:2720   */\n  tag_178\n    /* \"#utility.yul\":2713:2719   */\n  dup2\n    /* \"#utility.yul\":2673:2711   */\n  tag_179\n    /* \"#utility.yul\":2705:2709   */\n  dup5\n    /* \"#utility.yul\":2699:2710   */\n  sload\n    /* \"#utility.yul\":2673:2711   */\n  tag_145\n  jump\t// in\ntag_179:\n    /* \"#utility.yul\":2667:2671   */\n  dup5\n    /* \"#utility.yul\":2623:2720   */\n  tag_147\n  jump\t// in\ntag_178:\n    /* \"#utility.yul\":2769:2773   */\n  0x20\n    /* \"#utility.yul\":2800:2802   */\n  0x1f\n    /* \"#utility.yul\":2789:2803   */\n  dup3\n  gt\n    /* \"#utility.yul\":2817:2818   */\n  0x01\n    /* \"#utility.yul\":2812:3461   */\n  dup2\n  eq\n  tag_181\n  jumpi\n    /* \"#utility.yul\":3505:3506   */\n  0x00\n    /* \"#utility.yul\":3522:3528   */\n  dup4\n    /* \"#utility.yul\":3519:3608   */\n  iszero\n  tag_182\n  jumpi\n  pop\n    /* \"#utility.yul\":3574:3593   */\n  dup5\n  dup3\n  add\n    /* \"#utility.yul\":3568:3594   */\n  mload\n    /* \"#utility.yul\":3519:3608   */\ntag_182:\n  not(0x00)\n    /* \"#utility.yul\":2376:2377   */\n  0x03\n    /* \"#utility.yul\":2372:2383   */\n  dup6\n  swap1\n  shl\n    /* \"#utility.yul\":2368:2392   */\n  shr\n    /* \"#utility.yul\":2364:2393   */\n  not\n    /* \"#utility.yul\":2354:2394   */\n  and\n    /* \"#utility.yul\":2400:2401   */\n  0x01\n    /* \"#utility.yul\":2396:2407   */\n  dup5\n  swap1\n  shl\n    /* \"#utility.yul\":2351:2408   */\n  or\n    /* \"#utility.yul\":3621:3702   */\n  dup5\n  sstore\n    /* \"#utility.yul\":2782:3712   */\n  jump(tag_173)\n    /* \"#utility.yul\":2812:3461   */\ntag_181:\n    /* \"#utility.yul\":1672:1673   */\n  0x00\n    /* \"#utility.yul\":1665:1679   */\n  dup5\n  dup2\n  mstore\n    /* \"#utility.yul\":1709:1713   */\n  0x20\n    /* \"#utility.yul\":1696:1714   */\n  dup2\n  keccak256\n  not(0x1f)\n    /* \"#utility.yul\":2848:2868   */\n  dup6\n  and\n  swap2\n    /* \"#utility.yul\":2966:3188   */\ntag_185:\n    /* \"#utility.yul\":2980:2987   */\n  dup3\n    /* \"#utility.yul\":2977:2978   */\n  dup2\n    /* \"#utility.yul\":2974:2988   */\n  lt\n    /* \"#utility.yul\":2966:3188   */\n  iszero\n  tag_187\n  jumpi\n    /* \"#utility.yul\":3062:3081   */\n  dup8\n  dup6\n  add\n    /* \"#utility.yul\":3056:3082   */\n  mload\n    /* \"#utility.yul\":3041:3083   */\n  dup3\n  sstore\n    /* \"#utility.yul\":3169:3173   */\n  0x20\n    /* \"#utility.yul\":3154:3174   */\n  swap5\n  dup6\n  add\n  swap5\n    /* \"#utility.yul\":3122:3123   */\n  0x01\n    /* \"#utility.yul\":3110:3124   */\n  swap1\n  swap3\n  add\n  swap2\n    /* \"#utility.yul\":2996:3008   */\n  add\n    /* \"#utility.yul\":2966:3188   */\n  jump(tag_185)\ntag_187:\n    /* \"#utility.yul\":2970:2973   */\n  pop\n    /* \"#utility.yul\":3216:3222   */\n  dup5\n    /* \"#utility.yul\":3207:3214   */\n  dup3\n    /* \"#utility.yul\":3204:3223   */\n  lt\n    /* \"#utility.yul\":3201:3402   */\n  iszero\n  tag_188\n  jumpi\n    /* \"#utility.yul\":3277:3296   */\n  dup7\n  dup5\n  add\n    /* \"#utility.yul\":3271:3297   */\n  mload\n  not(0x00)\n    /* \"#utility.yul\":3360:3361   */\n  0x03\n    /* \"#utility.yul\":3356:3370   */\n  dup8\n  swap1\n  shl\n    /* \"#utility.yul\":3372:3375   */\n  0xf8\n    /* \"#utility.yul\":3352:3376   */\n  and\n    /* \"#utility.yul\":3348:3385   */\n  shr\n    /* \"#utility.yul\":3344:3386   */\n  not\n    /* \"#utility.yul\":3329:3387   */\n  and\n    /* \"#utility.yul\":3314:3388   */\n  dup2\n  sstore\n    /* \"#utility.yul\":3201:3402   */\ntag_188:\n  pop\n  pop\n  pop\n  pop\n    /* \"#utility.yul\":3448:3449   */\n  0x01\n    /* \"#utility.yul\":3432:3446   */\n  swap1\n  dup2\n  shl\n    /* \"#utility.yul\":3428:3450   */\n  add\n    /* \"#utility.yul\":3415:3451   */\n  swap1\n  sstore\n  pop\n    /* \"#utility.yul\":2419:3718   */\n  jump\t// out\n    /* \"#utility.yul\":3723:4011   */\ntag_24:\n    /* \"#utility.yul\":3792:3798   */\n  0x00\n    /* \"#utility.yul\":3845:3847   */\n  0x20\n    /* \"#utility.yul\":3833:3842   */\n  dup3\n    /* \"#utility.yul\":3824:3831   */\n  dup5\n    /* \"#utility.yul\":3820:3843   */\n  sub\n    /* \"#utility.yul\":3816:3848   */\n  slt\n    /* \"#utility.yul\":3813:3865   */\n  iszero\n  tag_190\n  jumpi\n    /* \"#utility.yul\":3861:3862   */\n  0x00\n    /* \"#utility.yul\":3858:3859   */\n  0x00\n    /* \"#utility.yul\":3851:3863   */\n  revert\n    /* \"#utility.yul\":3813:3865   */\ntag_190:\n    /* \"#utility.yul\":3887:3903   */\n  dup2\n  mload\n  sub(shl(0x40, 0x01), 0x01)\n    /* \"#utility.yul\":3932:3962   */\n  dup2\n  and\n    /* \"#utility.yul\":3922:3963   */\n  dup2\n  eq\n    /* \"#utility.yul\":3912:3981   */\n  tag_158\n  jumpi\n    /* \"#utility.yul\":3977:3978   */\n  0x00\n    /* \"#utility.yul\":3974:3975   */\n  0x00\n    /* \"#utility.yul\":3967:3979   */\n  revert\n    /* \"#utility.yul\":4016:4143   */\ntag_149:\n    /* \"#utility.yul\":4077:4087   */\n  0x4e487b71\n    /* \"#utility.yul\":4072:4075   */\n  0xe0\n    /* \"#utility.yul\":4068:4088   */\n  shl\n    /* \"#utility.yul\":4065:4066   */\n  0x00\n    /* \"#utility.yul\":4058:4089   */\n  mstore\n    /* \"#utility.yul\":4108:4112   */\n  0x12\n    /* \"#utility.yul\":4105:4106   */\n  0x04\n    /* \"#utility.yul\":4098:4113   */\n  mstore\n    /* \"#utility.yul\":4132:4136   */\n  0x24\n    /* \"#utility.yul\":4129:4130   */\n  0x00\n    /* \"#utility.yul\":4122:4137   */\n  revert\n    /* \"#utility.yul\":4148:4334   */\ntag_26:\n    /* \"#utility.yul\":4179:4180   */\n  0x00\n  sub(shl(0x40, 0x01), 0x01)\n    /* \"#utility.yul\":4206:4232   */\n  dup4\n  and\n  dup1\n    /* \"#utility.yul\":4241:4278   */\n  tag_195\n  jumpi\n    /* \"#utility.yul\":4258:4276   */\n  tag_195\n  tag_149\n  jump\t// in\ntag_195:\n  sub(shl(0x40, 0x01), 0x01)\n    /* \"#utility.yul\":4296:4322   */\n  swap3\n  swap1\n  swap3\n  and\n    /* \"#utility.yul\":4292:4328   */\n  swap2\n  swap1\n  swap2\n  mod\n  swap3\n    /* \"#utility.yul\":4148:4334   */\n  swap2\n  pop\n  pop\n  jump\t// out\n    /* \"#utility.yul\":4339:4451   */\ntag_31:\n    /* \"#utility.yul\":4371:4372   */\n  0x00\n    /* \"#utility.yul\":4397:4398   */\n  dup3\n    /* \"#utility.yul\":4387:4422   */\n  tag_198\n  jumpi\n    /* \"#utility.yul\":4402:4420   */\n  tag_198\n  tag_149\n  jump\t// in\ntag_198:\n  pop\n    /* \"#utility.yul\":4436:4445   */\n  mod\n  swap1\n    /* \"#utility.yul\":4339:4451   */\n  jump\t// out\n    /* \"#utility.yul\":4456:4583   */\ntag_150:\n    /* \"#utility.yul\":4517:4527   */\n  0x4e487b71\n    /* \"#utility.yul\":4512:4515   */\n  0xe0\n    /* \"#utility.yul\":4508:4528   */\n  shl\n    /* \"#utility.yul\":4505:4506   */\n  0x00\n    /* \"#utility.yul\":4498:4529   */\n  mstore\n    /* \"#utility.yul\":4548:4552   */\n  0x11\n    /* \"#utility.yul\":4545:4546   */\n  0x04\n    /* \"#utility.yul\":4538:4553   */\n  mstore\n    /* \"#utility.yul\":4572:4576   */\n  0x24\n    /* \"#utility.yul\":4569:4570   */\n  0x00\n    /* \"#utility.yul\":4562:4577   */\n  revert\n    /* \"#utility.yul\":4588:4708   */\ntag_33:\n    /* \"#utility.yul\":4628:4629   */\n  0x00\n    /* \"#utility.yul\":4654:4655   */\n  dup3\n    /* \"#utility.yul\":4644:4679   */\n  tag_202\n  jumpi\n    /* \"#utility.yul\":4659:4677   */\n  tag_202\n  tag_149\n  jump\t// in\ntag_202:\n  pop\n    /* \"#utility.yul\":4693:4702   */\n  div\n  swap1\n    /* \"#utility.yul\":4588:4708   */\n  jump\t// out\n    /* \"#utility.yul\":4713:5088   */\ntag_151:\n    /* \"#utility.yul\":4801:4802   */\n  0x01\n    /* \"#utility.yul\":4819:4824   */\n  dup2\n    /* \"#utility.yul\":4833:5082   */\ntag_204:\n    /* \"#utility.yul\":4854:4855   */\n  0x01\n    /* \"#utility.yul\":4844:4852   */\n  dup5\n    /* \"#utility.yul\":4841:4856   */\n  gt\n    /* \"#utility.yul\":4833:5082   */\n  iszero\n  tag_206\n  jumpi\n    /* \"#utility.yul\":4904:4908   */\n  dup1\n    /* \"#utility.yul\":4899:4902   */\n  dup6\n    /* \"#utility.yul\":4895:4909   */\n  div\n    /* \"#utility.yul\":4889:4893   */\n  dup2\n    /* \"#utility.yul\":4886:4910   */\n  gt\n    /* \"#utility.yul\":4883:4933   */\n  iszero\n  tag_208\n  jumpi\n    /* \"#utility.yul\":4913:4931   */\n  tag_208\n  tag_150\n  jump\t// in\ntag_208:\n    /* \"#utility.yul\":4963:4964   */\n  0x01\n    /* \"#utility.yul\":4953:4961   */\n  dup5\n    /* \"#utility.yul\":4949:4965   */\n  and\n    /* \"#utility.yul\":4946:4995   */\n  iszero\n  tag_209\n  jumpi\n    /* \"#utility.yul\":4977:4993   */\n  swap1\n  dup2\n  mul\n  swap1\n    /* \"#utility.yul\":4946:4995   */\ntag_209:\n    /* \"#utility.yul\":5060:5061   */\n  0x01\n    /* \"#utility.yul\":5056:5072   */\n  swap4\n  swap1\n  swap4\n  shr\n  swap3\n    /* \"#utility.yul\":5016:5031   */\n  dup1\n  mul\n    /* \"#utility.yul\":4833:5082   */\n  jump(tag_204)\ntag_206:\n    /* \"#utility.yul\":4713:5088   */\n  swap4\n  pop\n  swap4\n  swap2\n  pop\n  pop\n  jump\t// out\n    /* \"#utility.yul\":5093:5995   */\ntag_152:\n    /* \"#utility.yul\":5142:5147   */\n  0x00\n    /* \"#utility.yul\":5172:5180   */\n  dup3\n    /* \"#utility.yul\":5162:5242   */\n  tag_211\n  jumpi\n  pop\n    /* \"#utility.yul\":5213:5214   */\n  0x01\n    /* \"#utility.yul\":5227:5232   */\n  jump(tag_210)\n    /* \"#utility.yul\":5162:5242   */\ntag_211:\n    /* \"#utility.yul\":5261:5265   */\n  dup2\n    /* \"#utility.yul\":5251:5327   */\n  tag_212\n  jumpi\n  pop\n    /* \"#utility.yul\":5298:5299   */\n  0x00\n    /* \"#utility.yul\":5312:5317   */\n  jump(tag_210)\n    /* \"#utility.yul\":5251:5327   */\ntag_212:\n    /* \"#utility.yul\":5343:5347   */\n  dup2\n    /* \"#utility.yul\":5361:5362   */\n  0x01\n    /* \"#utility.yul\":5356:5415   */\n  dup2\n  eq\n  tag_214\n  jumpi\n    /* \"#utility.yul\":5429:5430   */\n  0x02\n    /* \"#utility.yul\":5424:5598   */\n  dup2\n  eq\n  tag_215\n  jumpi\n    /* \"#utility.yul\":5336:5598   */\n  jump(tag_213)\n    /* \"#utility.yul\":5356:5415   */\ntag_214:\n    /* \"#utility.yul\":5386:5387   */\n  0x01\n    /* \"#utility.yul\":5377:5387   */\n  swap2\n  pop\n    /* \"#utility.yul\":5400:5405   */\n  pop\n  jump(tag_210)\n    /* \"#utility.yul\":5424:5598   */\ntag_215:\n    /* \"#utility.yul\":5461:5464   */\n  0xff\n    /* \"#utility.yul\":5451:5459   */\n  dup5\n    /* \"#utility.yul\":5448:5465   */\n  gt\n    /* \"#utility.yul\":5445:5488   */\n  iszero\n  tag_217\n  jumpi\n    /* \"#utility.yul\":5468:5486   */\n  tag_217\n  tag_150\n  jump\t// in\ntag_217:\n  pop\n  pop\n    /* \"#utility.yul\":5524:5525   */\n  0x01\n    /* \"#utility.yul\":5510:5526   */\n  dup3\n  shl\n    /* \"#utility.yul\":5583:5588   */\n  jump(tag_210)\n    /* \"#utility.yul\":5336:5598   */\ntag_213:\n  pop\n    /* \"#utility.yul\":5682:5684   */\n  0x20\n    /* \"#utility.yul\":5672:5680   */\n  dup4\n    /* \"#utility.yul\":5669:5685   */\n  lt\n    /* \"#utility.yul\":5663:5666   */\n  0x0133\n    /* \"#utility.yul\":5657:5661   */\n  dup4\n    /* \"#utility.yul\":5654:5667   */\n  lt\n    /* \"#utility.yul\":5650:5686   */\n  and\n    /* \"#utility.yul\":5644:5646   */\n  0x4e\n    /* \"#utility.yul\":5634:5642   */\n  dup5\n    /* \"#utility.yul\":5631:5647   */\n  lt\n    /* \"#utility.yul\":5626:5628   */\n  0x0b\n    /* \"#utility.yul\":5620:5624   */\n  dup5\n    /* \"#utility.yul\":5617:5629   */\n  lt\n    /* \"#utility.yul\":5613:5648   */\n  and\n    /* \"#utility.yul\":5610:5687   */\n  or\n    /* \"#utility.yul\":5607:5810   */\n  iszero\n  tag_218\n  jumpi\n  pop\n    /* \"#utility.yul\":5719:5738   */\n  dup2\n  dup2\n  exp\n    /* \"#utility.yul\":5795:5800   */\n  jump(tag_210)\n    /* \"#utility.yul\":5607:5810   */\ntag_218:\n    /* \"#utility.yul\":5842:5884   */\n  tag_219\n  not(0x00)\n    /* \"#utility.yul\":5867:5875   */\n  dup5\n    /* \"#utility.yul\":5861:5865   */\n  dup5\n    /* \"#utility.yul\":5842:5884   */\n  tag_151\n  jump\t// in\ntag_219:\n    /* \"#utility.yul\":5920:5926   */\n  dup1\n    /* \"#utility.yul\":5916:5917   */\n  0x00\n    /* \"#utility.yul\":5912:5918   */\n  not\n    /* \"#utility.yul\":5908:5927   */\n  div\n    /* \"#utility.yul\":5899:5906   */\n  dup3\n    /* \"#utility.yul\":5896:5928   */\n  gt\n    /* \"#utility.yul\":5893:5951   */\n  iszero\n  tag_221\n  jumpi\n    /* \"#utility.yul\":5931:5949   */\n  tag_221\n  tag_150\n  jump\t// in\ntag_221:\n    /* \"#utility.yul\":5969:5989   */\n  mul\n  swap1\n  pop\n    /* \"#utility.yul\":5093:5995   */\ntag_210:\n  swap3\n  swap2\n  pop\n  pop\n  jump\t// out\n    /* \"#utility.yul\":6000:6140   */\ntag_38:\n    /* \"#utility.yul\":6058:6063   */\n  0x00\n    /* \"#utility.yul\":6087:6134   */\n  tag_158\n    /* \"#utility.yul\":6128:6132   */\n  0xff\n    /* \"#utility.yul\":6118:6126   */\n  dup5\n    /* \"#utility.yul\":6114:6133   */\n  and\n    /* \"#utility.yul\":6108:6112   */\n  dup4\n    /* \"#utility.yul\":6087:6134   */\n  tag_152\n  jump\t// in\n    /* \"#utility.yul\":6145:6313   */\ntag_40:\n    /* \"#utility.yul\":6218:6227   */\n  dup1\n  dup3\n  mul\n    /* \"#utility.yul\":6249:6258   */\n  dup2\n  iszero\n    /* \"#utility.yul\":6266:6281   */\n  dup3\n  dup3\n  div\n    /* \"#utility.yul\":6260:6282   */\n  dup5\n  eq\n    /* \"#utility.yul\":6246:6283   */\n  or\n    /* \"#utility.yul\":6236:6307   */\n  tag_210\n  jumpi\n    /* \"#utility.yul\":6287:6305   */\n  tag_210\n  tag_150\n  jump\t// in\n    /* \"#utility.yul\":7600:7725   */\ntag_122:\n    /* \"#utility.yul\":7665:7674   */\n  dup1\n  dup3\n  add\n    /* \"#utility.yul\":7686:7696   */\n  dup1\n  dup3\n  gt\n    /* \"#utility.yul\":7683:7719   */\n  iszero\n  tag_210\n  jumpi\n    /* \"#utility.yul\":7699:7717   */\n  tag_210\n  tag_150\n  jump\t// in\n    /* \"#utility.yul\":8472:8649   */\ntag_153:\n    /* \"solidity/dysnomia/09_siu.sol\":134:1383  contract SIU is DYSNOMIA {... */\n  dataSize(sub_0)\n  dup1\n  dataOffset(sub_0)\n  0x00\n  codecopy\n  0x00\n  return\nstop\n\nsub_0: assembly {\n        /* \"solidity/dysnomia/09_siu.sol\":134:1383  contract SIU is DYSNOMIA {... */\n      mstore(0x40, 0x80)\n      callvalue\n      dup1\n      iszero\n      tag_1\n      jumpi\n      revert(0x00, 0x00)\n    tag_1:\n      pop\n      jumpi(tag_2, lt(calldatasize, 0x04))\n      shr(0xe0, calldataload(0x00))\n      dup1\n      0x6fb7329c\n      gt\n      tag_28\n      jumpi\n      dup1\n      0x9dcbf7ea\n      gt\n      tag_29\n      jumpi\n      dup1\n      0x9dcbf7ea\n      eq\n      tag_21\n      jumpi\n      dup1\n      0xa9059cbb\n      eq\n      tag_22\n      jumpi\n      dup1\n      0xd3dc2a0f\n      eq\n      tag_23\n      jumpi\n      dup1\n      0xd5abeb01\n      eq\n      tag_24\n      jumpi\n      dup1\n      0xdd62ed3e\n      eq\n      tag_25\n      jumpi\n      dup1\n      0xf4e6c93f\n      eq\n      tag_26\n      jumpi\n      dup1\n      0xff762044\n      eq\n      tag_27\n      jumpi\n      revert(0x00, 0x00)\n    tag_29:\n      dup1\n      0x6fb7329c\n      eq\n      tag_15\n      jumpi\n      dup1\n      0x7065cb48\n      eq\n      tag_16\n      jumpi\n      dup1\n      0x70a08231\n      eq\n      tag_17\n      jumpi\n      dup1\n      0x76fade90\n      eq\n      tag_18\n      jumpi\n      dup1\n      0x8da5cb5b\n      eq\n      tag_19\n      jumpi\n      dup1\n      0x95d89b41\n      eq\n      tag_20\n      jumpi\n      revert(0x00, 0x00)\n    tag_28:\n      dup1\n      0x2499a533\n      gt\n      tag_30\n      jumpi\n      dup1\n      0x2499a533\n      eq\n      tag_9\n      jumpi\n      dup1\n      0x27bacc40\n      eq\n      tag_10\n      jumpi\n      dup1\n      0x2b83b1fc\n      eq\n      tag_11\n      jumpi\n      dup1\n      0x313ce567\n      eq\n      tag_12\n      jumpi\n      dup1\n      0x38bf3cfa\n      eq\n      tag_13\n      jumpi\n      dup1\n      0x666e1b39\n      eq\n      tag_14\n      jumpi\n      revert(0x00, 0x00)\n    tag_30:\n      dup1\n      0x01d03071\n      eq\n      tag_3\n      jumpi\n      dup1\n      0x06fdde03\n      eq\n      tag_4\n      jumpi\n      dup1\n      0x095ea7b3\n      eq\n      tag_5\n      jumpi\n      dup1\n      0x18160ddd\n      eq\n      tag_6\n      jumpi\n      dup1\n      0x222838db\n      eq\n      tag_7\n      jumpi\n      dup1\n      0x23b872dd\n      eq\n      tag_8\n      jumpi\n    tag_2:\n      revert(0x00, 0x00)\n        /* \"solidity/dysnomia/09_siu.sol\":899:1381  function Miu(string memory name, string memory symbol) public onlyOwners returns(uint64[3] memory Saat, Bao memory On) {... */\n    tag_3:\n      tag_31\n      tag_32\n      calldatasize\n      0x04\n      tag_33\n      jump\t// in\n    tag_32:\n      tag_34\n      jump\t// in\n    tag_31:\n      mload(0x40)\n      tag_35\n      swap3\n      swap2\n      swap1\n      tag_36\n      jump\t// in\n    tag_35:\n      mload(0x40)\n      dup1\n      swap2\n      sub\n      swap1\n      return\n        /* \"solidity/dysnomia/01_dysnomia.sol\":2959:3049  function name() public view virtual returns (string memory) {... */\n    tag_4:\n      tag_37\n      tag_38\n      jump\t// in\n    tag_37:\n      mload(0x40)\n      tag_35\n      swap2\n      swap1\n      tag_40\n      jump\t// in\n        /* \"solidity/dysnomia/01_dysnomia.sol\":3796:3980  function approve(address spender, uint256 value) public virtual returns (bool) {... */\n    tag_5:\n      tag_41\n      tag_42\n      calldatasize\n      0x04\n      tag_43\n      jump\t// in\n    tag_42:\n      tag_44\n      jump\t// in\n    tag_41:\n      mload(0x40)\n        /* \"#utility.yul\":4731:4745   */\n      swap1\n      iszero\n        /* \"#utility.yul\":4724:4746   */\n      iszero\n        /* \"#utility.yul\":4706:4747   */\n      dup2\n      mstore\n        /* \"#utility.yul\":4694:4696   */\n      0x20\n        /* \"#utility.yul\":4679:4697   */\n      add\n        /* \"solidity/dysnomia/01_dysnomia.sol\":3796:3980  function approve(address spender, uint256 value) public virtual returns (bool) {... */\n      tag_35\n        /* \"#utility.yul\":4566:4753   */\n      jump\n        /* \"solidity/dysnomia/01_dysnomia.sol\":3243:3340  function totalSupply() public view virtual returns (uint256) {... */\n    tag_6:\n        /* \"solidity/dysnomia/01_dysnomia.sol\":3321:3333  _totalSupply */\n      sload(0x03)\n        /* \"solidity/dysnomia/01_dysnomia.sol\":3243:3340  function totalSupply() public view virtual returns (uint256) {... */\n    tag_47:\n      mload(0x40)\n        /* \"#utility.yul\":4904:4929   */\n      swap1\n      dup2\n      mstore\n        /* \"#utility.yul\":4892:4894   */\n      0x20\n        /* \"#utility.yul\":4877:4895   */\n      add\n        /* \"solidity/dysnomia/01_dysnomia.sol\":3243:3340  function totalSupply() public view virtual returns (uint256) {... */\n      tag_35\n        /* \"#utility.yul\":4758:4935   */\n      jump\n        /* \"solidity/dysnomia/01_dysnomia.sol\":2486:2953  function Redeem(address _t, uint256 _a) public {... */\n    tag_7:\n      tag_51\n      tag_52\n      calldatasize\n      0x04\n      tag_43\n      jump\t// in\n    tag_52:\n      tag_53\n      jump\t// in\n    tag_51:\n      stop\n        /* \"solidity/dysnomia/01_dysnomia.sol\":3986:4228  function transferFrom(address from, address to, uint256 value) public virtual returns (bool) {... */\n    tag_8:\n      tag_41\n      tag_55\n      calldatasize\n      0x04\n      tag_56\n      jump\t// in\n    tag_55:\n      tag_57\n      jump\t// in\n        /* \"solidity/dysnomia/01_dysnomia.sol\":2026:2480  function Purchase(address _t, uint256 _a) public {... */\n    tag_9:\n      tag_51\n      tag_60\n      calldatasize\n      0x04\n      tag_43\n      jump\t// in\n    tag_60:\n      tag_61\n      jump\t// in\n        /* \"solidity/dysnomia/09_siu.sol\":783:893  function Aura() public view returns (uint64) {... */\n    tag_10:\n      tag_62\n      tag_63\n      jump\t// in\n    tag_62:\n      mload(0x40)\n      sub(shl(0x40, 0x01), 0x01)\n        /* \"#utility.yul\":5615:5646   */\n      swap1\n      swap2\n      and\n        /* \"#utility.yul\":5597:5647   */\n      dup2\n      mstore\n        /* \"#utility.yul\":5585:5587   */\n      0x20\n        /* \"#utility.yul\":5570:5588   */\n      add\n        /* \"solidity/dysnomia/09_siu.sol\":783:893  function Aura() public view returns (uint64) {... */\n      tag_35\n        /* \"#utility.yul\":5453:5653   */\n      jump\n        /* \"solidity/dysnomia/01_dysnomia.sol\":1871:1975  function GetMarketRate(address _a) public view returns(uint256) {... */\n    tag_11:\n      tag_47\n      tag_67\n      calldatasize\n      0x04\n      tag_68\n      jump\t// in\n    tag_67:\n      sub(shl(0xa0, 0x01), 0x01)\n        /* \"solidity/dysnomia/01_dysnomia.sol\":1952:1968  _marketRates[_a] */\n      and\n        /* \"solidity/dysnomia/01_dysnomia.sol\":1926:1933  uint256 */\n      0x00\n        /* \"solidity/dysnomia/01_dysnomia.sol\":1952:1968  _marketRates[_a] */\n      swap1\n      dup2\n      mstore\n        /* \"solidity/dysnomia/01_dysnomia.sol\":1952:1964  _marketRates */\n      0x08\n        /* \"solidity/dysnomia/01_dysnomia.sol\":1952:1968  _marketRates[_a] */\n      0x20\n      mstore\n      0x40\n      swap1\n      keccak256\n      sload\n      swap1\n        /* \"solidity/dysnomia/01_dysnomia.sol\":1871:1975  function GetMarketRate(address _a) public view returns(uint256) {... */\n      jump\n        /* \"solidity/dysnomia/01_dysnomia.sol\":3155:3237  function decimals() public view virtual returns (uint8) {... */\n    tag_12:\n      mload(0x40)\n        /* \"solidity/dysnomia/01_dysnomia.sol\":3228:3230  18 */\n      0x12\n        /* \"#utility.yul\":6052:6088   */\n      dup2\n      mstore\n        /* \"#utility.yul\":6040:6042   */\n      0x20\n        /* \"#utility.yul\":6025:6043   */\n      add\n        /* \"solidity/dysnomia/01_dysnomia.sol\":3155:3237  function decimals() public view virtual returns (uint8) {... */\n      tag_35\n        /* \"#utility.yul\":5910:6094   */\n      jump\n        /* \"solidity/dysnomia/lib/multiownable.sol\":1168:1289  function renounceOwnership(address toRemove) public virtual onlyOwners {... */\n    tag_13:\n      tag_51\n      tag_76\n      calldatasize\n      0x04\n      tag_68\n      jump\t// in\n    tag_76:\n      tag_77\n      jump\t// in\n        /* \"solidity/dysnomia/lib/multiownable.sol\":847:954  function owner(address cOwner) public view virtual returns (bool) {... */\n    tag_14:\n      tag_41\n      tag_79\n      calldatasize\n      0x04\n      tag_68\n      jump\t// in\n    tag_79:\n      tag_80\n      jump\t// in\n        /* \"solidity/dysnomia/01_dysnomia.sol\":839:861  atropaMath public Xiao */\n    tag_15:\n      sload(0x06)\n      tag_82\n      swap1\n      sub(shl(0xa0, 0x01), 0x01)\n      and\n      dup2\n      jump\n    tag_82:\n      mload(0x40)\n      tag_35\n      swap2\n      swap1\n      tag_85\n      jump\t// in\n        /* \"solidity/dysnomia/lib/multiownable.sol\":1295:1532  function addOwner(address newOwner) public virtual onlyOwners {... */\n    tag_16:\n      tag_51\n      tag_87\n      calldatasize\n      0x04\n      tag_68\n      jump\t// in\n    tag_87:\n      tag_88\n      jump\t// in\n        /* \"solidity/dysnomia/01_dysnomia.sol\":3346:3462  function balanceOf(address account) public view virtual returns (uint256) {... */\n    tag_17:\n      tag_47\n      tag_90\n      calldatasize\n      0x04\n      tag_68\n      jump\t// in\n    tag_90:\n      sub(shl(0xa0, 0x01), 0x01)\n        /* \"solidity/dysnomia/01_dysnomia.sol\":3437:3455  _balances[account] */\n      and\n        /* \"solidity/dysnomia/01_dysnomia.sol\":3411:3418  uint256 */\n      0x00\n        /* \"solidity/dysnomia/01_dysnomia.sol\":3437:3455  _balances[account] */\n      swap1\n      dup2\n      mstore\n        /* \"solidity/dysnomia/01_dysnomia.sol\":3437:3446  _balances */\n      0x01\n        /* \"solidity/dysnomia/01_dysnomia.sol\":3437:3455  _balances[account] */\n      0x20\n      mstore\n      0x40\n      swap1\n      keccak256\n      sload\n      swap1\n        /* \"solidity/dysnomia/01_dysnomia.sol\":3346:3462  function balanceOf(address account) public view virtual returns (uint256) {... */\n      jump\n        /* \"solidity/dysnomia/09_siu.sol\":207:222  YANG public Psi */\n    tag_18:\n      sload(0x09)\n      tag_82\n      swap1\n      sub(shl(0xa0, 0x01), 0x01)\n      and\n      dup2\n      jump\n        /* \"solidity/dysnomia/lib/multiownable.sol\":747:841  function owner() external view virtual returns (address) {... */\n    tag_19:\n        /* \"solidity/dysnomia/lib/multiownable.sol\":829:833  this */\n      address\n        /* \"solidity/dysnomia/lib/multiownable.sol\":747:841  function owner() external view virtual returns (address) {... */\n      jump(tag_82)\n        /* \"solidity/dysnomia/01_dysnomia.sol\":3055:3149  function symbol() public view virtual returns (string memory) {... */\n    tag_20:\n      tag_37\n      tag_102\n      jump\t// in\n        /* \"solidity/dysnomia/01_dysnomia.sol\":1387:1532  function Rename(string memory newName, string memory newSymbol) public onlyOwners {... */\n    tag_21:\n      tag_51\n      tag_105\n      calldatasize\n      0x04\n      tag_33\n      jump\t// in\n    tag_105:\n      tag_106\n      jump\t// in\n        /* \"solidity/dysnomia/01_dysnomia.sol\":3468:3644  function transfer(address to, uint256 value) public virtual returns (bool) {... */\n    tag_22:\n      tag_41\n      tag_108\n      calldatasize\n      0x04\n      tag_43\n      jump\t// in\n    tag_108:\n      tag_109\n      jump\t// in\n        /* \"solidity/dysnomia/01_dysnomia.sol\":780:833  uint64 constant public MotzkinPrime = 953467954114363 */\n    tag_23:\n      tag_62\n        /* \"solidity/dysnomia/01_dysnomia.sol\":818:833  953467954114363 */\n      0x03632c8eb5af3b\n        /* \"solidity/dysnomia/01_dysnomia.sol\":780:833  uint64 constant public MotzkinPrime = 953467954114363 */\n      dup2\n      jump\n        /* \"solidity/dysnomia/01_dysnomia.sol\":867:891  uint256 public maxSupply */\n    tag_24:\n      tag_47\n      sload(0x07)\n      dup2\n      jump\n        /* \"solidity/dysnomia/01_dysnomia.sol\":3650:3790  function allowance(address owner, address spender) public view virtual returns (uint256) {... */\n    tag_25:\n      tag_47\n      tag_118\n      calldatasize\n      0x04\n      tag_119\n      jump\t// in\n    tag_118:\n      tag_120\n      jump\t// in\n        /* \"solidity/dysnomia/01_dysnomia.sol\":1538:1606  function mintToCap() public onlyOwners {... */\n    tag_26:\n      tag_51\n      tag_123\n      jump\t// in\n        /* \"solidity/dysnomia/09_siu.sol\":165:200  string public constant Type = \"SIU\" */\n    tag_27:\n      tag_37\n      mload(0x40)\n      dup1\n      0x40\n      add\n      0x40\n      mstore\n      dup1\n      0x03\n      dup2\n      mstore\n      0x20\n      add\n      shl(0xe8, 0x534955)\n      dup2\n      mstore\n      pop\n      dup2\n      jump\n        /* \"solidity/dysnomia/09_siu.sol\":899:1381  function Miu(string memory name, string memory symbol) public onlyOwners returns(uint64[3] memory Saat, Bao memory On) {... */\n    tag_34:\n        /* \"solidity/dysnomia/09_siu.sol\":980:1001  uint64[3] memory Saat */\n      tag_127\n      tag_128\n      jump\t// in\n    tag_127:\n      0x40\n      dup1\n      mload\n      0x0100\n      dup2\n      add\n      dup3\n      mstore\n      0x00\n      dup1\n      dup3\n      mstore\n      0x20\n      dup3\n      add\n      dup2\n      swap1\n      mstore\n      swap2\n      dup2\n      add\n      dup3\n      swap1\n      mstore\n      0x60\n      dup2\n      add\n      dup3\n      swap1\n      mstore\n      0x80\n      dup2\n      add\n      dup3\n      swap1\n      mstore\n      0xa0\n      dup2\n      add\n      dup3\n      swap1\n      mstore\n      0xc0\n      dup2\n      add\n      dup3\n      swap1\n      mstore\n      0xe0\n      dup2\n      add\n      swap2\n      swap1\n      swap2\n      mstore\n        /* \"solidity/dysnomia/lib/multiownable.sol\":710:723  _checkOwner() */\n      tag_132\n        /* \"solidity/dysnomia/lib/multiownable.sol\":710:721  _checkOwner */\n      tag_133\n        /* \"solidity/dysnomia/lib/multiownable.sol\":710:723  _checkOwner() */\n      jump\t// in\n    tag_132:\n        /* \"solidity/dysnomia/09_siu.sol\":1038:1041  Psi */\n      sload(0x09)\n        /* \"solidity/dysnomia/09_siu.sol\":1038:1049  Psi.Pole(2) */\n      mload(0x40)\n      shl(0xe0, 0x591257c5)\n      dup2\n      mstore\n        /* \"solidity/dysnomia/09_siu.sol\":1047:1048  2 */\n      0x02\n        /* \"solidity/dysnomia/09_siu.sol\":1038:1049  Psi.Pole(2) */\n      0x04\n      dup3\n      add\n        /* \"#utility.yul\":4904:4929   */\n      mstore\n      sub(shl(0xa0, 0x01), 0x01)\n        /* \"solidity/dysnomia/09_siu.sol\":1038:1041  Psi */\n      swap1\n      swap2\n      and\n      swap1\n        /* \"solidity/dysnomia/09_siu.sol\":1038:1046  Psi.Pole */\n      0x591257c5\n      swap1\n        /* \"#utility.yul\":4877:4895   */\n      0x24\n      add\n        /* \"solidity/dysnomia/09_siu.sol\":1038:1049  Psi.Pole(2) */\n      0x20\n      mload(0x40)\n      dup1\n      dup4\n      sub\n      dup2\n      0x00\n      dup8\n      gas\n      call\n      iszero\n      dup1\n      iszero\n      tag_138\n      jumpi\n      returndatacopy(0x00, 0x00, returndatasize)\n      revert(0x00, returndatasize)\n    tag_138:\n      pop\n      pop\n      pop\n      pop\n      mload(0x40)\n      returndatasize\n      not(0x1f)\n      0x1f\n      dup3\n      add\n      and\n      dup3\n      add\n      dup1\n      0x40\n      mstore\n      pop\n      dup2\n      add\n      swap1\n      tag_139\n      swap2\n      swap1\n      tag_140\n      jump\t// in\n    tag_139:\n      sub(shl(0x40, 0x01), 0x01)\n        /* \"solidity/dysnomia/09_siu.sol\":1028:1049  Saat[0] = Psi.Pole(2) */\n      and\n      dup3\n      mstore\n        /* \"solidity/dysnomia/09_siu.sol\":1069:1073  Xiao */\n      sload(0x06)\n        /* \"solidity/dysnomia/09_siu.sol\":1069:1082  Xiao.Random() */\n      0x40\n      dup1\n      mload\n      shl(0xe0, 0x604a6fa9)\n      dup2\n      mstore\n      swap1\n      mload\n      sub(shl(0xa0, 0x01), 0x01)\n        /* \"solidity/dysnomia/09_siu.sol\":1069:1073  Xiao */\n      swap1\n      swap3\n      and\n      swap2\n        /* \"solidity/dysnomia/09_siu.sol\":1069:1080  Xiao.Random */\n      0x604a6fa9\n      swap2\n        /* \"solidity/dysnomia/09_siu.sol\":1069:1082  Xiao.Random() */\n      0x04\n      dup1\n      dup3\n      add\n      swap3\n        /* \"solidity/dysnomia/09_siu.sol\":1028:1035  Saat[0] */\n      0x20\n      swap3\n        /* \"solidity/dysnomia/09_siu.sol\":1069:1082  Xiao.Random() */\n      swap1\n      swap2\n      swap1\n      dup3\n      swap1\n      sub\n      add\n      dup2\n        /* \"solidity/dysnomia/09_siu.sol\":1033:1034  0 */\n      0x00\n        /* \"solidity/dysnomia/09_siu.sol\":1069:1073  Xiao */\n      dup8\n        /* \"solidity/dysnomia/09_siu.sol\":1069:1082  Xiao.Random() */\n      gas\n      call\n      iszero\n      dup1\n      iszero\n      tag_145\n      jumpi\n      returndatacopy(0x00, 0x00, returndatasize)\n      revert(0x00, returndatasize)\n    tag_145:\n      pop\n      pop\n      pop\n      pop\n      mload(0x40)\n      returndatasize\n      not(0x1f)\n      0x1f\n      dup3\n      add\n      and\n      dup3\n      add\n      dup1\n      0x40\n      mstore\n      pop\n      dup2\n      add\n      swap1\n      tag_146\n      swap2\n      swap1\n      tag_140\n      jump\t// in\n    tag_146:\n      sub(shl(0x40, 0x01), 0x01)\n        /* \"solidity/dysnomia/09_siu.sol\":1059:1082  Saat[1] = Xiao.Random() */\n      and\n        /* \"solidity/dysnomia/09_siu.sol\":1059:1066  Saat[1] */\n      0x20\n      dup4\n      add\n        /* \"solidity/dysnomia/09_siu.sol\":1059:1082  Saat[1] = Xiao.Random() */\n      mstore\n        /* \"solidity/dysnomia/09_siu.sol\":1102:1108  Aura() */\n      tag_149\n        /* \"solidity/dysnomia/09_siu.sol\":1102:1106  Aura */\n      tag_63\n        /* \"solidity/dysnomia/09_siu.sol\":1102:1108  Aura() */\n      jump\t// in\n    tag_149:\n      sub(shl(0x40, 0x01), 0x01)\n        /* \"solidity/dysnomia/09_siu.sol\":1092:1108  Saat[2] = Aura() */\n      and\n        /* \"solidity/dysnomia/09_siu.sol\":1092:1099  Saat[2] */\n      0x40\n      dup1\n      dup5\n      add\n        /* \"solidity/dysnomia/09_siu.sol\":1092:1108  Saat[2] = Aura() */\n      swap2\n      swap1\n      swap2\n      mstore\n        /* \"solidity/dysnomia/09_siu.sol\":1124:1127  Psi */\n      sload(0x09)\n        /* \"solidity/dysnomia/09_siu.sol\":1124:1132  Psi.Mu() */\n      dup2\n      mload\n      shl(0xe3, 0x16a12a2d)\n      dup2\n      mstore\n      swap2\n      mload\n      sub(shl(0xa0, 0x01), 0x01)\n        /* \"solidity/dysnomia/09_siu.sol\":1124:1127  Psi */\n      swap1\n      swap2\n      and\n      swap2\n        /* \"solidity/dysnomia/09_siu.sol\":1124:1130  Psi.Mu */\n      0xb5095168\n      swap2\n        /* \"solidity/dysnomia/09_siu.sol\":1124:1132  Psi.Mu() */\n      0x04\n      dup1\n      dup4\n      add\n      swap3\n        /* \"solidity/dysnomia/09_siu.sol\":1092:1099  Saat[2] */\n      0x20\n      swap3\n        /* \"solidity/dysnomia/09_siu.sol\":1124:1132  Psi.Mu() */\n      swap2\n      swap1\n      dup3\n      swap1\n      sub\n      add\n      dup2\n        /* \"solidity/dysnomia/09_siu.sol\":1124:1127  Psi */\n      0x00\n      dup8\n        /* \"solidity/dysnomia/09_siu.sol\":1124:1132  Psi.Mu() */\n      gas\n      call\n      iszero\n      dup1\n      iszero\n      tag_153\n      jumpi\n      returndatacopy(0x00, 0x00, returndatasize)\n      revert(0x00, returndatasize)\n    tag_153:\n      pop\n      pop\n      pop\n      pop\n      mload(0x40)\n      returndatasize\n      not(0x1f)\n      0x1f\n      dup3\n      add\n      and\n      dup3\n      add\n      dup1\n      0x40\n      mstore\n      pop\n      dup2\n      add\n      swap1\n      tag_154\n      swap2\n      swap1\n      tag_155\n      jump\t// in\n    tag_154:\n      sub(shl(0xa0, 0x01), 0x01)\n        /* \"solidity/dysnomia/09_siu.sol\":1124:1136  Psi.Mu().Tau */\n      and\n      0x4cde872d\n        /* \"solidity/dysnomia/09_siu.sol\":1124:1138  Psi.Mu().Tau() */\n      mload(0x40)\n      dup2\n      0xffffffff\n      and\n      0xe0\n      shl\n      dup2\n      mstore\n      0x04\n      add\n      0x20\n      mload(0x40)\n      dup1\n      dup4\n      sub\n      dup2\n      0x00\n      dup8\n      gas\n      call\n      iszero\n      dup1\n      iszero\n      tag_157\n      jumpi\n      returndatacopy(0x00, 0x00, returndatasize)\n      revert(0x00, returndatasize)\n    tag_157:\n      pop\n      pop\n      pop\n      pop\n      mload(0x40)\n      returndatasize\n      not(0x1f)\n      0x1f\n      dup3\n      add\n      and\n      dup3\n      add\n      dup1\n      0x40\n      mstore\n      pop\n      dup2\n      add\n      swap1\n      tag_158\n      swap2\n      swap1\n      tag_155\n      jump\t// in\n    tag_158:\n      sub(shl(0xa0, 0x01), 0x01)\n        /* \"solidity/dysnomia/09_siu.sol\":1124:1146  Psi.Mu().Tau().Upsilon */\n      and\n      0x140c2fb5\n        /* \"solidity/dysnomia/09_siu.sol\":1124:1148  Psi.Mu().Tau().Upsilon() */\n      mload(0x40)\n      dup2\n      0xffffffff\n      and\n      0xe0\n      shl\n      dup2\n      mstore\n      0x04\n      add\n      0x20\n      mload(0x40)\n      dup1\n      dup4\n      sub\n      dup2\n      0x00\n      dup8\n      gas\n      call\n      iszero\n      dup1\n      iszero\n      tag_161\n      jumpi\n      returndatacopy(0x00, 0x00, returndatasize)\n      revert(0x00, returndatasize)\n    tag_161:\n      pop\n      pop\n      pop\n      pop\n      mload(0x40)\n      returndatasize\n      not(0x1f)\n      0x1f\n      dup3\n      add\n      and\n      dup3\n      add\n      dup1\n      0x40\n      mstore\n      pop\n      dup2\n      add\n      swap1\n      tag_162\n      swap2\n      swap1\n      tag_155\n      jump\t// in\n    tag_162:\n        /* \"solidity/dysnomia/09_siu.sol\":1167:1174  Saat[0] */\n      dup3\n      mload\n        /* \"solidity/dysnomia/09_siu.sol\":1176:1183  Saat[2] */\n      0x40\n      dup1\n      dup6\n      add\n      mload\n        /* \"solidity/dysnomia/09_siu.sol\":1167:1174  Saat[0] */\n      0x20\n        /* \"solidity/dysnomia/09_siu.sol\":1185:1192  Saat[1] */\n      dup7\n      add\n      mload\n        /* \"solidity/dysnomia/09_siu.sol\":1124:1193  Psi.Mu().Tau().Upsilon().Mau(name, symbol, Saat[0], Saat[2], Saat[1]) */\n      swap2\n      mload\n      shl(0xe0, 0xc94c3f85)\n      dup2\n      mstore\n      sub(shl(0xa0, 0x01), 0x01)\n        /* \"solidity/dysnomia/09_siu.sol\":1124:1152  Psi.Mu().Tau().Upsilon().Mau */\n      swap5\n      swap1\n      swap5\n      and\n      swap4\n      0xc94c3f85\n      swap4\n        /* \"solidity/dysnomia/09_siu.sol\":1124:1193  Psi.Mu().Tau().Upsilon().Mau(name, symbol, Saat[0], Saat[2], Saat[1]) */\n      tag_170\n      swap4\n        /* \"solidity/dysnomia/09_siu.sol\":1153:1157  name */\n      dup11\n      swap4\n        /* \"solidity/dysnomia/09_siu.sol\":1159:1165  symbol */\n      dup11\n      swap4\n        /* \"solidity/dysnomia/09_siu.sol\":1176:1183  Saat[2] */\n      swap1\n      swap2\n        /* \"solidity/dysnomia/09_siu.sol\":1185:1192  Saat[1] */\n      swap1\n        /* \"solidity/dysnomia/09_siu.sol\":1124:1193  Psi.Mu().Tau().Upsilon().Mau(name, symbol, Saat[0], Saat[2], Saat[1]) */\n      0x04\n      add\n      tag_171\n      jump\t// in\n    tag_170:\n      0x0100\n      mload(0x40)\n      dup1\n      dup4\n      sub\n      dup2\n      0x00\n      dup8\n      gas\n      call\n      iszero\n      dup1\n      iszero\n      tag_173\n      jumpi\n      returndatacopy(0x00, 0x00, returndatasize)\n      revert(0x00, returndatasize)\n    tag_173:\n      pop\n      pop\n      pop\n      pop\n      mload(0x40)\n      returndatasize\n      not(0x1f)\n      0x1f\n      dup3\n      add\n      and\n      dup3\n      add\n      dup1\n      0x40\n      mstore\n      pop\n      dup2\n      add\n      swap1\n      tag_174\n      swap2\n      swap1\n      tag_175\n      jump\t// in\n    tag_174:\n        /* \"solidity/dysnomia/09_siu.sol\":1119:1193  On = Psi.Mu().Tau().Upsilon().Mau(name, symbol, Saat[0], Saat[2], Saat[1]) */\n      swap1\n      pop\n        /* \"solidity/dysnomia/09_siu.sol\":1212:1214  On */\n      dup1\n        /* \"solidity/dysnomia/09_siu.sol\":1212:1219  On.Shio */\n      0x80\n      add\n      mload\n      sub(shl(0xa0, 0x01), 0x01)\n        /* \"solidity/dysnomia/09_siu.sol\":1212:1224  On.Shio.Cone */\n      and\n      0x4970204f\n        /* \"solidity/dysnomia/09_siu.sol\":1212:1226  On.Shio.Cone() */\n      mload(0x40)\n      dup2\n      0xffffffff\n      and\n      0xe0\n      shl\n      dup2\n      mstore\n      0x04\n      add\n      0x20\n      mload(0x40)\n      dup1\n      dup4\n      sub\n      dup2\n      dup7\n      gas\n      staticcall\n      iszero\n      dup1\n      iszero\n      tag_177\n      jumpi\n      returndatacopy(0x00, 0x00, returndatasize)\n      revert(0x00, returndatasize)\n    tag_177:\n      pop\n      pop\n      pop\n      pop\n      mload(0x40)\n      returndatasize\n      not(0x1f)\n      0x1f\n      dup3\n      add\n      and\n      dup3\n      add\n      dup1\n      0x40\n      mstore\n      pop\n      dup2\n      add\n      swap1\n      tag_178\n      swap2\n      swap1\n      tag_155\n      jump\t// in\n    tag_178:\n      sub(shl(0xa0, 0x01), 0x01)\n        /* \"solidity/dysnomia/09_siu.sol\":1212:1244  On.Shio.Cone().renounceOwnership */\n      and\n      0x38bf3cfa\n        /* \"solidity/dysnomia/09_siu.sol\":1245:1254  tx.origin */\n      origin\n        /* \"solidity/dysnomia/09_siu.sol\":1212:1255  On.Shio.Cone().renounceOwnership(tx.origin) */\n      mload(0x40)\n      dup3\n      0xffffffff\n      and\n      0xe0\n      shl\n      dup2\n      mstore\n      0x04\n      add\n      tag_180\n      swap2\n      swap1\n      tag_85\n      jump\t// in\n    tag_180:\n      0x00\n      mload(0x40)\n      dup1\n      dup4\n      sub\n      dup2\n      0x00\n      dup8\n      dup1\n      extcodesize\n      iszero\n      dup1\n      iszero\n      tag_181\n      jumpi\n      revert(0x00, 0x00)\n    tag_181:\n      pop\n      gas\n      call\n      iszero\n      dup1\n      iszero\n      tag_183\n      jumpi\n      returndatacopy(0x00, 0x00, returndatasize)\n      revert(0x00, returndatasize)\n    tag_183:\n      pop\n      pop\n      pop\n      pop\n        /* \"solidity/dysnomia/09_siu.sol\":1265:1325  AddMarketRate(address(On.Shio.Cone()), 1 * 10 ** decimals()) */\n      tag_184\n        /* \"solidity/dysnomia/09_siu.sol\":1287:1289  On */\n      dup2\n        /* \"solidity/dysnomia/09_siu.sol\":1287:1294  On.Shio */\n      0x80\n      add\n      mload\n      sub(shl(0xa0, 0x01), 0x01)\n        /* \"solidity/dysnomia/09_siu.sol\":1287:1299  On.Shio.Cone */\n      and\n      0x4970204f\n        /* \"solidity/dysnomia/09_siu.sol\":1287:1301  On.Shio.Cone() */\n      mload(0x40)\n      dup2\n      0xffffffff\n      and\n      0xe0\n      shl\n      dup2\n      mstore\n      0x04\n      add\n      0x20\n      mload(0x40)\n      dup1\n      dup4\n      sub\n      dup2\n      dup7\n      gas\n      staticcall\n      iszero\n      dup1\n      iszero\n      tag_186\n      jumpi\n      returndatacopy(0x00, 0x00, returndatasize)\n      revert(0x00, returndatasize)\n    tag_186:\n      pop\n      pop\n      pop\n      pop\n      mload(0x40)\n      returndatasize\n      not(0x1f)\n      0x1f\n      dup3\n      add\n      and\n      dup3\n      add\n      dup1\n      0x40\n      mstore\n      pop\n      dup2\n      add\n      swap1\n      tag_187\n      swap2\n      swap1\n      tag_155\n      jump\t// in\n    tag_187:\n        /* \"solidity/dysnomia/09_siu.sol\":1308:1324  10 ** decimals() */\n      tag_189\n        /* \"solidity/dysnomia/01_dysnomia.sol\":3228:3230  18 */\n      0x12\n        /* \"solidity/dysnomia/09_siu.sol\":1308:1310  10 */\n      0x0a\n        /* \"solidity/dysnomia/09_siu.sol\":1308:1324  10 ** decimals() */\n      tag_190\n      jump\t// in\n    tag_189:\n        /* \"solidity/dysnomia/09_siu.sol\":1304:1324  1 * 10 ** decimals() */\n      tag_191\n      swap1\n        /* \"solidity/dysnomia/09_siu.sol\":1304:1305  1 */\n      0x01\n        /* \"solidity/dysnomia/09_siu.sol\":1304:1324  1 * 10 ** decimals() */\n      tag_192\n      jump\t// in\n    tag_191:\n      sub(shl(0xa0, 0x01), 0x01)\n        /* \"solidity/dysnomia/01_dysnomia.sol\":1837:1853  _marketRates[_a] */\n      swap1\n      swap2\n      and\n      0x00\n      swap1\n      dup2\n      mstore\n        /* \"solidity/dysnomia/01_dysnomia.sol\":1837:1849  _marketRates */\n      0x08\n        /* \"solidity/dysnomia/01_dysnomia.sol\":1837:1853  _marketRates[_a] */\n      0x20\n      mstore\n      0x40\n      swap1\n      keccak256\n        /* \"solidity/dysnomia/01_dysnomia.sol\":1837:1858  _marketRates[_a] = _r */\n      sstore\n        /* \"solidity/dysnomia/01_dysnomia.sol\":1771:1865  function AddMarketRate(address _a, uint256 _r) internal {... */\n      jump\n        /* \"solidity/dysnomia/09_siu.sol\":1265:1325  AddMarketRate(address(On.Shio.Cone()), 1 * 10 ** decimals()) */\n    tag_184:\n        /* \"solidity/dysnomia/09_siu.sol\":1335:1347  _mintToCap() */\n      tag_194\n        /* \"solidity/dysnomia/09_siu.sol\":1335:1345  _mintToCap */\n      tag_195\n        /* \"solidity/dysnomia/09_siu.sol\":1335:1347  _mintToCap() */\n      jump\t// in\n    tag_194:\n        /* \"solidity/dysnomia/09_siu.sol\":899:1381  function Miu(string memory name, string memory symbol) public onlyOwners returns(uint64[3] memory Saat, Bao memory On) {... */\n      swap3\n      pop\n      swap3\n      swap1\n      pop\n      jump\t// out\n        /* \"solidity/dysnomia/01_dysnomia.sol\":2959:3049  function name() public view virtual returns (string memory) {... */\n    tag_38:\n        /* \"solidity/dysnomia/01_dysnomia.sol\":3004:3017  string memory */\n      0x60\n        /* \"solidity/dysnomia/01_dysnomia.sol\":3036:3042  __name */\n      0x04\n        /* \"solidity/dysnomia/01_dysnomia.sol\":3029:3042  return __name */\n      dup1\n      sload\n      tag_197\n      swap1\n      tag_198\n      jump\t// in\n    tag_197:\n      dup1\n      0x1f\n      add\n      0x20\n      dup1\n      swap2\n      div\n      mul\n      0x20\n      add\n      mload(0x40)\n      swap1\n      dup2\n      add\n      0x40\n      mstore\n      dup1\n      swap3\n      swap2\n      swap1\n      dup2\n      dup2\n      mstore\n      0x20\n      add\n      dup3\n      dup1\n      sload\n      tag_199\n      swap1\n      tag_198\n      jump\t// in\n    tag_199:\n      dup1\n      iszero\n      tag_200\n      jumpi\n      dup1\n      0x1f\n      lt\n      tag_201\n      jumpi\n      0x0100\n      dup1\n      dup4\n      sload\n      div\n      mul\n      dup4\n      mstore\n      swap2\n      0x20\n      add\n      swap2\n      jump(tag_200)\n    tag_201:\n      dup3\n      add\n      swap2\n      swap1\n      0x00\n      mstore\n      keccak256(0x00, 0x20)\n      swap1\n    tag_202:\n      dup2\n      sload\n      dup2\n      mstore\n      swap1\n      0x01\n      add\n      swap1\n      0x20\n      add\n      dup1\n      dup4\n      gt\n      tag_202\n      jumpi\n      dup3\n      swap1\n      sub\n      0x1f\n      and\n      dup3\n      add\n      swap2\n    tag_200:\n      pop\n      pop\n      pop\n      pop\n      pop\n      swap1\n      pop\n        /* \"solidity/dysnomia/01_dysnomia.sol\":2959:3049  function name() public view virtual returns (string memory) {... */\n      swap1\n      jump\t// out\n        /* \"solidity/dysnomia/01_dysnomia.sol\":3796:3980  function approve(address spender, uint256 value) public virtual returns (bool) {... */\n    tag_44:\n        /* \"solidity/dysnomia/01_dysnomia.sol\":3869:3873  bool */\n      0x00\n        /* \"solidity/dysnomia/01_dysnomia.sol\":3901:3911  msg.sender */\n      caller\n        /* \"solidity/dysnomia/01_dysnomia.sol\":3921:3952  _approve(owner, spender, value) */\n      tag_204\n        /* \"solidity/dysnomia/01_dysnomia.sol\":3901:3911  msg.sender */\n      dup2\n        /* \"solidity/dysnomia/01_dysnomia.sol\":3937:3944  spender */\n      dup6\n        /* \"solidity/dysnomia/01_dysnomia.sol\":3946:3951  value */\n      dup6\n        /* \"solidity/dysnomia/01_dysnomia.sol\":3921:3929  _approve */\n      tag_205\n        /* \"solidity/dysnomia/01_dysnomia.sol\":3921:3952  _approve(owner, spender, value) */\n      jump\t// in\n    tag_204:\n        /* \"solidity/dysnomia/01_dysnomia.sol\":3969:3973  true */\n      0x01\n        /* \"solidity/dysnomia/01_dysnomia.sol\":3962:3973  return true */\n      swap2\n      pop\n      pop\n        /* \"solidity/dysnomia/01_dysnomia.sol\":3796:3980  function approve(address spender, uint256 value) public virtual returns (bool) {... */\n    tag_203:\n      swap3\n      swap2\n      pop\n      pop\n      jump\t// out\n        /* \"solidity/dysnomia/01_dysnomia.sol\":2486:2953  function Redeem(address _t, uint256 _a) public {... */\n    tag_53:\n      sub(shl(0xa0, 0x01), 0x01)\n        /* \"solidity/dysnomia/01_dysnomia.sol\":2546:2562  _marketRates[_t] */\n      dup3\n      and\n      0x00\n      swap1\n      dup2\n      mstore\n        /* \"solidity/dysnomia/01_dysnomia.sol\":2546:2558  _marketRates */\n      0x08\n        /* \"solidity/dysnomia/01_dysnomia.sol\":2546:2562  _marketRates[_t] */\n      0x20\n      mstore\n      0x40\n      dup2\n      keccak256\n      sload\n        /* \"solidity/dysnomia/01_dysnomia.sol\":2546:2567  _marketRates[_t] == 0 */\n      swap1\n      sub\n        /* \"solidity/dysnomia/01_dysnomia.sol\":2543:2598  if(_marketRates[_t] == 0) revert MarketRateNotFound(_t) */\n      tag_208\n      jumpi\n        /* \"solidity/dysnomia/01_dysnomia.sol\":2595:2597  _t */\n      dup2\n        /* \"solidity/dysnomia/01_dysnomia.sol\":2576:2598  MarketRateNotFound(_t) */\n      mload(0x40)\n      shl(0xe0, 0x90b23441)\n      dup2\n      mstore\n      0x04\n      add\n      tag_209\n      swap2\n      swap1\n      tag_85\n      jump\t// in\n    tag_209:\n      mload(0x40)\n      dup1\n      swap2\n      sub\n      swap1\n      revert\n        /* \"solidity/dysnomia/01_dysnomia.sol\":2543:2598  if(_marketRates[_t] == 0) revert MarketRateNotFound(_t) */\n    tag_208:\n        /* \"solidity/dysnomia/01_dysnomia.sol\":2637:2639  _t */\n      dup2\n        /* \"solidity/dysnomia/01_dysnomia.sol\":2608:2625  DYSNOMIA BuyToken */\n      0x00\n        /* \"solidity/dysnomia/01_dysnomia.sol\":2692:2708  10 ** decimals() */\n      tag_211\n        /* \"solidity/dysnomia/01_dysnomia.sol\":3228:3230  18 */\n      0x12\n        /* \"solidity/dysnomia/01_dysnomia.sol\":2692:2694  10 */\n      0x0a\n        /* \"solidity/dysnomia/01_dysnomia.sol\":2692:2708  10 ** decimals() */\n      tag_190\n      jump\t// in\n    tag_211:\n      sub(shl(0xa0, 0x01), 0x01)\n        /* \"solidity/dysnomia/01_dysnomia.sol\":2671:2687  _marketRates[_t] */\n      dup6\n      and\n      0x00\n      swap1\n      dup2\n      mstore\n        /* \"solidity/dysnomia/01_dysnomia.sol\":2671:2683  _marketRates */\n      0x08\n        /* \"solidity/dysnomia/01_dysnomia.sol\":2671:2687  _marketRates[_t] */\n      0x20\n      mstore\n      0x40\n      swap1\n      keccak256\n      sload\n        /* \"solidity/dysnomia/01_dysnomia.sol\":2666:2687  _a * _marketRates[_t] */\n      tag_212\n      swap1\n        /* \"solidity/dysnomia/01_dysnomia.sol\":2666:2668  _a */\n      dup6\n        /* \"solidity/dysnomia/01_dysnomia.sol\":2666:2687  _a * _marketRates[_t] */\n      tag_192\n      jump\t// in\n    tag_212:\n        /* \"solidity/dysnomia/01_dysnomia.sol\":2665:2709  (_a * _marketRates[_t]) / (10 ** decimals()) */\n      tag_213\n      swap2\n      swap1\n      tag_214\n      jump\t// in\n    tag_213:\n        /* \"solidity/dysnomia/01_dysnomia.sol\":2735:2802  DYSNOMIA(address(this)).transferFrom(msg.sender, address(this), _a) */\n      mload(0x40)\n      shl(0xe0, 0x23b872dd)\n      dup2\n      mstore\n        /* \"solidity/dysnomia/01_dysnomia.sol\":2650:2709  uint256 cost = (_a * _marketRates[_t]) / (10 ** decimals()) */\n      swap1\n      swap2\n      pop\n        /* \"solidity/dysnomia/01_dysnomia.sol\":2719:2732  bool success1 */\n      0x00\n      swap1\n        /* \"solidity/dysnomia/01_dysnomia.sol\":2752:2756  this */\n      address\n      swap1\n        /* \"solidity/dysnomia/01_dysnomia.sol\":2735:2771  DYSNOMIA(address(this)).transferFrom */\n      0x23b872dd\n      swap1\n        /* \"solidity/dysnomia/01_dysnomia.sol\":2735:2802  DYSNOMIA(address(this)).transferFrom(msg.sender, address(this), _a) */\n      tag_215\n      swap1\n        /* \"solidity/dysnomia/01_dysnomia.sol\":2772:2782  msg.sender */\n      caller\n      swap1\n        /* \"solidity/dysnomia/01_dysnomia.sol\":2752:2756  this */\n      dup5\n      swap1\n        /* \"solidity/dysnomia/01_dysnomia.sol\":2799:2801  _a */\n      dup10\n      swap1\n        /* \"solidity/dysnomia/01_dysnomia.sol\":2735:2802  DYSNOMIA(address(this)).transferFrom(msg.sender, address(this), _a) */\n      0x04\n      add\n      tag_216\n      jump\t// in\n    tag_215:\n      0x20\n      mload(0x40)\n      dup1\n      dup4\n      sub\n      dup2\n      0x00\n      dup8\n      gas\n      call\n      iszero\n      dup1\n      iszero\n      tag_218\n      jumpi\n      returndatacopy(0x00, 0x00, returndatasize)\n      revert(0x00, returndatasize)\n    tag_218:\n      pop\n      pop\n      pop\n      pop\n      mload(0x40)\n      returndatasize\n      not(0x1f)\n      0x1f\n      dup3\n      add\n      and\n      dup3\n      add\n      dup1\n      0x40\n      mstore\n      pop\n      dup2\n      add\n      swap1\n      tag_219\n      swap2\n      swap1\n      tag_220\n      jump\t// in\n    tag_219:\n        /* \"solidity/dysnomia/01_dysnomia.sol\":2719:2802  bool success1 = DYSNOMIA(address(this)).transferFrom(msg.sender, address(this), _a) */\n      swap1\n      pop\n        /* \"solidity/dysnomia/01_dysnomia.sol\":2820:2828  success1 */\n      dup1\n        /* \"solidity/dysnomia/01_dysnomia.sol\":2886:2890  this */\n      address\n      sub(shl(0xa0, 0x01), 0x01)\n        /* \"solidity/dysnomia/01_dysnomia.sol\":2869:2897  DYSNOMIA(address(this)).name */\n      and\n      0x06fdde03\n        /* \"solidity/dysnomia/01_dysnomia.sol\":2869:2899  DYSNOMIA(address(this)).name() */\n      mload(0x40)\n      dup2\n      0xffffffff\n      and\n      0xe0\n      shl\n      dup2\n      mstore\n      0x04\n      add\n      0x00\n      mload(0x40)\n      dup1\n      dup4\n      sub\n      dup2\n      dup7\n      gas\n      staticcall\n      iszero\n      dup1\n      iszero\n      tag_222\n      jumpi\n      returndatacopy(0x00, 0x00, returndatasize)\n      revert(0x00, returndatasize)\n    tag_222:\n      pop\n      pop\n      pop\n      pop\n      mload(0x40)\n      returndatasize\n      0x00\n      dup3\n      returndatacopy\n      0x1f\n      returndatasize\n      swap1\n      dup2\n      add\n      not(0x1f)\n      and\n      dup3\n      add\n      0x40\n      mstore\n      tag_223\n      swap2\n      swap1\n      dup2\n      add\n      swap1\n      tag_224\n      jump\t// in\n    tag_223:\n        /* \"solidity/dysnomia/01_dysnomia.sol\":2830:2900  string.concat(unicode\"Need Approved \", DYSNOMIA(address(this)).name()) */\n      add(0x20, mload(0x40))\n      tag_225\n      swap2\n      swap1\n      tag_226\n      jump\t// in\n    tag_225:\n      mload(0x40)\n      0x20\n      dup2\n      dup4\n      sub\n      sub\n      dup2\n      mstore\n      swap1\n      0x40\n      mstore\n        /* \"solidity/dysnomia/01_dysnomia.sol\":2812:2901  require(success1, string.concat(unicode\"Need Approved \", DYSNOMIA(address(this)).name())) */\n      swap1\n      tag_227\n      jumpi\n      mload(0x40)\n      shl(0xe5, 0x461bcd)\n      dup2\n      mstore\n      0x04\n      add\n      tag_209\n      swap2\n      swap1\n      tag_40\n      jump\t// in\n    tag_227:\n      pop\n        /* \"solidity/dysnomia/01_dysnomia.sol\":2911:2946  BuyToken.transfer(msg.sender, cost) */\n      mload(0x40)\n      shl(0xe0, 0xa9059cbb)\n      dup2\n      mstore\n        /* \"solidity/dysnomia/01_dysnomia.sol\":2929:2939  msg.sender */\n      caller\n        /* \"solidity/dysnomia/01_dysnomia.sol\":2911:2946  BuyToken.transfer(msg.sender, cost) */\n      0x04\n      dup3\n      add\n        /* \"#utility.yul\":15095:15146   */\n      mstore\n        /* \"#utility.yul\":15162:15180   */\n      0x24\n      dup2\n      add\n        /* \"#utility.yul\":15155:15189   */\n      dup4\n      swap1\n      mstore\n      sub(shl(0xa0, 0x01), 0x01)\n        /* \"solidity/dysnomia/01_dysnomia.sol\":2911:2928  BuyToken.transfer */\n      dup5\n      and\n      swap1\n      0xa9059cbb\n      swap1\n        /* \"#utility.yul\":15068:15086   */\n      0x44\n      add\n        /* \"solidity/dysnomia/01_dysnomia.sol\":2911:2946  BuyToken.transfer(msg.sender, cost) */\n    tag_229:\n      0x20\n      mload(0x40)\n      dup1\n      dup4\n      sub\n      dup2\n      0x00\n      dup8\n      gas\n      call\n      iszero\n      dup1\n      iszero\n      tag_232\n      jumpi\n      returndatacopy(0x00, 0x00, returndatasize)\n      revert(0x00, returndatasize)\n    tag_232:\n      pop\n      pop\n      pop\n      pop\n      mload(0x40)\n      returndatasize\n      not(0x1f)\n      0x1f\n      dup3\n      add\n      and\n      dup3\n      add\n      dup1\n      0x40\n      mstore\n      pop\n      dup2\n      add\n      swap1\n      tag_233\n      swap2\n      swap1\n      tag_220\n      jump\t// in\n    tag_233:\n      pop\n        /* \"solidity/dysnomia/01_dysnomia.sol\":2533:2953  {... */\n      pop\n      pop\n      pop\n        /* \"solidity/dysnomia/01_dysnomia.sol\":2486:2953  function Redeem(address _t, uint256 _a) public {... */\n      pop\n      pop\n      jump\t// out\n        /* \"solidity/dysnomia/01_dysnomia.sol\":3986:4228  function transferFrom(address from, address to, uint256 value) public virtual returns (bool) {... */\n    tag_57:\n        /* \"solidity/dysnomia/01_dysnomia.sol\":4073:4077  bool */\n      0x00\n        /* \"solidity/dysnomia/01_dysnomia.sol\":4107:4117  msg.sender */\n      caller\n        /* \"solidity/dysnomia/01_dysnomia.sol\":4127:4164  _spendAllowance(from, spender, value) */\n      tag_235\n        /* \"solidity/dysnomia/01_dysnomia.sol\":4143:4147  from */\n      dup6\n        /* \"solidity/dysnomia/01_dysnomia.sol\":4107:4117  msg.sender */\n      dup3\n        /* \"solidity/dysnomia/01_dysnomia.sol\":4158:4163  value */\n      dup6\n        /* \"solidity/dysnomia/01_dysnomia.sol\":4127:4142  _spendAllowance */\n      tag_236\n        /* \"solidity/dysnomia/01_dysnomia.sol\":4127:4164  _spendAllowance(from, spender, value) */\n      jump\t// in\n    tag_235:\n        /* \"solidity/dysnomia/01_dysnomia.sol\":4174:4200  _transfer(from, to, value) */\n      tag_237\n        /* \"solidity/dysnomia/01_dysnomia.sol\":4184:4188  from */\n      dup6\n        /* \"solidity/dysnomia/01_dysnomia.sol\":4190:4192  to */\n      dup6\n        /* \"solidity/dysnomia/01_dysnomia.sol\":4194:4199  value */\n      dup6\n        /* \"solidity/dysnomia/01_dysnomia.sol\":4174:4183  _transfer */\n      tag_238\n        /* \"solidity/dysnomia/01_dysnomia.sol\":4174:4200  _transfer(from, to, value) */\n      jump\t// in\n    tag_237:\n      pop\n        /* \"solidity/dysnomia/01_dysnomia.sol\":4217:4221  true */\n      0x01\n      swap5\n        /* \"solidity/dysnomia/01_dysnomia.sol\":3986:4228  function transferFrom(address from, address to, uint256 value) public virtual returns (bool) {... */\n      swap4\n      pop\n      pop\n      pop\n      pop\n      jump\t// out\n        /* \"solidity/dysnomia/01_dysnomia.sol\":2026:2480  function Purchase(address _t, uint256 _a) public {... */\n    tag_61:\n      sub(shl(0xa0, 0x01), 0x01)\n        /* \"solidity/dysnomia/01_dysnomia.sol\":2088:2104  _marketRates[_t] */\n      dup3\n      and\n      0x00\n      swap1\n      dup2\n      mstore\n        /* \"solidity/dysnomia/01_dysnomia.sol\":2088:2100  _marketRates */\n      0x08\n        /* \"solidity/dysnomia/01_dysnomia.sol\":2088:2104  _marketRates[_t] */\n      0x20\n      mstore\n      0x40\n      dup2\n      keccak256\n      sload\n        /* \"solidity/dysnomia/01_dysnomia.sol\":2088:2109  _marketRates[_t] == 0 */\n      swap1\n      sub\n        /* \"solidity/dysnomia/01_dysnomia.sol\":2085:2140  if(_marketRates[_t] == 0) revert MarketRateNotFound(_t) */\n      tag_240\n      jumpi\n        /* \"solidity/dysnomia/01_dysnomia.sol\":2137:2139  _t */\n      dup2\n        /* \"solidity/dysnomia/01_dysnomia.sol\":2118:2140  MarketRateNotFound(_t) */\n      mload(0x40)\n      shl(0xe0, 0x90b23441)\n      dup2\n      mstore\n      0x04\n      add\n      tag_209\n      swap2\n      swap1\n      tag_85\n      jump\t// in\n        /* \"solidity/dysnomia/01_dysnomia.sol\":2085:2140  if(_marketRates[_t] == 0) revert MarketRateNotFound(_t) */\n    tag_240:\n        /* \"solidity/dysnomia/01_dysnomia.sol\":2179:2181  _t */\n      dup2\n        /* \"solidity/dysnomia/01_dysnomia.sol\":2150:2167  DYSNOMIA BuyToken */\n      0x00\n        /* \"solidity/dysnomia/01_dysnomia.sol\":2234:2250  10 ** decimals() */\n      tag_243\n        /* \"solidity/dysnomia/01_dysnomia.sol\":3228:3230  18 */\n      0x12\n        /* \"solidity/dysnomia/01_dysnomia.sol\":2234:2236  10 */\n      0x0a\n        /* \"solidity/dysnomia/01_dysnomia.sol\":2234:2250  10 ** decimals() */\n      tag_190\n      jump\t// in\n    tag_243:\n      sub(shl(0xa0, 0x01), 0x01)\n        /* \"solidity/dysnomia/01_dysnomia.sol\":2213:2229  _marketRates[_t] */\n      dup6\n      and\n      0x00\n      swap1\n      dup2\n      mstore\n        /* \"solidity/dysnomia/01_dysnomia.sol\":2213:2225  _marketRates */\n      0x08\n        /* \"solidity/dysnomia/01_dysnomia.sol\":2213:2229  _marketRates[_t] */\n      0x20\n      mstore\n      0x40\n      swap1\n      keccak256\n      sload\n        /* \"solidity/dysnomia/01_dysnomia.sol\":2208:2229  _a * _marketRates[_t] */\n      tag_244\n      swap1\n        /* \"solidity/dysnomia/01_dysnomia.sol\":2208:2210  _a */\n      dup6\n        /* \"solidity/dysnomia/01_dysnomia.sol\":2208:2229  _a * _marketRates[_t] */\n      tag_192\n      jump\t// in\n    tag_244:\n        /* \"solidity/dysnomia/01_dysnomia.sol\":2207:2251  (_a * _marketRates[_t]) / (10 ** decimals()) */\n      tag_245\n      swap2\n      swap1\n      tag_214\n      jump\t// in\n    tag_245:\n        /* \"solidity/dysnomia/01_dysnomia.sol\":2192:2251  uint256 cost = (_a * _marketRates[_t]) / (10 ** decimals()) */\n      swap1\n      pop\n        /* \"solidity/dysnomia/01_dysnomia.sol\":2261:2274  bool success1 */\n      0x00\n        /* \"solidity/dysnomia/01_dysnomia.sol\":2277:2285  BuyToken */\n      dup3\n      sub(shl(0xa0, 0x01), 0x01)\n        /* \"solidity/dysnomia/01_dysnomia.sol\":2277:2298  BuyToken.transferFrom */\n      and\n      0x23b872dd\n        /* \"solidity/dysnomia/01_dysnomia.sol\":2299:2309  msg.sender */\n      caller\n        /* \"solidity/dysnomia/01_dysnomia.sol\":2319:2323  this */\n      address\n        /* \"solidity/dysnomia/01_dysnomia.sol\":2326:2330  cost */\n      dup6\n        /* \"solidity/dysnomia/01_dysnomia.sol\":2277:2331  BuyToken.transferFrom(msg.sender, address(this), cost) */\n      mload(0x40)\n      dup5\n      0xffffffff\n      and\n      0xe0\n      shl\n      dup2\n      mstore\n      0x04\n      add\n      tag_246\n      swap4\n      swap3\n      swap2\n      swap1\n      tag_216\n      jump\t// in\n    tag_246:\n      0x20\n      mload(0x40)\n      dup1\n      dup4\n      sub\n      dup2\n      0x00\n      dup8\n      gas\n      call\n      iszero\n      dup1\n      iszero\n      tag_248\n      jumpi\n      returndatacopy(0x00, 0x00, returndatasize)\n      revert(0x00, returndatasize)\n    tag_248:\n      pop\n      pop\n      pop\n      pop\n      mload(0x40)\n      returndatasize\n      not(0x1f)\n      0x1f\n      dup3\n      add\n      and\n      dup3\n      add\n      dup1\n      0x40\n      mstore\n      pop\n      dup2\n      add\n      swap1\n      tag_249\n      swap2\n      swap1\n      tag_220\n      jump\t// in\n    tag_249:\n        /* \"solidity/dysnomia/01_dysnomia.sol\":2261:2331  bool success1 = BuyToken.transferFrom(msg.sender, address(this), cost) */\n      swap1\n      pop\n        /* \"solidity/dysnomia/01_dysnomia.sol\":2349:2357  success1 */\n      dup1\n        /* \"solidity/dysnomia/01_dysnomia.sol\":2398:2406  BuyToken */\n      dup4\n      sub(shl(0xa0, 0x01), 0x01)\n        /* \"solidity/dysnomia/01_dysnomia.sol\":2398:2411  BuyToken.name */\n      and\n      0x06fdde03\n        /* \"solidity/dysnomia/01_dysnomia.sol\":2398:2413  BuyToken.name() */\n      mload(0x40)\n      dup2\n      0xffffffff\n      and\n      0xe0\n      shl\n      dup2\n      mstore\n      0x04\n      add\n      0x00\n      mload(0x40)\n      dup1\n      dup4\n      sub\n      dup2\n      dup7\n      gas\n      staticcall\n      iszero\n      dup1\n      iszero\n      tag_251\n      jumpi\n      returndatacopy(0x00, 0x00, returndatasize)\n      revert(0x00, returndatasize)\n    tag_251:\n      pop\n      pop\n      pop\n      pop\n      mload(0x40)\n      returndatasize\n      0x00\n      dup3\n      returndatacopy\n      0x1f\n      returndatasize\n      swap1\n      dup2\n      add\n      not(0x1f)\n      and\n      dup3\n      add\n      0x40\n      mstore\n      tag_252\n      swap2\n      swap1\n      dup2\n      add\n      swap1\n      tag_224\n      jump\t// in\n    tag_252:\n        /* \"solidity/dysnomia/01_dysnomia.sol\":2359:2414  string.concat(unicode\"Need Approved \", BuyToken.name()) */\n      add(0x20, mload(0x40))\n      tag_253\n      swap2\n      swap1\n      tag_226\n      jump\t// in\n    tag_253:\n      mload(0x40)\n      0x20\n      dup2\n      dup4\n      sub\n      sub\n      dup2\n      mstore\n      swap1\n      0x40\n      mstore\n        /* \"solidity/dysnomia/01_dysnomia.sol\":2341:2415  require(success1, string.concat(unicode\"Need Approved \", BuyToken.name())) */\n      swap1\n      tag_254\n      jumpi\n      mload(0x40)\n      shl(0xe5, 0x461bcd)\n      dup2\n      mstore\n      0x04\n      add\n      tag_209\n      swap2\n      swap1\n      tag_40\n      jump\t// in\n    tag_254:\n      pop\n        /* \"solidity/dysnomia/01_dysnomia.sol\":2425:2473  DYSNOMIA(address(this)).transfer(msg.sender, _a) */\n      mload(0x40)\n      shl(0xe0, 0xa9059cbb)\n      dup2\n      mstore\n        /* \"solidity/dysnomia/01_dysnomia.sol\":2458:2468  msg.sender */\n      caller\n        /* \"solidity/dysnomia/01_dysnomia.sol\":2425:2473  DYSNOMIA(address(this)).transfer(msg.sender, _a) */\n      0x04\n      dup3\n      add\n        /* \"#utility.yul\":15095:15146   */\n      mstore\n        /* \"#utility.yul\":15162:15180   */\n      0x24\n      dup2\n      add\n        /* \"#utility.yul\":15155:15189   */\n      dup6\n      swap1\n      mstore\n        /* \"solidity/dysnomia/01_dysnomia.sol\":2442:2446  this */\n      address\n      swap1\n        /* \"solidity/dysnomia/01_dysnomia.sol\":2425:2457  DYSNOMIA(address(this)).transfer */\n      0xa9059cbb\n      swap1\n        /* \"#utility.yul\":15068:15086   */\n      0x44\n      add\n        /* \"solidity/dysnomia/01_dysnomia.sol\":2425:2473  DYSNOMIA(address(this)).transfer(msg.sender, _a) */\n      tag_229\n        /* \"#utility.yul\":14921:15195   */\n      jump\n        /* \"solidity/dysnomia/09_siu.sol\":783:893  function Aura() public view returns (uint64) {... */\n    tag_63:\n        /* \"solidity/dysnomia/09_siu.sol\":820:826  uint64 */\n      0x00\n        /* \"solidity/dysnomia/09_siu.sol\":852:885  uint160(tx.origin) % MotzkinPrime */\n      tag_261\n        /* \"solidity/dysnomia/01_dysnomia.sol\":818:833  953467954114363 */\n      0x03632c8eb5af3b\n        /* \"solidity/dysnomia/09_siu.sol\":860:869  tx.origin */\n      origin\n        /* \"solidity/dysnomia/09_siu.sol\":852:885  uint160(tx.origin) % MotzkinPrime */\n      tag_262\n      jump\t// in\n    tag_261:\n        /* \"solidity/dysnomia/09_siu.sol\":838:886  return uint64(uint160(tx.origin) % MotzkinPrime) */\n      swap1\n      pop\n        /* \"solidity/dysnomia/09_siu.sol\":783:893  function Aura() public view returns (uint64) {... */\n      swap1\n      jump\t// out\n        /* \"solidity/dysnomia/lib/multiownable.sol\":1168:1289  function renounceOwnership(address toRemove) public virtual onlyOwners {... */\n    tag_77:\n        /* \"solidity/dysnomia/lib/multiownable.sol\":710:723  _checkOwner() */\n      tag_266\n        /* \"solidity/dysnomia/lib/multiownable.sol\":710:721  _checkOwner */\n      tag_133\n        /* \"solidity/dysnomia/lib/multiownable.sol\":710:723  _checkOwner() */\n      jump\t// in\n    tag_266:\n        /* \"solidity/dysnomia/lib/multiownable.sol\":1249:1282  _changeOwnership(toRemove, false) */\n      tag_268\n        /* \"solidity/dysnomia/lib/multiownable.sol\":1266:1274  toRemove */\n      dup2\n        /* \"solidity/dysnomia/lib/multiownable.sol\":1276:1281  false */\n      0x00\n        /* \"solidity/dysnomia/lib/multiownable.sol\":1249:1265  _changeOwnership */\n      tag_269\n        /* \"solidity/dysnomia/lib/multiownable.sol\":1249:1282  _changeOwnership(toRemove, false) */\n      jump\t// in\n    tag_268:\n        /* \"solidity/dysnomia/lib/multiownable.sol\":1168:1289  function renounceOwnership(address toRemove) public virtual onlyOwners {... */\n      pop\n      jump\t// out\n        /* \"solidity/dysnomia/lib/multiownable.sol\":847:954  function owner(address cOwner) public view virtual returns (bool) {... */\n    tag_80:\n      sub(shl(0xa0, 0x01), 0x01)\n        /* \"solidity/dysnomia/lib/multiownable.sol\":931:946  _owners[cOwner] */\n      and\n        /* \"solidity/dysnomia/lib/multiownable.sol\":907:911  bool */\n      0x00\n        /* \"solidity/dysnomia/lib/multiownable.sol\":931:946  _owners[cOwner] */\n      swap1\n      dup2\n      mstore\n      0x20\n      dup2\n      swap1\n      mstore\n      0x40\n      swap1\n      keccak256\n      sload\n      0xff\n      and\n      swap1\n        /* \"solidity/dysnomia/lib/multiownable.sol\":847:954  function owner(address cOwner) public view virtual returns (bool) {... */\n      jump\t// out\n        /* \"solidity/dysnomia/lib/multiownable.sol\":1295:1532  function addOwner(address newOwner) public virtual onlyOwners {... */\n    tag_88:\n        /* \"solidity/dysnomia/lib/multiownable.sol\":710:723  _checkOwner() */\n      tag_272\n        /* \"solidity/dysnomia/lib/multiownable.sol\":710:721  _checkOwner */\n      tag_133\n        /* \"solidity/dysnomia/lib/multiownable.sol\":710:723  _checkOwner() */\n      jump\t// in\n    tag_272:\n      sub(shl(0xa0, 0x01), 0x01)\n        /* \"solidity/dysnomia/lib/multiownable.sol\":1371:1393  newOwner == address(0) */\n      dup2\n      and\n        /* \"solidity/dysnomia/lib/multiownable.sol\":1367:1484  if (newOwner == address(0)) {... */\n      tag_274\n      jumpi\n        /* \"solidity/dysnomia/lib/multiownable.sol\":1436:1445  tx.origin */\n      origin\n        /* \"solidity/dysnomia/lib/multiownable.sol\":1455:1456  0 */\n      0x00\n        /* \"solidity/dysnomia/lib/multiownable.sol\":1467:1471  this */\n      address\n        /* \"solidity/dysnomia/lib/multiownable.sol\":1416:1473  OwnableInvalidOwner(tx.origin, address(0), address(this)) */\n      mload(0x40)\n      shl(0xe2, 0x36030219)\n      dup2\n      mstore\n      0x04\n      add\n      tag_209\n      swap4\n      swap3\n      swap2\n      swap1\n      tag_276\n      jump\t// in\n        /* \"solidity/dysnomia/lib/multiownable.sol\":1367:1484  if (newOwner == address(0)) {... */\n    tag_274:\n        /* \"solidity/dysnomia/lib/multiownable.sol\":1493:1525  _changeOwnership(newOwner, true) */\n      tag_268\n        /* \"solidity/dysnomia/lib/multiownable.sol\":1510:1518  newOwner */\n      dup2\n        /* \"solidity/dysnomia/lib/multiownable.sol\":1520:1524  true */\n      0x01\n        /* \"solidity/dysnomia/lib/multiownable.sol\":1493:1509  _changeOwnership */\n      tag_269\n        /* \"solidity/dysnomia/lib/multiownable.sol\":1493:1525  _changeOwnership(newOwner, true) */\n      jump\t// in\n        /* \"solidity/dysnomia/01_dysnomia.sol\":3055:3149  function symbol() public view virtual returns (string memory) {... */\n    tag_102:\n        /* \"solidity/dysnomia/01_dysnomia.sol\":3102:3115  string memory */\n      0x60\n        /* \"solidity/dysnomia/01_dysnomia.sol\":3134:3142  __symbol */\n      0x05\n        /* \"solidity/dysnomia/01_dysnomia.sol\":3127:3142  return __symbol */\n      dup1\n      sload\n      tag_197\n      swap1\n      tag_198\n      jump\t// in\n        /* \"solidity/dysnomia/01_dysnomia.sol\":1387:1532  function Rename(string memory newName, string memory newSymbol) public onlyOwners {... */\n    tag_106:\n        /* \"solidity/dysnomia/lib/multiownable.sol\":710:723  _checkOwner() */\n      tag_287\n        /* \"solidity/dysnomia/lib/multiownable.sol\":710:721  _checkOwner */\n      tag_133\n        /* \"solidity/dysnomia/lib/multiownable.sol\":710:723  _checkOwner() */\n      jump\t// in\n    tag_287:\n        /* \"solidity/dysnomia/01_dysnomia.sol\":1479:1485  __name */\n      0x04\n        /* \"solidity/dysnomia/01_dysnomia.sol\":1479:1495  __name = newName */\n      tag_289\n        /* \"solidity/dysnomia/01_dysnomia.sol\":1488:1495  newName */\n      dup4\n        /* \"solidity/dysnomia/01_dysnomia.sol\":1479:1485  __name */\n      dup3\n        /* \"solidity/dysnomia/01_dysnomia.sol\":1479:1495  __name = newName */\n      tag_290\n      jump\t// in\n    tag_289:\n      pop\n        /* \"solidity/dysnomia/01_dysnomia.sol\":1505:1513  __symbol */\n      0x05\n        /* \"solidity/dysnomia/01_dysnomia.sol\":1505:1525  __symbol = newSymbol */\n      tag_291\n        /* \"solidity/dysnomia/01_dysnomia.sol\":1516:1525  newSymbol */\n      dup3\n        /* \"solidity/dysnomia/01_dysnomia.sol\":1505:1513  __symbol */\n      dup3\n        /* \"solidity/dysnomia/01_dysnomia.sol\":1505:1525  __symbol = newSymbol */\n      tag_290\n      jump\t// in\n    tag_291:\n      pop\n        /* \"solidity/dysnomia/01_dysnomia.sol\":1387:1532  function Rename(string memory newName, string memory newSymbol) public onlyOwners {... */\n      pop\n      pop\n      jump\t// out\n        /* \"solidity/dysnomia/01_dysnomia.sol\":3468:3644  function transfer(address to, uint256 value) public virtual returns (bool) {... */\n    tag_109:\n        /* \"solidity/dysnomia/01_dysnomia.sol\":3537:3541  bool */\n      0x00\n        /* \"solidity/dysnomia/01_dysnomia.sol\":3569:3579  msg.sender */\n      caller\n        /* \"solidity/dysnomia/01_dysnomia.sol\":3589:3616  _transfer(owner, to, value) */\n      tag_204\n        /* \"solidity/dysnomia/01_dysnomia.sol\":3569:3579  msg.sender */\n      dup2\n        /* \"solidity/dysnomia/01_dysnomia.sol\":3606:3608  to */\n      dup6\n        /* \"solidity/dysnomia/01_dysnomia.sol\":3610:3615  value */\n      dup6\n        /* \"solidity/dysnomia/01_dysnomia.sol\":3589:3598  _transfer */\n      tag_238\n        /* \"solidity/dysnomia/01_dysnomia.sol\":3589:3616  _transfer(owner, to, value) */\n      jump\t// in\n        /* \"solidity/dysnomia/01_dysnomia.sol\":3650:3790  function allowance(address owner, address spender) public view virtual returns (uint256) {... */\n    tag_120:\n      sub(shl(0xa0, 0x01), 0x01)\n        /* \"solidity/dysnomia/01_dysnomia.sol\":3756:3774  _allowances[owner] */\n      swap2\n      dup3\n      and\n        /* \"solidity/dysnomia/01_dysnomia.sol\":3730:3737  uint256 */\n      0x00\n        /* \"solidity/dysnomia/01_dysnomia.sol\":3756:3774  _allowances[owner] */\n      swap1\n      dup2\n      mstore\n        /* \"solidity/dysnomia/01_dysnomia.sol\":3756:3767  _allowances */\n      0x02\n        /* \"solidity/dysnomia/01_dysnomia.sol\":3756:3774  _allowances[owner] */\n      0x20\n      swap1\n      dup2\n      mstore\n      0x40\n      dup1\n      dup4\n      keccak256\n        /* \"solidity/dysnomia/01_dysnomia.sol\":3756:3783  _allowances[owner][spender] */\n      swap4\n      swap1\n      swap5\n      and\n      dup3\n      mstore\n      swap2\n      swap1\n      swap2\n      mstore\n      keccak256\n      sload\n      swap1\n        /* \"solidity/dysnomia/01_dysnomia.sol\":3650:3790  function allowance(address owner, address spender) public view virtual returns (uint256) {... */\n      jump\t// out\n        /* \"solidity/dysnomia/01_dysnomia.sol\":1538:1606  function mintToCap() public onlyOwners {... */\n    tag_123:\n        /* \"solidity/dysnomia/lib/multiownable.sol\":710:723  _checkOwner() */\n      tag_296\n        /* \"solidity/dysnomia/lib/multiownable.sol\":710:721  _checkOwner */\n      tag_133\n        /* \"solidity/dysnomia/lib/multiownable.sol\":710:723  _checkOwner() */\n      jump\t// in\n    tag_296:\n        /* \"solidity/dysnomia/01_dysnomia.sol\":1587:1599  _mintToCap() */\n      tag_298\n        /* \"solidity/dysnomia/01_dysnomia.sol\":1587:1597  _mintToCap */\n      tag_195\n        /* \"solidity/dysnomia/01_dysnomia.sol\":1587:1599  _mintToCap() */\n      jump\t// in\n    tag_298:\n        /* \"solidity/dysnomia/01_dysnomia.sol\":1538:1606  function mintToCap() public onlyOwners {... */\n      jump\t// out\n        /* \"solidity/dysnomia/lib/multiownable.sol\":960:1162  function _checkOwner() internal view virtual {... */\n    tag_133:\n        /* \"solidity/dysnomia/lib/multiownable.sol\":1020:1037  owner(msg.sender) */\n      tag_300\n        /* \"solidity/dysnomia/lib/multiownable.sol\":1026:1036  msg.sender */\n      caller\n        /* \"solidity/dysnomia/lib/multiownable.sol\":1020:1025  owner */\n      tag_80\n        /* \"solidity/dysnomia/lib/multiownable.sol\":1020:1037  owner(msg.sender) */\n      jump\t// in\n    tag_300:\n        /* \"solidity/dysnomia/lib/multiownable.sol\":1019:1037  !owner(msg.sender) */\n      iszero\n        /* \"solidity/dysnomia/lib/multiownable.sol\":1019:1058  !owner(msg.sender) && !owner(tx.origin) */\n      dup1\n      iszero\n      tag_301\n      jumpi\n      pop\n        /* \"solidity/dysnomia/lib/multiownable.sol\":1042:1058  owner(tx.origin) */\n      tag_302\n        /* \"solidity/dysnomia/lib/multiownable.sol\":1048:1057  tx.origin */\n      origin\n        /* \"solidity/dysnomia/lib/multiownable.sol\":1042:1047  owner */\n      tag_80\n        /* \"solidity/dysnomia/lib/multiownable.sol\":1042:1058  owner(tx.origin) */\n      jump\t// in\n    tag_302:\n        /* \"solidity/dysnomia/lib/multiownable.sol\":1041:1058  !owner(tx.origin) */\n      iszero\n        /* \"solidity/dysnomia/lib/multiownable.sol\":1019:1058  !owner(msg.sender) && !owner(tx.origin) */\n    tag_301:\n        /* \"solidity/dysnomia/lib/multiownable.sol\":1015:1156  if (!owner(msg.sender) && !owner(tx.origin)) {... */\n      iszero\n      tag_298\n      jumpi\n        /* \"solidity/dysnomia/lib/multiownable.sol\":1108:1117  tx.origin */\n      origin\n        /* \"solidity/dysnomia/lib/multiownable.sol\":1119:1129  msg.sender */\n      caller\n        /* \"solidity/dysnomia/lib/multiownable.sol\":1139:1143  this */\n      address\n        /* \"solidity/dysnomia/lib/multiownable.sol\":1081:1145  OwnableUnauthorizedAccount(tx.origin, msg.sender, address(this)) */\n      mload(0x40)\n      shl(0xe0, 0x0be6bab5)\n      dup2\n      mstore\n      0x04\n      add\n      tag_209\n      swap4\n      swap3\n      swap2\n      swap1\n      tag_276\n      jump\t// in\n        /* \"solidity/dysnomia/01_dysnomia.sol\":1612:1765  function _mintToCap() internal {... */\n    tag_195:\n        /* \"solidity/dysnomia/01_dysnomia.sol\":1685:1701  10 ** decimals() */\n      tag_308\n        /* \"solidity/dysnomia/01_dysnomia.sol\":3228:3230  18 */\n      0x12\n        /* \"solidity/dysnomia/01_dysnomia.sol\":1685:1687  10 */\n      0x0a\n        /* \"solidity/dysnomia/01_dysnomia.sol\":1685:1701  10 ** decimals() */\n      tag_190\n      jump\t// in\n    tag_308:\n        /* \"solidity/dysnomia/01_dysnomia.sol\":1673:1682  maxSupply */\n      sload(0x07)\n        /* \"solidity/dysnomia/01_dysnomia.sol\":1673:1701  maxSupply * 10 ** decimals() */\n      tag_309\n      swap2\n      swap1\n      tag_192\n      jump\t// in\n    tag_309:\n        /* \"solidity/dysnomia/01_dysnomia.sol\":3321:3333  _totalSupply */\n      sload(0x03)\n        /* \"solidity/dysnomia/01_dysnomia.sol\":1656:1702  totalSupply() < (maxSupply * 10 ** decimals()) */\n      lt\n        /* \"solidity/dysnomia/01_dysnomia.sol\":1653:1758  if(totalSupply() < (maxSupply * 10 ** decimals()))... */\n      iszero\n      tag_298\n      jumpi\n        /* \"solidity/dysnomia/01_dysnomia.sol\":1716:1758  _mint(address(this), 1 * 10 ** decimals()) */\n      tag_298\n        /* \"solidity/dysnomia/01_dysnomia.sol\":1730:1734  this */\n      address\n        /* \"solidity/dysnomia/01_dysnomia.sol\":1741:1757  10 ** decimals() */\n      tag_314\n        /* \"solidity/dysnomia/01_dysnomia.sol\":3228:3230  18 */\n      0x12\n        /* \"solidity/dysnomia/01_dysnomia.sol\":1741:1743  10 */\n      0x0a\n        /* \"solidity/dysnomia/01_dysnomia.sol\":1741:1757  10 ** decimals() */\n      tag_190\n      jump\t// in\n    tag_314:\n        /* \"solidity/dysnomia/01_dysnomia.sol\":1737:1757  1 * 10 ** decimals() */\n      tag_315\n      swap1\n        /* \"solidity/dysnomia/01_dysnomia.sol\":1737:1738  1 */\n      0x01\n        /* \"solidity/dysnomia/01_dysnomia.sol\":1737:1757  1 * 10 ** decimals() */\n      tag_192\n      jump\t// in\n    tag_315:\n        /* \"solidity/dysnomia/01_dysnomia.sol\":1716:1721  _mint */\n      tag_316\n        /* \"solidity/dysnomia/01_dysnomia.sol\":1716:1758  _mint(address(this), 1 * 10 ** decimals()) */\n      jump\t// in\n        /* \"solidity/dysnomia/01_dysnomia.sol\":5622:5750  function _approve(address owner, address spender, uint256 value) internal {... */\n    tag_205:\n        /* \"solidity/dysnomia/01_dysnomia.sol\":5706:5743  _approve(owner, spender, value, true) */\n      tag_291\n        /* \"solidity/dysnomia/01_dysnomia.sol\":5715:5720  owner */\n      dup4\n        /* \"solidity/dysnomia/01_dysnomia.sol\":5722:5729  spender */\n      dup4\n        /* \"solidity/dysnomia/01_dysnomia.sol\":5731:5736  value */\n      dup4\n        /* \"solidity/dysnomia/01_dysnomia.sol\":5738:5742  true */\n      0x01\n        /* \"solidity/dysnomia/01_dysnomia.sol\":5706:5714  _approve */\n      tag_319\n        /* \"solidity/dysnomia/01_dysnomia.sol\":5706:5743  _approve(owner, spender, value, true) */\n      jump\t// in\n        /* \"solidity/dysnomia/01_dysnomia.sol\":5997:6522  function _spendAllowance(address owner, address spender, uint256 value) internal virtual {... */\n    tag_236:\n        /* \"solidity/dysnomia/01_dysnomia.sol\":6096:6120  uint256 currentAllowance */\n      0x00\n        /* \"solidity/dysnomia/01_dysnomia.sol\":6123:6148  allowance(owner, spender) */\n      tag_321\n        /* \"solidity/dysnomia/01_dysnomia.sol\":6133:6138  owner */\n      dup5\n        /* \"solidity/dysnomia/01_dysnomia.sol\":6140:6147  spender */\n      dup5\n        /* \"solidity/dysnomia/01_dysnomia.sol\":6123:6132  allowance */\n      tag_120\n        /* \"solidity/dysnomia/01_dysnomia.sol\":6123:6148  allowance(owner, spender) */\n      jump\t// in\n    tag_321:\n        /* \"solidity/dysnomia/01_dysnomia.sol\":6096:6148  uint256 currentAllowance = allowance(owner, spender) */\n      swap1\n      pop\n      not(0x00)\n        /* \"solidity/dysnomia/01_dysnomia.sol\":6162:6178  currentAllowance */\n      dup2\n        /* \"solidity/dysnomia/01_dysnomia.sol\":6162:6199  currentAllowance != type(uint256).max */\n      eq\n        /* \"solidity/dysnomia/01_dysnomia.sol\":6158:6516  if (currentAllowance != type(uint256).max) {... */\n      tag_326\n      jumpi\n        /* \"solidity/dysnomia/01_dysnomia.sol\":6238:6243  value */\n      dup2\n        /* \"solidity/dysnomia/01_dysnomia.sol\":6219:6235  currentAllowance */\n      dup2\n        /* \"solidity/dysnomia/01_dysnomia.sol\":6219:6243  currentAllowance < value */\n      lt\n        /* \"solidity/dysnomia/01_dysnomia.sol\":6215:6393  if (currentAllowance < value) {... */\n      iszero\n      tag_323\n      jumpi\n        /* \"solidity/dysnomia/01_dysnomia.sol\":6300:6309  tx.origin */\n      origin\n        /* \"solidity/dysnomia/01_dysnomia.sol\":6311:6321  msg.sender */\n      caller\n        /* \"solidity/dysnomia/01_dysnomia.sol\":6323:6328  owner */\n      dup6\n        /* \"solidity/dysnomia/01_dysnomia.sol\":6330:6337  spender */\n      dup6\n        /* \"solidity/dysnomia/01_dysnomia.sol\":6347:6351  this */\n      address\n        /* \"solidity/dysnomia/01_dysnomia.sol\":6354:6370  currentAllowance */\n      dup6\n        /* \"solidity/dysnomia/01_dysnomia.sol\":6372:6377  value */\n      dup8\n        /* \"solidity/dysnomia/01_dysnomia.sol\":6270:6378  DysnomiaInsufficientAllowance(tx.origin, msg.sender, owner, spender, address(this), currentAllowance, value) */\n      mload(0x40)\n      shl(0xe2, 0xb83d19)\n      dup2\n      mstore\n      0x04\n      add\n      tag_209\n      swap8\n      swap7\n      swap6\n      swap5\n      swap4\n      swap3\n      swap2\n      swap1\n      tag_325\n      jump\t// in\n        /* \"solidity/dysnomia/01_dysnomia.sol\":6215:6393  if (currentAllowance < value) {... */\n    tag_323:\n        /* \"solidity/dysnomia/01_dysnomia.sol\":6434:6491  _approve(owner, spender, currentAllowance - value, false) */\n      tag_326\n        /* \"solidity/dysnomia/01_dysnomia.sol\":6443:6448  owner */\n      dup5\n        /* \"solidity/dysnomia/01_dysnomia.sol\":6450:6457  spender */\n      dup5\n        /* \"solidity/dysnomia/01_dysnomia.sol\":6478:6483  value */\n      dup5\n        /* \"solidity/dysnomia/01_dysnomia.sol\":6459:6475  currentAllowance */\n      dup5\n        /* \"solidity/dysnomia/01_dysnomia.sol\":6459:6483  currentAllowance - value */\n      sub\n        /* \"solidity/dysnomia/01_dysnomia.sol\":6485:6490  false */\n      0x00\n        /* \"solidity/dysnomia/01_dysnomia.sol\":6434:6442  _approve */\n      tag_319\n        /* \"solidity/dysnomia/01_dysnomia.sol\":6434:6491  _approve(owner, spender, currentAllowance - value, false) */\n      jump\t// in\n    tag_326:\n        /* \"solidity/dysnomia/01_dysnomia.sol\":6086:6522  {... */\n      pop\n        /* \"solidity/dysnomia/01_dysnomia.sol\":5997:6522  function _spendAllowance(address owner, address spender, uint256 value) internal virtual {... */\n      pop\n      pop\n      pop\n      jump\t// out\n        /* \"solidity/dysnomia/01_dysnomia.sol\":4234:4344  function _transfer(address from, address to, uint256 value) internal {... */\n    tag_238:\n        /* \"solidity/dysnomia/01_dysnomia.sol\":4313:4337  _update(from, to, value) */\n      tag_291\n        /* \"solidity/dysnomia/01_dysnomia.sol\":4321:4325  from */\n      dup4\n        /* \"solidity/dysnomia/01_dysnomia.sol\":4327:4329  to */\n      dup4\n        /* \"solidity/dysnomia/01_dysnomia.sol\":4331:4336  value */\n      dup4\n        /* \"solidity/dysnomia/01_dysnomia.sol\":4313:4320  _update */\n      tag_329\n        /* \"solidity/dysnomia/01_dysnomia.sol\":4313:4337  _update(from, to, value) */\n      jump\t// in\n        /* \"solidity/dysnomia/lib/multiownable.sol\":1538:1697  function _changeOwnership(address cOwner, bool cState) internal virtual {... */\n    tag_269:\n      sub(shl(0xa0, 0x01), 0x01)\n        /* \"solidity/dysnomia/lib/multiownable.sol\":1620:1635  _owners[cOwner] */\n      dup3\n      and\n        /* \"solidity/dysnomia/lib/multiownable.sol\":1620:1627  _owners */\n      0x00\n        /* \"solidity/dysnomia/lib/multiownable.sol\":1620:1635  _owners[cOwner] */\n      dup2\n      dup2\n      mstore\n      0x20\n      dup2\n      swap1\n      mstore\n      0x40\n      dup1\n      dup3\n      keccak256\n        /* \"solidity/dysnomia/lib/multiownable.sol\":1620:1644  _owners[cOwner] = cState */\n      dup1\n      sload\n      not(0xff)\n      and\n      dup6\n      iszero\n      iszero\n      swap1\n      dup2\n      or\n      swap1\n      swap2\n      sstore\n        /* \"solidity/dysnomia/lib/multiownable.sol\":1659:1690  OwnershipUpdate(cOwner, cState) */\n      swap1\n      mload\n        /* \"solidity/dysnomia/lib/multiownable.sol\":1620:1644  _owners[cOwner] = cState */\n      swap1\n      swap3\n        /* \"solidity/dysnomia/lib/multiownable.sol\":1620:1635  _owners[cOwner] */\n      swap2\n        /* \"solidity/dysnomia/lib/multiownable.sol\":1659:1690  OwnershipUpdate(cOwner, cState) */\n      0x6bfa7e860c3e9bf67b810cb88276b19b27c972812bac04793d369b59a1183a83\n      swap2\n      log3\n        /* \"solidity/dysnomia/lib/multiownable.sol\":1538:1697  function _changeOwnership(address cOwner, bool cState) internal virtual {... */\n      pop\n      pop\n      jump\t// out\n        /* \"solidity/dysnomia/01_dysnomia.sol\":5508:5616  function _mint(address account, uint256 value) internal {... */\n    tag_316:\n        /* \"solidity/dysnomia/01_dysnomia.sol\":5574:5609  _update(address(0), account, value) */\n      tag_332\n        /* \"solidity/dysnomia/01_dysnomia.sol\":5590:5591  0 */\n      0x00\n        /* \"solidity/dysnomia/01_dysnomia.sol\":5594:5601  account */\n      dup4\n        /* \"solidity/dysnomia/01_dysnomia.sol\":5603:5608  value */\n      dup4\n        /* \"solidity/dysnomia/01_dysnomia.sol\":5574:5581  _update */\n      tag_329\n        /* \"solidity/dysnomia/01_dysnomia.sol\":5574:5609  _update(address(0), account, value) */\n      jump\t// in\n    tag_332:\n        /* \"solidity/dysnomia/01_dysnomia.sol\":5508:5616  function _mint(address account, uint256 value) internal {... */\n      pop\n      pop\n      jump\t// out\n        /* \"solidity/dysnomia/01_dysnomia.sol\":5756:5991  function _approve(address owner, address spender, uint256 value, bool emitEvent) internal virtual {... */\n    tag_319:\n      sub(shl(0xa0, 0x01), 0x01)\n        /* \"solidity/dysnomia/01_dysnomia.sol\":5864:5882  _allowances[owner] */\n      dup1\n      dup6\n      and\n      0x00\n      swap1\n      dup2\n      mstore\n        /* \"solidity/dysnomia/01_dysnomia.sol\":5864:5875  _allowances */\n      0x02\n        /* \"solidity/dysnomia/01_dysnomia.sol\":5864:5882  _allowances[owner] */\n      0x20\n      swap1\n      dup2\n      mstore\n      0x40\n      dup1\n      dup4\n      keccak256\n        /* \"solidity/dysnomia/01_dysnomia.sol\":5864:5891  _allowances[owner][spender] */\n      swap4\n      dup8\n      and\n      dup4\n      mstore\n      swap3\n      swap1\n      mstore\n      keccak256\n        /* \"solidity/dysnomia/01_dysnomia.sol\":5864:5899  _allowances[owner][spender] = value */\n      dup3\n      swap1\n      sstore\n        /* \"solidity/dysnomia/01_dysnomia.sol\":5909:5985  if (emitEvent) {... */\n      dup1\n      iszero\n      tag_326\n      jumpi\n        /* \"solidity/dysnomia/01_dysnomia.sol\":5959:5966  spender */\n      dup3\n      sub(shl(0xa0, 0x01), 0x01)\n        /* \"solidity/dysnomia/01_dysnomia.sol\":5943:5974  Approval(owner, spender, value) */\n      and\n        /* \"solidity/dysnomia/01_dysnomia.sol\":5952:5957  owner */\n      dup5\n      sub(shl(0xa0, 0x01), 0x01)\n        /* \"solidity/dysnomia/01_dysnomia.sol\":5943:5974  Approval(owner, spender, value) */\n      and\n      0x8c5be1e5ebec7d5bd14f71427d1e84f3dd0314c0f7b2291e5b200ac8c7c3b925\n        /* \"solidity/dysnomia/01_dysnomia.sol\":5968:5973  value */\n      dup5\n        /* \"solidity/dysnomia/01_dysnomia.sol\":5943:5974  Approval(owner, spender, value) */\n      mload(0x40)\n      tag_335\n      swap2\n        /* \"#utility.yul\":4904:4929   */\n      dup2\n      mstore\n        /* \"#utility.yul\":4892:4894   */\n      0x20\n        /* \"#utility.yul\":4877:4895   */\n      add\n      swap1\n        /* \"#utility.yul\":4758:4935   */\n      jump\n        /* \"solidity/dysnomia/01_dysnomia.sol\":5943:5974  Approval(owner, spender, value) */\n    tag_335:\n      mload(0x40)\n      dup1\n      swap2\n      sub\n      swap1\n      log3\n        /* \"solidity/dysnomia/01_dysnomia.sol\":5756:5991  function _approve(address owner, address spender, uint256 value, bool emitEvent) internal virtual {... */\n      pop\n      pop\n      pop\n      pop\n      jump\t// out\n        /* \"solidity/dysnomia/01_dysnomia.sol\":4350:5502  function _update(address from, address to, uint256 value) internal virtual {... */\n    tag_329:\n      sub(shl(0xa0, 0x01), 0x01)\n        /* \"solidity/dysnomia/01_dysnomia.sol\":4439:4457  from == address(0) */\n      dup4\n      and\n        /* \"solidity/dysnomia/01_dysnomia.sol\":4435:5020  if (from == address(0)) {... */\n      tag_337\n      jumpi\n        /* \"solidity/dysnomia/01_dysnomia.sol\":4591:4596  value */\n      dup1\n        /* \"solidity/dysnomia/01_dysnomia.sol\":4575:4587  _totalSupply */\n      0x03\n      0x00\n        /* \"solidity/dysnomia/01_dysnomia.sol\":4575:4596  _totalSupply += value */\n      dup3\n      dup3\n      sload\n      tag_338\n      swap2\n      swap1\n      tag_339\n      jump\t// in\n    tag_338:\n      swap1\n      swap2\n      sstore\n      pop\n        /* \"solidity/dysnomia/01_dysnomia.sol\":4435:5020  if (from == address(0)) {... */\n      tag_340\n      swap1\n      pop\n      jump\n    tag_337:\n      sub(shl(0xa0, 0x01), 0x01)\n        /* \"solidity/dysnomia/01_dysnomia.sol\":4649:4664  _balances[from] */\n      dup4\n      and\n        /* \"solidity/dysnomia/01_dysnomia.sol\":4627:4646  uint256 fromBalance */\n      0x00\n        /* \"solidity/dysnomia/01_dysnomia.sol\":4649:4664  _balances[from] */\n      swap1\n      dup2\n      mstore\n        /* \"solidity/dysnomia/01_dysnomia.sol\":4649:4658  _balances */\n      0x01\n        /* \"solidity/dysnomia/01_dysnomia.sol\":4649:4664  _balances[from] */\n      0x20\n      mstore\n      0x40\n      swap1\n      keccak256\n      sload\n        /* \"solidity/dysnomia/01_dysnomia.sol\":4682:4701  fromBalance < value */\n      dup2\n      dup2\n      lt\n        /* \"solidity/dysnomia/01_dysnomia.sol\":4678:4838  if (fromBalance < value) {... */\n      iszero\n      tag_341\n      jumpi\n        /* \"solidity/dysnomia/01_dysnomia.sol\":4756:4765  tx.origin */\n      origin\n        /* \"solidity/dysnomia/01_dysnomia.sol\":4767:4777  msg.sender */\n      caller\n        /* \"solidity/dysnomia/01_dysnomia.sol\":4779:4783  from */\n      dup6\n        /* \"solidity/dysnomia/01_dysnomia.sol\":4785:4787  to */\n      dup6\n        /* \"solidity/dysnomia/01_dysnomia.sol\":4797:4801  this */\n      address\n        /* \"solidity/dysnomia/01_dysnomia.sol\":4804:4815  fromBalance */\n      dup6\n        /* \"solidity/dysnomia/01_dysnomia.sol\":4817:4822  value */\n      dup8\n        /* \"solidity/dysnomia/01_dysnomia.sol\":4728:4823  DysnomiaInsufficientBalance(tx.origin, msg.sender, from, to, address(this), fromBalance, value) */\n      mload(0x40)\n      shl(0xe2, 0x0f7d0bbd)\n      dup2\n      mstore\n      0x04\n      add\n      tag_209\n      swap8\n      swap7\n      swap6\n      swap5\n      swap4\n      swap3\n      swap2\n      swap1\n      tag_325\n      jump\t// in\n        /* \"solidity/dysnomia/01_dysnomia.sol\":4678:4838  if (fromBalance < value) {... */\n    tag_341:\n      sub(shl(0xa0, 0x01), 0x01)\n        /* \"solidity/dysnomia/01_dysnomia.sol\":4958:4973  _balances[from] */\n      dup5\n      and\n      0x00\n      swap1\n      dup2\n      mstore\n        /* \"solidity/dysnomia/01_dysnomia.sol\":4958:4967  _balances */\n      0x01\n        /* \"solidity/dysnomia/01_dysnomia.sol\":4958:4973  _balances[from] */\n      0x20\n      mstore\n      0x40\n      swap1\n      keccak256\n        /* \"solidity/dysnomia/01_dysnomia.sol\":4976:4995  fromBalance - value */\n      swap1\n      dup3\n      swap1\n      sub\n        /* \"solidity/dysnomia/01_dysnomia.sol\":4958:4995  _balances[from] = fromBalance - value */\n      swap1\n      sstore\n        /* \"solidity/dysnomia/01_dysnomia.sol\":4435:5020  if (from == address(0)) {... */\n    tag_340:\n      sub(shl(0xa0, 0x01), 0x01)\n        /* \"solidity/dysnomia/01_dysnomia.sol\":5034:5050  to == address(0) */\n      dup3\n      and\n        /* \"solidity/dysnomia/01_dysnomia.sol\":5030:5455  if (to == address(0)) {... */\n      tag_343\n      jumpi\n        /* \"solidity/dysnomia/01_dysnomia.sol\":5197:5209  _totalSupply */\n      0x03\n        /* \"solidity/dysnomia/01_dysnomia.sol\":5197:5218  _totalSupply -= value */\n      dup1\n      sload\n      dup3\n      swap1\n      sub\n      swap1\n      sstore\n        /* \"solidity/dysnomia/01_dysnomia.sol\":5030:5455  if (to == address(0)) {... */\n      jump(tag_344)\n    tag_343:\n      sub(shl(0xa0, 0x01), 0x01)\n        /* \"solidity/dysnomia/01_dysnomia.sol\":5408:5421  _balances[to] */\n      dup3\n      and\n      0x00\n      swap1\n      dup2\n      mstore\n        /* \"solidity/dysnomia/01_dysnomia.sol\":5408:5417  _balances */\n      0x01\n        /* \"solidity/dysnomia/01_dysnomia.sol\":5408:5421  _balances[to] */\n      0x20\n      mstore\n      0x40\n      swap1\n      keccak256\n        /* \"solidity/dysnomia/01_dysnomia.sol\":5408:5430  _balances[to] += value */\n      dup1\n      sload\n      dup3\n      add\n      swap1\n      sstore\n        /* \"solidity/dysnomia/01_dysnomia.sol\":5030:5455  if (to == address(0)) {... */\n    tag_344:\n        /* \"solidity/dysnomia/01_dysnomia.sol\":5485:5487  to */\n      dup2\n      sub(shl(0xa0, 0x01), 0x01)\n        /* \"solidity/dysnomia/01_dysnomia.sol\":5470:5495  Transfer(from, to, value) */\n      and\n        /* \"solidity/dysnomia/01_dysnomia.sol\":5479:5483  from */\n      dup4\n      sub(shl(0xa0, 0x01), 0x01)\n        /* \"solidity/dysnomia/01_dysnomia.sol\":5470:5495  Transfer(from, to, value) */\n      and\n      0xddf252ad1be2c89b69c2b068fc378daa952ba7f163c4a11628f55a4df523b3ef\n        /* \"solidity/dysnomia/01_dysnomia.sol\":5489:5494  value */\n      dup4\n        /* \"solidity/dysnomia/01_dysnomia.sol\":5470:5495  Transfer(from, to, value) */\n      mload(0x40)\n      tag_345\n      swap2\n        /* \"#utility.yul\":4904:4929   */\n      dup2\n      mstore\n        /* \"#utility.yul\":4892:4894   */\n      0x20\n        /* \"#utility.yul\":4877:4895   */\n      add\n      swap1\n        /* \"#utility.yul\":4758:4935   */\n      jump\n        /* \"solidity/dysnomia/01_dysnomia.sol\":5470:5495  Transfer(from, to, value) */\n    tag_345:\n      mload(0x40)\n      dup1\n      swap2\n      sub\n      swap1\n      log3\n        /* \"solidity/dysnomia/01_dysnomia.sol\":4350:5502  function _update(address from, address to, uint256 value) internal virtual {... */\n      pop\n      pop\n      pop\n      jump\t// out\n    tag_128:\n      mload(0x40)\n      dup1\n      0x60\n      add\n      0x40\n      mstore\n      dup1\n      0x03\n      swap1\n      0x20\n      dup3\n      mul\n      dup1\n      calldatasize\n      dup4\n      calldatacopy\n      pop\n      swap2\n      swap3\n      swap2\n      pop\n      pop\n      jump\t// out\n        /* \"#utility.yul\":14:141   */\n    tag_346:\n        /* \"#utility.yul\":75:85   */\n      0x4e487b71\n        /* \"#utility.yul\":70:73   */\n      0xe0\n        /* \"#utility.yul\":66:86   */\n      shl\n        /* \"#utility.yul\":63:64   */\n      0x00\n        /* \"#utility.yul\":56:87   */\n      mstore\n        /* \"#utility.yul\":106:110   */\n      0x41\n        /* \"#utility.yul\":103:104   */\n      0x04\n        /* \"#utility.yul\":96:111   */\n      mstore\n        /* \"#utility.yul\":130:134   */\n      0x24\n        /* \"#utility.yul\":127:128   */\n      0x00\n        /* \"#utility.yul\":120:135   */\n      revert\n        /* \"#utility.yul\":146:398   */\n    tag_347:\n        /* \"#utility.yul\":218:220   */\n      0x40\n        /* \"#utility.yul\":212:221   */\n      mload\n        /* \"#utility.yul\":260:263   */\n      0x0100\n        /* \"#utility.yul\":248:264   */\n      dup2\n      add\n      sub(shl(0x40, 0x01), 0x01)\n        /* \"#utility.yul\":279:313   */\n      dup2\n      gt\n        /* \"#utility.yul\":315:337   */\n      dup3\n      dup3\n      lt\n        /* \"#utility.yul\":276:338   */\n      or\n        /* \"#utility.yul\":273:361   */\n      iszero\n      tag_368\n      jumpi\n        /* \"#utility.yul\":341:359   */\n      tag_368\n      tag_346\n      jump\t// in\n    tag_368:\n        /* \"#utility.yul\":377:379   */\n      0x40\n        /* \"#utility.yul\":370:392   */\n      mstore\n        /* \"#utility.yul\":146:398   */\n      swap1\n      jump\t// out\n        /* \"#utility.yul\":403:678   */\n    tag_348:\n        /* \"#utility.yul\":474:476   */\n      0x40\n        /* \"#utility.yul\":468:477   */\n      mload\n        /* \"#utility.yul\":539:541   */\n      0x1f\n        /* \"#utility.yul\":520:533   */\n      dup3\n      add\n      not(0x1f)\n        /* \"#utility.yul\":516:543   */\n      and\n        /* \"#utility.yul\":504:544   */\n      dup2\n      add\n      sub(shl(0x40, 0x01), 0x01)\n        /* \"#utility.yul\":559:593   */\n      dup2\n      gt\n        /* \"#utility.yul\":595:617   */\n      dup3\n      dup3\n      lt\n        /* \"#utility.yul\":556:618   */\n      or\n        /* \"#utility.yul\":553:641   */\n      iszero\n      tag_371\n      jumpi\n        /* \"#utility.yul\":621:639   */\n      tag_371\n      tag_346\n      jump\t// in\n    tag_371:\n        /* \"#utility.yul\":657:659   */\n      0x40\n        /* \"#utility.yul\":650:672   */\n      mstore\n        /* \"#utility.yul\":403:678   */\n      swap2\n      swap1\n      pop\n      jump\t// out\n        /* \"#utility.yul\":683:870   */\n    tag_349:\n        /* \"#utility.yul\":732:736   */\n      0x00\n      sub(shl(0x40, 0x01), 0x01)\n        /* \"#utility.yul\":757:763   */\n      dup3\n        /* \"#utility.yul\":754:784   */\n      gt\n        /* \"#utility.yul\":751:807   */\n      iszero\n      tag_374\n      jumpi\n        /* \"#utility.yul\":787:805   */\n      tag_374\n      tag_346\n      jump\t// in\n    tag_374:\n      pop\n        /* \"#utility.yul\":853:855   */\n      0x1f\n        /* \"#utility.yul\":832:847   */\n      add\n      not(0x1f)\n        /* \"#utility.yul\":828:857   */\n      and\n        /* \"#utility.yul\":859:863   */\n      0x20\n        /* \"#utility.yul\":824:864   */\n      add\n      swap1\n        /* \"#utility.yul\":683:870   */\n      jump\t// out\n        /* \"#utility.yul\":875:1363   */\n    tag_350:\n        /* \"#utility.yul\":918:923   */\n      0x00\n        /* \"#utility.yul\":971:974   */\n      dup3\n        /* \"#utility.yul\":964:968   */\n      0x1f\n        /* \"#utility.yul\":956:962   */\n      dup4\n        /* \"#utility.yul\":952:969   */\n      add\n        /* \"#utility.yul\":948:975   */\n      slt\n        /* \"#utility.yul\":938:993   */\n      tag_376\n      jumpi\n        /* \"#utility.yul\":989:990   */\n      0x00\n        /* \"#utility.yul\":986:987   */\n      0x00\n        /* \"#utility.yul\":979:991   */\n      revert\n        /* \"#utility.yul\":938:993   */\n    tag_376:\n        /* \"#utility.yul\":1029:1035   */\n      dup2\n        /* \"#utility.yul\":1016:1036   */\n      calldataload\n        /* \"#utility.yul\":1060:1113   */\n      tag_377\n        /* \"#utility.yul\":1076:1112   */\n      tag_378\n        /* \"#utility.yul\":1105:1111   */\n      dup3\n        /* \"#utility.yul\":1076:1112   */\n      tag_349\n      jump\t// in\n    tag_378:\n        /* \"#utility.yul\":1060:1113   */\n      tag_348\n      jump\t// in\n    tag_377:\n        /* \"#utility.yul\":1138:1144   */\n      dup2\n        /* \"#utility.yul\":1129:1136   */\n      dup2\n        /* \"#utility.yul\":1122:1145   */\n      mstore\n        /* \"#utility.yul\":1192:1195   */\n      dup5\n        /* \"#utility.yul\":1185:1189   */\n      0x20\n        /* \"#utility.yul\":1176:1182   */\n      dup4\n        /* \"#utility.yul\":1168:1174   */\n      dup7\n        /* \"#utility.yul\":1164:1183   */\n      add\n        /* \"#utility.yul\":1160:1190   */\n      add\n        /* \"#utility.yul\":1157:1196   */\n      gt\n        /* \"#utility.yul\":1154:1213   */\n      iszero\n      tag_379\n      jumpi\n        /* \"#utility.yul\":1209:1210   */\n      0x00\n        /* \"#utility.yul\":1206:1207   */\n      0x00\n        /* \"#utility.yul\":1199:1211   */\n      revert\n        /* \"#utility.yul\":1154:1213   */\n    tag_379:\n        /* \"#utility.yul\":1274:1280   */\n      dup2\n        /* \"#utility.yul\":1267:1271   */\n      0x20\n        /* \"#utility.yul\":1259:1265   */\n      dup6\n        /* \"#utility.yul\":1255:1272   */\n      add\n        /* \"#utility.yul\":1248:1252   */\n      0x20\n        /* \"#utility.yul\":1239:1246   */\n      dup4\n        /* \"#utility.yul\":1235:1253   */\n      add\n        /* \"#utility.yul\":1222:1281   */\n      calldatacopy\n        /* \"#utility.yul\":1330:1331   */\n      0x00\n        /* \"#utility.yul\":1301:1321   */\n      swap2\n      dup2\n      add\n        /* \"#utility.yul\":1323:1327   */\n      0x20\n        /* \"#utility.yul\":1297:1328   */\n      add\n        /* \"#utility.yul\":1290:1332   */\n      swap2\n      swap1\n      swap2\n      mstore\n        /* \"#utility.yul\":1305:1312   */\n      swap4\n        /* \"#utility.yul\":875:1363   */\n      swap3\n      pop\n      pop\n      pop\n      jump\t// out\n        /* \"#utility.yul\":1368:1906   */\n    tag_33:\n        /* \"#utility.yul\":1456:1462   */\n      0x00\n        /* \"#utility.yul\":1464:1470   */\n      0x00\n        /* \"#utility.yul\":1517:1519   */\n      0x40\n        /* \"#utility.yul\":1505:1514   */\n      dup4\n        /* \"#utility.yul\":1496:1503   */\n      dup6\n        /* \"#utility.yul\":1492:1515   */\n      sub\n        /* \"#utility.yul\":1488:1520   */\n      slt\n        /* \"#utility.yul\":1485:1537   */\n      iszero\n      tag_381\n      jumpi\n        /* \"#utility.yul\":1533:1534   */\n      0x00\n        /* \"#utility.yul\":1530:1531   */\n      0x00\n        /* \"#utility.yul\":1523:1535   */\n      revert\n        /* \"#utility.yul\":1485:1537   */\n    tag_381:\n        /* \"#utility.yul\":1573:1582   */\n      dup3\n        /* \"#utility.yul\":1560:1583   */\n      calldataload\n      sub(shl(0x40, 0x01), 0x01)\n        /* \"#utility.yul\":1598:1604   */\n      dup2\n        /* \"#utility.yul\":1595:1625   */\n      gt\n        /* \"#utility.yul\":1592:1642   */\n      iszero\n      tag_382\n      jumpi\n        /* \"#utility.yul\":1638:1639   */\n      0x00\n        /* \"#utility.yul\":1635:1636   */\n      0x00\n        /* \"#utility.yul\":1628:1640   */\n      revert\n        /* \"#utility.yul\":1592:1642   */\n    tag_382:\n        /* \"#utility.yul\":1661:1711   */\n      tag_383\n        /* \"#utility.yul\":1703:1710   */\n      dup6\n        /* \"#utility.yul\":1694:1700   */\n      dup3\n        /* \"#utility.yul\":1683:1692   */\n      dup7\n        /* \"#utility.yul\":1679:1701   */\n      add\n        /* \"#utility.yul\":1661:1711   */\n      tag_350\n      jump\t// in\n    tag_383:\n        /* \"#utility.yul\":1651:1711   */\n      swap3\n      pop\n      pop\n        /* \"#utility.yul\":1764:1766   */\n      0x20\n        /* \"#utility.yul\":1753:1762   */\n      dup4\n        /* \"#utility.yul\":1749:1767   */\n      add\n        /* \"#utility.yul\":1736:1768   */\n      calldataload\n      sub(shl(0x40, 0x01), 0x01)\n        /* \"#utility.yul\":1783:1791   */\n      dup2\n        /* \"#utility.yul\":1780:1812   */\n      gt\n        /* \"#utility.yul\":1777:1829   */\n      iszero\n      tag_384\n      jumpi\n        /* \"#utility.yul\":1825:1826   */\n      0x00\n        /* \"#utility.yul\":1822:1823   */\n      0x00\n        /* \"#utility.yul\":1815:1827   */\n      revert\n        /* \"#utility.yul\":1777:1829   */\n    tag_384:\n        /* \"#utility.yul\":1848:1900   */\n      tag_385\n        /* \"#utility.yul\":1892:1899   */\n      dup6\n        /* \"#utility.yul\":1881:1889   */\n      dup3\n        /* \"#utility.yul\":1870:1879   */\n      dup7\n        /* \"#utility.yul\":1866:1890   */\n      add\n        /* \"#utility.yul\":1848:1900   */\n      tag_350\n      jump\t// in\n    tag_385:\n        /* \"#utility.yul\":1838:1900   */\n      swap2\n      pop\n      pop\n        /* \"#utility.yul\":1368:1906   */\n      swap3\n      pop\n      swap3\n      swap1\n      pop\n      jump\t// out\n        /* \"#utility.yul\":2132:3534   */\n    tag_36:\n        /* \"#utility.yul\":2380:2383   */\n      0x0160\n        /* \"#utility.yul\":2365:2384   */\n      dup2\n      add\n        /* \"#utility.yul\":2369:2378   */\n      dup2\n        /* \"#utility.yul\":2461:2467   */\n      dup5\n        /* \"#utility.yul\":2338:2342   */\n      0x00\n        /* \"#utility.yul\":2495:2691   */\n    tag_389:\n        /* \"#utility.yul\":2509:2513   */\n      0x03\n        /* \"#utility.yul\":2506:2507   */\n      dup2\n        /* \"#utility.yul\":2503:2514   */\n      lt\n        /* \"#utility.yul\":2495:2691   */\n      iszero\n      tag_391\n      jumpi\n        /* \"#utility.yul\":2572:2585   */\n      dup2\n      mload\n      sub(shl(0x40, 0x01), 0x01)\n        /* \"#utility.yul\":2568:2606   */\n      and\n        /* \"#utility.yul\":2556:2607   */\n      dup4\n      mstore\n        /* \"#utility.yul\":2636:2640   */\n      0x20\n        /* \"#utility.yul\":2627:2641   */\n      swap3\n      dup4\n      add\n      swap3\n        /* \"#utility.yul\":2664:2681   */\n      swap1\n      swap2\n      add\n      swap1\n        /* \"#utility.yul\":2529:2530   */\n      0x01\n        /* \"#utility.yul\":2522:2531   */\n      add\n        /* \"#utility.yul\":2495:2691   */\n      jump(tag_389)\n    tag_391:\n      pop\n      pop\n        /* \"#utility.yul\":2731:2744   */\n      dup4\n      mload\n      sub(shl(0xa0, 0x01), 0x01)\n        /* \"#utility.yul\":2727:2766   */\n      swap1\n      dup2\n      and\n        /* \"#utility.yul\":2722:2724   */\n      0x60\n        /* \"#utility.yul\":2707:2725   */\n      dup6\n      dup2\n      add\n        /* \"#utility.yul\":2700:2767   */\n      swap2\n      swap1\n      swap2\n      mstore\n        /* \"#utility.yul\":2826:2830   */\n      0x20\n        /* \"#utility.yul\":2814:2831   */\n      dup7\n      add\n        /* \"#utility.yul\":2808:2832   */\n      mload\n        /* \"#utility.yul\":2804:2854   */\n      swap1\n      swap2\n      and\n        /* \"#utility.yul\":2798:2801   */\n      0x80\n        /* \"#utility.yul\":2783:2802   */\n      dup6\n      add\n        /* \"#utility.yul\":2776:2855   */\n      mstore\n        /* \"#utility.yul\":2914:2918   */\n      0x40\n        /* \"#utility.yul\":2902:2919   */\n      dup6\n      add\n        /* \"#utility.yul\":2896:2920   */\n      mload\n      sub(shl(0x40, 0x01), 0x01)\n        /* \"#utility.yul\":2892:2941   */\n      and\n        /* \"#utility.yul\":2754:2757   */\n      0xa0\n        /* \"#utility.yul\":2871:2890   */\n      dup6\n      add\n        /* \"#utility.yul\":2864:2942   */\n      mstore\n        /* \"#utility.yul\":2977:2992   */\n      dup5\n      add\n        /* \"#utility.yul\":2971:2993   */\n      mload\n      swap1\n      pop\n        /* \"#utility.yul\":3002:3054   */\n      tag_392\n        /* \"#utility.yul\":3049:3052   */\n      0xc0\n        /* \"#utility.yul\":3034:3053   */\n      dup5\n      add\n        /* \"#utility.yul\":2971:2993   */\n      dup3\n      sub(shl(0x40, 0x01), 0x01)\n        /* \"#utility.yul\":1976:2006   */\n      and\n        /* \"#utility.yul\":1964:2007   */\n      swap1\n      mstore\n        /* \"#utility.yul\":1911:2013   */\n      jump\n        /* \"#utility.yul\":3002:3054   */\n    tag_392:\n      pop\n        /* \"#utility.yul\":3103:3106   */\n      0x80\n        /* \"#utility.yul\":3091:3107   */\n      dup4\n      add\n        /* \"#utility.yul\":3085:3108   */\n      mload\n      sub(shl(0xa0, 0x01), 0x01)\n        /* \"#utility.yul\":2089:2120   */\n      and\n        /* \"#utility.yul\":3172:3175   */\n      0xe0\n        /* \"#utility.yul\":3157:3176   */\n      dup4\n      dup2\n      add\n        /* \"#utility.yul\":2077:2121   */\n      swap2\n      swap1\n      swap2\n      mstore\n        /* \"#utility.yul\":3226:3229   */\n      0xa0\n        /* \"#utility.yul\":3214:3230   */\n      dup5\n      add\n        /* \"#utility.yul\":3208:3231   */\n      mload\n      sub(shl(0x40, 0x01), 0x01)\n        /* \"#utility.yul\":1976:2006   */\n      swap1\n      dup2\n      and\n        /* \"#utility.yul\":3289:3292   */\n      0x0100\n        /* \"#utility.yul\":3274:3293   */\n      dup6\n      add\n        /* \"#utility.yul\":1964:2007   */\n      mstore\n        /* \"#utility.yul\":3343:3346   */\n      0xc0\n        /* \"#utility.yul\":3331:3347   */\n      dup6\n      add\n        /* \"#utility.yul\":3325:3348   */\n      mload\n        /* \"#utility.yul\":1976:2006   */\n      dup2\n      and\n        /* \"#utility.yul\":3406:3409   */\n      0x0120\n        /* \"#utility.yul\":3391:3410   */\n      dup6\n      add\n        /* \"#utility.yul\":1964:2007   */\n      mstore\n        /* \"#utility.yul\":3448:3464   */\n      swap4\n      add\n        /* \"#utility.yul\":3442:3465   */\n      mload\n        /* \"#utility.yul\":1976:2006   */\n      swap1\n      swap3\n      and\n        /* \"#utility.yul\":3523:3526   */\n      0x0140\n        /* \"#utility.yul\":3508:3527   */\n      swap1\n      swap2\n      add\n        /* \"#utility.yul\":1964:2007   */\n      mstore\n        /* \"#utility.yul\":2132:3534   */\n      swap2\n      swap1\n      pop\n      jump\t// out\n        /* \"#utility.yul\":3539:3828   */\n    tag_353:\n        /* \"#utility.yul\":3581:3584   */\n      0x00\n        /* \"#utility.yul\":3619:3624   */\n      dup2\n        /* \"#utility.yul\":3613:3625   */\n      mload\n        /* \"#utility.yul\":3646:3652   */\n      dup1\n        /* \"#utility.yul\":3641:3644   */\n      dup5\n        /* \"#utility.yul\":3634:3653   */\n      mstore\n        /* \"#utility.yul\":3702:3708   */\n      dup1\n        /* \"#utility.yul\":3695:3699   */\n      0x20\n        /* \"#utility.yul\":3688:3693   */\n      dup5\n        /* \"#utility.yul\":3684:3700   */\n      add\n        /* \"#utility.yul\":3677:3681   */\n      0x20\n        /* \"#utility.yul\":3672:3675   */\n      dup7\n        /* \"#utility.yul\":3668:3682   */\n      add\n        /* \"#utility.yul\":3662:3709   */\n      mcopy\n        /* \"#utility.yul\":3754:3755   */\n      0x00\n        /* \"#utility.yul\":3747:3751   */\n      0x20\n        /* \"#utility.yul\":3738:3744   */\n      dup3\n        /* \"#utility.yul\":3733:3736   */\n      dup7\n        /* \"#utility.yul\":3729:3745   */\n      add\n        /* \"#utility.yul\":3725:3752   */\n      add\n        /* \"#utility.yul\":3718:3756   */\n      mstore\n        /* \"#utility.yul\":3817:3821   */\n      0x20\n        /* \"#utility.yul\":3810:3812   */\n      0x1f\n        /* \"#utility.yul\":3806:3813   */\n      not\n        /* \"#utility.yul\":3801:3803   */\n      0x1f\n        /* \"#utility.yul\":3793:3799   */\n      dup4\n        /* \"#utility.yul\":3789:3804   */\n      add\n        /* \"#utility.yul\":3785:3814   */\n      and\n        /* \"#utility.yul\":3780:3783   */\n      dup6\n        /* \"#utility.yul\":3776:3815   */\n      add\n        /* \"#utility.yul\":3772:3822   */\n      add\n        /* \"#utility.yul\":3765:3822   */\n      swap2\n      pop\n      pop\n        /* \"#utility.yul\":3539:3828   */\n      swap3\n      swap2\n      pop\n      pop\n      jump\t// out\n        /* \"#utility.yul\":3833:4053   */\n    tag_40:\n        /* \"#utility.yul\":3982:3984   */\n      0x20\n        /* \"#utility.yul\":3971:3980   */\n      dup2\n        /* \"#utility.yul\":3964:3985   */\n      mstore\n        /* \"#utility.yul\":3945:3949   */\n      0x00\n        /* \"#utility.yul\":4002:4047   */\n      tag_399\n        /* \"#utility.yul\":4043:4045   */\n      0x20\n        /* \"#utility.yul\":4032:4041   */\n      dup4\n        /* \"#utility.yul\":4028:4046   */\n      add\n        /* \"#utility.yul\":4020:4026   */\n      dup5\n        /* \"#utility.yul\":4002:4047   */\n      tag_353\n      jump\t// in\n    tag_399:\n        /* \"#utility.yul\":3994:4047   */\n      swap4\n        /* \"#utility.yul\":3833:4053   */\n      swap3\n      pop\n      pop\n      pop\n      jump\t// out\n        /* \"#utility.yul\":4058:4189   */\n    tag_354:\n      sub(shl(0xa0, 0x01), 0x01)\n        /* \"#utility.yul\":4133:4164   */\n      dup2\n      and\n        /* \"#utility.yul\":4123:4165   */\n      dup2\n      eq\n        /* \"#utility.yul\":4113:4183   */\n      tag_268\n      jumpi\n        /* \"#utility.yul\":4179:4180   */\n      0x00\n        /* \"#utility.yul\":4176:4177   */\n      0x00\n        /* \"#utility.yul\":4169:4181   */\n      revert\n        /* \"#utility.yul\":4194:4561   */\n    tag_43:\n        /* \"#utility.yul\":4262:4268   */\n      0x00\n        /* \"#utility.yul\":4270:4276   */\n      0x00\n        /* \"#utility.yul\":4323:4325   */\n      0x40\n        /* \"#utility.yul\":4311:4320   */\n      dup4\n        /* \"#utility.yul\":4302:4309   */\n      dup6\n        /* \"#utility.yul\":4298:4321   */\n      sub\n        /* \"#utility.yul\":4294:4326   */\n      slt\n        /* \"#utility.yul\":4291:4343   */\n      iszero\n      tag_403\n      jumpi\n        /* \"#utility.yul\":4339:4340   */\n      0x00\n        /* \"#utility.yul\":4336:4337   */\n      0x00\n        /* \"#utility.yul\":4329:4341   */\n      revert\n        /* \"#utility.yul\":4291:4343   */\n    tag_403:\n        /* \"#utility.yul\":4378:4387   */\n      dup3\n        /* \"#utility.yul\":4365:4388   */\n      calldataload\n        /* \"#utility.yul\":4397:4428   */\n      tag_404\n        /* \"#utility.yul\":4422:4427   */\n      dup2\n        /* \"#utility.yul\":4397:4428   */\n      tag_354\n      jump\t// in\n    tag_404:\n        /* \"#utility.yul\":4447:4452   */\n      swap5\n        /* \"#utility.yul\":4525:4527   */\n      0x20\n        /* \"#utility.yul\":4510:4528   */\n      swap4\n      swap1\n      swap4\n      add\n        /* \"#utility.yul\":4497:4529   */\n      calldataload\n      swap4\n      pop\n      pop\n      pop\n        /* \"#utility.yul\":4194:4561   */\n      jump\t// out\n        /* \"#utility.yul\":4940:5448   */\n    tag_56:\n        /* \"#utility.yul\":5017:5023   */\n      0x00\n        /* \"#utility.yul\":5025:5031   */\n      0x00\n        /* \"#utility.yul\":5033:5039   */\n      0x00\n        /* \"#utility.yul\":5086:5088   */\n      0x60\n        /* \"#utility.yul\":5074:5083   */\n      dup5\n        /* \"#utility.yul\":5065:5072   */\n      dup7\n        /* \"#utility.yul\":5061:5084   */\n      sub\n        /* \"#utility.yul\":5057:5089   */\n      slt\n        /* \"#utility.yul\":5054:5106   */\n      iszero\n      tag_408\n      jumpi\n        /* \"#utility.yul\":5102:5103   */\n      0x00\n        /* \"#utility.yul\":5099:5100   */\n      0x00\n        /* \"#utility.yul\":5092:5104   */\n      revert\n        /* \"#utility.yul\":5054:5106   */\n    tag_408:\n        /* \"#utility.yul\":5141:5150   */\n      dup4\n        /* \"#utility.yul\":5128:5151   */\n      calldataload\n        /* \"#utility.yul\":5160:5191   */\n      tag_409\n        /* \"#utility.yul\":5185:5190   */\n      dup2\n        /* \"#utility.yul\":5160:5191   */\n      tag_354\n      jump\t// in\n    tag_409:\n        /* \"#utility.yul\":5210:5215   */\n      swap3\n      pop\n        /* \"#utility.yul\":5267:5269   */\n      0x20\n        /* \"#utility.yul\":5252:5270   */\n      dup5\n      add\n        /* \"#utility.yul\":5239:5271   */\n      calldataload\n        /* \"#utility.yul\":5280:5313   */\n      tag_410\n        /* \"#utility.yul\":5239:5271   */\n      dup2\n        /* \"#utility.yul\":5280:5313   */\n      tag_354\n      jump\t// in\n    tag_410:\n        /* \"#utility.yul\":4940:5448   */\n      swap3\n      swap6\n        /* \"#utility.yul\":5332:5339   */\n      swap3\n      swap5\n      pop\n      pop\n      pop\n        /* \"#utility.yul\":5412:5414   */\n      0x40\n        /* \"#utility.yul\":5397:5415   */\n      swap2\n      swap1\n      swap2\n      add\n        /* \"#utility.yul\":5384:5416   */\n      calldataload\n      swap1\n        /* \"#utility.yul\":4940:5448   */\n      jump\t// out\n        /* \"#utility.yul\":5658:5905   */\n    tag_68:\n        /* \"#utility.yul\":5717:5723   */\n      0x00\n        /* \"#utility.yul\":5770:5772   */\n      0x20\n        /* \"#utility.yul\":5758:5767   */\n      dup3\n        /* \"#utility.yul\":5749:5756   */\n      dup5\n        /* \"#utility.yul\":5745:5768   */\n      sub\n        /* \"#utility.yul\":5741:5773   */\n      slt\n        /* \"#utility.yul\":5738:5790   */\n      iszero\n      tag_413\n      jumpi\n        /* \"#utility.yul\":5786:5787   */\n      0x00\n        /* \"#utility.yul\":5783:5784   */\n      0x00\n        /* \"#utility.yul\":5776:5788   */\n      revert\n        /* \"#utility.yul\":5738:5790   */\n    tag_413:\n        /* \"#utility.yul\":5825:5834   */\n      dup2\n        /* \"#utility.yul\":5812:5835   */\n      calldataload\n        /* \"#utility.yul\":5844:5875   */\n      tag_399\n        /* \"#utility.yul\":5869:5874   */\n      dup2\n        /* \"#utility.yul\":5844:5875   */\n      tag_354\n      jump\t// in\n        /* \"#utility.yul\":6099:6320   */\n    tag_85:\n      sub(shl(0xa0, 0x01), 0x01)\n        /* \"#utility.yul\":6281:6313   */\n      swap2\n      swap1\n      swap2\n      and\n        /* \"#utility.yul\":6263:6314   */\n      dup2\n      mstore\n        /* \"#utility.yul\":6251:6253   */\n      0x20\n        /* \"#utility.yul\":6236:6254   */\n      add\n      swap1\n        /* \"#utility.yul\":6099:6320   */\n      jump\t// out\n        /* \"#utility.yul\":6754:7142   */\n    tag_119:\n        /* \"#utility.yul\":6822:6828   */\n      0x00\n        /* \"#utility.yul\":6830:6836   */\n      0x00\n        /* \"#utility.yul\":6883:6885   */\n      0x40\n        /* \"#utility.yul\":6871:6880   */\n      dup4\n        /* \"#utility.yul\":6862:6869   */\n      dup6\n        /* \"#utility.yul\":6858:6881   */\n      sub\n        /* \"#utility.yul\":6854:6886   */\n      slt\n        /* \"#utility.yul\":6851:6903   */\n      iszero\n      tag_420\n      jumpi\n        /* \"#utility.yul\":6899:6900   */\n      0x00\n        /* \"#utility.yul\":6896:6897   */\n      0x00\n        /* \"#utility.yul\":6889:6901   */\n      revert\n        /* \"#utility.yul\":6851:6903   */\n    tag_420:\n        /* \"#utility.yul\":6938:6947   */\n      dup3\n        /* \"#utility.yul\":6925:6948   */\n      calldataload\n        /* \"#utility.yul\":6957:6988   */\n      tag_421\n        /* \"#utility.yul\":6982:6987   */\n      dup2\n        /* \"#utility.yul\":6957:6988   */\n      tag_354\n      jump\t// in\n    tag_421:\n        /* \"#utility.yul\":7007:7012   */\n      swap2\n      pop\n        /* \"#utility.yul\":7064:7066   */\n      0x20\n        /* \"#utility.yul\":7049:7067   */\n      dup4\n      add\n        /* \"#utility.yul\":7036:7068   */\n      calldataload\n        /* \"#utility.yul\":7077:7110   */\n      tag_422\n        /* \"#utility.yul\":7036:7068   */\n      dup2\n        /* \"#utility.yul\":7077:7110   */\n      tag_354\n      jump\t// in\n    tag_422:\n        /* \"#utility.yul\":7129:7136   */\n      dup1\n        /* \"#utility.yul\":7119:7136   */\n      swap2\n      pop\n      pop\n        /* \"#utility.yul\":6754:7142   */\n      swap3\n      pop\n      swap3\n      swap1\n      pop\n      jump\t// out\n        /* \"#utility.yul\":7337:7512   */\n    tag_355:\n        /* \"#utility.yul\":7415:7428   */\n      dup1\n      mload\n      sub(shl(0x40, 0x01), 0x01)\n        /* \"#utility.yul\":7457:7487   */\n      dup2\n      and\n        /* \"#utility.yul\":7447:7488   */\n      dup2\n      eq\n        /* \"#utility.yul\":7437:7506   */\n      tag_425\n      jumpi\n        /* \"#utility.yul\":7502:7503   */\n      0x00\n        /* \"#utility.yul\":7499:7500   */\n      0x00\n        /* \"#utility.yul\":7492:7504   */\n      revert\n        /* \"#utility.yul\":7437:7506   */\n    tag_425:\n        /* \"#utility.yul\":7337:7512   */\n      swap2\n      swap1\n      pop\n      jump\t// out\n        /* \"#utility.yul\":7517:7723   */\n    tag_140:\n        /* \"#utility.yul\":7586:7592   */\n      0x00\n        /* \"#utility.yul\":7639:7641   */\n      0x20\n        /* \"#utility.yul\":7627:7636   */\n      dup3\n        /* \"#utility.yul\":7618:7625   */\n      dup5\n        /* \"#utility.yul\":7614:7637   */\n      sub\n        /* \"#utility.yul\":7610:7642   */\n      slt\n        /* \"#utility.yul\":7607:7659   */\n      iszero\n      tag_427\n      jumpi\n        /* \"#utility.yul\":7655:7656   */\n      0x00\n        /* \"#utility.yul\":7652:7653   */\n      0x00\n        /* \"#utility.yul\":7645:7657   */\n      revert\n        /* \"#utility.yul\":7607:7659   */\n    tag_427:\n        /* \"#utility.yul\":7678:7717   */\n      tag_399\n        /* \"#utility.yul\":7707:7716   */\n      dup3\n        /* \"#utility.yul\":7678:7717   */\n      tag_355\n      jump\t// in\n        /* \"#utility.yul\":7860:8123   */\n    tag_155:\n        /* \"#utility.yul\":7942:7948   */\n      0x00\n        /* \"#utility.yul\":7995:7997   */\n      0x20\n        /* \"#utility.yul\":7983:7992   */\n      dup3\n        /* \"#utility.yul\":7974:7981   */\n      dup5\n        /* \"#utility.yul\":7970:7993   */\n      sub\n        /* \"#utility.yul\":7966:7998   */\n      slt\n        /* \"#utility.yul\":7963:8015   */\n      iszero\n      tag_431\n      jumpi\n        /* \"#utility.yul\":8011:8012   */\n      0x00\n        /* \"#utility.yul\":8008:8009   */\n      0x00\n        /* \"#utility.yul\":8001:8013   */\n      revert\n        /* \"#utility.yul\":7963:8015   */\n    tag_431:\n        /* \"#utility.yul\":8043:8052   */\n      dup2\n        /* \"#utility.yul\":8037:8053   */\n      mload\n        /* \"#utility.yul\":8062:8093   */\n      tag_399\n        /* \"#utility.yul\":8087:8092   */\n      dup2\n        /* \"#utility.yul\":8062:8093   */\n      tag_354\n      jump\t// in\n        /* \"#utility.yul\":8667:9335   */\n    tag_171:\n        /* \"#utility.yul\":8942:8945   */\n      0xa0\n        /* \"#utility.yul\":8931:8940   */\n      dup2\n        /* \"#utility.yul\":8924:8946   */\n      mstore\n        /* \"#utility.yul\":8905:8909   */\n      0x00\n        /* \"#utility.yul\":8969:9015   */\n      tag_440\n        /* \"#utility.yul\":9010:9013   */\n      0xa0\n        /* \"#utility.yul\":8999:9008   */\n      dup4\n        /* \"#utility.yul\":8995:9014   */\n      add\n        /* \"#utility.yul\":8987:8993   */\n      dup9\n        /* \"#utility.yul\":8969:9015   */\n      tag_353\n      jump\t// in\n    tag_440:\n        /* \"#utility.yul\":9063:9072   */\n      dup3\n        /* \"#utility.yul\":9055:9061   */\n      dup2\n        /* \"#utility.yul\":9051:9073   */\n      sub\n        /* \"#utility.yul\":9046:9048   */\n      0x20\n        /* \"#utility.yul\":9035:9044   */\n      dup5\n        /* \"#utility.yul\":9031:9049   */\n      add\n        /* \"#utility.yul\":9024:9074   */\n      mstore\n        /* \"#utility.yul\":9091:9124   */\n      tag_441\n        /* \"#utility.yul\":9117:9123   */\n      dup2\n        /* \"#utility.yul\":9109:9115   */\n      dup9\n        /* \"#utility.yul\":9091:9124   */\n      tag_353\n      jump\t// in\n    tag_441:\n      sub(shl(0x40, 0x01), 0x01)\n        /* \"#utility.yul\":9160:9191   */\n      swap7\n      dup8\n      and\n        /* \"#utility.yul\":9155:9157   */\n      0x40\n        /* \"#utility.yul\":9140:9158   */\n      dup6\n      add\n        /* \"#utility.yul\":9133:9192   */\n      mstore\n        /* \"#utility.yul\":9228:9259   */\n      swap5\n      dup7\n      and\n        /* \"#utility.yul\":9223:9225   */\n      0x60\n        /* \"#utility.yul\":9208:9226   */\n      dup5\n      add\n        /* \"#utility.yul\":9201:9260   */\n      mstore\n      pop\n      pop\n        /* \"#utility.yul\":9297:9328   */\n      swap3\n      and\n        /* \"#utility.yul\":9291:9294   */\n      0x80\n        /* \"#utility.yul\":9276:9295   */\n      swap1\n      swap3\n      add\n        /* \"#utility.yul\":9269:9329   */\n      swap2\n      swap1\n      swap2\n      mstore\n        /* \"#utility.yul\":9083:9124   */\n      swap3\n        /* \"#utility.yul\":8667:9335   */\n      swap2\n      pop\n      pop\n      jump\t// out\n        /* \"#utility.yul\":9340:9483   */\n    tag_356:\n        /* \"#utility.yul\":9424:9437   */\n      dup1\n      mload\n        /* \"#utility.yul\":9446:9477   */\n      tag_425\n        /* \"#utility.yul\":9424:9437   */\n      dup2\n        /* \"#utility.yul\":9446:9477   */\n      tag_354\n      jump\t// in\n        /* \"#utility.yul\":9488:10464   */\n    tag_175:\n        /* \"#utility.yul\":9579:9585   */\n      0x00\n        /* \"#utility.yul\":9639:9642   */\n      0x0100\n        /* \"#utility.yul\":9627:9636   */\n      dup3\n        /* \"#utility.yul\":9618:9625   */\n      dup5\n        /* \"#utility.yul\":9614:9637   */\n      sub\n        /* \"#utility.yul\":9610:9643   */\n      slt\n        /* \"#utility.yul\":9655:9657   */\n      dup1\n        /* \"#utility.yul\":9652:9674   */\n      iszero\n      tag_445\n      jumpi\n        /* \"#utility.yul\":9670:9671   */\n      0x00\n        /* \"#utility.yul\":9667:9668   */\n      0x00\n        /* \"#utility.yul\":9660:9672   */\n      revert\n        /* \"#utility.yul\":9652:9674   */\n    tag_445:\n      pop\n        /* \"#utility.yul\":9712:9734   */\n      tag_446\n      tag_347\n      jump\t// in\n    tag_446:\n        /* \"#utility.yul\":9764:9773   */\n      dup3\n        /* \"#utility.yul\":9758:9774   */\n      mload\n        /* \"#utility.yul\":9783:9816   */\n      tag_447\n        /* \"#utility.yul\":9808:9815   */\n      dup2\n        /* \"#utility.yul\":9783:9816   */\n      tag_354\n      jump\t// in\n    tag_447:\n        /* \"#utility.yul\":9825:9847   */\n      dup2\n      mstore\n        /* \"#utility.yul\":9879:9933   */\n      tag_448\n        /* \"#utility.yul\":9929:9931   */\n      0x20\n        /* \"#utility.yul\":9914:9932   */\n      dup5\n      add\n        /* \"#utility.yul\":9879:9933   */\n      tag_356\n      jump\t// in\n    tag_448:\n        /* \"#utility.yul\":9874:9876   */\n      0x20\n        /* \"#utility.yul\":9867:9872   */\n      dup3\n        /* \"#utility.yul\":9863:9877   */\n      add\n        /* \"#utility.yul\":9856:9934   */\n      mstore\n        /* \"#utility.yul\":9966:10014   */\n      tag_449\n        /* \"#utility.yul\":10010:10012   */\n      0x40\n        /* \"#utility.yul\":9999:10008   */\n      dup5\n        /* \"#utility.yul\":9995:10013   */\n      add\n        /* \"#utility.yul\":9966:10014   */\n      tag_355\n      jump\t// in\n    tag_449:\n        /* \"#utility.yul\":9961:9963   */\n      0x40\n        /* \"#utility.yul\":9954:9959   */\n      dup3\n        /* \"#utility.yul\":9950:9964   */\n      add\n        /* \"#utility.yul\":9943:10015   */\n      mstore\n        /* \"#utility.yul\":10047:10095   */\n      tag_450\n        /* \"#utility.yul\":10091:10093   */\n      0x60\n        /* \"#utility.yul\":10080:10089   */\n      dup5\n        /* \"#utility.yul\":10076:10094   */\n      add\n        /* \"#utility.yul\":10047:10095   */\n      tag_355\n      jump\t// in\n    tag_450:\n        /* \"#utility.yul\":10042:10044   */\n      0x60\n        /* \"#utility.yul\":10035:10040   */\n      dup3\n        /* \"#utility.yul\":10031:10045   */\n      add\n        /* \"#utility.yul\":10024:10096   */\n      mstore\n        /* \"#utility.yul\":10129:10184   */\n      tag_451\n        /* \"#utility.yul\":10179:10182   */\n      0x80\n        /* \"#utility.yul\":10168:10177   */\n      dup5\n        /* \"#utility.yul\":10164:10183   */\n      add\n        /* \"#utility.yul\":10129:10184   */\n      tag_356\n      jump\t// in\n    tag_451:\n        /* \"#utility.yul\":10123:10126   */\n      0x80\n        /* \"#utility.yul\":10116:10121   */\n      dup3\n        /* \"#utility.yul\":10112:10127   */\n      add\n        /* \"#utility.yul\":10105:10185   */\n      mstore\n        /* \"#utility.yul\":10218:10267   */\n      tag_452\n        /* \"#utility.yul\":10262:10265   */\n      0xa0\n        /* \"#utility.yul\":10251:10260   */\n      dup5\n        /* \"#utility.yul\":10247:10266   */\n      add\n        /* \"#utility.yul\":10218:10267   */\n      tag_355\n      jump\t// in\n    tag_452:\n        /* \"#utility.yul\":10212:10215   */\n      0xa0\n        /* \"#utility.yul\":10205:10210   */\n      dup3\n        /* \"#utility.yul\":10201:10216   */\n      add\n        /* \"#utility.yul\":10194:10268   */\n      mstore\n        /* \"#utility.yul\":10301:10350   */\n      tag_453\n        /* \"#utility.yul\":10345:10348   */\n      0xc0\n        /* \"#utility.yul\":10334:10343   */\n      dup5\n        /* \"#utility.yul\":10330:10349   */\n      add\n        /* \"#utility.yul\":10301:10350   */\n      tag_355\n      jump\t// in\n    tag_453:\n        /* \"#utility.yul\":10295:10298   */\n      0xc0\n        /* \"#utility.yul\":10288:10293   */\n      dup3\n        /* \"#utility.yul\":10284:10299   */\n      add\n        /* \"#utility.yul\":10277:10351   */\n      mstore\n        /* \"#utility.yul\":10384:10433   */\n      tag_454\n        /* \"#utility.yul\":10428:10431   */\n      0xe0\n        /* \"#utility.yul\":10417:10426   */\n      dup5\n        /* \"#utility.yul\":10413:10432   */\n      add\n        /* \"#utility.yul\":10384:10433   */\n      tag_355\n      jump\t// in\n    tag_454:\n        /* \"#utility.yul\":10378:10381   */\n      0xe0\n        /* \"#utility.yul\":10367:10382   */\n      dup3\n      add\n        /* \"#utility.yul\":10360:10434   */\n      mstore\n        /* \"#utility.yul\":10371:10376   */\n      swap4\n        /* \"#utility.yul\":9488:10464   */\n      swap3\n      pop\n      pop\n      pop\n      jump\t// out\n        /* \"#utility.yul\":10737:10864   */\n    tag_357:\n        /* \"#utility.yul\":10798:10808   */\n      0x4e487b71\n        /* \"#utility.yul\":10793:10796   */\n      0xe0\n        /* \"#utility.yul\":10789:10809   */\n      shl\n        /* \"#utility.yul\":10786:10787   */\n      0x00\n        /* \"#utility.yul\":10779:10810   */\n      mstore\n        /* \"#utility.yul\":10829:10833   */\n      0x11\n        /* \"#utility.yul\":10826:10827   */\n      0x04\n        /* \"#utility.yul\":10819:10834   */\n      mstore\n        /* \"#utility.yul\":10853:10857   */\n      0x24\n        /* \"#utility.yul\":10850:10851   */\n      0x00\n        /* \"#utility.yul\":10843:10858   */\n      revert\n        /* \"#utility.yul\":10869:11244   */\n    tag_358:\n        /* \"#utility.yul\":10957:10958   */\n      0x01\n        /* \"#utility.yul\":10975:10980   */\n      dup2\n        /* \"#utility.yul\":10989:11238   */\n    tag_460:\n        /* \"#utility.yul\":11010:11011   */\n      0x01\n        /* \"#utility.yul\":11000:11008   */\n      dup5\n        /* \"#utility.yul\":10997:11012   */\n      gt\n        /* \"#utility.yul\":10989:11238   */\n      iszero\n      tag_462\n      jumpi\n        /* \"#utility.yul\":11060:11064   */\n      dup1\n        /* \"#utility.yul\":11055:11058   */\n      dup6\n        /* \"#utility.yul\":11051:11065   */\n      div\n        /* \"#utility.yul\":11045:11049   */\n      dup2\n        /* \"#utility.yul\":11042:11066   */\n      gt\n        /* \"#utility.yul\":11039:11089   */\n      iszero\n      tag_464\n      jumpi\n        /* \"#utility.yul\":11069:11087   */\n      tag_464\n      tag_357\n      jump\t// in\n    tag_464:\n        /* \"#utility.yul\":11119:11120   */\n      0x01\n        /* \"#utility.yul\":11109:11117   */\n      dup5\n        /* \"#utility.yul\":11105:11121   */\n      and\n        /* \"#utility.yul\":11102:11151   */\n      iszero\n      tag_465\n      jumpi\n        /* \"#utility.yul\":11133:11149   */\n      swap1\n      dup2\n      mul\n      swap1\n        /* \"#utility.yul\":11102:11151   */\n    tag_465:\n        /* \"#utility.yul\":11216:11217   */\n      0x01\n        /* \"#utility.yul\":11212:11228   */\n      swap4\n      swap1\n      swap4\n      shr\n      swap3\n        /* \"#utility.yul\":11172:11187   */\n      dup1\n      mul\n        /* \"#utility.yul\":10989:11238   */\n      jump(tag_460)\n    tag_462:\n        /* \"#utility.yul\":10869:11244   */\n      swap4\n      pop\n      swap4\n      swap2\n      pop\n      pop\n      jump\t// out\n        /* \"#utility.yul\":11249:12151   */\n    tag_359:\n        /* \"#utility.yul\":11298:11303   */\n      0x00\n        /* \"#utility.yul\":11328:11336   */\n      dup3\n        /* \"#utility.yul\":11318:11398   */\n      tag_467\n      jumpi\n      pop\n        /* \"#utility.yul\":11369:11370   */\n      0x01\n        /* \"#utility.yul\":11383:11388   */\n      jump(tag_203)\n        /* \"#utility.yul\":11318:11398   */\n    tag_467:\n        /* \"#utility.yul\":11417:11421   */\n      dup2\n        /* \"#utility.yul\":11407:11483   */\n      tag_468\n      jumpi\n      pop\n        /* \"#utility.yul\":11454:11455   */\n      0x00\n        /* \"#utility.yul\":11468:11473   */\n      jump(tag_203)\n        /* \"#utility.yul\":11407:11483   */\n    tag_468:\n        /* \"#utility.yul\":11499:11503   */\n      dup2\n        /* \"#utility.yul\":11517:11518   */\n      0x01\n        /* \"#utility.yul\":11512:11571   */\n      dup2\n      eq\n      tag_470\n      jumpi\n        /* \"#utility.yul\":11585:11586   */\n      0x02\n        /* \"#utility.yul\":11580:11754   */\n      dup2\n      eq\n      tag_471\n      jumpi\n        /* \"#utility.yul\":11492:11754   */\n      jump(tag_469)\n        /* \"#utility.yul\":11512:11571   */\n    tag_470:\n        /* \"#utility.yul\":11542:11543   */\n      0x01\n        /* \"#utility.yul\":11533:11543   */\n      swap2\n      pop\n        /* \"#utility.yul\":11556:11561   */\n      pop\n      jump(tag_203)\n        /* \"#utility.yul\":11580:11754   */\n    tag_471:\n        /* \"#utility.yul\":11617:11620   */\n      0xff\n        /* \"#utility.yul\":11607:11615   */\n      dup5\n        /* \"#utility.yul\":11604:11621   */\n      gt\n        /* \"#utility.yul\":11601:11644   */\n      iszero\n      tag_473\n      jumpi\n        /* \"#utility.yul\":11624:11642   */\n      tag_473\n      tag_357\n      jump\t// in\n    tag_473:\n      pop\n      pop\n        /* \"#utility.yul\":11680:11681   */\n      0x01\n        /* \"#utility.yul\":11666:11682   */\n      dup3\n      shl\n        /* \"#utility.yul\":11739:11744   */\n      jump(tag_203)\n        /* \"#utility.yul\":11492:11754   */\n    tag_469:\n      pop\n        /* \"#utility.yul\":11838:11840   */\n      0x20\n        /* \"#utility.yul\":11828:11836   */\n      dup4\n        /* \"#utility.yul\":11825:11841   */\n      lt\n        /* \"#utility.yul\":11819:11822   */\n      0x0133\n        /* \"#utility.yul\":11813:11817   */\n      dup4\n        /* \"#utility.yul\":11810:11823   */\n      lt\n        /* \"#utility.yul\":11806:11842   */\n      and\n        /* \"#utility.yul\":11800:11802   */\n      0x4e\n        /* \"#utility.yul\":11790:11798   */\n      dup5\n        /* \"#utility.yul\":11787:11803   */\n      lt\n        /* \"#utility.yul\":11782:11784   */\n      0x0b\n        /* \"#utility.yul\":11776:11780   */\n      dup5\n        /* \"#utility.yul\":11773:11785   */\n      lt\n        /* \"#utility.yul\":11769:11804   */\n      and\n        /* \"#utility.yul\":11766:11843   */\n      or\n        /* \"#utility.yul\":11763:11966   */\n      iszero\n      tag_474\n      jumpi\n      pop\n        /* \"#utility.yul\":11875:11894   */\n      dup2\n      dup2\n      exp\n        /* \"#utility.yul\":11951:11956   */\n      jump(tag_203)\n        /* \"#utility.yul\":11763:11966   */\n    tag_474:\n        /* \"#utility.yul\":11998:12040   */\n      tag_475\n      not(0x00)\n        /* \"#utility.yul\":12023:12031   */\n      dup5\n        /* \"#utility.yul\":12017:12021   */\n      dup5\n        /* \"#utility.yul\":11998:12040   */\n      tag_358\n      jump\t// in\n    tag_475:\n        /* \"#utility.yul\":12076:12082   */\n      dup1\n        /* \"#utility.yul\":12072:12073   */\n      0x00\n        /* \"#utility.yul\":12068:12074   */\n      not\n        /* \"#utility.yul\":12064:12083   */\n      div\n        /* \"#utility.yul\":12055:12062   */\n      dup3\n        /* \"#utility.yul\":12052:12084   */\n      gt\n        /* \"#utility.yul\":12049:12107   */\n      iszero\n      tag_477\n      jumpi\n        /* \"#utility.yul\":12087:12105   */\n      tag_477\n      tag_357\n      jump\t// in\n    tag_477:\n        /* \"#utility.yul\":12125:12145   */\n      mul\n      swap4\n        /* \"#utility.yul\":11249:12151   */\n      swap3\n      pop\n      pop\n      pop\n      jump\t// out\n        /* \"#utility.yul\":12156:12296   */\n    tag_190:\n        /* \"#utility.yul\":12214:12219   */\n      0x00\n        /* \"#utility.yul\":12243:12290   */\n      tag_399\n        /* \"#utility.yul\":12284:12288   */\n      0xff\n        /* \"#utility.yul\":12274:12282   */\n      dup5\n        /* \"#utility.yul\":12270:12289   */\n      and\n        /* \"#utility.yul\":12264:12268   */\n      dup4\n        /* \"#utility.yul\":12243:12290   */\n      tag_359\n      jump\t// in\n        /* \"#utility.yul\":12301:12469   */\n    tag_192:\n        /* \"#utility.yul\":12374:12383   */\n      dup1\n      dup3\n      mul\n        /* \"#utility.yul\":12405:12414   */\n      dup2\n      iszero\n        /* \"#utility.yul\":12422:12437   */\n      dup3\n      dup3\n      div\n        /* \"#utility.yul\":12416:12438   */\n      dup5\n      eq\n        /* \"#utility.yul\":12402:12439   */\n      or\n        /* \"#utility.yul\":12392:12463   */\n      tag_203\n      jumpi\n        /* \"#utility.yul\":12443:12461   */\n      tag_203\n      tag_357\n      jump\t// in\n        /* \"#utility.yul\":12474:12854   */\n    tag_198:\n        /* \"#utility.yul\":12553:12554   */\n      0x01\n        /* \"#utility.yul\":12549:12561   */\n      dup2\n      dup2\n      shr\n      swap1\n        /* \"#utility.yul\":12596:12608   */\n      dup3\n      and\n      dup1\n        /* \"#utility.yul\":12617:12678   */\n      tag_484\n      jumpi\n        /* \"#utility.yul\":12671:12675   */\n      0x7f\n        /* \"#utility.yul\":12663:12669   */\n      dup3\n        /* \"#utility.yul\":12659:12676   */\n      and\n        /* \"#utility.yul\":12649:12676   */\n      swap2\n      pop\n        /* \"#utility.yul\":12617:12678   */\n    tag_484:\n        /* \"#utility.yul\":12724:12726   */\n      0x20\n        /* \"#utility.yul\":12716:12722   */\n      dup3\n        /* \"#utility.yul\":12713:12727   */\n      lt\n        /* \"#utility.yul\":12693:12711   */\n      dup2\n        /* \"#utility.yul\":12690:12728   */\n      sub\n        /* \"#utility.yul\":12687:12848   */\n      tag_485\n      jumpi\n        /* \"#utility.yul\":12770:12780   */\n      0x4e487b71\n        /* \"#utility.yul\":12765:12768   */\n      0xe0\n        /* \"#utility.yul\":12761:12781   */\n      shl\n        /* \"#utility.yul\":12758:12759   */\n      0x00\n        /* \"#utility.yul\":12751:12782   */\n      mstore\n        /* \"#utility.yul\":12805:12809   */\n      0x22\n        /* \"#utility.yul\":12802:12803   */\n      0x04\n        /* \"#utility.yul\":12795:12810   */\n      mstore\n        /* \"#utility.yul\":12833:12837   */\n      0x24\n        /* \"#utility.yul\":12830:12831   */\n      0x00\n        /* \"#utility.yul\":12823:12838   */\n      revert\n        /* \"#utility.yul\":12687:12848   */\n    tag_485:\n      pop\n        /* \"#utility.yul\":12474:12854   */\n      swap2\n      swap1\n      pop\n      jump\t// out\n        /* \"#utility.yul\":12859:12986   */\n    tag_360:\n        /* \"#utility.yul\":12920:12930   */\n      0x4e487b71\n        /* \"#utility.yul\":12915:12918   */\n      0xe0\n        /* \"#utility.yul\":12911:12931   */\n      shl\n        /* \"#utility.yul\":12908:12909   */\n      0x00\n        /* \"#utility.yul\":12901:12932   */\n      mstore\n        /* \"#utility.yul\":12951:12955   */\n      0x12\n        /* \"#utility.yul\":12948:12949   */\n      0x04\n        /* \"#utility.yul\":12941:12956   */\n      mstore\n        /* \"#utility.yul\":12975:12979   */\n      0x24\n        /* \"#utility.yul\":12972:12973   */\n      0x00\n        /* \"#utility.yul\":12965:12980   */\n      revert\n        /* \"#utility.yul\":12991:13111   */\n    tag_214:\n        /* \"#utility.yul\":13031:13032   */\n      0x00\n        /* \"#utility.yul\":13057:13058   */\n      dup3\n        /* \"#utility.yul\":13047:13082   */\n      tag_489\n      jumpi\n        /* \"#utility.yul\":13062:13080   */\n      tag_489\n      tag_360\n      jump\t// in\n    tag_489:\n      pop\n        /* \"#utility.yul\":13096:13105   */\n      div\n      swap1\n        /* \"#utility.yul\":12991:13111   */\n      jump\t// out\n        /* \"#utility.yul\":13116:13487   */\n    tag_216:\n      sub(shl(0xa0, 0x01), 0x01)\n        /* \"#utility.yul\":13336:13368   */\n      swap4\n      dup5\n      and\n        /* \"#utility.yul\":13318:13369   */\n      dup2\n      mstore\n        /* \"#utility.yul\":13405:13437   */\n      swap2\n      swap1\n      swap3\n      and\n        /* \"#utility.yul\":13400:13402   */\n      0x20\n        /* \"#utility.yul\":13385:13403   */\n      dup3\n      add\n        /* \"#utility.yul\":13378:13438   */\n      mstore\n        /* \"#utility.yul\":13469:13471   */\n      0x40\n        /* \"#utility.yul\":13454:13472   */\n      dup2\n      add\n        /* \"#utility.yul\":13447:13481   */\n      swap2\n      swap1\n      swap2\n      mstore\n        /* \"#utility.yul\":13306:13308   */\n      0x60\n        /* \"#utility.yul\":13291:13309   */\n      add\n      swap1\n        /* \"#utility.yul\":13116:13487   */\n      jump\t// out\n        /* \"#utility.yul\":13492:13769   */\n    tag_220:\n        /* \"#utility.yul\":13559:13565   */\n      0x00\n        /* \"#utility.yul\":13612:13614   */\n      0x20\n        /* \"#utility.yul\":13600:13609   */\n      dup3\n        /* \"#utility.yul\":13591:13598   */\n      dup5\n        /* \"#utility.yul\":13587:13610   */\n      sub\n        /* \"#utility.yul\":13583:13615   */\n      slt\n        /* \"#utility.yul\":13580:13632   */\n      iszero\n      tag_492\n      jumpi\n        /* \"#utility.yul\":13628:13629   */\n      0x00\n        /* \"#utility.yul\":13625:13626   */\n      0x00\n        /* \"#utility.yul\":13618:13630   */\n      revert\n        /* \"#utility.yul\":13580:13632   */\n    tag_492:\n        /* \"#utility.yul\":13660:13669   */\n      dup2\n        /* \"#utility.yul\":13654:13670   */\n      mload\n        /* \"#utility.yul\":13713:13718   */\n      dup1\n        /* \"#utility.yul\":13706:13719   */\n      iszero\n        /* \"#utility.yul\":13699:13720   */\n      iszero\n        /* \"#utility.yul\":13692:13697   */\n      dup2\n        /* \"#utility.yul\":13689:13721   */\n      eq\n        /* \"#utility.yul\":13679:13739   */\n      tag_399\n      jumpi\n        /* \"#utility.yul\":13735:13736   */\n      0x00\n        /* \"#utility.yul\":13732:13733   */\n      0x00\n        /* \"#utility.yul\":13725:13737   */\n      revert\n        /* \"#utility.yul\":13774:14461   */\n    tag_224:\n        /* \"#utility.yul\":13854:13860   */\n      0x00\n        /* \"#utility.yul\":13907:13909   */\n      0x20\n        /* \"#utility.yul\":13895:13904   */\n      dup3\n        /* \"#utility.yul\":13886:13893   */\n      dup5\n        /* \"#utility.yul\":13882:13905   */\n      sub\n        /* \"#utility.yul\":13878:13910   */\n      slt\n        /* \"#utility.yul\":13875:13927   */\n      iszero\n      tag_495\n      jumpi\n        /* \"#utility.yul\":13923:13924   */\n      0x00\n        /* \"#utility.yul\":13920:13921   */\n      0x00\n        /* \"#utility.yul\":13913:13925   */\n      revert\n        /* \"#utility.yul\":13875:13927   */\n    tag_495:\n        /* \"#utility.yul\":13956:13965   */\n      dup2\n        /* \"#utility.yul\":13950:13966   */\n      mload\n      sub(shl(0x40, 0x01), 0x01)\n        /* \"#utility.yul\":13981:13987   */\n      dup2\n        /* \"#utility.yul\":13978:14008   */\n      gt\n        /* \"#utility.yul\":13975:14025   */\n      iszero\n      tag_496\n      jumpi\n        /* \"#utility.yul\":14021:14022   */\n      0x00\n        /* \"#utility.yul\":14018:14019   */\n      0x00\n        /* \"#utility.yul\":14011:14023   */\n      revert\n        /* \"#utility.yul\":13975:14025   */\n    tag_496:\n        /* \"#utility.yul\":14044:14066   */\n      dup3\n      add\n        /* \"#utility.yul\":14097:14101   */\n      0x1f\n        /* \"#utility.yul\":14089:14102   */\n      dup2\n      add\n        /* \"#utility.yul\":14085:14112   */\n      dup5\n      sgt\n        /* \"#utility.yul\":14075:14130   */\n      tag_497\n      jumpi\n        /* \"#utility.yul\":14126:14127   */\n      0x00\n        /* \"#utility.yul\":14123:14124   */\n      0x00\n        /* \"#utility.yul\":14116:14128   */\n      revert\n        /* \"#utility.yul\":14075:14130   */\n    tag_497:\n        /* \"#utility.yul\":14159:14161   */\n      dup1\n        /* \"#utility.yul\":14153:14162   */\n      mload\n        /* \"#utility.yul\":14184:14237   */\n      tag_498\n        /* \"#utility.yul\":14200:14236   */\n      tag_378\n        /* \"#utility.yul\":14229:14235   */\n      dup3\n        /* \"#utility.yul\":14200:14236   */\n      tag_349\n      jump\t// in\n        /* \"#utility.yul\":14184:14237   */\n    tag_498:\n        /* \"#utility.yul\":14260:14266   */\n      dup2\n        /* \"#utility.yul\":14253:14258   */\n      dup2\n        /* \"#utility.yul\":14246:14267   */\n      mstore\n        /* \"#utility.yul\":14308:14315   */\n      dup6\n        /* \"#utility.yul\":14303:14305   */\n      0x20\n        /* \"#utility.yul\":14294:14300   */\n      dup4\n        /* \"#utility.yul\":14290:14292   */\n      dup6\n        /* \"#utility.yul\":14286:14301   */\n      add\n        /* \"#utility.yul\":14282:14306   */\n      add\n        /* \"#utility.yul\":14279:14316   */\n      gt\n        /* \"#utility.yul\":14276:14333   */\n      iszero\n      tag_500\n      jumpi\n        /* \"#utility.yul\":14329:14330   */\n      0x00\n        /* \"#utility.yul\":14326:14327   */\n      0x00\n        /* \"#utility.yul\":14319:14331   */\n      revert\n        /* \"#utility.yul\":14276:14333   */\n    tag_500:\n        /* \"#utility.yul\":14377:14383   */\n      dup2\n        /* \"#utility.yul\":14372:14374   */\n      0x20\n        /* \"#utility.yul\":14368:14370   */\n      dup5\n        /* \"#utility.yul\":14364:14375   */\n      add\n        /* \"#utility.yul\":14359:14361   */\n      0x20\n        /* \"#utility.yul\":14352:14357   */\n      dup4\n        /* \"#utility.yul\":14348:14362   */\n      add\n        /* \"#utility.yul\":14342:14384   */\n      mcopy\n        /* \"#utility.yul\":14429:14430   */\n      0x00\n        /* \"#utility.yul\":14404:14422   */\n      swap2\n      dup2\n      add\n        /* \"#utility.yul\":14424:14426   */\n      0x20\n        /* \"#utility.yul\":14400:14427   */\n      add\n        /* \"#utility.yul\":14393:14431   */\n      swap2\n      swap1\n      swap2\n      mstore\n        /* \"#utility.yul\":14408:14413   */\n      swap5\n        /* \"#utility.yul\":13774:14461   */\n      swap4\n      pop\n      pop\n      pop\n      pop\n      jump\t// out\n        /* \"#utility.yul\":14466:14916   */\n    tag_226:\n      shl(0x95, 0x02732b2b21020b8383937bb32b21)\n        /* \"#utility.yul\":14713:14716   */\n      dup2\n        /* \"#utility.yul\":14706:14735   */\n      mstore\n        /* \"#utility.yul\":14688:14691   */\n      0x00\n        /* \"#utility.yul\":14764:14770   */\n      dup3\n        /* \"#utility.yul\":14758:14771   */\n      mload\n        /* \"#utility.yul\":14819:14825   */\n      dup1\n        /* \"#utility.yul\":14812:14816   */\n      0x20\n        /* \"#utility.yul\":14804:14810   */\n      dup6\n        /* \"#utility.yul\":14800:14817   */\n      add\n        /* \"#utility.yul\":14795:14797   */\n      0x0e\n        /* \"#utility.yul\":14790:14793   */\n      dup6\n        /* \"#utility.yul\":14786:14798   */\n      add\n        /* \"#utility.yul\":14780:14826   */\n      mcopy\n        /* \"#utility.yul\":14890:14891   */\n      0x00\n        /* \"#utility.yul\":14849:14865   */\n      swap3\n      add\n        /* \"#utility.yul\":14867:14869   */\n      0x0e\n        /* \"#utility.yul\":14845:14870   */\n      add\n        /* \"#utility.yul\":14879:14892   */\n      swap2\n      dup3\n      mstore\n      pop\n        /* \"#utility.yul\":14845:14870   */\n      swap2\n        /* \"#utility.yul\":14466:14916   */\n      swap1\n      pop\n      jump\t// out\n        /* \"#utility.yul\":15200:15389   */\n    tag_262:\n        /* \"#utility.yul\":15232:15233   */\n      0x00\n      sub(shl(0xa0, 0x01), 0x01)\n        /* \"#utility.yul\":15259:15286   */\n      dup4\n      and\n      dup1\n        /* \"#utility.yul\":15295:15332   */\n      tag_505\n      jumpi\n        /* \"#utility.yul\":15312:15330   */\n      tag_505\n      tag_360\n      jump\t// in\n    tag_505:\n      sub(shl(0xa0, 0x01), 0x01)\n        /* \"#utility.yul\":15350:15377   */\n      swap3\n      swap1\n      swap3\n      and\n        /* \"#utility.yul\":15346:15383   */\n      swap2\n      swap1\n      swap2\n      mod\n      swap3\n        /* \"#utility.yul\":15200:15389   */\n      swap2\n      pop\n      pop\n      jump\t// out\n        /* \"#utility.yul\":15394:15791   */\n    tag_276:\n      sub(shl(0xa0, 0x01), 0x01)\n        /* \"#utility.yul\":15614:15646   */\n      swap4\n      dup5\n      and\n        /* \"#utility.yul\":15596:15647   */\n      dup2\n      mstore\n        /* \"#utility.yul\":15683:15715   */\n      swap2\n      dup4\n      and\n        /* \"#utility.yul\":15678:15680   */\n      0x20\n        /* \"#utility.yul\":15663:15681   */\n      dup4\n      add\n        /* \"#utility.yul\":15656:15716   */\n      mstore\n        /* \"#utility.yul\":15752:15784   */\n      swap1\n      swap2\n      and\n        /* \"#utility.yul\":15747:15749   */\n      0x40\n        /* \"#utility.yul\":15732:15750   */\n      dup3\n      add\n        /* \"#utility.yul\":15725:15785   */\n      mstore\n        /* \"#utility.yul\":15584:15586   */\n      0x60\n        /* \"#utility.yul\":15569:15587   */\n      add\n      swap1\n        /* \"#utility.yul\":15394:15791   */\n      jump\t// out\n        /* \"#utility.yul\":15922:16440   */\n    tag_362:\n        /* \"#utility.yul\":16024:16026   */\n      0x1f\n        /* \"#utility.yul\":16019:16022   */\n      dup3\n        /* \"#utility.yul\":16016:16027   */\n      gt\n        /* \"#utility.yul\":16013:16434   */\n      iszero\n      tag_291\n      jumpi\n        /* \"#utility.yul\":16060:16065   */\n      dup1\n        /* \"#utility.yul\":16057:16058   */\n      0x00\n        /* \"#utility.yul\":16050:16066   */\n      mstore\n        /* \"#utility.yul\":16104:16108   */\n      0x20\n        /* \"#utility.yul\":16101:16102   */\n      0x00\n        /* \"#utility.yul\":16091:16109   */\n      keccak256\n        /* \"#utility.yul\":16174:16176   */\n      0x1f\n        /* \"#utility.yul\":16162:16172   */\n      dup5\n        /* \"#utility.yul\":16158:16177   */\n      add\n        /* \"#utility.yul\":16155:16156   */\n      0x05\n        /* \"#utility.yul\":16151:16178   */\n      shr\n        /* \"#utility.yul\":16145:16149   */\n      dup2\n        /* \"#utility.yul\":16141:16179   */\n      add\n        /* \"#utility.yul\":16210:16214   */\n      0x20\n        /* \"#utility.yul\":16198:16208   */\n      dup6\n        /* \"#utility.yul\":16195:16215   */\n      lt\n        /* \"#utility.yul\":16192:16239   */\n      iszero\n      tag_510\n      jumpi\n      pop\n        /* \"#utility.yul\":16233:16237   */\n      dup1\n        /* \"#utility.yul\":16192:16239   */\n    tag_510:\n        /* \"#utility.yul\":16288:16290   */\n      0x1f\n        /* \"#utility.yul\":16283:16286   */\n      dup5\n        /* \"#utility.yul\":16279:16291   */\n      add\n        /* \"#utility.yul\":16276:16277   */\n      0x05\n        /* \"#utility.yul\":16272:16292   */\n      shr\n        /* \"#utility.yul\":16266:16270   */\n      dup3\n        /* \"#utility.yul\":16262:16293   */\n      add\n        /* \"#utility.yul\":16252:16293   */\n      swap2\n      pop\n        /* \"#utility.yul\":16343:16424   */\n    tag_511:\n        /* \"#utility.yul\":16361:16363   */\n      dup2\n        /* \"#utility.yul\":16354:16359   */\n      dup2\n        /* \"#utility.yul\":16351:16364   */\n      lt\n        /* \"#utility.yul\":16343:16424   */\n      iszero\n      tag_513\n      jumpi\n        /* \"#utility.yul\":16420:16421   */\n      0x00\n        /* \"#utility.yul\":16406:16422   */\n      dup2\n      sstore\n        /* \"#utility.yul\":16387:16388   */\n      0x01\n        /* \"#utility.yul\":16376:16389   */\n      add\n        /* \"#utility.yul\":16343:16424   */\n      jump(tag_511)\n    tag_513:\n        /* \"#utility.yul\":16347:16350   */\n      pop\n      pop\n        /* \"#utility.yul\":15922:16440   */\n      pop\n      pop\n      pop\n      jump\t// out\n        /* \"#utility.yul\":16616:17915   */\n    tag_290:\n        /* \"#utility.yul\":16742:16745   */\n      dup2\n        /* \"#utility.yul\":16736:16746   */\n      mload\n      sub(shl(0x40, 0x01), 0x01)\n        /* \"#utility.yul\":16761:16767   */\n      dup2\n        /* \"#utility.yul\":16758:16788   */\n      gt\n        /* \"#utility.yul\":16755:16811   */\n      iszero\n      tag_517\n      jumpi\n        /* \"#utility.yul\":16791:16809   */\n      tag_517\n      tag_346\n      jump\t// in\n    tag_517:\n        /* \"#utility.yul\":16820:16917   */\n      tag_518\n        /* \"#utility.yul\":16910:16916   */\n      dup2\n        /* \"#utility.yul\":16870:16908   */\n      tag_519\n        /* \"#utility.yul\":16902:16906   */\n      dup5\n        /* \"#utility.yul\":16896:16907   */\n      sload\n        /* \"#utility.yul\":16870:16908   */\n      tag_198\n      jump\t// in\n    tag_519:\n        /* \"#utility.yul\":16864:16868   */\n      dup5\n        /* \"#utility.yul\":16820:16917   */\n      tag_362\n      jump\t// in\n    tag_518:\n        /* \"#utility.yul\":16966:16970   */\n      0x20\n        /* \"#utility.yul\":16997:16999   */\n      0x1f\n        /* \"#utility.yul\":16986:17000   */\n      dup3\n      gt\n        /* \"#utility.yul\":17014:17015   */\n      0x01\n        /* \"#utility.yul\":17009:17658   */\n      dup2\n      eq\n      tag_521\n      jumpi\n        /* \"#utility.yul\":17702:17703   */\n      0x00\n        /* \"#utility.yul\":17719:17725   */\n      dup4\n        /* \"#utility.yul\":17716:17805   */\n      iszero\n      tag_522\n      jumpi\n      pop\n        /* \"#utility.yul\":17771:17790   */\n      dup5\n      dup3\n      add\n        /* \"#utility.yul\":17765:17791   */\n      mload\n        /* \"#utility.yul\":17716:17805   */\n    tag_522:\n      not(0x00)\n        /* \"#utility.yul\":16573:16574   */\n      0x03\n        /* \"#utility.yul\":16569:16580   */\n      dup6\n      swap1\n      shl\n        /* \"#utility.yul\":16565:16589   */\n      shr\n        /* \"#utility.yul\":16561:16590   */\n      not\n        /* \"#utility.yul\":16551:16591   */\n      and\n        /* \"#utility.yul\":16597:16598   */\n      0x01\n        /* \"#utility.yul\":16593:16604   */\n      dup5\n      swap1\n      shl\n        /* \"#utility.yul\":16548:16605   */\n      or\n        /* \"#utility.yul\":17818:17899   */\n      dup5\n      sstore\n        /* \"#utility.yul\":16979:17909   */\n      jump(tag_513)\n        /* \"#utility.yul\":17009:17658   */\n    tag_521:\n        /* \"#utility.yul\":15869:15870   */\n      0x00\n        /* \"#utility.yul\":15862:15876   */\n      dup5\n      dup2\n      mstore\n        /* \"#utility.yul\":15906:15910   */\n      0x20\n        /* \"#utility.yul\":15893:15911   */\n      dup2\n      keccak256\n      not(0x1f)\n        /* \"#utility.yul\":17045:17065   */\n      dup6\n      and\n      swap2\n        /* \"#utility.yul\":17163:17385   */\n    tag_525:\n        /* \"#utility.yul\":17177:17184   */\n      dup3\n        /* \"#utility.yul\":17174:17175   */\n      dup2\n        /* \"#utility.yul\":17171:17185   */\n      lt\n        /* \"#utility.yul\":17163:17385   */\n      iszero\n      tag_527\n      jumpi\n        /* \"#utility.yul\":17259:17278   */\n      dup8\n      dup6\n      add\n        /* \"#utility.yul\":17253:17279   */\n      mload\n        /* \"#utility.yul\":17238:17280   */\n      dup3\n      sstore\n        /* \"#utility.yul\":17366:17370   */\n      0x20\n        /* \"#utility.yul\":17351:17371   */\n      swap5\n      dup6\n      add\n      swap5\n        /* \"#utility.yul\":17319:17320   */\n      0x01\n        /* \"#utility.yul\":17307:17321   */\n      swap1\n      swap3\n      add\n      swap2\n        /* \"#utility.yul\":17193:17205   */\n      add\n        /* \"#utility.yul\":17163:17385   */\n      jump(tag_525)\n    tag_527:\n        /* \"#utility.yul\":17167:17170   */\n      pop\n        /* \"#utility.yul\":17413:17419   */\n      dup5\n        /* \"#utility.yul\":17404:17411   */\n      dup3\n        /* \"#utility.yul\":17401:17420   */\n      lt\n        /* \"#utility.yul\":17398:17599   */\n      iszero\n      tag_528\n      jumpi\n        /* \"#utility.yul\":17474:17493   */\n      dup7\n      dup5\n      add\n        /* \"#utility.yul\":17468:17494   */\n      mload\n      not(0x00)\n        /* \"#utility.yul\":17557:17558   */\n      0x03\n        /* \"#utility.yul\":17553:17567   */\n      dup8\n      swap1\n      shl\n        /* \"#utility.yul\":17569:17572   */\n      0xf8\n        /* \"#utility.yul\":17549:17573   */\n      and\n        /* \"#utility.yul\":17545:17582   */\n      shr\n        /* \"#utility.yul\":17541:17583   */\n      not\n        /* \"#utility.yul\":17526:17584   */\n      and\n        /* \"#utility.yul\":17511:17585   */\n      dup2\n      sstore\n        /* \"#utility.yul\":17398:17599   */\n    tag_528:\n      pop\n      pop\n      pop\n      pop\n        /* \"#utility.yul\":17645:17646   */\n      0x01\n        /* \"#utility.yul\":17629:17643   */\n      swap1\n      dup2\n      shl\n        /* \"#utility.yul\":17625:17647   */\n      add\n        /* \"#utility.yul\":17612:17648   */\n      swap1\n      sstore\n      pop\n        /* \"#utility.yul\":16616:17915   */\n      jump\t// out\n        /* \"#utility.yul\":17920:18657   */\n    tag_325:\n      sub(shl(0xa0, 0x01), 0x01)\n        /* \"#utility.yul\":18253:18285   */\n      swap8\n      dup9\n      and\n        /* \"#utility.yul\":18235:18286   */\n      dup2\n      mstore\n        /* \"#utility.yul\":18322:18354   */\n      swap6\n      dup8\n      and\n        /* \"#utility.yul\":18317:18319   */\n      0x20\n        /* \"#utility.yul\":18302:18320   */\n      dup8\n      add\n        /* \"#utility.yul\":18295:18355   */\n      mstore\n        /* \"#utility.yul\":18391:18423   */\n      swap4\n      dup7\n      and\n        /* \"#utility.yul\":18386:18388   */\n      0x40\n        /* \"#utility.yul\":18371:18389   */\n      dup7\n      add\n        /* \"#utility.yul\":18364:18424   */\n      mstore\n        /* \"#utility.yul\":18460:18492   */\n      swap2\n      dup6\n      and\n        /* \"#utility.yul\":18455:18457   */\n      0x60\n        /* \"#utility.yul\":18440:18458   */\n      dup6\n      add\n        /* \"#utility.yul\":18433:18493   */\n      mstore\n        /* \"#utility.yul\":18530:18562   */\n      swap1\n      swap4\n      and\n        /* \"#utility.yul\":18524:18527   */\n      0x80\n        /* \"#utility.yul\":18509:18528   */\n      dup4\n      add\n        /* \"#utility.yul\":18502:18563   */\n      mstore\n        /* \"#utility.yul\":18273:18276   */\n      0xa0\n        /* \"#utility.yul\":18579:18598   */\n      dup3\n      add\n        /* \"#utility.yul\":18572:18607   */\n      swap3\n      swap1\n      swap3\n      mstore\n        /* \"#utility.yul\":18638:18641   */\n      0xc0\n        /* \"#utility.yul\":18623:18642   */\n      dup2\n      add\n        /* \"#utility.yul\":18616:18651   */\n      swap2\n      swap1\n      swap2\n      mstore\n        /* \"#utility.yul\":18222:18225   */\n      0xe0\n        /* \"#utility.yul\":18207:18226   */\n      add\n      swap1\n        /* \"#utility.yul\":17920:18657   */\n      jump\t// out\n        /* \"#utility.yul\":18662:18787   */\n    tag_339:\n        /* \"#utility.yul\":18727:18736   */\n      dup1\n      dup3\n      add\n        /* \"#utility.yul\":18748:18758   */\n      dup1\n      dup3\n      gt\n        /* \"#utility.yul\":18745:18781   */\n      iszero\n      tag_203\n      jumpi\n        /* \"#utility.yul\":18761:18779   */\n      tag_203\n      tag_357\n      jump\t// in\n\n    auxdata: 0xa26469706673582212204c5aa5a7578fe6e8ed6100146538c18d8c652e36b807423439f54cf65e027dda64736f6c634300081b0033\n}\n",
				"bytecode": {
					"linkReferences": {},
					"object": "608060405234801561000f575f5ffd5b5060405161276138038061276183398101604081905261002e91610ac9565b6040518060400160405280600b81526020016a434841544c4f472053697560a81b8152506040518060400160405280600381526020016253495560e81b815250826001600160a01b0316636fb7329c6040518163ffffffff1660e01b8152600401602060405180830381865afa1580156100aa573d5f5f3e3d5ffd5b505050506040513d601f19601f820116820180604052508101906100ce9190610ac9565b338061010057604051633603021960e21b81523260048201525f60248201523060448201526064015b60405180910390fd5b61010b8160016108b2565b5060046101188482610b83565b5060056101258382610b83565b50600680546001600160a01b0319166001600160a01b0383169081179091556040805163604a6fa960e01b815290516201b207929163604a6fa991600480830192602092919082900301815f875af1158015610183573d5f5f3e3d5ffd5b505050506040513d601f19601f820116820180604052508101906101a79190610c3d565b6101b19190610c77565b6001600160401b03166007819055505f600a60075460065f9054906101000a90046001600160a01b03166001600160a01b031663604a6fa96040518163ffffffff1660e01b81526004016020604051808303815f875af1158015610217573d5f5f3e3d5ffd5b505050506040513d601f19601f8201168201806040525081019061023b9190610c3d565b6001600160401b031661024e9190610ca5565b6102589190610ccc565b90506102793261026a6012600a610dc4565b6102749084610dd2565b610905565b6102c57324f0154c1dce548adf15da2098fdd8b8a3b8151d60125b61029f90600a610dc4565b6102aa906001610dd2565b6001600160a01b039091165f90815260086020526040902055565b5050600980546001600160a01b0319166001600160a01b038516908117909155604051630e0cb96960e31b8152306004820152909250637065cb4891506024015f604051808303815f87803b15801561031c575f5ffd5b505af115801561032e573d5f5f3e3d5ffd5b5050505060095f9054906101000a90046001600160a01b03166001600160a01b031663b50951686040518163ffffffff1660e01b81526004016020604051808303815f875af1158015610383573d5f5f3e3d5ffd5b505050506040513d601f19601f820116820180604052508101906103a79190610ac9565b604051630e0cb96960e31b81523060048201526001600160a01b039190911690637065cb48906024015f604051808303815f87803b1580156103e7575f5ffd5b505af11580156103f9573d5f5f3e3d5ffd5b5050505060095f9054906101000a90046001600160a01b03166001600160a01b031663b50951686040518163ffffffff1660e01b81526004016020604051808303815f875af115801561044e573d5f5f3e3d5ffd5b505050506040513d601f19601f820116820180604052508101906104729190610ac9565b6001600160a01b0316634cde872d6040518163ffffffff1660e01b81526004016020604051808303815f875af11580156104ae573d5f5f3e3d5ffd5b505050506040513d601f19601f820116820180604052508101906104d29190610ac9565b604051630e0cb96960e31b81523060048201526001600160a01b039190911690637065cb48906024015f604051808303815f87803b158015610512575f5ffd5b505af1158015610524573d5f5f3e3d5ffd5b5050505060095f9054906101000a90046001600160a01b03166001600160a01b031663b50951686040518163ffffffff1660e01b81526004016020604051808303815f875af1158015610579573d5f5f3e3d5ffd5b505050506040513d601f19601f8201168201806040525081019061059d9190610ac9565b6001600160a01b0316634cde872d6040518163ffffffff1660e01b81526004016020604051808303815f875af11580156105d9573d5f5f3e3d5ffd5b505050506040513d601f19601f820116820180604052508101906105fd9190610ac9565b6001600160a01b031663140c2fb56040518163ffffffff1660e01b81526004016020604051808303815f875af1158015610639573d5f5f3e3d5ffd5b505050506040513d601f19601f8201168201806040525081019061065d9190610ac9565b604051630e0cb96960e31b81523060048201526001600160a01b039190911690637065cb48906024015f604051808303815f87803b15801561069d575f5ffd5b505af11580156106af573d5f5f3e3d5ffd5b5050505060095f9054906101000a90046001600160a01b03166001600160a01b031663b50951686040518163ffffffff1660e01b81526004016020604051808303815f875af1158015610704573d5f5f3e3d5ffd5b505050506040513d601f19601f820116820180604052508101906107289190610ac9565b6001600160a01b0316634cde872d6040518163ffffffff1660e01b81526004016020604051808303815f875af1158015610764573d5f5f3e3d5ffd5b505050506040513d601f19601f820116820180604052508101906107889190610ac9565b6001600160a01b031663140c2fb56040518163ffffffff1660e01b81526004016020604051808303815f875af11580156107c4573d5f5f3e3d5ffd5b505050506040513d601f19601f820116820180604052508101906107e89190610ac9565b6001600160a01b0316634209b07c6040518163ffffffff1660e01b81526004016020604051808303815f875af1158015610824573d5f5f3e3d5ffd5b505050506040513d601f19601f820116820180604052508101906108489190610ac9565b604051630e0cb96960e31b81523060048201526001600160a01b039190911690637065cb48906024015f604051808303815f87803b158015610888575f5ffd5b505af115801561089a573d5f5f3e3d5ffd5b505050506108ac61091460201b60201c565b50610dfc565b6001600160a01b0382165f81815260208190526040808220805460ff191685151590811790915590519092917f6bfa7e860c3e9bf67b810cb88276b19b27c972812bac04793d369b59a1183a8391a35050565b6109105f8383610935565b5050565b60095461092b906001600160a01b03166012610294565b610933610a75565b565b6001600160a01b03831661095f578060035f8282546109549190610de9565b909155506109e99050565b6001600160a01b0383165f90815260016020526040902054818110156109cb57604051630f7d0bbd60e21b81523260048201523360248201526001600160a01b0380861660448301528416606482015230608482015260a4810182905260c4810183905260e4016100f7565b6001600160a01b0384165f9081526001602052604090209082900390555b6001600160a01b038216610a0557600380548290039055610a23565b6001600160a01b0382165f9081526001602052604090208054820190555b816001600160a01b0316836001600160a01b03167fddf252ad1be2c89b69c2b068fc378daa952ba7f163c4a11628f55a4df523b3ef83604051610a6891815260200190565b60405180910390a3505050565b610a816012600a610dc4565b600754610a8e9190610dd2565b60035410156109335761093330610aa76012600a610dc4565b610274906001610dd2565b6001600160a01b0381168114610ac6575f5ffd5b50565b5f60208284031215610ad9575f5ffd5b8151610ae481610ab2565b9392505050565b634e487b7160e01b5f52604160045260245ffd5b600181811c90821680610b1357607f821691505b602082108103610b3157634e487b7160e01b5f52602260045260245ffd5b50919050565b601f821115610b7e57805f5260205f20601f840160051c81016020851015610b5c5750805b601f840160051c820191505b81811015610b7b575f8155600101610b68565b50505b505050565b81516001600160401b03811115610b9c57610b9c610aeb565b610bb081610baa8454610aff565b84610b37565b6020601f821160018114610be2575f8315610bcb5750848201515b5f19600385901b1c1916600184901b178455610b7b565b5f84815260208120601f198516915b82811015610c115787850151825560209485019460019092019101610bf1565b5084821015610c2e57868401515f19600387901b60f8161c191681555b50505050600190811b01905550565b5f60208284031215610c4d575f5ffd5b81516001600160401b0381168114610ae4575f5ffd5b634e487b7160e01b5f52601260045260245ffd5b5f6001600160401b03831680610c8f57610c8f610c63565b6001600160401b03929092169190910692915050565b5f82610cb357610cb3610c63565b500690565b634e487b7160e01b5f52601160045260245ffd5b5f82610cda57610cda610c63565b500490565b6001815b6001841115610d1a57808504811115610cfe57610cfe610cb8565b6001841615610d0c57908102905b60019390931c928002610ce3565b935093915050565b5f82610d3057506001610dbe565b81610d3c57505f610dbe565b8160018114610d525760028114610d5c57610d78565b6001915050610dbe565b60ff841115610d6d57610d6d610cb8565b50506001821b610dbe565b5060208310610133831016604e8410600b8410161715610d9b575081810a610dbe565b610da75f198484610cdf565b805f1904821115610dba57610dba610cb8565b0290505b92915050565b5f610ae460ff841683610d22565b8082028115828204841417610dbe57610dbe610cb8565b80820180821115610dbe57610dbe610cb8565b61195880610e095f395ff3fe608060405234801561000f575f5ffd5b506004361061015e575f3560e01c80636fb7329c116100ca5780639dcbf7ea116100845780639dcbf7ea1461030a578063a9059cbb1461031d578063d3dc2a0f14610330578063d5abeb011461033e578063dd62ed3e14610347578063f4e6c93f1461035a578063ff76204414610362575f5ffd5b80636fb7329c1461028e5780637065cb48146102ae57806370a08231146102c157806376fade90146102e95780638da5cb5b146102fc57806395d89b4114610302575f5ffd5b80632499a5331161011b5780632499a533146101fe57806327bacc40146102115780632b83b1fc14610231578063313ce5671461025957806338bf3cfa14610268578063666e1b391461027b575f5ffd5b806301d030711461016257806306fdde031461018c578063095ea7b3146101a157806318160ddd146101c4578063222838db146101d657806323b872dd146101eb575b5f5ffd5b610175610170366004611169565b610384565b6040516101839291906111cc565b60405180910390f35b6101946107f0565b60405161018391906112ca565b6101b46101af3660046112f7565b610880565b6040519015158152602001610183565b6003545b604051908152602001610183565b6101e96101e43660046112f7565b610899565b005b6101b46101f9366004611321565b610a9b565b6101e961020c3660046112f7565b610abe565b610219610c71565b6040516001600160401b039091168152602001610183565b6101c861023f36600461135f565b6001600160a01b03165f9081526008602052604090205490565b60405160128152602001610183565b6101e961027636600461135f565b610c88565b6101b461028936600461135f565b610c9d565b6006546102a1906001600160a01b031681565b604051610183919061137a565b6101e96102bc36600461135f565b610cba565b6101c86102cf36600461135f565b6001600160a01b03165f9081526001602052604090205490565b6009546102a1906001600160a01b031681565b306102a1565b610194610cfa565b6101e9610318366004611169565b610d09565b6101b461032b3660046112f7565b610d2f565b6102196603632c8eb5af3b81565b6101c860075481565b6101c861035536600461138e565b610d3c565b6101e9610d66565b6101946040518060400160405280600381526020016253495560e81b81525081565b61038c611066565b60408051610100810182525f80825260208201819052918101829052606081018290526080810182905260a0810182905260c0810182905260e08101919091526103d4610d78565b60095460405163591257c560e01b8152600260048201526001600160a01b039091169063591257c5906024016020604051808303815f875af115801561041c573d5f5f3e3d5ffd5b505050506040513d601f19601f8201168201806040525081019061044091906113e0565b6001600160401b031682526006546040805163604a6fa960e01b815290516001600160a01b039092169163604a6fa99160048082019260209290919082900301815f875af1158015610494573d5f5f3e3d5ffd5b505050506040513d601f19601f820116820180604052508101906104b891906113e0565b6001600160401b031660208301526104ce610c71565b6001600160401b031660408084019190915260095481516316a12a2d60e31b815291516001600160a01b039091169163b509516891600480830192602092919082900301815f875af1158015610526573d5f5f3e3d5ffd5b505050506040513d601f19601f8201168201806040525081019061054a91906113f9565b6001600160a01b0316634cde872d6040518163ffffffff1660e01b81526004016020604051808303815f875af1158015610586573d5f5f3e3d5ffd5b505050506040513d601f19601f820116820180604052508101906105aa91906113f9565b6001600160a01b031663140c2fb56040518163ffffffff1660e01b81526004016020604051808303815f875af11580156105e6573d5f5f3e3d5ffd5b505050506040513d601f19601f8201168201806040525081019061060a91906113f9565b82516040808501516020860151915163c94c3f8560e01b81526001600160a01b03949094169363c94c3f8593610649938a938a93909190600401611414565b610100604051808303815f875af1158015610666573d5f5f3e3d5ffd5b505050506040513d601f19601f8201168201806040525081019061068a919061146e565b905080608001516001600160a01b0316634970204f6040518163ffffffff1660e01b8152600401602060405180830381865afa1580156106cc573d5f5f3e3d5ffd5b505050506040513d601f19601f820116820180604052508101906106f091906113f9565b6001600160a01b03166338bf3cfa326040518263ffffffff1660e01b815260040161071b919061137a565b5f604051808303815f87803b158015610732575f5ffd5b505af1158015610744573d5f5f3e3d5ffd5b505050506107e181608001516001600160a01b0316634970204f6040518163ffffffff1660e01b8152600401602060405180830381865afa15801561078b573d5f5f3e3d5ffd5b505050506040513d601f19601f820116820180604052508101906107af91906113f9565b6107bb6012600a61160b565b6107c6906001611619565b6001600160a01b039091165f90815260086020526040902055565b6107e9610db8565b9250929050565b6060600480546107ff90611630565b80601f016020809104026020016040519081016040528092919081815260200182805461082b90611630565b80156108765780601f1061084d57610100808354040283529160200191610876565b820191905f5260205f20905b81548152906001019060200180831161085957829003601f168201915b5050505050905090565b5f3361088d818585610dfa565b60019150505b92915050565b6001600160a01b0382165f9081526008602052604081205490036108db57816040516390b2344160e01b81526004016108d2919061137a565b60405180910390fd5b815f6108e96012600a61160b565b6001600160a01b0385165f9081526008602052604090205461090b9085611619565b610915919061167c565b6040516323b872dd60e01b81529091505f9030906323b872dd906109419033908490899060040161168f565b6020604051808303815f875af115801561095d573d5f5f3e3d5ffd5b505050506040513d601f19601f8201168201806040525081019061098191906116b3565b905080306001600160a01b03166306fdde036040518163ffffffff1660e01b81526004015f60405180830381865afa1580156109bf573d5f5f3e3d5ffd5b505050506040513d5f823e601f3d908101601f191682016040526109e691908101906116d2565b6040516020016109f69190611746565b60405160208183030381529060405290610a235760405162461bcd60e51b81526004016108d291906112ca565b5060405163a9059cbb60e01b8152336004820152602481018390526001600160a01b0384169063a9059cbb906044015b6020604051808303815f875af1158015610a6f573d5f5f3e3d5ffd5b505050506040513d601f19601f82011682018060405250810190610a9391906116b3565b505050505050565b5f33610aa8858285610e07565b610ab3858585610e5e565b506001949350505050565b6001600160a01b0382165f908152600860205260408120549003610af757816040516390b2344160e01b81526004016108d2919061137a565b815f610b056012600a61160b565b6001600160a01b0385165f90815260086020526040902054610b279085611619565b610b31919061167c565b90505f826001600160a01b03166323b872dd3330856040518463ffffffff1660e01b8152600401610b649392919061168f565b6020604051808303815f875af1158015610b80573d5f5f3e3d5ffd5b505050506040513d601f19601f82011682018060405250810190610ba491906116b3565b905080836001600160a01b03166306fdde036040518163ffffffff1660e01b81526004015f60405180830381865afa158015610be2573d5f5f3e3d5ffd5b505050506040513d5f823e601f3d908101601f19168201604052610c0991908101906116d2565b604051602001610c199190611746565b60405160208183030381529060405290610c465760405162461bcd60e51b81526004016108d291906112ca565b5060405163a9059cbb60e01b815233600482015260248101859052309063a9059cbb90604401610a53565b5f610c836603632c8eb5af3b32611776565b905090565b610c90610d78565b610c9a815f610e69565b50565b6001600160a01b03165f9081526020819052604090205460ff1690565b610cc2610d78565b6001600160a01b038116610cef57325f30604051633603021960e21b81526004016108d2939291906117a4565b610c9a816001610e69565b6060600580546107ff90611630565b610d11610d78565b6004610d1d8382611812565b506005610d2a8282611812565b505050565b5f3361088d818585610e5e565b6001600160a01b039182165f90815260026020908152604080832093909416825291909152205490565b610d6e610d78565b610d76610db8565b565b610d8133610c9d565b158015610d945750610d9232610c9d565b155b15610d7657323330604051630be6bab560e01b81526004016108d2939291906117a4565b610dc46012600a61160b565b600754610dd19190611619565b6003541015610d7657610d7630610dea6012600a61160b565b610df5906001611619565b610ebc565b610d2a8383836001610ecb565b5f610e128484610d3c565b90505f198114610e585781811015610e4a573233858530858760405162b83d1960e21b81526004016108d297969594939291906118cc565b610e5884848484035f610ecb565b50505050565b610d2a838383610f4b565b6001600160a01b0382165f81815260208190526040808220805460ff191685151590811790915590519092917f6bfa7e860c3e9bf67b810cb88276b19b27c972812bac04793d369b59a1183a8391a35050565b610ec75f8383610f4b565b5050565b6001600160a01b038085165f9081526002602090815260408083209387168352929052208290558015610e5857826001600160a01b0316846001600160a01b03167f8c5be1e5ebec7d5bd14f71427d1e84f3dd0314c0f7b2291e5b200ac8c7c3b92584604051610f3d91815260200190565b60405180910390a350505050565b6001600160a01b038316610f75578060035f828254610f6a919061190f565b90915550610fda9050565b6001600160a01b0383165f9081526001602052604090205481811015610fbc5732338585308587604051630f7d0bbd60e21b81526004016108d297969594939291906118cc565b6001600160a01b0384165f9081526001602052604090209082900390555b6001600160a01b038216610ff657600380548290039055611014565b6001600160a01b0382165f9081526001602052604090208054820190555b816001600160a01b0316836001600160a01b03167fddf252ad1be2c89b69c2b068fc378daa952ba7f163c4a11628f55a4df523b3ef8360405161105991815260200190565b60405180910390a3505050565b60405180606001604052806003906020820280368337509192915050565b634e487b7160e01b5f52604160045260245ffd5b60405161010081016001600160401b03811182821017156110bb576110bb611084565b60405290565b604051601f8201601f191681016001600160401b03811182821017156110e9576110e9611084565b604052919050565b5f6001600160401b0382111561110957611109611084565b50601f01601f191660200190565b5f82601f830112611126575f5ffd5b8135611139611134826110f1565b6110c1565b81815284602083860101111561114d575f5ffd5b816020850160208301375f918101602001919091529392505050565b5f5f6040838503121561117a575f5ffd5b82356001600160401b0381111561118f575f5ffd5b61119b85828601611117565b92505060208301356001600160401b038111156111b6575f5ffd5b6111c285828601611117565b9150509250929050565b610160810181845f5b60038110156111fd5781516001600160401b03168352602092830192909101906001016111d5565b505083516001600160a01b039081166060858101919091526020860151909116608085015260408501516001600160401b031660a0850152840151905061124f60c08401826001600160401b03169052565b5060808301516001600160a01b031660e08381019190915260a08401516001600160401b0390811661010085015260c0850151811661012085015293015190921661014090910152919050565b5f81518084528060208401602086015e5f602082860101526020601f19601f83011685010191505092915050565b602081525f6112dc602083018461129c565b9392505050565b6001600160a01b0381168114610c9a575f5ffd5b5f5f60408385031215611308575f5ffd5b8235611313816112e3565b946020939093013593505050565b5f5f5f60608486031215611333575f5ffd5b833561133e816112e3565b9250602084013561134e816112e3565b929592945050506040919091013590565b5f6020828403121561136f575f5ffd5b81356112dc816112e3565b6001600160a01b0391909116815260200190565b5f5f6040838503121561139f575f5ffd5b82356113aa816112e3565b915060208301356113ba816112e3565b809150509250929050565b80516001600160401b03811681146113db575f5ffd5b919050565b5f602082840312156113f0575f5ffd5b6112dc826113c5565b5f60208284031215611409575f5ffd5b81516112dc816112e3565b60a081525f61142660a083018861129c565b8281036020840152611438818861129c565b6001600160401b03968716604085015294861660608401525050921660809092019190915292915050565b80516113db816112e3565b5f610100828403128015611480575f5ffd5b50611489611098565b8251611494816112e3565b81526114a260208401611463565b60208201526114b3604084016113c5565b60408201526114c4606084016113c5565b60608201526114d560808401611463565b60808201526114e660a084016113c5565b60a08201526114f760c084016113c5565b60c082015261150860e084016113c5565b60e08201529392505050565b634e487b7160e01b5f52601160045260245ffd5b6001815b60018411156115635780850481111561154757611547611514565b600184161561155557908102905b60019390931c92800261152c565b935093915050565b5f8261157957506001610893565b8161158557505f610893565b816001811461159b57600281146115a5576115c1565b6001915050610893565b60ff8411156115b6576115b6611514565b50506001821b610893565b5060208310610133831016604e8410600b84101617156115e4575081810a610893565b6115f05f198484611528565b805f190482111561160357611603611514565b029392505050565b5f6112dc60ff84168361156b565b808202811582820484141761089357610893611514565b600181811c9082168061164457607f821691505b60208210810361166257634e487b7160e01b5f52602260045260245ffd5b50919050565b634e487b7160e01b5f52601260045260245ffd5b5f8261168a5761168a611668565b500490565b6001600160a01b039384168152919092166020820152604081019190915260600190565b5f602082840312156116c3575f5ffd5b815180151581146112dc575f5ffd5b5f602082840312156116e2575f5ffd5b81516001600160401b038111156116f7575f5ffd5b8201601f81018413611707575f5ffd5b8051611715611134826110f1565b818152856020838501011115611729575f5ffd5b8160208401602083015e5f91810160200191909152949350505050565b6d02732b2b21020b8383937bb32b2160951b81525f82518060208501600e85015e5f9201600e0191825250919050565b5f6001600160a01b0383168061178e5761178e611668565b6001600160a01b03929092169190910692915050565b6001600160a01b0393841681529183166020830152909116604082015260600190565b601f821115610d2a57805f5260205f20601f840160051c810160208510156117ec5750805b601f840160051c820191505b8181101561180b575f81556001016117f8565b5050505050565b81516001600160401b0381111561182b5761182b611084565b61183f816118398454611630565b846117c7565b6020601f821160018114611871575f831561185a5750848201515b5f19600385901b1c1916600184901b17845561180b565b5f84815260208120601f198516915b828110156118a05787850151825560209485019460019092019101611880565b50848210156118bd57868401515f19600387901b60f8161c191681555b50505050600190811b01905550565b6001600160a01b039788168152958716602087015293861660408601529185166060850152909316608083015260a082019290925260c081019190915260e00190565b808201808211156108935761089361151456fea26469706673582212204c5aa5a7578fe6e8ed6100146538c18d8c652e36b807423439f54cf65e027dda64736f6c634300081b0033",
					"opcodes": "PUSH1 0x80 PUSH1 0x40 MSTORE CALLVALUE DUP1 ISZERO PUSH2 0xF JUMPI PUSH0 PUSH0 REVERT JUMPDEST POP PUSH1 0x40 MLOAD PUSH2 0x2761 CODESIZE SUB DUP1 PUSH2 0x2761 DUP4 CODECOPY DUP2 ADD PUSH1 0x40 DUP2 SWAP1 MSTORE PUSH2 0x2E SWAP2 PUSH2 0xAC9 JUMP JUMPDEST PUSH1 0x40 MLOAD DUP1 PUSH1 0x40 ADD PUSH1 0x40 MSTORE DUP1 PUSH1 0xB DUP2 MSTORE PUSH1 0x20 ADD PUSH11 0x434841544C4F4720536975 PUSH1 0xA8 SHL DUP2 MSTORE POP PUSH1 0x40 MLOAD DUP1 PUSH1 0x40 ADD PUSH1 0x40 MSTORE DUP1 PUSH1 0x3 DUP2 MSTORE PUSH1 0x20 ADD PUSH3 0x534955 PUSH1 0xE8 SHL DUP2 MSTORE POP DUP3 PUSH1 0x1 PUSH1 0x1 PUSH1 0xA0 SHL SUB AND PUSH4 0x6FB7329C PUSH1 0x40 MLOAD DUP2 PUSH4 0xFFFFFFFF AND PUSH1 0xE0 SHL DUP2 MSTORE PUSH1 0x4 ADD PUSH1 0x20 PUSH1 0x40 MLOAD DUP1 DUP4 SUB DUP2 DUP7 GAS STATICCALL ISZERO DUP1 ISZERO PUSH2 0xAA JUMPI RETURNDATASIZE PUSH0 PUSH0 RETURNDATACOPY RETURNDATASIZE PUSH0 REVERT JUMPDEST POP POP POP POP PUSH1 0x40 MLOAD RETURNDATASIZE PUSH1 0x1F NOT PUSH1 0x1F DUP3 ADD AND DUP3 ADD DUP1 PUSH1 0x40 MSTORE POP DUP2 ADD SWAP1 PUSH2 0xCE SWAP2 SWAP1 PUSH2 0xAC9 JUMP JUMPDEST CALLER DUP1 PUSH2 0x100 JUMPI PUSH1 0x40 MLOAD PUSH4 0x36030219 PUSH1 0xE2 SHL DUP2 MSTORE ORIGIN PUSH1 0x4 DUP3 ADD MSTORE PUSH0 PUSH1 0x24 DUP3 ADD MSTORE ADDRESS PUSH1 0x44 DUP3 ADD MSTORE PUSH1 0x64 ADD JUMPDEST PUSH1 0x40 MLOAD DUP1 SWAP2 SUB SWAP1 REVERT JUMPDEST PUSH2 0x10B DUP2 PUSH1 0x1 PUSH2 0x8B2 JUMP JUMPDEST POP PUSH1 0x4 PUSH2 0x118 DUP5 DUP3 PUSH2 0xB83 JUMP JUMPDEST POP PUSH1 0x5 PUSH2 0x125 DUP4 DUP3 PUSH2 0xB83 JUMP JUMPDEST POP PUSH1 0x6 DUP1 SLOAD PUSH1 0x1 PUSH1 0x1 PUSH1 0xA0 SHL SUB NOT AND PUSH1 0x1 PUSH1 0x1 PUSH1 0xA0 SHL SUB DUP4 AND SWAP1 DUP2 OR SWAP1 SWAP2 SSTORE PUSH1 0x40 DUP1 MLOAD PUSH4 0x604A6FA9 PUSH1 0xE0 SHL DUP2 MSTORE SWAP1 MLOAD PUSH3 0x1B207 SWAP3 SWAP2 PUSH4 0x604A6FA9 SWAP2 PUSH1 0x4 DUP1 DUP4 ADD SWAP3 PUSH1 0x20 SWAP3 SWAP2 SWAP1 DUP3 SWAP1 SUB ADD DUP2 PUSH0 DUP8 GAS CALL ISZERO DUP1 ISZERO PUSH2 0x183 JUMPI RETURNDATASIZE PUSH0 PUSH0 RETURNDATACOPY RETURNDATASIZE PUSH0 REVERT JUMPDEST POP POP POP POP PUSH1 0x40 MLOAD RETURNDATASIZE PUSH1 0x1F NOT PUSH1 0x1F DUP3 ADD AND DUP3 ADD DUP1 PUSH1 0x40 MSTORE POP DUP2 ADD SWAP1 PUSH2 0x1A7 SWAP2 SWAP1 PUSH2 0xC3D JUMP JUMPDEST PUSH2 0x1B1 SWAP2 SWAP1 PUSH2 0xC77 JUMP JUMPDEST PUSH1 0x1 PUSH1 0x1 PUSH1 0x40 SHL SUB AND PUSH1 0x7 DUP2 SWAP1 SSTORE POP PUSH0 PUSH1 0xA PUSH1 0x7 SLOAD PUSH1 0x6 PUSH0 SWAP1 SLOAD SWAP1 PUSH2 0x100 EXP SWAP1 DIV PUSH1 0x1 PUSH1 0x1 PUSH1 0xA0 SHL SUB AND PUSH1 0x1 PUSH1 0x1 PUSH1 0xA0 SHL SUB AND PUSH4 0x604A6FA9 PUSH1 0x40 MLOAD DUP2 PUSH4 0xFFFFFFFF AND PUSH1 0xE0 SHL DUP2 MSTORE PUSH1 0x4 ADD PUSH1 0x20 PUSH1 0x40 MLOAD DUP1 DUP4 SUB DUP2 PUSH0 DUP8 GAS CALL ISZERO DUP1 ISZERO PUSH2 0x217 JUMPI RETURNDATASIZE PUSH0 PUSH0 RETURNDATACOPY RETURNDATASIZE PUSH0 REVERT JUMPDEST POP POP POP POP PUSH1 0x40 MLOAD RETURNDATASIZE PUSH1 0x1F NOT PUSH1 0x1F DUP3 ADD AND DUP3 ADD DUP1 PUSH1 0x40 MSTORE POP DUP2 ADD SWAP1 PUSH2 0x23B SWAP2 SWAP1 PUSH2 0xC3D JUMP JUMPDEST PUSH1 0x1 PUSH1 0x1 PUSH1 0x40 SHL SUB AND PUSH2 0x24E SWAP2 SWAP1 PUSH2 0xCA5 JUMP JUMPDEST PUSH2 0x258 SWAP2 SWAP1 PUSH2 0xCCC JUMP JUMPDEST SWAP1 POP PUSH2 0x279 ORIGIN PUSH2 0x26A PUSH1 0x12 PUSH1 0xA PUSH2 0xDC4 JUMP JUMPDEST PUSH2 0x274 SWAP1 DUP5 PUSH2 0xDD2 JUMP JUMPDEST PUSH2 0x905 JUMP JUMPDEST PUSH2 0x2C5 PUSH20 0x24F0154C1DCE548ADF15DA2098FDD8B8A3B8151D PUSH1 0x12 JUMPDEST PUSH2 0x29F SWAP1 PUSH1 0xA PUSH2 0xDC4 JUMP JUMPDEST PUSH2 0x2AA SWAP1 PUSH1 0x1 PUSH2 0xDD2 JUMP JUMPDEST PUSH1 0x1 PUSH1 0x1 PUSH1 0xA0 SHL SUB SWAP1 SWAP2 AND PUSH0 SWAP1 DUP2 MSTORE PUSH1 0x8 PUSH1 0x20 MSTORE PUSH1 0x40 SWAP1 KECCAK256 SSTORE JUMP JUMPDEST POP POP PUSH1 0x9 DUP1 SLOAD PUSH1 0x1 PUSH1 0x1 PUSH1 0xA0 SHL SUB NOT AND PUSH1 0x1 PUSH1 0x1 PUSH1 0xA0 SHL SUB DUP6 AND SWAP1 DUP2 OR SWAP1 SWAP2 SSTORE PUSH1 0x40 MLOAD PUSH4 0xE0CB969 PUSH1 0xE3 SHL DUP2 MSTORE ADDRESS PUSH1 0x4 DUP3 ADD MSTORE SWAP1 SWAP3 POP PUSH4 0x7065CB48 SWAP2 POP PUSH1 0x24 ADD PUSH0 PUSH1 0x40 MLOAD DUP1 DUP4 SUB DUP2 PUSH0 DUP8 DUP1 EXTCODESIZE ISZERO DUP1 ISZERO PUSH2 0x31C JUMPI PUSH0 PUSH0 REVERT JUMPDEST POP GAS CALL ISZERO DUP1 ISZERO PUSH2 0x32E JUMPI RETURNDATASIZE PUSH0 PUSH0 RETURNDATACOPY RETURNDATASIZE PUSH0 REVERT JUMPDEST POP POP POP POP PUSH1 0x9 PUSH0 SWAP1 SLOAD SWAP1 PUSH2 0x100 EXP SWAP1 DIV PUSH1 0x1 PUSH1 0x1 PUSH1 0xA0 SHL SUB AND PUSH1 0x1 PUSH1 0x1 PUSH1 0xA0 SHL SUB AND PUSH4 0xB5095168 PUSH1 0x40 MLOAD DUP2 PUSH4 0xFFFFFFFF AND PUSH1 0xE0 SHL DUP2 MSTORE PUSH1 0x4 ADD PUSH1 0x20 PUSH1 0x40 MLOAD DUP1 DUP4 SUB DUP2 PUSH0 DUP8 GAS CALL ISZERO DUP1 ISZERO PUSH2 0x383 JUMPI RETURNDATASIZE PUSH0 PUSH0 RETURNDATACOPY RETURNDATASIZE PUSH0 REVERT JUMPDEST POP POP POP POP PUSH1 0x40 MLOAD RETURNDATASIZE PUSH1 0x1F NOT PUSH1 0x1F DUP3 ADD AND DUP3 ADD DUP1 PUSH1 0x40 MSTORE POP DUP2 ADD SWAP1 PUSH2 0x3A7 SWAP2 SWAP1 PUSH2 0xAC9 JUMP JUMPDEST PUSH1 0x40 MLOAD PUSH4 0xE0CB969 PUSH1 0xE3 SHL DUP2 MSTORE ADDRESS PUSH1 0x4 DUP3 ADD MSTORE PUSH1 0x1 PUSH1 0x1 PUSH1 0xA0 SHL SUB SWAP2 SWAP1 SWAP2 AND SWAP1 PUSH4 0x7065CB48 SWAP1 PUSH1 0x24 ADD PUSH0 PUSH1 0x40 MLOAD DUP1 DUP4 SUB DUP2 PUSH0 DUP8 DUP1 EXTCODESIZE ISZERO DUP1 ISZERO PUSH2 0x3E7 JUMPI PUSH0 PUSH0 REVERT JUMPDEST POP GAS CALL ISZERO DUP1 ISZERO PUSH2 0x3F9 JUMPI RETURNDATASIZE PUSH0 PUSH0 RETURNDATACOPY RETURNDATASIZE PUSH0 REVERT JUMPDEST POP POP POP POP PUSH1 0x9 PUSH0 SWAP1 SLOAD SWAP1 PUSH2 0x100 EXP SWAP1 DIV PUSH1 0x1 PUSH1 0x1 PUSH1 0xA0 SHL SUB AND PUSH1 0x1 PUSH1 0x1 PUSH1 0xA0 SHL SUB AND PUSH4 0xB5095168 PUSH1 0x40 MLOAD DUP2 PUSH4 0xFFFFFFFF AND PUSH1 0xE0 SHL DUP2 MSTORE PUSH1 0x4 ADD PUSH1 0x20 PUSH1 0x40 MLOAD DUP1 DUP4 SUB DUP2 PUSH0 DUP8 GAS CALL ISZERO DUP1 ISZERO PUSH2 0x44E JUMPI RETURNDATASIZE PUSH0 PUSH0 RETURNDATACOPY RETURNDATASIZE PUSH0 REVERT JUMPDEST POP POP POP POP PUSH1 0x40 MLOAD RETURNDATASIZE PUSH1 0x1F NOT PUSH1 0x1F DUP3 ADD AND DUP3 ADD DUP1 PUSH1 0x40 MSTORE POP DUP2 ADD SWAP1 PUSH2 0x472 SWAP2 SWAP1 PUSH2 0xAC9 JUMP JUMPDEST PUSH1 0x1 PUSH1 0x1 PUSH1 0xA0 SHL SUB AND PUSH4 0x4CDE872D PUSH1 0x40 MLOAD DUP2 PUSH4 0xFFFFFFFF AND PUSH1 0xE0 SHL DUP2 MSTORE PUSH1 0x4 ADD PUSH1 0x20 PUSH1 0x40 MLOAD DUP1 DUP4 SUB DUP2 PUSH0 DUP8 GAS CALL ISZERO DUP1 ISZERO PUSH2 0x4AE JUMPI RETURNDATASIZE PUSH0 PUSH0 RETURNDATACOPY RETURNDATASIZE PUSH0 REVERT JUMPDEST POP POP POP POP PUSH1 0x40 MLOAD RETURNDATASIZE PUSH1 0x1F NOT PUSH1 0x1F DUP3 ADD AND DUP3 ADD DUP1 PUSH1 0x40 MSTORE POP DUP2 ADD SWAP1 PUSH2 0x4D2 SWAP2 SWAP1 PUSH2 0xAC9 JUMP JUMPDEST PUSH1 0x40 MLOAD PUSH4 0xE0CB969 PUSH1 0xE3 SHL DUP2 MSTORE ADDRESS PUSH1 0x4 DUP3 ADD MSTORE PUSH1 0x1 PUSH1 0x1 PUSH1 0xA0 SHL SUB SWAP2 SWAP1 SWAP2 AND SWAP1 PUSH4 0x7065CB48 SWAP1 PUSH1 0x24 ADD PUSH0 PUSH1 0x40 MLOAD DUP1 DUP4 SUB DUP2 PUSH0 DUP8 DUP1 EXTCODESIZE ISZERO DUP1 ISZERO PUSH2 0x512 JUMPI PUSH0 PUSH0 REVERT JUMPDEST POP GAS CALL ISZERO DUP1 ISZERO PUSH2 0x524 JUMPI RETURNDATASIZE PUSH0 PUSH0 RETURNDATACOPY RETURNDATASIZE PUSH0 REVERT JUMPDEST POP POP POP POP PUSH1 0x9 PUSH0 SWAP1 SLOAD SWAP1 PUSH2 0x100 EXP SWAP1 DIV PUSH1 0x1 PUSH1 0x1 PUSH1 0xA0 SHL SUB AND PUSH1 0x1 PUSH1 0x1 PUSH1 0xA0 SHL SUB AND PUSH4 0xB5095168 PUSH1 0x40 MLOAD DUP2 PUSH4 0xFFFFFFFF AND PUSH1 0xE0 SHL DUP2 MSTORE PUSH1 0x4 ADD PUSH1 0x20 PUSH1 0x40 MLOAD DUP1 DUP4 SUB DUP2 PUSH0 DUP8 GAS CALL ISZERO DUP1 ISZERO PUSH2 0x579 JUMPI RETURNDATASIZE PUSH0 PUSH0 RETURNDATACOPY RETURNDATASIZE PUSH0 REVERT JUMPDEST POP POP POP POP PUSH1 0x40 MLOAD RETURNDATASIZE PUSH1 0x1F NOT PUSH1 0x1F DUP3 ADD AND DUP3 ADD DUP1 PUSH1 0x40 MSTORE POP DUP2 ADD SWAP1 PUSH2 0x59D SWAP2 SWAP1 PUSH2 0xAC9 JUMP JUMPDEST PUSH1 0x1 PUSH1 0x1 PUSH1 0xA0 SHL SUB AND PUSH4 0x4CDE872D PUSH1 0x40 MLOAD DUP2 PUSH4 0xFFFFFFFF AND PUSH1 0xE0 SHL DUP2 MSTORE PUSH1 0x4 ADD PUSH1 0x20 PUSH1 0x40 MLOAD DUP1 DUP4 SUB DUP2 PUSH0 DUP8 GAS CALL ISZERO DUP1 ISZERO PUSH2 0x5D9 JUMPI RETURNDATASIZE PUSH0 PUSH0 RETURNDATACOPY RETURNDATASIZE PUSH0 REVERT JUMPDEST POP POP POP POP PUSH1 0x40 MLOAD RETURNDATASIZE PUSH1 0x1F NOT PUSH1 0x1F DUP3 ADD AND DUP3 ADD DUP1 PUSH1 0x40 MSTORE POP DUP2 ADD SWAP1 PUSH2 0x5FD SWAP2 SWAP1 PUSH2 0xAC9 JUMP JUMPDEST PUSH1 0x1 PUSH1 0x1 PUSH1 0xA0 SHL SUB AND PUSH4 0x140C2FB5 PUSH1 0x40 MLOAD DUP2 PUSH4 0xFFFFFFFF AND PUSH1 0xE0 SHL DUP2 MSTORE PUSH1 0x4 ADD PUSH1 0x20 PUSH1 0x40 MLOAD DUP1 DUP4 SUB DUP2 PUSH0 DUP8 GAS CALL ISZERO DUP1 ISZERO PUSH2 0x639 JUMPI RETURNDATASIZE PUSH0 PUSH0 RETURNDATACOPY RETURNDATASIZE PUSH0 REVERT JUMPDEST POP POP POP POP PUSH1 0x40 MLOAD RETURNDATASIZE PUSH1 0x1F NOT PUSH1 0x1F DUP3 ADD AND DUP3 ADD DUP1 PUSH1 0x40 MSTORE POP DUP2 ADD SWAP1 PUSH2 0x65D SWAP2 SWAP1 PUSH2 0xAC9 JUMP JUMPDEST PUSH1 0x40 MLOAD PUSH4 0xE0CB969 PUSH1 0xE3 SHL DUP2 MSTORE ADDRESS PUSH1 0x4 DUP3 ADD MSTORE PUSH1 0x1 PUSH1 0x1 PUSH1 0xA0 SHL SUB SWAP2 SWAP1 SWAP2 AND SWAP1 PUSH4 0x7065CB48 SWAP1 PUSH1 0x24 ADD PUSH0 PUSH1 0x40 MLOAD DUP1 DUP4 SUB DUP2 PUSH0 DUP8 DUP1 EXTCODESIZE ISZERO DUP1 ISZERO PUSH2 0x69D JUMPI PUSH0 PUSH0 REVERT JUMPDEST POP GAS CALL ISZERO DUP1 ISZERO PUSH2 0x6AF JUMPI RETURNDATASIZE PUSH0 PUSH0 RETURNDATACOPY RETURNDATASIZE PUSH0 REVERT JUMPDEST POP POP POP POP PUSH1 0x9 PUSH0 SWAP1 SLOAD SWAP1 PUSH2 0x100 EXP SWAP1 DIV PUSH1 0x1 PUSH1 0x1 PUSH1 0xA0 SHL SUB AND PUSH1 0x1 PUSH1 0x1 PUSH1 0xA0 SHL SUB AND PUSH4 0xB5095168 PUSH1 0x40 MLOAD DUP2 PUSH4 0xFFFFFFFF AND PUSH1 0xE0 SHL DUP2 MSTORE PUSH1 0x4 ADD PUSH1 0x20 PUSH1 0x40 MLOAD DUP1 DUP4 SUB DUP2 PUSH0 DUP8 GAS CALL ISZERO DUP1 ISZERO PUSH2 0x704 JUMPI RETURNDATASIZE PUSH0 PUSH0 RETURNDATACOPY RETURNDATASIZE PUSH0 REVERT JUMPDEST POP POP POP POP PUSH1 0x40 MLOAD RETURNDATASIZE PUSH1 0x1F NOT PUSH1 0x1F DUP3 ADD AND DUP3 ADD DUP1 PUSH1 0x40 MSTORE POP DUP2 ADD SWAP1 PUSH2 0x728 SWAP2 SWAP1 PUSH2 0xAC9 JUMP JUMPDEST PUSH1 0x1 PUSH1 0x1 PUSH1 0xA0 SHL SUB AND PUSH4 0x4CDE872D PUSH1 0x40 MLOAD DUP2 PUSH4 0xFFFFFFFF AND PUSH1 0xE0 SHL DUP2 MSTORE PUSH1 0x4 ADD PUSH1 0x20 PUSH1 0x40 MLOAD DUP1 DUP4 SUB DUP2 PUSH0 DUP8 GAS CALL ISZERO DUP1 ISZERO PUSH2 0x764 JUMPI RETURNDATASIZE PUSH0 PUSH0 RETURNDATACOPY RETURNDATASIZE PUSH0 REVERT JUMPDEST POP POP POP POP PUSH1 0x40 MLOAD RETURNDATASIZE PUSH1 0x1F NOT PUSH1 0x1F DUP3 ADD AND DUP3 ADD DUP1 PUSH1 0x40 MSTORE POP DUP2 ADD SWAP1 PUSH2 0x788 SWAP2 SWAP1 PUSH2 0xAC9 JUMP JUMPDEST PUSH1 0x1 PUSH1 0x1 PUSH1 0xA0 SHL SUB AND PUSH4 0x140C2FB5 PUSH1 0x40 MLOAD DUP2 PUSH4 0xFFFFFFFF AND PUSH1 0xE0 SHL DUP2 MSTORE PUSH1 0x4 ADD PUSH1 0x20 PUSH1 0x40 MLOAD DUP1 DUP4 SUB DUP2 PUSH0 DUP8 GAS CALL ISZERO DUP1 ISZERO PUSH2 0x7C4 JUMPI RETURNDATASIZE PUSH0 PUSH0 RETURNDATACOPY RETURNDATASIZE PUSH0 REVERT JUMPDEST POP POP POP POP PUSH1 0x40 MLOAD RETURNDATASIZE PUSH1 0x1F NOT PUSH1 0x1F DUP3 ADD AND DUP3 ADD DUP1 PUSH1 0x40 MSTORE POP DUP2 ADD SWAP1 PUSH2 0x7E8 SWAP2 SWAP1 PUSH2 0xAC9 JUMP JUMPDEST PUSH1 0x1 PUSH1 0x1 PUSH1 0xA0 SHL SUB AND PUSH4 0x4209B07C PUSH1 0x40 MLOAD DUP2 PUSH4 0xFFFFFFFF AND PUSH1 0xE0 SHL DUP2 MSTORE PUSH1 0x4 ADD PUSH1 0x20 PUSH1 0x40 MLOAD DUP1 DUP4 SUB DUP2 PUSH0 DUP8 GAS CALL ISZERO DUP1 ISZERO PUSH2 0x824 JUMPI RETURNDATASIZE PUSH0 PUSH0 RETURNDATACOPY RETURNDATASIZE PUSH0 REVERT JUMPDEST POP POP POP POP PUSH1 0x40 MLOAD RETURNDATASIZE PUSH1 0x1F NOT PUSH1 0x1F DUP3 ADD AND DUP3 ADD DUP1 PUSH1 0x40 MSTORE POP DUP2 ADD SWAP1 PUSH2 0x848 SWAP2 SWAP1 PUSH2 0xAC9 JUMP JUMPDEST PUSH1 0x40 MLOAD PUSH4 0xE0CB969 PUSH1 0xE3 SHL DUP2 MSTORE ADDRESS PUSH1 0x4 DUP3 ADD MSTORE PUSH1 0x1 PUSH1 0x1 PUSH1 0xA0 SHL SUB SWAP2 SWAP1 SWAP2 AND SWAP1 PUSH4 0x7065CB48 SWAP1 PUSH1 0x24 ADD PUSH0 PUSH1 0x40 MLOAD DUP1 DUP4 SUB DUP2 PUSH0 DUP8 DUP1 EXTCODESIZE ISZERO DUP1 ISZERO PUSH2 0x888 JUMPI PUSH0 PUSH0 REVERT JUMPDEST POP GAS CALL ISZERO DUP1 ISZERO PUSH2 0x89A JUMPI RETURNDATASIZE PUSH0 PUSH0 RETURNDATACOPY RETURNDATASIZE PUSH0 REVERT JUMPDEST POP POP POP POP PUSH2 0x8AC PUSH2 0x914 PUSH1 0x20 SHL PUSH1 0x20 SHR JUMP JUMPDEST POP PUSH2 0xDFC JUMP JUMPDEST PUSH1 0x1 PUSH1 0x1 PUSH1 0xA0 SHL SUB DUP3 AND PUSH0 DUP2 DUP2 MSTORE PUSH1 0x20 DUP2 SWAP1 MSTORE PUSH1 0x40 DUP1 DUP3 KECCAK256 DUP1 SLOAD PUSH1 0xFF NOT AND DUP6 ISZERO ISZERO SWAP1 DUP2 OR SWAP1 SWAP2 SSTORE SWAP1 MLOAD SWAP1 SWAP3 SWAP2 PUSH32 0x6BFA7E860C3E9BF67B810CB88276B19B27C972812BAC04793D369B59A1183A83 SWAP2 LOG3 POP POP JUMP JUMPDEST PUSH2 0x910 PUSH0 DUP4 DUP4 PUSH2 0x935 JUMP JUMPDEST POP POP JUMP JUMPDEST PUSH1 0x9 SLOAD PUSH2 0x92B SWAP1 PUSH1 0x1 PUSH1 0x1 PUSH1 0xA0 SHL SUB AND PUSH1 0x12 PUSH2 0x294 JUMP JUMPDEST PUSH2 0x933 PUSH2 0xA75 JUMP JUMPDEST JUMP JUMPDEST PUSH1 0x1 PUSH1 0x1 PUSH1 0xA0 SHL SUB DUP4 AND PUSH2 0x95F JUMPI DUP1 PUSH1 0x3 PUSH0 DUP3 DUP3 SLOAD PUSH2 0x954 SWAP2 SWAP1 PUSH2 0xDE9 JUMP JUMPDEST SWAP1 SWAP2 SSTORE POP PUSH2 0x9E9 SWAP1 POP JUMP JUMPDEST PUSH1 0x1 PUSH1 0x1 PUSH1 0xA0 SHL SUB DUP4 AND PUSH0 SWAP1 DUP2 MSTORE PUSH1 0x1 PUSH1 0x20 MSTORE PUSH1 0x40 SWAP1 KECCAK256 SLOAD DUP2 DUP2 LT ISZERO PUSH2 0x9CB JUMPI PUSH1 0x40 MLOAD PUSH4 0xF7D0BBD PUSH1 0xE2 SHL DUP2 MSTORE ORIGIN PUSH1 0x4 DUP3 ADD MSTORE CALLER PUSH1 0x24 DUP3 ADD MSTORE PUSH1 0x1 PUSH1 0x1 PUSH1 0xA0 SHL SUB DUP1 DUP7 AND PUSH1 0x44 DUP4 ADD MSTORE DUP5 AND PUSH1 0x64 DUP3 ADD MSTORE ADDRESS PUSH1 0x84 DUP3 ADD MSTORE PUSH1 0xA4 DUP2 ADD DUP3 SWAP1 MSTORE PUSH1 0xC4 DUP2 ADD DUP4 SWAP1 MSTORE PUSH1 0xE4 ADD PUSH2 0xF7 JUMP JUMPDEST PUSH1 0x1 PUSH1 0x1 PUSH1 0xA0 SHL SUB DUP5 AND PUSH0 SWAP1 DUP2 MSTORE PUSH1 0x1 PUSH1 0x20 MSTORE PUSH1 0x40 SWAP1 KECCAK256 SWAP1 DUP3 SWAP1 SUB SWAP1 SSTORE JUMPDEST PUSH1 0x1 PUSH1 0x1 PUSH1 0xA0 SHL SUB DUP3 AND PUSH2 0xA05 JUMPI PUSH1 0x3 DUP1 SLOAD DUP3 SWAP1 SUB SWAP1 SSTORE PUSH2 0xA23 JUMP JUMPDEST PUSH1 0x1 PUSH1 0x1 PUSH1 0xA0 SHL SUB DUP3 AND PUSH0 SWAP1 DUP2 MSTORE PUSH1 0x1 PUSH1 0x20 MSTORE PUSH1 0x40 SWAP1 KECCAK256 DUP1 SLOAD DUP3 ADD SWAP1 SSTORE JUMPDEST DUP2 PUSH1 0x1 PUSH1 0x1 PUSH1 0xA0 SHL SUB AND DUP4 PUSH1 0x1 PUSH1 0x1 PUSH1 0xA0 SHL SUB AND PUSH32 0xDDF252AD1BE2C89B69C2B068FC378DAA952BA7F163C4A11628F55A4DF523B3EF DUP4 PUSH1 0x40 MLOAD PUSH2 0xA68 SWAP2 DUP2 MSTORE PUSH1 0x20 ADD SWAP1 JUMP JUMPDEST PUSH1 0x40 MLOAD DUP1 SWAP2 SUB SWAP1 LOG3 POP POP POP JUMP JUMPDEST PUSH2 0xA81 PUSH1 0x12 PUSH1 0xA PUSH2 0xDC4 JUMP JUMPDEST PUSH1 0x7 SLOAD PUSH2 0xA8E SWAP2 SWAP1 PUSH2 0xDD2 JUMP JUMPDEST PUSH1 0x3 SLOAD LT ISZERO PUSH2 0x933 JUMPI PUSH2 0x933 ADDRESS PUSH2 0xAA7 PUSH1 0x12 PUSH1 0xA PUSH2 0xDC4 JUMP JUMPDEST PUSH2 0x274 SWAP1 PUSH1 0x1 PUSH2 0xDD2 JUMP JUMPDEST PUSH1 0x1 PUSH1 0x1 PUSH1 0xA0 SHL SUB DUP2 AND DUP2 EQ PUSH2 0xAC6 JUMPI PUSH0 PUSH0 REVERT JUMPDEST POP JUMP JUMPDEST PUSH0 PUSH1 0x20 DUP3 DUP5 SUB SLT ISZERO PUSH2 0xAD9 JUMPI PUSH0 PUSH0 REVERT JUMPDEST DUP2 MLOAD PUSH2 0xAE4 DUP2 PUSH2 0xAB2 JUMP JUMPDEST SWAP4 SWAP3 POP POP POP JUMP JUMPDEST PUSH4 0x4E487B71 PUSH1 0xE0 SHL PUSH0 MSTORE PUSH1 0x41 PUSH1 0x4 MSTORE PUSH1 0x24 PUSH0 REVERT JUMPDEST PUSH1 0x1 DUP2 DUP2 SHR SWAP1 DUP3 AND DUP1 PUSH2 0xB13 JUMPI PUSH1 0x7F DUP3 AND SWAP2 POP JUMPDEST PUSH1 0x20 DUP3 LT DUP2 SUB PUSH2 0xB31 JUMPI PUSH4 0x4E487B71 PUSH1 0xE0 SHL PUSH0 MSTORE PUSH1 0x22 PUSH1 0x4 MSTORE PUSH1 0x24 PUSH0 REVERT JUMPDEST POP SWAP2 SWAP1 POP JUMP JUMPDEST PUSH1 0x1F DUP3 GT ISZERO PUSH2 0xB7E JUMPI DUP1 PUSH0 MSTORE PUSH1 0x20 PUSH0 KECCAK256 PUSH1 0x1F DUP5 ADD PUSH1 0x5 SHR DUP2 ADD PUSH1 0x20 DUP6 LT ISZERO PUSH2 0xB5C JUMPI POP DUP1 JUMPDEST PUSH1 0x1F DUP5 ADD PUSH1 0x5 SHR DUP3 ADD SWAP2 POP JUMPDEST DUP2 DUP2 LT ISZERO PUSH2 0xB7B JUMPI PUSH0 DUP2 SSTORE PUSH1 0x1 ADD PUSH2 0xB68 JUMP JUMPDEST POP POP JUMPDEST POP POP POP JUMP JUMPDEST DUP2 MLOAD PUSH1 0x1 PUSH1 0x1 PUSH1 0x40 SHL SUB DUP2 GT ISZERO PUSH2 0xB9C JUMPI PUSH2 0xB9C PUSH2 0xAEB JUMP JUMPDEST PUSH2 0xBB0 DUP2 PUSH2 0xBAA DUP5 SLOAD PUSH2 0xAFF JUMP JUMPDEST DUP5 PUSH2 0xB37 JUMP JUMPDEST PUSH1 0x20 PUSH1 0x1F DUP3 GT PUSH1 0x1 DUP2 EQ PUSH2 0xBE2 JUMPI PUSH0 DUP4 ISZERO PUSH2 0xBCB JUMPI POP DUP5 DUP3 ADD MLOAD JUMPDEST PUSH0 NOT PUSH1 0x3 DUP6 SWAP1 SHL SHR NOT AND PUSH1 0x1 DUP5 SWAP1 SHL OR DUP5 SSTORE PUSH2 0xB7B JUMP JUMPDEST PUSH0 DUP5 DUP2 MSTORE PUSH1 0x20 DUP2 KECCAK256 PUSH1 0x1F NOT DUP6 AND SWAP2 JUMPDEST DUP3 DUP2 LT ISZERO PUSH2 0xC11 JUMPI DUP8 DUP6 ADD MLOAD DUP3 SSTORE PUSH1 0x20 SWAP5 DUP6 ADD SWAP5 PUSH1 0x1 SWAP1 SWAP3 ADD SWAP2 ADD PUSH2 0xBF1 JUMP JUMPDEST POP DUP5 DUP3 LT ISZERO PUSH2 0xC2E JUMPI DUP7 DUP5 ADD MLOAD PUSH0 NOT PUSH1 0x3 DUP8 SWAP1 SHL PUSH1 0xF8 AND SHR NOT AND DUP2 SSTORE JUMPDEST POP POP POP POP PUSH1 0x1 SWAP1 DUP2 SHL ADD SWAP1 SSTORE POP JUMP JUMPDEST PUSH0 PUSH1 0x20 DUP3 DUP5 SUB SLT ISZERO PUSH2 0xC4D JUMPI PUSH0 PUSH0 REVERT JUMPDEST DUP2 MLOAD PUSH1 0x1 PUSH1 0x1 PUSH1 0x40 SHL SUB DUP2 AND DUP2 EQ PUSH2 0xAE4 JUMPI PUSH0 PUSH0 REVERT JUMPDEST PUSH4 0x4E487B71 PUSH1 0xE0 SHL PUSH0 MSTORE PUSH1 0x12 PUSH1 0x4 MSTORE PUSH1 0x24 PUSH0 REVERT JUMPDEST PUSH0 PUSH1 0x1 PUSH1 0x1 PUSH1 0x40 SHL SUB DUP4 AND DUP1 PUSH2 0xC8F JUMPI PUSH2 0xC8F PUSH2 0xC63 JUMP JUMPDEST PUSH1 0x1 PUSH1 0x1 PUSH1 0x40 SHL SUB SWAP3 SWAP1 SWAP3 AND SWAP2 SWAP1 SWAP2 MOD SWAP3 SWAP2 POP POP JUMP JUMPDEST PUSH0 DUP3 PUSH2 0xCB3 JUMPI PUSH2 0xCB3 PUSH2 0xC63 JUMP JUMPDEST POP MOD SWAP1 JUMP JUMPDEST PUSH4 0x4E487B71 PUSH1 0xE0 SHL PUSH0 MSTORE PUSH1 0x11 PUSH1 0x4 MSTORE PUSH1 0x24 PUSH0 REVERT JUMPDEST PUSH0 DUP3 PUSH2 0xCDA JUMPI PUSH2 0xCDA PUSH2 0xC63 JUMP JUMPDEST POP DIV SWAP1 JUMP JUMPDEST PUSH1 0x1 DUP2 JUMPDEST PUSH1 0x1 DUP5 GT ISZERO PUSH2 0xD1A JUMPI DUP1 DUP6 DIV DUP2 GT ISZERO PUSH2 0xCFE JUMPI PUSH2 0xCFE PUSH2 0xCB8 JUMP JUMPDEST PUSH1 0x1 DUP5 AND ISZERO PUSH2 0xD0C JUMPI SWAP1 DUP2 MUL SWAP1 JUMPDEST PUSH1 0x1 SWAP4 SWAP1 SWAP4 SHR SWAP3 DUP1 MUL PUSH2 0xCE3 JUMP JUMPDEST SWAP4 POP SWAP4 SWAP2 POP POP JUMP JUMPDEST PUSH0 DUP3 PUSH2 0xD30 JUMPI POP PUSH1 0x1 PUSH2 0xDBE JUMP JUMPDEST DUP2 PUSH2 0xD3C JUMPI POP PUSH0 PUSH2 0xDBE JUMP JUMPDEST DUP2 PUSH1 0x1 DUP2 EQ PUSH2 0xD52 JUMPI PUSH1 0x2 DUP2 EQ PUSH2 0xD5C JUMPI PUSH2 0xD78 JUMP JUMPDEST PUSH1 0x1 SWAP2 POP POP PUSH2 0xDBE JUMP JUMPDEST PUSH1 0xFF DUP5 GT ISZERO PUSH2 0xD6D JUMPI PUSH2 0xD6D PUSH2 0xCB8 JUMP JUMPDEST POP POP PUSH1 0x1 DUP3 SHL PUSH2 0xDBE JUMP JUMPDEST POP PUSH1 0x20 DUP4 LT PUSH2 0x133 DUP4 LT AND PUSH1 0x4E DUP5 LT PUSH1 0xB DUP5 LT AND OR ISZERO PUSH2 0xD9B JUMPI POP DUP2 DUP2 EXP PUSH2 0xDBE JUMP JUMPDEST PUSH2 0xDA7 PUSH0 NOT DUP5 DUP5 PUSH2 0xCDF JUMP JUMPDEST DUP1 PUSH0 NOT DIV DUP3 GT ISZERO PUSH2 0xDBA JUMPI PUSH2 0xDBA PUSH2 0xCB8 JUMP JUMPDEST MUL SWAP1 POP JUMPDEST SWAP3 SWAP2 POP POP JUMP JUMPDEST PUSH0 PUSH2 0xAE4 PUSH1 0xFF DUP5 AND DUP4 PUSH2 0xD22 JUMP JUMPDEST DUP1 DUP3 MUL DUP2 ISZERO DUP3 DUP3 DIV DUP5 EQ OR PUSH2 0xDBE JUMPI PUSH2 0xDBE PUSH2 0xCB8 JUMP JUMPDEST DUP1 DUP3 ADD DUP1 DUP3 GT ISZERO PUSH2 0xDBE JUMPI PUSH2 0xDBE PUSH2 0xCB8 JUMP JUMPDEST PUSH2 0x1958 DUP1 PUSH2 0xE09 PUSH0 CODECOPY PUSH0 RETURN INVALID PUSH1 0x80 PUSH1 0x40 MSTORE CALLVALUE DUP1 ISZERO PUSH2 0xF JUMPI PUSH0 PUSH0 REVERT JUMPDEST POP PUSH1 0x4 CALLDATASIZE LT PUSH2 0x15E JUMPI PUSH0 CALLDATALOAD PUSH1 0xE0 SHR DUP1 PUSH4 0x6FB7329C GT PUSH2 0xCA JUMPI DUP1 PUSH4 0x9DCBF7EA GT PUSH2 0x84 JUMPI DUP1 PUSH4 0x9DCBF7EA EQ PUSH2 0x30A JUMPI DUP1 PUSH4 0xA9059CBB EQ PUSH2 0x31D JUMPI DUP1 PUSH4 0xD3DC2A0F EQ PUSH2 0x330 JUMPI DUP1 PUSH4 0xD5ABEB01 EQ PUSH2 0x33E JUMPI DUP1 PUSH4 0xDD62ED3E EQ PUSH2 0x347 JUMPI DUP1 PUSH4 0xF4E6C93F EQ PUSH2 0x35A JUMPI DUP1 PUSH4 0xFF762044 EQ PUSH2 0x362 JUMPI PUSH0 PUSH0 REVERT JUMPDEST DUP1 PUSH4 0x6FB7329C EQ PUSH2 0x28E JUMPI DUP1 PUSH4 0x7065CB48 EQ PUSH2 0x2AE JUMPI DUP1 PUSH4 0x70A08231 EQ PUSH2 0x2C1 JUMPI DUP1 PUSH4 0x76FADE90 EQ PUSH2 0x2E9 JUMPI DUP1 PUSH4 0x8DA5CB5B EQ PUSH2 0x2FC JUMPI DUP1 PUSH4 0x95D89B41 EQ PUSH2 0x302 JUMPI PUSH0 PUSH0 REVERT JUMPDEST DUP1 PUSH4 0x2499A533 GT PUSH2 0x11B JUMPI DUP1 PUSH4 0x2499A533 EQ PUSH2 0x1FE JUMPI DUP1 PUSH4 0x27BACC40 EQ PUSH2 0x211 JUMPI DUP1 PUSH4 0x2B83B1FC EQ PUSH2 0x231 JUMPI DUP1 PUSH4 0x313CE567 EQ PUSH2 0x259 JUMPI DUP1 PUSH4 0x38BF3CFA EQ PUSH2 0x268 JUMPI DUP1 PUSH4 0x666E1B39 EQ PUSH2 0x27B JUMPI PUSH0 PUSH0 REVERT JUMPDEST DUP1 PUSH4 0x1D03071 EQ PUSH2 0x162 JUMPI DUP1 PUSH4 0x6FDDE03 EQ PUSH2 0x18C JUMPI DUP1 PUSH4 0x95EA7B3 EQ PUSH2 0x1A1 JUMPI DUP1 PUSH4 0x18160DDD EQ PUSH2 0x1C4 JUMPI DUP1 PUSH4 0x222838DB EQ PUSH2 0x1D6 JUMPI DUP1 PUSH4 0x23B872DD EQ PUSH2 0x1EB JUMPI JUMPDEST PUSH0 PUSH0 REVERT JUMPDEST PUSH2 0x175 PUSH2 0x170 CALLDATASIZE PUSH1 0x4 PUSH2 0x1169 JUMP JUMPDEST PUSH2 0x384 JUMP JUMPDEST PUSH1 0x40 MLOAD PUSH2 0x183 SWAP3 SWAP2 SWAP1 PUSH2 0x11CC JUMP JUMPDEST PUSH1 0x40 MLOAD DUP1 SWAP2 SUB SWAP1 RETURN JUMPDEST PUSH2 0x194 PUSH2 0x7F0 JUMP JUMPDEST PUSH1 0x40 MLOAD PUSH2 0x183 SWAP2 SWAP1 PUSH2 0x12CA JUMP JUMPDEST PUSH2 0x1B4 PUSH2 0x1AF CALLDATASIZE PUSH1 0x4 PUSH2 0x12F7 JUMP JUMPDEST PUSH2 0x880 JUMP JUMPDEST PUSH1 0x40 MLOAD SWAP1 ISZERO ISZERO DUP2 MSTORE PUSH1 0x20 ADD PUSH2 0x183 JUMP JUMPDEST PUSH1 0x3 SLOAD JUMPDEST PUSH1 0x40 MLOAD SWAP1 DUP2 MSTORE PUSH1 0x20 ADD PUSH2 0x183 JUMP JUMPDEST PUSH2 0x1E9 PUSH2 0x1E4 CALLDATASIZE PUSH1 0x4 PUSH2 0x12F7 JUMP JUMPDEST PUSH2 0x899 JUMP JUMPDEST STOP JUMPDEST PUSH2 0x1B4 PUSH2 0x1F9 CALLDATASIZE PUSH1 0x4 PUSH2 0x1321 JUMP JUMPDEST PUSH2 0xA9B JUMP JUMPDEST PUSH2 0x1E9 PUSH2 0x20C CALLDATASIZE PUSH1 0x4 PUSH2 0x12F7 JUMP JUMPDEST PUSH2 0xABE JUMP JUMPDEST PUSH2 0x219 PUSH2 0xC71 JUMP JUMPDEST PUSH1 0x40 MLOAD PUSH1 0x1 PUSH1 0x1 PUSH1 0x40 SHL SUB SWAP1 SWAP2 AND DUP2 MSTORE PUSH1 0x20 ADD PUSH2 0x183 JUMP JUMPDEST PUSH2 0x1C8 PUSH2 0x23F CALLDATASIZE PUSH1 0x4 PUSH2 0x135F JUMP JUMPDEST PUSH1 0x1 PUSH1 0x1 PUSH1 0xA0 SHL SUB AND PUSH0 SWAP1 DUP2 MSTORE PUSH1 0x8 PUSH1 0x20 MSTORE PUSH1 0x40 SWAP1 KECCAK256 SLOAD SWAP1 JUMP JUMPDEST PUSH1 0x40 MLOAD PUSH1 0x12 DUP2 MSTORE PUSH1 0x20 ADD PUSH2 0x183 JUMP JUMPDEST PUSH2 0x1E9 PUSH2 0x276 CALLDATASIZE PUSH1 0x4 PUSH2 0x135F JUMP JUMPDEST PUSH2 0xC88 JUMP JUMPDEST PUSH2 0x1B4 PUSH2 0x289 CALLDATASIZE PUSH1 0x4 PUSH2 0x135F JUMP JUMPDEST PUSH2 0xC9D JUMP JUMPDEST PUSH1 0x6 SLOAD PUSH2 0x2A1 SWAP1 PUSH1 0x1 PUSH1 0x1 PUSH1 0xA0 SHL SUB AND DUP2 JUMP JUMPDEST PUSH1 0x40 MLOAD PUSH2 0x183 SWAP2 SWAP1 PUSH2 0x137A JUMP JUMPDEST PUSH2 0x1E9 PUSH2 0x2BC CALLDATASIZE PUSH1 0x4 PUSH2 0x135F JUMP JUMPDEST PUSH2 0xCBA JUMP JUMPDEST PUSH2 0x1C8 PUSH2 0x2CF CALLDATASIZE PUSH1 0x4 PUSH2 0x135F JUMP JUMPDEST PUSH1 0x1 PUSH1 0x1 PUSH1 0xA0 SHL SUB AND PUSH0 SWAP1 DUP2 MSTORE PUSH1 0x1 PUSH1 0x20 MSTORE PUSH1 0x40 SWAP1 KECCAK256 SLOAD SWAP1 JUMP JUMPDEST PUSH1 0x9 SLOAD PUSH2 0x2A1 SWAP1 PUSH1 0x1 PUSH1 0x1 PUSH1 0xA0 SHL SUB AND DUP2 JUMP JUMPDEST ADDRESS PUSH2 0x2A1 JUMP JUMPDEST PUSH2 0x194 PUSH2 0xCFA JUMP JUMPDEST PUSH2 0x1E9 PUSH2 0x318 CALLDATASIZE PUSH1 0x4 PUSH2 0x1169 JUMP JUMPDEST PUSH2 0xD09 JUMP JUMPDEST PUSH2 0x1B4 PUSH2 0x32B CALLDATASIZE PUSH1 0x4 PUSH2 0x12F7 JUMP JUMPDEST PUSH2 0xD2F JUMP JUMPDEST PUSH2 0x219 PUSH7 0x3632C8EB5AF3B DUP2 JUMP JUMPDEST PUSH2 0x1C8 PUSH1 0x7 SLOAD DUP2 JUMP JUMPDEST PUSH2 0x1C8 PUSH2 0x355 CALLDATASIZE PUSH1 0x4 PUSH2 0x138E JUMP JUMPDEST PUSH2 0xD3C JUMP JUMPDEST PUSH2 0x1E9 PUSH2 0xD66 JUMP JUMPDEST PUSH2 0x194 PUSH1 0x40 MLOAD DUP1 PUSH1 0x40 ADD PUSH1 0x40 MSTORE DUP1 PUSH1 0x3 DUP2 MSTORE PUSH1 0x20 ADD PUSH3 0x534955 PUSH1 0xE8 SHL DUP2 MSTORE POP DUP2 JUMP JUMPDEST PUSH2 0x38C PUSH2 0x1066 JUMP JUMPDEST PUSH1 0x40 DUP1 MLOAD PUSH2 0x100 DUP2 ADD DUP3 MSTORE PUSH0 DUP1 DUP3 MSTORE PUSH1 0x20 DUP3 ADD DUP2 SWAP1 MSTORE SWAP2 DUP2 ADD DUP3 SWAP1 MSTORE PUSH1 0x60 DUP2 ADD DUP3 SWAP1 MSTORE PUSH1 0x80 DUP2 ADD DUP3 SWAP1 MSTORE PUSH1 0xA0 DUP2 ADD DUP3 SWAP1 MSTORE PUSH1 0xC0 DUP2 ADD DUP3 SWAP1 MSTORE PUSH1 0xE0 DUP2 ADD SWAP2 SWAP1 SWAP2 MSTORE PUSH2 0x3D4 PUSH2 0xD78 JUMP JUMPDEST PUSH1 0x9 SLOAD PUSH1 0x40 MLOAD PUSH4 0x591257C5 PUSH1 0xE0 SHL DUP2 MSTORE PUSH1 0x2 PUSH1 0x4 DUP3 ADD MSTORE PUSH1 0x1 PUSH1 0x1 PUSH1 0xA0 SHL SUB SWAP1 SWAP2 AND SWAP1 PUSH4 0x591257C5 SWAP1 PUSH1 0x24 ADD PUSH1 0x20 PUSH1 0x40 MLOAD DUP1 DUP4 SUB DUP2 PUSH0 DUP8 GAS CALL ISZERO DUP1 ISZERO PUSH2 0x41C JUMPI RETURNDATASIZE PUSH0 PUSH0 RETURNDATACOPY RETURNDATASIZE PUSH0 REVERT JUMPDEST POP POP POP POP PUSH1 0x40 MLOAD RETURNDATASIZE PUSH1 0x1F NOT PUSH1 0x1F DUP3 ADD AND DUP3 ADD DUP1 PUSH1 0x40 MSTORE POP DUP2 ADD SWAP1 PUSH2 0x440 SWAP2 SWAP1 PUSH2 0x13E0 JUMP JUMPDEST PUSH1 0x1 PUSH1 0x1 PUSH1 0x40 SHL SUB AND DUP3 MSTORE PUSH1 0x6 SLOAD PUSH1 0x40 DUP1 MLOAD PUSH4 0x604A6FA9 PUSH1 0xE0 SHL DUP2 MSTORE SWAP1 MLOAD PUSH1 0x1 PUSH1 0x1 PUSH1 0xA0 SHL SUB SWAP1 SWAP3 AND SWAP2 PUSH4 0x604A6FA9 SWAP2 PUSH1 0x4 DUP1 DUP3 ADD SWAP3 PUSH1 0x20 SWAP3 SWAP1 SWAP2 SWAP1 DUP3 SWAP1 SUB ADD DUP2 PUSH0 DUP8 GAS CALL ISZERO DUP1 ISZERO PUSH2 0x494 JUMPI RETURNDATASIZE PUSH0 PUSH0 RETURNDATACOPY RETURNDATASIZE PUSH0 REVERT JUMPDEST POP POP POP POP PUSH1 0x40 MLOAD RETURNDATASIZE PUSH1 0x1F NOT PUSH1 0x1F DUP3 ADD AND DUP3 ADD DUP1 PUSH1 0x40 MSTORE POP DUP2 ADD SWAP1 PUSH2 0x4B8 SWAP2 SWAP1 PUSH2 0x13E0 JUMP JUMPDEST PUSH1 0x1 PUSH1 0x1 PUSH1 0x40 SHL SUB AND PUSH1 0x20 DUP4 ADD MSTORE PUSH2 0x4CE PUSH2 0xC71 JUMP JUMPDEST PUSH1 0x1 PUSH1 0x1 PUSH1 0x40 SHL SUB AND PUSH1 0x40 DUP1 DUP5 ADD SWAP2 SWAP1 SWAP2 MSTORE PUSH1 0x9 SLOAD DUP2 MLOAD PUSH4 0x16A12A2D PUSH1 0xE3 SHL DUP2 MSTORE SWAP2 MLOAD PUSH1 0x1 PUSH1 0x1 PUSH1 0xA0 SHL SUB SWAP1 SWAP2 AND SWAP2 PUSH4 0xB5095168 SWAP2 PUSH1 0x4 DUP1 DUP4 ADD SWAP3 PUSH1 0x20 SWAP3 SWAP2 SWAP1 DUP3 SWAP1 SUB ADD DUP2 PUSH0 DUP8 GAS CALL ISZERO DUP1 ISZERO PUSH2 0x526 JUMPI RETURNDATASIZE PUSH0 PUSH0 RETURNDATACOPY RETURNDATASIZE PUSH0 REVERT JUMPDEST POP POP POP POP PUSH1 0x40 MLOAD RETURNDATASIZE PUSH1 0x1F NOT PUSH1 0x1F DUP3 ADD AND DUP3 ADD DUP1 PUSH1 0x40 MSTORE POP DUP2 ADD SWAP1 PUSH2 0x54A SWAP2 SWAP1 PUSH2 0x13F9 JUMP JUMPDEST PUSH1 0x1 PUSH1 0x1 PUSH1 0xA0 SHL SUB AND PUSH4 0x4CDE872D PUSH1 0x40 MLOAD DUP2 PUSH4 0xFFFFFFFF AND PUSH1 0xE0 SHL DUP2 MSTORE PUSH1 0x4 ADD PUSH1 0x20 PUSH1 0x40 MLOAD DUP1 DUP4 SUB DUP2 PUSH0 DUP8 GAS CALL ISZERO DUP1 ISZERO PUSH2 0x586 JUMPI RETURNDATASIZE PUSH0 PUSH0 RETURNDATACOPY RETURNDATASIZE PUSH0 REVERT JUMPDEST POP POP POP POP PUSH1 0x40 MLOAD RETURNDATASIZE PUSH1 0x1F NOT PUSH1 0x1F DUP3 ADD AND DUP3 ADD DUP1 PUSH1 0x40 MSTORE POP DUP2 ADD SWAP1 PUSH2 0x5AA SWAP2 SWAP1 PUSH2 0x13F9 JUMP JUMPDEST PUSH1 0x1 PUSH1 0x1 PUSH1 0xA0 SHL SUB AND PUSH4 0x140C2FB5 PUSH1 0x40 MLOAD DUP2 PUSH4 0xFFFFFFFF AND PUSH1 0xE0 SHL DUP2 MSTORE PUSH1 0x4 ADD PUSH1 0x20 PUSH1 0x40 MLOAD DUP1 DUP4 SUB DUP2 PUSH0 DUP8 GAS CALL ISZERO DUP1 ISZERO PUSH2 0x5E6 JUMPI RETURNDATASIZE PUSH0 PUSH0 RETURNDATACOPY RETURNDATASIZE PUSH0 REVERT JUMPDEST POP POP POP POP PUSH1 0x40 MLOAD RETURNDATASIZE PUSH1 0x1F NOT PUSH1 0x1F DUP3 ADD AND DUP3 ADD DUP1 PUSH1 0x40 MSTORE POP DUP2 ADD SWAP1 PUSH2 0x60A SWAP2 SWAP1 PUSH2 0x13F9 JUMP JUMPDEST DUP3 MLOAD PUSH1 0x40 DUP1 DUP6 ADD MLOAD PUSH1 0x20 DUP7 ADD MLOAD SWAP2 MLOAD PUSH4 0xC94C3F85 PUSH1 0xE0 SHL DUP2 MSTORE PUSH1 0x1 PUSH1 0x1 PUSH1 0xA0 SHL SUB SWAP5 SWAP1 SWAP5 AND SWAP4 PUSH4 0xC94C3F85 SWAP4 PUSH2 0x649 SWAP4 DUP11 SWAP4 DUP11 SWAP4 SWAP1 SWAP2 SWAP1 PUSH1 0x4 ADD PUSH2 0x1414 JUMP JUMPDEST PUSH2 0x100 PUSH1 0x40 MLOAD DUP1 DUP4 SUB DUP2 PUSH0 DUP8 GAS CALL ISZERO DUP1 ISZERO PUSH2 0x666 JUMPI RETURNDATASIZE PUSH0 PUSH0 RETURNDATACOPY RETURNDATASIZE PUSH0 REVERT JUMPDEST POP POP POP POP PUSH1 0x40 MLOAD RETURNDATASIZE PUSH1 0x1F NOT PUSH1 0x1F DUP3 ADD AND DUP3 ADD DUP1 PUSH1 0x40 MSTORE POP DUP2 ADD SWAP1 PUSH2 0x68A SWAP2 SWAP1 PUSH2 0x146E JUMP JUMPDEST SWAP1 POP DUP1 PUSH1 0x80 ADD MLOAD PUSH1 0x1 PUSH1 0x1 PUSH1 0xA0 SHL SUB AND PUSH4 0x4970204F PUSH1 0x40 MLOAD DUP2 PUSH4 0xFFFFFFFF AND PUSH1 0xE0 SHL DUP2 MSTORE PUSH1 0x4 ADD PUSH1 0x20 PUSH1 0x40 MLOAD DUP1 DUP4 SUB DUP2 DUP7 GAS STATICCALL ISZERO DUP1 ISZERO PUSH2 0x6CC JUMPI RETURNDATASIZE PUSH0 PUSH0 RETURNDATACOPY RETURNDATASIZE PUSH0 REVERT JUMPDEST POP POP POP POP PUSH1 0x40 MLOAD RETURNDATASIZE PUSH1 0x1F NOT PUSH1 0x1F DUP3 ADD AND DUP3 ADD DUP1 PUSH1 0x40 MSTORE POP DUP2 ADD SWAP1 PUSH2 0x6F0 SWAP2 SWAP1 PUSH2 0x13F9 JUMP JUMPDEST PUSH1 0x1 PUSH1 0x1 PUSH1 0xA0 SHL SUB AND PUSH4 0x38BF3CFA ORIGIN PUSH1 0x40 MLOAD DUP3 PUSH4 0xFFFFFFFF AND PUSH1 0xE0 SHL DUP2 MSTORE PUSH1 0x4 ADD PUSH2 0x71B SWAP2 SWAP1 PUSH2 0x137A JUMP JUMPDEST PUSH0 PUSH1 0x40 MLOAD DUP1 DUP4 SUB DUP2 PUSH0 DUP8 DUP1 EXTCODESIZE ISZERO DUP1 ISZERO PUSH2 0x732 JUMPI PUSH0 PUSH0 REVERT JUMPDEST POP GAS CALL ISZERO DUP1 ISZERO PUSH2 0x744 JUMPI RETURNDATASIZE PUSH0 PUSH0 RETURNDATACOPY RETURNDATASIZE PUSH0 REVERT JUMPDEST POP POP POP POP PUSH2 0x7E1 DUP2 PUSH1 0x80 ADD MLOAD PUSH1 0x1 PUSH1 0x1 PUSH1 0xA0 SHL SUB AND PUSH4 0x4970204F PUSH1 0x40 MLOAD DUP2 PUSH4 0xFFFFFFFF AND PUSH1 0xE0 SHL DUP2 MSTORE PUSH1 0x4 ADD PUSH1 0x20 PUSH1 0x40 MLOAD DUP1 DUP4 SUB DUP2 DUP7 GAS STATICCALL ISZERO DUP1 ISZERO PUSH2 0x78B JUMPI RETURNDATASIZE PUSH0 PUSH0 RETURNDATACOPY RETURNDATASIZE PUSH0 REVERT JUMPDEST POP POP POP POP PUSH1 0x40 MLOAD RETURNDATASIZE PUSH1 0x1F NOT PUSH1 0x1F DUP3 ADD AND DUP3 ADD DUP1 PUSH1 0x40 MSTORE POP DUP2 ADD SWAP1 PUSH2 0x7AF SWAP2 SWAP1 PUSH2 0x13F9 JUMP JUMPDEST PUSH2 0x7BB PUSH1 0x12 PUSH1 0xA PUSH2 0x160B JUMP JUMPDEST PUSH2 0x7C6 SWAP1 PUSH1 0x1 PUSH2 0x1619 JUMP JUMPDEST PUSH1 0x1 PUSH1 0x1 PUSH1 0xA0 SHL SUB SWAP1 SWAP2 AND PUSH0 SWAP1 DUP2 MSTORE PUSH1 0x8 PUSH1 0x20 MSTORE PUSH1 0x40 SWAP1 KECCAK256 SSTORE JUMP JUMPDEST PUSH2 0x7E9 PUSH2 0xDB8 JUMP JUMPDEST SWAP3 POP SWAP3 SWAP1 POP JUMP JUMPDEST PUSH1 0x60 PUSH1 0x4 DUP1 SLOAD PUSH2 0x7FF SWAP1 PUSH2 0x1630 JUMP JUMPDEST DUP1 PUSH1 0x1F ADD PUSH1 0x20 DUP1 SWAP2 DIV MUL PUSH1 0x20 ADD PUSH1 0x40 MLOAD SWAP1 DUP2 ADD PUSH1 0x40 MSTORE DUP1 SWAP3 SWAP2 SWAP1 DUP2 DUP2 MSTORE PUSH1 0x20 ADD DUP3 DUP1 SLOAD PUSH2 0x82B SWAP1 PUSH2 0x1630 JUMP JUMPDEST DUP1 ISZERO PUSH2 0x876 JUMPI DUP1 PUSH1 0x1F LT PUSH2 0x84D JUMPI PUSH2 0x100 DUP1 DUP4 SLOAD DIV MUL DUP4 MSTORE SWAP2 PUSH1 0x20 ADD SWAP2 PUSH2 0x876 JUMP JUMPDEST DUP3 ADD SWAP2 SWAP1 PUSH0 MSTORE PUSH1 0x20 PUSH0 KECCAK256 SWAP1 JUMPDEST DUP2 SLOAD DUP2 MSTORE SWAP1 PUSH1 0x1 ADD SWAP1 PUSH1 0x20 ADD DUP1 DUP4 GT PUSH2 0x859 JUMPI DUP3 SWAP1 SUB PUSH1 0x1F AND DUP3 ADD SWAP2 JUMPDEST POP POP POP POP POP SWAP1 POP SWAP1 JUMP JUMPDEST PUSH0 CALLER PUSH2 0x88D DUP2 DUP6 DUP6 PUSH2 0xDFA JUMP JUMPDEST PUSH1 0x1 SWAP2 POP POP JUMPDEST SWAP3 SWAP2 POP POP JUMP JUMPDEST PUSH1 0x1 PUSH1 0x1 PUSH1 0xA0 SHL SUB DUP3 AND PUSH0 SWAP1 DUP2 MSTORE PUSH1 0x8 PUSH1 0x20 MSTORE PUSH1 0x40 DUP2 KECCAK256 SLOAD SWAP1 SUB PUSH2 0x8DB JUMPI DUP2 PUSH1 0x40 MLOAD PUSH4 0x90B23441 PUSH1 0xE0 SHL DUP2 MSTORE PUSH1 0x4 ADD PUSH2 0x8D2 SWAP2 SWAP1 PUSH2 0x137A JUMP JUMPDEST PUSH1 0x40 MLOAD DUP1 SWAP2 SUB SWAP1 REVERT JUMPDEST DUP2 PUSH0 PUSH2 0x8E9 PUSH1 0x12 PUSH1 0xA PUSH2 0x160B JUMP JUMPDEST PUSH1 0x1 PUSH1 0x1 PUSH1 0xA0 SHL SUB DUP6 AND PUSH0 SWAP1 DUP2 MSTORE PUSH1 0x8 PUSH1 0x20 MSTORE PUSH1 0x40 SWAP1 KECCAK256 SLOAD PUSH2 0x90B SWAP1 DUP6 PUSH2 0x1619 JUMP JUMPDEST PUSH2 0x915 SWAP2 SWAP1 PUSH2 0x167C JUMP JUMPDEST PUSH1 0x40 MLOAD PUSH4 0x23B872DD PUSH1 0xE0 SHL DUP2 MSTORE SWAP1 SWAP2 POP PUSH0 SWAP1 ADDRESS SWAP1 PUSH4 0x23B872DD SWAP1 PUSH2 0x941 SWAP1 CALLER SWAP1 DUP5 SWAP1 DUP10 SWAP1 PUSH1 0x4 ADD PUSH2 0x168F JUMP JUMPDEST PUSH1 0x20 PUSH1 0x40 MLOAD DUP1 DUP4 SUB DUP2 PUSH0 DUP8 GAS CALL ISZERO DUP1 ISZERO PUSH2 0x95D JUMPI RETURNDATASIZE PUSH0 PUSH0 RETURNDATACOPY RETURNDATASIZE PUSH0 REVERT JUMPDEST POP POP POP POP PUSH1 0x40 MLOAD RETURNDATASIZE PUSH1 0x1F NOT PUSH1 0x1F DUP3 ADD AND DUP3 ADD DUP1 PUSH1 0x40 MSTORE POP DUP2 ADD SWAP1 PUSH2 0x981 SWAP2 SWAP1 PUSH2 0x16B3 JUMP JUMPDEST SWAP1 POP DUP1 ADDRESS PUSH1 0x1 PUSH1 0x1 PUSH1 0xA0 SHL SUB AND PUSH4 0x6FDDE03 PUSH1 0x40 MLOAD DUP2 PUSH4 0xFFFFFFFF AND PUSH1 0xE0 SHL DUP2 MSTORE PUSH1 0x4 ADD PUSH0 PUSH1 0x40 MLOAD DUP1 DUP4 SUB DUP2 DUP7 GAS STATICCALL ISZERO DUP1 ISZERO PUSH2 0x9BF JUMPI RETURNDATASIZE PUSH0 PUSH0 RETURNDATACOPY RETURNDATASIZE PUSH0 REVERT JUMPDEST POP POP POP POP PUSH1 0x40 MLOAD RETURNDATASIZE PUSH0 DUP3 RETURNDATACOPY PUSH1 0x1F RETURNDATASIZE SWAP1 DUP2 ADD PUSH1 0x1F NOT AND DUP3 ADD PUSH1 0x40 MSTORE PUSH2 0x9E6 SWAP2 SWAP1 DUP2 ADD SWAP1 PUSH2 0x16D2 JUMP JUMPDEST PUSH1 0x40 MLOAD PUSH1 0x20 ADD PUSH2 0x9F6 SWAP2 SWAP1 PUSH2 0x1746 JUMP JUMPDEST PUSH1 0x40 MLOAD PUSH1 0x20 DUP2 DUP4 SUB SUB DUP2 MSTORE SWAP1 PUSH1 0x40 MSTORE SWAP1 PUSH2 0xA23 JUMPI PUSH1 0x40 MLOAD PUSH3 0x461BCD PUSH1 0xE5 SHL DUP2 MSTORE PUSH1 0x4 ADD PUSH2 0x8D2 SWAP2 SWAP1 PUSH2 0x12CA JUMP JUMPDEST POP PUSH1 0x40 MLOAD PUSH4 0xA9059CBB PUSH1 0xE0 SHL DUP2 MSTORE CALLER PUSH1 0x4 DUP3 ADD MSTORE PUSH1 0x24 DUP2 ADD DUP4 SWAP1 MSTORE PUSH1 0x1 PUSH1 0x1 PUSH1 0xA0 SHL SUB DUP5 AND SWAP1 PUSH4 0xA9059CBB SWAP1 PUSH1 0x44 ADD JUMPDEST PUSH1 0x20 PUSH1 0x40 MLOAD DUP1 DUP4 SUB DUP2 PUSH0 DUP8 GAS CALL ISZERO DUP1 ISZERO PUSH2 0xA6F JUMPI RETURNDATASIZE PUSH0 PUSH0 RETURNDATACOPY RETURNDATASIZE PUSH0 REVERT JUMPDEST POP POP POP POP PUSH1 0x40 MLOAD RETURNDATASIZE PUSH1 0x1F NOT PUSH1 0x1F DUP3 ADD AND DUP3 ADD DUP1 PUSH1 0x40 MSTORE POP DUP2 ADD SWAP1 PUSH2 0xA93 SWAP2 SWAP1 PUSH2 0x16B3 JUMP JUMPDEST POP POP POP POP POP POP JUMP JUMPDEST PUSH0 CALLER PUSH2 0xAA8 DUP6 DUP3 DUP6 PUSH2 0xE07 JUMP JUMPDEST PUSH2 0xAB3 DUP6 DUP6 DUP6 PUSH2 0xE5E JUMP JUMPDEST POP PUSH1 0x1 SWAP5 SWAP4 POP POP POP POP JUMP JUMPDEST PUSH1 0x1 PUSH1 0x1 PUSH1 0xA0 SHL SUB DUP3 AND PUSH0 SWAP1 DUP2 MSTORE PUSH1 0x8 PUSH1 0x20 MSTORE PUSH1 0x40 DUP2 KECCAK256 SLOAD SWAP1 SUB PUSH2 0xAF7 JUMPI DUP2 PUSH1 0x40 MLOAD PUSH4 0x90B23441 PUSH1 0xE0 SHL DUP2 MSTORE PUSH1 0x4 ADD PUSH2 0x8D2 SWAP2 SWAP1 PUSH2 0x137A JUMP JUMPDEST DUP2 PUSH0 PUSH2 0xB05 PUSH1 0x12 PUSH1 0xA PUSH2 0x160B JUMP JUMPDEST PUSH1 0x1 PUSH1 0x1 PUSH1 0xA0 SHL SUB DUP6 AND PUSH0 SWAP1 DUP2 MSTORE PUSH1 0x8 PUSH1 0x20 MSTORE PUSH1 0x40 SWAP1 KECCAK256 SLOAD PUSH2 0xB27 SWAP1 DUP6 PUSH2 0x1619 JUMP JUMPDEST PUSH2 0xB31 SWAP2 SWAP1 PUSH2 0x167C JUMP JUMPDEST SWAP1 POP PUSH0 DUP3 PUSH1 0x1 PUSH1 0x1 PUSH1 0xA0 SHL SUB AND PUSH4 0x23B872DD CALLER ADDRESS DUP6 PUSH1 0x40 MLOAD DUP5 PUSH4 0xFFFFFFFF AND PUSH1 0xE0 SHL DUP2 MSTORE PUSH1 0x4 ADD PUSH2 0xB64 SWAP4 SWAP3 SWAP2 SWAP1 PUSH2 0x168F JUMP JUMPDEST PUSH1 0x20 PUSH1 0x40 MLOAD DUP1 DUP4 SUB DUP2 PUSH0 DUP8 GAS CALL ISZERO DUP1 ISZERO PUSH2 0xB80 JUMPI RETURNDATASIZE PUSH0 PUSH0 RETURNDATACOPY RETURNDATASIZE PUSH0 REVERT JUMPDEST POP POP POP POP PUSH1 0x40 MLOAD RETURNDATASIZE PUSH1 0x1F NOT PUSH1 0x1F DUP3 ADD AND DUP3 ADD DUP1 PUSH1 0x40 MSTORE POP DUP2 ADD SWAP1 PUSH2 0xBA4 SWAP2 SWAP1 PUSH2 0x16B3 JUMP JUMPDEST SWAP1 POP DUP1 DUP4 PUSH1 0x1 PUSH1 0x1 PUSH1 0xA0 SHL SUB AND PUSH4 0x6FDDE03 PUSH1 0x40 MLOAD DUP2 PUSH4 0xFFFFFFFF AND PUSH1 0xE0 SHL DUP2 MSTORE PUSH1 0x4 ADD PUSH0 PUSH1 0x40 MLOAD DUP1 DUP4 SUB DUP2 DUP7 GAS STATICCALL ISZERO DUP1 ISZERO PUSH2 0xBE2 JUMPI RETURNDATASIZE PUSH0 PUSH0 RETURNDATACOPY RETURNDATASIZE PUSH0 REVERT JUMPDEST POP POP POP POP PUSH1 0x40 MLOAD RETURNDATASIZE PUSH0 DUP3 RETURNDATACOPY PUSH1 0x1F RETURNDATASIZE SWAP1 DUP2 ADD PUSH1 0x1F NOT AND DUP3 ADD PUSH1 0x40 MSTORE PUSH2 0xC09 SWAP2 SWAP1 DUP2 ADD SWAP1 PUSH2 0x16D2 JUMP JUMPDEST PUSH1 0x40 MLOAD PUSH1 0x20 ADD PUSH2 0xC19 SWAP2 SWAP1 PUSH2 0x1746 JUMP JUMPDEST PUSH1 0x40 MLOAD PUSH1 0x20 DUP2 DUP4 SUB SUB DUP2 MSTORE SWAP1 PUSH1 0x40 MSTORE SWAP1 PUSH2 0xC46 JUMPI PUSH1 0x40 MLOAD PUSH3 0x461BCD PUSH1 0xE5 SHL DUP2 MSTORE PUSH1 0x4 ADD PUSH2 0x8D2 SWAP2 SWAP1 PUSH2 0x12CA JUMP JUMPDEST POP PUSH1 0x40 MLOAD PUSH4 0xA9059CBB PUSH1 0xE0 SHL DUP2 MSTORE CALLER PUSH1 0x4 DUP3 ADD MSTORE PUSH1 0x24 DUP2 ADD DUP6 SWAP1 MSTORE ADDRESS SWAP1 PUSH4 0xA9059CBB SWAP1 PUSH1 0x44 ADD PUSH2 0xA53 JUMP JUMPDEST PUSH0 PUSH2 0xC83 PUSH7 0x3632C8EB5AF3B ORIGIN PUSH2 0x1776 JUMP JUMPDEST SWAP1 POP SWAP1 JUMP JUMPDEST PUSH2 0xC90 PUSH2 0xD78 JUMP JUMPDEST PUSH2 0xC9A DUP2 PUSH0 PUSH2 0xE69 JUMP JUMPDEST POP JUMP JUMPDEST PUSH1 0x1 PUSH1 0x1 PUSH1 0xA0 SHL SUB AND PUSH0 SWAP1 DUP2 MSTORE PUSH1 0x20 DUP2 SWAP1 MSTORE PUSH1 0x40 SWAP1 KECCAK256 SLOAD PUSH1 0xFF AND SWAP1 JUMP JUMPDEST PUSH2 0xCC2 PUSH2 0xD78 JUMP JUMPDEST PUSH1 0x1 PUSH1 0x1 PUSH1 0xA0 SHL SUB DUP2 AND PUSH2 0xCEF JUMPI ORIGIN PUSH0 ADDRESS PUSH1 0x40 MLOAD PUSH4 0x36030219 PUSH1 0xE2 SHL DUP2 MSTORE PUSH1 0x4 ADD PUSH2 0x8D2 SWAP4 SWAP3 SWAP2 SWAP1 PUSH2 0x17A4 JUMP JUMPDEST PUSH2 0xC9A DUP2 PUSH1 0x1 PUSH2 0xE69 JUMP JUMPDEST PUSH1 0x60 PUSH1 0x5 DUP1 SLOAD PUSH2 0x7FF SWAP1 PUSH2 0x1630 JUMP JUMPDEST PUSH2 0xD11 PUSH2 0xD78 JUMP JUMPDEST PUSH1 0x4 PUSH2 0xD1D DUP4 DUP3 PUSH2 0x1812 JUMP JUMPDEST POP PUSH1 0x5 PUSH2 0xD2A DUP3 DUP3 PUSH2 0x1812 JUMP JUMPDEST POP POP POP JUMP JUMPDEST PUSH0 CALLER PUSH2 0x88D DUP2 DUP6 DUP6 PUSH2 0xE5E JUMP JUMPDEST PUSH1 0x1 PUSH1 0x1 PUSH1 0xA0 SHL SUB SWAP2 DUP3 AND PUSH0 SWAP1 DUP2 MSTORE PUSH1 0x2 PUSH1 0x20 SWAP1 DUP2 MSTORE PUSH1 0x40 DUP1 DUP4 KECCAK256 SWAP4 SWAP1 SWAP5 AND DUP3 MSTORE SWAP2 SWAP1 SWAP2 MSTORE KECCAK256 SLOAD SWAP1 JUMP JUMPDEST PUSH2 0xD6E PUSH2 0xD78 JUMP JUMPDEST PUSH2 0xD76 PUSH2 0xDB8 JUMP JUMPDEST JUMP JUMPDEST PUSH2 0xD81 CALLER PUSH2 0xC9D JUMP JUMPDEST ISZERO DUP1 ISZERO PUSH2 0xD94 JUMPI POP PUSH2 0xD92 ORIGIN PUSH2 0xC9D JUMP JUMPDEST ISZERO JUMPDEST ISZERO PUSH2 0xD76 JUMPI ORIGIN CALLER ADDRESS PUSH1 0x40 MLOAD PUSH4 0xBE6BAB5 PUSH1 0xE0 SHL DUP2 MSTORE PUSH1 0x4 ADD PUSH2 0x8D2 SWAP4 SWAP3 SWAP2 SWAP1 PUSH2 0x17A4 JUMP JUMPDEST PUSH2 0xDC4 PUSH1 0x12 PUSH1 0xA PUSH2 0x160B JUMP JUMPDEST PUSH1 0x7 SLOAD PUSH2 0xDD1 SWAP2 SWAP1 PUSH2 0x1619 JUMP JUMPDEST PUSH1 0x3 SLOAD LT ISZERO PUSH2 0xD76 JUMPI PUSH2 0xD76 ADDRESS PUSH2 0xDEA PUSH1 0x12 PUSH1 0xA PUSH2 0x160B JUMP JUMPDEST PUSH2 0xDF5 SWAP1 PUSH1 0x1 PUSH2 0x1619 JUMP JUMPDEST PUSH2 0xEBC JUMP JUMPDEST PUSH2 0xD2A DUP4 DUP4 DUP4 PUSH1 0x1 PUSH2 0xECB JUMP JUMPDEST PUSH0 PUSH2 0xE12 DUP5 DUP5 PUSH2 0xD3C JUMP JUMPDEST SWAP1 POP PUSH0 NOT DUP2 EQ PUSH2 0xE58 JUMPI DUP2 DUP2 LT ISZERO PUSH2 0xE4A JUMPI ORIGIN CALLER DUP6 DUP6 ADDRESS DUP6 DUP8 PUSH1 0x40 MLOAD PUSH3 0xB83D19 PUSH1 0xE2 SHL DUP2 MSTORE PUSH1 0x4 ADD PUSH2 0x8D2 SWAP8 SWAP7 SWAP6 SWAP5 SWAP4 SWAP3 SWAP2 SWAP1 PUSH2 0x18CC JUMP JUMPDEST PUSH2 0xE58 DUP5 DUP5 DUP5 DUP5 SUB PUSH0 PUSH2 0xECB JUMP JUMPDEST POP POP POP POP JUMP JUMPDEST PUSH2 0xD2A DUP4 DUP4 DUP4 PUSH2 0xF4B JUMP JUMPDEST PUSH1 0x1 PUSH1 0x1 PUSH1 0xA0 SHL SUB DUP3 AND PUSH0 DUP2 DUP2 MSTORE PUSH1 0x20 DUP2 SWAP1 MSTORE PUSH1 0x40 DUP1 DUP3 KECCAK256 DUP1 SLOAD PUSH1 0xFF NOT AND DUP6 ISZERO ISZERO SWAP1 DUP2 OR SWAP1 SWAP2 SSTORE SWAP1 MLOAD SWAP1 SWAP3 SWAP2 PUSH32 0x6BFA7E860C3E9BF67B810CB88276B19B27C972812BAC04793D369B59A1183A83 SWAP2 LOG3 POP POP JUMP JUMPDEST PUSH2 0xEC7 PUSH0 DUP4 DUP4 PUSH2 0xF4B JUMP JUMPDEST POP POP JUMP JUMPDEST PUSH1 0x1 PUSH1 0x1 PUSH1 0xA0 SHL SUB DUP1 DUP6 AND PUSH0 SWAP1 DUP2 MSTORE PUSH1 0x2 PUSH1 0x20 SWAP1 DUP2 MSTORE PUSH1 0x40 DUP1 DUP4 KECCAK256 SWAP4 DUP8 AND DUP4 MSTORE SWAP3 SWAP1 MSTORE KECCAK256 DUP3 SWAP1 SSTORE DUP1 ISZERO PUSH2 0xE58 JUMPI DUP3 PUSH1 0x1 PUSH1 0x1 PUSH1 0xA0 SHL SUB AND DUP5 PUSH1 0x1 PUSH1 0x1 PUSH1 0xA0 SHL SUB AND PUSH32 0x8C5BE1E5EBEC7D5BD14F71427D1E84F3DD0314C0F7B2291E5B200AC8C7C3B925 DUP5 PUSH1 0x40 MLOAD PUSH2 0xF3D SWAP2 DUP2 MSTORE PUSH1 0x20 ADD SWAP1 JUMP JUMPDEST PUSH1 0x40 MLOAD DUP1 SWAP2 SUB SWAP1 LOG3 POP POP POP POP JUMP JUMPDEST PUSH1 0x1 PUSH1 0x1 PUSH1 0xA0 SHL SUB DUP4 AND PUSH2 0xF75 JUMPI DUP1 PUSH1 0x3 PUSH0 DUP3 DUP3 SLOAD PUSH2 0xF6A SWAP2 SWAP1 PUSH2 0x190F JUMP JUMPDEST SWAP1 SWAP2 SSTORE POP PUSH2 0xFDA SWAP1 POP JUMP JUMPDEST PUSH1 0x1 PUSH1 0x1 PUSH1 0xA0 SHL SUB DUP4 AND PUSH0 SWAP1 DUP2 MSTORE PUSH1 0x1 PUSH1 0x20 MSTORE PUSH1 0x40 SWAP1 KECCAK256 SLOAD DUP2 DUP2 LT ISZERO PUSH2 0xFBC JUMPI ORIGIN CALLER DUP6 DUP6 ADDRESS DUP6 DUP8 PUSH1 0x40 MLOAD PUSH4 0xF7D0BBD PUSH1 0xE2 SHL DUP2 MSTORE PUSH1 0x4 ADD PUSH2 0x8D2 SWAP8 SWAP7 SWAP6 SWAP5 SWAP4 SWAP3 SWAP2 SWAP1 PUSH2 0x18CC JUMP JUMPDEST PUSH1 0x1 PUSH1 0x1 PUSH1 0xA0 SHL SUB DUP5 AND PUSH0 SWAP1 DUP2 MSTORE PUSH1 0x1 PUSH1 0x20 MSTORE PUSH1 0x40 SWAP1 KECCAK256 SWAP1 DUP3 SWAP1 SUB SWAP1 SSTORE JUMPDEST PUSH1 0x1 PUSH1 0x1 PUSH1 0xA0 SHL SUB DUP3 AND PUSH2 0xFF6 JUMPI PUSH1 0x3 DUP1 SLOAD DUP3 SWAP1 SUB SWAP1 SSTORE PUSH2 0x1014 JUMP JUMPDEST PUSH1 0x1 PUSH1 0x1 PUSH1 0xA0 SHL SUB DUP3 AND PUSH0 SWAP1 DUP2 MSTORE PUSH1 0x1 PUSH1 0x20 MSTORE PUSH1 0x40 SWAP1 KECCAK256 DUP1 SLOAD DUP3 ADD SWAP1 SSTORE JUMPDEST DUP2 PUSH1 0x1 PUSH1 0x1 PUSH1 0xA0 SHL SUB AND DUP4 PUSH1 0x1 PUSH1 0x1 PUSH1 0xA0 SHL SUB AND PUSH32 0xDDF252AD1BE2C89B69C2B068FC378DAA952BA7F163C4A11628F55A4DF523B3EF DUP4 PUSH1 0x40 MLOAD PUSH2 0x1059 SWAP2 DUP2 MSTORE PUSH1 0x20 ADD SWAP1 JUMP JUMPDEST PUSH1 0x40 MLOAD DUP1 SWAP2 SUB SWAP1 LOG3 POP POP POP JUMP JUMPDEST PUSH1 0x40 MLOAD DUP1 PUSH1 0x60 ADD PUSH1 0x40 MSTORE DUP1 PUSH1 0x3 SWAP1 PUSH1 0x20 DUP3 MUL DUP1 CALLDATASIZE DUP4 CALLDATACOPY POP SWAP2 SWAP3 SWAP2 POP POP JUMP JUMPDEST PUSH4 0x4E487B71 PUSH1 0xE0 SHL PUSH0 MSTORE PUSH1 0x41 PUSH1 0x4 MSTORE PUSH1 0x24 PUSH0 REVERT JUMPDEST PUSH1 0x40 MLOAD PUSH2 0x100 DUP2 ADD PUSH1 0x1 PUSH1 0x1 PUSH1 0x40 SHL SUB DUP2 GT DUP3 DUP3 LT OR ISZERO PUSH2 0x10BB JUMPI PUSH2 0x10BB PUSH2 0x1084 JUMP JUMPDEST PUSH1 0x40 MSTORE SWAP1 JUMP JUMPDEST PUSH1 0x40 MLOAD PUSH1 0x1F DUP3 ADD PUSH1 0x1F NOT AND DUP2 ADD PUSH1 0x1 PUSH1 0x1 PUSH1 0x40 SHL SUB DUP2 GT DUP3 DUP3 LT OR ISZERO PUSH2 0x10E9 JUMPI PUSH2 0x10E9 PUSH2 0x1084 JUMP JUMPDEST PUSH1 0x40 MSTORE SWAP2 SWAP1 POP JUMP JUMPDEST PUSH0 PUSH1 0x1 PUSH1 0x1 PUSH1 0x40 SHL SUB DUP3 GT ISZERO PUSH2 0x1109 JUMPI PUSH2 0x1109 PUSH2 0x1084 JUMP JUMPDEST POP PUSH1 0x1F ADD PUSH1 0x1F NOT AND PUSH1 0x20 ADD SWAP1 JUMP JUMPDEST PUSH0 DUP3 PUSH1 0x1F DUP4 ADD SLT PUSH2 0x1126 JUMPI PUSH0 PUSH0 REVERT JUMPDEST DUP2 CALLDATALOAD PUSH2 0x1139 PUSH2 0x1134 DUP3 PUSH2 0x10F1 JUMP JUMPDEST PUSH2 0x10C1 JUMP JUMPDEST DUP2 DUP2 MSTORE DUP5 PUSH1 0x20 DUP4 DUP7 ADD ADD GT ISZERO PUSH2 0x114D JUMPI PUSH0 PUSH0 REVERT JUMPDEST DUP2 PUSH1 0x20 DUP6 ADD PUSH1 0x20 DUP4 ADD CALLDATACOPY PUSH0 SWAP2 DUP2 ADD PUSH1 0x20 ADD SWAP2 SWAP1 SWAP2 MSTORE SWAP4 SWAP3 POP POP POP JUMP JUMPDEST PUSH0 PUSH0 PUSH1 0x40 DUP4 DUP6 SUB SLT ISZERO PUSH2 0x117A JUMPI PUSH0 PUSH0 REVERT JUMPDEST DUP3 CALLDATALOAD PUSH1 0x1 PUSH1 0x1 PUSH1 0x40 SHL SUB DUP2 GT ISZERO PUSH2 0x118F JUMPI PUSH0 PUSH0 REVERT JUMPDEST PUSH2 0x119B DUP6 DUP3 DUP7 ADD PUSH2 0x1117 JUMP JUMPDEST SWAP3 POP POP PUSH1 0x20 DUP4 ADD CALLDATALOAD PUSH1 0x1 PUSH1 0x1 PUSH1 0x40 SHL SUB DUP2 GT ISZERO PUSH2 0x11B6 JUMPI PUSH0 PUSH0 REVERT JUMPDEST PUSH2 0x11C2 DUP6 DUP3 DUP7 ADD PUSH2 0x1117 JUMP JUMPDEST SWAP2 POP POP SWAP3 POP SWAP3 SWAP1 POP JUMP JUMPDEST PUSH2 0x160 DUP2 ADD DUP2 DUP5 PUSH0 JUMPDEST PUSH1 0x3 DUP2 LT ISZERO PUSH2 0x11FD JUMPI DUP2 MLOAD PUSH1 0x1 PUSH1 0x1 PUSH1 0x40 SHL SUB AND DUP4 MSTORE PUSH1 0x20 SWAP3 DUP4 ADD SWAP3 SWAP1 SWAP2 ADD SWAP1 PUSH1 0x1 ADD PUSH2 0x11D5 JUMP JUMPDEST POP POP DUP4 MLOAD PUSH1 0x1 PUSH1 0x1 PUSH1 0xA0 SHL SUB SWAP1 DUP2 AND PUSH1 0x60 DUP6 DUP2 ADD SWAP2 SWAP1 SWAP2 MSTORE PUSH1 0x20 DUP7 ADD MLOAD SWAP1 SWAP2 AND PUSH1 0x80 DUP6 ADD MSTORE PUSH1 0x40 DUP6 ADD MLOAD PUSH1 0x1 PUSH1 0x1 PUSH1 0x40 SHL SUB AND PUSH1 0xA0 DUP6 ADD MSTORE DUP5 ADD MLOAD SWAP1 POP PUSH2 0x124F PUSH1 0xC0 DUP5 ADD DUP3 PUSH1 0x1 PUSH1 0x1 PUSH1 0x40 SHL SUB AND SWAP1 MSTORE JUMP JUMPDEST POP PUSH1 0x80 DUP4 ADD MLOAD PUSH1 0x1 PUSH1 0x1 PUSH1 0xA0 SHL SUB AND PUSH1 0xE0 DUP4 DUP2 ADD SWAP2 SWAP1 SWAP2 MSTORE PUSH1 0xA0 DUP5 ADD MLOAD PUSH1 0x1 PUSH1 0x1 PUSH1 0x40 SHL SUB SWAP1 DUP2 AND PUSH2 0x100 DUP6 ADD MSTORE PUSH1 0xC0 DUP6 ADD MLOAD DUP2 AND PUSH2 0x120 DUP6 ADD MSTORE SWAP4 ADD MLOAD SWAP1 SWAP3 AND PUSH2 0x140 SWAP1 SWAP2 ADD MSTORE SWAP2 SWAP1 POP JUMP JUMPDEST PUSH0 DUP2 MLOAD DUP1 DUP5 MSTORE DUP1 PUSH1 0x20 DUP5 ADD PUSH1 0x20 DUP7 ADD MCOPY PUSH0 PUSH1 0x20 DUP3 DUP7 ADD ADD MSTORE PUSH1 0x20 PUSH1 0x1F NOT PUSH1 0x1F DUP4 ADD AND DUP6 ADD ADD SWAP2 POP POP SWAP3 SWAP2 POP POP JUMP JUMPDEST PUSH1 0x20 DUP2 MSTORE PUSH0 PUSH2 0x12DC PUSH1 0x20 DUP4 ADD DUP5 PUSH2 0x129C JUMP JUMPDEST SWAP4 SWAP3 POP POP POP JUMP JUMPDEST PUSH1 0x1 PUSH1 0x1 PUSH1 0xA0 SHL SUB DUP2 AND DUP2 EQ PUSH2 0xC9A JUMPI PUSH0 PUSH0 REVERT JUMPDEST PUSH0 PUSH0 PUSH1 0x40 DUP4 DUP6 SUB SLT ISZERO PUSH2 0x1308 JUMPI PUSH0 PUSH0 REVERT JUMPDEST DUP3 CALLDATALOAD PUSH2 0x1313 DUP2 PUSH2 0x12E3 JUMP JUMPDEST SWAP5 PUSH1 0x20 SWAP4 SWAP1 SWAP4 ADD CALLDATALOAD SWAP4 POP POP POP JUMP JUMPDEST PUSH0 PUSH0 PUSH0 PUSH1 0x60 DUP5 DUP7 SUB SLT ISZERO PUSH2 0x1333 JUMPI PUSH0 PUSH0 REVERT JUMPDEST DUP4 CALLDATALOAD PUSH2 0x133E DUP2 PUSH2 0x12E3 JUMP JUMPDEST SWAP3 POP PUSH1 0x20 DUP5 ADD CALLDATALOAD PUSH2 0x134E DUP2 PUSH2 0x12E3 JUMP JUMPDEST SWAP3 SWAP6 SWAP3 SWAP5 POP POP POP PUSH1 0x40 SWAP2 SWAP1 SWAP2 ADD CALLDATALOAD SWAP1 JUMP JUMPDEST PUSH0 PUSH1 0x20 DUP3 DUP5 SUB SLT ISZERO PUSH2 0x136F JUMPI PUSH0 PUSH0 REVERT JUMPDEST DUP2 CALLDATALOAD PUSH2 0x12DC DUP2 PUSH2 0x12E3 JUMP JUMPDEST PUSH1 0x1 PUSH1 0x1 PUSH1 0xA0 SHL SUB SWAP2 SWAP1 SWAP2 AND DUP2 MSTORE PUSH1 0x20 ADD SWAP1 JUMP JUMPDEST PUSH0 PUSH0 PUSH1 0x40 DUP4 DUP6 SUB SLT ISZERO PUSH2 0x139F JUMPI PUSH0 PUSH0 REVERT JUMPDEST DUP3 CALLDATALOAD PUSH2 0x13AA DUP2 PUSH2 0x12E3 JUMP JUMPDEST SWAP2 POP PUSH1 0x20 DUP4 ADD CALLDATALOAD PUSH2 0x13BA DUP2 PUSH2 0x12E3 JUMP JUMPDEST DUP1 SWAP2 POP POP SWAP3 POP SWAP3 SWAP1 POP JUMP JUMPDEST DUP1 MLOAD PUSH1 0x1 PUSH1 0x1 PUSH1 0x40 SHL SUB DUP2 AND DUP2 EQ PUSH2 0x13DB JUMPI PUSH0 PUSH0 REVERT JUMPDEST SWAP2 SWAP1 POP JUMP JUMPDEST PUSH0 PUSH1 0x20 DUP3 DUP5 SUB SLT ISZERO PUSH2 0x13F0 JUMPI PUSH0 PUSH0 REVERT JUMPDEST PUSH2 0x12DC DUP3 PUSH2 0x13C5 JUMP JUMPDEST PUSH0 PUSH1 0x20 DUP3 DUP5 SUB SLT ISZERO PUSH2 0x1409 JUMPI PUSH0 PUSH0 REVERT JUMPDEST DUP2 MLOAD PUSH2 0x12DC DUP2 PUSH2 0x12E3 JUMP JUMPDEST PUSH1 0xA0 DUP2 MSTORE PUSH0 PUSH2 0x1426 PUSH1 0xA0 DUP4 ADD DUP9 PUSH2 0x129C JUMP JUMPDEST DUP3 DUP2 SUB PUSH1 0x20 DUP5 ADD MSTORE PUSH2 0x1438 DUP2 DUP9 PUSH2 0x129C JUMP JUMPDEST PUSH1 0x1 PUSH1 0x1 PUSH1 0x40 SHL SUB SWAP7 DUP8 AND PUSH1 0x40 DUP6 ADD MSTORE SWAP5 DUP7 AND PUSH1 0x60 DUP5 ADD MSTORE POP POP SWAP3 AND PUSH1 0x80 SWAP1 SWAP3 ADD SWAP2 SWAP1 SWAP2 MSTORE SWAP3 SWAP2 POP POP JUMP JUMPDEST DUP1 MLOAD PUSH2 0x13DB DUP2 PUSH2 0x12E3 JUMP JUMPDEST PUSH0 PUSH2 0x100 DUP3 DUP5 SUB SLT DUP1 ISZERO PUSH2 0x1480 JUMPI PUSH0 PUSH0 REVERT JUMPDEST POP PUSH2 0x1489 PUSH2 0x1098 JUMP JUMPDEST DUP3 MLOAD PUSH2 0x1494 DUP2 PUSH2 0x12E3 JUMP JUMPDEST DUP2 MSTORE PUSH2 0x14A2 PUSH1 0x20 DUP5 ADD PUSH2 0x1463 JUMP JUMPDEST PUSH1 0x20 DUP3 ADD MSTORE PUSH2 0x14B3 PUSH1 0x40 DUP5 ADD PUSH2 0x13C5 JUMP JUMPDEST PUSH1 0x40 DUP3 ADD MSTORE PUSH2 0x14C4 PUSH1 0x60 DUP5 ADD PUSH2 0x13C5 JUMP JUMPDEST PUSH1 0x60 DUP3 ADD MSTORE PUSH2 0x14D5 PUSH1 0x80 DUP5 ADD PUSH2 0x1463 JUMP JUMPDEST PUSH1 0x80 DUP3 ADD MSTORE PUSH2 0x14E6 PUSH1 0xA0 DUP5 ADD PUSH2 0x13C5 JUMP JUMPDEST PUSH1 0xA0 DUP3 ADD MSTORE PUSH2 0x14F7 PUSH1 0xC0 DUP5 ADD PUSH2 0x13C5 JUMP JUMPDEST PUSH1 0xC0 DUP3 ADD MSTORE PUSH2 0x1508 PUSH1 0xE0 DUP5 ADD PUSH2 0x13C5 JUMP JUMPDEST PUSH1 0xE0 DUP3 ADD MSTORE SWAP4 SWAP3 POP POP POP JUMP JUMPDEST PUSH4 0x4E487B71 PUSH1 0xE0 SHL PUSH0 MSTORE PUSH1 0x11 PUSH1 0x4 MSTORE PUSH1 0x24 PUSH0 REVERT JUMPDEST PUSH1 0x1 DUP2 JUMPDEST PUSH1 0x1 DUP5 GT ISZERO PUSH2 0x1563 JUMPI DUP1 DUP6 DIV DUP2 GT ISZERO PUSH2 0x1547 JUMPI PUSH2 0x1547 PUSH2 0x1514 JUMP JUMPDEST PUSH1 0x1 DUP5 AND ISZERO PUSH2 0x1555 JUMPI SWAP1 DUP2 MUL SWAP1 JUMPDEST PUSH1 0x1 SWAP4 SWAP1 SWAP4 SHR SWAP3 DUP1 MUL PUSH2 0x152C JUMP JUMPDEST SWAP4 POP SWAP4 SWAP2 POP POP JUMP JUMPDEST PUSH0 DUP3 PUSH2 0x1579 JUMPI POP PUSH1 0x1 PUSH2 0x893 JUMP JUMPDEST DUP2 PUSH2 0x1585 JUMPI POP PUSH0 PUSH2 0x893 JUMP JUMPDEST DUP2 PUSH1 0x1 DUP2 EQ PUSH2 0x159B JUMPI PUSH1 0x2 DUP2 EQ PUSH2 0x15A5 JUMPI PUSH2 0x15C1 JUMP JUMPDEST PUSH1 0x1 SWAP2 POP POP PUSH2 0x893 JUMP JUMPDEST PUSH1 0xFF DUP5 GT ISZERO PUSH2 0x15B6 JUMPI PUSH2 0x15B6 PUSH2 0x1514 JUMP JUMPDEST POP POP PUSH1 0x1 DUP3 SHL PUSH2 0x893 JUMP JUMPDEST POP PUSH1 0x20 DUP4 LT PUSH2 0x133 DUP4 LT AND PUSH1 0x4E DUP5 LT PUSH1 0xB DUP5 LT AND OR ISZERO PUSH2 0x15E4 JUMPI POP DUP2 DUP2 EXP PUSH2 0x893 JUMP JUMPDEST PUSH2 0x15F0 PUSH0 NOT DUP5 DUP5 PUSH2 0x1528 JUMP JUMPDEST DUP1 PUSH0 NOT DIV DUP3 GT ISZERO PUSH2 0x1603 JUMPI PUSH2 0x1603 PUSH2 0x1514 JUMP JUMPDEST MUL SWAP4 SWAP3 POP POP POP JUMP JUMPDEST PUSH0 PUSH2 0x12DC PUSH1 0xFF DUP5 AND DUP4 PUSH2 0x156B JUMP JUMPDEST DUP1 DUP3 MUL DUP2 ISZERO DUP3 DUP3 DIV DUP5 EQ OR PUSH2 0x893 JUMPI PUSH2 0x893 PUSH2 0x1514 JUMP JUMPDEST PUSH1 0x1 DUP2 DUP2 SHR SWAP1 DUP3 AND DUP1 PUSH2 0x1644 JUMPI PUSH1 0x7F DUP3 AND SWAP2 POP JUMPDEST PUSH1 0x20 DUP3 LT DUP2 SUB PUSH2 0x1662 JUMPI PUSH4 0x4E487B71 PUSH1 0xE0 SHL PUSH0 MSTORE PUSH1 0x22 PUSH1 0x4 MSTORE PUSH1 0x24 PUSH0 REVERT JUMPDEST POP SWAP2 SWAP1 POP JUMP JUMPDEST PUSH4 0x4E487B71 PUSH1 0xE0 SHL PUSH0 MSTORE PUSH1 0x12 PUSH1 0x4 MSTORE PUSH1 0x24 PUSH0 REVERT JUMPDEST PUSH0 DUP3 PUSH2 0x168A JUMPI PUSH2 0x168A PUSH2 0x1668 JUMP JUMPDEST POP DIV SWAP1 JUMP JUMPDEST PUSH1 0x1 PUSH1 0x1 PUSH1 0xA0 SHL SUB SWAP4 DUP5 AND DUP2 MSTORE SWAP2 SWAP1 SWAP3 AND PUSH1 0x20 DUP3 ADD MSTORE PUSH1 0x40 DUP2 ADD SWAP2 SWAP1 SWAP2 MSTORE PUSH1 0x60 ADD SWAP1 JUMP JUMPDEST PUSH0 PUSH1 0x20 DUP3 DUP5 SUB SLT ISZERO PUSH2 0x16C3 JUMPI PUSH0 PUSH0 REVERT JUMPDEST DUP2 MLOAD DUP1 ISZERO ISZERO DUP2 EQ PUSH2 0x12DC JUMPI PUSH0 PUSH0 REVERT JUMPDEST PUSH0 PUSH1 0x20 DUP3 DUP5 SUB SLT ISZERO PUSH2 0x16E2 JUMPI PUSH0 PUSH0 REVERT JUMPDEST DUP2 MLOAD PUSH1 0x1 PUSH1 0x1 PUSH1 0x40 SHL SUB DUP2 GT ISZERO PUSH2 0x16F7 JUMPI PUSH0 PUSH0 REVERT JUMPDEST DUP3 ADD PUSH1 0x1F DUP2 ADD DUP5 SGT PUSH2 0x1707 JUMPI PUSH0 PUSH0 REVERT JUMPDEST DUP1 MLOAD PUSH2 0x1715 PUSH2 0x1134 DUP3 PUSH2 0x10F1 JUMP JUMPDEST DUP2 DUP2 MSTORE DUP6 PUSH1 0x20 DUP4 DUP6 ADD ADD GT ISZERO PUSH2 0x1729 JUMPI PUSH0 PUSH0 REVERT JUMPDEST DUP2 PUSH1 0x20 DUP5 ADD PUSH1 0x20 DUP4 ADD MCOPY PUSH0 SWAP2 DUP2 ADD PUSH1 0x20 ADD SWAP2 SWAP1 SWAP2 MSTORE SWAP5 SWAP4 POP POP POP POP JUMP JUMPDEST PUSH14 0x2732B2B21020B8383937BB32B21 PUSH1 0x95 SHL DUP2 MSTORE PUSH0 DUP3 MLOAD DUP1 PUSH1 0x20 DUP6 ADD PUSH1 0xE DUP6 ADD MCOPY PUSH0 SWAP3 ADD PUSH1 0xE ADD SWAP2 DUP3 MSTORE POP SWAP2 SWAP1 POP JUMP JUMPDEST PUSH0 PUSH1 0x1 PUSH1 0x1 PUSH1 0xA0 SHL SUB DUP4 AND DUP1 PUSH2 0x178E JUMPI PUSH2 0x178E PUSH2 0x1668 JUMP JUMPDEST PUSH1 0x1 PUSH1 0x1 PUSH1 0xA0 SHL SUB SWAP3 SWAP1 SWAP3 AND SWAP2 SWAP1 SWAP2 MOD SWAP3 SWAP2 POP POP JUMP JUMPDEST PUSH1 0x1 PUSH1 0x1 PUSH1 0xA0 SHL SUB SWAP4 DUP5 AND DUP2 MSTORE SWAP2 DUP4 AND PUSH1 0x20 DUP4 ADD MSTORE SWAP1 SWAP2 AND PUSH1 0x40 DUP3 ADD MSTORE PUSH1 0x60 ADD SWAP1 JUMP JUMPDEST PUSH1 0x1F DUP3 GT ISZERO PUSH2 0xD2A JUMPI DUP1 PUSH0 MSTORE PUSH1 0x20 PUSH0 KECCAK256 PUSH1 0x1F DUP5 ADD PUSH1 0x5 SHR DUP2 ADD PUSH1 0x20 DUP6 LT ISZERO PUSH2 0x17EC JUMPI POP DUP1 JUMPDEST PUSH1 0x1F DUP5 ADD PUSH1 0x5 SHR DUP3 ADD SWAP2 POP JUMPDEST DUP2 DUP2 LT ISZERO PUSH2 0x180B JUMPI PUSH0 DUP2 SSTORE PUSH1 0x1 ADD PUSH2 0x17F8 JUMP JUMPDEST POP POP POP POP POP JUMP JUMPDEST DUP2 MLOAD PUSH1 0x1 PUSH1 0x1 PUSH1 0x40 SHL SUB DUP2 GT ISZERO PUSH2 0x182B JUMPI PUSH2 0x182B PUSH2 0x1084 JUMP JUMPDEST PUSH2 0x183F DUP2 PUSH2 0x1839 DUP5 SLOAD PUSH2 0x1630 JUMP JUMPDEST DUP5 PUSH2 0x17C7 JUMP JUMPDEST PUSH1 0x20 PUSH1 0x1F DUP3 GT PUSH1 0x1 DUP2 EQ PUSH2 0x1871 JUMPI PUSH0 DUP4 ISZERO PUSH2 0x185A JUMPI POP DUP5 DUP3 ADD MLOAD JUMPDEST PUSH0 NOT PUSH1 0x3 DUP6 SWAP1 SHL SHR NOT AND PUSH1 0x1 DUP5 SWAP1 SHL OR DUP5 SSTORE PUSH2 0x180B JUMP JUMPDEST PUSH0 DUP5 DUP2 MSTORE PUSH1 0x20 DUP2 KECCAK256 PUSH1 0x1F NOT DUP6 AND SWAP2 JUMPDEST DUP3 DUP2 LT ISZERO PUSH2 0x18A0 JUMPI DUP8 DUP6 ADD MLOAD DUP3 SSTORE PUSH1 0x20 SWAP5 DUP6 ADD SWAP5 PUSH1 0x1 SWAP1 SWAP3 ADD SWAP2 ADD PUSH2 0x1880 JUMP JUMPDEST POP DUP5 DUP3 LT ISZERO PUSH2 0x18BD JUMPI DUP7 DUP5 ADD MLOAD PUSH0 NOT PUSH1 0x3 DUP8 SWAP1 SHL PUSH1 0xF8 AND SHR NOT AND DUP2 SSTORE JUMPDEST POP POP POP POP PUSH1 0x1 SWAP1 DUP2 SHL ADD SWAP1 SSTORE POP JUMP JUMPDEST PUSH1 0x1 PUSH1 0x1 PUSH1 0xA0 SHL SUB SWAP8 DUP9 AND DUP2 MSTORE SWAP6 DUP8 AND PUSH1 0x20 DUP8 ADD MSTORE SWAP4 DUP7 AND PUSH1 0x40 DUP7 ADD MSTORE SWAP2 DUP6 AND PUSH1 0x60 DUP6 ADD MSTORE SWAP1 SWAP4 AND PUSH1 0x80 DUP4 ADD MSTORE PUSH1 0xA0 DUP3 ADD SWAP3 SWAP1 SWAP3 MSTORE PUSH1 0xC0 DUP2 ADD SWAP2 SWAP1 SWAP2 MSTORE PUSH1 0xE0 ADD SWAP1 JUMP JUMPDEST DUP1 DUP3 ADD DUP1 DUP3 GT ISZERO PUSH2 0x893 JUMPI PUSH2 0x893 PUSH2 0x1514 JUMP INVALID LOG2 PUSH5 0x6970667358 0x22 SLT KECCAK256 0x4C GAS 0xA5 0xA7 JUMPI DUP16 0xE6 0xE8 0xED PUSH2 0x14 PUSH6 0x38C18D8C652E CALLDATASIZE 0xB8 SMOD TIMESTAMP CALLVALUE CODECOPY CREATE2 0x4C 0xF6 MCOPY MUL PUSH30 0xDA64736F6C634300081B0033000000000000000000000000000000000000 "
				},
				"gasEstimates": {
					"creation": {
						"codeDepositCost": "1297600",
						"executionCost": "infinite",
						"totalCost": "infinite"
					},
					"external": {
						"Aura()": "396",
						"GetMarketRate(address)": "2595",
						"Miu(string,string)": "infinite",
						"MotzkinPrime()": "281",
						"Psi()": "2449",
						"Purchase(address,uint256)": "infinite",
						"Redeem(address,uint256)": "infinite",
						"Rename(string,string)": "infinite",
						"Type()": "infinite",
						"Xiao()": "2383",
						"addOwner(address)": "infinite",
						"allowance(address,address)": "infinite",
						"approve(address,uint256)": "24703",
						"balanceOf(address)": "2595",
						"decimals()": "265",
						"maxSupply()": "2382",
						"mintToCap()": "infinite",
						"name()": "infinite",
						"owner()": "346",
						"owner(address)": "2688",
						"renounceOwnership(address)": "infinite",
						"symbol()": "infinite",
						"totalSupply()": "2370",
						"transfer(address,uint256)": "51174",
						"transferFrom(address,address,uint256)": "infinite"
					},
					"internal": {
						"Augment()": "infinite"
					}
				},
				"methodIdentifiers": {
					"Aura()": "27bacc40",
					"GetMarketRate(address)": "2b83b1fc",
					"Miu(string,string)": "01d03071",
					"MotzkinPrime()": "d3dc2a0f",
					"Psi()": "76fade90",
					"Purchase(address,uint256)": "2499a533",
					"Redeem(address,uint256)": "222838db",
					"Rename(string,string)": "9dcbf7ea",
					"Type()": "ff762044",
					"Xiao()": "6fb7329c",
					"addOwner(address)": "7065cb48",
					"allowance(address,address)": "dd62ed3e",
					"approve(address,uint256)": "095ea7b3",
					"balanceOf(address)": "70a08231",
					"decimals()": "313ce567",
					"maxSupply()": "d5abeb01",
					"mintToCap()": "f4e6c93f",
					"name()": "06fdde03",
					"owner()": "8da5cb5b",
					"owner(address)": "666e1b39",
					"renounceOwnership(address)": "38bf3cfa",
					"symbol()": "95d89b41",
					"totalSupply()": "18160ddd",
					"transfer(address,uint256)": "a9059cbb",
					"transferFrom(address,address,uint256)": "23b872dd"
				}
			},
			"storageLayout": {
				"storage": [
					{
						"astId": 3209,
						"contract": "solidity/dysnomia/09_siu.sol:SIU",
						"label": "_owners",
						"offset": 0,
						"slot": "0",
						"type": "t_mapping(t_address,t_bool)"
					},
					{
						"astId": 671,
						"contract": "solidity/dysnomia/09_siu.sol:SIU",
						"label": "_balances",
						"offset": 0,
						"slot": "1",
						"type": "t_mapping(t_address,t_uint256)"
					},
					{
						"astId": 677,
						"contract": "solidity/dysnomia/09_siu.sol:SIU",
						"label": "_allowances",
						"offset": 0,
						"slot": "2",
						"type": "t_mapping(t_address,t_mapping(t_address,t_uint256))"
					},
					{
						"astId": 679,
						"contract": "solidity/dysnomia/09_siu.sol:SIU",
						"label": "_totalSupply",
						"offset": 0,
						"slot": "3",
						"type": "t_uint256"
					},
					{
						"astId": 681,
						"contract": "solidity/dysnomia/09_siu.sol:SIU",
						"label": "__name",
						"offset": 0,
						"slot": "4",
						"type": "t_string_storage"
					},
					{
						"astId": 683,
						"contract": "solidity/dysnomia/09_siu.sol:SIU",
						"label": "__symbol",
						"offset": 0,
						"slot": "5",
						"type": "t_string_storage"
					},
					{
						"astId": 689,
						"contract": "solidity/dysnomia/09_siu.sol:SIU",
						"label": "Xiao",
						"offset": 0,
						"slot": "6",
						"type": "t_contract(atropaMath)665"
					},
					{
						"astId": 691,
						"contract": "solidity/dysnomia/09_siu.sol:SIU",
						"label": "maxSupply",
						"offset": 0,
						"slot": "7",
						"type": "t_uint256"
					},
					{
						"astId": 695,
						"contract": "solidity/dysnomia/09_siu.sol:SIU",
						"label": "_marketRates",
						"offset": 0,
						"slot": "8",
						"type": "t_mapping(t_address,t_uint256)"
					},
					{
						"astId": 1657,
						"contract": "solidity/dysnomia/09_siu.sol:SIU",
						"label": "Psi",
						"offset": 0,
						"slot": "9",
						"type": "t_contract(YANG)3203"
					}
				],
				"types": {
					"t_address": {
						"encoding": "inplace",
						"label": "address",
						"numberOfBytes": "20"
					},
					"t_bool": {
						"encoding": "inplace",
						"label": "bool",
						"numberOfBytes": "1"
					},
					"t_contract(YANG)3203": {
						"encoding": "inplace",
						"label": "contract YANG",
						"numberOfBytes": "20"
					},
					"t_contract(atropaMath)665": {
						"encoding": "inplace",
						"label": "contract atropaMath",
						"numberOfBytes": "20"
					},
					"t_mapping(t_address,t_bool)": {
						"encoding": "mapping",
						"key": "t_address",
						"label": "mapping(address => bool)",
						"numberOfBytes": "32",
						"value": "t_bool"
					},
					"t_mapping(t_address,t_mapping(t_address,t_uint256))": {
						"encoding": "mapping",
						"key": "t_address",
						"label": "mapping(address => mapping(address => uint256))",
						"numberOfBytes": "32",
						"value": "t_mapping(t_address,t_uint256)"
					},
					"t_mapping(t_address,t_uint256)": {
						"encoding": "mapping",
						"key": "t_address",
						"label": "mapping(address => uint256)",
						"numberOfBytes": "32",
						"value": "t_uint256"
					},
					"t_string_storage": {
						"encoding": "bytes",
						"label": "string",
						"numberOfBytes": "32"
					},
					"t_uint256": {
						"encoding": "inplace",
						"label": "uint256",
						"numberOfBytes": "32"
					}
				}
			},
			"userdoc": {
				"kind": "user",
				"methods": {},
				"version": 1
			}
		}
	}
}