{
	"data": {
		"bytecode": {
			"linkReferences": {},
			"object": "608060405234801561000f575f5ffd5b506040516165e93803806165e983398101604081905261002e916104b0565b6040518060400160405280600881526020016721b430b6b834b7b760c11b815250604051806040016040528060038152602001624e594d60e81b815250826001600160a01b0316636fb7329c6040518163ffffffff1660e01b8152600401602060405180830381865afa1580156100a7573d5f5f3e3d5ffd5b505050506040513d601f19601f820116820180604052508101906100cb91906104b0565b33806100fd57604051633603021960e21b81523260048201525f60248201523060448201526064015b60405180910390fd5b61010881600161035b565b506004610115848261056a565b506005610122838261056a565b50600680546001600160a01b0319166001600160a01b0383169081179091556040805163604a6fa960e01b815290516201b207929163604a6fa991600480830192602092919082900301815f875af1158015610180573d5f5f3e3d5ffd5b505050506040513d601f19601f820116820180604052508101906101a49190610624565b6101ae919061064a565b6001600160401b03166007556102047324f0154c1dce548adf15da2098fdd8b8a3b8151d6101de6012600a61077d565b6101e990600161078b565b6001600160a01b039091165f90815260086020526040902055565b5050600980546001600160a01b0319166001600160a01b0384169081179091556040805163110c7ef160e21b81529051919250634431fbc491600480830192602092919082900301815f875af1158015610260573d5f5f3e3d5ffd5b505050506040513d601f19601f8201168201806040525081019061028491906107a2565b600a55600954604051630e0cb96960e31b81523060048201526001600160a01b0390911690637065cb48906024015f604051808303815f87803b1580156102c9575f5ffd5b505af11580156102db573d5f5f3e3d5ffd5b5050679a3298afb5ac71c760075550506010805460ff19169055600b80546001600160501b03191690556014805461ffff1916606417905561031d600a6103ae565b61032760056103d4565b61033160066103fc565b6103556040518061032001604052806102e881526020016163016102e89139610425565b506107b9565b6001600160a01b0382165f81815260208190526040808220805460ff191685151590811790915590519092917f6bfa7e860c3e9bf67b810cb88276b19b27c972812bac04793d369b59a1183a8391a35050565b6103b661043d565b6014805460ff909216620100000262ff000019909216919091179055565b6103dc61043d565b6014805460ff90921663010000000263ff00000019909216919091179055565b61040461043d565b6014805460ff9092166401000000000260ff60201b19909216919091179055565b61042d61043d565b6012610439828261056a565b5050565b335f9081526020819052604090205460ff1615801561046b5750325f9081526020819052604090205460ff16155b1561049757604051630be6bab560e01b81523260048201523360248201523060448201526064016100f4565b565b6001600160a01b03811681146104ad575f5ffd5b50565b5f602082840312156104c0575f5ffd5b81516104cb81610499565b9392505050565b634e487b7160e01b5f52604160045260245ffd5b600181811c908216806104fa57607f821691505b60208210810361051857634e487b7160e01b5f52602260045260245ffd5b50919050565b601f82111561056557805f5260205f20601f840160051c810160208510156105435750805b601f840160051c820191505b81811015610562575f815560010161054f565b50505b505050565b81516001600160401b03811115610583576105836104d2565b6105978161059184546104e6565b8461051e565b6020601f8211600181146105c9575f83156105b25750848201515b5f19600385901b1c1916600184901b178455610562565b5f84815260208120601f198516915b828110156105f857878501518255602094850194600190920191016105d8565b508482101561061557868401515f19600387901b60f8161c191681555b50505050600190811b01905550565b5f60208284031215610634575f5ffd5b81516001600160401b03811681146104cb575f5ffd5b5f6001600160401b0383168061066e57634e487b7160e01b5f52601260045260245ffd5b6001600160401b03929092169190910692915050565b634e487b7160e01b5f52601160045260245ffd5b6001815b60018411156106d3578085048111156106b7576106b7610684565b60018416156106c557908102905b60019390931c92800261069c565b935093915050565b5f826106e957506001610777565b816106f557505f610777565b816001811461070b576002811461071557610731565b6001915050610777565b60ff84111561072657610726610684565b50506001821b610777565b5060208310610133831016604e8410600b8410161715610754575081810a610777565b6107605f198484610698565b805f190482111561077357610773610684565b0290505b92915050565b5f6104cb60ff8416836106db565b808202811582820484141761077757610777610684565b5f602082840312156107b2575f5ffd5b5051919050565b615b3b806107c65f395ff3fe608060405234801561000f575f5ffd5b5060043610610281575f3560e01c80636fb7329c11610156578063a6f22f25116100ca578063c9b0a2a711610084578063c9b0a2a7146105dd578063d3dc2a0f146105ea578063d5abeb01146105f8578063dd62ed3e14610601578063f4e6c93f14610614578063ff7620441461061c575f5ffd5b8063a6f22f2514610556578063a9059cbb14610569578063ab7dca681461057c578063ac8f5ead1461058f578063b3ca7a7a14610597578063b46c0ac3146105aa575f5ffd5b80638da5cb5b1161011b5780638da5cb5b1461050657806395d89b411461050c5780639dcbf7ea146105145780639f7051f514610527578063a138da0b1461053a578063a2a90d9014610543575f5ffd5b80636fb7329c146104855780637065cb481461049857806370a08231146104ab5780637ac5d8a9146104d35780638191745f146104fe575f5ffd5b806323b872dd116101f85780633f94f078116101b25780633f94f078146104025780635314a0f11461040a5780635dd0e4151461042a578063666e1b391461043f5780636872fc3c146104525780636f55e4fc14610472575f5ffd5b806323b872dd146103795780632499a5331461038c5780632ab1e6e91461039f5780632b83b1fc146103b2578063313ce567146103da57806338bf3cfa146103ef575f5ffd5b806318160ddd1161024957806318160ddd1461030457806318f02342146103165780631b55ba3a1461032b57806321516fc414610333578063222838db14610346578063222e507114610359575f5ffd5b806305e29bf31461028557806306fdde03146102a35780630764c80c146102ab578063095ea7b3146102c057806311cfd2b2146102e3575b5f5ffd5b61028d610647565b60405161029a9190614a04565b60405180910390f35b61028d6106d3565b6102be6102b9366004614a31565b610763565b005b6102d36102ce366004614a4c565b610cde565b604051901515815260200161029a565b6014546102f19061ffff1681565b60405161ffff909116815260200161029a565b6003545b60405190815260200161029a565b600b546102f190600160401b900461ffff1681565b6102be610cf7565b6102be610341366004614b7d565b610f4b565b6102be610354366004614a4c565b611582565b61036c610367366004614bca565b61177b565b60405161029a9190614cdc565b6102d3610387366004614cee565b6118ea565b6102be61039a366004614a4c565b61190d565b6102be6103ad366004614bca565b611ac0565b6103086103c0366004614a31565b6001600160a01b03165f9081526008602052604090205490565b60125b60405160ff909116815260200161029a565b6102be6103fd366004614a31565b611eec565b600e54610308565b61041d610418366004614d2c565b611f01565b60405161029a9190614d4d565b6014546103dd90640100000000900460ff1681565b6102d361044d366004614a31565b61211c565b600954610465906001600160a01b031681565b60405161029a9190614d9c565b6102be610480366004614b7d565b612139565b600654610465906001600160a01b031681565b6102be6104a6366004614a31565b612289565b6103086104b9366004614a31565b6001600160a01b03165f9081526001602052604090205490565b600b546104e6906001600160401b031681565b6040516001600160401b03909116815260200161029a565b61028d6122c9565b30610465565b61028d6122d6565b6102be610522366004614db0565b6122e5565b6102be610535366004614e13565b61230b565b610308600a5481565b6102be610551366004614e13565b612331565b6102be610564366004614e13565b61235b565b6102d3610577366004614a4c565b612383565b6102be61058a366004614b7d565b612390565b6102be6123a4565b6102be6105a5366004614d2c565b61243b565b6105bd6105b8366004614e33565b6128ba565b604080516001600160401b0393841681529290911660208301520161029a565b6010546102d39060ff1681565b6104e66603632c8eb5af3b81565b61030860075481565b61030861060f366004614e6a565b612cd5565b6102be612cff565b61028d6040518060400160405280600c81526020016b4163726f6e796d2047616d6560a01b81525081565b6011805461065490614e96565b80601f016020809104026020016040519081016040528092919081815260200182805461068090614e96565b80156106cb5780601f106106a2576101008083540402835291602001916106cb565b820191905f5260205f20905b8154815290600101906020018083116106ae57829003601f168201915b505050505081565b6060600480546106e290614e96565b80601f016020809104026020016040519081016040528092919081815260200182805461070e90614e96565b80156107595780601f1061073057610100808354040283529160200191610759565b820191905f5260205f20905b81548152906001019060200180831161073c57829003601f168201915b5050505050905090565b600954604051631bd173a960e11b81525f916001600160a01b0316906337a2e75290610793908590600401614d9c565b5f604051808303815f875af11580156107ae573d5f5f3e3d5ffd5b505050506040513d5f823e601f3d908101601f191682016040526107d59190810190614fdd565b80516001600160401b039081165f818152600f60205260409020549293509116036107fe575050565b8051600e80546001810182555f9182527fbb7b4a454dc3493923482f07822329ed19e8244eff582cc204f8554c3620c3fd6004820401805460039092166008026101000a6001600160401b03818102199093169483160293909317909255600b54835183168252600d60205260409182902080546affffffffffffffff0000001916919093166301000000021790915581518183015191517fc02cee0c9a21c735c27f92d6af5fe1aae726d5df0ef83396fc3fb15dfaffe1c4926108c29291615086565b60405180910390a1805160095460408051633d3db08b60e21b81529051610a2293926001600160a01b03169163f4f6c22c9160048083019260209291908290030181865afa158015610916573d5f5f3e3d5ffd5b505050506040513d601f19601f8201168201806040525081019061093a91906150a7565b6001600160a01b0316639ff430016040518163ffffffff1660e01b81526004016020604051808303815f875af1158015610976573d5f5f3e3d5ffd5b505050506040513d601f19601f8201168201806040525081019061099a91906150a7565b6001600160a01b03166327bacc406040518163ffffffff1660e01b8152600401602060405180830381865afa1580156109d5573d5f5f3e3d5ffd5b505050506040513d601f19601f820116820180604052508101906109f991906150c2565b8360400151604051602001610a0e91906150f4565b604051602081830303815290604052612d0f565b80516001600160401b039081165f908152600f6020908152604091829020845181546001600160401b0319169085161781558185015180516001830180546001600160a01b0319166001600160a01b0392831617905592810151600283018054838701519286166001600160e01b031991821617600160a01b9389169390930292909217905560608201516003840180546080850151928916931692909217600160401b91909516810294909417905560a081015160048301805460c084015160e0909401519288166001600160801b0319909116179287169094029190911767ffffffffffffffff60801b1916600160801b91909516029390931790558201518291906005820190610b359082615166565b5060609190910151600690910180546001600160401b0319166001600160401b03909216919091179055805160095460408051633d3db08b60e21b81529051610c8e93926001600160a01b03169163f4f6c22c9160048083019260209291908290030181865afa158015610bab573d5f5f3e3d5ffd5b505050506040513d601f19601f82011682018060405250810190610bcf91906150a7565b6001600160a01b0316639ff430016040518163ffffffff1660e01b81526004016020604051808303815f875af1158015610c0b573d5f5f3e3d5ffd5b505050506040513d601f19601f82011682018060405250810190610c2f91906150a7565b6001600160a01b03166327bacc406040518163ffffffff1660e01b8152600401602060405180830381865afa158015610c6a573d5f5f3e3d5ffd5b505050506040513d601f19601f820116820180604052508101906105b891906150c2565b60208301516001600160401b0391821660e0820152911660c09091015260105460ff16158015610ccd5750601454600e54630100000090910460ff1611155b15610cda57610cda612d53565b5050565b5f33610ceb81858561311e565b60019150505b92915050565b610cff61312b565b60105460ff16158015610d135750600e5415155b15610f4957600954604080516370f6b73960e11b815290515f926001600160a01b03169163e1ed6e729160048083019260209291908290030181865afa158015610d5f573d5f5f3e3d5ffd5b505050506040513d601f19601f82011682018060405250810190610d8391906150c2565b6001600160401b038082165f908152600f6020908152604080832081516080808201845282548716825283516101008101855260018401546001600160a01b039081168252600285015480821683890152600160a01b90048916828701526003850154808a166060840152600160401b9081900490911692820192909252600484015480891660a0830152918204881660c0820152600160801b90910490961660e087015292830194909452600584018054959650929491939290840191610e4a90614e96565b80601f0160208091040260200160405190810160405280929190818152602001828054610e7690614e96565b8015610ec15780601f10610e9857610100808354040283529160200191610ec1565b820191905f5260205f20905b815481529060010190602001808311610ea457829003601f168201915b5050509183525050600691909101546001600160401b03908116602092830152825181165f908152600f9092526040822054929350919091169003610f2c57805160405163a27710c160e01b81526001600160401b0390911660048201526024015b60405180910390fd5b610f34612d53565b6010805460ff19166001179055610cda61316b565b565b600954604080516370f6b73960e11b815290515f926001600160a01b03169163e1ed6e729160048083019260209291908290030181865afa158015610f92573d5f5f3e3d5ffd5b505050506040513d601f19601f82011682018060405250810190610fb691906150c2565b905060095f9054906101000a90046001600160a01b03166001600160a01b031663471226236040518163ffffffff1660e01b8152600401602060405180830381865afa158015611008573d5f5f3e3d5ffd5b505050506040513d601f19601f8201168201806040525081019061102c91906150a7565b6001600160a01b03166301158b0c6011846040518363ffffffff1660e01b815260040161105a92919061529f565b602060405180830381865afa158015611075573d5f5f3e3d5ffd5b505050506040513d601f19601f8201168201806040525081019061109991906152c3565b156111ff576001600160401b038082165f908152600f602090815260409182902082516080808201855282548616825284516101008101865260018401546001600160a01b039081168252600285015480821683880152600160a01b900488168288015260038501548089166060840152600160401b9081900490911692820192909252600484015480881660a0830152918204871660c0820152600160801b90910490951660e086015291820193909352600583018054610cda9492938401919061116490614e96565b80601f016020809104026020016040519081016040528092919081815260200182805461119090614e96565b80156111db5780601f106111b2576101008083540402835291602001916111db565b820191905f5260205f20905b8154815290600101906020018083116111be57829003601f168201915b5050509183525050600691909101546001600160401b0316602090910152836132f2565b6113638160095f9054906101000a90046001600160a01b03166001600160a01b031663f4f6c22c6040518163ffffffff1660e01b8152600401602060405180830381865afa158015611253573d5f5f3e3d5ffd5b505050506040513d601f19601f8201168201806040525081019061127791906150a7565b6001600160a01b0316639ff430016040518163ffffffff1660e01b81526004016020604051808303815f875af11580156112b3573d5f5f3e3d5ffd5b505050506040513d601f19601f820116820180604052508101906112d791906150a7565b6001600160a01b03166327bacc406040518163ffffffff1660e01b8152600401602060405180830381865afa158015611312573d5f5f3e3d5ffd5b505050506040513d601f19601f8201168201806040525081019061133691906150c2565b6001600160401b0384165f908152600f60209081526040918290209151610a0e926005019188910161534d565b60095f9054906101000a90046001600160a01b03166001600160a01b031663929c6ca96040518163ffffffff1660e01b8152600401602060405180830381865afa1580156113b3573d5f5f3e3d5ffd5b505050506040513d601f19601f820116820180604052508101906113d791906150a7565b6001600160401b0382165f908152600f602052604090819020905163766b44f560e11b81526001600160a01b03929092169163ecd689ea9161141b91600401615377565b60408051808303815f875af1158015611436573d5f5f3e3d5ffd5b505050506040513d601f19601f8201168201806040525081019061145a9190615477565b6001600160401b038381165f908152600f60205260409081902060049081018054600160401b600160c01b031916600160801b9585168602600160401b600160801b03191617600160401b9685169690960295909517948590556009549151633b8052c960e01b815293909404909116928201929092526001600160a01b0390911690633b8052c99060240160408051808303815f875af1158015611501573d5f5f3e3d5ffd5b505050506040513d601f19601f820116820180604052508101906115259190615477565b6001600160401b038084165f908152600f602052604090206004018054938216600160401b02600160401b600160801b031993909216600160801b0292909216600160401b600160c01b0319909316929092179190911790555050565b6001600160a01b0382165f9081526008602052604081205490036115bb57816040516390b2344160e01b8152600401610f239190614d9c565b815f6115c96012600a61559b565b6001600160a01b0385165f908152600860205260409020546115eb90856155a9565b6115f591906155d4565b6040516323b872dd60e01b81529091505f9030906323b872dd90611621903390849089906004016155e7565b6020604051808303815f875af115801561163d573d5f5f3e3d5ffd5b505050506040513d601f19601f8201168201806040525081019061166191906152c3565b905080306001600160a01b03166306fdde036040518163ffffffff1660e01b81526004015f60405180830381865afa15801561169f573d5f5f3e3d5ffd5b505050506040513d5f823e601f3d908101601f191682016040526116c6919081019061560b565b6040516020016116d6919061563c565b604051602081830303815290604052906117035760405162461bcd60e51b8152600401610f239190614a04565b5060405163a9059cbb60e01b8152336004820152602481018390526001600160a01b0384169063a9059cbb906044015b6020604051808303815f875af115801561174f573d5f5f3e3d5ffd5b505050506040513d601f19601f8201168201806040525081019061177391906152c3565b505050505050565b611783614901565b61178b61312b565b6001600160401b038083165f908152600f602090815260409182902082516080808201855282548616825284516101008101865260018401546001600160a01b039081168252600285015480821683880152600160a01b900488168288015260038501548089166060840152600160401b9081900490911692820192909252600484015480881660a0830152918204871660c0820152600160801b90910490951660e08601529182019390935260058301805491939284019161184d90614e96565b80601f016020809104026020016040519081016040528092919081815260200182805461187990614e96565b80156118c45780601f1061189b576101008083540402835291602001916118c4565b820191905f5260205f20905b8154815290600101906020018083116118a757829003601f168201915b5050509183525050600691909101546001600160401b031660209091015290505b919050565b5f336118f7858285613c4d565b611902858585613c9e565b506001949350505050565b6001600160a01b0382165f90815260086020526040812054900361194657816040516390b2344160e01b8152600401610f239190614d9c565b815f6119546012600a61559b565b6001600160a01b0385165f9081526008602052604090205461197690856155a9565b61198091906155d4565b90505f826001600160a01b03166323b872dd3330856040518463ffffffff1660e01b81526004016119b3939291906155e7565b6020604051808303815f875af11580156119cf573d5f5f3e3d5ffd5b505050506040513d601f19601f820116820180604052508101906119f391906152c3565b905080836001600160a01b03166306fdde036040518163ffffffff1660e01b81526004015f60405180830381865afa158015611a31573d5f5f3e3d5ffd5b505050506040513d5f823e601f3d908101601f19168201604052611a58919081019061560b565b604051602001611a68919061563c565b60405160208183030381529060405290611a955760405162461bcd60e51b8152600401610f239190614a04565b5060405163a9059cbb60e01b815233600482015260248101859052309063a9059cbb90604401611733565b611ac861312b565b600954604080516370f6b73960e11b815290515f926001600160a01b03169163e1ed6e729160048083019260209291908290030181865afa158015611b0f573d5f5f3e3d5ffd5b505050506040513d601f19601f82011682018060405250810190611b3391906150c2565b6001600160401b038082165f908152600f6020908152604080832081516080808201845282548716825283516101008101855260018401546001600160a01b039081168252600285015480821683890152600160a01b90048916828701526003850154808a166060840152600160401b9081900490911692820192909252600484015480891660a0830152918204881660c0820152600160801b90910490961660e087015292830194909452600584018054959650929491939290840191611bfa90614e96565b80601f0160208091040260200160405190810160405280929190818152602001828054611c2690614e96565b8015611c715780601f10611c4857610100808354040283529160200191611c71565b820191905f5260205f20905b815481529060010190602001808311611c5457829003601f168201915b5050509183525050600691909101546001600160401b031660209091015290505f5b600e5461ffff82161015611ee657836001600160401b0316600e8261ffff1681548110611cc257611cc261565e565b5f918252602090912060048204015460039091166008026101000a90046001600160401b031603611ed4577f7688e5a7a1460b2ae19a7fdb53db3716e19f47bb00d43e9b9ee716454b814934825f01518360400151600e8461ffff1681548110611d2e57611d2e61565e565b905f5260205f2090600491828204019190066008029054906101000a90046001600160401b0316600f5f600e8761ffff1681548110611d6f57611d6f61565e565b905f5260205f2090600491828204019190066008029054906101000a90046001600160401b03166001600160401b03166001600160401b031681526020019081526020015f20600501604051611dc89493929190615672565b60405180910390a1611e8e600e8261ffff1681548110611dea57611dea61565e565b905f5260205f2090600491828204019190066008029054906101000a90046001600160401b0316835f01518460400151600f5f600e8761ffff1681548110611e3457611e3461565e565b905f5260205f2090600491828204019190066008029054906101000a90046001600160401b03166001600160401b03166001600160401b031681526020019081526020015f20600501604051602001610a0e9291906156bf565b611ed4600e8261ffff1681548110611ea857611ea861565e565b905f5260205f2090600491828204019190066008029054906101000a90046001600160401b0316613ca9565b80611ede816156ed565b915050611c93565b50505050565b611ef461312b565b611efe815f613f17565b50565b611f09614962565b61ffff8083165f908152600c6020908152604091829020825160608082018552825490951681528351608080820186526001840180546001600160401b03908116845287516101008101895260028701546001600160a01b0390811682526003880154808216838b0152600160a01b90048316828b015260048801548084169b83019b909b52600160401b9a8b90041693810193909352600586015480821660a0850152988904811660c0840152600160801b90980490971660e082015281850152600683018054929693959487019491939291840191611fe990614e96565b80601f016020809104026020016040519081016040528092919081815260200182805461201590614e96565b80156120605780601f1061203757610100808354040283529160200191612060565b820191905f5260205f20905b81548152906001019060200180831161204357829003601f168201915b5050509183525050600691909101546001600160401b0316602091820152908252600883018054929091019161209590614e96565b80601f01602080910402602001604051908101604052809291908181526020018280546120c190614e96565b801561210c5780601f106120e35761010080835404028352916020019161210c565b820191905f5260205f20905b8154815290600101906020018083116120ef57829003601f168201915b5050505050815250509050919050565b6001600160a01b03165f9081526020819052604090205460ff1690565b61214161312b565b611efe5f60095f9054906101000a90046001600160a01b03166001600160a01b031663f4f6c22c6040518163ffffffff1660e01b8152600401602060405180830381865afa158015612195573d5f5f3e3d5ffd5b505050506040513d601f19601f820116820180604052508101906121b991906150a7565b6001600160a01b0316639ff430016040518163ffffffff1660e01b81526004016020604051808303815f875af11580156121f5573d5f5f3e3d5ffd5b505050506040513d601f19601f8201168201806040525081019061221991906150a7565b6001600160a01b03166327bacc406040518163ffffffff1660e01b8152600401602060405180830381865afa158015612254573d5f5f3e3d5ffd5b505050506040513d601f19601f8201168201806040525081019061227891906150c2565b83604051602001610a0e919061570d565b61229161312b565b6001600160a01b0381166122be57325f30604051633603021960e21b8152600401610f2393929190615718565b611efe816001613f17565b6012805461065490614e96565b6060600580546106e290614e96565b6122ed61312b565b60046122f98382615166565b5060056123068282615166565b505050565b61231361312b565b6014805460ff909216620100000262ff000019909216919091179055565b61233961312b565b6014805460ff9092166401000000000264ff0000000019909216919091179055565b61236361312b565b6014805460ff90921663010000000263ff00000019909216919091179055565b5f33610ceb818585613c9e565b61239861312b565b6012610cda8282615166565b600954604080516370f6b73960e11b815290515f926001600160a01b03169163e1ed6e729160048083019260209291908290030181865afa1580156123eb573d5f5f3e3d5ffd5b505050506040513d601f19601f8201168201806040525081019061240f91906150c2565b6001600160401b038082165f818152600f6020526040902054929350911603611efe57611efe81613ca9565b600954604080516370f6b73960e11b815290515f926001600160a01b03169163e1ed6e729160048083019260209291908290030181865afa158015612482573d5f5f3e3d5ffd5b505050506040513d601f19601f820116820180604052508101906124a691906150c2565b90505f8261ffff161180156124cc5750600b5461ffff600160401b909104811690831611155b6124d8576124d861573b565b600b546001600160401b038281165f908152600d60205260409020549181166301000000909204161161255f576001600160401b0381165f908152600d60209081526040808320805462ff000019169055600f90915290206001015461255f906001600160a01b031660125b61254f90600a61559b565b61255a9060016155a9565b613f6a565b6001600160401b038082165f908152600d60209081526040808320805461ffff881661ffff19821681178355600b546301000000908816026affffffffffffffff00ffff199092168117919091179091558352600c9091529020600101546125c89116826128ba565b61ffff84165f908152600c6020526040908190206005018054600160401b600160c01b031916600160801b6001600160401b039485168102600160401b600160801b03191691909117600160401b9585169590950294909417908190556009549151633b8052c960e01b815293900490911660048301526001600160a01b031690633b8052c99060240160408051808303815f875af115801561266d573d5f5f3e3d5ffd5b505050506040513d601f19601f820116820180604052508101906126919190615477565b61ffff84165f908152600c602052604090819020600581018054600160401b600160c01b031916600160801b6001600160401b0395861602600160401b600160801b03191617600160401b95851695909502949094179093556009546001909301549051630eedf25f60e41b81528483166004820152911660248201526001600160a01b039091169063eedf25f09060440160408051808303815f875af115801561273e573d5f5f3e3d5ffd5b505050506040513d601f19601f820116820180604052508101906127629190615477565b6001600160401b038381165f908152600f60205260409081902060049081018054600160401b600160c01b031916600160801b95851695909502600160401b600160801b03191694909417600160401b958416860217938490556009549151633b8052c960e01b815294909304909116918301919091526001600160a01b031690633b8052c99060240160408051808303815f875af1158015612807573d5f5f3e3d5ffd5b505050506040513d601f19601f8201168201806040525081019061282b9190615477565b6001600160401b038084165f908152600f602052604090206004018054938216600160401b02600160401b600160801b031993909216600160801b0292909216600160401b600160c01b03199093169290921791909117905560145461289c9060ff6201000090910416603c61574f565b60ff166013546128ac9190615772565b4210610cda57610cda613f75565b6001600160401b038083165f908152600f602052604081205490918291168103612914576001600160401b038481165f908152600f60205260409081902054905163a27710c160e01b815291166004820152602401610f23565b60095f9054906101000a90046001600160a01b03166001600160a01b031663929c6ca96040518163ffffffff1660e01b8152600401602060405180830381865afa158015612964573d5f5f3e3d5ffd5b505050506040513d601f19601f8201168201806040525081019061298891906150a7565b6001600160a01b031663679b953860095f9054906101000a90046001600160a01b03166001600160a01b031663c0ff53286040518163ffffffff1660e01b8152600401602060405180830381865afa1580156129e6573d5f5f3e3d5ffd5b505050506040513d601f19601f82011682018060405250810190612a0a91906150a7565b6001600160401b038088165f908152600f60205260409081902060049081015491516001600160e01b031960e087901b168152612a569493600160401b90930490921689189101615785565b60408051808303815f875af1158015612a71573d5f5f3e3d5ffd5b505050506040513d601f19601f82011682018060405250810190612a959190615477565b6001600160401b038087165f908152600f602090815260409182902060049081018054968516600160401b02600160401b600160801b031996909516600160801b0295909516600160401b600160c01b03199096169590951792909217909255600954825163929c6ca960e01b815292516001600160a01b039091169363929c6ca993808201939291908290030181865afa158015612b36573d5f5f3e3d5ffd5b505050506040513d601f19601f82011682018060405250810190612b5a91906150a7565b6001600160a01b031663679b953860095f9054906101000a90046001600160a01b03166001600160a01b031663c0ff53286040518163ffffffff1660e01b8152600401602060405180830381865afa158015612bb8573d5f5f3e3d5ffd5b505050506040513d601f19601f82011682018060405250810190612bdc91906150a7565b6001600160401b038088165f908152600f60209081526040918290206004908101546009548451630e61c05d60e31b81529451600160801b909204909516946001600160a01b03169363730e02e893818401939092918290030181865afa158015612c49573d5f5f3e3d5ffd5b505050506040513d601f19601f82011682018060405250810190612c6d91906150c2565b186040518363ffffffff1660e01b8152600401612c8b929190615785565b60408051808303815f875af1158015612ca6573d5f5f3e3d5ffd5b505050506040513d601f19601f82011682018060405250810190612cca9190615477565b915091509250929050565b6001600160a01b039182165f90815260026020908152604080832093909416825291909152205490565b612d0761312b565b610f49614739565b7f7e614620a5d3dbe1eeff25f7edf8d9e7d287833597a645caaf7f6434d92cc3f7600a54848484604051612d4694939291906157a7565b60405180910390a1505050565b60015b600b5461ffff600160401b909104811690821611612e245761ffff81165f908152600c60205260408120805461ffff191681556001810180546001600160401b03191681556002820180546001600160a01b03191690556003820180546001600160e01b031990811690915560048301805490911690556005820180546001600160c01b031916905590919081612df0600685018261498c565b5060060180546001600160401b0319169055612e0f600883015f61498c565b50508080612e1c906156ed565b915050612d56565b50600b805461ffff60401b191690555f5b600e5461ffff821610156130e657600d5f600e8361ffff1681548110612e5d57612e5d61565e565b5f91825260208083206004830401546001600160401b0360086003909416939093026101000a90048216845283019390935260409091019020546301000000900416156130d457600b54600e80546001600160401b0390921691600d915f9161ffff8616908110612ed057612ed061565e565b5f91825260208083206004830401546001600160401b0360086003909416939093026101000a9004821684528301939093526040909101902054612f1e9163010000009091041660026157e7565b6001600160401b031610156130d4577f2abea071c4ef41314ed5fb00829223365387890723054ff858d1f3c0faa1e37a600e8261ffff1681548110612f6557612f6561565e565b905f5260205f2090600491828204019190066008029054906101000a90046001600160401b0316600f5f600e8561ffff1681548110612fa657612fa661565e565b905f5260205f2090600491828204019190066008029054906101000a90046001600160401b03166001600160401b03166001600160401b031681526020019081526020015f20600501604051612ffd929190615806565b60405180910390a16130ba600e8261ffff168154811061301f5761301f61565e565b905f5260205f2090600491828204019190066008029054906101000a90046001600160401b03165f600f5f600e8661ffff16815481106130615761306161565e565b905f5260205f2090600491828204019190066008029054906101000a90046001600160401b03166001600160401b03166001600160401b031681526020019081526020015f20600501604051602001610a0e9190615827565b6130d4600e8261ffff1681548110611ea857611ea861565e565b806130de816156ed565b915050612e35565b50601454600e54630100000090910460ff1611613112576010805460ff19166001179055610f4961316b565b6010805460ff19169055565b6123068383836001614766565b6131343361211c565b15801561314757506131453261211c565b155b15610f4957323330604051630be6bab560e01b8152600401610f2393929190615718565b60095f9054906101000a90046001600160a01b03166001600160a01b031663471226236040518163ffffffff1660e01b8152600401602060405180830381865afa1580156131bb573d5f5f3e3d5ffd5b505050506040513d601f19601f820116820180604052508101906131df91906150a7565b601454604051637dbbd60f60e01b815264010000000090910460ff1660048201526001600160a01b039190911690637dbbd60f906024015f604051808303815f875af1158015613231573d5f5f3e3d5ffd5b505050506040513d5f823e601f3d908101601f191682016040526132589190810190615854565b6011906132659082615166565b5061327d5f5f6011604051602001610a0e9190615898565b7fb500f3b74d095e267262adab260f9bc96d0e9f0c9169941a964c5d7cf5973ec360116040516132ad91906158bb565b60405180910390a142601355600b546132d0906001600160401b031660016157e7565b600b80546001600160401b0319166001600160401b0392909216919091179055565b6132fa614962565b600b5461331390600160401b900461ffff1660016158cd565b600b805461ffff60401b1916600160401b61ffff93841681029190911791829055604084810186905291049091168252602080830185905284516009548351633d3db08b60e21b815293516135759492936001600160a01b039092169263f4f6c22c9260048083019391928290030181865afa158015613395573d5f5f3e3d5ffd5b505050506040513d601f19601f820116820180604052508101906133b991906150a7565b6001600160a01b0316639ff430016040518163ffffffff1660e01b81526004016020604051808303815f875af11580156133f5573d5f5f3e3d5ffd5b505050506040513d601f19601f8201168201806040525081019061341991906150a7565b6001600160a01b03166327bacc406040518163ffffffff1660e01b8152600401602060405180830381865afa158015613454573d5f5f3e3d5ffd5b505050506040513d601f19601f8201168201806040525081019061347891906150c2565b856040015160095f9054906101000a90046001600160a01b03166001600160a01b031663471226236040518163ffffffff1660e01b8152600401602060405180830381865afa1580156134cd573d5f5f3e3d5ffd5b505050506040513d601f19601f820116820180604052508101906134f191906150a7565b85516040516313fe9d7160e11b815261ffff90911660048201526001600160a01b0391909116906327fd3ae2906024015f60405180830381865afa15801561353b573d5f5f3e3d5ffd5b505050506040513d5f823e601f3d908101601f19168201604052613562919081019061560b565b86604051602001610a0e939291906158e7565b8251604080850151835191517f12999e2ff992443f37828f459f18cb397ebdb64a1f8c6d4b20e6616f3d461cae936135b1939092918790615936565b60405180910390a160095f9054906101000a90046001600160a01b03166001600160a01b031663929c6ca96040518163ffffffff1660e01b8152600401602060405180830381865afa158015613609573d5f5f3e3d5ffd5b505050506040513d601f19601f8201168201806040525081019061362d91906150a7565b8351602085015160c00151604051635b78533360e01b815291186001600160401b031660048201526001600160a01b039190911690635b7853339060240160408051808303815f875af1158015613686573d5f5f3e3d5ffd5b505050506040513d601f19601f820116820180604052508101906136aa9190615477565b6020850180516001600160401b0392831660e0808301919091529390921660c09092019190915284519051909101516136e391906128ba565b84516001600160401b039081165f908152600f602090815260408083208951851684529281902060049081018054968616600160801b0267ffffffffffffffff60801b19909716969096179095559184018054958416600160401b02600160401b600160801b03199096169590951790945560095487519488015160c001519151630eedf25f60e41b8152948316938501939093521660248301526001600160a01b03169063eedf25f09060440160408051808303815f875af11580156137ac573d5f5f3e3d5ffd5b505050506040513d601f19601f820116820180604052508101906137d09190615477565b602080840180518201516001600160401b0393841660e08083019190915294841660c091820152600b5461ffff600160401b9182900481165f908152600c865260409081902089518154931661ffff19909316929092178255935180516001830180549189166001600160401b03199092169190911781558187015180516002850180546001600160a01b039283166001600160a01b031990911617905597810151600385018054838a01518c16600160a01b026001600160e01b0319918216938c169390931792909217905560608201516004860180546080850151909b1688029a909216908b16179890981790975560a08701516005840180549689015198909a01518916600160801b0267ffffffffffffffff60801b19988a169095026001600160801b0319909616981697909717939093179490941617909455830151849391929060068401906139259082615166565b5060609190910151600690910180546001600160401b0319166001600160401b03909216919091179055604082015160088201906139639082615166565b505083516001600160401b03165f908152600d602052604090205460056201000090910460ff1610159050613a0b5782516001600160401b03165f908152600d60205260409020546139bf9062010000900460ff166001615973565b83516001600160401b03165f908152600d60209081526040909120805460ff93909316620100000262ff0000199093169290921790915583015151613a0690612544601290565b613c18565b825160095460408051633d3db08b60e21b81529051613ba993926001600160a01b03169163f4f6c22c9160048083019260209291908290030181865afa158015613a57573d5f5f3e3d5ffd5b505050506040513d601f19601f82011682018060405250810190613a7b91906150a7565b6001600160a01b0316639ff430016040518163ffffffff1660e01b81526004016020604051808303815f875af1158015613ab7573d5f5f3e3d5ffd5b505050506040513d601f19601f82011682018060405250810190613adb91906150a7565b6001600160a01b03166376fade906040518163ffffffff1660e01b81526004016020604051808303815f875af1158015613b17573d5f5f3e3d5ffd5b505050506040513d601f19601f82011682018060405250810190613b3b91906150a7565b6001600160a01b031663a45669506040518163ffffffff1660e01b8152600401610300604051808303815f875af1158015613b78573d5f5f3e3d5ffd5b505050506040513d601f19601f82011682018060405250810190613b9c919061598c565b6040015160e001516128ba565b84516001600160401b039081165f908152600f602052604080822088518416835291206004908101805467ffffffffffffffff60801b1916600160801b9585169590950294909417909355919091018054600160401b600160801b031916600160401b93909216929092021790555b601454613c2f9062010000900460ff16603c61574f565b60ff16601354613c3f9190615772565b421061230657612306613f75565b5f613c588484612cd5565b90505f198114611ee65781811015613c90573233858530858760405162b83d1960e21b8152600401610f2397969594939291906159fd565b611ee684848484035f614766565b6123068383836147e6565b5f5b600e5461ffff82161015610cda57816001600160401b0316600e8261ffff1681548110613cda57613cda61565e565b5f918252602090912060048204015460039091166008026101000a90046001600160401b031603613f0557600d5f600e8361ffff1681548110613d1f57613d1f61565e565b5f918252602080832060048304015460039092166008026101000a9091046001600160401b03168352820192909252604001812080546affffffffffffffffffffff19169055600e8054600f92919061ffff8516908110613d8257613d8261565e565b5f918252602080832060048084049091015460039384166008026101000a90046001600160401b03168552908401949094526040909201812080546001600160401b03191681556001810180546001600160a01b03191690556002810180546001600160e01b0319908116909155928101805490931690925591810180546001600160c01b031916905590613e1a600583018261498c565b5060060180546001600160401b0319169055600e8054613e3c90600190615a40565b81548110613e4c57613e4c61565e565b905f5260205f2090600491828204019190066008029054906101000a90046001600160401b0316600e8261ffff1681548110613e8a57613e8a61565e565b905f5260205f2090600491828204019190066008026101000a8154816001600160401b0302191690836001600160401b03160217905550600e805480613ed257613ed2615a53565b5f8281526020902060045f199092019182040180546001600160401b03600860038516026101000a021916905590555050565b80613f0f816156ed565b915050613cab565b6001600160a01b0382165f81815260208190526040808220805460ff191685151590811790915590519092917f6bfa7e860c3e9bf67b810cb88276b19b27c972812bac04793d369b59a1183a8391a35050565b610cda5f83836147e6565b600b545f90613f9090600160401b900461ffff1660016158cd565b61ffff166001600160401b03811115613fab57613fab614a76565b604051908082528060200260200182016040528015613fd4578160200160208202803683370190505b5090505f80805b600e5461ffff821610156140f357600b54600e80546001600160401b0390921691600d915f9161ffff86169081106140155761401561565e565b5f91825260208083206004830401546001600160401b0360086003909416939093026101000a90048216845283019390935260409091019020546301000000900416036140e157600184600d5f600e8561ffff16815481106140795761407961565e565b5f918252602080832060048304015460039092166008026101000a9091046001600160401b03168352820192909252604001902054815161ffff9091169081106140c5576140c561565e565b602002602001018181516140d991906158cd565b61ffff169052505b806140eb816156ed565b915050613fdb565b5060015b600b5461ffff600160401b9091048116908216116141b1578161ffff16848261ffff168151811061412a5761412a61565e565b602002602001015161ffff16111561416557838161ffff16815181106141525761415261565e565b602002602001015191506001925061419f565b8161ffff16848261ffff16815181106141805761418061565e565b602002602001015161ffff160361419f5761419c6001846158cd565b92505b806141a9816156ed565b9150506140f7565b5061ffff8116156147315760015b600b5461ffff600160401b90910481169082161161472f578161ffff16848261ffff16815181106141f2576141f261565e565b602002602001015161ffff160361471d5761ffff81165f908152600c6020908152604080832060018101549151614244946001600160401b0390931693610a0e92600681019260089091019101615a67565b61ffff8082165f908152600c6020526040902060018101546014547f2533f4da34a8a88c9cebf7ef6278da33a20a4a767dae73c3cd91bf4b2dea8904936001600160401b039092169260068101926008909101916142a491899116615a99565b6040516142b49493929190615abc565b60405180910390a161ffff81165f908152600c602052604090206002015461430b906001600160a01b03166142eb6012600a61559b565b6014546142fd90879061ffff16615a99565b61ffff1661255a91906155a9565b61ffff81165f908152600c6020908152604091829020600101546009548351633d3db08b60e21b815293516144c9946001600160401b03909316936001600160a01b039092169263f4f6c22c9260048083019391928290030181865afa158015614377573d5f5f3e3d5ffd5b505050506040513d601f19601f8201168201806040525081019061439b91906150a7565b6001600160a01b0316639ff430016040518163ffffffff1660e01b81526004016020604051808303815f875af11580156143d7573d5f5f3e3d5ffd5b505050506040513d601f19601f820116820180604052508101906143fb91906150a7565b6001600160a01b03166376fade906040518163ffffffff1660e01b81526004016020604051808303815f875af1158015614437573d5f5f3e3d5ffd5b505050506040513d601f19601f8201168201806040525081019061445b91906150a7565b6001600160a01b031663a45669506040518163ffffffff1660e01b8152600401610300604051808303815f875af1158015614498573d5f5f3e3d5ffd5b505050506040513d601f19601f820116820180604052508101906144bc919061598c565b6020015160e001516128ba565b61ffff83165f908152600c6020908152604091829020600581018054600160401b600160c01b031916600160801b6001600160401b0396871602600160401b600160801b03191617600160401b968616870217908190556001909101546009548451633d3db08b60e21b815294516146c9979287169692909304909116936001600160a01b039091169263f4f6c22c926004808401938290030181865afa158015614576573d5f5f3e3d5ffd5b505050506040513d601f19601f8201168201806040525081019061459a91906150a7565b6001600160a01b0316639ff430016040518163ffffffff1660e01b81526004016020604051808303815f875af11580156145d6573d5f5f3e3d5ffd5b505050506040513d601f19601f820116820180604052508101906145fa91906150a7565b6001600160a01b03166376fade906040518163ffffffff1660e01b81526004016020604051808303815f875af1158015614636573d5f5f3e3d5ffd5b505050506040513d601f19601f8201168201806040525081019061465a91906150a7565b6001600160a01b031663a45669506040518163ffffffff1660e01b8152600401610300604051808303815f875af1158015614697573d5f5f3e3d5ffd5b505050506040513d601f19601f820116820180604052508101906146bb919061598c565b6040015160c00151186128ba565b61ffff83165f908152600c602052604090206005018054600160401b600160c01b031916600160801b6001600160401b0393841602600160401b600160801b03191617600160401b93909216929092021790555b80614727816156ed565b9150506141bf565b505b612306612d53565b6147456012600a61559b565b60075461475291906155a9565b6003541015610f4957610f49306012612544565b6001600160a01b038085165f9081526002602090815260408083209387168352929052208290558015611ee657826001600160a01b0316846001600160a01b03167f8c5be1e5ebec7d5bd14f71427d1e84f3dd0314c0f7b2291e5b200ac8c7c3b925846040516147d891815260200190565b60405180910390a350505050565b6001600160a01b038316614810578060035f8282546148059190615772565b909155506148759050565b6001600160a01b0383165f90815260016020526040902054818110156148575732338585308587604051630f7d0bbd60e21b8152600401610f2397969594939291906159fd565b6001600160a01b0384165f9081526001602052604090209082900390555b6001600160a01b038216614891576003805482900390556148af565b6001600160a01b0382165f9081526001602052604090208054820190555b816001600160a01b0316836001600160a01b03167fddf252ad1be2c89b69c2b068fc378daa952ba7f163c4a11628f55a4df523b3ef836040516148f491815260200190565b60405180910390a3505050565b60408051608080820183525f80835283516101008101855281815260208181018390529481018290526060810182905291820181905260a0820181905260c0820181905260e082015290918201908152606060208201525f60409091015290565b60405180606001604052805f61ffff16815260200161497f614901565b8152602001606081525090565b50805461499890614e96565b5f825580601f106149a7575050565b601f0160209004905f5260205f2090810190611efe91905b808211156149d2575f81556001016149bf565b5090565b5f81518084528060208401602086015e5f602082860101526020601f19601f83011685010191505092915050565b602081525f614a1660208301846149d6565b9392505050565b6001600160a01b0381168114611efe575f5ffd5b5f60208284031215614a41575f5ffd5b8135614a1681614a1d565b5f5f60408385031215614a5d575f5ffd5b8235614a6881614a1d565b946020939093013593505050565b634e487b7160e01b5f52604160045260245ffd5b60405161010081016001600160401b0381118282101715614aad57614aad614a76565b60405290565b604051608081016001600160401b0381118282101715614aad57614aad614a76565b604051601f8201601f191681016001600160401b0381118282101715614afd57614afd614a76565b604052919050565b5f6001600160401b03821115614b1d57614b1d614a76565b50601f01601f191660200190565b5f82601f830112614b3a575f5ffd5b8135614b4d614b4882614b05565b614ad5565b818152846020838601011115614b61575f5ffd5b816020850160208301375f918101602001919091529392505050565b5f60208284031215614b8d575f5ffd5b81356001600160401b03811115614ba2575f5ffd5b614bae84828501614b2b565b949350505050565b6001600160401b0381168114611efe575f5ffd5b5f60208284031215614bda575f5ffd5b8135614a1681614bb6565b6001600160401b0381511682525f602082015160018060a01b03815116602085015260018060a01b0360208201511660408501526001600160401b0360408201511660608501526060810151614c4660808601826001600160401b03169052565b5060808101516001600160a01b03811660a08601525060a08101516001600160401b03811660c08601525060c08101516001600160401b03811660e08601525060e001516001600160401b038116610100850152506040820151610160610120850152614cb76101608501826149d6565b90506060830151614cd46101408601826001600160401b03169052565b509392505050565b602081525f614a166020830184614be5565b5f5f5f60608486031215614d00575f5ffd5b8335614d0b81614a1d565b92506020840135614d1b81614a1d565b929592945050506040919091013590565b5f60208284031215614d3c575f5ffd5b813561ffff81168114614a16575f5ffd5b6020815261ffff82511660208201525f602083015160606040840152614d766080840182614be5565b90506040840151601f19848303016060850152614d9382826149d6565b95945050505050565b6001600160a01b0391909116815260200190565b5f5f60408385031215614dc1575f5ffd5b82356001600160401b03811115614dd6575f5ffd5b614de285828601614b2b565b92505060208301356001600160401b03811115614dfd575f5ffd5b614e0985828601614b2b565b9150509250929050565b5f60208284031215614e23575f5ffd5b813560ff81168114614a16575f5ffd5b5f5f60408385031215614e44575f5ffd5b8235614e4f81614bb6565b91506020830135614e5f81614bb6565b809150509250929050565b5f5f60408385031215614e7b575f5ffd5b8235614e8681614a1d565b91506020830135614e5f81614a1d565b600181811c90821680614eaa57607f821691505b602082108103614ec857634e487b7160e01b5f52602260045260245ffd5b50919050565b80516118e581614bb6565b80516118e581614a1d565b5f6101008284031215614ef5575f5ffd5b614efd614a8a565b90508151614f0a81614a1d565b8152614f1860208301614ed9565b6020820152614f2960408301614ece565b6040820152614f3a60608301614ece565b6060820152614f4b60808301614ed9565b6080820152614f5c60a08301614ece565b60a0820152614f6d60c08301614ece565b60c0820152614f7e60e08301614ece565b60e082015292915050565b5f614f96614b4884614b05565b9050828152838383011115614fa9575f5ffd5b8282602083015e5f602084830101529392505050565b5f82601f830112614fce575f5ffd5b614a1683835160208501614f89565b5f60208284031215614fed575f5ffd5b81516001600160401b03811115615002575f5ffd5b82016101608185031215615014575f5ffd5b61501c614ab3565b815161502781614bb6565b81526150368560208401614ee4565b60208201526101208201516001600160401b03811115615054575f5ffd5b61506086828501614fbf565b604083015250610140820151915061507782614bb6565b60608101919091529392505050565b6001600160401b0383168152604060208201525f614bae60408301846149d6565b5f602082840312156150b7575f5ffd5b8151614a1681614a1d565b5f602082840312156150d2575f5ffd5b8151614a1681614bb6565b5f81518060208401855e5f93019283525090919050565b7202732bb902ab9b2b9102537b4b732b2101d1d1606d1b81525f614a1660138301846150dd565b601f82111561230657805f5260205f20601f840160051c810160208510156151405750805b601f840160051c820191505b8181101561515f575f815560010161514c565b5050505050565b81516001600160401b0381111561517f5761517f614a76565b6151938161518d8454614e96565b8461511b565b6020601f8211600181146151c5575f83156151ae5750848201515b5f19600385901b1c1916600184901b17845561515f565b5f84815260208120601f198516915b828110156151f457878501518255602094850194600190920191016151d4565b508482101561521157868401515f19600387901b60f8161c191681555b50505050600190811b01905550565b5f815461522c81614e96565b808552600182168015615246576001811461526257615296565b60ff1983166020870152602082151560051b8701019350615296565b845f5260205f205f5b8381101561528d5781546020828a01015260018201915060208101905061526b565b87016020019450505b50505092915050565b604081525f6152b16040830185615220565b8281036020840152614d9381856149d6565b5f602082840312156152d3575f5ffd5b81518015158114614a16575f5ffd5b5f81546152ee81614e96565b600182168015615305576001811461531a57615296565b60ff1983168652811515820286019350615296565b845f5260205f205f5b8381101561533f57815488820152600190910190602001615323565b505050939093019392505050565b600f60fa1b81525f61536260018301856152e2565b6101f160f51b8152614d9360028201856150dd565b602081526001600160401b0382541660208201526153b3604082016153a660018501546001600160a01b031690565b6001600160a01b03169052565b60028201546001600160a01b03811660608301525f9060a081901c6001600160401b031660808401525060038301546001600160401b03811660a08401526001600160a01b03604082901c1660c08401525060048301546001600160401b03811660e0840152604081901c6001600160401b0316610100840152608081901c6001600160401b03166101208401525061016061014083015261545c610180830160058501615220565b60068401546001600160401b03166101608401819052614cd4565b5f5f60408385031215615488575f5ffd5b825161549381614bb6565b6020840151909250614e5f81614bb6565b634e487b7160e01b5f52601160045260245ffd5b6001815b60018411156154f3578085048111156154d7576154d76154a4565b60018416156154e557908102905b60019390931c9280026154bc565b935093915050565b5f8261550957506001610cf1565b8161551557505f610cf1565b816001811461552b576002811461553557615551565b6001915050610cf1565b60ff841115615546576155466154a4565b50506001821b610cf1565b5060208310610133831016604e8410600b8410161715615574575081810a610cf1565b6155805f1984846154b8565b805f1904821115615593576155936154a4565b029392505050565b5f614a1660ff8416836154fb565b8082028115828204841417610cf157610cf16154a4565b634e487b7160e01b5f52601260045260245ffd5b5f826155e2576155e26155c0565b500490565b6001600160a01b039384168152919092166020820152604081019190915260600190565b5f6020828403121561561b575f5ffd5b81516001600160401b03811115615630575f5ffd5b614bae84828501614fbf565b6d02732b2b21020b8383937bb32b2160951b81525f614a16600e8301846150dd565b634e487b7160e01b5f52603260045260245ffd5b6001600160401b0385168152608060208201525f61569360808301866149d6565b6001600160401b038516604084015282810360608401526156b48185615220565b979650505050505050565b5f6156ca82856150dd565b6f01025b4b1b5b2b2102ab9b2b9101d1d160851b8152614d9360108201856152e2565b5f61ffff821661ffff8103615704576157046154a4565b60010192915050565b5f614a1682846150dd565b6001600160a01b0393841681529183166020830152909116604082015260600190565b634e487b7160e01b5f52600160045260245ffd5b60ff818116838216029081169081811461576b5761576b6154a4565b5092915050565b80820180821115610cf157610cf16154a4565b6001600160a01b039290921682526001600160401b0316602082015260400190565b8481526001600160401b03841660208201526001600160401b0383166040820152608060608201525f6157dd60808301846149d6565b9695505050505050565b6001600160401b038181168382160190811115610cf157610cf16154a4565b6001600160401b0383168152604060208201525f614bae6040830184615220565b7802932b6b7bb32b21024b730b1ba34bb32902ab9b2b9101d1d1603d1b81525f614a1660198301846152e2565b5f60208284031215615864575f5ffd5b81516001600160401b03811115615879575f5ffd5b8201601f81018413615889575f5ffd5b614bae84825160208401614f89565b6e02732bb9020b1b937b73cb6901d1d1608d1b81525f614a16600f8301846152e2565b602081525f614a166020830184615220565b61ffff8181168382160190811115610cf157610cf16154a4565b600f60fa1b81525f6158fc60018301866150dd565b6f3e205375626d6974746564203a3a205b60801b815261591f60108201866150dd565b90506102e960f51b81526157dd60028201856150dd565b6001600160401b0385168152608060208201525f61595760808301866149d6565b61ffff8516604084015282810360608401526156b481856149d6565b60ff8181168382160190811115610cf157610cf16154a4565b5f61030082840312801561599e575f5ffd5b50604051606081016001600160401b03811182821017156159c1576159c1614a76565b6040526159ce8484614ee4565b81526159de846101008501614ee4565b60208201526159f1846102008501614ee4565b60408201529392505050565b6001600160a01b039788168152958716602087015293861660408601529185166060850152909316608083015260a082019290925260c081019190915260e00190565b81810381811115610cf157610cf16154a4565b634e487b7160e01b5f52603160045260245ffd5b6602ba4a72722a9160cd1b81525f615a8260078301856152e2565b630101090960e51b8152614d9360048201856152e2565b5f61ffff831680615aac57615aac6155c0565b8061ffff84160491505092915050565b6001600160401b0385168152608060208201525f615add6080830186615220565b8281036040840152615aef8186615220565b91505061ffff831660608301529594505050505056fea2646970667358221220152b448644274e6e5c7af3cafa3f569e3f9c4d6d9f819fed0449b1605b5ab1fd64736f6c634300081b00334f6e6365204174204c65617374203520506c6179657273204861766520456e74657265642042792043616c6c696e6720456e7465722855736572546f6b656e2920576974682054686569722055736572546f6b656e20416464726573730a5468652047616d652057696c6c2053746172742e204120322d36204c6574746572204163726f6e796d2057696c6c2042652047656e65726174656420416e642043616e20416c77617973204265205265747269657665642042790a43616c6c696e67204765744163726f6e796d28292e204561636820526f756e642057696c6c204c61737420466f72203130204d696e75746573205768696c6520596f75205375626d6974204173204d616e79204163726f6e796d730a417320596f752057616e742057697468696e2054686520526f756e642042792043616c6c696e67205375626d6974284163726f6e796d20537472696e672920416e64204f627365727665204173204f7468657273205375626d69740a5468656972204f776e204163726f6e796d732057697468696e205468652043686174204368616e6e656c205768696c6520596f752043616e20566f7465204f72204368616e676520596f757220566f746520466f7220546869730a526f756e642773204163726f6e796d2042792043616c6c696e6720566f7465284163726f6e796d204e756d626572292e2020506c61796572732057686f20446f204e6f7420566f746520466f72203220526f756e64732057696c6c0a4265204b69636b6564204f7574204f66205468652044656c65676174696f6e0a4561726e20557020546f2035204e594d20466f72204561636820416372796f6e796d205375626d69747465642c2031204e594d20466f7220566f74696e67204561636820526f756e642c0a4f7220313030204e594d20466f722057696e6e696e6720210a4966204d6f7265205468616e204f6e65204163726f6e796d2054696573205468656e2054686520313030204e594d2057696c6c2042652053706c6974",
			"opcodes": "PUSH1 0x80 PUSH1 0x40 MSTORE CALLVALUE DUP1 ISZERO PUSH2 0xF JUMPI PUSH0 PUSH0 REVERT JUMPDEST POP PUSH1 0x40 MLOAD PUSH2 0x65E9 CODESIZE SUB DUP1 PUSH2 0x65E9 DUP4 CODECOPY DUP2 ADD PUSH1 0x40 DUP2 SWAP1 MSTORE PUSH2 0x2E SWAP2 PUSH2 0x4B0 JUMP JUMPDEST PUSH1 0x40 MLOAD DUP1 PUSH1 0x40 ADD PUSH1 0x40 MSTORE DUP1 PUSH1 0x8 DUP2 MSTORE PUSH1 0x20 ADD PUSH8 0x21B430B6B834B7B7 PUSH1 0xC1 SHL DUP2 MSTORE POP PUSH1 0x40 MLOAD DUP1 PUSH1 0x40 ADD PUSH1 0x40 MSTORE DUP1 PUSH1 0x3 DUP2 MSTORE PUSH1 0x20 ADD PUSH3 0x4E594D PUSH1 0xE8 SHL DUP2 MSTORE POP DUP3 PUSH1 0x1 PUSH1 0x1 PUSH1 0xA0 SHL SUB AND PUSH4 0x6FB7329C PUSH1 0x40 MLOAD DUP2 PUSH4 0xFFFFFFFF AND PUSH1 0xE0 SHL DUP2 MSTORE PUSH1 0x4 ADD PUSH1 0x20 PUSH1 0x40 MLOAD DUP1 DUP4 SUB DUP2 DUP7 GAS STATICCALL ISZERO DUP1 ISZERO PUSH2 0xA7 JUMPI RETURNDATASIZE PUSH0 PUSH0 RETURNDATACOPY RETURNDATASIZE PUSH0 REVERT JUMPDEST POP POP POP POP PUSH1 0x40 MLOAD RETURNDATASIZE PUSH1 0x1F NOT PUSH1 0x1F DUP3 ADD AND DUP3 ADD DUP1 PUSH1 0x40 MSTORE POP DUP2 ADD SWAP1 PUSH2 0xCB SWAP2 SWAP1 PUSH2 0x4B0 JUMP JUMPDEST CALLER DUP1 PUSH2 0xFD JUMPI PUSH1 0x40 MLOAD PUSH4 0x36030219 PUSH1 0xE2 SHL DUP2 MSTORE ORIGIN PUSH1 0x4 DUP3 ADD MSTORE PUSH0 PUSH1 0x24 DUP3 ADD MSTORE ADDRESS PUSH1 0x44 DUP3 ADD MSTORE PUSH1 0x64 ADD JUMPDEST PUSH1 0x40 MLOAD DUP1 SWAP2 SUB SWAP1 REVERT JUMPDEST PUSH2 0x108 DUP2 PUSH1 0x1 PUSH2 0x35B JUMP JUMPDEST POP PUSH1 0x4 PUSH2 0x115 DUP5 DUP3 PUSH2 0x56A JUMP JUMPDEST POP PUSH1 0x5 PUSH2 0x122 DUP4 DUP3 PUSH2 0x56A JUMP JUMPDEST POP PUSH1 0x6 DUP1 SLOAD PUSH1 0x1 PUSH1 0x1 PUSH1 0xA0 SHL SUB NOT AND PUSH1 0x1 PUSH1 0x1 PUSH1 0xA0 SHL SUB DUP4 AND SWAP1 DUP2 OR SWAP1 SWAP2 SSTORE PUSH1 0x40 DUP1 MLOAD PUSH4 0x604A6FA9 PUSH1 0xE0 SHL DUP2 MSTORE SWAP1 MLOAD PUSH3 0x1B207 SWAP3 SWAP2 PUSH4 0x604A6FA9 SWAP2 PUSH1 0x4 DUP1 DUP4 ADD SWAP3 PUSH1 0x20 SWAP3 SWAP2 SWAP1 DUP3 SWAP1 SUB ADD DUP2 PUSH0 DUP8 GAS CALL ISZERO DUP1 ISZERO PUSH2 0x180 JUMPI RETURNDATASIZE PUSH0 PUSH0 RETURNDATACOPY RETURNDATASIZE PUSH0 REVERT JUMPDEST POP POP POP POP PUSH1 0x40 MLOAD RETURNDATASIZE PUSH1 0x1F NOT PUSH1 0x1F DUP3 ADD AND DUP3 ADD DUP1 PUSH1 0x40 MSTORE POP DUP2 ADD SWAP1 PUSH2 0x1A4 SWAP2 SWAP1 PUSH2 0x624 JUMP JUMPDEST PUSH2 0x1AE SWAP2 SWAP1 PUSH2 0x64A JUMP JUMPDEST PUSH1 0x1 PUSH1 0x1 PUSH1 0x40 SHL SUB AND PUSH1 0x7 SSTORE PUSH2 0x204 PUSH20 0x24F0154C1DCE548ADF15DA2098FDD8B8A3B8151D PUSH2 0x1DE PUSH1 0x12 PUSH1 0xA PUSH2 0x77D JUMP JUMPDEST PUSH2 0x1E9 SWAP1 PUSH1 0x1 PUSH2 0x78B JUMP JUMPDEST PUSH1 0x1 PUSH1 0x1 PUSH1 0xA0 SHL SUB SWAP1 SWAP2 AND PUSH0 SWAP1 DUP2 MSTORE PUSH1 0x8 PUSH1 0x20 MSTORE PUSH1 0x40 SWAP1 KECCAK256 SSTORE JUMP JUMPDEST POP POP PUSH1 0x9 DUP1 SLOAD PUSH1 0x1 PUSH1 0x1 PUSH1 0xA0 SHL SUB NOT AND PUSH1 0x1 PUSH1 0x1 PUSH1 0xA0 SHL SUB DUP5 AND SWAP1 DUP2 OR SWAP1 SWAP2 SSTORE PUSH1 0x40 DUP1 MLOAD PUSH4 0x110C7EF1 PUSH1 0xE2 SHL DUP2 MSTORE SWAP1 MLOAD SWAP2 SWAP3 POP PUSH4 0x4431FBC4 SWAP2 PUSH1 0x4 DUP1 DUP4 ADD SWAP3 PUSH1 0x20 SWAP3 SWAP2 SWAP1 DUP3 SWAP1 SUB ADD DUP2 PUSH0 DUP8 GAS CALL ISZERO DUP1 ISZERO PUSH2 0x260 JUMPI RETURNDATASIZE PUSH0 PUSH0 RETURNDATACOPY RETURNDATASIZE PUSH0 REVERT JUMPDEST POP POP POP POP PUSH1 0x40 MLOAD RETURNDATASIZE PUSH1 0x1F NOT PUSH1 0x1F DUP3 ADD AND DUP3 ADD DUP1 PUSH1 0x40 MSTORE POP DUP2 ADD SWAP1 PUSH2 0x284 SWAP2 SWAP1 PUSH2 0x7A2 JUMP JUMPDEST PUSH1 0xA SSTORE PUSH1 0x9 SLOAD PUSH1 0x40 MLOAD PUSH4 0xE0CB969 PUSH1 0xE3 SHL DUP2 MSTORE ADDRESS PUSH1 0x4 DUP3 ADD MSTORE PUSH1 0x1 PUSH1 0x1 PUSH1 0xA0 SHL SUB SWAP1 SWAP2 AND SWAP1 PUSH4 0x7065CB48 SWAP1 PUSH1 0x24 ADD PUSH0 PUSH1 0x40 MLOAD DUP1 DUP4 SUB DUP2 PUSH0 DUP8 DUP1 EXTCODESIZE ISZERO DUP1 ISZERO PUSH2 0x2C9 JUMPI PUSH0 PUSH0 REVERT JUMPDEST POP GAS CALL ISZERO DUP1 ISZERO PUSH2 0x2DB JUMPI RETURNDATASIZE PUSH0 PUSH0 RETURNDATACOPY RETURNDATASIZE PUSH0 REVERT JUMPDEST POP POP PUSH8 0x9A3298AFB5AC71C7 PUSH1 0x7 SSTORE POP POP PUSH1 0x10 DUP1 SLOAD PUSH1 0xFF NOT AND SWAP1 SSTORE PUSH1 0xB DUP1 SLOAD PUSH1 0x1 PUSH1 0x1 PUSH1 0x50 SHL SUB NOT AND SWAP1 SSTORE PUSH1 0x14 DUP1 SLOAD PUSH2 0xFFFF NOT AND PUSH1 0x64 OR SWAP1 SSTORE PUSH2 0x31D PUSH1 0xA PUSH2 0x3AE JUMP JUMPDEST PUSH2 0x327 PUSH1 0x5 PUSH2 0x3D4 JUMP JUMPDEST PUSH2 0x331 PUSH1 0x6 PUSH2 0x3FC JUMP JUMPDEST PUSH2 0x355 PUSH1 0x40 MLOAD DUP1 PUSH2 0x320 ADD PUSH1 0x40 MSTORE DUP1 PUSH2 0x2E8 DUP2 MSTORE PUSH1 0x20 ADD PUSH2 0x6301 PUSH2 0x2E8 SWAP2 CODECOPY PUSH2 0x425 JUMP JUMPDEST POP PUSH2 0x7B9 JUMP JUMPDEST PUSH1 0x1 PUSH1 0x1 PUSH1 0xA0 SHL SUB DUP3 AND PUSH0 DUP2 DUP2 MSTORE PUSH1 0x20 DUP2 SWAP1 MSTORE PUSH1 0x40 DUP1 DUP3 KECCAK256 DUP1 SLOAD PUSH1 0xFF NOT AND DUP6 ISZERO ISZERO SWAP1 DUP2 OR SWAP1 SWAP2 SSTORE SWAP1 MLOAD SWAP1 SWAP3 SWAP2 PUSH32 0x6BFA7E860C3E9BF67B810CB88276B19B27C972812BAC04793D369B59A1183A83 SWAP2 LOG3 POP POP JUMP JUMPDEST PUSH2 0x3B6 PUSH2 0x43D JUMP JUMPDEST PUSH1 0x14 DUP1 SLOAD PUSH1 0xFF SWAP1 SWAP3 AND PUSH3 0x10000 MUL PUSH3 0xFF0000 NOT SWAP1 SWAP3 AND SWAP2 SWAP1 SWAP2 OR SWAP1 SSTORE JUMP JUMPDEST PUSH2 0x3DC PUSH2 0x43D JUMP JUMPDEST PUSH1 0x14 DUP1 SLOAD PUSH1 0xFF SWAP1 SWAP3 AND PUSH4 0x1000000 MUL PUSH4 0xFF000000 NOT SWAP1 SWAP3 AND SWAP2 SWAP1 SWAP2 OR SWAP1 SSTORE JUMP JUMPDEST PUSH2 0x404 PUSH2 0x43D JUMP JUMPDEST PUSH1 0x14 DUP1 SLOAD PUSH1 0xFF SWAP1 SWAP3 AND PUSH5 0x100000000 MUL PUSH1 0xFF PUSH1 0x20 SHL NOT SWAP1 SWAP3 AND SWAP2 SWAP1 SWAP2 OR SWAP1 SSTORE JUMP JUMPDEST PUSH2 0x42D PUSH2 0x43D JUMP JUMPDEST PUSH1 0x12 PUSH2 0x439 DUP3 DUP3 PUSH2 0x56A JUMP JUMPDEST POP POP JUMP JUMPDEST CALLER PUSH0 SWAP1 DUP2 MSTORE PUSH1 0x20 DUP2 SWAP1 MSTORE PUSH1 0x40 SWAP1 KECCAK256 SLOAD PUSH1 0xFF AND ISZERO DUP1 ISZERO PUSH2 0x46B JUMPI POP ORIGIN PUSH0 SWAP1 DUP2 MSTORE PUSH1 0x20 DUP2 SWAP1 MSTORE PUSH1 0x40 SWAP1 KECCAK256 SLOAD PUSH1 0xFF AND ISZERO JUMPDEST ISZERO PUSH2 0x497 JUMPI PUSH1 0x40 MLOAD PUSH4 0xBE6BAB5 PUSH1 0xE0 SHL DUP2 MSTORE ORIGIN PUSH1 0x4 DUP3 ADD MSTORE CALLER PUSH1 0x24 DUP3 ADD MSTORE ADDRESS PUSH1 0x44 DUP3 ADD MSTORE PUSH1 0x64 ADD PUSH2 0xF4 JUMP JUMPDEST JUMP JUMPDEST PUSH1 0x1 PUSH1 0x1 PUSH1 0xA0 SHL SUB DUP2 AND DUP2 EQ PUSH2 0x4AD JUMPI PUSH0 PUSH0 REVERT JUMPDEST POP JUMP JUMPDEST PUSH0 PUSH1 0x20 DUP3 DUP5 SUB SLT ISZERO PUSH2 0x4C0 JUMPI PUSH0 PUSH0 REVERT JUMPDEST DUP2 MLOAD PUSH2 0x4CB DUP2 PUSH2 0x499 JUMP JUMPDEST SWAP4 SWAP3 POP POP POP JUMP JUMPDEST PUSH4 0x4E487B71 PUSH1 0xE0 SHL PUSH0 MSTORE PUSH1 0x41 PUSH1 0x4 MSTORE PUSH1 0x24 PUSH0 REVERT JUMPDEST PUSH1 0x1 DUP2 DUP2 SHR SWAP1 DUP3 AND DUP1 PUSH2 0x4FA JUMPI PUSH1 0x7F DUP3 AND SWAP2 POP JUMPDEST PUSH1 0x20 DUP3 LT DUP2 SUB PUSH2 0x518 JUMPI PUSH4 0x4E487B71 PUSH1 0xE0 SHL PUSH0 MSTORE PUSH1 0x22 PUSH1 0x4 MSTORE PUSH1 0x24 PUSH0 REVERT JUMPDEST POP SWAP2 SWAP1 POP JUMP JUMPDEST PUSH1 0x1F DUP3 GT ISZERO PUSH2 0x565 JUMPI DUP1 PUSH0 MSTORE PUSH1 0x20 PUSH0 KECCAK256 PUSH1 0x1F DUP5 ADD PUSH1 0x5 SHR DUP2 ADD PUSH1 0x20 DUP6 LT ISZERO PUSH2 0x543 JUMPI POP DUP1 JUMPDEST PUSH1 0x1F DUP5 ADD PUSH1 0x5 SHR DUP3 ADD SWAP2 POP JUMPDEST DUP2 DUP2 LT ISZERO PUSH2 0x562 JUMPI PUSH0 DUP2 SSTORE PUSH1 0x1 ADD PUSH2 0x54F JUMP JUMPDEST POP POP JUMPDEST POP POP POP JUMP JUMPDEST DUP2 MLOAD PUSH1 0x1 PUSH1 0x1 PUSH1 0x40 SHL SUB DUP2 GT ISZERO PUSH2 0x583 JUMPI PUSH2 0x583 PUSH2 0x4D2 JUMP JUMPDEST PUSH2 0x597 DUP2 PUSH2 0x591 DUP5 SLOAD PUSH2 0x4E6 JUMP JUMPDEST DUP5 PUSH2 0x51E JUMP JUMPDEST PUSH1 0x20 PUSH1 0x1F DUP3 GT PUSH1 0x1 DUP2 EQ PUSH2 0x5C9 JUMPI PUSH0 DUP4 ISZERO PUSH2 0x5B2 JUMPI POP DUP5 DUP3 ADD MLOAD JUMPDEST PUSH0 NOT PUSH1 0x3 DUP6 SWAP1 SHL SHR NOT AND PUSH1 0x1 DUP5 SWAP1 SHL OR DUP5 SSTORE PUSH2 0x562 JUMP JUMPDEST PUSH0 DUP5 DUP2 MSTORE PUSH1 0x20 DUP2 KECCAK256 PUSH1 0x1F NOT DUP6 AND SWAP2 JUMPDEST DUP3 DUP2 LT ISZERO PUSH2 0x5F8 JUMPI DUP8 DUP6 ADD MLOAD DUP3 SSTORE PUSH1 0x20 SWAP5 DUP6 ADD SWAP5 PUSH1 0x1 SWAP1 SWAP3 ADD SWAP2 ADD PUSH2 0x5D8 JUMP JUMPDEST POP DUP5 DUP3 LT ISZERO PUSH2 0x615 JUMPI DUP7 DUP5 ADD MLOAD PUSH0 NOT PUSH1 0x3 DUP8 SWAP1 SHL PUSH1 0xF8 AND SHR NOT AND DUP2 SSTORE JUMPDEST POP POP POP POP PUSH1 0x1 SWAP1 DUP2 SHL ADD SWAP1 SSTORE POP JUMP JUMPDEST PUSH0 PUSH1 0x20 DUP3 DUP5 SUB SLT ISZERO PUSH2 0x634 JUMPI PUSH0 PUSH0 REVERT JUMPDEST DUP2 MLOAD PUSH1 0x1 PUSH1 0x1 PUSH1 0x40 SHL SUB DUP2 AND DUP2 EQ PUSH2 0x4CB JUMPI PUSH0 PUSH0 REVERT JUMPDEST PUSH0 PUSH1 0x1 PUSH1 0x1 PUSH1 0x40 SHL SUB DUP4 AND DUP1 PUSH2 0x66E JUMPI PUSH4 0x4E487B71 PUSH1 0xE0 SHL PUSH0 MSTORE PUSH1 0x12 PUSH1 0x4 MSTORE PUSH1 0x24 PUSH0 REVERT JUMPDEST PUSH1 0x1 PUSH1 0x1 PUSH1 0x40 SHL SUB SWAP3 SWAP1 SWAP3 AND SWAP2 SWAP1 SWAP2 MOD SWAP3 SWAP2 POP POP JUMP JUMPDEST PUSH4 0x4E487B71 PUSH1 0xE0 SHL PUSH0 MSTORE PUSH1 0x11 PUSH1 0x4 MSTORE PUSH1 0x24 PUSH0 REVERT JUMPDEST PUSH1 0x1 DUP2 JUMPDEST PUSH1 0x1 DUP5 GT ISZERO PUSH2 0x6D3 JUMPI DUP1 DUP6 DIV DUP2 GT ISZERO PUSH2 0x6B7 JUMPI PUSH2 0x6B7 PUSH2 0x684 JUMP JUMPDEST PUSH1 0x1 DUP5 AND ISZERO PUSH2 0x6C5 JUMPI SWAP1 DUP2 MUL SWAP1 JUMPDEST PUSH1 0x1 SWAP4 SWAP1 SWAP4 SHR SWAP3 DUP1 MUL PUSH2 0x69C JUMP JUMPDEST SWAP4 POP SWAP4 SWAP2 POP POP JUMP JUMPDEST PUSH0 DUP3 PUSH2 0x6E9 JUMPI POP PUSH1 0x1 PUSH2 0x777 JUMP JUMPDEST DUP2 PUSH2 0x6F5 JUMPI POP PUSH0 PUSH2 0x777 JUMP JUMPDEST DUP2 PUSH1 0x1 DUP2 EQ PUSH2 0x70B JUMPI PUSH1 0x2 DUP2 EQ PUSH2 0x715 JUMPI PUSH2 0x731 JUMP JUMPDEST PUSH1 0x1 SWAP2 POP POP PUSH2 0x777 JUMP JUMPDEST PUSH1 0xFF DUP5 GT ISZERO PUSH2 0x726 JUMPI PUSH2 0x726 PUSH2 0x684 JUMP JUMPDEST POP POP PUSH1 0x1 DUP3 SHL PUSH2 0x777 JUMP JUMPDEST POP PUSH1 0x20 DUP4 LT PUSH2 0x133 DUP4 LT AND PUSH1 0x4E DUP5 LT PUSH1 0xB DUP5 LT AND OR ISZERO PUSH2 0x754 JUMPI POP DUP2 DUP2 EXP PUSH2 0x777 JUMP JUMPDEST PUSH2 0x760 PUSH0 NOT DUP5 DUP5 PUSH2 0x698 JUMP JUMPDEST DUP1 PUSH0 NOT DIV DUP3 GT ISZERO PUSH2 0x773 JUMPI PUSH2 0x773 PUSH2 0x684 JUMP JUMPDEST MUL SWAP1 POP JUMPDEST SWAP3 SWAP2 POP POP JUMP JUMPDEST PUSH0 PUSH2 0x4CB PUSH1 0xFF DUP5 AND DUP4 PUSH2 0x6DB JUMP JUMPDEST DUP1 DUP3 MUL DUP2 ISZERO DUP3 DUP3 DIV DUP5 EQ OR PUSH2 0x777 JUMPI PUSH2 0x777 PUSH2 0x684 JUMP JUMPDEST PUSH0 PUSH1 0x20 DUP3 DUP5 SUB SLT ISZERO PUSH2 0x7B2 JUMPI PUSH0 PUSH0 REVERT JUMPDEST POP MLOAD SWAP2 SWAP1 POP JUMP JUMPDEST PUSH2 0x5B3B DUP1 PUSH2 0x7C6 PUSH0 CODECOPY PUSH0 RETURN INVALID PUSH1 0x80 PUSH1 0x40 MSTORE CALLVALUE DUP1 ISZERO PUSH2 0xF JUMPI PUSH0 PUSH0 REVERT JUMPDEST POP PUSH1 0x4 CALLDATASIZE LT PUSH2 0x281 JUMPI PUSH0 CALLDATALOAD PUSH1 0xE0 SHR DUP1 PUSH4 0x6FB7329C GT PUSH2 0x156 JUMPI DUP1 PUSH4 0xA6F22F25 GT PUSH2 0xCA JUMPI DUP1 PUSH4 0xC9B0A2A7 GT PUSH2 0x84 JUMPI DUP1 PUSH4 0xC9B0A2A7 EQ PUSH2 0x5DD JUMPI DUP1 PUSH4 0xD3DC2A0F EQ PUSH2 0x5EA JUMPI DUP1 PUSH4 0xD5ABEB01 EQ PUSH2 0x5F8 JUMPI DUP1 PUSH4 0xDD62ED3E EQ PUSH2 0x601 JUMPI DUP1 PUSH4 0xF4E6C93F EQ PUSH2 0x614 JUMPI DUP1 PUSH4 0xFF762044 EQ PUSH2 0x61C JUMPI PUSH0 PUSH0 REVERT JUMPDEST DUP1 PUSH4 0xA6F22F25 EQ PUSH2 0x556 JUMPI DUP1 PUSH4 0xA9059CBB EQ PUSH2 0x569 JUMPI DUP1 PUSH4 0xAB7DCA68 EQ PUSH2 0x57C JUMPI DUP1 PUSH4 0xAC8F5EAD EQ PUSH2 0x58F JUMPI DUP1 PUSH4 0xB3CA7A7A EQ PUSH2 0x597 JUMPI DUP1 PUSH4 0xB46C0AC3 EQ PUSH2 0x5AA JUMPI PUSH0 PUSH0 REVERT JUMPDEST DUP1 PUSH4 0x8DA5CB5B GT PUSH2 0x11B JUMPI DUP1 PUSH4 0x8DA5CB5B EQ PUSH2 0x506 JUMPI DUP1 PUSH4 0x95D89B41 EQ PUSH2 0x50C JUMPI DUP1 PUSH4 0x9DCBF7EA EQ PUSH2 0x514 JUMPI DUP1 PUSH4 0x9F7051F5 EQ PUSH2 0x527 JUMPI DUP1 PUSH4 0xA138DA0B EQ PUSH2 0x53A JUMPI DUP1 PUSH4 0xA2A90D90 EQ PUSH2 0x543 JUMPI PUSH0 PUSH0 REVERT JUMPDEST DUP1 PUSH4 0x6FB7329C EQ PUSH2 0x485 JUMPI DUP1 PUSH4 0x7065CB48 EQ PUSH2 0x498 JUMPI DUP1 PUSH4 0x70A08231 EQ PUSH2 0x4AB JUMPI DUP1 PUSH4 0x7AC5D8A9 EQ PUSH2 0x4D3 JUMPI DUP1 PUSH4 0x8191745F EQ PUSH2 0x4FE JUMPI PUSH0 PUSH0 REVERT JUMPDEST DUP1 PUSH4 0x23B872DD GT PUSH2 0x1F8 JUMPI DUP1 PUSH4 0x3F94F078 GT PUSH2 0x1B2 JUMPI DUP1 PUSH4 0x3F94F078 EQ PUSH2 0x402 JUMPI DUP1 PUSH4 0x5314A0F1 EQ PUSH2 0x40A JUMPI DUP1 PUSH4 0x5DD0E415 EQ PUSH2 0x42A JUMPI DUP1 PUSH4 0x666E1B39 EQ PUSH2 0x43F JUMPI DUP1 PUSH4 0x6872FC3C EQ PUSH2 0x452 JUMPI DUP1 PUSH4 0x6F55E4FC EQ PUSH2 0x472 JUMPI PUSH0 PUSH0 REVERT JUMPDEST DUP1 PUSH4 0x23B872DD EQ PUSH2 0x379 JUMPI DUP1 PUSH4 0x2499A533 EQ PUSH2 0x38C JUMPI DUP1 PUSH4 0x2AB1E6E9 EQ PUSH2 0x39F JUMPI DUP1 PUSH4 0x2B83B1FC EQ PUSH2 0x3B2 JUMPI DUP1 PUSH4 0x313CE567 EQ PUSH2 0x3DA JUMPI DUP1 PUSH4 0x38BF3CFA EQ PUSH2 0x3EF JUMPI PUSH0 PUSH0 REVERT JUMPDEST DUP1 PUSH4 0x18160DDD GT PUSH2 0x249 JUMPI DUP1 PUSH4 0x18160DDD EQ PUSH2 0x304 JUMPI DUP1 PUSH4 0x18F02342 EQ PUSH2 0x316 JUMPI DUP1 PUSH4 0x1B55BA3A EQ PUSH2 0x32B JUMPI DUP1 PUSH4 0x21516FC4 EQ PUSH2 0x333 JUMPI DUP1 PUSH4 0x222838DB EQ PUSH2 0x346 JUMPI DUP1 PUSH4 0x222E5071 EQ PUSH2 0x359 JUMPI PUSH0 PUSH0 REVERT JUMPDEST DUP1 PUSH4 0x5E29BF3 EQ PUSH2 0x285 JUMPI DUP1 PUSH4 0x6FDDE03 EQ PUSH2 0x2A3 JUMPI DUP1 PUSH4 0x764C80C EQ PUSH2 0x2AB JUMPI DUP1 PUSH4 0x95EA7B3 EQ PUSH2 0x2C0 JUMPI DUP1 PUSH4 0x11CFD2B2 EQ PUSH2 0x2E3 JUMPI JUMPDEST PUSH0 PUSH0 REVERT JUMPDEST PUSH2 0x28D PUSH2 0x647 JUMP JUMPDEST PUSH1 0x40 MLOAD PUSH2 0x29A SWAP2 SWAP1 PUSH2 0x4A04 JUMP JUMPDEST PUSH1 0x40 MLOAD DUP1 SWAP2 SUB SWAP1 RETURN JUMPDEST PUSH2 0x28D PUSH2 0x6D3 JUMP JUMPDEST PUSH2 0x2BE PUSH2 0x2B9 CALLDATASIZE PUSH1 0x4 PUSH2 0x4A31 JUMP JUMPDEST PUSH2 0x763 JUMP JUMPDEST STOP JUMPDEST PUSH2 0x2D3 PUSH2 0x2CE CALLDATASIZE PUSH1 0x4 PUSH2 0x4A4C JUMP JUMPDEST PUSH2 0xCDE JUMP JUMPDEST PUSH1 0x40 MLOAD SWAP1 ISZERO ISZERO DUP2 MSTORE PUSH1 0x20 ADD PUSH2 0x29A JUMP JUMPDEST PUSH1 0x14 SLOAD PUSH2 0x2F1 SWAP1 PUSH2 0xFFFF AND DUP2 JUMP JUMPDEST PUSH1 0x40 MLOAD PUSH2 0xFFFF SWAP1 SWAP2 AND DUP2 MSTORE PUSH1 0x20 ADD PUSH2 0x29A JUMP JUMPDEST PUSH1 0x3 SLOAD JUMPDEST PUSH1 0x40 MLOAD SWAP1 DUP2 MSTORE PUSH1 0x20 ADD PUSH2 0x29A JUMP JUMPDEST PUSH1 0xB SLOAD PUSH2 0x2F1 SWAP1 PUSH1 0x1 PUSH1 0x40 SHL SWAP1 DIV PUSH2 0xFFFF AND DUP2 JUMP JUMPDEST PUSH2 0x2BE PUSH2 0xCF7 JUMP JUMPDEST PUSH2 0x2BE PUSH2 0x341 CALLDATASIZE PUSH1 0x4 PUSH2 0x4B7D JUMP JUMPDEST PUSH2 0xF4B JUMP JUMPDEST PUSH2 0x2BE PUSH2 0x354 CALLDATASIZE PUSH1 0x4 PUSH2 0x4A4C JUMP JUMPDEST PUSH2 0x1582 JUMP JUMPDEST PUSH2 0x36C PUSH2 0x367 CALLDATASIZE PUSH1 0x4 PUSH2 0x4BCA JUMP JUMPDEST PUSH2 0x177B JUMP JUMPDEST PUSH1 0x40 MLOAD PUSH2 0x29A SWAP2 SWAP1 PUSH2 0x4CDC JUMP JUMPDEST PUSH2 0x2D3 PUSH2 0x387 CALLDATASIZE PUSH1 0x4 PUSH2 0x4CEE JUMP JUMPDEST PUSH2 0x18EA JUMP JUMPDEST PUSH2 0x2BE PUSH2 0x39A CALLDATASIZE PUSH1 0x4 PUSH2 0x4A4C JUMP JUMPDEST PUSH2 0x190D JUMP JUMPDEST PUSH2 0x2BE PUSH2 0x3AD CALLDATASIZE PUSH1 0x4 PUSH2 0x4BCA JUMP JUMPDEST PUSH2 0x1AC0 JUMP JUMPDEST PUSH2 0x308 PUSH2 0x3C0 CALLDATASIZE PUSH1 0x4 PUSH2 0x4A31 JUMP JUMPDEST PUSH1 0x1 PUSH1 0x1 PUSH1 0xA0 SHL SUB AND PUSH0 SWAP1 DUP2 MSTORE PUSH1 0x8 PUSH1 0x20 MSTORE PUSH1 0x40 SWAP1 KECCAK256 SLOAD SWAP1 JUMP JUMPDEST PUSH1 0x12 JUMPDEST PUSH1 0x40 MLOAD PUSH1 0xFF SWAP1 SWAP2 AND DUP2 MSTORE PUSH1 0x20 ADD PUSH2 0x29A JUMP JUMPDEST PUSH2 0x2BE PUSH2 0x3FD CALLDATASIZE PUSH1 0x4 PUSH2 0x4A31 JUMP JUMPDEST PUSH2 0x1EEC JUMP JUMPDEST PUSH1 0xE SLOAD PUSH2 0x308 JUMP JUMPDEST PUSH2 0x41D PUSH2 0x418 CALLDATASIZE PUSH1 0x4 PUSH2 0x4D2C JUMP JUMPDEST PUSH2 0x1F01 JUMP JUMPDEST PUSH1 0x40 MLOAD PUSH2 0x29A SWAP2 SWAP1 PUSH2 0x4D4D JUMP JUMPDEST PUSH1 0x14 SLOAD PUSH2 0x3DD SWAP1 PUSH5 0x100000000 SWAP1 DIV PUSH1 0xFF AND DUP2 JUMP JUMPDEST PUSH2 0x2D3 PUSH2 0x44D CALLDATASIZE PUSH1 0x4 PUSH2 0x4A31 JUMP JUMPDEST PUSH2 0x211C JUMP JUMPDEST PUSH1 0x9 SLOAD PUSH2 0x465 SWAP1 PUSH1 0x1 PUSH1 0x1 PUSH1 0xA0 SHL SUB AND DUP2 JUMP JUMPDEST PUSH1 0x40 MLOAD PUSH2 0x29A SWAP2 SWAP1 PUSH2 0x4D9C JUMP JUMPDEST PUSH2 0x2BE PUSH2 0x480 CALLDATASIZE PUSH1 0x4 PUSH2 0x4B7D JUMP JUMPDEST PUSH2 0x2139 JUMP JUMPDEST PUSH1 0x6 SLOAD PUSH2 0x465 SWAP1 PUSH1 0x1 PUSH1 0x1 PUSH1 0xA0 SHL SUB AND DUP2 JUMP JUMPDEST PUSH2 0x2BE PUSH2 0x4A6 CALLDATASIZE PUSH1 0x4 PUSH2 0x4A31 JUMP JUMPDEST PUSH2 0x2289 JUMP JUMPDEST PUSH2 0x308 PUSH2 0x4B9 CALLDATASIZE PUSH1 0x4 PUSH2 0x4A31 JUMP JUMPDEST PUSH1 0x1 PUSH1 0x1 PUSH1 0xA0 SHL SUB AND PUSH0 SWAP1 DUP2 MSTORE PUSH1 0x1 PUSH1 0x20 MSTORE PUSH1 0x40 SWAP1 KECCAK256 SLOAD SWAP1 JUMP JUMPDEST PUSH1 0xB SLOAD PUSH2 0x4E6 SWAP1 PUSH1 0x1 PUSH1 0x1 PUSH1 0x40 SHL SUB AND DUP2 JUMP JUMPDEST PUSH1 0x40 MLOAD PUSH1 0x1 PUSH1 0x1 PUSH1 0x40 SHL SUB SWAP1 SWAP2 AND DUP2 MSTORE PUSH1 0x20 ADD PUSH2 0x29A JUMP JUMPDEST PUSH2 0x28D PUSH2 0x22C9 JUMP JUMPDEST ADDRESS PUSH2 0x465 JUMP JUMPDEST PUSH2 0x28D PUSH2 0x22D6 JUMP JUMPDEST PUSH2 0x2BE PUSH2 0x522 CALLDATASIZE PUSH1 0x4 PUSH2 0x4DB0 JUMP JUMPDEST PUSH2 0x22E5 JUMP JUMPDEST PUSH2 0x2BE PUSH2 0x535 CALLDATASIZE PUSH1 0x4 PUSH2 0x4E13 JUMP JUMPDEST PUSH2 0x230B JUMP JUMPDEST PUSH2 0x308 PUSH1 0xA SLOAD DUP2 JUMP JUMPDEST PUSH2 0x2BE PUSH2 0x551 CALLDATASIZE PUSH1 0x4 PUSH2 0x4E13 JUMP JUMPDEST PUSH2 0x2331 JUMP JUMPDEST PUSH2 0x2BE PUSH2 0x564 CALLDATASIZE PUSH1 0x4 PUSH2 0x4E13 JUMP JUMPDEST PUSH2 0x235B JUMP JUMPDEST PUSH2 0x2D3 PUSH2 0x577 CALLDATASIZE PUSH1 0x4 PUSH2 0x4A4C JUMP JUMPDEST PUSH2 0x2383 JUMP JUMPDEST PUSH2 0x2BE PUSH2 0x58A CALLDATASIZE PUSH1 0x4 PUSH2 0x4B7D JUMP JUMPDEST PUSH2 0x2390 JUMP JUMPDEST PUSH2 0x2BE PUSH2 0x23A4 JUMP JUMPDEST PUSH2 0x2BE PUSH2 0x5A5 CALLDATASIZE PUSH1 0x4 PUSH2 0x4D2C JUMP JUMPDEST PUSH2 0x243B JUMP JUMPDEST PUSH2 0x5BD PUSH2 0x5B8 CALLDATASIZE PUSH1 0x4 PUSH2 0x4E33 JUMP JUMPDEST PUSH2 0x28BA JUMP JUMPDEST PUSH1 0x40 DUP1 MLOAD PUSH1 0x1 PUSH1 0x1 PUSH1 0x40 SHL SUB SWAP4 DUP5 AND DUP2 MSTORE SWAP3 SWAP1 SWAP2 AND PUSH1 0x20 DUP4 ADD MSTORE ADD PUSH2 0x29A JUMP JUMPDEST PUSH1 0x10 SLOAD PUSH2 0x2D3 SWAP1 PUSH1 0xFF AND DUP2 JUMP JUMPDEST PUSH2 0x4E6 PUSH7 0x3632C8EB5AF3B DUP2 JUMP JUMPDEST PUSH2 0x308 PUSH1 0x7 SLOAD DUP2 JUMP JUMPDEST PUSH2 0x308 PUSH2 0x60F CALLDATASIZE PUSH1 0x4 PUSH2 0x4E6A JUMP JUMPDEST PUSH2 0x2CD5 JUMP JUMPDEST PUSH2 0x2BE PUSH2 0x2CFF JUMP JUMPDEST PUSH2 0x28D PUSH1 0x40 MLOAD DUP1 PUSH1 0x40 ADD PUSH1 0x40 MSTORE DUP1 PUSH1 0xC DUP2 MSTORE PUSH1 0x20 ADD PUSH12 0x4163726F6E796D2047616D65 PUSH1 0xA0 SHL DUP2 MSTORE POP DUP2 JUMP JUMPDEST PUSH1 0x11 DUP1 SLOAD PUSH2 0x654 SWAP1 PUSH2 0x4E96 JUMP JUMPDEST DUP1 PUSH1 0x1F ADD PUSH1 0x20 DUP1 SWAP2 DIV MUL PUSH1 0x20 ADD PUSH1 0x40 MLOAD SWAP1 DUP2 ADD PUSH1 0x40 MSTORE DUP1 SWAP3 SWAP2 SWAP1 DUP2 DUP2 MSTORE PUSH1 0x20 ADD DUP3 DUP1 SLOAD PUSH2 0x680 SWAP1 PUSH2 0x4E96 JUMP JUMPDEST DUP1 ISZERO PUSH2 0x6CB JUMPI DUP1 PUSH1 0x1F LT PUSH2 0x6A2 JUMPI PUSH2 0x100 DUP1 DUP4 SLOAD DIV MUL DUP4 MSTORE SWAP2 PUSH1 0x20 ADD SWAP2 PUSH2 0x6CB JUMP JUMPDEST DUP3 ADD SWAP2 SWAP1 PUSH0 MSTORE PUSH1 0x20 PUSH0 KECCAK256 SWAP1 JUMPDEST DUP2 SLOAD DUP2 MSTORE SWAP1 PUSH1 0x1 ADD SWAP1 PUSH1 0x20 ADD DUP1 DUP4 GT PUSH2 0x6AE JUMPI DUP3 SWAP1 SUB PUSH1 0x1F AND DUP3 ADD SWAP2 JUMPDEST POP POP POP POP POP DUP2 JUMP JUMPDEST PUSH1 0x60 PUSH1 0x4 DUP1 SLOAD PUSH2 0x6E2 SWAP1 PUSH2 0x4E96 JUMP JUMPDEST DUP1 PUSH1 0x1F ADD PUSH1 0x20 DUP1 SWAP2 DIV MUL PUSH1 0x20 ADD PUSH1 0x40 MLOAD SWAP1 DUP2 ADD PUSH1 0x40 MSTORE DUP1 SWAP3 SWAP2 SWAP1 DUP2 DUP2 MSTORE PUSH1 0x20 ADD DUP3 DUP1 SLOAD PUSH2 0x70E SWAP1 PUSH2 0x4E96 JUMP JUMPDEST DUP1 ISZERO PUSH2 0x759 JUMPI DUP1 PUSH1 0x1F LT PUSH2 0x730 JUMPI PUSH2 0x100 DUP1 DUP4 SLOAD DIV MUL DUP4 MSTORE SWAP2 PUSH1 0x20 ADD SWAP2 PUSH2 0x759 JUMP JUMPDEST DUP3 ADD SWAP2 SWAP1 PUSH0 MSTORE PUSH1 0x20 PUSH0 KECCAK256 SWAP1 JUMPDEST DUP2 SLOAD DUP2 MSTORE SWAP1 PUSH1 0x1 ADD SWAP1 PUSH1 0x20 ADD DUP1 DUP4 GT PUSH2 0x73C JUMPI DUP3 SWAP1 SUB PUSH1 0x1F AND DUP3 ADD SWAP2 JUMPDEST POP POP POP POP POP SWAP1 POP SWAP1 JUMP JUMPDEST PUSH1 0x9 SLOAD PUSH1 0x40 MLOAD PUSH4 0x1BD173A9 PUSH1 0xE1 SHL DUP2 MSTORE PUSH0 SWAP2 PUSH1 0x1 PUSH1 0x1 PUSH1 0xA0 SHL SUB AND SWAP1 PUSH4 0x37A2E752 SWAP1 PUSH2 0x793 SWAP1 DUP6 SWAP1 PUSH1 0x4 ADD PUSH2 0x4D9C JUMP JUMPDEST PUSH0 PUSH1 0x40 MLOAD DUP1 DUP4 SUB DUP2 PUSH0 DUP8 GAS CALL ISZERO DUP1 ISZERO PUSH2 0x7AE JUMPI RETURNDATASIZE PUSH0 PUSH0 RETURNDATACOPY RETURNDATASIZE PUSH0 REVERT JUMPDEST POP POP POP POP PUSH1 0x40 MLOAD RETURNDATASIZE PUSH0 DUP3 RETURNDATACOPY PUSH1 0x1F RETURNDATASIZE SWAP1 DUP2 ADD PUSH1 0x1F NOT AND DUP3 ADD PUSH1 0x40 MSTORE PUSH2 0x7D5 SWAP2 SWAP1 DUP2 ADD SWAP1 PUSH2 0x4FDD JUMP JUMPDEST DUP1 MLOAD PUSH1 0x1 PUSH1 0x1 PUSH1 0x40 SHL SUB SWAP1 DUP2 AND PUSH0 DUP2 DUP2 MSTORE PUSH1 0xF PUSH1 0x20 MSTORE PUSH1 0x40 SWAP1 KECCAK256 SLOAD SWAP3 SWAP4 POP SWAP2 AND SUB PUSH2 0x7FE JUMPI POP POP JUMP JUMPDEST DUP1 MLOAD PUSH1 0xE DUP1 SLOAD PUSH1 0x1 DUP2 ADD DUP3 SSTORE PUSH0 SWAP2 DUP3 MSTORE PUSH32 0xBB7B4A454DC3493923482F07822329ED19E8244EFF582CC204F8554C3620C3FD PUSH1 0x4 DUP3 DIV ADD DUP1 SLOAD PUSH1 0x3 SWAP1 SWAP3 AND PUSH1 0x8 MUL PUSH2 0x100 EXP PUSH1 0x1 PUSH1 0x1 PUSH1 0x40 SHL SUB DUP2 DUP2 MUL NOT SWAP1 SWAP4 AND SWAP5 DUP4 AND MUL SWAP4 SWAP1 SWAP4 OR SWAP1 SWAP3 SSTORE PUSH1 0xB SLOAD DUP4 MLOAD DUP4 AND DUP3 MSTORE PUSH1 0xD PUSH1 0x20 MSTORE PUSH1 0x40 SWAP2 DUP3 SWAP1 KECCAK256 DUP1 SLOAD PUSH11 0xFFFFFFFFFFFFFFFF000000 NOT AND SWAP2 SWAP1 SWAP4 AND PUSH4 0x1000000 MUL OR SWAP1 SWAP2 SSTORE DUP2 MLOAD DUP2 DUP4 ADD MLOAD SWAP2 MLOAD PUSH32 0xC02CEE0C9A21C735C27F92D6AF5FE1AAE726D5DF0EF83396FC3FB15DFAFFE1C4 SWAP3 PUSH2 0x8C2 SWAP3 SWAP2 PUSH2 0x5086 JUMP JUMPDEST PUSH1 0x40 MLOAD DUP1 SWAP2 SUB SWAP1 LOG1 DUP1 MLOAD PUSH1 0x9 SLOAD PUSH1 0x40 DUP1 MLOAD PUSH4 0x3D3DB08B PUSH1 0xE2 SHL DUP2 MSTORE SWAP1 MLOAD PUSH2 0xA22 SWAP4 SWAP3 PUSH1 0x1 PUSH1 0x1 PUSH1 0xA0 SHL SUB AND SWAP2 PUSH4 0xF4F6C22C SWAP2 PUSH1 0x4 DUP1 DUP4 ADD SWAP3 PUSH1 0x20 SWAP3 SWAP2 SWAP1 DUP3 SWAP1 SUB ADD DUP2 DUP7 GAS STATICCALL ISZERO DUP1 ISZERO PUSH2 0x916 JUMPI RETURNDATASIZE PUSH0 PUSH0 RETURNDATACOPY RETURNDATASIZE PUSH0 REVERT JUMPDEST POP POP POP POP PUSH1 0x40 MLOAD RETURNDATASIZE PUSH1 0x1F NOT PUSH1 0x1F DUP3 ADD AND DUP3 ADD DUP1 PUSH1 0x40 MSTORE POP DUP2 ADD SWAP1 PUSH2 0x93A SWAP2 SWAP1 PUSH2 0x50A7 JUMP JUMPDEST PUSH1 0x1 PUSH1 0x1 PUSH1 0xA0 SHL SUB AND PUSH4 0x9FF43001 PUSH1 0x40 MLOAD DUP2 PUSH4 0xFFFFFFFF AND PUSH1 0xE0 SHL DUP2 MSTORE PUSH1 0x4 ADD PUSH1 0x20 PUSH1 0x40 MLOAD DUP1 DUP4 SUB DUP2 PUSH0 DUP8 GAS CALL ISZERO DUP1 ISZERO PUSH2 0x976 JUMPI RETURNDATASIZE PUSH0 PUSH0 RETURNDATACOPY RETURNDATASIZE PUSH0 REVERT JUMPDEST POP POP POP POP PUSH1 0x40 MLOAD RETURNDATASIZE PUSH1 0x1F NOT PUSH1 0x1F DUP3 ADD AND DUP3 ADD DUP1 PUSH1 0x40 MSTORE POP DUP2 ADD SWAP1 PUSH2 0x99A SWAP2 SWAP1 PUSH2 0x50A7 JUMP JUMPDEST PUSH1 0x1 PUSH1 0x1 PUSH1 0xA0 SHL SUB AND PUSH4 0x27BACC40 PUSH1 0x40 MLOAD DUP2 PUSH4 0xFFFFFFFF AND PUSH1 0xE0 SHL DUP2 MSTORE PUSH1 0x4 ADD PUSH1 0x20 PUSH1 0x40 MLOAD DUP1 DUP4 SUB DUP2 DUP7 GAS STATICCALL ISZERO DUP1 ISZERO PUSH2 0x9D5 JUMPI RETURNDATASIZE PUSH0 PUSH0 RETURNDATACOPY RETURNDATASIZE PUSH0 REVERT JUMPDEST POP POP POP POP PUSH1 0x40 MLOAD RETURNDATASIZE PUSH1 0x1F NOT PUSH1 0x1F DUP3 ADD AND DUP3 ADD DUP1 PUSH1 0x40 MSTORE POP DUP2 ADD SWAP1 PUSH2 0x9F9 SWAP2 SWAP1 PUSH2 0x50C2 JUMP JUMPDEST DUP4 PUSH1 0x40 ADD MLOAD PUSH1 0x40 MLOAD PUSH1 0x20 ADD PUSH2 0xA0E SWAP2 SWAP1 PUSH2 0x50F4 JUMP JUMPDEST PUSH1 0x40 MLOAD PUSH1 0x20 DUP2 DUP4 SUB SUB DUP2 MSTORE SWAP1 PUSH1 0x40 MSTORE PUSH2 0x2D0F JUMP JUMPDEST DUP1 MLOAD PUSH1 0x1 PUSH1 0x1 PUSH1 0x40 SHL SUB SWAP1 DUP2 AND PUSH0 SWAP1 DUP2 MSTORE PUSH1 0xF PUSH1 0x20 SWAP1 DUP2 MSTORE PUSH1 0x40 SWAP2 DUP3 SWAP1 KECCAK256 DUP5 MLOAD DUP2 SLOAD PUSH1 0x1 PUSH1 0x1 PUSH1 0x40 SHL SUB NOT AND SWAP1 DUP6 AND OR DUP2 SSTORE DUP2 DUP6 ADD MLOAD DUP1 MLOAD PUSH1 0x1 DUP4 ADD DUP1 SLOAD PUSH1 0x1 PUSH1 0x1 PUSH1 0xA0 SHL SUB NOT AND PUSH1 0x1 PUSH1 0x1 PUSH1 0xA0 SHL SUB SWAP3 DUP4 AND OR SWAP1 SSTORE SWAP3 DUP2 ADD MLOAD PUSH1 0x2 DUP4 ADD DUP1 SLOAD DUP4 DUP8 ADD MLOAD SWAP3 DUP7 AND PUSH1 0x1 PUSH1 0x1 PUSH1 0xE0 SHL SUB NOT SWAP2 DUP3 AND OR PUSH1 0x1 PUSH1 0xA0 SHL SWAP4 DUP10 AND SWAP4 SWAP1 SWAP4 MUL SWAP3 SWAP1 SWAP3 OR SWAP1 SSTORE PUSH1 0x60 DUP3 ADD MLOAD PUSH1 0x3 DUP5 ADD DUP1 SLOAD PUSH1 0x80 DUP6 ADD MLOAD SWAP3 DUP10 AND SWAP4 AND SWAP3 SWAP1 SWAP3 OR PUSH1 0x1 PUSH1 0x40 SHL SWAP2 SWAP1 SWAP6 AND DUP2 MUL SWAP5 SWAP1 SWAP5 OR SWAP1 SSTORE PUSH1 0xA0 DUP2 ADD MLOAD PUSH1 0x4 DUP4 ADD DUP1 SLOAD PUSH1 0xC0 DUP5 ADD MLOAD PUSH1 0xE0 SWAP1 SWAP5 ADD MLOAD SWAP3 DUP9 AND PUSH1 0x1 PUSH1 0x1 PUSH1 0x80 SHL SUB NOT SWAP1 SWAP2 AND OR SWAP3 DUP8 AND SWAP1 SWAP5 MUL SWAP2 SWAP1 SWAP2 OR PUSH8 0xFFFFFFFFFFFFFFFF PUSH1 0x80 SHL NOT AND PUSH1 0x1 PUSH1 0x80 SHL SWAP2 SWAP1 SWAP6 AND MUL SWAP4 SWAP1 SWAP4 OR SWAP1 SSTORE DUP3 ADD MLOAD DUP3 SWAP2 SWAP1 PUSH1 0x5 DUP3 ADD SWAP1 PUSH2 0xB35 SWAP1 DUP3 PUSH2 0x5166 JUMP JUMPDEST POP PUSH1 0x60 SWAP2 SWAP1 SWAP2 ADD MLOAD PUSH1 0x6 SWAP1 SWAP2 ADD DUP1 SLOAD PUSH1 0x1 PUSH1 0x1 PUSH1 0x40 SHL SUB NOT AND PUSH1 0x1 PUSH1 0x1 PUSH1 0x40 SHL SUB SWAP1 SWAP3 AND SWAP2 SWAP1 SWAP2 OR SWAP1 SSTORE DUP1 MLOAD PUSH1 0x9 SLOAD PUSH1 0x40 DUP1 MLOAD PUSH4 0x3D3DB08B PUSH1 0xE2 SHL DUP2 MSTORE SWAP1 MLOAD PUSH2 0xC8E SWAP4 SWAP3 PUSH1 0x1 PUSH1 0x1 PUSH1 0xA0 SHL SUB AND SWAP2 PUSH4 0xF4F6C22C SWAP2 PUSH1 0x4 DUP1 DUP4 ADD SWAP3 PUSH1 0x20 SWAP3 SWAP2 SWAP1 DUP3 SWAP1 SUB ADD DUP2 DUP7 GAS STATICCALL ISZERO DUP1 ISZERO PUSH2 0xBAB JUMPI RETURNDATASIZE PUSH0 PUSH0 RETURNDATACOPY RETURNDATASIZE PUSH0 REVERT JUMPDEST POP POP POP POP PUSH1 0x40 MLOAD RETURNDATASIZE PUSH1 0x1F NOT PUSH1 0x1F DUP3 ADD AND DUP3 ADD DUP1 PUSH1 0x40 MSTORE POP DUP2 ADD SWAP1 PUSH2 0xBCF SWAP2 SWAP1 PUSH2 0x50A7 JUMP JUMPDEST PUSH1 0x1 PUSH1 0x1 PUSH1 0xA0 SHL SUB AND PUSH4 0x9FF43001 PUSH1 0x40 MLOAD DUP2 PUSH4 0xFFFFFFFF AND PUSH1 0xE0 SHL DUP2 MSTORE PUSH1 0x4 ADD PUSH1 0x20 PUSH1 0x40 MLOAD DUP1 DUP4 SUB DUP2 PUSH0 DUP8 GAS CALL ISZERO DUP1 ISZERO PUSH2 0xC0B JUMPI RETURNDATASIZE PUSH0 PUSH0 RETURNDATACOPY RETURNDATASIZE PUSH0 REVERT JUMPDEST POP POP POP POP PUSH1 0x40 MLOAD RETURNDATASIZE PUSH1 0x1F NOT PUSH1 0x1F DUP3 ADD AND DUP3 ADD DUP1 PUSH1 0x40 MSTORE POP DUP2 ADD SWAP1 PUSH2 0xC2F SWAP2 SWAP1 PUSH2 0x50A7 JUMP JUMPDEST PUSH1 0x1 PUSH1 0x1 PUSH1 0xA0 SHL SUB AND PUSH4 0x27BACC40 PUSH1 0x40 MLOAD DUP2 PUSH4 0xFFFFFFFF AND PUSH1 0xE0 SHL DUP2 MSTORE PUSH1 0x4 ADD PUSH1 0x20 PUSH1 0x40 MLOAD DUP1 DUP4 SUB DUP2 DUP7 GAS STATICCALL ISZERO DUP1 ISZERO PUSH2 0xC6A JUMPI RETURNDATASIZE PUSH0 PUSH0 RETURNDATACOPY RETURNDATASIZE PUSH0 REVERT JUMPDEST POP POP POP POP PUSH1 0x40 MLOAD RETURNDATASIZE PUSH1 0x1F NOT PUSH1 0x1F DUP3 ADD AND DUP3 ADD DUP1 PUSH1 0x40 MSTORE POP DUP2 ADD SWAP1 PUSH2 0x5B8 SWAP2 SWAP1 PUSH2 0x50C2 JUMP JUMPDEST PUSH1 0x20 DUP4 ADD MLOAD PUSH1 0x1 PUSH1 0x1 PUSH1 0x40 SHL SUB SWAP2 DUP3 AND PUSH1 0xE0 DUP3 ADD MSTORE SWAP2 AND PUSH1 0xC0 SWAP1 SWAP2 ADD MSTORE PUSH1 0x10 SLOAD PUSH1 0xFF AND ISZERO DUP1 ISZERO PUSH2 0xCCD JUMPI POP PUSH1 0x14 SLOAD PUSH1 0xE SLOAD PUSH4 0x1000000 SWAP1 SWAP2 DIV PUSH1 0xFF AND GT ISZERO JUMPDEST ISZERO PUSH2 0xCDA JUMPI PUSH2 0xCDA PUSH2 0x2D53 JUMP JUMPDEST POP POP JUMP JUMPDEST PUSH0 CALLER PUSH2 0xCEB DUP2 DUP6 DUP6 PUSH2 0x311E JUMP JUMPDEST PUSH1 0x1 SWAP2 POP POP JUMPDEST SWAP3 SWAP2 POP POP JUMP JUMPDEST PUSH2 0xCFF PUSH2 0x312B JUMP JUMPDEST PUSH1 0x10 SLOAD PUSH1 0xFF AND ISZERO DUP1 ISZERO PUSH2 0xD13 JUMPI POP PUSH1 0xE SLOAD ISZERO ISZERO JUMPDEST ISZERO PUSH2 0xF49 JUMPI PUSH1 0x9 SLOAD PUSH1 0x40 DUP1 MLOAD PUSH4 0x70F6B739 PUSH1 0xE1 SHL DUP2 MSTORE SWAP1 MLOAD PUSH0 SWAP3 PUSH1 0x1 PUSH1 0x1 PUSH1 0xA0 SHL SUB AND SWAP2 PUSH4 0xE1ED6E72 SWAP2 PUSH1 0x4 DUP1 DUP4 ADD SWAP3 PUSH1 0x20 SWAP3 SWAP2 SWAP1 DUP3 SWAP1 SUB ADD DUP2 DUP7 GAS STATICCALL ISZERO DUP1 ISZERO PUSH2 0xD5F JUMPI RETURNDATASIZE PUSH0 PUSH0 RETURNDATACOPY RETURNDATASIZE PUSH0 REVERT JUMPDEST POP POP POP POP PUSH1 0x40 MLOAD RETURNDATASIZE PUSH1 0x1F NOT PUSH1 0x1F DUP3 ADD AND DUP3 ADD DUP1 PUSH1 0x40 MSTORE POP DUP2 ADD SWAP1 PUSH2 0xD83 SWAP2 SWAP1 PUSH2 0x50C2 JUMP JUMPDEST PUSH1 0x1 PUSH1 0x1 PUSH1 0x40 SHL SUB DUP1 DUP3 AND PUSH0 SWAP1 DUP2 MSTORE PUSH1 0xF PUSH1 0x20 SWAP1 DUP2 MSTORE PUSH1 0x40 DUP1 DUP4 KECCAK256 DUP2 MLOAD PUSH1 0x80 DUP1 DUP3 ADD DUP5 MSTORE DUP3 SLOAD DUP8 AND DUP3 MSTORE DUP4 MLOAD PUSH2 0x100 DUP2 ADD DUP6 MSTORE PUSH1 0x1 DUP5 ADD SLOAD PUSH1 0x1 PUSH1 0x1 PUSH1 0xA0 SHL SUB SWAP1 DUP2 AND DUP3 MSTORE PUSH1 0x2 DUP6 ADD SLOAD DUP1 DUP3 AND DUP4 DUP10 ADD MSTORE PUSH1 0x1 PUSH1 0xA0 SHL SWAP1 DIV DUP10 AND DUP3 DUP8 ADD MSTORE PUSH1 0x3 DUP6 ADD SLOAD DUP1 DUP11 AND PUSH1 0x60 DUP5 ADD MSTORE PUSH1 0x1 PUSH1 0x40 SHL SWAP1 DUP2 SWAP1 DIV SWAP1 SWAP2 AND SWAP3 DUP3 ADD SWAP3 SWAP1 SWAP3 MSTORE PUSH1 0x4 DUP5 ADD SLOAD DUP1 DUP10 AND PUSH1 0xA0 DUP4 ADD MSTORE SWAP2 DUP3 DIV DUP9 AND PUSH1 0xC0 DUP3 ADD MSTORE PUSH1 0x1 PUSH1 0x80 SHL SWAP1 SWAP2 DIV SWAP1 SWAP7 AND PUSH1 0xE0 DUP8 ADD MSTORE SWAP3 DUP4 ADD SWAP5 SWAP1 SWAP5 MSTORE PUSH1 0x5 DUP5 ADD DUP1 SLOAD SWAP6 SWAP7 POP SWAP3 SWAP5 SWAP2 SWAP4 SWAP3 SWAP1 DUP5 ADD SWAP2 PUSH2 0xE4A SWAP1 PUSH2 0x4E96 JUMP JUMPDEST DUP1 PUSH1 0x1F ADD PUSH1 0x20 DUP1 SWAP2 DIV MUL PUSH1 0x20 ADD PUSH1 0x40 MLOAD SWAP1 DUP2 ADD PUSH1 0x40 MSTORE DUP1 SWAP3 SWAP2 SWAP1 DUP2 DUP2 MSTORE PUSH1 0x20 ADD DUP3 DUP1 SLOAD PUSH2 0xE76 SWAP1 PUSH2 0x4E96 JUMP JUMPDEST DUP1 ISZERO PUSH2 0xEC1 JUMPI DUP1 PUSH1 0x1F LT PUSH2 0xE98 JUMPI PUSH2 0x100 DUP1 DUP4 SLOAD DIV MUL DUP4 MSTORE SWAP2 PUSH1 0x20 ADD SWAP2 PUSH2 0xEC1 JUMP JUMPDEST DUP3 ADD SWAP2 SWAP1 PUSH0 MSTORE PUSH1 0x20 PUSH0 KECCAK256 SWAP1 JUMPDEST DUP2 SLOAD DUP2 MSTORE SWAP1 PUSH1 0x1 ADD SWAP1 PUSH1 0x20 ADD DUP1 DUP4 GT PUSH2 0xEA4 JUMPI DUP3 SWAP1 SUB PUSH1 0x1F AND DUP3 ADD SWAP2 JUMPDEST POP POP POP SWAP2 DUP4 MSTORE POP POP PUSH1 0x6 SWAP2 SWAP1 SWAP2 ADD SLOAD PUSH1 0x1 PUSH1 0x1 PUSH1 0x40 SHL SUB SWAP1 DUP2 AND PUSH1 0x20 SWAP3 DUP4 ADD MSTORE DUP3 MLOAD DUP2 AND PUSH0 SWAP1 DUP2 MSTORE PUSH1 0xF SWAP1 SWAP3 MSTORE PUSH1 0x40 DUP3 KECCAK256 SLOAD SWAP3 SWAP4 POP SWAP2 SWAP1 SWAP2 AND SWAP1 SUB PUSH2 0xF2C JUMPI DUP1 MLOAD PUSH1 0x40 MLOAD PUSH4 0xA27710C1 PUSH1 0xE0 SHL DUP2 MSTORE PUSH1 0x1 PUSH1 0x1 PUSH1 0x40 SHL SUB SWAP1 SWAP2 AND PUSH1 0x4 DUP3 ADD MSTORE PUSH1 0x24 ADD JUMPDEST PUSH1 0x40 MLOAD DUP1 SWAP2 SUB SWAP1 REVERT JUMPDEST PUSH2 0xF34 PUSH2 0x2D53 JUMP JUMPDEST PUSH1 0x10 DUP1 SLOAD PUSH1 0xFF NOT AND PUSH1 0x1 OR SWAP1 SSTORE PUSH2 0xCDA PUSH2 0x316B JUMP JUMPDEST JUMP JUMPDEST PUSH1 0x9 SLOAD PUSH1 0x40 DUP1 MLOAD PUSH4 0x70F6B739 PUSH1 0xE1 SHL DUP2 MSTORE SWAP1 MLOAD PUSH0 SWAP3 PUSH1 0x1 PUSH1 0x1 PUSH1 0xA0 SHL SUB AND SWAP2 PUSH4 0xE1ED6E72 SWAP2 PUSH1 0x4 DUP1 DUP4 ADD SWAP3 PUSH1 0x20 SWAP3 SWAP2 SWAP1 DUP3 SWAP1 SUB ADD DUP2 DUP7 GAS STATICCALL ISZERO DUP1 ISZERO PUSH2 0xF92 JUMPI RETURNDATASIZE PUSH0 PUSH0 RETURNDATACOPY RETURNDATASIZE PUSH0 REVERT JUMPDEST POP POP POP POP PUSH1 0x40 MLOAD RETURNDATASIZE PUSH1 0x1F NOT PUSH1 0x1F DUP3 ADD AND DUP3 ADD DUP1 PUSH1 0x40 MSTORE POP DUP2 ADD SWAP1 PUSH2 0xFB6 SWAP2 SWAP1 PUSH2 0x50C2 JUMP JUMPDEST SWAP1 POP PUSH1 0x9 PUSH0 SWAP1 SLOAD SWAP1 PUSH2 0x100 EXP SWAP1 DIV PUSH1 0x1 PUSH1 0x1 PUSH1 0xA0 SHL SUB AND PUSH1 0x1 PUSH1 0x1 PUSH1 0xA0 SHL SUB AND PUSH4 0x47122623 PUSH1 0x40 MLOAD DUP2 PUSH4 0xFFFFFFFF AND PUSH1 0xE0 SHL DUP2 MSTORE PUSH1 0x4 ADD PUSH1 0x20 PUSH1 0x40 MLOAD DUP1 DUP4 SUB DUP2 DUP7 GAS STATICCALL ISZERO DUP1 ISZERO PUSH2 0x1008 JUMPI RETURNDATASIZE PUSH0 PUSH0 RETURNDATACOPY RETURNDATASIZE PUSH0 REVERT JUMPDEST POP POP POP POP PUSH1 0x40 MLOAD RETURNDATASIZE PUSH1 0x1F NOT PUSH1 0x1F DUP3 ADD AND DUP3 ADD DUP1 PUSH1 0x40 MSTORE POP DUP2 ADD SWAP1 PUSH2 0x102C SWAP2 SWAP1 PUSH2 0x50A7 JUMP JUMPDEST PUSH1 0x1 PUSH1 0x1 PUSH1 0xA0 SHL SUB AND PUSH4 0x1158B0C PUSH1 0x11 DUP5 PUSH1 0x40 MLOAD DUP4 PUSH4 0xFFFFFFFF AND PUSH1 0xE0 SHL DUP2 MSTORE PUSH1 0x4 ADD PUSH2 0x105A SWAP3 SWAP2 SWAP1 PUSH2 0x529F JUMP JUMPDEST PUSH1 0x20 PUSH1 0x40 MLOAD DUP1 DUP4 SUB DUP2 DUP7 GAS STATICCALL ISZERO DUP1 ISZERO PUSH2 0x1075 JUMPI RETURNDATASIZE PUSH0 PUSH0 RETURNDATACOPY RETURNDATASIZE PUSH0 REVERT JUMPDEST POP POP POP POP PUSH1 0x40 MLOAD RETURNDATASIZE PUSH1 0x1F NOT PUSH1 0x1F DUP3 ADD AND DUP3 ADD DUP1 PUSH1 0x40 MSTORE POP DUP2 ADD SWAP1 PUSH2 0x1099 SWAP2 SWAP1 PUSH2 0x52C3 JUMP JUMPDEST ISZERO PUSH2 0x11FF JUMPI PUSH1 0x1 PUSH1 0x1 PUSH1 0x40 SHL SUB DUP1 DUP3 AND PUSH0 SWAP1 DUP2 MSTORE PUSH1 0xF PUSH1 0x20 SWAP1 DUP2 MSTORE PUSH1 0x40 SWAP2 DUP3 SWAP1 KECCAK256 DUP3 MLOAD PUSH1 0x80 DUP1 DUP3 ADD DUP6 MSTORE DUP3 SLOAD DUP7 AND DUP3 MSTORE DUP5 MLOAD PUSH2 0x100 DUP2 ADD DUP7 MSTORE PUSH1 0x1 DUP5 ADD SLOAD PUSH1 0x1 PUSH1 0x1 PUSH1 0xA0 SHL SUB SWAP1 DUP2 AND DUP3 MSTORE PUSH1 0x2 DUP6 ADD SLOAD DUP1 DUP3 AND DUP4 DUP9 ADD MSTORE PUSH1 0x1 PUSH1 0xA0 SHL SWAP1 DIV DUP9 AND DUP3 DUP9 ADD MSTORE PUSH1 0x3 DUP6 ADD SLOAD DUP1 DUP10 AND PUSH1 0x60 DUP5 ADD MSTORE PUSH1 0x1 PUSH1 0x40 SHL SWAP1 DUP2 SWAP1 DIV SWAP1 SWAP2 AND SWAP3 DUP3 ADD SWAP3 SWAP1 SWAP3 MSTORE PUSH1 0x4 DUP5 ADD SLOAD DUP1 DUP9 AND PUSH1 0xA0 DUP4 ADD MSTORE SWAP2 DUP3 DIV DUP8 AND PUSH1 0xC0 DUP3 ADD MSTORE PUSH1 0x1 PUSH1 0x80 SHL SWAP1 SWAP2 DIV SWAP1 SWAP6 AND PUSH1 0xE0 DUP7 ADD MSTORE SWAP2 DUP3 ADD SWAP4 SWAP1 SWAP4 MSTORE PUSH1 0x5 DUP4 ADD DUP1 SLOAD PUSH2 0xCDA SWAP5 SWAP3 SWAP4 DUP5 ADD SWAP2 SWAP1 PUSH2 0x1164 SWAP1 PUSH2 0x4E96 JUMP JUMPDEST DUP1 PUSH1 0x1F ADD PUSH1 0x20 DUP1 SWAP2 DIV MUL PUSH1 0x20 ADD PUSH1 0x40 MLOAD SWAP1 DUP2 ADD PUSH1 0x40 MSTORE DUP1 SWAP3 SWAP2 SWAP1 DUP2 DUP2 MSTORE PUSH1 0x20 ADD DUP3 DUP1 SLOAD PUSH2 0x1190 SWAP1 PUSH2 0x4E96 JUMP JUMPDEST DUP1 ISZERO PUSH2 0x11DB JUMPI DUP1 PUSH1 0x1F LT PUSH2 0x11B2 JUMPI PUSH2 0x100 DUP1 DUP4 SLOAD DIV MUL DUP4 MSTORE SWAP2 PUSH1 0x20 ADD SWAP2 PUSH2 0x11DB JUMP JUMPDEST DUP3 ADD SWAP2 SWAP1 PUSH0 MSTORE PUSH1 0x20 PUSH0 KECCAK256 SWAP1 JUMPDEST DUP2 SLOAD DUP2 MSTORE SWAP1 PUSH1 0x1 ADD SWAP1 PUSH1 0x20 ADD DUP1 DUP4 GT PUSH2 0x11BE JUMPI DUP3 SWAP1 SUB PUSH1 0x1F AND DUP3 ADD SWAP2 JUMPDEST POP POP POP SWAP2 DUP4 MSTORE POP POP PUSH1 0x6 SWAP2 SWAP1 SWAP2 ADD SLOAD PUSH1 0x1 PUSH1 0x1 PUSH1 0x40 SHL SUB AND PUSH1 0x20 SWAP1 SWAP2 ADD MSTORE DUP4 PUSH2 0x32F2 JUMP JUMPDEST PUSH2 0x1363 DUP2 PUSH1 0x9 PUSH0 SWAP1 SLOAD SWAP1 PUSH2 0x100 EXP SWAP1 DIV PUSH1 0x1 PUSH1 0x1 PUSH1 0xA0 SHL SUB AND PUSH1 0x1 PUSH1 0x1 PUSH1 0xA0 SHL SUB AND PUSH4 0xF4F6C22C PUSH1 0x40 MLOAD DUP2 PUSH4 0xFFFFFFFF AND PUSH1 0xE0 SHL DUP2 MSTORE PUSH1 0x4 ADD PUSH1 0x20 PUSH1 0x40 MLOAD DUP1 DUP4 SUB DUP2 DUP7 GAS STATICCALL ISZERO DUP1 ISZERO PUSH2 0x1253 JUMPI RETURNDATASIZE PUSH0 PUSH0 RETURNDATACOPY RETURNDATASIZE PUSH0 REVERT JUMPDEST POP POP POP POP PUSH1 0x40 MLOAD RETURNDATASIZE PUSH1 0x1F NOT PUSH1 0x1F DUP3 ADD AND DUP3 ADD DUP1 PUSH1 0x40 MSTORE POP DUP2 ADD SWAP1 PUSH2 0x1277 SWAP2 SWAP1 PUSH2 0x50A7 JUMP JUMPDEST PUSH1 0x1 PUSH1 0x1 PUSH1 0xA0 SHL SUB AND PUSH4 0x9FF43001 PUSH1 0x40 MLOAD DUP2 PUSH4 0xFFFFFFFF AND PUSH1 0xE0 SHL DUP2 MSTORE PUSH1 0x4 ADD PUSH1 0x20 PUSH1 0x40 MLOAD DUP1 DUP4 SUB DUP2 PUSH0 DUP8 GAS CALL ISZERO DUP1 ISZERO PUSH2 0x12B3 JUMPI RETURNDATASIZE PUSH0 PUSH0 RETURNDATACOPY RETURNDATASIZE PUSH0 REVERT JUMPDEST POP POP POP POP PUSH1 0x40 MLOAD RETURNDATASIZE PUSH1 0x1F NOT PUSH1 0x1F DUP3 ADD AND DUP3 ADD DUP1 PUSH1 0x40 MSTORE POP DUP2 ADD SWAP1 PUSH2 0x12D7 SWAP2 SWAP1 PUSH2 0x50A7 JUMP JUMPDEST PUSH1 0x1 PUSH1 0x1 PUSH1 0xA0 SHL SUB AND PUSH4 0x27BACC40 PUSH1 0x40 MLOAD DUP2 PUSH4 0xFFFFFFFF AND PUSH1 0xE0 SHL DUP2 MSTORE PUSH1 0x4 ADD PUSH1 0x20 PUSH1 0x40 MLOAD DUP1 DUP4 SUB DUP2 DUP7 GAS STATICCALL ISZERO DUP1 ISZERO PUSH2 0x1312 JUMPI RETURNDATASIZE PUSH0 PUSH0 RETURNDATACOPY RETURNDATASIZE PUSH0 REVERT JUMPDEST POP POP POP POP PUSH1 0x40 MLOAD RETURNDATASIZE PUSH1 0x1F NOT PUSH1 0x1F DUP3 ADD AND DUP3 ADD DUP1 PUSH1 0x40 MSTORE POP DUP2 ADD SWAP1 PUSH2 0x1336 SWAP2 SWAP1 PUSH2 0x50C2 JUMP JUMPDEST PUSH1 0x1 PUSH1 0x1 PUSH1 0x40 SHL SUB DUP5 AND PUSH0 SWAP1 DUP2 MSTORE PUSH1 0xF PUSH1 0x20 SWAP1 DUP2 MSTORE PUSH1 0x40 SWAP2 DUP3 SWAP1 KECCAK256 SWAP2 MLOAD PUSH2 0xA0E SWAP3 PUSH1 0x5 ADD SWAP2 DUP9 SWAP2 ADD PUSH2 0x534D JUMP JUMPDEST PUSH1 0x9 PUSH0 SWAP1 SLOAD SWAP1 PUSH2 0x100 EXP SWAP1 DIV PUSH1 0x1 PUSH1 0x1 PUSH1 0xA0 SHL SUB AND PUSH1 0x1 PUSH1 0x1 PUSH1 0xA0 SHL SUB AND PUSH4 0x929C6CA9 PUSH1 0x40 MLOAD DUP2 PUSH4 0xFFFFFFFF AND PUSH1 0xE0 SHL DUP2 MSTORE PUSH1 0x4 ADD PUSH1 0x20 PUSH1 0x40 MLOAD DUP1 DUP4 SUB DUP2 DUP7 GAS STATICCALL ISZERO DUP1 ISZERO PUSH2 0x13B3 JUMPI RETURNDATASIZE PUSH0 PUSH0 RETURNDATACOPY RETURNDATASIZE PUSH0 REVERT JUMPDEST POP POP POP POP PUSH1 0x40 MLOAD RETURNDATASIZE PUSH1 0x1F NOT PUSH1 0x1F DUP3 ADD AND DUP3 ADD DUP1 PUSH1 0x40 MSTORE POP DUP2 ADD SWAP1 PUSH2 0x13D7 SWAP2 SWAP1 PUSH2 0x50A7 JUMP JUMPDEST PUSH1 0x1 PUSH1 0x1 PUSH1 0x40 SHL SUB DUP3 AND PUSH0 SWAP1 DUP2 MSTORE PUSH1 0xF PUSH1 0x20 MSTORE PUSH1 0x40 SWAP1 DUP2 SWAP1 KECCAK256 SWAP1 MLOAD PUSH4 0x766B44F5 PUSH1 0xE1 SHL DUP2 MSTORE PUSH1 0x1 PUSH1 0x1 PUSH1 0xA0 SHL SUB SWAP3 SWAP1 SWAP3 AND SWAP2 PUSH4 0xECD689EA SWAP2 PUSH2 0x141B SWAP2 PUSH1 0x4 ADD PUSH2 0x5377 JUMP JUMPDEST PUSH1 0x40 DUP1 MLOAD DUP1 DUP4 SUB DUP2 PUSH0 DUP8 GAS CALL ISZERO DUP1 ISZERO PUSH2 0x1436 JUMPI RETURNDATASIZE PUSH0 PUSH0 RETURNDATACOPY RETURNDATASIZE PUSH0 REVERT JUMPDEST POP POP POP POP PUSH1 0x40 MLOAD RETURNDATASIZE PUSH1 0x1F NOT PUSH1 0x1F DUP3 ADD AND DUP3 ADD DUP1 PUSH1 0x40 MSTORE POP DUP2 ADD SWAP1 PUSH2 0x145A SWAP2 SWAP1 PUSH2 0x5477 JUMP JUMPDEST PUSH1 0x1 PUSH1 0x1 PUSH1 0x40 SHL SUB DUP4 DUP2 AND PUSH0 SWAP1 DUP2 MSTORE PUSH1 0xF PUSH1 0x20 MSTORE PUSH1 0x40 SWAP1 DUP2 SWAP1 KECCAK256 PUSH1 0x4 SWAP1 DUP2 ADD DUP1 SLOAD PUSH1 0x1 PUSH1 0x40 SHL PUSH1 0x1 PUSH1 0xC0 SHL SUB NOT AND PUSH1 0x1 PUSH1 0x80 SHL SWAP6 DUP6 AND DUP7 MUL PUSH1 0x1 PUSH1 0x40 SHL PUSH1 0x1 PUSH1 0x80 SHL SUB NOT AND OR PUSH1 0x1 PUSH1 0x40 SHL SWAP7 DUP6 AND SWAP7 SWAP1 SWAP7 MUL SWAP6 SWAP1 SWAP6 OR SWAP5 DUP6 SWAP1 SSTORE PUSH1 0x9 SLOAD SWAP2 MLOAD PUSH4 0x3B8052C9 PUSH1 0xE0 SHL DUP2 MSTORE SWAP4 SWAP1 SWAP5 DIV SWAP1 SWAP2 AND SWAP3 DUP3 ADD SWAP3 SWAP1 SWAP3 MSTORE PUSH1 0x1 PUSH1 0x1 PUSH1 0xA0 SHL SUB SWAP1 SWAP2 AND SWAP1 PUSH4 0x3B8052C9 SWAP1 PUSH1 0x24 ADD PUSH1 0x40 DUP1 MLOAD DUP1 DUP4 SUB DUP2 PUSH0 DUP8 GAS CALL ISZERO DUP1 ISZERO PUSH2 0x1501 JUMPI RETURNDATASIZE PUSH0 PUSH0 RETURNDATACOPY RETURNDATASIZE PUSH0 REVERT JUMPDEST POP POP POP POP PUSH1 0x40 MLOAD RETURNDATASIZE PUSH1 0x1F NOT PUSH1 0x1F DUP3 ADD AND DUP3 ADD DUP1 PUSH1 0x40 MSTORE POP DUP2 ADD SWAP1 PUSH2 0x1525 SWAP2 SWAP1 PUSH2 0x5477 JUMP JUMPDEST PUSH1 0x1 PUSH1 0x1 PUSH1 0x40 SHL SUB DUP1 DUP5 AND PUSH0 SWAP1 DUP2 MSTORE PUSH1 0xF PUSH1 0x20 MSTORE PUSH1 0x40 SWAP1 KECCAK256 PUSH1 0x4 ADD DUP1 SLOAD SWAP4 DUP3 AND PUSH1 0x1 PUSH1 0x40 SHL MUL PUSH1 0x1 PUSH1 0x40 SHL PUSH1 0x1 PUSH1 0x80 SHL SUB NOT SWAP4 SWAP1 SWAP3 AND PUSH1 0x1 PUSH1 0x80 SHL MUL SWAP3 SWAP1 SWAP3 AND PUSH1 0x1 PUSH1 0x40 SHL PUSH1 0x1 PUSH1 0xC0 SHL SUB NOT SWAP1 SWAP4 AND SWAP3 SWAP1 SWAP3 OR SWAP2 SWAP1 SWAP2 OR SWAP1 SSTORE POP POP JUMP JUMPDEST PUSH1 0x1 PUSH1 0x1 PUSH1 0xA0 SHL SUB DUP3 AND PUSH0 SWAP1 DUP2 MSTORE PUSH1 0x8 PUSH1 0x20 MSTORE PUSH1 0x40 DUP2 KECCAK256 SLOAD SWAP1 SUB PUSH2 0x15BB JUMPI DUP2 PUSH1 0x40 MLOAD PUSH4 0x90B23441 PUSH1 0xE0 SHL DUP2 MSTORE PUSH1 0x4 ADD PUSH2 0xF23 SWAP2 SWAP1 PUSH2 0x4D9C JUMP JUMPDEST DUP2 PUSH0 PUSH2 0x15C9 PUSH1 0x12 PUSH1 0xA PUSH2 0x559B JUMP JUMPDEST PUSH1 0x1 PUSH1 0x1 PUSH1 0xA0 SHL SUB DUP6 AND PUSH0 SWAP1 DUP2 MSTORE PUSH1 0x8 PUSH1 0x20 MSTORE PUSH1 0x40 SWAP1 KECCAK256 SLOAD PUSH2 0x15EB SWAP1 DUP6 PUSH2 0x55A9 JUMP JUMPDEST PUSH2 0x15F5 SWAP2 SWAP1 PUSH2 0x55D4 JUMP JUMPDEST PUSH1 0x40 MLOAD PUSH4 0x23B872DD PUSH1 0xE0 SHL DUP2 MSTORE SWAP1 SWAP2 POP PUSH0 SWAP1 ADDRESS SWAP1 PUSH4 0x23B872DD SWAP1 PUSH2 0x1621 SWAP1 CALLER SWAP1 DUP5 SWAP1 DUP10 SWAP1 PUSH1 0x4 ADD PUSH2 0x55E7 JUMP JUMPDEST PUSH1 0x20 PUSH1 0x40 MLOAD DUP1 DUP4 SUB DUP2 PUSH0 DUP8 GAS CALL ISZERO DUP1 ISZERO PUSH2 0x163D JUMPI RETURNDATASIZE PUSH0 PUSH0 RETURNDATACOPY RETURNDATASIZE PUSH0 REVERT JUMPDEST POP POP POP POP PUSH1 0x40 MLOAD RETURNDATASIZE PUSH1 0x1F NOT PUSH1 0x1F DUP3 ADD AND DUP3 ADD DUP1 PUSH1 0x40 MSTORE POP DUP2 ADD SWAP1 PUSH2 0x1661 SWAP2 SWAP1 PUSH2 0x52C3 JUMP JUMPDEST SWAP1 POP DUP1 ADDRESS PUSH1 0x1 PUSH1 0x1 PUSH1 0xA0 SHL SUB AND PUSH4 0x6FDDE03 PUSH1 0x40 MLOAD DUP2 PUSH4 0xFFFFFFFF AND PUSH1 0xE0 SHL DUP2 MSTORE PUSH1 0x4 ADD PUSH0 PUSH1 0x40 MLOAD DUP1 DUP4 SUB DUP2 DUP7 GAS STATICCALL ISZERO DUP1 ISZERO PUSH2 0x169F JUMPI RETURNDATASIZE PUSH0 PUSH0 RETURNDATACOPY RETURNDATASIZE PUSH0 REVERT JUMPDEST POP POP POP POP PUSH1 0x40 MLOAD RETURNDATASIZE PUSH0 DUP3 RETURNDATACOPY PUSH1 0x1F RETURNDATASIZE SWAP1 DUP2 ADD PUSH1 0x1F NOT AND DUP3 ADD PUSH1 0x40 MSTORE PUSH2 0x16C6 SWAP2 SWAP1 DUP2 ADD SWAP1 PUSH2 0x560B JUMP JUMPDEST PUSH1 0x40 MLOAD PUSH1 0x20 ADD PUSH2 0x16D6 SWAP2 SWAP1 PUSH2 0x563C JUMP JUMPDEST PUSH1 0x40 MLOAD PUSH1 0x20 DUP2 DUP4 SUB SUB DUP2 MSTORE SWAP1 PUSH1 0x40 MSTORE SWAP1 PUSH2 0x1703 JUMPI PUSH1 0x40 MLOAD PUSH3 0x461BCD PUSH1 0xE5 SHL DUP2 MSTORE PUSH1 0x4 ADD PUSH2 0xF23 SWAP2 SWAP1 PUSH2 0x4A04 JUMP JUMPDEST POP PUSH1 0x40 MLOAD PUSH4 0xA9059CBB PUSH1 0xE0 SHL DUP2 MSTORE CALLER PUSH1 0x4 DUP3 ADD MSTORE PUSH1 0x24 DUP2 ADD DUP4 SWAP1 MSTORE PUSH1 0x1 PUSH1 0x1 PUSH1 0xA0 SHL SUB DUP5 AND SWAP1 PUSH4 0xA9059CBB SWAP1 PUSH1 0x44 ADD JUMPDEST PUSH1 0x20 PUSH1 0x40 MLOAD DUP1 DUP4 SUB DUP2 PUSH0 DUP8 GAS CALL ISZERO DUP1 ISZERO PUSH2 0x174F JUMPI RETURNDATASIZE PUSH0 PUSH0 RETURNDATACOPY RETURNDATASIZE PUSH0 REVERT JUMPDEST POP POP POP POP PUSH1 0x40 MLOAD RETURNDATASIZE PUSH1 0x1F NOT PUSH1 0x1F DUP3 ADD AND DUP3 ADD DUP1 PUSH1 0x40 MSTORE POP DUP2 ADD SWAP1 PUSH2 0x1773 SWAP2 SWAP1 PUSH2 0x52C3 JUMP JUMPDEST POP POP POP POP POP POP JUMP JUMPDEST PUSH2 0x1783 PUSH2 0x4901 JUMP JUMPDEST PUSH2 0x178B PUSH2 0x312B JUMP JUMPDEST PUSH1 0x1 PUSH1 0x1 PUSH1 0x40 SHL SUB DUP1 DUP4 AND PUSH0 SWAP1 DUP2 MSTORE PUSH1 0xF PUSH1 0x20 SWAP1 DUP2 MSTORE PUSH1 0x40 SWAP2 DUP3 SWAP1 KECCAK256 DUP3 MLOAD PUSH1 0x80 DUP1 DUP3 ADD DUP6 MSTORE DUP3 SLOAD DUP7 AND DUP3 MSTORE DUP5 MLOAD PUSH2 0x100 DUP2 ADD DUP7 MSTORE PUSH1 0x1 DUP5 ADD SLOAD PUSH1 0x1 PUSH1 0x1 PUSH1 0xA0 SHL SUB SWAP1 DUP2 AND DUP3 MSTORE PUSH1 0x2 DUP6 ADD SLOAD DUP1 DUP3 AND DUP4 DUP9 ADD MSTORE PUSH1 0x1 PUSH1 0xA0 SHL SWAP1 DIV DUP9 AND DUP3 DUP9 ADD MSTORE PUSH1 0x3 DUP6 ADD SLOAD DUP1 DUP10 AND PUSH1 0x60 DUP5 ADD MSTORE PUSH1 0x1 PUSH1 0x40 SHL SWAP1 DUP2 SWAP1 DIV SWAP1 SWAP2 AND SWAP3 DUP3 ADD SWAP3 SWAP1 SWAP3 MSTORE PUSH1 0x4 DUP5 ADD SLOAD DUP1 DUP9 AND PUSH1 0xA0 DUP4 ADD MSTORE SWAP2 DUP3 DIV DUP8 AND PUSH1 0xC0 DUP3 ADD MSTORE PUSH1 0x1 PUSH1 0x80 SHL SWAP1 SWAP2 DIV SWAP1 SWAP6 AND PUSH1 0xE0 DUP7 ADD MSTORE SWAP2 DUP3 ADD SWAP4 SWAP1 SWAP4 MSTORE PUSH1 0x5 DUP4 ADD DUP1 SLOAD SWAP2 SWAP4 SWAP3 DUP5 ADD SWAP2 PUSH2 0x184D SWAP1 PUSH2 0x4E96 JUMP JUMPDEST DUP1 PUSH1 0x1F ADD PUSH1 0x20 DUP1 SWAP2 DIV MUL PUSH1 0x20 ADD PUSH1 0x40 MLOAD SWAP1 DUP2 ADD PUSH1 0x40 MSTORE DUP1 SWAP3 SWAP2 SWAP1 DUP2 DUP2 MSTORE PUSH1 0x20 ADD DUP3 DUP1 SLOAD PUSH2 0x1879 SWAP1 PUSH2 0x4E96 JUMP JUMPDEST DUP1 ISZERO PUSH2 0x18C4 JUMPI DUP1 PUSH1 0x1F LT PUSH2 0x189B JUMPI PUSH2 0x100 DUP1 DUP4 SLOAD DIV MUL DUP4 MSTORE SWAP2 PUSH1 0x20 ADD SWAP2 PUSH2 0x18C4 JUMP JUMPDEST DUP3 ADD SWAP2 SWAP1 PUSH0 MSTORE PUSH1 0x20 PUSH0 KECCAK256 SWAP1 JUMPDEST DUP2 SLOAD DUP2 MSTORE SWAP1 PUSH1 0x1 ADD SWAP1 PUSH1 0x20 ADD DUP1 DUP4 GT PUSH2 0x18A7 JUMPI DUP3 SWAP1 SUB PUSH1 0x1F AND DUP3 ADD SWAP2 JUMPDEST POP POP POP SWAP2 DUP4 MSTORE POP POP PUSH1 0x6 SWAP2 SWAP1 SWAP2 ADD SLOAD PUSH1 0x1 PUSH1 0x1 PUSH1 0x40 SHL SUB AND PUSH1 0x20 SWAP1 SWAP2 ADD MSTORE SWAP1 POP JUMPDEST SWAP2 SWAP1 POP JUMP JUMPDEST PUSH0 CALLER PUSH2 0x18F7 DUP6 DUP3 DUP6 PUSH2 0x3C4D JUMP JUMPDEST PUSH2 0x1902 DUP6 DUP6 DUP6 PUSH2 0x3C9E JUMP JUMPDEST POP PUSH1 0x1 SWAP5 SWAP4 POP POP POP POP JUMP JUMPDEST PUSH1 0x1 PUSH1 0x1 PUSH1 0xA0 SHL SUB DUP3 AND PUSH0 SWAP1 DUP2 MSTORE PUSH1 0x8 PUSH1 0x20 MSTORE PUSH1 0x40 DUP2 KECCAK256 SLOAD SWAP1 SUB PUSH2 0x1946 JUMPI DUP2 PUSH1 0x40 MLOAD PUSH4 0x90B23441 PUSH1 0xE0 SHL DUP2 MSTORE PUSH1 0x4 ADD PUSH2 0xF23 SWAP2 SWAP1 PUSH2 0x4D9C JUMP JUMPDEST DUP2 PUSH0 PUSH2 0x1954 PUSH1 0x12 PUSH1 0xA PUSH2 0x559B JUMP JUMPDEST PUSH1 0x1 PUSH1 0x1 PUSH1 0xA0 SHL SUB DUP6 AND PUSH0 SWAP1 DUP2 MSTORE PUSH1 0x8 PUSH1 0x20 MSTORE PUSH1 0x40 SWAP1 KECCAK256 SLOAD PUSH2 0x1976 SWAP1 DUP6 PUSH2 0x55A9 JUMP JUMPDEST PUSH2 0x1980 SWAP2 SWAP1 PUSH2 0x55D4 JUMP JUMPDEST SWAP1 POP PUSH0 DUP3 PUSH1 0x1 PUSH1 0x1 PUSH1 0xA0 SHL SUB AND PUSH4 0x23B872DD CALLER ADDRESS DUP6 PUSH1 0x40 MLOAD DUP5 PUSH4 0xFFFFFFFF AND PUSH1 0xE0 SHL DUP2 MSTORE PUSH1 0x4 ADD PUSH2 0x19B3 SWAP4 SWAP3 SWAP2 SWAP1 PUSH2 0x55E7 JUMP JUMPDEST PUSH1 0x20 PUSH1 0x40 MLOAD DUP1 DUP4 SUB DUP2 PUSH0 DUP8 GAS CALL ISZERO DUP1 ISZERO PUSH2 0x19CF JUMPI RETURNDATASIZE PUSH0 PUSH0 RETURNDATACOPY RETURNDATASIZE PUSH0 REVERT JUMPDEST POP POP POP POP PUSH1 0x40 MLOAD RETURNDATASIZE PUSH1 0x1F NOT PUSH1 0x1F DUP3 ADD AND DUP3 ADD DUP1 PUSH1 0x40 MSTORE POP DUP2 ADD SWAP1 PUSH2 0x19F3 SWAP2 SWAP1 PUSH2 0x52C3 JUMP JUMPDEST SWAP1 POP DUP1 DUP4 PUSH1 0x1 PUSH1 0x1 PUSH1 0xA0 SHL SUB AND PUSH4 0x6FDDE03 PUSH1 0x40 MLOAD DUP2 PUSH4 0xFFFFFFFF AND PUSH1 0xE0 SHL DUP2 MSTORE PUSH1 0x4 ADD PUSH0 PUSH1 0x40 MLOAD DUP1 DUP4 SUB DUP2 DUP7 GAS STATICCALL ISZERO DUP1 ISZERO PUSH2 0x1A31 JUMPI RETURNDATASIZE PUSH0 PUSH0 RETURNDATACOPY RETURNDATASIZE PUSH0 REVERT JUMPDEST POP POP POP POP PUSH1 0x40 MLOAD RETURNDATASIZE PUSH0 DUP3 RETURNDATACOPY PUSH1 0x1F RETURNDATASIZE SWAP1 DUP2 ADD PUSH1 0x1F NOT AND DUP3 ADD PUSH1 0x40 MSTORE PUSH2 0x1A58 SWAP2 SWAP1 DUP2 ADD SWAP1 PUSH2 0x560B JUMP JUMPDEST PUSH1 0x40 MLOAD PUSH1 0x20 ADD PUSH2 0x1A68 SWAP2 SWAP1 PUSH2 0x563C JUMP JUMPDEST PUSH1 0x40 MLOAD PUSH1 0x20 DUP2 DUP4 SUB SUB DUP2 MSTORE SWAP1 PUSH1 0x40 MSTORE SWAP1 PUSH2 0x1A95 JUMPI PUSH1 0x40 MLOAD PUSH3 0x461BCD PUSH1 0xE5 SHL DUP2 MSTORE PUSH1 0x4 ADD PUSH2 0xF23 SWAP2 SWAP1 PUSH2 0x4A04 JUMP JUMPDEST POP PUSH1 0x40 MLOAD PUSH4 0xA9059CBB PUSH1 0xE0 SHL DUP2 MSTORE CALLER PUSH1 0x4 DUP3 ADD MSTORE PUSH1 0x24 DUP2 ADD DUP6 SWAP1 MSTORE ADDRESS SWAP1 PUSH4 0xA9059CBB SWAP1 PUSH1 0x44 ADD PUSH2 0x1733 JUMP JUMPDEST PUSH2 0x1AC8 PUSH2 0x312B JUMP JUMPDEST PUSH1 0x9 SLOAD PUSH1 0x40 DUP1 MLOAD PUSH4 0x70F6B739 PUSH1 0xE1 SHL DUP2 MSTORE SWAP1 MLOAD PUSH0 SWAP3 PUSH1 0x1 PUSH1 0x1 PUSH1 0xA0 SHL SUB AND SWAP2 PUSH4 0xE1ED6E72 SWAP2 PUSH1 0x4 DUP1 DUP4 ADD SWAP3 PUSH1 0x20 SWAP3 SWAP2 SWAP1 DUP3 SWAP1 SUB ADD DUP2 DUP7 GAS STATICCALL ISZERO DUP1 ISZERO PUSH2 0x1B0F JUMPI RETURNDATASIZE PUSH0 PUSH0 RETURNDATACOPY RETURNDATASIZE PUSH0 REVERT JUMPDEST POP POP POP POP PUSH1 0x40 MLOAD RETURNDATASIZE PUSH1 0x1F NOT PUSH1 0x1F DUP3 ADD AND DUP3 ADD DUP1 PUSH1 0x40 MSTORE POP DUP2 ADD SWAP1 PUSH2 0x1B33 SWAP2 SWAP1 PUSH2 0x50C2 JUMP JUMPDEST PUSH1 0x1 PUSH1 0x1 PUSH1 0x40 SHL SUB DUP1 DUP3 AND PUSH0 SWAP1 DUP2 MSTORE PUSH1 0xF PUSH1 0x20 SWAP1 DUP2 MSTORE PUSH1 0x40 DUP1 DUP4 KECCAK256 DUP2 MLOAD PUSH1 0x80 DUP1 DUP3 ADD DUP5 MSTORE DUP3 SLOAD DUP8 AND DUP3 MSTORE DUP4 MLOAD PUSH2 0x100 DUP2 ADD DUP6 MSTORE PUSH1 0x1 DUP5 ADD SLOAD PUSH1 0x1 PUSH1 0x1 PUSH1 0xA0 SHL SUB SWAP1 DUP2 AND DUP3 MSTORE PUSH1 0x2 DUP6 ADD SLOAD DUP1 DUP3 AND DUP4 DUP10 ADD MSTORE PUSH1 0x1 PUSH1 0xA0 SHL SWAP1 DIV DUP10 AND DUP3 DUP8 ADD MSTORE PUSH1 0x3 DUP6 ADD SLOAD DUP1 DUP11 AND PUSH1 0x60 DUP5 ADD MSTORE PUSH1 0x1 PUSH1 0x40 SHL SWAP1 DUP2 SWAP1 DIV SWAP1 SWAP2 AND SWAP3 DUP3 ADD SWAP3 SWAP1 SWAP3 MSTORE PUSH1 0x4 DUP5 ADD SLOAD DUP1 DUP10 AND PUSH1 0xA0 DUP4 ADD MSTORE SWAP2 DUP3 DIV DUP9 AND PUSH1 0xC0 DUP3 ADD MSTORE PUSH1 0x1 PUSH1 0x80 SHL SWAP1 SWAP2 DIV SWAP1 SWAP7 AND PUSH1 0xE0 DUP8 ADD MSTORE SWAP3 DUP4 ADD SWAP5 SWAP1 SWAP5 MSTORE PUSH1 0x5 DUP5 ADD DUP1 SLOAD SWAP6 SWAP7 POP SWAP3 SWAP5 SWAP2 SWAP4 SWAP3 SWAP1 DUP5 ADD SWAP2 PUSH2 0x1BFA SWAP1 PUSH2 0x4E96 JUMP JUMPDEST DUP1 PUSH1 0x1F ADD PUSH1 0x20 DUP1 SWAP2 DIV MUL PUSH1 0x20 ADD PUSH1 0x40 MLOAD SWAP1 DUP2 ADD PUSH1 0x40 MSTORE DUP1 SWAP3 SWAP2 SWAP1 DUP2 DUP2 MSTORE PUSH1 0x20 ADD DUP3 DUP1 SLOAD PUSH2 0x1C26 SWAP1 PUSH2 0x4E96 JUMP JUMPDEST DUP1 ISZERO PUSH2 0x1C71 JUMPI DUP1 PUSH1 0x1F LT PUSH2 0x1C48 JUMPI PUSH2 0x100 DUP1 DUP4 SLOAD DIV MUL DUP4 MSTORE SWAP2 PUSH1 0x20 ADD SWAP2 PUSH2 0x1C71 JUMP JUMPDEST DUP3 ADD SWAP2 SWAP1 PUSH0 MSTORE PUSH1 0x20 PUSH0 KECCAK256 SWAP1 JUMPDEST DUP2 SLOAD DUP2 MSTORE SWAP1 PUSH1 0x1 ADD SWAP1 PUSH1 0x20 ADD DUP1 DUP4 GT PUSH2 0x1C54 JUMPI DUP3 SWAP1 SUB PUSH1 0x1F AND DUP3 ADD SWAP2 JUMPDEST POP POP POP SWAP2 DUP4 MSTORE POP POP PUSH1 0x6 SWAP2 SWAP1 SWAP2 ADD SLOAD PUSH1 0x1 PUSH1 0x1 PUSH1 0x40 SHL SUB AND PUSH1 0x20 SWAP1 SWAP2 ADD MSTORE SWAP1 POP PUSH0 JUMPDEST PUSH1 0xE SLOAD PUSH2 0xFFFF DUP3 AND LT ISZERO PUSH2 0x1EE6 JUMPI DUP4 PUSH1 0x1 PUSH1 0x1 PUSH1 0x40 SHL SUB AND PUSH1 0xE DUP3 PUSH2 0xFFFF AND DUP2 SLOAD DUP2 LT PUSH2 0x1CC2 JUMPI PUSH2 0x1CC2 PUSH2 0x565E JUMP JUMPDEST PUSH0 SWAP2 DUP3 MSTORE PUSH1 0x20 SWAP1 SWAP2 KECCAK256 PUSH1 0x4 DUP3 DIV ADD SLOAD PUSH1 0x3 SWAP1 SWAP2 AND PUSH1 0x8 MUL PUSH2 0x100 EXP SWAP1 DIV PUSH1 0x1 PUSH1 0x1 PUSH1 0x40 SHL SUB AND SUB PUSH2 0x1ED4 JUMPI PUSH32 0x7688E5A7A1460B2AE19A7FDB53DB3716E19F47BB00D43E9B9EE716454B814934 DUP3 PUSH0 ADD MLOAD DUP4 PUSH1 0x40 ADD MLOAD PUSH1 0xE DUP5 PUSH2 0xFFFF AND DUP2 SLOAD DUP2 LT PUSH2 0x1D2E JUMPI PUSH2 0x1D2E PUSH2 0x565E JUMP JUMPDEST SWAP1 PUSH0 MSTORE PUSH1 0x20 PUSH0 KECCAK256 SWAP1 PUSH1 0x4 SWAP2 DUP3 DUP3 DIV ADD SWAP2 SWAP1 MOD PUSH1 0x8 MUL SWAP1 SLOAD SWAP1 PUSH2 0x100 EXP SWAP1 DIV PUSH1 0x1 PUSH1 0x1 PUSH1 0x40 SHL SUB AND PUSH1 0xF PUSH0 PUSH1 0xE DUP8 PUSH2 0xFFFF AND DUP2 SLOAD DUP2 LT PUSH2 0x1D6F JUMPI PUSH2 0x1D6F PUSH2 0x565E JUMP JUMPDEST SWAP1 PUSH0 MSTORE PUSH1 0x20 PUSH0 KECCAK256 SWAP1 PUSH1 0x4 SWAP2 DUP3 DUP3 DIV ADD SWAP2 SWAP1 MOD PUSH1 0x8 MUL SWAP1 SLOAD SWAP1 PUSH2 0x100 EXP SWAP1 DIV PUSH1 0x1 PUSH1 0x1 PUSH1 0x40 SHL SUB AND PUSH1 0x1 PUSH1 0x1 PUSH1 0x40 SHL SUB AND PUSH1 0x1 PUSH1 0x1 PUSH1 0x40 SHL SUB AND DUP2 MSTORE PUSH1 0x20 ADD SWAP1 DUP2 MSTORE PUSH1 0x20 ADD PUSH0 KECCAK256 PUSH1 0x5 ADD PUSH1 0x40 MLOAD PUSH2 0x1DC8 SWAP5 SWAP4 SWAP3 SWAP2 SWAP1 PUSH2 0x5672 JUMP JUMPDEST PUSH1 0x40 MLOAD DUP1 SWAP2 SUB SWAP1 LOG1 PUSH2 0x1E8E PUSH1 0xE DUP3 PUSH2 0xFFFF AND DUP2 SLOAD DUP2 LT PUSH2 0x1DEA JUMPI PUSH2 0x1DEA PUSH2 0x565E JUMP JUMPDEST SWAP1 PUSH0 MSTORE PUSH1 0x20 PUSH0 KECCAK256 SWAP1 PUSH1 0x4 SWAP2 DUP3 DUP3 DIV ADD SWAP2 SWAP1 MOD PUSH1 0x8 MUL SWAP1 SLOAD SWAP1 PUSH2 0x100 EXP SWAP1 DIV PUSH1 0x1 PUSH1 0x1 PUSH1 0x40 SHL SUB AND DUP4 PUSH0 ADD MLOAD DUP5 PUSH1 0x40 ADD MLOAD PUSH1 0xF PUSH0 PUSH1 0xE DUP8 PUSH2 0xFFFF AND DUP2 SLOAD DUP2 LT PUSH2 0x1E34 JUMPI PUSH2 0x1E34 PUSH2 0x565E JUMP JUMPDEST SWAP1 PUSH0 MSTORE PUSH1 0x20 PUSH0 KECCAK256 SWAP1 PUSH1 0x4 SWAP2 DUP3 DUP3 DIV ADD SWAP2 SWAP1 MOD PUSH1 0x8 MUL SWAP1 SLOAD SWAP1 PUSH2 0x100 EXP SWAP1 DIV PUSH1 0x1 PUSH1 0x1 PUSH1 0x40 SHL SUB AND PUSH1 0x1 PUSH1 0x1 PUSH1 0x40 SHL SUB AND PUSH1 0x1 PUSH1 0x1 PUSH1 0x40 SHL SUB AND DUP2 MSTORE PUSH1 0x20 ADD SWAP1 DUP2 MSTORE PUSH1 0x20 ADD PUSH0 KECCAK256 PUSH1 0x5 ADD PUSH1 0x40 MLOAD PUSH1 0x20 ADD PUSH2 0xA0E SWAP3 SWAP2 SWAP1 PUSH2 0x56BF JUMP JUMPDEST PUSH2 0x1ED4 PUSH1 0xE DUP3 PUSH2 0xFFFF AND DUP2 SLOAD DUP2 LT PUSH2 0x1EA8 JUMPI PUSH2 0x1EA8 PUSH2 0x565E JUMP JUMPDEST SWAP1 PUSH0 MSTORE PUSH1 0x20 PUSH0 KECCAK256 SWAP1 PUSH1 0x4 SWAP2 DUP3 DUP3 DIV ADD SWAP2 SWAP1 MOD PUSH1 0x8 MUL SWAP1 SLOAD SWAP1 PUSH2 0x100 EXP SWAP1 DIV PUSH1 0x1 PUSH1 0x1 PUSH1 0x40 SHL SUB AND PUSH2 0x3CA9 JUMP JUMPDEST DUP1 PUSH2 0x1EDE DUP2 PUSH2 0x56ED JUMP JUMPDEST SWAP2 POP POP PUSH2 0x1C93 JUMP JUMPDEST POP POP POP POP JUMP JUMPDEST PUSH2 0x1EF4 PUSH2 0x312B JUMP JUMPDEST PUSH2 0x1EFE DUP2 PUSH0 PUSH2 0x3F17 JUMP JUMPDEST POP JUMP JUMPDEST PUSH2 0x1F09 PUSH2 0x4962 JUMP JUMPDEST PUSH2 0xFFFF DUP1 DUP4 AND PUSH0 SWAP1 DUP2 MSTORE PUSH1 0xC PUSH1 0x20 SWAP1 DUP2 MSTORE PUSH1 0x40 SWAP2 DUP3 SWAP1 KECCAK256 DUP3 MLOAD PUSH1 0x60 DUP1 DUP3 ADD DUP6 MSTORE DUP3 SLOAD SWAP1 SWAP6 AND DUP2 MSTORE DUP4 MLOAD PUSH1 0x80 DUP1 DUP3 ADD DUP7 MSTORE PUSH1 0x1 DUP5 ADD DUP1 SLOAD PUSH1 0x1 PUSH1 0x1 PUSH1 0x40 SHL SUB SWAP1 DUP2 AND DUP5 MSTORE DUP8 MLOAD PUSH2 0x100 DUP2 ADD DUP10 MSTORE PUSH1 0x2 DUP8 ADD SLOAD PUSH1 0x1 PUSH1 0x1 PUSH1 0xA0 SHL SUB SWAP1 DUP2 AND DUP3 MSTORE PUSH1 0x3 DUP9 ADD SLOAD DUP1 DUP3 AND DUP4 DUP12 ADD MSTORE PUSH1 0x1 PUSH1 0xA0 SHL SWAP1 DIV DUP4 AND DUP3 DUP12 ADD MSTORE PUSH1 0x4 DUP9 ADD SLOAD DUP1 DUP5 AND SWAP12 DUP4 ADD SWAP12 SWAP1 SWAP12 MSTORE PUSH1 0x1 PUSH1 0x40 SHL SWAP11 DUP12 SWAP1 DIV AND SWAP4 DUP2 ADD SWAP4 SWAP1 SWAP4 MSTORE PUSH1 0x5 DUP7 ADD SLOAD DUP1 DUP3 AND PUSH1 0xA0 DUP6 ADD MSTORE SWAP9 DUP10 DIV DUP2 AND PUSH1 0xC0 DUP5 ADD MSTORE PUSH1 0x1 PUSH1 0x80 SHL SWAP1 SWAP9 DIV SWAP1 SWAP8 AND PUSH1 0xE0 DUP3 ADD MSTORE DUP2 DUP6 ADD MSTORE PUSH1 0x6 DUP4 ADD DUP1 SLOAD SWAP3 SWAP7 SWAP4 SWAP6 SWAP5 DUP8 ADD SWAP5 SWAP2 SWAP4 SWAP3 SWAP2 DUP5 ADD SWAP2 PUSH2 0x1FE9 SWAP1 PUSH2 0x4E96 JUMP JUMPDEST DUP1 PUSH1 0x1F ADD PUSH1 0x20 DUP1 SWAP2 DIV MUL PUSH1 0x20 ADD PUSH1 0x40 MLOAD SWAP1 DUP2 ADD PUSH1 0x40 MSTORE DUP1 SWAP3 SWAP2 SWAP1 DUP2 DUP2 MSTORE PUSH1 0x20 ADD DUP3 DUP1 SLOAD PUSH2 0x2015 SWAP1 PUSH2 0x4E96 JUMP JUMPDEST DUP1 ISZERO PUSH2 0x2060 JUMPI DUP1 PUSH1 0x1F LT PUSH2 0x2037 JUMPI PUSH2 0x100 DUP1 DUP4 SLOAD DIV MUL DUP4 MSTORE SWAP2 PUSH1 0x20 ADD SWAP2 PUSH2 0x2060 JUMP JUMPDEST DUP3 ADD SWAP2 SWAP1 PUSH0 MSTORE PUSH1 0x20 PUSH0 KECCAK256 SWAP1 JUMPDEST DUP2 SLOAD DUP2 MSTORE SWAP1 PUSH1 0x1 ADD SWAP1 PUSH1 0x20 ADD DUP1 DUP4 GT PUSH2 0x2043 JUMPI DUP3 SWAP1 SUB PUSH1 0x1F AND DUP3 ADD SWAP2 JUMPDEST POP POP POP SWAP2 DUP4 MSTORE POP POP PUSH1 0x6 SWAP2 SWAP1 SWAP2 ADD SLOAD PUSH1 0x1 PUSH1 0x1 PUSH1 0x40 SHL SUB AND PUSH1 0x20 SWAP2 DUP3 ADD MSTORE SWAP1 DUP3 MSTORE PUSH1 0x8 DUP4 ADD DUP1 SLOAD SWAP3 SWAP1 SWAP2 ADD SWAP2 PUSH2 0x2095 SWAP1 PUSH2 0x4E96 JUMP JUMPDEST DUP1 PUSH1 0x1F ADD PUSH1 0x20 DUP1 SWAP2 DIV MUL PUSH1 0x20 ADD PUSH1 0x40 MLOAD SWAP1 DUP2 ADD PUSH1 0x40 MSTORE DUP1 SWAP3 SWAP2 SWAP1 DUP2 DUP2 MSTORE PUSH1 0x20 ADD DUP3 DUP1 SLOAD PUSH2 0x20C1 SWAP1 PUSH2 0x4E96 JUMP JUMPDEST DUP1 ISZERO PUSH2 0x210C JUMPI DUP1 PUSH1 0x1F LT PUSH2 0x20E3 JUMPI PUSH2 0x100 DUP1 DUP4 SLOAD DIV MUL DUP4 MSTORE SWAP2 PUSH1 0x20 ADD SWAP2 PUSH2 0x210C JUMP JUMPDEST DUP3 ADD SWAP2 SWAP1 PUSH0 MSTORE PUSH1 0x20 PUSH0 KECCAK256 SWAP1 JUMPDEST DUP2 SLOAD DUP2 MSTORE SWAP1 PUSH1 0x1 ADD SWAP1 PUSH1 0x20 ADD DUP1 DUP4 GT PUSH2 0x20EF JUMPI DUP3 SWAP1 SUB PUSH1 0x1F AND DUP3 ADD SWAP2 JUMPDEST POP POP POP POP POP DUP2 MSTORE POP POP SWAP1 POP SWAP2 SWAP1 POP JUMP JUMPDEST PUSH1 0x1 PUSH1 0x1 PUSH1 0xA0 SHL SUB AND PUSH0 SWAP1 DUP2 MSTORE PUSH1 0x20 DUP2 SWAP1 MSTORE PUSH1 0x40 SWAP1 KECCAK256 SLOAD PUSH1 0xFF AND SWAP1 JUMP JUMPDEST PUSH2 0x2141 PUSH2 0x312B JUMP JUMPDEST PUSH2 0x1EFE PUSH0 PUSH1 0x9 PUSH0 SWAP1 SLOAD SWAP1 PUSH2 0x100 EXP SWAP1 DIV PUSH1 0x1 PUSH1 0x1 PUSH1 0xA0 SHL SUB AND PUSH1 0x1 PUSH1 0x1 PUSH1 0xA0 SHL SUB AND PUSH4 0xF4F6C22C PUSH1 0x40 MLOAD DUP2 PUSH4 0xFFFFFFFF AND PUSH1 0xE0 SHL DUP2 MSTORE PUSH1 0x4 ADD PUSH1 0x20 PUSH1 0x40 MLOAD DUP1 DUP4 SUB DUP2 DUP7 GAS STATICCALL ISZERO DUP1 ISZERO PUSH2 0x2195 JUMPI RETURNDATASIZE PUSH0 PUSH0 RETURNDATACOPY RETURNDATASIZE PUSH0 REVERT JUMPDEST POP POP POP POP PUSH1 0x40 MLOAD RETURNDATASIZE PUSH1 0x1F NOT PUSH1 0x1F DUP3 ADD AND DUP3 ADD DUP1 PUSH1 0x40 MSTORE POP DUP2 ADD SWAP1 PUSH2 0x21B9 SWAP2 SWAP1 PUSH2 0x50A7 JUMP JUMPDEST PUSH1 0x1 PUSH1 0x1 PUSH1 0xA0 SHL SUB AND PUSH4 0x9FF43001 PUSH1 0x40 MLOAD DUP2 PUSH4 0xFFFFFFFF AND PUSH1 0xE0 SHL DUP2 MSTORE PUSH1 0x4 ADD PUSH1 0x20 PUSH1 0x40 MLOAD DUP1 DUP4 SUB DUP2 PUSH0 DUP8 GAS CALL ISZERO DUP1 ISZERO PUSH2 0x21F5 JUMPI RETURNDATASIZE PUSH0 PUSH0 RETURNDATACOPY RETURNDATASIZE PUSH0 REVERT JUMPDEST POP POP POP POP PUSH1 0x40 MLOAD RETURNDATASIZE PUSH1 0x1F NOT PUSH1 0x1F DUP3 ADD AND DUP3 ADD DUP1 PUSH1 0x40 MSTORE POP DUP2 ADD SWAP1 PUSH2 0x2219 SWAP2 SWAP1 PUSH2 0x50A7 JUMP JUMPDEST PUSH1 0x1 PUSH1 0x1 PUSH1 0xA0 SHL SUB AND PUSH4 0x27BACC40 PUSH1 0x40 MLOAD DUP2 PUSH4 0xFFFFFFFF AND PUSH1 0xE0 SHL DUP2 MSTORE PUSH1 0x4 ADD PUSH1 0x20 PUSH1 0x40 MLOAD DUP1 DUP4 SUB DUP2 DUP7 GAS STATICCALL ISZERO DUP1 ISZERO PUSH2 0x2254 JUMPI RETURNDATASIZE PUSH0 PUSH0 RETURNDATACOPY RETURNDATASIZE PUSH0 REVERT JUMPDEST POP POP POP POP PUSH1 0x40 MLOAD RETURNDATASIZE PUSH1 0x1F NOT PUSH1 0x1F DUP3 ADD AND DUP3 ADD DUP1 PUSH1 0x40 MSTORE POP DUP2 ADD SWAP1 PUSH2 0x2278 SWAP2 SWAP1 PUSH2 0x50C2 JUMP JUMPDEST DUP4 PUSH1 0x40 MLOAD PUSH1 0x20 ADD PUSH2 0xA0E SWAP2 SWAP1 PUSH2 0x570D JUMP JUMPDEST PUSH2 0x2291 PUSH2 0x312B JUMP JUMPDEST PUSH1 0x1 PUSH1 0x1 PUSH1 0xA0 SHL SUB DUP2 AND PUSH2 0x22BE JUMPI ORIGIN PUSH0 ADDRESS PUSH1 0x40 MLOAD PUSH4 0x36030219 PUSH1 0xE2 SHL DUP2 MSTORE PUSH1 0x4 ADD PUSH2 0xF23 SWAP4 SWAP3 SWAP2 SWAP1 PUSH2 0x5718 JUMP JUMPDEST PUSH2 0x1EFE DUP2 PUSH1 0x1 PUSH2 0x3F17 JUMP JUMPDEST PUSH1 0x12 DUP1 SLOAD PUSH2 0x654 SWAP1 PUSH2 0x4E96 JUMP JUMPDEST PUSH1 0x60 PUSH1 0x5 DUP1 SLOAD PUSH2 0x6E2 SWAP1 PUSH2 0x4E96 JUMP JUMPDEST PUSH2 0x22ED PUSH2 0x312B JUMP JUMPDEST PUSH1 0x4 PUSH2 0x22F9 DUP4 DUP3 PUSH2 0x5166 JUMP JUMPDEST POP PUSH1 0x5 PUSH2 0x2306 DUP3 DUP3 PUSH2 0x5166 JUMP JUMPDEST POP POP POP JUMP JUMPDEST PUSH2 0x2313 PUSH2 0x312B JUMP JUMPDEST PUSH1 0x14 DUP1 SLOAD PUSH1 0xFF SWAP1 SWAP3 AND PUSH3 0x10000 MUL PUSH3 0xFF0000 NOT SWAP1 SWAP3 AND SWAP2 SWAP1 SWAP2 OR SWAP1 SSTORE JUMP JUMPDEST PUSH2 0x2339 PUSH2 0x312B JUMP JUMPDEST PUSH1 0x14 DUP1 SLOAD PUSH1 0xFF SWAP1 SWAP3 AND PUSH5 0x100000000 MUL PUSH5 0xFF00000000 NOT SWAP1 SWAP3 AND SWAP2 SWAP1 SWAP2 OR SWAP1 SSTORE JUMP JUMPDEST PUSH2 0x2363 PUSH2 0x312B JUMP JUMPDEST PUSH1 0x14 DUP1 SLOAD PUSH1 0xFF SWAP1 SWAP3 AND PUSH4 0x1000000 MUL PUSH4 0xFF000000 NOT SWAP1 SWAP3 AND SWAP2 SWAP1 SWAP2 OR SWAP1 SSTORE JUMP JUMPDEST PUSH0 CALLER PUSH2 0xCEB DUP2 DUP6 DUP6 PUSH2 0x3C9E JUMP JUMPDEST PUSH2 0x2398 PUSH2 0x312B JUMP JUMPDEST PUSH1 0x12 PUSH2 0xCDA DUP3 DUP3 PUSH2 0x5166 JUMP JUMPDEST PUSH1 0x9 SLOAD PUSH1 0x40 DUP1 MLOAD PUSH4 0x70F6B739 PUSH1 0xE1 SHL DUP2 MSTORE SWAP1 MLOAD PUSH0 SWAP3 PUSH1 0x1 PUSH1 0x1 PUSH1 0xA0 SHL SUB AND SWAP2 PUSH4 0xE1ED6E72 SWAP2 PUSH1 0x4 DUP1 DUP4 ADD SWAP3 PUSH1 0x20 SWAP3 SWAP2 SWAP1 DUP3 SWAP1 SUB ADD DUP2 DUP7 GAS STATICCALL ISZERO DUP1 ISZERO PUSH2 0x23EB JUMPI RETURNDATASIZE PUSH0 PUSH0 RETURNDATACOPY RETURNDATASIZE PUSH0 REVERT JUMPDEST POP POP POP POP PUSH1 0x40 MLOAD RETURNDATASIZE PUSH1 0x1F NOT PUSH1 0x1F DUP3 ADD AND DUP3 ADD DUP1 PUSH1 0x40 MSTORE POP DUP2 ADD SWAP1 PUSH2 0x240F SWAP2 SWAP1 PUSH2 0x50C2 JUMP JUMPDEST PUSH1 0x1 PUSH1 0x1 PUSH1 0x40 SHL SUB DUP1 DUP3 AND PUSH0 DUP2 DUP2 MSTORE PUSH1 0xF PUSH1 0x20 MSTORE PUSH1 0x40 SWAP1 KECCAK256 SLOAD SWAP3 SWAP4 POP SWAP2 AND SUB PUSH2 0x1EFE JUMPI PUSH2 0x1EFE DUP2 PUSH2 0x3CA9 JUMP JUMPDEST PUSH1 0x9 SLOAD PUSH1 0x40 DUP1 MLOAD PUSH4 0x70F6B739 PUSH1 0xE1 SHL DUP2 MSTORE SWAP1 MLOAD PUSH0 SWAP3 PUSH1 0x1 PUSH1 0x1 PUSH1 0xA0 SHL SUB AND SWAP2 PUSH4 0xE1ED6E72 SWAP2 PUSH1 0x4 DUP1 DUP4 ADD SWAP3 PUSH1 0x20 SWAP3 SWAP2 SWAP1 DUP3 SWAP1 SUB ADD DUP2 DUP7 GAS STATICCALL ISZERO DUP1 ISZERO PUSH2 0x2482 JUMPI RETURNDATASIZE PUSH0 PUSH0 RETURNDATACOPY RETURNDATASIZE PUSH0 REVERT JUMPDEST POP POP POP POP PUSH1 0x40 MLOAD RETURNDATASIZE PUSH1 0x1F NOT PUSH1 0x1F DUP3 ADD AND DUP3 ADD DUP1 PUSH1 0x40 MSTORE POP DUP2 ADD SWAP1 PUSH2 0x24A6 SWAP2 SWAP1 PUSH2 0x50C2 JUMP JUMPDEST SWAP1 POP PUSH0 DUP3 PUSH2 0xFFFF AND GT DUP1 ISZERO PUSH2 0x24CC JUMPI POP PUSH1 0xB SLOAD PUSH2 0xFFFF PUSH1 0x1 PUSH1 0x40 SHL SWAP1 SWAP2 DIV DUP2 AND SWAP1 DUP4 AND GT ISZERO JUMPDEST PUSH2 0x24D8 JUMPI PUSH2 0x24D8 PUSH2 0x573B JUMP JUMPDEST PUSH1 0xB SLOAD PUSH1 0x1 PUSH1 0x1 PUSH1 0x40 SHL SUB DUP3 DUP2 AND PUSH0 SWAP1 DUP2 MSTORE PUSH1 0xD PUSH1 0x20 MSTORE PUSH1 0x40 SWAP1 KECCAK256 SLOAD SWAP2 DUP2 AND PUSH4 0x1000000 SWAP1 SWAP3 DIV AND GT PUSH2 0x255F JUMPI PUSH1 0x1 PUSH1 0x1 PUSH1 0x40 SHL SUB DUP2 AND PUSH0 SWAP1 DUP2 MSTORE PUSH1 0xD PUSH1 0x20 SWAP1 DUP2 MSTORE PUSH1 0x40 DUP1 DUP4 KECCAK256 DUP1 SLOAD PUSH3 0xFF0000 NOT AND SWAP1 SSTORE PUSH1 0xF SWAP1 SWAP2 MSTORE SWAP1 KECCAK256 PUSH1 0x1 ADD SLOAD PUSH2 0x255F SWAP1 PUSH1 0x1 PUSH1 0x1 PUSH1 0xA0 SHL SUB AND PUSH1 0x12 JUMPDEST PUSH2 0x254F SWAP1 PUSH1 0xA PUSH2 0x559B JUMP JUMPDEST PUSH2 0x255A SWAP1 PUSH1 0x1 PUSH2 0x55A9 JUMP JUMPDEST PUSH2 0x3F6A JUMP JUMPDEST PUSH1 0x1 PUSH1 0x1 PUSH1 0x40 SHL SUB DUP1 DUP3 AND PUSH0 SWAP1 DUP2 MSTORE PUSH1 0xD PUSH1 0x20 SWAP1 DUP2 MSTORE PUSH1 0x40 DUP1 DUP4 KECCAK256 DUP1 SLOAD PUSH2 0xFFFF DUP9 AND PUSH2 0xFFFF NOT DUP3 AND DUP2 OR DUP4 SSTORE PUSH1 0xB SLOAD PUSH4 0x1000000 SWAP1 DUP9 AND MUL PUSH11 0xFFFFFFFFFFFFFFFF00FFFF NOT SWAP1 SWAP3 AND DUP2 OR SWAP2 SWAP1 SWAP2 OR SWAP1 SWAP2 SSTORE DUP4 MSTORE PUSH1 0xC SWAP1 SWAP2 MSTORE SWAP1 KECCAK256 PUSH1 0x1 ADD SLOAD PUSH2 0x25C8 SWAP2 AND DUP3 PUSH2 0x28BA JUMP JUMPDEST PUSH2 0xFFFF DUP5 AND PUSH0 SWAP1 DUP2 MSTORE PUSH1 0xC PUSH1 0x20 MSTORE PUSH1 0x40 SWAP1 DUP2 SWAP1 KECCAK256 PUSH1 0x5 ADD DUP1 SLOAD PUSH1 0x1 PUSH1 0x40 SHL PUSH1 0x1 PUSH1 0xC0 SHL SUB NOT AND PUSH1 0x1 PUSH1 0x80 SHL PUSH1 0x1 PUSH1 0x1 PUSH1 0x40 SHL SUB SWAP5 DUP6 AND DUP2 MUL PUSH1 0x1 PUSH1 0x40 SHL PUSH1 0x1 PUSH1 0x80 SHL SUB NOT AND SWAP2 SWAP1 SWAP2 OR PUSH1 0x1 PUSH1 0x40 SHL SWAP6 DUP6 AND SWAP6 SWAP1 SWAP6 MUL SWAP5 SWAP1 SWAP5 OR SWAP1 DUP2 SWAP1 SSTORE PUSH1 0x9 SLOAD SWAP2 MLOAD PUSH4 0x3B8052C9 PUSH1 0xE0 SHL DUP2 MSTORE SWAP4 SWAP1 DIV SWAP1 SWAP2 AND PUSH1 0x4 DUP4 ADD MSTORE PUSH1 0x1 PUSH1 0x1 PUSH1 0xA0 SHL SUB AND SWAP1 PUSH4 0x3B8052C9 SWAP1 PUSH1 0x24 ADD PUSH1 0x40 DUP1 MLOAD DUP1 DUP4 SUB DUP2 PUSH0 DUP8 GAS CALL ISZERO DUP1 ISZERO PUSH2 0x266D JUMPI RETURNDATASIZE PUSH0 PUSH0 RETURNDATACOPY RETURNDATASIZE PUSH0 REVERT JUMPDEST POP POP POP POP PUSH1 0x40 MLOAD RETURNDATASIZE PUSH1 0x1F NOT PUSH1 0x1F DUP3 ADD AND DUP3 ADD DUP1 PUSH1 0x40 MSTORE POP DUP2 ADD SWAP1 PUSH2 0x2691 SWAP2 SWAP1 PUSH2 0x5477 JUMP JUMPDEST PUSH2 0xFFFF DUP5 AND PUSH0 SWAP1 DUP2 MSTORE PUSH1 0xC PUSH1 0x20 MSTORE PUSH1 0x40 SWAP1 DUP2 SWAP1 KECCAK256 PUSH1 0x5 DUP2 ADD DUP1 SLOAD PUSH1 0x1 PUSH1 0x40 SHL PUSH1 0x1 PUSH1 0xC0 SHL SUB NOT AND PUSH1 0x1 PUSH1 0x80 SHL PUSH1 0x1 PUSH1 0x1 PUSH1 0x40 SHL SUB SWAP6 DUP7 AND MUL PUSH1 0x1 PUSH1 0x40 SHL PUSH1 0x1 PUSH1 0x80 SHL SUB NOT AND OR PUSH1 0x1 PUSH1 0x40 SHL SWAP6 DUP6 AND SWAP6 SWAP1 SWAP6 MUL SWAP5 SWAP1 SWAP5 OR SWAP1 SWAP4 SSTORE PUSH1 0x9 SLOAD PUSH1 0x1 SWAP1 SWAP4 ADD SLOAD SWAP1 MLOAD PUSH4 0xEEDF25F PUSH1 0xE4 SHL DUP2 MSTORE DUP5 DUP4 AND PUSH1 0x4 DUP3 ADD MSTORE SWAP2 AND PUSH1 0x24 DUP3 ADD MSTORE PUSH1 0x1 PUSH1 0x1 PUSH1 0xA0 SHL SUB SWAP1 SWAP2 AND SWAP1 PUSH4 0xEEDF25F0 SWAP1 PUSH1 0x44 ADD PUSH1 0x40 DUP1 MLOAD DUP1 DUP4 SUB DUP2 PUSH0 DUP8 GAS CALL ISZERO DUP1 ISZERO PUSH2 0x273E JUMPI RETURNDATASIZE PUSH0 PUSH0 RETURNDATACOPY RETURNDATASIZE PUSH0 REVERT JUMPDEST POP POP POP POP PUSH1 0x40 MLOAD RETURNDATASIZE PUSH1 0x1F NOT PUSH1 0x1F DUP3 ADD AND DUP3 ADD DUP1 PUSH1 0x40 MSTORE POP DUP2 ADD SWAP1 PUSH2 0x2762 SWAP2 SWAP1 PUSH2 0x5477 JUMP JUMPDEST PUSH1 0x1 PUSH1 0x1 PUSH1 0x40 SHL SUB DUP4 DUP2 AND PUSH0 SWAP1 DUP2 MSTORE PUSH1 0xF PUSH1 0x20 MSTORE PUSH1 0x40 SWAP1 DUP2 SWAP1 KECCAK256 PUSH1 0x4 SWAP1 DUP2 ADD DUP1 SLOAD PUSH1 0x1 PUSH1 0x40 SHL PUSH1 0x1 PUSH1 0xC0 SHL SUB NOT AND PUSH1 0x1 PUSH1 0x80 SHL SWAP6 DUP6 AND SWAP6 SWAP1 SWAP6 MUL PUSH1 0x1 PUSH1 0x40 SHL PUSH1 0x1 PUSH1 0x80 SHL SUB NOT AND SWAP5 SWAP1 SWAP5 OR PUSH1 0x1 PUSH1 0x40 SHL SWAP6 DUP5 AND DUP7 MUL OR SWAP4 DUP5 SWAP1 SSTORE PUSH1 0x9 SLOAD SWAP2 MLOAD PUSH4 0x3B8052C9 PUSH1 0xE0 SHL DUP2 MSTORE SWAP5 SWAP1 SWAP4 DIV SWAP1 SWAP2 AND SWAP2 DUP4 ADD SWAP2 SWAP1 SWAP2 MSTORE PUSH1 0x1 PUSH1 0x1 PUSH1 0xA0 SHL SUB AND SWAP1 PUSH4 0x3B8052C9 SWAP1 PUSH1 0x24 ADD PUSH1 0x40 DUP1 MLOAD DUP1 DUP4 SUB DUP2 PUSH0 DUP8 GAS CALL ISZERO DUP1 ISZERO PUSH2 0x2807 JUMPI RETURNDATASIZE PUSH0 PUSH0 RETURNDATACOPY RETURNDATASIZE PUSH0 REVERT JUMPDEST POP POP POP POP PUSH1 0x40 MLOAD RETURNDATASIZE PUSH1 0x1F NOT PUSH1 0x1F DUP3 ADD AND DUP3 ADD DUP1 PUSH1 0x40 MSTORE POP DUP2 ADD SWAP1 PUSH2 0x282B SWAP2 SWAP1 PUSH2 0x5477 JUMP JUMPDEST PUSH1 0x1 PUSH1 0x1 PUSH1 0x40 SHL SUB DUP1 DUP5 AND PUSH0 SWAP1 DUP2 MSTORE PUSH1 0xF PUSH1 0x20 MSTORE PUSH1 0x40 SWAP1 KECCAK256 PUSH1 0x4 ADD DUP1 SLOAD SWAP4 DUP3 AND PUSH1 0x1 PUSH1 0x40 SHL MUL PUSH1 0x1 PUSH1 0x40 SHL PUSH1 0x1 PUSH1 0x80 SHL SUB NOT SWAP4 SWAP1 SWAP3 AND PUSH1 0x1 PUSH1 0x80 SHL MUL SWAP3 SWAP1 SWAP3 AND PUSH1 0x1 PUSH1 0x40 SHL PUSH1 0x1 PUSH1 0xC0 SHL SUB NOT SWAP1 SWAP4 AND SWAP3 SWAP1 SWAP3 OR SWAP2 SWAP1 SWAP2 OR SWAP1 SSTORE PUSH1 0x14 SLOAD PUSH2 0x289C SWAP1 PUSH1 0xFF PUSH3 0x10000 SWAP1 SWAP2 DIV AND PUSH1 0x3C PUSH2 0x574F JUMP JUMPDEST PUSH1 0xFF AND PUSH1 0x13 SLOAD PUSH2 0x28AC SWAP2 SWAP1 PUSH2 0x5772 JUMP JUMPDEST TIMESTAMP LT PUSH2 0xCDA JUMPI PUSH2 0xCDA PUSH2 0x3F75 JUMP JUMPDEST PUSH1 0x1 PUSH1 0x1 PUSH1 0x40 SHL SUB DUP1 DUP4 AND PUSH0 SWAP1 DUP2 MSTORE PUSH1 0xF PUSH1 0x20 MSTORE PUSH1 0x40 DUP2 KECCAK256 SLOAD SWAP1 SWAP2 DUP3 SWAP2 AND DUP2 SUB PUSH2 0x2914 JUMPI PUSH1 0x1 PUSH1 0x1 PUSH1 0x40 SHL SUB DUP5 DUP2 AND PUSH0 SWAP1 DUP2 MSTORE PUSH1 0xF PUSH1 0x20 MSTORE PUSH1 0x40 SWAP1 DUP2 SWAP1 KECCAK256 SLOAD SWAP1 MLOAD PUSH4 0xA27710C1 PUSH1 0xE0 SHL DUP2 MSTORE SWAP2 AND PUSH1 0x4 DUP3 ADD MSTORE PUSH1 0x24 ADD PUSH2 0xF23 JUMP JUMPDEST PUSH1 0x9 PUSH0 SWAP1 SLOAD SWAP1 PUSH2 0x100 EXP SWAP1 DIV PUSH1 0x1 PUSH1 0x1 PUSH1 0xA0 SHL SUB AND PUSH1 0x1 PUSH1 0x1 PUSH1 0xA0 SHL SUB AND PUSH4 0x929C6CA9 PUSH1 0x40 MLOAD DUP2 PUSH4 0xFFFFFFFF AND PUSH1 0xE0 SHL DUP2 MSTORE PUSH1 0x4 ADD PUSH1 0x20 PUSH1 0x40 MLOAD DUP1 DUP4 SUB DUP2 DUP7 GAS STATICCALL ISZERO DUP1 ISZERO PUSH2 0x2964 JUMPI RETURNDATASIZE PUSH0 PUSH0 RETURNDATACOPY RETURNDATASIZE PUSH0 REVERT JUMPDEST POP POP POP POP PUSH1 0x40 MLOAD RETURNDATASIZE PUSH1 0x1F NOT PUSH1 0x1F DUP3 ADD AND DUP3 ADD DUP1 PUSH1 0x40 MSTORE POP DUP2 ADD SWAP1 PUSH2 0x2988 SWAP2 SWAP1 PUSH2 0x50A7 JUMP JUMPDEST PUSH1 0x1 PUSH1 0x1 PUSH1 0xA0 SHL SUB AND PUSH4 0x679B9538 PUSH1 0x9 PUSH0 SWAP1 SLOAD SWAP1 PUSH2 0x100 EXP SWAP1 DIV PUSH1 0x1 PUSH1 0x1 PUSH1 0xA0 SHL SUB AND PUSH1 0x1 PUSH1 0x1 PUSH1 0xA0 SHL SUB AND PUSH4 0xC0FF5328 PUSH1 0x40 MLOAD DUP2 PUSH4 0xFFFFFFFF AND PUSH1 0xE0 SHL DUP2 MSTORE PUSH1 0x4 ADD PUSH1 0x20 PUSH1 0x40 MLOAD DUP1 DUP4 SUB DUP2 DUP7 GAS STATICCALL ISZERO DUP1 ISZERO PUSH2 0x29E6 JUMPI RETURNDATASIZE PUSH0 PUSH0 RETURNDATACOPY RETURNDATASIZE PUSH0 REVERT JUMPDEST POP POP POP POP PUSH1 0x40 MLOAD RETURNDATASIZE PUSH1 0x1F NOT PUSH1 0x1F DUP3 ADD AND DUP3 ADD DUP1 PUSH1 0x40 MSTORE POP DUP2 ADD SWAP1 PUSH2 0x2A0A SWAP2 SWAP1 PUSH2 0x50A7 JUMP JUMPDEST PUSH1 0x1 PUSH1 0x1 PUSH1 0x40 SHL SUB DUP1 DUP9 AND PUSH0 SWAP1 DUP2 MSTORE PUSH1 0xF PUSH1 0x20 MSTORE PUSH1 0x40 SWAP1 DUP2 SWAP1 KECCAK256 PUSH1 0x4 SWAP1 DUP2 ADD SLOAD SWAP2 MLOAD PUSH1 0x1 PUSH1 0x1 PUSH1 0xE0 SHL SUB NOT PUSH1 0xE0 DUP8 SWAP1 SHL AND DUP2 MSTORE PUSH2 0x2A56 SWAP5 SWAP4 PUSH1 0x1 PUSH1 0x40 SHL SWAP1 SWAP4 DIV SWAP1 SWAP3 AND DUP10 XOR SWAP2 ADD PUSH2 0x5785 JUMP JUMPDEST PUSH1 0x40 DUP1 MLOAD DUP1 DUP4 SUB DUP2 PUSH0 DUP8 GAS CALL ISZERO DUP1 ISZERO PUSH2 0x2A71 JUMPI RETURNDATASIZE PUSH0 PUSH0 RETURNDATACOPY RETURNDATASIZE PUSH0 REVERT JUMPDEST POP POP POP POP PUSH1 0x40 MLOAD RETURNDATASIZE PUSH1 0x1F NOT PUSH1 0x1F DUP3 ADD AND DUP3 ADD DUP1 PUSH1 0x40 MSTORE POP DUP2 ADD SWAP1 PUSH2 0x2A95 SWAP2 SWAP1 PUSH2 0x5477 JUMP JUMPDEST PUSH1 0x1 PUSH1 0x1 PUSH1 0x40 SHL SUB DUP1 DUP8 AND PUSH0 SWAP1 DUP2 MSTORE PUSH1 0xF PUSH1 0x20 SWAP1 DUP2 MSTORE PUSH1 0x40 SWAP2 DUP3 SWAP1 KECCAK256 PUSH1 0x4 SWAP1 DUP2 ADD DUP1 SLOAD SWAP7 DUP6 AND PUSH1 0x1 PUSH1 0x40 SHL MUL PUSH1 0x1 PUSH1 0x40 SHL PUSH1 0x1 PUSH1 0x80 SHL SUB NOT SWAP7 SWAP1 SWAP6 AND PUSH1 0x1 PUSH1 0x80 SHL MUL SWAP6 SWAP1 SWAP6 AND PUSH1 0x1 PUSH1 0x40 SHL PUSH1 0x1 PUSH1 0xC0 SHL SUB NOT SWAP1 SWAP7 AND SWAP6 SWAP1 SWAP6 OR SWAP3 SWAP1 SWAP3 OR SWAP1 SWAP3 SSTORE PUSH1 0x9 SLOAD DUP3 MLOAD PUSH4 0x929C6CA9 PUSH1 0xE0 SHL DUP2 MSTORE SWAP3 MLOAD PUSH1 0x1 PUSH1 0x1 PUSH1 0xA0 SHL SUB SWAP1 SWAP2 AND SWAP4 PUSH4 0x929C6CA9 SWAP4 DUP1 DUP3 ADD SWAP4 SWAP3 SWAP2 SWAP1 DUP3 SWAP1 SUB ADD DUP2 DUP7 GAS STATICCALL ISZERO DUP1 ISZERO PUSH2 0x2B36 JUMPI RETURNDATASIZE PUSH0 PUSH0 RETURNDATACOPY RETURNDATASIZE PUSH0 REVERT JUMPDEST POP POP POP POP PUSH1 0x40 MLOAD RETURNDATASIZE PUSH1 0x1F NOT PUSH1 0x1F DUP3 ADD AND DUP3 ADD DUP1 PUSH1 0x40 MSTORE POP DUP2 ADD SWAP1 PUSH2 0x2B5A SWAP2 SWAP1 PUSH2 0x50A7 JUMP JUMPDEST PUSH1 0x1 PUSH1 0x1 PUSH1 0xA0 SHL SUB AND PUSH4 0x679B9538 PUSH1 0x9 PUSH0 SWAP1 SLOAD SWAP1 PUSH2 0x100 EXP SWAP1 DIV PUSH1 0x1 PUSH1 0x1 PUSH1 0xA0 SHL SUB AND PUSH1 0x1 PUSH1 0x1 PUSH1 0xA0 SHL SUB AND PUSH4 0xC0FF5328 PUSH1 0x40 MLOAD DUP2 PUSH4 0xFFFFFFFF AND PUSH1 0xE0 SHL DUP2 MSTORE PUSH1 0x4 ADD PUSH1 0x20 PUSH1 0x40 MLOAD DUP1 DUP4 SUB DUP2 DUP7 GAS STATICCALL ISZERO DUP1 ISZERO PUSH2 0x2BB8 JUMPI RETURNDATASIZE PUSH0 PUSH0 RETURNDATACOPY RETURNDATASIZE PUSH0 REVERT JUMPDEST POP POP POP POP PUSH1 0x40 MLOAD RETURNDATASIZE PUSH1 0x1F NOT PUSH1 0x1F DUP3 ADD AND DUP3 ADD DUP1 PUSH1 0x40 MSTORE POP DUP2 ADD SWAP1 PUSH2 0x2BDC SWAP2 SWAP1 PUSH2 0x50A7 JUMP JUMPDEST PUSH1 0x1 PUSH1 0x1 PUSH1 0x40 SHL SUB DUP1 DUP9 AND PUSH0 SWAP1 DUP2 MSTORE PUSH1 0xF PUSH1 0x20 SWAP1 DUP2 MSTORE PUSH1 0x40 SWAP2 DUP3 SWAP1 KECCAK256 PUSH1 0x4 SWAP1 DUP2 ADD SLOAD PUSH1 0x9 SLOAD DUP5 MLOAD PUSH4 0xE61C05D PUSH1 0xE3 SHL DUP2 MSTORE SWAP5 MLOAD PUSH1 0x1 PUSH1 0x80 SHL SWAP1 SWAP3 DIV SWAP1 SWAP6 AND SWAP5 PUSH1 0x1 PUSH1 0x1 PUSH1 0xA0 SHL SUB AND SWAP4 PUSH4 0x730E02E8 SWAP4 DUP2 DUP5 ADD SWAP4 SWAP1 SWAP3 SWAP2 DUP3 SWAP1 SUB ADD DUP2 DUP7 GAS STATICCALL ISZERO DUP1 ISZERO PUSH2 0x2C49 JUMPI RETURNDATASIZE PUSH0 PUSH0 RETURNDATACOPY RETURNDATASIZE PUSH0 REVERT JUMPDEST POP POP POP POP PUSH1 0x40 MLOAD RETURNDATASIZE PUSH1 0x1F NOT PUSH1 0x1F DUP3 ADD AND DUP3 ADD DUP1 PUSH1 0x40 MSTORE POP DUP2 ADD SWAP1 PUSH2 0x2C6D SWAP2 SWAP1 PUSH2 0x50C2 JUMP JUMPDEST XOR PUSH1 0x40 MLOAD DUP4 PUSH4 0xFFFFFFFF AND PUSH1 0xE0 SHL DUP2 MSTORE PUSH1 0x4 ADD PUSH2 0x2C8B SWAP3 SWAP2 SWAP1 PUSH2 0x5785 JUMP JUMPDEST PUSH1 0x40 DUP1 MLOAD DUP1 DUP4 SUB DUP2 PUSH0 DUP8 GAS CALL ISZERO DUP1 ISZERO PUSH2 0x2CA6 JUMPI RETURNDATASIZE PUSH0 PUSH0 RETURNDATACOPY RETURNDATASIZE PUSH0 REVERT JUMPDEST POP POP POP POP PUSH1 0x40 MLOAD RETURNDATASIZE PUSH1 0x1F NOT PUSH1 0x1F DUP3 ADD AND DUP3 ADD DUP1 PUSH1 0x40 MSTORE POP DUP2 ADD SWAP1 PUSH2 0x2CCA SWAP2 SWAP1 PUSH2 0x5477 JUMP JUMPDEST SWAP2 POP SWAP2 POP SWAP3 POP SWAP3 SWAP1 POP JUMP JUMPDEST PUSH1 0x1 PUSH1 0x1 PUSH1 0xA0 SHL SUB SWAP2 DUP3 AND PUSH0 SWAP1 DUP2 MSTORE PUSH1 0x2 PUSH1 0x20 SWAP1 DUP2 MSTORE PUSH1 0x40 DUP1 DUP4 KECCAK256 SWAP4 SWAP1 SWAP5 AND DUP3 MSTORE SWAP2 SWAP1 SWAP2 MSTORE KECCAK256 SLOAD SWAP1 JUMP JUMPDEST PUSH2 0x2D07 PUSH2 0x312B JUMP JUMPDEST PUSH2 0xF49 PUSH2 0x4739 JUMP JUMPDEST PUSH32 0x7E614620A5D3DBE1EEFF25F7EDF8D9E7D287833597A645CAAF7F6434D92CC3F7 PUSH1 0xA SLOAD DUP5 DUP5 DUP5 PUSH1 0x40 MLOAD PUSH2 0x2D46 SWAP5 SWAP4 SWAP3 SWAP2 SWAP1 PUSH2 0x57A7 JUMP JUMPDEST PUSH1 0x40 MLOAD DUP1 SWAP2 SUB SWAP1 LOG1 POP POP POP JUMP JUMPDEST PUSH1 0x1 JUMPDEST PUSH1 0xB SLOAD PUSH2 0xFFFF PUSH1 0x1 PUSH1 0x40 SHL SWAP1 SWAP2 DIV DUP2 AND SWAP1 DUP3 AND GT PUSH2 0x2E24 JUMPI PUSH2 0xFFFF DUP2 AND PUSH0 SWAP1 DUP2 MSTORE PUSH1 0xC PUSH1 0x20 MSTORE PUSH1 0x40 DUP2 KECCAK256 DUP1 SLOAD PUSH2 0xFFFF NOT AND DUP2 SSTORE PUSH1 0x1 DUP2 ADD DUP1 SLOAD PUSH1 0x1 PUSH1 0x1 PUSH1 0x40 SHL SUB NOT AND DUP2 SSTORE PUSH1 0x2 DUP3 ADD DUP1 SLOAD PUSH1 0x1 PUSH1 0x1 PUSH1 0xA0 SHL SUB NOT AND SWAP1 SSTORE PUSH1 0x3 DUP3 ADD DUP1 SLOAD PUSH1 0x1 PUSH1 0x1 PUSH1 0xE0 SHL SUB NOT SWAP1 DUP2 AND SWAP1 SWAP2 SSTORE PUSH1 0x4 DUP4 ADD DUP1 SLOAD SWAP1 SWAP2 AND SWAP1 SSTORE PUSH1 0x5 DUP3 ADD DUP1 SLOAD PUSH1 0x1 PUSH1 0x1 PUSH1 0xC0 SHL SUB NOT AND SWAP1 SSTORE SWAP1 SWAP2 SWAP1 DUP2 PUSH2 0x2DF0 PUSH1 0x6 DUP6 ADD DUP3 PUSH2 0x498C JUMP JUMPDEST POP PUSH1 0x6 ADD DUP1 SLOAD PUSH1 0x1 PUSH1 0x1 PUSH1 0x40 SHL SUB NOT AND SWAP1 SSTORE PUSH2 0x2E0F PUSH1 0x8 DUP4 ADD PUSH0 PUSH2 0x498C JUMP JUMPDEST POP POP DUP1 DUP1 PUSH2 0x2E1C SWAP1 PUSH2 0x56ED JUMP JUMPDEST SWAP2 POP POP PUSH2 0x2D56 JUMP JUMPDEST POP PUSH1 0xB DUP1 SLOAD PUSH2 0xFFFF PUSH1 0x40 SHL NOT AND SWAP1 SSTORE PUSH0 JUMPDEST PUSH1 0xE SLOAD PUSH2 0xFFFF DUP3 AND LT ISZERO PUSH2 0x30E6 JUMPI PUSH1 0xD PUSH0 PUSH1 0xE DUP4 PUSH2 0xFFFF AND DUP2 SLOAD DUP2 LT PUSH2 0x2E5D JUMPI PUSH2 0x2E5D PUSH2 0x565E JUMP JUMPDEST PUSH0 SWAP2 DUP3 MSTORE PUSH1 0x20 DUP1 DUP4 KECCAK256 PUSH1 0x4 DUP4 DIV ADD SLOAD PUSH1 0x1 PUSH1 0x1 PUSH1 0x40 SHL SUB PUSH1 0x8 PUSH1 0x3 SWAP1 SWAP5 AND SWAP4 SWAP1 SWAP4 MUL PUSH2 0x100 EXP SWAP1 DIV DUP3 AND DUP5 MSTORE DUP4 ADD SWAP4 SWAP1 SWAP4 MSTORE PUSH1 0x40 SWAP1 SWAP2 ADD SWAP1 KECCAK256 SLOAD PUSH4 0x1000000 SWAP1 DIV AND ISZERO PUSH2 0x30D4 JUMPI PUSH1 0xB SLOAD PUSH1 0xE DUP1 SLOAD PUSH1 0x1 PUSH1 0x1 PUSH1 0x40 SHL SUB SWAP1 SWAP3 AND SWAP2 PUSH1 0xD SWAP2 PUSH0 SWAP2 PUSH2 0xFFFF DUP7 AND SWAP1 DUP2 LT PUSH2 0x2ED0 JUMPI PUSH2 0x2ED0 PUSH2 0x565E JUMP JUMPDEST PUSH0 SWAP2 DUP3 MSTORE PUSH1 0x20 DUP1 DUP4 KECCAK256 PUSH1 0x4 DUP4 DIV ADD SLOAD PUSH1 0x1 PUSH1 0x1 PUSH1 0x40 SHL SUB PUSH1 0x8 PUSH1 0x3 SWAP1 SWAP5 AND SWAP4 SWAP1 SWAP4 MUL PUSH2 0x100 EXP SWAP1 DIV DUP3 AND DUP5 MSTORE DUP4 ADD SWAP4 SWAP1 SWAP4 MSTORE PUSH1 0x40 SWAP1 SWAP2 ADD SWAP1 KECCAK256 SLOAD PUSH2 0x2F1E SWAP2 PUSH4 0x1000000 SWAP1 SWAP2 DIV AND PUSH1 0x2 PUSH2 0x57E7 JUMP JUMPDEST PUSH1 0x1 PUSH1 0x1 PUSH1 0x40 SHL SUB AND LT ISZERO PUSH2 0x30D4 JUMPI PUSH32 0x2ABEA071C4EF41314ED5FB00829223365387890723054FF858D1F3C0FAA1E37A PUSH1 0xE DUP3 PUSH2 0xFFFF AND DUP2 SLOAD DUP2 LT PUSH2 0x2F65 JUMPI PUSH2 0x2F65 PUSH2 0x565E JUMP JUMPDEST SWAP1 PUSH0 MSTORE PUSH1 0x20 PUSH0 KECCAK256 SWAP1 PUSH1 0x4 SWAP2 DUP3 DUP3 DIV ADD SWAP2 SWAP1 MOD PUSH1 0x8 MUL SWAP1 SLOAD SWAP1 PUSH2 0x100 EXP SWAP1 DIV PUSH1 0x1 PUSH1 0x1 PUSH1 0x40 SHL SUB AND PUSH1 0xF PUSH0 PUSH1 0xE DUP6 PUSH2 0xFFFF AND DUP2 SLOAD DUP2 LT PUSH2 0x2FA6 JUMPI PUSH2 0x2FA6 PUSH2 0x565E JUMP JUMPDEST SWAP1 PUSH0 MSTORE PUSH1 0x20 PUSH0 KECCAK256 SWAP1 PUSH1 0x4 SWAP2 DUP3 DUP3 DIV ADD SWAP2 SWAP1 MOD PUSH1 0x8 MUL SWAP1 SLOAD SWAP1 PUSH2 0x100 EXP SWAP1 DIV PUSH1 0x1 PUSH1 0x1 PUSH1 0x40 SHL SUB AND PUSH1 0x1 PUSH1 0x1 PUSH1 0x40 SHL SUB AND PUSH1 0x1 PUSH1 0x1 PUSH1 0x40 SHL SUB AND DUP2 MSTORE PUSH1 0x20 ADD SWAP1 DUP2 MSTORE PUSH1 0x20 ADD PUSH0 KECCAK256 PUSH1 0x5 ADD PUSH1 0x40 MLOAD PUSH2 0x2FFD SWAP3 SWAP2 SWAP1 PUSH2 0x5806 JUMP JUMPDEST PUSH1 0x40 MLOAD DUP1 SWAP2 SUB SWAP1 LOG1 PUSH2 0x30BA PUSH1 0xE DUP3 PUSH2 0xFFFF AND DUP2 SLOAD DUP2 LT PUSH2 0x301F JUMPI PUSH2 0x301F PUSH2 0x565E JUMP JUMPDEST SWAP1 PUSH0 MSTORE PUSH1 0x20 PUSH0 KECCAK256 SWAP1 PUSH1 0x4 SWAP2 DUP3 DUP3 DIV ADD SWAP2 SWAP1 MOD PUSH1 0x8 MUL SWAP1 SLOAD SWAP1 PUSH2 0x100 EXP SWAP1 DIV PUSH1 0x1 PUSH1 0x1 PUSH1 0x40 SHL SUB AND PUSH0 PUSH1 0xF PUSH0 PUSH1 0xE DUP7 PUSH2 0xFFFF AND DUP2 SLOAD DUP2 LT PUSH2 0x3061 JUMPI PUSH2 0x3061 PUSH2 0x565E JUMP JUMPDEST SWAP1 PUSH0 MSTORE PUSH1 0x20 PUSH0 KECCAK256 SWAP1 PUSH1 0x4 SWAP2 DUP3 DUP3 DIV ADD SWAP2 SWAP1 MOD PUSH1 0x8 MUL SWAP1 SLOAD SWAP1 PUSH2 0x100 EXP SWAP1 DIV PUSH1 0x1 PUSH1 0x1 PUSH1 0x40 SHL SUB AND PUSH1 0x1 PUSH1 0x1 PUSH1 0x40 SHL SUB AND PUSH1 0x1 PUSH1 0x1 PUSH1 0x40 SHL SUB AND DUP2 MSTORE PUSH1 0x20 ADD SWAP1 DUP2 MSTORE PUSH1 0x20 ADD PUSH0 KECCAK256 PUSH1 0x5 ADD PUSH1 0x40 MLOAD PUSH1 0x20 ADD PUSH2 0xA0E SWAP2 SWAP1 PUSH2 0x5827 JUMP JUMPDEST PUSH2 0x30D4 PUSH1 0xE DUP3 PUSH2 0xFFFF AND DUP2 SLOAD DUP2 LT PUSH2 0x1EA8 JUMPI PUSH2 0x1EA8 PUSH2 0x565E JUMP JUMPDEST DUP1 PUSH2 0x30DE DUP2 PUSH2 0x56ED JUMP JUMPDEST SWAP2 POP POP PUSH2 0x2E35 JUMP JUMPDEST POP PUSH1 0x14 SLOAD PUSH1 0xE SLOAD PUSH4 0x1000000 SWAP1 SWAP2 DIV PUSH1 0xFF AND GT PUSH2 0x3112 JUMPI PUSH1 0x10 DUP1 SLOAD PUSH1 0xFF NOT AND PUSH1 0x1 OR SWAP1 SSTORE PUSH2 0xF49 PUSH2 0x316B JUMP JUMPDEST PUSH1 0x10 DUP1 SLOAD PUSH1 0xFF NOT AND SWAP1 SSTORE JUMP JUMPDEST PUSH2 0x2306 DUP4 DUP4 DUP4 PUSH1 0x1 PUSH2 0x4766 JUMP JUMPDEST PUSH2 0x3134 CALLER PUSH2 0x211C JUMP JUMPDEST ISZERO DUP1 ISZERO PUSH2 0x3147 JUMPI POP PUSH2 0x3145 ORIGIN PUSH2 0x211C JUMP JUMPDEST ISZERO JUMPDEST ISZERO PUSH2 0xF49 JUMPI ORIGIN CALLER ADDRESS PUSH1 0x40 MLOAD PUSH4 0xBE6BAB5 PUSH1 0xE0 SHL DUP2 MSTORE PUSH1 0x4 ADD PUSH2 0xF23 SWAP4 SWAP3 SWAP2 SWAP1 PUSH2 0x5718 JUMP JUMPDEST PUSH1 0x9 PUSH0 SWAP1 SLOAD SWAP1 PUSH2 0x100 EXP SWAP1 DIV PUSH1 0x1 PUSH1 0x1 PUSH1 0xA0 SHL SUB AND PUSH1 0x1 PUSH1 0x1 PUSH1 0xA0 SHL SUB AND PUSH4 0x47122623 PUSH1 0x40 MLOAD DUP2 PUSH4 0xFFFFFFFF AND PUSH1 0xE0 SHL DUP2 MSTORE PUSH1 0x4 ADD PUSH1 0x20 PUSH1 0x40 MLOAD DUP1 DUP4 SUB DUP2 DUP7 GAS STATICCALL ISZERO DUP1 ISZERO PUSH2 0x31BB JUMPI RETURNDATASIZE PUSH0 PUSH0 RETURNDATACOPY RETURNDATASIZE PUSH0 REVERT JUMPDEST POP POP POP POP PUSH1 0x40 MLOAD RETURNDATASIZE PUSH1 0x1F NOT PUSH1 0x1F DUP3 ADD AND DUP3 ADD DUP1 PUSH1 0x40 MSTORE POP DUP2 ADD SWAP1 PUSH2 0x31DF SWAP2 SWAP1 PUSH2 0x50A7 JUMP JUMPDEST PUSH1 0x14 SLOAD PUSH1 0x40 MLOAD PUSH4 0x7DBBD60F PUSH1 0xE0 SHL DUP2 MSTORE PUSH5 0x100000000 SWAP1 SWAP2 DIV PUSH1 0xFF AND PUSH1 0x4 DUP3 ADD MSTORE PUSH1 0x1 PUSH1 0x1 PUSH1 0xA0 SHL SUB SWAP2 SWAP1 SWAP2 AND SWAP1 PUSH4 0x7DBBD60F SWAP1 PUSH1 0x24 ADD PUSH0 PUSH1 0x40 MLOAD DUP1 DUP4 SUB DUP2 PUSH0 DUP8 GAS CALL ISZERO DUP1 ISZERO PUSH2 0x3231 JUMPI RETURNDATASIZE PUSH0 PUSH0 RETURNDATACOPY RETURNDATASIZE PUSH0 REVERT JUMPDEST POP POP POP POP PUSH1 0x40 MLOAD RETURNDATASIZE PUSH0 DUP3 RETURNDATACOPY PUSH1 0x1F RETURNDATASIZE SWAP1 DUP2 ADD PUSH1 0x1F NOT AND DUP3 ADD PUSH1 0x40 MSTORE PUSH2 0x3258 SWAP2 SWAP1 DUP2 ADD SWAP1 PUSH2 0x5854 JUMP JUMPDEST PUSH1 0x11 SWAP1 PUSH2 0x3265 SWAP1 DUP3 PUSH2 0x5166 JUMP JUMPDEST POP PUSH2 0x327D PUSH0 PUSH0 PUSH1 0x11 PUSH1 0x40 MLOAD PUSH1 0x20 ADD PUSH2 0xA0E SWAP2 SWAP1 PUSH2 0x5898 JUMP JUMPDEST PUSH32 0xB500F3B74D095E267262ADAB260F9BC96D0E9F0C9169941A964C5D7CF5973EC3 PUSH1 0x11 PUSH1 0x40 MLOAD PUSH2 0x32AD SWAP2 SWAP1 PUSH2 0x58BB JUMP JUMPDEST PUSH1 0x40 MLOAD DUP1 SWAP2 SUB SWAP1 LOG1 TIMESTAMP PUSH1 0x13 SSTORE PUSH1 0xB SLOAD PUSH2 0x32D0 SWAP1 PUSH1 0x1 PUSH1 0x1 PUSH1 0x40 SHL SUB AND PUSH1 0x1 PUSH2 0x57E7 JUMP JUMPDEST PUSH1 0xB DUP1 SLOAD PUSH1 0x1 PUSH1 0x1 PUSH1 0x40 SHL SUB NOT AND PUSH1 0x1 PUSH1 0x1 PUSH1 0x40 SHL SUB SWAP3 SWAP1 SWAP3 AND SWAP2 SWAP1 SWAP2 OR SWAP1 SSTORE JUMP JUMPDEST PUSH2 0x32FA PUSH2 0x4962 JUMP JUMPDEST PUSH1 0xB SLOAD PUSH2 0x3313 SWAP1 PUSH1 0x1 PUSH1 0x40 SHL SWAP1 DIV PUSH2 0xFFFF AND PUSH1 0x1 PUSH2 0x58CD JUMP JUMPDEST PUSH1 0xB DUP1 SLOAD PUSH2 0xFFFF PUSH1 0x40 SHL NOT AND PUSH1 0x1 PUSH1 0x40 SHL PUSH2 0xFFFF SWAP4 DUP5 AND DUP2 MUL SWAP2 SWAP1 SWAP2 OR SWAP2 DUP3 SWAP1 SSTORE PUSH1 0x40 DUP5 DUP2 ADD DUP7 SWAP1 MSTORE SWAP2 DIV SWAP1 SWAP2 AND DUP3 MSTORE PUSH1 0x20 DUP1 DUP4 ADD DUP6 SWAP1 MSTORE DUP5 MLOAD PUSH1 0x9 SLOAD DUP4 MLOAD PUSH4 0x3D3DB08B PUSH1 0xE2 SHL DUP2 MSTORE SWAP4 MLOAD PUSH2 0x3575 SWAP5 SWAP3 SWAP4 PUSH1 0x1 PUSH1 0x1 PUSH1 0xA0 SHL SUB SWAP1 SWAP3 AND SWAP3 PUSH4 0xF4F6C22C SWAP3 PUSH1 0x4 DUP1 DUP4 ADD SWAP4 SWAP2 SWAP3 DUP3 SWAP1 SUB ADD DUP2 DUP7 GAS STATICCALL ISZERO DUP1 ISZERO PUSH2 0x3395 JUMPI RETURNDATASIZE PUSH0 PUSH0 RETURNDATACOPY RETURNDATASIZE PUSH0 REVERT JUMPDEST POP POP POP POP PUSH1 0x40 MLOAD RETURNDATASIZE PUSH1 0x1F NOT PUSH1 0x1F DUP3 ADD AND DUP3 ADD DUP1 PUSH1 0x40 MSTORE POP DUP2 ADD SWAP1 PUSH2 0x33B9 SWAP2 SWAP1 PUSH2 0x50A7 JUMP JUMPDEST PUSH1 0x1 PUSH1 0x1 PUSH1 0xA0 SHL SUB AND PUSH4 0x9FF43001 PUSH1 0x40 MLOAD DUP2 PUSH4 0xFFFFFFFF AND PUSH1 0xE0 SHL DUP2 MSTORE PUSH1 0x4 ADD PUSH1 0x20 PUSH1 0x40 MLOAD DUP1 DUP4 SUB DUP2 PUSH0 DUP8 GAS CALL ISZERO DUP1 ISZERO PUSH2 0x33F5 JUMPI RETURNDATASIZE PUSH0 PUSH0 RETURNDATACOPY RETURNDATASIZE PUSH0 REVERT JUMPDEST POP POP POP POP PUSH1 0x40 MLOAD RETURNDATASIZE PUSH1 0x1F NOT PUSH1 0x1F DUP3 ADD AND DUP3 ADD DUP1 PUSH1 0x40 MSTORE POP DUP2 ADD SWAP1 PUSH2 0x3419 SWAP2 SWAP1 PUSH2 0x50A7 JUMP JUMPDEST PUSH1 0x1 PUSH1 0x1 PUSH1 0xA0 SHL SUB AND PUSH4 0x27BACC40 PUSH1 0x40 MLOAD DUP2 PUSH4 0xFFFFFFFF AND PUSH1 0xE0 SHL DUP2 MSTORE PUSH1 0x4 ADD PUSH1 0x20 PUSH1 0x40 MLOAD DUP1 DUP4 SUB DUP2 DUP7 GAS STATICCALL ISZERO DUP1 ISZERO PUSH2 0x3454 JUMPI RETURNDATASIZE PUSH0 PUSH0 RETURNDATACOPY RETURNDATASIZE PUSH0 REVERT JUMPDEST POP POP POP POP PUSH1 0x40 MLOAD RETURNDATASIZE PUSH1 0x1F NOT PUSH1 0x1F DUP3 ADD AND DUP3 ADD DUP1 PUSH1 0x40 MSTORE POP DUP2 ADD SWAP1 PUSH2 0x3478 SWAP2 SWAP1 PUSH2 0x50C2 JUMP JUMPDEST DUP6 PUSH1 0x40 ADD MLOAD PUSH1 0x9 PUSH0 SWAP1 SLOAD SWAP1 PUSH2 0x100 EXP SWAP1 DIV PUSH1 0x1 PUSH1 0x1 PUSH1 0xA0 SHL SUB AND PUSH1 0x1 PUSH1 0x1 PUSH1 0xA0 SHL SUB AND PUSH4 0x47122623 PUSH1 0x40 MLOAD DUP2 PUSH4 0xFFFFFFFF AND PUSH1 0xE0 SHL DUP2 MSTORE PUSH1 0x4 ADD PUSH1 0x20 PUSH1 0x40 MLOAD DUP1 DUP4 SUB DUP2 DUP7 GAS STATICCALL ISZERO DUP1 ISZERO PUSH2 0x34CD JUMPI RETURNDATASIZE PUSH0 PUSH0 RETURNDATACOPY RETURNDATASIZE PUSH0 REVERT JUMPDEST POP POP POP POP PUSH1 0x40 MLOAD RETURNDATASIZE PUSH1 0x1F NOT PUSH1 0x1F DUP3 ADD AND DUP3 ADD DUP1 PUSH1 0x40 MSTORE POP DUP2 ADD SWAP1 PUSH2 0x34F1 SWAP2 SWAP1 PUSH2 0x50A7 JUMP JUMPDEST DUP6 MLOAD PUSH1 0x40 MLOAD PUSH4 0x13FE9D71 PUSH1 0xE1 SHL DUP2 MSTORE PUSH2 0xFFFF SWAP1 SWAP2 AND PUSH1 0x4 DUP3 ADD MSTORE PUSH1 0x1 PUSH1 0x1 PUSH1 0xA0 SHL SUB SWAP2 SWAP1 SWAP2 AND SWAP1 PUSH4 0x27FD3AE2 SWAP1 PUSH1 0x24 ADD PUSH0 PUSH1 0x40 MLOAD DUP1 DUP4 SUB DUP2 DUP7 GAS STATICCALL ISZERO DUP1 ISZERO PUSH2 0x353B JUMPI RETURNDATASIZE PUSH0 PUSH0 RETURNDATACOPY RETURNDATASIZE PUSH0 REVERT JUMPDEST POP POP POP POP PUSH1 0x40 MLOAD RETURNDATASIZE PUSH0 DUP3 RETURNDATACOPY PUSH1 0x1F RETURNDATASIZE SWAP1 DUP2 ADD PUSH1 0x1F NOT AND DUP3 ADD PUSH1 0x40 MSTORE PUSH2 0x3562 SWAP2 SWAP1 DUP2 ADD SWAP1 PUSH2 0x560B JUMP JUMPDEST DUP7 PUSH1 0x40 MLOAD PUSH1 0x20 ADD PUSH2 0xA0E SWAP4 SWAP3 SWAP2 SWAP1 PUSH2 0x58E7 JUMP JUMPDEST DUP3 MLOAD PUSH1 0x40 DUP1 DUP6 ADD MLOAD DUP4 MLOAD SWAP2 MLOAD PUSH32 0x12999E2FF992443F37828F459F18CB397EBDB64A1F8C6D4B20E6616F3D461CAE SWAP4 PUSH2 0x35B1 SWAP4 SWAP1 SWAP3 SWAP2 DUP8 SWAP1 PUSH2 0x5936 JUMP JUMPDEST PUSH1 0x40 MLOAD DUP1 SWAP2 SUB SWAP1 LOG1 PUSH1 0x9 PUSH0 SWAP1 SLOAD SWAP1 PUSH2 0x100 EXP SWAP1 DIV PUSH1 0x1 PUSH1 0x1 PUSH1 0xA0 SHL SUB AND PUSH1 0x1 PUSH1 0x1 PUSH1 0xA0 SHL SUB AND PUSH4 0x929C6CA9 PUSH1 0x40 MLOAD DUP2 PUSH4 0xFFFFFFFF AND PUSH1 0xE0 SHL DUP2 MSTORE PUSH1 0x4 ADD PUSH1 0x20 PUSH1 0x40 MLOAD DUP1 DUP4 SUB DUP2 DUP7 GAS STATICCALL ISZERO DUP1 ISZERO PUSH2 0x3609 JUMPI RETURNDATASIZE PUSH0 PUSH0 RETURNDATACOPY RETURNDATASIZE PUSH0 REVERT JUMPDEST POP POP POP POP PUSH1 0x40 MLOAD RETURNDATASIZE PUSH1 0x1F NOT PUSH1 0x1F DUP3 ADD AND DUP3 ADD DUP1 PUSH1 0x40 MSTORE POP DUP2 ADD SWAP1 PUSH2 0x362D SWAP2 SWAP1 PUSH2 0x50A7 JUMP JUMPDEST DUP4 MLOAD PUSH1 0x20 DUP6 ADD MLOAD PUSH1 0xC0 ADD MLOAD PUSH1 0x40 MLOAD PUSH4 0x5B785333 PUSH1 0xE0 SHL DUP2 MSTORE SWAP2 XOR PUSH1 0x1 PUSH1 0x1 PUSH1 0x40 SHL SUB AND PUSH1 0x4 DUP3 ADD MSTORE PUSH1 0x1 PUSH1 0x1 PUSH1 0xA0 SHL SUB SWAP2 SWAP1 SWAP2 AND SWAP1 PUSH4 0x5B785333 SWAP1 PUSH1 0x24 ADD PUSH1 0x40 DUP1 MLOAD DUP1 DUP4 SUB DUP2 PUSH0 DUP8 GAS CALL ISZERO DUP1 ISZERO PUSH2 0x3686 JUMPI RETURNDATASIZE PUSH0 PUSH0 RETURNDATACOPY RETURNDATASIZE PUSH0 REVERT JUMPDEST POP POP POP POP PUSH1 0x40 MLOAD RETURNDATASIZE PUSH1 0x1F NOT PUSH1 0x1F DUP3 ADD AND DUP3 ADD DUP1 PUSH1 0x40 MSTORE POP DUP2 ADD SWAP1 PUSH2 0x36AA SWAP2 SWAP1 PUSH2 0x5477 JUMP JUMPDEST PUSH1 0x20 DUP6 ADD DUP1 MLOAD PUSH1 0x1 PUSH1 0x1 PUSH1 0x40 SHL SUB SWAP3 DUP4 AND PUSH1 0xE0 DUP1 DUP4 ADD SWAP2 SWAP1 SWAP2 MSTORE SWAP4 SWAP1 SWAP3 AND PUSH1 0xC0 SWAP1 SWAP3 ADD SWAP2 SWAP1 SWAP2 MSTORE DUP5 MLOAD SWAP1 MLOAD SWAP1 SWAP2 ADD MLOAD PUSH2 0x36E3 SWAP2 SWAP1 PUSH2 0x28BA JUMP JUMPDEST DUP5 MLOAD PUSH1 0x1 PUSH1 0x1 PUSH1 0x40 SHL SUB SWAP1 DUP2 AND PUSH0 SWAP1 DUP2 MSTORE PUSH1 0xF PUSH1 0x20 SWAP1 DUP2 MSTORE PUSH1 0x40 DUP1 DUP4 KECCAK256 DUP10 MLOAD DUP6 AND DUP5 MSTORE SWAP3 DUP2 SWAP1 KECCAK256 PUSH1 0x4 SWAP1 DUP2 ADD DUP1 SLOAD SWAP7 DUP7 AND PUSH1 0x1 PUSH1 0x80 SHL MUL PUSH8 0xFFFFFFFFFFFFFFFF PUSH1 0x80 SHL NOT SWAP1 SWAP8 AND SWAP7 SWAP1 SWAP7 OR SWAP1 SWAP6 SSTORE SWAP2 DUP5 ADD DUP1 SLOAD SWAP6 DUP5 AND PUSH1 0x1 PUSH1 0x40 SHL MUL PUSH1 0x1 PUSH1 0x40 SHL PUSH1 0x1 PUSH1 0x80 SHL SUB NOT SWAP1 SWAP7 AND SWAP6 SWAP1 SWAP6 OR SWAP1 SWAP5 SSTORE PUSH1 0x9 SLOAD DUP8 MLOAD SWAP5 DUP9 ADD MLOAD PUSH1 0xC0 ADD MLOAD SWAP2 MLOAD PUSH4 0xEEDF25F PUSH1 0xE4 SHL DUP2 MSTORE SWAP5 DUP4 AND SWAP4 DUP6 ADD SWAP4 SWAP1 SWAP4 MSTORE AND PUSH1 0x24 DUP4 ADD MSTORE PUSH1 0x1 PUSH1 0x1 PUSH1 0xA0 SHL SUB AND SWAP1 PUSH4 0xEEDF25F0 SWAP1 PUSH1 0x44 ADD PUSH1 0x40 DUP1 MLOAD DUP1 DUP4 SUB DUP2 PUSH0 DUP8 GAS CALL ISZERO DUP1 ISZERO PUSH2 0x37AC JUMPI RETURNDATASIZE PUSH0 PUSH0 RETURNDATACOPY RETURNDATASIZE PUSH0 REVERT JUMPDEST POP POP POP POP PUSH1 0x40 MLOAD RETURNDATASIZE PUSH1 0x1F NOT PUSH1 0x1F DUP3 ADD AND DUP3 ADD DUP1 PUSH1 0x40 MSTORE POP DUP2 ADD SWAP1 PUSH2 0x37D0 SWAP2 SWAP1 PUSH2 0x5477 JUMP JUMPDEST PUSH1 0x20 DUP1 DUP5 ADD DUP1 MLOAD DUP3 ADD MLOAD PUSH1 0x1 PUSH1 0x1 PUSH1 0x40 SHL SUB SWAP4 DUP5 AND PUSH1 0xE0 DUP1 DUP4 ADD SWAP2 SWAP1 SWAP2 MSTORE SWAP5 DUP5 AND PUSH1 0xC0 SWAP2 DUP3 ADD MSTORE PUSH1 0xB SLOAD PUSH2 0xFFFF PUSH1 0x1 PUSH1 0x40 SHL SWAP2 DUP3 SWAP1 DIV DUP2 AND PUSH0 SWAP1 DUP2 MSTORE PUSH1 0xC DUP7 MSTORE PUSH1 0x40 SWAP1 DUP2 SWAP1 KECCAK256 DUP10 MLOAD DUP2 SLOAD SWAP4 AND PUSH2 0xFFFF NOT SWAP1 SWAP4 AND SWAP3 SWAP1 SWAP3 OR DUP3 SSTORE SWAP4 MLOAD DUP1 MLOAD PUSH1 0x1 DUP4 ADD DUP1 SLOAD SWAP2 DUP10 AND PUSH1 0x1 PUSH1 0x1 PUSH1 0x40 SHL SUB NOT SWAP1 SWAP3 AND SWAP2 SWAP1 SWAP2 OR DUP2 SSTORE DUP2 DUP8 ADD MLOAD DUP1 MLOAD PUSH1 0x2 DUP6 ADD DUP1 SLOAD PUSH1 0x1 PUSH1 0x1 PUSH1 0xA0 SHL SUB SWAP3 DUP4 AND PUSH1 0x1 PUSH1 0x1 PUSH1 0xA0 SHL SUB NOT SWAP1 SWAP2 AND OR SWAP1 SSTORE SWAP8 DUP2 ADD MLOAD PUSH1 0x3 DUP6 ADD DUP1 SLOAD DUP4 DUP11 ADD MLOAD DUP13 AND PUSH1 0x1 PUSH1 0xA0 SHL MUL PUSH1 0x1 PUSH1 0x1 PUSH1 0xE0 SHL SUB NOT SWAP2 DUP3 AND SWAP4 DUP13 AND SWAP4 SWAP1 SWAP4 OR SWAP3 SWAP1 SWAP3 OR SWAP1 SSTORE PUSH1 0x60 DUP3 ADD MLOAD PUSH1 0x4 DUP7 ADD DUP1 SLOAD PUSH1 0x80 DUP6 ADD MLOAD SWAP1 SWAP12 AND DUP9 MUL SWAP11 SWAP1 SWAP3 AND SWAP1 DUP12 AND OR SWAP9 SWAP1 SWAP9 OR SWAP1 SWAP8 SSTORE PUSH1 0xA0 DUP8 ADD MLOAD PUSH1 0x5 DUP5 ADD DUP1 SLOAD SWAP7 DUP10 ADD MLOAD SWAP9 SWAP1 SWAP11 ADD MLOAD DUP10 AND PUSH1 0x1 PUSH1 0x80 SHL MUL PUSH8 0xFFFFFFFFFFFFFFFF PUSH1 0x80 SHL NOT SWAP9 DUP11 AND SWAP1 SWAP6 MUL PUSH1 0x1 PUSH1 0x1 PUSH1 0x80 SHL SUB NOT SWAP1 SWAP7 AND SWAP9 AND SWAP8 SWAP1 SWAP8 OR SWAP4 SWAP1 SWAP4 OR SWAP5 SWAP1 SWAP5 AND OR SWAP1 SWAP5 SSTORE DUP4 ADD MLOAD DUP5 SWAP4 SWAP2 SWAP3 SWAP1 PUSH1 0x6 DUP5 ADD SWAP1 PUSH2 0x3925 SWAP1 DUP3 PUSH2 0x5166 JUMP JUMPDEST POP PUSH1 0x60 SWAP2 SWAP1 SWAP2 ADD MLOAD PUSH1 0x6 SWAP1 SWAP2 ADD DUP1 SLOAD PUSH1 0x1 PUSH1 0x1 PUSH1 0x40 SHL SUB NOT AND PUSH1 0x1 PUSH1 0x1 PUSH1 0x40 SHL SUB SWAP1 SWAP3 AND SWAP2 SWAP1 SWAP2 OR SWAP1 SSTORE PUSH1 0x40 DUP3 ADD MLOAD PUSH1 0x8 DUP3 ADD SWAP1 PUSH2 0x3963 SWAP1 DUP3 PUSH2 0x5166 JUMP JUMPDEST POP POP DUP4 MLOAD PUSH1 0x1 PUSH1 0x1 PUSH1 0x40 SHL SUB AND PUSH0 SWAP1 DUP2 MSTORE PUSH1 0xD PUSH1 0x20 MSTORE PUSH1 0x40 SWAP1 KECCAK256 SLOAD PUSH1 0x5 PUSH3 0x10000 SWAP1 SWAP2 DIV PUSH1 0xFF AND LT ISZERO SWAP1 POP PUSH2 0x3A0B JUMPI DUP3 MLOAD PUSH1 0x1 PUSH1 0x1 PUSH1 0x40 SHL SUB AND PUSH0 SWAP1 DUP2 MSTORE PUSH1 0xD PUSH1 0x20 MSTORE PUSH1 0x40 SWAP1 KECCAK256 SLOAD PUSH2 0x39BF SWAP1 PUSH3 0x10000 SWAP1 DIV PUSH1 0xFF AND PUSH1 0x1 PUSH2 0x5973 JUMP JUMPDEST DUP4 MLOAD PUSH1 0x1 PUSH1 0x1 PUSH1 0x40 SHL SUB AND PUSH0 SWAP1 DUP2 MSTORE PUSH1 0xD PUSH1 0x20 SWAP1 DUP2 MSTORE PUSH1 0x40 SWAP1 SWAP2 KECCAK256 DUP1 SLOAD PUSH1 0xFF SWAP4 SWAP1 SWAP4 AND PUSH3 0x10000 MUL PUSH3 0xFF0000 NOT SWAP1 SWAP4 AND SWAP3 SWAP1 SWAP3 OR SWAP1 SWAP2 SSTORE DUP4 ADD MLOAD MLOAD PUSH2 0x3A06 SWAP1 PUSH2 0x2544 PUSH1 0x12 SWAP1 JUMP JUMPDEST PUSH2 0x3C18 JUMP JUMPDEST DUP3 MLOAD PUSH1 0x9 SLOAD PUSH1 0x40 DUP1 MLOAD PUSH4 0x3D3DB08B PUSH1 0xE2 SHL DUP2 MSTORE SWAP1 MLOAD PUSH2 0x3BA9 SWAP4 SWAP3 PUSH1 0x1 PUSH1 0x1 PUSH1 0xA0 SHL SUB AND SWAP2 PUSH4 0xF4F6C22C SWAP2 PUSH1 0x4 DUP1 DUP4 ADD SWAP3 PUSH1 0x20 SWAP3 SWAP2 SWAP1 DUP3 SWAP1 SUB ADD DUP2 DUP7 GAS STATICCALL ISZERO DUP1 ISZERO PUSH2 0x3A57 JUMPI RETURNDATASIZE PUSH0 PUSH0 RETURNDATACOPY RETURNDATASIZE PUSH0 REVERT JUMPDEST POP POP POP POP PUSH1 0x40 MLOAD RETURNDATASIZE PUSH1 0x1F NOT PUSH1 0x1F DUP3 ADD AND DUP3 ADD DUP1 PUSH1 0x40 MSTORE POP DUP2 ADD SWAP1 PUSH2 0x3A7B SWAP2 SWAP1 PUSH2 0x50A7 JUMP JUMPDEST PUSH1 0x1 PUSH1 0x1 PUSH1 0xA0 SHL SUB AND PUSH4 0x9FF43001 PUSH1 0x40 MLOAD DUP2 PUSH4 0xFFFFFFFF AND PUSH1 0xE0 SHL DUP2 MSTORE PUSH1 0x4 ADD PUSH1 0x20 PUSH1 0x40 MLOAD DUP1 DUP4 SUB DUP2 PUSH0 DUP8 GAS CALL ISZERO DUP1 ISZERO PUSH2 0x3AB7 JUMPI RETURNDATASIZE PUSH0 PUSH0 RETURNDATACOPY RETURNDATASIZE PUSH0 REVERT JUMPDEST POP POP POP POP PUSH1 0x40 MLOAD RETURNDATASIZE PUSH1 0x1F NOT PUSH1 0x1F DUP3 ADD AND DUP3 ADD DUP1 PUSH1 0x40 MSTORE POP DUP2 ADD SWAP1 PUSH2 0x3ADB SWAP2 SWAP1 PUSH2 0x50A7 JUMP JUMPDEST PUSH1 0x1 PUSH1 0x1 PUSH1 0xA0 SHL SUB AND PUSH4 0x76FADE90 PUSH1 0x40 MLOAD DUP2 PUSH4 0xFFFFFFFF AND PUSH1 0xE0 SHL DUP2 MSTORE PUSH1 0x4 ADD PUSH1 0x20 PUSH1 0x40 MLOAD DUP1 DUP4 SUB DUP2 PUSH0 DUP8 GAS CALL ISZERO DUP1 ISZERO PUSH2 0x3B17 JUMPI RETURNDATASIZE PUSH0 PUSH0 RETURNDATACOPY RETURNDATASIZE PUSH0 REVERT JUMPDEST POP POP POP POP PUSH1 0x40 MLOAD RETURNDATASIZE PUSH1 0x1F NOT PUSH1 0x1F DUP3 ADD AND DUP3 ADD DUP1 PUSH1 0x40 MSTORE POP DUP2 ADD SWAP1 PUSH2 0x3B3B SWAP2 SWAP1 PUSH2 0x50A7 JUMP JUMPDEST PUSH1 0x1 PUSH1 0x1 PUSH1 0xA0 SHL SUB AND PUSH4 0xA4566950 PUSH1 0x40 MLOAD DUP2 PUSH4 0xFFFFFFFF AND PUSH1 0xE0 SHL DUP2 MSTORE PUSH1 0x4 ADD PUSH2 0x300 PUSH1 0x40 MLOAD DUP1 DUP4 SUB DUP2 PUSH0 DUP8 GAS CALL ISZERO DUP1 ISZERO PUSH2 0x3B78 JUMPI RETURNDATASIZE PUSH0 PUSH0 RETURNDATACOPY RETURNDATASIZE PUSH0 REVERT JUMPDEST POP POP POP POP PUSH1 0x40 MLOAD RETURNDATASIZE PUSH1 0x1F NOT PUSH1 0x1F DUP3 ADD AND DUP3 ADD DUP1 PUSH1 0x40 MSTORE POP DUP2 ADD SWAP1 PUSH2 0x3B9C SWAP2 SWAP1 PUSH2 0x598C JUMP JUMPDEST PUSH1 0x40 ADD MLOAD PUSH1 0xE0 ADD MLOAD PUSH2 0x28BA JUMP JUMPDEST DUP5 MLOAD PUSH1 0x1 PUSH1 0x1 PUSH1 0x40 SHL SUB SWAP1 DUP2 AND PUSH0 SWAP1 DUP2 MSTORE PUSH1 0xF PUSH1 0x20 MSTORE PUSH1 0x40 DUP1 DUP3 KECCAK256 DUP9 MLOAD DUP5 AND DUP4 MSTORE SWAP2 KECCAK256 PUSH1 0x4 SWAP1 DUP2 ADD DUP1 SLOAD PUSH8 0xFFFFFFFFFFFFFFFF PUSH1 0x80 SHL NOT AND PUSH1 0x1 PUSH1 0x80 SHL SWAP6 DUP6 AND SWAP6 SWAP1 SWAP6 MUL SWAP5 SWAP1 SWAP5 OR SWAP1 SWAP4 SSTORE SWAP2 SWAP1 SWAP2 ADD DUP1 SLOAD PUSH1 0x1 PUSH1 0x40 SHL PUSH1 0x1 PUSH1 0x80 SHL SUB NOT AND PUSH1 0x1 PUSH1 0x40 SHL SWAP4 SWAP1 SWAP3 AND SWAP3 SWAP1 SWAP3 MUL OR SWAP1 SSTORE JUMPDEST PUSH1 0x14 SLOAD PUSH2 0x3C2F SWAP1 PUSH3 0x10000 SWAP1 DIV PUSH1 0xFF AND PUSH1 0x3C PUSH2 0x574F JUMP JUMPDEST PUSH1 0xFF AND PUSH1 0x13 SLOAD PUSH2 0x3C3F SWAP2 SWAP1 PUSH2 0x5772 JUMP JUMPDEST TIMESTAMP LT PUSH2 0x2306 JUMPI PUSH2 0x2306 PUSH2 0x3F75 JUMP JUMPDEST PUSH0 PUSH2 0x3C58 DUP5 DUP5 PUSH2 0x2CD5 JUMP JUMPDEST SWAP1 POP PUSH0 NOT DUP2 EQ PUSH2 0x1EE6 JUMPI DUP2 DUP2 LT ISZERO PUSH2 0x3C90 JUMPI ORIGIN CALLER DUP6 DUP6 ADDRESS DUP6 DUP8 PUSH1 0x40 MLOAD PUSH3 0xB83D19 PUSH1 0xE2 SHL DUP2 MSTORE PUSH1 0x4 ADD PUSH2 0xF23 SWAP8 SWAP7 SWAP6 SWAP5 SWAP4 SWAP3 SWAP2 SWAP1 PUSH2 0x59FD JUMP JUMPDEST PUSH2 0x1EE6 DUP5 DUP5 DUP5 DUP5 SUB PUSH0 PUSH2 0x4766 JUMP JUMPDEST PUSH2 0x2306 DUP4 DUP4 DUP4 PUSH2 0x47E6 JUMP JUMPDEST PUSH0 JUMPDEST PUSH1 0xE SLOAD PUSH2 0xFFFF DUP3 AND LT ISZERO PUSH2 0xCDA JUMPI DUP2 PUSH1 0x1 PUSH1 0x1 PUSH1 0x40 SHL SUB AND PUSH1 0xE DUP3 PUSH2 0xFFFF AND DUP2 SLOAD DUP2 LT PUSH2 0x3CDA JUMPI PUSH2 0x3CDA PUSH2 0x565E JUMP JUMPDEST PUSH0 SWAP2 DUP3 MSTORE PUSH1 0x20 SWAP1 SWAP2 KECCAK256 PUSH1 0x4 DUP3 DIV ADD SLOAD PUSH1 0x3 SWAP1 SWAP2 AND PUSH1 0x8 MUL PUSH2 0x100 EXP SWAP1 DIV PUSH1 0x1 PUSH1 0x1 PUSH1 0x40 SHL SUB AND SUB PUSH2 0x3F05 JUMPI PUSH1 0xD PUSH0 PUSH1 0xE DUP4 PUSH2 0xFFFF AND DUP2 SLOAD DUP2 LT PUSH2 0x3D1F JUMPI PUSH2 0x3D1F PUSH2 0x565E JUMP JUMPDEST PUSH0 SWAP2 DUP3 MSTORE PUSH1 0x20 DUP1 DUP4 KECCAK256 PUSH1 0x4 DUP4 DIV ADD SLOAD PUSH1 0x3 SWAP1 SWAP3 AND PUSH1 0x8 MUL PUSH2 0x100 EXP SWAP1 SWAP2 DIV PUSH1 0x1 PUSH1 0x1 PUSH1 0x40 SHL SUB AND DUP4 MSTORE DUP3 ADD SWAP3 SWAP1 SWAP3 MSTORE PUSH1 0x40 ADD DUP2 KECCAK256 DUP1 SLOAD PUSH11 0xFFFFFFFFFFFFFFFFFFFFFF NOT AND SWAP1 SSTORE PUSH1 0xE DUP1 SLOAD PUSH1 0xF SWAP3 SWAP2 SWAP1 PUSH2 0xFFFF DUP6 AND SWAP1 DUP2 LT PUSH2 0x3D82 JUMPI PUSH2 0x3D82 PUSH2 0x565E JUMP JUMPDEST PUSH0 SWAP2 DUP3 MSTORE PUSH1 0x20 DUP1 DUP4 KECCAK256 PUSH1 0x4 DUP1 DUP5 DIV SWAP1 SWAP2 ADD SLOAD PUSH1 0x3 SWAP4 DUP5 AND PUSH1 0x8 MUL PUSH2 0x100 EXP SWAP1 DIV PUSH1 0x1 PUSH1 0x1 PUSH1 0x40 SHL SUB AND DUP6 MSTORE SWAP1 DUP5 ADD SWAP5 SWAP1 SWAP5 MSTORE PUSH1 0x40 SWAP1 SWAP3 ADD DUP2 KECCAK256 DUP1 SLOAD PUSH1 0x1 PUSH1 0x1 PUSH1 0x40 SHL SUB NOT AND DUP2 SSTORE PUSH1 0x1 DUP2 ADD DUP1 SLOAD PUSH1 0x1 PUSH1 0x1 PUSH1 0xA0 SHL SUB NOT AND SWAP1 SSTORE PUSH1 0x2 DUP2 ADD DUP1 SLOAD PUSH1 0x1 PUSH1 0x1 PUSH1 0xE0 SHL SUB NOT SWAP1 DUP2 AND SWAP1 SWAP2 SSTORE SWAP3 DUP2 ADD DUP1 SLOAD SWAP1 SWAP4 AND SWAP1 SWAP3 SSTORE SWAP2 DUP2 ADD DUP1 SLOAD PUSH1 0x1 PUSH1 0x1 PUSH1 0xC0 SHL SUB NOT AND SWAP1 SSTORE SWAP1 PUSH2 0x3E1A PUSH1 0x5 DUP4 ADD DUP3 PUSH2 0x498C JUMP JUMPDEST POP PUSH1 0x6 ADD DUP1 SLOAD PUSH1 0x1 PUSH1 0x1 PUSH1 0x40 SHL SUB NOT AND SWAP1 SSTORE PUSH1 0xE DUP1 SLOAD PUSH2 0x3E3C SWAP1 PUSH1 0x1 SWAP1 PUSH2 0x5A40 JUMP JUMPDEST DUP2 SLOAD DUP2 LT PUSH2 0x3E4C JUMPI PUSH2 0x3E4C PUSH2 0x565E JUMP JUMPDEST SWAP1 PUSH0 MSTORE PUSH1 0x20 PUSH0 KECCAK256 SWAP1 PUSH1 0x4 SWAP2 DUP3 DUP3 DIV ADD SWAP2 SWAP1 MOD PUSH1 0x8 MUL SWAP1 SLOAD SWAP1 PUSH2 0x100 EXP SWAP1 DIV PUSH1 0x1 PUSH1 0x1 PUSH1 0x40 SHL SUB AND PUSH1 0xE DUP3 PUSH2 0xFFFF AND DUP2 SLOAD DUP2 LT PUSH2 0x3E8A JUMPI PUSH2 0x3E8A PUSH2 0x565E JUMP JUMPDEST SWAP1 PUSH0 MSTORE PUSH1 0x20 PUSH0 KECCAK256 SWAP1 PUSH1 0x4 SWAP2 DUP3 DUP3 DIV ADD SWAP2 SWAP1 MOD PUSH1 0x8 MUL PUSH2 0x100 EXP DUP2 SLOAD DUP2 PUSH1 0x1 PUSH1 0x1 PUSH1 0x40 SHL SUB MUL NOT AND SWAP1 DUP4 PUSH1 0x1 PUSH1 0x1 PUSH1 0x40 SHL SUB AND MUL OR SWAP1 SSTORE POP PUSH1 0xE DUP1 SLOAD DUP1 PUSH2 0x3ED2 JUMPI PUSH2 0x3ED2 PUSH2 0x5A53 JUMP JUMPDEST PUSH0 DUP3 DUP2 MSTORE PUSH1 0x20 SWAP1 KECCAK256 PUSH1 0x4 PUSH0 NOT SWAP1 SWAP3 ADD SWAP2 DUP3 DIV ADD DUP1 SLOAD PUSH1 0x1 PUSH1 0x1 PUSH1 0x40 SHL SUB PUSH1 0x8 PUSH1 0x3 DUP6 AND MUL PUSH2 0x100 EXP MUL NOT AND SWAP1 SSTORE SWAP1 SSTORE POP POP JUMP JUMPDEST DUP1 PUSH2 0x3F0F DUP2 PUSH2 0x56ED JUMP JUMPDEST SWAP2 POP POP PUSH2 0x3CAB JUMP JUMPDEST PUSH1 0x1 PUSH1 0x1 PUSH1 0xA0 SHL SUB DUP3 AND PUSH0 DUP2 DUP2 MSTORE PUSH1 0x20 DUP2 SWAP1 MSTORE PUSH1 0x40 DUP1 DUP3 KECCAK256 DUP1 SLOAD PUSH1 0xFF NOT AND DUP6 ISZERO ISZERO SWAP1 DUP2 OR SWAP1 SWAP2 SSTORE SWAP1 MLOAD SWAP1 SWAP3 SWAP2 PUSH32 0x6BFA7E860C3E9BF67B810CB88276B19B27C972812BAC04793D369B59A1183A83 SWAP2 LOG3 POP POP JUMP JUMPDEST PUSH2 0xCDA PUSH0 DUP4 DUP4 PUSH2 0x47E6 JUMP JUMPDEST PUSH1 0xB SLOAD PUSH0 SWAP1 PUSH2 0x3F90 SWAP1 PUSH1 0x1 PUSH1 0x40 SHL SWAP1 DIV PUSH2 0xFFFF AND PUSH1 0x1 PUSH2 0x58CD JUMP JUMPDEST PUSH2 0xFFFF AND PUSH1 0x1 PUSH1 0x1 PUSH1 0x40 SHL SUB DUP2 GT ISZERO PUSH2 0x3FAB JUMPI PUSH2 0x3FAB PUSH2 0x4A76 JUMP JUMPDEST PUSH1 0x40 MLOAD SWAP1 DUP1 DUP3 MSTORE DUP1 PUSH1 0x20 MUL PUSH1 0x20 ADD DUP3 ADD PUSH1 0x40 MSTORE DUP1 ISZERO PUSH2 0x3FD4 JUMPI DUP2 PUSH1 0x20 ADD PUSH1 0x20 DUP3 MUL DUP1 CALLDATASIZE DUP4 CALLDATACOPY ADD SWAP1 POP JUMPDEST POP SWAP1 POP PUSH0 DUP1 DUP1 JUMPDEST PUSH1 0xE SLOAD PUSH2 0xFFFF DUP3 AND LT ISZERO PUSH2 0x40F3 JUMPI PUSH1 0xB SLOAD PUSH1 0xE DUP1 SLOAD PUSH1 0x1 PUSH1 0x1 PUSH1 0x40 SHL SUB SWAP1 SWAP3 AND SWAP2 PUSH1 0xD SWAP2 PUSH0 SWAP2 PUSH2 0xFFFF DUP7 AND SWAP1 DUP2 LT PUSH2 0x4015 JUMPI PUSH2 0x4015 PUSH2 0x565E JUMP JUMPDEST PUSH0 SWAP2 DUP3 MSTORE PUSH1 0x20 DUP1 DUP4 KECCAK256 PUSH1 0x4 DUP4 DIV ADD SLOAD PUSH1 0x1 PUSH1 0x1 PUSH1 0x40 SHL SUB PUSH1 0x8 PUSH1 0x3 SWAP1 SWAP5 AND SWAP4 SWAP1 SWAP4 MUL PUSH2 0x100 EXP SWAP1 DIV DUP3 AND DUP5 MSTORE DUP4 ADD SWAP4 SWAP1 SWAP4 MSTORE PUSH1 0x40 SWAP1 SWAP2 ADD SWAP1 KECCAK256 SLOAD PUSH4 0x1000000 SWAP1 DIV AND SUB PUSH2 0x40E1 JUMPI PUSH1 0x1 DUP5 PUSH1 0xD PUSH0 PUSH1 0xE DUP6 PUSH2 0xFFFF AND DUP2 SLOAD DUP2 LT PUSH2 0x4079 JUMPI PUSH2 0x4079 PUSH2 0x565E JUMP JUMPDEST PUSH0 SWAP2 DUP3 MSTORE PUSH1 0x20 DUP1 DUP4 KECCAK256 PUSH1 0x4 DUP4 DIV ADD SLOAD PUSH1 0x3 SWAP1 SWAP3 AND PUSH1 0x8 MUL PUSH2 0x100 EXP SWAP1 SWAP2 DIV PUSH1 0x1 PUSH1 0x1 PUSH1 0x40 SHL SUB AND DUP4 MSTORE DUP3 ADD SWAP3 SWAP1 SWAP3 MSTORE PUSH1 0x40 ADD SWAP1 KECCAK256 SLOAD DUP2 MLOAD PUSH2 0xFFFF SWAP1 SWAP2 AND SWAP1 DUP2 LT PUSH2 0x40C5 JUMPI PUSH2 0x40C5 PUSH2 0x565E JUMP JUMPDEST PUSH1 0x20 MUL PUSH1 0x20 ADD ADD DUP2 DUP2 MLOAD PUSH2 0x40D9 SWAP2 SWAP1 PUSH2 0x58CD JUMP JUMPDEST PUSH2 0xFFFF AND SWAP1 MSTORE POP JUMPDEST DUP1 PUSH2 0x40EB DUP2 PUSH2 0x56ED JUMP JUMPDEST SWAP2 POP POP PUSH2 0x3FDB JUMP JUMPDEST POP PUSH1 0x1 JUMPDEST PUSH1 0xB SLOAD PUSH2 0xFFFF PUSH1 0x1 PUSH1 0x40 SHL SWAP1 SWAP2 DIV DUP2 AND SWAP1 DUP3 AND GT PUSH2 0x41B1 JUMPI DUP2 PUSH2 0xFFFF AND DUP5 DUP3 PUSH2 0xFFFF AND DUP2 MLOAD DUP2 LT PUSH2 0x412A JUMPI PUSH2 0x412A PUSH2 0x565E JUMP JUMPDEST PUSH1 0x20 MUL PUSH1 0x20 ADD ADD MLOAD PUSH2 0xFFFF AND GT ISZERO PUSH2 0x4165 JUMPI DUP4 DUP2 PUSH2 0xFFFF AND DUP2 MLOAD DUP2 LT PUSH2 0x4152 JUMPI PUSH2 0x4152 PUSH2 0x565E JUMP JUMPDEST PUSH1 0x20 MUL PUSH1 0x20 ADD ADD MLOAD SWAP2 POP PUSH1 0x1 SWAP3 POP PUSH2 0x419F JUMP JUMPDEST DUP2 PUSH2 0xFFFF AND DUP5 DUP3 PUSH2 0xFFFF AND DUP2 MLOAD DUP2 LT PUSH2 0x4180 JUMPI PUSH2 0x4180 PUSH2 0x565E JUMP JUMPDEST PUSH1 0x20 MUL PUSH1 0x20 ADD ADD MLOAD PUSH2 0xFFFF AND SUB PUSH2 0x419F JUMPI PUSH2 0x419C PUSH1 0x1 DUP5 PUSH2 0x58CD JUMP JUMPDEST SWAP3 POP JUMPDEST DUP1 PUSH2 0x41A9 DUP2 PUSH2 0x56ED JUMP JUMPDEST SWAP2 POP POP PUSH2 0x40F7 JUMP JUMPDEST POP PUSH2 0xFFFF DUP2 AND ISZERO PUSH2 0x4731 JUMPI PUSH1 0x1 JUMPDEST PUSH1 0xB SLOAD PUSH2 0xFFFF PUSH1 0x1 PUSH1 0x40 SHL SWAP1 SWAP2 DIV DUP2 AND SWAP1 DUP3 AND GT PUSH2 0x472F JUMPI DUP2 PUSH2 0xFFFF AND DUP5 DUP3 PUSH2 0xFFFF AND DUP2 MLOAD DUP2 LT PUSH2 0x41F2 JUMPI PUSH2 0x41F2 PUSH2 0x565E JUMP JUMPDEST PUSH1 0x20 MUL PUSH1 0x20 ADD ADD MLOAD PUSH2 0xFFFF AND SUB PUSH2 0x471D JUMPI PUSH2 0xFFFF DUP2 AND PUSH0 SWAP1 DUP2 MSTORE PUSH1 0xC PUSH1 0x20 SWAP1 DUP2 MSTORE PUSH1 0x40 DUP1 DUP4 KECCAK256 PUSH1 0x1 DUP2 ADD SLOAD SWAP2 MLOAD PUSH2 0x4244 SWAP5 PUSH1 0x1 PUSH1 0x1 PUSH1 0x40 SHL SUB SWAP1 SWAP4 AND SWAP4 PUSH2 0xA0E SWAP3 PUSH1 0x6 DUP2 ADD SWAP3 PUSH1 0x8 SWAP1 SWAP2 ADD SWAP2 ADD PUSH2 0x5A67 JUMP JUMPDEST PUSH2 0xFFFF DUP1 DUP3 AND PUSH0 SWAP1 DUP2 MSTORE PUSH1 0xC PUSH1 0x20 MSTORE PUSH1 0x40 SWAP1 KECCAK256 PUSH1 0x1 DUP2 ADD SLOAD PUSH1 0x14 SLOAD PUSH32 0x2533F4DA34A8A88C9CEBF7EF6278DA33A20A4A767DAE73C3CD91BF4B2DEA8904 SWAP4 PUSH1 0x1 PUSH1 0x1 PUSH1 0x40 SHL SUB SWAP1 SWAP3 AND SWAP3 PUSH1 0x6 DUP2 ADD SWAP3 PUSH1 0x8 SWAP1 SWAP2 ADD SWAP2 PUSH2 0x42A4 SWAP2 DUP10 SWAP2 AND PUSH2 0x5A99 JUMP JUMPDEST PUSH1 0x40 MLOAD PUSH2 0x42B4 SWAP5 SWAP4 SWAP3 SWAP2 SWAP1 PUSH2 0x5ABC JUMP JUMPDEST PUSH1 0x40 MLOAD DUP1 SWAP2 SUB SWAP1 LOG1 PUSH2 0xFFFF DUP2 AND PUSH0 SWAP1 DUP2 MSTORE PUSH1 0xC PUSH1 0x20 MSTORE PUSH1 0x40 SWAP1 KECCAK256 PUSH1 0x2 ADD SLOAD PUSH2 0x430B SWAP1 PUSH1 0x1 PUSH1 0x1 PUSH1 0xA0 SHL SUB AND PUSH2 0x42EB PUSH1 0x12 PUSH1 0xA PUSH2 0x559B JUMP JUMPDEST PUSH1 0x14 SLOAD PUSH2 0x42FD SWAP1 DUP8 SWAP1 PUSH2 0xFFFF AND PUSH2 0x5A99 JUMP JUMPDEST PUSH2 0xFFFF AND PUSH2 0x255A SWAP2 SWAP1 PUSH2 0x55A9 JUMP JUMPDEST PUSH2 0xFFFF DUP2 AND PUSH0 SWAP1 DUP2 MSTORE PUSH1 0xC PUSH1 0x20 SWAP1 DUP2 MSTORE PUSH1 0x40 SWAP2 DUP3 SWAP1 KECCAK256 PUSH1 0x1 ADD SLOAD PUSH1 0x9 SLOAD DUP4 MLOAD PUSH4 0x3D3DB08B PUSH1 0xE2 SHL DUP2 MSTORE SWAP4 MLOAD PUSH2 0x44C9 SWAP5 PUSH1 0x1 PUSH1 0x1 PUSH1 0x40 SHL SUB SWAP1 SWAP4 AND SWAP4 PUSH1 0x1 PUSH1 0x1 PUSH1 0xA0 SHL SUB SWAP1 SWAP3 AND SWAP3 PUSH4 0xF4F6C22C SWAP3 PUSH1 0x4 DUP1 DUP4 ADD SWAP4 SWAP2 SWAP3 DUP3 SWAP1 SUB ADD DUP2 DUP7 GAS STATICCALL ISZERO DUP1 ISZERO PUSH2 0x4377 JUMPI RETURNDATASIZE PUSH0 PUSH0 RETURNDATACOPY RETURNDATASIZE PUSH0 REVERT JUMPDEST POP POP POP POP PUSH1 0x40 MLOAD RETURNDATASIZE PUSH1 0x1F NOT PUSH1 0x1F DUP3 ADD AND DUP3 ADD DUP1 PUSH1 0x40 MSTORE POP DUP2 ADD SWAP1 PUSH2 0x439B SWAP2 SWAP1 PUSH2 0x50A7 JUMP JUMPDEST PUSH1 0x1 PUSH1 0x1 PUSH1 0xA0 SHL SUB AND PUSH4 0x9FF43001 PUSH1 0x40 MLOAD DUP2 PUSH4 0xFFFFFFFF AND PUSH1 0xE0 SHL DUP2 MSTORE PUSH1 0x4 ADD PUSH1 0x20 PUSH1 0x40 MLOAD DUP1 DUP4 SUB DUP2 PUSH0 DUP8 GAS CALL ISZERO DUP1 ISZERO PUSH2 0x43D7 JUMPI RETURNDATASIZE PUSH0 PUSH0 RETURNDATACOPY RETURNDATASIZE PUSH0 REVERT JUMPDEST POP POP POP POP PUSH1 0x40 MLOAD RETURNDATASIZE PUSH1 0x1F NOT PUSH1 0x1F DUP3 ADD AND DUP3 ADD DUP1 PUSH1 0x40 MSTORE POP DUP2 ADD SWAP1 PUSH2 0x43FB SWAP2 SWAP1 PUSH2 0x50A7 JUMP JUMPDEST PUSH1 0x1 PUSH1 0x1 PUSH1 0xA0 SHL SUB AND PUSH4 0x76FADE90 PUSH1 0x40 MLOAD DUP2 PUSH4 0xFFFFFFFF AND PUSH1 0xE0 SHL DUP2 MSTORE PUSH1 0x4 ADD PUSH1 0x20 PUSH1 0x40 MLOAD DUP1 DUP4 SUB DUP2 PUSH0 DUP8 GAS CALL ISZERO DUP1 ISZERO PUSH2 0x4437 JUMPI RETURNDATASIZE PUSH0 PUSH0 RETURNDATACOPY RETURNDATASIZE PUSH0 REVERT JUMPDEST POP POP POP POP PUSH1 0x40 MLOAD RETURNDATASIZE PUSH1 0x1F NOT PUSH1 0x1F DUP3 ADD AND DUP3 ADD DUP1 PUSH1 0x40 MSTORE POP DUP2 ADD SWAP1 PUSH2 0x445B SWAP2 SWAP1 PUSH2 0x50A7 JUMP JUMPDEST PUSH1 0x1 PUSH1 0x1 PUSH1 0xA0 SHL SUB AND PUSH4 0xA4566950 PUSH1 0x40 MLOAD DUP2 PUSH4 0xFFFFFFFF AND PUSH1 0xE0 SHL DUP2 MSTORE PUSH1 0x4 ADD PUSH2 0x300 PUSH1 0x40 MLOAD DUP1 DUP4 SUB DUP2 PUSH0 DUP8 GAS CALL ISZERO DUP1 ISZERO PUSH2 0x4498 JUMPI RETURNDATASIZE PUSH0 PUSH0 RETURNDATACOPY RETURNDATASIZE PUSH0 REVERT JUMPDEST POP POP POP POP PUSH1 0x40 MLOAD RETURNDATASIZE PUSH1 0x1F NOT PUSH1 0x1F DUP3 ADD AND DUP3 ADD DUP1 PUSH1 0x40 MSTORE POP DUP2 ADD SWAP1 PUSH2 0x44BC SWAP2 SWAP1 PUSH2 0x598C JUMP JUMPDEST PUSH1 0x20 ADD MLOAD PUSH1 0xE0 ADD MLOAD PUSH2 0x28BA JUMP JUMPDEST PUSH2 0xFFFF DUP4 AND PUSH0 SWAP1 DUP2 MSTORE PUSH1 0xC PUSH1 0x20 SWAP1 DUP2 MSTORE PUSH1 0x40 SWAP2 DUP3 SWAP1 KECCAK256 PUSH1 0x5 DUP2 ADD DUP1 SLOAD PUSH1 0x1 PUSH1 0x40 SHL PUSH1 0x1 PUSH1 0xC0 SHL SUB NOT AND PUSH1 0x1 PUSH1 0x80 SHL PUSH1 0x1 PUSH1 0x1 PUSH1 0x40 SHL SUB SWAP7 DUP8 AND MUL PUSH1 0x1 PUSH1 0x40 SHL PUSH1 0x1 PUSH1 0x80 SHL SUB NOT AND OR PUSH1 0x1 PUSH1 0x40 SHL SWAP7 DUP7 AND DUP8 MUL OR SWAP1 DUP2 SWAP1 SSTORE PUSH1 0x1 SWAP1 SWAP2 ADD SLOAD PUSH1 0x9 SLOAD DUP5 MLOAD PUSH4 0x3D3DB08B PUSH1 0xE2 SHL DUP2 MSTORE SWAP5 MLOAD PUSH2 0x46C9 SWAP8 SWAP3 DUP8 AND SWAP7 SWAP3 SWAP1 SWAP4 DIV SWAP1 SWAP2 AND SWAP4 PUSH1 0x1 PUSH1 0x1 PUSH1 0xA0 SHL SUB SWAP1 SWAP2 AND SWAP3 PUSH4 0xF4F6C22C SWAP3 PUSH1 0x4 DUP1 DUP5 ADD SWAP4 DUP3 SWAP1 SUB ADD DUP2 DUP7 GAS STATICCALL ISZERO DUP1 ISZERO PUSH2 0x4576 JUMPI RETURNDATASIZE PUSH0 PUSH0 RETURNDATACOPY RETURNDATASIZE PUSH0 REVERT JUMPDEST POP POP POP POP PUSH1 0x40 MLOAD RETURNDATASIZE PUSH1 0x1F NOT PUSH1 0x1F DUP3 ADD AND DUP3 ADD DUP1 PUSH1 0x40 MSTORE POP DUP2 ADD SWAP1 PUSH2 0x459A SWAP2 SWAP1 PUSH2 0x50A7 JUMP JUMPDEST PUSH1 0x1 PUSH1 0x1 PUSH1 0xA0 SHL SUB AND PUSH4 0x9FF43001 PUSH1 0x40 MLOAD DUP2 PUSH4 0xFFFFFFFF AND PUSH1 0xE0 SHL DUP2 MSTORE PUSH1 0x4 ADD PUSH1 0x20 PUSH1 0x40 MLOAD DUP1 DUP4 SUB DUP2 PUSH0 DUP8 GAS CALL ISZERO DUP1 ISZERO PUSH2 0x45D6 JUMPI RETURNDATASIZE PUSH0 PUSH0 RETURNDATACOPY RETURNDATASIZE PUSH0 REVERT JUMPDEST POP POP POP POP PUSH1 0x40 MLOAD RETURNDATASIZE PUSH1 0x1F NOT PUSH1 0x1F DUP3 ADD AND DUP3 ADD DUP1 PUSH1 0x40 MSTORE POP DUP2 ADD SWAP1 PUSH2 0x45FA SWAP2 SWAP1 PUSH2 0x50A7 JUMP JUMPDEST PUSH1 0x1 PUSH1 0x1 PUSH1 0xA0 SHL SUB AND PUSH4 0x76FADE90 PUSH1 0x40 MLOAD DUP2 PUSH4 0xFFFFFFFF AND PUSH1 0xE0 SHL DUP2 MSTORE PUSH1 0x4 ADD PUSH1 0x20 PUSH1 0x40 MLOAD DUP1 DUP4 SUB DUP2 PUSH0 DUP8 GAS CALL ISZERO DUP1 ISZERO PUSH2 0x4636 JUMPI RETURNDATASIZE PUSH0 PUSH0 RETURNDATACOPY RETURNDATASIZE PUSH0 REVERT JUMPDEST POP POP POP POP PUSH1 0x40 MLOAD RETURNDATASIZE PUSH1 0x1F NOT PUSH1 0x1F DUP3 ADD AND DUP3 ADD DUP1 PUSH1 0x40 MSTORE POP DUP2 ADD SWAP1 PUSH2 0x465A SWAP2 SWAP1 PUSH2 0x50A7 JUMP JUMPDEST PUSH1 0x1 PUSH1 0x1 PUSH1 0xA0 SHL SUB AND PUSH4 0xA4566950 PUSH1 0x40 MLOAD DUP2 PUSH4 0xFFFFFFFF AND PUSH1 0xE0 SHL DUP2 MSTORE PUSH1 0x4 ADD PUSH2 0x300 PUSH1 0x40 MLOAD DUP1 DUP4 SUB DUP2 PUSH0 DUP8 GAS CALL ISZERO DUP1 ISZERO PUSH2 0x4697 JUMPI RETURNDATASIZE PUSH0 PUSH0 RETURNDATACOPY RETURNDATASIZE PUSH0 REVERT JUMPDEST POP POP POP POP PUSH1 0x40 MLOAD RETURNDATASIZE PUSH1 0x1F NOT PUSH1 0x1F DUP3 ADD AND DUP3 ADD DUP1 PUSH1 0x40 MSTORE POP DUP2 ADD SWAP1 PUSH2 0x46BB SWAP2 SWAP1 PUSH2 0x598C JUMP JUMPDEST PUSH1 0x40 ADD MLOAD PUSH1 0xC0 ADD MLOAD XOR PUSH2 0x28BA JUMP JUMPDEST PUSH2 0xFFFF DUP4 AND PUSH0 SWAP1 DUP2 MSTORE PUSH1 0xC PUSH1 0x20 MSTORE PUSH1 0x40 SWAP1 KECCAK256 PUSH1 0x5 ADD DUP1 SLOAD PUSH1 0x1 PUSH1 0x40 SHL PUSH1 0x1 PUSH1 0xC0 SHL SUB NOT AND PUSH1 0x1 PUSH1 0x80 SHL PUSH1 0x1 PUSH1 0x1 PUSH1 0x40 SHL SUB SWAP4 DUP5 AND MUL PUSH1 0x1 PUSH1 0x40 SHL PUSH1 0x1 PUSH1 0x80 SHL SUB NOT AND OR PUSH1 0x1 PUSH1 0x40 SHL SWAP4 SWAP1 SWAP3 AND SWAP3 SWAP1 SWAP3 MUL OR SWAP1 SSTORE JUMPDEST DUP1 PUSH2 0x4727 DUP2 PUSH2 0x56ED JUMP JUMPDEST SWAP2 POP POP PUSH2 0x41BF JUMP JUMPDEST POP JUMPDEST PUSH2 0x2306 PUSH2 0x2D53 JUMP JUMPDEST PUSH2 0x4745 PUSH1 0x12 PUSH1 0xA PUSH2 0x559B JUMP JUMPDEST PUSH1 0x7 SLOAD PUSH2 0x4752 SWAP2 SWAP1 PUSH2 0x55A9 JUMP JUMPDEST PUSH1 0x3 SLOAD LT ISZERO PUSH2 0xF49 JUMPI PUSH2 0xF49 ADDRESS PUSH1 0x12 PUSH2 0x2544 JUMP JUMPDEST PUSH1 0x1 PUSH1 0x1 PUSH1 0xA0 SHL SUB DUP1 DUP6 AND PUSH0 SWAP1 DUP2 MSTORE PUSH1 0x2 PUSH1 0x20 SWAP1 DUP2 MSTORE PUSH1 0x40 DUP1 DUP4 KECCAK256 SWAP4 DUP8 AND DUP4 MSTORE SWAP3 SWAP1 MSTORE KECCAK256 DUP3 SWAP1 SSTORE DUP1 ISZERO PUSH2 0x1EE6 JUMPI DUP3 PUSH1 0x1 PUSH1 0x1 PUSH1 0xA0 SHL SUB AND DUP5 PUSH1 0x1 PUSH1 0x1 PUSH1 0xA0 SHL SUB AND PUSH32 0x8C5BE1E5EBEC7D5BD14F71427D1E84F3DD0314C0F7B2291E5B200AC8C7C3B925 DUP5 PUSH1 0x40 MLOAD PUSH2 0x47D8 SWAP2 DUP2 MSTORE PUSH1 0x20 ADD SWAP1 JUMP JUMPDEST PUSH1 0x40 MLOAD DUP1 SWAP2 SUB SWAP1 LOG3 POP POP POP POP JUMP JUMPDEST PUSH1 0x1 PUSH1 0x1 PUSH1 0xA0 SHL SUB DUP4 AND PUSH2 0x4810 JUMPI DUP1 PUSH1 0x3 PUSH0 DUP3 DUP3 SLOAD PUSH2 0x4805 SWAP2 SWAP1 PUSH2 0x5772 JUMP JUMPDEST SWAP1 SWAP2 SSTORE POP PUSH2 0x4875 SWAP1 POP JUMP JUMPDEST PUSH1 0x1 PUSH1 0x1 PUSH1 0xA0 SHL SUB DUP4 AND PUSH0 SWAP1 DUP2 MSTORE PUSH1 0x1 PUSH1 0x20 MSTORE PUSH1 0x40 SWAP1 KECCAK256 SLOAD DUP2 DUP2 LT ISZERO PUSH2 0x4857 JUMPI ORIGIN CALLER DUP6 DUP6 ADDRESS DUP6 DUP8 PUSH1 0x40 MLOAD PUSH4 0xF7D0BBD PUSH1 0xE2 SHL DUP2 MSTORE PUSH1 0x4 ADD PUSH2 0xF23 SWAP8 SWAP7 SWAP6 SWAP5 SWAP4 SWAP3 SWAP2 SWAP1 PUSH2 0x59FD JUMP JUMPDEST PUSH1 0x1 PUSH1 0x1 PUSH1 0xA0 SHL SUB DUP5 AND PUSH0 SWAP1 DUP2 MSTORE PUSH1 0x1 PUSH1 0x20 MSTORE PUSH1 0x40 SWAP1 KECCAK256 SWAP1 DUP3 SWAP1 SUB SWAP1 SSTORE JUMPDEST PUSH1 0x1 PUSH1 0x1 PUSH1 0xA0 SHL SUB DUP3 AND PUSH2 0x4891 JUMPI PUSH1 0x3 DUP1 SLOAD DUP3 SWAP1 SUB SWAP1 SSTORE PUSH2 0x48AF JUMP JUMPDEST PUSH1 0x1 PUSH1 0x1 PUSH1 0xA0 SHL SUB DUP3 AND PUSH0 SWAP1 DUP2 MSTORE PUSH1 0x1 PUSH1 0x20 MSTORE PUSH1 0x40 SWAP1 KECCAK256 DUP1 SLOAD DUP3 ADD SWAP1 SSTORE JUMPDEST DUP2 PUSH1 0x1 PUSH1 0x1 PUSH1 0xA0 SHL SUB AND DUP4 PUSH1 0x1 PUSH1 0x1 PUSH1 0xA0 SHL SUB AND PUSH32 0xDDF252AD1BE2C89B69C2B068FC378DAA952BA7F163C4A11628F55A4DF523B3EF DUP4 PUSH1 0x40 MLOAD PUSH2 0x48F4 SWAP2 DUP2 MSTORE PUSH1 0x20 ADD SWAP1 JUMP JUMPDEST PUSH1 0x40 MLOAD DUP1 SWAP2 SUB SWAP1 LOG3 POP POP POP JUMP JUMPDEST PUSH1 0x40 DUP1 MLOAD PUSH1 0x80 DUP1 DUP3 ADD DUP4 MSTORE PUSH0 DUP1 DUP4 MSTORE DUP4 MLOAD PUSH2 0x100 DUP2 ADD DUP6 MSTORE DUP2 DUP2 MSTORE PUSH1 0x20 DUP2 DUP2 ADD DUP4 SWAP1 MSTORE SWAP5 DUP2 ADD DUP3 SWAP1 MSTORE PUSH1 0x60 DUP2 ADD DUP3 SWAP1 MSTORE SWAP2 DUP3 ADD DUP2 SWAP1 MSTORE PUSH1 0xA0 DUP3 ADD DUP2 SWAP1 MSTORE PUSH1 0xC0 DUP3 ADD DUP2 SWAP1 MSTORE PUSH1 0xE0 DUP3 ADD MSTORE SWAP1 SWAP2 DUP3 ADD SWAP1 DUP2 MSTORE PUSH1 0x60 PUSH1 0x20 DUP3 ADD MSTORE PUSH0 PUSH1 0x40 SWAP1 SWAP2 ADD MSTORE SWAP1 JUMP JUMPDEST PUSH1 0x40 MLOAD DUP1 PUSH1 0x60 ADD PUSH1 0x40 MSTORE DUP1 PUSH0 PUSH2 0xFFFF AND DUP2 MSTORE PUSH1 0x20 ADD PUSH2 0x497F PUSH2 0x4901 JUMP JUMPDEST DUP2 MSTORE PUSH1 0x20 ADD PUSH1 0x60 DUP2 MSTORE POP SWAP1 JUMP JUMPDEST POP DUP1 SLOAD PUSH2 0x4998 SWAP1 PUSH2 0x4E96 JUMP JUMPDEST PUSH0 DUP3 SSTORE DUP1 PUSH1 0x1F LT PUSH2 0x49A7 JUMPI POP POP JUMP JUMPDEST PUSH1 0x1F ADD PUSH1 0x20 SWAP1 DIV SWAP1 PUSH0 MSTORE PUSH1 0x20 PUSH0 KECCAK256 SWAP1 DUP2 ADD SWAP1 PUSH2 0x1EFE SWAP2 SWAP1 JUMPDEST DUP1 DUP3 GT ISZERO PUSH2 0x49D2 JUMPI PUSH0 DUP2 SSTORE PUSH1 0x1 ADD PUSH2 0x49BF JUMP JUMPDEST POP SWAP1 JUMP JUMPDEST PUSH0 DUP2 MLOAD DUP1 DUP5 MSTORE DUP1 PUSH1 0x20 DUP5 ADD PUSH1 0x20 DUP7 ADD MCOPY PUSH0 PUSH1 0x20 DUP3 DUP7 ADD ADD MSTORE PUSH1 0x20 PUSH1 0x1F NOT PUSH1 0x1F DUP4 ADD AND DUP6 ADD ADD SWAP2 POP POP SWAP3 SWAP2 POP POP JUMP JUMPDEST PUSH1 0x20 DUP2 MSTORE PUSH0 PUSH2 0x4A16 PUSH1 0x20 DUP4 ADD DUP5 PUSH2 0x49D6 JUMP JUMPDEST SWAP4 SWAP3 POP POP POP JUMP JUMPDEST PUSH1 0x1 PUSH1 0x1 PUSH1 0xA0 SHL SUB DUP2 AND DUP2 EQ PUSH2 0x1EFE JUMPI PUSH0 PUSH0 REVERT JUMPDEST PUSH0 PUSH1 0x20 DUP3 DUP5 SUB SLT ISZERO PUSH2 0x4A41 JUMPI PUSH0 PUSH0 REVERT JUMPDEST DUP2 CALLDATALOAD PUSH2 0x4A16 DUP2 PUSH2 0x4A1D JUMP JUMPDEST PUSH0 PUSH0 PUSH1 0x40 DUP4 DUP6 SUB SLT ISZERO PUSH2 0x4A5D JUMPI PUSH0 PUSH0 REVERT JUMPDEST DUP3 CALLDATALOAD PUSH2 0x4A68 DUP2 PUSH2 0x4A1D JUMP JUMPDEST SWAP5 PUSH1 0x20 SWAP4 SWAP1 SWAP4 ADD CALLDATALOAD SWAP4 POP POP POP JUMP JUMPDEST PUSH4 0x4E487B71 PUSH1 0xE0 SHL PUSH0 MSTORE PUSH1 0x41 PUSH1 0x4 MSTORE PUSH1 0x24 PUSH0 REVERT JUMPDEST PUSH1 0x40 MLOAD PUSH2 0x100 DUP2 ADD PUSH1 0x1 PUSH1 0x1 PUSH1 0x40 SHL SUB DUP2 GT DUP3 DUP3 LT OR ISZERO PUSH2 0x4AAD JUMPI PUSH2 0x4AAD PUSH2 0x4A76 JUMP JUMPDEST PUSH1 0x40 MSTORE SWAP1 JUMP JUMPDEST PUSH1 0x40 MLOAD PUSH1 0x80 DUP2 ADD PUSH1 0x1 PUSH1 0x1 PUSH1 0x40 SHL SUB DUP2 GT DUP3 DUP3 LT OR ISZERO PUSH2 0x4AAD JUMPI PUSH2 0x4AAD PUSH2 0x4A76 JUMP JUMPDEST PUSH1 0x40 MLOAD PUSH1 0x1F DUP3 ADD PUSH1 0x1F NOT AND DUP2 ADD PUSH1 0x1 PUSH1 0x1 PUSH1 0x40 SHL SUB DUP2 GT DUP3 DUP3 LT OR ISZERO PUSH2 0x4AFD JUMPI PUSH2 0x4AFD PUSH2 0x4A76 JUMP JUMPDEST PUSH1 0x40 MSTORE SWAP2 SWAP1 POP JUMP JUMPDEST PUSH0 PUSH1 0x1 PUSH1 0x1 PUSH1 0x40 SHL SUB DUP3 GT ISZERO PUSH2 0x4B1D JUMPI PUSH2 0x4B1D PUSH2 0x4A76 JUMP JUMPDEST POP PUSH1 0x1F ADD PUSH1 0x1F NOT AND PUSH1 0x20 ADD SWAP1 JUMP JUMPDEST PUSH0 DUP3 PUSH1 0x1F DUP4 ADD SLT PUSH2 0x4B3A JUMPI PUSH0 PUSH0 REVERT JUMPDEST DUP2 CALLDATALOAD PUSH2 0x4B4D PUSH2 0x4B48 DUP3 PUSH2 0x4B05 JUMP JUMPDEST PUSH2 0x4AD5 JUMP JUMPDEST DUP2 DUP2 MSTORE DUP5 PUSH1 0x20 DUP4 DUP7 ADD ADD GT ISZERO PUSH2 0x4B61 JUMPI PUSH0 PUSH0 REVERT JUMPDEST DUP2 PUSH1 0x20 DUP6 ADD PUSH1 0x20 DUP4 ADD CALLDATACOPY PUSH0 SWAP2 DUP2 ADD PUSH1 0x20 ADD SWAP2 SWAP1 SWAP2 MSTORE SWAP4 SWAP3 POP POP POP JUMP JUMPDEST PUSH0 PUSH1 0x20 DUP3 DUP5 SUB SLT ISZERO PUSH2 0x4B8D JUMPI PUSH0 PUSH0 REVERT JUMPDEST DUP2 CALLDATALOAD PUSH1 0x1 PUSH1 0x1 PUSH1 0x40 SHL SUB DUP2 GT ISZERO PUSH2 0x4BA2 JUMPI PUSH0 PUSH0 REVERT JUMPDEST PUSH2 0x4BAE DUP5 DUP3 DUP6 ADD PUSH2 0x4B2B JUMP JUMPDEST SWAP5 SWAP4 POP POP POP POP JUMP JUMPDEST PUSH1 0x1 PUSH1 0x1 PUSH1 0x40 SHL SUB DUP2 AND DUP2 EQ PUSH2 0x1EFE JUMPI PUSH0 PUSH0 REVERT JUMPDEST PUSH0 PUSH1 0x20 DUP3 DUP5 SUB SLT ISZERO PUSH2 0x4BDA JUMPI PUSH0 PUSH0 REVERT JUMPDEST DUP2 CALLDATALOAD PUSH2 0x4A16 DUP2 PUSH2 0x4BB6 JUMP JUMPDEST PUSH1 0x1 PUSH1 0x1 PUSH1 0x40 SHL SUB DUP2 MLOAD AND DUP3 MSTORE PUSH0 PUSH1 0x20 DUP3 ADD MLOAD PUSH1 0x1 DUP1 PUSH1 0xA0 SHL SUB DUP2 MLOAD AND PUSH1 0x20 DUP6 ADD MSTORE PUSH1 0x1 DUP1 PUSH1 0xA0 SHL SUB PUSH1 0x20 DUP3 ADD MLOAD AND PUSH1 0x40 DUP6 ADD MSTORE PUSH1 0x1 PUSH1 0x1 PUSH1 0x40 SHL SUB PUSH1 0x40 DUP3 ADD MLOAD AND PUSH1 0x60 DUP6 ADD MSTORE PUSH1 0x60 DUP2 ADD MLOAD PUSH2 0x4C46 PUSH1 0x80 DUP7 ADD DUP3 PUSH1 0x1 PUSH1 0x1 PUSH1 0x40 SHL SUB AND SWAP1 MSTORE JUMP JUMPDEST POP PUSH1 0x80 DUP2 ADD MLOAD PUSH1 0x1 PUSH1 0x1 PUSH1 0xA0 SHL SUB DUP2 AND PUSH1 0xA0 DUP7 ADD MSTORE POP PUSH1 0xA0 DUP2 ADD MLOAD PUSH1 0x1 PUSH1 0x1 PUSH1 0x40 SHL SUB DUP2 AND PUSH1 0xC0 DUP7 ADD MSTORE POP PUSH1 0xC0 DUP2 ADD MLOAD PUSH1 0x1 PUSH1 0x1 PUSH1 0x40 SHL SUB DUP2 AND PUSH1 0xE0 DUP7 ADD MSTORE POP PUSH1 0xE0 ADD MLOAD PUSH1 0x1 PUSH1 0x1 PUSH1 0x40 SHL SUB DUP2 AND PUSH2 0x100 DUP6 ADD MSTORE POP PUSH1 0x40 DUP3 ADD MLOAD PUSH2 0x160 PUSH2 0x120 DUP6 ADD MSTORE PUSH2 0x4CB7 PUSH2 0x160 DUP6 ADD DUP3 PUSH2 0x49D6 JUMP JUMPDEST SWAP1 POP PUSH1 0x60 DUP4 ADD MLOAD PUSH2 0x4CD4 PUSH2 0x140 DUP7 ADD DUP3 PUSH1 0x1 PUSH1 0x1 PUSH1 0x40 SHL SUB AND SWAP1 MSTORE JUMP JUMPDEST POP SWAP4 SWAP3 POP POP POP JUMP JUMPDEST PUSH1 0x20 DUP2 MSTORE PUSH0 PUSH2 0x4A16 PUSH1 0x20 DUP4 ADD DUP5 PUSH2 0x4BE5 JUMP JUMPDEST PUSH0 PUSH0 PUSH0 PUSH1 0x60 DUP5 DUP7 SUB SLT ISZERO PUSH2 0x4D00 JUMPI PUSH0 PUSH0 REVERT JUMPDEST DUP4 CALLDATALOAD PUSH2 0x4D0B DUP2 PUSH2 0x4A1D JUMP JUMPDEST SWAP3 POP PUSH1 0x20 DUP5 ADD CALLDATALOAD PUSH2 0x4D1B DUP2 PUSH2 0x4A1D JUMP JUMPDEST SWAP3 SWAP6 SWAP3 SWAP5 POP POP POP PUSH1 0x40 SWAP2 SWAP1 SWAP2 ADD CALLDATALOAD SWAP1 JUMP JUMPDEST PUSH0 PUSH1 0x20 DUP3 DUP5 SUB SLT ISZERO PUSH2 0x4D3C JUMPI PUSH0 PUSH0 REVERT JUMPDEST DUP2 CALLDATALOAD PUSH2 0xFFFF DUP2 AND DUP2 EQ PUSH2 0x4A16 JUMPI PUSH0 PUSH0 REVERT JUMPDEST PUSH1 0x20 DUP2 MSTORE PUSH2 0xFFFF DUP3 MLOAD AND PUSH1 0x20 DUP3 ADD MSTORE PUSH0 PUSH1 0x20 DUP4 ADD MLOAD PUSH1 0x60 PUSH1 0x40 DUP5 ADD MSTORE PUSH2 0x4D76 PUSH1 0x80 DUP5 ADD DUP3 PUSH2 0x4BE5 JUMP JUMPDEST SWAP1 POP PUSH1 0x40 DUP5 ADD MLOAD PUSH1 0x1F NOT DUP5 DUP4 SUB ADD PUSH1 0x60 DUP6 ADD MSTORE PUSH2 0x4D93 DUP3 DUP3 PUSH2 0x49D6 JUMP JUMPDEST SWAP6 SWAP5 POP POP POP POP POP JUMP JUMPDEST PUSH1 0x1 PUSH1 0x1 PUSH1 0xA0 SHL SUB SWAP2 SWAP1 SWAP2 AND DUP2 MSTORE PUSH1 0x20 ADD SWAP1 JUMP JUMPDEST PUSH0 PUSH0 PUSH1 0x40 DUP4 DUP6 SUB SLT ISZERO PUSH2 0x4DC1 JUMPI PUSH0 PUSH0 REVERT JUMPDEST DUP3 CALLDATALOAD PUSH1 0x1 PUSH1 0x1 PUSH1 0x40 SHL SUB DUP2 GT ISZERO PUSH2 0x4DD6 JUMPI PUSH0 PUSH0 REVERT JUMPDEST PUSH2 0x4DE2 DUP6 DUP3 DUP7 ADD PUSH2 0x4B2B JUMP JUMPDEST SWAP3 POP POP PUSH1 0x20 DUP4 ADD CALLDATALOAD PUSH1 0x1 PUSH1 0x1 PUSH1 0x40 SHL SUB DUP2 GT ISZERO PUSH2 0x4DFD JUMPI PUSH0 PUSH0 REVERT JUMPDEST PUSH2 0x4E09 DUP6 DUP3 DUP7 ADD PUSH2 0x4B2B JUMP JUMPDEST SWAP2 POP POP SWAP3 POP SWAP3 SWAP1 POP JUMP JUMPDEST PUSH0 PUSH1 0x20 DUP3 DUP5 SUB SLT ISZERO PUSH2 0x4E23 JUMPI PUSH0 PUSH0 REVERT JUMPDEST DUP2 CALLDATALOAD PUSH1 0xFF DUP2 AND DUP2 EQ PUSH2 0x4A16 JUMPI PUSH0 PUSH0 REVERT JUMPDEST PUSH0 PUSH0 PUSH1 0x40 DUP4 DUP6 SUB SLT ISZERO PUSH2 0x4E44 JUMPI PUSH0 PUSH0 REVERT JUMPDEST DUP3 CALLDATALOAD PUSH2 0x4E4F DUP2 PUSH2 0x4BB6 JUMP JUMPDEST SWAP2 POP PUSH1 0x20 DUP4 ADD CALLDATALOAD PUSH2 0x4E5F DUP2 PUSH2 0x4BB6 JUMP JUMPDEST DUP1 SWAP2 POP POP SWAP3 POP SWAP3 SWAP1 POP JUMP JUMPDEST PUSH0 PUSH0 PUSH1 0x40 DUP4 DUP6 SUB SLT ISZERO PUSH2 0x4E7B JUMPI PUSH0 PUSH0 REVERT JUMPDEST DUP3 CALLDATALOAD PUSH2 0x4E86 DUP2 PUSH2 0x4A1D JUMP JUMPDEST SWAP2 POP PUSH1 0x20 DUP4 ADD CALLDATALOAD PUSH2 0x4E5F DUP2 PUSH2 0x4A1D JUMP JUMPDEST PUSH1 0x1 DUP2 DUP2 SHR SWAP1 DUP3 AND DUP1 PUSH2 0x4EAA JUMPI PUSH1 0x7F DUP3 AND SWAP2 POP JUMPDEST PUSH1 0x20 DUP3 LT DUP2 SUB PUSH2 0x4EC8 JUMPI PUSH4 0x4E487B71 PUSH1 0xE0 SHL PUSH0 MSTORE PUSH1 0x22 PUSH1 0x4 MSTORE PUSH1 0x24 PUSH0 REVERT JUMPDEST POP SWAP2 SWAP1 POP JUMP JUMPDEST DUP1 MLOAD PUSH2 0x18E5 DUP2 PUSH2 0x4BB6 JUMP JUMPDEST DUP1 MLOAD PUSH2 0x18E5 DUP2 PUSH2 0x4A1D JUMP JUMPDEST PUSH0 PUSH2 0x100 DUP3 DUP5 SUB SLT ISZERO PUSH2 0x4EF5 JUMPI PUSH0 PUSH0 REVERT JUMPDEST PUSH2 0x4EFD PUSH2 0x4A8A JUMP JUMPDEST SWAP1 POP DUP2 MLOAD PUSH2 0x4F0A DUP2 PUSH2 0x4A1D JUMP JUMPDEST DUP2 MSTORE PUSH2 0x4F18 PUSH1 0x20 DUP4 ADD PUSH2 0x4ED9 JUMP JUMPDEST PUSH1 0x20 DUP3 ADD MSTORE PUSH2 0x4F29 PUSH1 0x40 DUP4 ADD PUSH2 0x4ECE JUMP JUMPDEST PUSH1 0x40 DUP3 ADD MSTORE PUSH2 0x4F3A PUSH1 0x60 DUP4 ADD PUSH2 0x4ECE JUMP JUMPDEST PUSH1 0x60 DUP3 ADD MSTORE PUSH2 0x4F4B PUSH1 0x80 DUP4 ADD PUSH2 0x4ED9 JUMP JUMPDEST PUSH1 0x80 DUP3 ADD MSTORE PUSH2 0x4F5C PUSH1 0xA0 DUP4 ADD PUSH2 0x4ECE JUMP JUMPDEST PUSH1 0xA0 DUP3 ADD MSTORE PUSH2 0x4F6D PUSH1 0xC0 DUP4 ADD PUSH2 0x4ECE JUMP JUMPDEST PUSH1 0xC0 DUP3 ADD MSTORE PUSH2 0x4F7E PUSH1 0xE0 DUP4 ADD PUSH2 0x4ECE JUMP JUMPDEST PUSH1 0xE0 DUP3 ADD MSTORE SWAP3 SWAP2 POP POP JUMP JUMPDEST PUSH0 PUSH2 0x4F96 PUSH2 0x4B48 DUP5 PUSH2 0x4B05 JUMP JUMPDEST SWAP1 POP DUP3 DUP2 MSTORE DUP4 DUP4 DUP4 ADD GT ISZERO PUSH2 0x4FA9 JUMPI PUSH0 PUSH0 REVERT JUMPDEST DUP3 DUP3 PUSH1 0x20 DUP4 ADD MCOPY PUSH0 PUSH1 0x20 DUP5 DUP4 ADD ADD MSTORE SWAP4 SWAP3 POP POP POP JUMP JUMPDEST PUSH0 DUP3 PUSH1 0x1F DUP4 ADD SLT PUSH2 0x4FCE JUMPI PUSH0 PUSH0 REVERT JUMPDEST PUSH2 0x4A16 DUP4 DUP4 MLOAD PUSH1 0x20 DUP6 ADD PUSH2 0x4F89 JUMP JUMPDEST PUSH0 PUSH1 0x20 DUP3 DUP5 SUB SLT ISZERO PUSH2 0x4FED JUMPI PUSH0 PUSH0 REVERT JUMPDEST DUP2 MLOAD PUSH1 0x1 PUSH1 0x1 PUSH1 0x40 SHL SUB DUP2 GT ISZERO PUSH2 0x5002 JUMPI PUSH0 PUSH0 REVERT JUMPDEST DUP3 ADD PUSH2 0x160 DUP2 DUP6 SUB SLT ISZERO PUSH2 0x5014 JUMPI PUSH0 PUSH0 REVERT JUMPDEST PUSH2 0x501C PUSH2 0x4AB3 JUMP JUMPDEST DUP2 MLOAD PUSH2 0x5027 DUP2 PUSH2 0x4BB6 JUMP JUMPDEST DUP2 MSTORE PUSH2 0x5036 DUP6 PUSH1 0x20 DUP5 ADD PUSH2 0x4EE4 JUMP JUMPDEST PUSH1 0x20 DUP3 ADD MSTORE PUSH2 0x120 DUP3 ADD MLOAD PUSH1 0x1 PUSH1 0x1 PUSH1 0x40 SHL SUB DUP2 GT ISZERO PUSH2 0x5054 JUMPI PUSH0 PUSH0 REVERT JUMPDEST PUSH2 0x5060 DUP7 DUP3 DUP6 ADD PUSH2 0x4FBF JUMP JUMPDEST PUSH1 0x40 DUP4 ADD MSTORE POP PUSH2 0x140 DUP3 ADD MLOAD SWAP2 POP PUSH2 0x5077 DUP3 PUSH2 0x4BB6 JUMP JUMPDEST PUSH1 0x60 DUP2 ADD SWAP2 SWAP1 SWAP2 MSTORE SWAP4 SWAP3 POP POP POP JUMP JUMPDEST PUSH1 0x1 PUSH1 0x1 PUSH1 0x40 SHL SUB DUP4 AND DUP2 MSTORE PUSH1 0x40 PUSH1 0x20 DUP3 ADD MSTORE PUSH0 PUSH2 0x4BAE PUSH1 0x40 DUP4 ADD DUP5 PUSH2 0x49D6 JUMP JUMPDEST PUSH0 PUSH1 0x20 DUP3 DUP5 SUB SLT ISZERO PUSH2 0x50B7 JUMPI PUSH0 PUSH0 REVERT JUMPDEST DUP2 MLOAD PUSH2 0x4A16 DUP2 PUSH2 0x4A1D JUMP JUMPDEST PUSH0 PUSH1 0x20 DUP3 DUP5 SUB SLT ISZERO PUSH2 0x50D2 JUMPI PUSH0 PUSH0 REVERT JUMPDEST DUP2 MLOAD PUSH2 0x4A16 DUP2 PUSH2 0x4BB6 JUMP JUMPDEST PUSH0 DUP2 MLOAD DUP1 PUSH1 0x20 DUP5 ADD DUP6 MCOPY PUSH0 SWAP4 ADD SWAP3 DUP4 MSTORE POP SWAP1 SWAP2 SWAP1 POP JUMP JUMPDEST PUSH19 0x2732BB902AB9B2B9102537B4B732B2101D1D1 PUSH1 0x6D SHL DUP2 MSTORE PUSH0 PUSH2 0x4A16 PUSH1 0x13 DUP4 ADD DUP5 PUSH2 0x50DD JUMP JUMPDEST PUSH1 0x1F DUP3 GT ISZERO PUSH2 0x2306 JUMPI DUP1 PUSH0 MSTORE PUSH1 0x20 PUSH0 KECCAK256 PUSH1 0x1F DUP5 ADD PUSH1 0x5 SHR DUP2 ADD PUSH1 0x20 DUP6 LT ISZERO PUSH2 0x5140 JUMPI POP DUP1 JUMPDEST PUSH1 0x1F DUP5 ADD PUSH1 0x5 SHR DUP3 ADD SWAP2 POP JUMPDEST DUP2 DUP2 LT ISZERO PUSH2 0x515F JUMPI PUSH0 DUP2 SSTORE PUSH1 0x1 ADD PUSH2 0x514C JUMP JUMPDEST POP POP POP POP POP JUMP JUMPDEST DUP2 MLOAD PUSH1 0x1 PUSH1 0x1 PUSH1 0x40 SHL SUB DUP2 GT ISZERO PUSH2 0x517F JUMPI PUSH2 0x517F PUSH2 0x4A76 JUMP JUMPDEST PUSH2 0x5193 DUP2 PUSH2 0x518D DUP5 SLOAD PUSH2 0x4E96 JUMP JUMPDEST DUP5 PUSH2 0x511B JUMP JUMPDEST PUSH1 0x20 PUSH1 0x1F DUP3 GT PUSH1 0x1 DUP2 EQ PUSH2 0x51C5 JUMPI PUSH0 DUP4 ISZERO PUSH2 0x51AE JUMPI POP DUP5 DUP3 ADD MLOAD JUMPDEST PUSH0 NOT PUSH1 0x3 DUP6 SWAP1 SHL SHR NOT AND PUSH1 0x1 DUP5 SWAP1 SHL OR DUP5 SSTORE PUSH2 0x515F JUMP JUMPDEST PUSH0 DUP5 DUP2 MSTORE PUSH1 0x20 DUP2 KECCAK256 PUSH1 0x1F NOT DUP6 AND SWAP2 JUMPDEST DUP3 DUP2 LT ISZERO PUSH2 0x51F4 JUMPI DUP8 DUP6 ADD MLOAD DUP3 SSTORE PUSH1 0x20 SWAP5 DUP6 ADD SWAP5 PUSH1 0x1 SWAP1 SWAP3 ADD SWAP2 ADD PUSH2 0x51D4 JUMP JUMPDEST POP DUP5 DUP3 LT ISZERO PUSH2 0x5211 JUMPI DUP7 DUP5 ADD MLOAD PUSH0 NOT PUSH1 0x3 DUP8 SWAP1 SHL PUSH1 0xF8 AND SHR NOT AND DUP2 SSTORE JUMPDEST POP POP POP POP PUSH1 0x1 SWAP1 DUP2 SHL ADD SWAP1 SSTORE POP JUMP JUMPDEST PUSH0 DUP2 SLOAD PUSH2 0x522C DUP2 PUSH2 0x4E96 JUMP JUMPDEST DUP1 DUP6 MSTORE PUSH1 0x1 DUP3 AND DUP1 ISZERO PUSH2 0x5246 JUMPI PUSH1 0x1 DUP2 EQ PUSH2 0x5262 JUMPI PUSH2 0x5296 JUMP JUMPDEST PUSH1 0xFF NOT DUP4 AND PUSH1 0x20 DUP8 ADD MSTORE PUSH1 0x20 DUP3 ISZERO ISZERO PUSH1 0x5 SHL DUP8 ADD ADD SWAP4 POP PUSH2 0x5296 JUMP JUMPDEST DUP5 PUSH0 MSTORE PUSH1 0x20 PUSH0 KECCAK256 PUSH0 JUMPDEST DUP4 DUP2 LT ISZERO PUSH2 0x528D JUMPI DUP2 SLOAD PUSH1 0x20 DUP3 DUP11 ADD ADD MSTORE PUSH1 0x1 DUP3 ADD SWAP2 POP PUSH1 0x20 DUP2 ADD SWAP1 POP PUSH2 0x526B JUMP JUMPDEST DUP8 ADD PUSH1 0x20 ADD SWAP5 POP POP JUMPDEST POP POP POP SWAP3 SWAP2 POP POP JUMP JUMPDEST PUSH1 0x40 DUP2 MSTORE PUSH0 PUSH2 0x52B1 PUSH1 0x40 DUP4 ADD DUP6 PUSH2 0x5220 JUMP JUMPDEST DUP3 DUP2 SUB PUSH1 0x20 DUP5 ADD MSTORE PUSH2 0x4D93 DUP2 DUP6 PUSH2 0x49D6 JUMP JUMPDEST PUSH0 PUSH1 0x20 DUP3 DUP5 SUB SLT ISZERO PUSH2 0x52D3 JUMPI PUSH0 PUSH0 REVERT JUMPDEST DUP2 MLOAD DUP1 ISZERO ISZERO DUP2 EQ PUSH2 0x4A16 JUMPI PUSH0 PUSH0 REVERT JUMPDEST PUSH0 DUP2 SLOAD PUSH2 0x52EE DUP2 PUSH2 0x4E96 JUMP JUMPDEST PUSH1 0x1 DUP3 AND DUP1 ISZERO PUSH2 0x5305 JUMPI PUSH1 0x1 DUP2 EQ PUSH2 0x531A JUMPI PUSH2 0x5296 JUMP JUMPDEST PUSH1 0xFF NOT DUP4 AND DUP7 MSTORE DUP2 ISZERO ISZERO DUP3 MUL DUP7 ADD SWAP4 POP PUSH2 0x5296 JUMP JUMPDEST DUP5 PUSH0 MSTORE PUSH1 0x20 PUSH0 KECCAK256 PUSH0 JUMPDEST DUP4 DUP2 LT ISZERO PUSH2 0x533F JUMPI DUP2 SLOAD DUP9 DUP3 ADD MSTORE PUSH1 0x1 SWAP1 SWAP2 ADD SWAP1 PUSH1 0x20 ADD PUSH2 0x5323 JUMP JUMPDEST POP POP POP SWAP4 SWAP1 SWAP4 ADD SWAP4 SWAP3 POP POP POP JUMP JUMPDEST PUSH1 0xF PUSH1 0xFA SHL DUP2 MSTORE PUSH0 PUSH2 0x5362 PUSH1 0x1 DUP4 ADD DUP6 PUSH2 0x52E2 JUMP JUMPDEST PUSH2 0x1F1 PUSH1 0xF5 SHL DUP2 MSTORE PUSH2 0x4D93 PUSH1 0x2 DUP3 ADD DUP6 PUSH2 0x50DD JUMP JUMPDEST PUSH1 0x20 DUP2 MSTORE PUSH1 0x1 PUSH1 0x1 PUSH1 0x40 SHL SUB DUP3 SLOAD AND PUSH1 0x20 DUP3 ADD MSTORE PUSH2 0x53B3 PUSH1 0x40 DUP3 ADD PUSH2 0x53A6 PUSH1 0x1 DUP6 ADD SLOAD PUSH1 0x1 PUSH1 0x1 PUSH1 0xA0 SHL SUB AND SWAP1 JUMP JUMPDEST PUSH1 0x1 PUSH1 0x1 PUSH1 0xA0 SHL SUB AND SWAP1 MSTORE JUMP JUMPDEST PUSH1 0x2 DUP3 ADD SLOAD PUSH1 0x1 PUSH1 0x1 PUSH1 0xA0 SHL SUB DUP2 AND PUSH1 0x60 DUP4 ADD MSTORE PUSH0 SWAP1 PUSH1 0xA0 DUP2 SWAP1 SHR PUSH1 0x1 PUSH1 0x1 PUSH1 0x40 SHL SUB AND PUSH1 0x80 DUP5 ADD MSTORE POP PUSH1 0x3 DUP4 ADD SLOAD PUSH1 0x1 PUSH1 0x1 PUSH1 0x40 SHL SUB DUP2 AND PUSH1 0xA0 DUP5 ADD MSTORE PUSH1 0x1 PUSH1 0x1 PUSH1 0xA0 SHL SUB PUSH1 0x40 DUP3 SWAP1 SHR AND PUSH1 0xC0 DUP5 ADD MSTORE POP PUSH1 0x4 DUP4 ADD SLOAD PUSH1 0x1 PUSH1 0x1 PUSH1 0x40 SHL SUB DUP2 AND PUSH1 0xE0 DUP5 ADD MSTORE PUSH1 0x40 DUP2 SWAP1 SHR PUSH1 0x1 PUSH1 0x1 PUSH1 0x40 SHL SUB AND PUSH2 0x100 DUP5 ADD MSTORE PUSH1 0x80 DUP2 SWAP1 SHR PUSH1 0x1 PUSH1 0x1 PUSH1 0x40 SHL SUB AND PUSH2 0x120 DUP5 ADD MSTORE POP PUSH2 0x160 PUSH2 0x140 DUP4 ADD MSTORE PUSH2 0x545C PUSH2 0x180 DUP4 ADD PUSH1 0x5 DUP6 ADD PUSH2 0x5220 JUMP JUMPDEST PUSH1 0x6 DUP5 ADD SLOAD PUSH1 0x1 PUSH1 0x1 PUSH1 0x40 SHL SUB AND PUSH2 0x160 DUP5 ADD DUP2 SWAP1 MSTORE PUSH2 0x4CD4 JUMP JUMPDEST PUSH0 PUSH0 PUSH1 0x40 DUP4 DUP6 SUB SLT ISZERO PUSH2 0x5488 JUMPI PUSH0 PUSH0 REVERT JUMPDEST DUP3 MLOAD PUSH2 0x5493 DUP2 PUSH2 0x4BB6 JUMP JUMPDEST PUSH1 0x20 DUP5 ADD MLOAD SWAP1 SWAP3 POP PUSH2 0x4E5F DUP2 PUSH2 0x4BB6 JUMP JUMPDEST PUSH4 0x4E487B71 PUSH1 0xE0 SHL PUSH0 MSTORE PUSH1 0x11 PUSH1 0x4 MSTORE PUSH1 0x24 PUSH0 REVERT JUMPDEST PUSH1 0x1 DUP2 JUMPDEST PUSH1 0x1 DUP5 GT ISZERO PUSH2 0x54F3 JUMPI DUP1 DUP6 DIV DUP2 GT ISZERO PUSH2 0x54D7 JUMPI PUSH2 0x54D7 PUSH2 0x54A4 JUMP JUMPDEST PUSH1 0x1 DUP5 AND ISZERO PUSH2 0x54E5 JUMPI SWAP1 DUP2 MUL SWAP1 JUMPDEST PUSH1 0x1 SWAP4 SWAP1 SWAP4 SHR SWAP3 DUP1 MUL PUSH2 0x54BC JUMP JUMPDEST SWAP4 POP SWAP4 SWAP2 POP POP JUMP JUMPDEST PUSH0 DUP3 PUSH2 0x5509 JUMPI POP PUSH1 0x1 PUSH2 0xCF1 JUMP JUMPDEST DUP2 PUSH2 0x5515 JUMPI POP PUSH0 PUSH2 0xCF1 JUMP JUMPDEST DUP2 PUSH1 0x1 DUP2 EQ PUSH2 0x552B JUMPI PUSH1 0x2 DUP2 EQ PUSH2 0x5535 JUMPI PUSH2 0x5551 JUMP JUMPDEST PUSH1 0x1 SWAP2 POP POP PUSH2 0xCF1 JUMP JUMPDEST PUSH1 0xFF DUP5 GT ISZERO PUSH2 0x5546 JUMPI PUSH2 0x5546 PUSH2 0x54A4 JUMP JUMPDEST POP POP PUSH1 0x1 DUP3 SHL PUSH2 0xCF1 JUMP JUMPDEST POP PUSH1 0x20 DUP4 LT PUSH2 0x133 DUP4 LT AND PUSH1 0x4E DUP5 LT PUSH1 0xB DUP5 LT AND OR ISZERO PUSH2 0x5574 JUMPI POP DUP2 DUP2 EXP PUSH2 0xCF1 JUMP JUMPDEST PUSH2 0x5580 PUSH0 NOT DUP5 DUP5 PUSH2 0x54B8 JUMP JUMPDEST DUP1 PUSH0 NOT DIV DUP3 GT ISZERO PUSH2 0x5593 JUMPI PUSH2 0x5593 PUSH2 0x54A4 JUMP JUMPDEST MUL SWAP4 SWAP3 POP POP POP JUMP JUMPDEST PUSH0 PUSH2 0x4A16 PUSH1 0xFF DUP5 AND DUP4 PUSH2 0x54FB JUMP JUMPDEST DUP1 DUP3 MUL DUP2 ISZERO DUP3 DUP3 DIV DUP5 EQ OR PUSH2 0xCF1 JUMPI PUSH2 0xCF1 PUSH2 0x54A4 JUMP JUMPDEST PUSH4 0x4E487B71 PUSH1 0xE0 SHL PUSH0 MSTORE PUSH1 0x12 PUSH1 0x4 MSTORE PUSH1 0x24 PUSH0 REVERT JUMPDEST PUSH0 DUP3 PUSH2 0x55E2 JUMPI PUSH2 0x55E2 PUSH2 0x55C0 JUMP JUMPDEST POP DIV SWAP1 JUMP JUMPDEST PUSH1 0x1 PUSH1 0x1 PUSH1 0xA0 SHL SUB SWAP4 DUP5 AND DUP2 MSTORE SWAP2 SWAP1 SWAP3 AND PUSH1 0x20 DUP3 ADD MSTORE PUSH1 0x40 DUP2 ADD SWAP2 SWAP1 SWAP2 MSTORE PUSH1 0x60 ADD SWAP1 JUMP JUMPDEST PUSH0 PUSH1 0x20 DUP3 DUP5 SUB SLT ISZERO PUSH2 0x561B JUMPI PUSH0 PUSH0 REVERT JUMPDEST DUP2 MLOAD PUSH1 0x1 PUSH1 0x1 PUSH1 0x40 SHL SUB DUP2 GT ISZERO PUSH2 0x5630 JUMPI PUSH0 PUSH0 REVERT JUMPDEST PUSH2 0x4BAE DUP5 DUP3 DUP6 ADD PUSH2 0x4FBF JUMP JUMPDEST PUSH14 0x2732B2B21020B8383937BB32B21 PUSH1 0x95 SHL DUP2 MSTORE PUSH0 PUSH2 0x4A16 PUSH1 0xE DUP4 ADD DUP5 PUSH2 0x50DD JUMP JUMPDEST PUSH4 0x4E487B71 PUSH1 0xE0 SHL PUSH0 MSTORE PUSH1 0x32 PUSH1 0x4 MSTORE PUSH1 0x24 PUSH0 REVERT JUMPDEST PUSH1 0x1 PUSH1 0x1 PUSH1 0x40 SHL SUB DUP6 AND DUP2 MSTORE PUSH1 0x80 PUSH1 0x20 DUP3 ADD MSTORE PUSH0 PUSH2 0x5693 PUSH1 0x80 DUP4 ADD DUP7 PUSH2 0x49D6 JUMP JUMPDEST PUSH1 0x1 PUSH1 0x1 PUSH1 0x40 SHL SUB DUP6 AND PUSH1 0x40 DUP5 ADD MSTORE DUP3 DUP2 SUB PUSH1 0x60 DUP5 ADD MSTORE PUSH2 0x56B4 DUP2 DUP6 PUSH2 0x5220 JUMP JUMPDEST SWAP8 SWAP7 POP POP POP POP POP POP POP JUMP JUMPDEST PUSH0 PUSH2 0x56CA DUP3 DUP6 PUSH2 0x50DD JUMP JUMPDEST PUSH16 0x1025B4B1B5B2B2102AB9B2B9101D1D1 PUSH1 0x85 SHL DUP2 MSTORE PUSH2 0x4D93 PUSH1 0x10 DUP3 ADD DUP6 PUSH2 0x52E2 JUMP JUMPDEST PUSH0 PUSH2 0xFFFF DUP3 AND PUSH2 0xFFFF DUP2 SUB PUSH2 0x5704 JUMPI PUSH2 0x5704 PUSH2 0x54A4 JUMP JUMPDEST PUSH1 0x1 ADD SWAP3 SWAP2 POP POP JUMP JUMPDEST PUSH0 PUSH2 0x4A16 DUP3 DUP5 PUSH2 0x50DD JUMP JUMPDEST PUSH1 0x1 PUSH1 0x1 PUSH1 0xA0 SHL SUB SWAP4 DUP5 AND DUP2 MSTORE SWAP2 DUP4 AND PUSH1 0x20 DUP4 ADD MSTORE SWAP1 SWAP2 AND PUSH1 0x40 DUP3 ADD MSTORE PUSH1 0x60 ADD SWAP1 JUMP JUMPDEST PUSH4 0x4E487B71 PUSH1 0xE0 SHL PUSH0 MSTORE PUSH1 0x1 PUSH1 0x4 MSTORE PUSH1 0x24 PUSH0 REVERT JUMPDEST PUSH1 0xFF DUP2 DUP2 AND DUP4 DUP3 AND MUL SWAP1 DUP2 AND SWAP1 DUP2 DUP2 EQ PUSH2 0x576B JUMPI PUSH2 0x576B PUSH2 0x54A4 JUMP JUMPDEST POP SWAP3 SWAP2 POP POP JUMP JUMPDEST DUP1 DUP3 ADD DUP1 DUP3 GT ISZERO PUSH2 0xCF1 JUMPI PUSH2 0xCF1 PUSH2 0x54A4 JUMP JUMPDEST PUSH1 0x1 PUSH1 0x1 PUSH1 0xA0 SHL SUB SWAP3 SWAP1 SWAP3 AND DUP3 MSTORE PUSH1 0x1 PUSH1 0x1 PUSH1 0x40 SHL SUB AND PUSH1 0x20 DUP3 ADD MSTORE PUSH1 0x40 ADD SWAP1 JUMP JUMPDEST DUP5 DUP2 MSTORE PUSH1 0x1 PUSH1 0x1 PUSH1 0x40 SHL SUB DUP5 AND PUSH1 0x20 DUP3 ADD MSTORE PUSH1 0x1 PUSH1 0x1 PUSH1 0x40 SHL SUB DUP4 AND PUSH1 0x40 DUP3 ADD MSTORE PUSH1 0x80 PUSH1 0x60 DUP3 ADD MSTORE PUSH0 PUSH2 0x57DD PUSH1 0x80 DUP4 ADD DUP5 PUSH2 0x49D6 JUMP JUMPDEST SWAP7 SWAP6 POP POP POP POP POP POP JUMP JUMPDEST PUSH1 0x1 PUSH1 0x1 PUSH1 0x40 SHL SUB DUP2 DUP2 AND DUP4 DUP3 AND ADD SWAP1 DUP2 GT ISZERO PUSH2 0xCF1 JUMPI PUSH2 0xCF1 PUSH2 0x54A4 JUMP JUMPDEST PUSH1 0x1 PUSH1 0x1 PUSH1 0x40 SHL SUB DUP4 AND DUP2 MSTORE PUSH1 0x40 PUSH1 0x20 DUP3 ADD MSTORE PUSH0 PUSH2 0x4BAE PUSH1 0x40 DUP4 ADD DUP5 PUSH2 0x5220 JUMP JUMPDEST PUSH25 0x2932B6B7BB32B21024B730B1BA34BB32902AB9B2B9101D1D1 PUSH1 0x3D SHL DUP2 MSTORE PUSH0 PUSH2 0x4A16 PUSH1 0x19 DUP4 ADD DUP5 PUSH2 0x52E2 JUMP JUMPDEST PUSH0 PUSH1 0x20 DUP3 DUP5 SUB SLT ISZERO PUSH2 0x5864 JUMPI PUSH0 PUSH0 REVERT JUMPDEST DUP2 MLOAD PUSH1 0x1 PUSH1 0x1 PUSH1 0x40 SHL SUB DUP2 GT ISZERO PUSH2 0x5879 JUMPI PUSH0 PUSH0 REVERT JUMPDEST DUP3 ADD PUSH1 0x1F DUP2 ADD DUP5 SGT PUSH2 0x5889 JUMPI PUSH0 PUSH0 REVERT JUMPDEST PUSH2 0x4BAE DUP5 DUP3 MLOAD PUSH1 0x20 DUP5 ADD PUSH2 0x4F89 JUMP JUMPDEST PUSH15 0x2732BB9020B1B937B73CB6901D1D1 PUSH1 0x8D SHL DUP2 MSTORE PUSH0 PUSH2 0x4A16 PUSH1 0xF DUP4 ADD DUP5 PUSH2 0x52E2 JUMP JUMPDEST PUSH1 0x20 DUP2 MSTORE PUSH0 PUSH2 0x4A16 PUSH1 0x20 DUP4 ADD DUP5 PUSH2 0x5220 JUMP JUMPDEST PUSH2 0xFFFF DUP2 DUP2 AND DUP4 DUP3 AND ADD SWAP1 DUP2 GT ISZERO PUSH2 0xCF1 JUMPI PUSH2 0xCF1 PUSH2 0x54A4 JUMP JUMPDEST PUSH1 0xF PUSH1 0xFA SHL DUP2 MSTORE PUSH0 PUSH2 0x58FC PUSH1 0x1 DUP4 ADD DUP7 PUSH2 0x50DD JUMP JUMPDEST PUSH16 0x3E205375626D6974746564203A3A205B PUSH1 0x80 SHL DUP2 MSTORE PUSH2 0x591F PUSH1 0x10 DUP3 ADD DUP7 PUSH2 0x50DD JUMP JUMPDEST SWAP1 POP PUSH2 0x2E9 PUSH1 0xF5 SHL DUP2 MSTORE PUSH2 0x57DD PUSH1 0x2 DUP3 ADD DUP6 PUSH2 0x50DD JUMP JUMPDEST PUSH1 0x1 PUSH1 0x1 PUSH1 0x40 SHL SUB DUP6 AND DUP2 MSTORE PUSH1 0x80 PUSH1 0x20 DUP3 ADD MSTORE PUSH0 PUSH2 0x5957 PUSH1 0x80 DUP4 ADD DUP7 PUSH2 0x49D6 JUMP JUMPDEST PUSH2 0xFFFF DUP6 AND PUSH1 0x40 DUP5 ADD MSTORE DUP3 DUP2 SUB PUSH1 0x60 DUP5 ADD MSTORE PUSH2 0x56B4 DUP2 DUP6 PUSH2 0x49D6 JUMP JUMPDEST PUSH1 0xFF DUP2 DUP2 AND DUP4 DUP3 AND ADD SWAP1 DUP2 GT ISZERO PUSH2 0xCF1 JUMPI PUSH2 0xCF1 PUSH2 0x54A4 JUMP JUMPDEST PUSH0 PUSH2 0x300 DUP3 DUP5 SUB SLT DUP1 ISZERO PUSH2 0x599E JUMPI PUSH0 PUSH0 REVERT JUMPDEST POP PUSH1 0x40 MLOAD PUSH1 0x60 DUP2 ADD PUSH1 0x1 PUSH1 0x1 PUSH1 0x40 SHL SUB DUP2 GT DUP3 DUP3 LT OR ISZERO PUSH2 0x59C1 JUMPI PUSH2 0x59C1 PUSH2 0x4A76 JUMP JUMPDEST PUSH1 0x40 MSTORE PUSH2 0x59CE DUP5 DUP5 PUSH2 0x4EE4 JUMP JUMPDEST DUP2 MSTORE PUSH2 0x59DE DUP5 PUSH2 0x100 DUP6 ADD PUSH2 0x4EE4 JUMP JUMPDEST PUSH1 0x20 DUP3 ADD MSTORE PUSH2 0x59F1 DUP5 PUSH2 0x200 DUP6 ADD PUSH2 0x4EE4 JUMP JUMPDEST PUSH1 0x40 DUP3 ADD MSTORE SWAP4 SWAP3 POP POP POP JUMP JUMPDEST PUSH1 0x1 PUSH1 0x1 PUSH1 0xA0 SHL SUB SWAP8 DUP9 AND DUP2 MSTORE SWAP6 DUP8 AND PUSH1 0x20 DUP8 ADD MSTORE SWAP4 DUP7 AND PUSH1 0x40 DUP7 ADD MSTORE SWAP2 DUP6 AND PUSH1 0x60 DUP6 ADD MSTORE SWAP1 SWAP4 AND PUSH1 0x80 DUP4 ADD MSTORE PUSH1 0xA0 DUP3 ADD SWAP3 SWAP1 SWAP3 MSTORE PUSH1 0xC0 DUP2 ADD SWAP2 SWAP1 SWAP2 MSTORE PUSH1 0xE0 ADD SWAP1 JUMP JUMPDEST DUP2 DUP2 SUB DUP2 DUP2 GT ISZERO PUSH2 0xCF1 JUMPI PUSH2 0xCF1 PUSH2 0x54A4 JUMP JUMPDEST PUSH4 0x4E487B71 PUSH1 0xE0 SHL PUSH0 MSTORE PUSH1 0x31 PUSH1 0x4 MSTORE PUSH1 0x24 PUSH0 REVERT JUMPDEST PUSH7 0x2BA4A72722A91 PUSH1 0xCD SHL DUP2 MSTORE PUSH0 PUSH2 0x5A82 PUSH1 0x7 DUP4 ADD DUP6 PUSH2 0x52E2 JUMP JUMPDEST PUSH4 0x1010909 PUSH1 0xE5 SHL DUP2 MSTORE PUSH2 0x4D93 PUSH1 0x4 DUP3 ADD DUP6 PUSH2 0x52E2 JUMP JUMPDEST PUSH0 PUSH2 0xFFFF DUP4 AND DUP1 PUSH2 0x5AAC JUMPI PUSH2 0x5AAC PUSH2 0x55C0 JUMP JUMPDEST DUP1 PUSH2 0xFFFF DUP5 AND DIV SWAP2 POP POP SWAP3 SWAP2 POP POP JUMP JUMPDEST PUSH1 0x1 PUSH1 0x1 PUSH1 0x40 SHL SUB DUP6 AND DUP2 MSTORE PUSH1 0x80 PUSH1 0x20 DUP3 ADD MSTORE PUSH0 PUSH2 0x5ADD PUSH1 0x80 DUP4 ADD DUP7 PUSH2 0x5220 JUMP JUMPDEST DUP3 DUP2 SUB PUSH1 0x40 DUP5 ADD MSTORE PUSH2 0x5AEF DUP2 DUP7 PUSH2 0x5220 JUMP JUMPDEST SWAP2 POP POP PUSH2 0xFFFF DUP4 AND PUSH1 0x60 DUP4 ADD MSTORE SWAP6 SWAP5 POP POP POP POP POP JUMP INVALID LOG2 PUSH5 0x6970667358 0x22 SLT KECCAK256 ISZERO 0x2B PREVRANDAO DUP7 PREVRANDAO 0x27 0x4E PUSH15 0x5C7AF3CAFA3F569E3F9C4D6D9F819F 0xED DIV BLOBHASH 0xB1 PUSH1 0x5B GAS 0xB1 REVERT PUSH5 0x736F6C6343 STOP ADDMOD SHL STOP CALLER 0x4F PUSH15 0x6365204174204C6561737420352050 PUSH13 0x6179657273204861766520456E PUSH21 0x657265642042792043616C6C696E6720456E746572 0x28 SSTORE PUSH20 0x6572546F6B656E29205769746820546865697220 SSTORE PUSH20 0x6572546F6B656E20416464726573730A54686520 SELFBALANCE PUSH2 0x6D65 KECCAK256 JUMPI PUSH10 0x6C6C2053746172742E20 COINBASE KECCAK256 ORIGIN 0x2D CALLDATASIZE KECCAK256 0x4C PUSH6 0x747465722041 PUSH4 0x726F6E79 PUSH14 0x2057696C6C2042652047656E6572 PUSH2 0x7465 PUSH5 0x20416E6420 NUMBER PUSH2 0x6E20 COINBASE PUSH13 0x77617973204265205265747269 PUSH6 0x766564204279 EXP NUMBER PUSH2 0x6C6C PUSH10 0x6E67204765744163726F PUSH15 0x796D28292E204561636820526F756E PUSH5 0x2057696C6C KECCAK256 0x4C PUSH2 0x7374 KECCAK256 CHAINID PUSH16 0x72203130204D696E7574657320576869 PUSH13 0x6520596F75205375626D697420 COINBASE PUSH20 0x204D616E79204163726F6E796D730A417320596F PUSH22 0x2057616E742057697468696E2054686520526F756E64 KECCAK256 TIMESTAMP PUSH26 0x2043616C6C696E67205375626D6974284163726F6E796D205374 PUSH19 0x696E672920416E64204F627365727665204173 KECCAK256 0x4F PUSH21 0x68657273205375626D69740A5468656972204F776E KECCAK256 COINBASE PUSH4 0x726F6E79 PUSH14 0x732057697468696E205468652043 PUSH9 0x6174204368616E6E65 PUSH13 0x205768696C6520596F75204361 PUSH15 0x20566F7465204F72204368616E6765 KECCAK256 MSIZE PUSH16 0x757220566F746520466F722054686973 EXP MSTORE PUSH16 0x756E642773204163726F6E796D204279 KECCAK256 NUMBER PUSH2 0x6C6C PUSH10 0x6E6720566F7465284163 PUSH19 0x6F6E796D204E756D626572292E2020506C6179 PUSH6 0x72732057686F KECCAK256 PREVRANDAO PUSH16 0x204E6F7420566F746520466F72203220 MSTORE PUSH16 0x756E64732057696C6C0A4265204B6963 PUSH12 0x6564204F7574204F66205468 PUSH6 0x2044656C6567 PUSH2 0x7469 PUSH16 0x6E0A4561726E20557020546F2035204E MSIZE 0x4D KECCAK256 CHAINID PUSH16 0x72204561636820416372796F6E796D20 MSTORE8 PUSH22 0x626D69747465642C2031204E594D20466F7220566F74 PUSH10 0x6E67204561636820526F PUSH22 0x6E642C0A4F7220313030204E594D20466F722057696E PUSH15 0x696E6720210A4966204D6F72652054 PUSH9 0x616E204F6E65204163 PUSH19 0x6F6E796D2054696573205468656E2054686520 BALANCE ADDRESS ADDRESS KECCAK256 0x4E MSIZE 0x4D KECCAK256 JUMPI PUSH10 0x6C6C2042652053706C69 PUSH21 0x0 "
		},
		"gasEstimates": {
			"creation": {
				"codeDepositCost": "4671000",
				"executionCost": "infinite",
				"totalCost": "infinite"
			},
			"external": {
				"Acronym()": "infinite",
				"AcronymCount()": "2397",
				"Active()": "2353",
				"ActivePlayers()": "2336",
				"Chat(string)": "infinite",
				"Cho()": "2493",
				"Description()": "infinite",
				"GetAcronym(uint16)": "infinite",
				"GetMarketRate(address)": "2640",
				"GetPlayerBySoul(uint64)": "infinite",
				"Join(address)": "infinite",
				"Kick(uint64)": "infinite",
				"Leave()": "infinite",
				"MaxAcronymLength()": "2412",
				"MotzkinPrime()": "281",
				"OperatorSendMSG(string)": "infinite",
				"Prize()": "2447",
				"Purchase(address,uint256)": "infinite",
				"ReactPlayer(uint64,uint64)": "infinite",
				"Redeem(address,uint256)": "infinite",
				"Rename(string,string)": "infinite",
				"RoundNumber()": "2448",
				"SetDescription(string)": "infinite",
				"SetMaxAcronymLength(uint8)": "infinite",
				"SetMinPlayers(uint8)": "infinite",
				"SetRoundMinutes(uint8)": "infinite",
				"Start()": "infinite",
				"Type()": "infinite",
				"Vote(uint16)": "infinite",
				"Waat()": "2427",
				"Xiao()": "2406",
				"addOwner(address)": "infinite",
				"allowance(address,address)": "infinite",
				"approve(address,uint256)": "24748",
				"balanceOf(address)": "2618",
				"decimals()": "323",
				"maxSupply()": "2382",
				"mintToCap()": "infinite",
				"name()": "infinite",
				"owner()": "280",
				"owner(address)": "2666",
				"renounceOwnership(address)": "infinite",
				"symbol()": "infinite",
				"totalSupply()": "2326",
				"transfer(address,uint256)": "51197",
				"transferFrom(address,address,uint256)": "infinite"
			},
			"internal": {
				"EndRound()": "infinite",
				"Log(uint64,uint64,string memory)": "infinite",
				"NewAcronym()": "infinite",
				"NewRound()": "infinite",
				"Submit(struct User memory,string memory)": "infinite",
				"_removeUserBySoul(uint64)": "infinite"
			}
		},
		"methodIdentifiers": {
			"Acronym()": "05e29bf3",
			"AcronymCount()": "18f02342",
			"Active()": "c9b0a2a7",
			"ActivePlayers()": "3f94f078",
			"Chat(string)": "21516fc4",
			"Cho()": "6872fc3c",
			"Description()": "8191745f",
			"GetAcronym(uint16)": "5314a0f1",
			"GetMarketRate(address)": "2b83b1fc",
			"GetPlayerBySoul(uint64)": "222e5071",
			"Join(address)": "0764c80c",
			"Kick(uint64)": "2ab1e6e9",
			"Leave()": "ac8f5ead",
			"MaxAcronymLength()": "5dd0e415",
			"MotzkinPrime()": "d3dc2a0f",
			"OperatorSendMSG(string)": "6f55e4fc",
			"Prize()": "11cfd2b2",
			"Purchase(address,uint256)": "2499a533",
			"ReactPlayer(uint64,uint64)": "b46c0ac3",
			"Redeem(address,uint256)": "222838db",
			"Rename(string,string)": "9dcbf7ea",
			"RoundNumber()": "7ac5d8a9",
			"SetDescription(string)": "ab7dca68",
			"SetMaxAcronymLength(uint8)": "a2a90d90",
			"SetMinPlayers(uint8)": "a6f22f25",
			"SetRoundMinutes(uint8)": "9f7051f5",
			"Start()": "1b55ba3a",
			"Type()": "ff762044",
			"Vote(uint16)": "b3ca7a7a",
			"Waat()": "a138da0b",
			"Xiao()": "6fb7329c",
			"addOwner(address)": "7065cb48",
			"allowance(address,address)": "dd62ed3e",
			"approve(address,uint256)": "095ea7b3",
			"balanceOf(address)": "70a08231",
			"decimals()": "313ce567",
			"maxSupply()": "d5abeb01",
			"mintToCap()": "f4e6c93f",
			"name()": "06fdde03",
			"owner()": "8da5cb5b",
			"owner(address)": "666e1b39",
			"renounceOwnership(address)": "38bf3cfa",
			"symbol()": "95d89b41",
			"totalSupply()": "18160ddd",
			"transfer(address,uint256)": "a9059cbb",
			"transferFrom(address,address,uint256)": "23b872dd"
		}
	},
	"abi": [
		{
			"inputs": [
				{
					"internalType": "address",
					"name": "ChoAddress",
					"type": "address"
				}
			],
			"stateMutability": "nonpayable",
			"type": "constructor"
		},
		{
			"inputs": [
				{
					"internalType": "address",
					"name": "origin",
					"type": "address"
				},
				{
					"internalType": "address",
					"name": "sender",
					"type": "address"
				},
				{
					"internalType": "address",
					"name": "owner",
					"type": "address"
				},
				{
					"internalType": "address",
					"name": "spender",
					"type": "address"
				},
				{
					"internalType": "address",
					"name": "what",
					"type": "address"
				},
				{
					"internalType": "uint256",
					"name": "allowance",
					"type": "uint256"
				},
				{
					"internalType": "uint256",
					"name": "needed",
					"type": "uint256"
				}
			],
			"name": "DysnomiaInsufficientAllowance",
			"type": "error"
		},
		{
			"inputs": [
				{
					"internalType": "address",
					"name": "origin",
					"type": "address"
				},
				{
					"internalType": "address",
					"name": "sender",
					"type": "address"
				},
				{
					"internalType": "address",
					"name": "from",
					"type": "address"
				},
				{
					"internalType": "address",
					"name": "to",
					"type": "address"
				},
				{
					"internalType": "address",
					"name": "what",
					"type": "address"
				},
				{
					"internalType": "uint256",
					"name": "balance",
					"type": "uint256"
				},
				{
					"internalType": "uint256",
					"name": "needed",
					"type": "uint256"
				}
			],
			"name": "DysnomiaInsufficientBalance",
			"type": "error"
		},
		{
			"inputs": [
				{
					"internalType": "address",
					"name": "asset",
					"type": "address"
				}
			],
			"name": "MarketRateNotFound",
			"type": "error"
		},
		{
			"inputs": [
				{
					"internalType": "uint64",
					"name": "Soul",
					"type": "uint64"
				}
			],
			"name": "NotPlaying",
			"type": "error"
		},
		{
			"inputs": [
				{
					"internalType": "address",
					"name": "origin",
					"type": "address"
				},
				{
					"internalType": "address",
					"name": "owner",
					"type": "address"
				},
				{
					"internalType": "address",
					"name": "what",
					"type": "address"
				}
			],
			"name": "OwnableInvalidOwner",
			"type": "error"
		},
		{
			"inputs": [
				{
					"internalType": "address",
					"name": "origin",
					"type": "address"
				},
				{
					"internalType": "address",
					"name": "account",
					"type": "address"
				},
				{
					"internalType": "address",
					"name": "what",
					"type": "address"
				}
			],
			"name": "OwnableUnauthorizedAccount",
			"type": "error"
		},
		{
			"anonymous": false,
			"inputs": [
				{
					"indexed": false,
					"internalType": "uint64",
					"name": "Soul",
					"type": "uint64"
				},
				{
					"indexed": false,
					"internalType": "string",
					"name": "Username",
					"type": "string"
				},
				{
					"indexed": false,
					"internalType": "uint16",
					"name": "Id",
					"type": "uint16"
				},
				{
					"indexed": false,
					"internalType": "string",
					"name": "Phrase",
					"type": "string"
				}
			],
			"name": "AcronymSubmission",
			"type": "event"
		},
		{
			"anonymous": false,
			"inputs": [
				{
					"indexed": true,
					"internalType": "address",
					"name": "owner",
					"type": "address"
				},
				{
					"indexed": true,
					"internalType": "address",
					"name": "spender",
					"type": "address"
				},
				{
					"indexed": false,
					"internalType": "uint256",
					"name": "value",
					"type": "uint256"
				}
			],
			"name": "Approval",
			"type": "event"
		},
		{
			"anonymous": false,
			"inputs": [
				{
					"indexed": false,
					"internalType": "uint64",
					"name": "UserSoul",
					"type": "uint64"
				},
				{
					"indexed": false,
					"internalType": "string",
					"name": "Username",
					"type": "string"
				}
			],
			"name": "InactiveUser",
			"type": "event"
		},
		{
			"anonymous": false,
			"inputs": [
				{
					"indexed": false,
					"internalType": "uint64",
					"name": "Soul",
					"type": "uint64"
				},
				{
					"indexed": false,
					"internalType": "string",
					"name": "Username",
					"type": "string"
				}
			],
			"name": "JoinedUser",
			"type": "event"
		},
		{
			"anonymous": false,
			"inputs": [
				{
					"indexed": false,
					"internalType": "uint64",
					"name": "OperatorSoul",
					"type": "uint64"
				},
				{
					"indexed": false,
					"internalType": "string",
					"name": "OperatorUsername",
					"type": "string"
				},
				{
					"indexed": false,
					"internalType": "uint64",
					"name": "UserSoul",
					"type": "uint64"
				},
				{
					"indexed": false,
					"internalType": "string",
					"name": "Username",
					"type": "string"
				}
			],
			"name": "KickedUser",
			"type": "event"
		},
		{
			"anonymous": false,
			"inputs": [
				{
					"indexed": false,
					"internalType": "uint256",
					"name": "Waat",
					"type": "uint256"
				},
				{
					"indexed": false,
					"internalType": "uint64",
					"name": "Soul",
					"type": "uint64"
				},
				{
					"indexed": false,
					"internalType": "uint64",
					"name": "Aura",
					"type": "uint64"
				},
				{
					"indexed": false,
					"internalType": "string",
					"name": "LogLine",
					"type": "string"
				}
			],
			"name": "LogEvent",
			"type": "event"
		},
		{
			"anonymous": false,
			"inputs": [
				{
					"indexed": false,
					"internalType": "string",
					"name": "Acronym",
					"type": "string"
				}
			],
			"name": "NewRoundAcronym",
			"type": "event"
		},
		{
			"anonymous": false,
			"inputs": [
				{
					"indexed": true,
					"internalType": "address",
					"name": "newOwner",
					"type": "address"
				},
				{
					"indexed": true,
					"internalType": "bool",
					"name": "state",
					"type": "bool"
				}
			],
			"name": "OwnershipUpdate",
			"type": "event"
		},
		{
			"anonymous": false,
			"inputs": [
				{
					"indexed": true,
					"internalType": "address",
					"name": "from",
					"type": "address"
				},
				{
					"indexed": true,
					"internalType": "address",
					"name": "to",
					"type": "address"
				},
				{
					"indexed": false,
					"internalType": "uint256",
					"name": "value",
					"type": "uint256"
				}
			],
			"name": "Transfer",
			"type": "event"
		},
		{
			"anonymous": false,
			"inputs": [
				{
					"indexed": false,
					"internalType": "uint64",
					"name": "Soul",
					"type": "uint64"
				},
				{
					"indexed": false,
					"internalType": "string",
					"name": "Username",
					"type": "string"
				},
				{
					"indexed": false,
					"internalType": "string",
					"name": "Phrase",
					"type": "string"
				},
				{
					"indexed": false,
					"internalType": "uint16",
					"name": "Prize",
					"type": "uint16"
				}
			],
			"name": "Winner",
			"type": "event"
		},
		{
			"inputs": [],
			"name": "Acronym",
			"outputs": [
				{
					"internalType": "string",
					"name": "",
					"type": "string"
				}
			],
			"stateMutability": "view",
			"type": "function"
		},
		{
			"inputs": [],
			"name": "AcronymCount",
			"outputs": [
				{
					"internalType": "uint16",
					"name": "",
					"type": "uint16"
				}
			],
			"stateMutability": "view",
			"type": "function"
		},
		{
			"inputs": [],
			"name": "Active",
			"outputs": [
				{
					"internalType": "bool",
					"name": "",
					"type": "bool"
				}
			],
			"stateMutability": "view",
			"type": "function"
		},
		{
			"inputs": [],
			"name": "ActivePlayers",
			"outputs": [
				{
					"internalType": "uint256",
					"name": "",
					"type": "uint256"
				}
			],
			"stateMutability": "view",
			"type": "function"
		},
		{
			"inputs": [
				{
					"internalType": "string",
					"name": "chatline",
					"type": "string"
				}
			],
			"name": "Chat",
			"outputs": [],
			"stateMutability": "nonpayable",
			"type": "function"
		},
		{
			"inputs": [],
			"name": "Cho",
			"outputs": [
				{
					"internalType": "contract CHOINTERFACE",
					"name": "",
					"type": "address"
				}
			],
			"stateMutability": "view",
			"type": "function"
		},
		{
			"inputs": [],
			"name": "Description",
			"outputs": [
				{
					"internalType": "string",
					"name": "",
					"type": "string"
				}
			],
			"stateMutability": "view",
			"type": "function"
		},
		{
			"inputs": [
				{
					"internalType": "uint16",
					"name": "idx",
					"type": "uint16"
				}
			],
			"name": "GetAcronym",
			"outputs": [
				{
					"components": [
						{
							"internalType": "uint16",
							"name": "Id",
							"type": "uint16"
						},
						{
							"components": [
								{
									"internalType": "uint64",
									"name": "Soul",
									"type": "uint64"
								},
								{
									"components": [
										{
											"internalType": "address",
											"name": "Phi",
											"type": "address"
										},
										{
											"internalType": "contract SHA",
											"name": "Mu",
											"type": "address"
										},
										{
											"internalType": "uint64",
											"name": "Xi",
											"type": "uint64"
										},
										{
											"internalType": "uint64",
											"name": "Pi",
											"type": "uint64"
										},
										{
											"internalType": "contract SHIO",
											"name": "Shio",
											"type": "address"
										},
										{
											"internalType": "uint64",
											"name": "Ring",
											"type": "uint64"
										},
										{
											"internalType": "uint64",
											"name": "Omicron",
											"type": "uint64"
										},
										{
											"internalType": "uint64",
											"name": "Omega",
											"type": "uint64"
										}
									],
									"internalType": "struct Bao",
									"name": "On",
									"type": "tuple"
								},
								{
									"internalType": "string",
									"name": "Username",
									"type": "string"
								},
								{
									"internalType": "uint64",
									"name": "Entropy",
									"type": "uint64"
								}
							],
							"internalType": "struct User",
							"name": "UserInfo",
							"type": "tuple"
						},
						{
							"internalType": "string",
							"name": "Phrase",
							"type": "string"
						}
					],
					"internalType": "struct ACRONYM",
					"name": "",
					"type": "tuple"
				}
			],
			"stateMutability": "view",
			"type": "function"
		},
		{
			"inputs": [
				{
					"internalType": "address",
					"name": "_a",
					"type": "address"
				}
			],
			"name": "GetMarketRate",
			"outputs": [
				{
					"internalType": "uint256",
					"name": "",
					"type": "uint256"
				}
			],
			"stateMutability": "view",
			"type": "function"
		},
		{
			"inputs": [
				{
					"internalType": "uint64",
					"name": "Soul",
					"type": "uint64"
				}
			],
			"name": "GetPlayerBySoul",
			"outputs": [
				{
					"components": [
						{
							"internalType": "uint64",
							"name": "Soul",
							"type": "uint64"
						},
						{
							"components": [
								{
									"internalType": "address",
									"name": "Phi",
									"type": "address"
								},
								{
									"internalType": "contract SHA",
									"name": "Mu",
									"type": "address"
								},
								{
									"internalType": "uint64",
									"name": "Xi",
									"type": "uint64"
								},
								{
									"internalType": "uint64",
									"name": "Pi",
									"type": "uint64"
								},
								{
									"internalType": "contract SHIO",
									"name": "Shio",
									"type": "address"
								},
								{
									"internalType": "uint64",
									"name": "Ring",
									"type": "uint64"
								},
								{
									"internalType": "uint64",
									"name": "Omicron",
									"type": "uint64"
								},
								{
									"internalType": "uint64",
									"name": "Omega",
									"type": "uint64"
								}
							],
							"internalType": "struct Bao",
							"name": "On",
							"type": "tuple"
						},
						{
							"internalType": "string",
							"name": "Username",
							"type": "string"
						},
						{
							"internalType": "uint64",
							"name": "Entropy",
							"type": "uint64"
						}
					],
					"internalType": "struct User",
					"name": "",
					"type": "tuple"
				}
			],
			"stateMutability": "view",
			"type": "function"
		},
		{
			"inputs": [
				{
					"internalType": "address",
					"name": "UserToken",
					"type": "address"
				}
			],
			"name": "Join",
			"outputs": [],
			"stateMutability": "nonpayable",
			"type": "function"
		},
		{
			"inputs": [
				{
					"internalType": "uint64",
					"name": "_soul",
					"type": "uint64"
				}
			],
			"name": "Kick",
			"outputs": [],
			"stateMutability": "nonpayable",
			"type": "function"
		},
		{
			"inputs": [],
			"name": "Leave",
			"outputs": [],
			"stateMutability": "nonpayable",
			"type": "function"
		},
		{
			"inputs": [],
			"name": "MaxAcronymLength",
			"outputs": [
				{
					"internalType": "uint8",
					"name": "",
					"type": "uint8"
				}
			],
			"stateMutability": "view",
			"type": "function"
		},
		{
			"inputs": [],
			"name": "MotzkinPrime",
			"outputs": [
				{
					"internalType": "uint64",
					"name": "",
					"type": "uint64"
				}
			],
			"stateMutability": "view",
			"type": "function"
		},
		{
			"inputs": [
				{
					"internalType": "string",
					"name": "chatline",
					"type": "string"
				}
			],
			"name": "OperatorSendMSG",
			"outputs": [],
			"stateMutability": "nonpayable",
			"type": "function"
		},
		{
			"inputs": [],
			"name": "Prize",
			"outputs": [
				{
					"internalType": "uint16",
					"name": "",
					"type": "uint16"
				}
			],
			"stateMutability": "view",
			"type": "function"
		},
		{
			"inputs": [
				{
					"internalType": "address",
					"name": "_t",
					"type": "address"
				},
				{
					"internalType": "uint256",
					"name": "_a",
					"type": "uint256"
				}
			],
			"name": "Purchase",
			"outputs": [],
			"stateMutability": "nonpayable",
			"type": "function"
		},
		{
			"inputs": [
				{
					"internalType": "uint64",
					"name": "Soul",
					"type": "uint64"
				},
				{
					"internalType": "uint64",
					"name": "Theta",
					"type": "uint64"
				}
			],
			"name": "ReactPlayer",
			"outputs": [
				{
					"internalType": "uint64",
					"name": "Omicron",
					"type": "uint64"
				},
				{
					"internalType": "uint64",
					"name": "Omega",
					"type": "uint64"
				}
			],
			"stateMutability": "nonpayable",
			"type": "function"
		},
		{
			"inputs": [
				{
					"internalType": "address",
					"name": "_t",
					"type": "address"
				},
				{
					"internalType": "uint256",
					"name": "_a",
					"type": "uint256"
				}
			],
			"name": "Redeem",
			"outputs": [],
			"stateMutability": "nonpayable",
			"type": "function"
		},
		{
			"inputs": [
				{
					"internalType": "string",
					"name": "newName",
					"type": "string"
				},
				{
					"internalType": "string",
					"name": "newSymbol",
					"type": "string"
				}
			],
			"name": "Rename",
			"outputs": [],
			"stateMutability": "nonpayable",
			"type": "function"
		},
		{
			"inputs": [],
			"name": "RoundNumber",
			"outputs": [
				{
					"internalType": "uint64",
					"name": "",
					"type": "uint64"
				}
			],
			"stateMutability": "view",
			"type": "function"
		},
		{
			"inputs": [
				{
					"internalType": "string",
					"name": "_d",
					"type": "string"
				}
			],
			"name": "SetDescription",
			"outputs": [],
			"stateMutability": "nonpayable",
			"type": "function"
		},
		{
			"inputs": [
				{
					"internalType": "uint8",
					"name": "_m",
					"type": "uint8"
				}
			],
			"name": "SetMaxAcronymLength",
			"outputs": [],
			"stateMutability": "nonpayable",
			"type": "function"
		},
		{
			"inputs": [
				{
					"internalType": "uint8",
					"name": "_m",
					"type": "uint8"
				}
			],
			"name": "SetMinPlayers",
			"outputs": [],
			"stateMutability": "nonpayable",
			"type": "function"
		},
		{
			"inputs": [
				{
					"internalType": "uint8",
					"name": "_m",
					"type": "uint8"
				}
			],
			"name": "SetRoundMinutes",
			"outputs": [],
			"stateMutability": "nonpayable",
			"type": "function"
		},
		{
			"inputs": [],
			"name": "Start",
			"outputs": [],
			"stateMutability": "nonpayable",
			"type": "function"
		},
		{
			"inputs": [],
			"name": "Type",
			"outputs": [
				{
					"internalType": "string",
					"name": "",
					"type": "string"
				}
			],
			"stateMutability": "view",
			"type": "function"
		},
		{
			"inputs": [
				{
					"internalType": "uint16",
					"name": "Id",
					"type": "uint16"
				}
			],
			"name": "Vote",
			"outputs": [],
			"stateMutability": "nonpayable",
			"type": "function"
		},
		{
			"inputs": [],
			"name": "Waat",
			"outputs": [
				{
					"internalType": "uint256",
					"name": "",
					"type": "uint256"
				}
			],
			"stateMutability": "view",
			"type": "function"
		},
		{
			"inputs": [],
			"name": "Xiao",
			"outputs": [
				{
					"internalType": "contract atropaMath",
					"name": "",
					"type": "address"
				}
			],
			"stateMutability": "view",
			"type": "function"
		},
		{
			"inputs": [
				{
					"internalType": "address",
					"name": "newOwner",
					"type": "address"
				}
			],
			"name": "addOwner",
			"outputs": [],
			"stateMutability": "nonpayable",
			"type": "function"
		},
		{
			"inputs": [
				{
					"internalType": "address",
					"name": "owner",
					"type": "address"
				},
				{
					"internalType": "address",
					"name": "spender",
					"type": "address"
				}
			],
			"name": "allowance",
			"outputs": [
				{
					"internalType": "uint256",
					"name": "",
					"type": "uint256"
				}
			],
			"stateMutability": "view",
			"type": "function"
		},
		{
			"inputs": [
				{
					"internalType": "address",
					"name": "spender",
					"type": "address"
				},
				{
					"internalType": "uint256",
					"name": "value",
					"type": "uint256"
				}
			],
			"name": "approve",
			"outputs": [
				{
					"internalType": "bool",
					"name": "",
					"type": "bool"
				}
			],
			"stateMutability": "nonpayable",
			"type": "function"
		},
		{
			"inputs": [
				{
					"internalType": "address",
					"name": "account",
					"type": "address"
				}
			],
			"name": "balanceOf",
			"outputs": [
				{
					"internalType": "uint256",
					"name": "",
					"type": "uint256"
				}
			],
			"stateMutability": "view",
			"type": "function"
		},
		{
			"inputs": [],
			"name": "decimals",
			"outputs": [
				{
					"internalType": "uint8",
					"name": "",
					"type": "uint8"
				}
			],
			"stateMutability": "view",
			"type": "function"
		},
		{
			"inputs": [],
			"name": "maxSupply",
			"outputs": [
				{
					"internalType": "uint256",
					"name": "",
					"type": "uint256"
				}
			],
			"stateMutability": "view",
			"type": "function"
		},
		{
			"inputs": [],
			"name": "mintToCap",
			"outputs": [],
			"stateMutability": "nonpayable",
			"type": "function"
		},
		{
			"inputs": [],
			"name": "name",
			"outputs": [
				{
					"internalType": "string",
					"name": "",
					"type": "string"
				}
			],
			"stateMutability": "view",
			"type": "function"
		},
		{
			"inputs": [
				{
					"internalType": "address",
					"name": "cOwner",
					"type": "address"
				}
			],
			"name": "owner",
			"outputs": [
				{
					"internalType": "bool",
					"name": "",
					"type": "bool"
				}
			],
			"stateMutability": "view",
			"type": "function"
		},
		{
			"inputs": [],
			"name": "owner",
			"outputs": [
				{
					"internalType": "address",
					"name": "",
					"type": "address"
				}
			],
			"stateMutability": "view",
			"type": "function"
		},
		{
			"inputs": [
				{
					"internalType": "address",
					"name": "toRemove",
					"type": "address"
				}
			],
			"name": "renounceOwnership",
			"outputs": [],
			"stateMutability": "nonpayable",
			"type": "function"
		},
		{
			"inputs": [],
			"name": "symbol",
			"outputs": [
				{
					"internalType": "string",
					"name": "",
					"type": "string"
				}
			],
			"stateMutability": "view",
			"type": "function"
		},
		{
			"inputs": [],
			"name": "totalSupply",
			"outputs": [
				{
					"internalType": "uint256",
					"name": "",
					"type": "uint256"
				}
			],
			"stateMutability": "view",
			"type": "function"
		},
		{
			"inputs": [
				{
					"internalType": "address",
					"name": "to",
					"type": "address"
				},
				{
					"internalType": "uint256",
					"name": "value",
					"type": "uint256"
				}
			],
			"name": "transfer",
			"outputs": [
				{
					"internalType": "bool",
					"name": "",
					"type": "bool"
				}
			],
			"stateMutability": "nonpayable",
			"type": "function"
		},
		{
			"inputs": [
				{
					"internalType": "address",
					"name": "from",
					"type": "address"
				},
				{
					"internalType": "address",
					"name": "to",
					"type": "address"
				},
				{
					"internalType": "uint256",
					"name": "value",
					"type": "uint256"
				}
			],
			"name": "transferFrom",
			"outputs": [
				{
					"internalType": "bool",
					"name": "",
					"type": "bool"
				}
			],
			"stateMutability": "nonpayable",
			"type": "function"
		}
	]
}